{
	"contracts/Voting.sol": {
		"Voting": {
			"abi": [
				{
					"inputs": [],
					"stateMutability": "nonpayable",
					"type": "constructor"
				},
				{
					"inputs": [
						{
							"internalType": "address",
							"name": "owner",
							"type": "address"
						}
					],
					"name": "OwnableInvalidOwner",
					"type": "error"
				},
				{
					"inputs": [
						{
							"internalType": "address",
							"name": "account",
							"type": "address"
						}
					],
					"name": "OwnableUnauthorizedAccount",
					"type": "error"
				},
				{
					"anonymous": false,
					"inputs": [
						{
							"indexed": true,
							"internalType": "address",
							"name": "previousOwner",
							"type": "address"
						},
						{
							"indexed": true,
							"internalType": "address",
							"name": "newOwner",
							"type": "address"
						}
					],
					"name": "OwnershipTransferred",
					"type": "event"
				},
				{
					"anonymous": false,
					"inputs": [
						{
							"indexed": false,
							"internalType": "uint256",
							"name": "proposalId",
							"type": "uint256"
						}
					],
					"name": "ProposalRegistered",
					"type": "event"
				},
				{
					"anonymous": false,
					"inputs": [
						{
							"indexed": false,
							"internalType": "address",
							"name": "voter",
							"type": "address"
						},
						{
							"indexed": false,
							"internalType": "uint256",
							"name": "proposalId",
							"type": "uint256"
						}
					],
					"name": "Voted",
					"type": "event"
				},
				{
					"anonymous": false,
					"inputs": [
						{
							"indexed": false,
							"internalType": "address",
							"name": "voterAddress",
							"type": "address"
						}
					],
					"name": "VoterRegistered",
					"type": "event"
				},
				{
					"anonymous": false,
					"inputs": [
						{
							"indexed": false,
							"internalType": "enum Voting.WorkflowStatus",
							"name": "previousStatus",
							"type": "uint8"
						},
						{
							"indexed": false,
							"internalType": "enum Voting.WorkflowStatus",
							"name": "newStatus",
							"type": "uint8"
						}
					],
					"name": "WorkflowStatusChange",
					"type": "event"
				},
				{
					"inputs": [],
					"name": "endProposalSession",
					"outputs": [],
					"stateMutability": "nonpayable",
					"type": "function"
				},
				{
					"inputs": [],
					"name": "endVoteSession",
					"outputs": [],
					"stateMutability": "nonpayable",
					"type": "function"
				},
				{
					"inputs": [],
					"name": "getCurrentStatus",
					"outputs": [
						{
							"internalType": "enum Voting.WorkflowStatus",
							"name": "",
							"type": "uint8"
						}
					],
					"stateMutability": "view",
					"type": "function"
				},
				{
					"inputs": [],
					"name": "getPreviousStatus",
					"outputs": [
						{
							"internalType": "enum Voting.WorkflowStatus",
							"name": "",
							"type": "uint8"
						}
					],
					"stateMutability": "view",
					"type": "function"
				},
				{
					"inputs": [],
					"name": "getProposalCount",
					"outputs": [
						{
							"internalType": "uint256",
							"name": "",
							"type": "uint256"
						}
					],
					"stateMutability": "view",
					"type": "function"
				},
				{
					"inputs": [],
					"name": "getProposals",
					"outputs": [
						{
							"components": [
								{
									"internalType": "string",
									"name": "description",
									"type": "string"
								},
								{
									"internalType": "uint256",
									"name": "voteCount",
									"type": "uint256"
								}
							],
							"internalType": "struct Voting.Proposal[]",
							"name": "",
							"type": "tuple[]"
						}
					],
					"stateMutability": "view",
					"type": "function"
				},
				{
					"inputs": [
						{
							"internalType": "address",
							"name": "_address",
							"type": "address"
						}
					],
					"name": "getVoteByAddress",
					"outputs": [
						{
							"components": [
								{
									"internalType": "string",
									"name": "description",
									"type": "string"
								},
								{
									"internalType": "uint256",
									"name": "voteCount",
									"type": "uint256"
								}
							],
							"internalType": "struct Voting.Proposal",
							"name": "",
							"type": "tuple"
						}
					],
					"stateMutability": "view",
					"type": "function"
				},
				{
					"inputs": [],
					"name": "getVoteCountTotal",
					"outputs": [
						{
							"internalType": "uint256",
							"name": "",
							"type": "uint256"
						}
					],
					"stateMutability": "view",
					"type": "function"
				},
				{
					"inputs": [],
					"name": "getVoteWinnerCount",
					"outputs": [
						{
							"internalType": "uint256",
							"name": "",
							"type": "uint256"
						}
					],
					"stateMutability": "view",
					"type": "function"
				},
				{
					"inputs": [],
					"name": "getVoterCount",
					"outputs": [
						{
							"internalType": "uint256",
							"name": "",
							"type": "uint256"
						}
					],
					"stateMutability": "view",
					"type": "function"
				},
				{
					"inputs": [],
					"name": "getWinnerCount",
					"outputs": [
						{
							"internalType": "uint256",
							"name": "",
							"type": "uint256"
						}
					],
					"stateMutability": "view",
					"type": "function"
				},
				{
					"inputs": [],
					"name": "getWinnerProposal",
					"outputs": [
						{
							"components": [
								{
									"internalType": "string",
									"name": "description",
									"type": "string"
								},
								{
									"internalType": "uint256",
									"name": "voteCount",
									"type": "uint256"
								}
							],
							"internalType": "struct Voting.Proposal",
							"name": "",
							"type": "tuple"
						}
					],
					"stateMutability": "view",
					"type": "function"
				},
				{
					"inputs": [],
					"name": "getWinnerProposalId",
					"outputs": [
						{
							"internalType": "uint256",
							"name": "",
							"type": "uint256"
						}
					],
					"stateMutability": "view",
					"type": "function"
				},
				{
					"inputs": [],
					"name": "getWinner_proposaldescription",
					"outputs": [
						{
							"internalType": "string",
							"name": "",
							"type": "string"
						}
					],
					"stateMutability": "view",
					"type": "function"
				},
				{
					"inputs": [],
					"name": "owner",
					"outputs": [
						{
							"internalType": "address",
							"name": "",
							"type": "address"
						}
					],
					"stateMutability": "view",
					"type": "function"
				},
				{
					"inputs": [
						{
							"internalType": "string",
							"name": "_proposal",
							"type": "string"
						}
					],
					"name": "propose",
					"outputs": [
						{
							"internalType": "string",
							"name": "",
							"type": "string"
						}
					],
					"stateMutability": "nonpayable",
					"type": "function"
				},
				{
					"inputs": [
						{
							"internalType": "address",
							"name": "_address",
							"type": "address"
						}
					],
					"name": "registerVoter",
					"outputs": [],
					"stateMutability": "nonpayable",
					"type": "function"
				},
				{
					"inputs": [],
					"name": "renounceOwnership",
					"outputs": [],
					"stateMutability": "nonpayable",
					"type": "function"
				},
				{
					"inputs": [],
					"name": "reset",
					"outputs": [],
					"stateMutability": "nonpayable",
					"type": "function"
				},
				{
					"inputs": [],
					"name": "startProposalSession",
					"outputs": [],
					"stateMutability": "nonpayable",
					"type": "function"
				},
				{
					"inputs": [],
					"name": "startVoteSession",
					"outputs": [],
					"stateMutability": "nonpayable",
					"type": "function"
				},
				{
					"inputs": [
						{
							"internalType": "address",
							"name": "newOwner",
							"type": "address"
						}
					],
					"name": "transferOwnership",
					"outputs": [],
					"stateMutability": "nonpayable",
					"type": "function"
				},
				{
					"inputs": [
						{
							"internalType": "uint256",
							"name": "_proposald",
							"type": "uint256"
						}
					],
					"name": "vote",
					"outputs": [],
					"stateMutability": "nonpayable",
					"type": "function"
				},
				{
					"inputs": [],
					"name": "votesTallied",
					"outputs": [],
					"stateMutability": "nonpayable",
					"type": "function"
				}
			],
			"devdoc": {
				"errors": {
					"OwnableInvalidOwner(address)": [
						{
							"details": "The owner is not a valid owner account. (eg. `address(0)`)"
						}
					],
					"OwnableUnauthorizedAccount(address)": [
						{
							"details": "The caller account is not authorized to perform an operation."
						}
					]
				},
				"kind": "dev",
				"methods": {
					"owner()": {
						"details": "Returns the address of the current owner."
					},
					"renounceOwnership()": {
						"details": "Leaves the contract without owner. It will not be possible to call `onlyOwner` functions. Can only be called by the current owner. NOTE: Renouncing ownership will leave the contract without an owner, thereby disabling any functionality that is only available to the owner."
					},
					"transferOwnership(address)": {
						"details": "Transfers ownership of the contract to a new account (`newOwner`). Can only be called by the current owner."
					}
				},
				"version": 1
			},
			"evm": {
				"assembly": "    /* \"contracts/Voting.sol\":588:11251  contract Voting is Ownable {... */\n  mstore(0x40, 0x80)\n    /* \"contracts/Voting.sol\":1322:1354  WorkflowStatus.RegisteringVoters */\n  0x00\n    /* \"contracts/Voting.sol\":1291:1354  WorkflowStatus currentStatus = WorkflowStatus.RegisteringVoters */\n  0x03\n  exp(0x0100, 0x00)\n  dup2\n  sload\n  dup2\n  0xff\n  mul\n  not\n  and\n  swap1\n  dup4\n  0x05\n  dup2\n  gt\n  iszero\n  tag_1\n  jumpi\n  tag_2\n  tag_3\n  jump\t// in\ntag_2:\ntag_1:\n  mul\n  or\n  swap1\n  sstore\n  pop\n    /* \"contracts/Voting.sol\":1711:1712  1 */\n  0x01\n    /* \"contracts/Voting.sol\":1688:1712  uint voteWinnerCount = 1 */\n  0x09\n  sstore\n    /* \"contracts/Voting.sol\":2093:2134  constructor() Ownable(msg.sender) {... */\n  callvalue\n  dup1\n  iszero\n  tag_4\n  jumpi\n  revert(0x00, 0x00)\ntag_4:\n  pop\n    /* \"contracts/Voting.sol\":2115:2125  msg.sender */\n  caller\n    /* \"@openzeppelin/contracts/access/Ownable.sol\":1297:1298  0 */\n  0x00\n    /* \"@openzeppelin/contracts/access/Ownable.sol\":1273:1299  initialOwner == address(0) */\n  0xffffffffffffffffffffffffffffffffffffffff\n  and\n    /* \"@openzeppelin/contracts/access/Ownable.sol\":1273:1285  initialOwner */\n  dup2\n    /* \"@openzeppelin/contracts/access/Ownable.sol\":1273:1299  initialOwner == address(0) */\n  0xffffffffffffffffffffffffffffffffffffffff\n  and\n  sub\n    /* \"@openzeppelin/contracts/access/Ownable.sol\":1269:1364  if (initialOwner == address(0)) {... */\n  tag_8\n  jumpi\n    /* \"@openzeppelin/contracts/access/Ownable.sol\":1350:1351  0 */\n  0x00\n    /* \"@openzeppelin/contracts/access/Ownable.sol\":1322:1353  OwnableInvalidOwner(address(0)) */\n  mload(0x40)\n  0x1e4fbdf700000000000000000000000000000000000000000000000000000000\n  dup2\n  mstore\n  0x04\n  add\n  tag_9\n  swap2\n  swap1\n  tag_10\n  jump\t// in\ntag_9:\n  mload(0x40)\n  dup1\n  swap2\n  sub\n  swap1\n  revert\n    /* \"@openzeppelin/contracts/access/Ownable.sol\":1269:1364  if (initialOwner == address(0)) {... */\ntag_8:\n    /* \"@openzeppelin/contracts/access/Ownable.sol\":1373:1405  _transferOwnership(initialOwner) */\n  tag_11\n    /* \"@openzeppelin/contracts/access/Ownable.sol\":1392:1404  initialOwner */\n  dup2\n    /* \"@openzeppelin/contracts/access/Ownable.sol\":1373:1391  _transferOwnership */\n  shl(0x20, tag_12)\n    /* \"@openzeppelin/contracts/access/Ownable.sol\":1373:1405  _transferOwnership(initialOwner) */\n  0x20\n  shr\n  jump\t// in\ntag_11:\n    /* \"@openzeppelin/contracts/access/Ownable.sol\":1225:1412  constructor(address initialOwner) {... */\n  pop\n    /* \"contracts/Voting.sol\":588:11251  contract Voting is Ownable {... */\n  jump(tag_14)\n    /* \"@openzeppelin/contracts/access/Ownable.sol\":2912:3099  function _transferOwnership(address newOwner) internal virtual {... */\ntag_12:\n    /* \"@openzeppelin/contracts/access/Ownable.sol\":2985:3001  address oldOwner */\n  0x00\n    /* \"@openzeppelin/contracts/access/Ownable.sol\":3004:3010  _owner */\n  0x00\n  0x00\n  swap1\n  sload\n  swap1\n  0x0100\n  exp\n  swap1\n  div\n  0xffffffffffffffffffffffffffffffffffffffff\n  and\n    /* \"@openzeppelin/contracts/access/Ownable.sol\":2985:3010  address oldOwner = _owner */\n  swap1\n  pop\n    /* \"@openzeppelin/contracts/access/Ownable.sol\":3029:3037  newOwner */\n  dup2\n    /* \"@openzeppelin/contracts/access/Ownable.sol\":3020:3026  _owner */\n  0x00\n  0x00\n    /* \"@openzeppelin/contracts/access/Ownable.sol\":3020:3037  _owner = newOwner */\n  0x0100\n  exp\n  dup2\n  sload\n  dup2\n  0xffffffffffffffffffffffffffffffffffffffff\n  mul\n  not\n  and\n  swap1\n  dup4\n  0xffffffffffffffffffffffffffffffffffffffff\n  and\n  mul\n  or\n  swap1\n  sstore\n  pop\n    /* \"@openzeppelin/contracts/access/Ownable.sol\":3083:3091  newOwner */\n  dup2\n    /* \"@openzeppelin/contracts/access/Ownable.sol\":3052:3092  OwnershipTransferred(oldOwner, newOwner) */\n  0xffffffffffffffffffffffffffffffffffffffff\n  and\n    /* \"@openzeppelin/contracts/access/Ownable.sol\":3073:3081  oldOwner */\n  dup2\n    /* \"@openzeppelin/contracts/access/Ownable.sol\":3052:3092  OwnershipTransferred(oldOwner, newOwner) */\n  0xffffffffffffffffffffffffffffffffffffffff\n  and\n  0x8be0079c531659141344cd1fd0a4f28419497f9722a3daafe3b4186f6b6457e0\n  mload(0x40)\n  mload(0x40)\n  dup1\n  swap2\n  sub\n  swap1\n  log3\n    /* \"@openzeppelin/contracts/access/Ownable.sol\":2975:3099  {... */\n  pop\n    /* \"@openzeppelin/contracts/access/Ownable.sol\":2912:3099  function _transferOwnership(address newOwner) internal virtual {... */\n  pop\n  jump\t// out\n    /* \"#utility.yul\":7:187   */\ntag_3:\n    /* \"#utility.yul\":55:132   */\n  0x4e487b7100000000000000000000000000000000000000000000000000000000\n    /* \"#utility.yul\":52:53   */\n  0x00\n    /* \"#utility.yul\":45:133   */\n  mstore\n    /* \"#utility.yul\":152:156   */\n  0x21\n    /* \"#utility.yul\":149:150   */\n  0x04\n    /* \"#utility.yul\":142:157   */\n  mstore\n    /* \"#utility.yul\":176:180   */\n  0x24\n    /* \"#utility.yul\":173:174   */\n  0x00\n    /* \"#utility.yul\":166:181   */\n  revert\n    /* \"#utility.yul\":193:319   */\ntag_16:\n    /* \"#utility.yul\":230:237   */\n  0x00\n    /* \"#utility.yul\":270:312   */\n  0xffffffffffffffffffffffffffffffffffffffff\n    /* \"#utility.yul\":263:268   */\n  dup3\n    /* \"#utility.yul\":259:313   */\n  and\n    /* \"#utility.yul\":248:313   */\n  swap1\n  pop\n    /* \"#utility.yul\":193:319   */\n  swap2\n  swap1\n  pop\n  jump\t// out\n    /* \"#utility.yul\":325:421   */\ntag_17:\n    /* \"#utility.yul\":362:369   */\n  0x00\n    /* \"#utility.yul\":391:415   */\n  tag_23\n    /* \"#utility.yul\":409:414   */\n  dup3\n    /* \"#utility.yul\":391:415   */\n  tag_16\n  jump\t// in\ntag_23:\n    /* \"#utility.yul\":380:415   */\n  swap1\n  pop\n    /* \"#utility.yul\":325:421   */\n  swap2\n  swap1\n  pop\n  jump\t// out\n    /* \"#utility.yul\":427:545   */\ntag_18:\n    /* \"#utility.yul\":514:538   */\n  tag_25\n    /* \"#utility.yul\":532:537   */\n  dup2\n    /* \"#utility.yul\":514:538   */\n  tag_17\n  jump\t// in\ntag_25:\n    /* \"#utility.yul\":509:512   */\n  dup3\n    /* \"#utility.yul\":502:539   */\n  mstore\n    /* \"#utility.yul\":427:545   */\n  pop\n  pop\n  jump\t// out\n    /* \"#utility.yul\":551:773   */\ntag_10:\n    /* \"#utility.yul\":644:648   */\n  0x00\n    /* \"#utility.yul\":682:684   */\n  0x20\n    /* \"#utility.yul\":671:680   */\n  dup3\n    /* \"#utility.yul\":667:685   */\n  add\n    /* \"#utility.yul\":659:685   */\n  swap1\n  pop\n    /* \"#utility.yul\":695:766   */\n  tag_27\n    /* \"#utility.yul\":763:764   */\n  0x00\n    /* \"#utility.yul\":752:761   */\n  dup4\n    /* \"#utility.yul\":748:765   */\n  add\n    /* \"#utility.yul\":739:745   */\n  dup5\n    /* \"#utility.yul\":695:766   */\n  tag_18\n  jump\t// in\ntag_27:\n    /* \"#utility.yul\":551:773   */\n  swap3\n  swap2\n  pop\n  pop\n  jump\t// out\n    /* \"contracts/Voting.sol\":588:11251  contract Voting is Ownable {... */\ntag_14:\n  dataSize(sub_0)\n  dup1\n  dataOffset(sub_0)\n  0x00\n  codecopy\n  0x00\n  return\nstop\n\nsub_0: assembly {\n        /* \"contracts/Voting.sol\":588:11251  contract Voting is Ownable {... */\n      mstore(0x40, 0x80)\n      callvalue\n      dup1\n      iszero\n      tag_1\n      jumpi\n      revert(0x00, 0x00)\n    tag_1:\n      pop\n      jumpi(tag_2, lt(calldatasize, 0x04))\n      shr(0xe0, calldataload(0x00))\n      dup1\n      0xa3c1885b\n      gt\n      tag_27\n      jumpi\n      dup1\n      0xc08cc02d\n      gt\n      tag_28\n      jumpi\n      dup1\n      0xc08cc02d\n      eq\n      tag_21\n      jumpi\n      dup1\n      0xd826f88f\n      eq\n      tag_22\n      jumpi\n      dup1\n      0xe06752c2\n      eq\n      tag_23\n      jumpi\n      dup1\n      0xe1ab86fb\n      eq\n      tag_24\n      jumpi\n      dup1\n      0xf2fde38b\n      eq\n      tag_25\n      jumpi\n      dup1\n      0xf74c168d\n      eq\n      tag_26\n      jumpi\n      jump(tag_2)\n    tag_28:\n      dup1\n      0xa3c1885b\n      eq\n      tag_15\n      jumpi\n      dup1\n      0xa3dd2619\n      eq\n      tag_16\n      jumpi\n      dup1\n      0xa46c3637\n      eq\n      tag_17\n      jumpi\n      dup1\n      0xaa98df39\n      eq\n      tag_18\n      jumpi\n      dup1\n      0xaaa98346\n      eq\n      tag_19\n      jumpi\n      dup1\n      0xada7415f\n      eq\n      tag_20\n      jumpi\n      jump(tag_2)\n    tag_27:\n      dup1\n      0x62564c48\n      gt\n      tag_29\n      jumpi\n      dup1\n      0x62564c48\n      eq\n      tag_9\n      jumpi\n      dup1\n      0x65f88a7c\n      eq\n      tag_10\n      jumpi\n      dup1\n      0x715018a6\n      eq\n      tag_11\n      jumpi\n      dup1\n      0x80525548\n      eq\n      tag_12\n      jumpi\n      dup1\n      0x8da5cb5b\n      eq\n      tag_13\n      jumpi\n      dup1\n      0x9589dfcc\n      eq\n      tag_14\n      jumpi\n      jump(tag_2)\n    tag_29:\n      dup1\n      0x0121b93f\n      eq\n      tag_3\n      jumpi\n      dup1\n      0x11174a29\n      eq\n      tag_4\n      jumpi\n      dup1\n      0x38db6dd3\n      eq\n      tag_5\n      jumpi\n      dup1\n      0x43850c2d\n      eq\n      tag_6\n      jumpi\n      dup1\n      0x50d072fc\n      eq\n      tag_7\n      jumpi\n      dup1\n      0x5bc46514\n      eq\n      tag_8\n      jumpi\n    tag_2:\n      revert(0x00, 0x00)\n        /* \"contracts/Voting.sol\":3461:3839  function vote(uint256 _proposald) external restrictOwner {... */\n    tag_3:\n      tag_30\n      0x04\n      dup1\n      calldatasize\n      sub\n      dup2\n      add\n      swap1\n      tag_31\n      swap2\n      swap1\n      tag_32\n      jump\t// in\n    tag_31:\n      tag_33\n      jump\t// in\n    tag_30:\n      stop\n        /* \"contracts/Voting.sol\":10718:10804  function getVoterCount() external view returns(uint){... */\n    tag_4:\n      tag_34\n      tag_35\n      jump\t// in\n    tag_34:\n      mload(0x40)\n      tag_36\n      swap2\n      swap1\n      tag_37\n      jump\t// in\n    tag_36:\n      mload(0x40)\n      dup1\n      swap2\n      sub\n      swap1\n      return\n        /* \"contracts/Voting.sol\":2260:2697  function registerVoter(address _address) external onlyOwner {... */\n    tag_5:\n      tag_38\n      0x04\n      dup1\n      calldatasize\n      sub\n      dup2\n      add\n      swap1\n      tag_39\n      swap2\n      swap1\n      tag_40\n      jump\t// in\n    tag_39:\n      tag_41\n      jump\t// in\n    tag_38:\n      stop\n        /* \"contracts/Voting.sol\":9524:9771  function getWinner_proposaldescription() external view returns (string memory) {... */\n    tag_6:\n      tag_42\n      tag_43\n      jump\t// in\n    tag_42:\n      mload(0x40)\n      tag_44\n      swap2\n      swap1\n      tag_45\n      jump\t// in\n    tag_44:\n      mload(0x40)\n      dup1\n      swap2\n      sub\n      swap1\n      return\n        /* \"contracts/Voting.sol\":4519:4929  function startProposalSession() external onlyOwner {... */\n    tag_7:\n      tag_46\n      tag_47\n      jump\t// in\n    tag_46:\n      stop\n        /* \"contracts/Voting.sol\":9826:10031  function getWinnerProposalId() external view returns (uint) {... */\n    tag_8:\n      tag_48\n      tag_49\n      jump\t// in\n    tag_48:\n      mload(0x40)\n      tag_50\n      swap2\n      swap1\n      tag_37\n      jump\t// in\n    tag_50:\n      mload(0x40)\n      dup1\n      swap2\n      sub\n      swap1\n      return\n        /* \"contracts/Voting.sol\":10572:10669  function getProposals() external view returns(Proposal[] memory){... */\n    tag_9:\n      tag_51\n      tag_52\n      jump\t// in\n    tag_51:\n      mload(0x40)\n      tag_53\n      swap2\n      swap1\n      tag_54\n      jump\t// in\n    tag_53:\n      mload(0x40)\n      dup1\n      swap2\n      sub\n      swap1\n      return\n        /* \"contracts/Voting.sol\":10255:10386  function getPreviousStatus() external view returns (WorkflowStatus) {... */\n    tag_10:\n      tag_55\n      tag_56\n      jump\t// in\n    tag_55:\n      mload(0x40)\n      tag_57\n      swap2\n      swap1\n      tag_58\n      jump\t// in\n    tag_57:\n      mload(0x40)\n      dup1\n      swap2\n      sub\n      swap1\n      return\n        /* \"@openzeppelin/contracts/access/Ownable.sol\":2293:2394  function renounceOwnership() public virtual onlyOwner {... */\n    tag_11:\n      tag_59\n      tag_60\n      jump\t// in\n    tag_59:\n      stop\n        /* \"contracts/Voting.sol\":8387:8849  function getVoteByAddress(address _address) external view returns(Proposal memory){... */\n    tag_12:\n      tag_61\n      0x04\n      dup1\n      calldatasize\n      sub\n      dup2\n      add\n      swap1\n      tag_62\n      swap2\n      swap1\n      tag_40\n      jump\t// in\n    tag_62:\n      tag_63\n      jump\t// in\n    tag_61:\n      mload(0x40)\n      tag_64\n      swap2\n      swap1\n      tag_65\n      jump\t// in\n    tag_64:\n      mload(0x40)\n      dup1\n      swap2\n      sub\n      swap1\n      return\n        /* \"@openzeppelin/contracts/access/Ownable.sol\":1638:1723  function owner() public view virtual returns (address) {... */\n    tag_13:\n      tag_66\n      tag_67\n      jump\t// in\n    tag_66:\n      mload(0x40)\n      tag_68\n      swap2\n      swap1\n      tag_69\n      jump\t// in\n    tag_68:\n      mload(0x40)\n      dup1\n      swap2\n      sub\n      swap1\n      return\n        /* \"contracts/Voting.sol\":11152:11248  function getVoteWinnerCount() external view returns(uint){... */\n    tag_14:\n      tag_70\n      tag_71\n      jump\t// in\n    tag_70:\n      mload(0x40)\n      tag_72\n      swap2\n      swap1\n      tag_37\n      jump\t// in\n    tag_72:\n      mload(0x40)\n      dup1\n      swap2\n      sub\n      swap1\n      return\n        /* \"contracts/Voting.sol\":9234:9459  function getWinnerProposal() external view returns (Proposal memory) {... */\n    tag_15:\n      tag_73\n      tag_74\n      jump\t// in\n    tag_73:\n      mload(0x40)\n      tag_75\n      swap2\n      swap1\n      tag_65\n      jump\t// in\n    tag_75:\n      mload(0x40)\n      dup1\n      swap2\n      sub\n      swap1\n      return\n        /* \"contracts/Voting.sol\":10084:10188  function getCurrentStatus() external view returns (WorkflowStatus) {... */\n    tag_16:\n      tag_76\n      tag_77\n      jump\t// in\n    tag_76:\n      mload(0x40)\n      tag_78\n      swap2\n      swap1\n      tag_58\n      jump\t// in\n    tag_78:\n      mload(0x40)\n      dup1\n      swap2\n      sub\n      swap1\n      return\n        /* \"contracts/Voting.sol\":10997:11085  function getWinnerCount() external view returns(uint){... */\n    tag_17:\n      tag_79\n      tag_80\n      jump\t// in\n    tag_79:\n      mload(0x40)\n      tag_81\n      swap2\n      swap1\n      tag_37\n      jump\t// in\n    tag_81:\n      mload(0x40)\n      dup1\n      swap2\n      sub\n      swap1\n      return\n        /* \"contracts/Voting.sol\":2830:3455  function propose(string memory _proposal) external returns (string memory){... */\n    tag_18:\n      tag_82\n      0x04\n      dup1\n      calldatasize\n      sub\n      dup2\n      add\n      swap1\n      tag_83\n      swap2\n      swap1\n      tag_84\n      jump\t// in\n    tag_83:\n      tag_85\n      jump\t// in\n    tag_82:\n      mload(0x40)\n      tag_86\n      swap2\n      swap1\n      tag_45\n      jump\t// in\n    tag_86:\n      mload(0x40)\n      dup1\n      swap2\n      sub\n      swap1\n      return\n        /* \"contracts/Voting.sol\":5378:5739  function startVoteSession() external onlyOwner {... */\n    tag_19:\n      tag_87\n      tag_88\n      jump\t// in\n    tag_87:\n      stop\n        /* \"contracts/Voting.sol\":6190:6571  function votesTallied() external onlyOwner {... */\n    tag_20:\n      tag_89\n      tag_90\n      jump\t// in\n    tag_89:\n      stop\n        /* \"contracts/Voting.sol\":10436:10531  function getProposalCount() external view returns(uint){... */\n    tag_21:\n      tag_91\n      tag_92\n      jump\t// in\n    tag_91:\n      mload(0x40)\n      tag_93\n      swap2\n      swap1\n      tag_37\n      jump\t// in\n    tag_93:\n      mload(0x40)\n      dup1\n      swap2\n      sub\n      swap1\n      return\n        /* \"contracts/Voting.sol\":6577:7071  function reset() external onlyOwner {... */\n    tag_22:\n      tag_94\n      tag_95\n      jump\t// in\n    tag_94:\n      stop\n        /* \"contracts/Voting.sol\":4935:5371  function endProposalSession() external onlyOwner {... */\n    tag_23:\n      tag_96\n      tag_97\n      jump\t// in\n    tag_96:\n      stop\n        /* \"contracts/Voting.sol\":10852:10946  function getVoteCountTotal() external view returns(uint){... */\n    tag_24:\n      tag_98\n      tag_99\n      jump\t// in\n    tag_98:\n      mload(0x40)\n      tag_100\n      swap2\n      swap1\n      tag_37\n      jump\t// in\n    tag_100:\n      mload(0x40)\n      dup1\n      swap2\n      sub\n      swap1\n      return\n        /* \"@openzeppelin/contracts/access/Ownable.sol\":2543:2758  function transferOwnership(address newOwner) public virtual onlyOwner {... */\n    tag_25:\n      tag_101\n      0x04\n      dup1\n      calldatasize\n      sub\n      dup2\n      add\n      swap1\n      tag_102\n      swap2\n      swap1\n      tag_40\n      jump\t// in\n    tag_102:\n      tag_103\n      jump\t// in\n    tag_101:\n      stop\n        /* \"contracts/Voting.sol\":5746:6184  function endVoteSession() external onlyOwner {... */\n    tag_26:\n      tag_104\n      tag_105\n      jump\t// in\n    tag_104:\n      stop\n        /* \"contracts/Voting.sol\":3461:3839  function vote(uint256 _proposald) external restrictOwner {... */\n    tag_33:\n        /* \"contracts/Voting.sol\":3894:3904  msg.sender */\n      caller\n        /* \"contracts/Voting.sol\":3883:3904  owner() == msg.sender */\n      0xffffffffffffffffffffffffffffffffffffffff\n      and\n        /* \"contracts/Voting.sol\":3883:3890  owner() */\n      tag_107\n        /* \"contracts/Voting.sol\":3883:3888  owner */\n      tag_67\n        /* \"contracts/Voting.sol\":3883:3890  owner() */\n      jump\t// in\n    tag_107:\n        /* \"contracts/Voting.sol\":3883:3904  owner() == msg.sender */\n      0xffffffffffffffffffffffffffffffffffffffff\n      and\n      sub\n        /* \"contracts/Voting.sol\":3880:4350  if(owner() == msg.sender) {... */\n      tag_108\n      jumpi\n        /* \"contracts/Voting.sol\":3942:3943  1 */\n      0x01\n        /* \"contracts/Voting.sol\":3928:3939  winnerCount */\n      sload(0x08)\n        /* \"contracts/Voting.sol\":3928:3943  winnerCount > 1 */\n      gt\n        /* \"contracts/Voting.sol\":3920:3996  require(winnerCount > 1, \"You can only vote if there is more than 1 winner\") */\n      tag_109\n      jumpi\n      mload(0x40)\n      0x08c379a000000000000000000000000000000000000000000000000000000000\n      dup2\n      mstore\n      0x04\n      add\n      tag_110\n      swap1\n      tag_111\n      jump\t// in\n    tag_110:\n      mload(0x40)\n      dup1\n      swap2\n      sub\n      swap1\n      revert\n    tag_109:\n        /* \"contracts/Voting.sol\":4024:4025  1 */\n      0x01\n        /* \"contracts/Voting.sol\":4010:4021  winnerCount */\n      0x08\n        /* \"contracts/Voting.sol\":4010:4025  winnerCount = 1 */\n      dup2\n      swap1\n      sstore\n      pop\n        /* \"contracts/Voting.sol\":3880:4350  if(owner() == msg.sender) {... */\n      jump(tag_112)\n    tag_108:\n        /* \"contracts/Voting.sol\":4081:4116  WorkflowStatus.VotingSessionStarted */\n      0x03\n        /* \"contracts/Voting.sol\":4064:4116  currentStatus == WorkflowStatus.VotingSessionStarted */\n      0x05\n      dup2\n      gt\n      iszero\n      tag_113\n      jumpi\n      tag_114\n      tag_115\n      jump\t// in\n    tag_114:\n    tag_113:\n        /* \"contracts/Voting.sol\":4064:4077  currentStatus */\n      0x03\n      0x00\n      swap1\n      sload\n      swap1\n      0x0100\n      exp\n      swap1\n      div\n      0xff\n      and\n        /* \"contracts/Voting.sol\":4064:4116  currentStatus == WorkflowStatus.VotingSessionStarted */\n      0x05\n      dup2\n      gt\n      iszero\n      tag_116\n      jumpi\n      tag_117\n      tag_115\n      jump\t// in\n    tag_117:\n    tag_116:\n      eq\n        /* \"contracts/Voting.sol\":4056:4154  require(currentStatus == WorkflowStatus.VotingSessionStarted, \"The voting session is not started\") */\n      tag_118\n      jumpi\n      mload(0x40)\n      0x08c379a000000000000000000000000000000000000000000000000000000000\n      dup2\n      mstore\n      0x04\n      add\n      tag_119\n      swap1\n      tag_120\n      jump\t// in\n    tag_119:\n      mload(0x40)\n      dup1\n      swap2\n      sub\n      swap1\n      revert\n    tag_118:\n        /* \"contracts/Voting.sol\":4220:4224  true */\n      0x01\n        /* \"contracts/Voting.sol\":4177:4224  whitelistVoter[msg.sender].isRegistered == true */\n      iszero\n      iszero\n        /* \"contracts/Voting.sol\":4177:4191  whitelistVoter */\n      0x01\n        /* \"contracts/Voting.sol\":4177:4203  whitelistVoter[msg.sender] */\n      0x00\n        /* \"contracts/Voting.sol\":4192:4202  msg.sender */\n      caller\n        /* \"contracts/Voting.sol\":4177:4203  whitelistVoter[msg.sender] */\n      0xffffffffffffffffffffffffffffffffffffffff\n      and\n      0xffffffffffffffffffffffffffffffffffffffff\n      and\n      dup2\n      mstore\n      0x20\n      add\n      swap1\n      dup2\n      mstore\n      0x20\n      add\n      0x00\n      keccak256\n        /* \"contracts/Voting.sol\":4177:4216  whitelistVoter[msg.sender].isRegistered */\n      0x00\n      add\n      0x00\n      swap1\n      sload\n      swap1\n      0x0100\n      exp\n      swap1\n      div\n      0xff\n      and\n        /* \"contracts/Voting.sol\":4177:4224  whitelistVoter[msg.sender].isRegistered == true */\n      iszero\n      iszero\n      eq\n        /* \"contracts/Voting.sol\":4169:4251  require(whitelistVoter[msg.sender].isRegistered == true, \"You are not registered\") */\n      tag_121\n      jumpi\n      mload(0x40)\n      0x08c379a000000000000000000000000000000000000000000000000000000000\n      dup2\n      mstore\n      0x04\n      add\n      tag_122\n      swap1\n      tag_123\n      jump\t// in\n    tag_122:\n      mload(0x40)\n      dup1\n      swap2\n      sub\n      swap1\n      revert\n    tag_121:\n        /* \"contracts/Voting.sol\":4312:4317  false */\n      0x00\n        /* \"contracts/Voting.sol\":4273:4317  whitelistVoter[msg.sender].hasVoted == false */\n      iszero\n      iszero\n        /* \"contracts/Voting.sol\":4273:4287  whitelistVoter */\n      0x01\n        /* \"contracts/Voting.sol\":4273:4299  whitelistVoter[msg.sender] */\n      0x00\n        /* \"contracts/Voting.sol\":4288:4298  msg.sender */\n      caller\n        /* \"contracts/Voting.sol\":4273:4299  whitelistVoter[msg.sender] */\n      0xffffffffffffffffffffffffffffffffffffffff\n      and\n      0xffffffffffffffffffffffffffffffffffffffff\n      and\n      dup2\n      mstore\n      0x20\n      add\n      swap1\n      dup2\n      mstore\n      0x20\n      add\n      0x00\n      keccak256\n        /* \"contracts/Voting.sol\":4273:4308  whitelistVoter[msg.sender].hasVoted */\n      0x00\n      add\n      0x01\n      swap1\n      sload\n      swap1\n      0x0100\n      exp\n      swap1\n      div\n      0xff\n      and\n        /* \"contracts/Voting.sol\":4273:4317  whitelistVoter[msg.sender].hasVoted == false */\n      iszero\n      iszero\n      eq\n        /* \"contracts/Voting.sol\":4265:4339  require(whitelistVoter[msg.sender].hasVoted == false, \"You already voted\") */\n      tag_124\n      jumpi\n      mload(0x40)\n      0x08c379a000000000000000000000000000000000000000000000000000000000\n      dup2\n      mstore\n      0x04\n      add\n      tag_125\n      swap1\n      tag_126\n      jump\t// in\n    tag_125:\n      mload(0x40)\n      dup1\n      swap2\n      sub\n      swap1\n      revert\n    tag_124:\n        /* \"contracts/Voting.sol\":3880:4350  if(owner() == msg.sender) {... */\n    tag_112:\n        /* \"contracts/Voting.sol\":3549:3558  proposals */\n      0x02\n        /* \"contracts/Voting.sol\":3549:3565  proposals.length */\n      dup1\n      sload\n      swap1\n      pop\n        /* \"contracts/Voting.sol\":3536:3546  _proposald */\n      dup2\n        /* \"contracts/Voting.sol\":3536:3565  _proposald < proposals.length */\n      lt\n        /* \"contracts/Voting.sol\":3528:3602  require(_proposald < proposals.length, \"This proposal ID does not exists\") */\n      tag_128\n      jumpi\n      mload(0x40)\n      0x08c379a000000000000000000000000000000000000000000000000000000000\n      dup2\n      mstore\n      0x04\n      add\n      tag_129\n      swap1\n      tag_130\n      jump\t// in\n    tag_129:\n      mload(0x40)\n      dup1\n      swap2\n      sub\n      swap1\n      revert\n    tag_128:\n        /* \"contracts/Voting.sol\":3650:3654  true */\n      0x01\n        /* \"contracts/Voting.sol\":3612:3626  whitelistVoter */\n      dup1\n        /* \"contracts/Voting.sol\":3612:3638  whitelistVoter[msg.sender] */\n      0x00\n        /* \"contracts/Voting.sol\":3627:3637  msg.sender */\n      caller\n        /* \"contracts/Voting.sol\":3612:3638  whitelistVoter[msg.sender] */\n      0xffffffffffffffffffffffffffffffffffffffff\n      and\n      0xffffffffffffffffffffffffffffffffffffffff\n      and\n      dup2\n      mstore\n      0x20\n      add\n      swap1\n      dup2\n      mstore\n      0x20\n      add\n      0x00\n      keccak256\n        /* \"contracts/Voting.sol\":3612:3647  whitelistVoter[msg.sender].hasVoted */\n      0x00\n      add\n      0x01\n        /* \"contracts/Voting.sol\":3612:3654  whitelistVoter[msg.sender].hasVoted = true */\n      0x0100\n      exp\n      dup2\n      sload\n      dup2\n      0xff\n      mul\n      not\n      and\n      swap1\n      dup4\n      iszero\n      iszero\n      mul\n      or\n      swap1\n      sstore\n      pop\n        /* \"contracts/Voting.sol\":3709:3719  _proposald */\n      dup1\n        /* \"contracts/Voting.sol\":3664:3678  whitelistVoter */\n      0x01\n        /* \"contracts/Voting.sol\":3664:3690  whitelistVoter[msg.sender] */\n      0x00\n        /* \"contracts/Voting.sol\":3679:3689  msg.sender */\n      caller\n        /* \"contracts/Voting.sol\":3664:3690  whitelistVoter[msg.sender] */\n      0xffffffffffffffffffffffffffffffffffffffff\n      and\n      0xffffffffffffffffffffffffffffffffffffffff\n      and\n      dup2\n      mstore\n      0x20\n      add\n      swap1\n      dup2\n      mstore\n      0x20\n      add\n      0x00\n      keccak256\n        /* \"contracts/Voting.sol\":3664:3706  whitelistVoter[msg.sender].votedProposalId */\n      0x01\n      add\n        /* \"contracts/Voting.sol\":3664:3719  whitelistVoter[msg.sender].votedProposalId = _proposald */\n      dup2\n      swap1\n      sstore\n      pop\n        /* \"contracts/Voting.sol\":3729:3738  proposals */\n      0x02\n        /* \"contracts/Voting.sol\":3739:3749  _proposald */\n      dup2\n        /* \"contracts/Voting.sol\":3729:3750  proposals[_proposald] */\n      dup2\n      sload\n      dup2\n      lt\n      tag_131\n      jumpi\n      tag_132\n      tag_133\n      jump\t// in\n    tag_132:\n    tag_131:\n      swap1\n      0x00\n      mstore\n      keccak256(0x00, 0x20)\n      swap1\n      0x02\n      mul\n      add\n        /* \"contracts/Voting.sol\":3729:3760  proposals[_proposald].voteCount */\n      0x01\n      add\n      0x00\n        /* \"contracts/Voting.sol\":3729:3762  proposals[_proposald].voteCount++ */\n      dup2\n      sload\n      dup1\n      swap3\n      swap2\n      swap1\n      tag_135\n      swap1\n      tag_136\n      jump\t// in\n    tag_135:\n      swap2\n      swap1\n      pop\n      sstore\n      pop\n        /* \"contracts/Voting.sol\":3772:3786  voteCountTotal */\n      0x06\n      0x00\n        /* \"contracts/Voting.sol\":3772:3788  voteCountTotal++ */\n      dup2\n      sload\n      dup1\n      swap3\n      swap2\n      swap1\n      tag_137\n      swap1\n      tag_136\n      jump\t// in\n    tag_137:\n      swap2\n      swap1\n      pop\n      sstore\n      pop\n        /* \"contracts/Voting.sol\":3803:3832  Voted(msg.sender, _proposald) */\n      0x4d99b957a2bc29a30ebd96a7be8e68fe50a3c701db28a91436490b7d53870ca4\n        /* \"contracts/Voting.sol\":3809:3819  msg.sender */\n      caller\n        /* \"contracts/Voting.sol\":3821:3831  _proposald */\n      dup3\n        /* \"contracts/Voting.sol\":3803:3832  Voted(msg.sender, _proposald) */\n      mload(0x40)\n      tag_138\n      swap3\n      swap2\n      swap1\n      tag_139\n      jump\t// in\n    tag_138:\n      mload(0x40)\n      dup1\n      swap2\n      sub\n      swap1\n      log1\n        /* \"contracts/Voting.sol\":3461:3839  function vote(uint256 _proposald) external restrictOwner {... */\n      pop\n      jump\t// out\n        /* \"contracts/Voting.sol\":10718:10804  function getVoterCount() external view returns(uint){... */\n    tag_35:\n        /* \"contracts/Voting.sol\":10765:10769  uint */\n      0x00\n        /* \"contracts/Voting.sol\":10787:10797  voterCount */\n      sload(0x05)\n        /* \"contracts/Voting.sol\":10780:10797  return voterCount */\n      swap1\n      pop\n        /* \"contracts/Voting.sol\":10718:10804  function getVoterCount() external view returns(uint){... */\n      swap1\n      jump\t// out\n        /* \"contracts/Voting.sol\":2260:2697  function registerVoter(address _address) external onlyOwner {... */\n    tag_41:\n        /* \"@openzeppelin/contracts/access/Ownable.sol\":1531:1544  _checkOwner() */\n      tag_142\n        /* \"@openzeppelin/contracts/access/Ownable.sol\":1531:1542  _checkOwner */\n      tag_143\n        /* \"@openzeppelin/contracts/access/Ownable.sol\":1531:1544  _checkOwner() */\n      jump\t// in\n    tag_142:\n        /* \"contracts/Voting.sol\":2355:2387  WorkflowStatus.RegisteringVoters */\n      0x00\n        /* \"contracts/Voting.sol\":2338:2387  currentStatus == WorkflowStatus.RegisteringVoters */\n      0x05\n      dup2\n      gt\n      iszero\n      tag_145\n      jumpi\n      tag_146\n      tag_115\n      jump\t// in\n    tag_146:\n    tag_145:\n        /* \"contracts/Voting.sol\":2338:2351  currentStatus */\n      0x03\n      0x00\n      swap1\n      sload\n      swap1\n      0x0100\n      exp\n      swap1\n      div\n      0xff\n      and\n        /* \"contracts/Voting.sol\":2338:2387  currentStatus == WorkflowStatus.RegisteringVoters */\n      0x05\n      dup2\n      gt\n      iszero\n      tag_147\n      jumpi\n      tag_148\n      tag_115\n      jump\t// in\n    tag_148:\n    tag_147:\n      eq\n        /* \"contracts/Voting.sol\":2330:2432  require(currentStatus == WorkflowStatus.RegisteringVoters, \"You are not in voter registration period\") */\n      tag_149\n      jumpi\n      mload(0x40)\n      0x08c379a000000000000000000000000000000000000000000000000000000000\n      dup2\n      mstore\n      0x04\n      add\n      tag_150\n      swap1\n      tag_151\n      jump\t// in\n    tag_150:\n      mload(0x40)\n      dup1\n      swap2\n      sub\n      swap1\n      revert\n    tag_149:\n        /* \"contracts/Voting.sol\":2491:2496  false */\n      0x00\n        /* \"contracts/Voting.sol\":2450:2496  whitelistVoter[_address].isRegistered == false */\n      iszero\n      iszero\n        /* \"contracts/Voting.sol\":2450:2464  whitelistVoter */\n      0x01\n        /* \"contracts/Voting.sol\":2450:2474  whitelistVoter[_address] */\n      0x00\n        /* \"contracts/Voting.sol\":2465:2473  _address */\n      dup4\n        /* \"contracts/Voting.sol\":2450:2474  whitelistVoter[_address] */\n      0xffffffffffffffffffffffffffffffffffffffff\n      and\n      0xffffffffffffffffffffffffffffffffffffffff\n      and\n      dup2\n      mstore\n      0x20\n      add\n      swap1\n      dup2\n      mstore\n      0x20\n      add\n      0x00\n      keccak256\n        /* \"contracts/Voting.sol\":2450:2487  whitelistVoter[_address].isRegistered */\n      0x00\n      add\n      0x00\n      swap1\n      sload\n      swap1\n      0x0100\n      exp\n      swap1\n      div\n      0xff\n      and\n        /* \"contracts/Voting.sol\":2450:2496  whitelistVoter[_address].isRegistered == false */\n      iszero\n      iszero\n      eq\n        /* \"contracts/Voting.sol\":2442:2533  require(whitelistVoter[_address].isRegistered == false, \"You already have add this adress\") */\n      tag_152\n      jumpi\n      mload(0x40)\n      0x08c379a000000000000000000000000000000000000000000000000000000000\n      dup2\n      mstore\n      0x04\n      add\n      tag_153\n      swap1\n      tag_154\n      jump\t// in\n    tag_153:\n      mload(0x40)\n      dup1\n      swap2\n      sub\n      swap1\n      revert\n    tag_152:\n        /* \"contracts/Voting.sol\":2544:2562  Voter memory voter */\n      0x00\n        /* \"contracts/Voting.sol\":2565:2586  Voter(true, false, 0) */\n      mload(0x40)\n      dup1\n      0x60\n      add\n      0x40\n      mstore\n      dup1\n        /* \"contracts/Voting.sol\":2571:2575  true */\n      0x01\n        /* \"contracts/Voting.sol\":2565:2586  Voter(true, false, 0) */\n      iszero\n      iszero\n      dup2\n      mstore\n      0x20\n      add\n        /* \"contracts/Voting.sol\":2577:2582  false */\n      0x00\n        /* \"contracts/Voting.sol\":2565:2586  Voter(true, false, 0) */\n      iszero\n      iszero\n      dup2\n      mstore\n      0x20\n      add\n        /* \"contracts/Voting.sol\":2584:2585  0 */\n      0x00\n        /* \"contracts/Voting.sol\":2565:2586  Voter(true, false, 0) */\n      dup2\n      mstore\n      pop\n        /* \"contracts/Voting.sol\":2544:2586  Voter memory voter = Voter(true, false, 0) */\n      swap1\n      pop\n        /* \"contracts/Voting.sol\":2623:2628  voter */\n      dup1\n        /* \"contracts/Voting.sol\":2596:2610  whitelistVoter */\n      0x01\n        /* \"contracts/Voting.sol\":2596:2620  whitelistVoter[_address] */\n      0x00\n        /* \"contracts/Voting.sol\":2611:2619  _address */\n      dup5\n        /* \"contracts/Voting.sol\":2596:2620  whitelistVoter[_address] */\n      0xffffffffffffffffffffffffffffffffffffffff\n      and\n      0xffffffffffffffffffffffffffffffffffffffff\n      and\n      dup2\n      mstore\n      0x20\n      add\n      swap1\n      dup2\n      mstore\n      0x20\n      add\n      0x00\n      keccak256\n        /* \"contracts/Voting.sol\":2596:2628  whitelistVoter[_address] = voter */\n      0x00\n      dup3\n      add\n      mload\n      dup2\n      0x00\n      add\n      exp(0x0100, 0x00)\n      dup2\n      sload\n      dup2\n      0xff\n      mul\n      not\n      and\n      swap1\n      dup4\n      iszero\n      iszero\n      mul\n      or\n      swap1\n      sstore\n      pop\n      0x20\n      dup3\n      add\n      mload\n      dup2\n      0x00\n      add\n      exp(0x0100, 0x01)\n      dup2\n      sload\n      dup2\n      0xff\n      mul\n      not\n      and\n      swap1\n      dup4\n      iszero\n      iszero\n      mul\n      or\n      swap1\n      sstore\n      pop\n      0x40\n      dup3\n      add\n      mload\n      dup2\n      0x01\n      add\n      sstore\n      swap1\n      pop\n      pop\n        /* \"contracts/Voting.sol\":2638:2648  voterCount */\n      0x05\n      0x00\n        /* \"contracts/Voting.sol\":2638:2650  voterCount++ */\n      dup2\n      sload\n      dup1\n      swap3\n      swap2\n      swap1\n      tag_155\n      swap1\n      tag_136\n      jump\t// in\n    tag_155:\n      swap2\n      swap1\n      pop\n      sstore\n      pop\n        /* \"contracts/Voting.sol\":2665:2690  VoterRegistered(_address) */\n      0xb6be2187d059cc2a55fe29e0e503b566e1e0f8c8780096e185429350acffd3dd\n        /* \"contracts/Voting.sol\":2681:2689  _address */\n      dup3\n        /* \"contracts/Voting.sol\":2665:2690  VoterRegistered(_address) */\n      mload(0x40)\n      tag_156\n      swap2\n      swap1\n      tag_69\n      jump\t// in\n    tag_156:\n      mload(0x40)\n      dup1\n      swap2\n      sub\n      swap1\n      log1\n        /* \"contracts/Voting.sol\":2320:2697  {... */\n      pop\n        /* \"contracts/Voting.sol\":2260:2697  function registerVoter(address _address) external onlyOwner {... */\n      pop\n      jump\t// out\n        /* \"contracts/Voting.sol\":9524:9771  function getWinner_proposaldescription() external view returns (string memory) {... */\n    tag_43:\n        /* \"contracts/Voting.sol\":9588:9601  string memory */\n      0x60\n        /* \"contracts/Voting.sol\":9639:9666  WorkflowStatus.VotesTallied */\n      0x05\n        /* \"contracts/Voting.sol\":9621:9666  currentStatus ==  WorkflowStatus.VotesTallied */\n      dup1\n      dup2\n      gt\n      iszero\n      tag_158\n      jumpi\n      tag_159\n      tag_115\n      jump\t// in\n    tag_159:\n    tag_158:\n        /* \"contracts/Voting.sol\":9621:9634  currentStatus */\n      0x03\n      0x00\n      swap1\n      sload\n      swap1\n      0x0100\n      exp\n      swap1\n      div\n      0xff\n      and\n        /* \"contracts/Voting.sol\":9621:9666  currentStatus ==  WorkflowStatus.VotesTallied */\n      0x05\n      dup2\n      gt\n      iszero\n      tag_160\n      jumpi\n      tag_161\n      tag_115\n      jump\t// in\n    tag_161:\n    tag_160:\n      eq\n        /* \"contracts/Voting.sol\":9613:9707  require(currentStatus ==  WorkflowStatus.VotesTallied, \"The winner have not been choosen yet\") */\n      tag_162\n      jumpi\n      mload(0x40)\n      0x08c379a000000000000000000000000000000000000000000000000000000000\n      dup2\n      mstore\n      0x04\n      add\n      tag_163\n      swap1\n      tag_164\n      jump\t// in\n    tag_163:\n      mload(0x40)\n      dup1\n      swap2\n      sub\n      swap1\n      revert\n    tag_162:\n        /* \"contracts/Voting.sol\":9724:9733  proposals */\n      0x02\n        /* \"contracts/Voting.sol\":9734:9751  winningProposalId */\n      sload(0x04)\n        /* \"contracts/Voting.sol\":9724:9752  proposals[winningProposalId] */\n      dup2\n      sload\n      dup2\n      lt\n      tag_165\n      jumpi\n      tag_166\n      tag_133\n      jump\t// in\n    tag_166:\n    tag_165:\n      swap1\n      0x00\n      mstore\n      keccak256(0x00, 0x20)\n      swap1\n      0x02\n      mul\n      add\n        /* \"contracts/Voting.sol\":9724:9764  proposals[winningProposalId].description */\n      0x00\n      add\n        /* \"contracts/Voting.sol\":9717:9764  return proposals[winningProposalId].description */\n      dup1\n      sload\n      tag_168\n      swap1\n      tag_169\n      jump\t// in\n    tag_168:\n      dup1\n      0x1f\n      add\n      0x20\n      dup1\n      swap2\n      div\n      mul\n      0x20\n      add\n      mload(0x40)\n      swap1\n      dup2\n      add\n      0x40\n      mstore\n      dup1\n      swap3\n      swap2\n      swap1\n      dup2\n      dup2\n      mstore\n      0x20\n      add\n      dup3\n      dup1\n      sload\n      tag_170\n      swap1\n      tag_169\n      jump\t// in\n    tag_170:\n      dup1\n      iszero\n      tag_171\n      jumpi\n      dup1\n      0x1f\n      lt\n      tag_172\n      jumpi\n      0x0100\n      dup1\n      dup4\n      sload\n      div\n      mul\n      dup4\n      mstore\n      swap2\n      0x20\n      add\n      swap2\n      jump(tag_171)\n    tag_172:\n      dup3\n      add\n      swap2\n      swap1\n      0x00\n      mstore\n      keccak256(0x00, 0x20)\n      swap1\n    tag_173:\n      dup2\n      sload\n      dup2\n      mstore\n      swap1\n      0x01\n      add\n      swap1\n      0x20\n      add\n      dup1\n      dup4\n      gt\n      tag_173\n      jumpi\n      dup3\n      swap1\n      sub\n      0x1f\n      and\n      dup3\n      add\n      swap2\n    tag_171:\n      pop\n      pop\n      pop\n      pop\n      pop\n      swap1\n      pop\n        /* \"contracts/Voting.sol\":9524:9771  function getWinner_proposaldescription() external view returns (string memory) {... */\n      swap1\n      jump\t// out\n        /* \"contracts/Voting.sol\":4519:4929  function startProposalSession() external onlyOwner {... */\n    tag_47:\n        /* \"@openzeppelin/contracts/access/Ownable.sol\":1531:1544  _checkOwner() */\n      tag_175\n        /* \"@openzeppelin/contracts/access/Ownable.sol\":1531:1542  _checkOwner */\n      tag_143\n        /* \"@openzeppelin/contracts/access/Ownable.sol\":1531:1544  _checkOwner() */\n      jump\t// in\n    tag_175:\n        /* \"contracts/Voting.sol\":4606:4638  WorkflowStatus.RegisteringVoters */\n      0x00\n        /* \"contracts/Voting.sol\":4588:4638  currentStatus ==  WorkflowStatus.RegisteringVoters */\n      0x05\n      dup2\n      gt\n      iszero\n      tag_177\n      jumpi\n      tag_178\n      tag_115\n      jump\t// in\n    tag_178:\n    tag_177:\n        /* \"contracts/Voting.sol\":4588:4601  currentStatus */\n      0x03\n      0x00\n      swap1\n      sload\n      swap1\n      0x0100\n      exp\n      swap1\n      div\n      0xff\n      and\n        /* \"contracts/Voting.sol\":4588:4638  currentStatus ==  WorkflowStatus.RegisteringVoters */\n      0x05\n      dup2\n      gt\n      iszero\n      tag_179\n      jumpi\n      tag_180\n      tag_115\n      jump\t// in\n    tag_180:\n    tag_179:\n      eq\n        /* \"contracts/Voting.sol\":4580:4687  require(currentStatus ==  WorkflowStatus.RegisteringVoters, \"You can not start again the proposal session\") */\n      tag_181\n      jumpi\n      mload(0x40)\n      0x08c379a000000000000000000000000000000000000000000000000000000000\n      dup2\n      mstore\n      0x04\n      add\n      tag_182\n      swap1\n      tag_183\n      jump\t// in\n    tag_182:\n      mload(0x40)\n      dup1\n      swap2\n      sub\n      swap1\n      revert\n    tag_181:\n        /* \"contracts/Voting.sol\":4718:4719  1 */\n      0x01\n        /* \"contracts/Voting.sol\":4705:4715  voterCount */\n      sload(0x05)\n        /* \"contracts/Voting.sol\":4705:4719  voterCount > 1 */\n      gt\n        /* \"contracts/Voting.sol\":4697:4762  require(voterCount > 1, \"You must register at least 2 addresses\") */\n      tag_184\n      jumpi\n      mload(0x40)\n      0x08c379a000000000000000000000000000000000000000000000000000000000\n      dup2\n      mstore\n      0x04\n      add\n      tag_185\n      swap1\n      tag_186\n      jump\t// in\n    tag_185:\n      mload(0x40)\n      dup1\n      swap2\n      sub\n      swap1\n      revert\n    tag_184:\n        /* \"contracts/Voting.sol\":4788:4831  WorkflowStatus.ProposalsRegistrationStarted */\n      0x01\n        /* \"contracts/Voting.sol\":4772:4785  currentStatus */\n      0x03\n      0x00\n        /* \"contracts/Voting.sol\":4772:4831  currentStatus = WorkflowStatus.ProposalsRegistrationStarted */\n      0x0100\n      exp\n      dup2\n      sload\n      dup2\n      0xff\n      mul\n      not\n      and\n      swap1\n      dup4\n      0x05\n      dup2\n      gt\n      iszero\n      tag_187\n      jumpi\n      tag_188\n      tag_115\n      jump\t// in\n    tag_188:\n    tag_187:\n      mul\n      or\n      swap1\n      sstore\n      pop\n        /* \"contracts/Voting.sol\":4846:4922  WorkflowStatusChange(WorkflowStatus(uint(currentStatus) - 1), currentStatus) */\n      0x0a97a4ee45751e2abf3e4fc8946939630b11b371ea8ae39ccdc3056e98f5cc3f\n        /* \"contracts/Voting.sol\":4904:4905  1 */\n      0x01\n        /* \"contracts/Voting.sol\":4887:4900  currentStatus */\n      0x03\n      0x00\n      swap1\n      sload\n      swap1\n      0x0100\n      exp\n      swap1\n      div\n      0xff\n      and\n        /* \"contracts/Voting.sol\":4882:4901  uint(currentStatus) */\n      0x05\n      dup2\n      gt\n      iszero\n      tag_189\n      jumpi\n      tag_190\n      tag_115\n      jump\t// in\n    tag_190:\n    tag_189:\n        /* \"contracts/Voting.sol\":4882:4905  uint(currentStatus) - 1 */\n      tag_191\n      swap2\n      swap1\n      tag_192\n      jump\t// in\n    tag_191:\n        /* \"contracts/Voting.sol\":4867:4906  WorkflowStatus(uint(currentStatus) - 1) */\n      0x05\n      dup2\n      gt\n      iszero\n      tag_193\n      jumpi\n      tag_194\n      tag_115\n      jump\t// in\n    tag_194:\n    tag_193:\n        /* \"contracts/Voting.sol\":4908:4921  currentStatus */\n      0x03\n      0x00\n      swap1\n      sload\n      swap1\n      0x0100\n      exp\n      swap1\n      div\n      0xff\n      and\n        /* \"contracts/Voting.sol\":4846:4922  WorkflowStatusChange(WorkflowStatus(uint(currentStatus) - 1), currentStatus) */\n      mload(0x40)\n      tag_195\n      swap3\n      swap2\n      swap1\n      tag_196\n      jump\t// in\n    tag_195:\n      mload(0x40)\n      dup1\n      swap2\n      sub\n      swap1\n      log1\n        /* \"contracts/Voting.sol\":4519:4929  function startProposalSession() external onlyOwner {... */\n      jump\t// out\n        /* \"contracts/Voting.sol\":9826:10031  function getWinnerProposalId() external view returns (uint) {... */\n    tag_49:\n        /* \"contracts/Voting.sol\":9880:9884  uint */\n      0x00\n        /* \"contracts/Voting.sol\":9922:9949  WorkflowStatus.VotesTallied */\n      0x05\n        /* \"contracts/Voting.sol\":9904:9949  currentStatus ==  WorkflowStatus.VotesTallied */\n      dup1\n      dup2\n      gt\n      iszero\n      tag_198\n      jumpi\n      tag_199\n      tag_115\n      jump\t// in\n    tag_199:\n    tag_198:\n        /* \"contracts/Voting.sol\":9904:9917  currentStatus */\n      0x03\n      0x00\n      swap1\n      sload\n      swap1\n      0x0100\n      exp\n      swap1\n      div\n      0xff\n      and\n        /* \"contracts/Voting.sol\":9904:9949  currentStatus ==  WorkflowStatus.VotesTallied */\n      0x05\n      dup2\n      gt\n      iszero\n      tag_200\n      jumpi\n      tag_201\n      tag_115\n      jump\t// in\n    tag_201:\n    tag_200:\n      eq\n        /* \"contracts/Voting.sol\":9896:9990  require(currentStatus ==  WorkflowStatus.VotesTallied, \"The winner have not been choosen yet\") */\n      tag_202\n      jumpi\n      mload(0x40)\n      0x08c379a000000000000000000000000000000000000000000000000000000000\n      dup2\n      mstore\n      0x04\n      add\n      tag_203\n      swap1\n      tag_164\n      jump\t// in\n    tag_203:\n      mload(0x40)\n      dup1\n      swap2\n      sub\n      swap1\n      revert\n    tag_202:\n        /* \"contracts/Voting.sol\":10007:10024  winningProposalId */\n      sload(0x04)\n        /* \"contracts/Voting.sol\":10000:10024  return winningProposalId */\n      swap1\n      pop\n        /* \"contracts/Voting.sol\":9826:10031  function getWinnerProposalId() external view returns (uint) {... */\n      swap1\n      jump\t// out\n        /* \"contracts/Voting.sol\":10572:10669  function getProposals() external view returns(Proposal[] memory){... */\n    tag_52:\n        /* \"contracts/Voting.sol\":10618:10635  Proposal[] memory */\n      0x60\n        /* \"contracts/Voting.sol\":10653:10662  proposals */\n      0x02\n        /* \"contracts/Voting.sol\":10646:10662  return proposals */\n      dup1\n      sload\n      dup1\n      0x20\n      mul\n      0x20\n      add\n      mload(0x40)\n      swap1\n      dup2\n      add\n      0x40\n      mstore\n      dup1\n      swap3\n      swap2\n      swap1\n      dup2\n      dup2\n      mstore\n      0x20\n      add\n      0x00\n      swap1\n    tag_205:\n      dup3\n      dup3\n      lt\n      iszero\n      tag_206\n      jumpi\n      dup4\n      dup3\n      swap1\n      0x00\n      mstore\n      keccak256(0x00, 0x20)\n      swap1\n      0x02\n      mul\n      add\n      mload(0x40)\n      dup1\n      0x40\n      add\n      0x40\n      mstore\n      swap1\n      dup2\n      0x00\n      dup3\n      add\n      dup1\n      sload\n      tag_208\n      swap1\n      tag_169\n      jump\t// in\n    tag_208:\n      dup1\n      0x1f\n      add\n      0x20\n      dup1\n      swap2\n      div\n      mul\n      0x20\n      add\n      mload(0x40)\n      swap1\n      dup2\n      add\n      0x40\n      mstore\n      dup1\n      swap3\n      swap2\n      swap1\n      dup2\n      dup2\n      mstore\n      0x20\n      add\n      dup3\n      dup1\n      sload\n      tag_209\n      swap1\n      tag_169\n      jump\t// in\n    tag_209:\n      dup1\n      iszero\n      tag_210\n      jumpi\n      dup1\n      0x1f\n      lt\n      tag_211\n      jumpi\n      0x0100\n      dup1\n      dup4\n      sload\n      div\n      mul\n      dup4\n      mstore\n      swap2\n      0x20\n      add\n      swap2\n      jump(tag_210)\n    tag_211:\n      dup3\n      add\n      swap2\n      swap1\n      0x00\n      mstore\n      keccak256(0x00, 0x20)\n      swap1\n    tag_212:\n      dup2\n      sload\n      dup2\n      mstore\n      swap1\n      0x01\n      add\n      swap1\n      0x20\n      add\n      dup1\n      dup4\n      gt\n      tag_212\n      jumpi\n      dup3\n      swap1\n      sub\n      0x1f\n      and\n      dup3\n      add\n      swap2\n    tag_210:\n      pop\n      pop\n      pop\n      pop\n      pop\n      dup2\n      mstore\n      0x20\n      add\n      0x01\n      dup3\n      add\n      sload\n      dup2\n      mstore\n      pop\n      pop\n      dup2\n      mstore\n      0x20\n      add\n      swap1\n      0x01\n      add\n      swap1\n      jump(tag_205)\n    tag_206:\n      pop\n      pop\n      pop\n      pop\n      swap1\n      pop\n        /* \"contracts/Voting.sol\":10572:10669  function getProposals() external view returns(Proposal[] memory){... */\n      swap1\n      jump\t// out\n        /* \"contracts/Voting.sol\":10255:10386  function getPreviousStatus() external view returns (WorkflowStatus) {... */\n    tag_56:\n        /* \"contracts/Voting.sol\":10307:10321  WorkflowStatus */\n      0x00\n        /* \"contracts/Voting.sol\":10377:10378  1 */\n      0x01\n        /* \"contracts/Voting.sol\":10360:10373  currentStatus */\n      0x03\n      0x00\n      swap1\n      sload\n      swap1\n      0x0100\n      exp\n      swap1\n      div\n      0xff\n      and\n        /* \"contracts/Voting.sol\":10355:10374  uint(currentStatus) */\n      0x05\n      dup2\n      gt\n      iszero\n      tag_214\n      jumpi\n      tag_215\n      tag_115\n      jump\t// in\n    tag_215:\n    tag_214:\n        /* \"contracts/Voting.sol\":10355:10378  uint(currentStatus) - 1 */\n      tag_216\n      swap2\n      swap1\n      tag_192\n      jump\t// in\n    tag_216:\n        /* \"contracts/Voting.sol\":10340:10379  WorkflowStatus(uint(currentStatus) - 1) */\n      0x05\n      dup2\n      gt\n      iszero\n      tag_217\n      jumpi\n      tag_218\n      tag_115\n      jump\t// in\n    tag_218:\n    tag_217:\n        /* \"contracts/Voting.sol\":10333:10379  return WorkflowStatus(uint(currentStatus) - 1) */\n      swap1\n      pop\n        /* \"contracts/Voting.sol\":10255:10386  function getPreviousStatus() external view returns (WorkflowStatus) {... */\n      swap1\n      jump\t// out\n        /* \"@openzeppelin/contracts/access/Ownable.sol\":2293:2394  function renounceOwnership() public virtual onlyOwner {... */\n    tag_60:\n        /* \"@openzeppelin/contracts/access/Ownable.sol\":1531:1544  _checkOwner() */\n      tag_220\n        /* \"@openzeppelin/contracts/access/Ownable.sol\":1531:1542  _checkOwner */\n      tag_143\n        /* \"@openzeppelin/contracts/access/Ownable.sol\":1531:1544  _checkOwner() */\n      jump\t// in\n    tag_220:\n        /* \"@openzeppelin/contracts/access/Ownable.sol\":2357:2387  _transferOwnership(address(0)) */\n      tag_222\n        /* \"@openzeppelin/contracts/access/Ownable.sol\":2384:2385  0 */\n      0x00\n        /* \"@openzeppelin/contracts/access/Ownable.sol\":2357:2375  _transferOwnership */\n      tag_223\n        /* \"@openzeppelin/contracts/access/Ownable.sol\":2357:2387  _transferOwnership(address(0)) */\n      jump\t// in\n    tag_222:\n        /* \"@openzeppelin/contracts/access/Ownable.sol\":2293:2394  function renounceOwnership() public virtual onlyOwner {... */\n      jump\t// out\n        /* \"contracts/Voting.sol\":8387:8849  function getVoteByAddress(address _address) external view returns(Proposal memory){... */\n    tag_63:\n        /* \"contracts/Voting.sol\":8453:8468  Proposal memory */\n      tag_224\n      tag_225\n      jump\t// in\n    tag_224:\n        /* \"contracts/Voting.sol\":8596:8600  true */\n      0x01\n        /* \"contracts/Voting.sol\":8555:8600  whitelistVoter[_address].isRegistered == true */\n      iszero\n      iszero\n        /* \"contracts/Voting.sol\":8555:8569  whitelistVoter */\n      0x01\n        /* \"contracts/Voting.sol\":8555:8579  whitelistVoter[_address] */\n      0x00\n        /* \"contracts/Voting.sol\":8570:8578  _address */\n      dup5\n        /* \"contracts/Voting.sol\":8555:8579  whitelistVoter[_address] */\n      0xffffffffffffffffffffffffffffffffffffffff\n      and\n      0xffffffffffffffffffffffffffffffffffffffff\n      and\n      dup2\n      mstore\n      0x20\n      add\n      swap1\n      dup2\n      mstore\n      0x20\n      add\n      0x00\n      keccak256\n        /* \"contracts/Voting.sol\":8555:8592  whitelistVoter[_address].isRegistered */\n      0x00\n      add\n      0x00\n      swap1\n      sload\n      swap1\n      0x0100\n      exp\n      swap1\n      div\n      0xff\n      and\n        /* \"contracts/Voting.sol\":8555:8600  whitelistVoter[_address].isRegistered == true */\n      iszero\n      iszero\n      eq\n        /* \"contracts/Voting.sol\":8547:8635  require(whitelistVoter[_address].isRegistered == true, \"This address is not registered\") */\n      tag_227\n      jumpi\n      mload(0x40)\n      0x08c379a000000000000000000000000000000000000000000000000000000000\n      dup2\n      mstore\n      0x04\n      add\n      tag_228\n      swap1\n      tag_229\n      jump\t// in\n    tag_228:\n      mload(0x40)\n      dup1\n      swap2\n      sub\n      swap1\n      revert\n    tag_227:\n        /* \"contracts/Voting.sol\":8690:8694  true */\n      0x01\n        /* \"contracts/Voting.sol\":8653:8694  whitelistVoter[_address].hasVoted == true */\n      iszero\n      iszero\n        /* \"contracts/Voting.sol\":8653:8667  whitelistVoter */\n      0x01\n        /* \"contracts/Voting.sol\":8653:8677  whitelistVoter[_address] */\n      0x00\n        /* \"contracts/Voting.sol\":8668:8676  _address */\n      dup5\n        /* \"contracts/Voting.sol\":8653:8677  whitelistVoter[_address] */\n      0xffffffffffffffffffffffffffffffffffffffff\n      and\n      0xffffffffffffffffffffffffffffffffffffffff\n      and\n      dup2\n      mstore\n      0x20\n      add\n      swap1\n      dup2\n      mstore\n      0x20\n      add\n      0x00\n      keccak256\n        /* \"contracts/Voting.sol\":8653:8686  whitelistVoter[_address].hasVoted */\n      0x00\n      add\n      0x01\n      swap1\n      sload\n      swap1\n      0x0100\n      exp\n      swap1\n      div\n      0xff\n      and\n        /* \"contracts/Voting.sol\":8653:8694  whitelistVoter[_address].hasVoted == true */\n      iszero\n      iszero\n      eq\n        /* \"contracts/Voting.sol\":8645:8725  require(whitelistVoter[_address].hasVoted == true, \"This address has not voted\") */\n      tag_230\n      jumpi\n      mload(0x40)\n      0x08c379a000000000000000000000000000000000000000000000000000000000\n      dup2\n      mstore\n      0x04\n      add\n      tag_231\n      swap1\n      tag_232\n      jump\t// in\n    tag_231:\n      mload(0x40)\n      dup1\n      swap2\n      sub\n      swap1\n      revert\n    tag_230:\n        /* \"contracts/Voting.sol\":8736:8756  uint votedProposalId */\n      0x00\n        /* \"contracts/Voting.sol\":8759:8773  whitelistVoter */\n      0x01\n        /* \"contracts/Voting.sol\":8759:8783  whitelistVoter[_address] */\n      0x00\n        /* \"contracts/Voting.sol\":8774:8782  _address */\n      dup5\n        /* \"contracts/Voting.sol\":8759:8783  whitelistVoter[_address] */\n      0xffffffffffffffffffffffffffffffffffffffff\n      and\n      0xffffffffffffffffffffffffffffffffffffffff\n      and\n      dup2\n      mstore\n      0x20\n      add\n      swap1\n      dup2\n      mstore\n      0x20\n      add\n      0x00\n      keccak256\n        /* \"contracts/Voting.sol\":8759:8799  whitelistVoter[_address].votedProposalId */\n      0x01\n      add\n      sload\n        /* \"contracts/Voting.sol\":8736:8799  uint votedProposalId = whitelistVoter[_address].votedProposalId */\n      swap1\n      pop\n        /* \"contracts/Voting.sol\":8816:8825  proposals */\n      0x02\n        /* \"contracts/Voting.sol\":8826:8841  votedProposalId */\n      dup2\n        /* \"contracts/Voting.sol\":8816:8842  proposals[votedProposalId] */\n      dup2\n      sload\n      dup2\n      lt\n      tag_233\n      jumpi\n      tag_234\n      tag_133\n      jump\t// in\n    tag_234:\n    tag_233:\n      swap1\n      0x00\n      mstore\n      keccak256(0x00, 0x20)\n      swap1\n      0x02\n      mul\n      add\n        /* \"contracts/Voting.sol\":8809:8842  return proposals[votedProposalId] */\n      mload(0x40)\n      dup1\n      0x40\n      add\n      0x40\n      mstore\n      swap1\n      dup2\n      0x00\n      dup3\n      add\n      dup1\n      sload\n      tag_236\n      swap1\n      tag_169\n      jump\t// in\n    tag_236:\n      dup1\n      0x1f\n      add\n      0x20\n      dup1\n      swap2\n      div\n      mul\n      0x20\n      add\n      mload(0x40)\n      swap1\n      dup2\n      add\n      0x40\n      mstore\n      dup1\n      swap3\n      swap2\n      swap1\n      dup2\n      dup2\n      mstore\n      0x20\n      add\n      dup3\n      dup1\n      sload\n      tag_237\n      swap1\n      tag_169\n      jump\t// in\n    tag_237:\n      dup1\n      iszero\n      tag_238\n      jumpi\n      dup1\n      0x1f\n      lt\n      tag_239\n      jumpi\n      0x0100\n      dup1\n      dup4\n      sload\n      div\n      mul\n      dup4\n      mstore\n      swap2\n      0x20\n      add\n      swap2\n      jump(tag_238)\n    tag_239:\n      dup3\n      add\n      swap2\n      swap1\n      0x00\n      mstore\n      keccak256(0x00, 0x20)\n      swap1\n    tag_240:\n      dup2\n      sload\n      dup2\n      mstore\n      swap1\n      0x01\n      add\n      swap1\n      0x20\n      add\n      dup1\n      dup4\n      gt\n      tag_240\n      jumpi\n      dup3\n      swap1\n      sub\n      0x1f\n      and\n      dup3\n      add\n      swap2\n    tag_238:\n      pop\n      pop\n      pop\n      pop\n      pop\n      dup2\n      mstore\n      0x20\n      add\n      0x01\n      dup3\n      add\n      sload\n      dup2\n      mstore\n      pop\n      pop\n      swap2\n      pop\n      pop\n        /* \"contracts/Voting.sol\":8387:8849  function getVoteByAddress(address _address) external view returns(Proposal memory){... */\n      swap2\n      swap1\n      pop\n      jump\t// out\n        /* \"@openzeppelin/contracts/access/Ownable.sol\":1638:1723  function owner() public view virtual returns (address) {... */\n    tag_67:\n        /* \"@openzeppelin/contracts/access/Ownable.sol\":1684:1691  address */\n      0x00\n        /* \"@openzeppelin/contracts/access/Ownable.sol\":1710:1716  _owner */\n      0x00\n      0x00\n      swap1\n      sload\n      swap1\n      0x0100\n      exp\n      swap1\n      div\n      0xffffffffffffffffffffffffffffffffffffffff\n      and\n        /* \"@openzeppelin/contracts/access/Ownable.sol\":1703:1716  return _owner */\n      swap1\n      pop\n        /* \"@openzeppelin/contracts/access/Ownable.sol\":1638:1723  function owner() public view virtual returns (address) {... */\n      swap1\n      jump\t// out\n        /* \"contracts/Voting.sol\":11152:11248  function getVoteWinnerCount() external view returns(uint){... */\n    tag_71:\n        /* \"contracts/Voting.sol\":11204:11208  uint */\n      0x00\n        /* \"contracts/Voting.sol\":11226:11241  voteWinnerCount */\n      sload(0x09)\n        /* \"contracts/Voting.sol\":11219:11241  return voteWinnerCount */\n      swap1\n      pop\n        /* \"contracts/Voting.sol\":11152:11248  function getVoteWinnerCount() external view returns(uint){... */\n      swap1\n      jump\t// out\n        /* \"contracts/Voting.sol\":9234:9459  function getWinnerProposal() external view returns (Proposal memory) {... */\n    tag_74:\n        /* \"contracts/Voting.sol\":9286:9301  Proposal memory */\n      tag_243\n      tag_225\n      jump\t// in\n    tag_243:\n        /* \"contracts/Voting.sol\":9339:9366  WorkflowStatus.VotesTallied */\n      0x05\n        /* \"contracts/Voting.sol\":9321:9366  currentStatus ==  WorkflowStatus.VotesTallied */\n      dup1\n      dup2\n      gt\n      iszero\n      tag_245\n      jumpi\n      tag_246\n      tag_115\n      jump\t// in\n    tag_246:\n    tag_245:\n        /* \"contracts/Voting.sol\":9321:9334  currentStatus */\n      0x03\n      0x00\n      swap1\n      sload\n      swap1\n      0x0100\n      exp\n      swap1\n      div\n      0xff\n      and\n        /* \"contracts/Voting.sol\":9321:9366  currentStatus ==  WorkflowStatus.VotesTallied */\n      0x05\n      dup2\n      gt\n      iszero\n      tag_247\n      jumpi\n      tag_248\n      tag_115\n      jump\t// in\n    tag_248:\n    tag_247:\n      eq\n        /* \"contracts/Voting.sol\":9313:9407  require(currentStatus ==  WorkflowStatus.VotesTallied, \"The winner have not been choosen yet\") */\n      tag_249\n      jumpi\n      mload(0x40)\n      0x08c379a000000000000000000000000000000000000000000000000000000000\n      dup2\n      mstore\n      0x04\n      add\n      tag_250\n      swap1\n      tag_164\n      jump\t// in\n    tag_250:\n      mload(0x40)\n      dup1\n      swap2\n      sub\n      swap1\n      revert\n    tag_249:\n        /* \"contracts/Voting.sol\":9424:9433  proposals */\n      0x02\n        /* \"contracts/Voting.sol\":9434:9451  winningProposalId */\n      sload(0x04)\n        /* \"contracts/Voting.sol\":9424:9452  proposals[winningProposalId] */\n      dup2\n      sload\n      dup2\n      lt\n      tag_251\n      jumpi\n      tag_252\n      tag_133\n      jump\t// in\n    tag_252:\n    tag_251:\n      swap1\n      0x00\n      mstore\n      keccak256(0x00, 0x20)\n      swap1\n      0x02\n      mul\n      add\n        /* \"contracts/Voting.sol\":9417:9452  return proposals[winningProposalId] */\n      mload(0x40)\n      dup1\n      0x40\n      add\n      0x40\n      mstore\n      swap1\n      dup2\n      0x00\n      dup3\n      add\n      dup1\n      sload\n      tag_254\n      swap1\n      tag_169\n      jump\t// in\n    tag_254:\n      dup1\n      0x1f\n      add\n      0x20\n      dup1\n      swap2\n      div\n      mul\n      0x20\n      add\n      mload(0x40)\n      swap1\n      dup2\n      add\n      0x40\n      mstore\n      dup1\n      swap3\n      swap2\n      swap1\n      dup2\n      dup2\n      mstore\n      0x20\n      add\n      dup3\n      dup1\n      sload\n      tag_255\n      swap1\n      tag_169\n      jump\t// in\n    tag_255:\n      dup1\n      iszero\n      tag_256\n      jumpi\n      dup1\n      0x1f\n      lt\n      tag_257\n      jumpi\n      0x0100\n      dup1\n      dup4\n      sload\n      div\n      mul\n      dup4\n      mstore\n      swap2\n      0x20\n      add\n      swap2\n      jump(tag_256)\n    tag_257:\n      dup3\n      add\n      swap2\n      swap1\n      0x00\n      mstore\n      keccak256(0x00, 0x20)\n      swap1\n    tag_258:\n      dup2\n      sload\n      dup2\n      mstore\n      swap1\n      0x01\n      add\n      swap1\n      0x20\n      add\n      dup1\n      dup4\n      gt\n      tag_258\n      jumpi\n      dup3\n      swap1\n      sub\n      0x1f\n      and\n      dup3\n      add\n      swap2\n    tag_256:\n      pop\n      pop\n      pop\n      pop\n      pop\n      dup2\n      mstore\n      0x20\n      add\n      0x01\n      dup3\n      add\n      sload\n      dup2\n      mstore\n      pop\n      pop\n      swap1\n      pop\n        /* \"contracts/Voting.sol\":9234:9459  function getWinnerProposal() external view returns (Proposal memory) {... */\n      swap1\n      jump\t// out\n        /* \"contracts/Voting.sol\":10084:10188  function getCurrentStatus() external view returns (WorkflowStatus) {... */\n    tag_77:\n        /* \"contracts/Voting.sol\":10135:10149  WorkflowStatus */\n      0x00\n        /* \"contracts/Voting.sol\":10168:10181  currentStatus */\n      0x03\n      0x00\n      swap1\n      sload\n      swap1\n      0x0100\n      exp\n      swap1\n      div\n      0xff\n      and\n        /* \"contracts/Voting.sol\":10161:10181  return currentStatus */\n      swap1\n      pop\n        /* \"contracts/Voting.sol\":10084:10188  function getCurrentStatus() external view returns (WorkflowStatus) {... */\n      swap1\n      jump\t// out\n        /* \"contracts/Voting.sol\":10997:11085  function getWinnerCount() external view returns(uint){... */\n    tag_80:\n        /* \"contracts/Voting.sol\":11045:11049  uint */\n      0x00\n        /* \"contracts/Voting.sol\":11067:11078  winnerCount */\n      sload(0x08)\n        /* \"contracts/Voting.sol\":11060:11078  return winnerCount */\n      swap1\n      pop\n        /* \"contracts/Voting.sol\":10997:11085  function getWinnerCount() external view returns(uint){... */\n      swap1\n      jump\t// out\n        /* \"contracts/Voting.sol\":2830:3455  function propose(string memory _proposal) external returns (string memory){... */\n    tag_85:\n        /* \"contracts/Voting.sol\":2890:2903  string memory */\n      0x60\n        /* \"contracts/Voting.sol\":2939:2982  WorkflowStatus.ProposalsRegistrationStarted */\n      0x01\n        /* \"contracts/Voting.sol\":2922:2982  currentStatus == WorkflowStatus.ProposalsRegistrationStarted */\n      0x05\n      dup2\n      gt\n      iszero\n      tag_262\n      jumpi\n      tag_263\n      tag_115\n      jump\t// in\n    tag_263:\n    tag_262:\n        /* \"contracts/Voting.sol\":2922:2935  currentStatus */\n      0x03\n      0x00\n      swap1\n      sload\n      swap1\n      0x0100\n      exp\n      swap1\n      div\n      0xff\n      and\n        /* \"contracts/Voting.sol\":2922:2982  currentStatus == WorkflowStatus.ProposalsRegistrationStarted */\n      0x05\n      dup2\n      gt\n      iszero\n      tag_264\n      jumpi\n      tag_265\n      tag_115\n      jump\t// in\n    tag_265:\n    tag_264:\n      eq\n        /* \"contracts/Voting.sol\":2914:3022  require(currentStatus == WorkflowStatus.ProposalsRegistrationStarted, \"The proposal session is not started\") */\n      tag_266\n      jumpi\n      mload(0x40)\n      0x08c379a000000000000000000000000000000000000000000000000000000000\n      dup2\n      mstore\n      0x04\n      add\n      tag_267\n      swap1\n      tag_268\n      jump\t// in\n    tag_267:\n      mload(0x40)\n      dup1\n      swap2\n      sub\n      swap1\n      revert\n    tag_266:\n        /* \"contracts/Voting.sol\":3052:3062  msg.sender */\n      caller\n        /* \"contracts/Voting.sol\":3041:3062  owner() != msg.sender */\n      0xffffffffffffffffffffffffffffffffffffffff\n      and\n        /* \"contracts/Voting.sol\":3041:3048  owner() */\n      tag_269\n        /* \"contracts/Voting.sol\":3041:3046  owner */\n      tag_67\n        /* \"contracts/Voting.sol\":3041:3048  owner() */\n      jump\t// in\n    tag_269:\n        /* \"contracts/Voting.sol\":3041:3062  owner() != msg.sender */\n      0xffffffffffffffffffffffffffffffffffffffff\n      and\n      sub\n        /* \"contracts/Voting.sol\":3033:3122  require(owner() != msg.sender, \"You are the owner of this contract, you can not propose\") */\n      tag_270\n      jumpi\n      mload(0x40)\n      0x08c379a000000000000000000000000000000000000000000000000000000000\n      dup2\n      mstore\n      0x04\n      add\n      tag_271\n      swap1\n      tag_272\n      jump\t// in\n    tag_271:\n      mload(0x40)\n      dup1\n      swap2\n      sub\n      swap1\n      revert\n    tag_270:\n        /* \"contracts/Voting.sol\":3183:3187  true */\n      0x01\n        /* \"contracts/Voting.sol\":3140:3187  whitelistVoter[msg.sender].isRegistered == true */\n      iszero\n      iszero\n        /* \"contracts/Voting.sol\":3140:3154  whitelistVoter */\n      0x01\n        /* \"contracts/Voting.sol\":3140:3166  whitelistVoter[msg.sender] */\n      0x00\n        /* \"contracts/Voting.sol\":3155:3165  msg.sender */\n      caller\n        /* \"contracts/Voting.sol\":3140:3166  whitelistVoter[msg.sender] */\n      0xffffffffffffffffffffffffffffffffffffffff\n      and\n      0xffffffffffffffffffffffffffffffffffffffff\n      and\n      dup2\n      mstore\n      0x20\n      add\n      swap1\n      dup2\n      mstore\n      0x20\n      add\n      0x00\n      keccak256\n        /* \"contracts/Voting.sol\":3140:3179  whitelistVoter[msg.sender].isRegistered */\n      0x00\n      add\n      0x00\n      swap1\n      sload\n      swap1\n      0x0100\n      exp\n      swap1\n      div\n      0xff\n      and\n        /* \"contracts/Voting.sol\":3140:3187  whitelistVoter[msg.sender].isRegistered == true */\n      iszero\n      iszero\n      eq\n        /* \"contracts/Voting.sol\":3132:3214  require(whitelistVoter[msg.sender].isRegistered == true, \"You are not registered\") */\n      tag_273\n      jumpi\n      mload(0x40)\n      0x08c379a000000000000000000000000000000000000000000000000000000000\n      dup2\n      mstore\n      0x04\n      add\n      tag_274\n      swap1\n      tag_123\n      jump\t// in\n    tag_274:\n      mload(0x40)\n      dup1\n      swap2\n      sub\n      swap1\n      revert\n    tag_273:\n        /* \"contracts/Voting.sol\":3225:3234  proposals */\n      0x02\n        /* \"contracts/Voting.sol\":3240:3330  Proposal({... */\n      mload(0x40)\n      dup1\n      0x40\n      add\n      0x40\n      mstore\n      dup1\n        /* \"contracts/Voting.sol\":3280:3289  _proposal */\n      dup5\n        /* \"contracts/Voting.sol\":3240:3330  Proposal({... */\n      dup2\n      mstore\n      0x20\n      add\n        /* \"contracts/Voting.sol\":3318:3319  0 */\n      0x00\n        /* \"contracts/Voting.sol\":3240:3330  Proposal({... */\n      dup2\n      mstore\n      pop\n        /* \"contracts/Voting.sol\":3225:3331  proposals.push(Proposal({... */\n      swap1\n      dup1\n      0x01\n      dup2\n      sload\n      add\n      dup1\n      dup3\n      sstore\n      dup1\n      swap2\n      pop\n      pop\n      0x01\n      swap1\n      sub\n      swap1\n      0x00\n      mstore\n      keccak256(0x00, 0x20)\n      swap1\n      0x02\n      mul\n      add\n      0x00\n      swap1\n      swap2\n      swap1\n      swap2\n      swap1\n      swap2\n      pop\n      0x00\n      dup3\n      add\n      mload\n      dup2\n      0x00\n      add\n      swap1\n      dup2\n      tag_276\n      swap2\n      swap1\n      tag_277\n      jump\t// in\n    tag_276:\n      pop\n      0x20\n      dup3\n      add\n      mload\n      dup2\n      0x01\n      add\n      sstore\n      pop\n      pop\n        /* \"contracts/Voting.sol\":3341:3355  numberProposal */\n      0x07\n      0x00\n        /* \"contracts/Voting.sol\":3341:3357  numberProposal++ */\n      dup2\n      sload\n      dup1\n      swap3\n      swap2\n      swap1\n      tag_278\n      swap1\n      tag_136\n      jump\t// in\n    tag_278:\n      swap2\n      swap1\n      pop\n      sstore\n      pop\n        /* \"contracts/Voting.sol\":3372:3406  ProposalRegistered(numberProposal) */\n      0x92e393e9b54e2f801d3ea4beb0c5e71a21cc34a5d34b77d0fb8a3aa1650dc18f\n        /* \"contracts/Voting.sol\":3391:3405  numberProposal */\n      sload(0x07)\n        /* \"contracts/Voting.sol\":3372:3406  ProposalRegistered(numberProposal) */\n      mload(0x40)\n      tag_279\n      swap2\n      swap1\n      tag_37\n      jump\t// in\n    tag_279:\n      mload(0x40)\n      dup1\n      swap2\n      sub\n      swap1\n      log1\n        /* \"contracts/Voting.sol\":3417:3448  return \"Ok proposal registered\" */\n      mload(0x40)\n      dup1\n      0x40\n      add\n      0x40\n      mstore\n      dup1\n      0x16\n      dup2\n      mstore\n      0x20\n      add\n      0x4f6b2070726f706f73616c207265676973746572656400000000000000000000\n      dup2\n      mstore\n      pop\n      swap1\n      pop\n        /* \"contracts/Voting.sol\":2830:3455  function propose(string memory _proposal) external returns (string memory){... */\n      swap2\n      swap1\n      pop\n      jump\t// out\n        /* \"contracts/Voting.sol\":5378:5739  function startVoteSession() external onlyOwner {... */\n    tag_88:\n        /* \"@openzeppelin/contracts/access/Ownable.sol\":1531:1544  _checkOwner() */\n      tag_281\n        /* \"@openzeppelin/contracts/access/Ownable.sol\":1531:1542  _checkOwner */\n      tag_143\n        /* \"@openzeppelin/contracts/access/Ownable.sol\":1531:1544  _checkOwner() */\n      jump\t// in\n    tag_281:\n        /* \"contracts/Voting.sol\":5461:5502  WorkflowStatus.ProposalsRegistrationEnded */\n      0x02\n        /* \"contracts/Voting.sol\":5443:5502  currentStatus ==  WorkflowStatus.ProposalsRegistrationEnded */\n      0x05\n      dup2\n      gt\n      iszero\n      tag_283\n      jumpi\n      tag_284\n      tag_115\n      jump\t// in\n    tag_284:\n    tag_283:\n        /* \"contracts/Voting.sol\":5443:5456  currentStatus */\n      0x03\n      0x00\n      swap1\n      sload\n      swap1\n      0x0100\n      exp\n      swap1\n      div\n      0xff\n      and\n        /* \"contracts/Voting.sol\":5443:5502  currentStatus ==  WorkflowStatus.ProposalsRegistrationEnded */\n      0x05\n      dup2\n      gt\n      iszero\n      tag_285\n      jumpi\n      tag_286\n      tag_115\n      jump\t// in\n    tag_286:\n    tag_285:\n      eq\n        /* \"contracts/Voting.sol\":5435:5580  require(currentStatus ==  WorkflowStatus.ProposalsRegistrationEnded, \"The proposal session is not ended or the vote session has already started\") */\n      tag_287\n      jumpi\n      mload(0x40)\n      0x08c379a000000000000000000000000000000000000000000000000000000000\n      dup2\n      mstore\n      0x04\n      add\n      tag_288\n      swap1\n      tag_289\n      jump\t// in\n    tag_288:\n      mload(0x40)\n      dup1\n      swap2\n      sub\n      swap1\n      revert\n    tag_287:\n        /* \"contracts/Voting.sol\":5606:5641  WorkflowStatus.VotingSessionStarted */\n      0x03\n        /* \"contracts/Voting.sol\":5590:5603  currentStatus */\n      dup1\n      0x00\n        /* \"contracts/Voting.sol\":5590:5641  currentStatus = WorkflowStatus.VotingSessionStarted */\n      0x0100\n      exp\n      dup2\n      sload\n      dup2\n      0xff\n      mul\n      not\n      and\n      swap1\n      dup4\n      0x05\n      dup2\n      gt\n      iszero\n      tag_290\n      jumpi\n      tag_291\n      tag_115\n      jump\t// in\n    tag_291:\n    tag_290:\n      mul\n      or\n      swap1\n      sstore\n      pop\n        /* \"contracts/Voting.sol\":5656:5732  WorkflowStatusChange(WorkflowStatus(uint(currentStatus) - 1), currentStatus) */\n      0x0a97a4ee45751e2abf3e4fc8946939630b11b371ea8ae39ccdc3056e98f5cc3f\n        /* \"contracts/Voting.sol\":5714:5715  1 */\n      0x01\n        /* \"contracts/Voting.sol\":5697:5710  currentStatus */\n      0x03\n      0x00\n      swap1\n      sload\n      swap1\n      0x0100\n      exp\n      swap1\n      div\n      0xff\n      and\n        /* \"contracts/Voting.sol\":5692:5711  uint(currentStatus) */\n      0x05\n      dup2\n      gt\n      iszero\n      tag_292\n      jumpi\n      tag_293\n      tag_115\n      jump\t// in\n    tag_293:\n    tag_292:\n        /* \"contracts/Voting.sol\":5692:5715  uint(currentStatus) - 1 */\n      tag_294\n      swap2\n      swap1\n      tag_192\n      jump\t// in\n    tag_294:\n        /* \"contracts/Voting.sol\":5677:5716  WorkflowStatus(uint(currentStatus) - 1) */\n      0x05\n      dup2\n      gt\n      iszero\n      tag_295\n      jumpi\n      tag_296\n      tag_115\n      jump\t// in\n    tag_296:\n    tag_295:\n        /* \"contracts/Voting.sol\":5718:5731  currentStatus */\n      0x03\n      0x00\n      swap1\n      sload\n      swap1\n      0x0100\n      exp\n      swap1\n      div\n      0xff\n      and\n        /* \"contracts/Voting.sol\":5656:5732  WorkflowStatusChange(WorkflowStatus(uint(currentStatus) - 1), currentStatus) */\n      mload(0x40)\n      tag_297\n      swap3\n      swap2\n      swap1\n      tag_196\n      jump\t// in\n    tag_297:\n      mload(0x40)\n      dup1\n      swap2\n      sub\n      swap1\n      log1\n        /* \"contracts/Voting.sol\":5378:5739  function startVoteSession() external onlyOwner {... */\n      jump\t// out\n        /* \"contracts/Voting.sol\":6190:6571  function votesTallied() external onlyOwner {... */\n    tag_90:\n        /* \"@openzeppelin/contracts/access/Ownable.sol\":1531:1544  _checkOwner() */\n      tag_299\n        /* \"@openzeppelin/contracts/access/Ownable.sol\":1531:1542  _checkOwner */\n      tag_143\n        /* \"@openzeppelin/contracts/access/Ownable.sol\":1531:1544  _checkOwner() */\n      jump\t// in\n    tag_299:\n        /* \"contracts/Voting.sol\":6269:6302  WorkflowStatus.VotingSessionEnded */\n      0x04\n        /* \"contracts/Voting.sol\":6251:6302  currentStatus ==  WorkflowStatus.VotingSessionEnded */\n      0x05\n      dup2\n      gt\n      iszero\n      tag_301\n      jumpi\n      tag_302\n      tag_115\n      jump\t// in\n    tag_302:\n    tag_301:\n        /* \"contracts/Voting.sol\":6251:6264  currentStatus */\n      0x03\n      0x00\n      swap1\n      sload\n      swap1\n      0x0100\n      exp\n      swap1\n      div\n      0xff\n      and\n        /* \"contracts/Voting.sol\":6251:6302  currentStatus ==  WorkflowStatus.VotingSessionEnded */\n      0x05\n      dup2\n      gt\n      iszero\n      tag_303\n      jumpi\n      tag_304\n      tag_115\n      jump\t// in\n    tag_304:\n    tag_303:\n      eq\n        /* \"contracts/Voting.sol\":6243:6336  require(currentStatus ==  WorkflowStatus.VotingSessionEnded, \"The vote session is not ended\") */\n      tag_305\n      jumpi\n      mload(0x40)\n      0x08c379a000000000000000000000000000000000000000000000000000000000\n      dup2\n      mstore\n      0x04\n      add\n      tag_306\n      swap1\n      tag_307\n      jump\t// in\n    tag_306:\n      mload(0x40)\n      dup1\n      swap2\n      sub\n      swap1\n      revert\n    tag_305:\n        /* \"contracts/Voting.sol\":6369:6370  1 */\n      0x01\n        /* \"contracts/Voting.sol\":6354:6365  winnerCount */\n      sload(0x08)\n        /* \"contracts/Voting.sol\":6354:6370  winnerCount == 1 */\n      eq\n        /* \"contracts/Voting.sol\":6346:6420  require(winnerCount == 1, \"There is more than 1 winner, you have to vote\") */\n      tag_308\n      jumpi\n      mload(0x40)\n      0x08c379a000000000000000000000000000000000000000000000000000000000\n      dup2\n      mstore\n      0x04\n      add\n      tag_309\n      swap1\n      tag_310\n      jump\t// in\n    tag_309:\n      mload(0x40)\n      dup1\n      swap2\n      sub\n      swap1\n      revert\n    tag_308:\n        /* \"contracts/Voting.sol\":6446:6473  WorkflowStatus.VotesTallied */\n      0x05\n        /* \"contracts/Voting.sol\":6430:6443  currentStatus */\n      0x03\n      0x00\n        /* \"contracts/Voting.sol\":6430:6473  currentStatus = WorkflowStatus.VotesTallied */\n      0x0100\n      exp\n      dup2\n      sload\n      dup2\n      0xff\n      mul\n      not\n      and\n      swap1\n      dup4\n      0x05\n      dup2\n      gt\n      iszero\n      tag_311\n      jumpi\n      tag_312\n      tag_115\n      jump\t// in\n    tag_312:\n    tag_311:\n      mul\n      or\n      swap1\n      sstore\n      pop\n        /* \"contracts/Voting.sol\":6488:6564  WorkflowStatusChange(WorkflowStatus(uint(currentStatus) - 1), currentStatus) */\n      0x0a97a4ee45751e2abf3e4fc8946939630b11b371ea8ae39ccdc3056e98f5cc3f\n        /* \"contracts/Voting.sol\":6546:6547  1 */\n      0x01\n        /* \"contracts/Voting.sol\":6529:6542  currentStatus */\n      0x03\n      0x00\n      swap1\n      sload\n      swap1\n      0x0100\n      exp\n      swap1\n      div\n      0xff\n      and\n        /* \"contracts/Voting.sol\":6524:6543  uint(currentStatus) */\n      0x05\n      dup2\n      gt\n      iszero\n      tag_313\n      jumpi\n      tag_314\n      tag_115\n      jump\t// in\n    tag_314:\n    tag_313:\n        /* \"contracts/Voting.sol\":6524:6547  uint(currentStatus) - 1 */\n      tag_315\n      swap2\n      swap1\n      tag_192\n      jump\t// in\n    tag_315:\n        /* \"contracts/Voting.sol\":6509:6548  WorkflowStatus(uint(currentStatus) - 1) */\n      0x05\n      dup2\n      gt\n      iszero\n      tag_316\n      jumpi\n      tag_317\n      tag_115\n      jump\t// in\n    tag_317:\n    tag_316:\n        /* \"contracts/Voting.sol\":6550:6563  currentStatus */\n      0x03\n      0x00\n      swap1\n      sload\n      swap1\n      0x0100\n      exp\n      swap1\n      div\n      0xff\n      and\n        /* \"contracts/Voting.sol\":6488:6564  WorkflowStatusChange(WorkflowStatus(uint(currentStatus) - 1), currentStatus) */\n      mload(0x40)\n      tag_318\n      swap3\n      swap2\n      swap1\n      tag_196\n      jump\t// in\n    tag_318:\n      mload(0x40)\n      dup1\n      swap2\n      sub\n      swap1\n      log1\n        /* \"contracts/Voting.sol\":6190:6571  function votesTallied() external onlyOwner {... */\n      jump\t// out\n        /* \"contracts/Voting.sol\":10436:10531  function getProposalCount() external view returns(uint){... */\n    tag_92:\n        /* \"contracts/Voting.sol\":10486:10490  uint */\n      0x00\n        /* \"contracts/Voting.sol\":10508:10517  proposals */\n      0x02\n        /* \"contracts/Voting.sol\":10508:10524  proposals.length */\n      dup1\n      sload\n      swap1\n      pop\n        /* \"contracts/Voting.sol\":10501:10524  return proposals.length */\n      swap1\n      pop\n        /* \"contracts/Voting.sol\":10436:10531  function getProposalCount() external view returns(uint){... */\n      swap1\n      jump\t// out\n        /* \"contracts/Voting.sol\":6577:7071  function reset() external onlyOwner {... */\n    tag_95:\n        /* \"@openzeppelin/contracts/access/Ownable.sol\":1531:1544  _checkOwner() */\n      tag_321\n        /* \"@openzeppelin/contracts/access/Ownable.sol\":1531:1542  _checkOwner */\n      tag_143\n        /* \"@openzeppelin/contracts/access/Ownable.sol\":1531:1544  _checkOwner() */\n      jump\t// in\n    tag_321:\n        /* \"contracts/Voting.sol\":6649:6676  WorkflowStatus.VotesTallied */\n      0x05\n        /* \"contracts/Voting.sol\":6631:6676  currentStatus ==  WorkflowStatus.VotesTallied */\n      dup1\n      dup2\n      gt\n      iszero\n      tag_323\n      jumpi\n      tag_324\n      tag_115\n      jump\t// in\n    tag_324:\n    tag_323:\n        /* \"contracts/Voting.sol\":6631:6644  currentStatus */\n      0x03\n      0x00\n      swap1\n      sload\n      swap1\n      0x0100\n      exp\n      swap1\n      div\n      0xff\n      and\n        /* \"contracts/Voting.sol\":6631:6676  currentStatus ==  WorkflowStatus.VotesTallied */\n      0x05\n      dup2\n      gt\n      iszero\n      tag_325\n      jumpi\n      tag_326\n      tag_115\n      jump\t// in\n    tag_326:\n    tag_325:\n      eq\n        /* \"contracts/Voting.sol\":6623:6715  require(currentStatus ==  WorkflowStatus.VotesTallied, \"The last vote has not been tallied\") */\n      tag_327\n      jumpi\n      mload(0x40)\n      0x08c379a000000000000000000000000000000000000000000000000000000000\n      dup2\n      mstore\n      0x04\n      add\n      tag_328\n      swap1\n      tag_329\n      jump\t// in\n    tag_328:\n      mload(0x40)\n      dup1\n      swap2\n      sub\n      swap1\n      revert\n    tag_327:\n        /* \"contracts/Voting.sol\":6909:6918  proposals */\n      0x02\n      0x00\n        /* \"contracts/Voting.sol\":6902:6918  delete proposals */\n      tag_330\n      swap2\n      swap1\n      tag_331\n      jump\t// in\n    tag_330:\n        /* \"contracts/Voting.sol\":6942:6943  0 */\n      0x00\n        /* \"contracts/Voting.sol\":6928:6939  winnerCount */\n      0x08\n        /* \"contracts/Voting.sol\":6928:6943  winnerCount = 0 */\n      dup2\n      swap1\n      sstore\n      pop\n        /* \"contracts/Voting.sol\":6981:6982  0 */\n      0x00\n        /* \"contracts/Voting.sol\":6961:6978  winningProposalId */\n      0x04\n        /* \"contracts/Voting.sol\":6961:6982  winningProposalId = 0 */\n      dup2\n      swap1\n      sstore\n      pop\n        /* \"contracts/Voting.sol\":7006:7007  0 */\n      0x00\n        /* \"contracts/Voting.sol\":6993:7003  voterCount */\n      0x05\n        /* \"contracts/Voting.sol\":6993:7007  voterCount = 0 */\n      dup2\n      swap1\n      sstore\n      pop\n        /* \"contracts/Voting.sol\":7034:7035  0 */\n      0x00\n        /* \"contracts/Voting.sol\":7017:7031  voteCountTotal */\n      0x06\n        /* \"contracts/Voting.sol\":7017:7035  voteCountTotal = 0 */\n      dup2\n      swap1\n      sstore\n      pop\n        /* \"contracts/Voting.sol\":7062:7063  0 */\n      0x00\n        /* \"contracts/Voting.sol\":7045:7059  numberProposal */\n      0x07\n        /* \"contracts/Voting.sol\":7045:7063  numberProposal = 0 */\n      dup2\n      swap1\n      sstore\n      pop\n        /* \"contracts/Voting.sol\":6577:7071  function reset() external onlyOwner {... */\n      jump\t// out\n        /* \"contracts/Voting.sol\":4935:5371  function endProposalSession() external onlyOwner {... */\n    tag_97:\n        /* \"@openzeppelin/contracts/access/Ownable.sol\":1531:1544  _checkOwner() */\n      tag_333\n        /* \"@openzeppelin/contracts/access/Ownable.sol\":1531:1542  _checkOwner */\n      tag_143\n        /* \"@openzeppelin/contracts/access/Ownable.sol\":1531:1544  _checkOwner() */\n      jump\t// in\n    tag_333:\n        /* \"contracts/Voting.sol\":5020:5063  WorkflowStatus.ProposalsRegistrationStarted */\n      0x01\n        /* \"contracts/Voting.sol\":5002:5063  currentStatus ==  WorkflowStatus.ProposalsRegistrationStarted */\n      0x05\n      dup2\n      gt\n      iszero\n      tag_335\n      jumpi\n      tag_336\n      tag_115\n      jump\t// in\n    tag_336:\n    tag_335:\n        /* \"contracts/Voting.sol\":5002:5015  currentStatus */\n      0x03\n      0x00\n      swap1\n      sload\n      swap1\n      0x0100\n      exp\n      swap1\n      div\n      0xff\n      and\n        /* \"contracts/Voting.sol\":5002:5063  currentStatus ==  WorkflowStatus.ProposalsRegistrationStarted */\n      0x05\n      dup2\n      gt\n      iszero\n      tag_337\n      jumpi\n      tag_338\n      tag_115\n      jump\t// in\n    tag_338:\n    tag_337:\n      eq\n        /* \"contracts/Voting.sol\":4994:5130  require(currentStatus ==  WorkflowStatus.ProposalsRegistrationStarted, \"The proposal session has not started or has already been ended\") */\n      tag_339\n      jumpi\n      mload(0x40)\n      0x08c379a000000000000000000000000000000000000000000000000000000000\n      dup2\n      mstore\n      0x04\n      add\n      tag_340\n      swap1\n      tag_341\n      jump\t// in\n    tag_340:\n      mload(0x40)\n      dup1\n      swap2\n      sub\n      swap1\n      revert\n    tag_339:\n        /* \"contracts/Voting.sol\":5167:5168  0 */\n      0x00\n        /* \"contracts/Voting.sol\":5148:5157  proposals */\n      0x02\n        /* \"contracts/Voting.sol\":5148:5164  proposals.length */\n      dup1\n      sload\n      swap1\n      pop\n        /* \"contracts/Voting.sol\":5148:5168  proposals.length > 0 */\n      gt\n        /* \"contracts/Voting.sol\":5140:5206  require(proposals.length > 0, \"There are no proposals registered\") */\n      tag_342\n      jumpi\n      mload(0x40)\n      0x08c379a000000000000000000000000000000000000000000000000000000000\n      dup2\n      mstore\n      0x04\n      add\n      tag_343\n      swap1\n      tag_344\n      jump\t// in\n    tag_343:\n      mload(0x40)\n      dup1\n      swap2\n      sub\n      swap1\n      revert\n    tag_342:\n        /* \"contracts/Voting.sol\":5232:5273  WorkflowStatus.ProposalsRegistrationEnded */\n      0x02\n        /* \"contracts/Voting.sol\":5216:5229  currentStatus */\n      0x03\n      0x00\n        /* \"contracts/Voting.sol\":5216:5273  currentStatus = WorkflowStatus.ProposalsRegistrationEnded */\n      0x0100\n      exp\n      dup2\n      sload\n      dup2\n      0xff\n      mul\n      not\n      and\n      swap1\n      dup4\n      0x05\n      dup2\n      gt\n      iszero\n      tag_345\n      jumpi\n      tag_346\n      tag_115\n      jump\t// in\n    tag_346:\n    tag_345:\n      mul\n      or\n      swap1\n      sstore\n      pop\n        /* \"contracts/Voting.sol\":5288:5364  WorkflowStatusChange(WorkflowStatus(uint(currentStatus) - 1), currentStatus) */\n      0x0a97a4ee45751e2abf3e4fc8946939630b11b371ea8ae39ccdc3056e98f5cc3f\n        /* \"contracts/Voting.sol\":5346:5347  1 */\n      0x01\n        /* \"contracts/Voting.sol\":5329:5342  currentStatus */\n      0x03\n      0x00\n      swap1\n      sload\n      swap1\n      0x0100\n      exp\n      swap1\n      div\n      0xff\n      and\n        /* \"contracts/Voting.sol\":5324:5343  uint(currentStatus) */\n      0x05\n      dup2\n      gt\n      iszero\n      tag_347\n      jumpi\n      tag_348\n      tag_115\n      jump\t// in\n    tag_348:\n    tag_347:\n        /* \"contracts/Voting.sol\":5324:5347  uint(currentStatus) - 1 */\n      tag_349\n      swap2\n      swap1\n      tag_192\n      jump\t// in\n    tag_349:\n        /* \"contracts/Voting.sol\":5309:5348  WorkflowStatus(uint(currentStatus) - 1) */\n      0x05\n      dup2\n      gt\n      iszero\n      tag_350\n      jumpi\n      tag_351\n      tag_115\n      jump\t// in\n    tag_351:\n    tag_350:\n        /* \"contracts/Voting.sol\":5350:5363  currentStatus */\n      0x03\n      0x00\n      swap1\n      sload\n      swap1\n      0x0100\n      exp\n      swap1\n      div\n      0xff\n      and\n        /* \"contracts/Voting.sol\":5288:5364  WorkflowStatusChange(WorkflowStatus(uint(currentStatus) - 1), currentStatus) */\n      mload(0x40)\n      tag_352\n      swap3\n      swap2\n      swap1\n      tag_196\n      jump\t// in\n    tag_352:\n      mload(0x40)\n      dup1\n      swap2\n      sub\n      swap1\n      log1\n        /* \"contracts/Voting.sol\":4935:5371  function endProposalSession() external onlyOwner {... */\n      jump\t// out\n        /* \"contracts/Voting.sol\":10852:10946  function getVoteCountTotal() external view returns(uint){... */\n    tag_99:\n        /* \"contracts/Voting.sol\":10903:10907  uint */\n      0x00\n        /* \"contracts/Voting.sol\":10925:10939  voteCountTotal */\n      sload(0x06)\n        /* \"contracts/Voting.sol\":10918:10939  return voteCountTotal */\n      swap1\n      pop\n        /* \"contracts/Voting.sol\":10852:10946  function getVoteCountTotal() external view returns(uint){... */\n      swap1\n      jump\t// out\n        /* \"@openzeppelin/contracts/access/Ownable.sol\":2543:2758  function transferOwnership(address newOwner) public virtual onlyOwner {... */\n    tag_103:\n        /* \"@openzeppelin/contracts/access/Ownable.sol\":1531:1544  _checkOwner() */\n      tag_355\n        /* \"@openzeppelin/contracts/access/Ownable.sol\":1531:1542  _checkOwner */\n      tag_143\n        /* \"@openzeppelin/contracts/access/Ownable.sol\":1531:1544  _checkOwner() */\n      jump\t// in\n    tag_355:\n        /* \"@openzeppelin/contracts/access/Ownable.sol\":2647:2648  0 */\n      0x00\n        /* \"@openzeppelin/contracts/access/Ownable.sol\":2627:2649  newOwner == address(0) */\n      0xffffffffffffffffffffffffffffffffffffffff\n      and\n        /* \"@openzeppelin/contracts/access/Ownable.sol\":2627:2635  newOwner */\n      dup2\n        /* \"@openzeppelin/contracts/access/Ownable.sol\":2627:2649  newOwner == address(0) */\n      0xffffffffffffffffffffffffffffffffffffffff\n      and\n      sub\n        /* \"@openzeppelin/contracts/access/Ownable.sol\":2623:2714  if (newOwner == address(0)) {... */\n      tag_357\n      jumpi\n        /* \"@openzeppelin/contracts/access/Ownable.sol\":2700:2701  0 */\n      0x00\n        /* \"@openzeppelin/contracts/access/Ownable.sol\":2672:2703  OwnableInvalidOwner(address(0)) */\n      mload(0x40)\n      0x1e4fbdf700000000000000000000000000000000000000000000000000000000\n      dup2\n      mstore\n      0x04\n      add\n      tag_358\n      swap2\n      swap1\n      tag_69\n      jump\t// in\n    tag_358:\n      mload(0x40)\n      dup1\n      swap2\n      sub\n      swap1\n      revert\n        /* \"@openzeppelin/contracts/access/Ownable.sol\":2623:2714  if (newOwner == address(0)) {... */\n    tag_357:\n        /* \"@openzeppelin/contracts/access/Ownable.sol\":2723:2751  _transferOwnership(newOwner) */\n      tag_359\n        /* \"@openzeppelin/contracts/access/Ownable.sol\":2742:2750  newOwner */\n      dup2\n        /* \"@openzeppelin/contracts/access/Ownable.sol\":2723:2741  _transferOwnership */\n      tag_223\n        /* \"@openzeppelin/contracts/access/Ownable.sol\":2723:2751  _transferOwnership(newOwner) */\n      jump\t// in\n    tag_359:\n        /* \"@openzeppelin/contracts/access/Ownable.sol\":2543:2758  function transferOwnership(address newOwner) public virtual onlyOwner {... */\n      pop\n      jump\t// out\n        /* \"contracts/Voting.sol\":5746:6184  function endVoteSession() external onlyOwner {... */\n    tag_105:\n        /* \"@openzeppelin/contracts/access/Ownable.sol\":1531:1544  _checkOwner() */\n      tag_361\n        /* \"@openzeppelin/contracts/access/Ownable.sol\":1531:1542  _checkOwner */\n      tag_143\n        /* \"@openzeppelin/contracts/access/Ownable.sol\":1531:1544  _checkOwner() */\n      jump\t// in\n    tag_361:\n        /* \"contracts/Voting.sol\":5827:5862  WorkflowStatus.VotingSessionStarted */\n      0x03\n        /* \"contracts/Voting.sol\":5809:5862  currentStatus ==  WorkflowStatus.VotingSessionStarted */\n      0x05\n      dup2\n      gt\n      iszero\n      tag_363\n      jumpi\n      tag_364\n      tag_115\n      jump\t// in\n    tag_364:\n    tag_363:\n        /* \"contracts/Voting.sol\":5809:5822  currentStatus */\n      0x03\n      0x00\n      swap1\n      sload\n      swap1\n      0x0100\n      exp\n      swap1\n      div\n      0xff\n      and\n        /* \"contracts/Voting.sol\":5809:5862  currentStatus ==  WorkflowStatus.VotingSessionStarted */\n      0x05\n      dup2\n      gt\n      iszero\n      tag_365\n      jumpi\n      tag_366\n      tag_115\n      jump\t// in\n    tag_366:\n    tag_365:\n      eq\n        /* \"contracts/Voting.sol\":5801:5920  require(currentStatus ==  WorkflowStatus.VotingSessionStarted, \"The vote session has not started or has already ended\") */\n      tag_367\n      jumpi\n      mload(0x40)\n      0x08c379a000000000000000000000000000000000000000000000000000000000\n      dup2\n      mstore\n      0x04\n      add\n      tag_368\n      swap1\n      tag_369\n      jump\t// in\n    tag_368:\n      mload(0x40)\n      dup1\n      swap2\n      sub\n      swap1\n      revert\n    tag_367:\n        /* \"contracts/Voting.sol\":5955:5956  0 */\n      0x00\n        /* \"contracts/Voting.sol\":5938:5952  voteCountTotal */\n      sload(0x06)\n        /* \"contracts/Voting.sol\":5938:5956  voteCountTotal > 0 */\n      gt\n        /* \"contracts/Voting.sol\":5930:5989  require(voteCountTotal > 0, \"There are no vote registered\") */\n      tag_370\n      jumpi\n      mload(0x40)\n      0x08c379a000000000000000000000000000000000000000000000000000000000\n      dup2\n      mstore\n      0x04\n      add\n      tag_371\n      swap1\n      tag_372\n      jump\t// in\n    tag_371:\n      mload(0x40)\n      dup1\n      swap2\n      sub\n      swap1\n      revert\n    tag_370:\n        /* \"contracts/Voting.sol\":6015:6048  WorkflowStatus.VotingSessionEnded */\n      0x04\n        /* \"contracts/Voting.sol\":5999:6012  currentStatus */\n      0x03\n      0x00\n        /* \"contracts/Voting.sol\":5999:6048  currentStatus = WorkflowStatus.VotingSessionEnded */\n      0x0100\n      exp\n      dup2\n      sload\n      dup2\n      0xff\n      mul\n      not\n      and\n      swap1\n      dup4\n      0x05\n      dup2\n      gt\n      iszero\n      tag_373\n      jumpi\n      tag_374\n      tag_115\n      jump\t// in\n    tag_374:\n    tag_373:\n      mul\n      or\n      swap1\n      sstore\n      pop\n        /* \"contracts/Voting.sol\":6058:6077  setWinnerProposal() */\n      tag_375\n        /* \"contracts/Voting.sol\":6058:6075  setWinnerProposal */\n      tag_376\n        /* \"contracts/Voting.sol\":6058:6077  setWinnerProposal() */\n      jump\t// in\n    tag_375:\n        /* \"contracts/Voting.sol\":6093:6169  WorkflowStatusChange(WorkflowStatus(uint(currentStatus) - 1), currentStatus) */\n      0x0a97a4ee45751e2abf3e4fc8946939630b11b371ea8ae39ccdc3056e98f5cc3f\n        /* \"contracts/Voting.sol\":6151:6152  1 */\n      0x01\n        /* \"contracts/Voting.sol\":6134:6147  currentStatus */\n      0x03\n      0x00\n      swap1\n      sload\n      swap1\n      0x0100\n      exp\n      swap1\n      div\n      0xff\n      and\n        /* \"contracts/Voting.sol\":6129:6148  uint(currentStatus) */\n      0x05\n      dup2\n      gt\n      iszero\n      tag_377\n      jumpi\n      tag_378\n      tag_115\n      jump\t// in\n    tag_378:\n    tag_377:\n        /* \"contracts/Voting.sol\":6129:6152  uint(currentStatus) - 1 */\n      tag_379\n      swap2\n      swap1\n      tag_192\n      jump\t// in\n    tag_379:\n        /* \"contracts/Voting.sol\":6114:6153  WorkflowStatus(uint(currentStatus) - 1) */\n      0x05\n      dup2\n      gt\n      iszero\n      tag_380\n      jumpi\n      tag_381\n      tag_115\n      jump\t// in\n    tag_381:\n    tag_380:\n        /* \"contracts/Voting.sol\":6155:6168  currentStatus */\n      0x03\n      0x00\n      swap1\n      sload\n      swap1\n      0x0100\n      exp\n      swap1\n      div\n      0xff\n      and\n        /* \"contracts/Voting.sol\":6093:6169  WorkflowStatusChange(WorkflowStatus(uint(currentStatus) - 1), currentStatus) */\n      mload(0x40)\n      tag_382\n      swap3\n      swap2\n      swap1\n      tag_196\n      jump\t// in\n    tag_382:\n      mload(0x40)\n      dup1\n      swap2\n      sub\n      swap1\n      log1\n        /* \"contracts/Voting.sol\":5746:6184  function endVoteSession() external onlyOwner {... */\n      jump\t// out\n        /* \"@openzeppelin/contracts/access/Ownable.sol\":1796:1958  function _checkOwner() internal view virtual {... */\n    tag_143:\n        /* \"@openzeppelin/contracts/access/Ownable.sol\":1866:1878  _msgSender() */\n      tag_384\n        /* \"@openzeppelin/contracts/access/Ownable.sol\":1866:1876  _msgSender */\n      tag_385\n        /* \"@openzeppelin/contracts/access/Ownable.sol\":1866:1878  _msgSender() */\n      jump\t// in\n    tag_384:\n        /* \"@openzeppelin/contracts/access/Ownable.sol\":1855:1878  owner() != _msgSender() */\n      0xffffffffffffffffffffffffffffffffffffffff\n      and\n        /* \"@openzeppelin/contracts/access/Ownable.sol\":1855:1862  owner() */\n      tag_386\n        /* \"@openzeppelin/contracts/access/Ownable.sol\":1855:1860  owner */\n      tag_67\n        /* \"@openzeppelin/contracts/access/Ownable.sol\":1855:1862  owner() */\n      jump\t// in\n    tag_386:\n        /* \"@openzeppelin/contracts/access/Ownable.sol\":1855:1878  owner() != _msgSender() */\n      0xffffffffffffffffffffffffffffffffffffffff\n      and\n      eq\n        /* \"@openzeppelin/contracts/access/Ownable.sol\":1851:1952  if (owner() != _msgSender()) {... */\n      tag_387\n      jumpi\n        /* \"@openzeppelin/contracts/access/Ownable.sol\":1928:1940  _msgSender() */\n      tag_388\n        /* \"@openzeppelin/contracts/access/Ownable.sol\":1928:1938  _msgSender */\n      tag_385\n        /* \"@openzeppelin/contracts/access/Ownable.sol\":1928:1940  _msgSender() */\n      jump\t// in\n    tag_388:\n        /* \"@openzeppelin/contracts/access/Ownable.sol\":1901:1941  OwnableUnauthorizedAccount(_msgSender()) */\n      mload(0x40)\n      0x118cdaa700000000000000000000000000000000000000000000000000000000\n      dup2\n      mstore\n      0x04\n      add\n      tag_389\n      swap2\n      swap1\n      tag_69\n      jump\t// in\n    tag_389:\n      mload(0x40)\n      dup1\n      swap2\n      sub\n      swap1\n      revert\n        /* \"@openzeppelin/contracts/access/Ownable.sol\":1851:1952  if (owner() != _msgSender()) {... */\n    tag_387:\n        /* \"@openzeppelin/contracts/access/Ownable.sol\":1796:1958  function _checkOwner() internal view virtual {... */\n      jump\t// out\n        /* \"@openzeppelin/contracts/access/Ownable.sol\":2912:3099  function _transferOwnership(address newOwner) internal virtual {... */\n    tag_223:\n        /* \"@openzeppelin/contracts/access/Ownable.sol\":2985:3001  address oldOwner */\n      0x00\n        /* \"@openzeppelin/contracts/access/Ownable.sol\":3004:3010  _owner */\n      0x00\n      0x00\n      swap1\n      sload\n      swap1\n      0x0100\n      exp\n      swap1\n      div\n      0xffffffffffffffffffffffffffffffffffffffff\n      and\n        /* \"@openzeppelin/contracts/access/Ownable.sol\":2985:3010  address oldOwner = _owner */\n      swap1\n      pop\n        /* \"@openzeppelin/contracts/access/Ownable.sol\":3029:3037  newOwner */\n      dup2\n        /* \"@openzeppelin/contracts/access/Ownable.sol\":3020:3026  _owner */\n      0x00\n      0x00\n        /* \"@openzeppelin/contracts/access/Ownable.sol\":3020:3037  _owner = newOwner */\n      0x0100\n      exp\n      dup2\n      sload\n      dup2\n      0xffffffffffffffffffffffffffffffffffffffff\n      mul\n      not\n      and\n      swap1\n      dup4\n      0xffffffffffffffffffffffffffffffffffffffff\n      and\n      mul\n      or\n      swap1\n      sstore\n      pop\n        /* \"@openzeppelin/contracts/access/Ownable.sol\":3083:3091  newOwner */\n      dup2\n        /* \"@openzeppelin/contracts/access/Ownable.sol\":3052:3092  OwnershipTransferred(oldOwner, newOwner) */\n      0xffffffffffffffffffffffffffffffffffffffff\n      and\n        /* \"@openzeppelin/contracts/access/Ownable.sol\":3073:3081  oldOwner */\n      dup2\n        /* \"@openzeppelin/contracts/access/Ownable.sol\":3052:3092  OwnershipTransferred(oldOwner, newOwner) */\n      0xffffffffffffffffffffffffffffffffffffffff\n      and\n      0x8be0079c531659141344cd1fd0a4f28419497f9722a3daafe3b4186f6b6457e0\n      mload(0x40)\n      mload(0x40)\n      dup1\n      swap2\n      sub\n      swap1\n      log3\n        /* \"@openzeppelin/contracts/access/Ownable.sol\":2975:3099  {... */\n      pop\n        /* \"@openzeppelin/contracts/access/Ownable.sol\":2912:3099  function _transferOwnership(address newOwner) internal virtual {... */\n      pop\n      jump\t// out\n        /* \"contracts/Voting.sol\":8855:9183  function setWinnerProposal() private onlyOwner {... */\n    tag_376:\n        /* \"@openzeppelin/contracts/access/Ownable.sol\":1531:1544  _checkOwner() */\n      tag_392\n        /* \"@openzeppelin/contracts/access/Ownable.sol\":1531:1542  _checkOwner */\n      tag_143\n        /* \"@openzeppelin/contracts/access/Ownable.sol\":1531:1544  _checkOwner() */\n      jump\t// in\n    tag_392:\n        /* \"contracts/Voting.sol\":8917:8923  uint i */\n      0x00\n        /* \"contracts/Voting.sol\":8926:8927  0 */\n      0x00\n        /* \"contracts/Voting.sol\":8917:8927  uint i = 0 */\n      swap1\n      pop\n        /* \"contracts/Voting.sol\":8912:9176  for (uint i = 0; i < proposals.length; i++) {... */\n    tag_394:\n        /* \"contracts/Voting.sol\":8933:8942  proposals */\n      0x02\n        /* \"contracts/Voting.sol\":8933:8949  proposals.length */\n      dup1\n      sload\n      swap1\n      pop\n        /* \"contracts/Voting.sol\":8929:8930  i */\n      dup2\n        /* \"contracts/Voting.sol\":8929:8949  i < proposals.length */\n      lt\n        /* \"contracts/Voting.sol\":8912:9176  for (uint i = 0; i < proposals.length; i++) {... */\n      iszero\n      tag_395\n      jumpi\n        /* \"contracts/Voting.sol\":9000:9015  voteWinnerCount */\n      sload(0x09)\n        /* \"contracts/Voting.sol\":8974:8983  proposals */\n      0x02\n        /* \"contracts/Voting.sol\":8984:8985  i */\n      dup3\n        /* \"contracts/Voting.sol\":8974:8986  proposals[i] */\n      dup2\n      sload\n      dup2\n      lt\n      tag_397\n      jumpi\n      tag_398\n      tag_133\n      jump\t// in\n    tag_398:\n    tag_397:\n      swap1\n      0x00\n      mstore\n      keccak256(0x00, 0x20)\n      swap1\n      0x02\n      mul\n      add\n        /* \"contracts/Voting.sol\":8974:8996  proposals[i].voteCount */\n      0x01\n      add\n      sload\n        /* \"contracts/Voting.sol\":8974:9015  proposals[i].voteCount >= voteWinnerCount */\n      lt\n        /* \"contracts/Voting.sol\":8970:9160  if (proposals[i].voteCount >= voteWinnerCount) {... */\n      tag_400\n      jumpi\n        /* \"contracts/Voting.sol\":9053:9062  proposals */\n      0x02\n        /* \"contracts/Voting.sol\":9063:9064  i */\n      dup2\n        /* \"contracts/Voting.sol\":9053:9065  proposals[i] */\n      dup2\n      sload\n      dup2\n      lt\n      tag_401\n      jumpi\n      tag_402\n      tag_133\n      jump\t// in\n    tag_402:\n    tag_401:\n      swap1\n      0x00\n      mstore\n      keccak256(0x00, 0x20)\n      swap1\n      0x02\n      mul\n      add\n        /* \"contracts/Voting.sol\":9053:9075  proposals[i].voteCount */\n      0x01\n      add\n      sload\n        /* \"contracts/Voting.sol\":9035:9050  voteWinnerCount */\n      0x09\n        /* \"contracts/Voting.sol\":9035:9075  voteWinnerCount = proposals[i].voteCount */\n      dup2\n      swap1\n      sstore\n      pop\n        /* \"contracts/Voting.sol\":9113:9114  i */\n      dup1\n        /* \"contracts/Voting.sol\":9093:9110  winningProposalId */\n      0x04\n        /* \"contracts/Voting.sol\":9093:9114  winningProposalId = i */\n      dup2\n      swap1\n      sstore\n      pop\n        /* \"contracts/Voting.sol\":9132:9143  winnerCount */\n      0x08\n      0x00\n        /* \"contracts/Voting.sol\":9132:9145  winnerCount++ */\n      dup2\n      sload\n      dup1\n      swap3\n      swap2\n      swap1\n      tag_404\n      swap1\n      tag_136\n      jump\t// in\n    tag_404:\n      swap2\n      swap1\n      pop\n      sstore\n      pop\n        /* \"contracts/Voting.sol\":8970:9160  if (proposals[i].voteCount >= voteWinnerCount) {... */\n    tag_400:\n        /* \"contracts/Voting.sol\":8951:8954  i++ */\n      dup1\n      dup1\n      0x01\n      add\n      swap2\n      pop\n      pop\n        /* \"contracts/Voting.sol\":8912:9176  for (uint i = 0; i < proposals.length; i++) {... */\n      jump(tag_394)\n    tag_395:\n      pop\n        /* \"contracts/Voting.sol\":8855:9183  function setWinnerProposal() private onlyOwner {... */\n      jump\t// out\n        /* \"@openzeppelin/contracts/utils/Context.sol\":656:752  function _msgSender() internal view virtual returns (address) {... */\n    tag_385:\n        /* \"@openzeppelin/contracts/utils/Context.sol\":709:716  address */\n      0x00\n        /* \"@openzeppelin/contracts/utils/Context.sol\":735:745  msg.sender */\n      caller\n        /* \"@openzeppelin/contracts/utils/Context.sol\":728:745  return msg.sender */\n      swap1\n      pop\n        /* \"@openzeppelin/contracts/utils/Context.sol\":656:752  function _msgSender() internal view virtual returns (address) {... */\n      swap1\n      jump\t// out\n    tag_225:\n      mload(0x40)\n      dup1\n      0x40\n      add\n      0x40\n      mstore\n      dup1\n      0x60\n      dup2\n      mstore\n      0x20\n      add\n      0x00\n      dup2\n      mstore\n      pop\n      swap1\n      jump\t// out\n    tag_331:\n      pop\n      dup1\n      sload\n      0x00\n      dup3\n      sstore\n      0x02\n      mul\n      swap1\n      0x00\n      mstore\n      keccak256(0x00, 0x20)\n      swap1\n      dup2\n      add\n      swap1\n      tag_407\n      swap2\n      swap1\n      tag_408\n      jump\t// in\n    tag_407:\n      pop\n      jump\t// out\n    tag_408:\n    tag_409:\n      dup1\n      dup3\n      gt\n      iszero\n      tag_410\n      jumpi\n      0x00\n      0x00\n      dup3\n      add\n      0x00\n      tag_411\n      swap2\n      swap1\n      tag_412\n      jump\t// in\n    tag_411:\n      0x01\n      dup3\n      add\n      0x00\n      swap1\n      sstore\n      pop\n      0x02\n      add\n      jump(tag_409)\n    tag_410:\n      pop\n      swap1\n      jump\t// out\n    tag_412:\n      pop\n      dup1\n      sload\n      tag_413\n      swap1\n      tag_169\n      jump\t// in\n    tag_413:\n      0x00\n      dup3\n      sstore\n      dup1\n      0x1f\n      lt\n      tag_415\n      jumpi\n      pop\n      jump(tag_414)\n    tag_415:\n      0x1f\n      add\n      0x20\n      swap1\n      div\n      swap1\n      0x00\n      mstore\n      keccak256(0x00, 0x20)\n      swap1\n      dup2\n      add\n      swap1\n      tag_416\n      swap2\n      swap1\n      tag_417\n      jump\t// in\n    tag_416:\n    tag_414:\n      pop\n      jump\t// out\n    tag_417:\n    tag_418:\n      dup1\n      dup3\n      gt\n      iszero\n      tag_419\n      jumpi\n      0x00\n      dup2\n      0x00\n      swap1\n      sstore\n      pop\n      0x01\n      add\n      jump(tag_418)\n    tag_419:\n      pop\n      swap1\n      jump\t// out\n        /* \"#utility.yul\":7:82   */\n    tag_420:\n        /* \"#utility.yul\":40:46   */\n      0x00\n        /* \"#utility.yul\":73:75   */\n      0x40\n        /* \"#utility.yul\":67:76   */\n      mload\n        /* \"#utility.yul\":57:76   */\n      swap1\n      pop\n        /* \"#utility.yul\":7:82   */\n      swap1\n      jump\t// out\n        /* \"#utility.yul\":88:205   */\n    tag_421:\n        /* \"#utility.yul\":197:198   */\n      0x00\n        /* \"#utility.yul\":194:195   */\n      0x00\n        /* \"#utility.yul\":187:199   */\n      revert\n        /* \"#utility.yul\":211:328   */\n    tag_422:\n        /* \"#utility.yul\":320:321   */\n      0x00\n        /* \"#utility.yul\":317:318   */\n      0x00\n        /* \"#utility.yul\":310:322   */\n      revert\n        /* \"#utility.yul\":334:411   */\n    tag_423:\n        /* \"#utility.yul\":371:378   */\n      0x00\n        /* \"#utility.yul\":400:405   */\n      dup2\n        /* \"#utility.yul\":389:405   */\n      swap1\n      pop\n        /* \"#utility.yul\":334:411   */\n      swap2\n      swap1\n      pop\n      jump\t// out\n        /* \"#utility.yul\":417:539   */\n    tag_424:\n        /* \"#utility.yul\":490:514   */\n      tag_528\n        /* \"#utility.yul\":508:513   */\n      dup2\n        /* \"#utility.yul\":490:514   */\n      tag_423\n      jump\t// in\n    tag_528:\n        /* \"#utility.yul\":483:488   */\n      dup2\n        /* \"#utility.yul\":480:515   */\n      eq\n        /* \"#utility.yul\":470:533   */\n      tag_529\n      jumpi\n        /* \"#utility.yul\":529:530   */\n      0x00\n        /* \"#utility.yul\":526:527   */\n      0x00\n        /* \"#utility.yul\":519:531   */\n      revert\n        /* \"#utility.yul\":470:533   */\n    tag_529:\n        /* \"#utility.yul\":417:539   */\n      pop\n      jump\t// out\n        /* \"#utility.yul\":545:684   */\n    tag_425:\n        /* \"#utility.yul\":591:596   */\n      0x00\n        /* \"#utility.yul\":629:635   */\n      dup2\n        /* \"#utility.yul\":616:636   */\n      calldataload\n        /* \"#utility.yul\":607:636   */\n      swap1\n      pop\n        /* \"#utility.yul\":645:678   */\n      tag_531\n        /* \"#utility.yul\":672:677   */\n      dup2\n        /* \"#utility.yul\":645:678   */\n      tag_424\n      jump\t// in\n    tag_531:\n        /* \"#utility.yul\":545:684   */\n      swap3\n      swap2\n      pop\n      pop\n      jump\t// out\n        /* \"#utility.yul\":690:1019   */\n    tag_32:\n        /* \"#utility.yul\":749:755   */\n      0x00\n        /* \"#utility.yul\":798:800   */\n      0x20\n        /* \"#utility.yul\":786:795   */\n      dup3\n        /* \"#utility.yul\":777:784   */\n      dup5\n        /* \"#utility.yul\":773:796   */\n      sub\n        /* \"#utility.yul\":769:801   */\n      slt\n        /* \"#utility.yul\":766:885   */\n      iszero\n      tag_533\n      jumpi\n        /* \"#utility.yul\":804:883   */\n      tag_534\n      tag_421\n      jump\t// in\n    tag_534:\n        /* \"#utility.yul\":766:885   */\n    tag_533:\n        /* \"#utility.yul\":924:925   */\n      0x00\n        /* \"#utility.yul\":949:1002   */\n      tag_535\n        /* \"#utility.yul\":994:1001   */\n      dup5\n        /* \"#utility.yul\":985:991   */\n      dup3\n        /* \"#utility.yul\":974:983   */\n      dup6\n        /* \"#utility.yul\":970:992   */\n      add\n        /* \"#utility.yul\":949:1002   */\n      tag_425\n      jump\t// in\n    tag_535:\n        /* \"#utility.yul\":939:1002   */\n      swap2\n      pop\n        /* \"#utility.yul\":895:1012   */\n      pop\n        /* \"#utility.yul\":690:1019   */\n      swap3\n      swap2\n      pop\n      pop\n      jump\t// out\n        /* \"#utility.yul\":1025:1143   */\n    tag_426:\n        /* \"#utility.yul\":1112:1136   */\n      tag_537\n        /* \"#utility.yul\":1130:1135   */\n      dup2\n        /* \"#utility.yul\":1112:1136   */\n      tag_423\n      jump\t// in\n    tag_537:\n        /* \"#utility.yul\":1107:1110   */\n      dup3\n        /* \"#utility.yul\":1100:1137   */\n      mstore\n        /* \"#utility.yul\":1025:1143   */\n      pop\n      pop\n      jump\t// out\n        /* \"#utility.yul\":1149:1371   */\n    tag_37:\n        /* \"#utility.yul\":1242:1246   */\n      0x00\n        /* \"#utility.yul\":1280:1282   */\n      0x20\n        /* \"#utility.yul\":1269:1278   */\n      dup3\n        /* \"#utility.yul\":1265:1283   */\n      add\n        /* \"#utility.yul\":1257:1283   */\n      swap1\n      pop\n        /* \"#utility.yul\":1293:1364   */\n      tag_539\n        /* \"#utility.yul\":1361:1362   */\n      0x00\n        /* \"#utility.yul\":1350:1359   */\n      dup4\n        /* \"#utility.yul\":1346:1363   */\n      add\n        /* \"#utility.yul\":1337:1343   */\n      dup5\n        /* \"#utility.yul\":1293:1364   */\n      tag_426\n      jump\t// in\n    tag_539:\n        /* \"#utility.yul\":1149:1371   */\n      swap3\n      swap2\n      pop\n      pop\n      jump\t// out\n        /* \"#utility.yul\":1377:1503   */\n    tag_427:\n        /* \"#utility.yul\":1414:1421   */\n      0x00\n        /* \"#utility.yul\":1454:1496   */\n      0xffffffffffffffffffffffffffffffffffffffff\n        /* \"#utility.yul\":1447:1452   */\n      dup3\n        /* \"#utility.yul\":1443:1497   */\n      and\n        /* \"#utility.yul\":1432:1497   */\n      swap1\n      pop\n        /* \"#utility.yul\":1377:1503   */\n      swap2\n      swap1\n      pop\n      jump\t// out\n        /* \"#utility.yul\":1509:1605   */\n    tag_428:\n        /* \"#utility.yul\":1546:1553   */\n      0x00\n        /* \"#utility.yul\":1575:1599   */\n      tag_542\n        /* \"#utility.yul\":1593:1598   */\n      dup3\n        /* \"#utility.yul\":1575:1599   */\n      tag_427\n      jump\t// in\n    tag_542:\n        /* \"#utility.yul\":1564:1599   */\n      swap1\n      pop\n        /* \"#utility.yul\":1509:1605   */\n      swap2\n      swap1\n      pop\n      jump\t// out\n        /* \"#utility.yul\":1611:1733   */\n    tag_429:\n        /* \"#utility.yul\":1684:1708   */\n      tag_544\n        /* \"#utility.yul\":1702:1707   */\n      dup2\n        /* \"#utility.yul\":1684:1708   */\n      tag_428\n      jump\t// in\n    tag_544:\n        /* \"#utility.yul\":1677:1682   */\n      dup2\n        /* \"#utility.yul\":1674:1709   */\n      eq\n        /* \"#utility.yul\":1664:1727   */\n      tag_545\n      jumpi\n        /* \"#utility.yul\":1723:1724   */\n      0x00\n        /* \"#utility.yul\":1720:1721   */\n      0x00\n        /* \"#utility.yul\":1713:1725   */\n      revert\n        /* \"#utility.yul\":1664:1727   */\n    tag_545:\n        /* \"#utility.yul\":1611:1733   */\n      pop\n      jump\t// out\n        /* \"#utility.yul\":1739:1878   */\n    tag_430:\n        /* \"#utility.yul\":1785:1790   */\n      0x00\n        /* \"#utility.yul\":1823:1829   */\n      dup2\n        /* \"#utility.yul\":1810:1830   */\n      calldataload\n        /* \"#utility.yul\":1801:1830   */\n      swap1\n      pop\n        /* \"#utility.yul\":1839:1872   */\n      tag_547\n        /* \"#utility.yul\":1866:1871   */\n      dup2\n        /* \"#utility.yul\":1839:1872   */\n      tag_429\n      jump\t// in\n    tag_547:\n        /* \"#utility.yul\":1739:1878   */\n      swap3\n      swap2\n      pop\n      pop\n      jump\t// out\n        /* \"#utility.yul\":1884:2213   */\n    tag_40:\n        /* \"#utility.yul\":1943:1949   */\n      0x00\n        /* \"#utility.yul\":1992:1994   */\n      0x20\n        /* \"#utility.yul\":1980:1989   */\n      dup3\n        /* \"#utility.yul\":1971:1978   */\n      dup5\n        /* \"#utility.yul\":1967:1990   */\n      sub\n        /* \"#utility.yul\":1963:1995   */\n      slt\n        /* \"#utility.yul\":1960:2079   */\n      iszero\n      tag_549\n      jumpi\n        /* \"#utility.yul\":1998:2077   */\n      tag_550\n      tag_421\n      jump\t// in\n    tag_550:\n        /* \"#utility.yul\":1960:2079   */\n    tag_549:\n        /* \"#utility.yul\":2118:2119   */\n      0x00\n        /* \"#utility.yul\":2143:2196   */\n      tag_551\n        /* \"#utility.yul\":2188:2195   */\n      dup5\n        /* \"#utility.yul\":2179:2185   */\n      dup3\n        /* \"#utility.yul\":2168:2177   */\n      dup6\n        /* \"#utility.yul\":2164:2186   */\n      add\n        /* \"#utility.yul\":2143:2196   */\n      tag_430\n      jump\t// in\n    tag_551:\n        /* \"#utility.yul\":2133:2196   */\n      swap2\n      pop\n        /* \"#utility.yul\":2089:2206   */\n      pop\n        /* \"#utility.yul\":1884:2213   */\n      swap3\n      swap2\n      pop\n      pop\n      jump\t// out\n        /* \"#utility.yul\":2219:2318   */\n    tag_431:\n        /* \"#utility.yul\":2271:2277   */\n      0x00\n        /* \"#utility.yul\":2305:2310   */\n      dup2\n        /* \"#utility.yul\":2299:2311   */\n      mload\n        /* \"#utility.yul\":2289:2311   */\n      swap1\n      pop\n        /* \"#utility.yul\":2219:2318   */\n      swap2\n      swap1\n      pop\n      jump\t// out\n        /* \"#utility.yul\":2324:2493   */\n    tag_432:\n        /* \"#utility.yul\":2408:2419   */\n      0x00\n        /* \"#utility.yul\":2442:2448   */\n      dup3\n        /* \"#utility.yul\":2437:2440   */\n      dup3\n        /* \"#utility.yul\":2430:2449   */\n      mstore\n        /* \"#utility.yul\":2482:2486   */\n      0x20\n        /* \"#utility.yul\":2477:2480   */\n      dup3\n        /* \"#utility.yul\":2473:2487   */\n      add\n        /* \"#utility.yul\":2458:2487   */\n      swap1\n      pop\n        /* \"#utility.yul\":2324:2493   */\n      swap3\n      swap2\n      pop\n      pop\n      jump\t// out\n        /* \"#utility.yul\":2499:2638   */\n    tag_433:\n        /* \"#utility.yul\":2588:2594   */\n      dup3\n        /* \"#utility.yul\":2583:2586   */\n      dup2\n        /* \"#utility.yul\":2578:2581   */\n      dup4\n        /* \"#utility.yul\":2572:2595   */\n      mcopy\n        /* \"#utility.yul\":2629:2630   */\n      0x00\n        /* \"#utility.yul\":2620:2626   */\n      dup4\n        /* \"#utility.yul\":2615:2618   */\n      dup4\n        /* \"#utility.yul\":2611:2627   */\n      add\n        /* \"#utility.yul\":2604:2631   */\n      mstore\n        /* \"#utility.yul\":2499:2638   */\n      pop\n      pop\n      pop\n      jump\t// out\n        /* \"#utility.yul\":2644:2746   */\n    tag_434:\n        /* \"#utility.yul\":2685:2691   */\n      0x00\n        /* \"#utility.yul\":2736:2738   */\n      0x1f\n        /* \"#utility.yul\":2732:2739   */\n      not\n        /* \"#utility.yul\":2727:2729   */\n      0x1f\n        /* \"#utility.yul\":2720:2725   */\n      dup4\n        /* \"#utility.yul\":2716:2730   */\n      add\n        /* \"#utility.yul\":2712:2740   */\n      and\n        /* \"#utility.yul\":2702:2740   */\n      swap1\n      pop\n        /* \"#utility.yul\":2644:2746   */\n      swap2\n      swap1\n      pop\n      jump\t// out\n        /* \"#utility.yul\":2752:3129   */\n    tag_435:\n        /* \"#utility.yul\":2840:2843   */\n      0x00\n        /* \"#utility.yul\":2868:2907   */\n      tag_557\n        /* \"#utility.yul\":2901:2906   */\n      dup3\n        /* \"#utility.yul\":2868:2907   */\n      tag_431\n      jump\t// in\n    tag_557:\n        /* \"#utility.yul\":2923:2994   */\n      tag_558\n        /* \"#utility.yul\":2987:2993   */\n      dup2\n        /* \"#utility.yul\":2982:2985   */\n      dup6\n        /* \"#utility.yul\":2923:2994   */\n      tag_432\n      jump\t// in\n    tag_558:\n        /* \"#utility.yul\":2916:2994   */\n      swap4\n      pop\n        /* \"#utility.yul\":3003:3068   */\n      tag_559\n        /* \"#utility.yul\":3061:3067   */\n      dup2\n        /* \"#utility.yul\":3056:3059   */\n      dup6\n        /* \"#utility.yul\":3049:3053   */\n      0x20\n        /* \"#utility.yul\":3042:3047   */\n      dup7\n        /* \"#utility.yul\":3038:3054   */\n      add\n        /* \"#utility.yul\":3003:3068   */\n      tag_433\n      jump\t// in\n    tag_559:\n        /* \"#utility.yul\":3093:3122   */\n      tag_560\n        /* \"#utility.yul\":3115:3121   */\n      dup2\n        /* \"#utility.yul\":3093:3122   */\n      tag_434\n      jump\t// in\n    tag_560:\n        /* \"#utility.yul\":3088:3091   */\n      dup5\n        /* \"#utility.yul\":3084:3123   */\n      add\n        /* \"#utility.yul\":3077:3123   */\n      swap2\n      pop\n        /* \"#utility.yul\":2844:3129   */\n      pop\n        /* \"#utility.yul\":2752:3129   */\n      swap3\n      swap2\n      pop\n      pop\n      jump\t// out\n        /* \"#utility.yul\":3135:3448   */\n    tag_45:\n        /* \"#utility.yul\":3248:3252   */\n      0x00\n        /* \"#utility.yul\":3286:3288   */\n      0x20\n        /* \"#utility.yul\":3275:3284   */\n      dup3\n        /* \"#utility.yul\":3271:3289   */\n      add\n        /* \"#utility.yul\":3263:3289   */\n      swap1\n      pop\n        /* \"#utility.yul\":3335:3344   */\n      dup2\n        /* \"#utility.yul\":3329:3333   */\n      dup2\n        /* \"#utility.yul\":3325:3345   */\n      sub\n        /* \"#utility.yul\":3321:3322   */\n      0x00\n        /* \"#utility.yul\":3310:3319   */\n      dup4\n        /* \"#utility.yul\":3306:3323   */\n      add\n        /* \"#utility.yul\":3299:3346   */\n      mstore\n        /* \"#utility.yul\":3363:3441   */\n      tag_562\n        /* \"#utility.yul\":3436:3440   */\n      dup2\n        /* \"#utility.yul\":3427:3433   */\n      dup5\n        /* \"#utility.yul\":3363:3441   */\n      tag_435\n      jump\t// in\n    tag_562:\n        /* \"#utility.yul\":3355:3441   */\n      swap1\n      pop\n        /* \"#utility.yul\":3135:3448   */\n      swap3\n      swap2\n      pop\n      pop\n      jump\t// out\n        /* \"#utility.yul\":3454:3593   */\n    tag_436:\n        /* \"#utility.yul\":3546:3552   */\n      0x00\n        /* \"#utility.yul\":3580:3585   */\n      dup2\n        /* \"#utility.yul\":3574:3586   */\n      mload\n        /* \"#utility.yul\":3564:3586   */\n      swap1\n      pop\n        /* \"#utility.yul\":3454:3593   */\n      swap2\n      swap1\n      pop\n      jump\t// out\n        /* \"#utility.yul\":3599:3808   */\n    tag_437:\n        /* \"#utility.yul\":3723:3734   */\n      0x00\n        /* \"#utility.yul\":3757:3763   */\n      dup3\n        /* \"#utility.yul\":3752:3755   */\n      dup3\n        /* \"#utility.yul\":3745:3764   */\n      mstore\n        /* \"#utility.yul\":3797:3801   */\n      0x20\n        /* \"#utility.yul\":3792:3795   */\n      dup3\n        /* \"#utility.yul\":3788:3802   */\n      add\n        /* \"#utility.yul\":3773:3802   */\n      swap1\n      pop\n        /* \"#utility.yul\":3599:3808   */\n      swap3\n      swap2\n      pop\n      pop\n      jump\t// out\n        /* \"#utility.yul\":3814:3971   */\n    tag_438:\n        /* \"#utility.yul\":3906:3910   */\n      0x00\n        /* \"#utility.yul\":3929:3932   */\n      dup2\n        /* \"#utility.yul\":3921:3932   */\n      swap1\n      pop\n        /* \"#utility.yul\":3959:3963   */\n      0x20\n        /* \"#utility.yul\":3954:3957   */\n      dup3\n        /* \"#utility.yul\":3950:3964   */\n      add\n        /* \"#utility.yul\":3942:3964   */\n      swap1\n      pop\n        /* \"#utility.yul\":3814:3971   */\n      swap2\n      swap1\n      pop\n      jump\t// out\n        /* \"#utility.yul\":3977:4136   */\n    tag_439:\n        /* \"#utility.yul\":4051:4062   */\n      0x00\n        /* \"#utility.yul\":4085:4091   */\n      dup3\n        /* \"#utility.yul\":4080:4083   */\n      dup3\n        /* \"#utility.yul\":4073:4092   */\n      mstore\n        /* \"#utility.yul\":4125:4129   */\n      0x20\n        /* \"#utility.yul\":4120:4123   */\n      dup3\n        /* \"#utility.yul\":4116:4130   */\n      add\n        /* \"#utility.yul\":4101:4130   */\n      swap1\n      pop\n        /* \"#utility.yul\":3977:4136   */\n      swap3\n      swap2\n      pop\n      pop\n      jump\t// out\n        /* \"#utility.yul\":4142:4499   */\n    tag_440:\n        /* \"#utility.yul\":4220:4223   */\n      0x00\n        /* \"#utility.yul\":4248:4287   */\n      tag_568\n        /* \"#utility.yul\":4281:4286   */\n      dup3\n        /* \"#utility.yul\":4248:4287   */\n      tag_431\n      jump\t// in\n    tag_568:\n        /* \"#utility.yul\":4303:4364   */\n      tag_569\n        /* \"#utility.yul\":4357:4363   */\n      dup2\n        /* \"#utility.yul\":4352:4355   */\n      dup6\n        /* \"#utility.yul\":4303:4364   */\n      tag_439\n      jump\t// in\n    tag_569:\n        /* \"#utility.yul\":4296:4364   */\n      swap4\n      pop\n        /* \"#utility.yul\":4373:4438   */\n      tag_570\n        /* \"#utility.yul\":4431:4437   */\n      dup2\n        /* \"#utility.yul\":4426:4429   */\n      dup6\n        /* \"#utility.yul\":4419:4423   */\n      0x20\n        /* \"#utility.yul\":4412:4417   */\n      dup7\n        /* \"#utility.yul\":4408:4424   */\n      add\n        /* \"#utility.yul\":4373:4438   */\n      tag_433\n      jump\t// in\n    tag_570:\n        /* \"#utility.yul\":4463:4492   */\n      tag_571\n        /* \"#utility.yul\":4485:4491   */\n      dup2\n        /* \"#utility.yul\":4463:4492   */\n      tag_434\n      jump\t// in\n    tag_571:\n        /* \"#utility.yul\":4458:4461   */\n      dup5\n        /* \"#utility.yul\":4454:4493   */\n      add\n        /* \"#utility.yul\":4447:4493   */\n      swap2\n      pop\n        /* \"#utility.yul\":4224:4499   */\n      pop\n        /* \"#utility.yul\":4142:4499   */\n      swap3\n      swap2\n      pop\n      pop\n      jump\t// out\n        /* \"#utility.yul\":4505:4613   */\n    tag_441:\n        /* \"#utility.yul\":4582:4606   */\n      tag_573\n        /* \"#utility.yul\":4600:4605   */\n      dup2\n        /* \"#utility.yul\":4582:4606   */\n      tag_423\n      jump\t// in\n    tag_573:\n        /* \"#utility.yul\":4577:4580   */\n      dup3\n        /* \"#utility.yul\":4570:4607   */\n      mstore\n        /* \"#utility.yul\":4505:4613   */\n      pop\n      pop\n      jump\t// out\n        /* \"#utility.yul\":4675:5283   */\n    tag_442:\n        /* \"#utility.yul\":4784:4787   */\n      0x00\n        /* \"#utility.yul\":4820:4824   */\n      0x40\n        /* \"#utility.yul\":4815:4818   */\n      dup4\n        /* \"#utility.yul\":4811:4825   */\n      add\n        /* \"#utility.yul\":4914:4918   */\n      0x00\n        /* \"#utility.yul\":4907:4912   */\n      dup4\n        /* \"#utility.yul\":4903:4919   */\n      add\n        /* \"#utility.yul\":4897:4920   */\n      mload\n        /* \"#utility.yul\":4967:4970   */\n      dup5\n        /* \"#utility.yul\":4961:4965   */\n      dup3\n        /* \"#utility.yul\":4957:4971   */\n      sub\n        /* \"#utility.yul\":4950:4954   */\n      0x00\n        /* \"#utility.yul\":4945:4948   */\n      dup7\n        /* \"#utility.yul\":4941:4955   */\n      add\n        /* \"#utility.yul\":4934:4972   */\n      mstore\n        /* \"#utility.yul\":4993:5066   */\n      tag_575\n        /* \"#utility.yul\":5061:5065   */\n      dup3\n        /* \"#utility.yul\":5047:5059   */\n      dup3\n        /* \"#utility.yul\":4993:5066   */\n      tag_440\n      jump\t// in\n    tag_575:\n        /* \"#utility.yul\":4985:5066   */\n      swap2\n      pop\n        /* \"#utility.yul\":4835:5077   */\n      pop\n        /* \"#utility.yul\":5164:5168   */\n      0x20\n        /* \"#utility.yul\":5157:5162   */\n      dup4\n        /* \"#utility.yul\":5153:5169   */\n      add\n        /* \"#utility.yul\":5147:5170   */\n      mload\n        /* \"#utility.yul\":5183:5246   */\n      tag_576\n        /* \"#utility.yul\":5240:5244   */\n      0x20\n        /* \"#utility.yul\":5235:5238   */\n      dup7\n        /* \"#utility.yul\":5231:5245   */\n      add\n        /* \"#utility.yul\":5217:5229   */\n      dup3\n        /* \"#utility.yul\":5183:5246   */\n      tag_441\n      jump\t// in\n    tag_576:\n        /* \"#utility.yul\":5087:5256   */\n      pop\n        /* \"#utility.yul\":5273:5277   */\n      dup1\n        /* \"#utility.yul\":5266:5277   */\n      swap2\n      pop\n        /* \"#utility.yul\":4789:5283   */\n      pop\n        /* \"#utility.yul\":4675:5283   */\n      swap3\n      swap2\n      pop\n      pop\n      jump\t// out\n        /* \"#utility.yul\":5289:5545   */\n    tag_443:\n        /* \"#utility.yul\":5408:5418   */\n      0x00\n        /* \"#utility.yul\":5443:5539   */\n      tag_578\n        /* \"#utility.yul\":5535:5538   */\n      dup4\n        /* \"#utility.yul\":5527:5533   */\n      dup4\n        /* \"#utility.yul\":5443:5539   */\n      tag_442\n      jump\t// in\n    tag_578:\n        /* \"#utility.yul\":5429:5539   */\n      swap1\n      pop\n        /* \"#utility.yul\":5289:5545   */\n      swap3\n      swap2\n      pop\n      pop\n      jump\t// out\n        /* \"#utility.yul\":5551:5689   */\n    tag_444:\n        /* \"#utility.yul\":5646:5650   */\n      0x00\n        /* \"#utility.yul\":5678:5682   */\n      0x20\n        /* \"#utility.yul\":5673:5676   */\n      dup3\n        /* \"#utility.yul\":5669:5683   */\n      add\n        /* \"#utility.yul\":5661:5683   */\n      swap1\n      pop\n        /* \"#utility.yul\":5551:5689   */\n      swap2\n      swap1\n      pop\n      jump\t// out\n        /* \"#utility.yul\":5755:6866   */\n    tag_445:\n        /* \"#utility.yul\":5924:5927   */\n      0x00\n        /* \"#utility.yul\":5953:6032   */\n      tag_581\n        /* \"#utility.yul\":6026:6031   */\n      dup3\n        /* \"#utility.yul\":5953:6032   */\n      tag_436\n      jump\t// in\n    tag_581:\n        /* \"#utility.yul\":6048:6159   */\n      tag_582\n        /* \"#utility.yul\":6152:6158   */\n      dup2\n        /* \"#utility.yul\":6147:6150   */\n      dup6\n        /* \"#utility.yul\":6048:6159   */\n      tag_437\n      jump\t// in\n    tag_582:\n        /* \"#utility.yul\":6041:6159   */\n      swap4\n      pop\n        /* \"#utility.yul\":6185:6188   */\n      dup4\n        /* \"#utility.yul\":6230:6234   */\n      0x20\n        /* \"#utility.yul\":6222:6228   */\n      dup3\n        /* \"#utility.yul\":6218:6235   */\n      mul\n        /* \"#utility.yul\":6213:6216   */\n      dup6\n        /* \"#utility.yul\":6209:6236   */\n      add\n        /* \"#utility.yul\":6260:6341   */\n      tag_583\n        /* \"#utility.yul\":6335:6340   */\n      dup6\n        /* \"#utility.yul\":6260:6341   */\n      tag_438\n      jump\t// in\n    tag_583:\n        /* \"#utility.yul\":6364:6371   */\n      dup1\n        /* \"#utility.yul\":6395:6396   */\n      0x00\n        /* \"#utility.yul\":6380:6821   */\n    tag_584:\n        /* \"#utility.yul\":6405:6411   */\n      dup6\n        /* \"#utility.yul\":6402:6403   */\n      dup2\n        /* \"#utility.yul\":6399:6412   */\n      lt\n        /* \"#utility.yul\":6380:6821   */\n      iszero\n      tag_586\n      jumpi\n        /* \"#utility.yul\":6476:6485   */\n      dup5\n        /* \"#utility.yul\":6470:6474   */\n      dup5\n        /* \"#utility.yul\":6466:6486   */\n      sub\n        /* \"#utility.yul\":6461:6464   */\n      dup10\n        /* \"#utility.yul\":6454:6487   */\n      mstore\n        /* \"#utility.yul\":6527:6533   */\n      dup2\n        /* \"#utility.yul\":6521:6534   */\n      mload\n        /* \"#utility.yul\":6555:6669   */\n      tag_587\n        /* \"#utility.yul\":6664:6668   */\n      dup6\n        /* \"#utility.yul\":6649:6662   */\n      dup3\n        /* \"#utility.yul\":6555:6669   */\n      tag_443\n      jump\t// in\n    tag_587:\n        /* \"#utility.yul\":6547:6669   */\n      swap5\n      pop\n        /* \"#utility.yul\":6692:6777   */\n      tag_588\n        /* \"#utility.yul\":6770:6776   */\n      dup4\n        /* \"#utility.yul\":6692:6777   */\n      tag_444\n      jump\t// in\n    tag_588:\n        /* \"#utility.yul\":6682:6777   */\n      swap3\n      pop\n        /* \"#utility.yul\":6806:6810   */\n      0x20\n        /* \"#utility.yul\":6801:6804   */\n      dup11\n        /* \"#utility.yul\":6797:6811   */\n      add\n        /* \"#utility.yul\":6790:6811   */\n      swap10\n      pop\n        /* \"#utility.yul\":6440:6821   */\n      pop\n        /* \"#utility.yul\":6427:6428   */\n      0x01\n        /* \"#utility.yul\":6424:6425   */\n      dup2\n        /* \"#utility.yul\":6420:6429   */\n      add\n        /* \"#utility.yul\":6415:6429   */\n      swap1\n      pop\n        /* \"#utility.yul\":6380:6821   */\n      jump(tag_584)\n    tag_586:\n        /* \"#utility.yul\":6384:6398   */\n      pop\n        /* \"#utility.yul\":6837:6841   */\n      dup3\n        /* \"#utility.yul\":6830:6841   */\n      swap8\n      pop\n        /* \"#utility.yul\":6857:6860   */\n      dup8\n        /* \"#utility.yul\":6850:6860   */\n      swap6\n      pop\n        /* \"#utility.yul\":5929:6866   */\n      pop\n      pop\n      pop\n      pop\n      pop\n        /* \"#utility.yul\":5755:6866   */\n      swap3\n      swap2\n      pop\n      pop\n      jump\t// out\n        /* \"#utility.yul\":6872:7345   */\n    tag_54:\n        /* \"#utility.yul\":7065:7069   */\n      0x00\n        /* \"#utility.yul\":7103:7105   */\n      0x20\n        /* \"#utility.yul\":7092:7101   */\n      dup3\n        /* \"#utility.yul\":7088:7106   */\n      add\n        /* \"#utility.yul\":7080:7106   */\n      swap1\n      pop\n        /* \"#utility.yul\":7152:7161   */\n      dup2\n        /* \"#utility.yul\":7146:7150   */\n      dup2\n        /* \"#utility.yul\":7142:7162   */\n      sub\n        /* \"#utility.yul\":7138:7139   */\n      0x00\n        /* \"#utility.yul\":7127:7136   */\n      dup4\n        /* \"#utility.yul\":7123:7140   */\n      add\n        /* \"#utility.yul\":7116:7163   */\n      mstore\n        /* \"#utility.yul\":7180:7338   */\n      tag_590\n        /* \"#utility.yul\":7333:7337   */\n      dup2\n        /* \"#utility.yul\":7324:7330   */\n      dup5\n        /* \"#utility.yul\":7180:7338   */\n      tag_445\n      jump\t// in\n    tag_590:\n        /* \"#utility.yul\":7172:7338   */\n      swap1\n      pop\n        /* \"#utility.yul\":6872:7345   */\n      swap3\n      swap2\n      pop\n      pop\n      jump\t// out\n        /* \"#utility.yul\":7351:7531   */\n    tag_115:\n        /* \"#utility.yul\":7399:7476   */\n      0x4e487b7100000000000000000000000000000000000000000000000000000000\n        /* \"#utility.yul\":7396:7397   */\n      0x00\n        /* \"#utility.yul\":7389:7477   */\n      mstore\n        /* \"#utility.yul\":7496:7500   */\n      0x21\n        /* \"#utility.yul\":7493:7494   */\n      0x04\n        /* \"#utility.yul\":7486:7501   */\n      mstore\n        /* \"#utility.yul\":7520:7524   */\n      0x24\n        /* \"#utility.yul\":7517:7518   */\n      0x00\n        /* \"#utility.yul\":7510:7525   */\n      revert\n        /* \"#utility.yul\":7537:7660   */\n    tag_446:\n        /* \"#utility.yul\":7628:7629   */\n      0x06\n        /* \"#utility.yul\":7621:7626   */\n      dup2\n        /* \"#utility.yul\":7618:7630   */\n      lt\n        /* \"#utility.yul\":7608:7654   */\n      tag_593\n      jumpi\n        /* \"#utility.yul\":7634:7652   */\n      tag_594\n      tag_115\n      jump\t// in\n    tag_594:\n        /* \"#utility.yul\":7608:7654   */\n    tag_593:\n        /* \"#utility.yul\":7537:7660   */\n      pop\n      jump\t// out\n        /* \"#utility.yul\":7666:7813   */\n    tag_447:\n        /* \"#utility.yul\":7721:7728   */\n      0x00\n        /* \"#utility.yul\":7750:7755   */\n      dup2\n        /* \"#utility.yul\":7739:7755   */\n      swap1\n      pop\n        /* \"#utility.yul\":7756:7807   */\n      tag_596\n        /* \"#utility.yul\":7801:7806   */\n      dup3\n        /* \"#utility.yul\":7756:7807   */\n      tag_446\n      jump\t// in\n    tag_596:\n        /* \"#utility.yul\":7666:7813   */\n      swap2\n      swap1\n      pop\n      jump\t// out\n        /* \"#utility.yul\":7819:7966   */\n    tag_448:\n        /* \"#utility.yul\":7885:7894   */\n      0x00\n        /* \"#utility.yul\":7918:7960   */\n      tag_598\n        /* \"#utility.yul\":7954:7959   */\n      dup3\n        /* \"#utility.yul\":7918:7960   */\n      tag_447\n      jump\t// in\n    tag_598:\n        /* \"#utility.yul\":7905:7960   */\n      swap1\n      pop\n        /* \"#utility.yul\":7819:7966   */\n      swap2\n      swap1\n      pop\n      jump\t// out\n        /* \"#utility.yul\":7972:8135   */\n    tag_449:\n        /* \"#utility.yul\":8075:8128   */\n      tag_600\n        /* \"#utility.yul\":8122:8127   */\n      dup2\n        /* \"#utility.yul\":8075:8128   */\n      tag_448\n      jump\t// in\n    tag_600:\n        /* \"#utility.yul\":8070:8073   */\n      dup3\n        /* \"#utility.yul\":8063:8129   */\n      mstore\n        /* \"#utility.yul\":7972:8135   */\n      pop\n      pop\n      jump\t// out\n        /* \"#utility.yul\":8141:8395   */\n    tag_58:\n        /* \"#utility.yul\":8250:8254   */\n      0x00\n        /* \"#utility.yul\":8288:8290   */\n      0x20\n        /* \"#utility.yul\":8277:8286   */\n      dup3\n        /* \"#utility.yul\":8273:8291   */\n      add\n        /* \"#utility.yul\":8265:8291   */\n      swap1\n      pop\n        /* \"#utility.yul\":8301:8388   */\n      tag_602\n        /* \"#utility.yul\":8385:8386   */\n      0x00\n        /* \"#utility.yul\":8374:8383   */\n      dup4\n        /* \"#utility.yul\":8370:8387   */\n      add\n        /* \"#utility.yul\":8361:8367   */\n      dup5\n        /* \"#utility.yul\":8301:8388   */\n      tag_449\n      jump\t// in\n    tag_602:\n        /* \"#utility.yul\":8141:8395   */\n      swap3\n      swap2\n      pop\n      pop\n      jump\t// out\n        /* \"#utility.yul\":8457:9075   */\n    tag_450:\n        /* \"#utility.yul\":8576:8579   */\n      0x00\n        /* \"#utility.yul\":8612:8616   */\n      0x40\n        /* \"#utility.yul\":8607:8610   */\n      dup4\n        /* \"#utility.yul\":8603:8617   */\n      add\n        /* \"#utility.yul\":8706:8710   */\n      0x00\n        /* \"#utility.yul\":8699:8704   */\n      dup4\n        /* \"#utility.yul\":8695:8711   */\n      add\n        /* \"#utility.yul\":8689:8712   */\n      mload\n        /* \"#utility.yul\":8759:8762   */\n      dup5\n        /* \"#utility.yul\":8753:8757   */\n      dup3\n        /* \"#utility.yul\":8749:8763   */\n      sub\n        /* \"#utility.yul\":8742:8746   */\n      0x00\n        /* \"#utility.yul\":8737:8740   */\n      dup7\n        /* \"#utility.yul\":8733:8747   */\n      add\n        /* \"#utility.yul\":8726:8764   */\n      mstore\n        /* \"#utility.yul\":8785:8858   */\n      tag_604\n        /* \"#utility.yul\":8853:8857   */\n      dup3\n        /* \"#utility.yul\":8839:8851   */\n      dup3\n        /* \"#utility.yul\":8785:8858   */\n      tag_440\n      jump\t// in\n    tag_604:\n        /* \"#utility.yul\":8777:8858   */\n      swap2\n      pop\n        /* \"#utility.yul\":8627:8869   */\n      pop\n        /* \"#utility.yul\":8956:8960   */\n      0x20\n        /* \"#utility.yul\":8949:8954   */\n      dup4\n        /* \"#utility.yul\":8945:8961   */\n      add\n        /* \"#utility.yul\":8939:8962   */\n      mload\n        /* \"#utility.yul\":8975:9038   */\n      tag_605\n        /* \"#utility.yul\":9032:9036   */\n      0x20\n        /* \"#utility.yul\":9027:9030   */\n      dup7\n        /* \"#utility.yul\":9023:9037   */\n      add\n        /* \"#utility.yul\":9009:9021   */\n      dup3\n        /* \"#utility.yul\":8975:9038   */\n      tag_441\n      jump\t// in\n    tag_605:\n        /* \"#utility.yul\":8879:9048   */\n      pop\n        /* \"#utility.yul\":9065:9069   */\n      dup1\n        /* \"#utility.yul\":9058:9069   */\n      swap2\n      pop\n        /* \"#utility.yul\":8581:9075   */\n      pop\n        /* \"#utility.yul\":8457:9075   */\n      swap3\n      swap2\n      pop\n      pop\n      jump\t// out\n        /* \"#utility.yul\":9081:9454   */\n    tag_65:\n        /* \"#utility.yul\":9224:9228   */\n      0x00\n        /* \"#utility.yul\":9262:9264   */\n      0x20\n        /* \"#utility.yul\":9251:9260   */\n      dup3\n        /* \"#utility.yul\":9247:9265   */\n      add\n        /* \"#utility.yul\":9239:9265   */\n      swap1\n      pop\n        /* \"#utility.yul\":9311:9320   */\n      dup2\n        /* \"#utility.yul\":9305:9309   */\n      dup2\n        /* \"#utility.yul\":9301:9321   */\n      sub\n        /* \"#utility.yul\":9297:9298   */\n      0x00\n        /* \"#utility.yul\":9286:9295   */\n      dup4\n        /* \"#utility.yul\":9282:9299   */\n      add\n        /* \"#utility.yul\":9275:9322   */\n      mstore\n        /* \"#utility.yul\":9339:9447   */\n      tag_607\n        /* \"#utility.yul\":9442:9446   */\n      dup2\n        /* \"#utility.yul\":9433:9439   */\n      dup5\n        /* \"#utility.yul\":9339:9447   */\n      tag_450\n      jump\t// in\n    tag_607:\n        /* \"#utility.yul\":9331:9447   */\n      swap1\n      pop\n        /* \"#utility.yul\":9081:9454   */\n      swap3\n      swap2\n      pop\n      pop\n      jump\t// out\n        /* \"#utility.yul\":9460:9578   */\n    tag_451:\n        /* \"#utility.yul\":9547:9571   */\n      tag_609\n        /* \"#utility.yul\":9565:9570   */\n      dup2\n        /* \"#utility.yul\":9547:9571   */\n      tag_428\n      jump\t// in\n    tag_609:\n        /* \"#utility.yul\":9542:9545   */\n      dup3\n        /* \"#utility.yul\":9535:9572   */\n      mstore\n        /* \"#utility.yul\":9460:9578   */\n      pop\n      pop\n      jump\t// out\n        /* \"#utility.yul\":9584:9806   */\n    tag_69:\n        /* \"#utility.yul\":9677:9681   */\n      0x00\n        /* \"#utility.yul\":9715:9717   */\n      0x20\n        /* \"#utility.yul\":9704:9713   */\n      dup3\n        /* \"#utility.yul\":9700:9718   */\n      add\n        /* \"#utility.yul\":9692:9718   */\n      swap1\n      pop\n        /* \"#utility.yul\":9728:9799   */\n      tag_611\n        /* \"#utility.yul\":9796:9797   */\n      0x00\n        /* \"#utility.yul\":9785:9794   */\n      dup4\n        /* \"#utility.yul\":9781:9798   */\n      add\n        /* \"#utility.yul\":9772:9778   */\n      dup5\n        /* \"#utility.yul\":9728:9799   */\n      tag_451\n      jump\t// in\n    tag_611:\n        /* \"#utility.yul\":9584:9806   */\n      swap3\n      swap2\n      pop\n      pop\n      jump\t// out\n        /* \"#utility.yul\":9812:9929   */\n    tag_452:\n        /* \"#utility.yul\":9921:9922   */\n      0x00\n        /* \"#utility.yul\":9918:9919   */\n      0x00\n        /* \"#utility.yul\":9911:9923   */\n      revert\n        /* \"#utility.yul\":9935:10052   */\n    tag_453:\n        /* \"#utility.yul\":10044:10045   */\n      0x00\n        /* \"#utility.yul\":10041:10042   */\n      0x00\n        /* \"#utility.yul\":10034:10046   */\n      revert\n        /* \"#utility.yul\":10058:10238   */\n    tag_454:\n        /* \"#utility.yul\":10106:10183   */\n      0x4e487b7100000000000000000000000000000000000000000000000000000000\n        /* \"#utility.yul\":10103:10104   */\n      0x00\n        /* \"#utility.yul\":10096:10184   */\n      mstore\n        /* \"#utility.yul\":10203:10207   */\n      0x41\n        /* \"#utility.yul\":10200:10201   */\n      0x04\n        /* \"#utility.yul\":10193:10208   */\n      mstore\n        /* \"#utility.yul\":10227:10231   */\n      0x24\n        /* \"#utility.yul\":10224:10225   */\n      0x00\n        /* \"#utility.yul\":10217:10232   */\n      revert\n        /* \"#utility.yul\":10244:10525   */\n    tag_455:\n        /* \"#utility.yul\":10327:10354   */\n      tag_616\n        /* \"#utility.yul\":10349:10353   */\n      dup3\n        /* \"#utility.yul\":10327:10354   */\n      tag_434\n      jump\t// in\n    tag_616:\n        /* \"#utility.yul\":10319:10325   */\n      dup2\n        /* \"#utility.yul\":10315:10355   */\n      add\n        /* \"#utility.yul\":10457:10463   */\n      dup2\n        /* \"#utility.yul\":10445:10455   */\n      dup2\n        /* \"#utility.yul\":10442:10464   */\n      lt\n        /* \"#utility.yul\":10421:10439   */\n      0xffffffffffffffff\n        /* \"#utility.yul\":10409:10419   */\n      dup3\n        /* \"#utility.yul\":10406:10440   */\n      gt\n        /* \"#utility.yul\":10403:10465   */\n      or\n        /* \"#utility.yul\":10400:10488   */\n      iszero\n      tag_617\n      jumpi\n        /* \"#utility.yul\":10468:10486   */\n      tag_618\n      tag_454\n      jump\t// in\n    tag_618:\n        /* \"#utility.yul\":10400:10488   */\n    tag_617:\n        /* \"#utility.yul\":10508:10518   */\n      dup1\n        /* \"#utility.yul\":10504:10506   */\n      0x40\n        /* \"#utility.yul\":10497:10519   */\n      mstore\n        /* \"#utility.yul\":10287:10525   */\n      pop\n        /* \"#utility.yul\":10244:10525   */\n      pop\n      pop\n      jump\t// out\n        /* \"#utility.yul\":10531:10660   */\n    tag_456:\n        /* \"#utility.yul\":10565:10571   */\n      0x00\n        /* \"#utility.yul\":10592:10612   */\n      tag_620\n      tag_420\n      jump\t// in\n    tag_620:\n        /* \"#utility.yul\":10582:10612   */\n      swap1\n      pop\n        /* \"#utility.yul\":10621:10654   */\n      tag_621\n        /* \"#utility.yul\":10649:10653   */\n      dup3\n        /* \"#utility.yul\":10641:10647   */\n      dup3\n        /* \"#utility.yul\":10621:10654   */\n      tag_455\n      jump\t// in\n    tag_621:\n        /* \"#utility.yul\":10531:10660   */\n      swap2\n      swap1\n      pop\n      jump\t// out\n        /* \"#utility.yul\":10666:10974   */\n    tag_457:\n        /* \"#utility.yul\":10728:10732   */\n      0x00\n        /* \"#utility.yul\":10818:10836   */\n      0xffffffffffffffff\n        /* \"#utility.yul\":10810:10816   */\n      dup3\n        /* \"#utility.yul\":10807:10837   */\n      gt\n        /* \"#utility.yul\":10804:10860   */\n      iszero\n      tag_623\n      jumpi\n        /* \"#utility.yul\":10840:10858   */\n      tag_624\n      tag_454\n      jump\t// in\n    tag_624:\n        /* \"#utility.yul\":10804:10860   */\n    tag_623:\n        /* \"#utility.yul\":10878:10907   */\n      tag_625\n        /* \"#utility.yul\":10900:10906   */\n      dup3\n        /* \"#utility.yul\":10878:10907   */\n      tag_434\n      jump\t// in\n    tag_625:\n        /* \"#utility.yul\":10870:10907   */\n      swap1\n      pop\n        /* \"#utility.yul\":10962:10966   */\n      0x20\n        /* \"#utility.yul\":10956:10960   */\n      dup2\n        /* \"#utility.yul\":10952:10967   */\n      add\n        /* \"#utility.yul\":10944:10967   */\n      swap1\n      pop\n        /* \"#utility.yul\":10666:10974   */\n      swap2\n      swap1\n      pop\n      jump\t// out\n        /* \"#utility.yul\":10980:11128   */\n    tag_458:\n        /* \"#utility.yul\":11078:11084   */\n      dup3\n        /* \"#utility.yul\":11073:11076   */\n      dup2\n        /* \"#utility.yul\":11068:11071   */\n      dup4\n        /* \"#utility.yul\":11055:11085   */\n      calldatacopy\n        /* \"#utility.yul\":11119:11120   */\n      0x00\n        /* \"#utility.yul\":11110:11116   */\n      dup4\n        /* \"#utility.yul\":11105:11108   */\n      dup4\n        /* \"#utility.yul\":11101:11117   */\n      add\n        /* \"#utility.yul\":11094:11121   */\n      mstore\n        /* \"#utility.yul\":10980:11128   */\n      pop\n      pop\n      pop\n      jump\t// out\n        /* \"#utility.yul\":11134:11559   */\n    tag_459:\n        /* \"#utility.yul\":11212:11217   */\n      0x00\n        /* \"#utility.yul\":11237:11303   */\n      tag_628\n        /* \"#utility.yul\":11253:11302   */\n      tag_629\n        /* \"#utility.yul\":11295:11301   */\n      dup5\n        /* \"#utility.yul\":11253:11302   */\n      tag_457\n      jump\t// in\n    tag_629:\n        /* \"#utility.yul\":11237:11303   */\n      tag_456\n      jump\t// in\n    tag_628:\n        /* \"#utility.yul\":11228:11303   */\n      swap1\n      pop\n        /* \"#utility.yul\":11326:11332   */\n      dup3\n        /* \"#utility.yul\":11319:11324   */\n      dup2\n        /* \"#utility.yul\":11312:11333   */\n      mstore\n        /* \"#utility.yul\":11364:11368   */\n      0x20\n        /* \"#utility.yul\":11357:11362   */\n      dup2\n        /* \"#utility.yul\":11353:11369   */\n      add\n        /* \"#utility.yul\":11402:11405   */\n      dup5\n        /* \"#utility.yul\":11393:11399   */\n      dup5\n        /* \"#utility.yul\":11388:11391   */\n      dup5\n        /* \"#utility.yul\":11384:11400   */\n      add\n        /* \"#utility.yul\":11381:11406   */\n      gt\n        /* \"#utility.yul\":11378:11490   */\n      iszero\n      tag_630\n      jumpi\n        /* \"#utility.yul\":11409:11488   */\n      tag_631\n      tag_453\n      jump\t// in\n    tag_631:\n        /* \"#utility.yul\":11378:11490   */\n    tag_630:\n        /* \"#utility.yul\":11499:11553   */\n      tag_632\n        /* \"#utility.yul\":11546:11552   */\n      dup5\n        /* \"#utility.yul\":11541:11544   */\n      dup3\n        /* \"#utility.yul\":11536:11539   */\n      dup6\n        /* \"#utility.yul\":11499:11553   */\n      tag_458\n      jump\t// in\n    tag_632:\n        /* \"#utility.yul\":11218:11559   */\n      pop\n        /* \"#utility.yul\":11134:11559   */\n      swap4\n      swap3\n      pop\n      pop\n      pop\n      jump\t// out\n        /* \"#utility.yul\":11579:11919   */\n    tag_460:\n        /* \"#utility.yul\":11635:11640   */\n      0x00\n        /* \"#utility.yul\":11684:11687   */\n      dup3\n        /* \"#utility.yul\":11677:11681   */\n      0x1f\n        /* \"#utility.yul\":11669:11675   */\n      dup4\n        /* \"#utility.yul\":11665:11682   */\n      add\n        /* \"#utility.yul\":11661:11688   */\n      slt\n        /* \"#utility.yul\":11651:11773   */\n      tag_634\n      jumpi\n        /* \"#utility.yul\":11692:11771   */\n      tag_635\n      tag_452\n      jump\t// in\n    tag_635:\n        /* \"#utility.yul\":11651:11773   */\n    tag_634:\n        /* \"#utility.yul\":11809:11815   */\n      dup2\n        /* \"#utility.yul\":11796:11816   */\n      calldataload\n        /* \"#utility.yul\":11834:11913   */\n      tag_636\n        /* \"#utility.yul\":11909:11912   */\n      dup5\n        /* \"#utility.yul\":11901:11907   */\n      dup3\n        /* \"#utility.yul\":11894:11898   */\n      0x20\n        /* \"#utility.yul\":11886:11892   */\n      dup7\n        /* \"#utility.yul\":11882:11899   */\n      add\n        /* \"#utility.yul\":11834:11913   */\n      tag_459\n      jump\t// in\n    tag_636:\n        /* \"#utility.yul\":11825:11913   */\n      swap2\n      pop\n        /* \"#utility.yul\":11641:11919   */\n      pop\n        /* \"#utility.yul\":11579:11919   */\n      swap3\n      swap2\n      pop\n      pop\n      jump\t// out\n        /* \"#utility.yul\":11925:12434   */\n    tag_84:\n        /* \"#utility.yul\":11994:12000   */\n      0x00\n        /* \"#utility.yul\":12043:12045   */\n      0x20\n        /* \"#utility.yul\":12031:12040   */\n      dup3\n        /* \"#utility.yul\":12022:12029   */\n      dup5\n        /* \"#utility.yul\":12018:12041   */\n      sub\n        /* \"#utility.yul\":12014:12046   */\n      slt\n        /* \"#utility.yul\":12011:12130   */\n      iszero\n      tag_638\n      jumpi\n        /* \"#utility.yul\":12049:12128   */\n      tag_639\n      tag_421\n      jump\t// in\n    tag_639:\n        /* \"#utility.yul\":12011:12130   */\n    tag_638:\n        /* \"#utility.yul\":12197:12198   */\n      0x00\n        /* \"#utility.yul\":12186:12195   */\n      dup3\n        /* \"#utility.yul\":12182:12199   */\n      add\n        /* \"#utility.yul\":12169:12200   */\n      calldataload\n        /* \"#utility.yul\":12227:12245   */\n      0xffffffffffffffff\n        /* \"#utility.yul\":12219:12225   */\n      dup2\n        /* \"#utility.yul\":12216:12246   */\n      gt\n        /* \"#utility.yul\":12213:12330   */\n      iszero\n      tag_640\n      jumpi\n        /* \"#utility.yul\":12249:12328   */\n      tag_641\n      tag_422\n      jump\t// in\n    tag_641:\n        /* \"#utility.yul\":12213:12330   */\n    tag_640:\n        /* \"#utility.yul\":12354:12417   */\n      tag_642\n        /* \"#utility.yul\":12409:12416   */\n      dup5\n        /* \"#utility.yul\":12400:12406   */\n      dup3\n        /* \"#utility.yul\":12389:12398   */\n      dup6\n        /* \"#utility.yul\":12385:12407   */\n      add\n        /* \"#utility.yul\":12354:12417   */\n      tag_460\n      jump\t// in\n    tag_642:\n        /* \"#utility.yul\":12344:12417   */\n      swap2\n      pop\n        /* \"#utility.yul\":12140:12427   */\n      pop\n        /* \"#utility.yul\":11925:12434   */\n      swap3\n      swap2\n      pop\n      pop\n      jump\t// out\n        /* \"#utility.yul\":12440:12675   */\n    tag_461:\n        /* \"#utility.yul\":12580:12614   */\n      0x596f752063616e206f6e6c7920766f7465206966207468657265206973206d6f\n        /* \"#utility.yul\":12576:12577   */\n      0x00\n        /* \"#utility.yul\":12568:12574   */\n      dup3\n        /* \"#utility.yul\":12564:12578   */\n      add\n        /* \"#utility.yul\":12557:12615   */\n      mstore\n        /* \"#utility.yul\":12649:12667   */\n      0x7265207468616e20312077696e6e657200000000000000000000000000000000\n        /* \"#utility.yul\":12644:12646   */\n      0x20\n        /* \"#utility.yul\":12636:12642   */\n      dup3\n        /* \"#utility.yul\":12632:12647   */\n      add\n        /* \"#utility.yul\":12625:12668   */\n      mstore\n        /* \"#utility.yul\":12440:12675   */\n      pop\n      jump\t// out\n        /* \"#utility.yul\":12681:13047   */\n    tag_462:\n        /* \"#utility.yul\":12823:12826   */\n      0x00\n        /* \"#utility.yul\":12844:12911   */\n      tag_645\n        /* \"#utility.yul\":12908:12910   */\n      0x30\n        /* \"#utility.yul\":12903:12906   */\n      dup4\n        /* \"#utility.yul\":12844:12911   */\n      tag_432\n      jump\t// in\n    tag_645:\n        /* \"#utility.yul\":12837:12911   */\n      swap2\n      pop\n        /* \"#utility.yul\":12920:13013   */\n      tag_646\n        /* \"#utility.yul\":13009:13012   */\n      dup3\n        /* \"#utility.yul\":12920:13013   */\n      tag_461\n      jump\t// in\n    tag_646:\n        /* \"#utility.yul\":13038:13040   */\n      0x40\n        /* \"#utility.yul\":13033:13036   */\n      dup3\n        /* \"#utility.yul\":13029:13041   */\n      add\n        /* \"#utility.yul\":13022:13041   */\n      swap1\n      pop\n        /* \"#utility.yul\":12681:13047   */\n      swap2\n      swap1\n      pop\n      jump\t// out\n        /* \"#utility.yul\":13053:13472   */\n    tag_111:\n        /* \"#utility.yul\":13219:13223   */\n      0x00\n        /* \"#utility.yul\":13257:13259   */\n      0x20\n        /* \"#utility.yul\":13246:13255   */\n      dup3\n        /* \"#utility.yul\":13242:13260   */\n      add\n        /* \"#utility.yul\":13234:13260   */\n      swap1\n      pop\n        /* \"#utility.yul\":13306:13315   */\n      dup2\n        /* \"#utility.yul\":13300:13304   */\n      dup2\n        /* \"#utility.yul\":13296:13316   */\n      sub\n        /* \"#utility.yul\":13292:13293   */\n      0x00\n        /* \"#utility.yul\":13281:13290   */\n      dup4\n        /* \"#utility.yul\":13277:13294   */\n      add\n        /* \"#utility.yul\":13270:13317   */\n      mstore\n        /* \"#utility.yul\":13334:13465   */\n      tag_648\n        /* \"#utility.yul\":13460:13464   */\n      dup2\n        /* \"#utility.yul\":13334:13465   */\n      tag_462\n      jump\t// in\n    tag_648:\n        /* \"#utility.yul\":13326:13465   */\n      swap1\n      pop\n        /* \"#utility.yul\":13053:13472   */\n      swap2\n      swap1\n      pop\n      jump\t// out\n        /* \"#utility.yul\":13478:13698   */\n    tag_463:\n        /* \"#utility.yul\":13618:13652   */\n      0x54686520766f74696e672073657373696f6e206973206e6f7420737461727465\n        /* \"#utility.yul\":13614:13615   */\n      0x00\n        /* \"#utility.yul\":13606:13612   */\n      dup3\n        /* \"#utility.yul\":13602:13616   */\n      add\n        /* \"#utility.yul\":13595:13653   */\n      mstore\n        /* \"#utility.yul\":13687:13690   */\n      0x6400000000000000000000000000000000000000000000000000000000000000\n        /* \"#utility.yul\":13682:13684   */\n      0x20\n        /* \"#utility.yul\":13674:13680   */\n      dup3\n        /* \"#utility.yul\":13670:13685   */\n      add\n        /* \"#utility.yul\":13663:13691   */\n      mstore\n        /* \"#utility.yul\":13478:13698   */\n      pop\n      jump\t// out\n        /* \"#utility.yul\":13704:14070   */\n    tag_464:\n        /* \"#utility.yul\":13846:13849   */\n      0x00\n        /* \"#utility.yul\":13867:13934   */\n      tag_651\n        /* \"#utility.yul\":13931:13933   */\n      0x21\n        /* \"#utility.yul\":13926:13929   */\n      dup4\n        /* \"#utility.yul\":13867:13934   */\n      tag_432\n      jump\t// in\n    tag_651:\n        /* \"#utility.yul\":13860:13934   */\n      swap2\n      pop\n        /* \"#utility.yul\":13943:14036   */\n      tag_652\n        /* \"#utility.yul\":14032:14035   */\n      dup3\n        /* \"#utility.yul\":13943:14036   */\n      tag_463\n      jump\t// in\n    tag_652:\n        /* \"#utility.yul\":14061:14063   */\n      0x40\n        /* \"#utility.yul\":14056:14059   */\n      dup3\n        /* \"#utility.yul\":14052:14064   */\n      add\n        /* \"#utility.yul\":14045:14064   */\n      swap1\n      pop\n        /* \"#utility.yul\":13704:14070   */\n      swap2\n      swap1\n      pop\n      jump\t// out\n        /* \"#utility.yul\":14076:14495   */\n    tag_120:\n        /* \"#utility.yul\":14242:14246   */\n      0x00\n        /* \"#utility.yul\":14280:14282   */\n      0x20\n        /* \"#utility.yul\":14269:14278   */\n      dup3\n        /* \"#utility.yul\":14265:14283   */\n      add\n        /* \"#utility.yul\":14257:14283   */\n      swap1\n      pop\n        /* \"#utility.yul\":14329:14338   */\n      dup2\n        /* \"#utility.yul\":14323:14327   */\n      dup2\n        /* \"#utility.yul\":14319:14339   */\n      sub\n        /* \"#utility.yul\":14315:14316   */\n      0x00\n        /* \"#utility.yul\":14304:14313   */\n      dup4\n        /* \"#utility.yul\":14300:14317   */\n      add\n        /* \"#utility.yul\":14293:14340   */\n      mstore\n        /* \"#utility.yul\":14357:14488   */\n      tag_654\n        /* \"#utility.yul\":14483:14487   */\n      dup2\n        /* \"#utility.yul\":14357:14488   */\n      tag_464\n      jump\t// in\n    tag_654:\n        /* \"#utility.yul\":14349:14488   */\n      swap1\n      pop\n        /* \"#utility.yul\":14076:14495   */\n      swap2\n      swap1\n      pop\n      jump\t// out\n        /* \"#utility.yul\":14501:14673   */\n    tag_465:\n        /* \"#utility.yul\":14641:14665   */\n      0x596f7520617265206e6f74207265676973746572656400000000000000000000\n        /* \"#utility.yul\":14637:14638   */\n      0x00\n        /* \"#utility.yul\":14629:14635   */\n      dup3\n        /* \"#utility.yul\":14625:14639   */\n      add\n        /* \"#utility.yul\":14618:14666   */\n      mstore\n        /* \"#utility.yul\":14501:14673   */\n      pop\n      jump\t// out\n        /* \"#utility.yul\":14679:15045   */\n    tag_466:\n        /* \"#utility.yul\":14821:14824   */\n      0x00\n        /* \"#utility.yul\":14842:14909   */\n      tag_657\n        /* \"#utility.yul\":14906:14908   */\n      0x16\n        /* \"#utility.yul\":14901:14904   */\n      dup4\n        /* \"#utility.yul\":14842:14909   */\n      tag_432\n      jump\t// in\n    tag_657:\n        /* \"#utility.yul\":14835:14909   */\n      swap2\n      pop\n        /* \"#utility.yul\":14918:15011   */\n      tag_658\n        /* \"#utility.yul\":15007:15010   */\n      dup3\n        /* \"#utility.yul\":14918:15011   */\n      tag_465\n      jump\t// in\n    tag_658:\n        /* \"#utility.yul\":15036:15038   */\n      0x20\n        /* \"#utility.yul\":15031:15034   */\n      dup3\n        /* \"#utility.yul\":15027:15039   */\n      add\n        /* \"#utility.yul\":15020:15039   */\n      swap1\n      pop\n        /* \"#utility.yul\":14679:15045   */\n      swap2\n      swap1\n      pop\n      jump\t// out\n        /* \"#utility.yul\":15051:15470   */\n    tag_123:\n        /* \"#utility.yul\":15217:15221   */\n      0x00\n        /* \"#utility.yul\":15255:15257   */\n      0x20\n        /* \"#utility.yul\":15244:15253   */\n      dup3\n        /* \"#utility.yul\":15240:15258   */\n      add\n        /* \"#utility.yul\":15232:15258   */\n      swap1\n      pop\n        /* \"#utility.yul\":15304:15313   */\n      dup2\n        /* \"#utility.yul\":15298:15302   */\n      dup2\n        /* \"#utility.yul\":15294:15314   */\n      sub\n        /* \"#utility.yul\":15290:15291   */\n      0x00\n        /* \"#utility.yul\":15279:15288   */\n      dup4\n        /* \"#utility.yul\":15275:15292   */\n      add\n        /* \"#utility.yul\":15268:15315   */\n      mstore\n        /* \"#utility.yul\":15332:15463   */\n      tag_660\n        /* \"#utility.yul\":15458:15462   */\n      dup2\n        /* \"#utility.yul\":15332:15463   */\n      tag_466\n      jump\t// in\n    tag_660:\n        /* \"#utility.yul\":15324:15463   */\n      swap1\n      pop\n        /* \"#utility.yul\":15051:15470   */\n      swap2\n      swap1\n      pop\n      jump\t// out\n        /* \"#utility.yul\":15476:15643   */\n    tag_467:\n        /* \"#utility.yul\":15616:15635   */\n      0x596f7520616c726561647920766f746564000000000000000000000000000000\n        /* \"#utility.yul\":15612:15613   */\n      0x00\n        /* \"#utility.yul\":15604:15610   */\n      dup3\n        /* \"#utility.yul\":15600:15614   */\n      add\n        /* \"#utility.yul\":15593:15636   */\n      mstore\n        /* \"#utility.yul\":15476:15643   */\n      pop\n      jump\t// out\n        /* \"#utility.yul\":15649:16015   */\n    tag_468:\n        /* \"#utility.yul\":15791:15794   */\n      0x00\n        /* \"#utility.yul\":15812:15879   */\n      tag_663\n        /* \"#utility.yul\":15876:15878   */\n      0x11\n        /* \"#utility.yul\":15871:15874   */\n      dup4\n        /* \"#utility.yul\":15812:15879   */\n      tag_432\n      jump\t// in\n    tag_663:\n        /* \"#utility.yul\":15805:15879   */\n      swap2\n      pop\n        /* \"#utility.yul\":15888:15981   */\n      tag_664\n        /* \"#utility.yul\":15977:15980   */\n      dup3\n        /* \"#utility.yul\":15888:15981   */\n      tag_467\n      jump\t// in\n    tag_664:\n        /* \"#utility.yul\":16006:16008   */\n      0x20\n        /* \"#utility.yul\":16001:16004   */\n      dup3\n        /* \"#utility.yul\":15997:16009   */\n      add\n        /* \"#utility.yul\":15990:16009   */\n      swap1\n      pop\n        /* \"#utility.yul\":15649:16015   */\n      swap2\n      swap1\n      pop\n      jump\t// out\n        /* \"#utility.yul\":16021:16440   */\n    tag_126:\n        /* \"#utility.yul\":16187:16191   */\n      0x00\n        /* \"#utility.yul\":16225:16227   */\n      0x20\n        /* \"#utility.yul\":16214:16223   */\n      dup3\n        /* \"#utility.yul\":16210:16228   */\n      add\n        /* \"#utility.yul\":16202:16228   */\n      swap1\n      pop\n        /* \"#utility.yul\":16274:16283   */\n      dup2\n        /* \"#utility.yul\":16268:16272   */\n      dup2\n        /* \"#utility.yul\":16264:16284   */\n      sub\n        /* \"#utility.yul\":16260:16261   */\n      0x00\n        /* \"#utility.yul\":16249:16258   */\n      dup4\n        /* \"#utility.yul\":16245:16262   */\n      add\n        /* \"#utility.yul\":16238:16285   */\n      mstore\n        /* \"#utility.yul\":16302:16433   */\n      tag_666\n        /* \"#utility.yul\":16428:16432   */\n      dup2\n        /* \"#utility.yul\":16302:16433   */\n      tag_468\n      jump\t// in\n    tag_666:\n        /* \"#utility.yul\":16294:16433   */\n      swap1\n      pop\n        /* \"#utility.yul\":16021:16440   */\n      swap2\n      swap1\n      pop\n      jump\t// out\n        /* \"#utility.yul\":16446:16628   */\n    tag_469:\n        /* \"#utility.yul\":16586:16620   */\n      0x546869732070726f706f73616c20494420646f6573206e6f7420657869737473\n        /* \"#utility.yul\":16582:16583   */\n      0x00\n        /* \"#utility.yul\":16574:16580   */\n      dup3\n        /* \"#utility.yul\":16570:16584   */\n      add\n        /* \"#utility.yul\":16563:16621   */\n      mstore\n        /* \"#utility.yul\":16446:16628   */\n      pop\n      jump\t// out\n        /* \"#utility.yul\":16634:17000   */\n    tag_470:\n        /* \"#utility.yul\":16776:16779   */\n      0x00\n        /* \"#utility.yul\":16797:16864   */\n      tag_669\n        /* \"#utility.yul\":16861:16863   */\n      0x20\n        /* \"#utility.yul\":16856:16859   */\n      dup4\n        /* \"#utility.yul\":16797:16864   */\n      tag_432\n      jump\t// in\n    tag_669:\n        /* \"#utility.yul\":16790:16864   */\n      swap2\n      pop\n        /* \"#utility.yul\":16873:16966   */\n      tag_670\n        /* \"#utility.yul\":16962:16965   */\n      dup3\n        /* \"#utility.yul\":16873:16966   */\n      tag_469\n      jump\t// in\n    tag_670:\n        /* \"#utility.yul\":16991:16993   */\n      0x20\n        /* \"#utility.yul\":16986:16989   */\n      dup3\n        /* \"#utility.yul\":16982:16994   */\n      add\n        /* \"#utility.yul\":16975:16994   */\n      swap1\n      pop\n        /* \"#utility.yul\":16634:17000   */\n      swap2\n      swap1\n      pop\n      jump\t// out\n        /* \"#utility.yul\":17006:17425   */\n    tag_130:\n        /* \"#utility.yul\":17172:17176   */\n      0x00\n        /* \"#utility.yul\":17210:17212   */\n      0x20\n        /* \"#utility.yul\":17199:17208   */\n      dup3\n        /* \"#utility.yul\":17195:17213   */\n      add\n        /* \"#utility.yul\":17187:17213   */\n      swap1\n      pop\n        /* \"#utility.yul\":17259:17268   */\n      dup2\n        /* \"#utility.yul\":17253:17257   */\n      dup2\n        /* \"#utility.yul\":17249:17269   */\n      sub\n        /* \"#utility.yul\":17245:17246   */\n      0x00\n        /* \"#utility.yul\":17234:17243   */\n      dup4\n        /* \"#utility.yul\":17230:17247   */\n      add\n        /* \"#utility.yul\":17223:17270   */\n      mstore\n        /* \"#utility.yul\":17287:17418   */\n      tag_672\n        /* \"#utility.yul\":17413:17417   */\n      dup2\n        /* \"#utility.yul\":17287:17418   */\n      tag_470\n      jump\t// in\n    tag_672:\n        /* \"#utility.yul\":17279:17418   */\n      swap1\n      pop\n        /* \"#utility.yul\":17006:17425   */\n      swap2\n      swap1\n      pop\n      jump\t// out\n        /* \"#utility.yul\":17431:17611   */\n    tag_133:\n        /* \"#utility.yul\":17479:17556   */\n      0x4e487b7100000000000000000000000000000000000000000000000000000000\n        /* \"#utility.yul\":17476:17477   */\n      0x00\n        /* \"#utility.yul\":17469:17557   */\n      mstore\n        /* \"#utility.yul\":17576:17580   */\n      0x32\n        /* \"#utility.yul\":17573:17574   */\n      0x04\n        /* \"#utility.yul\":17566:17581   */\n      mstore\n        /* \"#utility.yul\":17600:17604   */\n      0x24\n        /* \"#utility.yul\":17597:17598   */\n      0x00\n        /* \"#utility.yul\":17590:17605   */\n      revert\n        /* \"#utility.yul\":17617:17797   */\n    tag_471:\n        /* \"#utility.yul\":17665:17742   */\n      0x4e487b7100000000000000000000000000000000000000000000000000000000\n        /* \"#utility.yul\":17662:17663   */\n      0x00\n        /* \"#utility.yul\":17655:17743   */\n      mstore\n        /* \"#utility.yul\":17762:17766   */\n      0x11\n        /* \"#utility.yul\":17759:17760   */\n      0x04\n        /* \"#utility.yul\":17752:17767   */\n      mstore\n        /* \"#utility.yul\":17786:17790   */\n      0x24\n        /* \"#utility.yul\":17783:17784   */\n      0x00\n        /* \"#utility.yul\":17776:17791   */\n      revert\n        /* \"#utility.yul\":17803:18036   */\n    tag_136:\n        /* \"#utility.yul\":17842:17845   */\n      0x00\n        /* \"#utility.yul\":17865:17889   */\n      tag_676\n        /* \"#utility.yul\":17883:17888   */\n      dup3\n        /* \"#utility.yul\":17865:17889   */\n      tag_423\n      jump\t// in\n    tag_676:\n        /* \"#utility.yul\":17856:17889   */\n      swap2\n      pop\n        /* \"#utility.yul\":17911:17977   */\n      0xffffffffffffffffffffffffffffffffffffffffffffffffffffffffffffffff\n        /* \"#utility.yul\":17904:17909   */\n      dup3\n        /* \"#utility.yul\":17901:17978   */\n      sub\n        /* \"#utility.yul\":17898:18001   */\n      tag_677\n      jumpi\n        /* \"#utility.yul\":17981:17999   */\n      tag_678\n      tag_471\n      jump\t// in\n    tag_678:\n        /* \"#utility.yul\":17898:18001   */\n    tag_677:\n        /* \"#utility.yul\":18028:18029   */\n      0x01\n        /* \"#utility.yul\":18021:18026   */\n      dup3\n        /* \"#utility.yul\":18017:18030   */\n      add\n        /* \"#utility.yul\":18010:18030   */\n      swap1\n      pop\n        /* \"#utility.yul\":17803:18036   */\n      swap2\n      swap1\n      pop\n      jump\t// out\n        /* \"#utility.yul\":18042:18374   */\n    tag_139:\n        /* \"#utility.yul\":18163:18167   */\n      0x00\n        /* \"#utility.yul\":18201:18203   */\n      0x40\n        /* \"#utility.yul\":18190:18199   */\n      dup3\n        /* \"#utility.yul\":18186:18204   */\n      add\n        /* \"#utility.yul\":18178:18204   */\n      swap1\n      pop\n        /* \"#utility.yul\":18214:18285   */\n      tag_680\n        /* \"#utility.yul\":18282:18283   */\n      0x00\n        /* \"#utility.yul\":18271:18280   */\n      dup4\n        /* \"#utility.yul\":18267:18284   */\n      add\n        /* \"#utility.yul\":18258:18264   */\n      dup6\n        /* \"#utility.yul\":18214:18285   */\n      tag_451\n      jump\t// in\n    tag_680:\n        /* \"#utility.yul\":18295:18367   */\n      tag_681\n        /* \"#utility.yul\":18363:18365   */\n      0x20\n        /* \"#utility.yul\":18352:18361   */\n      dup4\n        /* \"#utility.yul\":18348:18366   */\n      add\n        /* \"#utility.yul\":18339:18345   */\n      dup5\n        /* \"#utility.yul\":18295:18367   */\n      tag_426\n      jump\t// in\n    tag_681:\n        /* \"#utility.yul\":18042:18374   */\n      swap4\n      swap3\n      pop\n      pop\n      pop\n      jump\t// out\n        /* \"#utility.yul\":18380:18607   */\n    tag_472:\n        /* \"#utility.yul\":18520:18554   */\n      0x596f7520617265206e6f7420696e20766f74657220726567697374726174696f\n        /* \"#utility.yul\":18516:18517   */\n      0x00\n        /* \"#utility.yul\":18508:18514   */\n      dup3\n        /* \"#utility.yul\":18504:18518   */\n      add\n        /* \"#utility.yul\":18497:18555   */\n      mstore\n        /* \"#utility.yul\":18589:18599   */\n      0x6e20706572696f64000000000000000000000000000000000000000000000000\n        /* \"#utility.yul\":18584:18586   */\n      0x20\n        /* \"#utility.yul\":18576:18582   */\n      dup3\n        /* \"#utility.yul\":18572:18587   */\n      add\n        /* \"#utility.yul\":18565:18600   */\n      mstore\n        /* \"#utility.yul\":18380:18607   */\n      pop\n      jump\t// out\n        /* \"#utility.yul\":18613:18979   */\n    tag_473:\n        /* \"#utility.yul\":18755:18758   */\n      0x00\n        /* \"#utility.yul\":18776:18843   */\n      tag_684\n        /* \"#utility.yul\":18840:18842   */\n      0x28\n        /* \"#utility.yul\":18835:18838   */\n      dup4\n        /* \"#utility.yul\":18776:18843   */\n      tag_432\n      jump\t// in\n    tag_684:\n        /* \"#utility.yul\":18769:18843   */\n      swap2\n      pop\n        /* \"#utility.yul\":18852:18945   */\n      tag_685\n        /* \"#utility.yul\":18941:18944   */\n      dup3\n        /* \"#utility.yul\":18852:18945   */\n      tag_472\n      jump\t// in\n    tag_685:\n        /* \"#utility.yul\":18970:18972   */\n      0x40\n        /* \"#utility.yul\":18965:18968   */\n      dup3\n        /* \"#utility.yul\":18961:18973   */\n      add\n        /* \"#utility.yul\":18954:18973   */\n      swap1\n      pop\n        /* \"#utility.yul\":18613:18979   */\n      swap2\n      swap1\n      pop\n      jump\t// out\n        /* \"#utility.yul\":18985:19404   */\n    tag_151:\n        /* \"#utility.yul\":19151:19155   */\n      0x00\n        /* \"#utility.yul\":19189:19191   */\n      0x20\n        /* \"#utility.yul\":19178:19187   */\n      dup3\n        /* \"#utility.yul\":19174:19192   */\n      add\n        /* \"#utility.yul\":19166:19192   */\n      swap1\n      pop\n        /* \"#utility.yul\":19238:19247   */\n      dup2\n        /* \"#utility.yul\":19232:19236   */\n      dup2\n        /* \"#utility.yul\":19228:19248   */\n      sub\n        /* \"#utility.yul\":19224:19225   */\n      0x00\n        /* \"#utility.yul\":19213:19222   */\n      dup4\n        /* \"#utility.yul\":19209:19226   */\n      add\n        /* \"#utility.yul\":19202:19249   */\n      mstore\n        /* \"#utility.yul\":19266:19397   */\n      tag_687\n        /* \"#utility.yul\":19392:19396   */\n      dup2\n        /* \"#utility.yul\":19266:19397   */\n      tag_473\n      jump\t// in\n    tag_687:\n        /* \"#utility.yul\":19258:19397   */\n      swap1\n      pop\n        /* \"#utility.yul\":18985:19404   */\n      swap2\n      swap1\n      pop\n      jump\t// out\n        /* \"#utility.yul\":19410:19592   */\n    tag_474:\n        /* \"#utility.yul\":19550:19584   */\n      0x596f7520616c7265616479206861766520616464207468697320616472657373\n        /* \"#utility.yul\":19546:19547   */\n      0x00\n        /* \"#utility.yul\":19538:19544   */\n      dup3\n        /* \"#utility.yul\":19534:19548   */\n      add\n        /* \"#utility.yul\":19527:19585   */\n      mstore\n        /* \"#utility.yul\":19410:19592   */\n      pop\n      jump\t// out\n        /* \"#utility.yul\":19598:19964   */\n    tag_475:\n        /* \"#utility.yul\":19740:19743   */\n      0x00\n        /* \"#utility.yul\":19761:19828   */\n      tag_690\n        /* \"#utility.yul\":19825:19827   */\n      0x20\n        /* \"#utility.yul\":19820:19823   */\n      dup4\n        /* \"#utility.yul\":19761:19828   */\n      tag_432\n      jump\t// in\n    tag_690:\n        /* \"#utility.yul\":19754:19828   */\n      swap2\n      pop\n        /* \"#utility.yul\":19837:19930   */\n      tag_691\n        /* \"#utility.yul\":19926:19929   */\n      dup3\n        /* \"#utility.yul\":19837:19930   */\n      tag_474\n      jump\t// in\n    tag_691:\n        /* \"#utility.yul\":19955:19957   */\n      0x20\n        /* \"#utility.yul\":19950:19953   */\n      dup3\n        /* \"#utility.yul\":19946:19958   */\n      add\n        /* \"#utility.yul\":19939:19958   */\n      swap1\n      pop\n        /* \"#utility.yul\":19598:19964   */\n      swap2\n      swap1\n      pop\n      jump\t// out\n        /* \"#utility.yul\":19970:20389   */\n    tag_154:\n        /* \"#utility.yul\":20136:20140   */\n      0x00\n        /* \"#utility.yul\":20174:20176   */\n      0x20\n        /* \"#utility.yul\":20163:20172   */\n      dup3\n        /* \"#utility.yul\":20159:20177   */\n      add\n        /* \"#utility.yul\":20151:20177   */\n      swap1\n      pop\n        /* \"#utility.yul\":20223:20232   */\n      dup2\n        /* \"#utility.yul\":20217:20221   */\n      dup2\n        /* \"#utility.yul\":20213:20233   */\n      sub\n        /* \"#utility.yul\":20209:20210   */\n      0x00\n        /* \"#utility.yul\":20198:20207   */\n      dup4\n        /* \"#utility.yul\":20194:20211   */\n      add\n        /* \"#utility.yul\":20187:20234   */\n      mstore\n        /* \"#utility.yul\":20251:20382   */\n      tag_693\n        /* \"#utility.yul\":20377:20381   */\n      dup2\n        /* \"#utility.yul\":20251:20382   */\n      tag_475\n      jump\t// in\n    tag_693:\n        /* \"#utility.yul\":20243:20382   */\n      swap1\n      pop\n        /* \"#utility.yul\":19970:20389   */\n      swap2\n      swap1\n      pop\n      jump\t// out\n        /* \"#utility.yul\":20395:20618   */\n    tag_476:\n        /* \"#utility.yul\":20535:20569   */\n      0x5468652077696e6e65722068617665206e6f74206265656e2063686f6f73656e\n        /* \"#utility.yul\":20531:20532   */\n      0x00\n        /* \"#utility.yul\":20523:20529   */\n      dup3\n        /* \"#utility.yul\":20519:20533   */\n      add\n        /* \"#utility.yul\":20512:20570   */\n      mstore\n        /* \"#utility.yul\":20604:20610   */\n      0x2079657400000000000000000000000000000000000000000000000000000000\n        /* \"#utility.yul\":20599:20601   */\n      0x20\n        /* \"#utility.yul\":20591:20597   */\n      dup3\n        /* \"#utility.yul\":20587:20602   */\n      add\n        /* \"#utility.yul\":20580:20611   */\n      mstore\n        /* \"#utility.yul\":20395:20618   */\n      pop\n      jump\t// out\n        /* \"#utility.yul\":20624:20990   */\n    tag_477:\n        /* \"#utility.yul\":20766:20769   */\n      0x00\n        /* \"#utility.yul\":20787:20854   */\n      tag_696\n        /* \"#utility.yul\":20851:20853   */\n      0x24\n        /* \"#utility.yul\":20846:20849   */\n      dup4\n        /* \"#utility.yul\":20787:20854   */\n      tag_432\n      jump\t// in\n    tag_696:\n        /* \"#utility.yul\":20780:20854   */\n      swap2\n      pop\n        /* \"#utility.yul\":20863:20956   */\n      tag_697\n        /* \"#utility.yul\":20952:20955   */\n      dup3\n        /* \"#utility.yul\":20863:20956   */\n      tag_476\n      jump\t// in\n    tag_697:\n        /* \"#utility.yul\":20981:20983   */\n      0x40\n        /* \"#utility.yul\":20976:20979   */\n      dup3\n        /* \"#utility.yul\":20972:20984   */\n      add\n        /* \"#utility.yul\":20965:20984   */\n      swap1\n      pop\n        /* \"#utility.yul\":20624:20990   */\n      swap2\n      swap1\n      pop\n      jump\t// out\n        /* \"#utility.yul\":20996:21415   */\n    tag_164:\n        /* \"#utility.yul\":21162:21166   */\n      0x00\n        /* \"#utility.yul\":21200:21202   */\n      0x20\n        /* \"#utility.yul\":21189:21198   */\n      dup3\n        /* \"#utility.yul\":21185:21203   */\n      add\n        /* \"#utility.yul\":21177:21203   */\n      swap1\n      pop\n        /* \"#utility.yul\":21249:21258   */\n      dup2\n        /* \"#utility.yul\":21243:21247   */\n      dup2\n        /* \"#utility.yul\":21239:21259   */\n      sub\n        /* \"#utility.yul\":21235:21236   */\n      0x00\n        /* \"#utility.yul\":21224:21233   */\n      dup4\n        /* \"#utility.yul\":21220:21237   */\n      add\n        /* \"#utility.yul\":21213:21260   */\n      mstore\n        /* \"#utility.yul\":21277:21408   */\n      tag_699\n        /* \"#utility.yul\":21403:21407   */\n      dup2\n        /* \"#utility.yul\":21277:21408   */\n      tag_477\n      jump\t// in\n    tag_699:\n        /* \"#utility.yul\":21269:21408   */\n      swap1\n      pop\n        /* \"#utility.yul\":20996:21415   */\n      swap2\n      swap1\n      pop\n      jump\t// out\n        /* \"#utility.yul\":21421:21601   */\n    tag_478:\n        /* \"#utility.yul\":21469:21546   */\n      0x4e487b7100000000000000000000000000000000000000000000000000000000\n        /* \"#utility.yul\":21466:21467   */\n      0x00\n        /* \"#utility.yul\":21459:21547   */\n      mstore\n        /* \"#utility.yul\":21566:21570   */\n      0x22\n        /* \"#utility.yul\":21563:21564   */\n      0x04\n        /* \"#utility.yul\":21556:21571   */\n      mstore\n        /* \"#utility.yul\":21590:21594   */\n      0x24\n        /* \"#utility.yul\":21587:21588   */\n      0x00\n        /* \"#utility.yul\":21580:21595   */\n      revert\n        /* \"#utility.yul\":21607:21927   */\n    tag_169:\n        /* \"#utility.yul\":21651:21657   */\n      0x00\n        /* \"#utility.yul\":21688:21689   */\n      0x02\n        /* \"#utility.yul\":21682:21686   */\n      dup3\n        /* \"#utility.yul\":21678:21690   */\n      div\n        /* \"#utility.yul\":21668:21690   */\n      swap1\n      pop\n        /* \"#utility.yul\":21735:21736   */\n      0x01\n        /* \"#utility.yul\":21729:21733   */\n      dup3\n        /* \"#utility.yul\":21725:21737   */\n      and\n        /* \"#utility.yul\":21756:21774   */\n      dup1\n        /* \"#utility.yul\":21746:21827   */\n      tag_702\n      jumpi\n        /* \"#utility.yul\":21812:21816   */\n      0x7f\n        /* \"#utility.yul\":21804:21810   */\n      dup3\n        /* \"#utility.yul\":21800:21817   */\n      and\n        /* \"#utility.yul\":21790:21817   */\n      swap2\n      pop\n        /* \"#utility.yul\":21746:21827   */\n    tag_702:\n        /* \"#utility.yul\":21874:21876   */\n      0x20\n        /* \"#utility.yul\":21866:21872   */\n      dup3\n        /* \"#utility.yul\":21863:21877   */\n      lt\n        /* \"#utility.yul\":21843:21861   */\n      dup2\n        /* \"#utility.yul\":21840:21878   */\n      sub\n        /* \"#utility.yul\":21837:21921   */\n      tag_703\n      jumpi\n        /* \"#utility.yul\":21893:21911   */\n      tag_704\n      tag_478\n      jump\t// in\n    tag_704:\n        /* \"#utility.yul\":21837:21921   */\n    tag_703:\n        /* \"#utility.yul\":21658:21927   */\n      pop\n        /* \"#utility.yul\":21607:21927   */\n      swap2\n      swap1\n      pop\n      jump\t// out\n        /* \"#utility.yul\":21933:22164   */\n    tag_479:\n        /* \"#utility.yul\":22073:22107   */\n      0x596f752063616e206e6f7420737461727420616761696e207468652070726f70\n        /* \"#utility.yul\":22069:22070   */\n      0x00\n        /* \"#utility.yul\":22061:22067   */\n      dup3\n        /* \"#utility.yul\":22057:22071   */\n      add\n        /* \"#utility.yul\":22050:22108   */\n      mstore\n        /* \"#utility.yul\":22142:22156   */\n      0x6f73616c2073657373696f6e0000000000000000000000000000000000000000\n        /* \"#utility.yul\":22137:22139   */\n      0x20\n        /* \"#utility.yul\":22129:22135   */\n      dup3\n        /* \"#utility.yul\":22125:22140   */\n      add\n        /* \"#utility.yul\":22118:22157   */\n      mstore\n        /* \"#utility.yul\":21933:22164   */\n      pop\n      jump\t// out\n        /* \"#utility.yul\":22170:22536   */\n    tag_480:\n        /* \"#utility.yul\":22312:22315   */\n      0x00\n        /* \"#utility.yul\":22333:22400   */\n      tag_707\n        /* \"#utility.yul\":22397:22399   */\n      0x2c\n        /* \"#utility.yul\":22392:22395   */\n      dup4\n        /* \"#utility.yul\":22333:22400   */\n      tag_432\n      jump\t// in\n    tag_707:\n        /* \"#utility.yul\":22326:22400   */\n      swap2\n      pop\n        /* \"#utility.yul\":22409:22502   */\n      tag_708\n        /* \"#utility.yul\":22498:22501   */\n      dup3\n        /* \"#utility.yul\":22409:22502   */\n      tag_479\n      jump\t// in\n    tag_708:\n        /* \"#utility.yul\":22527:22529   */\n      0x40\n        /* \"#utility.yul\":22522:22525   */\n      dup3\n        /* \"#utility.yul\":22518:22530   */\n      add\n        /* \"#utility.yul\":22511:22530   */\n      swap1\n      pop\n        /* \"#utility.yul\":22170:22536   */\n      swap2\n      swap1\n      pop\n      jump\t// out\n        /* \"#utility.yul\":22542:22961   */\n    tag_183:\n        /* \"#utility.yul\":22708:22712   */\n      0x00\n        /* \"#utility.yul\":22746:22748   */\n      0x20\n        /* \"#utility.yul\":22735:22744   */\n      dup3\n        /* \"#utility.yul\":22731:22749   */\n      add\n        /* \"#utility.yul\":22723:22749   */\n      swap1\n      pop\n        /* \"#utility.yul\":22795:22804   */\n      dup2\n        /* \"#utility.yul\":22789:22793   */\n      dup2\n        /* \"#utility.yul\":22785:22805   */\n      sub\n        /* \"#utility.yul\":22781:22782   */\n      0x00\n        /* \"#utility.yul\":22770:22779   */\n      dup4\n        /* \"#utility.yul\":22766:22783   */\n      add\n        /* \"#utility.yul\":22759:22806   */\n      mstore\n        /* \"#utility.yul\":22823:22954   */\n      tag_710\n        /* \"#utility.yul\":22949:22953   */\n      dup2\n        /* \"#utility.yul\":22823:22954   */\n      tag_480\n      jump\t// in\n    tag_710:\n        /* \"#utility.yul\":22815:22954   */\n      swap1\n      pop\n        /* \"#utility.yul\":22542:22961   */\n      swap2\n      swap1\n      pop\n      jump\t// out\n        /* \"#utility.yul\":22967:23192   */\n    tag_481:\n        /* \"#utility.yul\":23107:23141   */\n      0x596f75206d757374207265676973746572206174206c65617374203220616464\n        /* \"#utility.yul\":23103:23104   */\n      0x00\n        /* \"#utility.yul\":23095:23101   */\n      dup3\n        /* \"#utility.yul\":23091:23105   */\n      add\n        /* \"#utility.yul\":23084:23142   */\n      mstore\n        /* \"#utility.yul\":23176:23184   */\n      0x7265737365730000000000000000000000000000000000000000000000000000\n        /* \"#utility.yul\":23171:23173   */\n      0x20\n        /* \"#utility.yul\":23163:23169   */\n      dup3\n        /* \"#utility.yul\":23159:23174   */\n      add\n        /* \"#utility.yul\":23152:23185   */\n      mstore\n        /* \"#utility.yul\":22967:23192   */\n      pop\n      jump\t// out\n        /* \"#utility.yul\":23198:23564   */\n    tag_482:\n        /* \"#utility.yul\":23340:23343   */\n      0x00\n        /* \"#utility.yul\":23361:23428   */\n      tag_713\n        /* \"#utility.yul\":23425:23427   */\n      0x26\n        /* \"#utility.yul\":23420:23423   */\n      dup4\n        /* \"#utility.yul\":23361:23428   */\n      tag_432\n      jump\t// in\n    tag_713:\n        /* \"#utility.yul\":23354:23428   */\n      swap2\n      pop\n        /* \"#utility.yul\":23437:23530   */\n      tag_714\n        /* \"#utility.yul\":23526:23529   */\n      dup3\n        /* \"#utility.yul\":23437:23530   */\n      tag_481\n      jump\t// in\n    tag_714:\n        /* \"#utility.yul\":23555:23557   */\n      0x40\n        /* \"#utility.yul\":23550:23553   */\n      dup3\n        /* \"#utility.yul\":23546:23558   */\n      add\n        /* \"#utility.yul\":23539:23558   */\n      swap1\n      pop\n        /* \"#utility.yul\":23198:23564   */\n      swap2\n      swap1\n      pop\n      jump\t// out\n        /* \"#utility.yul\":23570:23989   */\n    tag_186:\n        /* \"#utility.yul\":23736:23740   */\n      0x00\n        /* \"#utility.yul\":23774:23776   */\n      0x20\n        /* \"#utility.yul\":23763:23772   */\n      dup3\n        /* \"#utility.yul\":23759:23777   */\n      add\n        /* \"#utility.yul\":23751:23777   */\n      swap1\n      pop\n        /* \"#utility.yul\":23823:23832   */\n      dup2\n        /* \"#utility.yul\":23817:23821   */\n      dup2\n        /* \"#utility.yul\":23813:23833   */\n      sub\n        /* \"#utility.yul\":23809:23810   */\n      0x00\n        /* \"#utility.yul\":23798:23807   */\n      dup4\n        /* \"#utility.yul\":23794:23811   */\n      add\n        /* \"#utility.yul\":23787:23834   */\n      mstore\n        /* \"#utility.yul\":23851:23982   */\n      tag_716\n        /* \"#utility.yul\":23977:23981   */\n      dup2\n        /* \"#utility.yul\":23851:23982   */\n      tag_482\n      jump\t// in\n    tag_716:\n        /* \"#utility.yul\":23843:23982   */\n      swap1\n      pop\n        /* \"#utility.yul\":23570:23989   */\n      swap2\n      swap1\n      pop\n      jump\t// out\n        /* \"#utility.yul\":23995:24189   */\n    tag_192:\n        /* \"#utility.yul\":24035:24039   */\n      0x00\n        /* \"#utility.yul\":24055:24075   */\n      tag_718\n        /* \"#utility.yul\":24073:24074   */\n      dup3\n        /* \"#utility.yul\":24055:24075   */\n      tag_423\n      jump\t// in\n    tag_718:\n        /* \"#utility.yul\":24050:24075   */\n      swap2\n      pop\n        /* \"#utility.yul\":24089:24109   */\n      tag_719\n        /* \"#utility.yul\":24107:24108   */\n      dup4\n        /* \"#utility.yul\":24089:24109   */\n      tag_423\n      jump\t// in\n    tag_719:\n        /* \"#utility.yul\":24084:24109   */\n      swap3\n      pop\n        /* \"#utility.yul\":24133:24134   */\n      dup3\n        /* \"#utility.yul\":24130:24131   */\n      dup3\n        /* \"#utility.yul\":24126:24135   */\n      sub\n        /* \"#utility.yul\":24118:24135   */\n      swap1\n      pop\n        /* \"#utility.yul\":24157:24158   */\n      dup2\n        /* \"#utility.yul\":24151:24155   */\n      dup2\n        /* \"#utility.yul\":24148:24159   */\n      gt\n        /* \"#utility.yul\":24145:24182   */\n      iszero\n      tag_720\n      jumpi\n        /* \"#utility.yul\":24162:24180   */\n      tag_721\n      tag_471\n      jump\t// in\n    tag_721:\n        /* \"#utility.yul\":24145:24182   */\n    tag_720:\n        /* \"#utility.yul\":23995:24189   */\n      swap3\n      swap2\n      pop\n      pop\n      jump\t// out\n        /* \"#utility.yul\":24195:24591   */\n    tag_196:\n        /* \"#utility.yul\":24348:24352   */\n      0x00\n        /* \"#utility.yul\":24386:24388   */\n      0x40\n        /* \"#utility.yul\":24375:24384   */\n      dup3\n        /* \"#utility.yul\":24371:24389   */\n      add\n        /* \"#utility.yul\":24363:24389   */\n      swap1\n      pop\n        /* \"#utility.yul\":24399:24486   */\n      tag_723\n        /* \"#utility.yul\":24483:24484   */\n      0x00\n        /* \"#utility.yul\":24472:24481   */\n      dup4\n        /* \"#utility.yul\":24468:24485   */\n      add\n        /* \"#utility.yul\":24459:24465   */\n      dup6\n        /* \"#utility.yul\":24399:24486   */\n      tag_449\n      jump\t// in\n    tag_723:\n        /* \"#utility.yul\":24496:24584   */\n      tag_724\n        /* \"#utility.yul\":24580:24582   */\n      0x20\n        /* \"#utility.yul\":24569:24578   */\n      dup4\n        /* \"#utility.yul\":24565:24583   */\n      add\n        /* \"#utility.yul\":24556:24562   */\n      dup5\n        /* \"#utility.yul\":24496:24584   */\n      tag_449\n      jump\t// in\n    tag_724:\n        /* \"#utility.yul\":24195:24591   */\n      swap4\n      swap3\n      pop\n      pop\n      pop\n      jump\t// out\n        /* \"#utility.yul\":24597:24777   */\n    tag_483:\n        /* \"#utility.yul\":24737:24769   */\n      0x546869732061646472657373206973206e6f7420726567697374657265640000\n        /* \"#utility.yul\":24733:24734   */\n      0x00\n        /* \"#utility.yul\":24725:24731   */\n      dup3\n        /* \"#utility.yul\":24721:24735   */\n      add\n        /* \"#utility.yul\":24714:24770   */\n      mstore\n        /* \"#utility.yul\":24597:24777   */\n      pop\n      jump\t// out\n        /* \"#utility.yul\":24783:25149   */\n    tag_484:\n        /* \"#utility.yul\":24925:24928   */\n      0x00\n        /* \"#utility.yul\":24946:25013   */\n      tag_727\n        /* \"#utility.yul\":25010:25012   */\n      0x1e\n        /* \"#utility.yul\":25005:25008   */\n      dup4\n        /* \"#utility.yul\":24946:25013   */\n      tag_432\n      jump\t// in\n    tag_727:\n        /* \"#utility.yul\":24939:25013   */\n      swap2\n      pop\n        /* \"#utility.yul\":25022:25115   */\n      tag_728\n        /* \"#utility.yul\":25111:25114   */\n      dup3\n        /* \"#utility.yul\":25022:25115   */\n      tag_483\n      jump\t// in\n    tag_728:\n        /* \"#utility.yul\":25140:25142   */\n      0x20\n        /* \"#utility.yul\":25135:25138   */\n      dup3\n        /* \"#utility.yul\":25131:25143   */\n      add\n        /* \"#utility.yul\":25124:25143   */\n      swap1\n      pop\n        /* \"#utility.yul\":24783:25149   */\n      swap2\n      swap1\n      pop\n      jump\t// out\n        /* \"#utility.yul\":25155:25574   */\n    tag_229:\n        /* \"#utility.yul\":25321:25325   */\n      0x00\n        /* \"#utility.yul\":25359:25361   */\n      0x20\n        /* \"#utility.yul\":25348:25357   */\n      dup3\n        /* \"#utility.yul\":25344:25362   */\n      add\n        /* \"#utility.yul\":25336:25362   */\n      swap1\n      pop\n        /* \"#utility.yul\":25408:25417   */\n      dup2\n        /* \"#utility.yul\":25402:25406   */\n      dup2\n        /* \"#utility.yul\":25398:25418   */\n      sub\n        /* \"#utility.yul\":25394:25395   */\n      0x00\n        /* \"#utility.yul\":25383:25392   */\n      dup4\n        /* \"#utility.yul\":25379:25396   */\n      add\n        /* \"#utility.yul\":25372:25419   */\n      mstore\n        /* \"#utility.yul\":25436:25567   */\n      tag_730\n        /* \"#utility.yul\":25562:25566   */\n      dup2\n        /* \"#utility.yul\":25436:25567   */\n      tag_484\n      jump\t// in\n    tag_730:\n        /* \"#utility.yul\":25428:25567   */\n      swap1\n      pop\n        /* \"#utility.yul\":25155:25574   */\n      swap2\n      swap1\n      pop\n      jump\t// out\n        /* \"#utility.yul\":25580:25756   */\n    tag_485:\n        /* \"#utility.yul\":25720:25748   */\n      0x54686973206164647265737320686173206e6f7420766f746564000000000000\n        /* \"#utility.yul\":25716:25717   */\n      0x00\n        /* \"#utility.yul\":25708:25714   */\n      dup3\n        /* \"#utility.yul\":25704:25718   */\n      add\n        /* \"#utility.yul\":25697:25749   */\n      mstore\n        /* \"#utility.yul\":25580:25756   */\n      pop\n      jump\t// out\n        /* \"#utility.yul\":25762:26128   */\n    tag_486:\n        /* \"#utility.yul\":25904:25907   */\n      0x00\n        /* \"#utility.yul\":25925:25992   */\n      tag_733\n        /* \"#utility.yul\":25989:25991   */\n      0x1a\n        /* \"#utility.yul\":25984:25987   */\n      dup4\n        /* \"#utility.yul\":25925:25992   */\n      tag_432\n      jump\t// in\n    tag_733:\n        /* \"#utility.yul\":25918:25992   */\n      swap2\n      pop\n        /* \"#utility.yul\":26001:26094   */\n      tag_734\n        /* \"#utility.yul\":26090:26093   */\n      dup3\n        /* \"#utility.yul\":26001:26094   */\n      tag_485\n      jump\t// in\n    tag_734:\n        /* \"#utility.yul\":26119:26121   */\n      0x20\n        /* \"#utility.yul\":26114:26117   */\n      dup3\n        /* \"#utility.yul\":26110:26122   */\n      add\n        /* \"#utility.yul\":26103:26122   */\n      swap1\n      pop\n        /* \"#utility.yul\":25762:26128   */\n      swap2\n      swap1\n      pop\n      jump\t// out\n        /* \"#utility.yul\":26134:26553   */\n    tag_232:\n        /* \"#utility.yul\":26300:26304   */\n      0x00\n        /* \"#utility.yul\":26338:26340   */\n      0x20\n        /* \"#utility.yul\":26327:26336   */\n      dup3\n        /* \"#utility.yul\":26323:26341   */\n      add\n        /* \"#utility.yul\":26315:26341   */\n      swap1\n      pop\n        /* \"#utility.yul\":26387:26396   */\n      dup2\n        /* \"#utility.yul\":26381:26385   */\n      dup2\n        /* \"#utility.yul\":26377:26397   */\n      sub\n        /* \"#utility.yul\":26373:26374   */\n      0x00\n        /* \"#utility.yul\":26362:26371   */\n      dup4\n        /* \"#utility.yul\":26358:26375   */\n      add\n        /* \"#utility.yul\":26351:26398   */\n      mstore\n        /* \"#utility.yul\":26415:26546   */\n      tag_736\n        /* \"#utility.yul\":26541:26545   */\n      dup2\n        /* \"#utility.yul\":26415:26546   */\n      tag_486\n      jump\t// in\n    tag_736:\n        /* \"#utility.yul\":26407:26546   */\n      swap1\n      pop\n        /* \"#utility.yul\":26134:26553   */\n      swap2\n      swap1\n      pop\n      jump\t// out\n        /* \"#utility.yul\":26559:26781   */\n    tag_487:\n        /* \"#utility.yul\":26699:26733   */\n      0x5468652070726f706f73616c2073657373696f6e206973206e6f742073746172\n        /* \"#utility.yul\":26695:26696   */\n      0x00\n        /* \"#utility.yul\":26687:26693   */\n      dup3\n        /* \"#utility.yul\":26683:26697   */\n      add\n        /* \"#utility.yul\":26676:26734   */\n      mstore\n        /* \"#utility.yul\":26768:26773   */\n      0x7465640000000000000000000000000000000000000000000000000000000000\n        /* \"#utility.yul\":26763:26765   */\n      0x20\n        /* \"#utility.yul\":26755:26761   */\n      dup3\n        /* \"#utility.yul\":26751:26766   */\n      add\n        /* \"#utility.yul\":26744:26774   */\n      mstore\n        /* \"#utility.yul\":26559:26781   */\n      pop\n      jump\t// out\n        /* \"#utility.yul\":26787:27153   */\n    tag_488:\n        /* \"#utility.yul\":26929:26932   */\n      0x00\n        /* \"#utility.yul\":26950:27017   */\n      tag_739\n        /* \"#utility.yul\":27014:27016   */\n      0x23\n        /* \"#utility.yul\":27009:27012   */\n      dup4\n        /* \"#utility.yul\":26950:27017   */\n      tag_432\n      jump\t// in\n    tag_739:\n        /* \"#utility.yul\":26943:27017   */\n      swap2\n      pop\n        /* \"#utility.yul\":27026:27119   */\n      tag_740\n        /* \"#utility.yul\":27115:27118   */\n      dup3\n        /* \"#utility.yul\":27026:27119   */\n      tag_487\n      jump\t// in\n    tag_740:\n        /* \"#utility.yul\":27144:27146   */\n      0x40\n        /* \"#utility.yul\":27139:27142   */\n      dup3\n        /* \"#utility.yul\":27135:27147   */\n      add\n        /* \"#utility.yul\":27128:27147   */\n      swap1\n      pop\n        /* \"#utility.yul\":26787:27153   */\n      swap2\n      swap1\n      pop\n      jump\t// out\n        /* \"#utility.yul\":27159:27578   */\n    tag_268:\n        /* \"#utility.yul\":27325:27329   */\n      0x00\n        /* \"#utility.yul\":27363:27365   */\n      0x20\n        /* \"#utility.yul\":27352:27361   */\n      dup3\n        /* \"#utility.yul\":27348:27366   */\n      add\n        /* \"#utility.yul\":27340:27366   */\n      swap1\n      pop\n        /* \"#utility.yul\":27412:27421   */\n      dup2\n        /* \"#utility.yul\":27406:27410   */\n      dup2\n        /* \"#utility.yul\":27402:27422   */\n      sub\n        /* \"#utility.yul\":27398:27399   */\n      0x00\n        /* \"#utility.yul\":27387:27396   */\n      dup4\n        /* \"#utility.yul\":27383:27400   */\n      add\n        /* \"#utility.yul\":27376:27423   */\n      mstore\n        /* \"#utility.yul\":27440:27571   */\n      tag_742\n        /* \"#utility.yul\":27566:27570   */\n      dup2\n        /* \"#utility.yul\":27440:27571   */\n      tag_488\n      jump\t// in\n    tag_742:\n        /* \"#utility.yul\":27432:27571   */\n      swap1\n      pop\n        /* \"#utility.yul\":27159:27578   */\n      swap2\n      swap1\n      pop\n      jump\t// out\n        /* \"#utility.yul\":27584:27826   */\n    tag_489:\n        /* \"#utility.yul\":27724:27758   */\n      0x596f752061726520746865206f776e6572206f66207468697320636f6e747261\n        /* \"#utility.yul\":27720:27721   */\n      0x00\n        /* \"#utility.yul\":27712:27718   */\n      dup3\n        /* \"#utility.yul\":27708:27722   */\n      add\n        /* \"#utility.yul\":27701:27759   */\n      mstore\n        /* \"#utility.yul\":27793:27818   */\n      0x63742c20796f752063616e206e6f742070726f706f7365000000000000000000\n        /* \"#utility.yul\":27788:27790   */\n      0x20\n        /* \"#utility.yul\":27780:27786   */\n      dup3\n        /* \"#utility.yul\":27776:27791   */\n      add\n        /* \"#utility.yul\":27769:27819   */\n      mstore\n        /* \"#utility.yul\":27584:27826   */\n      pop\n      jump\t// out\n        /* \"#utility.yul\":27832:28198   */\n    tag_490:\n        /* \"#utility.yul\":27974:27977   */\n      0x00\n        /* \"#utility.yul\":27995:28062   */\n      tag_745\n        /* \"#utility.yul\":28059:28061   */\n      0x37\n        /* \"#utility.yul\":28054:28057   */\n      dup4\n        /* \"#utility.yul\":27995:28062   */\n      tag_432\n      jump\t// in\n    tag_745:\n        /* \"#utility.yul\":27988:28062   */\n      swap2\n      pop\n        /* \"#utility.yul\":28071:28164   */\n      tag_746\n        /* \"#utility.yul\":28160:28163   */\n      dup3\n        /* \"#utility.yul\":28071:28164   */\n      tag_489\n      jump\t// in\n    tag_746:\n        /* \"#utility.yul\":28189:28191   */\n      0x40\n        /* \"#utility.yul\":28184:28187   */\n      dup3\n        /* \"#utility.yul\":28180:28192   */\n      add\n        /* \"#utility.yul\":28173:28192   */\n      swap1\n      pop\n        /* \"#utility.yul\":27832:28198   */\n      swap2\n      swap1\n      pop\n      jump\t// out\n        /* \"#utility.yul\":28204:28623   */\n    tag_272:\n        /* \"#utility.yul\":28370:28374   */\n      0x00\n        /* \"#utility.yul\":28408:28410   */\n      0x20\n        /* \"#utility.yul\":28397:28406   */\n      dup3\n        /* \"#utility.yul\":28393:28411   */\n      add\n        /* \"#utility.yul\":28385:28411   */\n      swap1\n      pop\n        /* \"#utility.yul\":28457:28466   */\n      dup2\n        /* \"#utility.yul\":28451:28455   */\n      dup2\n        /* \"#utility.yul\":28447:28467   */\n      sub\n        /* \"#utility.yul\":28443:28444   */\n      0x00\n        /* \"#utility.yul\":28432:28441   */\n      dup4\n        /* \"#utility.yul\":28428:28445   */\n      add\n        /* \"#utility.yul\":28421:28468   */\n      mstore\n        /* \"#utility.yul\":28485:28616   */\n      tag_748\n        /* \"#utility.yul\":28611:28615   */\n      dup2\n        /* \"#utility.yul\":28485:28616   */\n      tag_490\n      jump\t// in\n    tag_748:\n        /* \"#utility.yul\":28477:28616   */\n      swap1\n      pop\n        /* \"#utility.yul\":28204:28623   */\n      swap2\n      swap1\n      pop\n      jump\t// out\n        /* \"#utility.yul\":28629:28770   */\n    tag_491:\n        /* \"#utility.yul\":28678:28682   */\n      0x00\n        /* \"#utility.yul\":28701:28704   */\n      dup2\n        /* \"#utility.yul\":28693:28704   */\n      swap1\n      pop\n        /* \"#utility.yul\":28724:28727   */\n      dup2\n        /* \"#utility.yul\":28721:28722   */\n      0x00\n        /* \"#utility.yul\":28714:28728   */\n      mstore\n        /* \"#utility.yul\":28758:28762   */\n      0x20\n        /* \"#utility.yul\":28755:28756   */\n      0x00\n        /* \"#utility.yul\":28745:28763   */\n      keccak256\n        /* \"#utility.yul\":28737:28763   */\n      swap1\n      pop\n        /* \"#utility.yul\":28629:28770   */\n      swap2\n      swap1\n      pop\n      jump\t// out\n        /* \"#utility.yul\":28776:28869   */\n    tag_492:\n        /* \"#utility.yul\":28813:28819   */\n      0x00\n        /* \"#utility.yul\":28860:28862   */\n      0x20\n        /* \"#utility.yul\":28855:28857   */\n      0x1f\n        /* \"#utility.yul\":28848:28853   */\n      dup4\n        /* \"#utility.yul\":28844:28858   */\n      add\n        /* \"#utility.yul\":28840:28863   */\n      div\n        /* \"#utility.yul\":28830:28863   */\n      swap1\n      pop\n        /* \"#utility.yul\":28776:28869   */\n      swap2\n      swap1\n      pop\n      jump\t// out\n        /* \"#utility.yul\":28875:28982   */\n    tag_493:\n        /* \"#utility.yul\":28919:28927   */\n      0x00\n        /* \"#utility.yul\":28969:28974   */\n      dup3\n        /* \"#utility.yul\":28963:28967   */\n      dup3\n        /* \"#utility.yul\":28959:28975   */\n      shl\n        /* \"#utility.yul\":28938:28975   */\n      swap1\n      pop\n        /* \"#utility.yul\":28875:28982   */\n      swap3\n      swap2\n      pop\n      pop\n      jump\t// out\n        /* \"#utility.yul\":28988:29381   */\n    tag_494:\n        /* \"#utility.yul\":29057:29063   */\n      0x00\n        /* \"#utility.yul\":29107:29108   */\n      0x08\n        /* \"#utility.yul\":29095:29105   */\n      dup4\n        /* \"#utility.yul\":29091:29109   */\n      mul\n        /* \"#utility.yul\":29130:29227   */\n      tag_753\n        /* \"#utility.yul\":29160:29226   */\n      0xffffffffffffffffffffffffffffffffffffffffffffffffffffffffffffffff\n        /* \"#utility.yul\":29149:29158   */\n      dup3\n        /* \"#utility.yul\":29130:29227   */\n      tag_493\n      jump\t// in\n    tag_753:\n        /* \"#utility.yul\":29248:29287   */\n      tag_754\n        /* \"#utility.yul\":29278:29286   */\n      dup7\n        /* \"#utility.yul\":29267:29276   */\n      dup4\n        /* \"#utility.yul\":29248:29287   */\n      tag_493\n      jump\t// in\n    tag_754:\n        /* \"#utility.yul\":29236:29287   */\n      swap6\n      pop\n        /* \"#utility.yul\":29320:29324   */\n      dup1\n        /* \"#utility.yul\":29316:29325   */\n      not\n        /* \"#utility.yul\":29309:29314   */\n      dup5\n        /* \"#utility.yul\":29305:29326   */\n      and\n        /* \"#utility.yul\":29296:29326   */\n      swap4\n      pop\n        /* \"#utility.yul\":29369:29373   */\n      dup1\n        /* \"#utility.yul\":29359:29367   */\n      dup7\n        /* \"#utility.yul\":29355:29374   */\n      and\n        /* \"#utility.yul\":29348:29353   */\n      dup5\n        /* \"#utility.yul\":29345:29375   */\n      or\n        /* \"#utility.yul\":29335:29375   */\n      swap3\n      pop\n        /* \"#utility.yul\":29064:29381   */\n      pop\n      pop\n        /* \"#utility.yul\":28988:29381   */\n      swap4\n      swap3\n      pop\n      pop\n      pop\n      jump\t// out\n        /* \"#utility.yul\":29387:29447   */\n    tag_495:\n        /* \"#utility.yul\":29415:29418   */\n      0x00\n        /* \"#utility.yul\":29436:29441   */\n      dup2\n        /* \"#utility.yul\":29429:29441   */\n      swap1\n      pop\n        /* \"#utility.yul\":29387:29447   */\n      swap2\n      swap1\n      pop\n      jump\t// out\n        /* \"#utility.yul\":29453:29595   */\n    tag_496:\n        /* \"#utility.yul\":29503:29512   */\n      0x00\n        /* \"#utility.yul\":29536:29589   */\n      tag_757\n        /* \"#utility.yul\":29554:29588   */\n      tag_758\n        /* \"#utility.yul\":29563:29587   */\n      tag_759\n        /* \"#utility.yul\":29581:29586   */\n      dup5\n        /* \"#utility.yul\":29563:29587   */\n      tag_423\n      jump\t// in\n    tag_759:\n        /* \"#utility.yul\":29554:29588   */\n      tag_495\n      jump\t// in\n    tag_758:\n        /* \"#utility.yul\":29536:29589   */\n      tag_423\n      jump\t// in\n    tag_757:\n        /* \"#utility.yul\":29523:29589   */\n      swap1\n      pop\n        /* \"#utility.yul\":29453:29595   */\n      swap2\n      swap1\n      pop\n      jump\t// out\n        /* \"#utility.yul\":29601:29676   */\n    tag_497:\n        /* \"#utility.yul\":29644:29647   */\n      0x00\n        /* \"#utility.yul\":29665:29670   */\n      dup2\n        /* \"#utility.yul\":29658:29670   */\n      swap1\n      pop\n        /* \"#utility.yul\":29601:29676   */\n      swap2\n      swap1\n      pop\n      jump\t// out\n        /* \"#utility.yul\":29682:29951   */\n    tag_498:\n        /* \"#utility.yul\":29792:29831   */\n      tag_762\n        /* \"#utility.yul\":29823:29830   */\n      dup4\n        /* \"#utility.yul\":29792:29831   */\n      tag_496\n      jump\t// in\n    tag_762:\n        /* \"#utility.yul\":29853:29944   */\n      tag_763\n        /* \"#utility.yul\":29902:29943   */\n      tag_764\n        /* \"#utility.yul\":29926:29942   */\n      dup3\n        /* \"#utility.yul\":29902:29943   */\n      tag_497\n      jump\t// in\n    tag_764:\n        /* \"#utility.yul\":29894:29900   */\n      dup5\n        /* \"#utility.yul\":29887:29891   */\n      dup5\n        /* \"#utility.yul\":29881:29892   */\n      sload\n        /* \"#utility.yul\":29853:29944   */\n      tag_494\n      jump\t// in\n    tag_763:\n        /* \"#utility.yul\":29847:29851   */\n      dup3\n        /* \"#utility.yul\":29840:29945   */\n      sstore\n        /* \"#utility.yul\":29758:29951   */\n      pop\n        /* \"#utility.yul\":29682:29951   */\n      pop\n      pop\n      pop\n      jump\t// out\n        /* \"#utility.yul\":29957:30030   */\n    tag_499:\n        /* \"#utility.yul\":30002:30005   */\n      0x00\n        /* \"#utility.yul\":30023:30024   */\n      0x00\n        /* \"#utility.yul\":30016:30024   */\n      swap1\n      pop\n        /* \"#utility.yul\":29957:30030   */\n      swap1\n      jump\t// out\n        /* \"#utility.yul\":30036:30225   */\n    tag_500:\n        /* \"#utility.yul\":30113:30145   */\n      tag_767\n      tag_499\n      jump\t// in\n    tag_767:\n        /* \"#utility.yul\":30154:30219   */\n      tag_768\n        /* \"#utility.yul\":30212:30218   */\n      dup2\n        /* \"#utility.yul\":30204:30210   */\n      dup5\n        /* \"#utility.yul\":30198:30202   */\n      dup5\n        /* \"#utility.yul\":30154:30219   */\n      tag_498\n      jump\t// in\n    tag_768:\n        /* \"#utility.yul\":30089:30225   */\n      pop\n        /* \"#utility.yul\":30036:30225   */\n      pop\n      pop\n      jump\t// out\n        /* \"#utility.yul\":30231:30417   */\n    tag_501:\n        /* \"#utility.yul\":30291:30411   */\n    tag_770:\n        /* \"#utility.yul\":30308:30311   */\n      dup2\n        /* \"#utility.yul\":30301:30306   */\n      dup2\n        /* \"#utility.yul\":30298:30312   */\n      lt\n        /* \"#utility.yul\":30291:30411   */\n      iszero\n      tag_772\n      jumpi\n        /* \"#utility.yul\":30362:30401   */\n      tag_773\n        /* \"#utility.yul\":30399:30400   */\n      0x00\n        /* \"#utility.yul\":30392:30397   */\n      dup3\n        /* \"#utility.yul\":30362:30401   */\n      tag_500\n      jump\t// in\n    tag_773:\n        /* \"#utility.yul\":30335:30336   */\n      0x01\n        /* \"#utility.yul\":30328:30333   */\n      dup2\n        /* \"#utility.yul\":30324:30337   */\n      add\n        /* \"#utility.yul\":30315:30337   */\n      swap1\n      pop\n        /* \"#utility.yul\":30291:30411   */\n      jump(tag_770)\n    tag_772:\n        /* \"#utility.yul\":30231:30417   */\n      pop\n      pop\n      jump\t// out\n        /* \"#utility.yul\":30423:30966   */\n    tag_502:\n        /* \"#utility.yul\":30524:30526   */\n      0x1f\n        /* \"#utility.yul\":30519:30522   */\n      dup3\n        /* \"#utility.yul\":30516:30527   */\n      gt\n        /* \"#utility.yul\":30513:30959   */\n      iszero\n      tag_775\n      jumpi\n        /* \"#utility.yul\":30558:30596   */\n      tag_776\n        /* \"#utility.yul\":30590:30595   */\n      dup2\n        /* \"#utility.yul\":30558:30596   */\n      tag_491\n      jump\t// in\n    tag_776:\n        /* \"#utility.yul\":30642:30671   */\n      tag_777\n        /* \"#utility.yul\":30660:30670   */\n      dup5\n        /* \"#utility.yul\":30642:30671   */\n      tag_492\n      jump\t// in\n    tag_777:\n        /* \"#utility.yul\":30632:30640   */\n      dup2\n        /* \"#utility.yul\":30628:30672   */\n      add\n        /* \"#utility.yul\":30825:30827   */\n      0x20\n        /* \"#utility.yul\":30813:30823   */\n      dup6\n        /* \"#utility.yul\":30810:30828   */\n      lt\n        /* \"#utility.yul\":30807:30856   */\n      iszero\n      tag_778\n      jumpi\n        /* \"#utility.yul\":30846:30854   */\n      dup2\n        /* \"#utility.yul\":30831:30854   */\n      swap1\n      pop\n        /* \"#utility.yul\":30807:30856   */\n    tag_778:\n        /* \"#utility.yul\":30869:30949   */\n      tag_779\n        /* \"#utility.yul\":30925:30947   */\n      tag_780\n        /* \"#utility.yul\":30943:30946   */\n      dup6\n        /* \"#utility.yul\":30925:30947   */\n      tag_492\n      jump\t// in\n    tag_780:\n        /* \"#utility.yul\":30915:30923   */\n      dup4\n        /* \"#utility.yul\":30911:30948   */\n      add\n        /* \"#utility.yul\":30898:30909   */\n      dup3\n        /* \"#utility.yul\":30869:30949   */\n      tag_501\n      jump\t// in\n    tag_779:\n        /* \"#utility.yul\":30528:30959   */\n      pop\n      pop\n        /* \"#utility.yul\":30513:30959   */\n    tag_775:\n        /* \"#utility.yul\":30423:30966   */\n      pop\n      pop\n      pop\n      jump\t// out\n        /* \"#utility.yul\":30972:31089   */\n    tag_503:\n        /* \"#utility.yul\":31026:31034   */\n      0x00\n        /* \"#utility.yul\":31076:31081   */\n      dup3\n        /* \"#utility.yul\":31070:31074   */\n      dup3\n        /* \"#utility.yul\":31066:31082   */\n      shr\n        /* \"#utility.yul\":31045:31082   */\n      swap1\n      pop\n        /* \"#utility.yul\":30972:31089   */\n      swap3\n      swap2\n      pop\n      pop\n      jump\t// out\n        /* \"#utility.yul\":31095:31264   */\n    tag_504:\n        /* \"#utility.yul\":31139:31145   */\n      0x00\n        /* \"#utility.yul\":31172:31223   */\n      tag_783\n        /* \"#utility.yul\":31220:31221   */\n      0x00\n        /* \"#utility.yul\":31216:31222   */\n      not\n        /* \"#utility.yul\":31208:31213   */\n      dup5\n        /* \"#utility.yul\":31205:31206   */\n      0x08\n        /* \"#utility.yul\":31201:31214   */\n      mul\n        /* \"#utility.yul\":31172:31223   */\n      tag_503\n      jump\t// in\n    tag_783:\n        /* \"#utility.yul\":31168:31224   */\n      not\n        /* \"#utility.yul\":31253:31257   */\n      dup1\n        /* \"#utility.yul\":31247:31251   */\n      dup4\n        /* \"#utility.yul\":31243:31258   */\n      and\n        /* \"#utility.yul\":31233:31258   */\n      swap2\n      pop\n        /* \"#utility.yul\":31146:31264   */\n      pop\n        /* \"#utility.yul\":31095:31264   */\n      swap3\n      swap2\n      pop\n      pop\n      jump\t// out\n        /* \"#utility.yul\":31269:31564   */\n    tag_505:\n        /* \"#utility.yul\":31345:31349   */\n      0x00\n        /* \"#utility.yul\":31491:31520   */\n      tag_785\n        /* \"#utility.yul\":31516:31519   */\n      dup4\n        /* \"#utility.yul\":31510:31514   */\n      dup4\n        /* \"#utility.yul\":31491:31520   */\n      tag_504\n      jump\t// in\n    tag_785:\n        /* \"#utility.yul\":31483:31520   */\n      swap2\n      pop\n        /* \"#utility.yul\":31553:31556   */\n      dup3\n        /* \"#utility.yul\":31550:31551   */\n      0x02\n        /* \"#utility.yul\":31546:31557   */\n      mul\n        /* \"#utility.yul\":31540:31544   */\n      dup3\n        /* \"#utility.yul\":31537:31558   */\n      or\n        /* \"#utility.yul\":31529:31558   */\n      swap1\n      pop\n        /* \"#utility.yul\":31269:31564   */\n      swap3\n      swap2\n      pop\n      pop\n      jump\t// out\n        /* \"#utility.yul\":31569:32964   */\n    tag_277:\n        /* \"#utility.yul\":31686:31723   */\n      tag_787\n        /* \"#utility.yul\":31719:31722   */\n      dup3\n        /* \"#utility.yul\":31686:31723   */\n      tag_431\n      jump\t// in\n    tag_787:\n        /* \"#utility.yul\":31788:31806   */\n      0xffffffffffffffff\n        /* \"#utility.yul\":31780:31786   */\n      dup2\n        /* \"#utility.yul\":31777:31807   */\n      gt\n        /* \"#utility.yul\":31774:31830   */\n      iszero\n      tag_788\n      jumpi\n        /* \"#utility.yul\":31810:31828   */\n      tag_789\n      tag_454\n      jump\t// in\n    tag_789:\n        /* \"#utility.yul\":31774:31830   */\n    tag_788:\n        /* \"#utility.yul\":31854:31892   */\n      tag_790\n        /* \"#utility.yul\":31886:31890   */\n      dup3\n        /* \"#utility.yul\":31880:31891   */\n      sload\n        /* \"#utility.yul\":31854:31892   */\n      tag_169\n      jump\t// in\n    tag_790:\n        /* \"#utility.yul\":31939:32006   */\n      tag_791\n        /* \"#utility.yul\":31999:32005   */\n      dup3\n        /* \"#utility.yul\":31991:31997   */\n      dup3\n        /* \"#utility.yul\":31985:31989   */\n      dup6\n        /* \"#utility.yul\":31939:32006   */\n      tag_502\n      jump\t// in\n    tag_791:\n        /* \"#utility.yul\":32033:32034   */\n      0x00\n        /* \"#utility.yul\":32057:32061   */\n      0x20\n        /* \"#utility.yul\":32044:32061   */\n      swap1\n      pop\n        /* \"#utility.yul\":32089:32091   */\n      0x1f\n        /* \"#utility.yul\":32081:32087   */\n      dup4\n        /* \"#utility.yul\":32078:32092   */\n      gt\n        /* \"#utility.yul\":32106:32107   */\n      0x01\n        /* \"#utility.yul\":32101:32719   */\n      dup2\n      eq\n      tag_793\n      jumpi\n        /* \"#utility.yul\":32763:32764   */\n      0x00\n        /* \"#utility.yul\":32780:32786   */\n      dup5\n        /* \"#utility.yul\":32777:32854   */\n      iszero\n      tag_794\n      jumpi\n        /* \"#utility.yul\":32829:32838   */\n      dup3\n        /* \"#utility.yul\":32824:32827   */\n      dup8\n        /* \"#utility.yul\":32820:32839   */\n      add\n        /* \"#utility.yul\":32814:32840   */\n      mload\n        /* \"#utility.yul\":32805:32840   */\n      swap1\n      pop\n        /* \"#utility.yul\":32777:32854   */\n    tag_794:\n        /* \"#utility.yul\":32880:32947   */\n      tag_795\n        /* \"#utility.yul\":32940:32946   */\n      dup6\n        /* \"#utility.yul\":32933:32938   */\n      dup3\n        /* \"#utility.yul\":32880:32947   */\n      tag_505\n      jump\t// in\n    tag_795:\n        /* \"#utility.yul\":32874:32878   */\n      dup7\n        /* \"#utility.yul\":32867:32948   */\n      sstore\n        /* \"#utility.yul\":32736:32958   */\n      pop\n        /* \"#utility.yul\":32071:32958   */\n      jump(tag_792)\n        /* \"#utility.yul\":32101:32719   */\n    tag_793:\n        /* \"#utility.yul\":32153:32157   */\n      0x1f\n        /* \"#utility.yul\":32149:32158   */\n      not\n        /* \"#utility.yul\":32141:32147   */\n      dup5\n        /* \"#utility.yul\":32137:32159   */\n      and\n        /* \"#utility.yul\":32187:32224   */\n      tag_796\n        /* \"#utility.yul\":32219:32223   */\n      dup7\n        /* \"#utility.yul\":32187:32224   */\n      tag_491\n      jump\t// in\n    tag_796:\n        /* \"#utility.yul\":32246:32247   */\n      0x00\n        /* \"#utility.yul\":32260:32468   */\n    tag_797:\n        /* \"#utility.yul\":32274:32281   */\n      dup3\n        /* \"#utility.yul\":32271:32272   */\n      dup2\n        /* \"#utility.yul\":32268:32282   */\n      lt\n        /* \"#utility.yul\":32260:32468   */\n      iszero\n      tag_799\n      jumpi\n        /* \"#utility.yul\":32353:32362   */\n      dup5\n        /* \"#utility.yul\":32348:32351   */\n      dup10\n        /* \"#utility.yul\":32344:32363   */\n      add\n        /* \"#utility.yul\":32338:32364   */\n      mload\n        /* \"#utility.yul\":32330:32336   */\n      dup3\n        /* \"#utility.yul\":32323:32365   */\n      sstore\n        /* \"#utility.yul\":32404:32405   */\n      0x01\n        /* \"#utility.yul\":32396:32402   */\n      dup3\n        /* \"#utility.yul\":32392:32406   */\n      add\n        /* \"#utility.yul\":32382:32406   */\n      swap2\n      pop\n        /* \"#utility.yul\":32451:32453   */\n      0x20\n        /* \"#utility.yul\":32440:32449   */\n      dup6\n        /* \"#utility.yul\":32436:32454   */\n      add\n        /* \"#utility.yul\":32423:32454   */\n      swap5\n      pop\n        /* \"#utility.yul\":32297:32301   */\n      0x20\n        /* \"#utility.yul\":32294:32295   */\n      dup2\n        /* \"#utility.yul\":32290:32302   */\n      add\n        /* \"#utility.yul\":32285:32302   */\n      swap1\n      pop\n        /* \"#utility.yul\":32260:32468   */\n      jump(tag_797)\n    tag_799:\n        /* \"#utility.yul\":32496:32502   */\n      dup7\n        /* \"#utility.yul\":32487:32494   */\n      dup4\n        /* \"#utility.yul\":32484:32503   */\n      lt\n        /* \"#utility.yul\":32481:32660   */\n      iszero\n      tag_800\n      jumpi\n        /* \"#utility.yul\":32554:32563   */\n      dup5\n        /* \"#utility.yul\":32549:32552   */\n      dup10\n        /* \"#utility.yul\":32545:32564   */\n      add\n        /* \"#utility.yul\":32539:32565   */\n      mload\n        /* \"#utility.yul\":32597:32645   */\n      tag_801\n        /* \"#utility.yul\":32639:32643   */\n      0x1f\n        /* \"#utility.yul\":32631:32637   */\n      dup10\n        /* \"#utility.yul\":32627:32644   */\n      and\n        /* \"#utility.yul\":32616:32625   */\n      dup3\n        /* \"#utility.yul\":32597:32645   */\n      tag_504\n      jump\t// in\n    tag_801:\n        /* \"#utility.yul\":32589:32595   */\n      dup4\n        /* \"#utility.yul\":32582:32646   */\n      sstore\n        /* \"#utility.yul\":32504:32660   */\n      pop\n        /* \"#utility.yul\":32481:32660   */\n    tag_800:\n        /* \"#utility.yul\":32706:32707   */\n      0x01\n        /* \"#utility.yul\":32702:32703   */\n      0x02\n        /* \"#utility.yul\":32694:32700   */\n      dup9\n        /* \"#utility.yul\":32690:32704   */\n      mul\n        /* \"#utility.yul\":32686:32708   */\n      add\n        /* \"#utility.yul\":32680:32684   */\n      dup9\n        /* \"#utility.yul\":32673:32709   */\n      sstore\n        /* \"#utility.yul\":32108:32719   */\n      pop\n      pop\n      pop\n        /* \"#utility.yul\":32071:32958   */\n    tag_792:\n      pop\n        /* \"#utility.yul\":31661:32964   */\n      pop\n      pop\n      pop\n        /* \"#utility.yul\":31569:32964   */\n      pop\n      pop\n      jump\t// out\n        /* \"#utility.yul\":32970:33267   */\n    tag_506:\n        /* \"#utility.yul\":33110:33144   */\n      0x5468652070726f706f73616c2073657373696f6e206973206e6f7420656e6465\n        /* \"#utility.yul\":33106:33107   */\n      0x00\n        /* \"#utility.yul\":33098:33104   */\n      dup3\n        /* \"#utility.yul\":33094:33108   */\n      add\n        /* \"#utility.yul\":33087:33145   */\n      mstore\n        /* \"#utility.yul\":33179:33213   */\n      0x64206f722074686520766f74652073657373696f6e2068617320616c72656164\n        /* \"#utility.yul\":33174:33176   */\n      0x20\n        /* \"#utility.yul\":33166:33172   */\n      dup3\n        /* \"#utility.yul\":33162:33177   */\n      add\n        /* \"#utility.yul\":33155:33214   */\n      mstore\n        /* \"#utility.yul\":33248:33259   */\n      0x7920737461727465640000000000000000000000000000000000000000000000\n        /* \"#utility.yul\":33243:33245   */\n      0x40\n        /* \"#utility.yul\":33235:33241   */\n      dup3\n        /* \"#utility.yul\":33231:33246   */\n      add\n        /* \"#utility.yul\":33224:33260   */\n      mstore\n        /* \"#utility.yul\":32970:33267   */\n      pop\n      jump\t// out\n        /* \"#utility.yul\":33273:33639   */\n    tag_507:\n        /* \"#utility.yul\":33415:33418   */\n      0x00\n        /* \"#utility.yul\":33436:33503   */\n      tag_804\n        /* \"#utility.yul\":33500:33502   */\n      0x49\n        /* \"#utility.yul\":33495:33498   */\n      dup4\n        /* \"#utility.yul\":33436:33503   */\n      tag_432\n      jump\t// in\n    tag_804:\n        /* \"#utility.yul\":33429:33503   */\n      swap2\n      pop\n        /* \"#utility.yul\":33512:33605   */\n      tag_805\n        /* \"#utility.yul\":33601:33604   */\n      dup3\n        /* \"#utility.yul\":33512:33605   */\n      tag_506\n      jump\t// in\n    tag_805:\n        /* \"#utility.yul\":33630:33632   */\n      0x60\n        /* \"#utility.yul\":33625:33628   */\n      dup3\n        /* \"#utility.yul\":33621:33633   */\n      add\n        /* \"#utility.yul\":33614:33633   */\n      swap1\n      pop\n        /* \"#utility.yul\":33273:33639   */\n      swap2\n      swap1\n      pop\n      jump\t// out\n        /* \"#utility.yul\":33645:34064   */\n    tag_289:\n        /* \"#utility.yul\":33811:33815   */\n      0x00\n        /* \"#utility.yul\":33849:33851   */\n      0x20\n        /* \"#utility.yul\":33838:33847   */\n      dup3\n        /* \"#utility.yul\":33834:33852   */\n      add\n        /* \"#utility.yul\":33826:33852   */\n      swap1\n      pop\n        /* \"#utility.yul\":33898:33907   */\n      dup2\n        /* \"#utility.yul\":33892:33896   */\n      dup2\n        /* \"#utility.yul\":33888:33908   */\n      sub\n        /* \"#utility.yul\":33884:33885   */\n      0x00\n        /* \"#utility.yul\":33873:33882   */\n      dup4\n        /* \"#utility.yul\":33869:33886   */\n      add\n        /* \"#utility.yul\":33862:33909   */\n      mstore\n        /* \"#utility.yul\":33926:34057   */\n      tag_807\n        /* \"#utility.yul\":34052:34056   */\n      dup2\n        /* \"#utility.yul\":33926:34057   */\n      tag_507\n      jump\t// in\n    tag_807:\n        /* \"#utility.yul\":33918:34057   */\n      swap1\n      pop\n        /* \"#utility.yul\":33645:34064   */\n      swap2\n      swap1\n      pop\n      jump\t// out\n        /* \"#utility.yul\":34070:34249   */\n    tag_508:\n        /* \"#utility.yul\":34210:34241   */\n      0x54686520766f74652073657373696f6e206973206e6f7420656e646564000000\n        /* \"#utility.yul\":34206:34207   */\n      0x00\n        /* \"#utility.yul\":34198:34204   */\n      dup3\n        /* \"#utility.yul\":34194:34208   */\n      add\n        /* \"#utility.yul\":34187:34242   */\n      mstore\n        /* \"#utility.yul\":34070:34249   */\n      pop\n      jump\t// out\n        /* \"#utility.yul\":34255:34621   */\n    tag_509:\n        /* \"#utility.yul\":34397:34400   */\n      0x00\n        /* \"#utility.yul\":34418:34485   */\n      tag_810\n        /* \"#utility.yul\":34482:34484   */\n      0x1d\n        /* \"#utility.yul\":34477:34480   */\n      dup4\n        /* \"#utility.yul\":34418:34485   */\n      tag_432\n      jump\t// in\n    tag_810:\n        /* \"#utility.yul\":34411:34485   */\n      swap2\n      pop\n        /* \"#utility.yul\":34494:34587   */\n      tag_811\n        /* \"#utility.yul\":34583:34586   */\n      dup3\n        /* \"#utility.yul\":34494:34587   */\n      tag_508\n      jump\t// in\n    tag_811:\n        /* \"#utility.yul\":34612:34614   */\n      0x20\n        /* \"#utility.yul\":34607:34610   */\n      dup3\n        /* \"#utility.yul\":34603:34615   */\n      add\n        /* \"#utility.yul\":34596:34615   */\n      swap1\n      pop\n        /* \"#utility.yul\":34255:34621   */\n      swap2\n      swap1\n      pop\n      jump\t// out\n        /* \"#utility.yul\":34627:35046   */\n    tag_307:\n        /* \"#utility.yul\":34793:34797   */\n      0x00\n        /* \"#utility.yul\":34831:34833   */\n      0x20\n        /* \"#utility.yul\":34820:34829   */\n      dup3\n        /* \"#utility.yul\":34816:34834   */\n      add\n        /* \"#utility.yul\":34808:34834   */\n      swap1\n      pop\n        /* \"#utility.yul\":34880:34889   */\n      dup2\n        /* \"#utility.yul\":34874:34878   */\n      dup2\n        /* \"#utility.yul\":34870:34890   */\n      sub\n        /* \"#utility.yul\":34866:34867   */\n      0x00\n        /* \"#utility.yul\":34855:34864   */\n      dup4\n        /* \"#utility.yul\":34851:34868   */\n      add\n        /* \"#utility.yul\":34844:34891   */\n      mstore\n        /* \"#utility.yul\":34908:35039   */\n      tag_813\n        /* \"#utility.yul\":35034:35038   */\n      dup2\n        /* \"#utility.yul\":34908:35039   */\n      tag_509\n      jump\t// in\n    tag_813:\n        /* \"#utility.yul\":34900:35039   */\n      swap1\n      pop\n        /* \"#utility.yul\":34627:35046   */\n      swap2\n      swap1\n      pop\n      jump\t// out\n        /* \"#utility.yul\":35052:35284   */\n    tag_510:\n        /* \"#utility.yul\":35192:35226   */\n      0x5468657265206973206d6f7265207468616e20312077696e6e65722c20796f75\n        /* \"#utility.yul\":35188:35189   */\n      0x00\n        /* \"#utility.yul\":35180:35186   */\n      dup3\n        /* \"#utility.yul\":35176:35190   */\n      add\n        /* \"#utility.yul\":35169:35227   */\n      mstore\n        /* \"#utility.yul\":35261:35276   */\n      0x206861766520746f20766f746500000000000000000000000000000000000000\n        /* \"#utility.yul\":35256:35258   */\n      0x20\n        /* \"#utility.yul\":35248:35254   */\n      dup3\n        /* \"#utility.yul\":35244:35259   */\n      add\n        /* \"#utility.yul\":35237:35277   */\n      mstore\n        /* \"#utility.yul\":35052:35284   */\n      pop\n      jump\t// out\n        /* \"#utility.yul\":35290:35656   */\n    tag_511:\n        /* \"#utility.yul\":35432:35435   */\n      0x00\n        /* \"#utility.yul\":35453:35520   */\n      tag_816\n        /* \"#utility.yul\":35517:35519   */\n      0x2d\n        /* \"#utility.yul\":35512:35515   */\n      dup4\n        /* \"#utility.yul\":35453:35520   */\n      tag_432\n      jump\t// in\n    tag_816:\n        /* \"#utility.yul\":35446:35520   */\n      swap2\n      pop\n        /* \"#utility.yul\":35529:35622   */\n      tag_817\n        /* \"#utility.yul\":35618:35621   */\n      dup3\n        /* \"#utility.yul\":35529:35622   */\n      tag_510\n      jump\t// in\n    tag_817:\n        /* \"#utility.yul\":35647:35649   */\n      0x40\n        /* \"#utility.yul\":35642:35645   */\n      dup3\n        /* \"#utility.yul\":35638:35650   */\n      add\n        /* \"#utility.yul\":35631:35650   */\n      swap1\n      pop\n        /* \"#utility.yul\":35290:35656   */\n      swap2\n      swap1\n      pop\n      jump\t// out\n        /* \"#utility.yul\":35662:36081   */\n    tag_310:\n        /* \"#utility.yul\":35828:35832   */\n      0x00\n        /* \"#utility.yul\":35866:35868   */\n      0x20\n        /* \"#utility.yul\":35855:35864   */\n      dup3\n        /* \"#utility.yul\":35851:35869   */\n      add\n        /* \"#utility.yul\":35843:35869   */\n      swap1\n      pop\n        /* \"#utility.yul\":35915:35924   */\n      dup2\n        /* \"#utility.yul\":35909:35913   */\n      dup2\n        /* \"#utility.yul\":35905:35925   */\n      sub\n        /* \"#utility.yul\":35901:35902   */\n      0x00\n        /* \"#utility.yul\":35890:35899   */\n      dup4\n        /* \"#utility.yul\":35886:35903   */\n      add\n        /* \"#utility.yul\":35879:35926   */\n      mstore\n        /* \"#utility.yul\":35943:36074   */\n      tag_819\n        /* \"#utility.yul\":36069:36073   */\n      dup2\n        /* \"#utility.yul\":35943:36074   */\n      tag_511\n      jump\t// in\n    tag_819:\n        /* \"#utility.yul\":35935:36074   */\n      swap1\n      pop\n        /* \"#utility.yul\":35662:36081   */\n      swap2\n      swap1\n      pop\n      jump\t// out\n        /* \"#utility.yul\":36087:36308   */\n    tag_512:\n        /* \"#utility.yul\":36227:36261   */\n      0x546865206c61737420766f746520686173206e6f74206265656e2074616c6c69\n        /* \"#utility.yul\":36223:36224   */\n      0x00\n        /* \"#utility.yul\":36215:36221   */\n      dup3\n        /* \"#utility.yul\":36211:36225   */\n      add\n        /* \"#utility.yul\":36204:36262   */\n      mstore\n        /* \"#utility.yul\":36296:36300   */\n      0x6564000000000000000000000000000000000000000000000000000000000000\n        /* \"#utility.yul\":36291:36293   */\n      0x20\n        /* \"#utility.yul\":36283:36289   */\n      dup3\n        /* \"#utility.yul\":36279:36294   */\n      add\n        /* \"#utility.yul\":36272:36301   */\n      mstore\n        /* \"#utility.yul\":36087:36308   */\n      pop\n      jump\t// out\n        /* \"#utility.yul\":36314:36680   */\n    tag_513:\n        /* \"#utility.yul\":36456:36459   */\n      0x00\n        /* \"#utility.yul\":36477:36544   */\n      tag_822\n        /* \"#utility.yul\":36541:36543   */\n      0x22\n        /* \"#utility.yul\":36536:36539   */\n      dup4\n        /* \"#utility.yul\":36477:36544   */\n      tag_432\n      jump\t// in\n    tag_822:\n        /* \"#utility.yul\":36470:36544   */\n      swap2\n      pop\n        /* \"#utility.yul\":36553:36646   */\n      tag_823\n        /* \"#utility.yul\":36642:36645   */\n      dup3\n        /* \"#utility.yul\":36553:36646   */\n      tag_512\n      jump\t// in\n    tag_823:\n        /* \"#utility.yul\":36671:36673   */\n      0x40\n        /* \"#utility.yul\":36666:36669   */\n      dup3\n        /* \"#utility.yul\":36662:36674   */\n      add\n        /* \"#utility.yul\":36655:36674   */\n      swap1\n      pop\n        /* \"#utility.yul\":36314:36680   */\n      swap2\n      swap1\n      pop\n      jump\t// out\n        /* \"#utility.yul\":36686:37105   */\n    tag_329:\n        /* \"#utility.yul\":36852:36856   */\n      0x00\n        /* \"#utility.yul\":36890:36892   */\n      0x20\n        /* \"#utility.yul\":36879:36888   */\n      dup3\n        /* \"#utility.yul\":36875:36893   */\n      add\n        /* \"#utility.yul\":36867:36893   */\n      swap1\n      pop\n        /* \"#utility.yul\":36939:36948   */\n      dup2\n        /* \"#utility.yul\":36933:36937   */\n      dup2\n        /* \"#utility.yul\":36929:36949   */\n      sub\n        /* \"#utility.yul\":36925:36926   */\n      0x00\n        /* \"#utility.yul\":36914:36923   */\n      dup4\n        /* \"#utility.yul\":36910:36927   */\n      add\n        /* \"#utility.yul\":36903:36950   */\n      mstore\n        /* \"#utility.yul\":36967:37098   */\n      tag_825\n        /* \"#utility.yul\":37093:37097   */\n      dup2\n        /* \"#utility.yul\":36967:37098   */\n      tag_513\n      jump\t// in\n    tag_825:\n        /* \"#utility.yul\":36959:37098   */\n      swap1\n      pop\n        /* \"#utility.yul\":36686:37105   */\n      swap2\n      swap1\n      pop\n      jump\t// out\n        /* \"#utility.yul\":37111:37360   */\n    tag_514:\n        /* \"#utility.yul\":37251:37285   */\n      0x5468652070726f706f73616c2073657373696f6e20686173206e6f7420737461\n        /* \"#utility.yul\":37247:37248   */\n      0x00\n        /* \"#utility.yul\":37239:37245   */\n      dup3\n        /* \"#utility.yul\":37235:37249   */\n      add\n        /* \"#utility.yul\":37228:37286   */\n      mstore\n        /* \"#utility.yul\":37320:37352   */\n      0x72746564206f722068617320616c7265616479206265656e20656e6465640000\n        /* \"#utility.yul\":37315:37317   */\n      0x20\n        /* \"#utility.yul\":37307:37313   */\n      dup3\n        /* \"#utility.yul\":37303:37318   */\n      add\n        /* \"#utility.yul\":37296:37353   */\n      mstore\n        /* \"#utility.yul\":37111:37360   */\n      pop\n      jump\t// out\n        /* \"#utility.yul\":37366:37732   */\n    tag_515:\n        /* \"#utility.yul\":37508:37511   */\n      0x00\n        /* \"#utility.yul\":37529:37596   */\n      tag_828\n        /* \"#utility.yul\":37593:37595   */\n      0x3e\n        /* \"#utility.yul\":37588:37591   */\n      dup4\n        /* \"#utility.yul\":37529:37596   */\n      tag_432\n      jump\t// in\n    tag_828:\n        /* \"#utility.yul\":37522:37596   */\n      swap2\n      pop\n        /* \"#utility.yul\":37605:37698   */\n      tag_829\n        /* \"#utility.yul\":37694:37697   */\n      dup3\n        /* \"#utility.yul\":37605:37698   */\n      tag_514\n      jump\t// in\n    tag_829:\n        /* \"#utility.yul\":37723:37725   */\n      0x40\n        /* \"#utility.yul\":37718:37721   */\n      dup3\n        /* \"#utility.yul\":37714:37726   */\n      add\n        /* \"#utility.yul\":37707:37726   */\n      swap1\n      pop\n        /* \"#utility.yul\":37366:37732   */\n      swap2\n      swap1\n      pop\n      jump\t// out\n        /* \"#utility.yul\":37738:38157   */\n    tag_341:\n        /* \"#utility.yul\":37904:37908   */\n      0x00\n        /* \"#utility.yul\":37942:37944   */\n      0x20\n        /* \"#utility.yul\":37931:37940   */\n      dup3\n        /* \"#utility.yul\":37927:37945   */\n      add\n        /* \"#utility.yul\":37919:37945   */\n      swap1\n      pop\n        /* \"#utility.yul\":37991:38000   */\n      dup2\n        /* \"#utility.yul\":37985:37989   */\n      dup2\n        /* \"#utility.yul\":37981:38001   */\n      sub\n        /* \"#utility.yul\":37977:37978   */\n      0x00\n        /* \"#utility.yul\":37966:37975   */\n      dup4\n        /* \"#utility.yul\":37962:37979   */\n      add\n        /* \"#utility.yul\":37955:38002   */\n      mstore\n        /* \"#utility.yul\":38019:38150   */\n      tag_831\n        /* \"#utility.yul\":38145:38149   */\n      dup2\n        /* \"#utility.yul\":38019:38150   */\n      tag_515\n      jump\t// in\n    tag_831:\n        /* \"#utility.yul\":38011:38150   */\n      swap1\n      pop\n        /* \"#utility.yul\":37738:38157   */\n      swap2\n      swap1\n      pop\n      jump\t// out\n        /* \"#utility.yul\":38163:38383   */\n    tag_516:\n        /* \"#utility.yul\":38303:38337   */\n      0x546865726520617265206e6f2070726f706f73616c7320726567697374657265\n        /* \"#utility.yul\":38299:38300   */\n      0x00\n        /* \"#utility.yul\":38291:38297   */\n      dup3\n        /* \"#utility.yul\":38287:38301   */\n      add\n        /* \"#utility.yul\":38280:38338   */\n      mstore\n        /* \"#utility.yul\":38372:38375   */\n      0x6400000000000000000000000000000000000000000000000000000000000000\n        /* \"#utility.yul\":38367:38369   */\n      0x20\n        /* \"#utility.yul\":38359:38365   */\n      dup3\n        /* \"#utility.yul\":38355:38370   */\n      add\n        /* \"#utility.yul\":38348:38376   */\n      mstore\n        /* \"#utility.yul\":38163:38383   */\n      pop\n      jump\t// out\n        /* \"#utility.yul\":38389:38755   */\n    tag_517:\n        /* \"#utility.yul\":38531:38534   */\n      0x00\n        /* \"#utility.yul\":38552:38619   */\n      tag_834\n        /* \"#utility.yul\":38616:38618   */\n      0x21\n        /* \"#utility.yul\":38611:38614   */\n      dup4\n        /* \"#utility.yul\":38552:38619   */\n      tag_432\n      jump\t// in\n    tag_834:\n        /* \"#utility.yul\":38545:38619   */\n      swap2\n      pop\n        /* \"#utility.yul\":38628:38721   */\n      tag_835\n        /* \"#utility.yul\":38717:38720   */\n      dup3\n        /* \"#utility.yul\":38628:38721   */\n      tag_516\n      jump\t// in\n    tag_835:\n        /* \"#utility.yul\":38746:38748   */\n      0x40\n        /* \"#utility.yul\":38741:38744   */\n      dup3\n        /* \"#utility.yul\":38737:38749   */\n      add\n        /* \"#utility.yul\":38730:38749   */\n      swap1\n      pop\n        /* \"#utility.yul\":38389:38755   */\n      swap2\n      swap1\n      pop\n      jump\t// out\n        /* \"#utility.yul\":38761:39180   */\n    tag_344:\n        /* \"#utility.yul\":38927:38931   */\n      0x00\n        /* \"#utility.yul\":38965:38967   */\n      0x20\n        /* \"#utility.yul\":38954:38963   */\n      dup3\n        /* \"#utility.yul\":38950:38968   */\n      add\n        /* \"#utility.yul\":38942:38968   */\n      swap1\n      pop\n        /* \"#utility.yul\":39014:39023   */\n      dup2\n        /* \"#utility.yul\":39008:39012   */\n      dup2\n        /* \"#utility.yul\":39004:39024   */\n      sub\n        /* \"#utility.yul\":39000:39001   */\n      0x00\n        /* \"#utility.yul\":38989:38998   */\n      dup4\n        /* \"#utility.yul\":38985:39002   */\n      add\n        /* \"#utility.yul\":38978:39025   */\n      mstore\n        /* \"#utility.yul\":39042:39173   */\n      tag_837\n        /* \"#utility.yul\":39168:39172   */\n      dup2\n        /* \"#utility.yul\":39042:39173   */\n      tag_517\n      jump\t// in\n    tag_837:\n        /* \"#utility.yul\":39034:39173   */\n      swap1\n      pop\n        /* \"#utility.yul\":38761:39180   */\n      swap2\n      swap1\n      pop\n      jump\t// out\n        /* \"#utility.yul\":39186:39426   */\n    tag_518:\n        /* \"#utility.yul\":39326:39360   */\n      0x54686520766f74652073657373696f6e20686173206e6f742073746172746564\n        /* \"#utility.yul\":39322:39323   */\n      0x00\n        /* \"#utility.yul\":39314:39320   */\n      dup3\n        /* \"#utility.yul\":39310:39324   */\n      add\n        /* \"#utility.yul\":39303:39361   */\n      mstore\n        /* \"#utility.yul\":39395:39418   */\n      0x206f722068617320616c726561647920656e6465640000000000000000000000\n        /* \"#utility.yul\":39390:39392   */\n      0x20\n        /* \"#utility.yul\":39382:39388   */\n      dup3\n        /* \"#utility.yul\":39378:39393   */\n      add\n        /* \"#utility.yul\":39371:39419   */\n      mstore\n        /* \"#utility.yul\":39186:39426   */\n      pop\n      jump\t// out\n        /* \"#utility.yul\":39432:39798   */\n    tag_519:\n        /* \"#utility.yul\":39574:39577   */\n      0x00\n        /* \"#utility.yul\":39595:39662   */\n      tag_840\n        /* \"#utility.yul\":39659:39661   */\n      0x35\n        /* \"#utility.yul\":39654:39657   */\n      dup4\n        /* \"#utility.yul\":39595:39662   */\n      tag_432\n      jump\t// in\n    tag_840:\n        /* \"#utility.yul\":39588:39662   */\n      swap2\n      pop\n        /* \"#utility.yul\":39671:39764   */\n      tag_841\n        /* \"#utility.yul\":39760:39763   */\n      dup3\n        /* \"#utility.yul\":39671:39764   */\n      tag_518\n      jump\t// in\n    tag_841:\n        /* \"#utility.yul\":39789:39791   */\n      0x40\n        /* \"#utility.yul\":39784:39787   */\n      dup3\n        /* \"#utility.yul\":39780:39792   */\n      add\n        /* \"#utility.yul\":39773:39792   */\n      swap1\n      pop\n        /* \"#utility.yul\":39432:39798   */\n      swap2\n      swap1\n      pop\n      jump\t// out\n        /* \"#utility.yul\":39804:40223   */\n    tag_369:\n        /* \"#utility.yul\":39970:39974   */\n      0x00\n        /* \"#utility.yul\":40008:40010   */\n      0x20\n        /* \"#utility.yul\":39997:40006   */\n      dup3\n        /* \"#utility.yul\":39993:40011   */\n      add\n        /* \"#utility.yul\":39985:40011   */\n      swap1\n      pop\n        /* \"#utility.yul\":40057:40066   */\n      dup2\n        /* \"#utility.yul\":40051:40055   */\n      dup2\n        /* \"#utility.yul\":40047:40067   */\n      sub\n        /* \"#utility.yul\":40043:40044   */\n      0x00\n        /* \"#utility.yul\":40032:40041   */\n      dup4\n        /* \"#utility.yul\":40028:40045   */\n      add\n        /* \"#utility.yul\":40021:40068   */\n      mstore\n        /* \"#utility.yul\":40085:40216   */\n      tag_843\n        /* \"#utility.yul\":40211:40215   */\n      dup2\n        /* \"#utility.yul\":40085:40216   */\n      tag_519\n      jump\t// in\n    tag_843:\n        /* \"#utility.yul\":40077:40216   */\n      swap1\n      pop\n        /* \"#utility.yul\":39804:40223   */\n      swap2\n      swap1\n      pop\n      jump\t// out\n        /* \"#utility.yul\":40229:40407   */\n    tag_520:\n        /* \"#utility.yul\":40369:40399   */\n      0x546865726520617265206e6f20766f7465207265676973746572656400000000\n        /* \"#utility.yul\":40365:40366   */\n      0x00\n        /* \"#utility.yul\":40357:40363   */\n      dup3\n        /* \"#utility.yul\":40353:40367   */\n      add\n        /* \"#utility.yul\":40346:40400   */\n      mstore\n        /* \"#utility.yul\":40229:40407   */\n      pop\n      jump\t// out\n        /* \"#utility.yul\":40413:40779   */\n    tag_521:\n        /* \"#utility.yul\":40555:40558   */\n      0x00\n        /* \"#utility.yul\":40576:40643   */\n      tag_846\n        /* \"#utility.yul\":40640:40642   */\n      0x1c\n        /* \"#utility.yul\":40635:40638   */\n      dup4\n        /* \"#utility.yul\":40576:40643   */\n      tag_432\n      jump\t// in\n    tag_846:\n        /* \"#utility.yul\":40569:40643   */\n      swap2\n      pop\n        /* \"#utility.yul\":40652:40745   */\n      tag_847\n        /* \"#utility.yul\":40741:40744   */\n      dup3\n        /* \"#utility.yul\":40652:40745   */\n      tag_520\n      jump\t// in\n    tag_847:\n        /* \"#utility.yul\":40770:40772   */\n      0x20\n        /* \"#utility.yul\":40765:40768   */\n      dup3\n        /* \"#utility.yul\":40761:40773   */\n      add\n        /* \"#utility.yul\":40754:40773   */\n      swap1\n      pop\n        /* \"#utility.yul\":40413:40779   */\n      swap2\n      swap1\n      pop\n      jump\t// out\n        /* \"#utility.yul\":40785:41204   */\n    tag_372:\n        /* \"#utility.yul\":40951:40955   */\n      0x00\n        /* \"#utility.yul\":40989:40991   */\n      0x20\n        /* \"#utility.yul\":40978:40987   */\n      dup3\n        /* \"#utility.yul\":40974:40992   */\n      add\n        /* \"#utility.yul\":40966:40992   */\n      swap1\n      pop\n        /* \"#utility.yul\":41038:41047   */\n      dup2\n        /* \"#utility.yul\":41032:41036   */\n      dup2\n        /* \"#utility.yul\":41028:41048   */\n      sub\n        /* \"#utility.yul\":41024:41025   */\n      0x00\n        /* \"#utility.yul\":41013:41022   */\n      dup4\n        /* \"#utility.yul\":41009:41026   */\n      add\n        /* \"#utility.yul\":41002:41049   */\n      mstore\n        /* \"#utility.yul\":41066:41197   */\n      tag_849\n        /* \"#utility.yul\":41192:41196   */\n      dup2\n        /* \"#utility.yul\":41066:41197   */\n      tag_521\n      jump\t// in\n    tag_849:\n        /* \"#utility.yul\":41058:41197   */\n      swap1\n      pop\n        /* \"#utility.yul\":40785:41204   */\n      swap2\n      swap1\n      pop\n      jump\t// out\n\n    auxdata: 0xa264697066735822122074921e2334b2d00258dc49c565c90f18ffdbe9430f038a7e8c104d626eb0dc1764736f6c634300081c0033\n}\n",
				"bytecode": {
					"linkReferences": {},
					"object": "60806040525f60035f6101000a81548160ff0219169083600581111561002857610027610185565b5b0217905550600160095534801561003d575f5ffd5b50335f73ffffffffffffffffffffffffffffffffffffffff168173ffffffffffffffffffffffffffffffffffffffff16036100af575f6040517f1e4fbdf70000000000000000000000000000000000000000000000000000000081526004016100a691906101f1565b60405180910390fd5b6100be816100c460201b60201c565b5061020a565b5f5f5f9054906101000a900473ffffffffffffffffffffffffffffffffffffffff169050815f5f6101000a81548173ffffffffffffffffffffffffffffffffffffffff021916908373ffffffffffffffffffffffffffffffffffffffff1602179055508173ffffffffffffffffffffffffffffffffffffffff168173ffffffffffffffffffffffffffffffffffffffff167f8be0079c531659141344cd1fd0a4f28419497f9722a3daafe3b4186f6b6457e060405160405180910390a35050565b7f4e487b71000000000000000000000000000000000000000000000000000000005f52602160045260245ffd5b5f73ffffffffffffffffffffffffffffffffffffffff82169050919050565b5f6101db826101b2565b9050919050565b6101eb816101d1565b82525050565b5f6020820190506102045f8301846101e2565b92915050565b613267806102175f395ff3fe608060405234801561000f575f5ffd5b5060043610610156575f3560e01c8063a3c1885b116100c1578063c08cc02d1161007a578063c08cc02d14610346578063d826f88f14610364578063e06752c21461036e578063e1ab86fb14610378578063f2fde38b14610396578063f74c168d146103b257610156565b8063a3c1885b146102a8578063a3dd2619146102c6578063a46c3637146102e4578063aa98df3914610302578063aaa9834614610332578063ada7415f1461033c57610156565b806362564c481161011357806362564c48146101f657806365f88a7c14610214578063715018a614610232578063805255481461023c5780638da5cb5b1461026c5780639589dfcc1461028a57610156565b80630121b93f1461015a57806311174a291461017657806338db6dd31461019457806343850c2d146101b057806350d072fc146101ce5780635bc46514146101d8575b5f5ffd5b610174600480360381019061016f9190611dc4565b6103bc565b005b61017e610750565b60405161018b9190611dfe565b60405180910390f35b6101ae60048036038101906101a99190611e71565b610759565b005b6101b8610962565b6040516101c59190611f0c565b60405180910390f35b6101d6610a88565b005b6101e0610bfa565b6040516101ed9190611dfe565b60405180910390f35b6101fe610c77565b60405161020b9190612078565b60405180910390f35b61021c610d6c565b604051610229919061210b565b60405180910390f35b61023a610db1565b005b61025660048036038101906102519190611e71565b610dc4565b604051610263919061215e565b60405180910390f35b610274611001565b604051610281919061218d565b60405180910390f35b610292611028565b60405161029f9190611dfe565b60405180910390f35b6102b0611031565b6040516102bd919061215e565b60405180910390f35b6102ce611178565b6040516102db919061210b565b60405180910390f35b6102ec61118d565b6040516102f99190611dfe565b60405180910390f35b61031c600480360381019061031791906122d2565b611196565b6040516103299190611f0c565b60405180910390f35b61033a6113fe565b005b61034461152b565b005b61034e61169e565b60405161035b9190611dfe565b60405180910390f35b61036c6116aa565b005b610376611758565b005b6103806118cd565b60405161038d9190611dfe565b60405180910390f35b6103b060048036038101906103ab9190611e71565b6118d6565b005b6103ba61195a565b005b3373ffffffffffffffffffffffffffffffffffffffff166103db611001565b73ffffffffffffffffffffffffffffffffffffffff16036104485760016008541161043b576040517f08c379a000000000000000000000000000000000000000000000000000000000815260040161043290612389565b60405180910390fd5b60016008819055506105e2565b6003600581111561045c5761045b612098565b5b60035f9054906101000a900460ff16600581111561047d5761047c612098565b5b146104bd576040517f08c379a00000000000000000000000000000000000000000000000000000000081526004016104b490612417565b60405180910390fd5b6001151560015f3373ffffffffffffffffffffffffffffffffffffffff1673ffffffffffffffffffffffffffffffffffffffff1681526020019081526020015f205f015f9054906101000a900460ff1615151461054f576040517f08c379a00000000000000000000000000000000000000000000000000000000081526004016105469061247f565b60405180910390fd5b5f151560015f3373ffffffffffffffffffffffffffffffffffffffff1673ffffffffffffffffffffffffffffffffffffffff1681526020019081526020015f205f0160019054906101000a900460ff161515146105e1576040517f08c379a00000000000000000000000000000000000000000000000000000000081526004016105d8906124e7565b60405180910390fd5b5b6002805490508110610629576040517f08c379a00000000000000000000000000000000000000000000000000000000081526004016106209061254f565b60405180910390fd5b6001805f3373ffffffffffffffffffffffffffffffffffffffff1673ffffffffffffffffffffffffffffffffffffffff1681526020019081526020015f205f0160016101000a81548160ff0219169083151502179055508060015f3373ffffffffffffffffffffffffffffffffffffffff1673ffffffffffffffffffffffffffffffffffffffff1681526020019081526020015f2060010181905550600281815481106106d9576106d861256d565b5b905f5260205f2090600202016001015f8154809291906106f8906125c7565b919050555060065f81548092919061070f906125c7565b91905055507f4d99b957a2bc29a30ebd96a7be8e68fe50a3c701db28a91436490b7d53870ca4338260405161074592919061260e565b60405180910390a150565b5f600554905090565b610761611ad4565b5f600581111561077457610773612098565b5b60035f9054906101000a900460ff16600581111561079557610794612098565b5b146107d5576040517f08c379a00000000000000000000000000000000000000000000000000000000081526004016107cc906126a5565b60405180910390fd5b5f151560015f8373ffffffffffffffffffffffffffffffffffffffff1673ffffffffffffffffffffffffffffffffffffffff1681526020019081526020015f205f015f9054906101000a900460ff16151514610866576040517f08c379a000000000000000000000000000000000000000000000000000000000815260040161085d9061270d565b60405180910390fd5b5f60405180606001604052806001151581526020015f151581526020015f81525090508060015f8473ffffffffffffffffffffffffffffffffffffffff1673ffffffffffffffffffffffffffffffffffffffff1681526020019081526020015f205f820151815f015f6101000a81548160ff0219169083151502179055506020820151815f0160016101000a81548160ff0219169083151502179055506040820151816001015590505060055f815480929190610922906125c7565b91905055507fb6be2187d059cc2a55fe29e0e503b566e1e0f8c8780096e185429350acffd3dd82604051610956919061218d565b60405180910390a15050565b606060058081111561097757610976612098565b5b60035f9054906101000a900460ff16600581111561099857610997612098565b5b146109d8576040517f08c379a00000000000000000000000000000000000000000000000000000000081526004016109cf9061279b565b60405180910390fd5b6002600454815481106109ee576109ed61256d565b5b905f5260205f2090600202015f018054610a07906127e6565b80601f0160208091040260200160405190810160405280929190818152602001828054610a33906127e6565b8015610a7e5780601f10610a5557610100808354040283529160200191610a7e565b820191905f5260205f20905b815481529060010190602001808311610a6157829003601f168201915b5050505050905090565b610a90611ad4565b5f6005811115610aa357610aa2612098565b5b60035f9054906101000a900460ff166005811115610ac457610ac3612098565b5b14610b04576040517f08c379a0000000000000000000000000000000000000000000000000000000008152600401610afb90612886565b60405180910390fd5b600160055411610b49576040517f08c379a0000000000000000000000000000000000000000000000000000000008152600401610b4090612914565b60405180910390fd5b600160035f6101000a81548160ff02191690836005811115610b6e57610b6d612098565b5b02179055507f0a97a4ee45751e2abf3e4fc8946939630b11b371ea8ae39ccdc3056e98f5cc3f600160035f9054906101000a900460ff166005811115610bb757610bb6612098565b5b610bc19190612932565b6005811115610bd357610bd2612098565b5b60035f9054906101000a900460ff16604051610bf0929190612965565b60405180910390a1565b5f600580811115610c0e57610c0d612098565b5b60035f9054906101000a900460ff166005811115610c2f57610c2e612098565b5b14610c6f576040517f08c379a0000000000000000000000000000000000000000000000000000000008152600401610c669061279b565b60405180910390fd5b600454905090565b60606002805480602002602001604051908101604052809291908181526020015f905b82821015610d63578382905f5260205f2090600202016040518060400160405290815f82018054610cca906127e6565b80601f0160208091040260200160405190810160405280929190818152602001828054610cf6906127e6565b8015610d415780601f10610d1857610100808354040283529160200191610d41565b820191905f5260205f20905b815481529060010190602001808311610d2457829003601f168201915b5050505050815260200160018201548152505081526020019060010190610c9a565b50505050905090565b5f600160035f9054906101000a900460ff166005811115610d9057610d8f612098565b5b610d9a9190612932565b6005811115610dac57610dab612098565b5b905090565b610db9611ad4565b610dc25f611b5b565b565b610dcc611cc2565b6001151560015f8473ffffffffffffffffffffffffffffffffffffffff1673ffffffffffffffffffffffffffffffffffffffff1681526020019081526020015f205f015f9054906101000a900460ff16151514610e5e576040517f08c379a0000000000000000000000000000000000000000000000000000000008152600401610e55906129d6565b60405180910390fd5b6001151560015f8473ffffffffffffffffffffffffffffffffffffffff1673ffffffffffffffffffffffffffffffffffffffff1681526020019081526020015f205f0160019054906101000a900460ff16151514610ef1576040517f08c379a0000000000000000000000000000000000000000000000000000000008152600401610ee890612a3e565b60405180910390fd5b5f60015f8473ffffffffffffffffffffffffffffffffffffffff1673ffffffffffffffffffffffffffffffffffffffff1681526020019081526020015f2060010154905060028181548110610f4957610f4861256d565b5b905f5260205f2090600202016040518060400160405290815f82018054610f6f906127e6565b80601f0160208091040260200160405190810160405280929190818152602001828054610f9b906127e6565b8015610fe65780601f10610fbd57610100808354040283529160200191610fe6565b820191905f5260205f20905b815481529060010190602001808311610fc957829003601f168201915b50505050508152602001600182015481525050915050919050565b5f5f5f9054906101000a900473ffffffffffffffffffffffffffffffffffffffff16905090565b5f600954905090565b611039611cc2565b60058081111561104c5761104b612098565b5b60035f9054906101000a900460ff16600581111561106d5761106c612098565b5b146110ad576040517f08c379a00000000000000000000000000000000000000000000000000000000081526004016110a49061279b565b60405180910390fd5b6002600454815481106110c3576110c261256d565b5b905f5260205f2090600202016040518060400160405290815f820180546110e9906127e6565b80601f0160208091040260200160405190810160405280929190818152602001828054611115906127e6565b80156111605780601f1061113757610100808354040283529160200191611160565b820191905f5260205f20905b81548152906001019060200180831161114357829003601f168201915b50505050508152602001600182015481525050905090565b5f60035f9054906101000a900460ff16905090565b5f600854905090565b6060600160058111156111ac576111ab612098565b5b60035f9054906101000a900460ff1660058111156111cd576111cc612098565b5b1461120d576040517f08c379a000000000000000000000000000000000000000000000000000000000815260040161120490612acc565b60405180910390fd5b3373ffffffffffffffffffffffffffffffffffffffff1661122c611001565b73ffffffffffffffffffffffffffffffffffffffff1603611282576040517f08c379a000000000000000000000000000000000000000000000000000000000815260040161127990612b5a565b60405180910390fd5b6001151560015f3373ffffffffffffffffffffffffffffffffffffffff1673ffffffffffffffffffffffffffffffffffffffff1681526020019081526020015f205f015f9054906101000a900460ff16151514611314576040517f08c379a000000000000000000000000000000000000000000000000000000000815260040161130b9061247f565b60405180910390fd5b600260405180604001604052808481526020015f815250908060018154018082558091505060019003905f5260205f2090600202015f909190919091505f820151815f0190816113649190612d18565b5060208201518160010155505060075f815480929190611383906125c7565b91905055507f92e393e9b54e2f801d3ea4beb0c5e71a21cc34a5d34b77d0fb8a3aa1650dc18f6007546040516113b99190611dfe565b60405180910390a16040518060400160405280601681526020017f4f6b2070726f706f73616c2072656769737465726564000000000000000000008152509050919050565b611406611ad4565b6002600581111561141a57611419612098565b5b60035f9054906101000a900460ff16600581111561143b5761143a612098565b5b1461147b576040517f08c379a000000000000000000000000000000000000000000000000000000000815260040161147290612e7d565b60405180910390fd5b6003805f6101000a81548160ff0219169083600581111561149f5761149e612098565b5b02179055507f0a97a4ee45751e2abf3e4fc8946939630b11b371ea8ae39ccdc3056e98f5cc3f600160035f9054906101000a900460ff1660058111156114e8576114e7612098565b5b6114f29190612932565b600581111561150457611503612098565b5b60035f9054906101000a900460ff16604051611521929190612965565b60405180910390a1565b611533611ad4565b6004600581111561154757611546612098565b5b60035f9054906101000a900460ff16600581111561156857611567612098565b5b146115a8576040517f08c379a000000000000000000000000000000000000000000000000000000000815260040161159f90612ee5565b60405180910390fd5b6001600854146115ed576040517f08c379a00000000000000000000000000000000000000000000000000000000081526004016115e490612f73565b60405180910390fd5b600560035f6101000a81548160ff0219169083600581111561161257611611612098565b5b02179055507f0a97a4ee45751e2abf3e4fc8946939630b11b371ea8ae39ccdc3056e98f5cc3f600160035f9054906101000a900460ff16600581111561165b5761165a612098565b5b6116659190612932565b600581111561167757611676612098565b5b60035f9054906101000a900460ff16604051611694929190612965565b60405180910390a1565b5f600280549050905090565b6116b2611ad4565b6005808111156116c5576116c4612098565b5b60035f9054906101000a900460ff1660058111156116e6576116e5612098565b5b14611726576040517f08c379a000000000000000000000000000000000000000000000000000000000815260040161171d90613001565b60405180910390fd5b60025f6117339190611cdb565b5f6008819055505f6004819055505f6005819055505f6006819055505f600781905550565b611760611ad4565b6001600581111561177457611773612098565b5b60035f9054906101000a900460ff16600581111561179557611794612098565b5b146117d5576040517f08c379a00000000000000000000000000000000000000000000000000000000081526004016117cc9061308f565b60405180910390fd5b5f6002805490501161181c576040517f08c379a00000000000000000000000000000000000000000000000000000000081526004016118139061311d565b60405180910390fd5b600260035f6101000a81548160ff0219169083600581111561184157611840612098565b5b02179055507f0a97a4ee45751e2abf3e4fc8946939630b11b371ea8ae39ccdc3056e98f5cc3f600160035f9054906101000a900460ff16600581111561188a57611889612098565b5b6118949190612932565b60058111156118a6576118a5612098565b5b60035f9054906101000a900460ff166040516118c3929190612965565b60405180910390a1565b5f600654905090565b6118de611ad4565b5f73ffffffffffffffffffffffffffffffffffffffff168173ffffffffffffffffffffffffffffffffffffffff160361194e575f6040517f1e4fbdf7000000000000000000000000000000000000000000000000000000008152600401611945919061218d565b60405180910390fd5b61195781611b5b565b50565b611962611ad4565b6003600581111561197657611975612098565b5b60035f9054906101000a900460ff16600581111561199757611996612098565b5b146119d7576040517f08c379a00000000000000000000000000000000000000000000000000000000081526004016119ce906131ab565b60405180910390fd5b5f60065411611a1b576040517f08c379a0000000000000000000000000000000000000000000000000000000008152600401611a1290613213565b60405180910390fd5b600460035f6101000a81548160ff02191690836005811115611a4057611a3f612098565b5b0217905550611a4d611c1c565b7f0a97a4ee45751e2abf3e4fc8946939630b11b371ea8ae39ccdc3056e98f5cc3f600160035f9054906101000a900460ff166005811115611a9157611a90612098565b5b611a9b9190612932565b6005811115611aad57611aac612098565b5b60035f9054906101000a900460ff16604051611aca929190612965565b60405180910390a1565b611adc611cbb565b73ffffffffffffffffffffffffffffffffffffffff16611afa611001565b73ffffffffffffffffffffffffffffffffffffffff1614611b5957611b1d611cbb565b6040517f118cdaa7000000000000000000000000000000000000000000000000000000008152600401611b50919061218d565b60405180910390fd5b565b5f5f5f9054906101000a900473ffffffffffffffffffffffffffffffffffffffff169050815f5f6101000a81548173ffffffffffffffffffffffffffffffffffffffff021916908373ffffffffffffffffffffffffffffffffffffffff1602179055508173ffffffffffffffffffffffffffffffffffffffff168173ffffffffffffffffffffffffffffffffffffffff167f8be0079c531659141344cd1fd0a4f28419497f9722a3daafe3b4186f6b6457e060405160405180910390a35050565b611c24611ad4565b5f5f90505b600280549050811015611cb85760095460028281548110611c4d57611c4c61256d565b5b905f5260205f2090600202016001015410611cab5760028181548110611c7657611c7561256d565b5b905f5260205f209060020201600101546009819055508060048190555060085f815480929190611ca5906125c7565b91905055505b8080600101915050611c29565b50565b5f33905090565b6040518060400160405280606081526020015f81525090565b5080545f8255600202905f5260205f2090810190611cf99190611cfc565b50565b5b80821115611d24575f5f82015f611d149190611d28565b600182015f905550600201611cfd565b5090565b508054611d34906127e6565b5f825580601f10611d455750611d62565b601f0160209004905f5260205f2090810190611d619190611d65565b5b50565b5b80821115611d7c575f815f905550600101611d66565b5090565b5f604051905090565b5f5ffd5b5f5ffd5b5f819050919050565b611da381611d91565b8114611dad575f5ffd5b50565b5f81359050611dbe81611d9a565b92915050565b5f60208284031215611dd957611dd8611d89565b5b5f611de684828501611db0565b91505092915050565b611df881611d91565b82525050565b5f602082019050611e115f830184611def565b92915050565b5f73ffffffffffffffffffffffffffffffffffffffff82169050919050565b5f611e4082611e17565b9050919050565b611e5081611e36565b8114611e5a575f5ffd5b50565b5f81359050611e6b81611e47565b92915050565b5f60208284031215611e8657611e85611d89565b5b5f611e9384828501611e5d565b91505092915050565b5f81519050919050565b5f82825260208201905092915050565b8281835e5f83830152505050565b5f601f19601f8301169050919050565b5f611ede82611e9c565b611ee88185611ea6565b9350611ef8818560208601611eb6565b611f0181611ec4565b840191505092915050565b5f6020820190508181035f830152611f248184611ed4565b905092915050565b5f81519050919050565b5f82825260208201905092915050565b5f819050602082019050919050565b5f82825260208201905092915050565b5f611f6f82611e9c565b611f798185611f55565b9350611f89818560208601611eb6565b611f9281611ec4565b840191505092915050565b611fa681611d91565b82525050565b5f604083015f8301518482035f860152611fc68282611f65565b9150506020830151611fdb6020860182611f9d565b508091505092915050565b5f611ff18383611fac565b905092915050565b5f602082019050919050565b5f61200f82611f2c565b6120198185611f36565b93508360208202850161202b85611f46565b805f5b8581101561206657848403895281516120478582611fe6565b945061205283611ff9565b925060208a0199505060018101905061202e565b50829750879550505050505092915050565b5f6020820190508181035f8301526120908184612005565b905092915050565b7f4e487b71000000000000000000000000000000000000000000000000000000005f52602160045260245ffd5b600681106120d6576120d5612098565b5b50565b5f8190506120e6826120c5565b919050565b5f6120f5826120d9565b9050919050565b612105816120eb565b82525050565b5f60208201905061211e5f8301846120fc565b92915050565b5f604083015f8301518482035f86015261213e8282611f65565b91505060208301516121536020860182611f9d565b508091505092915050565b5f6020820190508181035f8301526121768184612124565b905092915050565b61218781611e36565b82525050565b5f6020820190506121a05f83018461217e565b92915050565b5f5ffd5b5f5ffd5b7f4e487b71000000000000000000000000000000000000000000000000000000005f52604160045260245ffd5b6121e482611ec4565b810181811067ffffffffffffffff82111715612203576122026121ae565b5b80604052505050565b5f612215611d80565b905061222182826121db565b919050565b5f67ffffffffffffffff8211156122405761223f6121ae565b5b61224982611ec4565b9050602081019050919050565b828183375f83830152505050565b5f61227661227184612226565b61220c565b905082815260208101848484011115612292576122916121aa565b5b61229d848285612256565b509392505050565b5f82601f8301126122b9576122b86121a6565b5b81356122c9848260208601612264565b91505092915050565b5f602082840312156122e7576122e6611d89565b5b5f82013567ffffffffffffffff81111561230457612303611d8d565b5b612310848285016122a5565b91505092915050565b7f596f752063616e206f6e6c7920766f7465206966207468657265206973206d6f5f8201527f7265207468616e20312077696e6e657200000000000000000000000000000000602082015250565b5f612373603083611ea6565b915061237e82612319565b604082019050919050565b5f6020820190508181035f8301526123a081612367565b9050919050565b7f54686520766f74696e672073657373696f6e206973206e6f74207374617274655f8201527f6400000000000000000000000000000000000000000000000000000000000000602082015250565b5f612401602183611ea6565b915061240c826123a7565b604082019050919050565b5f6020820190508181035f83015261242e816123f5565b9050919050565b7f596f7520617265206e6f742072656769737465726564000000000000000000005f82015250565b5f612469601683611ea6565b915061247482612435565b602082019050919050565b5f6020820190508181035f8301526124968161245d565b9050919050565b7f596f7520616c726561647920766f7465640000000000000000000000000000005f82015250565b5f6124d1601183611ea6565b91506124dc8261249d565b602082019050919050565b5f6020820190508181035f8301526124fe816124c5565b9050919050565b7f546869732070726f706f73616c20494420646f6573206e6f74206578697374735f82015250565b5f612539602083611ea6565b915061254482612505565b602082019050919050565b5f6020820190508181035f8301526125668161252d565b9050919050565b7f4e487b71000000000000000000000000000000000000000000000000000000005f52603260045260245ffd5b7f4e487b71000000000000000000000000000000000000000000000000000000005f52601160045260245ffd5b5f6125d182611d91565b91507fffffffffffffffffffffffffffffffffffffffffffffffffffffffffffffffff82036126035761260261259a565b5b600182019050919050565b5f6040820190506126215f83018561217e565b61262e6020830184611def565b9392505050565b7f596f7520617265206e6f7420696e20766f74657220726567697374726174696f5f8201527f6e20706572696f64000000000000000000000000000000000000000000000000602082015250565b5f61268f602883611ea6565b915061269a82612635565b604082019050919050565b5f6020820190508181035f8301526126bc81612683565b9050919050565b7f596f7520616c72656164792068617665206164642074686973206164726573735f82015250565b5f6126f7602083611ea6565b9150612702826126c3565b602082019050919050565b5f6020820190508181035f830152612724816126eb565b9050919050565b7f5468652077696e6e65722068617665206e6f74206265656e2063686f6f73656e5f8201527f2079657400000000000000000000000000000000000000000000000000000000602082015250565b5f612785602483611ea6565b91506127908261272b565b604082019050919050565b5f6020820190508181035f8301526127b281612779565b9050919050565b7f4e487b71000000000000000000000000000000000000000000000000000000005f52602260045260245ffd5b5f60028204905060018216806127fd57607f821691505b6020821081036128105761280f6127b9565b5b50919050565b7f596f752063616e206e6f7420737461727420616761696e207468652070726f705f8201527f6f73616c2073657373696f6e0000000000000000000000000000000000000000602082015250565b5f612870602c83611ea6565b915061287b82612816565b604082019050919050565b5f6020820190508181035f83015261289d81612864565b9050919050565b7f596f75206d757374207265676973746572206174206c656173742032206164645f8201527f7265737365730000000000000000000000000000000000000000000000000000602082015250565b5f6128fe602683611ea6565b9150612909826128a4565b604082019050919050565b5f6020820190508181035f83015261292b816128f2565b9050919050565b5f61293c82611d91565b915061294783611d91565b925082820390508181111561295f5761295e61259a565b5b92915050565b5f6040820190506129785f8301856120fc565b61298560208301846120fc565b9392505050565b7f546869732061646472657373206973206e6f74207265676973746572656400005f82015250565b5f6129c0601e83611ea6565b91506129cb8261298c565b602082019050919050565b5f6020820190508181035f8301526129ed816129b4565b9050919050565b7f54686973206164647265737320686173206e6f7420766f7465640000000000005f82015250565b5f612a28601a83611ea6565b9150612a33826129f4565b602082019050919050565b5f6020820190508181035f830152612a5581612a1c565b9050919050565b7f5468652070726f706f73616c2073657373696f6e206973206e6f7420737461725f8201527f7465640000000000000000000000000000000000000000000000000000000000602082015250565b5f612ab6602383611ea6565b9150612ac182612a5c565b604082019050919050565b5f6020820190508181035f830152612ae381612aaa565b9050919050565b7f596f752061726520746865206f776e6572206f66207468697320636f6e7472615f8201527f63742c20796f752063616e206e6f742070726f706f7365000000000000000000602082015250565b5f612b44603783611ea6565b9150612b4f82612aea565b604082019050919050565b5f6020820190508181035f830152612b7181612b38565b9050919050565b5f819050815f5260205f209050919050565b5f6020601f8301049050919050565b5f82821b905092915050565b5f60088302612bd47fffffffffffffffffffffffffffffffffffffffffffffffffffffffffffffffff82612b99565b612bde8683612b99565b95508019841693508086168417925050509392505050565b5f819050919050565b5f612c19612c14612c0f84611d91565b612bf6565b611d91565b9050919050565b5f819050919050565b612c3283612bff565b612c46612c3e82612c20565b848454612ba5565b825550505050565b5f5f905090565b612c5d612c4e565b612c68818484612c29565b505050565b5b81811015612c8b57612c805f82612c55565b600181019050612c6e565b5050565b601f821115612cd057612ca181612b78565b612caa84612b8a565b81016020851015612cb9578190505b612ccd612cc585612b8a565b830182612c6d565b50505b505050565b5f82821c905092915050565b5f612cf05f1984600802612cd5565b1980831691505092915050565b5f612d088383612ce1565b9150826002028217905092915050565b612d2182611e9c565b67ffffffffffffffff811115612d3a57612d396121ae565b5b612d4482546127e6565b612d4f828285612c8f565b5f60209050601f831160018114612d80575f8415612d6e578287015190505b612d788582612cfd565b865550612ddf565b601f198416612d8e86612b78565b5f5b82811015612db557848901518255600182019150602085019450602081019050612d90565b86831015612dd25784890151612dce601f891682612ce1565b8355505b6001600288020188555050505b505050505050565b7f5468652070726f706f73616c2073657373696f6e206973206e6f7420656e64655f8201527f64206f722074686520766f74652073657373696f6e2068617320616c7265616460208201527f7920737461727465640000000000000000000000000000000000000000000000604082015250565b5f612e67604983611ea6565b9150612e7282612de7565b606082019050919050565b5f6020820190508181035f830152612e9481612e5b565b9050919050565b7f54686520766f74652073657373696f6e206973206e6f7420656e6465640000005f82015250565b5f612ecf601d83611ea6565b9150612eda82612e9b565b602082019050919050565b5f6020820190508181035f830152612efc81612ec3565b9050919050565b7f5468657265206973206d6f7265207468616e20312077696e6e65722c20796f755f8201527f206861766520746f20766f746500000000000000000000000000000000000000602082015250565b5f612f5d602d83611ea6565b9150612f6882612f03565b604082019050919050565b5f6020820190508181035f830152612f8a81612f51565b9050919050565b7f546865206c61737420766f746520686173206e6f74206265656e2074616c6c695f8201527f6564000000000000000000000000000000000000000000000000000000000000602082015250565b5f612feb602283611ea6565b9150612ff682612f91565b604082019050919050565b5f6020820190508181035f83015261301881612fdf565b9050919050565b7f5468652070726f706f73616c2073657373696f6e20686173206e6f74207374615f8201527f72746564206f722068617320616c7265616479206265656e20656e6465640000602082015250565b5f613079603e83611ea6565b91506130848261301f565b604082019050919050565b5f6020820190508181035f8301526130a68161306d565b9050919050565b7f546865726520617265206e6f2070726f706f73616c73207265676973746572655f8201527f6400000000000000000000000000000000000000000000000000000000000000602082015250565b5f613107602183611ea6565b9150613112826130ad565b604082019050919050565b5f6020820190508181035f830152613134816130fb565b9050919050565b7f54686520766f74652073657373696f6e20686173206e6f7420737461727465645f8201527f206f722068617320616c726561647920656e6465640000000000000000000000602082015250565b5f613195603583611ea6565b91506131a08261313b565b604082019050919050565b5f6020820190508181035f8301526131c281613189565b9050919050565b7f546865726520617265206e6f20766f74652072656769737465726564000000005f82015250565b5f6131fd601c83611ea6565b9150613208826131c9565b602082019050919050565b5f6020820190508181035f83015261322a816131f1565b905091905056fea264697066735822122074921e2334b2d00258dc49c565c90f18ffdbe9430f038a7e8c104d626eb0dc1764736f6c634300081c0033",
					"opcodes": "PUSH1 0x80 PUSH1 0x40 MSTORE PUSH0 PUSH1 0x3 PUSH0 PUSH2 0x100 EXP DUP2 SLOAD DUP2 PUSH1 0xFF MUL NOT AND SWAP1 DUP4 PUSH1 0x5 DUP2 GT ISZERO PUSH2 0x28 JUMPI PUSH2 0x27 PUSH2 0x185 JUMP JUMPDEST JUMPDEST MUL OR SWAP1 SSTORE POP PUSH1 0x1 PUSH1 0x9 SSTORE CALLVALUE DUP1 ISZERO PUSH2 0x3D JUMPI PUSH0 PUSH0 REVERT JUMPDEST POP CALLER PUSH0 PUSH20 0xFFFFFFFFFFFFFFFFFFFFFFFFFFFFFFFFFFFFFFFF AND DUP2 PUSH20 0xFFFFFFFFFFFFFFFFFFFFFFFFFFFFFFFFFFFFFFFF AND SUB PUSH2 0xAF JUMPI PUSH0 PUSH1 0x40 MLOAD PUSH32 0x1E4FBDF700000000000000000000000000000000000000000000000000000000 DUP2 MSTORE PUSH1 0x4 ADD PUSH2 0xA6 SWAP2 SWAP1 PUSH2 0x1F1 JUMP JUMPDEST PUSH1 0x40 MLOAD DUP1 SWAP2 SUB SWAP1 REVERT JUMPDEST PUSH2 0xBE DUP2 PUSH2 0xC4 PUSH1 0x20 SHL PUSH1 0x20 SHR JUMP JUMPDEST POP PUSH2 0x20A JUMP JUMPDEST PUSH0 PUSH0 PUSH0 SWAP1 SLOAD SWAP1 PUSH2 0x100 EXP SWAP1 DIV PUSH20 0xFFFFFFFFFFFFFFFFFFFFFFFFFFFFFFFFFFFFFFFF AND SWAP1 POP DUP2 PUSH0 PUSH0 PUSH2 0x100 EXP DUP2 SLOAD DUP2 PUSH20 0xFFFFFFFFFFFFFFFFFFFFFFFFFFFFFFFFFFFFFFFF MUL NOT AND SWAP1 DUP4 PUSH20 0xFFFFFFFFFFFFFFFFFFFFFFFFFFFFFFFFFFFFFFFF AND MUL OR SWAP1 SSTORE POP DUP2 PUSH20 0xFFFFFFFFFFFFFFFFFFFFFFFFFFFFFFFFFFFFFFFF AND DUP2 PUSH20 0xFFFFFFFFFFFFFFFFFFFFFFFFFFFFFFFFFFFFFFFF AND PUSH32 0x8BE0079C531659141344CD1FD0A4F28419497F9722A3DAAFE3B4186F6B6457E0 PUSH1 0x40 MLOAD PUSH1 0x40 MLOAD DUP1 SWAP2 SUB SWAP1 LOG3 POP POP JUMP JUMPDEST PUSH32 0x4E487B7100000000000000000000000000000000000000000000000000000000 PUSH0 MSTORE PUSH1 0x21 PUSH1 0x4 MSTORE PUSH1 0x24 PUSH0 REVERT JUMPDEST PUSH0 PUSH20 0xFFFFFFFFFFFFFFFFFFFFFFFFFFFFFFFFFFFFFFFF DUP3 AND SWAP1 POP SWAP2 SWAP1 POP JUMP JUMPDEST PUSH0 PUSH2 0x1DB DUP3 PUSH2 0x1B2 JUMP JUMPDEST SWAP1 POP SWAP2 SWAP1 POP JUMP JUMPDEST PUSH2 0x1EB DUP2 PUSH2 0x1D1 JUMP JUMPDEST DUP3 MSTORE POP POP JUMP JUMPDEST PUSH0 PUSH1 0x20 DUP3 ADD SWAP1 POP PUSH2 0x204 PUSH0 DUP4 ADD DUP5 PUSH2 0x1E2 JUMP JUMPDEST SWAP3 SWAP2 POP POP JUMP JUMPDEST PUSH2 0x3267 DUP1 PUSH2 0x217 PUSH0 CODECOPY PUSH0 RETURN INVALID PUSH1 0x80 PUSH1 0x40 MSTORE CALLVALUE DUP1 ISZERO PUSH2 0xF JUMPI PUSH0 PUSH0 REVERT JUMPDEST POP PUSH1 0x4 CALLDATASIZE LT PUSH2 0x156 JUMPI PUSH0 CALLDATALOAD PUSH1 0xE0 SHR DUP1 PUSH4 0xA3C1885B GT PUSH2 0xC1 JUMPI DUP1 PUSH4 0xC08CC02D GT PUSH2 0x7A JUMPI DUP1 PUSH4 0xC08CC02D EQ PUSH2 0x346 JUMPI DUP1 PUSH4 0xD826F88F EQ PUSH2 0x364 JUMPI DUP1 PUSH4 0xE06752C2 EQ PUSH2 0x36E JUMPI DUP1 PUSH4 0xE1AB86FB EQ PUSH2 0x378 JUMPI DUP1 PUSH4 0xF2FDE38B EQ PUSH2 0x396 JUMPI DUP1 PUSH4 0xF74C168D EQ PUSH2 0x3B2 JUMPI PUSH2 0x156 JUMP JUMPDEST DUP1 PUSH4 0xA3C1885B EQ PUSH2 0x2A8 JUMPI DUP1 PUSH4 0xA3DD2619 EQ PUSH2 0x2C6 JUMPI DUP1 PUSH4 0xA46C3637 EQ PUSH2 0x2E4 JUMPI DUP1 PUSH4 0xAA98DF39 EQ PUSH2 0x302 JUMPI DUP1 PUSH4 0xAAA98346 EQ PUSH2 0x332 JUMPI DUP1 PUSH4 0xADA7415F EQ PUSH2 0x33C JUMPI PUSH2 0x156 JUMP JUMPDEST DUP1 PUSH4 0x62564C48 GT PUSH2 0x113 JUMPI DUP1 PUSH4 0x62564C48 EQ PUSH2 0x1F6 JUMPI DUP1 PUSH4 0x65F88A7C EQ PUSH2 0x214 JUMPI DUP1 PUSH4 0x715018A6 EQ PUSH2 0x232 JUMPI DUP1 PUSH4 0x80525548 EQ PUSH2 0x23C JUMPI DUP1 PUSH4 0x8DA5CB5B EQ PUSH2 0x26C JUMPI DUP1 PUSH4 0x9589DFCC EQ PUSH2 0x28A JUMPI PUSH2 0x156 JUMP JUMPDEST DUP1 PUSH4 0x121B93F EQ PUSH2 0x15A JUMPI DUP1 PUSH4 0x11174A29 EQ PUSH2 0x176 JUMPI DUP1 PUSH4 0x38DB6DD3 EQ PUSH2 0x194 JUMPI DUP1 PUSH4 0x43850C2D EQ PUSH2 0x1B0 JUMPI DUP1 PUSH4 0x50D072FC EQ PUSH2 0x1CE JUMPI DUP1 PUSH4 0x5BC46514 EQ PUSH2 0x1D8 JUMPI JUMPDEST PUSH0 PUSH0 REVERT JUMPDEST PUSH2 0x174 PUSH1 0x4 DUP1 CALLDATASIZE SUB DUP2 ADD SWAP1 PUSH2 0x16F SWAP2 SWAP1 PUSH2 0x1DC4 JUMP JUMPDEST PUSH2 0x3BC JUMP JUMPDEST STOP JUMPDEST PUSH2 0x17E PUSH2 0x750 JUMP JUMPDEST PUSH1 0x40 MLOAD PUSH2 0x18B SWAP2 SWAP1 PUSH2 0x1DFE JUMP JUMPDEST PUSH1 0x40 MLOAD DUP1 SWAP2 SUB SWAP1 RETURN JUMPDEST PUSH2 0x1AE PUSH1 0x4 DUP1 CALLDATASIZE SUB DUP2 ADD SWAP1 PUSH2 0x1A9 SWAP2 SWAP1 PUSH2 0x1E71 JUMP JUMPDEST PUSH2 0x759 JUMP JUMPDEST STOP JUMPDEST PUSH2 0x1B8 PUSH2 0x962 JUMP JUMPDEST PUSH1 0x40 MLOAD PUSH2 0x1C5 SWAP2 SWAP1 PUSH2 0x1F0C JUMP JUMPDEST PUSH1 0x40 MLOAD DUP1 SWAP2 SUB SWAP1 RETURN JUMPDEST PUSH2 0x1D6 PUSH2 0xA88 JUMP JUMPDEST STOP JUMPDEST PUSH2 0x1E0 PUSH2 0xBFA JUMP JUMPDEST PUSH1 0x40 MLOAD PUSH2 0x1ED SWAP2 SWAP1 PUSH2 0x1DFE JUMP JUMPDEST PUSH1 0x40 MLOAD DUP1 SWAP2 SUB SWAP1 RETURN JUMPDEST PUSH2 0x1FE PUSH2 0xC77 JUMP JUMPDEST PUSH1 0x40 MLOAD PUSH2 0x20B SWAP2 SWAP1 PUSH2 0x2078 JUMP JUMPDEST PUSH1 0x40 MLOAD DUP1 SWAP2 SUB SWAP1 RETURN JUMPDEST PUSH2 0x21C PUSH2 0xD6C JUMP JUMPDEST PUSH1 0x40 MLOAD PUSH2 0x229 SWAP2 SWAP1 PUSH2 0x210B JUMP JUMPDEST PUSH1 0x40 MLOAD DUP1 SWAP2 SUB SWAP1 RETURN JUMPDEST PUSH2 0x23A PUSH2 0xDB1 JUMP JUMPDEST STOP JUMPDEST PUSH2 0x256 PUSH1 0x4 DUP1 CALLDATASIZE SUB DUP2 ADD SWAP1 PUSH2 0x251 SWAP2 SWAP1 PUSH2 0x1E71 JUMP JUMPDEST PUSH2 0xDC4 JUMP JUMPDEST PUSH1 0x40 MLOAD PUSH2 0x263 SWAP2 SWAP1 PUSH2 0x215E JUMP JUMPDEST PUSH1 0x40 MLOAD DUP1 SWAP2 SUB SWAP1 RETURN JUMPDEST PUSH2 0x274 PUSH2 0x1001 JUMP JUMPDEST PUSH1 0x40 MLOAD PUSH2 0x281 SWAP2 SWAP1 PUSH2 0x218D JUMP JUMPDEST PUSH1 0x40 MLOAD DUP1 SWAP2 SUB SWAP1 RETURN JUMPDEST PUSH2 0x292 PUSH2 0x1028 JUMP JUMPDEST PUSH1 0x40 MLOAD PUSH2 0x29F SWAP2 SWAP1 PUSH2 0x1DFE JUMP JUMPDEST PUSH1 0x40 MLOAD DUP1 SWAP2 SUB SWAP1 RETURN JUMPDEST PUSH2 0x2B0 PUSH2 0x1031 JUMP JUMPDEST PUSH1 0x40 MLOAD PUSH2 0x2BD SWAP2 SWAP1 PUSH2 0x215E JUMP JUMPDEST PUSH1 0x40 MLOAD DUP1 SWAP2 SUB SWAP1 RETURN JUMPDEST PUSH2 0x2CE PUSH2 0x1178 JUMP JUMPDEST PUSH1 0x40 MLOAD PUSH2 0x2DB SWAP2 SWAP1 PUSH2 0x210B JUMP JUMPDEST PUSH1 0x40 MLOAD DUP1 SWAP2 SUB SWAP1 RETURN JUMPDEST PUSH2 0x2EC PUSH2 0x118D JUMP JUMPDEST PUSH1 0x40 MLOAD PUSH2 0x2F9 SWAP2 SWAP1 PUSH2 0x1DFE JUMP JUMPDEST PUSH1 0x40 MLOAD DUP1 SWAP2 SUB SWAP1 RETURN JUMPDEST PUSH2 0x31C PUSH1 0x4 DUP1 CALLDATASIZE SUB DUP2 ADD SWAP1 PUSH2 0x317 SWAP2 SWAP1 PUSH2 0x22D2 JUMP JUMPDEST PUSH2 0x1196 JUMP JUMPDEST PUSH1 0x40 MLOAD PUSH2 0x329 SWAP2 SWAP1 PUSH2 0x1F0C JUMP JUMPDEST PUSH1 0x40 MLOAD DUP1 SWAP2 SUB SWAP1 RETURN JUMPDEST PUSH2 0x33A PUSH2 0x13FE JUMP JUMPDEST STOP JUMPDEST PUSH2 0x344 PUSH2 0x152B JUMP JUMPDEST STOP JUMPDEST PUSH2 0x34E PUSH2 0x169E JUMP JUMPDEST PUSH1 0x40 MLOAD PUSH2 0x35B SWAP2 SWAP1 PUSH2 0x1DFE JUMP JUMPDEST PUSH1 0x40 MLOAD DUP1 SWAP2 SUB SWAP1 RETURN JUMPDEST PUSH2 0x36C PUSH2 0x16AA JUMP JUMPDEST STOP JUMPDEST PUSH2 0x376 PUSH2 0x1758 JUMP JUMPDEST STOP JUMPDEST PUSH2 0x380 PUSH2 0x18CD JUMP JUMPDEST PUSH1 0x40 MLOAD PUSH2 0x38D SWAP2 SWAP1 PUSH2 0x1DFE JUMP JUMPDEST PUSH1 0x40 MLOAD DUP1 SWAP2 SUB SWAP1 RETURN JUMPDEST PUSH2 0x3B0 PUSH1 0x4 DUP1 CALLDATASIZE SUB DUP2 ADD SWAP1 PUSH2 0x3AB SWAP2 SWAP1 PUSH2 0x1E71 JUMP JUMPDEST PUSH2 0x18D6 JUMP JUMPDEST STOP JUMPDEST PUSH2 0x3BA PUSH2 0x195A JUMP JUMPDEST STOP JUMPDEST CALLER PUSH20 0xFFFFFFFFFFFFFFFFFFFFFFFFFFFFFFFFFFFFFFFF AND PUSH2 0x3DB PUSH2 0x1001 JUMP JUMPDEST PUSH20 0xFFFFFFFFFFFFFFFFFFFFFFFFFFFFFFFFFFFFFFFF AND SUB PUSH2 0x448 JUMPI PUSH1 0x1 PUSH1 0x8 SLOAD GT PUSH2 0x43B JUMPI PUSH1 0x40 MLOAD PUSH32 0x8C379A000000000000000000000000000000000000000000000000000000000 DUP2 MSTORE PUSH1 0x4 ADD PUSH2 0x432 SWAP1 PUSH2 0x2389 JUMP JUMPDEST PUSH1 0x40 MLOAD DUP1 SWAP2 SUB SWAP1 REVERT JUMPDEST PUSH1 0x1 PUSH1 0x8 DUP2 SWAP1 SSTORE POP PUSH2 0x5E2 JUMP JUMPDEST PUSH1 0x3 PUSH1 0x5 DUP2 GT ISZERO PUSH2 0x45C JUMPI PUSH2 0x45B PUSH2 0x2098 JUMP JUMPDEST JUMPDEST PUSH1 0x3 PUSH0 SWAP1 SLOAD SWAP1 PUSH2 0x100 EXP SWAP1 DIV PUSH1 0xFF AND PUSH1 0x5 DUP2 GT ISZERO PUSH2 0x47D JUMPI PUSH2 0x47C PUSH2 0x2098 JUMP JUMPDEST JUMPDEST EQ PUSH2 0x4BD JUMPI PUSH1 0x40 MLOAD PUSH32 0x8C379A000000000000000000000000000000000000000000000000000000000 DUP2 MSTORE PUSH1 0x4 ADD PUSH2 0x4B4 SWAP1 PUSH2 0x2417 JUMP JUMPDEST PUSH1 0x40 MLOAD DUP1 SWAP2 SUB SWAP1 REVERT JUMPDEST PUSH1 0x1 ISZERO ISZERO PUSH1 0x1 PUSH0 CALLER PUSH20 0xFFFFFFFFFFFFFFFFFFFFFFFFFFFFFFFFFFFFFFFF AND PUSH20 0xFFFFFFFFFFFFFFFFFFFFFFFFFFFFFFFFFFFFFFFF AND DUP2 MSTORE PUSH1 0x20 ADD SWAP1 DUP2 MSTORE PUSH1 0x20 ADD PUSH0 KECCAK256 PUSH0 ADD PUSH0 SWAP1 SLOAD SWAP1 PUSH2 0x100 EXP SWAP1 DIV PUSH1 0xFF AND ISZERO ISZERO EQ PUSH2 0x54F JUMPI PUSH1 0x40 MLOAD PUSH32 0x8C379A000000000000000000000000000000000000000000000000000000000 DUP2 MSTORE PUSH1 0x4 ADD PUSH2 0x546 SWAP1 PUSH2 0x247F JUMP JUMPDEST PUSH1 0x40 MLOAD DUP1 SWAP2 SUB SWAP1 REVERT JUMPDEST PUSH0 ISZERO ISZERO PUSH1 0x1 PUSH0 CALLER PUSH20 0xFFFFFFFFFFFFFFFFFFFFFFFFFFFFFFFFFFFFFFFF AND PUSH20 0xFFFFFFFFFFFFFFFFFFFFFFFFFFFFFFFFFFFFFFFF AND DUP2 MSTORE PUSH1 0x20 ADD SWAP1 DUP2 MSTORE PUSH1 0x20 ADD PUSH0 KECCAK256 PUSH0 ADD PUSH1 0x1 SWAP1 SLOAD SWAP1 PUSH2 0x100 EXP SWAP1 DIV PUSH1 0xFF AND ISZERO ISZERO EQ PUSH2 0x5E1 JUMPI PUSH1 0x40 MLOAD PUSH32 0x8C379A000000000000000000000000000000000000000000000000000000000 DUP2 MSTORE PUSH1 0x4 ADD PUSH2 0x5D8 SWAP1 PUSH2 0x24E7 JUMP JUMPDEST PUSH1 0x40 MLOAD DUP1 SWAP2 SUB SWAP1 REVERT JUMPDEST JUMPDEST PUSH1 0x2 DUP1 SLOAD SWAP1 POP DUP2 LT PUSH2 0x629 JUMPI PUSH1 0x40 MLOAD PUSH32 0x8C379A000000000000000000000000000000000000000000000000000000000 DUP2 MSTORE PUSH1 0x4 ADD PUSH2 0x620 SWAP1 PUSH2 0x254F JUMP JUMPDEST PUSH1 0x40 MLOAD DUP1 SWAP2 SUB SWAP1 REVERT JUMPDEST PUSH1 0x1 DUP1 PUSH0 CALLER PUSH20 0xFFFFFFFFFFFFFFFFFFFFFFFFFFFFFFFFFFFFFFFF AND PUSH20 0xFFFFFFFFFFFFFFFFFFFFFFFFFFFFFFFFFFFFFFFF AND DUP2 MSTORE PUSH1 0x20 ADD SWAP1 DUP2 MSTORE PUSH1 0x20 ADD PUSH0 KECCAK256 PUSH0 ADD PUSH1 0x1 PUSH2 0x100 EXP DUP2 SLOAD DUP2 PUSH1 0xFF MUL NOT AND SWAP1 DUP4 ISZERO ISZERO MUL OR SWAP1 SSTORE POP DUP1 PUSH1 0x1 PUSH0 CALLER PUSH20 0xFFFFFFFFFFFFFFFFFFFFFFFFFFFFFFFFFFFFFFFF AND PUSH20 0xFFFFFFFFFFFFFFFFFFFFFFFFFFFFFFFFFFFFFFFF AND DUP2 MSTORE PUSH1 0x20 ADD SWAP1 DUP2 MSTORE PUSH1 0x20 ADD PUSH0 KECCAK256 PUSH1 0x1 ADD DUP2 SWAP1 SSTORE POP PUSH1 0x2 DUP2 DUP2 SLOAD DUP2 LT PUSH2 0x6D9 JUMPI PUSH2 0x6D8 PUSH2 0x256D JUMP JUMPDEST JUMPDEST SWAP1 PUSH0 MSTORE PUSH1 0x20 PUSH0 KECCAK256 SWAP1 PUSH1 0x2 MUL ADD PUSH1 0x1 ADD PUSH0 DUP2 SLOAD DUP1 SWAP3 SWAP2 SWAP1 PUSH2 0x6F8 SWAP1 PUSH2 0x25C7 JUMP JUMPDEST SWAP2 SWAP1 POP SSTORE POP PUSH1 0x6 PUSH0 DUP2 SLOAD DUP1 SWAP3 SWAP2 SWAP1 PUSH2 0x70F SWAP1 PUSH2 0x25C7 JUMP JUMPDEST SWAP2 SWAP1 POP SSTORE POP PUSH32 0x4D99B957A2BC29A30EBD96A7BE8E68FE50A3C701DB28A91436490B7D53870CA4 CALLER DUP3 PUSH1 0x40 MLOAD PUSH2 0x745 SWAP3 SWAP2 SWAP1 PUSH2 0x260E JUMP JUMPDEST PUSH1 0x40 MLOAD DUP1 SWAP2 SUB SWAP1 LOG1 POP JUMP JUMPDEST PUSH0 PUSH1 0x5 SLOAD SWAP1 POP SWAP1 JUMP JUMPDEST PUSH2 0x761 PUSH2 0x1AD4 JUMP JUMPDEST PUSH0 PUSH1 0x5 DUP2 GT ISZERO PUSH2 0x774 JUMPI PUSH2 0x773 PUSH2 0x2098 JUMP JUMPDEST JUMPDEST PUSH1 0x3 PUSH0 SWAP1 SLOAD SWAP1 PUSH2 0x100 EXP SWAP1 DIV PUSH1 0xFF AND PUSH1 0x5 DUP2 GT ISZERO PUSH2 0x795 JUMPI PUSH2 0x794 PUSH2 0x2098 JUMP JUMPDEST JUMPDEST EQ PUSH2 0x7D5 JUMPI PUSH1 0x40 MLOAD PUSH32 0x8C379A000000000000000000000000000000000000000000000000000000000 DUP2 MSTORE PUSH1 0x4 ADD PUSH2 0x7CC SWAP1 PUSH2 0x26A5 JUMP JUMPDEST PUSH1 0x40 MLOAD DUP1 SWAP2 SUB SWAP1 REVERT JUMPDEST PUSH0 ISZERO ISZERO PUSH1 0x1 PUSH0 DUP4 PUSH20 0xFFFFFFFFFFFFFFFFFFFFFFFFFFFFFFFFFFFFFFFF AND PUSH20 0xFFFFFFFFFFFFFFFFFFFFFFFFFFFFFFFFFFFFFFFF AND DUP2 MSTORE PUSH1 0x20 ADD SWAP1 DUP2 MSTORE PUSH1 0x20 ADD PUSH0 KECCAK256 PUSH0 ADD PUSH0 SWAP1 SLOAD SWAP1 PUSH2 0x100 EXP SWAP1 DIV PUSH1 0xFF AND ISZERO ISZERO EQ PUSH2 0x866 JUMPI PUSH1 0x40 MLOAD PUSH32 0x8C379A000000000000000000000000000000000000000000000000000000000 DUP2 MSTORE PUSH1 0x4 ADD PUSH2 0x85D SWAP1 PUSH2 0x270D JUMP JUMPDEST PUSH1 0x40 MLOAD DUP1 SWAP2 SUB SWAP1 REVERT JUMPDEST PUSH0 PUSH1 0x40 MLOAD DUP1 PUSH1 0x60 ADD PUSH1 0x40 MSTORE DUP1 PUSH1 0x1 ISZERO ISZERO DUP2 MSTORE PUSH1 0x20 ADD PUSH0 ISZERO ISZERO DUP2 MSTORE PUSH1 0x20 ADD PUSH0 DUP2 MSTORE POP SWAP1 POP DUP1 PUSH1 0x1 PUSH0 DUP5 PUSH20 0xFFFFFFFFFFFFFFFFFFFFFFFFFFFFFFFFFFFFFFFF AND PUSH20 0xFFFFFFFFFFFFFFFFFFFFFFFFFFFFFFFFFFFFFFFF AND DUP2 MSTORE PUSH1 0x20 ADD SWAP1 DUP2 MSTORE PUSH1 0x20 ADD PUSH0 KECCAK256 PUSH0 DUP3 ADD MLOAD DUP2 PUSH0 ADD PUSH0 PUSH2 0x100 EXP DUP2 SLOAD DUP2 PUSH1 0xFF MUL NOT AND SWAP1 DUP4 ISZERO ISZERO MUL OR SWAP1 SSTORE POP PUSH1 0x20 DUP3 ADD MLOAD DUP2 PUSH0 ADD PUSH1 0x1 PUSH2 0x100 EXP DUP2 SLOAD DUP2 PUSH1 0xFF MUL NOT AND SWAP1 DUP4 ISZERO ISZERO MUL OR SWAP1 SSTORE POP PUSH1 0x40 DUP3 ADD MLOAD DUP2 PUSH1 0x1 ADD SSTORE SWAP1 POP POP PUSH1 0x5 PUSH0 DUP2 SLOAD DUP1 SWAP3 SWAP2 SWAP1 PUSH2 0x922 SWAP1 PUSH2 0x25C7 JUMP JUMPDEST SWAP2 SWAP1 POP SSTORE POP PUSH32 0xB6BE2187D059CC2A55FE29E0E503B566E1E0F8C8780096E185429350ACFFD3DD DUP3 PUSH1 0x40 MLOAD PUSH2 0x956 SWAP2 SWAP1 PUSH2 0x218D JUMP JUMPDEST PUSH1 0x40 MLOAD DUP1 SWAP2 SUB SWAP1 LOG1 POP POP JUMP JUMPDEST PUSH1 0x60 PUSH1 0x5 DUP1 DUP2 GT ISZERO PUSH2 0x977 JUMPI PUSH2 0x976 PUSH2 0x2098 JUMP JUMPDEST JUMPDEST PUSH1 0x3 PUSH0 SWAP1 SLOAD SWAP1 PUSH2 0x100 EXP SWAP1 DIV PUSH1 0xFF AND PUSH1 0x5 DUP2 GT ISZERO PUSH2 0x998 JUMPI PUSH2 0x997 PUSH2 0x2098 JUMP JUMPDEST JUMPDEST EQ PUSH2 0x9D8 JUMPI PUSH1 0x40 MLOAD PUSH32 0x8C379A000000000000000000000000000000000000000000000000000000000 DUP2 MSTORE PUSH1 0x4 ADD PUSH2 0x9CF SWAP1 PUSH2 0x279B JUMP JUMPDEST PUSH1 0x40 MLOAD DUP1 SWAP2 SUB SWAP1 REVERT JUMPDEST PUSH1 0x2 PUSH1 0x4 SLOAD DUP2 SLOAD DUP2 LT PUSH2 0x9EE JUMPI PUSH2 0x9ED PUSH2 0x256D JUMP JUMPDEST JUMPDEST SWAP1 PUSH0 MSTORE PUSH1 0x20 PUSH0 KECCAK256 SWAP1 PUSH1 0x2 MUL ADD PUSH0 ADD DUP1 SLOAD PUSH2 0xA07 SWAP1 PUSH2 0x27E6 JUMP JUMPDEST DUP1 PUSH1 0x1F ADD PUSH1 0x20 DUP1 SWAP2 DIV MUL PUSH1 0x20 ADD PUSH1 0x40 MLOAD SWAP1 DUP2 ADD PUSH1 0x40 MSTORE DUP1 SWAP3 SWAP2 SWAP1 DUP2 DUP2 MSTORE PUSH1 0x20 ADD DUP3 DUP1 SLOAD PUSH2 0xA33 SWAP1 PUSH2 0x27E6 JUMP JUMPDEST DUP1 ISZERO PUSH2 0xA7E JUMPI DUP1 PUSH1 0x1F LT PUSH2 0xA55 JUMPI PUSH2 0x100 DUP1 DUP4 SLOAD DIV MUL DUP4 MSTORE SWAP2 PUSH1 0x20 ADD SWAP2 PUSH2 0xA7E JUMP JUMPDEST DUP3 ADD SWAP2 SWAP1 PUSH0 MSTORE PUSH1 0x20 PUSH0 KECCAK256 SWAP1 JUMPDEST DUP2 SLOAD DUP2 MSTORE SWAP1 PUSH1 0x1 ADD SWAP1 PUSH1 0x20 ADD DUP1 DUP4 GT PUSH2 0xA61 JUMPI DUP3 SWAP1 SUB PUSH1 0x1F AND DUP3 ADD SWAP2 JUMPDEST POP POP POP POP POP SWAP1 POP SWAP1 JUMP JUMPDEST PUSH2 0xA90 PUSH2 0x1AD4 JUMP JUMPDEST PUSH0 PUSH1 0x5 DUP2 GT ISZERO PUSH2 0xAA3 JUMPI PUSH2 0xAA2 PUSH2 0x2098 JUMP JUMPDEST JUMPDEST PUSH1 0x3 PUSH0 SWAP1 SLOAD SWAP1 PUSH2 0x100 EXP SWAP1 DIV PUSH1 0xFF AND PUSH1 0x5 DUP2 GT ISZERO PUSH2 0xAC4 JUMPI PUSH2 0xAC3 PUSH2 0x2098 JUMP JUMPDEST JUMPDEST EQ PUSH2 0xB04 JUMPI PUSH1 0x40 MLOAD PUSH32 0x8C379A000000000000000000000000000000000000000000000000000000000 DUP2 MSTORE PUSH1 0x4 ADD PUSH2 0xAFB SWAP1 PUSH2 0x2886 JUMP JUMPDEST PUSH1 0x40 MLOAD DUP1 SWAP2 SUB SWAP1 REVERT JUMPDEST PUSH1 0x1 PUSH1 0x5 SLOAD GT PUSH2 0xB49 JUMPI PUSH1 0x40 MLOAD PUSH32 0x8C379A000000000000000000000000000000000000000000000000000000000 DUP2 MSTORE PUSH1 0x4 ADD PUSH2 0xB40 SWAP1 PUSH2 0x2914 JUMP JUMPDEST PUSH1 0x40 MLOAD DUP1 SWAP2 SUB SWAP1 REVERT JUMPDEST PUSH1 0x1 PUSH1 0x3 PUSH0 PUSH2 0x100 EXP DUP2 SLOAD DUP2 PUSH1 0xFF MUL NOT AND SWAP1 DUP4 PUSH1 0x5 DUP2 GT ISZERO PUSH2 0xB6E JUMPI PUSH2 0xB6D PUSH2 0x2098 JUMP JUMPDEST JUMPDEST MUL OR SWAP1 SSTORE POP PUSH32 0xA97A4EE45751E2ABF3E4FC8946939630B11B371EA8AE39CCDC3056E98F5CC3F PUSH1 0x1 PUSH1 0x3 PUSH0 SWAP1 SLOAD SWAP1 PUSH2 0x100 EXP SWAP1 DIV PUSH1 0xFF AND PUSH1 0x5 DUP2 GT ISZERO PUSH2 0xBB7 JUMPI PUSH2 0xBB6 PUSH2 0x2098 JUMP JUMPDEST JUMPDEST PUSH2 0xBC1 SWAP2 SWAP1 PUSH2 0x2932 JUMP JUMPDEST PUSH1 0x5 DUP2 GT ISZERO PUSH2 0xBD3 JUMPI PUSH2 0xBD2 PUSH2 0x2098 JUMP JUMPDEST JUMPDEST PUSH1 0x3 PUSH0 SWAP1 SLOAD SWAP1 PUSH2 0x100 EXP SWAP1 DIV PUSH1 0xFF AND PUSH1 0x40 MLOAD PUSH2 0xBF0 SWAP3 SWAP2 SWAP1 PUSH2 0x2965 JUMP JUMPDEST PUSH1 0x40 MLOAD DUP1 SWAP2 SUB SWAP1 LOG1 JUMP JUMPDEST PUSH0 PUSH1 0x5 DUP1 DUP2 GT ISZERO PUSH2 0xC0E JUMPI PUSH2 0xC0D PUSH2 0x2098 JUMP JUMPDEST JUMPDEST PUSH1 0x3 PUSH0 SWAP1 SLOAD SWAP1 PUSH2 0x100 EXP SWAP1 DIV PUSH1 0xFF AND PUSH1 0x5 DUP2 GT ISZERO PUSH2 0xC2F JUMPI PUSH2 0xC2E PUSH2 0x2098 JUMP JUMPDEST JUMPDEST EQ PUSH2 0xC6F JUMPI PUSH1 0x40 MLOAD PUSH32 0x8C379A000000000000000000000000000000000000000000000000000000000 DUP2 MSTORE PUSH1 0x4 ADD PUSH2 0xC66 SWAP1 PUSH2 0x279B JUMP JUMPDEST PUSH1 0x40 MLOAD DUP1 SWAP2 SUB SWAP1 REVERT JUMPDEST PUSH1 0x4 SLOAD SWAP1 POP SWAP1 JUMP JUMPDEST PUSH1 0x60 PUSH1 0x2 DUP1 SLOAD DUP1 PUSH1 0x20 MUL PUSH1 0x20 ADD PUSH1 0x40 MLOAD SWAP1 DUP2 ADD PUSH1 0x40 MSTORE DUP1 SWAP3 SWAP2 SWAP1 DUP2 DUP2 MSTORE PUSH1 0x20 ADD PUSH0 SWAP1 JUMPDEST DUP3 DUP3 LT ISZERO PUSH2 0xD63 JUMPI DUP4 DUP3 SWAP1 PUSH0 MSTORE PUSH1 0x20 PUSH0 KECCAK256 SWAP1 PUSH1 0x2 MUL ADD PUSH1 0x40 MLOAD DUP1 PUSH1 0x40 ADD PUSH1 0x40 MSTORE SWAP1 DUP2 PUSH0 DUP3 ADD DUP1 SLOAD PUSH2 0xCCA SWAP1 PUSH2 0x27E6 JUMP JUMPDEST DUP1 PUSH1 0x1F ADD PUSH1 0x20 DUP1 SWAP2 DIV MUL PUSH1 0x20 ADD PUSH1 0x40 MLOAD SWAP1 DUP2 ADD PUSH1 0x40 MSTORE DUP1 SWAP3 SWAP2 SWAP1 DUP2 DUP2 MSTORE PUSH1 0x20 ADD DUP3 DUP1 SLOAD PUSH2 0xCF6 SWAP1 PUSH2 0x27E6 JUMP JUMPDEST DUP1 ISZERO PUSH2 0xD41 JUMPI DUP1 PUSH1 0x1F LT PUSH2 0xD18 JUMPI PUSH2 0x100 DUP1 DUP4 SLOAD DIV MUL DUP4 MSTORE SWAP2 PUSH1 0x20 ADD SWAP2 PUSH2 0xD41 JUMP JUMPDEST DUP3 ADD SWAP2 SWAP1 PUSH0 MSTORE PUSH1 0x20 PUSH0 KECCAK256 SWAP1 JUMPDEST DUP2 SLOAD DUP2 MSTORE SWAP1 PUSH1 0x1 ADD SWAP1 PUSH1 0x20 ADD DUP1 DUP4 GT PUSH2 0xD24 JUMPI DUP3 SWAP1 SUB PUSH1 0x1F AND DUP3 ADD SWAP2 JUMPDEST POP POP POP POP POP DUP2 MSTORE PUSH1 0x20 ADD PUSH1 0x1 DUP3 ADD SLOAD DUP2 MSTORE POP POP DUP2 MSTORE PUSH1 0x20 ADD SWAP1 PUSH1 0x1 ADD SWAP1 PUSH2 0xC9A JUMP JUMPDEST POP POP POP POP SWAP1 POP SWAP1 JUMP JUMPDEST PUSH0 PUSH1 0x1 PUSH1 0x3 PUSH0 SWAP1 SLOAD SWAP1 PUSH2 0x100 EXP SWAP1 DIV PUSH1 0xFF AND PUSH1 0x5 DUP2 GT ISZERO PUSH2 0xD90 JUMPI PUSH2 0xD8F PUSH2 0x2098 JUMP JUMPDEST JUMPDEST PUSH2 0xD9A SWAP2 SWAP1 PUSH2 0x2932 JUMP JUMPDEST PUSH1 0x5 DUP2 GT ISZERO PUSH2 0xDAC JUMPI PUSH2 0xDAB PUSH2 0x2098 JUMP JUMPDEST JUMPDEST SWAP1 POP SWAP1 JUMP JUMPDEST PUSH2 0xDB9 PUSH2 0x1AD4 JUMP JUMPDEST PUSH2 0xDC2 PUSH0 PUSH2 0x1B5B JUMP JUMPDEST JUMP JUMPDEST PUSH2 0xDCC PUSH2 0x1CC2 JUMP JUMPDEST PUSH1 0x1 ISZERO ISZERO PUSH1 0x1 PUSH0 DUP5 PUSH20 0xFFFFFFFFFFFFFFFFFFFFFFFFFFFFFFFFFFFFFFFF AND PUSH20 0xFFFFFFFFFFFFFFFFFFFFFFFFFFFFFFFFFFFFFFFF AND DUP2 MSTORE PUSH1 0x20 ADD SWAP1 DUP2 MSTORE PUSH1 0x20 ADD PUSH0 KECCAK256 PUSH0 ADD PUSH0 SWAP1 SLOAD SWAP1 PUSH2 0x100 EXP SWAP1 DIV PUSH1 0xFF AND ISZERO ISZERO EQ PUSH2 0xE5E JUMPI PUSH1 0x40 MLOAD PUSH32 0x8C379A000000000000000000000000000000000000000000000000000000000 DUP2 MSTORE PUSH1 0x4 ADD PUSH2 0xE55 SWAP1 PUSH2 0x29D6 JUMP JUMPDEST PUSH1 0x40 MLOAD DUP1 SWAP2 SUB SWAP1 REVERT JUMPDEST PUSH1 0x1 ISZERO ISZERO PUSH1 0x1 PUSH0 DUP5 PUSH20 0xFFFFFFFFFFFFFFFFFFFFFFFFFFFFFFFFFFFFFFFF AND PUSH20 0xFFFFFFFFFFFFFFFFFFFFFFFFFFFFFFFFFFFFFFFF AND DUP2 MSTORE PUSH1 0x20 ADD SWAP1 DUP2 MSTORE PUSH1 0x20 ADD PUSH0 KECCAK256 PUSH0 ADD PUSH1 0x1 SWAP1 SLOAD SWAP1 PUSH2 0x100 EXP SWAP1 DIV PUSH1 0xFF AND ISZERO ISZERO EQ PUSH2 0xEF1 JUMPI PUSH1 0x40 MLOAD PUSH32 0x8C379A000000000000000000000000000000000000000000000000000000000 DUP2 MSTORE PUSH1 0x4 ADD PUSH2 0xEE8 SWAP1 PUSH2 0x2A3E JUMP JUMPDEST PUSH1 0x40 MLOAD DUP1 SWAP2 SUB SWAP1 REVERT JUMPDEST PUSH0 PUSH1 0x1 PUSH0 DUP5 PUSH20 0xFFFFFFFFFFFFFFFFFFFFFFFFFFFFFFFFFFFFFFFF AND PUSH20 0xFFFFFFFFFFFFFFFFFFFFFFFFFFFFFFFFFFFFFFFF AND DUP2 MSTORE PUSH1 0x20 ADD SWAP1 DUP2 MSTORE PUSH1 0x20 ADD PUSH0 KECCAK256 PUSH1 0x1 ADD SLOAD SWAP1 POP PUSH1 0x2 DUP2 DUP2 SLOAD DUP2 LT PUSH2 0xF49 JUMPI PUSH2 0xF48 PUSH2 0x256D JUMP JUMPDEST JUMPDEST SWAP1 PUSH0 MSTORE PUSH1 0x20 PUSH0 KECCAK256 SWAP1 PUSH1 0x2 MUL ADD PUSH1 0x40 MLOAD DUP1 PUSH1 0x40 ADD PUSH1 0x40 MSTORE SWAP1 DUP2 PUSH0 DUP3 ADD DUP1 SLOAD PUSH2 0xF6F SWAP1 PUSH2 0x27E6 JUMP JUMPDEST DUP1 PUSH1 0x1F ADD PUSH1 0x20 DUP1 SWAP2 DIV MUL PUSH1 0x20 ADD PUSH1 0x40 MLOAD SWAP1 DUP2 ADD PUSH1 0x40 MSTORE DUP1 SWAP3 SWAP2 SWAP1 DUP2 DUP2 MSTORE PUSH1 0x20 ADD DUP3 DUP1 SLOAD PUSH2 0xF9B SWAP1 PUSH2 0x27E6 JUMP JUMPDEST DUP1 ISZERO PUSH2 0xFE6 JUMPI DUP1 PUSH1 0x1F LT PUSH2 0xFBD JUMPI PUSH2 0x100 DUP1 DUP4 SLOAD DIV MUL DUP4 MSTORE SWAP2 PUSH1 0x20 ADD SWAP2 PUSH2 0xFE6 JUMP JUMPDEST DUP3 ADD SWAP2 SWAP1 PUSH0 MSTORE PUSH1 0x20 PUSH0 KECCAK256 SWAP1 JUMPDEST DUP2 SLOAD DUP2 MSTORE SWAP1 PUSH1 0x1 ADD SWAP1 PUSH1 0x20 ADD DUP1 DUP4 GT PUSH2 0xFC9 JUMPI DUP3 SWAP1 SUB PUSH1 0x1F AND DUP3 ADD SWAP2 JUMPDEST POP POP POP POP POP DUP2 MSTORE PUSH1 0x20 ADD PUSH1 0x1 DUP3 ADD SLOAD DUP2 MSTORE POP POP SWAP2 POP POP SWAP2 SWAP1 POP JUMP JUMPDEST PUSH0 PUSH0 PUSH0 SWAP1 SLOAD SWAP1 PUSH2 0x100 EXP SWAP1 DIV PUSH20 0xFFFFFFFFFFFFFFFFFFFFFFFFFFFFFFFFFFFFFFFF AND SWAP1 POP SWAP1 JUMP JUMPDEST PUSH0 PUSH1 0x9 SLOAD SWAP1 POP SWAP1 JUMP JUMPDEST PUSH2 0x1039 PUSH2 0x1CC2 JUMP JUMPDEST PUSH1 0x5 DUP1 DUP2 GT ISZERO PUSH2 0x104C JUMPI PUSH2 0x104B PUSH2 0x2098 JUMP JUMPDEST JUMPDEST PUSH1 0x3 PUSH0 SWAP1 SLOAD SWAP1 PUSH2 0x100 EXP SWAP1 DIV PUSH1 0xFF AND PUSH1 0x5 DUP2 GT ISZERO PUSH2 0x106D JUMPI PUSH2 0x106C PUSH2 0x2098 JUMP JUMPDEST JUMPDEST EQ PUSH2 0x10AD JUMPI PUSH1 0x40 MLOAD PUSH32 0x8C379A000000000000000000000000000000000000000000000000000000000 DUP2 MSTORE PUSH1 0x4 ADD PUSH2 0x10A4 SWAP1 PUSH2 0x279B JUMP JUMPDEST PUSH1 0x40 MLOAD DUP1 SWAP2 SUB SWAP1 REVERT JUMPDEST PUSH1 0x2 PUSH1 0x4 SLOAD DUP2 SLOAD DUP2 LT PUSH2 0x10C3 JUMPI PUSH2 0x10C2 PUSH2 0x256D JUMP JUMPDEST JUMPDEST SWAP1 PUSH0 MSTORE PUSH1 0x20 PUSH0 KECCAK256 SWAP1 PUSH1 0x2 MUL ADD PUSH1 0x40 MLOAD DUP1 PUSH1 0x40 ADD PUSH1 0x40 MSTORE SWAP1 DUP2 PUSH0 DUP3 ADD DUP1 SLOAD PUSH2 0x10E9 SWAP1 PUSH2 0x27E6 JUMP JUMPDEST DUP1 PUSH1 0x1F ADD PUSH1 0x20 DUP1 SWAP2 DIV MUL PUSH1 0x20 ADD PUSH1 0x40 MLOAD SWAP1 DUP2 ADD PUSH1 0x40 MSTORE DUP1 SWAP3 SWAP2 SWAP1 DUP2 DUP2 MSTORE PUSH1 0x20 ADD DUP3 DUP1 SLOAD PUSH2 0x1115 SWAP1 PUSH2 0x27E6 JUMP JUMPDEST DUP1 ISZERO PUSH2 0x1160 JUMPI DUP1 PUSH1 0x1F LT PUSH2 0x1137 JUMPI PUSH2 0x100 DUP1 DUP4 SLOAD DIV MUL DUP4 MSTORE SWAP2 PUSH1 0x20 ADD SWAP2 PUSH2 0x1160 JUMP JUMPDEST DUP3 ADD SWAP2 SWAP1 PUSH0 MSTORE PUSH1 0x20 PUSH0 KECCAK256 SWAP1 JUMPDEST DUP2 SLOAD DUP2 MSTORE SWAP1 PUSH1 0x1 ADD SWAP1 PUSH1 0x20 ADD DUP1 DUP4 GT PUSH2 0x1143 JUMPI DUP3 SWAP1 SUB PUSH1 0x1F AND DUP3 ADD SWAP2 JUMPDEST POP POP POP POP POP DUP2 MSTORE PUSH1 0x20 ADD PUSH1 0x1 DUP3 ADD SLOAD DUP2 MSTORE POP POP SWAP1 POP SWAP1 JUMP JUMPDEST PUSH0 PUSH1 0x3 PUSH0 SWAP1 SLOAD SWAP1 PUSH2 0x100 EXP SWAP1 DIV PUSH1 0xFF AND SWAP1 POP SWAP1 JUMP JUMPDEST PUSH0 PUSH1 0x8 SLOAD SWAP1 POP SWAP1 JUMP JUMPDEST PUSH1 0x60 PUSH1 0x1 PUSH1 0x5 DUP2 GT ISZERO PUSH2 0x11AC JUMPI PUSH2 0x11AB PUSH2 0x2098 JUMP JUMPDEST JUMPDEST PUSH1 0x3 PUSH0 SWAP1 SLOAD SWAP1 PUSH2 0x100 EXP SWAP1 DIV PUSH1 0xFF AND PUSH1 0x5 DUP2 GT ISZERO PUSH2 0x11CD JUMPI PUSH2 0x11CC PUSH2 0x2098 JUMP JUMPDEST JUMPDEST EQ PUSH2 0x120D JUMPI PUSH1 0x40 MLOAD PUSH32 0x8C379A000000000000000000000000000000000000000000000000000000000 DUP2 MSTORE PUSH1 0x4 ADD PUSH2 0x1204 SWAP1 PUSH2 0x2ACC JUMP JUMPDEST PUSH1 0x40 MLOAD DUP1 SWAP2 SUB SWAP1 REVERT JUMPDEST CALLER PUSH20 0xFFFFFFFFFFFFFFFFFFFFFFFFFFFFFFFFFFFFFFFF AND PUSH2 0x122C PUSH2 0x1001 JUMP JUMPDEST PUSH20 0xFFFFFFFFFFFFFFFFFFFFFFFFFFFFFFFFFFFFFFFF AND SUB PUSH2 0x1282 JUMPI PUSH1 0x40 MLOAD PUSH32 0x8C379A000000000000000000000000000000000000000000000000000000000 DUP2 MSTORE PUSH1 0x4 ADD PUSH2 0x1279 SWAP1 PUSH2 0x2B5A JUMP JUMPDEST PUSH1 0x40 MLOAD DUP1 SWAP2 SUB SWAP1 REVERT JUMPDEST PUSH1 0x1 ISZERO ISZERO PUSH1 0x1 PUSH0 CALLER PUSH20 0xFFFFFFFFFFFFFFFFFFFFFFFFFFFFFFFFFFFFFFFF AND PUSH20 0xFFFFFFFFFFFFFFFFFFFFFFFFFFFFFFFFFFFFFFFF AND DUP2 MSTORE PUSH1 0x20 ADD SWAP1 DUP2 MSTORE PUSH1 0x20 ADD PUSH0 KECCAK256 PUSH0 ADD PUSH0 SWAP1 SLOAD SWAP1 PUSH2 0x100 EXP SWAP1 DIV PUSH1 0xFF AND ISZERO ISZERO EQ PUSH2 0x1314 JUMPI PUSH1 0x40 MLOAD PUSH32 0x8C379A000000000000000000000000000000000000000000000000000000000 DUP2 MSTORE PUSH1 0x4 ADD PUSH2 0x130B SWAP1 PUSH2 0x247F JUMP JUMPDEST PUSH1 0x40 MLOAD DUP1 SWAP2 SUB SWAP1 REVERT JUMPDEST PUSH1 0x2 PUSH1 0x40 MLOAD DUP1 PUSH1 0x40 ADD PUSH1 0x40 MSTORE DUP1 DUP5 DUP2 MSTORE PUSH1 0x20 ADD PUSH0 DUP2 MSTORE POP SWAP1 DUP1 PUSH1 0x1 DUP2 SLOAD ADD DUP1 DUP3 SSTORE DUP1 SWAP2 POP POP PUSH1 0x1 SWAP1 SUB SWAP1 PUSH0 MSTORE PUSH1 0x20 PUSH0 KECCAK256 SWAP1 PUSH1 0x2 MUL ADD PUSH0 SWAP1 SWAP2 SWAP1 SWAP2 SWAP1 SWAP2 POP PUSH0 DUP3 ADD MLOAD DUP2 PUSH0 ADD SWAP1 DUP2 PUSH2 0x1364 SWAP2 SWAP1 PUSH2 0x2D18 JUMP JUMPDEST POP PUSH1 0x20 DUP3 ADD MLOAD DUP2 PUSH1 0x1 ADD SSTORE POP POP PUSH1 0x7 PUSH0 DUP2 SLOAD DUP1 SWAP3 SWAP2 SWAP1 PUSH2 0x1383 SWAP1 PUSH2 0x25C7 JUMP JUMPDEST SWAP2 SWAP1 POP SSTORE POP PUSH32 0x92E393E9B54E2F801D3EA4BEB0C5E71A21CC34A5D34B77D0FB8A3AA1650DC18F PUSH1 0x7 SLOAD PUSH1 0x40 MLOAD PUSH2 0x13B9 SWAP2 SWAP1 PUSH2 0x1DFE JUMP JUMPDEST PUSH1 0x40 MLOAD DUP1 SWAP2 SUB SWAP1 LOG1 PUSH1 0x40 MLOAD DUP1 PUSH1 0x40 ADD PUSH1 0x40 MSTORE DUP1 PUSH1 0x16 DUP2 MSTORE PUSH1 0x20 ADD PUSH32 0x4F6B2070726F706F73616C207265676973746572656400000000000000000000 DUP2 MSTORE POP SWAP1 POP SWAP2 SWAP1 POP JUMP JUMPDEST PUSH2 0x1406 PUSH2 0x1AD4 JUMP JUMPDEST PUSH1 0x2 PUSH1 0x5 DUP2 GT ISZERO PUSH2 0x141A JUMPI PUSH2 0x1419 PUSH2 0x2098 JUMP JUMPDEST JUMPDEST PUSH1 0x3 PUSH0 SWAP1 SLOAD SWAP1 PUSH2 0x100 EXP SWAP1 DIV PUSH1 0xFF AND PUSH1 0x5 DUP2 GT ISZERO PUSH2 0x143B JUMPI PUSH2 0x143A PUSH2 0x2098 JUMP JUMPDEST JUMPDEST EQ PUSH2 0x147B JUMPI PUSH1 0x40 MLOAD PUSH32 0x8C379A000000000000000000000000000000000000000000000000000000000 DUP2 MSTORE PUSH1 0x4 ADD PUSH2 0x1472 SWAP1 PUSH2 0x2E7D JUMP JUMPDEST PUSH1 0x40 MLOAD DUP1 SWAP2 SUB SWAP1 REVERT JUMPDEST PUSH1 0x3 DUP1 PUSH0 PUSH2 0x100 EXP DUP2 SLOAD DUP2 PUSH1 0xFF MUL NOT AND SWAP1 DUP4 PUSH1 0x5 DUP2 GT ISZERO PUSH2 0x149F JUMPI PUSH2 0x149E PUSH2 0x2098 JUMP JUMPDEST JUMPDEST MUL OR SWAP1 SSTORE POP PUSH32 0xA97A4EE45751E2ABF3E4FC8946939630B11B371EA8AE39CCDC3056E98F5CC3F PUSH1 0x1 PUSH1 0x3 PUSH0 SWAP1 SLOAD SWAP1 PUSH2 0x100 EXP SWAP1 DIV PUSH1 0xFF AND PUSH1 0x5 DUP2 GT ISZERO PUSH2 0x14E8 JUMPI PUSH2 0x14E7 PUSH2 0x2098 JUMP JUMPDEST JUMPDEST PUSH2 0x14F2 SWAP2 SWAP1 PUSH2 0x2932 JUMP JUMPDEST PUSH1 0x5 DUP2 GT ISZERO PUSH2 0x1504 JUMPI PUSH2 0x1503 PUSH2 0x2098 JUMP JUMPDEST JUMPDEST PUSH1 0x3 PUSH0 SWAP1 SLOAD SWAP1 PUSH2 0x100 EXP SWAP1 DIV PUSH1 0xFF AND PUSH1 0x40 MLOAD PUSH2 0x1521 SWAP3 SWAP2 SWAP1 PUSH2 0x2965 JUMP JUMPDEST PUSH1 0x40 MLOAD DUP1 SWAP2 SUB SWAP1 LOG1 JUMP JUMPDEST PUSH2 0x1533 PUSH2 0x1AD4 JUMP JUMPDEST PUSH1 0x4 PUSH1 0x5 DUP2 GT ISZERO PUSH2 0x1547 JUMPI PUSH2 0x1546 PUSH2 0x2098 JUMP JUMPDEST JUMPDEST PUSH1 0x3 PUSH0 SWAP1 SLOAD SWAP1 PUSH2 0x100 EXP SWAP1 DIV PUSH1 0xFF AND PUSH1 0x5 DUP2 GT ISZERO PUSH2 0x1568 JUMPI PUSH2 0x1567 PUSH2 0x2098 JUMP JUMPDEST JUMPDEST EQ PUSH2 0x15A8 JUMPI PUSH1 0x40 MLOAD PUSH32 0x8C379A000000000000000000000000000000000000000000000000000000000 DUP2 MSTORE PUSH1 0x4 ADD PUSH2 0x159F SWAP1 PUSH2 0x2EE5 JUMP JUMPDEST PUSH1 0x40 MLOAD DUP1 SWAP2 SUB SWAP1 REVERT JUMPDEST PUSH1 0x1 PUSH1 0x8 SLOAD EQ PUSH2 0x15ED JUMPI PUSH1 0x40 MLOAD PUSH32 0x8C379A000000000000000000000000000000000000000000000000000000000 DUP2 MSTORE PUSH1 0x4 ADD PUSH2 0x15E4 SWAP1 PUSH2 0x2F73 JUMP JUMPDEST PUSH1 0x40 MLOAD DUP1 SWAP2 SUB SWAP1 REVERT JUMPDEST PUSH1 0x5 PUSH1 0x3 PUSH0 PUSH2 0x100 EXP DUP2 SLOAD DUP2 PUSH1 0xFF MUL NOT AND SWAP1 DUP4 PUSH1 0x5 DUP2 GT ISZERO PUSH2 0x1612 JUMPI PUSH2 0x1611 PUSH2 0x2098 JUMP JUMPDEST JUMPDEST MUL OR SWAP1 SSTORE POP PUSH32 0xA97A4EE45751E2ABF3E4FC8946939630B11B371EA8AE39CCDC3056E98F5CC3F PUSH1 0x1 PUSH1 0x3 PUSH0 SWAP1 SLOAD SWAP1 PUSH2 0x100 EXP SWAP1 DIV PUSH1 0xFF AND PUSH1 0x5 DUP2 GT ISZERO PUSH2 0x165B JUMPI PUSH2 0x165A PUSH2 0x2098 JUMP JUMPDEST JUMPDEST PUSH2 0x1665 SWAP2 SWAP1 PUSH2 0x2932 JUMP JUMPDEST PUSH1 0x5 DUP2 GT ISZERO PUSH2 0x1677 JUMPI PUSH2 0x1676 PUSH2 0x2098 JUMP JUMPDEST JUMPDEST PUSH1 0x3 PUSH0 SWAP1 SLOAD SWAP1 PUSH2 0x100 EXP SWAP1 DIV PUSH1 0xFF AND PUSH1 0x40 MLOAD PUSH2 0x1694 SWAP3 SWAP2 SWAP1 PUSH2 0x2965 JUMP JUMPDEST PUSH1 0x40 MLOAD DUP1 SWAP2 SUB SWAP1 LOG1 JUMP JUMPDEST PUSH0 PUSH1 0x2 DUP1 SLOAD SWAP1 POP SWAP1 POP SWAP1 JUMP JUMPDEST PUSH2 0x16B2 PUSH2 0x1AD4 JUMP JUMPDEST PUSH1 0x5 DUP1 DUP2 GT ISZERO PUSH2 0x16C5 JUMPI PUSH2 0x16C4 PUSH2 0x2098 JUMP JUMPDEST JUMPDEST PUSH1 0x3 PUSH0 SWAP1 SLOAD SWAP1 PUSH2 0x100 EXP SWAP1 DIV PUSH1 0xFF AND PUSH1 0x5 DUP2 GT ISZERO PUSH2 0x16E6 JUMPI PUSH2 0x16E5 PUSH2 0x2098 JUMP JUMPDEST JUMPDEST EQ PUSH2 0x1726 JUMPI PUSH1 0x40 MLOAD PUSH32 0x8C379A000000000000000000000000000000000000000000000000000000000 DUP2 MSTORE PUSH1 0x4 ADD PUSH2 0x171D SWAP1 PUSH2 0x3001 JUMP JUMPDEST PUSH1 0x40 MLOAD DUP1 SWAP2 SUB SWAP1 REVERT JUMPDEST PUSH1 0x2 PUSH0 PUSH2 0x1733 SWAP2 SWAP1 PUSH2 0x1CDB JUMP JUMPDEST PUSH0 PUSH1 0x8 DUP2 SWAP1 SSTORE POP PUSH0 PUSH1 0x4 DUP2 SWAP1 SSTORE POP PUSH0 PUSH1 0x5 DUP2 SWAP1 SSTORE POP PUSH0 PUSH1 0x6 DUP2 SWAP1 SSTORE POP PUSH0 PUSH1 0x7 DUP2 SWAP1 SSTORE POP JUMP JUMPDEST PUSH2 0x1760 PUSH2 0x1AD4 JUMP JUMPDEST PUSH1 0x1 PUSH1 0x5 DUP2 GT ISZERO PUSH2 0x1774 JUMPI PUSH2 0x1773 PUSH2 0x2098 JUMP JUMPDEST JUMPDEST PUSH1 0x3 PUSH0 SWAP1 SLOAD SWAP1 PUSH2 0x100 EXP SWAP1 DIV PUSH1 0xFF AND PUSH1 0x5 DUP2 GT ISZERO PUSH2 0x1795 JUMPI PUSH2 0x1794 PUSH2 0x2098 JUMP JUMPDEST JUMPDEST EQ PUSH2 0x17D5 JUMPI PUSH1 0x40 MLOAD PUSH32 0x8C379A000000000000000000000000000000000000000000000000000000000 DUP2 MSTORE PUSH1 0x4 ADD PUSH2 0x17CC SWAP1 PUSH2 0x308F JUMP JUMPDEST PUSH1 0x40 MLOAD DUP1 SWAP2 SUB SWAP1 REVERT JUMPDEST PUSH0 PUSH1 0x2 DUP1 SLOAD SWAP1 POP GT PUSH2 0x181C JUMPI PUSH1 0x40 MLOAD PUSH32 0x8C379A000000000000000000000000000000000000000000000000000000000 DUP2 MSTORE PUSH1 0x4 ADD PUSH2 0x1813 SWAP1 PUSH2 0x311D JUMP JUMPDEST PUSH1 0x40 MLOAD DUP1 SWAP2 SUB SWAP1 REVERT JUMPDEST PUSH1 0x2 PUSH1 0x3 PUSH0 PUSH2 0x100 EXP DUP2 SLOAD DUP2 PUSH1 0xFF MUL NOT AND SWAP1 DUP4 PUSH1 0x5 DUP2 GT ISZERO PUSH2 0x1841 JUMPI PUSH2 0x1840 PUSH2 0x2098 JUMP JUMPDEST JUMPDEST MUL OR SWAP1 SSTORE POP PUSH32 0xA97A4EE45751E2ABF3E4FC8946939630B11B371EA8AE39CCDC3056E98F5CC3F PUSH1 0x1 PUSH1 0x3 PUSH0 SWAP1 SLOAD SWAP1 PUSH2 0x100 EXP SWAP1 DIV PUSH1 0xFF AND PUSH1 0x5 DUP2 GT ISZERO PUSH2 0x188A JUMPI PUSH2 0x1889 PUSH2 0x2098 JUMP JUMPDEST JUMPDEST PUSH2 0x1894 SWAP2 SWAP1 PUSH2 0x2932 JUMP JUMPDEST PUSH1 0x5 DUP2 GT ISZERO PUSH2 0x18A6 JUMPI PUSH2 0x18A5 PUSH2 0x2098 JUMP JUMPDEST JUMPDEST PUSH1 0x3 PUSH0 SWAP1 SLOAD SWAP1 PUSH2 0x100 EXP SWAP1 DIV PUSH1 0xFF AND PUSH1 0x40 MLOAD PUSH2 0x18C3 SWAP3 SWAP2 SWAP1 PUSH2 0x2965 JUMP JUMPDEST PUSH1 0x40 MLOAD DUP1 SWAP2 SUB SWAP1 LOG1 JUMP JUMPDEST PUSH0 PUSH1 0x6 SLOAD SWAP1 POP SWAP1 JUMP JUMPDEST PUSH2 0x18DE PUSH2 0x1AD4 JUMP JUMPDEST PUSH0 PUSH20 0xFFFFFFFFFFFFFFFFFFFFFFFFFFFFFFFFFFFFFFFF AND DUP2 PUSH20 0xFFFFFFFFFFFFFFFFFFFFFFFFFFFFFFFFFFFFFFFF AND SUB PUSH2 0x194E JUMPI PUSH0 PUSH1 0x40 MLOAD PUSH32 0x1E4FBDF700000000000000000000000000000000000000000000000000000000 DUP2 MSTORE PUSH1 0x4 ADD PUSH2 0x1945 SWAP2 SWAP1 PUSH2 0x218D JUMP JUMPDEST PUSH1 0x40 MLOAD DUP1 SWAP2 SUB SWAP1 REVERT JUMPDEST PUSH2 0x1957 DUP2 PUSH2 0x1B5B JUMP JUMPDEST POP JUMP JUMPDEST PUSH2 0x1962 PUSH2 0x1AD4 JUMP JUMPDEST PUSH1 0x3 PUSH1 0x5 DUP2 GT ISZERO PUSH2 0x1976 JUMPI PUSH2 0x1975 PUSH2 0x2098 JUMP JUMPDEST JUMPDEST PUSH1 0x3 PUSH0 SWAP1 SLOAD SWAP1 PUSH2 0x100 EXP SWAP1 DIV PUSH1 0xFF AND PUSH1 0x5 DUP2 GT ISZERO PUSH2 0x1997 JUMPI PUSH2 0x1996 PUSH2 0x2098 JUMP JUMPDEST JUMPDEST EQ PUSH2 0x19D7 JUMPI PUSH1 0x40 MLOAD PUSH32 0x8C379A000000000000000000000000000000000000000000000000000000000 DUP2 MSTORE PUSH1 0x4 ADD PUSH2 0x19CE SWAP1 PUSH2 0x31AB JUMP JUMPDEST PUSH1 0x40 MLOAD DUP1 SWAP2 SUB SWAP1 REVERT JUMPDEST PUSH0 PUSH1 0x6 SLOAD GT PUSH2 0x1A1B JUMPI PUSH1 0x40 MLOAD PUSH32 0x8C379A000000000000000000000000000000000000000000000000000000000 DUP2 MSTORE PUSH1 0x4 ADD PUSH2 0x1A12 SWAP1 PUSH2 0x3213 JUMP JUMPDEST PUSH1 0x40 MLOAD DUP1 SWAP2 SUB SWAP1 REVERT JUMPDEST PUSH1 0x4 PUSH1 0x3 PUSH0 PUSH2 0x100 EXP DUP2 SLOAD DUP2 PUSH1 0xFF MUL NOT AND SWAP1 DUP4 PUSH1 0x5 DUP2 GT ISZERO PUSH2 0x1A40 JUMPI PUSH2 0x1A3F PUSH2 0x2098 JUMP JUMPDEST JUMPDEST MUL OR SWAP1 SSTORE POP PUSH2 0x1A4D PUSH2 0x1C1C JUMP JUMPDEST PUSH32 0xA97A4EE45751E2ABF3E4FC8946939630B11B371EA8AE39CCDC3056E98F5CC3F PUSH1 0x1 PUSH1 0x3 PUSH0 SWAP1 SLOAD SWAP1 PUSH2 0x100 EXP SWAP1 DIV PUSH1 0xFF AND PUSH1 0x5 DUP2 GT ISZERO PUSH2 0x1A91 JUMPI PUSH2 0x1A90 PUSH2 0x2098 JUMP JUMPDEST JUMPDEST PUSH2 0x1A9B SWAP2 SWAP1 PUSH2 0x2932 JUMP JUMPDEST PUSH1 0x5 DUP2 GT ISZERO PUSH2 0x1AAD JUMPI PUSH2 0x1AAC PUSH2 0x2098 JUMP JUMPDEST JUMPDEST PUSH1 0x3 PUSH0 SWAP1 SLOAD SWAP1 PUSH2 0x100 EXP SWAP1 DIV PUSH1 0xFF AND PUSH1 0x40 MLOAD PUSH2 0x1ACA SWAP3 SWAP2 SWAP1 PUSH2 0x2965 JUMP JUMPDEST PUSH1 0x40 MLOAD DUP1 SWAP2 SUB SWAP1 LOG1 JUMP JUMPDEST PUSH2 0x1ADC PUSH2 0x1CBB JUMP JUMPDEST PUSH20 0xFFFFFFFFFFFFFFFFFFFFFFFFFFFFFFFFFFFFFFFF AND PUSH2 0x1AFA PUSH2 0x1001 JUMP JUMPDEST PUSH20 0xFFFFFFFFFFFFFFFFFFFFFFFFFFFFFFFFFFFFFFFF AND EQ PUSH2 0x1B59 JUMPI PUSH2 0x1B1D PUSH2 0x1CBB JUMP JUMPDEST PUSH1 0x40 MLOAD PUSH32 0x118CDAA700000000000000000000000000000000000000000000000000000000 DUP2 MSTORE PUSH1 0x4 ADD PUSH2 0x1B50 SWAP2 SWAP1 PUSH2 0x218D JUMP JUMPDEST PUSH1 0x40 MLOAD DUP1 SWAP2 SUB SWAP1 REVERT JUMPDEST JUMP JUMPDEST PUSH0 PUSH0 PUSH0 SWAP1 SLOAD SWAP1 PUSH2 0x100 EXP SWAP1 DIV PUSH20 0xFFFFFFFFFFFFFFFFFFFFFFFFFFFFFFFFFFFFFFFF AND SWAP1 POP DUP2 PUSH0 PUSH0 PUSH2 0x100 EXP DUP2 SLOAD DUP2 PUSH20 0xFFFFFFFFFFFFFFFFFFFFFFFFFFFFFFFFFFFFFFFF MUL NOT AND SWAP1 DUP4 PUSH20 0xFFFFFFFFFFFFFFFFFFFFFFFFFFFFFFFFFFFFFFFF AND MUL OR SWAP1 SSTORE POP DUP2 PUSH20 0xFFFFFFFFFFFFFFFFFFFFFFFFFFFFFFFFFFFFFFFF AND DUP2 PUSH20 0xFFFFFFFFFFFFFFFFFFFFFFFFFFFFFFFFFFFFFFFF AND PUSH32 0x8BE0079C531659141344CD1FD0A4F28419497F9722A3DAAFE3B4186F6B6457E0 PUSH1 0x40 MLOAD PUSH1 0x40 MLOAD DUP1 SWAP2 SUB SWAP1 LOG3 POP POP JUMP JUMPDEST PUSH2 0x1C24 PUSH2 0x1AD4 JUMP JUMPDEST PUSH0 PUSH0 SWAP1 POP JUMPDEST PUSH1 0x2 DUP1 SLOAD SWAP1 POP DUP2 LT ISZERO PUSH2 0x1CB8 JUMPI PUSH1 0x9 SLOAD PUSH1 0x2 DUP3 DUP2 SLOAD DUP2 LT PUSH2 0x1C4D JUMPI PUSH2 0x1C4C PUSH2 0x256D JUMP JUMPDEST JUMPDEST SWAP1 PUSH0 MSTORE PUSH1 0x20 PUSH0 KECCAK256 SWAP1 PUSH1 0x2 MUL ADD PUSH1 0x1 ADD SLOAD LT PUSH2 0x1CAB JUMPI PUSH1 0x2 DUP2 DUP2 SLOAD DUP2 LT PUSH2 0x1C76 JUMPI PUSH2 0x1C75 PUSH2 0x256D JUMP JUMPDEST JUMPDEST SWAP1 PUSH0 MSTORE PUSH1 0x20 PUSH0 KECCAK256 SWAP1 PUSH1 0x2 MUL ADD PUSH1 0x1 ADD SLOAD PUSH1 0x9 DUP2 SWAP1 SSTORE POP DUP1 PUSH1 0x4 DUP2 SWAP1 SSTORE POP PUSH1 0x8 PUSH0 DUP2 SLOAD DUP1 SWAP3 SWAP2 SWAP1 PUSH2 0x1CA5 SWAP1 PUSH2 0x25C7 JUMP JUMPDEST SWAP2 SWAP1 POP SSTORE POP JUMPDEST DUP1 DUP1 PUSH1 0x1 ADD SWAP2 POP POP PUSH2 0x1C29 JUMP JUMPDEST POP JUMP JUMPDEST PUSH0 CALLER SWAP1 POP SWAP1 JUMP JUMPDEST PUSH1 0x40 MLOAD DUP1 PUSH1 0x40 ADD PUSH1 0x40 MSTORE DUP1 PUSH1 0x60 DUP2 MSTORE PUSH1 0x20 ADD PUSH0 DUP2 MSTORE POP SWAP1 JUMP JUMPDEST POP DUP1 SLOAD PUSH0 DUP3 SSTORE PUSH1 0x2 MUL SWAP1 PUSH0 MSTORE PUSH1 0x20 PUSH0 KECCAK256 SWAP1 DUP2 ADD SWAP1 PUSH2 0x1CF9 SWAP2 SWAP1 PUSH2 0x1CFC JUMP JUMPDEST POP JUMP JUMPDEST JUMPDEST DUP1 DUP3 GT ISZERO PUSH2 0x1D24 JUMPI PUSH0 PUSH0 DUP3 ADD PUSH0 PUSH2 0x1D14 SWAP2 SWAP1 PUSH2 0x1D28 JUMP JUMPDEST PUSH1 0x1 DUP3 ADD PUSH0 SWAP1 SSTORE POP PUSH1 0x2 ADD PUSH2 0x1CFD JUMP JUMPDEST POP SWAP1 JUMP JUMPDEST POP DUP1 SLOAD PUSH2 0x1D34 SWAP1 PUSH2 0x27E6 JUMP JUMPDEST PUSH0 DUP3 SSTORE DUP1 PUSH1 0x1F LT PUSH2 0x1D45 JUMPI POP PUSH2 0x1D62 JUMP JUMPDEST PUSH1 0x1F ADD PUSH1 0x20 SWAP1 DIV SWAP1 PUSH0 MSTORE PUSH1 0x20 PUSH0 KECCAK256 SWAP1 DUP2 ADD SWAP1 PUSH2 0x1D61 SWAP2 SWAP1 PUSH2 0x1D65 JUMP JUMPDEST JUMPDEST POP JUMP JUMPDEST JUMPDEST DUP1 DUP3 GT ISZERO PUSH2 0x1D7C JUMPI PUSH0 DUP2 PUSH0 SWAP1 SSTORE POP PUSH1 0x1 ADD PUSH2 0x1D66 JUMP JUMPDEST POP SWAP1 JUMP JUMPDEST PUSH0 PUSH1 0x40 MLOAD SWAP1 POP SWAP1 JUMP JUMPDEST PUSH0 PUSH0 REVERT JUMPDEST PUSH0 PUSH0 REVERT JUMPDEST PUSH0 DUP2 SWAP1 POP SWAP2 SWAP1 POP JUMP JUMPDEST PUSH2 0x1DA3 DUP2 PUSH2 0x1D91 JUMP JUMPDEST DUP2 EQ PUSH2 0x1DAD JUMPI PUSH0 PUSH0 REVERT JUMPDEST POP JUMP JUMPDEST PUSH0 DUP2 CALLDATALOAD SWAP1 POP PUSH2 0x1DBE DUP2 PUSH2 0x1D9A JUMP JUMPDEST SWAP3 SWAP2 POP POP JUMP JUMPDEST PUSH0 PUSH1 0x20 DUP3 DUP5 SUB SLT ISZERO PUSH2 0x1DD9 JUMPI PUSH2 0x1DD8 PUSH2 0x1D89 JUMP JUMPDEST JUMPDEST PUSH0 PUSH2 0x1DE6 DUP5 DUP3 DUP6 ADD PUSH2 0x1DB0 JUMP JUMPDEST SWAP2 POP POP SWAP3 SWAP2 POP POP JUMP JUMPDEST PUSH2 0x1DF8 DUP2 PUSH2 0x1D91 JUMP JUMPDEST DUP3 MSTORE POP POP JUMP JUMPDEST PUSH0 PUSH1 0x20 DUP3 ADD SWAP1 POP PUSH2 0x1E11 PUSH0 DUP4 ADD DUP5 PUSH2 0x1DEF JUMP JUMPDEST SWAP3 SWAP2 POP POP JUMP JUMPDEST PUSH0 PUSH20 0xFFFFFFFFFFFFFFFFFFFFFFFFFFFFFFFFFFFFFFFF DUP3 AND SWAP1 POP SWAP2 SWAP1 POP JUMP JUMPDEST PUSH0 PUSH2 0x1E40 DUP3 PUSH2 0x1E17 JUMP JUMPDEST SWAP1 POP SWAP2 SWAP1 POP JUMP JUMPDEST PUSH2 0x1E50 DUP2 PUSH2 0x1E36 JUMP JUMPDEST DUP2 EQ PUSH2 0x1E5A JUMPI PUSH0 PUSH0 REVERT JUMPDEST POP JUMP JUMPDEST PUSH0 DUP2 CALLDATALOAD SWAP1 POP PUSH2 0x1E6B DUP2 PUSH2 0x1E47 JUMP JUMPDEST SWAP3 SWAP2 POP POP JUMP JUMPDEST PUSH0 PUSH1 0x20 DUP3 DUP5 SUB SLT ISZERO PUSH2 0x1E86 JUMPI PUSH2 0x1E85 PUSH2 0x1D89 JUMP JUMPDEST JUMPDEST PUSH0 PUSH2 0x1E93 DUP5 DUP3 DUP6 ADD PUSH2 0x1E5D JUMP JUMPDEST SWAP2 POP POP SWAP3 SWAP2 POP POP JUMP JUMPDEST PUSH0 DUP2 MLOAD SWAP1 POP SWAP2 SWAP1 POP JUMP JUMPDEST PUSH0 DUP3 DUP3 MSTORE PUSH1 0x20 DUP3 ADD SWAP1 POP SWAP3 SWAP2 POP POP JUMP JUMPDEST DUP3 DUP2 DUP4 MCOPY PUSH0 DUP4 DUP4 ADD MSTORE POP POP POP JUMP JUMPDEST PUSH0 PUSH1 0x1F NOT PUSH1 0x1F DUP4 ADD AND SWAP1 POP SWAP2 SWAP1 POP JUMP JUMPDEST PUSH0 PUSH2 0x1EDE DUP3 PUSH2 0x1E9C JUMP JUMPDEST PUSH2 0x1EE8 DUP2 DUP6 PUSH2 0x1EA6 JUMP JUMPDEST SWAP4 POP PUSH2 0x1EF8 DUP2 DUP6 PUSH1 0x20 DUP7 ADD PUSH2 0x1EB6 JUMP JUMPDEST PUSH2 0x1F01 DUP2 PUSH2 0x1EC4 JUMP JUMPDEST DUP5 ADD SWAP2 POP POP SWAP3 SWAP2 POP POP JUMP JUMPDEST PUSH0 PUSH1 0x20 DUP3 ADD SWAP1 POP DUP2 DUP2 SUB PUSH0 DUP4 ADD MSTORE PUSH2 0x1F24 DUP2 DUP5 PUSH2 0x1ED4 JUMP JUMPDEST SWAP1 POP SWAP3 SWAP2 POP POP JUMP JUMPDEST PUSH0 DUP2 MLOAD SWAP1 POP SWAP2 SWAP1 POP JUMP JUMPDEST PUSH0 DUP3 DUP3 MSTORE PUSH1 0x20 DUP3 ADD SWAP1 POP SWAP3 SWAP2 POP POP JUMP JUMPDEST PUSH0 DUP2 SWAP1 POP PUSH1 0x20 DUP3 ADD SWAP1 POP SWAP2 SWAP1 POP JUMP JUMPDEST PUSH0 DUP3 DUP3 MSTORE PUSH1 0x20 DUP3 ADD SWAP1 POP SWAP3 SWAP2 POP POP JUMP JUMPDEST PUSH0 PUSH2 0x1F6F DUP3 PUSH2 0x1E9C JUMP JUMPDEST PUSH2 0x1F79 DUP2 DUP6 PUSH2 0x1F55 JUMP JUMPDEST SWAP4 POP PUSH2 0x1F89 DUP2 DUP6 PUSH1 0x20 DUP7 ADD PUSH2 0x1EB6 JUMP JUMPDEST PUSH2 0x1F92 DUP2 PUSH2 0x1EC4 JUMP JUMPDEST DUP5 ADD SWAP2 POP POP SWAP3 SWAP2 POP POP JUMP JUMPDEST PUSH2 0x1FA6 DUP2 PUSH2 0x1D91 JUMP JUMPDEST DUP3 MSTORE POP POP JUMP JUMPDEST PUSH0 PUSH1 0x40 DUP4 ADD PUSH0 DUP4 ADD MLOAD DUP5 DUP3 SUB PUSH0 DUP7 ADD MSTORE PUSH2 0x1FC6 DUP3 DUP3 PUSH2 0x1F65 JUMP JUMPDEST SWAP2 POP POP PUSH1 0x20 DUP4 ADD MLOAD PUSH2 0x1FDB PUSH1 0x20 DUP7 ADD DUP3 PUSH2 0x1F9D JUMP JUMPDEST POP DUP1 SWAP2 POP POP SWAP3 SWAP2 POP POP JUMP JUMPDEST PUSH0 PUSH2 0x1FF1 DUP4 DUP4 PUSH2 0x1FAC JUMP JUMPDEST SWAP1 POP SWAP3 SWAP2 POP POP JUMP JUMPDEST PUSH0 PUSH1 0x20 DUP3 ADD SWAP1 POP SWAP2 SWAP1 POP JUMP JUMPDEST PUSH0 PUSH2 0x200F DUP3 PUSH2 0x1F2C JUMP JUMPDEST PUSH2 0x2019 DUP2 DUP6 PUSH2 0x1F36 JUMP JUMPDEST SWAP4 POP DUP4 PUSH1 0x20 DUP3 MUL DUP6 ADD PUSH2 0x202B DUP6 PUSH2 0x1F46 JUMP JUMPDEST DUP1 PUSH0 JUMPDEST DUP6 DUP2 LT ISZERO PUSH2 0x2066 JUMPI DUP5 DUP5 SUB DUP10 MSTORE DUP2 MLOAD PUSH2 0x2047 DUP6 DUP3 PUSH2 0x1FE6 JUMP JUMPDEST SWAP5 POP PUSH2 0x2052 DUP4 PUSH2 0x1FF9 JUMP JUMPDEST SWAP3 POP PUSH1 0x20 DUP11 ADD SWAP10 POP POP PUSH1 0x1 DUP2 ADD SWAP1 POP PUSH2 0x202E JUMP JUMPDEST POP DUP3 SWAP8 POP DUP8 SWAP6 POP POP POP POP POP POP SWAP3 SWAP2 POP POP JUMP JUMPDEST PUSH0 PUSH1 0x20 DUP3 ADD SWAP1 POP DUP2 DUP2 SUB PUSH0 DUP4 ADD MSTORE PUSH2 0x2090 DUP2 DUP5 PUSH2 0x2005 JUMP JUMPDEST SWAP1 POP SWAP3 SWAP2 POP POP JUMP JUMPDEST PUSH32 0x4E487B7100000000000000000000000000000000000000000000000000000000 PUSH0 MSTORE PUSH1 0x21 PUSH1 0x4 MSTORE PUSH1 0x24 PUSH0 REVERT JUMPDEST PUSH1 0x6 DUP2 LT PUSH2 0x20D6 JUMPI PUSH2 0x20D5 PUSH2 0x2098 JUMP JUMPDEST JUMPDEST POP JUMP JUMPDEST PUSH0 DUP2 SWAP1 POP PUSH2 0x20E6 DUP3 PUSH2 0x20C5 JUMP JUMPDEST SWAP2 SWAP1 POP JUMP JUMPDEST PUSH0 PUSH2 0x20F5 DUP3 PUSH2 0x20D9 JUMP JUMPDEST SWAP1 POP SWAP2 SWAP1 POP JUMP JUMPDEST PUSH2 0x2105 DUP2 PUSH2 0x20EB JUMP JUMPDEST DUP3 MSTORE POP POP JUMP JUMPDEST PUSH0 PUSH1 0x20 DUP3 ADD SWAP1 POP PUSH2 0x211E PUSH0 DUP4 ADD DUP5 PUSH2 0x20FC JUMP JUMPDEST SWAP3 SWAP2 POP POP JUMP JUMPDEST PUSH0 PUSH1 0x40 DUP4 ADD PUSH0 DUP4 ADD MLOAD DUP5 DUP3 SUB PUSH0 DUP7 ADD MSTORE PUSH2 0x213E DUP3 DUP3 PUSH2 0x1F65 JUMP JUMPDEST SWAP2 POP POP PUSH1 0x20 DUP4 ADD MLOAD PUSH2 0x2153 PUSH1 0x20 DUP7 ADD DUP3 PUSH2 0x1F9D JUMP JUMPDEST POP DUP1 SWAP2 POP POP SWAP3 SWAP2 POP POP JUMP JUMPDEST PUSH0 PUSH1 0x20 DUP3 ADD SWAP1 POP DUP2 DUP2 SUB PUSH0 DUP4 ADD MSTORE PUSH2 0x2176 DUP2 DUP5 PUSH2 0x2124 JUMP JUMPDEST SWAP1 POP SWAP3 SWAP2 POP POP JUMP JUMPDEST PUSH2 0x2187 DUP2 PUSH2 0x1E36 JUMP JUMPDEST DUP3 MSTORE POP POP JUMP JUMPDEST PUSH0 PUSH1 0x20 DUP3 ADD SWAP1 POP PUSH2 0x21A0 PUSH0 DUP4 ADD DUP5 PUSH2 0x217E JUMP JUMPDEST SWAP3 SWAP2 POP POP JUMP JUMPDEST PUSH0 PUSH0 REVERT JUMPDEST PUSH0 PUSH0 REVERT JUMPDEST PUSH32 0x4E487B7100000000000000000000000000000000000000000000000000000000 PUSH0 MSTORE PUSH1 0x41 PUSH1 0x4 MSTORE PUSH1 0x24 PUSH0 REVERT JUMPDEST PUSH2 0x21E4 DUP3 PUSH2 0x1EC4 JUMP JUMPDEST DUP2 ADD DUP2 DUP2 LT PUSH8 0xFFFFFFFFFFFFFFFF DUP3 GT OR ISZERO PUSH2 0x2203 JUMPI PUSH2 0x2202 PUSH2 0x21AE JUMP JUMPDEST JUMPDEST DUP1 PUSH1 0x40 MSTORE POP POP POP JUMP JUMPDEST PUSH0 PUSH2 0x2215 PUSH2 0x1D80 JUMP JUMPDEST SWAP1 POP PUSH2 0x2221 DUP3 DUP3 PUSH2 0x21DB JUMP JUMPDEST SWAP2 SWAP1 POP JUMP JUMPDEST PUSH0 PUSH8 0xFFFFFFFFFFFFFFFF DUP3 GT ISZERO PUSH2 0x2240 JUMPI PUSH2 0x223F PUSH2 0x21AE JUMP JUMPDEST JUMPDEST PUSH2 0x2249 DUP3 PUSH2 0x1EC4 JUMP JUMPDEST SWAP1 POP PUSH1 0x20 DUP2 ADD SWAP1 POP SWAP2 SWAP1 POP JUMP JUMPDEST DUP3 DUP2 DUP4 CALLDATACOPY PUSH0 DUP4 DUP4 ADD MSTORE POP POP POP JUMP JUMPDEST PUSH0 PUSH2 0x2276 PUSH2 0x2271 DUP5 PUSH2 0x2226 JUMP JUMPDEST PUSH2 0x220C JUMP JUMPDEST SWAP1 POP DUP3 DUP2 MSTORE PUSH1 0x20 DUP2 ADD DUP5 DUP5 DUP5 ADD GT ISZERO PUSH2 0x2292 JUMPI PUSH2 0x2291 PUSH2 0x21AA JUMP JUMPDEST JUMPDEST PUSH2 0x229D DUP5 DUP3 DUP6 PUSH2 0x2256 JUMP JUMPDEST POP SWAP4 SWAP3 POP POP POP JUMP JUMPDEST PUSH0 DUP3 PUSH1 0x1F DUP4 ADD SLT PUSH2 0x22B9 JUMPI PUSH2 0x22B8 PUSH2 0x21A6 JUMP JUMPDEST JUMPDEST DUP2 CALLDATALOAD PUSH2 0x22C9 DUP5 DUP3 PUSH1 0x20 DUP7 ADD PUSH2 0x2264 JUMP JUMPDEST SWAP2 POP POP SWAP3 SWAP2 POP POP JUMP JUMPDEST PUSH0 PUSH1 0x20 DUP3 DUP5 SUB SLT ISZERO PUSH2 0x22E7 JUMPI PUSH2 0x22E6 PUSH2 0x1D89 JUMP JUMPDEST JUMPDEST PUSH0 DUP3 ADD CALLDATALOAD PUSH8 0xFFFFFFFFFFFFFFFF DUP2 GT ISZERO PUSH2 0x2304 JUMPI PUSH2 0x2303 PUSH2 0x1D8D JUMP JUMPDEST JUMPDEST PUSH2 0x2310 DUP5 DUP3 DUP6 ADD PUSH2 0x22A5 JUMP JUMPDEST SWAP2 POP POP SWAP3 SWAP2 POP POP JUMP JUMPDEST PUSH32 0x596F752063616E206F6E6C7920766F7465206966207468657265206973206D6F PUSH0 DUP3 ADD MSTORE PUSH32 0x7265207468616E20312077696E6E657200000000000000000000000000000000 PUSH1 0x20 DUP3 ADD MSTORE POP JUMP JUMPDEST PUSH0 PUSH2 0x2373 PUSH1 0x30 DUP4 PUSH2 0x1EA6 JUMP JUMPDEST SWAP2 POP PUSH2 0x237E DUP3 PUSH2 0x2319 JUMP JUMPDEST PUSH1 0x40 DUP3 ADD SWAP1 POP SWAP2 SWAP1 POP JUMP JUMPDEST PUSH0 PUSH1 0x20 DUP3 ADD SWAP1 POP DUP2 DUP2 SUB PUSH0 DUP4 ADD MSTORE PUSH2 0x23A0 DUP2 PUSH2 0x2367 JUMP JUMPDEST SWAP1 POP SWAP2 SWAP1 POP JUMP JUMPDEST PUSH32 0x54686520766F74696E672073657373696F6E206973206E6F7420737461727465 PUSH0 DUP3 ADD MSTORE PUSH32 0x6400000000000000000000000000000000000000000000000000000000000000 PUSH1 0x20 DUP3 ADD MSTORE POP JUMP JUMPDEST PUSH0 PUSH2 0x2401 PUSH1 0x21 DUP4 PUSH2 0x1EA6 JUMP JUMPDEST SWAP2 POP PUSH2 0x240C DUP3 PUSH2 0x23A7 JUMP JUMPDEST PUSH1 0x40 DUP3 ADD SWAP1 POP SWAP2 SWAP1 POP JUMP JUMPDEST PUSH0 PUSH1 0x20 DUP3 ADD SWAP1 POP DUP2 DUP2 SUB PUSH0 DUP4 ADD MSTORE PUSH2 0x242E DUP2 PUSH2 0x23F5 JUMP JUMPDEST SWAP1 POP SWAP2 SWAP1 POP JUMP JUMPDEST PUSH32 0x596F7520617265206E6F74207265676973746572656400000000000000000000 PUSH0 DUP3 ADD MSTORE POP JUMP JUMPDEST PUSH0 PUSH2 0x2469 PUSH1 0x16 DUP4 PUSH2 0x1EA6 JUMP JUMPDEST SWAP2 POP PUSH2 0x2474 DUP3 PUSH2 0x2435 JUMP JUMPDEST PUSH1 0x20 DUP3 ADD SWAP1 POP SWAP2 SWAP1 POP JUMP JUMPDEST PUSH0 PUSH1 0x20 DUP3 ADD SWAP1 POP DUP2 DUP2 SUB PUSH0 DUP4 ADD MSTORE PUSH2 0x2496 DUP2 PUSH2 0x245D JUMP JUMPDEST SWAP1 POP SWAP2 SWAP1 POP JUMP JUMPDEST PUSH32 0x596F7520616C726561647920766F746564000000000000000000000000000000 PUSH0 DUP3 ADD MSTORE POP JUMP JUMPDEST PUSH0 PUSH2 0x24D1 PUSH1 0x11 DUP4 PUSH2 0x1EA6 JUMP JUMPDEST SWAP2 POP PUSH2 0x24DC DUP3 PUSH2 0x249D JUMP JUMPDEST PUSH1 0x20 DUP3 ADD SWAP1 POP SWAP2 SWAP1 POP JUMP JUMPDEST PUSH0 PUSH1 0x20 DUP3 ADD SWAP1 POP DUP2 DUP2 SUB PUSH0 DUP4 ADD MSTORE PUSH2 0x24FE DUP2 PUSH2 0x24C5 JUMP JUMPDEST SWAP1 POP SWAP2 SWAP1 POP JUMP JUMPDEST PUSH32 0x546869732070726F706F73616C20494420646F6573206E6F7420657869737473 PUSH0 DUP3 ADD MSTORE POP JUMP JUMPDEST PUSH0 PUSH2 0x2539 PUSH1 0x20 DUP4 PUSH2 0x1EA6 JUMP JUMPDEST SWAP2 POP PUSH2 0x2544 DUP3 PUSH2 0x2505 JUMP JUMPDEST PUSH1 0x20 DUP3 ADD SWAP1 POP SWAP2 SWAP1 POP JUMP JUMPDEST PUSH0 PUSH1 0x20 DUP3 ADD SWAP1 POP DUP2 DUP2 SUB PUSH0 DUP4 ADD MSTORE PUSH2 0x2566 DUP2 PUSH2 0x252D JUMP JUMPDEST SWAP1 POP SWAP2 SWAP1 POP JUMP JUMPDEST PUSH32 0x4E487B7100000000000000000000000000000000000000000000000000000000 PUSH0 MSTORE PUSH1 0x32 PUSH1 0x4 MSTORE PUSH1 0x24 PUSH0 REVERT JUMPDEST PUSH32 0x4E487B7100000000000000000000000000000000000000000000000000000000 PUSH0 MSTORE PUSH1 0x11 PUSH1 0x4 MSTORE PUSH1 0x24 PUSH0 REVERT JUMPDEST PUSH0 PUSH2 0x25D1 DUP3 PUSH2 0x1D91 JUMP JUMPDEST SWAP2 POP PUSH32 0xFFFFFFFFFFFFFFFFFFFFFFFFFFFFFFFFFFFFFFFFFFFFFFFFFFFFFFFFFFFFFFFF DUP3 SUB PUSH2 0x2603 JUMPI PUSH2 0x2602 PUSH2 0x259A JUMP JUMPDEST JUMPDEST PUSH1 0x1 DUP3 ADD SWAP1 POP SWAP2 SWAP1 POP JUMP JUMPDEST PUSH0 PUSH1 0x40 DUP3 ADD SWAP1 POP PUSH2 0x2621 PUSH0 DUP4 ADD DUP6 PUSH2 0x217E JUMP JUMPDEST PUSH2 0x262E PUSH1 0x20 DUP4 ADD DUP5 PUSH2 0x1DEF JUMP JUMPDEST SWAP4 SWAP3 POP POP POP JUMP JUMPDEST PUSH32 0x596F7520617265206E6F7420696E20766F74657220726567697374726174696F PUSH0 DUP3 ADD MSTORE PUSH32 0x6E20706572696F64000000000000000000000000000000000000000000000000 PUSH1 0x20 DUP3 ADD MSTORE POP JUMP JUMPDEST PUSH0 PUSH2 0x268F PUSH1 0x28 DUP4 PUSH2 0x1EA6 JUMP JUMPDEST SWAP2 POP PUSH2 0x269A DUP3 PUSH2 0x2635 JUMP JUMPDEST PUSH1 0x40 DUP3 ADD SWAP1 POP SWAP2 SWAP1 POP JUMP JUMPDEST PUSH0 PUSH1 0x20 DUP3 ADD SWAP1 POP DUP2 DUP2 SUB PUSH0 DUP4 ADD MSTORE PUSH2 0x26BC DUP2 PUSH2 0x2683 JUMP JUMPDEST SWAP1 POP SWAP2 SWAP1 POP JUMP JUMPDEST PUSH32 0x596F7520616C7265616479206861766520616464207468697320616472657373 PUSH0 DUP3 ADD MSTORE POP JUMP JUMPDEST PUSH0 PUSH2 0x26F7 PUSH1 0x20 DUP4 PUSH2 0x1EA6 JUMP JUMPDEST SWAP2 POP PUSH2 0x2702 DUP3 PUSH2 0x26C3 JUMP JUMPDEST PUSH1 0x20 DUP3 ADD SWAP1 POP SWAP2 SWAP1 POP JUMP JUMPDEST PUSH0 PUSH1 0x20 DUP3 ADD SWAP1 POP DUP2 DUP2 SUB PUSH0 DUP4 ADD MSTORE PUSH2 0x2724 DUP2 PUSH2 0x26EB JUMP JUMPDEST SWAP1 POP SWAP2 SWAP1 POP JUMP JUMPDEST PUSH32 0x5468652077696E6E65722068617665206E6F74206265656E2063686F6F73656E PUSH0 DUP3 ADD MSTORE PUSH32 0x2079657400000000000000000000000000000000000000000000000000000000 PUSH1 0x20 DUP3 ADD MSTORE POP JUMP JUMPDEST PUSH0 PUSH2 0x2785 PUSH1 0x24 DUP4 PUSH2 0x1EA6 JUMP JUMPDEST SWAP2 POP PUSH2 0x2790 DUP3 PUSH2 0x272B JUMP JUMPDEST PUSH1 0x40 DUP3 ADD SWAP1 POP SWAP2 SWAP1 POP JUMP JUMPDEST PUSH0 PUSH1 0x20 DUP3 ADD SWAP1 POP DUP2 DUP2 SUB PUSH0 DUP4 ADD MSTORE PUSH2 0x27B2 DUP2 PUSH2 0x2779 JUMP JUMPDEST SWAP1 POP SWAP2 SWAP1 POP JUMP JUMPDEST PUSH32 0x4E487B7100000000000000000000000000000000000000000000000000000000 PUSH0 MSTORE PUSH1 0x22 PUSH1 0x4 MSTORE PUSH1 0x24 PUSH0 REVERT JUMPDEST PUSH0 PUSH1 0x2 DUP3 DIV SWAP1 POP PUSH1 0x1 DUP3 AND DUP1 PUSH2 0x27FD JUMPI PUSH1 0x7F DUP3 AND SWAP2 POP JUMPDEST PUSH1 0x20 DUP3 LT DUP2 SUB PUSH2 0x2810 JUMPI PUSH2 0x280F PUSH2 0x27B9 JUMP JUMPDEST JUMPDEST POP SWAP2 SWAP1 POP JUMP JUMPDEST PUSH32 0x596F752063616E206E6F7420737461727420616761696E207468652070726F70 PUSH0 DUP3 ADD MSTORE PUSH32 0x6F73616C2073657373696F6E0000000000000000000000000000000000000000 PUSH1 0x20 DUP3 ADD MSTORE POP JUMP JUMPDEST PUSH0 PUSH2 0x2870 PUSH1 0x2C DUP4 PUSH2 0x1EA6 JUMP JUMPDEST SWAP2 POP PUSH2 0x287B DUP3 PUSH2 0x2816 JUMP JUMPDEST PUSH1 0x40 DUP3 ADD SWAP1 POP SWAP2 SWAP1 POP JUMP JUMPDEST PUSH0 PUSH1 0x20 DUP3 ADD SWAP1 POP DUP2 DUP2 SUB PUSH0 DUP4 ADD MSTORE PUSH2 0x289D DUP2 PUSH2 0x2864 JUMP JUMPDEST SWAP1 POP SWAP2 SWAP1 POP JUMP JUMPDEST PUSH32 0x596F75206D757374207265676973746572206174206C65617374203220616464 PUSH0 DUP3 ADD MSTORE PUSH32 0x7265737365730000000000000000000000000000000000000000000000000000 PUSH1 0x20 DUP3 ADD MSTORE POP JUMP JUMPDEST PUSH0 PUSH2 0x28FE PUSH1 0x26 DUP4 PUSH2 0x1EA6 JUMP JUMPDEST SWAP2 POP PUSH2 0x2909 DUP3 PUSH2 0x28A4 JUMP JUMPDEST PUSH1 0x40 DUP3 ADD SWAP1 POP SWAP2 SWAP1 POP JUMP JUMPDEST PUSH0 PUSH1 0x20 DUP3 ADD SWAP1 POP DUP2 DUP2 SUB PUSH0 DUP4 ADD MSTORE PUSH2 0x292B DUP2 PUSH2 0x28F2 JUMP JUMPDEST SWAP1 POP SWAP2 SWAP1 POP JUMP JUMPDEST PUSH0 PUSH2 0x293C DUP3 PUSH2 0x1D91 JUMP JUMPDEST SWAP2 POP PUSH2 0x2947 DUP4 PUSH2 0x1D91 JUMP JUMPDEST SWAP3 POP DUP3 DUP3 SUB SWAP1 POP DUP2 DUP2 GT ISZERO PUSH2 0x295F JUMPI PUSH2 0x295E PUSH2 0x259A JUMP JUMPDEST JUMPDEST SWAP3 SWAP2 POP POP JUMP JUMPDEST PUSH0 PUSH1 0x40 DUP3 ADD SWAP1 POP PUSH2 0x2978 PUSH0 DUP4 ADD DUP6 PUSH2 0x20FC JUMP JUMPDEST PUSH2 0x2985 PUSH1 0x20 DUP4 ADD DUP5 PUSH2 0x20FC JUMP JUMPDEST SWAP4 SWAP3 POP POP POP JUMP JUMPDEST PUSH32 0x546869732061646472657373206973206E6F7420726567697374657265640000 PUSH0 DUP3 ADD MSTORE POP JUMP JUMPDEST PUSH0 PUSH2 0x29C0 PUSH1 0x1E DUP4 PUSH2 0x1EA6 JUMP JUMPDEST SWAP2 POP PUSH2 0x29CB DUP3 PUSH2 0x298C JUMP JUMPDEST PUSH1 0x20 DUP3 ADD SWAP1 POP SWAP2 SWAP1 POP JUMP JUMPDEST PUSH0 PUSH1 0x20 DUP3 ADD SWAP1 POP DUP2 DUP2 SUB PUSH0 DUP4 ADD MSTORE PUSH2 0x29ED DUP2 PUSH2 0x29B4 JUMP JUMPDEST SWAP1 POP SWAP2 SWAP1 POP JUMP JUMPDEST PUSH32 0x54686973206164647265737320686173206E6F7420766F746564000000000000 PUSH0 DUP3 ADD MSTORE POP JUMP JUMPDEST PUSH0 PUSH2 0x2A28 PUSH1 0x1A DUP4 PUSH2 0x1EA6 JUMP JUMPDEST SWAP2 POP PUSH2 0x2A33 DUP3 PUSH2 0x29F4 JUMP JUMPDEST PUSH1 0x20 DUP3 ADD SWAP1 POP SWAP2 SWAP1 POP JUMP JUMPDEST PUSH0 PUSH1 0x20 DUP3 ADD SWAP1 POP DUP2 DUP2 SUB PUSH0 DUP4 ADD MSTORE PUSH2 0x2A55 DUP2 PUSH2 0x2A1C JUMP JUMPDEST SWAP1 POP SWAP2 SWAP1 POP JUMP JUMPDEST PUSH32 0x5468652070726F706F73616C2073657373696F6E206973206E6F742073746172 PUSH0 DUP3 ADD MSTORE PUSH32 0x7465640000000000000000000000000000000000000000000000000000000000 PUSH1 0x20 DUP3 ADD MSTORE POP JUMP JUMPDEST PUSH0 PUSH2 0x2AB6 PUSH1 0x23 DUP4 PUSH2 0x1EA6 JUMP JUMPDEST SWAP2 POP PUSH2 0x2AC1 DUP3 PUSH2 0x2A5C JUMP JUMPDEST PUSH1 0x40 DUP3 ADD SWAP1 POP SWAP2 SWAP1 POP JUMP JUMPDEST PUSH0 PUSH1 0x20 DUP3 ADD SWAP1 POP DUP2 DUP2 SUB PUSH0 DUP4 ADD MSTORE PUSH2 0x2AE3 DUP2 PUSH2 0x2AAA JUMP JUMPDEST SWAP1 POP SWAP2 SWAP1 POP JUMP JUMPDEST PUSH32 0x596F752061726520746865206F776E6572206F66207468697320636F6E747261 PUSH0 DUP3 ADD MSTORE PUSH32 0x63742C20796F752063616E206E6F742070726F706F7365000000000000000000 PUSH1 0x20 DUP3 ADD MSTORE POP JUMP JUMPDEST PUSH0 PUSH2 0x2B44 PUSH1 0x37 DUP4 PUSH2 0x1EA6 JUMP JUMPDEST SWAP2 POP PUSH2 0x2B4F DUP3 PUSH2 0x2AEA JUMP JUMPDEST PUSH1 0x40 DUP3 ADD SWAP1 POP SWAP2 SWAP1 POP JUMP JUMPDEST PUSH0 PUSH1 0x20 DUP3 ADD SWAP1 POP DUP2 DUP2 SUB PUSH0 DUP4 ADD MSTORE PUSH2 0x2B71 DUP2 PUSH2 0x2B38 JUMP JUMPDEST SWAP1 POP SWAP2 SWAP1 POP JUMP JUMPDEST PUSH0 DUP2 SWAP1 POP DUP2 PUSH0 MSTORE PUSH1 0x20 PUSH0 KECCAK256 SWAP1 POP SWAP2 SWAP1 POP JUMP JUMPDEST PUSH0 PUSH1 0x20 PUSH1 0x1F DUP4 ADD DIV SWAP1 POP SWAP2 SWAP1 POP JUMP JUMPDEST PUSH0 DUP3 DUP3 SHL SWAP1 POP SWAP3 SWAP2 POP POP JUMP JUMPDEST PUSH0 PUSH1 0x8 DUP4 MUL PUSH2 0x2BD4 PUSH32 0xFFFFFFFFFFFFFFFFFFFFFFFFFFFFFFFFFFFFFFFFFFFFFFFFFFFFFFFFFFFFFFFF DUP3 PUSH2 0x2B99 JUMP JUMPDEST PUSH2 0x2BDE DUP7 DUP4 PUSH2 0x2B99 JUMP JUMPDEST SWAP6 POP DUP1 NOT DUP5 AND SWAP4 POP DUP1 DUP7 AND DUP5 OR SWAP3 POP POP POP SWAP4 SWAP3 POP POP POP JUMP JUMPDEST PUSH0 DUP2 SWAP1 POP SWAP2 SWAP1 POP JUMP JUMPDEST PUSH0 PUSH2 0x2C19 PUSH2 0x2C14 PUSH2 0x2C0F DUP5 PUSH2 0x1D91 JUMP JUMPDEST PUSH2 0x2BF6 JUMP JUMPDEST PUSH2 0x1D91 JUMP JUMPDEST SWAP1 POP SWAP2 SWAP1 POP JUMP JUMPDEST PUSH0 DUP2 SWAP1 POP SWAP2 SWAP1 POP JUMP JUMPDEST PUSH2 0x2C32 DUP4 PUSH2 0x2BFF JUMP JUMPDEST PUSH2 0x2C46 PUSH2 0x2C3E DUP3 PUSH2 0x2C20 JUMP JUMPDEST DUP5 DUP5 SLOAD PUSH2 0x2BA5 JUMP JUMPDEST DUP3 SSTORE POP POP POP POP JUMP JUMPDEST PUSH0 PUSH0 SWAP1 POP SWAP1 JUMP JUMPDEST PUSH2 0x2C5D PUSH2 0x2C4E JUMP JUMPDEST PUSH2 0x2C68 DUP2 DUP5 DUP5 PUSH2 0x2C29 JUMP JUMPDEST POP POP POP JUMP JUMPDEST JUMPDEST DUP2 DUP2 LT ISZERO PUSH2 0x2C8B JUMPI PUSH2 0x2C80 PUSH0 DUP3 PUSH2 0x2C55 JUMP JUMPDEST PUSH1 0x1 DUP2 ADD SWAP1 POP PUSH2 0x2C6E JUMP JUMPDEST POP POP JUMP JUMPDEST PUSH1 0x1F DUP3 GT ISZERO PUSH2 0x2CD0 JUMPI PUSH2 0x2CA1 DUP2 PUSH2 0x2B78 JUMP JUMPDEST PUSH2 0x2CAA DUP5 PUSH2 0x2B8A JUMP JUMPDEST DUP2 ADD PUSH1 0x20 DUP6 LT ISZERO PUSH2 0x2CB9 JUMPI DUP2 SWAP1 POP JUMPDEST PUSH2 0x2CCD PUSH2 0x2CC5 DUP6 PUSH2 0x2B8A JUMP JUMPDEST DUP4 ADD DUP3 PUSH2 0x2C6D JUMP JUMPDEST POP POP JUMPDEST POP POP POP JUMP JUMPDEST PUSH0 DUP3 DUP3 SHR SWAP1 POP SWAP3 SWAP2 POP POP JUMP JUMPDEST PUSH0 PUSH2 0x2CF0 PUSH0 NOT DUP5 PUSH1 0x8 MUL PUSH2 0x2CD5 JUMP JUMPDEST NOT DUP1 DUP4 AND SWAP2 POP POP SWAP3 SWAP2 POP POP JUMP JUMPDEST PUSH0 PUSH2 0x2D08 DUP4 DUP4 PUSH2 0x2CE1 JUMP JUMPDEST SWAP2 POP DUP3 PUSH1 0x2 MUL DUP3 OR SWAP1 POP SWAP3 SWAP2 POP POP JUMP JUMPDEST PUSH2 0x2D21 DUP3 PUSH2 0x1E9C JUMP JUMPDEST PUSH8 0xFFFFFFFFFFFFFFFF DUP2 GT ISZERO PUSH2 0x2D3A JUMPI PUSH2 0x2D39 PUSH2 0x21AE JUMP JUMPDEST JUMPDEST PUSH2 0x2D44 DUP3 SLOAD PUSH2 0x27E6 JUMP JUMPDEST PUSH2 0x2D4F DUP3 DUP3 DUP6 PUSH2 0x2C8F JUMP JUMPDEST PUSH0 PUSH1 0x20 SWAP1 POP PUSH1 0x1F DUP4 GT PUSH1 0x1 DUP2 EQ PUSH2 0x2D80 JUMPI PUSH0 DUP5 ISZERO PUSH2 0x2D6E JUMPI DUP3 DUP8 ADD MLOAD SWAP1 POP JUMPDEST PUSH2 0x2D78 DUP6 DUP3 PUSH2 0x2CFD JUMP JUMPDEST DUP7 SSTORE POP PUSH2 0x2DDF JUMP JUMPDEST PUSH1 0x1F NOT DUP5 AND PUSH2 0x2D8E DUP7 PUSH2 0x2B78 JUMP JUMPDEST PUSH0 JUMPDEST DUP3 DUP2 LT ISZERO PUSH2 0x2DB5 JUMPI DUP5 DUP10 ADD MLOAD DUP3 SSTORE PUSH1 0x1 DUP3 ADD SWAP2 POP PUSH1 0x20 DUP6 ADD SWAP5 POP PUSH1 0x20 DUP2 ADD SWAP1 POP PUSH2 0x2D90 JUMP JUMPDEST DUP7 DUP4 LT ISZERO PUSH2 0x2DD2 JUMPI DUP5 DUP10 ADD MLOAD PUSH2 0x2DCE PUSH1 0x1F DUP10 AND DUP3 PUSH2 0x2CE1 JUMP JUMPDEST DUP4 SSTORE POP JUMPDEST PUSH1 0x1 PUSH1 0x2 DUP9 MUL ADD DUP9 SSTORE POP POP POP JUMPDEST POP POP POP POP POP POP JUMP JUMPDEST PUSH32 0x5468652070726F706F73616C2073657373696F6E206973206E6F7420656E6465 PUSH0 DUP3 ADD MSTORE PUSH32 0x64206F722074686520766F74652073657373696F6E2068617320616C72656164 PUSH1 0x20 DUP3 ADD MSTORE PUSH32 0x7920737461727465640000000000000000000000000000000000000000000000 PUSH1 0x40 DUP3 ADD MSTORE POP JUMP JUMPDEST PUSH0 PUSH2 0x2E67 PUSH1 0x49 DUP4 PUSH2 0x1EA6 JUMP JUMPDEST SWAP2 POP PUSH2 0x2E72 DUP3 PUSH2 0x2DE7 JUMP JUMPDEST PUSH1 0x60 DUP3 ADD SWAP1 POP SWAP2 SWAP1 POP JUMP JUMPDEST PUSH0 PUSH1 0x20 DUP3 ADD SWAP1 POP DUP2 DUP2 SUB PUSH0 DUP4 ADD MSTORE PUSH2 0x2E94 DUP2 PUSH2 0x2E5B JUMP JUMPDEST SWAP1 POP SWAP2 SWAP1 POP JUMP JUMPDEST PUSH32 0x54686520766F74652073657373696F6E206973206E6F7420656E646564000000 PUSH0 DUP3 ADD MSTORE POP JUMP JUMPDEST PUSH0 PUSH2 0x2ECF PUSH1 0x1D DUP4 PUSH2 0x1EA6 JUMP JUMPDEST SWAP2 POP PUSH2 0x2EDA DUP3 PUSH2 0x2E9B JUMP JUMPDEST PUSH1 0x20 DUP3 ADD SWAP1 POP SWAP2 SWAP1 POP JUMP JUMPDEST PUSH0 PUSH1 0x20 DUP3 ADD SWAP1 POP DUP2 DUP2 SUB PUSH0 DUP4 ADD MSTORE PUSH2 0x2EFC DUP2 PUSH2 0x2EC3 JUMP JUMPDEST SWAP1 POP SWAP2 SWAP1 POP JUMP JUMPDEST PUSH32 0x5468657265206973206D6F7265207468616E20312077696E6E65722C20796F75 PUSH0 DUP3 ADD MSTORE PUSH32 0x206861766520746F20766F746500000000000000000000000000000000000000 PUSH1 0x20 DUP3 ADD MSTORE POP JUMP JUMPDEST PUSH0 PUSH2 0x2F5D PUSH1 0x2D DUP4 PUSH2 0x1EA6 JUMP JUMPDEST SWAP2 POP PUSH2 0x2F68 DUP3 PUSH2 0x2F03 JUMP JUMPDEST PUSH1 0x40 DUP3 ADD SWAP1 POP SWAP2 SWAP1 POP JUMP JUMPDEST PUSH0 PUSH1 0x20 DUP3 ADD SWAP1 POP DUP2 DUP2 SUB PUSH0 DUP4 ADD MSTORE PUSH2 0x2F8A DUP2 PUSH2 0x2F51 JUMP JUMPDEST SWAP1 POP SWAP2 SWAP1 POP JUMP JUMPDEST PUSH32 0x546865206C61737420766F746520686173206E6F74206265656E2074616C6C69 PUSH0 DUP3 ADD MSTORE PUSH32 0x6564000000000000000000000000000000000000000000000000000000000000 PUSH1 0x20 DUP3 ADD MSTORE POP JUMP JUMPDEST PUSH0 PUSH2 0x2FEB PUSH1 0x22 DUP4 PUSH2 0x1EA6 JUMP JUMPDEST SWAP2 POP PUSH2 0x2FF6 DUP3 PUSH2 0x2F91 JUMP JUMPDEST PUSH1 0x40 DUP3 ADD SWAP1 POP SWAP2 SWAP1 POP JUMP JUMPDEST PUSH0 PUSH1 0x20 DUP3 ADD SWAP1 POP DUP2 DUP2 SUB PUSH0 DUP4 ADD MSTORE PUSH2 0x3018 DUP2 PUSH2 0x2FDF JUMP JUMPDEST SWAP1 POP SWAP2 SWAP1 POP JUMP JUMPDEST PUSH32 0x5468652070726F706F73616C2073657373696F6E20686173206E6F7420737461 PUSH0 DUP3 ADD MSTORE PUSH32 0x72746564206F722068617320616C7265616479206265656E20656E6465640000 PUSH1 0x20 DUP3 ADD MSTORE POP JUMP JUMPDEST PUSH0 PUSH2 0x3079 PUSH1 0x3E DUP4 PUSH2 0x1EA6 JUMP JUMPDEST SWAP2 POP PUSH2 0x3084 DUP3 PUSH2 0x301F JUMP JUMPDEST PUSH1 0x40 DUP3 ADD SWAP1 POP SWAP2 SWAP1 POP JUMP JUMPDEST PUSH0 PUSH1 0x20 DUP3 ADD SWAP1 POP DUP2 DUP2 SUB PUSH0 DUP4 ADD MSTORE PUSH2 0x30A6 DUP2 PUSH2 0x306D JUMP JUMPDEST SWAP1 POP SWAP2 SWAP1 POP JUMP JUMPDEST PUSH32 0x546865726520617265206E6F2070726F706F73616C7320726567697374657265 PUSH0 DUP3 ADD MSTORE PUSH32 0x6400000000000000000000000000000000000000000000000000000000000000 PUSH1 0x20 DUP3 ADD MSTORE POP JUMP JUMPDEST PUSH0 PUSH2 0x3107 PUSH1 0x21 DUP4 PUSH2 0x1EA6 JUMP JUMPDEST SWAP2 POP PUSH2 0x3112 DUP3 PUSH2 0x30AD JUMP JUMPDEST PUSH1 0x40 DUP3 ADD SWAP1 POP SWAP2 SWAP1 POP JUMP JUMPDEST PUSH0 PUSH1 0x20 DUP3 ADD SWAP1 POP DUP2 DUP2 SUB PUSH0 DUP4 ADD MSTORE PUSH2 0x3134 DUP2 PUSH2 0x30FB JUMP JUMPDEST SWAP1 POP SWAP2 SWAP1 POP JUMP JUMPDEST PUSH32 0x54686520766F74652073657373696F6E20686173206E6F742073746172746564 PUSH0 DUP3 ADD MSTORE PUSH32 0x206F722068617320616C726561647920656E6465640000000000000000000000 PUSH1 0x20 DUP3 ADD MSTORE POP JUMP JUMPDEST PUSH0 PUSH2 0x3195 PUSH1 0x35 DUP4 PUSH2 0x1EA6 JUMP JUMPDEST SWAP2 POP PUSH2 0x31A0 DUP3 PUSH2 0x313B JUMP JUMPDEST PUSH1 0x40 DUP3 ADD SWAP1 POP SWAP2 SWAP1 POP JUMP JUMPDEST PUSH0 PUSH1 0x20 DUP3 ADD SWAP1 POP DUP2 DUP2 SUB PUSH0 DUP4 ADD MSTORE PUSH2 0x31C2 DUP2 PUSH2 0x3189 JUMP JUMPDEST SWAP1 POP SWAP2 SWAP1 POP JUMP JUMPDEST PUSH32 0x546865726520617265206E6F20766F7465207265676973746572656400000000 PUSH0 DUP3 ADD MSTORE POP JUMP JUMPDEST PUSH0 PUSH2 0x31FD PUSH1 0x1C DUP4 PUSH2 0x1EA6 JUMP JUMPDEST SWAP2 POP PUSH2 0x3208 DUP3 PUSH2 0x31C9 JUMP JUMPDEST PUSH1 0x20 DUP3 ADD SWAP1 POP SWAP2 SWAP1 POP JUMP JUMPDEST PUSH0 PUSH1 0x20 DUP3 ADD SWAP1 POP DUP2 DUP2 SUB PUSH0 DUP4 ADD MSTORE PUSH2 0x322A DUP2 PUSH2 0x31F1 JUMP JUMPDEST SWAP1 POP SWAP2 SWAP1 POP JUMP INVALID LOG2 PUSH5 0x6970667358 0x22 SLT KECCAK256 PUSH21 0x921E2334B2D00258DC49C565C90F18FFDBE9430F03 DUP11 PUSH31 0x8C104D626EB0DC1764736F6C634300081C0033000000000000000000000000 "
				},
				"gasEstimates": {
					"creation": {
						"codeDepositCost": "2580600",
						"executionCost": "infinite",
						"totalCost": "infinite"
					},
					"external": {
						"endProposalSession()": "infinite",
						"endVoteSession()": "infinite",
						"getCurrentStatus()": "2606",
						"getPreviousStatus()": "infinite",
						"getProposalCount()": "2462",
						"getProposals()": "infinite",
						"getVoteByAddress(address)": "infinite",
						"getVoteCountTotal()": "2520",
						"getVoteWinnerCount()": "2565",
						"getVoterCount()": "2478",
						"getWinnerCount()": "2499",
						"getWinnerProposal()": "infinite",
						"getWinnerProposalId()": "4776",
						"getWinner_proposaldescription()": "infinite",
						"owner()": "2625",
						"propose(string)": "infinite",
						"registerVoter(address)": "infinite",
						"renounceOwnership()": "infinite",
						"reset()": "infinite",
						"startProposalSession()": "infinite",
						"startVoteSession()": "infinite",
						"transferOwnership(address)": "infinite",
						"vote(uint256)": "infinite",
						"votesTallied()": "infinite"
					},
					"internal": {
						"setWinnerProposal()": "infinite"
					}
				},
				"methodIdentifiers": {
					"endProposalSession()": "e06752c2",
					"endVoteSession()": "f74c168d",
					"getCurrentStatus()": "a3dd2619",
					"getPreviousStatus()": "65f88a7c",
					"getProposalCount()": "c08cc02d",
					"getProposals()": "62564c48",
					"getVoteByAddress(address)": "80525548",
					"getVoteCountTotal()": "e1ab86fb",
					"getVoteWinnerCount()": "9589dfcc",
					"getVoterCount()": "11174a29",
					"getWinnerCount()": "a46c3637",
					"getWinnerProposal()": "a3c1885b",
					"getWinnerProposalId()": "5bc46514",
					"getWinner_proposaldescription()": "43850c2d",
					"owner()": "8da5cb5b",
					"propose(string)": "aa98df39",
					"registerVoter(address)": "38db6dd3",
					"renounceOwnership()": "715018a6",
					"reset()": "d826f88f",
					"startProposalSession()": "50d072fc",
					"startVoteSession()": "aaa98346",
					"transferOwnership(address)": "f2fde38b",
					"vote(uint256)": "0121b93f",
					"votesTallied()": "ada7415f"
				}
			},
			"storageLayout": {
				"storage": [
					{
						"astId": 8,
						"contract": "contracts/Voting.sol:Voting",
						"label": "_owner",
						"offset": 0,
						"slot": "0",
						"type": "t_address"
					},
					{
						"astId": 199,
						"contract": "contracts/Voting.sol:Voting",
						"label": "whitelistVoter",
						"offset": 0,
						"slot": "1",
						"type": "t_mapping(t_address,t_struct(Voter)189_storage)"
					},
					{
						"astId": 203,
						"contract": "contracts/Voting.sol:Voting",
						"label": "proposals",
						"offset": 0,
						"slot": "2",
						"type": "t_array(t_struct(Proposal)194_storage)dyn_storage"
					},
					{
						"astId": 215,
						"contract": "contracts/Voting.sol:Voting",
						"label": "currentStatus",
						"offset": 0,
						"slot": "3",
						"type": "t_enum(WorkflowStatus)210"
					},
					{
						"astId": 217,
						"contract": "contracts/Voting.sol:Voting",
						"label": "winningProposalId",
						"offset": 0,
						"slot": "4",
						"type": "t_uint256"
					},
					{
						"astId": 219,
						"contract": "contracts/Voting.sol:Voting",
						"label": "voterCount",
						"offset": 0,
						"slot": "5",
						"type": "t_uint256"
					},
					{
						"astId": 221,
						"contract": "contracts/Voting.sol:Voting",
						"label": "voteCountTotal",
						"offset": 0,
						"slot": "6",
						"type": "t_uint256"
					},
					{
						"astId": 223,
						"contract": "contracts/Voting.sol:Voting",
						"label": "numberProposal",
						"offset": 0,
						"slot": "7",
						"type": "t_uint256"
					},
					{
						"astId": 225,
						"contract": "contracts/Voting.sol:Voting",
						"label": "winnerCount",
						"offset": 0,
						"slot": "8",
						"type": "t_uint256"
					},
					{
						"astId": 228,
						"contract": "contracts/Voting.sol:Voting",
						"label": "voteWinnerCount",
						"offset": 0,
						"slot": "9",
						"type": "t_uint256"
					}
				],
				"types": {
					"t_address": {
						"encoding": "inplace",
						"label": "address",
						"numberOfBytes": "20"
					},
					"t_array(t_struct(Proposal)194_storage)dyn_storage": {
						"base": "t_struct(Proposal)194_storage",
						"encoding": "dynamic_array",
						"label": "struct Voting.Proposal[]",
						"numberOfBytes": "32"
					},
					"t_bool": {
						"encoding": "inplace",
						"label": "bool",
						"numberOfBytes": "1"
					},
					"t_enum(WorkflowStatus)210": {
						"encoding": "inplace",
						"label": "enum Voting.WorkflowStatus",
						"numberOfBytes": "1"
					},
					"t_mapping(t_address,t_struct(Voter)189_storage)": {
						"encoding": "mapping",
						"key": "t_address",
						"label": "mapping(address => struct Voting.Voter)",
						"numberOfBytes": "32",
						"value": "t_struct(Voter)189_storage"
					},
					"t_string_storage": {
						"encoding": "bytes",
						"label": "string",
						"numberOfBytes": "32"
					},
					"t_struct(Proposal)194_storage": {
						"encoding": "inplace",
						"label": "struct Voting.Proposal",
						"members": [
							{
								"astId": 191,
								"contract": "contracts/Voting.sol:Voting",
								"label": "description",
								"offset": 0,
								"slot": "0",
								"type": "t_string_storage"
							},
							{
								"astId": 193,
								"contract": "contracts/Voting.sol:Voting",
								"label": "voteCount",
								"offset": 0,
								"slot": "1",
								"type": "t_uint256"
							}
						],
						"numberOfBytes": "64"
					},
					"t_struct(Voter)189_storage": {
						"encoding": "inplace",
						"label": "struct Voting.Voter",
						"members": [
							{
								"astId": 184,
								"contract": "contracts/Voting.sol:Voting",
								"label": "isRegistered",
								"offset": 0,
								"slot": "0",
								"type": "t_bool"
							},
							{
								"astId": 186,
								"contract": "contracts/Voting.sol:Voting",
								"label": "hasVoted",
								"offset": 1,
								"slot": "0",
								"type": "t_bool"
							},
							{
								"astId": 188,
								"contract": "contracts/Voting.sol:Voting",
								"label": "votedProposalId",
								"offset": 0,
								"slot": "1",
								"type": "t_uint256"
							}
						],
						"numberOfBytes": "64"
					},
					"t_uint256": {
						"encoding": "inplace",
						"label": "uint256",
						"numberOfBytes": "32"
					}
				}
			},
			"userdoc": {
				"kind": "user",
				"methods": {},
				"version": 1
			}
		}
	}
}