{
	"contracts/VotingExtended.sol": {
		"Voting": {
			"abi": [
				{
					"inputs": [],
					"stateMutability": "nonpayable",
					"type": "constructor"
				},
				{
					"inputs": [
						{
							"internalType": "address",
							"name": "owner",
							"type": "address"
						}
					],
					"name": "OwnableInvalidOwner",
					"type": "error"
				},
				{
					"inputs": [
						{
							"internalType": "address",
							"name": "account",
							"type": "address"
						}
					],
					"name": "OwnableUnauthorizedAccount",
					"type": "error"
				},
				{
					"anonymous": false,
					"inputs": [
						{
							"indexed": true,
							"internalType": "address",
							"name": "previousOwner",
							"type": "address"
						},
						{
							"indexed": true,
							"internalType": "address",
							"name": "newOwner",
							"type": "address"
						}
					],
					"name": "OwnershipTransferred",
					"type": "event"
				},
				{
					"anonymous": false,
					"inputs": [
						{
							"indexed": false,
							"internalType": "uint256",
							"name": "proposalId",
							"type": "uint256"
						}
					],
					"name": "ProposalRegistered",
					"type": "event"
				},
				{
					"anonymous": false,
					"inputs": [
						{
							"indexed": false,
							"internalType": "address",
							"name": "voter",
							"type": "address"
						},
						{
							"indexed": false,
							"internalType": "uint256",
							"name": "proposalId",
							"type": "uint256"
						}
					],
					"name": "Voted",
					"type": "event"
				},
				{
					"anonymous": false,
					"inputs": [
						{
							"indexed": false,
							"internalType": "address",
							"name": "voterAddress",
							"type": "address"
						}
					],
					"name": "VoterRegistered",
					"type": "event"
				},
				{
					"anonymous": false,
					"inputs": [
						{
							"indexed": false,
							"internalType": "enum Voting.WorkflowStatus",
							"name": "previousStatus",
							"type": "uint8"
						},
						{
							"indexed": false,
							"internalType": "enum Voting.WorkflowStatus",
							"name": "newStatus",
							"type": "uint8"
						}
					],
					"name": "WorkflowStatusChange",
					"type": "event"
				},
				{
					"inputs": [],
					"name": "endProposalSession",
					"outputs": [],
					"stateMutability": "nonpayable",
					"type": "function"
				},
				{
					"inputs": [],
					"name": "endVoteSession",
					"outputs": [],
					"stateMutability": "nonpayable",
					"type": "function"
				},
				{
					"inputs": [
						{
							"internalType": "uint256",
							"name": "_proposalId",
							"type": "uint256"
						}
					],
					"name": "getAddressByProposalId",
					"outputs": [
						{
							"internalType": "address",
							"name": "",
							"type": "address"
						}
					],
					"stateMutability": "view",
					"type": "function"
				},
				{
					"inputs": [],
					"name": "getCurrentStatus",
					"outputs": [
						{
							"internalType": "enum Voting.WorkflowStatus",
							"name": "",
							"type": "uint8"
						}
					],
					"stateMutability": "view",
					"type": "function"
				},
				{
					"inputs": [],
					"name": "getPreviousStatus",
					"outputs": [
						{
							"internalType": "enum Voting.WorkflowStatus",
							"name": "",
							"type": "uint8"
						}
					],
					"stateMutability": "view",
					"type": "function"
				},
				{
					"inputs": [],
					"name": "getProposalCount",
					"outputs": [
						{
							"internalType": "uint256",
							"name": "",
							"type": "uint256"
						}
					],
					"stateMutability": "view",
					"type": "function"
				},
				{
					"inputs": [],
					"name": "getProposals",
					"outputs": [
						{
							"components": [
								{
									"internalType": "string",
									"name": "description",
									"type": "string"
								},
								{
									"internalType": "uint256",
									"name": "voteCount",
									"type": "uint256"
								},
								{
									"internalType": "address",
									"name": "voter",
									"type": "address"
								}
							],
							"internalType": "struct Voting.Proposal[]",
							"name": "",
							"type": "tuple[]"
						}
					],
					"stateMutability": "view",
					"type": "function"
				},
				{
					"inputs": [
						{
							"internalType": "address",
							"name": "_address",
							"type": "address"
						}
					],
					"name": "getVoteByAddress",
					"outputs": [
						{
							"components": [
								{
									"internalType": "string",
									"name": "description",
									"type": "string"
								},
								{
									"internalType": "uint256",
									"name": "voteCount",
									"type": "uint256"
								},
								{
									"internalType": "address",
									"name": "voter",
									"type": "address"
								}
							],
							"internalType": "struct Voting.Proposal",
							"name": "",
							"type": "tuple"
						}
					],
					"stateMutability": "view",
					"type": "function"
				},
				{
					"inputs": [],
					"name": "getVoteCountTotal",
					"outputs": [
						{
							"internalType": "uint256",
							"name": "",
							"type": "uint256"
						}
					],
					"stateMutability": "view",
					"type": "function"
				},
				{
					"inputs": [],
					"name": "getVoteWinnerCount",
					"outputs": [
						{
							"internalType": "uint256",
							"name": "",
							"type": "uint256"
						}
					],
					"stateMutability": "view",
					"type": "function"
				},
				{
					"inputs": [],
					"name": "getVoterCount",
					"outputs": [
						{
							"internalType": "uint256",
							"name": "",
							"type": "uint256"
						}
					],
					"stateMutability": "view",
					"type": "function"
				},
				{
					"inputs": [],
					"name": "getWinnerCount",
					"outputs": [
						{
							"internalType": "uint256",
							"name": "",
							"type": "uint256"
						}
					],
					"stateMutability": "view",
					"type": "function"
				},
				{
					"inputs": [],
					"name": "getWinnerProposal",
					"outputs": [
						{
							"components": [
								{
									"internalType": "string",
									"name": "description",
									"type": "string"
								},
								{
									"internalType": "uint256",
									"name": "voteCount",
									"type": "uint256"
								},
								{
									"internalType": "address",
									"name": "voter",
									"type": "address"
								}
							],
							"internalType": "struct Voting.Proposal",
							"name": "",
							"type": "tuple"
						}
					],
					"stateMutability": "view",
					"type": "function"
				},
				{
					"inputs": [],
					"name": "getWinnerProposalId",
					"outputs": [
						{
							"internalType": "uint256",
							"name": "",
							"type": "uint256"
						}
					],
					"stateMutability": "view",
					"type": "function"
				},
				{
					"inputs": [],
					"name": "getWinner_proposaldescription",
					"outputs": [
						{
							"internalType": "string",
							"name": "",
							"type": "string"
						}
					],
					"stateMutability": "view",
					"type": "function"
				},
				{
					"inputs": [],
					"name": "owner",
					"outputs": [
						{
							"internalType": "address",
							"name": "",
							"type": "address"
						}
					],
					"stateMutability": "view",
					"type": "function"
				},
				{
					"inputs": [
						{
							"internalType": "string",
							"name": "_proposal",
							"type": "string"
						}
					],
					"name": "propose",
					"outputs": [],
					"stateMutability": "nonpayable",
					"type": "function"
				},
				{
					"inputs": [
						{
							"internalType": "address",
							"name": "_address",
							"type": "address"
						}
					],
					"name": "registerVoter",
					"outputs": [],
					"stateMutability": "nonpayable",
					"type": "function"
				},
				{
					"inputs": [],
					"name": "renounceOwnership",
					"outputs": [],
					"stateMutability": "nonpayable",
					"type": "function"
				},
				{
					"inputs": [],
					"name": "reset",
					"outputs": [],
					"stateMutability": "nonpayable",
					"type": "function"
				},
				{
					"inputs": [],
					"name": "startProposalSession",
					"outputs": [],
					"stateMutability": "nonpayable",
					"type": "function"
				},
				{
					"inputs": [],
					"name": "startVoteSession",
					"outputs": [],
					"stateMutability": "nonpayable",
					"type": "function"
				},
				{
					"inputs": [
						{
							"internalType": "address",
							"name": "newOwner",
							"type": "address"
						}
					],
					"name": "transferOwnership",
					"outputs": [],
					"stateMutability": "nonpayable",
					"type": "function"
				},
				{
					"inputs": [
						{
							"internalType": "uint256",
							"name": "_proposald",
							"type": "uint256"
						}
					],
					"name": "vote",
					"outputs": [],
					"stateMutability": "nonpayable",
					"type": "function"
				},
				{
					"inputs": [],
					"name": "votesTallied",
					"outputs": [],
					"stateMutability": "nonpayable",
					"type": "function"
				}
			],
			"devdoc": {
				"errors": {
					"OwnableInvalidOwner(address)": [
						{
							"details": "The owner is not a valid owner account. (eg. `address(0)`)"
						}
					],
					"OwnableUnauthorizedAccount(address)": [
						{
							"details": "The caller account is not authorized to perform an operation."
						}
					]
				},
				"kind": "dev",
				"methods": {
					"owner()": {
						"details": "Returns the address of the current owner."
					},
					"renounceOwnership()": {
						"details": "Leaves the contract without owner. It will not be possible to call `onlyOwner` functions. Can only be called by the current owner. NOTE: Renouncing ownership will leave the contract without an owner, thereby disabling any functionality that is only available to the owner."
					},
					"transferOwnership(address)": {
						"details": "Transfers ownership of the contract to a new account (`newOwner`). Can only be called by the current owner."
					}
				},
				"version": 1
			},
			"evm": {
				"assembly": "    /* \"contracts/VotingExtended.sol\":250:11017  contract Voting is Ownable {... */\n  mstore(0x40, 0x80)\n    /* \"contracts/VotingExtended.sol\":1090:1122  WorkflowStatus.RegisteringVoters */\n  0x00\n    /* \"contracts/VotingExtended.sol\":1059:1122  WorkflowStatus currentStatus = WorkflowStatus.RegisteringVoters */\n  0x04\n  exp(0x0100, 0x00)\n  dup2\n  sload\n  dup2\n  0xff\n  mul\n  not\n  and\n  swap1\n  dup4\n  0x05\n  dup2\n  gt\n  iszero\n  tag_1\n  jumpi\n  tag_2\n  tag_3\n  jump\t// in\ntag_2:\ntag_1:\n  mul\n  or\n  swap1\n  sstore\n  pop\n    /* \"contracts/VotingExtended.sol\":1496:1497  1 */\n  0x01\n    /* \"contracts/VotingExtended.sol\":1473:1497  uint voteWinnerCount = 1 */\n  0x0a\n  sstore\n    /* \"contracts/VotingExtended.sol\":1888:1930  constructor() Ownable(msg.sender) {... */\n  callvalue\n  dup1\n  iszero\n  tag_4\n  jumpi\n  revert(0x00, 0x00)\ntag_4:\n  pop\n    /* \"contracts/VotingExtended.sol\":1910:1920  msg.sender */\n  caller\n    /* \"@openzeppelin/contracts/access/Ownable.sol\":1297:1298  0 */\n  0x00\n    /* \"@openzeppelin/contracts/access/Ownable.sol\":1273:1299  initialOwner == address(0) */\n  0xffffffffffffffffffffffffffffffffffffffff\n  and\n    /* \"@openzeppelin/contracts/access/Ownable.sol\":1273:1285  initialOwner */\n  dup2\n    /* \"@openzeppelin/contracts/access/Ownable.sol\":1273:1299  initialOwner == address(0) */\n  0xffffffffffffffffffffffffffffffffffffffff\n  and\n  sub\n    /* \"@openzeppelin/contracts/access/Ownable.sol\":1269:1364  if (initialOwner == address(0)) {... */\n  tag_8\n  jumpi\n    /* \"@openzeppelin/contracts/access/Ownable.sol\":1350:1351  0 */\n  0x00\n    /* \"@openzeppelin/contracts/access/Ownable.sol\":1322:1353  OwnableInvalidOwner(address(0)) */\n  mload(0x40)\n  0x1e4fbdf700000000000000000000000000000000000000000000000000000000\n  dup2\n  mstore\n  0x04\n  add\n  tag_9\n  swap2\n  swap1\n  tag_10\n  jump\t// in\ntag_9:\n  mload(0x40)\n  dup1\n  swap2\n  sub\n  swap1\n  revert\n    /* \"@openzeppelin/contracts/access/Ownable.sol\":1269:1364  if (initialOwner == address(0)) {... */\ntag_8:\n    /* \"@openzeppelin/contracts/access/Ownable.sol\":1373:1405  _transferOwnership(initialOwner) */\n  tag_11\n    /* \"@openzeppelin/contracts/access/Ownable.sol\":1392:1404  initialOwner */\n  dup2\n    /* \"@openzeppelin/contracts/access/Ownable.sol\":1373:1391  _transferOwnership */\n  shl(0x20, tag_12)\n    /* \"@openzeppelin/contracts/access/Ownable.sol\":1373:1405  _transferOwnership(initialOwner) */\n  0x20\n  shr\n  jump\t// in\ntag_11:\n    /* \"@openzeppelin/contracts/access/Ownable.sol\":1225:1412  constructor(address initialOwner) {... */\n  pop\n    /* \"contracts/VotingExtended.sol\":250:11017  contract Voting is Ownable {... */\n  jump(tag_14)\n    /* \"@openzeppelin/contracts/access/Ownable.sol\":2912:3099  function _transferOwnership(address newOwner) internal virtual {... */\ntag_12:\n    /* \"@openzeppelin/contracts/access/Ownable.sol\":2985:3001  address oldOwner */\n  0x00\n    /* \"@openzeppelin/contracts/access/Ownable.sol\":3004:3010  _owner */\n  0x00\n  0x00\n  swap1\n  sload\n  swap1\n  0x0100\n  exp\n  swap1\n  div\n  0xffffffffffffffffffffffffffffffffffffffff\n  and\n    /* \"@openzeppelin/contracts/access/Ownable.sol\":2985:3010  address oldOwner = _owner */\n  swap1\n  pop\n    /* \"@openzeppelin/contracts/access/Ownable.sol\":3029:3037  newOwner */\n  dup2\n    /* \"@openzeppelin/contracts/access/Ownable.sol\":3020:3026  _owner */\n  0x00\n  0x00\n    /* \"@openzeppelin/contracts/access/Ownable.sol\":3020:3037  _owner = newOwner */\n  0x0100\n  exp\n  dup2\n  sload\n  dup2\n  0xffffffffffffffffffffffffffffffffffffffff\n  mul\n  not\n  and\n  swap1\n  dup4\n  0xffffffffffffffffffffffffffffffffffffffff\n  and\n  mul\n  or\n  swap1\n  sstore\n  pop\n    /* \"@openzeppelin/contracts/access/Ownable.sol\":3083:3091  newOwner */\n  dup2\n    /* \"@openzeppelin/contracts/access/Ownable.sol\":3052:3092  OwnershipTransferred(oldOwner, newOwner) */\n  0xffffffffffffffffffffffffffffffffffffffff\n  and\n    /* \"@openzeppelin/contracts/access/Ownable.sol\":3073:3081  oldOwner */\n  dup2\n    /* \"@openzeppelin/contracts/access/Ownable.sol\":3052:3092  OwnershipTransferred(oldOwner, newOwner) */\n  0xffffffffffffffffffffffffffffffffffffffff\n  and\n  0x8be0079c531659141344cd1fd0a4f28419497f9722a3daafe3b4186f6b6457e0\n  mload(0x40)\n  mload(0x40)\n  dup1\n  swap2\n  sub\n  swap1\n  log3\n    /* \"@openzeppelin/contracts/access/Ownable.sol\":2975:3099  {... */\n  pop\n    /* \"@openzeppelin/contracts/access/Ownable.sol\":2912:3099  function _transferOwnership(address newOwner) internal virtual {... */\n  pop\n  jump\t// out\n    /* \"#utility.yul\":7:187   */\ntag_3:\n    /* \"#utility.yul\":55:132   */\n  0x4e487b7100000000000000000000000000000000000000000000000000000000\n    /* \"#utility.yul\":52:53   */\n  0x00\n    /* \"#utility.yul\":45:133   */\n  mstore\n    /* \"#utility.yul\":152:156   */\n  0x21\n    /* \"#utility.yul\":149:150   */\n  0x04\n    /* \"#utility.yul\":142:157   */\n  mstore\n    /* \"#utility.yul\":176:180   */\n  0x24\n    /* \"#utility.yul\":173:174   */\n  0x00\n    /* \"#utility.yul\":166:181   */\n  revert\n    /* \"#utility.yul\":193:319   */\ntag_16:\n    /* \"#utility.yul\":230:237   */\n  0x00\n    /* \"#utility.yul\":270:312   */\n  0xffffffffffffffffffffffffffffffffffffffff\n    /* \"#utility.yul\":263:268   */\n  dup3\n    /* \"#utility.yul\":259:313   */\n  and\n    /* \"#utility.yul\":248:313   */\n  swap1\n  pop\n    /* \"#utility.yul\":193:319   */\n  swap2\n  swap1\n  pop\n  jump\t// out\n    /* \"#utility.yul\":325:421   */\ntag_17:\n    /* \"#utility.yul\":362:369   */\n  0x00\n    /* \"#utility.yul\":391:415   */\n  tag_23\n    /* \"#utility.yul\":409:414   */\n  dup3\n    /* \"#utility.yul\":391:415   */\n  tag_16\n  jump\t// in\ntag_23:\n    /* \"#utility.yul\":380:415   */\n  swap1\n  pop\n    /* \"#utility.yul\":325:421   */\n  swap2\n  swap1\n  pop\n  jump\t// out\n    /* \"#utility.yul\":427:545   */\ntag_18:\n    /* \"#utility.yul\":514:538   */\n  tag_25\n    /* \"#utility.yul\":532:537   */\n  dup2\n    /* \"#utility.yul\":514:538   */\n  tag_17\n  jump\t// in\ntag_25:\n    /* \"#utility.yul\":509:512   */\n  dup3\n    /* \"#utility.yul\":502:539   */\n  mstore\n    /* \"#utility.yul\":427:545   */\n  pop\n  pop\n  jump\t// out\n    /* \"#utility.yul\":551:773   */\ntag_10:\n    /* \"#utility.yul\":644:648   */\n  0x00\n    /* \"#utility.yul\":682:684   */\n  0x20\n    /* \"#utility.yul\":671:680   */\n  dup3\n    /* \"#utility.yul\":667:685   */\n  add\n    /* \"#utility.yul\":659:685   */\n  swap1\n  pop\n    /* \"#utility.yul\":695:766   */\n  tag_27\n    /* \"#utility.yul\":763:764   */\n  0x00\n    /* \"#utility.yul\":752:761   */\n  dup4\n    /* \"#utility.yul\":748:765   */\n  add\n    /* \"#utility.yul\":739:745   */\n  dup5\n    /* \"#utility.yul\":695:766   */\n  tag_18\n  jump\t// in\ntag_27:\n    /* \"#utility.yul\":551:773   */\n  swap3\n  swap2\n  pop\n  pop\n  jump\t// out\n    /* \"contracts/VotingExtended.sol\":250:11017  contract Voting is Ownable {... */\ntag_14:\n  dataSize(sub_0)\n  dup1\n  dataOffset(sub_0)\n  0x00\n  codecopy\n  0x00\n  return\nstop\n\nsub_0: assembly {\n        /* \"contracts/VotingExtended.sol\":250:11017  contract Voting is Ownable {... */\n      mstore(0x40, 0x80)\n      callvalue\n      dup1\n      iszero\n      tag_1\n      jumpi\n      revert(0x00, 0x00)\n    tag_1:\n      pop\n      jumpi(tag_2, lt(calldatasize, 0x04))\n      shr(0xe0, calldataload(0x00))\n      dup1\n      0x9589dfcc\n      gt\n      tag_28\n      jumpi\n      dup1\n      0xada7415f\n      gt\n      tag_29\n      jumpi\n      dup1\n      0xe06752c2\n      gt\n      tag_30\n      jumpi\n      dup1\n      0xe06752c2\n      eq\n      tag_24\n      jumpi\n      dup1\n      0xe1ab86fb\n      eq\n      tag_25\n      jumpi\n      dup1\n      0xf2fde38b\n      eq\n      tag_26\n      jumpi\n      dup1\n      0xf74c168d\n      eq\n      tag_27\n      jumpi\n      jump(tag_2)\n    tag_30:\n      dup1\n      0xada7415f\n      eq\n      tag_21\n      jumpi\n      dup1\n      0xc08cc02d\n      eq\n      tag_22\n      jumpi\n      dup1\n      0xd826f88f\n      eq\n      tag_23\n      jumpi\n      jump(tag_2)\n    tag_29:\n      dup1\n      0x9589dfcc\n      eq\n      tag_15\n      jumpi\n      dup1\n      0xa3c1885b\n      eq\n      tag_16\n      jumpi\n      dup1\n      0xa3dd2619\n      eq\n      tag_17\n      jumpi\n      dup1\n      0xa46c3637\n      eq\n      tag_18\n      jumpi\n      dup1\n      0xaa98df39\n      eq\n      tag_19\n      jumpi\n      dup1\n      0xaaa98346\n      eq\n      tag_20\n      jumpi\n      jump(tag_2)\n    tag_28:\n      dup1\n      0x62564c48\n      gt\n      tag_31\n      jumpi\n      dup1\n      0x62564c48\n      eq\n      tag_9\n      jumpi\n      dup1\n      0x64aa135a\n      eq\n      tag_10\n      jumpi\n      dup1\n      0x65f88a7c\n      eq\n      tag_11\n      jumpi\n      dup1\n      0x715018a6\n      eq\n      tag_12\n      jumpi\n      dup1\n      0x80525548\n      eq\n      tag_13\n      jumpi\n      dup1\n      0x8da5cb5b\n      eq\n      tag_14\n      jumpi\n      jump(tag_2)\n    tag_31:\n      dup1\n      0x0121b93f\n      eq\n      tag_3\n      jumpi\n      dup1\n      0x11174a29\n      eq\n      tag_4\n      jumpi\n      dup1\n      0x38db6dd3\n      eq\n      tag_5\n      jumpi\n      dup1\n      0x43850c2d\n      eq\n      tag_6\n      jumpi\n      dup1\n      0x50d072fc\n      eq\n      tag_7\n      jumpi\n      dup1\n      0x5bc46514\n      eq\n      tag_8\n      jumpi\n    tag_2:\n      revert(0x00, 0x00)\n        /* \"contracts/VotingExtended.sol\":3383:3814  function vote(uint256 _proposald) external restrictOwnerToVote {... */\n    tag_3:\n      tag_32\n      0x04\n      dup1\n      calldatasize\n      sub\n      dup2\n      add\n      swap1\n      tag_33\n      swap2\n      swap1\n      tag_34\n      jump\t// in\n    tag_33:\n      tag_35\n      jump\t// in\n    tag_32:\n      stop\n        /* \"contracts/VotingExtended.sol\":10465:10553  function getVoterCount() external view returns(uint){... */\n    tag_4:\n      tag_36\n      tag_37\n      jump\t// in\n    tag_36:\n      mload(0x40)\n      tag_38\n      swap2\n      swap1\n      tag_39\n      jump\t// in\n    tag_38:\n      mload(0x40)\n      dup1\n      swap2\n      sub\n      swap1\n      return\n        /* \"contracts/VotingExtended.sol\":2091:2536  function registerVoter(address _address) external onlyOwner {... */\n    tag_5:\n      tag_40\n      0x04\n      dup1\n      calldatasize\n      sub\n      dup2\n      add\n      swap1\n      tag_41\n      swap2\n      swap1\n      tag_42\n      jump\t// in\n    tag_41:\n      tag_43\n      jump\t// in\n    tag_40:\n      stop\n        /* \"contracts/VotingExtended.sol\":9239:9489  function getWinner_proposaldescription() external view returns (string memory) {... */\n    tag_6:\n      tag_44\n      tag_45\n      jump\t// in\n    tag_44:\n      mload(0x40)\n      tag_46\n      swap2\n      swap1\n      tag_47\n      jump\t// in\n    tag_46:\n      mload(0x40)\n      dup1\n      swap2\n      sub\n      swap1\n      return\n        /* \"contracts/VotingExtended.sol\":4564:4979  function startProposalSession() external onlyOwner {... */\n    tag_7:\n      tag_48\n      tag_49\n      jump\t// in\n    tag_48:\n      stop\n        /* \"contracts/VotingExtended.sol\":9547:9755  function getWinnerProposalId() external view returns (uint) {... */\n    tag_8:\n      tag_50\n      tag_51\n      jump\t// in\n    tag_50:\n      mload(0x40)\n      tag_52\n      swap2\n      swap1\n      tag_39\n      jump\t// in\n    tag_52:\n      mload(0x40)\n      dup1\n      swap2\n      sub\n      swap1\n      return\n        /* \"contracts/VotingExtended.sol\":10314:10413  function getProposals() external view returns(Proposal[] memory){... */\n    tag_9:\n      tag_53\n      tag_54\n      jump\t// in\n    tag_53:\n      mload(0x40)\n      tag_55\n      swap2\n      swap1\n      tag_56\n      jump\t// in\n    tag_55:\n      mload(0x40)\n      dup1\n      swap2\n      sub\n      swap1\n      return\n        /* \"contracts/VotingExtended.sol\":7480:8067  function getAddressByProposalId(uint _proposalId) external view returns(address){... */\n    tag_10:\n      tag_57\n      0x04\n      dup1\n      calldatasize\n      sub\n      dup2\n      add\n      swap1\n      tag_58\n      swap2\n      swap1\n      tag_34\n      jump\t// in\n    tag_58:\n      tag_59\n      jump\t// in\n    tag_57:\n      mload(0x40)\n      tag_60\n      swap2\n      swap1\n      tag_61\n      jump\t// in\n    tag_60:\n      mload(0x40)\n      dup1\n      swap2\n      sub\n      swap1\n      return\n        /* \"contracts/VotingExtended.sol\":9987:10120  function getPreviousStatus() external view returns (WorkflowStatus) {... */\n    tag_11:\n      tag_62\n      tag_63\n      jump\t// in\n    tag_62:\n      mload(0x40)\n      tag_64\n      swap2\n      swap1\n      tag_65\n      jump\t// in\n    tag_64:\n      mload(0x40)\n      dup1\n      swap2\n      sub\n      swap1\n      return\n        /* \"@openzeppelin/contracts/access/Ownable.sol\":2293:2394  function renounceOwnership() public virtual onlyOwner {... */\n    tag_12:\n      tag_66\n      tag_67\n      jump\t// in\n    tag_66:\n      stop\n        /* \"contracts/VotingExtended.sol\":8075:8544  function getVoteByAddress(address _address) external view returns(Proposal memory){... */\n    tag_13:\n      tag_68\n      0x04\n      dup1\n      calldatasize\n      sub\n      dup2\n      add\n      swap1\n      tag_69\n      swap2\n      swap1\n      tag_42\n      jump\t// in\n    tag_69:\n      tag_70\n      jump\t// in\n    tag_68:\n      mload(0x40)\n      tag_71\n      swap2\n      swap1\n      tag_72\n      jump\t// in\n    tag_71:\n      mload(0x40)\n      dup1\n      swap2\n      sub\n      swap1\n      return\n        /* \"@openzeppelin/contracts/access/Ownable.sol\":1638:1723  function owner() public view virtual returns (address) {... */\n    tag_14:\n      tag_73\n      tag_74\n      jump\t// in\n    tag_73:\n      mload(0x40)\n      tag_75\n      swap2\n      swap1\n      tag_61\n      jump\t// in\n    tag_75:\n      mload(0x40)\n      dup1\n      swap2\n      sub\n      swap1\n      return\n        /* \"contracts/VotingExtended.sol\":10914:11012  function getVoteWinnerCount() external view returns(uint){... */\n    tag_15:\n      tag_76\n      tag_77\n      jump\t// in\n    tag_76:\n      mload(0x40)\n      tag_78\n      swap2\n      swap1\n      tag_39\n      jump\t// in\n    tag_78:\n      mload(0x40)\n      dup1\n      swap2\n      sub\n      swap1\n      return\n        /* \"contracts/VotingExtended.sol\":8943:9171  function getWinnerProposal() external view returns (Proposal memory) {... */\n    tag_16:\n      tag_79\n      tag_80\n      jump\t// in\n    tag_79:\n      mload(0x40)\n      tag_81\n      swap2\n      swap1\n      tag_72\n      jump\t// in\n    tag_81:\n      mload(0x40)\n      dup1\n      swap2\n      sub\n      swap1\n      return\n        /* \"contracts/VotingExtended.sol\":9811:9917  function getCurrentStatus() external view returns (WorkflowStatus) {... */\n    tag_17:\n      tag_82\n      tag_83\n      jump\t// in\n    tag_82:\n      mload(0x40)\n      tag_84\n      swap2\n      swap1\n      tag_65\n      jump\t// in\n    tag_84:\n      mload(0x40)\n      dup1\n      swap2\n      sub\n      swap1\n      return\n        /* \"contracts/VotingExtended.sol\":10754:10844  function getWinnerCount() external view returns(uint){... */\n    tag_18:\n      tag_85\n      tag_86\n      jump\t// in\n    tag_85:\n      mload(0x40)\n      tag_87\n      swap2\n      swap1\n      tag_39\n      jump\t// in\n    tag_87:\n      mload(0x40)\n      dup1\n      swap2\n      sub\n      swap1\n      return\n        /* \"contracts/VotingExtended.sol\":2729:3336  function propose(string memory _proposal) external {... */\n    tag_19:\n      tag_88\n      0x04\n      dup1\n      calldatasize\n      sub\n      dup2\n      add\n      swap1\n      tag_89\n      swap2\n      swap1\n      tag_90\n      jump\t// in\n    tag_89:\n      tag_91\n      jump\t// in\n    tag_88:\n      stop\n        /* \"contracts/VotingExtended.sol\":5438:5803  function startVoteSession() external onlyOwner {... */\n    tag_20:\n      tag_92\n      tag_93\n      jump\t// in\n    tag_92:\n      stop\n        /* \"contracts/VotingExtended.sol\":6266:6652  function votesTallied() external onlyOwner {... */\n    tag_21:\n      tag_94\n      tag_95\n      jump\t// in\n    tag_94:\n      stop\n        /* \"contracts/VotingExtended.sol\":10173:10270  function getProposalCount() external view returns(uint){... */\n    tag_22:\n      tag_96\n      tag_97\n      jump\t// in\n    tag_96:\n      mload(0x40)\n      tag_98\n      swap2\n      swap1\n      tag_39\n      jump\t// in\n    tag_98:\n      mload(0x40)\n      dup1\n      swap2\n      sub\n      swap1\n      return\n        /* \"contracts/VotingExtended.sol\":6660:7340  function reset() external onlyOwner {... */\n    tag_23:\n      tag_99\n      tag_100\n      jump\t// in\n    tag_99:\n      stop\n        /* \"contracts/VotingExtended.sol\":4987:5428  function endProposalSession() external onlyOwner {... */\n    tag_24:\n      tag_101\n      tag_102\n      jump\t// in\n    tag_101:\n      stop\n        /* \"contracts/VotingExtended.sol\":10604:10700  function getVoteCountTotal() external view returns(uint){... */\n    tag_25:\n      tag_103\n      tag_104\n      jump\t// in\n    tag_103:\n      mload(0x40)\n      tag_105\n      swap2\n      swap1\n      tag_39\n      jump\t// in\n    tag_105:\n      mload(0x40)\n      dup1\n      swap2\n      sub\n      swap1\n      return\n        /* \"@openzeppelin/contracts/access/Ownable.sol\":2543:2758  function transferOwnership(address newOwner) public virtual onlyOwner {... */\n    tag_26:\n      tag_106\n      0x04\n      dup1\n      calldatasize\n      sub\n      dup2\n      add\n      swap1\n      tag_107\n      swap2\n      swap1\n      tag_42\n      jump\t// in\n    tag_107:\n      tag_108\n      jump\t// in\n    tag_106:\n      stop\n        /* \"contracts/VotingExtended.sol\":5813:6258  function endVoteSession() external onlyOwner {... */\n    tag_27:\n      tag_109\n      tag_110\n      jump\t// in\n    tag_109:\n      stop\n        /* \"contracts/VotingExtended.sol\":3383:3814  function vote(uint256 _proposald) external restrictOwnerToVote {... */\n    tag_35:\n        /* \"contracts/VotingExtended.sol\":3925:3935  msg.sender */\n      caller\n        /* \"contracts/VotingExtended.sol\":3914:3935  owner() == msg.sender */\n      0xffffffffffffffffffffffffffffffffffffffff\n      and\n        /* \"contracts/VotingExtended.sol\":3914:3921  owner() */\n      tag_112\n        /* \"contracts/VotingExtended.sol\":3914:3919  owner */\n      tag_74\n        /* \"contracts/VotingExtended.sol\":3914:3921  owner() */\n      jump\t// in\n    tag_112:\n        /* \"contracts/VotingExtended.sol\":3914:3935  owner() == msg.sender */\n      0xffffffffffffffffffffffffffffffffffffffff\n      and\n      sub\n        /* \"contracts/VotingExtended.sol\":3911:4388  if(owner() == msg.sender) {... */\n      tag_113\n      jumpi\n        /* \"contracts/VotingExtended.sol\":3974:3975  1 */\n      0x01\n        /* \"contracts/VotingExtended.sol\":3960:3971  winnerCount */\n      sload(0x09)\n        /* \"contracts/VotingExtended.sol\":3960:3975  winnerCount > 1 */\n      gt\n        /* \"contracts/VotingExtended.sol\":3952:4028  require(winnerCount > 1, \"You can only vote if there is more than 1 winner\") */\n      tag_114\n      jumpi\n      mload(0x40)\n      0x08c379a000000000000000000000000000000000000000000000000000000000\n      dup2\n      mstore\n      0x04\n      add\n      tag_115\n      swap1\n      tag_116\n      jump\t// in\n    tag_115:\n      mload(0x40)\n      dup1\n      swap2\n      sub\n      swap1\n      revert\n    tag_114:\n        /* \"contracts/VotingExtended.sol\":4057:4058  1 */\n      0x01\n        /* \"contracts/VotingExtended.sol\":4043:4054  winnerCount */\n      0x09\n        /* \"contracts/VotingExtended.sol\":4043:4058  winnerCount = 1 */\n      dup2\n      swap1\n      sstore\n      pop\n        /* \"contracts/VotingExtended.sol\":3911:4388  if(owner() == msg.sender) {... */\n      jump(tag_117)\n    tag_113:\n        /* \"contracts/VotingExtended.sol\":4116:4151  WorkflowStatus.VotingSessionStarted */\n      0x03\n        /* \"contracts/VotingExtended.sol\":4099:4151  currentStatus == WorkflowStatus.VotingSessionStarted */\n      0x05\n      dup2\n      gt\n      iszero\n      tag_118\n      jumpi\n      tag_119\n      tag_120\n      jump\t// in\n    tag_119:\n    tag_118:\n        /* \"contracts/VotingExtended.sol\":4099:4112  currentStatus */\n      0x04\n      0x00\n      swap1\n      sload\n      swap1\n      0x0100\n      exp\n      swap1\n      div\n      0xff\n      and\n        /* \"contracts/VotingExtended.sol\":4099:4151  currentStatus == WorkflowStatus.VotingSessionStarted */\n      0x05\n      dup2\n      gt\n      iszero\n      tag_121\n      jumpi\n      tag_122\n      tag_120\n      jump\t// in\n    tag_122:\n    tag_121:\n      eq\n        /* \"contracts/VotingExtended.sol\":4091:4189  require(currentStatus == WorkflowStatus.VotingSessionStarted, \"The voting session is not started\") */\n      tag_123\n      jumpi\n      mload(0x40)\n      0x08c379a000000000000000000000000000000000000000000000000000000000\n      dup2\n      mstore\n      0x04\n      add\n      tag_124\n      swap1\n      tag_125\n      jump\t// in\n    tag_124:\n      mload(0x40)\n      dup1\n      swap2\n      sub\n      swap1\n      revert\n    tag_123:\n        /* \"contracts/VotingExtended.sol\":4256:4260  true */\n      0x01\n        /* \"contracts/VotingExtended.sol\":4213:4260  whitelistVoter[msg.sender].isRegistered == true */\n      iszero\n      iszero\n        /* \"contracts/VotingExtended.sol\":4213:4227  whitelistVoter */\n      0x01\n        /* \"contracts/VotingExtended.sol\":4213:4239  whitelistVoter[msg.sender] */\n      0x00\n        /* \"contracts/VotingExtended.sol\":4228:4238  msg.sender */\n      caller\n        /* \"contracts/VotingExtended.sol\":4213:4239  whitelistVoter[msg.sender] */\n      0xffffffffffffffffffffffffffffffffffffffff\n      and\n      0xffffffffffffffffffffffffffffffffffffffff\n      and\n      dup2\n      mstore\n      0x20\n      add\n      swap1\n      dup2\n      mstore\n      0x20\n      add\n      0x00\n      keccak256\n        /* \"contracts/VotingExtended.sol\":4213:4252  whitelistVoter[msg.sender].isRegistered */\n      0x00\n      add\n      0x00\n      swap1\n      sload\n      swap1\n      0x0100\n      exp\n      swap1\n      div\n      0xff\n      and\n        /* \"contracts/VotingExtended.sol\":4213:4260  whitelistVoter[msg.sender].isRegistered == true */\n      iszero\n      iszero\n      eq\n        /* \"contracts/VotingExtended.sol\":4205:4287  require(whitelistVoter[msg.sender].isRegistered == true, \"You are not registered\") */\n      tag_126\n      jumpi\n      mload(0x40)\n      0x08c379a000000000000000000000000000000000000000000000000000000000\n      dup2\n      mstore\n      0x04\n      add\n      tag_127\n      swap1\n      tag_128\n      jump\t// in\n    tag_127:\n      mload(0x40)\n      dup1\n      swap2\n      sub\n      swap1\n      revert\n    tag_126:\n        /* \"contracts/VotingExtended.sol\":4349:4354  false */\n      0x00\n        /* \"contracts/VotingExtended.sol\":4310:4354  whitelistVoter[msg.sender].hasVoted == false */\n      iszero\n      iszero\n        /* \"contracts/VotingExtended.sol\":4310:4324  whitelistVoter */\n      0x01\n        /* \"contracts/VotingExtended.sol\":4310:4336  whitelistVoter[msg.sender] */\n      0x00\n        /* \"contracts/VotingExtended.sol\":4325:4335  msg.sender */\n      caller\n        /* \"contracts/VotingExtended.sol\":4310:4336  whitelistVoter[msg.sender] */\n      0xffffffffffffffffffffffffffffffffffffffff\n      and\n      0xffffffffffffffffffffffffffffffffffffffff\n      and\n      dup2\n      mstore\n      0x20\n      add\n      swap1\n      dup2\n      mstore\n      0x20\n      add\n      0x00\n      keccak256\n        /* \"contracts/VotingExtended.sol\":4310:4345  whitelistVoter[msg.sender].hasVoted */\n      0x00\n      add\n      0x01\n      swap1\n      sload\n      swap1\n      0x0100\n      exp\n      swap1\n      div\n      0xff\n      and\n        /* \"contracts/VotingExtended.sol\":4310:4354  whitelistVoter[msg.sender].hasVoted == false */\n      iszero\n      iszero\n      eq\n        /* \"contracts/VotingExtended.sol\":4302:4376  require(whitelistVoter[msg.sender].hasVoted == false, \"You already voted\") */\n      tag_129\n      jumpi\n      mload(0x40)\n      0x08c379a000000000000000000000000000000000000000000000000000000000\n      dup2\n      mstore\n      0x04\n      add\n      tag_130\n      swap1\n      tag_131\n      jump\t// in\n    tag_130:\n      mload(0x40)\n      dup1\n      swap2\n      sub\n      swap1\n      revert\n    tag_129:\n        /* \"contracts/VotingExtended.sol\":3911:4388  if(owner() == msg.sender) {... */\n    tag_117:\n        /* \"contracts/VotingExtended.sol\":3478:3487  proposals */\n      0x02\n        /* \"contracts/VotingExtended.sol\":3478:3494  proposals.length */\n      dup1\n      sload\n      swap1\n      pop\n        /* \"contracts/VotingExtended.sol\":3465:3475  _proposald */\n      dup2\n        /* \"contracts/VotingExtended.sol\":3465:3494  _proposald < proposals.length */\n      lt\n        /* \"contracts/VotingExtended.sol\":3457:3531  require(_proposald < proposals.length, \"This proposal ID does not exists\") */\n      tag_133\n      jumpi\n      mload(0x40)\n      0x08c379a000000000000000000000000000000000000000000000000000000000\n      dup2\n      mstore\n      0x04\n      add\n      tag_134\n      swap1\n      tag_135\n      jump\t// in\n    tag_134:\n      mload(0x40)\n      dup1\n      swap2\n      sub\n      swap1\n      revert\n    tag_133:\n        /* \"contracts/VotingExtended.sol\":3580:3584  true */\n      0x01\n        /* \"contracts/VotingExtended.sol\":3542:3556  whitelistVoter */\n      dup1\n        /* \"contracts/VotingExtended.sol\":3542:3568  whitelistVoter[msg.sender] */\n      0x00\n        /* \"contracts/VotingExtended.sol\":3557:3567  msg.sender */\n      caller\n        /* \"contracts/VotingExtended.sol\":3542:3568  whitelistVoter[msg.sender] */\n      0xffffffffffffffffffffffffffffffffffffffff\n      and\n      0xffffffffffffffffffffffffffffffffffffffff\n      and\n      dup2\n      mstore\n      0x20\n      add\n      swap1\n      dup2\n      mstore\n      0x20\n      add\n      0x00\n      keccak256\n        /* \"contracts/VotingExtended.sol\":3542:3577  whitelistVoter[msg.sender].hasVoted */\n      0x00\n      add\n      0x01\n        /* \"contracts/VotingExtended.sol\":3542:3584  whitelistVoter[msg.sender].hasVoted = true */\n      0x0100\n      exp\n      dup2\n      sload\n      dup2\n      0xff\n      mul\n      not\n      and\n      swap1\n      dup4\n      iszero\n      iszero\n      mul\n      or\n      swap1\n      sstore\n      pop\n        /* \"contracts/VotingExtended.sol\":3640:3650  _proposald */\n      dup1\n        /* \"contracts/VotingExtended.sol\":3595:3609  whitelistVoter */\n      0x01\n        /* \"contracts/VotingExtended.sol\":3595:3621  whitelistVoter[msg.sender] */\n      0x00\n        /* \"contracts/VotingExtended.sol\":3610:3620  msg.sender */\n      caller\n        /* \"contracts/VotingExtended.sol\":3595:3621  whitelistVoter[msg.sender] */\n      0xffffffffffffffffffffffffffffffffffffffff\n      and\n      0xffffffffffffffffffffffffffffffffffffffff\n      and\n      dup2\n      mstore\n      0x20\n      add\n      swap1\n      dup2\n      mstore\n      0x20\n      add\n      0x00\n      keccak256\n        /* \"contracts/VotingExtended.sol\":3595:3637  whitelistVoter[msg.sender].votedProposalId */\n      0x01\n      add\n        /* \"contracts/VotingExtended.sol\":3595:3650  whitelistVoter[msg.sender].votedProposalId = _proposald */\n      dup2\n      swap1\n      sstore\n      pop\n        /* \"contracts/VotingExtended.sol\":3661:3670  proposals */\n      0x02\n        /* \"contracts/VotingExtended.sol\":3671:3681  _proposald */\n      dup2\n        /* \"contracts/VotingExtended.sol\":3661:3682  proposals[_proposald] */\n      dup2\n      sload\n      dup2\n      lt\n      tag_136\n      jumpi\n      tag_137\n      tag_138\n      jump\t// in\n    tag_137:\n    tag_136:\n      swap1\n      0x00\n      mstore\n      keccak256(0x00, 0x20)\n      swap1\n      0x03\n      mul\n      add\n        /* \"contracts/VotingExtended.sol\":3661:3692  proposals[_proposald].voteCount */\n      0x01\n      add\n      0x00\n        /* \"contracts/VotingExtended.sol\":3661:3694  proposals[_proposald].voteCount++ */\n      dup2\n      sload\n      dup1\n      swap3\n      swap2\n      swap1\n      tag_140\n      swap1\n      tag_141\n      jump\t// in\n    tag_140:\n      swap2\n      swap1\n      pop\n      sstore\n      pop\n        /* \"contracts/VotingExtended.sol\":3705:3719  voteCountTotal */\n      0x07\n      0x00\n        /* \"contracts/VotingExtended.sol\":3705:3721  voteCountTotal++ */\n      dup2\n      sload\n      dup1\n      swap3\n      swap2\n      swap1\n      tag_142\n      swap1\n      tag_141\n      jump\t// in\n    tag_142:\n      swap2\n      swap1\n      pop\n      sstore\n      pop\n        /* \"contracts/VotingExtended.sol\":3732:3744  voterAddress */\n      0x03\n        /* \"contracts/VotingExtended.sol\":3750:3760  msg.sender */\n      caller\n        /* \"contracts/VotingExtended.sol\":3732:3761  voterAddress.push(msg.sender) */\n      swap1\n      dup1\n      0x01\n      dup2\n      sload\n      add\n      dup1\n      dup3\n      sstore\n      dup1\n      swap2\n      pop\n      pop\n      0x01\n      swap1\n      sub\n      swap1\n      0x00\n      mstore\n      keccak256(0x00, 0x20)\n      add\n      0x00\n      swap1\n      swap2\n      swap1\n      swap2\n      swap1\n      swap2\n      0x0100\n      exp\n      dup2\n      sload\n      dup2\n      0xffffffffffffffffffffffffffffffffffffffff\n      mul\n      not\n      and\n      swap1\n      dup4\n      0xffffffffffffffffffffffffffffffffffffffff\n      and\n      mul\n      or\n      swap1\n      sstore\n      pop\n        /* \"contracts/VotingExtended.sol\":3777:3806  Voted(msg.sender, _proposald) */\n      0x4d99b957a2bc29a30ebd96a7be8e68fe50a3c701db28a91436490b7d53870ca4\n        /* \"contracts/VotingExtended.sol\":3783:3793  msg.sender */\n      caller\n        /* \"contracts/VotingExtended.sol\":3795:3805  _proposald */\n      dup3\n        /* \"contracts/VotingExtended.sol\":3777:3806  Voted(msg.sender, _proposald) */\n      mload(0x40)\n      tag_144\n      swap3\n      swap2\n      swap1\n      tag_145\n      jump\t// in\n    tag_144:\n      mload(0x40)\n      dup1\n      swap2\n      sub\n      swap1\n      log1\n        /* \"contracts/VotingExtended.sol\":3383:3814  function vote(uint256 _proposald) external restrictOwnerToVote {... */\n      pop\n      jump\t// out\n        /* \"contracts/VotingExtended.sol\":10465:10553  function getVoterCount() external view returns(uint){... */\n    tag_37:\n        /* \"contracts/VotingExtended.sol\":10512:10516  uint */\n      0x00\n        /* \"contracts/VotingExtended.sol\":10535:10545  voterCount */\n      sload(0x06)\n        /* \"contracts/VotingExtended.sol\":10528:10545  return voterCount */\n      swap1\n      pop\n        /* \"contracts/VotingExtended.sol\":10465:10553  function getVoterCount() external view returns(uint){... */\n      swap1\n      jump\t// out\n        /* \"contracts/VotingExtended.sol\":2091:2536  function registerVoter(address _address) external onlyOwner {... */\n    tag_43:\n        /* \"@openzeppelin/contracts/access/Ownable.sol\":1531:1544  _checkOwner() */\n      tag_148\n        /* \"@openzeppelin/contracts/access/Ownable.sol\":1531:1542  _checkOwner */\n      tag_149\n        /* \"@openzeppelin/contracts/access/Ownable.sol\":1531:1544  _checkOwner() */\n      jump\t// in\n    tag_148:\n        /* \"contracts/VotingExtended.sol\":2187:2219  WorkflowStatus.RegisteringVoters */\n      0x00\n        /* \"contracts/VotingExtended.sol\":2170:2219  currentStatus == WorkflowStatus.RegisteringVoters */\n      0x05\n      dup2\n      gt\n      iszero\n      tag_151\n      jumpi\n      tag_152\n      tag_120\n      jump\t// in\n    tag_152:\n    tag_151:\n        /* \"contracts/VotingExtended.sol\":2170:2183  currentStatus */\n      0x04\n      0x00\n      swap1\n      sload\n      swap1\n      0x0100\n      exp\n      swap1\n      div\n      0xff\n      and\n        /* \"contracts/VotingExtended.sol\":2170:2219  currentStatus == WorkflowStatus.RegisteringVoters */\n      0x05\n      dup2\n      gt\n      iszero\n      tag_153\n      jumpi\n      tag_154\n      tag_120\n      jump\t// in\n    tag_154:\n    tag_153:\n      eq\n        /* \"contracts/VotingExtended.sol\":2162:2264  require(currentStatus == WorkflowStatus.RegisteringVoters, \"You are not in voter registration period\") */\n      tag_155\n      jumpi\n      mload(0x40)\n      0x08c379a000000000000000000000000000000000000000000000000000000000\n      dup2\n      mstore\n      0x04\n      add\n      tag_156\n      swap1\n      tag_157\n      jump\t// in\n    tag_156:\n      mload(0x40)\n      dup1\n      swap2\n      sub\n      swap1\n      revert\n    tag_155:\n        /* \"contracts/VotingExtended.sol\":2324:2329  false */\n      0x00\n        /* \"contracts/VotingExtended.sol\":2283:2329  whitelistVoter[_address].isRegistered == false */\n      iszero\n      iszero\n        /* \"contracts/VotingExtended.sol\":2283:2297  whitelistVoter */\n      0x01\n        /* \"contracts/VotingExtended.sol\":2283:2307  whitelistVoter[_address] */\n      0x00\n        /* \"contracts/VotingExtended.sol\":2298:2306  _address */\n      dup4\n        /* \"contracts/VotingExtended.sol\":2283:2307  whitelistVoter[_address] */\n      0xffffffffffffffffffffffffffffffffffffffff\n      and\n      0xffffffffffffffffffffffffffffffffffffffff\n      and\n      dup2\n      mstore\n      0x20\n      add\n      swap1\n      dup2\n      mstore\n      0x20\n      add\n      0x00\n      keccak256\n        /* \"contracts/VotingExtended.sol\":2283:2320  whitelistVoter[_address].isRegistered */\n      0x00\n      add\n      0x00\n      swap1\n      sload\n      swap1\n      0x0100\n      exp\n      swap1\n      div\n      0xff\n      and\n        /* \"contracts/VotingExtended.sol\":2283:2329  whitelistVoter[_address].isRegistered == false */\n      iszero\n      iszero\n      eq\n        /* \"contracts/VotingExtended.sol\":2275:2366  require(whitelistVoter[_address].isRegistered == false, \"You already have add this adress\") */\n      tag_158\n      jumpi\n      mload(0x40)\n      0x08c379a000000000000000000000000000000000000000000000000000000000\n      dup2\n      mstore\n      0x04\n      add\n      tag_159\n      swap1\n      tag_160\n      jump\t// in\n    tag_159:\n      mload(0x40)\n      dup1\n      swap2\n      sub\n      swap1\n      revert\n    tag_158:\n        /* \"contracts/VotingExtended.sol\":2379:2397  Voter memory voter */\n      0x00\n        /* \"contracts/VotingExtended.sol\":2400:2421  Voter(true, false, 0) */\n      mload(0x40)\n      dup1\n      0x60\n      add\n      0x40\n      mstore\n      dup1\n        /* \"contracts/VotingExtended.sol\":2406:2410  true */\n      0x01\n        /* \"contracts/VotingExtended.sol\":2400:2421  Voter(true, false, 0) */\n      iszero\n      iszero\n      dup2\n      mstore\n      0x20\n      add\n        /* \"contracts/VotingExtended.sol\":2412:2417  false */\n      0x00\n        /* \"contracts/VotingExtended.sol\":2400:2421  Voter(true, false, 0) */\n      iszero\n      iszero\n      dup2\n      mstore\n      0x20\n      add\n        /* \"contracts/VotingExtended.sol\":2419:2420  0 */\n      0x00\n        /* \"contracts/VotingExtended.sol\":2400:2421  Voter(true, false, 0) */\n      dup2\n      mstore\n      pop\n        /* \"contracts/VotingExtended.sol\":2379:2421  Voter memory voter = Voter(true, false, 0) */\n      swap1\n      pop\n        /* \"contracts/VotingExtended.sol\":2459:2464  voter */\n      dup1\n        /* \"contracts/VotingExtended.sol\":2432:2446  whitelistVoter */\n      0x01\n        /* \"contracts/VotingExtended.sol\":2432:2456  whitelistVoter[_address] */\n      0x00\n        /* \"contracts/VotingExtended.sol\":2447:2455  _address */\n      dup5\n        /* \"contracts/VotingExtended.sol\":2432:2456  whitelistVoter[_address] */\n      0xffffffffffffffffffffffffffffffffffffffff\n      and\n      0xffffffffffffffffffffffffffffffffffffffff\n      and\n      dup2\n      mstore\n      0x20\n      add\n      swap1\n      dup2\n      mstore\n      0x20\n      add\n      0x00\n      keccak256\n        /* \"contracts/VotingExtended.sol\":2432:2464  whitelistVoter[_address] = voter */\n      0x00\n      dup3\n      add\n      mload\n      dup2\n      0x00\n      add\n      exp(0x0100, 0x00)\n      dup2\n      sload\n      dup2\n      0xff\n      mul\n      not\n      and\n      swap1\n      dup4\n      iszero\n      iszero\n      mul\n      or\n      swap1\n      sstore\n      pop\n      0x20\n      dup3\n      add\n      mload\n      dup2\n      0x00\n      add\n      exp(0x0100, 0x01)\n      dup2\n      sload\n      dup2\n      0xff\n      mul\n      not\n      and\n      swap1\n      dup4\n      iszero\n      iszero\n      mul\n      or\n      swap1\n      sstore\n      pop\n      0x40\n      dup3\n      add\n      mload\n      dup2\n      0x01\n      add\n      sstore\n      swap1\n      pop\n      pop\n        /* \"contracts/VotingExtended.sol\":2475:2485  voterCount */\n      0x06\n      0x00\n        /* \"contracts/VotingExtended.sol\":2475:2487  voterCount++ */\n      dup2\n      sload\n      dup1\n      swap3\n      swap2\n      swap1\n      tag_161\n      swap1\n      tag_141\n      jump\t// in\n    tag_161:\n      swap2\n      swap1\n      pop\n      sstore\n      pop\n        /* \"contracts/VotingExtended.sol\":2503:2528  VoterRegistered(_address) */\n      0xb6be2187d059cc2a55fe29e0e503b566e1e0f8c8780096e185429350acffd3dd\n        /* \"contracts/VotingExtended.sol\":2519:2527  _address */\n      dup3\n        /* \"contracts/VotingExtended.sol\":2503:2528  VoterRegistered(_address) */\n      mload(0x40)\n      tag_162\n      swap2\n      swap1\n      tag_61\n      jump\t// in\n    tag_162:\n      mload(0x40)\n      dup1\n      swap2\n      sub\n      swap1\n      log1\n        /* \"contracts/VotingExtended.sol\":2151:2536  {... */\n      pop\n        /* \"contracts/VotingExtended.sol\":2091:2536  function registerVoter(address _address) external onlyOwner {... */\n      pop\n      jump\t// out\n        /* \"contracts/VotingExtended.sol\":9239:9489  function getWinner_proposaldescription() external view returns (string memory) {... */\n    tag_45:\n        /* \"contracts/VotingExtended.sol\":9303:9316  string memory */\n      0x60\n        /* \"contracts/VotingExtended.sol\":9355:9382  WorkflowStatus.VotesTallied */\n      0x05\n        /* \"contracts/VotingExtended.sol\":9337:9382  currentStatus ==  WorkflowStatus.VotesTallied */\n      dup1\n      dup2\n      gt\n      iszero\n      tag_164\n      jumpi\n      tag_165\n      tag_120\n      jump\t// in\n    tag_165:\n    tag_164:\n        /* \"contracts/VotingExtended.sol\":9337:9350  currentStatus */\n      0x04\n      0x00\n      swap1\n      sload\n      swap1\n      0x0100\n      exp\n      swap1\n      div\n      0xff\n      and\n        /* \"contracts/VotingExtended.sol\":9337:9382  currentStatus ==  WorkflowStatus.VotesTallied */\n      0x05\n      dup2\n      gt\n      iszero\n      tag_166\n      jumpi\n      tag_167\n      tag_120\n      jump\t// in\n    tag_167:\n    tag_166:\n      eq\n        /* \"contracts/VotingExtended.sol\":9329:9423  require(currentStatus ==  WorkflowStatus.VotesTallied, \"The winner have not been choosen yet\") */\n      tag_168\n      jumpi\n      mload(0x40)\n      0x08c379a000000000000000000000000000000000000000000000000000000000\n      dup2\n      mstore\n      0x04\n      add\n      tag_169\n      swap1\n      tag_170\n      jump\t// in\n    tag_169:\n      mload(0x40)\n      dup1\n      swap2\n      sub\n      swap1\n      revert\n    tag_168:\n        /* \"contracts/VotingExtended.sol\":9441:9450  proposals */\n      0x02\n        /* \"contracts/VotingExtended.sol\":9451:9468  winningProposalId */\n      sload(0x05)\n        /* \"contracts/VotingExtended.sol\":9441:9469  proposals[winningProposalId] */\n      dup2\n      sload\n      dup2\n      lt\n      tag_171\n      jumpi\n      tag_172\n      tag_138\n      jump\t// in\n    tag_172:\n    tag_171:\n      swap1\n      0x00\n      mstore\n      keccak256(0x00, 0x20)\n      swap1\n      0x03\n      mul\n      add\n        /* \"contracts/VotingExtended.sol\":9441:9481  proposals[winningProposalId].description */\n      0x00\n      add\n        /* \"contracts/VotingExtended.sol\":9434:9481  return proposals[winningProposalId].description */\n      dup1\n      sload\n      tag_174\n      swap1\n      tag_175\n      jump\t// in\n    tag_174:\n      dup1\n      0x1f\n      add\n      0x20\n      dup1\n      swap2\n      div\n      mul\n      0x20\n      add\n      mload(0x40)\n      swap1\n      dup2\n      add\n      0x40\n      mstore\n      dup1\n      swap3\n      swap2\n      swap1\n      dup2\n      dup2\n      mstore\n      0x20\n      add\n      dup3\n      dup1\n      sload\n      tag_176\n      swap1\n      tag_175\n      jump\t// in\n    tag_176:\n      dup1\n      iszero\n      tag_177\n      jumpi\n      dup1\n      0x1f\n      lt\n      tag_178\n      jumpi\n      0x0100\n      dup1\n      dup4\n      sload\n      div\n      mul\n      dup4\n      mstore\n      swap2\n      0x20\n      add\n      swap2\n      jump(tag_177)\n    tag_178:\n      dup3\n      add\n      swap2\n      swap1\n      0x00\n      mstore\n      keccak256(0x00, 0x20)\n      swap1\n    tag_179:\n      dup2\n      sload\n      dup2\n      mstore\n      swap1\n      0x01\n      add\n      swap1\n      0x20\n      add\n      dup1\n      dup4\n      gt\n      tag_179\n      jumpi\n      dup3\n      swap1\n      sub\n      0x1f\n      and\n      dup3\n      add\n      swap2\n    tag_177:\n      pop\n      pop\n      pop\n      pop\n      pop\n      swap1\n      pop\n        /* \"contracts/VotingExtended.sol\":9239:9489  function getWinner_proposaldescription() external view returns (string memory) {... */\n      swap1\n      jump\t// out\n        /* \"contracts/VotingExtended.sol\":4564:4979  function startProposalSession() external onlyOwner {... */\n    tag_49:\n        /* \"@openzeppelin/contracts/access/Ownable.sol\":1531:1544  _checkOwner() */\n      tag_181\n        /* \"@openzeppelin/contracts/access/Ownable.sol\":1531:1542  _checkOwner */\n      tag_149\n        /* \"@openzeppelin/contracts/access/Ownable.sol\":1531:1544  _checkOwner() */\n      jump\t// in\n    tag_181:\n        /* \"contracts/VotingExtended.sol\":4652:4684  WorkflowStatus.RegisteringVoters */\n      0x00\n        /* \"contracts/VotingExtended.sol\":4634:4684  currentStatus ==  WorkflowStatus.RegisteringVoters */\n      0x05\n      dup2\n      gt\n      iszero\n      tag_183\n      jumpi\n      tag_184\n      tag_120\n      jump\t// in\n    tag_184:\n    tag_183:\n        /* \"contracts/VotingExtended.sol\":4634:4647  currentStatus */\n      0x04\n      0x00\n      swap1\n      sload\n      swap1\n      0x0100\n      exp\n      swap1\n      div\n      0xff\n      and\n        /* \"contracts/VotingExtended.sol\":4634:4684  currentStatus ==  WorkflowStatus.RegisteringVoters */\n      0x05\n      dup2\n      gt\n      iszero\n      tag_185\n      jumpi\n      tag_186\n      tag_120\n      jump\t// in\n    tag_186:\n    tag_185:\n      eq\n        /* \"contracts/VotingExtended.sol\":4626:4733  require(currentStatus ==  WorkflowStatus.RegisteringVoters, \"You can not start again the proposal session\") */\n      tag_187\n      jumpi\n      mload(0x40)\n      0x08c379a000000000000000000000000000000000000000000000000000000000\n      dup2\n      mstore\n      0x04\n      add\n      tag_188\n      swap1\n      tag_189\n      jump\t// in\n    tag_188:\n      mload(0x40)\n      dup1\n      swap2\n      sub\n      swap1\n      revert\n    tag_187:\n        /* \"contracts/VotingExtended.sol\":4765:4766  1 */\n      0x01\n        /* \"contracts/VotingExtended.sol\":4752:4762  voterCount */\n      sload(0x06)\n        /* \"contracts/VotingExtended.sol\":4752:4766  voterCount > 1 */\n      gt\n        /* \"contracts/VotingExtended.sol\":4744:4809  require(voterCount > 1, \"You must register at least 2 addresses\") */\n      tag_190\n      jumpi\n      mload(0x40)\n      0x08c379a000000000000000000000000000000000000000000000000000000000\n      dup2\n      mstore\n      0x04\n      add\n      tag_191\n      swap1\n      tag_192\n      jump\t// in\n    tag_191:\n      mload(0x40)\n      dup1\n      swap2\n      sub\n      swap1\n      revert\n    tag_190:\n        /* \"contracts/VotingExtended.sol\":4836:4879  WorkflowStatus.ProposalsRegistrationStarted */\n      0x01\n        /* \"contracts/VotingExtended.sol\":4820:4833  currentStatus */\n      0x04\n      0x00\n        /* \"contracts/VotingExtended.sol\":4820:4879  currentStatus = WorkflowStatus.ProposalsRegistrationStarted */\n      0x0100\n      exp\n      dup2\n      sload\n      dup2\n      0xff\n      mul\n      not\n      and\n      swap1\n      dup4\n      0x05\n      dup2\n      gt\n      iszero\n      tag_193\n      jumpi\n      tag_194\n      tag_120\n      jump\t// in\n    tag_194:\n    tag_193:\n      mul\n      or\n      swap1\n      sstore\n      pop\n        /* \"contracts/VotingExtended.sol\":4895:4971  WorkflowStatusChange(WorkflowStatus(uint(currentStatus) - 1), currentStatus) */\n      0x0a97a4ee45751e2abf3e4fc8946939630b11b371ea8ae39ccdc3056e98f5cc3f\n        /* \"contracts/VotingExtended.sol\":4953:4954  1 */\n      0x01\n        /* \"contracts/VotingExtended.sol\":4936:4949  currentStatus */\n      0x04\n      0x00\n      swap1\n      sload\n      swap1\n      0x0100\n      exp\n      swap1\n      div\n      0xff\n      and\n        /* \"contracts/VotingExtended.sol\":4931:4950  uint(currentStatus) */\n      0x05\n      dup2\n      gt\n      iszero\n      tag_195\n      jumpi\n      tag_196\n      tag_120\n      jump\t// in\n    tag_196:\n    tag_195:\n        /* \"contracts/VotingExtended.sol\":4931:4954  uint(currentStatus) - 1 */\n      tag_197\n      swap2\n      swap1\n      tag_198\n      jump\t// in\n    tag_197:\n        /* \"contracts/VotingExtended.sol\":4916:4955  WorkflowStatus(uint(currentStatus) - 1) */\n      0x05\n      dup2\n      gt\n      iszero\n      tag_199\n      jumpi\n      tag_200\n      tag_120\n      jump\t// in\n    tag_200:\n    tag_199:\n        /* \"contracts/VotingExtended.sol\":4957:4970  currentStatus */\n      0x04\n      0x00\n      swap1\n      sload\n      swap1\n      0x0100\n      exp\n      swap1\n      div\n      0xff\n      and\n        /* \"contracts/VotingExtended.sol\":4895:4971  WorkflowStatusChange(WorkflowStatus(uint(currentStatus) - 1), currentStatus) */\n      mload(0x40)\n      tag_201\n      swap3\n      swap2\n      swap1\n      tag_202\n      jump\t// in\n    tag_201:\n      mload(0x40)\n      dup1\n      swap2\n      sub\n      swap1\n      log1\n        /* \"contracts/VotingExtended.sol\":4564:4979  function startProposalSession() external onlyOwner {... */\n      jump\t// out\n        /* \"contracts/VotingExtended.sol\":9547:9755  function getWinnerProposalId() external view returns (uint) {... */\n    tag_51:\n        /* \"contracts/VotingExtended.sol\":9601:9605  uint */\n      0x00\n        /* \"contracts/VotingExtended.sol\":9644:9671  WorkflowStatus.VotesTallied */\n      0x05\n        /* \"contracts/VotingExtended.sol\":9626:9671  currentStatus ==  WorkflowStatus.VotesTallied */\n      dup1\n      dup2\n      gt\n      iszero\n      tag_204\n      jumpi\n      tag_205\n      tag_120\n      jump\t// in\n    tag_205:\n    tag_204:\n        /* \"contracts/VotingExtended.sol\":9626:9639  currentStatus */\n      0x04\n      0x00\n      swap1\n      sload\n      swap1\n      0x0100\n      exp\n      swap1\n      div\n      0xff\n      and\n        /* \"contracts/VotingExtended.sol\":9626:9671  currentStatus ==  WorkflowStatus.VotesTallied */\n      0x05\n      dup2\n      gt\n      iszero\n      tag_206\n      jumpi\n      tag_207\n      tag_120\n      jump\t// in\n    tag_207:\n    tag_206:\n      eq\n        /* \"contracts/VotingExtended.sol\":9618:9712  require(currentStatus ==  WorkflowStatus.VotesTallied, \"The winner have not been choosen yet\") */\n      tag_208\n      jumpi\n      mload(0x40)\n      0x08c379a000000000000000000000000000000000000000000000000000000000\n      dup2\n      mstore\n      0x04\n      add\n      tag_209\n      swap1\n      tag_170\n      jump\t// in\n    tag_209:\n      mload(0x40)\n      dup1\n      swap2\n      sub\n      swap1\n      revert\n    tag_208:\n        /* \"contracts/VotingExtended.sol\":9730:9747  winningProposalId */\n      sload(0x05)\n        /* \"contracts/VotingExtended.sol\":9723:9747  return winningProposalId */\n      swap1\n      pop\n        /* \"contracts/VotingExtended.sol\":9547:9755  function getWinnerProposalId() external view returns (uint) {... */\n      swap1\n      jump\t// out\n        /* \"contracts/VotingExtended.sol\":10314:10413  function getProposals() external view returns(Proposal[] memory){... */\n    tag_54:\n        /* \"contracts/VotingExtended.sol\":10360:10377  Proposal[] memory */\n      0x60\n        /* \"contracts/VotingExtended.sol\":10396:10405  proposals */\n      0x02\n        /* \"contracts/VotingExtended.sol\":10389:10405  return proposals */\n      dup1\n      sload\n      dup1\n      0x20\n      mul\n      0x20\n      add\n      mload(0x40)\n      swap1\n      dup2\n      add\n      0x40\n      mstore\n      dup1\n      swap3\n      swap2\n      swap1\n      dup2\n      dup2\n      mstore\n      0x20\n      add\n      0x00\n      swap1\n    tag_211:\n      dup3\n      dup3\n      lt\n      iszero\n      tag_212\n      jumpi\n      dup4\n      dup3\n      swap1\n      0x00\n      mstore\n      keccak256(0x00, 0x20)\n      swap1\n      0x03\n      mul\n      add\n      mload(0x40)\n      dup1\n      0x60\n      add\n      0x40\n      mstore\n      swap1\n      dup2\n      0x00\n      dup3\n      add\n      dup1\n      sload\n      tag_214\n      swap1\n      tag_175\n      jump\t// in\n    tag_214:\n      dup1\n      0x1f\n      add\n      0x20\n      dup1\n      swap2\n      div\n      mul\n      0x20\n      add\n      mload(0x40)\n      swap1\n      dup2\n      add\n      0x40\n      mstore\n      dup1\n      swap3\n      swap2\n      swap1\n      dup2\n      dup2\n      mstore\n      0x20\n      add\n      dup3\n      dup1\n      sload\n      tag_215\n      swap1\n      tag_175\n      jump\t// in\n    tag_215:\n      dup1\n      iszero\n      tag_216\n      jumpi\n      dup1\n      0x1f\n      lt\n      tag_217\n      jumpi\n      0x0100\n      dup1\n      dup4\n      sload\n      div\n      mul\n      dup4\n      mstore\n      swap2\n      0x20\n      add\n      swap2\n      jump(tag_216)\n    tag_217:\n      dup3\n      add\n      swap2\n      swap1\n      0x00\n      mstore\n      keccak256(0x00, 0x20)\n      swap1\n    tag_218:\n      dup2\n      sload\n      dup2\n      mstore\n      swap1\n      0x01\n      add\n      swap1\n      0x20\n      add\n      dup1\n      dup4\n      gt\n      tag_218\n      jumpi\n      dup3\n      swap1\n      sub\n      0x1f\n      and\n      dup3\n      add\n      swap2\n    tag_216:\n      pop\n      pop\n      pop\n      pop\n      pop\n      dup2\n      mstore\n      0x20\n      add\n      0x01\n      dup3\n      add\n      sload\n      dup2\n      mstore\n      0x20\n      add\n      0x02\n      dup3\n      add\n      0x00\n      swap1\n      sload\n      swap1\n      0x0100\n      exp\n      swap1\n      div\n      0xffffffffffffffffffffffffffffffffffffffff\n      and\n      0xffffffffffffffffffffffffffffffffffffffff\n      and\n      0xffffffffffffffffffffffffffffffffffffffff\n      and\n      dup2\n      mstore\n      pop\n      pop\n      dup2\n      mstore\n      0x20\n      add\n      swap1\n      0x01\n      add\n      swap1\n      jump(tag_211)\n    tag_212:\n      pop\n      pop\n      pop\n      pop\n      swap1\n      pop\n        /* \"contracts/VotingExtended.sol\":10314:10413  function getProposals() external view returns(Proposal[] memory){... */\n      swap1\n      jump\t// out\n        /* \"contracts/VotingExtended.sol\":7480:8067  function getAddressByProposalId(uint _proposalId) external view returns(address){... */\n    tag_59:\n        /* \"contracts/VotingExtended.sol\":7552:7559  address */\n      0x00\n        /* \"contracts/VotingExtended.sol\":7597:7640  WorkflowStatus.ProposalsRegistrationStarted */\n      0x01\n        /* \"contracts/VotingExtended.sol\":7579:7640  currentStatus >=  WorkflowStatus.ProposalsRegistrationStarted */\n      0x05\n      dup2\n      gt\n      iszero\n      tag_220\n      jumpi\n      tag_221\n      tag_120\n      jump\t// in\n    tag_221:\n    tag_220:\n        /* \"contracts/VotingExtended.sol\":7579:7592  currentStatus */\n      0x04\n      0x00\n      swap1\n      sload\n      swap1\n      0x0100\n      exp\n      swap1\n      div\n      0xff\n      and\n        /* \"contracts/VotingExtended.sol\":7579:7640  currentStatus >=  WorkflowStatus.ProposalsRegistrationStarted */\n      0x05\n      dup2\n      gt\n      iszero\n      tag_222\n      jumpi\n      tag_223\n      tag_120\n      jump\t// in\n    tag_223:\n    tag_222:\n      lt\n      iszero\n        /* \"contracts/VotingExtended.sol\":7571:7681  require(currentStatus >=  WorkflowStatus.ProposalsRegistrationStarted, \"The proposal session has not started\") */\n      tag_224\n      jumpi\n      mload(0x40)\n      0x08c379a000000000000000000000000000000000000000000000000000000000\n      dup2\n      mstore\n      0x04\n      add\n      tag_225\n      swap1\n      tag_226\n      jump\t// in\n    tag_225:\n      mload(0x40)\n      dup1\n      swap2\n      sub\n      swap1\n      revert\n    tag_224:\n        /* \"contracts/VotingExtended.sol\":7762:7771  proposals */\n      0x02\n        /* \"contracts/VotingExtended.sol\":7762:7778  proposals.length */\n      dup1\n      sload\n      swap1\n      pop\n        /* \"contracts/VotingExtended.sol\":7748:7759  _proposalId */\n      dup3\n        /* \"contracts/VotingExtended.sol\":7748:7778  _proposalId < proposals.length */\n      lt\n        /* \"contracts/VotingExtended.sol\":7740:7815  require(_proposalId < proposals.length, \"This proposal ID does not exists\") */\n      tag_227\n      jumpi\n      mload(0x40)\n      0x08c379a000000000000000000000000000000000000000000000000000000000\n      dup2\n      mstore\n      0x04\n      add\n      tag_228\n      swap1\n      tag_135\n      jump\t// in\n    tag_228:\n      mload(0x40)\n      dup1\n      swap2\n      sub\n      swap1\n      revert\n    tag_227:\n        /* \"contracts/VotingExtended.sol\":7964:7968  true */\n      0x01\n        /* \"contracts/VotingExtended.sol\":7903:7968  whitelistVoter[proposals[_proposalId].voter].isRegistered == true */\n      iszero\n      iszero\n        /* \"contracts/VotingExtended.sol\":7903:7917  whitelistVoter */\n      0x01\n        /* \"contracts/VotingExtended.sol\":7903:7947  whitelistVoter[proposals[_proposalId].voter] */\n      0x00\n        /* \"contracts/VotingExtended.sol\":7918:7927  proposals */\n      0x02\n        /* \"contracts/VotingExtended.sol\":7928:7939  _proposalId */\n      dup6\n        /* \"contracts/VotingExtended.sol\":7918:7940  proposals[_proposalId] */\n      dup2\n      sload\n      dup2\n      lt\n      tag_229\n      jumpi\n      tag_230\n      tag_138\n      jump\t// in\n    tag_230:\n    tag_229:\n      swap1\n      0x00\n      mstore\n      keccak256(0x00, 0x20)\n      swap1\n      0x03\n      mul\n      add\n        /* \"contracts/VotingExtended.sol\":7918:7946  proposals[_proposalId].voter */\n      0x02\n      add\n      0x00\n      swap1\n      sload\n      swap1\n      0x0100\n      exp\n      swap1\n      div\n      0xffffffffffffffffffffffffffffffffffffffff\n      and\n        /* \"contracts/VotingExtended.sol\":7903:7947  whitelistVoter[proposals[_proposalId].voter] */\n      0xffffffffffffffffffffffffffffffffffffffff\n      and\n      0xffffffffffffffffffffffffffffffffffffffff\n      and\n      dup2\n      mstore\n      0x20\n      add\n      swap1\n      dup2\n      mstore\n      0x20\n      add\n      0x00\n      keccak256\n        /* \"contracts/VotingExtended.sol\":7903:7960  whitelistVoter[proposals[_proposalId].voter].isRegistered */\n      0x00\n      add\n      0x00\n      swap1\n      sload\n      swap1\n      0x0100\n      exp\n      swap1\n      div\n      0xff\n      and\n        /* \"contracts/VotingExtended.sol\":7903:7968  whitelistVoter[proposals[_proposalId].voter].isRegistered == true */\n      iszero\n      iszero\n      eq\n        /* \"contracts/VotingExtended.sol\":7895:8003  require(whitelistVoter[proposals[_proposalId].voter].isRegistered == true, \"This address is not registered\") */\n      tag_232\n      jumpi\n      mload(0x40)\n      0x08c379a000000000000000000000000000000000000000000000000000000000\n      dup2\n      mstore\n      0x04\n      add\n      tag_233\n      swap1\n      tag_234\n      jump\t// in\n    tag_233:\n      mload(0x40)\n      dup1\n      swap2\n      sub\n      swap1\n      revert\n    tag_232:\n        /* \"contracts/VotingExtended.sol\":8031:8040  proposals */\n      0x02\n        /* \"contracts/VotingExtended.sol\":8041:8052  _proposalId */\n      dup3\n        /* \"contracts/VotingExtended.sol\":8031:8053  proposals[_proposalId] */\n      dup2\n      sload\n      dup2\n      lt\n      tag_235\n      jumpi\n      tag_236\n      tag_138\n      jump\t// in\n    tag_236:\n    tag_235:\n      swap1\n      0x00\n      mstore\n      keccak256(0x00, 0x20)\n      swap1\n      0x03\n      mul\n      add\n        /* \"contracts/VotingExtended.sol\":8031:8059  proposals[_proposalId].voter */\n      0x02\n      add\n      0x00\n      swap1\n      sload\n      swap1\n      0x0100\n      exp\n      swap1\n      div\n      0xffffffffffffffffffffffffffffffffffffffff\n      and\n        /* \"contracts/VotingExtended.sol\":8024:8059  return proposals[_proposalId].voter */\n      swap1\n      pop\n        /* \"contracts/VotingExtended.sol\":7480:8067  function getAddressByProposalId(uint _proposalId) external view returns(address){... */\n      swap2\n      swap1\n      pop\n      jump\t// out\n        /* \"contracts/VotingExtended.sol\":9987:10120  function getPreviousStatus() external view returns (WorkflowStatus) {... */\n    tag_63:\n        /* \"contracts/VotingExtended.sol\":10039:10053  WorkflowStatus */\n      0x00\n        /* \"contracts/VotingExtended.sol\":10110:10111  1 */\n      0x01\n        /* \"contracts/VotingExtended.sol\":10093:10106  currentStatus */\n      0x04\n      0x00\n      swap1\n      sload\n      swap1\n      0x0100\n      exp\n      swap1\n      div\n      0xff\n      and\n        /* \"contracts/VotingExtended.sol\":10088:10107  uint(currentStatus) */\n      0x05\n      dup2\n      gt\n      iszero\n      tag_239\n      jumpi\n      tag_240\n      tag_120\n      jump\t// in\n    tag_240:\n    tag_239:\n        /* \"contracts/VotingExtended.sol\":10088:10111  uint(currentStatus) - 1 */\n      tag_241\n      swap2\n      swap1\n      tag_198\n      jump\t// in\n    tag_241:\n        /* \"contracts/VotingExtended.sol\":10073:10112  WorkflowStatus(uint(currentStatus) - 1) */\n      0x05\n      dup2\n      gt\n      iszero\n      tag_242\n      jumpi\n      tag_243\n      tag_120\n      jump\t// in\n    tag_243:\n    tag_242:\n        /* \"contracts/VotingExtended.sol\":10066:10112  return WorkflowStatus(uint(currentStatus) - 1) */\n      swap1\n      pop\n        /* \"contracts/VotingExtended.sol\":9987:10120  function getPreviousStatus() external view returns (WorkflowStatus) {... */\n      swap1\n      jump\t// out\n        /* \"@openzeppelin/contracts/access/Ownable.sol\":2293:2394  function renounceOwnership() public virtual onlyOwner {... */\n    tag_67:\n        /* \"@openzeppelin/contracts/access/Ownable.sol\":1531:1544  _checkOwner() */\n      tag_245\n        /* \"@openzeppelin/contracts/access/Ownable.sol\":1531:1542  _checkOwner */\n      tag_149\n        /* \"@openzeppelin/contracts/access/Ownable.sol\":1531:1544  _checkOwner() */\n      jump\t// in\n    tag_245:\n        /* \"@openzeppelin/contracts/access/Ownable.sol\":2357:2387  _transferOwnership(address(0)) */\n      tag_247\n        /* \"@openzeppelin/contracts/access/Ownable.sol\":2384:2385  0 */\n      0x00\n        /* \"@openzeppelin/contracts/access/Ownable.sol\":2357:2375  _transferOwnership */\n      tag_248\n        /* \"@openzeppelin/contracts/access/Ownable.sol\":2357:2387  _transferOwnership(address(0)) */\n      jump\t// in\n    tag_247:\n        /* \"@openzeppelin/contracts/access/Ownable.sol\":2293:2394  function renounceOwnership() public virtual onlyOwner {... */\n      jump\t// out\n        /* \"contracts/VotingExtended.sol\":8075:8544  function getVoteByAddress(address _address) external view returns(Proposal memory){... */\n    tag_70:\n        /* \"contracts/VotingExtended.sol\":8141:8156  Proposal memory */\n      tag_249\n      tag_250\n      jump\t// in\n    tag_249:\n        /* \"contracts/VotingExtended.sol\":8286:8290  true */\n      0x01\n        /* \"contracts/VotingExtended.sol\":8245:8290  whitelistVoter[_address].isRegistered == true */\n      iszero\n      iszero\n        /* \"contracts/VotingExtended.sol\":8245:8259  whitelistVoter */\n      0x01\n        /* \"contracts/VotingExtended.sol\":8245:8269  whitelistVoter[_address] */\n      0x00\n        /* \"contracts/VotingExtended.sol\":8260:8268  _address */\n      dup5\n        /* \"contracts/VotingExtended.sol\":8245:8269  whitelistVoter[_address] */\n      0xffffffffffffffffffffffffffffffffffffffff\n      and\n      0xffffffffffffffffffffffffffffffffffffffff\n      and\n      dup2\n      mstore\n      0x20\n      add\n      swap1\n      dup2\n      mstore\n      0x20\n      add\n      0x00\n      keccak256\n        /* \"contracts/VotingExtended.sol\":8245:8282  whitelistVoter[_address].isRegistered */\n      0x00\n      add\n      0x00\n      swap1\n      sload\n      swap1\n      0x0100\n      exp\n      swap1\n      div\n      0xff\n      and\n        /* \"contracts/VotingExtended.sol\":8245:8290  whitelistVoter[_address].isRegistered == true */\n      iszero\n      iszero\n      eq\n        /* \"contracts/VotingExtended.sol\":8237:8325  require(whitelistVoter[_address].isRegistered == true, \"This address is not registered\") */\n      tag_252\n      jumpi\n      mload(0x40)\n      0x08c379a000000000000000000000000000000000000000000000000000000000\n      dup2\n      mstore\n      0x04\n      add\n      tag_253\n      swap1\n      tag_234\n      jump\t// in\n    tag_253:\n      mload(0x40)\n      dup1\n      swap2\n      sub\n      swap1\n      revert\n    tag_252:\n        /* \"contracts/VotingExtended.sol\":8381:8385  true */\n      0x01\n        /* \"contracts/VotingExtended.sol\":8344:8385  whitelistVoter[_address].hasVoted == true */\n      iszero\n      iszero\n        /* \"contracts/VotingExtended.sol\":8344:8358  whitelistVoter */\n      0x01\n        /* \"contracts/VotingExtended.sol\":8344:8368  whitelistVoter[_address] */\n      0x00\n        /* \"contracts/VotingExtended.sol\":8359:8367  _address */\n      dup5\n        /* \"contracts/VotingExtended.sol\":8344:8368  whitelistVoter[_address] */\n      0xffffffffffffffffffffffffffffffffffffffff\n      and\n      0xffffffffffffffffffffffffffffffffffffffff\n      and\n      dup2\n      mstore\n      0x20\n      add\n      swap1\n      dup2\n      mstore\n      0x20\n      add\n      0x00\n      keccak256\n        /* \"contracts/VotingExtended.sol\":8344:8377  whitelistVoter[_address].hasVoted */\n      0x00\n      add\n      0x01\n      swap1\n      sload\n      swap1\n      0x0100\n      exp\n      swap1\n      div\n      0xff\n      and\n        /* \"contracts/VotingExtended.sol\":8344:8385  whitelistVoter[_address].hasVoted == true */\n      iszero\n      iszero\n      eq\n        /* \"contracts/VotingExtended.sol\":8336:8416  require(whitelistVoter[_address].hasVoted == true, \"This address has not voted\") */\n      tag_254\n      jumpi\n      mload(0x40)\n      0x08c379a000000000000000000000000000000000000000000000000000000000\n      dup2\n      mstore\n      0x04\n      add\n      tag_255\n      swap1\n      tag_256\n      jump\t// in\n    tag_255:\n      mload(0x40)\n      dup1\n      swap2\n      sub\n      swap1\n      revert\n    tag_254:\n        /* \"contracts/VotingExtended.sol\":8429:8449  uint votedProposalId */\n      0x00\n        /* \"contracts/VotingExtended.sol\":8452:8466  whitelistVoter */\n      0x01\n        /* \"contracts/VotingExtended.sol\":8452:8476  whitelistVoter[_address] */\n      0x00\n        /* \"contracts/VotingExtended.sol\":8467:8475  _address */\n      dup5\n        /* \"contracts/VotingExtended.sol\":8452:8476  whitelistVoter[_address] */\n      0xffffffffffffffffffffffffffffffffffffffff\n      and\n      0xffffffffffffffffffffffffffffffffffffffff\n      and\n      dup2\n      mstore\n      0x20\n      add\n      swap1\n      dup2\n      mstore\n      0x20\n      add\n      0x00\n      keccak256\n        /* \"contracts/VotingExtended.sol\":8452:8492  whitelistVoter[_address].votedProposalId */\n      0x01\n      add\n      sload\n        /* \"contracts/VotingExtended.sol\":8429:8492  uint votedProposalId = whitelistVoter[_address].votedProposalId */\n      swap1\n      pop\n        /* \"contracts/VotingExtended.sol\":8510:8519  proposals */\n      0x02\n        /* \"contracts/VotingExtended.sol\":8520:8535  votedProposalId */\n      dup2\n        /* \"contracts/VotingExtended.sol\":8510:8536  proposals[votedProposalId] */\n      dup2\n      sload\n      dup2\n      lt\n      tag_257\n      jumpi\n      tag_258\n      tag_138\n      jump\t// in\n    tag_258:\n    tag_257:\n      swap1\n      0x00\n      mstore\n      keccak256(0x00, 0x20)\n      swap1\n      0x03\n      mul\n      add\n        /* \"contracts/VotingExtended.sol\":8503:8536  return proposals[votedProposalId] */\n      mload(0x40)\n      dup1\n      0x60\n      add\n      0x40\n      mstore\n      swap1\n      dup2\n      0x00\n      dup3\n      add\n      dup1\n      sload\n      tag_260\n      swap1\n      tag_175\n      jump\t// in\n    tag_260:\n      dup1\n      0x1f\n      add\n      0x20\n      dup1\n      swap2\n      div\n      mul\n      0x20\n      add\n      mload(0x40)\n      swap1\n      dup2\n      add\n      0x40\n      mstore\n      dup1\n      swap3\n      swap2\n      swap1\n      dup2\n      dup2\n      mstore\n      0x20\n      add\n      dup3\n      dup1\n      sload\n      tag_261\n      swap1\n      tag_175\n      jump\t// in\n    tag_261:\n      dup1\n      iszero\n      tag_262\n      jumpi\n      dup1\n      0x1f\n      lt\n      tag_263\n      jumpi\n      0x0100\n      dup1\n      dup4\n      sload\n      div\n      mul\n      dup4\n      mstore\n      swap2\n      0x20\n      add\n      swap2\n      jump(tag_262)\n    tag_263:\n      dup3\n      add\n      swap2\n      swap1\n      0x00\n      mstore\n      keccak256(0x00, 0x20)\n      swap1\n    tag_264:\n      dup2\n      sload\n      dup2\n      mstore\n      swap1\n      0x01\n      add\n      swap1\n      0x20\n      add\n      dup1\n      dup4\n      gt\n      tag_264\n      jumpi\n      dup3\n      swap1\n      sub\n      0x1f\n      and\n      dup3\n      add\n      swap2\n    tag_262:\n      pop\n      pop\n      pop\n      pop\n      pop\n      dup2\n      mstore\n      0x20\n      add\n      0x01\n      dup3\n      add\n      sload\n      dup2\n      mstore\n      0x20\n      add\n      0x02\n      dup3\n      add\n      0x00\n      swap1\n      sload\n      swap1\n      0x0100\n      exp\n      swap1\n      div\n      0xffffffffffffffffffffffffffffffffffffffff\n      and\n      0xffffffffffffffffffffffffffffffffffffffff\n      and\n      0xffffffffffffffffffffffffffffffffffffffff\n      and\n      dup2\n      mstore\n      pop\n      pop\n      swap2\n      pop\n      pop\n        /* \"contracts/VotingExtended.sol\":8075:8544  function getVoteByAddress(address _address) external view returns(Proposal memory){... */\n      swap2\n      swap1\n      pop\n      jump\t// out\n        /* \"@openzeppelin/contracts/access/Ownable.sol\":1638:1723  function owner() public view virtual returns (address) {... */\n    tag_74:\n        /* \"@openzeppelin/contracts/access/Ownable.sol\":1684:1691  address */\n      0x00\n        /* \"@openzeppelin/contracts/access/Ownable.sol\":1710:1716  _owner */\n      0x00\n      0x00\n      swap1\n      sload\n      swap1\n      0x0100\n      exp\n      swap1\n      div\n      0xffffffffffffffffffffffffffffffffffffffff\n      and\n        /* \"@openzeppelin/contracts/access/Ownable.sol\":1703:1716  return _owner */\n      swap1\n      pop\n        /* \"@openzeppelin/contracts/access/Ownable.sol\":1638:1723  function owner() public view virtual returns (address) {... */\n      swap1\n      jump\t// out\n        /* \"contracts/VotingExtended.sol\":10914:11012  function getVoteWinnerCount() external view returns(uint){... */\n    tag_77:\n        /* \"contracts/VotingExtended.sol\":10966:10970  uint */\n      0x00\n        /* \"contracts/VotingExtended.sol\":10989:11004  voteWinnerCount */\n      sload(0x0a)\n        /* \"contracts/VotingExtended.sol\":10982:11004  return voteWinnerCount */\n      swap1\n      pop\n        /* \"contracts/VotingExtended.sol\":10914:11012  function getVoteWinnerCount() external view returns(uint){... */\n      swap1\n      jump\t// out\n        /* \"contracts/VotingExtended.sol\":8943:9171  function getWinnerProposal() external view returns (Proposal memory) {... */\n    tag_80:\n        /* \"contracts/VotingExtended.sol\":8995:9010  Proposal memory */\n      tag_267\n      tag_250\n      jump\t// in\n    tag_267:\n        /* \"contracts/VotingExtended.sol\":9049:9076  WorkflowStatus.VotesTallied */\n      0x05\n        /* \"contracts/VotingExtended.sol\":9031:9076  currentStatus ==  WorkflowStatus.VotesTallied */\n      dup1\n      dup2\n      gt\n      iszero\n      tag_269\n      jumpi\n      tag_270\n      tag_120\n      jump\t// in\n    tag_270:\n    tag_269:\n        /* \"contracts/VotingExtended.sol\":9031:9044  currentStatus */\n      0x04\n      0x00\n      swap1\n      sload\n      swap1\n      0x0100\n      exp\n      swap1\n      div\n      0xff\n      and\n        /* \"contracts/VotingExtended.sol\":9031:9076  currentStatus ==  WorkflowStatus.VotesTallied */\n      0x05\n      dup2\n      gt\n      iszero\n      tag_271\n      jumpi\n      tag_272\n      tag_120\n      jump\t// in\n    tag_272:\n    tag_271:\n      eq\n        /* \"contracts/VotingExtended.sol\":9023:9117  require(currentStatus ==  WorkflowStatus.VotesTallied, \"The winner have not been choosen yet\") */\n      tag_273\n      jumpi\n      mload(0x40)\n      0x08c379a000000000000000000000000000000000000000000000000000000000\n      dup2\n      mstore\n      0x04\n      add\n      tag_274\n      swap1\n      tag_170\n      jump\t// in\n    tag_274:\n      mload(0x40)\n      dup1\n      swap2\n      sub\n      swap1\n      revert\n    tag_273:\n        /* \"contracts/VotingExtended.sol\":9135:9144  proposals */\n      0x02\n        /* \"contracts/VotingExtended.sol\":9145:9162  winningProposalId */\n      sload(0x05)\n        /* \"contracts/VotingExtended.sol\":9135:9163  proposals[winningProposalId] */\n      dup2\n      sload\n      dup2\n      lt\n      tag_275\n      jumpi\n      tag_276\n      tag_138\n      jump\t// in\n    tag_276:\n    tag_275:\n      swap1\n      0x00\n      mstore\n      keccak256(0x00, 0x20)\n      swap1\n      0x03\n      mul\n      add\n        /* \"contracts/VotingExtended.sol\":9128:9163  return proposals[winningProposalId] */\n      mload(0x40)\n      dup1\n      0x60\n      add\n      0x40\n      mstore\n      swap1\n      dup2\n      0x00\n      dup3\n      add\n      dup1\n      sload\n      tag_278\n      swap1\n      tag_175\n      jump\t// in\n    tag_278:\n      dup1\n      0x1f\n      add\n      0x20\n      dup1\n      swap2\n      div\n      mul\n      0x20\n      add\n      mload(0x40)\n      swap1\n      dup2\n      add\n      0x40\n      mstore\n      dup1\n      swap3\n      swap2\n      swap1\n      dup2\n      dup2\n      mstore\n      0x20\n      add\n      dup3\n      dup1\n      sload\n      tag_279\n      swap1\n      tag_175\n      jump\t// in\n    tag_279:\n      dup1\n      iszero\n      tag_280\n      jumpi\n      dup1\n      0x1f\n      lt\n      tag_281\n      jumpi\n      0x0100\n      dup1\n      dup4\n      sload\n      div\n      mul\n      dup4\n      mstore\n      swap2\n      0x20\n      add\n      swap2\n      jump(tag_280)\n    tag_281:\n      dup3\n      add\n      swap2\n      swap1\n      0x00\n      mstore\n      keccak256(0x00, 0x20)\n      swap1\n    tag_282:\n      dup2\n      sload\n      dup2\n      mstore\n      swap1\n      0x01\n      add\n      swap1\n      0x20\n      add\n      dup1\n      dup4\n      gt\n      tag_282\n      jumpi\n      dup3\n      swap1\n      sub\n      0x1f\n      and\n      dup3\n      add\n      swap2\n    tag_280:\n      pop\n      pop\n      pop\n      pop\n      pop\n      dup2\n      mstore\n      0x20\n      add\n      0x01\n      dup3\n      add\n      sload\n      dup2\n      mstore\n      0x20\n      add\n      0x02\n      dup3\n      add\n      0x00\n      swap1\n      sload\n      swap1\n      0x0100\n      exp\n      swap1\n      div\n      0xffffffffffffffffffffffffffffffffffffffff\n      and\n      0xffffffffffffffffffffffffffffffffffffffff\n      and\n      0xffffffffffffffffffffffffffffffffffffffff\n      and\n      dup2\n      mstore\n      pop\n      pop\n      swap1\n      pop\n        /* \"contracts/VotingExtended.sol\":8943:9171  function getWinnerProposal() external view returns (Proposal memory) {... */\n      swap1\n      jump\t// out\n        /* \"contracts/VotingExtended.sol\":9811:9917  function getCurrentStatus() external view returns (WorkflowStatus) {... */\n    tag_83:\n        /* \"contracts/VotingExtended.sol\":9862:9876  WorkflowStatus */\n      0x00\n        /* \"contracts/VotingExtended.sol\":9896:9909  currentStatus */\n      0x04\n      0x00\n      swap1\n      sload\n      swap1\n      0x0100\n      exp\n      swap1\n      div\n      0xff\n      and\n        /* \"contracts/VotingExtended.sol\":9889:9909  return currentStatus */\n      swap1\n      pop\n        /* \"contracts/VotingExtended.sol\":9811:9917  function getCurrentStatus() external view returns (WorkflowStatus) {... */\n      swap1\n      jump\t// out\n        /* \"contracts/VotingExtended.sol\":10754:10844  function getWinnerCount() external view returns(uint){... */\n    tag_86:\n        /* \"contracts/VotingExtended.sol\":10802:10806  uint */\n      0x00\n        /* \"contracts/VotingExtended.sol\":10825:10836  winnerCount */\n      sload(0x09)\n        /* \"contracts/VotingExtended.sol\":10818:10836  return winnerCount */\n      swap1\n      pop\n        /* \"contracts/VotingExtended.sol\":10754:10844  function getWinnerCount() external view returns(uint){... */\n      swap1\n      jump\t// out\n        /* \"contracts/VotingExtended.sol\":2729:3336  function propose(string memory _proposal) external {... */\n    tag_91:\n        /* \"contracts/VotingExtended.sol\":2816:2859  WorkflowStatus.ProposalsRegistrationStarted */\n      0x01\n        /* \"contracts/VotingExtended.sol\":2799:2859  currentStatus == WorkflowStatus.ProposalsRegistrationStarted */\n      0x05\n      dup2\n      gt\n      iszero\n      tag_286\n      jumpi\n      tag_287\n      tag_120\n      jump\t// in\n    tag_287:\n    tag_286:\n        /* \"contracts/VotingExtended.sol\":2799:2812  currentStatus */\n      0x04\n      0x00\n      swap1\n      sload\n      swap1\n      0x0100\n      exp\n      swap1\n      div\n      0xff\n      and\n        /* \"contracts/VotingExtended.sol\":2799:2859  currentStatus == WorkflowStatus.ProposalsRegistrationStarted */\n      0x05\n      dup2\n      gt\n      iszero\n      tag_288\n      jumpi\n      tag_289\n      tag_120\n      jump\t// in\n    tag_289:\n    tag_288:\n      eq\n        /* \"contracts/VotingExtended.sol\":2791:2899  require(currentStatus == WorkflowStatus.ProposalsRegistrationStarted, \"The proposal session is not started\") */\n      tag_290\n      jumpi\n      mload(0x40)\n      0x08c379a000000000000000000000000000000000000000000000000000000000\n      dup2\n      mstore\n      0x04\n      add\n      tag_291\n      swap1\n      tag_292\n      jump\t// in\n    tag_291:\n      mload(0x40)\n      dup1\n      swap2\n      sub\n      swap1\n      revert\n    tag_290:\n        /* \"contracts/VotingExtended.sol\":2930:2940  msg.sender */\n      caller\n        /* \"contracts/VotingExtended.sol\":2919:2940  owner() != msg.sender */\n      0xffffffffffffffffffffffffffffffffffffffff\n      and\n        /* \"contracts/VotingExtended.sol\":2919:2926  owner() */\n      tag_293\n        /* \"contracts/VotingExtended.sol\":2919:2924  owner */\n      tag_74\n        /* \"contracts/VotingExtended.sol\":2919:2926  owner() */\n      jump\t// in\n    tag_293:\n        /* \"contracts/VotingExtended.sol\":2919:2940  owner() != msg.sender */\n      0xffffffffffffffffffffffffffffffffffffffff\n      and\n      sub\n        /* \"contracts/VotingExtended.sol\":2911:3000  require(owner() != msg.sender, \"You are the owner of this contract, you can not propose\") */\n      tag_294\n      jumpi\n      mload(0x40)\n      0x08c379a000000000000000000000000000000000000000000000000000000000\n      dup2\n      mstore\n      0x04\n      add\n      tag_295\n      swap1\n      tag_296\n      jump\t// in\n    tag_295:\n      mload(0x40)\n      dup1\n      swap2\n      sub\n      swap1\n      revert\n    tag_294:\n        /* \"contracts/VotingExtended.sol\":3062:3066  true */\n      0x01\n        /* \"contracts/VotingExtended.sol\":3019:3066  whitelistVoter[msg.sender].isRegistered == true */\n      iszero\n      iszero\n        /* \"contracts/VotingExtended.sol\":3019:3033  whitelistVoter */\n      0x01\n        /* \"contracts/VotingExtended.sol\":3019:3045  whitelistVoter[msg.sender] */\n      0x00\n        /* \"contracts/VotingExtended.sol\":3034:3044  msg.sender */\n      caller\n        /* \"contracts/VotingExtended.sol\":3019:3045  whitelistVoter[msg.sender] */\n      0xffffffffffffffffffffffffffffffffffffffff\n      and\n      0xffffffffffffffffffffffffffffffffffffffff\n      and\n      dup2\n      mstore\n      0x20\n      add\n      swap1\n      dup2\n      mstore\n      0x20\n      add\n      0x00\n      keccak256\n        /* \"contracts/VotingExtended.sol\":3019:3058  whitelistVoter[msg.sender].isRegistered */\n      0x00\n      add\n      0x00\n      swap1\n      sload\n      swap1\n      0x0100\n      exp\n      swap1\n      div\n      0xff\n      and\n        /* \"contracts/VotingExtended.sol\":3019:3066  whitelistVoter[msg.sender].isRegistered == true */\n      iszero\n      iszero\n      eq\n        /* \"contracts/VotingExtended.sol\":3011:3093  require(whitelistVoter[msg.sender].isRegistered == true, \"You are not registered\") */\n      tag_297\n      jumpi\n      mload(0x40)\n      0x08c379a000000000000000000000000000000000000000000000000000000000\n      dup2\n      mstore\n      0x04\n      add\n      tag_298\n      swap1\n      tag_128\n      jump\t// in\n    tag_298:\n      mload(0x40)\n      dup1\n      swap2\n      sub\n      swap1\n      revert\n    tag_297:\n        /* \"contracts/VotingExtended.sol\":3106:3115  proposals */\n      0x02\n        /* \"contracts/VotingExtended.sol\":3121:3250  Proposal({... */\n      mload(0x40)\n      dup1\n      0x60\n      add\n      0x40\n      mstore\n      dup1\n        /* \"contracts/VotingExtended.sol\":3162:3171  _proposal */\n      dup4\n        /* \"contracts/VotingExtended.sol\":3121:3250  Proposal({... */\n      dup2\n      mstore\n      0x20\n      add\n        /* \"contracts/VotingExtended.sol\":3201:3202  0 */\n      0x00\n        /* \"contracts/VotingExtended.sol\":3121:3250  Proposal({... */\n      dup2\n      mstore\n      0x20\n      add\n        /* \"contracts/VotingExtended.sol\":3228:3238  msg.sender */\n      caller\n        /* \"contracts/VotingExtended.sol\":3121:3250  Proposal({... */\n      0xffffffffffffffffffffffffffffffffffffffff\n      and\n      dup2\n      mstore\n      pop\n        /* \"contracts/VotingExtended.sol\":3106:3251  proposals.push(Proposal({... */\n      swap1\n      dup1\n      0x01\n      dup2\n      sload\n      add\n      dup1\n      dup3\n      sstore\n      dup1\n      swap2\n      pop\n      pop\n      0x01\n      swap1\n      sub\n      swap1\n      0x00\n      mstore\n      keccak256(0x00, 0x20)\n      swap1\n      0x03\n      mul\n      add\n      0x00\n      swap1\n      swap2\n      swap1\n      swap2\n      swap1\n      swap2\n      pop\n      0x00\n      dup3\n      add\n      mload\n      dup2\n      0x00\n      add\n      swap1\n      dup2\n      tag_300\n      swap2\n      swap1\n      tag_301\n      jump\t// in\n    tag_300:\n      pop\n      0x20\n      dup3\n      add\n      mload\n      dup2\n      0x01\n      add\n      sstore\n      0x40\n      dup3\n      add\n      mload\n      dup2\n      0x02\n      add\n      exp(0x0100, 0x00)\n      dup2\n      sload\n      dup2\n      0xffffffffffffffffffffffffffffffffffffffff\n      mul\n      not\n      and\n      swap1\n      dup4\n      0xffffffffffffffffffffffffffffffffffffffff\n      and\n      mul\n      or\n      swap1\n      sstore\n      pop\n      pop\n      pop\n        /* \"contracts/VotingExtended.sol\":3262:3276  numberProposal */\n      0x08\n      0x00\n        /* \"contracts/VotingExtended.sol\":3262:3278  numberProposal++ */\n      dup2\n      sload\n      dup1\n      swap3\n      swap2\n      swap1\n      tag_302\n      swap1\n      tag_141\n      jump\t// in\n    tag_302:\n      swap2\n      swap1\n      pop\n      sstore\n      pop\n        /* \"contracts/VotingExtended.sol\":3294:3328  ProposalRegistered(numberProposal) */\n      0x92e393e9b54e2f801d3ea4beb0c5e71a21cc34a5d34b77d0fb8a3aa1650dc18f\n        /* \"contracts/VotingExtended.sol\":3313:3327  numberProposal */\n      sload(0x08)\n        /* \"contracts/VotingExtended.sol\":3294:3328  ProposalRegistered(numberProposal) */\n      mload(0x40)\n      tag_303\n      swap2\n      swap1\n      tag_39\n      jump\t// in\n    tag_303:\n      mload(0x40)\n      dup1\n      swap2\n      sub\n      swap1\n      log1\n        /* \"contracts/VotingExtended.sol\":2729:3336  function propose(string memory _proposal) external {... */\n      pop\n      jump\t// out\n        /* \"contracts/VotingExtended.sol\":5438:5803  function startVoteSession() external onlyOwner {... */\n    tag_93:\n        /* \"@openzeppelin/contracts/access/Ownable.sol\":1531:1544  _checkOwner() */\n      tag_305\n        /* \"@openzeppelin/contracts/access/Ownable.sol\":1531:1542  _checkOwner */\n      tag_149\n        /* \"@openzeppelin/contracts/access/Ownable.sol\":1531:1544  _checkOwner() */\n      jump\t// in\n    tag_305:\n        /* \"contracts/VotingExtended.sol\":5522:5563  WorkflowStatus.ProposalsRegistrationEnded */\n      0x02\n        /* \"contracts/VotingExtended.sol\":5504:5563  currentStatus ==  WorkflowStatus.ProposalsRegistrationEnded */\n      0x05\n      dup2\n      gt\n      iszero\n      tag_307\n      jumpi\n      tag_308\n      tag_120\n      jump\t// in\n    tag_308:\n    tag_307:\n        /* \"contracts/VotingExtended.sol\":5504:5517  currentStatus */\n      0x04\n      0x00\n      swap1\n      sload\n      swap1\n      0x0100\n      exp\n      swap1\n      div\n      0xff\n      and\n        /* \"contracts/VotingExtended.sol\":5504:5563  currentStatus ==  WorkflowStatus.ProposalsRegistrationEnded */\n      0x05\n      dup2\n      gt\n      iszero\n      tag_309\n      jumpi\n      tag_310\n      tag_120\n      jump\t// in\n    tag_310:\n    tag_309:\n      eq\n        /* \"contracts/VotingExtended.sol\":5496:5641  require(currentStatus ==  WorkflowStatus.ProposalsRegistrationEnded, \"The proposal session is not ended or the vote session has already started\") */\n      tag_311\n      jumpi\n      mload(0x40)\n      0x08c379a000000000000000000000000000000000000000000000000000000000\n      dup2\n      mstore\n      0x04\n      add\n      tag_312\n      swap1\n      tag_313\n      jump\t// in\n    tag_312:\n      mload(0x40)\n      dup1\n      swap2\n      sub\n      swap1\n      revert\n    tag_311:\n        /* \"contracts/VotingExtended.sol\":5668:5703  WorkflowStatus.VotingSessionStarted */\n      0x03\n        /* \"contracts/VotingExtended.sol\":5652:5665  currentStatus */\n      0x04\n      0x00\n        /* \"contracts/VotingExtended.sol\":5652:5703  currentStatus = WorkflowStatus.VotingSessionStarted */\n      0x0100\n      exp\n      dup2\n      sload\n      dup2\n      0xff\n      mul\n      not\n      and\n      swap1\n      dup4\n      0x05\n      dup2\n      gt\n      iszero\n      tag_314\n      jumpi\n      tag_315\n      tag_120\n      jump\t// in\n    tag_315:\n    tag_314:\n      mul\n      or\n      swap1\n      sstore\n      pop\n        /* \"contracts/VotingExtended.sol\":5719:5795  WorkflowStatusChange(WorkflowStatus(uint(currentStatus) - 1), currentStatus) */\n      0x0a97a4ee45751e2abf3e4fc8946939630b11b371ea8ae39ccdc3056e98f5cc3f\n        /* \"contracts/VotingExtended.sol\":5777:5778  1 */\n      0x01\n        /* \"contracts/VotingExtended.sol\":5760:5773  currentStatus */\n      0x04\n      0x00\n      swap1\n      sload\n      swap1\n      0x0100\n      exp\n      swap1\n      div\n      0xff\n      and\n        /* \"contracts/VotingExtended.sol\":5755:5774  uint(currentStatus) */\n      0x05\n      dup2\n      gt\n      iszero\n      tag_316\n      jumpi\n      tag_317\n      tag_120\n      jump\t// in\n    tag_317:\n    tag_316:\n        /* \"contracts/VotingExtended.sol\":5755:5778  uint(currentStatus) - 1 */\n      tag_318\n      swap2\n      swap1\n      tag_198\n      jump\t// in\n    tag_318:\n        /* \"contracts/VotingExtended.sol\":5740:5779  WorkflowStatus(uint(currentStatus) - 1) */\n      0x05\n      dup2\n      gt\n      iszero\n      tag_319\n      jumpi\n      tag_320\n      tag_120\n      jump\t// in\n    tag_320:\n    tag_319:\n        /* \"contracts/VotingExtended.sol\":5781:5794  currentStatus */\n      0x04\n      0x00\n      swap1\n      sload\n      swap1\n      0x0100\n      exp\n      swap1\n      div\n      0xff\n      and\n        /* \"contracts/VotingExtended.sol\":5719:5795  WorkflowStatusChange(WorkflowStatus(uint(currentStatus) - 1), currentStatus) */\n      mload(0x40)\n      tag_321\n      swap3\n      swap2\n      swap1\n      tag_202\n      jump\t// in\n    tag_321:\n      mload(0x40)\n      dup1\n      swap2\n      sub\n      swap1\n      log1\n        /* \"contracts/VotingExtended.sol\":5438:5803  function startVoteSession() external onlyOwner {... */\n      jump\t// out\n        /* \"contracts/VotingExtended.sol\":6266:6652  function votesTallied() external onlyOwner {... */\n    tag_95:\n        /* \"@openzeppelin/contracts/access/Ownable.sol\":1531:1544  _checkOwner() */\n      tag_323\n        /* \"@openzeppelin/contracts/access/Ownable.sol\":1531:1542  _checkOwner */\n      tag_149\n        /* \"@openzeppelin/contracts/access/Ownable.sol\":1531:1544  _checkOwner() */\n      jump\t// in\n    tag_323:\n        /* \"contracts/VotingExtended.sol\":6346:6379  WorkflowStatus.VotingSessionEnded */\n      0x04\n        /* \"contracts/VotingExtended.sol\":6328:6379  currentStatus ==  WorkflowStatus.VotingSessionEnded */\n      0x05\n      dup2\n      gt\n      iszero\n      tag_325\n      jumpi\n      tag_326\n      tag_120\n      jump\t// in\n    tag_326:\n    tag_325:\n        /* \"contracts/VotingExtended.sol\":6328:6341  currentStatus */\n      0x04\n      0x00\n      swap1\n      sload\n      swap1\n      0x0100\n      exp\n      swap1\n      div\n      0xff\n      and\n        /* \"contracts/VotingExtended.sol\":6328:6379  currentStatus ==  WorkflowStatus.VotingSessionEnded */\n      0x05\n      dup2\n      gt\n      iszero\n      tag_327\n      jumpi\n      tag_328\n      tag_120\n      jump\t// in\n    tag_328:\n    tag_327:\n      eq\n        /* \"contracts/VotingExtended.sol\":6320:6413  require(currentStatus ==  WorkflowStatus.VotingSessionEnded, \"The vote session is not ended\") */\n      tag_329\n      jumpi\n      mload(0x40)\n      0x08c379a000000000000000000000000000000000000000000000000000000000\n      dup2\n      mstore\n      0x04\n      add\n      tag_330\n      swap1\n      tag_331\n      jump\t// in\n    tag_330:\n      mload(0x40)\n      dup1\n      swap2\n      sub\n      swap1\n      revert\n    tag_329:\n        /* \"contracts/VotingExtended.sol\":6447:6448  1 */\n      0x01\n        /* \"contracts/VotingExtended.sol\":6432:6443  winnerCount */\n      sload(0x09)\n        /* \"contracts/VotingExtended.sol\":6432:6448  winnerCount == 1 */\n      eq\n        /* \"contracts/VotingExtended.sol\":6424:6498  require(winnerCount == 1, \"There is more than 1 winner, you have to vote\") */\n      tag_332\n      jumpi\n      mload(0x40)\n      0x08c379a000000000000000000000000000000000000000000000000000000000\n      dup2\n      mstore\n      0x04\n      add\n      tag_333\n      swap1\n      tag_334\n      jump\t// in\n    tag_333:\n      mload(0x40)\n      dup1\n      swap2\n      sub\n      swap1\n      revert\n    tag_332:\n        /* \"contracts/VotingExtended.sol\":6525:6552  WorkflowStatus.VotesTallied */\n      0x05\n        /* \"contracts/VotingExtended.sol\":6509:6522  currentStatus */\n      0x04\n      0x00\n        /* \"contracts/VotingExtended.sol\":6509:6552  currentStatus = WorkflowStatus.VotesTallied */\n      0x0100\n      exp\n      dup2\n      sload\n      dup2\n      0xff\n      mul\n      not\n      and\n      swap1\n      dup4\n      0x05\n      dup2\n      gt\n      iszero\n      tag_335\n      jumpi\n      tag_336\n      tag_120\n      jump\t// in\n    tag_336:\n    tag_335:\n      mul\n      or\n      swap1\n      sstore\n      pop\n        /* \"contracts/VotingExtended.sol\":6568:6644  WorkflowStatusChange(WorkflowStatus(uint(currentStatus) - 1), currentStatus) */\n      0x0a97a4ee45751e2abf3e4fc8946939630b11b371ea8ae39ccdc3056e98f5cc3f\n        /* \"contracts/VotingExtended.sol\":6626:6627  1 */\n      0x01\n        /* \"contracts/VotingExtended.sol\":6609:6622  currentStatus */\n      0x04\n      0x00\n      swap1\n      sload\n      swap1\n      0x0100\n      exp\n      swap1\n      div\n      0xff\n      and\n        /* \"contracts/VotingExtended.sol\":6604:6623  uint(currentStatus) */\n      0x05\n      dup2\n      gt\n      iszero\n      tag_337\n      jumpi\n      tag_338\n      tag_120\n      jump\t// in\n    tag_338:\n    tag_337:\n        /* \"contracts/VotingExtended.sol\":6604:6627  uint(currentStatus) - 1 */\n      tag_339\n      swap2\n      swap1\n      tag_198\n      jump\t// in\n    tag_339:\n        /* \"contracts/VotingExtended.sol\":6589:6628  WorkflowStatus(uint(currentStatus) - 1) */\n      0x05\n      dup2\n      gt\n      iszero\n      tag_340\n      jumpi\n      tag_341\n      tag_120\n      jump\t// in\n    tag_341:\n    tag_340:\n        /* \"contracts/VotingExtended.sol\":6630:6643  currentStatus */\n      0x04\n      0x00\n      swap1\n      sload\n      swap1\n      0x0100\n      exp\n      swap1\n      div\n      0xff\n      and\n        /* \"contracts/VotingExtended.sol\":6568:6644  WorkflowStatusChange(WorkflowStatus(uint(currentStatus) - 1), currentStatus) */\n      mload(0x40)\n      tag_342\n      swap3\n      swap2\n      swap1\n      tag_202\n      jump\t// in\n    tag_342:\n      mload(0x40)\n      dup1\n      swap2\n      sub\n      swap1\n      log1\n        /* \"contracts/VotingExtended.sol\":6266:6652  function votesTallied() external onlyOwner {... */\n      jump\t// out\n        /* \"contracts/VotingExtended.sol\":10173:10270  function getProposalCount() external view returns(uint){... */\n    tag_97:\n        /* \"contracts/VotingExtended.sol\":10223:10227  uint */\n      0x00\n        /* \"contracts/VotingExtended.sol\":10246:10255  proposals */\n      0x02\n        /* \"contracts/VotingExtended.sol\":10246:10262  proposals.length */\n      dup1\n      sload\n      swap1\n      pop\n        /* \"contracts/VotingExtended.sol\":10239:10262  return proposals.length */\n      swap1\n      pop\n        /* \"contracts/VotingExtended.sol\":10173:10270  function getProposalCount() external view returns(uint){... */\n      swap1\n      jump\t// out\n        /* \"contracts/VotingExtended.sol\":6660:7340  function reset() external onlyOwner {... */\n    tag_100:\n        /* \"@openzeppelin/contracts/access/Ownable.sol\":1531:1544  _checkOwner() */\n      tag_345\n        /* \"@openzeppelin/contracts/access/Ownable.sol\":1531:1542  _checkOwner */\n      tag_149\n        /* \"@openzeppelin/contracts/access/Ownable.sol\":1531:1544  _checkOwner() */\n      jump\t// in\n    tag_345:\n        /* \"contracts/VotingExtended.sol\":6733:6760  WorkflowStatus.VotesTallied */\n      0x05\n        /* \"contracts/VotingExtended.sol\":6715:6760  currentStatus ==  WorkflowStatus.VotesTallied */\n      dup1\n      dup2\n      gt\n      iszero\n      tag_347\n      jumpi\n      tag_348\n      tag_120\n      jump\t// in\n    tag_348:\n    tag_347:\n        /* \"contracts/VotingExtended.sol\":6715:6728  currentStatus */\n      0x04\n      0x00\n      swap1\n      sload\n      swap1\n      0x0100\n      exp\n      swap1\n      div\n      0xff\n      and\n        /* \"contracts/VotingExtended.sol\":6715:6760  currentStatus ==  WorkflowStatus.VotesTallied */\n      0x05\n      dup2\n      gt\n      iszero\n      tag_349\n      jumpi\n      tag_350\n      tag_120\n      jump\t// in\n    tag_350:\n    tag_349:\n      eq\n        /* \"contracts/VotingExtended.sol\":6707:6799  require(currentStatus ==  WorkflowStatus.VotesTallied, \"The last vote has not been tallied\") */\n      tag_351\n      jumpi\n      mload(0x40)\n      0x08c379a000000000000000000000000000000000000000000000000000000000\n      dup2\n      mstore\n      0x04\n      add\n      tag_352\n      swap1\n      tag_353\n      jump\t// in\n    tag_352:\n      mload(0x40)\n      dup1\n      swap2\n      sub\n      swap1\n      revert\n    tag_351:\n        /* \"contracts/VotingExtended.sol\":6867:6873  uint i */\n      0x00\n        /* \"contracts/VotingExtended.sol\":6876:6877  0 */\n      0x00\n        /* \"contracts/VotingExtended.sol\":6867:6877  uint i = 0 */\n      swap1\n      pop\n        /* \"contracts/VotingExtended.sol\":6862:7037  for (uint i = 0; i < voterAddress.length; i++) {... */\n    tag_354:\n        /* \"contracts/VotingExtended.sol\":6883:6895  voterAddress */\n      0x03\n        /* \"contracts/VotingExtended.sol\":6883:6902  voterAddress.length */\n      dup1\n      sload\n      swap1\n      pop\n        /* \"contracts/VotingExtended.sol\":6879:6880  i */\n      dup2\n        /* \"contracts/VotingExtended.sol\":6879:6902  i < voterAddress.length */\n      lt\n        /* \"contracts/VotingExtended.sol\":6862:7037  for (uint i = 0; i < voterAddress.length; i++) {... */\n      iszero\n      tag_355\n      jumpi\n        /* \"contracts/VotingExtended.sol\":6958:7025  Voter({ isRegistered: false, hasVoted: false, votedProposalId: 0 }) */\n      mload(0x40)\n      dup1\n      0x60\n      add\n      0x40\n      mstore\n      dup1\n        /* \"contracts/VotingExtended.sol\":6980:6985  false */\n      0x00\n        /* \"contracts/VotingExtended.sol\":6958:7025  Voter({ isRegistered: false, hasVoted: false, votedProposalId: 0 }) */\n      iszero\n      iszero\n      dup2\n      mstore\n      0x20\n      add\n        /* \"contracts/VotingExtended.sol\":6997:7002  false */\n      0x00\n        /* \"contracts/VotingExtended.sol\":6958:7025  Voter({ isRegistered: false, hasVoted: false, votedProposalId: 0 }) */\n      iszero\n      iszero\n      dup2\n      mstore\n      0x20\n      add\n        /* \"contracts/VotingExtended.sol\":7021:7022  0 */\n      0x00\n        /* \"contracts/VotingExtended.sol\":6958:7025  Voter({ isRegistered: false, hasVoted: false, votedProposalId: 0 }) */\n      dup2\n      mstore\n      pop\n        /* \"contracts/VotingExtended.sol\":6924:6938  whitelistVoter */\n      0x01\n        /* \"contracts/VotingExtended.sol\":6924:6955  whitelistVoter[voterAddress[i]] */\n      0x00\n        /* \"contracts/VotingExtended.sol\":6939:6951  voterAddress */\n      0x03\n        /* \"contracts/VotingExtended.sol\":6952:6953  i */\n      dup5\n        /* \"contracts/VotingExtended.sol\":6939:6954  voterAddress[i] */\n      dup2\n      sload\n      dup2\n      lt\n      tag_357\n      jumpi\n      tag_358\n      tag_138\n      jump\t// in\n    tag_358:\n    tag_357:\n      swap1\n      0x00\n      mstore\n      keccak256(0x00, 0x20)\n      add\n      0x00\n      swap1\n      sload\n      swap1\n      0x0100\n      exp\n      swap1\n      div\n      0xffffffffffffffffffffffffffffffffffffffff\n      and\n        /* \"contracts/VotingExtended.sol\":6924:6955  whitelistVoter[voterAddress[i]] */\n      0xffffffffffffffffffffffffffffffffffffffff\n      and\n      0xffffffffffffffffffffffffffffffffffffffff\n      and\n      dup2\n      mstore\n      0x20\n      add\n      swap1\n      dup2\n      mstore\n      0x20\n      add\n      0x00\n      keccak256\n        /* \"contracts/VotingExtended.sol\":6924:7025  whitelistVoter[voterAddress[i]] = Voter({ isRegistered: false, hasVoted: false, votedProposalId: 0 }) */\n      0x00\n      dup3\n      add\n      mload\n      dup2\n      0x00\n      add\n      exp(0x0100, 0x00)\n      dup2\n      sload\n      dup2\n      0xff\n      mul\n      not\n      and\n      swap1\n      dup4\n      iszero\n      iszero\n      mul\n      or\n      swap1\n      sstore\n      pop\n      0x20\n      dup3\n      add\n      mload\n      dup2\n      0x00\n      add\n      exp(0x0100, 0x01)\n      dup2\n      sload\n      dup2\n      0xff\n      mul\n      not\n      and\n      swap1\n      dup4\n      iszero\n      iszero\n      mul\n      or\n      swap1\n      sstore\n      pop\n      0x40\n      dup3\n      add\n      mload\n      dup2\n      0x01\n      add\n      sstore\n      swap1\n      pop\n      pop\n        /* \"contracts/VotingExtended.sol\":6904:6907  i++ */\n      dup1\n      dup1\n      0x01\n      add\n      swap2\n      pop\n      pop\n        /* \"contracts/VotingExtended.sol\":6862:7037  for (uint i = 0; i < voterAddress.length; i++) {... */\n      jump(tag_354)\n    tag_355:\n      pop\n        /* \"contracts/VotingExtended.sol\":7054:7063  proposals */\n      0x02\n      0x00\n        /* \"contracts/VotingExtended.sol\":7047:7063  delete proposals */\n      tag_360\n      swap2\n      swap1\n      tag_361\n      jump\t// in\n    tag_360:\n        /* \"contracts/VotingExtended.sol\":7081:7093  voterAddress */\n      0x03\n      0x00\n        /* \"contracts/VotingExtended.sol\":7074:7093  delete voterAddress */\n      tag_362\n      swap2\n      swap1\n      tag_363\n      jump\t// in\n    tag_362:\n        /* \"contracts/VotingExtended.sol\":7118:7119  0 */\n      0x00\n        /* \"contracts/VotingExtended.sol\":7104:7115  winnerCount */\n      0x09\n        /* \"contracts/VotingExtended.sol\":7104:7119  winnerCount = 0 */\n      dup2\n      swap1\n      sstore\n      pop\n        /* \"contracts/VotingExtended.sol\":7158:7159  0 */\n      0x00\n        /* \"contracts/VotingExtended.sol\":7138:7155  winningProposalId */\n      0x05\n        /* \"contracts/VotingExtended.sol\":7138:7159  winningProposalId = 0 */\n      dup2\n      swap1\n      sstore\n      pop\n        /* \"contracts/VotingExtended.sol\":7184:7185  0 */\n      0x00\n        /* \"contracts/VotingExtended.sol\":7171:7181  voterCount */\n      0x06\n        /* \"contracts/VotingExtended.sol\":7171:7185  voterCount = 0 */\n      dup2\n      swap1\n      sstore\n      pop\n        /* \"contracts/VotingExtended.sol\":7213:7214  0 */\n      0x00\n        /* \"contracts/VotingExtended.sol\":7196:7210  voteCountTotal */\n      0x07\n        /* \"contracts/VotingExtended.sol\":7196:7214  voteCountTotal = 0 */\n      dup2\n      swap1\n      sstore\n      pop\n        /* \"contracts/VotingExtended.sol\":7243:7244  1 */\n      0x01\n        /* \"contracts/VotingExtended.sol\":7225:7240  voteWinnerCount */\n      0x0a\n        /* \"contracts/VotingExtended.sol\":7225:7244  voteWinnerCount = 1 */\n      dup2\n      swap1\n      sstore\n      pop\n        /* \"contracts/VotingExtended.sol\":7272:7273  0 */\n      0x00\n        /* \"contracts/VotingExtended.sol\":7255:7269  numberProposal */\n      0x08\n        /* \"contracts/VotingExtended.sol\":7255:7273  numberProposal = 0 */\n      dup2\n      swap1\n      sstore\n      pop\n        /* \"contracts/VotingExtended.sol\":7300:7332  WorkflowStatus.RegisteringVoters */\n      0x00\n        /* \"contracts/VotingExtended.sol\":7284:7297  currentStatus */\n      0x04\n      0x00\n        /* \"contracts/VotingExtended.sol\":7284:7332  currentStatus = WorkflowStatus.RegisteringVoters */\n      0x0100\n      exp\n      dup2\n      sload\n      dup2\n      0xff\n      mul\n      not\n      and\n      swap1\n      dup4\n      0x05\n      dup2\n      gt\n      iszero\n      tag_364\n      jumpi\n      tag_365\n      tag_120\n      jump\t// in\n    tag_365:\n    tag_364:\n      mul\n      or\n      swap1\n      sstore\n      pop\n        /* \"contracts/VotingExtended.sol\":6660:7340  function reset() external onlyOwner {... */\n      jump\t// out\n        /* \"contracts/VotingExtended.sol\":4987:5428  function endProposalSession() external onlyOwner {... */\n    tag_102:\n        /* \"@openzeppelin/contracts/access/Ownable.sol\":1531:1544  _checkOwner() */\n      tag_367\n        /* \"@openzeppelin/contracts/access/Ownable.sol\":1531:1542  _checkOwner */\n      tag_149\n        /* \"@openzeppelin/contracts/access/Ownable.sol\":1531:1544  _checkOwner() */\n      jump\t// in\n    tag_367:\n        /* \"contracts/VotingExtended.sol\":5073:5116  WorkflowStatus.ProposalsRegistrationStarted */\n      0x01\n        /* \"contracts/VotingExtended.sol\":5055:5116  currentStatus ==  WorkflowStatus.ProposalsRegistrationStarted */\n      0x05\n      dup2\n      gt\n      iszero\n      tag_369\n      jumpi\n      tag_370\n      tag_120\n      jump\t// in\n    tag_370:\n    tag_369:\n        /* \"contracts/VotingExtended.sol\":5055:5068  currentStatus */\n      0x04\n      0x00\n      swap1\n      sload\n      swap1\n      0x0100\n      exp\n      swap1\n      div\n      0xff\n      and\n        /* \"contracts/VotingExtended.sol\":5055:5116  currentStatus ==  WorkflowStatus.ProposalsRegistrationStarted */\n      0x05\n      dup2\n      gt\n      iszero\n      tag_371\n      jumpi\n      tag_372\n      tag_120\n      jump\t// in\n    tag_372:\n    tag_371:\n      eq\n        /* \"contracts/VotingExtended.sol\":5047:5183  require(currentStatus ==  WorkflowStatus.ProposalsRegistrationStarted, \"The proposal session has not started or has already been ended\") */\n      tag_373\n      jumpi\n      mload(0x40)\n      0x08c379a000000000000000000000000000000000000000000000000000000000\n      dup2\n      mstore\n      0x04\n      add\n      tag_374\n      swap1\n      tag_375\n      jump\t// in\n    tag_374:\n      mload(0x40)\n      dup1\n      swap2\n      sub\n      swap1\n      revert\n    tag_373:\n        /* \"contracts/VotingExtended.sol\":5221:5222  0 */\n      0x00\n        /* \"contracts/VotingExtended.sol\":5202:5211  proposals */\n      0x02\n        /* \"contracts/VotingExtended.sol\":5202:5218  proposals.length */\n      dup1\n      sload\n      swap1\n      pop\n        /* \"contracts/VotingExtended.sol\":5202:5222  proposals.length > 0 */\n      gt\n        /* \"contracts/VotingExtended.sol\":5194:5260  require(proposals.length > 0, \"There are no proposals registered\") */\n      tag_376\n      jumpi\n      mload(0x40)\n      0x08c379a000000000000000000000000000000000000000000000000000000000\n      dup2\n      mstore\n      0x04\n      add\n      tag_377\n      swap1\n      tag_378\n      jump\t// in\n    tag_377:\n      mload(0x40)\n      dup1\n      swap2\n      sub\n      swap1\n      revert\n    tag_376:\n        /* \"contracts/VotingExtended.sol\":5287:5328  WorkflowStatus.ProposalsRegistrationEnded */\n      0x02\n        /* \"contracts/VotingExtended.sol\":5271:5284  currentStatus */\n      0x04\n      0x00\n        /* \"contracts/VotingExtended.sol\":5271:5328  currentStatus = WorkflowStatus.ProposalsRegistrationEnded */\n      0x0100\n      exp\n      dup2\n      sload\n      dup2\n      0xff\n      mul\n      not\n      and\n      swap1\n      dup4\n      0x05\n      dup2\n      gt\n      iszero\n      tag_379\n      jumpi\n      tag_380\n      tag_120\n      jump\t// in\n    tag_380:\n    tag_379:\n      mul\n      or\n      swap1\n      sstore\n      pop\n        /* \"contracts/VotingExtended.sol\":5344:5420  WorkflowStatusChange(WorkflowStatus(uint(currentStatus) - 1), currentStatus) */\n      0x0a97a4ee45751e2abf3e4fc8946939630b11b371ea8ae39ccdc3056e98f5cc3f\n        /* \"contracts/VotingExtended.sol\":5402:5403  1 */\n      0x01\n        /* \"contracts/VotingExtended.sol\":5385:5398  currentStatus */\n      0x04\n      0x00\n      swap1\n      sload\n      swap1\n      0x0100\n      exp\n      swap1\n      div\n      0xff\n      and\n        /* \"contracts/VotingExtended.sol\":5380:5399  uint(currentStatus) */\n      0x05\n      dup2\n      gt\n      iszero\n      tag_381\n      jumpi\n      tag_382\n      tag_120\n      jump\t// in\n    tag_382:\n    tag_381:\n        /* \"contracts/VotingExtended.sol\":5380:5403  uint(currentStatus) - 1 */\n      tag_383\n      swap2\n      swap1\n      tag_198\n      jump\t// in\n    tag_383:\n        /* \"contracts/VotingExtended.sol\":5365:5404  WorkflowStatus(uint(currentStatus) - 1) */\n      0x05\n      dup2\n      gt\n      iszero\n      tag_384\n      jumpi\n      tag_385\n      tag_120\n      jump\t// in\n    tag_385:\n    tag_384:\n        /* \"contracts/VotingExtended.sol\":5406:5419  currentStatus */\n      0x04\n      0x00\n      swap1\n      sload\n      swap1\n      0x0100\n      exp\n      swap1\n      div\n      0xff\n      and\n        /* \"contracts/VotingExtended.sol\":5344:5420  WorkflowStatusChange(WorkflowStatus(uint(currentStatus) - 1), currentStatus) */\n      mload(0x40)\n      tag_386\n      swap3\n      swap2\n      swap1\n      tag_202\n      jump\t// in\n    tag_386:\n      mload(0x40)\n      dup1\n      swap2\n      sub\n      swap1\n      log1\n        /* \"contracts/VotingExtended.sol\":4987:5428  function endProposalSession() external onlyOwner {... */\n      jump\t// out\n        /* \"contracts/VotingExtended.sol\":10604:10700  function getVoteCountTotal() external view returns(uint){... */\n    tag_104:\n        /* \"contracts/VotingExtended.sol\":10655:10659  uint */\n      0x00\n        /* \"contracts/VotingExtended.sol\":10678:10692  voteCountTotal */\n      sload(0x07)\n        /* \"contracts/VotingExtended.sol\":10671:10692  return voteCountTotal */\n      swap1\n      pop\n        /* \"contracts/VotingExtended.sol\":10604:10700  function getVoteCountTotal() external view returns(uint){... */\n      swap1\n      jump\t// out\n        /* \"@openzeppelin/contracts/access/Ownable.sol\":2543:2758  function transferOwnership(address newOwner) public virtual onlyOwner {... */\n    tag_108:\n        /* \"@openzeppelin/contracts/access/Ownable.sol\":1531:1544  _checkOwner() */\n      tag_389\n        /* \"@openzeppelin/contracts/access/Ownable.sol\":1531:1542  _checkOwner */\n      tag_149\n        /* \"@openzeppelin/contracts/access/Ownable.sol\":1531:1544  _checkOwner() */\n      jump\t// in\n    tag_389:\n        /* \"@openzeppelin/contracts/access/Ownable.sol\":2647:2648  0 */\n      0x00\n        /* \"@openzeppelin/contracts/access/Ownable.sol\":2627:2649  newOwner == address(0) */\n      0xffffffffffffffffffffffffffffffffffffffff\n      and\n        /* \"@openzeppelin/contracts/access/Ownable.sol\":2627:2635  newOwner */\n      dup2\n        /* \"@openzeppelin/contracts/access/Ownable.sol\":2627:2649  newOwner == address(0) */\n      0xffffffffffffffffffffffffffffffffffffffff\n      and\n      sub\n        /* \"@openzeppelin/contracts/access/Ownable.sol\":2623:2714  if (newOwner == address(0)) {... */\n      tag_391\n      jumpi\n        /* \"@openzeppelin/contracts/access/Ownable.sol\":2700:2701  0 */\n      0x00\n        /* \"@openzeppelin/contracts/access/Ownable.sol\":2672:2703  OwnableInvalidOwner(address(0)) */\n      mload(0x40)\n      0x1e4fbdf700000000000000000000000000000000000000000000000000000000\n      dup2\n      mstore\n      0x04\n      add\n      tag_392\n      swap2\n      swap1\n      tag_61\n      jump\t// in\n    tag_392:\n      mload(0x40)\n      dup1\n      swap2\n      sub\n      swap1\n      revert\n        /* \"@openzeppelin/contracts/access/Ownable.sol\":2623:2714  if (newOwner == address(0)) {... */\n    tag_391:\n        /* \"@openzeppelin/contracts/access/Ownable.sol\":2723:2751  _transferOwnership(newOwner) */\n      tag_393\n        /* \"@openzeppelin/contracts/access/Ownable.sol\":2742:2750  newOwner */\n      dup2\n        /* \"@openzeppelin/contracts/access/Ownable.sol\":2723:2741  _transferOwnership */\n      tag_248\n        /* \"@openzeppelin/contracts/access/Ownable.sol\":2723:2751  _transferOwnership(newOwner) */\n      jump\t// in\n    tag_393:\n        /* \"@openzeppelin/contracts/access/Ownable.sol\":2543:2758  function transferOwnership(address newOwner) public virtual onlyOwner {... */\n      pop\n      jump\t// out\n        /* \"contracts/VotingExtended.sol\":5813:6258  function endVoteSession() external onlyOwner {... */\n    tag_110:\n        /* \"@openzeppelin/contracts/access/Ownable.sol\":1531:1544  _checkOwner() */\n      tag_395\n        /* \"@openzeppelin/contracts/access/Ownable.sol\":1531:1542  _checkOwner */\n      tag_149\n        /* \"@openzeppelin/contracts/access/Ownable.sol\":1531:1544  _checkOwner() */\n      jump\t// in\n    tag_395:\n        /* \"contracts/VotingExtended.sol\":5895:5930  WorkflowStatus.VotingSessionStarted */\n      0x03\n        /* \"contracts/VotingExtended.sol\":5877:5930  currentStatus ==  WorkflowStatus.VotingSessionStarted */\n      0x05\n      dup2\n      gt\n      iszero\n      tag_397\n      jumpi\n      tag_398\n      tag_120\n      jump\t// in\n    tag_398:\n    tag_397:\n        /* \"contracts/VotingExtended.sol\":5877:5890  currentStatus */\n      0x04\n      0x00\n      swap1\n      sload\n      swap1\n      0x0100\n      exp\n      swap1\n      div\n      0xff\n      and\n        /* \"contracts/VotingExtended.sol\":5877:5930  currentStatus ==  WorkflowStatus.VotingSessionStarted */\n      0x05\n      dup2\n      gt\n      iszero\n      tag_399\n      jumpi\n      tag_400\n      tag_120\n      jump\t// in\n    tag_400:\n    tag_399:\n      eq\n        /* \"contracts/VotingExtended.sol\":5869:5988  require(currentStatus ==  WorkflowStatus.VotingSessionStarted, \"The vote session has not started or has already ended\") */\n      tag_401\n      jumpi\n      mload(0x40)\n      0x08c379a000000000000000000000000000000000000000000000000000000000\n      dup2\n      mstore\n      0x04\n      add\n      tag_402\n      swap1\n      tag_403\n      jump\t// in\n    tag_402:\n      mload(0x40)\n      dup1\n      swap2\n      sub\n      swap1\n      revert\n    tag_401:\n        /* \"contracts/VotingExtended.sol\":6024:6025  0 */\n      0x00\n        /* \"contracts/VotingExtended.sol\":6007:6021  voteCountTotal */\n      sload(0x07)\n        /* \"contracts/VotingExtended.sol\":6007:6025  voteCountTotal > 0 */\n      gt\n        /* \"contracts/VotingExtended.sol\":5999:6058  require(voteCountTotal > 0, \"There are no vote registered\") */\n      tag_404\n      jumpi\n      mload(0x40)\n      0x08c379a000000000000000000000000000000000000000000000000000000000\n      dup2\n      mstore\n      0x04\n      add\n      tag_405\n      swap1\n      tag_406\n      jump\t// in\n    tag_405:\n      mload(0x40)\n      dup1\n      swap2\n      sub\n      swap1\n      revert\n    tag_404:\n        /* \"contracts/VotingExtended.sol\":6085:6118  WorkflowStatus.VotingSessionEnded */\n      0x04\n        /* \"contracts/VotingExtended.sol\":6069:6082  currentStatus */\n      dup1\n      0x00\n        /* \"contracts/VotingExtended.sol\":6069:6118  currentStatus = WorkflowStatus.VotingSessionEnded */\n      0x0100\n      exp\n      dup2\n      sload\n      dup2\n      0xff\n      mul\n      not\n      and\n      swap1\n      dup4\n      0x05\n      dup2\n      gt\n      iszero\n      tag_407\n      jumpi\n      tag_408\n      tag_120\n      jump\t// in\n    tag_408:\n    tag_407:\n      mul\n      or\n      swap1\n      sstore\n      pop\n        /* \"contracts/VotingExtended.sol\":6129:6148  setWinnerProposal() */\n      tag_409\n        /* \"contracts/VotingExtended.sol\":6129:6146  setWinnerProposal */\n      tag_410\n        /* \"contracts/VotingExtended.sol\":6129:6148  setWinnerProposal() */\n      jump\t// in\n    tag_409:\n        /* \"contracts/VotingExtended.sol\":6165:6241  WorkflowStatusChange(WorkflowStatus(uint(currentStatus) - 1), currentStatus) */\n      0x0a97a4ee45751e2abf3e4fc8946939630b11b371ea8ae39ccdc3056e98f5cc3f\n        /* \"contracts/VotingExtended.sol\":6223:6224  1 */\n      0x01\n        /* \"contracts/VotingExtended.sol\":6206:6219  currentStatus */\n      0x04\n      0x00\n      swap1\n      sload\n      swap1\n      0x0100\n      exp\n      swap1\n      div\n      0xff\n      and\n        /* \"contracts/VotingExtended.sol\":6201:6220  uint(currentStatus) */\n      0x05\n      dup2\n      gt\n      iszero\n      tag_411\n      jumpi\n      tag_412\n      tag_120\n      jump\t// in\n    tag_412:\n    tag_411:\n        /* \"contracts/VotingExtended.sol\":6201:6224  uint(currentStatus) - 1 */\n      tag_413\n      swap2\n      swap1\n      tag_198\n      jump\t// in\n    tag_413:\n        /* \"contracts/VotingExtended.sol\":6186:6225  WorkflowStatus(uint(currentStatus) - 1) */\n      0x05\n      dup2\n      gt\n      iszero\n      tag_414\n      jumpi\n      tag_415\n      tag_120\n      jump\t// in\n    tag_415:\n    tag_414:\n        /* \"contracts/VotingExtended.sol\":6227:6240  currentStatus */\n      0x04\n      0x00\n      swap1\n      sload\n      swap1\n      0x0100\n      exp\n      swap1\n      div\n      0xff\n      and\n        /* \"contracts/VotingExtended.sol\":6165:6241  WorkflowStatusChange(WorkflowStatus(uint(currentStatus) - 1), currentStatus) */\n      mload(0x40)\n      tag_416\n      swap3\n      swap2\n      swap1\n      tag_202\n      jump\t// in\n    tag_416:\n      mload(0x40)\n      dup1\n      swap2\n      sub\n      swap1\n      log1\n        /* \"contracts/VotingExtended.sol\":5813:6258  function endVoteSession() external onlyOwner {... */\n      jump\t// out\n        /* \"@openzeppelin/contracts/access/Ownable.sol\":1796:1958  function _checkOwner() internal view virtual {... */\n    tag_149:\n        /* \"@openzeppelin/contracts/access/Ownable.sol\":1866:1878  _msgSender() */\n      tag_418\n        /* \"@openzeppelin/contracts/access/Ownable.sol\":1866:1876  _msgSender */\n      tag_419\n        /* \"@openzeppelin/contracts/access/Ownable.sol\":1866:1878  _msgSender() */\n      jump\t// in\n    tag_418:\n        /* \"@openzeppelin/contracts/access/Ownable.sol\":1855:1878  owner() != _msgSender() */\n      0xffffffffffffffffffffffffffffffffffffffff\n      and\n        /* \"@openzeppelin/contracts/access/Ownable.sol\":1855:1862  owner() */\n      tag_420\n        /* \"@openzeppelin/contracts/access/Ownable.sol\":1855:1860  owner */\n      tag_74\n        /* \"@openzeppelin/contracts/access/Ownable.sol\":1855:1862  owner() */\n      jump\t// in\n    tag_420:\n        /* \"@openzeppelin/contracts/access/Ownable.sol\":1855:1878  owner() != _msgSender() */\n      0xffffffffffffffffffffffffffffffffffffffff\n      and\n      eq\n        /* \"@openzeppelin/contracts/access/Ownable.sol\":1851:1952  if (owner() != _msgSender()) {... */\n      tag_421\n      jumpi\n        /* \"@openzeppelin/contracts/access/Ownable.sol\":1928:1940  _msgSender() */\n      tag_422\n        /* \"@openzeppelin/contracts/access/Ownable.sol\":1928:1938  _msgSender */\n      tag_419\n        /* \"@openzeppelin/contracts/access/Ownable.sol\":1928:1940  _msgSender() */\n      jump\t// in\n    tag_422:\n        /* \"@openzeppelin/contracts/access/Ownable.sol\":1901:1941  OwnableUnauthorizedAccount(_msgSender()) */\n      mload(0x40)\n      0x118cdaa700000000000000000000000000000000000000000000000000000000\n      dup2\n      mstore\n      0x04\n      add\n      tag_423\n      swap2\n      swap1\n      tag_61\n      jump\t// in\n    tag_423:\n      mload(0x40)\n      dup1\n      swap2\n      sub\n      swap1\n      revert\n        /* \"@openzeppelin/contracts/access/Ownable.sol\":1851:1952  if (owner() != _msgSender()) {... */\n    tag_421:\n        /* \"@openzeppelin/contracts/access/Ownable.sol\":1796:1958  function _checkOwner() internal view virtual {... */\n      jump\t// out\n        /* \"@openzeppelin/contracts/access/Ownable.sol\":2912:3099  function _transferOwnership(address newOwner) internal virtual {... */\n    tag_248:\n        /* \"@openzeppelin/contracts/access/Ownable.sol\":2985:3001  address oldOwner */\n      0x00\n        /* \"@openzeppelin/contracts/access/Ownable.sol\":3004:3010  _owner */\n      0x00\n      0x00\n      swap1\n      sload\n      swap1\n      0x0100\n      exp\n      swap1\n      div\n      0xffffffffffffffffffffffffffffffffffffffff\n      and\n        /* \"@openzeppelin/contracts/access/Ownable.sol\":2985:3010  address oldOwner = _owner */\n      swap1\n      pop\n        /* \"@openzeppelin/contracts/access/Ownable.sol\":3029:3037  newOwner */\n      dup2\n        /* \"@openzeppelin/contracts/access/Ownable.sol\":3020:3026  _owner */\n      0x00\n      0x00\n        /* \"@openzeppelin/contracts/access/Ownable.sol\":3020:3037  _owner = newOwner */\n      0x0100\n      exp\n      dup2\n      sload\n      dup2\n      0xffffffffffffffffffffffffffffffffffffffff\n      mul\n      not\n      and\n      swap1\n      dup4\n      0xffffffffffffffffffffffffffffffffffffffff\n      and\n      mul\n      or\n      swap1\n      sstore\n      pop\n        /* \"@openzeppelin/contracts/access/Ownable.sol\":3083:3091  newOwner */\n      dup2\n        /* \"@openzeppelin/contracts/access/Ownable.sol\":3052:3092  OwnershipTransferred(oldOwner, newOwner) */\n      0xffffffffffffffffffffffffffffffffffffffff\n      and\n        /* \"@openzeppelin/contracts/access/Ownable.sol\":3073:3081  oldOwner */\n      dup2\n        /* \"@openzeppelin/contracts/access/Ownable.sol\":3052:3092  OwnershipTransferred(oldOwner, newOwner) */\n      0xffffffffffffffffffffffffffffffffffffffff\n      and\n      0x8be0079c531659141344cd1fd0a4f28419497f9722a3daafe3b4186f6b6457e0\n      mload(0x40)\n      mload(0x40)\n      dup1\n      swap2\n      sub\n      swap1\n      log3\n        /* \"@openzeppelin/contracts/access/Ownable.sol\":2975:3099  {... */\n      pop\n        /* \"@openzeppelin/contracts/access/Ownable.sol\":2912:3099  function _transferOwnership(address newOwner) internal virtual {... */\n      pop\n      jump\t// out\n        /* \"contracts/VotingExtended.sol\":8552:8888  function setWinnerProposal() private onlyOwner {... */\n    tag_410:\n        /* \"@openzeppelin/contracts/access/Ownable.sol\":1531:1544  _checkOwner() */\n      tag_426\n        /* \"@openzeppelin/contracts/access/Ownable.sol\":1531:1542  _checkOwner */\n      tag_149\n        /* \"@openzeppelin/contracts/access/Ownable.sol\":1531:1544  _checkOwner() */\n      jump\t// in\n    tag_426:\n        /* \"contracts/VotingExtended.sol\":8615:8621  uint i */\n      0x00\n        /* \"contracts/VotingExtended.sol\":8624:8625  0 */\n      0x00\n        /* \"contracts/VotingExtended.sol\":8615:8625  uint i = 0 */\n      swap1\n      pop\n        /* \"contracts/VotingExtended.sol\":8610:8880  for (uint i = 0; i < proposals.length; i++) {... */\n    tag_428:\n        /* \"contracts/VotingExtended.sol\":8631:8640  proposals */\n      0x02\n        /* \"contracts/VotingExtended.sol\":8631:8647  proposals.length */\n      dup1\n      sload\n      swap1\n      pop\n        /* \"contracts/VotingExtended.sol\":8627:8628  i */\n      dup2\n        /* \"contracts/VotingExtended.sol\":8627:8647  i < proposals.length */\n      lt\n        /* \"contracts/VotingExtended.sol\":8610:8880  for (uint i = 0; i < proposals.length; i++) {... */\n      iszero\n      tag_429\n      jumpi\n        /* \"contracts/VotingExtended.sol\":8699:8714  voteWinnerCount */\n      sload(0x0a)\n        /* \"contracts/VotingExtended.sol\":8673:8682  proposals */\n      0x02\n        /* \"contracts/VotingExtended.sol\":8683:8684  i */\n      dup3\n        /* \"contracts/VotingExtended.sol\":8673:8685  proposals[i] */\n      dup2\n      sload\n      dup2\n      lt\n      tag_431\n      jumpi\n      tag_432\n      tag_138\n      jump\t// in\n    tag_432:\n    tag_431:\n      swap1\n      0x00\n      mstore\n      keccak256(0x00, 0x20)\n      swap1\n      0x03\n      mul\n      add\n        /* \"contracts/VotingExtended.sol\":8673:8695  proposals[i].voteCount */\n      0x01\n      add\n      sload\n        /* \"contracts/VotingExtended.sol\":8673:8714  proposals[i].voteCount >= voteWinnerCount */\n      lt\n        /* \"contracts/VotingExtended.sol\":8669:8863  if (proposals[i].voteCount >= voteWinnerCount) {... */\n      tag_434\n      jumpi\n        /* \"contracts/VotingExtended.sol\":8753:8762  proposals */\n      0x02\n        /* \"contracts/VotingExtended.sol\":8763:8764  i */\n      dup2\n        /* \"contracts/VotingExtended.sol\":8753:8765  proposals[i] */\n      dup2\n      sload\n      dup2\n      lt\n      tag_435\n      jumpi\n      tag_436\n      tag_138\n      jump\t// in\n    tag_436:\n    tag_435:\n      swap1\n      0x00\n      mstore\n      keccak256(0x00, 0x20)\n      swap1\n      0x03\n      mul\n      add\n        /* \"contracts/VotingExtended.sol\":8753:8775  proposals[i].voteCount */\n      0x01\n      add\n      sload\n        /* \"contracts/VotingExtended.sol\":8735:8750  voteWinnerCount */\n      0x0a\n        /* \"contracts/VotingExtended.sol\":8735:8775  voteWinnerCount = proposals[i].voteCount */\n      dup2\n      swap1\n      sstore\n      pop\n        /* \"contracts/VotingExtended.sol\":8814:8815  i */\n      dup1\n        /* \"contracts/VotingExtended.sol\":8794:8811  winningProposalId */\n      0x05\n        /* \"contracts/VotingExtended.sol\":8794:8815  winningProposalId = i */\n      dup2\n      swap1\n      sstore\n      pop\n        /* \"contracts/VotingExtended.sol\":8834:8845  winnerCount */\n      0x09\n      0x00\n        /* \"contracts/VotingExtended.sol\":8834:8847  winnerCount++ */\n      dup2\n      sload\n      dup1\n      swap3\n      swap2\n      swap1\n      tag_438\n      swap1\n      tag_141\n      jump\t// in\n    tag_438:\n      swap2\n      swap1\n      pop\n      sstore\n      pop\n        /* \"contracts/VotingExtended.sol\":8669:8863  if (proposals[i].voteCount >= voteWinnerCount) {... */\n    tag_434:\n        /* \"contracts/VotingExtended.sol\":8649:8652  i++ */\n      dup1\n      dup1\n      0x01\n      add\n      swap2\n      pop\n      pop\n        /* \"contracts/VotingExtended.sol\":8610:8880  for (uint i = 0; i < proposals.length; i++) {... */\n      jump(tag_428)\n    tag_429:\n      pop\n        /* \"contracts/VotingExtended.sol\":8552:8888  function setWinnerProposal() private onlyOwner {... */\n      jump\t// out\n        /* \"@openzeppelin/contracts/utils/Context.sol\":656:752  function _msgSender() internal view virtual returns (address) {... */\n    tag_419:\n        /* \"@openzeppelin/contracts/utils/Context.sol\":709:716  address */\n      0x00\n        /* \"@openzeppelin/contracts/utils/Context.sol\":735:745  msg.sender */\n      caller\n        /* \"@openzeppelin/contracts/utils/Context.sol\":728:745  return msg.sender */\n      swap1\n      pop\n        /* \"@openzeppelin/contracts/utils/Context.sol\":656:752  function _msgSender() internal view virtual returns (address) {... */\n      swap1\n      jump\t// out\n    tag_250:\n      mload(0x40)\n      dup1\n      0x60\n      add\n      0x40\n      mstore\n      dup1\n      0x60\n      dup2\n      mstore\n      0x20\n      add\n      0x00\n      dup2\n      mstore\n      0x20\n      add\n      and(0xffffffffffffffffffffffffffffffffffffffff, 0x00)\n      dup2\n      mstore\n      pop\n      swap1\n      jump\t// out\n    tag_361:\n      pop\n      dup1\n      sload\n      0x00\n      dup3\n      sstore\n      0x03\n      mul\n      swap1\n      0x00\n      mstore\n      keccak256(0x00, 0x20)\n      swap1\n      dup2\n      add\n      swap1\n      tag_441\n      swap2\n      swap1\n      tag_442\n      jump\t// in\n    tag_441:\n      pop\n      jump\t// out\n    tag_363:\n      pop\n      dup1\n      sload\n      0x00\n      dup3\n      sstore\n      swap1\n      0x00\n      mstore\n      keccak256(0x00, 0x20)\n      swap1\n      dup2\n      add\n      swap1\n      tag_444\n      swap2\n      swap1\n      tag_445\n      jump\t// in\n    tag_444:\n      pop\n      jump\t// out\n    tag_442:\n    tag_446:\n      dup1\n      dup3\n      gt\n      iszero\n      tag_447\n      jumpi\n      0x00\n      0x00\n      dup3\n      add\n      0x00\n      tag_448\n      swap2\n      swap1\n      tag_449\n      jump\t// in\n    tag_448:\n      0x01\n      dup3\n      add\n      0x00\n      swap1\n      sstore\n      0x02\n      dup3\n      add\n      exp(0x0100, 0x00)\n      dup2\n      sload\n      swap1\n      0xffffffffffffffffffffffffffffffffffffffff\n      mul\n      not\n      and\n      swap1\n      sstore\n      pop\n      0x03\n      add\n      jump(tag_446)\n    tag_447:\n      pop\n      swap1\n      jump\t// out\n    tag_445:\n    tag_450:\n      dup1\n      dup3\n      gt\n      iszero\n      tag_451\n      jumpi\n      0x00\n      dup2\n      0x00\n      swap1\n      sstore\n      pop\n      0x01\n      add\n      jump(tag_450)\n    tag_451:\n      pop\n      swap1\n      jump\t// out\n    tag_449:\n      pop\n      dup1\n      sload\n      tag_452\n      swap1\n      tag_175\n      jump\t// in\n    tag_452:\n      0x00\n      dup3\n      sstore\n      dup1\n      0x1f\n      lt\n      tag_454\n      jumpi\n      pop\n      jump(tag_453)\n    tag_454:\n      0x1f\n      add\n      0x20\n      swap1\n      div\n      swap1\n      0x00\n      mstore\n      keccak256(0x00, 0x20)\n      swap1\n      dup2\n      add\n      swap1\n      tag_455\n      swap2\n      swap1\n      tag_445\n      jump\t// in\n    tag_455:\n    tag_453:\n      pop\n      jump\t// out\n        /* \"#utility.yul\":7:82   */\n    tag_456:\n        /* \"#utility.yul\":40:46   */\n      0x00\n        /* \"#utility.yul\":73:75   */\n      0x40\n        /* \"#utility.yul\":67:76   */\n      mload\n        /* \"#utility.yul\":57:76   */\n      swap1\n      pop\n        /* \"#utility.yul\":7:82   */\n      swap1\n      jump\t// out\n        /* \"#utility.yul\":88:205   */\n    tag_457:\n        /* \"#utility.yul\":197:198   */\n      0x00\n        /* \"#utility.yul\":194:195   */\n      0x00\n        /* \"#utility.yul\":187:199   */\n      revert\n        /* \"#utility.yul\":211:328   */\n    tag_458:\n        /* \"#utility.yul\":320:321   */\n      0x00\n        /* \"#utility.yul\":317:318   */\n      0x00\n        /* \"#utility.yul\":310:322   */\n      revert\n        /* \"#utility.yul\":334:411   */\n    tag_459:\n        /* \"#utility.yul\":371:378   */\n      0x00\n        /* \"#utility.yul\":400:405   */\n      dup2\n        /* \"#utility.yul\":389:405   */\n      swap1\n      pop\n        /* \"#utility.yul\":334:411   */\n      swap2\n      swap1\n      pop\n      jump\t// out\n        /* \"#utility.yul\":417:539   */\n    tag_460:\n        /* \"#utility.yul\":490:514   */\n      tag_567\n        /* \"#utility.yul\":508:513   */\n      dup2\n        /* \"#utility.yul\":490:514   */\n      tag_459\n      jump\t// in\n    tag_567:\n        /* \"#utility.yul\":483:488   */\n      dup2\n        /* \"#utility.yul\":480:515   */\n      eq\n        /* \"#utility.yul\":470:533   */\n      tag_568\n      jumpi\n        /* \"#utility.yul\":529:530   */\n      0x00\n        /* \"#utility.yul\":526:527   */\n      0x00\n        /* \"#utility.yul\":519:531   */\n      revert\n        /* \"#utility.yul\":470:533   */\n    tag_568:\n        /* \"#utility.yul\":417:539   */\n      pop\n      jump\t// out\n        /* \"#utility.yul\":545:684   */\n    tag_461:\n        /* \"#utility.yul\":591:596   */\n      0x00\n        /* \"#utility.yul\":629:635   */\n      dup2\n        /* \"#utility.yul\":616:636   */\n      calldataload\n        /* \"#utility.yul\":607:636   */\n      swap1\n      pop\n        /* \"#utility.yul\":645:678   */\n      tag_570\n        /* \"#utility.yul\":672:677   */\n      dup2\n        /* \"#utility.yul\":645:678   */\n      tag_460\n      jump\t// in\n    tag_570:\n        /* \"#utility.yul\":545:684   */\n      swap3\n      swap2\n      pop\n      pop\n      jump\t// out\n        /* \"#utility.yul\":690:1019   */\n    tag_34:\n        /* \"#utility.yul\":749:755   */\n      0x00\n        /* \"#utility.yul\":798:800   */\n      0x20\n        /* \"#utility.yul\":786:795   */\n      dup3\n        /* \"#utility.yul\":777:784   */\n      dup5\n        /* \"#utility.yul\":773:796   */\n      sub\n        /* \"#utility.yul\":769:801   */\n      slt\n        /* \"#utility.yul\":766:885   */\n      iszero\n      tag_572\n      jumpi\n        /* \"#utility.yul\":804:883   */\n      tag_573\n      tag_457\n      jump\t// in\n    tag_573:\n        /* \"#utility.yul\":766:885   */\n    tag_572:\n        /* \"#utility.yul\":924:925   */\n      0x00\n        /* \"#utility.yul\":949:1002   */\n      tag_574\n        /* \"#utility.yul\":994:1001   */\n      dup5\n        /* \"#utility.yul\":985:991   */\n      dup3\n        /* \"#utility.yul\":974:983   */\n      dup6\n        /* \"#utility.yul\":970:992   */\n      add\n        /* \"#utility.yul\":949:1002   */\n      tag_461\n      jump\t// in\n    tag_574:\n        /* \"#utility.yul\":939:1002   */\n      swap2\n      pop\n        /* \"#utility.yul\":895:1012   */\n      pop\n        /* \"#utility.yul\":690:1019   */\n      swap3\n      swap2\n      pop\n      pop\n      jump\t// out\n        /* \"#utility.yul\":1025:1143   */\n    tag_462:\n        /* \"#utility.yul\":1112:1136   */\n      tag_576\n        /* \"#utility.yul\":1130:1135   */\n      dup2\n        /* \"#utility.yul\":1112:1136   */\n      tag_459\n      jump\t// in\n    tag_576:\n        /* \"#utility.yul\":1107:1110   */\n      dup3\n        /* \"#utility.yul\":1100:1137   */\n      mstore\n        /* \"#utility.yul\":1025:1143   */\n      pop\n      pop\n      jump\t// out\n        /* \"#utility.yul\":1149:1371   */\n    tag_39:\n        /* \"#utility.yul\":1242:1246   */\n      0x00\n        /* \"#utility.yul\":1280:1282   */\n      0x20\n        /* \"#utility.yul\":1269:1278   */\n      dup3\n        /* \"#utility.yul\":1265:1283   */\n      add\n        /* \"#utility.yul\":1257:1283   */\n      swap1\n      pop\n        /* \"#utility.yul\":1293:1364   */\n      tag_578\n        /* \"#utility.yul\":1361:1362   */\n      0x00\n        /* \"#utility.yul\":1350:1359   */\n      dup4\n        /* \"#utility.yul\":1346:1363   */\n      add\n        /* \"#utility.yul\":1337:1343   */\n      dup5\n        /* \"#utility.yul\":1293:1364   */\n      tag_462\n      jump\t// in\n    tag_578:\n        /* \"#utility.yul\":1149:1371   */\n      swap3\n      swap2\n      pop\n      pop\n      jump\t// out\n        /* \"#utility.yul\":1377:1503   */\n    tag_463:\n        /* \"#utility.yul\":1414:1421   */\n      0x00\n        /* \"#utility.yul\":1454:1496   */\n      0xffffffffffffffffffffffffffffffffffffffff\n        /* \"#utility.yul\":1447:1452   */\n      dup3\n        /* \"#utility.yul\":1443:1497   */\n      and\n        /* \"#utility.yul\":1432:1497   */\n      swap1\n      pop\n        /* \"#utility.yul\":1377:1503   */\n      swap2\n      swap1\n      pop\n      jump\t// out\n        /* \"#utility.yul\":1509:1605   */\n    tag_464:\n        /* \"#utility.yul\":1546:1553   */\n      0x00\n        /* \"#utility.yul\":1575:1599   */\n      tag_581\n        /* \"#utility.yul\":1593:1598   */\n      dup3\n        /* \"#utility.yul\":1575:1599   */\n      tag_463\n      jump\t// in\n    tag_581:\n        /* \"#utility.yul\":1564:1599   */\n      swap1\n      pop\n        /* \"#utility.yul\":1509:1605   */\n      swap2\n      swap1\n      pop\n      jump\t// out\n        /* \"#utility.yul\":1611:1733   */\n    tag_465:\n        /* \"#utility.yul\":1684:1708   */\n      tag_583\n        /* \"#utility.yul\":1702:1707   */\n      dup2\n        /* \"#utility.yul\":1684:1708   */\n      tag_464\n      jump\t// in\n    tag_583:\n        /* \"#utility.yul\":1677:1682   */\n      dup2\n        /* \"#utility.yul\":1674:1709   */\n      eq\n        /* \"#utility.yul\":1664:1727   */\n      tag_584\n      jumpi\n        /* \"#utility.yul\":1723:1724   */\n      0x00\n        /* \"#utility.yul\":1720:1721   */\n      0x00\n        /* \"#utility.yul\":1713:1725   */\n      revert\n        /* \"#utility.yul\":1664:1727   */\n    tag_584:\n        /* \"#utility.yul\":1611:1733   */\n      pop\n      jump\t// out\n        /* \"#utility.yul\":1739:1878   */\n    tag_466:\n        /* \"#utility.yul\":1785:1790   */\n      0x00\n        /* \"#utility.yul\":1823:1829   */\n      dup2\n        /* \"#utility.yul\":1810:1830   */\n      calldataload\n        /* \"#utility.yul\":1801:1830   */\n      swap1\n      pop\n        /* \"#utility.yul\":1839:1872   */\n      tag_586\n        /* \"#utility.yul\":1866:1871   */\n      dup2\n        /* \"#utility.yul\":1839:1872   */\n      tag_465\n      jump\t// in\n    tag_586:\n        /* \"#utility.yul\":1739:1878   */\n      swap3\n      swap2\n      pop\n      pop\n      jump\t// out\n        /* \"#utility.yul\":1884:2213   */\n    tag_42:\n        /* \"#utility.yul\":1943:1949   */\n      0x00\n        /* \"#utility.yul\":1992:1994   */\n      0x20\n        /* \"#utility.yul\":1980:1989   */\n      dup3\n        /* \"#utility.yul\":1971:1978   */\n      dup5\n        /* \"#utility.yul\":1967:1990   */\n      sub\n        /* \"#utility.yul\":1963:1995   */\n      slt\n        /* \"#utility.yul\":1960:2079   */\n      iszero\n      tag_588\n      jumpi\n        /* \"#utility.yul\":1998:2077   */\n      tag_589\n      tag_457\n      jump\t// in\n    tag_589:\n        /* \"#utility.yul\":1960:2079   */\n    tag_588:\n        /* \"#utility.yul\":2118:2119   */\n      0x00\n        /* \"#utility.yul\":2143:2196   */\n      tag_590\n        /* \"#utility.yul\":2188:2195   */\n      dup5\n        /* \"#utility.yul\":2179:2185   */\n      dup3\n        /* \"#utility.yul\":2168:2177   */\n      dup6\n        /* \"#utility.yul\":2164:2186   */\n      add\n        /* \"#utility.yul\":2143:2196   */\n      tag_466\n      jump\t// in\n    tag_590:\n        /* \"#utility.yul\":2133:2196   */\n      swap2\n      pop\n        /* \"#utility.yul\":2089:2206   */\n      pop\n        /* \"#utility.yul\":1884:2213   */\n      swap3\n      swap2\n      pop\n      pop\n      jump\t// out\n        /* \"#utility.yul\":2219:2318   */\n    tag_467:\n        /* \"#utility.yul\":2271:2277   */\n      0x00\n        /* \"#utility.yul\":2305:2310   */\n      dup2\n        /* \"#utility.yul\":2299:2311   */\n      mload\n        /* \"#utility.yul\":2289:2311   */\n      swap1\n      pop\n        /* \"#utility.yul\":2219:2318   */\n      swap2\n      swap1\n      pop\n      jump\t// out\n        /* \"#utility.yul\":2324:2493   */\n    tag_468:\n        /* \"#utility.yul\":2408:2419   */\n      0x00\n        /* \"#utility.yul\":2442:2448   */\n      dup3\n        /* \"#utility.yul\":2437:2440   */\n      dup3\n        /* \"#utility.yul\":2430:2449   */\n      mstore\n        /* \"#utility.yul\":2482:2486   */\n      0x20\n        /* \"#utility.yul\":2477:2480   */\n      dup3\n        /* \"#utility.yul\":2473:2487   */\n      add\n        /* \"#utility.yul\":2458:2487   */\n      swap1\n      pop\n        /* \"#utility.yul\":2324:2493   */\n      swap3\n      swap2\n      pop\n      pop\n      jump\t// out\n        /* \"#utility.yul\":2499:2638   */\n    tag_469:\n        /* \"#utility.yul\":2588:2594   */\n      dup3\n        /* \"#utility.yul\":2583:2586   */\n      dup2\n        /* \"#utility.yul\":2578:2581   */\n      dup4\n        /* \"#utility.yul\":2572:2595   */\n      mcopy\n        /* \"#utility.yul\":2629:2630   */\n      0x00\n        /* \"#utility.yul\":2620:2626   */\n      dup4\n        /* \"#utility.yul\":2615:2618   */\n      dup4\n        /* \"#utility.yul\":2611:2627   */\n      add\n        /* \"#utility.yul\":2604:2631   */\n      mstore\n        /* \"#utility.yul\":2499:2638   */\n      pop\n      pop\n      pop\n      jump\t// out\n        /* \"#utility.yul\":2644:2746   */\n    tag_470:\n        /* \"#utility.yul\":2685:2691   */\n      0x00\n        /* \"#utility.yul\":2736:2738   */\n      0x1f\n        /* \"#utility.yul\":2732:2739   */\n      not\n        /* \"#utility.yul\":2727:2729   */\n      0x1f\n        /* \"#utility.yul\":2720:2725   */\n      dup4\n        /* \"#utility.yul\":2716:2730   */\n      add\n        /* \"#utility.yul\":2712:2740   */\n      and\n        /* \"#utility.yul\":2702:2740   */\n      swap1\n      pop\n        /* \"#utility.yul\":2644:2746   */\n      swap2\n      swap1\n      pop\n      jump\t// out\n        /* \"#utility.yul\":2752:3129   */\n    tag_471:\n        /* \"#utility.yul\":2840:2843   */\n      0x00\n        /* \"#utility.yul\":2868:2907   */\n      tag_596\n        /* \"#utility.yul\":2901:2906   */\n      dup3\n        /* \"#utility.yul\":2868:2907   */\n      tag_467\n      jump\t// in\n    tag_596:\n        /* \"#utility.yul\":2923:2994   */\n      tag_597\n        /* \"#utility.yul\":2987:2993   */\n      dup2\n        /* \"#utility.yul\":2982:2985   */\n      dup6\n        /* \"#utility.yul\":2923:2994   */\n      tag_468\n      jump\t// in\n    tag_597:\n        /* \"#utility.yul\":2916:2994   */\n      swap4\n      pop\n        /* \"#utility.yul\":3003:3068   */\n      tag_598\n        /* \"#utility.yul\":3061:3067   */\n      dup2\n        /* \"#utility.yul\":3056:3059   */\n      dup6\n        /* \"#utility.yul\":3049:3053   */\n      0x20\n        /* \"#utility.yul\":3042:3047   */\n      dup7\n        /* \"#utility.yul\":3038:3054   */\n      add\n        /* \"#utility.yul\":3003:3068   */\n      tag_469\n      jump\t// in\n    tag_598:\n        /* \"#utility.yul\":3093:3122   */\n      tag_599\n        /* \"#utility.yul\":3115:3121   */\n      dup2\n        /* \"#utility.yul\":3093:3122   */\n      tag_470\n      jump\t// in\n    tag_599:\n        /* \"#utility.yul\":3088:3091   */\n      dup5\n        /* \"#utility.yul\":3084:3123   */\n      add\n        /* \"#utility.yul\":3077:3123   */\n      swap2\n      pop\n        /* \"#utility.yul\":2844:3129   */\n      pop\n        /* \"#utility.yul\":2752:3129   */\n      swap3\n      swap2\n      pop\n      pop\n      jump\t// out\n        /* \"#utility.yul\":3135:3448   */\n    tag_47:\n        /* \"#utility.yul\":3248:3252   */\n      0x00\n        /* \"#utility.yul\":3286:3288   */\n      0x20\n        /* \"#utility.yul\":3275:3284   */\n      dup3\n        /* \"#utility.yul\":3271:3289   */\n      add\n        /* \"#utility.yul\":3263:3289   */\n      swap1\n      pop\n        /* \"#utility.yul\":3335:3344   */\n      dup2\n        /* \"#utility.yul\":3329:3333   */\n      dup2\n        /* \"#utility.yul\":3325:3345   */\n      sub\n        /* \"#utility.yul\":3321:3322   */\n      0x00\n        /* \"#utility.yul\":3310:3319   */\n      dup4\n        /* \"#utility.yul\":3306:3323   */\n      add\n        /* \"#utility.yul\":3299:3346   */\n      mstore\n        /* \"#utility.yul\":3363:3441   */\n      tag_601\n        /* \"#utility.yul\":3436:3440   */\n      dup2\n        /* \"#utility.yul\":3427:3433   */\n      dup5\n        /* \"#utility.yul\":3363:3441   */\n      tag_471\n      jump\t// in\n    tag_601:\n        /* \"#utility.yul\":3355:3441   */\n      swap1\n      pop\n        /* \"#utility.yul\":3135:3448   */\n      swap3\n      swap2\n      pop\n      pop\n      jump\t// out\n        /* \"#utility.yul\":3454:3593   */\n    tag_472:\n        /* \"#utility.yul\":3546:3552   */\n      0x00\n        /* \"#utility.yul\":3580:3585   */\n      dup2\n        /* \"#utility.yul\":3574:3586   */\n      mload\n        /* \"#utility.yul\":3564:3586   */\n      swap1\n      pop\n        /* \"#utility.yul\":3454:3593   */\n      swap2\n      swap1\n      pop\n      jump\t// out\n        /* \"#utility.yul\":3599:3808   */\n    tag_473:\n        /* \"#utility.yul\":3723:3734   */\n      0x00\n        /* \"#utility.yul\":3757:3763   */\n      dup3\n        /* \"#utility.yul\":3752:3755   */\n      dup3\n        /* \"#utility.yul\":3745:3764   */\n      mstore\n        /* \"#utility.yul\":3797:3801   */\n      0x20\n        /* \"#utility.yul\":3792:3795   */\n      dup3\n        /* \"#utility.yul\":3788:3802   */\n      add\n        /* \"#utility.yul\":3773:3802   */\n      swap1\n      pop\n        /* \"#utility.yul\":3599:3808   */\n      swap3\n      swap2\n      pop\n      pop\n      jump\t// out\n        /* \"#utility.yul\":3814:3971   */\n    tag_474:\n        /* \"#utility.yul\":3906:3910   */\n      0x00\n        /* \"#utility.yul\":3929:3932   */\n      dup2\n        /* \"#utility.yul\":3921:3932   */\n      swap1\n      pop\n        /* \"#utility.yul\":3959:3963   */\n      0x20\n        /* \"#utility.yul\":3954:3957   */\n      dup3\n        /* \"#utility.yul\":3950:3964   */\n      add\n        /* \"#utility.yul\":3942:3964   */\n      swap1\n      pop\n        /* \"#utility.yul\":3814:3971   */\n      swap2\n      swap1\n      pop\n      jump\t// out\n        /* \"#utility.yul\":3977:4136   */\n    tag_475:\n        /* \"#utility.yul\":4051:4062   */\n      0x00\n        /* \"#utility.yul\":4085:4091   */\n      dup3\n        /* \"#utility.yul\":4080:4083   */\n      dup3\n        /* \"#utility.yul\":4073:4092   */\n      mstore\n        /* \"#utility.yul\":4125:4129   */\n      0x20\n        /* \"#utility.yul\":4120:4123   */\n      dup3\n        /* \"#utility.yul\":4116:4130   */\n      add\n        /* \"#utility.yul\":4101:4130   */\n      swap1\n      pop\n        /* \"#utility.yul\":3977:4136   */\n      swap3\n      swap2\n      pop\n      pop\n      jump\t// out\n        /* \"#utility.yul\":4142:4499   */\n    tag_476:\n        /* \"#utility.yul\":4220:4223   */\n      0x00\n        /* \"#utility.yul\":4248:4287   */\n      tag_607\n        /* \"#utility.yul\":4281:4286   */\n      dup3\n        /* \"#utility.yul\":4248:4287   */\n      tag_467\n      jump\t// in\n    tag_607:\n        /* \"#utility.yul\":4303:4364   */\n      tag_608\n        /* \"#utility.yul\":4357:4363   */\n      dup2\n        /* \"#utility.yul\":4352:4355   */\n      dup6\n        /* \"#utility.yul\":4303:4364   */\n      tag_475\n      jump\t// in\n    tag_608:\n        /* \"#utility.yul\":4296:4364   */\n      swap4\n      pop\n        /* \"#utility.yul\":4373:4438   */\n      tag_609\n        /* \"#utility.yul\":4431:4437   */\n      dup2\n        /* \"#utility.yul\":4426:4429   */\n      dup6\n        /* \"#utility.yul\":4419:4423   */\n      0x20\n        /* \"#utility.yul\":4412:4417   */\n      dup7\n        /* \"#utility.yul\":4408:4424   */\n      add\n        /* \"#utility.yul\":4373:4438   */\n      tag_469\n      jump\t// in\n    tag_609:\n        /* \"#utility.yul\":4463:4492   */\n      tag_610\n        /* \"#utility.yul\":4485:4491   */\n      dup2\n        /* \"#utility.yul\":4463:4492   */\n      tag_470\n      jump\t// in\n    tag_610:\n        /* \"#utility.yul\":4458:4461   */\n      dup5\n        /* \"#utility.yul\":4454:4493   */\n      add\n        /* \"#utility.yul\":4447:4493   */\n      swap2\n      pop\n        /* \"#utility.yul\":4224:4499   */\n      pop\n        /* \"#utility.yul\":4142:4499   */\n      swap3\n      swap2\n      pop\n      pop\n      jump\t// out\n        /* \"#utility.yul\":4505:4613   */\n    tag_477:\n        /* \"#utility.yul\":4582:4606   */\n      tag_612\n        /* \"#utility.yul\":4600:4605   */\n      dup2\n        /* \"#utility.yul\":4582:4606   */\n      tag_459\n      jump\t// in\n    tag_612:\n        /* \"#utility.yul\":4577:4580   */\n      dup3\n        /* \"#utility.yul\":4570:4607   */\n      mstore\n        /* \"#utility.yul\":4505:4613   */\n      pop\n      pop\n      jump\t// out\n        /* \"#utility.yul\":4619:4727   */\n    tag_478:\n        /* \"#utility.yul\":4696:4720   */\n      tag_614\n        /* \"#utility.yul\":4714:4719   */\n      dup2\n        /* \"#utility.yul\":4696:4720   */\n      tag_464\n      jump\t// in\n    tag_614:\n        /* \"#utility.yul\":4691:4694   */\n      dup3\n        /* \"#utility.yul\":4684:4721   */\n      mstore\n        /* \"#utility.yul\":4619:4727   */\n      pop\n      pop\n      jump\t// out\n        /* \"#utility.yul\":4789:5572   */\n    tag_479:\n        /* \"#utility.yul\":4898:4901   */\n      0x00\n        /* \"#utility.yul\":4934:4938   */\n      0x60\n        /* \"#utility.yul\":4929:4932   */\n      dup4\n        /* \"#utility.yul\":4925:4939   */\n      add\n        /* \"#utility.yul\":5028:5032   */\n      0x00\n        /* \"#utility.yul\":5021:5026   */\n      dup4\n        /* \"#utility.yul\":5017:5033   */\n      add\n        /* \"#utility.yul\":5011:5034   */\n      mload\n        /* \"#utility.yul\":5081:5084   */\n      dup5\n        /* \"#utility.yul\":5075:5079   */\n      dup3\n        /* \"#utility.yul\":5071:5085   */\n      sub\n        /* \"#utility.yul\":5064:5068   */\n      0x00\n        /* \"#utility.yul\":5059:5062   */\n      dup7\n        /* \"#utility.yul\":5055:5069   */\n      add\n        /* \"#utility.yul\":5048:5086   */\n      mstore\n        /* \"#utility.yul\":5107:5180   */\n      tag_616\n        /* \"#utility.yul\":5175:5179   */\n      dup3\n        /* \"#utility.yul\":5161:5173   */\n      dup3\n        /* \"#utility.yul\":5107:5180   */\n      tag_476\n      jump\t// in\n    tag_616:\n        /* \"#utility.yul\":5099:5180   */\n      swap2\n      pop\n        /* \"#utility.yul\":4949:5191   */\n      pop\n        /* \"#utility.yul\":5278:5282   */\n      0x20\n        /* \"#utility.yul\":5271:5276   */\n      dup4\n        /* \"#utility.yul\":5267:5283   */\n      add\n        /* \"#utility.yul\":5261:5284   */\n      mload\n        /* \"#utility.yul\":5297:5360   */\n      tag_617\n        /* \"#utility.yul\":5354:5358   */\n      0x20\n        /* \"#utility.yul\":5349:5352   */\n      dup7\n        /* \"#utility.yul\":5345:5359   */\n      add\n        /* \"#utility.yul\":5331:5343   */\n      dup3\n        /* \"#utility.yul\":5297:5360   */\n      tag_477\n      jump\t// in\n    tag_617:\n        /* \"#utility.yul\":5201:5370   */\n      pop\n        /* \"#utility.yul\":5453:5457   */\n      0x40\n        /* \"#utility.yul\":5446:5451   */\n      dup4\n        /* \"#utility.yul\":5442:5458   */\n      add\n        /* \"#utility.yul\":5436:5459   */\n      mload\n        /* \"#utility.yul\":5472:5535   */\n      tag_618\n        /* \"#utility.yul\":5529:5533   */\n      0x40\n        /* \"#utility.yul\":5524:5527   */\n      dup7\n        /* \"#utility.yul\":5520:5534   */\n      add\n        /* \"#utility.yul\":5506:5518   */\n      dup3\n        /* \"#utility.yul\":5472:5535   */\n      tag_478\n      jump\t// in\n    tag_618:\n        /* \"#utility.yul\":5380:5545   */\n      pop\n        /* \"#utility.yul\":5562:5566   */\n      dup1\n        /* \"#utility.yul\":5555:5566   */\n      swap2\n      pop\n        /* \"#utility.yul\":4903:5572   */\n      pop\n        /* \"#utility.yul\":4789:5572   */\n      swap3\n      swap2\n      pop\n      pop\n      jump\t// out\n        /* \"#utility.yul\":5578:5834   */\n    tag_480:\n        /* \"#utility.yul\":5697:5707   */\n      0x00\n        /* \"#utility.yul\":5732:5828   */\n      tag_620\n        /* \"#utility.yul\":5824:5827   */\n      dup4\n        /* \"#utility.yul\":5816:5822   */\n      dup4\n        /* \"#utility.yul\":5732:5828   */\n      tag_479\n      jump\t// in\n    tag_620:\n        /* \"#utility.yul\":5718:5828   */\n      swap1\n      pop\n        /* \"#utility.yul\":5578:5834   */\n      swap3\n      swap2\n      pop\n      pop\n      jump\t// out\n        /* \"#utility.yul\":5840:5978   */\n    tag_481:\n        /* \"#utility.yul\":5935:5939   */\n      0x00\n        /* \"#utility.yul\":5967:5971   */\n      0x20\n        /* \"#utility.yul\":5962:5965   */\n      dup3\n        /* \"#utility.yul\":5958:5972   */\n      add\n        /* \"#utility.yul\":5950:5972   */\n      swap1\n      pop\n        /* \"#utility.yul\":5840:5978   */\n      swap2\n      swap1\n      pop\n      jump\t// out\n        /* \"#utility.yul\":6044:7155   */\n    tag_482:\n        /* \"#utility.yul\":6213:6216   */\n      0x00\n        /* \"#utility.yul\":6242:6321   */\n      tag_623\n        /* \"#utility.yul\":6315:6320   */\n      dup3\n        /* \"#utility.yul\":6242:6321   */\n      tag_472\n      jump\t// in\n    tag_623:\n        /* \"#utility.yul\":6337:6448   */\n      tag_624\n        /* \"#utility.yul\":6441:6447   */\n      dup2\n        /* \"#utility.yul\":6436:6439   */\n      dup6\n        /* \"#utility.yul\":6337:6448   */\n      tag_473\n      jump\t// in\n    tag_624:\n        /* \"#utility.yul\":6330:6448   */\n      swap4\n      pop\n        /* \"#utility.yul\":6474:6477   */\n      dup4\n        /* \"#utility.yul\":6519:6523   */\n      0x20\n        /* \"#utility.yul\":6511:6517   */\n      dup3\n        /* \"#utility.yul\":6507:6524   */\n      mul\n        /* \"#utility.yul\":6502:6505   */\n      dup6\n        /* \"#utility.yul\":6498:6525   */\n      add\n        /* \"#utility.yul\":6549:6630   */\n      tag_625\n        /* \"#utility.yul\":6624:6629   */\n      dup6\n        /* \"#utility.yul\":6549:6630   */\n      tag_474\n      jump\t// in\n    tag_625:\n        /* \"#utility.yul\":6653:6660   */\n      dup1\n        /* \"#utility.yul\":6684:6685   */\n      0x00\n        /* \"#utility.yul\":6669:7110   */\n    tag_626:\n        /* \"#utility.yul\":6694:6700   */\n      dup6\n        /* \"#utility.yul\":6691:6692   */\n      dup2\n        /* \"#utility.yul\":6688:6701   */\n      lt\n        /* \"#utility.yul\":6669:7110   */\n      iszero\n      tag_628\n      jumpi\n        /* \"#utility.yul\":6765:6774   */\n      dup5\n        /* \"#utility.yul\":6759:6763   */\n      dup5\n        /* \"#utility.yul\":6755:6775   */\n      sub\n        /* \"#utility.yul\":6750:6753   */\n      dup10\n        /* \"#utility.yul\":6743:6776   */\n      mstore\n        /* \"#utility.yul\":6816:6822   */\n      dup2\n        /* \"#utility.yul\":6810:6823   */\n      mload\n        /* \"#utility.yul\":6844:6958   */\n      tag_629\n        /* \"#utility.yul\":6953:6957   */\n      dup6\n        /* \"#utility.yul\":6938:6951   */\n      dup3\n        /* \"#utility.yul\":6844:6958   */\n      tag_480\n      jump\t// in\n    tag_629:\n        /* \"#utility.yul\":6836:6958   */\n      swap5\n      pop\n        /* \"#utility.yul\":6981:7066   */\n      tag_630\n        /* \"#utility.yul\":7059:7065   */\n      dup4\n        /* \"#utility.yul\":6981:7066   */\n      tag_481\n      jump\t// in\n    tag_630:\n        /* \"#utility.yul\":6971:7066   */\n      swap3\n      pop\n        /* \"#utility.yul\":7095:7099   */\n      0x20\n        /* \"#utility.yul\":7090:7093   */\n      dup11\n        /* \"#utility.yul\":7086:7100   */\n      add\n        /* \"#utility.yul\":7079:7100   */\n      swap10\n      pop\n        /* \"#utility.yul\":6729:7110   */\n      pop\n        /* \"#utility.yul\":6716:6717   */\n      0x01\n        /* \"#utility.yul\":6713:6714   */\n      dup2\n        /* \"#utility.yul\":6709:6718   */\n      add\n        /* \"#utility.yul\":6704:6718   */\n      swap1\n      pop\n        /* \"#utility.yul\":6669:7110   */\n      jump(tag_626)\n    tag_628:\n        /* \"#utility.yul\":6673:6687   */\n      pop\n        /* \"#utility.yul\":7126:7130   */\n      dup3\n        /* \"#utility.yul\":7119:7130   */\n      swap8\n      pop\n        /* \"#utility.yul\":7146:7149   */\n      dup8\n        /* \"#utility.yul\":7139:7149   */\n      swap6\n      pop\n        /* \"#utility.yul\":6218:7155   */\n      pop\n      pop\n      pop\n      pop\n      pop\n        /* \"#utility.yul\":6044:7155   */\n      swap3\n      swap2\n      pop\n      pop\n      jump\t// out\n        /* \"#utility.yul\":7161:7634   */\n    tag_56:\n        /* \"#utility.yul\":7354:7358   */\n      0x00\n        /* \"#utility.yul\":7392:7394   */\n      0x20\n        /* \"#utility.yul\":7381:7390   */\n      dup3\n        /* \"#utility.yul\":7377:7395   */\n      add\n        /* \"#utility.yul\":7369:7395   */\n      swap1\n      pop\n        /* \"#utility.yul\":7441:7450   */\n      dup2\n        /* \"#utility.yul\":7435:7439   */\n      dup2\n        /* \"#utility.yul\":7431:7451   */\n      sub\n        /* \"#utility.yul\":7427:7428   */\n      0x00\n        /* \"#utility.yul\":7416:7425   */\n      dup4\n        /* \"#utility.yul\":7412:7429   */\n      add\n        /* \"#utility.yul\":7405:7452   */\n      mstore\n        /* \"#utility.yul\":7469:7627   */\n      tag_632\n        /* \"#utility.yul\":7622:7626   */\n      dup2\n        /* \"#utility.yul\":7613:7619   */\n      dup5\n        /* \"#utility.yul\":7469:7627   */\n      tag_482\n      jump\t// in\n    tag_632:\n        /* \"#utility.yul\":7461:7627   */\n      swap1\n      pop\n        /* \"#utility.yul\":7161:7634   */\n      swap3\n      swap2\n      pop\n      pop\n      jump\t// out\n        /* \"#utility.yul\":7640:7758   */\n    tag_483:\n        /* \"#utility.yul\":7727:7751   */\n      tag_634\n        /* \"#utility.yul\":7745:7750   */\n      dup2\n        /* \"#utility.yul\":7727:7751   */\n      tag_464\n      jump\t// in\n    tag_634:\n        /* \"#utility.yul\":7722:7725   */\n      dup3\n        /* \"#utility.yul\":7715:7752   */\n      mstore\n        /* \"#utility.yul\":7640:7758   */\n      pop\n      pop\n      jump\t// out\n        /* \"#utility.yul\":7764:7986   */\n    tag_61:\n        /* \"#utility.yul\":7857:7861   */\n      0x00\n        /* \"#utility.yul\":7895:7897   */\n      0x20\n        /* \"#utility.yul\":7884:7893   */\n      dup3\n        /* \"#utility.yul\":7880:7898   */\n      add\n        /* \"#utility.yul\":7872:7898   */\n      swap1\n      pop\n        /* \"#utility.yul\":7908:7979   */\n      tag_636\n        /* \"#utility.yul\":7976:7977   */\n      0x00\n        /* \"#utility.yul\":7965:7974   */\n      dup4\n        /* \"#utility.yul\":7961:7978   */\n      add\n        /* \"#utility.yul\":7952:7958   */\n      dup5\n        /* \"#utility.yul\":7908:7979   */\n      tag_483\n      jump\t// in\n    tag_636:\n        /* \"#utility.yul\":7764:7986   */\n      swap3\n      swap2\n      pop\n      pop\n      jump\t// out\n        /* \"#utility.yul\":7992:8172   */\n    tag_120:\n        /* \"#utility.yul\":8040:8117   */\n      0x4e487b7100000000000000000000000000000000000000000000000000000000\n        /* \"#utility.yul\":8037:8038   */\n      0x00\n        /* \"#utility.yul\":8030:8118   */\n      mstore\n        /* \"#utility.yul\":8137:8141   */\n      0x21\n        /* \"#utility.yul\":8134:8135   */\n      0x04\n        /* \"#utility.yul\":8127:8142   */\n      mstore\n        /* \"#utility.yul\":8161:8165   */\n      0x24\n        /* \"#utility.yul\":8158:8159   */\n      0x00\n        /* \"#utility.yul\":8151:8166   */\n      revert\n        /* \"#utility.yul\":8178:8301   */\n    tag_484:\n        /* \"#utility.yul\":8269:8270   */\n      0x06\n        /* \"#utility.yul\":8262:8267   */\n      dup2\n        /* \"#utility.yul\":8259:8271   */\n      lt\n        /* \"#utility.yul\":8249:8295   */\n      tag_639\n      jumpi\n        /* \"#utility.yul\":8275:8293   */\n      tag_640\n      tag_120\n      jump\t// in\n    tag_640:\n        /* \"#utility.yul\":8249:8295   */\n    tag_639:\n        /* \"#utility.yul\":8178:8301   */\n      pop\n      jump\t// out\n        /* \"#utility.yul\":8307:8454   */\n    tag_485:\n        /* \"#utility.yul\":8362:8369   */\n      0x00\n        /* \"#utility.yul\":8391:8396   */\n      dup2\n        /* \"#utility.yul\":8380:8396   */\n      swap1\n      pop\n        /* \"#utility.yul\":8397:8448   */\n      tag_642\n        /* \"#utility.yul\":8442:8447   */\n      dup3\n        /* \"#utility.yul\":8397:8448   */\n      tag_484\n      jump\t// in\n    tag_642:\n        /* \"#utility.yul\":8307:8454   */\n      swap2\n      swap1\n      pop\n      jump\t// out\n        /* \"#utility.yul\":8460:8607   */\n    tag_486:\n        /* \"#utility.yul\":8526:8535   */\n      0x00\n        /* \"#utility.yul\":8559:8601   */\n      tag_644\n        /* \"#utility.yul\":8595:8600   */\n      dup3\n        /* \"#utility.yul\":8559:8601   */\n      tag_485\n      jump\t// in\n    tag_644:\n        /* \"#utility.yul\":8546:8601   */\n      swap1\n      pop\n        /* \"#utility.yul\":8460:8607   */\n      swap2\n      swap1\n      pop\n      jump\t// out\n        /* \"#utility.yul\":8613:8776   */\n    tag_487:\n        /* \"#utility.yul\":8716:8769   */\n      tag_646\n        /* \"#utility.yul\":8763:8768   */\n      dup2\n        /* \"#utility.yul\":8716:8769   */\n      tag_486\n      jump\t// in\n    tag_646:\n        /* \"#utility.yul\":8711:8714   */\n      dup3\n        /* \"#utility.yul\":8704:8770   */\n      mstore\n        /* \"#utility.yul\":8613:8776   */\n      pop\n      pop\n      jump\t// out\n        /* \"#utility.yul\":8782:9036   */\n    tag_65:\n        /* \"#utility.yul\":8891:8895   */\n      0x00\n        /* \"#utility.yul\":8929:8931   */\n      0x20\n        /* \"#utility.yul\":8918:8927   */\n      dup3\n        /* \"#utility.yul\":8914:8932   */\n      add\n        /* \"#utility.yul\":8906:8932   */\n      swap1\n      pop\n        /* \"#utility.yul\":8942:9029   */\n      tag_648\n        /* \"#utility.yul\":9026:9027   */\n      0x00\n        /* \"#utility.yul\":9015:9024   */\n      dup4\n        /* \"#utility.yul\":9011:9028   */\n      add\n        /* \"#utility.yul\":9002:9008   */\n      dup5\n        /* \"#utility.yul\":8942:9029   */\n      tag_487\n      jump\t// in\n    tag_648:\n        /* \"#utility.yul\":8782:9036   */\n      swap3\n      swap2\n      pop\n      pop\n      jump\t// out\n        /* \"#utility.yul\":9098:9891   */\n    tag_488:\n        /* \"#utility.yul\":9217:9220   */\n      0x00\n        /* \"#utility.yul\":9253:9257   */\n      0x60\n        /* \"#utility.yul\":9248:9251   */\n      dup4\n        /* \"#utility.yul\":9244:9258   */\n      add\n        /* \"#utility.yul\":9347:9351   */\n      0x00\n        /* \"#utility.yul\":9340:9345   */\n      dup4\n        /* \"#utility.yul\":9336:9352   */\n      add\n        /* \"#utility.yul\":9330:9353   */\n      mload\n        /* \"#utility.yul\":9400:9403   */\n      dup5\n        /* \"#utility.yul\":9394:9398   */\n      dup3\n        /* \"#utility.yul\":9390:9404   */\n      sub\n        /* \"#utility.yul\":9383:9387   */\n      0x00\n        /* \"#utility.yul\":9378:9381   */\n      dup7\n        /* \"#utility.yul\":9374:9388   */\n      add\n        /* \"#utility.yul\":9367:9405   */\n      mstore\n        /* \"#utility.yul\":9426:9499   */\n      tag_650\n        /* \"#utility.yul\":9494:9498   */\n      dup3\n        /* \"#utility.yul\":9480:9492   */\n      dup3\n        /* \"#utility.yul\":9426:9499   */\n      tag_476\n      jump\t// in\n    tag_650:\n        /* \"#utility.yul\":9418:9499   */\n      swap2\n      pop\n        /* \"#utility.yul\":9268:9510   */\n      pop\n        /* \"#utility.yul\":9597:9601   */\n      0x20\n        /* \"#utility.yul\":9590:9595   */\n      dup4\n        /* \"#utility.yul\":9586:9602   */\n      add\n        /* \"#utility.yul\":9580:9603   */\n      mload\n        /* \"#utility.yul\":9616:9679   */\n      tag_651\n        /* \"#utility.yul\":9673:9677   */\n      0x20\n        /* \"#utility.yul\":9668:9671   */\n      dup7\n        /* \"#utility.yul\":9664:9678   */\n      add\n        /* \"#utility.yul\":9650:9662   */\n      dup3\n        /* \"#utility.yul\":9616:9679   */\n      tag_477\n      jump\t// in\n    tag_651:\n        /* \"#utility.yul\":9520:9689   */\n      pop\n        /* \"#utility.yul\":9772:9776   */\n      0x40\n        /* \"#utility.yul\":9765:9770   */\n      dup4\n        /* \"#utility.yul\":9761:9777   */\n      add\n        /* \"#utility.yul\":9755:9778   */\n      mload\n        /* \"#utility.yul\":9791:9854   */\n      tag_652\n        /* \"#utility.yul\":9848:9852   */\n      0x40\n        /* \"#utility.yul\":9843:9846   */\n      dup7\n        /* \"#utility.yul\":9839:9853   */\n      add\n        /* \"#utility.yul\":9825:9837   */\n      dup3\n        /* \"#utility.yul\":9791:9854   */\n      tag_478\n      jump\t// in\n    tag_652:\n        /* \"#utility.yul\":9699:9864   */\n      pop\n        /* \"#utility.yul\":9881:9885   */\n      dup1\n        /* \"#utility.yul\":9874:9885   */\n      swap2\n      pop\n        /* \"#utility.yul\":9222:9891   */\n      pop\n        /* \"#utility.yul\":9098:9891   */\n      swap3\n      swap2\n      pop\n      pop\n      jump\t// out\n        /* \"#utility.yul\":9897:10270   */\n    tag_72:\n        /* \"#utility.yul\":10040:10044   */\n      0x00\n        /* \"#utility.yul\":10078:10080   */\n      0x20\n        /* \"#utility.yul\":10067:10076   */\n      dup3\n        /* \"#utility.yul\":10063:10081   */\n      add\n        /* \"#utility.yul\":10055:10081   */\n      swap1\n      pop\n        /* \"#utility.yul\":10127:10136   */\n      dup2\n        /* \"#utility.yul\":10121:10125   */\n      dup2\n        /* \"#utility.yul\":10117:10137   */\n      sub\n        /* \"#utility.yul\":10113:10114   */\n      0x00\n        /* \"#utility.yul\":10102:10111   */\n      dup4\n        /* \"#utility.yul\":10098:10115   */\n      add\n        /* \"#utility.yul\":10091:10138   */\n      mstore\n        /* \"#utility.yul\":10155:10263   */\n      tag_654\n        /* \"#utility.yul\":10258:10262   */\n      dup2\n        /* \"#utility.yul\":10249:10255   */\n      dup5\n        /* \"#utility.yul\":10155:10263   */\n      tag_488\n      jump\t// in\n    tag_654:\n        /* \"#utility.yul\":10147:10263   */\n      swap1\n      pop\n        /* \"#utility.yul\":9897:10270   */\n      swap3\n      swap2\n      pop\n      pop\n      jump\t// out\n        /* \"#utility.yul\":10276:10393   */\n    tag_489:\n        /* \"#utility.yul\":10385:10386   */\n      0x00\n        /* \"#utility.yul\":10382:10383   */\n      0x00\n        /* \"#utility.yul\":10375:10387   */\n      revert\n        /* \"#utility.yul\":10399:10516   */\n    tag_490:\n        /* \"#utility.yul\":10508:10509   */\n      0x00\n        /* \"#utility.yul\":10505:10506   */\n      0x00\n        /* \"#utility.yul\":10498:10510   */\n      revert\n        /* \"#utility.yul\":10522:10702   */\n    tag_491:\n        /* \"#utility.yul\":10570:10647   */\n      0x4e487b7100000000000000000000000000000000000000000000000000000000\n        /* \"#utility.yul\":10567:10568   */\n      0x00\n        /* \"#utility.yul\":10560:10648   */\n      mstore\n        /* \"#utility.yul\":10667:10671   */\n      0x41\n        /* \"#utility.yul\":10664:10665   */\n      0x04\n        /* \"#utility.yul\":10657:10672   */\n      mstore\n        /* \"#utility.yul\":10691:10695   */\n      0x24\n        /* \"#utility.yul\":10688:10689   */\n      0x00\n        /* \"#utility.yul\":10681:10696   */\n      revert\n        /* \"#utility.yul\":10708:10989   */\n    tag_492:\n        /* \"#utility.yul\":10791:10818   */\n      tag_659\n        /* \"#utility.yul\":10813:10817   */\n      dup3\n        /* \"#utility.yul\":10791:10818   */\n      tag_470\n      jump\t// in\n    tag_659:\n        /* \"#utility.yul\":10783:10789   */\n      dup2\n        /* \"#utility.yul\":10779:10819   */\n      add\n        /* \"#utility.yul\":10921:10927   */\n      dup2\n        /* \"#utility.yul\":10909:10919   */\n      dup2\n        /* \"#utility.yul\":10906:10928   */\n      lt\n        /* \"#utility.yul\":10885:10903   */\n      0xffffffffffffffff\n        /* \"#utility.yul\":10873:10883   */\n      dup3\n        /* \"#utility.yul\":10870:10904   */\n      gt\n        /* \"#utility.yul\":10867:10929   */\n      or\n        /* \"#utility.yul\":10864:10952   */\n      iszero\n      tag_660\n      jumpi\n        /* \"#utility.yul\":10932:10950   */\n      tag_661\n      tag_491\n      jump\t// in\n    tag_661:\n        /* \"#utility.yul\":10864:10952   */\n    tag_660:\n        /* \"#utility.yul\":10972:10982   */\n      dup1\n        /* \"#utility.yul\":10968:10970   */\n      0x40\n        /* \"#utility.yul\":10961:10983   */\n      mstore\n        /* \"#utility.yul\":10751:10989   */\n      pop\n        /* \"#utility.yul\":10708:10989   */\n      pop\n      pop\n      jump\t// out\n        /* \"#utility.yul\":10995:11124   */\n    tag_493:\n        /* \"#utility.yul\":11029:11035   */\n      0x00\n        /* \"#utility.yul\":11056:11076   */\n      tag_663\n      tag_456\n      jump\t// in\n    tag_663:\n        /* \"#utility.yul\":11046:11076   */\n      swap1\n      pop\n        /* \"#utility.yul\":11085:11118   */\n      tag_664\n        /* \"#utility.yul\":11113:11117   */\n      dup3\n        /* \"#utility.yul\":11105:11111   */\n      dup3\n        /* \"#utility.yul\":11085:11118   */\n      tag_492\n      jump\t// in\n    tag_664:\n        /* \"#utility.yul\":10995:11124   */\n      swap2\n      swap1\n      pop\n      jump\t// out\n        /* \"#utility.yul\":11130:11438   */\n    tag_494:\n        /* \"#utility.yul\":11192:11196   */\n      0x00\n        /* \"#utility.yul\":11282:11300   */\n      0xffffffffffffffff\n        /* \"#utility.yul\":11274:11280   */\n      dup3\n        /* \"#utility.yul\":11271:11301   */\n      gt\n        /* \"#utility.yul\":11268:11324   */\n      iszero\n      tag_666\n      jumpi\n        /* \"#utility.yul\":11304:11322   */\n      tag_667\n      tag_491\n      jump\t// in\n    tag_667:\n        /* \"#utility.yul\":11268:11324   */\n    tag_666:\n        /* \"#utility.yul\":11342:11371   */\n      tag_668\n        /* \"#utility.yul\":11364:11370   */\n      dup3\n        /* \"#utility.yul\":11342:11371   */\n      tag_470\n      jump\t// in\n    tag_668:\n        /* \"#utility.yul\":11334:11371   */\n      swap1\n      pop\n        /* \"#utility.yul\":11426:11430   */\n      0x20\n        /* \"#utility.yul\":11420:11424   */\n      dup2\n        /* \"#utility.yul\":11416:11431   */\n      add\n        /* \"#utility.yul\":11408:11431   */\n      swap1\n      pop\n        /* \"#utility.yul\":11130:11438   */\n      swap2\n      swap1\n      pop\n      jump\t// out\n        /* \"#utility.yul\":11444:11592   */\n    tag_495:\n        /* \"#utility.yul\":11542:11548   */\n      dup3\n        /* \"#utility.yul\":11537:11540   */\n      dup2\n        /* \"#utility.yul\":11532:11535   */\n      dup4\n        /* \"#utility.yul\":11519:11549   */\n      calldatacopy\n        /* \"#utility.yul\":11583:11584   */\n      0x00\n        /* \"#utility.yul\":11574:11580   */\n      dup4\n        /* \"#utility.yul\":11569:11572   */\n      dup4\n        /* \"#utility.yul\":11565:11581   */\n      add\n        /* \"#utility.yul\":11558:11585   */\n      mstore\n        /* \"#utility.yul\":11444:11592   */\n      pop\n      pop\n      pop\n      jump\t// out\n        /* \"#utility.yul\":11598:12023   */\n    tag_496:\n        /* \"#utility.yul\":11676:11681   */\n      0x00\n        /* \"#utility.yul\":11701:11767   */\n      tag_671\n        /* \"#utility.yul\":11717:11766   */\n      tag_672\n        /* \"#utility.yul\":11759:11765   */\n      dup5\n        /* \"#utility.yul\":11717:11766   */\n      tag_494\n      jump\t// in\n    tag_672:\n        /* \"#utility.yul\":11701:11767   */\n      tag_493\n      jump\t// in\n    tag_671:\n        /* \"#utility.yul\":11692:11767   */\n      swap1\n      pop\n        /* \"#utility.yul\":11790:11796   */\n      dup3\n        /* \"#utility.yul\":11783:11788   */\n      dup2\n        /* \"#utility.yul\":11776:11797   */\n      mstore\n        /* \"#utility.yul\":11828:11832   */\n      0x20\n        /* \"#utility.yul\":11821:11826   */\n      dup2\n        /* \"#utility.yul\":11817:11833   */\n      add\n        /* \"#utility.yul\":11866:11869   */\n      dup5\n        /* \"#utility.yul\":11857:11863   */\n      dup5\n        /* \"#utility.yul\":11852:11855   */\n      dup5\n        /* \"#utility.yul\":11848:11864   */\n      add\n        /* \"#utility.yul\":11845:11870   */\n      gt\n        /* \"#utility.yul\":11842:11954   */\n      iszero\n      tag_673\n      jumpi\n        /* \"#utility.yul\":11873:11952   */\n      tag_674\n      tag_490\n      jump\t// in\n    tag_674:\n        /* \"#utility.yul\":11842:11954   */\n    tag_673:\n        /* \"#utility.yul\":11963:12017   */\n      tag_675\n        /* \"#utility.yul\":12010:12016   */\n      dup5\n        /* \"#utility.yul\":12005:12008   */\n      dup3\n        /* \"#utility.yul\":12000:12003   */\n      dup6\n        /* \"#utility.yul\":11963:12017   */\n      tag_495\n      jump\t// in\n    tag_675:\n        /* \"#utility.yul\":11682:12023   */\n      pop\n        /* \"#utility.yul\":11598:12023   */\n      swap4\n      swap3\n      pop\n      pop\n      pop\n      jump\t// out\n        /* \"#utility.yul\":12043:12383   */\n    tag_497:\n        /* \"#utility.yul\":12099:12104   */\n      0x00\n        /* \"#utility.yul\":12148:12151   */\n      dup3\n        /* \"#utility.yul\":12141:12145   */\n      0x1f\n        /* \"#utility.yul\":12133:12139   */\n      dup4\n        /* \"#utility.yul\":12129:12146   */\n      add\n        /* \"#utility.yul\":12125:12152   */\n      slt\n        /* \"#utility.yul\":12115:12237   */\n      tag_677\n      jumpi\n        /* \"#utility.yul\":12156:12235   */\n      tag_678\n      tag_489\n      jump\t// in\n    tag_678:\n        /* \"#utility.yul\":12115:12237   */\n    tag_677:\n        /* \"#utility.yul\":12273:12279   */\n      dup2\n        /* \"#utility.yul\":12260:12280   */\n      calldataload\n        /* \"#utility.yul\":12298:12377   */\n      tag_679\n        /* \"#utility.yul\":12373:12376   */\n      dup5\n        /* \"#utility.yul\":12365:12371   */\n      dup3\n        /* \"#utility.yul\":12358:12362   */\n      0x20\n        /* \"#utility.yul\":12350:12356   */\n      dup7\n        /* \"#utility.yul\":12346:12363   */\n      add\n        /* \"#utility.yul\":12298:12377   */\n      tag_496\n      jump\t// in\n    tag_679:\n        /* \"#utility.yul\":12289:12377   */\n      swap2\n      pop\n        /* \"#utility.yul\":12105:12383   */\n      pop\n        /* \"#utility.yul\":12043:12383   */\n      swap3\n      swap2\n      pop\n      pop\n      jump\t// out\n        /* \"#utility.yul\":12389:12898   */\n    tag_90:\n        /* \"#utility.yul\":12458:12464   */\n      0x00\n        /* \"#utility.yul\":12507:12509   */\n      0x20\n        /* \"#utility.yul\":12495:12504   */\n      dup3\n        /* \"#utility.yul\":12486:12493   */\n      dup5\n        /* \"#utility.yul\":12482:12505   */\n      sub\n        /* \"#utility.yul\":12478:12510   */\n      slt\n        /* \"#utility.yul\":12475:12594   */\n      iszero\n      tag_681\n      jumpi\n        /* \"#utility.yul\":12513:12592   */\n      tag_682\n      tag_457\n      jump\t// in\n    tag_682:\n        /* \"#utility.yul\":12475:12594   */\n    tag_681:\n        /* \"#utility.yul\":12661:12662   */\n      0x00\n        /* \"#utility.yul\":12650:12659   */\n      dup3\n        /* \"#utility.yul\":12646:12663   */\n      add\n        /* \"#utility.yul\":12633:12664   */\n      calldataload\n        /* \"#utility.yul\":12691:12709   */\n      0xffffffffffffffff\n        /* \"#utility.yul\":12683:12689   */\n      dup2\n        /* \"#utility.yul\":12680:12710   */\n      gt\n        /* \"#utility.yul\":12677:12794   */\n      iszero\n      tag_683\n      jumpi\n        /* \"#utility.yul\":12713:12792   */\n      tag_684\n      tag_458\n      jump\t// in\n    tag_684:\n        /* \"#utility.yul\":12677:12794   */\n    tag_683:\n        /* \"#utility.yul\":12818:12881   */\n      tag_685\n        /* \"#utility.yul\":12873:12880   */\n      dup5\n        /* \"#utility.yul\":12864:12870   */\n      dup3\n        /* \"#utility.yul\":12853:12862   */\n      dup6\n        /* \"#utility.yul\":12849:12871   */\n      add\n        /* \"#utility.yul\":12818:12881   */\n      tag_497\n      jump\t// in\n    tag_685:\n        /* \"#utility.yul\":12808:12881   */\n      swap2\n      pop\n        /* \"#utility.yul\":12604:12891   */\n      pop\n        /* \"#utility.yul\":12389:12898   */\n      swap3\n      swap2\n      pop\n      pop\n      jump\t// out\n        /* \"#utility.yul\":12904:13139   */\n    tag_498:\n        /* \"#utility.yul\":13044:13078   */\n      0x596f752063616e206f6e6c7920766f7465206966207468657265206973206d6f\n        /* \"#utility.yul\":13040:13041   */\n      0x00\n        /* \"#utility.yul\":13032:13038   */\n      dup3\n        /* \"#utility.yul\":13028:13042   */\n      add\n        /* \"#utility.yul\":13021:13079   */\n      mstore\n        /* \"#utility.yul\":13113:13131   */\n      0x7265207468616e20312077696e6e657200000000000000000000000000000000\n        /* \"#utility.yul\":13108:13110   */\n      0x20\n        /* \"#utility.yul\":13100:13106   */\n      dup3\n        /* \"#utility.yul\":13096:13111   */\n      add\n        /* \"#utility.yul\":13089:13132   */\n      mstore\n        /* \"#utility.yul\":12904:13139   */\n      pop\n      jump\t// out\n        /* \"#utility.yul\":13145:13511   */\n    tag_499:\n        /* \"#utility.yul\":13287:13290   */\n      0x00\n        /* \"#utility.yul\":13308:13375   */\n      tag_688\n        /* \"#utility.yul\":13372:13374   */\n      0x30\n        /* \"#utility.yul\":13367:13370   */\n      dup4\n        /* \"#utility.yul\":13308:13375   */\n      tag_468\n      jump\t// in\n    tag_688:\n        /* \"#utility.yul\":13301:13375   */\n      swap2\n      pop\n        /* \"#utility.yul\":13384:13477   */\n      tag_689\n        /* \"#utility.yul\":13473:13476   */\n      dup3\n        /* \"#utility.yul\":13384:13477   */\n      tag_498\n      jump\t// in\n    tag_689:\n        /* \"#utility.yul\":13502:13504   */\n      0x40\n        /* \"#utility.yul\":13497:13500   */\n      dup3\n        /* \"#utility.yul\":13493:13505   */\n      add\n        /* \"#utility.yul\":13486:13505   */\n      swap1\n      pop\n        /* \"#utility.yul\":13145:13511   */\n      swap2\n      swap1\n      pop\n      jump\t// out\n        /* \"#utility.yul\":13517:13936   */\n    tag_116:\n        /* \"#utility.yul\":13683:13687   */\n      0x00\n        /* \"#utility.yul\":13721:13723   */\n      0x20\n        /* \"#utility.yul\":13710:13719   */\n      dup3\n        /* \"#utility.yul\":13706:13724   */\n      add\n        /* \"#utility.yul\":13698:13724   */\n      swap1\n      pop\n        /* \"#utility.yul\":13770:13779   */\n      dup2\n        /* \"#utility.yul\":13764:13768   */\n      dup2\n        /* \"#utility.yul\":13760:13780   */\n      sub\n        /* \"#utility.yul\":13756:13757   */\n      0x00\n        /* \"#utility.yul\":13745:13754   */\n      dup4\n        /* \"#utility.yul\":13741:13758   */\n      add\n        /* \"#utility.yul\":13734:13781   */\n      mstore\n        /* \"#utility.yul\":13798:13929   */\n      tag_691\n        /* \"#utility.yul\":13924:13928   */\n      dup2\n        /* \"#utility.yul\":13798:13929   */\n      tag_499\n      jump\t// in\n    tag_691:\n        /* \"#utility.yul\":13790:13929   */\n      swap1\n      pop\n        /* \"#utility.yul\":13517:13936   */\n      swap2\n      swap1\n      pop\n      jump\t// out\n        /* \"#utility.yul\":13942:14162   */\n    tag_500:\n        /* \"#utility.yul\":14082:14116   */\n      0x54686520766f74696e672073657373696f6e206973206e6f7420737461727465\n        /* \"#utility.yul\":14078:14079   */\n      0x00\n        /* \"#utility.yul\":14070:14076   */\n      dup3\n        /* \"#utility.yul\":14066:14080   */\n      add\n        /* \"#utility.yul\":14059:14117   */\n      mstore\n        /* \"#utility.yul\":14151:14154   */\n      0x6400000000000000000000000000000000000000000000000000000000000000\n        /* \"#utility.yul\":14146:14148   */\n      0x20\n        /* \"#utility.yul\":14138:14144   */\n      dup3\n        /* \"#utility.yul\":14134:14149   */\n      add\n        /* \"#utility.yul\":14127:14155   */\n      mstore\n        /* \"#utility.yul\":13942:14162   */\n      pop\n      jump\t// out\n        /* \"#utility.yul\":14168:14534   */\n    tag_501:\n        /* \"#utility.yul\":14310:14313   */\n      0x00\n        /* \"#utility.yul\":14331:14398   */\n      tag_694\n        /* \"#utility.yul\":14395:14397   */\n      0x21\n        /* \"#utility.yul\":14390:14393   */\n      dup4\n        /* \"#utility.yul\":14331:14398   */\n      tag_468\n      jump\t// in\n    tag_694:\n        /* \"#utility.yul\":14324:14398   */\n      swap2\n      pop\n        /* \"#utility.yul\":14407:14500   */\n      tag_695\n        /* \"#utility.yul\":14496:14499   */\n      dup3\n        /* \"#utility.yul\":14407:14500   */\n      tag_500\n      jump\t// in\n    tag_695:\n        /* \"#utility.yul\":14525:14527   */\n      0x40\n        /* \"#utility.yul\":14520:14523   */\n      dup3\n        /* \"#utility.yul\":14516:14528   */\n      add\n        /* \"#utility.yul\":14509:14528   */\n      swap1\n      pop\n        /* \"#utility.yul\":14168:14534   */\n      swap2\n      swap1\n      pop\n      jump\t// out\n        /* \"#utility.yul\":14540:14959   */\n    tag_125:\n        /* \"#utility.yul\":14706:14710   */\n      0x00\n        /* \"#utility.yul\":14744:14746   */\n      0x20\n        /* \"#utility.yul\":14733:14742   */\n      dup3\n        /* \"#utility.yul\":14729:14747   */\n      add\n        /* \"#utility.yul\":14721:14747   */\n      swap1\n      pop\n        /* \"#utility.yul\":14793:14802   */\n      dup2\n        /* \"#utility.yul\":14787:14791   */\n      dup2\n        /* \"#utility.yul\":14783:14803   */\n      sub\n        /* \"#utility.yul\":14779:14780   */\n      0x00\n        /* \"#utility.yul\":14768:14777   */\n      dup4\n        /* \"#utility.yul\":14764:14781   */\n      add\n        /* \"#utility.yul\":14757:14804   */\n      mstore\n        /* \"#utility.yul\":14821:14952   */\n      tag_697\n        /* \"#utility.yul\":14947:14951   */\n      dup2\n        /* \"#utility.yul\":14821:14952   */\n      tag_501\n      jump\t// in\n    tag_697:\n        /* \"#utility.yul\":14813:14952   */\n      swap1\n      pop\n        /* \"#utility.yul\":14540:14959   */\n      swap2\n      swap1\n      pop\n      jump\t// out\n        /* \"#utility.yul\":14965:15137   */\n    tag_502:\n        /* \"#utility.yul\":15105:15129   */\n      0x596f7520617265206e6f74207265676973746572656400000000000000000000\n        /* \"#utility.yul\":15101:15102   */\n      0x00\n        /* \"#utility.yul\":15093:15099   */\n      dup3\n        /* \"#utility.yul\":15089:15103   */\n      add\n        /* \"#utility.yul\":15082:15130   */\n      mstore\n        /* \"#utility.yul\":14965:15137   */\n      pop\n      jump\t// out\n        /* \"#utility.yul\":15143:15509   */\n    tag_503:\n        /* \"#utility.yul\":15285:15288   */\n      0x00\n        /* \"#utility.yul\":15306:15373   */\n      tag_700\n        /* \"#utility.yul\":15370:15372   */\n      0x16\n        /* \"#utility.yul\":15365:15368   */\n      dup4\n        /* \"#utility.yul\":15306:15373   */\n      tag_468\n      jump\t// in\n    tag_700:\n        /* \"#utility.yul\":15299:15373   */\n      swap2\n      pop\n        /* \"#utility.yul\":15382:15475   */\n      tag_701\n        /* \"#utility.yul\":15471:15474   */\n      dup3\n        /* \"#utility.yul\":15382:15475   */\n      tag_502\n      jump\t// in\n    tag_701:\n        /* \"#utility.yul\":15500:15502   */\n      0x20\n        /* \"#utility.yul\":15495:15498   */\n      dup3\n        /* \"#utility.yul\":15491:15503   */\n      add\n        /* \"#utility.yul\":15484:15503   */\n      swap1\n      pop\n        /* \"#utility.yul\":15143:15509   */\n      swap2\n      swap1\n      pop\n      jump\t// out\n        /* \"#utility.yul\":15515:15934   */\n    tag_128:\n        /* \"#utility.yul\":15681:15685   */\n      0x00\n        /* \"#utility.yul\":15719:15721   */\n      0x20\n        /* \"#utility.yul\":15708:15717   */\n      dup3\n        /* \"#utility.yul\":15704:15722   */\n      add\n        /* \"#utility.yul\":15696:15722   */\n      swap1\n      pop\n        /* \"#utility.yul\":15768:15777   */\n      dup2\n        /* \"#utility.yul\":15762:15766   */\n      dup2\n        /* \"#utility.yul\":15758:15778   */\n      sub\n        /* \"#utility.yul\":15754:15755   */\n      0x00\n        /* \"#utility.yul\":15743:15752   */\n      dup4\n        /* \"#utility.yul\":15739:15756   */\n      add\n        /* \"#utility.yul\":15732:15779   */\n      mstore\n        /* \"#utility.yul\":15796:15927   */\n      tag_703\n        /* \"#utility.yul\":15922:15926   */\n      dup2\n        /* \"#utility.yul\":15796:15927   */\n      tag_503\n      jump\t// in\n    tag_703:\n        /* \"#utility.yul\":15788:15927   */\n      swap1\n      pop\n        /* \"#utility.yul\":15515:15934   */\n      swap2\n      swap1\n      pop\n      jump\t// out\n        /* \"#utility.yul\":15940:16107   */\n    tag_504:\n        /* \"#utility.yul\":16080:16099   */\n      0x596f7520616c726561647920766f746564000000000000000000000000000000\n        /* \"#utility.yul\":16076:16077   */\n      0x00\n        /* \"#utility.yul\":16068:16074   */\n      dup3\n        /* \"#utility.yul\":16064:16078   */\n      add\n        /* \"#utility.yul\":16057:16100   */\n      mstore\n        /* \"#utility.yul\":15940:16107   */\n      pop\n      jump\t// out\n        /* \"#utility.yul\":16113:16479   */\n    tag_505:\n        /* \"#utility.yul\":16255:16258   */\n      0x00\n        /* \"#utility.yul\":16276:16343   */\n      tag_706\n        /* \"#utility.yul\":16340:16342   */\n      0x11\n        /* \"#utility.yul\":16335:16338   */\n      dup4\n        /* \"#utility.yul\":16276:16343   */\n      tag_468\n      jump\t// in\n    tag_706:\n        /* \"#utility.yul\":16269:16343   */\n      swap2\n      pop\n        /* \"#utility.yul\":16352:16445   */\n      tag_707\n        /* \"#utility.yul\":16441:16444   */\n      dup3\n        /* \"#utility.yul\":16352:16445   */\n      tag_504\n      jump\t// in\n    tag_707:\n        /* \"#utility.yul\":16470:16472   */\n      0x20\n        /* \"#utility.yul\":16465:16468   */\n      dup3\n        /* \"#utility.yul\":16461:16473   */\n      add\n        /* \"#utility.yul\":16454:16473   */\n      swap1\n      pop\n        /* \"#utility.yul\":16113:16479   */\n      swap2\n      swap1\n      pop\n      jump\t// out\n        /* \"#utility.yul\":16485:16904   */\n    tag_131:\n        /* \"#utility.yul\":16651:16655   */\n      0x00\n        /* \"#utility.yul\":16689:16691   */\n      0x20\n        /* \"#utility.yul\":16678:16687   */\n      dup3\n        /* \"#utility.yul\":16674:16692   */\n      add\n        /* \"#utility.yul\":16666:16692   */\n      swap1\n      pop\n        /* \"#utility.yul\":16738:16747   */\n      dup2\n        /* \"#utility.yul\":16732:16736   */\n      dup2\n        /* \"#utility.yul\":16728:16748   */\n      sub\n        /* \"#utility.yul\":16724:16725   */\n      0x00\n        /* \"#utility.yul\":16713:16722   */\n      dup4\n        /* \"#utility.yul\":16709:16726   */\n      add\n        /* \"#utility.yul\":16702:16749   */\n      mstore\n        /* \"#utility.yul\":16766:16897   */\n      tag_709\n        /* \"#utility.yul\":16892:16896   */\n      dup2\n        /* \"#utility.yul\":16766:16897   */\n      tag_505\n      jump\t// in\n    tag_709:\n        /* \"#utility.yul\":16758:16897   */\n      swap1\n      pop\n        /* \"#utility.yul\":16485:16904   */\n      swap2\n      swap1\n      pop\n      jump\t// out\n        /* \"#utility.yul\":16910:17092   */\n    tag_506:\n        /* \"#utility.yul\":17050:17084   */\n      0x546869732070726f706f73616c20494420646f6573206e6f7420657869737473\n        /* \"#utility.yul\":17046:17047   */\n      0x00\n        /* \"#utility.yul\":17038:17044   */\n      dup3\n        /* \"#utility.yul\":17034:17048   */\n      add\n        /* \"#utility.yul\":17027:17085   */\n      mstore\n        /* \"#utility.yul\":16910:17092   */\n      pop\n      jump\t// out\n        /* \"#utility.yul\":17098:17464   */\n    tag_507:\n        /* \"#utility.yul\":17240:17243   */\n      0x00\n        /* \"#utility.yul\":17261:17328   */\n      tag_712\n        /* \"#utility.yul\":17325:17327   */\n      0x20\n        /* \"#utility.yul\":17320:17323   */\n      dup4\n        /* \"#utility.yul\":17261:17328   */\n      tag_468\n      jump\t// in\n    tag_712:\n        /* \"#utility.yul\":17254:17328   */\n      swap2\n      pop\n        /* \"#utility.yul\":17337:17430   */\n      tag_713\n        /* \"#utility.yul\":17426:17429   */\n      dup3\n        /* \"#utility.yul\":17337:17430   */\n      tag_506\n      jump\t// in\n    tag_713:\n        /* \"#utility.yul\":17455:17457   */\n      0x20\n        /* \"#utility.yul\":17450:17453   */\n      dup3\n        /* \"#utility.yul\":17446:17458   */\n      add\n        /* \"#utility.yul\":17439:17458   */\n      swap1\n      pop\n        /* \"#utility.yul\":17098:17464   */\n      swap2\n      swap1\n      pop\n      jump\t// out\n        /* \"#utility.yul\":17470:17889   */\n    tag_135:\n        /* \"#utility.yul\":17636:17640   */\n      0x00\n        /* \"#utility.yul\":17674:17676   */\n      0x20\n        /* \"#utility.yul\":17663:17672   */\n      dup3\n        /* \"#utility.yul\":17659:17677   */\n      add\n        /* \"#utility.yul\":17651:17677   */\n      swap1\n      pop\n        /* \"#utility.yul\":17723:17732   */\n      dup2\n        /* \"#utility.yul\":17717:17721   */\n      dup2\n        /* \"#utility.yul\":17713:17733   */\n      sub\n        /* \"#utility.yul\":17709:17710   */\n      0x00\n        /* \"#utility.yul\":17698:17707   */\n      dup4\n        /* \"#utility.yul\":17694:17711   */\n      add\n        /* \"#utility.yul\":17687:17734   */\n      mstore\n        /* \"#utility.yul\":17751:17882   */\n      tag_715\n        /* \"#utility.yul\":17877:17881   */\n      dup2\n        /* \"#utility.yul\":17751:17882   */\n      tag_507\n      jump\t// in\n    tag_715:\n        /* \"#utility.yul\":17743:17882   */\n      swap1\n      pop\n        /* \"#utility.yul\":17470:17889   */\n      swap2\n      swap1\n      pop\n      jump\t// out\n        /* \"#utility.yul\":17895:18075   */\n    tag_138:\n        /* \"#utility.yul\":17943:18020   */\n      0x4e487b7100000000000000000000000000000000000000000000000000000000\n        /* \"#utility.yul\":17940:17941   */\n      0x00\n        /* \"#utility.yul\":17933:18021   */\n      mstore\n        /* \"#utility.yul\":18040:18044   */\n      0x32\n        /* \"#utility.yul\":18037:18038   */\n      0x04\n        /* \"#utility.yul\":18030:18045   */\n      mstore\n        /* \"#utility.yul\":18064:18068   */\n      0x24\n        /* \"#utility.yul\":18061:18062   */\n      0x00\n        /* \"#utility.yul\":18054:18069   */\n      revert\n        /* \"#utility.yul\":18081:18261   */\n    tag_508:\n        /* \"#utility.yul\":18129:18206   */\n      0x4e487b7100000000000000000000000000000000000000000000000000000000\n        /* \"#utility.yul\":18126:18127   */\n      0x00\n        /* \"#utility.yul\":18119:18207   */\n      mstore\n        /* \"#utility.yul\":18226:18230   */\n      0x11\n        /* \"#utility.yul\":18223:18224   */\n      0x04\n        /* \"#utility.yul\":18216:18231   */\n      mstore\n        /* \"#utility.yul\":18250:18254   */\n      0x24\n        /* \"#utility.yul\":18247:18248   */\n      0x00\n        /* \"#utility.yul\":18240:18255   */\n      revert\n        /* \"#utility.yul\":18267:18500   */\n    tag_141:\n        /* \"#utility.yul\":18306:18309   */\n      0x00\n        /* \"#utility.yul\":18329:18353   */\n      tag_719\n        /* \"#utility.yul\":18347:18352   */\n      dup3\n        /* \"#utility.yul\":18329:18353   */\n      tag_459\n      jump\t// in\n    tag_719:\n        /* \"#utility.yul\":18320:18353   */\n      swap2\n      pop\n        /* \"#utility.yul\":18375:18441   */\n      0xffffffffffffffffffffffffffffffffffffffffffffffffffffffffffffffff\n        /* \"#utility.yul\":18368:18373   */\n      dup3\n        /* \"#utility.yul\":18365:18442   */\n      sub\n        /* \"#utility.yul\":18362:18465   */\n      tag_720\n      jumpi\n        /* \"#utility.yul\":18445:18463   */\n      tag_721\n      tag_508\n      jump\t// in\n    tag_721:\n        /* \"#utility.yul\":18362:18465   */\n    tag_720:\n        /* \"#utility.yul\":18492:18493   */\n      0x01\n        /* \"#utility.yul\":18485:18490   */\n      dup3\n        /* \"#utility.yul\":18481:18494   */\n      add\n        /* \"#utility.yul\":18474:18494   */\n      swap1\n      pop\n        /* \"#utility.yul\":18267:18500   */\n      swap2\n      swap1\n      pop\n      jump\t// out\n        /* \"#utility.yul\":18506:18838   */\n    tag_145:\n        /* \"#utility.yul\":18627:18631   */\n      0x00\n        /* \"#utility.yul\":18665:18667   */\n      0x40\n        /* \"#utility.yul\":18654:18663   */\n      dup3\n        /* \"#utility.yul\":18650:18668   */\n      add\n        /* \"#utility.yul\":18642:18668   */\n      swap1\n      pop\n        /* \"#utility.yul\":18678:18749   */\n      tag_723\n        /* \"#utility.yul\":18746:18747   */\n      0x00\n        /* \"#utility.yul\":18735:18744   */\n      dup4\n        /* \"#utility.yul\":18731:18748   */\n      add\n        /* \"#utility.yul\":18722:18728   */\n      dup6\n        /* \"#utility.yul\":18678:18749   */\n      tag_483\n      jump\t// in\n    tag_723:\n        /* \"#utility.yul\":18759:18831   */\n      tag_724\n        /* \"#utility.yul\":18827:18829   */\n      0x20\n        /* \"#utility.yul\":18816:18825   */\n      dup4\n        /* \"#utility.yul\":18812:18830   */\n      add\n        /* \"#utility.yul\":18803:18809   */\n      dup5\n        /* \"#utility.yul\":18759:18831   */\n      tag_462\n      jump\t// in\n    tag_724:\n        /* \"#utility.yul\":18506:18838   */\n      swap4\n      swap3\n      pop\n      pop\n      pop\n      jump\t// out\n        /* \"#utility.yul\":18844:19071   */\n    tag_509:\n        /* \"#utility.yul\":18984:19018   */\n      0x596f7520617265206e6f7420696e20766f74657220726567697374726174696f\n        /* \"#utility.yul\":18980:18981   */\n      0x00\n        /* \"#utility.yul\":18972:18978   */\n      dup3\n        /* \"#utility.yul\":18968:18982   */\n      add\n        /* \"#utility.yul\":18961:19019   */\n      mstore\n        /* \"#utility.yul\":19053:19063   */\n      0x6e20706572696f64000000000000000000000000000000000000000000000000\n        /* \"#utility.yul\":19048:19050   */\n      0x20\n        /* \"#utility.yul\":19040:19046   */\n      dup3\n        /* \"#utility.yul\":19036:19051   */\n      add\n        /* \"#utility.yul\":19029:19064   */\n      mstore\n        /* \"#utility.yul\":18844:19071   */\n      pop\n      jump\t// out\n        /* \"#utility.yul\":19077:19443   */\n    tag_510:\n        /* \"#utility.yul\":19219:19222   */\n      0x00\n        /* \"#utility.yul\":19240:19307   */\n      tag_727\n        /* \"#utility.yul\":19304:19306   */\n      0x28\n        /* \"#utility.yul\":19299:19302   */\n      dup4\n        /* \"#utility.yul\":19240:19307   */\n      tag_468\n      jump\t// in\n    tag_727:\n        /* \"#utility.yul\":19233:19307   */\n      swap2\n      pop\n        /* \"#utility.yul\":19316:19409   */\n      tag_728\n        /* \"#utility.yul\":19405:19408   */\n      dup3\n        /* \"#utility.yul\":19316:19409   */\n      tag_509\n      jump\t// in\n    tag_728:\n        /* \"#utility.yul\":19434:19436   */\n      0x40\n        /* \"#utility.yul\":19429:19432   */\n      dup3\n        /* \"#utility.yul\":19425:19437   */\n      add\n        /* \"#utility.yul\":19418:19437   */\n      swap1\n      pop\n        /* \"#utility.yul\":19077:19443   */\n      swap2\n      swap1\n      pop\n      jump\t// out\n        /* \"#utility.yul\":19449:19868   */\n    tag_157:\n        /* \"#utility.yul\":19615:19619   */\n      0x00\n        /* \"#utility.yul\":19653:19655   */\n      0x20\n        /* \"#utility.yul\":19642:19651   */\n      dup3\n        /* \"#utility.yul\":19638:19656   */\n      add\n        /* \"#utility.yul\":19630:19656   */\n      swap1\n      pop\n        /* \"#utility.yul\":19702:19711   */\n      dup2\n        /* \"#utility.yul\":19696:19700   */\n      dup2\n        /* \"#utility.yul\":19692:19712   */\n      sub\n        /* \"#utility.yul\":19688:19689   */\n      0x00\n        /* \"#utility.yul\":19677:19686   */\n      dup4\n        /* \"#utility.yul\":19673:19690   */\n      add\n        /* \"#utility.yul\":19666:19713   */\n      mstore\n        /* \"#utility.yul\":19730:19861   */\n      tag_730\n        /* \"#utility.yul\":19856:19860   */\n      dup2\n        /* \"#utility.yul\":19730:19861   */\n      tag_510\n      jump\t// in\n    tag_730:\n        /* \"#utility.yul\":19722:19861   */\n      swap1\n      pop\n        /* \"#utility.yul\":19449:19868   */\n      swap2\n      swap1\n      pop\n      jump\t// out\n        /* \"#utility.yul\":19874:20056   */\n    tag_511:\n        /* \"#utility.yul\":20014:20048   */\n      0x596f7520616c7265616479206861766520616464207468697320616472657373\n        /* \"#utility.yul\":20010:20011   */\n      0x00\n        /* \"#utility.yul\":20002:20008   */\n      dup3\n        /* \"#utility.yul\":19998:20012   */\n      add\n        /* \"#utility.yul\":19991:20049   */\n      mstore\n        /* \"#utility.yul\":19874:20056   */\n      pop\n      jump\t// out\n        /* \"#utility.yul\":20062:20428   */\n    tag_512:\n        /* \"#utility.yul\":20204:20207   */\n      0x00\n        /* \"#utility.yul\":20225:20292   */\n      tag_733\n        /* \"#utility.yul\":20289:20291   */\n      0x20\n        /* \"#utility.yul\":20284:20287   */\n      dup4\n        /* \"#utility.yul\":20225:20292   */\n      tag_468\n      jump\t// in\n    tag_733:\n        /* \"#utility.yul\":20218:20292   */\n      swap2\n      pop\n        /* \"#utility.yul\":20301:20394   */\n      tag_734\n        /* \"#utility.yul\":20390:20393   */\n      dup3\n        /* \"#utility.yul\":20301:20394   */\n      tag_511\n      jump\t// in\n    tag_734:\n        /* \"#utility.yul\":20419:20421   */\n      0x20\n        /* \"#utility.yul\":20414:20417   */\n      dup3\n        /* \"#utility.yul\":20410:20422   */\n      add\n        /* \"#utility.yul\":20403:20422   */\n      swap1\n      pop\n        /* \"#utility.yul\":20062:20428   */\n      swap2\n      swap1\n      pop\n      jump\t// out\n        /* \"#utility.yul\":20434:20853   */\n    tag_160:\n        /* \"#utility.yul\":20600:20604   */\n      0x00\n        /* \"#utility.yul\":20638:20640   */\n      0x20\n        /* \"#utility.yul\":20627:20636   */\n      dup3\n        /* \"#utility.yul\":20623:20641   */\n      add\n        /* \"#utility.yul\":20615:20641   */\n      swap1\n      pop\n        /* \"#utility.yul\":20687:20696   */\n      dup2\n        /* \"#utility.yul\":20681:20685   */\n      dup2\n        /* \"#utility.yul\":20677:20697   */\n      sub\n        /* \"#utility.yul\":20673:20674   */\n      0x00\n        /* \"#utility.yul\":20662:20671   */\n      dup4\n        /* \"#utility.yul\":20658:20675   */\n      add\n        /* \"#utility.yul\":20651:20698   */\n      mstore\n        /* \"#utility.yul\":20715:20846   */\n      tag_736\n        /* \"#utility.yul\":20841:20845   */\n      dup2\n        /* \"#utility.yul\":20715:20846   */\n      tag_512\n      jump\t// in\n    tag_736:\n        /* \"#utility.yul\":20707:20846   */\n      swap1\n      pop\n        /* \"#utility.yul\":20434:20853   */\n      swap2\n      swap1\n      pop\n      jump\t// out\n        /* \"#utility.yul\":20859:21082   */\n    tag_513:\n        /* \"#utility.yul\":20999:21033   */\n      0x5468652077696e6e65722068617665206e6f74206265656e2063686f6f73656e\n        /* \"#utility.yul\":20995:20996   */\n      0x00\n        /* \"#utility.yul\":20987:20993   */\n      dup3\n        /* \"#utility.yul\":20983:20997   */\n      add\n        /* \"#utility.yul\":20976:21034   */\n      mstore\n        /* \"#utility.yul\":21068:21074   */\n      0x2079657400000000000000000000000000000000000000000000000000000000\n        /* \"#utility.yul\":21063:21065   */\n      0x20\n        /* \"#utility.yul\":21055:21061   */\n      dup3\n        /* \"#utility.yul\":21051:21066   */\n      add\n        /* \"#utility.yul\":21044:21075   */\n      mstore\n        /* \"#utility.yul\":20859:21082   */\n      pop\n      jump\t// out\n        /* \"#utility.yul\":21088:21454   */\n    tag_514:\n        /* \"#utility.yul\":21230:21233   */\n      0x00\n        /* \"#utility.yul\":21251:21318   */\n      tag_739\n        /* \"#utility.yul\":21315:21317   */\n      0x24\n        /* \"#utility.yul\":21310:21313   */\n      dup4\n        /* \"#utility.yul\":21251:21318   */\n      tag_468\n      jump\t// in\n    tag_739:\n        /* \"#utility.yul\":21244:21318   */\n      swap2\n      pop\n        /* \"#utility.yul\":21327:21420   */\n      tag_740\n        /* \"#utility.yul\":21416:21419   */\n      dup3\n        /* \"#utility.yul\":21327:21420   */\n      tag_513\n      jump\t// in\n    tag_740:\n        /* \"#utility.yul\":21445:21447   */\n      0x40\n        /* \"#utility.yul\":21440:21443   */\n      dup3\n        /* \"#utility.yul\":21436:21448   */\n      add\n        /* \"#utility.yul\":21429:21448   */\n      swap1\n      pop\n        /* \"#utility.yul\":21088:21454   */\n      swap2\n      swap1\n      pop\n      jump\t// out\n        /* \"#utility.yul\":21460:21879   */\n    tag_170:\n        /* \"#utility.yul\":21626:21630   */\n      0x00\n        /* \"#utility.yul\":21664:21666   */\n      0x20\n        /* \"#utility.yul\":21653:21662   */\n      dup3\n        /* \"#utility.yul\":21649:21667   */\n      add\n        /* \"#utility.yul\":21641:21667   */\n      swap1\n      pop\n        /* \"#utility.yul\":21713:21722   */\n      dup2\n        /* \"#utility.yul\":21707:21711   */\n      dup2\n        /* \"#utility.yul\":21703:21723   */\n      sub\n        /* \"#utility.yul\":21699:21700   */\n      0x00\n        /* \"#utility.yul\":21688:21697   */\n      dup4\n        /* \"#utility.yul\":21684:21701   */\n      add\n        /* \"#utility.yul\":21677:21724   */\n      mstore\n        /* \"#utility.yul\":21741:21872   */\n      tag_742\n        /* \"#utility.yul\":21867:21871   */\n      dup2\n        /* \"#utility.yul\":21741:21872   */\n      tag_514\n      jump\t// in\n    tag_742:\n        /* \"#utility.yul\":21733:21872   */\n      swap1\n      pop\n        /* \"#utility.yul\":21460:21879   */\n      swap2\n      swap1\n      pop\n      jump\t// out\n        /* \"#utility.yul\":21885:22065   */\n    tag_515:\n        /* \"#utility.yul\":21933:22010   */\n      0x4e487b7100000000000000000000000000000000000000000000000000000000\n        /* \"#utility.yul\":21930:21931   */\n      0x00\n        /* \"#utility.yul\":21923:22011   */\n      mstore\n        /* \"#utility.yul\":22030:22034   */\n      0x22\n        /* \"#utility.yul\":22027:22028   */\n      0x04\n        /* \"#utility.yul\":22020:22035   */\n      mstore\n        /* \"#utility.yul\":22054:22058   */\n      0x24\n        /* \"#utility.yul\":22051:22052   */\n      0x00\n        /* \"#utility.yul\":22044:22059   */\n      revert\n        /* \"#utility.yul\":22071:22391   */\n    tag_175:\n        /* \"#utility.yul\":22115:22121   */\n      0x00\n        /* \"#utility.yul\":22152:22153   */\n      0x02\n        /* \"#utility.yul\":22146:22150   */\n      dup3\n        /* \"#utility.yul\":22142:22154   */\n      div\n        /* \"#utility.yul\":22132:22154   */\n      swap1\n      pop\n        /* \"#utility.yul\":22199:22200   */\n      0x01\n        /* \"#utility.yul\":22193:22197   */\n      dup3\n        /* \"#utility.yul\":22189:22201   */\n      and\n        /* \"#utility.yul\":22220:22238   */\n      dup1\n        /* \"#utility.yul\":22210:22291   */\n      tag_745\n      jumpi\n        /* \"#utility.yul\":22276:22280   */\n      0x7f\n        /* \"#utility.yul\":22268:22274   */\n      dup3\n        /* \"#utility.yul\":22264:22281   */\n      and\n        /* \"#utility.yul\":22254:22281   */\n      swap2\n      pop\n        /* \"#utility.yul\":22210:22291   */\n    tag_745:\n        /* \"#utility.yul\":22338:22340   */\n      0x20\n        /* \"#utility.yul\":22330:22336   */\n      dup3\n        /* \"#utility.yul\":22327:22341   */\n      lt\n        /* \"#utility.yul\":22307:22325   */\n      dup2\n        /* \"#utility.yul\":22304:22342   */\n      sub\n        /* \"#utility.yul\":22301:22385   */\n      tag_746\n      jumpi\n        /* \"#utility.yul\":22357:22375   */\n      tag_747\n      tag_515\n      jump\t// in\n    tag_747:\n        /* \"#utility.yul\":22301:22385   */\n    tag_746:\n        /* \"#utility.yul\":22122:22391   */\n      pop\n        /* \"#utility.yul\":22071:22391   */\n      swap2\n      swap1\n      pop\n      jump\t// out\n        /* \"#utility.yul\":22397:22628   */\n    tag_516:\n        /* \"#utility.yul\":22537:22571   */\n      0x596f752063616e206e6f7420737461727420616761696e207468652070726f70\n        /* \"#utility.yul\":22533:22534   */\n      0x00\n        /* \"#utility.yul\":22525:22531   */\n      dup3\n        /* \"#utility.yul\":22521:22535   */\n      add\n        /* \"#utility.yul\":22514:22572   */\n      mstore\n        /* \"#utility.yul\":22606:22620   */\n      0x6f73616c2073657373696f6e0000000000000000000000000000000000000000\n        /* \"#utility.yul\":22601:22603   */\n      0x20\n        /* \"#utility.yul\":22593:22599   */\n      dup3\n        /* \"#utility.yul\":22589:22604   */\n      add\n        /* \"#utility.yul\":22582:22621   */\n      mstore\n        /* \"#utility.yul\":22397:22628   */\n      pop\n      jump\t// out\n        /* \"#utility.yul\":22634:23000   */\n    tag_517:\n        /* \"#utility.yul\":22776:22779   */\n      0x00\n        /* \"#utility.yul\":22797:22864   */\n      tag_750\n        /* \"#utility.yul\":22861:22863   */\n      0x2c\n        /* \"#utility.yul\":22856:22859   */\n      dup4\n        /* \"#utility.yul\":22797:22864   */\n      tag_468\n      jump\t// in\n    tag_750:\n        /* \"#utility.yul\":22790:22864   */\n      swap2\n      pop\n        /* \"#utility.yul\":22873:22966   */\n      tag_751\n        /* \"#utility.yul\":22962:22965   */\n      dup3\n        /* \"#utility.yul\":22873:22966   */\n      tag_516\n      jump\t// in\n    tag_751:\n        /* \"#utility.yul\":22991:22993   */\n      0x40\n        /* \"#utility.yul\":22986:22989   */\n      dup3\n        /* \"#utility.yul\":22982:22994   */\n      add\n        /* \"#utility.yul\":22975:22994   */\n      swap1\n      pop\n        /* \"#utility.yul\":22634:23000   */\n      swap2\n      swap1\n      pop\n      jump\t// out\n        /* \"#utility.yul\":23006:23425   */\n    tag_189:\n        /* \"#utility.yul\":23172:23176   */\n      0x00\n        /* \"#utility.yul\":23210:23212   */\n      0x20\n        /* \"#utility.yul\":23199:23208   */\n      dup3\n        /* \"#utility.yul\":23195:23213   */\n      add\n        /* \"#utility.yul\":23187:23213   */\n      swap1\n      pop\n        /* \"#utility.yul\":23259:23268   */\n      dup2\n        /* \"#utility.yul\":23253:23257   */\n      dup2\n        /* \"#utility.yul\":23249:23269   */\n      sub\n        /* \"#utility.yul\":23245:23246   */\n      0x00\n        /* \"#utility.yul\":23234:23243   */\n      dup4\n        /* \"#utility.yul\":23230:23247   */\n      add\n        /* \"#utility.yul\":23223:23270   */\n      mstore\n        /* \"#utility.yul\":23287:23418   */\n      tag_753\n        /* \"#utility.yul\":23413:23417   */\n      dup2\n        /* \"#utility.yul\":23287:23418   */\n      tag_517\n      jump\t// in\n    tag_753:\n        /* \"#utility.yul\":23279:23418   */\n      swap1\n      pop\n        /* \"#utility.yul\":23006:23425   */\n      swap2\n      swap1\n      pop\n      jump\t// out\n        /* \"#utility.yul\":23431:23656   */\n    tag_518:\n        /* \"#utility.yul\":23571:23605   */\n      0x596f75206d757374207265676973746572206174206c65617374203220616464\n        /* \"#utility.yul\":23567:23568   */\n      0x00\n        /* \"#utility.yul\":23559:23565   */\n      dup3\n        /* \"#utility.yul\":23555:23569   */\n      add\n        /* \"#utility.yul\":23548:23606   */\n      mstore\n        /* \"#utility.yul\":23640:23648   */\n      0x7265737365730000000000000000000000000000000000000000000000000000\n        /* \"#utility.yul\":23635:23637   */\n      0x20\n        /* \"#utility.yul\":23627:23633   */\n      dup3\n        /* \"#utility.yul\":23623:23638   */\n      add\n        /* \"#utility.yul\":23616:23649   */\n      mstore\n        /* \"#utility.yul\":23431:23656   */\n      pop\n      jump\t// out\n        /* \"#utility.yul\":23662:24028   */\n    tag_519:\n        /* \"#utility.yul\":23804:23807   */\n      0x00\n        /* \"#utility.yul\":23825:23892   */\n      tag_756\n        /* \"#utility.yul\":23889:23891   */\n      0x26\n        /* \"#utility.yul\":23884:23887   */\n      dup4\n        /* \"#utility.yul\":23825:23892   */\n      tag_468\n      jump\t// in\n    tag_756:\n        /* \"#utility.yul\":23818:23892   */\n      swap2\n      pop\n        /* \"#utility.yul\":23901:23994   */\n      tag_757\n        /* \"#utility.yul\":23990:23993   */\n      dup3\n        /* \"#utility.yul\":23901:23994   */\n      tag_518\n      jump\t// in\n    tag_757:\n        /* \"#utility.yul\":24019:24021   */\n      0x40\n        /* \"#utility.yul\":24014:24017   */\n      dup3\n        /* \"#utility.yul\":24010:24022   */\n      add\n        /* \"#utility.yul\":24003:24022   */\n      swap1\n      pop\n        /* \"#utility.yul\":23662:24028   */\n      swap2\n      swap1\n      pop\n      jump\t// out\n        /* \"#utility.yul\":24034:24453   */\n    tag_192:\n        /* \"#utility.yul\":24200:24204   */\n      0x00\n        /* \"#utility.yul\":24238:24240   */\n      0x20\n        /* \"#utility.yul\":24227:24236   */\n      dup3\n        /* \"#utility.yul\":24223:24241   */\n      add\n        /* \"#utility.yul\":24215:24241   */\n      swap1\n      pop\n        /* \"#utility.yul\":24287:24296   */\n      dup2\n        /* \"#utility.yul\":24281:24285   */\n      dup2\n        /* \"#utility.yul\":24277:24297   */\n      sub\n        /* \"#utility.yul\":24273:24274   */\n      0x00\n        /* \"#utility.yul\":24262:24271   */\n      dup4\n        /* \"#utility.yul\":24258:24275   */\n      add\n        /* \"#utility.yul\":24251:24298   */\n      mstore\n        /* \"#utility.yul\":24315:24446   */\n      tag_759\n        /* \"#utility.yul\":24441:24445   */\n      dup2\n        /* \"#utility.yul\":24315:24446   */\n      tag_519\n      jump\t// in\n    tag_759:\n        /* \"#utility.yul\":24307:24446   */\n      swap1\n      pop\n        /* \"#utility.yul\":24034:24453   */\n      swap2\n      swap1\n      pop\n      jump\t// out\n        /* \"#utility.yul\":24459:24653   */\n    tag_198:\n        /* \"#utility.yul\":24499:24503   */\n      0x00\n        /* \"#utility.yul\":24519:24539   */\n      tag_761\n        /* \"#utility.yul\":24537:24538   */\n      dup3\n        /* \"#utility.yul\":24519:24539   */\n      tag_459\n      jump\t// in\n    tag_761:\n        /* \"#utility.yul\":24514:24539   */\n      swap2\n      pop\n        /* \"#utility.yul\":24553:24573   */\n      tag_762\n        /* \"#utility.yul\":24571:24572   */\n      dup4\n        /* \"#utility.yul\":24553:24573   */\n      tag_459\n      jump\t// in\n    tag_762:\n        /* \"#utility.yul\":24548:24573   */\n      swap3\n      pop\n        /* \"#utility.yul\":24597:24598   */\n      dup3\n        /* \"#utility.yul\":24594:24595   */\n      dup3\n        /* \"#utility.yul\":24590:24599   */\n      sub\n        /* \"#utility.yul\":24582:24599   */\n      swap1\n      pop\n        /* \"#utility.yul\":24621:24622   */\n      dup2\n        /* \"#utility.yul\":24615:24619   */\n      dup2\n        /* \"#utility.yul\":24612:24623   */\n      gt\n        /* \"#utility.yul\":24609:24646   */\n      iszero\n      tag_763\n      jumpi\n        /* \"#utility.yul\":24626:24644   */\n      tag_764\n      tag_508\n      jump\t// in\n    tag_764:\n        /* \"#utility.yul\":24609:24646   */\n    tag_763:\n        /* \"#utility.yul\":24459:24653   */\n      swap3\n      swap2\n      pop\n      pop\n      jump\t// out\n        /* \"#utility.yul\":24659:25055   */\n    tag_202:\n        /* \"#utility.yul\":24812:24816   */\n      0x00\n        /* \"#utility.yul\":24850:24852   */\n      0x40\n        /* \"#utility.yul\":24839:24848   */\n      dup3\n        /* \"#utility.yul\":24835:24853   */\n      add\n        /* \"#utility.yul\":24827:24853   */\n      swap1\n      pop\n        /* \"#utility.yul\":24863:24950   */\n      tag_766\n        /* \"#utility.yul\":24947:24948   */\n      0x00\n        /* \"#utility.yul\":24936:24945   */\n      dup4\n        /* \"#utility.yul\":24932:24949   */\n      add\n        /* \"#utility.yul\":24923:24929   */\n      dup6\n        /* \"#utility.yul\":24863:24950   */\n      tag_487\n      jump\t// in\n    tag_766:\n        /* \"#utility.yul\":24960:25048   */\n      tag_767\n        /* \"#utility.yul\":25044:25046   */\n      0x20\n        /* \"#utility.yul\":25033:25042   */\n      dup4\n        /* \"#utility.yul\":25029:25047   */\n      add\n        /* \"#utility.yul\":25020:25026   */\n      dup5\n        /* \"#utility.yul\":24960:25048   */\n      tag_487\n      jump\t// in\n    tag_767:\n        /* \"#utility.yul\":24659:25055   */\n      swap4\n      swap3\n      pop\n      pop\n      pop\n      jump\t// out\n        /* \"#utility.yul\":25061:25284   */\n    tag_520:\n        /* \"#utility.yul\":25201:25235   */\n      0x5468652070726f706f73616c2073657373696f6e20686173206e6f7420737461\n        /* \"#utility.yul\":25197:25198   */\n      0x00\n        /* \"#utility.yul\":25189:25195   */\n      dup3\n        /* \"#utility.yul\":25185:25199   */\n      add\n        /* \"#utility.yul\":25178:25236   */\n      mstore\n        /* \"#utility.yul\":25270:25276   */\n      0x7274656400000000000000000000000000000000000000000000000000000000\n        /* \"#utility.yul\":25265:25267   */\n      0x20\n        /* \"#utility.yul\":25257:25263   */\n      dup3\n        /* \"#utility.yul\":25253:25268   */\n      add\n        /* \"#utility.yul\":25246:25277   */\n      mstore\n        /* \"#utility.yul\":25061:25284   */\n      pop\n      jump\t// out\n        /* \"#utility.yul\":25290:25656   */\n    tag_521:\n        /* \"#utility.yul\":25432:25435   */\n      0x00\n        /* \"#utility.yul\":25453:25520   */\n      tag_770\n        /* \"#utility.yul\":25517:25519   */\n      0x24\n        /* \"#utility.yul\":25512:25515   */\n      dup4\n        /* \"#utility.yul\":25453:25520   */\n      tag_468\n      jump\t// in\n    tag_770:\n        /* \"#utility.yul\":25446:25520   */\n      swap2\n      pop\n        /* \"#utility.yul\":25529:25622   */\n      tag_771\n        /* \"#utility.yul\":25618:25621   */\n      dup3\n        /* \"#utility.yul\":25529:25622   */\n      tag_520\n      jump\t// in\n    tag_771:\n        /* \"#utility.yul\":25647:25649   */\n      0x40\n        /* \"#utility.yul\":25642:25645   */\n      dup3\n        /* \"#utility.yul\":25638:25650   */\n      add\n        /* \"#utility.yul\":25631:25650   */\n      swap1\n      pop\n        /* \"#utility.yul\":25290:25656   */\n      swap2\n      swap1\n      pop\n      jump\t// out\n        /* \"#utility.yul\":25662:26081   */\n    tag_226:\n        /* \"#utility.yul\":25828:25832   */\n      0x00\n        /* \"#utility.yul\":25866:25868   */\n      0x20\n        /* \"#utility.yul\":25855:25864   */\n      dup3\n        /* \"#utility.yul\":25851:25869   */\n      add\n        /* \"#utility.yul\":25843:25869   */\n      swap1\n      pop\n        /* \"#utility.yul\":25915:25924   */\n      dup2\n        /* \"#utility.yul\":25909:25913   */\n      dup2\n        /* \"#utility.yul\":25905:25925   */\n      sub\n        /* \"#utility.yul\":25901:25902   */\n      0x00\n        /* \"#utility.yul\":25890:25899   */\n      dup4\n        /* \"#utility.yul\":25886:25903   */\n      add\n        /* \"#utility.yul\":25879:25926   */\n      mstore\n        /* \"#utility.yul\":25943:26074   */\n      tag_773\n        /* \"#utility.yul\":26069:26073   */\n      dup2\n        /* \"#utility.yul\":25943:26074   */\n      tag_521\n      jump\t// in\n    tag_773:\n        /* \"#utility.yul\":25935:26074   */\n      swap1\n      pop\n        /* \"#utility.yul\":25662:26081   */\n      swap2\n      swap1\n      pop\n      jump\t// out\n        /* \"#utility.yul\":26087:26267   */\n    tag_522:\n        /* \"#utility.yul\":26227:26259   */\n      0x546869732061646472657373206973206e6f7420726567697374657265640000\n        /* \"#utility.yul\":26223:26224   */\n      0x00\n        /* \"#utility.yul\":26215:26221   */\n      dup3\n        /* \"#utility.yul\":26211:26225   */\n      add\n        /* \"#utility.yul\":26204:26260   */\n      mstore\n        /* \"#utility.yul\":26087:26267   */\n      pop\n      jump\t// out\n        /* \"#utility.yul\":26273:26639   */\n    tag_523:\n        /* \"#utility.yul\":26415:26418   */\n      0x00\n        /* \"#utility.yul\":26436:26503   */\n      tag_776\n        /* \"#utility.yul\":26500:26502   */\n      0x1e\n        /* \"#utility.yul\":26495:26498   */\n      dup4\n        /* \"#utility.yul\":26436:26503   */\n      tag_468\n      jump\t// in\n    tag_776:\n        /* \"#utility.yul\":26429:26503   */\n      swap2\n      pop\n        /* \"#utility.yul\":26512:26605   */\n      tag_777\n        /* \"#utility.yul\":26601:26604   */\n      dup3\n        /* \"#utility.yul\":26512:26605   */\n      tag_522\n      jump\t// in\n    tag_777:\n        /* \"#utility.yul\":26630:26632   */\n      0x20\n        /* \"#utility.yul\":26625:26628   */\n      dup3\n        /* \"#utility.yul\":26621:26633   */\n      add\n        /* \"#utility.yul\":26614:26633   */\n      swap1\n      pop\n        /* \"#utility.yul\":26273:26639   */\n      swap2\n      swap1\n      pop\n      jump\t// out\n        /* \"#utility.yul\":26645:27064   */\n    tag_234:\n        /* \"#utility.yul\":26811:26815   */\n      0x00\n        /* \"#utility.yul\":26849:26851   */\n      0x20\n        /* \"#utility.yul\":26838:26847   */\n      dup3\n        /* \"#utility.yul\":26834:26852   */\n      add\n        /* \"#utility.yul\":26826:26852   */\n      swap1\n      pop\n        /* \"#utility.yul\":26898:26907   */\n      dup2\n        /* \"#utility.yul\":26892:26896   */\n      dup2\n        /* \"#utility.yul\":26888:26908   */\n      sub\n        /* \"#utility.yul\":26884:26885   */\n      0x00\n        /* \"#utility.yul\":26873:26882   */\n      dup4\n        /* \"#utility.yul\":26869:26886   */\n      add\n        /* \"#utility.yul\":26862:26909   */\n      mstore\n        /* \"#utility.yul\":26926:27057   */\n      tag_779\n        /* \"#utility.yul\":27052:27056   */\n      dup2\n        /* \"#utility.yul\":26926:27057   */\n      tag_523\n      jump\t// in\n    tag_779:\n        /* \"#utility.yul\":26918:27057   */\n      swap1\n      pop\n        /* \"#utility.yul\":26645:27064   */\n      swap2\n      swap1\n      pop\n      jump\t// out\n        /* \"#utility.yul\":27070:27246   */\n    tag_524:\n        /* \"#utility.yul\":27210:27238   */\n      0x54686973206164647265737320686173206e6f7420766f746564000000000000\n        /* \"#utility.yul\":27206:27207   */\n      0x00\n        /* \"#utility.yul\":27198:27204   */\n      dup3\n        /* \"#utility.yul\":27194:27208   */\n      add\n        /* \"#utility.yul\":27187:27239   */\n      mstore\n        /* \"#utility.yul\":27070:27246   */\n      pop\n      jump\t// out\n        /* \"#utility.yul\":27252:27618   */\n    tag_525:\n        /* \"#utility.yul\":27394:27397   */\n      0x00\n        /* \"#utility.yul\":27415:27482   */\n      tag_782\n        /* \"#utility.yul\":27479:27481   */\n      0x1a\n        /* \"#utility.yul\":27474:27477   */\n      dup4\n        /* \"#utility.yul\":27415:27482   */\n      tag_468\n      jump\t// in\n    tag_782:\n        /* \"#utility.yul\":27408:27482   */\n      swap2\n      pop\n        /* \"#utility.yul\":27491:27584   */\n      tag_783\n        /* \"#utility.yul\":27580:27583   */\n      dup3\n        /* \"#utility.yul\":27491:27584   */\n      tag_524\n      jump\t// in\n    tag_783:\n        /* \"#utility.yul\":27609:27611   */\n      0x20\n        /* \"#utility.yul\":27604:27607   */\n      dup3\n        /* \"#utility.yul\":27600:27612   */\n      add\n        /* \"#utility.yul\":27593:27612   */\n      swap1\n      pop\n        /* \"#utility.yul\":27252:27618   */\n      swap2\n      swap1\n      pop\n      jump\t// out\n        /* \"#utility.yul\":27624:28043   */\n    tag_256:\n        /* \"#utility.yul\":27790:27794   */\n      0x00\n        /* \"#utility.yul\":27828:27830   */\n      0x20\n        /* \"#utility.yul\":27817:27826   */\n      dup3\n        /* \"#utility.yul\":27813:27831   */\n      add\n        /* \"#utility.yul\":27805:27831   */\n      swap1\n      pop\n        /* \"#utility.yul\":27877:27886   */\n      dup2\n        /* \"#utility.yul\":27871:27875   */\n      dup2\n        /* \"#utility.yul\":27867:27887   */\n      sub\n        /* \"#utility.yul\":27863:27864   */\n      0x00\n        /* \"#utility.yul\":27852:27861   */\n      dup4\n        /* \"#utility.yul\":27848:27865   */\n      add\n        /* \"#utility.yul\":27841:27888   */\n      mstore\n        /* \"#utility.yul\":27905:28036   */\n      tag_785\n        /* \"#utility.yul\":28031:28035   */\n      dup2\n        /* \"#utility.yul\":27905:28036   */\n      tag_525\n      jump\t// in\n    tag_785:\n        /* \"#utility.yul\":27897:28036   */\n      swap1\n      pop\n        /* \"#utility.yul\":27624:28043   */\n      swap2\n      swap1\n      pop\n      jump\t// out\n        /* \"#utility.yul\":28049:28271   */\n    tag_526:\n        /* \"#utility.yul\":28189:28223   */\n      0x5468652070726f706f73616c2073657373696f6e206973206e6f742073746172\n        /* \"#utility.yul\":28185:28186   */\n      0x00\n        /* \"#utility.yul\":28177:28183   */\n      dup3\n        /* \"#utility.yul\":28173:28187   */\n      add\n        /* \"#utility.yul\":28166:28224   */\n      mstore\n        /* \"#utility.yul\":28258:28263   */\n      0x7465640000000000000000000000000000000000000000000000000000000000\n        /* \"#utility.yul\":28253:28255   */\n      0x20\n        /* \"#utility.yul\":28245:28251   */\n      dup3\n        /* \"#utility.yul\":28241:28256   */\n      add\n        /* \"#utility.yul\":28234:28264   */\n      mstore\n        /* \"#utility.yul\":28049:28271   */\n      pop\n      jump\t// out\n        /* \"#utility.yul\":28277:28643   */\n    tag_527:\n        /* \"#utility.yul\":28419:28422   */\n      0x00\n        /* \"#utility.yul\":28440:28507   */\n      tag_788\n        /* \"#utility.yul\":28504:28506   */\n      0x23\n        /* \"#utility.yul\":28499:28502   */\n      dup4\n        /* \"#utility.yul\":28440:28507   */\n      tag_468\n      jump\t// in\n    tag_788:\n        /* \"#utility.yul\":28433:28507   */\n      swap2\n      pop\n        /* \"#utility.yul\":28516:28609   */\n      tag_789\n        /* \"#utility.yul\":28605:28608   */\n      dup3\n        /* \"#utility.yul\":28516:28609   */\n      tag_526\n      jump\t// in\n    tag_789:\n        /* \"#utility.yul\":28634:28636   */\n      0x40\n        /* \"#utility.yul\":28629:28632   */\n      dup3\n        /* \"#utility.yul\":28625:28637   */\n      add\n        /* \"#utility.yul\":28618:28637   */\n      swap1\n      pop\n        /* \"#utility.yul\":28277:28643   */\n      swap2\n      swap1\n      pop\n      jump\t// out\n        /* \"#utility.yul\":28649:29068   */\n    tag_292:\n        /* \"#utility.yul\":28815:28819   */\n      0x00\n        /* \"#utility.yul\":28853:28855   */\n      0x20\n        /* \"#utility.yul\":28842:28851   */\n      dup3\n        /* \"#utility.yul\":28838:28856   */\n      add\n        /* \"#utility.yul\":28830:28856   */\n      swap1\n      pop\n        /* \"#utility.yul\":28902:28911   */\n      dup2\n        /* \"#utility.yul\":28896:28900   */\n      dup2\n        /* \"#utility.yul\":28892:28912   */\n      sub\n        /* \"#utility.yul\":28888:28889   */\n      0x00\n        /* \"#utility.yul\":28877:28886   */\n      dup4\n        /* \"#utility.yul\":28873:28890   */\n      add\n        /* \"#utility.yul\":28866:28913   */\n      mstore\n        /* \"#utility.yul\":28930:29061   */\n      tag_791\n        /* \"#utility.yul\":29056:29060   */\n      dup2\n        /* \"#utility.yul\":28930:29061   */\n      tag_527\n      jump\t// in\n    tag_791:\n        /* \"#utility.yul\":28922:29061   */\n      swap1\n      pop\n        /* \"#utility.yul\":28649:29068   */\n      swap2\n      swap1\n      pop\n      jump\t// out\n        /* \"#utility.yul\":29074:29316   */\n    tag_528:\n        /* \"#utility.yul\":29214:29248   */\n      0x596f752061726520746865206f776e6572206f66207468697320636f6e747261\n        /* \"#utility.yul\":29210:29211   */\n      0x00\n        /* \"#utility.yul\":29202:29208   */\n      dup3\n        /* \"#utility.yul\":29198:29212   */\n      add\n        /* \"#utility.yul\":29191:29249   */\n      mstore\n        /* \"#utility.yul\":29283:29308   */\n      0x63742c20796f752063616e206e6f742070726f706f7365000000000000000000\n        /* \"#utility.yul\":29278:29280   */\n      0x20\n        /* \"#utility.yul\":29270:29276   */\n      dup3\n        /* \"#utility.yul\":29266:29281   */\n      add\n        /* \"#utility.yul\":29259:29309   */\n      mstore\n        /* \"#utility.yul\":29074:29316   */\n      pop\n      jump\t// out\n        /* \"#utility.yul\":29322:29688   */\n    tag_529:\n        /* \"#utility.yul\":29464:29467   */\n      0x00\n        /* \"#utility.yul\":29485:29552   */\n      tag_794\n        /* \"#utility.yul\":29549:29551   */\n      0x37\n        /* \"#utility.yul\":29544:29547   */\n      dup4\n        /* \"#utility.yul\":29485:29552   */\n      tag_468\n      jump\t// in\n    tag_794:\n        /* \"#utility.yul\":29478:29552   */\n      swap2\n      pop\n        /* \"#utility.yul\":29561:29654   */\n      tag_795\n        /* \"#utility.yul\":29650:29653   */\n      dup3\n        /* \"#utility.yul\":29561:29654   */\n      tag_528\n      jump\t// in\n    tag_795:\n        /* \"#utility.yul\":29679:29681   */\n      0x40\n        /* \"#utility.yul\":29674:29677   */\n      dup3\n        /* \"#utility.yul\":29670:29682   */\n      add\n        /* \"#utility.yul\":29663:29682   */\n      swap1\n      pop\n        /* \"#utility.yul\":29322:29688   */\n      swap2\n      swap1\n      pop\n      jump\t// out\n        /* \"#utility.yul\":29694:30113   */\n    tag_296:\n        /* \"#utility.yul\":29860:29864   */\n      0x00\n        /* \"#utility.yul\":29898:29900   */\n      0x20\n        /* \"#utility.yul\":29887:29896   */\n      dup3\n        /* \"#utility.yul\":29883:29901   */\n      add\n        /* \"#utility.yul\":29875:29901   */\n      swap1\n      pop\n        /* \"#utility.yul\":29947:29956   */\n      dup2\n        /* \"#utility.yul\":29941:29945   */\n      dup2\n        /* \"#utility.yul\":29937:29957   */\n      sub\n        /* \"#utility.yul\":29933:29934   */\n      0x00\n        /* \"#utility.yul\":29922:29931   */\n      dup4\n        /* \"#utility.yul\":29918:29935   */\n      add\n        /* \"#utility.yul\":29911:29958   */\n      mstore\n        /* \"#utility.yul\":29975:30106   */\n      tag_797\n        /* \"#utility.yul\":30101:30105   */\n      dup2\n        /* \"#utility.yul\":29975:30106   */\n      tag_529\n      jump\t// in\n    tag_797:\n        /* \"#utility.yul\":29967:30106   */\n      swap1\n      pop\n        /* \"#utility.yul\":29694:30113   */\n      swap2\n      swap1\n      pop\n      jump\t// out\n        /* \"#utility.yul\":30119:30260   */\n    tag_530:\n        /* \"#utility.yul\":30168:30172   */\n      0x00\n        /* \"#utility.yul\":30191:30194   */\n      dup2\n        /* \"#utility.yul\":30183:30194   */\n      swap1\n      pop\n        /* \"#utility.yul\":30214:30217   */\n      dup2\n        /* \"#utility.yul\":30211:30212   */\n      0x00\n        /* \"#utility.yul\":30204:30218   */\n      mstore\n        /* \"#utility.yul\":30248:30252   */\n      0x20\n        /* \"#utility.yul\":30245:30246   */\n      0x00\n        /* \"#utility.yul\":30235:30253   */\n      keccak256\n        /* \"#utility.yul\":30227:30253   */\n      swap1\n      pop\n        /* \"#utility.yul\":30119:30260   */\n      swap2\n      swap1\n      pop\n      jump\t// out\n        /* \"#utility.yul\":30266:30359   */\n    tag_531:\n        /* \"#utility.yul\":30303:30309   */\n      0x00\n        /* \"#utility.yul\":30350:30352   */\n      0x20\n        /* \"#utility.yul\":30345:30347   */\n      0x1f\n        /* \"#utility.yul\":30338:30343   */\n      dup4\n        /* \"#utility.yul\":30334:30348   */\n      add\n        /* \"#utility.yul\":30330:30353   */\n      div\n        /* \"#utility.yul\":30320:30353   */\n      swap1\n      pop\n        /* \"#utility.yul\":30266:30359   */\n      swap2\n      swap1\n      pop\n      jump\t// out\n        /* \"#utility.yul\":30365:30472   */\n    tag_532:\n        /* \"#utility.yul\":30409:30417   */\n      0x00\n        /* \"#utility.yul\":30459:30464   */\n      dup3\n        /* \"#utility.yul\":30453:30457   */\n      dup3\n        /* \"#utility.yul\":30449:30465   */\n      shl\n        /* \"#utility.yul\":30428:30465   */\n      swap1\n      pop\n        /* \"#utility.yul\":30365:30472   */\n      swap3\n      swap2\n      pop\n      pop\n      jump\t// out\n        /* \"#utility.yul\":30478:30871   */\n    tag_533:\n        /* \"#utility.yul\":30547:30553   */\n      0x00\n        /* \"#utility.yul\":30597:30598   */\n      0x08\n        /* \"#utility.yul\":30585:30595   */\n      dup4\n        /* \"#utility.yul\":30581:30599   */\n      mul\n        /* \"#utility.yul\":30620:30717   */\n      tag_802\n        /* \"#utility.yul\":30650:30716   */\n      0xffffffffffffffffffffffffffffffffffffffffffffffffffffffffffffffff\n        /* \"#utility.yul\":30639:30648   */\n      dup3\n        /* \"#utility.yul\":30620:30717   */\n      tag_532\n      jump\t// in\n    tag_802:\n        /* \"#utility.yul\":30738:30777   */\n      tag_803\n        /* \"#utility.yul\":30768:30776   */\n      dup7\n        /* \"#utility.yul\":30757:30766   */\n      dup4\n        /* \"#utility.yul\":30738:30777   */\n      tag_532\n      jump\t// in\n    tag_803:\n        /* \"#utility.yul\":30726:30777   */\n      swap6\n      pop\n        /* \"#utility.yul\":30810:30814   */\n      dup1\n        /* \"#utility.yul\":30806:30815   */\n      not\n        /* \"#utility.yul\":30799:30804   */\n      dup5\n        /* \"#utility.yul\":30795:30816   */\n      and\n        /* \"#utility.yul\":30786:30816   */\n      swap4\n      pop\n        /* \"#utility.yul\":30859:30863   */\n      dup1\n        /* \"#utility.yul\":30849:30857   */\n      dup7\n        /* \"#utility.yul\":30845:30864   */\n      and\n        /* \"#utility.yul\":30838:30843   */\n      dup5\n        /* \"#utility.yul\":30835:30865   */\n      or\n        /* \"#utility.yul\":30825:30865   */\n      swap3\n      pop\n        /* \"#utility.yul\":30554:30871   */\n      pop\n      pop\n        /* \"#utility.yul\":30478:30871   */\n      swap4\n      swap3\n      pop\n      pop\n      pop\n      jump\t// out\n        /* \"#utility.yul\":30877:30937   */\n    tag_534:\n        /* \"#utility.yul\":30905:30908   */\n      0x00\n        /* \"#utility.yul\":30926:30931   */\n      dup2\n        /* \"#utility.yul\":30919:30931   */\n      swap1\n      pop\n        /* \"#utility.yul\":30877:30937   */\n      swap2\n      swap1\n      pop\n      jump\t// out\n        /* \"#utility.yul\":30943:31085   */\n    tag_535:\n        /* \"#utility.yul\":30993:31002   */\n      0x00\n        /* \"#utility.yul\":31026:31079   */\n      tag_806\n        /* \"#utility.yul\":31044:31078   */\n      tag_807\n        /* \"#utility.yul\":31053:31077   */\n      tag_808\n        /* \"#utility.yul\":31071:31076   */\n      dup5\n        /* \"#utility.yul\":31053:31077   */\n      tag_459\n      jump\t// in\n    tag_808:\n        /* \"#utility.yul\":31044:31078   */\n      tag_534\n      jump\t// in\n    tag_807:\n        /* \"#utility.yul\":31026:31079   */\n      tag_459\n      jump\t// in\n    tag_806:\n        /* \"#utility.yul\":31013:31079   */\n      swap1\n      pop\n        /* \"#utility.yul\":30943:31085   */\n      swap2\n      swap1\n      pop\n      jump\t// out\n        /* \"#utility.yul\":31091:31166   */\n    tag_536:\n        /* \"#utility.yul\":31134:31137   */\n      0x00\n        /* \"#utility.yul\":31155:31160   */\n      dup2\n        /* \"#utility.yul\":31148:31160   */\n      swap1\n      pop\n        /* \"#utility.yul\":31091:31166   */\n      swap2\n      swap1\n      pop\n      jump\t// out\n        /* \"#utility.yul\":31172:31441   */\n    tag_537:\n        /* \"#utility.yul\":31282:31321   */\n      tag_811\n        /* \"#utility.yul\":31313:31320   */\n      dup4\n        /* \"#utility.yul\":31282:31321   */\n      tag_535\n      jump\t// in\n    tag_811:\n        /* \"#utility.yul\":31343:31434   */\n      tag_812\n        /* \"#utility.yul\":31392:31433   */\n      tag_813\n        /* \"#utility.yul\":31416:31432   */\n      dup3\n        /* \"#utility.yul\":31392:31433   */\n      tag_536\n      jump\t// in\n    tag_813:\n        /* \"#utility.yul\":31384:31390   */\n      dup5\n        /* \"#utility.yul\":31377:31381   */\n      dup5\n        /* \"#utility.yul\":31371:31382   */\n      sload\n        /* \"#utility.yul\":31343:31434   */\n      tag_533\n      jump\t// in\n    tag_812:\n        /* \"#utility.yul\":31337:31341   */\n      dup3\n        /* \"#utility.yul\":31330:31435   */\n      sstore\n        /* \"#utility.yul\":31248:31441   */\n      pop\n        /* \"#utility.yul\":31172:31441   */\n      pop\n      pop\n      pop\n      jump\t// out\n        /* \"#utility.yul\":31447:31520   */\n    tag_538:\n        /* \"#utility.yul\":31492:31495   */\n      0x00\n        /* \"#utility.yul\":31513:31514   */\n      0x00\n        /* \"#utility.yul\":31506:31514   */\n      swap1\n      pop\n        /* \"#utility.yul\":31447:31520   */\n      swap1\n      jump\t// out\n        /* \"#utility.yul\":31526:31715   */\n    tag_539:\n        /* \"#utility.yul\":31603:31635   */\n      tag_816\n      tag_538\n      jump\t// in\n    tag_816:\n        /* \"#utility.yul\":31644:31709   */\n      tag_817\n        /* \"#utility.yul\":31702:31708   */\n      dup2\n        /* \"#utility.yul\":31694:31700   */\n      dup5\n        /* \"#utility.yul\":31688:31692   */\n      dup5\n        /* \"#utility.yul\":31644:31709   */\n      tag_537\n      jump\t// in\n    tag_817:\n        /* \"#utility.yul\":31579:31715   */\n      pop\n        /* \"#utility.yul\":31526:31715   */\n      pop\n      pop\n      jump\t// out\n        /* \"#utility.yul\":31721:31907   */\n    tag_540:\n        /* \"#utility.yul\":31781:31901   */\n    tag_819:\n        /* \"#utility.yul\":31798:31801   */\n      dup2\n        /* \"#utility.yul\":31791:31796   */\n      dup2\n        /* \"#utility.yul\":31788:31802   */\n      lt\n        /* \"#utility.yul\":31781:31901   */\n      iszero\n      tag_821\n      jumpi\n        /* \"#utility.yul\":31852:31891   */\n      tag_822\n        /* \"#utility.yul\":31889:31890   */\n      0x00\n        /* \"#utility.yul\":31882:31887   */\n      dup3\n        /* \"#utility.yul\":31852:31891   */\n      tag_539\n      jump\t// in\n    tag_822:\n        /* \"#utility.yul\":31825:31826   */\n      0x01\n        /* \"#utility.yul\":31818:31823   */\n      dup2\n        /* \"#utility.yul\":31814:31827   */\n      add\n        /* \"#utility.yul\":31805:31827   */\n      swap1\n      pop\n        /* \"#utility.yul\":31781:31901   */\n      jump(tag_819)\n    tag_821:\n        /* \"#utility.yul\":31721:31907   */\n      pop\n      pop\n      jump\t// out\n        /* \"#utility.yul\":31913:32456   */\n    tag_541:\n        /* \"#utility.yul\":32014:32016   */\n      0x1f\n        /* \"#utility.yul\":32009:32012   */\n      dup3\n        /* \"#utility.yul\":32006:32017   */\n      gt\n        /* \"#utility.yul\":32003:32449   */\n      iszero\n      tag_824\n      jumpi\n        /* \"#utility.yul\":32048:32086   */\n      tag_825\n        /* \"#utility.yul\":32080:32085   */\n      dup2\n        /* \"#utility.yul\":32048:32086   */\n      tag_530\n      jump\t// in\n    tag_825:\n        /* \"#utility.yul\":32132:32161   */\n      tag_826\n        /* \"#utility.yul\":32150:32160   */\n      dup5\n        /* \"#utility.yul\":32132:32161   */\n      tag_531\n      jump\t// in\n    tag_826:\n        /* \"#utility.yul\":32122:32130   */\n      dup2\n        /* \"#utility.yul\":32118:32162   */\n      add\n        /* \"#utility.yul\":32315:32317   */\n      0x20\n        /* \"#utility.yul\":32303:32313   */\n      dup6\n        /* \"#utility.yul\":32300:32318   */\n      lt\n        /* \"#utility.yul\":32297:32346   */\n      iszero\n      tag_827\n      jumpi\n        /* \"#utility.yul\":32336:32344   */\n      dup2\n        /* \"#utility.yul\":32321:32344   */\n      swap1\n      pop\n        /* \"#utility.yul\":32297:32346   */\n    tag_827:\n        /* \"#utility.yul\":32359:32439   */\n      tag_828\n        /* \"#utility.yul\":32415:32437   */\n      tag_829\n        /* \"#utility.yul\":32433:32436   */\n      dup6\n        /* \"#utility.yul\":32415:32437   */\n      tag_531\n      jump\t// in\n    tag_829:\n        /* \"#utility.yul\":32405:32413   */\n      dup4\n        /* \"#utility.yul\":32401:32438   */\n      add\n        /* \"#utility.yul\":32388:32399   */\n      dup3\n        /* \"#utility.yul\":32359:32439   */\n      tag_540\n      jump\t// in\n    tag_828:\n        /* \"#utility.yul\":32018:32449   */\n      pop\n      pop\n        /* \"#utility.yul\":32003:32449   */\n    tag_824:\n        /* \"#utility.yul\":31913:32456   */\n      pop\n      pop\n      pop\n      jump\t// out\n        /* \"#utility.yul\":32462:32579   */\n    tag_542:\n        /* \"#utility.yul\":32516:32524   */\n      0x00\n        /* \"#utility.yul\":32566:32571   */\n      dup3\n        /* \"#utility.yul\":32560:32564   */\n      dup3\n        /* \"#utility.yul\":32556:32572   */\n      shr\n        /* \"#utility.yul\":32535:32572   */\n      swap1\n      pop\n        /* \"#utility.yul\":32462:32579   */\n      swap3\n      swap2\n      pop\n      pop\n      jump\t// out\n        /* \"#utility.yul\":32585:32754   */\n    tag_543:\n        /* \"#utility.yul\":32629:32635   */\n      0x00\n        /* \"#utility.yul\":32662:32713   */\n      tag_832\n        /* \"#utility.yul\":32710:32711   */\n      0x00\n        /* \"#utility.yul\":32706:32712   */\n      not\n        /* \"#utility.yul\":32698:32703   */\n      dup5\n        /* \"#utility.yul\":32695:32696   */\n      0x08\n        /* \"#utility.yul\":32691:32704   */\n      mul\n        /* \"#utility.yul\":32662:32713   */\n      tag_542\n      jump\t// in\n    tag_832:\n        /* \"#utility.yul\":32658:32714   */\n      not\n        /* \"#utility.yul\":32743:32747   */\n      dup1\n        /* \"#utility.yul\":32737:32741   */\n      dup4\n        /* \"#utility.yul\":32733:32748   */\n      and\n        /* \"#utility.yul\":32723:32748   */\n      swap2\n      pop\n        /* \"#utility.yul\":32636:32754   */\n      pop\n        /* \"#utility.yul\":32585:32754   */\n      swap3\n      swap2\n      pop\n      pop\n      jump\t// out\n        /* \"#utility.yul\":32759:33054   */\n    tag_544:\n        /* \"#utility.yul\":32835:32839   */\n      0x00\n        /* \"#utility.yul\":32981:33010   */\n      tag_834\n        /* \"#utility.yul\":33006:33009   */\n      dup4\n        /* \"#utility.yul\":33000:33004   */\n      dup4\n        /* \"#utility.yul\":32981:33010   */\n      tag_543\n      jump\t// in\n    tag_834:\n        /* \"#utility.yul\":32973:33010   */\n      swap2\n      pop\n        /* \"#utility.yul\":33043:33046   */\n      dup3\n        /* \"#utility.yul\":33040:33041   */\n      0x02\n        /* \"#utility.yul\":33036:33047   */\n      mul\n        /* \"#utility.yul\":33030:33034   */\n      dup3\n        /* \"#utility.yul\":33027:33048   */\n      or\n        /* \"#utility.yul\":33019:33048   */\n      swap1\n      pop\n        /* \"#utility.yul\":32759:33054   */\n      swap3\n      swap2\n      pop\n      pop\n      jump\t// out\n        /* \"#utility.yul\":33059:34454   */\n    tag_301:\n        /* \"#utility.yul\":33176:33213   */\n      tag_836\n        /* \"#utility.yul\":33209:33212   */\n      dup3\n        /* \"#utility.yul\":33176:33213   */\n      tag_467\n      jump\t// in\n    tag_836:\n        /* \"#utility.yul\":33278:33296   */\n      0xffffffffffffffff\n        /* \"#utility.yul\":33270:33276   */\n      dup2\n        /* \"#utility.yul\":33267:33297   */\n      gt\n        /* \"#utility.yul\":33264:33320   */\n      iszero\n      tag_837\n      jumpi\n        /* \"#utility.yul\":33300:33318   */\n      tag_838\n      tag_491\n      jump\t// in\n    tag_838:\n        /* \"#utility.yul\":33264:33320   */\n    tag_837:\n        /* \"#utility.yul\":33344:33382   */\n      tag_839\n        /* \"#utility.yul\":33376:33380   */\n      dup3\n        /* \"#utility.yul\":33370:33381   */\n      sload\n        /* \"#utility.yul\":33344:33382   */\n      tag_175\n      jump\t// in\n    tag_839:\n        /* \"#utility.yul\":33429:33496   */\n      tag_840\n        /* \"#utility.yul\":33489:33495   */\n      dup3\n        /* \"#utility.yul\":33481:33487   */\n      dup3\n        /* \"#utility.yul\":33475:33479   */\n      dup6\n        /* \"#utility.yul\":33429:33496   */\n      tag_541\n      jump\t// in\n    tag_840:\n        /* \"#utility.yul\":33523:33524   */\n      0x00\n        /* \"#utility.yul\":33547:33551   */\n      0x20\n        /* \"#utility.yul\":33534:33551   */\n      swap1\n      pop\n        /* \"#utility.yul\":33579:33581   */\n      0x1f\n        /* \"#utility.yul\":33571:33577   */\n      dup4\n        /* \"#utility.yul\":33568:33582   */\n      gt\n        /* \"#utility.yul\":33596:33597   */\n      0x01\n        /* \"#utility.yul\":33591:34209   */\n      dup2\n      eq\n      tag_842\n      jumpi\n        /* \"#utility.yul\":34253:34254   */\n      0x00\n        /* \"#utility.yul\":34270:34276   */\n      dup5\n        /* \"#utility.yul\":34267:34344   */\n      iszero\n      tag_843\n      jumpi\n        /* \"#utility.yul\":34319:34328   */\n      dup3\n        /* \"#utility.yul\":34314:34317   */\n      dup8\n        /* \"#utility.yul\":34310:34329   */\n      add\n        /* \"#utility.yul\":34304:34330   */\n      mload\n        /* \"#utility.yul\":34295:34330   */\n      swap1\n      pop\n        /* \"#utility.yul\":34267:34344   */\n    tag_843:\n        /* \"#utility.yul\":34370:34437   */\n      tag_844\n        /* \"#utility.yul\":34430:34436   */\n      dup6\n        /* \"#utility.yul\":34423:34428   */\n      dup3\n        /* \"#utility.yul\":34370:34437   */\n      tag_544\n      jump\t// in\n    tag_844:\n        /* \"#utility.yul\":34364:34368   */\n      dup7\n        /* \"#utility.yul\":34357:34438   */\n      sstore\n        /* \"#utility.yul\":34226:34448   */\n      pop\n        /* \"#utility.yul\":33561:34448   */\n      jump(tag_841)\n        /* \"#utility.yul\":33591:34209   */\n    tag_842:\n        /* \"#utility.yul\":33643:33647   */\n      0x1f\n        /* \"#utility.yul\":33639:33648   */\n      not\n        /* \"#utility.yul\":33631:33637   */\n      dup5\n        /* \"#utility.yul\":33627:33649   */\n      and\n        /* \"#utility.yul\":33677:33714   */\n      tag_845\n        /* \"#utility.yul\":33709:33713   */\n      dup7\n        /* \"#utility.yul\":33677:33714   */\n      tag_530\n      jump\t// in\n    tag_845:\n        /* \"#utility.yul\":33736:33737   */\n      0x00\n        /* \"#utility.yul\":33750:33958   */\n    tag_846:\n        /* \"#utility.yul\":33764:33771   */\n      dup3\n        /* \"#utility.yul\":33761:33762   */\n      dup2\n        /* \"#utility.yul\":33758:33772   */\n      lt\n        /* \"#utility.yul\":33750:33958   */\n      iszero\n      tag_848\n      jumpi\n        /* \"#utility.yul\":33843:33852   */\n      dup5\n        /* \"#utility.yul\":33838:33841   */\n      dup10\n        /* \"#utility.yul\":33834:33853   */\n      add\n        /* \"#utility.yul\":33828:33854   */\n      mload\n        /* \"#utility.yul\":33820:33826   */\n      dup3\n        /* \"#utility.yul\":33813:33855   */\n      sstore\n        /* \"#utility.yul\":33894:33895   */\n      0x01\n        /* \"#utility.yul\":33886:33892   */\n      dup3\n        /* \"#utility.yul\":33882:33896   */\n      add\n        /* \"#utility.yul\":33872:33896   */\n      swap2\n      pop\n        /* \"#utility.yul\":33941:33943   */\n      0x20\n        /* \"#utility.yul\":33930:33939   */\n      dup6\n        /* \"#utility.yul\":33926:33944   */\n      add\n        /* \"#utility.yul\":33913:33944   */\n      swap5\n      pop\n        /* \"#utility.yul\":33787:33791   */\n      0x20\n        /* \"#utility.yul\":33784:33785   */\n      dup2\n        /* \"#utility.yul\":33780:33792   */\n      add\n        /* \"#utility.yul\":33775:33792   */\n      swap1\n      pop\n        /* \"#utility.yul\":33750:33958   */\n      jump(tag_846)\n    tag_848:\n        /* \"#utility.yul\":33986:33992   */\n      dup7\n        /* \"#utility.yul\":33977:33984   */\n      dup4\n        /* \"#utility.yul\":33974:33993   */\n      lt\n        /* \"#utility.yul\":33971:34150   */\n      iszero\n      tag_849\n      jumpi\n        /* \"#utility.yul\":34044:34053   */\n      dup5\n        /* \"#utility.yul\":34039:34042   */\n      dup10\n        /* \"#utility.yul\":34035:34054   */\n      add\n        /* \"#utility.yul\":34029:34055   */\n      mload\n        /* \"#utility.yul\":34087:34135   */\n      tag_850\n        /* \"#utility.yul\":34129:34133   */\n      0x1f\n        /* \"#utility.yul\":34121:34127   */\n      dup10\n        /* \"#utility.yul\":34117:34134   */\n      and\n        /* \"#utility.yul\":34106:34115   */\n      dup3\n        /* \"#utility.yul\":34087:34135   */\n      tag_543\n      jump\t// in\n    tag_850:\n        /* \"#utility.yul\":34079:34085   */\n      dup4\n        /* \"#utility.yul\":34072:34136   */\n      sstore\n        /* \"#utility.yul\":33994:34150   */\n      pop\n        /* \"#utility.yul\":33971:34150   */\n    tag_849:\n        /* \"#utility.yul\":34196:34197   */\n      0x01\n        /* \"#utility.yul\":34192:34193   */\n      0x02\n        /* \"#utility.yul\":34184:34190   */\n      dup9\n        /* \"#utility.yul\":34180:34194   */\n      mul\n        /* \"#utility.yul\":34176:34198   */\n      add\n        /* \"#utility.yul\":34170:34174   */\n      dup9\n        /* \"#utility.yul\":34163:34199   */\n      sstore\n        /* \"#utility.yul\":33598:34209   */\n      pop\n      pop\n      pop\n        /* \"#utility.yul\":33561:34448   */\n    tag_841:\n      pop\n        /* \"#utility.yul\":33151:34454   */\n      pop\n      pop\n      pop\n        /* \"#utility.yul\":33059:34454   */\n      pop\n      pop\n      jump\t// out\n        /* \"#utility.yul\":34460:34757   */\n    tag_545:\n        /* \"#utility.yul\":34600:34634   */\n      0x5468652070726f706f73616c2073657373696f6e206973206e6f7420656e6465\n        /* \"#utility.yul\":34596:34597   */\n      0x00\n        /* \"#utility.yul\":34588:34594   */\n      dup3\n        /* \"#utility.yul\":34584:34598   */\n      add\n        /* \"#utility.yul\":34577:34635   */\n      mstore\n        /* \"#utility.yul\":34669:34703   */\n      0x64206f722074686520766f74652073657373696f6e2068617320616c72656164\n        /* \"#utility.yul\":34664:34666   */\n      0x20\n        /* \"#utility.yul\":34656:34662   */\n      dup3\n        /* \"#utility.yul\":34652:34667   */\n      add\n        /* \"#utility.yul\":34645:34704   */\n      mstore\n        /* \"#utility.yul\":34738:34749   */\n      0x7920737461727465640000000000000000000000000000000000000000000000\n        /* \"#utility.yul\":34733:34735   */\n      0x40\n        /* \"#utility.yul\":34725:34731   */\n      dup3\n        /* \"#utility.yul\":34721:34736   */\n      add\n        /* \"#utility.yul\":34714:34750   */\n      mstore\n        /* \"#utility.yul\":34460:34757   */\n      pop\n      jump\t// out\n        /* \"#utility.yul\":34763:35129   */\n    tag_546:\n        /* \"#utility.yul\":34905:34908   */\n      0x00\n        /* \"#utility.yul\":34926:34993   */\n      tag_853\n        /* \"#utility.yul\":34990:34992   */\n      0x49\n        /* \"#utility.yul\":34985:34988   */\n      dup4\n        /* \"#utility.yul\":34926:34993   */\n      tag_468\n      jump\t// in\n    tag_853:\n        /* \"#utility.yul\":34919:34993   */\n      swap2\n      pop\n        /* \"#utility.yul\":35002:35095   */\n      tag_854\n        /* \"#utility.yul\":35091:35094   */\n      dup3\n        /* \"#utility.yul\":35002:35095   */\n      tag_545\n      jump\t// in\n    tag_854:\n        /* \"#utility.yul\":35120:35122   */\n      0x60\n        /* \"#utility.yul\":35115:35118   */\n      dup3\n        /* \"#utility.yul\":35111:35123   */\n      add\n        /* \"#utility.yul\":35104:35123   */\n      swap1\n      pop\n        /* \"#utility.yul\":34763:35129   */\n      swap2\n      swap1\n      pop\n      jump\t// out\n        /* \"#utility.yul\":35135:35554   */\n    tag_313:\n        /* \"#utility.yul\":35301:35305   */\n      0x00\n        /* \"#utility.yul\":35339:35341   */\n      0x20\n        /* \"#utility.yul\":35328:35337   */\n      dup3\n        /* \"#utility.yul\":35324:35342   */\n      add\n        /* \"#utility.yul\":35316:35342   */\n      swap1\n      pop\n        /* \"#utility.yul\":35388:35397   */\n      dup2\n        /* \"#utility.yul\":35382:35386   */\n      dup2\n        /* \"#utility.yul\":35378:35398   */\n      sub\n        /* \"#utility.yul\":35374:35375   */\n      0x00\n        /* \"#utility.yul\":35363:35372   */\n      dup4\n        /* \"#utility.yul\":35359:35376   */\n      add\n        /* \"#utility.yul\":35352:35399   */\n      mstore\n        /* \"#utility.yul\":35416:35547   */\n      tag_856\n        /* \"#utility.yul\":35542:35546   */\n      dup2\n        /* \"#utility.yul\":35416:35547   */\n      tag_546\n      jump\t// in\n    tag_856:\n        /* \"#utility.yul\":35408:35547   */\n      swap1\n      pop\n        /* \"#utility.yul\":35135:35554   */\n      swap2\n      swap1\n      pop\n      jump\t// out\n        /* \"#utility.yul\":35560:35739   */\n    tag_547:\n        /* \"#utility.yul\":35700:35731   */\n      0x54686520766f74652073657373696f6e206973206e6f7420656e646564000000\n        /* \"#utility.yul\":35696:35697   */\n      0x00\n        /* \"#utility.yul\":35688:35694   */\n      dup3\n        /* \"#utility.yul\":35684:35698   */\n      add\n        /* \"#utility.yul\":35677:35732   */\n      mstore\n        /* \"#utility.yul\":35560:35739   */\n      pop\n      jump\t// out\n        /* \"#utility.yul\":35745:36111   */\n    tag_548:\n        /* \"#utility.yul\":35887:35890   */\n      0x00\n        /* \"#utility.yul\":35908:35975   */\n      tag_859\n        /* \"#utility.yul\":35972:35974   */\n      0x1d\n        /* \"#utility.yul\":35967:35970   */\n      dup4\n        /* \"#utility.yul\":35908:35975   */\n      tag_468\n      jump\t// in\n    tag_859:\n        /* \"#utility.yul\":35901:35975   */\n      swap2\n      pop\n        /* \"#utility.yul\":35984:36077   */\n      tag_860\n        /* \"#utility.yul\":36073:36076   */\n      dup3\n        /* \"#utility.yul\":35984:36077   */\n      tag_547\n      jump\t// in\n    tag_860:\n        /* \"#utility.yul\":36102:36104   */\n      0x20\n        /* \"#utility.yul\":36097:36100   */\n      dup3\n        /* \"#utility.yul\":36093:36105   */\n      add\n        /* \"#utility.yul\":36086:36105   */\n      swap1\n      pop\n        /* \"#utility.yul\":35745:36111   */\n      swap2\n      swap1\n      pop\n      jump\t// out\n        /* \"#utility.yul\":36117:36536   */\n    tag_331:\n        /* \"#utility.yul\":36283:36287   */\n      0x00\n        /* \"#utility.yul\":36321:36323   */\n      0x20\n        /* \"#utility.yul\":36310:36319   */\n      dup3\n        /* \"#utility.yul\":36306:36324   */\n      add\n        /* \"#utility.yul\":36298:36324   */\n      swap1\n      pop\n        /* \"#utility.yul\":36370:36379   */\n      dup2\n        /* \"#utility.yul\":36364:36368   */\n      dup2\n        /* \"#utility.yul\":36360:36380   */\n      sub\n        /* \"#utility.yul\":36356:36357   */\n      0x00\n        /* \"#utility.yul\":36345:36354   */\n      dup4\n        /* \"#utility.yul\":36341:36358   */\n      add\n        /* \"#utility.yul\":36334:36381   */\n      mstore\n        /* \"#utility.yul\":36398:36529   */\n      tag_862\n        /* \"#utility.yul\":36524:36528   */\n      dup2\n        /* \"#utility.yul\":36398:36529   */\n      tag_548\n      jump\t// in\n    tag_862:\n        /* \"#utility.yul\":36390:36529   */\n      swap1\n      pop\n        /* \"#utility.yul\":36117:36536   */\n      swap2\n      swap1\n      pop\n      jump\t// out\n        /* \"#utility.yul\":36542:36774   */\n    tag_549:\n        /* \"#utility.yul\":36682:36716   */\n      0x5468657265206973206d6f7265207468616e20312077696e6e65722c20796f75\n        /* \"#utility.yul\":36678:36679   */\n      0x00\n        /* \"#utility.yul\":36670:36676   */\n      dup3\n        /* \"#utility.yul\":36666:36680   */\n      add\n        /* \"#utility.yul\":36659:36717   */\n      mstore\n        /* \"#utility.yul\":36751:36766   */\n      0x206861766520746f20766f746500000000000000000000000000000000000000\n        /* \"#utility.yul\":36746:36748   */\n      0x20\n        /* \"#utility.yul\":36738:36744   */\n      dup3\n        /* \"#utility.yul\":36734:36749   */\n      add\n        /* \"#utility.yul\":36727:36767   */\n      mstore\n        /* \"#utility.yul\":36542:36774   */\n      pop\n      jump\t// out\n        /* \"#utility.yul\":36780:37146   */\n    tag_550:\n        /* \"#utility.yul\":36922:36925   */\n      0x00\n        /* \"#utility.yul\":36943:37010   */\n      tag_865\n        /* \"#utility.yul\":37007:37009   */\n      0x2d\n        /* \"#utility.yul\":37002:37005   */\n      dup4\n        /* \"#utility.yul\":36943:37010   */\n      tag_468\n      jump\t// in\n    tag_865:\n        /* \"#utility.yul\":36936:37010   */\n      swap2\n      pop\n        /* \"#utility.yul\":37019:37112   */\n      tag_866\n        /* \"#utility.yul\":37108:37111   */\n      dup3\n        /* \"#utility.yul\":37019:37112   */\n      tag_549\n      jump\t// in\n    tag_866:\n        /* \"#utility.yul\":37137:37139   */\n      0x40\n        /* \"#utility.yul\":37132:37135   */\n      dup3\n        /* \"#utility.yul\":37128:37140   */\n      add\n        /* \"#utility.yul\":37121:37140   */\n      swap1\n      pop\n        /* \"#utility.yul\":36780:37146   */\n      swap2\n      swap1\n      pop\n      jump\t// out\n        /* \"#utility.yul\":37152:37571   */\n    tag_334:\n        /* \"#utility.yul\":37318:37322   */\n      0x00\n        /* \"#utility.yul\":37356:37358   */\n      0x20\n        /* \"#utility.yul\":37345:37354   */\n      dup3\n        /* \"#utility.yul\":37341:37359   */\n      add\n        /* \"#utility.yul\":37333:37359   */\n      swap1\n      pop\n        /* \"#utility.yul\":37405:37414   */\n      dup2\n        /* \"#utility.yul\":37399:37403   */\n      dup2\n        /* \"#utility.yul\":37395:37415   */\n      sub\n        /* \"#utility.yul\":37391:37392   */\n      0x00\n        /* \"#utility.yul\":37380:37389   */\n      dup4\n        /* \"#utility.yul\":37376:37393   */\n      add\n        /* \"#utility.yul\":37369:37416   */\n      mstore\n        /* \"#utility.yul\":37433:37564   */\n      tag_868\n        /* \"#utility.yul\":37559:37563   */\n      dup2\n        /* \"#utility.yul\":37433:37564   */\n      tag_550\n      jump\t// in\n    tag_868:\n        /* \"#utility.yul\":37425:37564   */\n      swap1\n      pop\n        /* \"#utility.yul\":37152:37571   */\n      swap2\n      swap1\n      pop\n      jump\t// out\n        /* \"#utility.yul\":37577:37798   */\n    tag_551:\n        /* \"#utility.yul\":37717:37751   */\n      0x546865206c61737420766f746520686173206e6f74206265656e2074616c6c69\n        /* \"#utility.yul\":37713:37714   */\n      0x00\n        /* \"#utility.yul\":37705:37711   */\n      dup3\n        /* \"#utility.yul\":37701:37715   */\n      add\n        /* \"#utility.yul\":37694:37752   */\n      mstore\n        /* \"#utility.yul\":37786:37790   */\n      0x6564000000000000000000000000000000000000000000000000000000000000\n        /* \"#utility.yul\":37781:37783   */\n      0x20\n        /* \"#utility.yul\":37773:37779   */\n      dup3\n        /* \"#utility.yul\":37769:37784   */\n      add\n        /* \"#utility.yul\":37762:37791   */\n      mstore\n        /* \"#utility.yul\":37577:37798   */\n      pop\n      jump\t// out\n        /* \"#utility.yul\":37804:38170   */\n    tag_552:\n        /* \"#utility.yul\":37946:37949   */\n      0x00\n        /* \"#utility.yul\":37967:38034   */\n      tag_871\n        /* \"#utility.yul\":38031:38033   */\n      0x22\n        /* \"#utility.yul\":38026:38029   */\n      dup4\n        /* \"#utility.yul\":37967:38034   */\n      tag_468\n      jump\t// in\n    tag_871:\n        /* \"#utility.yul\":37960:38034   */\n      swap2\n      pop\n        /* \"#utility.yul\":38043:38136   */\n      tag_872\n        /* \"#utility.yul\":38132:38135   */\n      dup3\n        /* \"#utility.yul\":38043:38136   */\n      tag_551\n      jump\t// in\n    tag_872:\n        /* \"#utility.yul\":38161:38163   */\n      0x40\n        /* \"#utility.yul\":38156:38159   */\n      dup3\n        /* \"#utility.yul\":38152:38164   */\n      add\n        /* \"#utility.yul\":38145:38164   */\n      swap1\n      pop\n        /* \"#utility.yul\":37804:38170   */\n      swap2\n      swap1\n      pop\n      jump\t// out\n        /* \"#utility.yul\":38176:38595   */\n    tag_353:\n        /* \"#utility.yul\":38342:38346   */\n      0x00\n        /* \"#utility.yul\":38380:38382   */\n      0x20\n        /* \"#utility.yul\":38369:38378   */\n      dup3\n        /* \"#utility.yul\":38365:38383   */\n      add\n        /* \"#utility.yul\":38357:38383   */\n      swap1\n      pop\n        /* \"#utility.yul\":38429:38438   */\n      dup2\n        /* \"#utility.yul\":38423:38427   */\n      dup2\n        /* \"#utility.yul\":38419:38439   */\n      sub\n        /* \"#utility.yul\":38415:38416   */\n      0x00\n        /* \"#utility.yul\":38404:38413   */\n      dup4\n        /* \"#utility.yul\":38400:38417   */\n      add\n        /* \"#utility.yul\":38393:38440   */\n      mstore\n        /* \"#utility.yul\":38457:38588   */\n      tag_874\n        /* \"#utility.yul\":38583:38587   */\n      dup2\n        /* \"#utility.yul\":38457:38588   */\n      tag_552\n      jump\t// in\n    tag_874:\n        /* \"#utility.yul\":38449:38588   */\n      swap1\n      pop\n        /* \"#utility.yul\":38176:38595   */\n      swap2\n      swap1\n      pop\n      jump\t// out\n        /* \"#utility.yul\":38601:38850   */\n    tag_553:\n        /* \"#utility.yul\":38741:38775   */\n      0x5468652070726f706f73616c2073657373696f6e20686173206e6f7420737461\n        /* \"#utility.yul\":38737:38738   */\n      0x00\n        /* \"#utility.yul\":38729:38735   */\n      dup3\n        /* \"#utility.yul\":38725:38739   */\n      add\n        /* \"#utility.yul\":38718:38776   */\n      mstore\n        /* \"#utility.yul\":38810:38842   */\n      0x72746564206f722068617320616c7265616479206265656e20656e6465640000\n        /* \"#utility.yul\":38805:38807   */\n      0x20\n        /* \"#utility.yul\":38797:38803   */\n      dup3\n        /* \"#utility.yul\":38793:38808   */\n      add\n        /* \"#utility.yul\":38786:38843   */\n      mstore\n        /* \"#utility.yul\":38601:38850   */\n      pop\n      jump\t// out\n        /* \"#utility.yul\":38856:39222   */\n    tag_554:\n        /* \"#utility.yul\":38998:39001   */\n      0x00\n        /* \"#utility.yul\":39019:39086   */\n      tag_877\n        /* \"#utility.yul\":39083:39085   */\n      0x3e\n        /* \"#utility.yul\":39078:39081   */\n      dup4\n        /* \"#utility.yul\":39019:39086   */\n      tag_468\n      jump\t// in\n    tag_877:\n        /* \"#utility.yul\":39012:39086   */\n      swap2\n      pop\n        /* \"#utility.yul\":39095:39188   */\n      tag_878\n        /* \"#utility.yul\":39184:39187   */\n      dup3\n        /* \"#utility.yul\":39095:39188   */\n      tag_553\n      jump\t// in\n    tag_878:\n        /* \"#utility.yul\":39213:39215   */\n      0x40\n        /* \"#utility.yul\":39208:39211   */\n      dup3\n        /* \"#utility.yul\":39204:39216   */\n      add\n        /* \"#utility.yul\":39197:39216   */\n      swap1\n      pop\n        /* \"#utility.yul\":38856:39222   */\n      swap2\n      swap1\n      pop\n      jump\t// out\n        /* \"#utility.yul\":39228:39647   */\n    tag_375:\n        /* \"#utility.yul\":39394:39398   */\n      0x00\n        /* \"#utility.yul\":39432:39434   */\n      0x20\n        /* \"#utility.yul\":39421:39430   */\n      dup3\n        /* \"#utility.yul\":39417:39435   */\n      add\n        /* \"#utility.yul\":39409:39435   */\n      swap1\n      pop\n        /* \"#utility.yul\":39481:39490   */\n      dup2\n        /* \"#utility.yul\":39475:39479   */\n      dup2\n        /* \"#utility.yul\":39471:39491   */\n      sub\n        /* \"#utility.yul\":39467:39468   */\n      0x00\n        /* \"#utility.yul\":39456:39465   */\n      dup4\n        /* \"#utility.yul\":39452:39469   */\n      add\n        /* \"#utility.yul\":39445:39492   */\n      mstore\n        /* \"#utility.yul\":39509:39640   */\n      tag_880\n        /* \"#utility.yul\":39635:39639   */\n      dup2\n        /* \"#utility.yul\":39509:39640   */\n      tag_554\n      jump\t// in\n    tag_880:\n        /* \"#utility.yul\":39501:39640   */\n      swap1\n      pop\n        /* \"#utility.yul\":39228:39647   */\n      swap2\n      swap1\n      pop\n      jump\t// out\n        /* \"#utility.yul\":39653:39873   */\n    tag_555:\n        /* \"#utility.yul\":39793:39827   */\n      0x546865726520617265206e6f2070726f706f73616c7320726567697374657265\n        /* \"#utility.yul\":39789:39790   */\n      0x00\n        /* \"#utility.yul\":39781:39787   */\n      dup3\n        /* \"#utility.yul\":39777:39791   */\n      add\n        /* \"#utility.yul\":39770:39828   */\n      mstore\n        /* \"#utility.yul\":39862:39865   */\n      0x6400000000000000000000000000000000000000000000000000000000000000\n        /* \"#utility.yul\":39857:39859   */\n      0x20\n        /* \"#utility.yul\":39849:39855   */\n      dup3\n        /* \"#utility.yul\":39845:39860   */\n      add\n        /* \"#utility.yul\":39838:39866   */\n      mstore\n        /* \"#utility.yul\":39653:39873   */\n      pop\n      jump\t// out\n        /* \"#utility.yul\":39879:40245   */\n    tag_556:\n        /* \"#utility.yul\":40021:40024   */\n      0x00\n        /* \"#utility.yul\":40042:40109   */\n      tag_883\n        /* \"#utility.yul\":40106:40108   */\n      0x21\n        /* \"#utility.yul\":40101:40104   */\n      dup4\n        /* \"#utility.yul\":40042:40109   */\n      tag_468\n      jump\t// in\n    tag_883:\n        /* \"#utility.yul\":40035:40109   */\n      swap2\n      pop\n        /* \"#utility.yul\":40118:40211   */\n      tag_884\n        /* \"#utility.yul\":40207:40210   */\n      dup3\n        /* \"#utility.yul\":40118:40211   */\n      tag_555\n      jump\t// in\n    tag_884:\n        /* \"#utility.yul\":40236:40238   */\n      0x40\n        /* \"#utility.yul\":40231:40234   */\n      dup3\n        /* \"#utility.yul\":40227:40239   */\n      add\n        /* \"#utility.yul\":40220:40239   */\n      swap1\n      pop\n        /* \"#utility.yul\":39879:40245   */\n      swap2\n      swap1\n      pop\n      jump\t// out\n        /* \"#utility.yul\":40251:40670   */\n    tag_378:\n        /* \"#utility.yul\":40417:40421   */\n      0x00\n        /* \"#utility.yul\":40455:40457   */\n      0x20\n        /* \"#utility.yul\":40444:40453   */\n      dup3\n        /* \"#utility.yul\":40440:40458   */\n      add\n        /* \"#utility.yul\":40432:40458   */\n      swap1\n      pop\n        /* \"#utility.yul\":40504:40513   */\n      dup2\n        /* \"#utility.yul\":40498:40502   */\n      dup2\n        /* \"#utility.yul\":40494:40514   */\n      sub\n        /* \"#utility.yul\":40490:40491   */\n      0x00\n        /* \"#utility.yul\":40479:40488   */\n      dup4\n        /* \"#utility.yul\":40475:40492   */\n      add\n        /* \"#utility.yul\":40468:40515   */\n      mstore\n        /* \"#utility.yul\":40532:40663   */\n      tag_886\n        /* \"#utility.yul\":40658:40662   */\n      dup2\n        /* \"#utility.yul\":40532:40663   */\n      tag_556\n      jump\t// in\n    tag_886:\n        /* \"#utility.yul\":40524:40663   */\n      swap1\n      pop\n        /* \"#utility.yul\":40251:40670   */\n      swap2\n      swap1\n      pop\n      jump\t// out\n        /* \"#utility.yul\":40676:40916   */\n    tag_557:\n        /* \"#utility.yul\":40816:40850   */\n      0x54686520766f74652073657373696f6e20686173206e6f742073746172746564\n        /* \"#utility.yul\":40812:40813   */\n      0x00\n        /* \"#utility.yul\":40804:40810   */\n      dup3\n        /* \"#utility.yul\":40800:40814   */\n      add\n        /* \"#utility.yul\":40793:40851   */\n      mstore\n        /* \"#utility.yul\":40885:40908   */\n      0x206f722068617320616c726561647920656e6465640000000000000000000000\n        /* \"#utility.yul\":40880:40882   */\n      0x20\n        /* \"#utility.yul\":40872:40878   */\n      dup3\n        /* \"#utility.yul\":40868:40883   */\n      add\n        /* \"#utility.yul\":40861:40909   */\n      mstore\n        /* \"#utility.yul\":40676:40916   */\n      pop\n      jump\t// out\n        /* \"#utility.yul\":40922:41288   */\n    tag_558:\n        /* \"#utility.yul\":41064:41067   */\n      0x00\n        /* \"#utility.yul\":41085:41152   */\n      tag_889\n        /* \"#utility.yul\":41149:41151   */\n      0x35\n        /* \"#utility.yul\":41144:41147   */\n      dup4\n        /* \"#utility.yul\":41085:41152   */\n      tag_468\n      jump\t// in\n    tag_889:\n        /* \"#utility.yul\":41078:41152   */\n      swap2\n      pop\n        /* \"#utility.yul\":41161:41254   */\n      tag_890\n        /* \"#utility.yul\":41250:41253   */\n      dup3\n        /* \"#utility.yul\":41161:41254   */\n      tag_557\n      jump\t// in\n    tag_890:\n        /* \"#utility.yul\":41279:41281   */\n      0x40\n        /* \"#utility.yul\":41274:41277   */\n      dup3\n        /* \"#utility.yul\":41270:41282   */\n      add\n        /* \"#utility.yul\":41263:41282   */\n      swap1\n      pop\n        /* \"#utility.yul\":40922:41288   */\n      swap2\n      swap1\n      pop\n      jump\t// out\n        /* \"#utility.yul\":41294:41713   */\n    tag_403:\n        /* \"#utility.yul\":41460:41464   */\n      0x00\n        /* \"#utility.yul\":41498:41500   */\n      0x20\n        /* \"#utility.yul\":41487:41496   */\n      dup3\n        /* \"#utility.yul\":41483:41501   */\n      add\n        /* \"#utility.yul\":41475:41501   */\n      swap1\n      pop\n        /* \"#utility.yul\":41547:41556   */\n      dup2\n        /* \"#utility.yul\":41541:41545   */\n      dup2\n        /* \"#utility.yul\":41537:41557   */\n      sub\n        /* \"#utility.yul\":41533:41534   */\n      0x00\n        /* \"#utility.yul\":41522:41531   */\n      dup4\n        /* \"#utility.yul\":41518:41535   */\n      add\n        /* \"#utility.yul\":41511:41558   */\n      mstore\n        /* \"#utility.yul\":41575:41706   */\n      tag_892\n        /* \"#utility.yul\":41701:41705   */\n      dup2\n        /* \"#utility.yul\":41575:41706   */\n      tag_558\n      jump\t// in\n    tag_892:\n        /* \"#utility.yul\":41567:41706   */\n      swap1\n      pop\n        /* \"#utility.yul\":41294:41713   */\n      swap2\n      swap1\n      pop\n      jump\t// out\n        /* \"#utility.yul\":41719:41897   */\n    tag_559:\n        /* \"#utility.yul\":41859:41889   */\n      0x546865726520617265206e6f20766f7465207265676973746572656400000000\n        /* \"#utility.yul\":41855:41856   */\n      0x00\n        /* \"#utility.yul\":41847:41853   */\n      dup3\n        /* \"#utility.yul\":41843:41857   */\n      add\n        /* \"#utility.yul\":41836:41890   */\n      mstore\n        /* \"#utility.yul\":41719:41897   */\n      pop\n      jump\t// out\n        /* \"#utility.yul\":41903:42269   */\n    tag_560:\n        /* \"#utility.yul\":42045:42048   */\n      0x00\n        /* \"#utility.yul\":42066:42133   */\n      tag_895\n        /* \"#utility.yul\":42130:42132   */\n      0x1c\n        /* \"#utility.yul\":42125:42128   */\n      dup4\n        /* \"#utility.yul\":42066:42133   */\n      tag_468\n      jump\t// in\n    tag_895:\n        /* \"#utility.yul\":42059:42133   */\n      swap2\n      pop\n        /* \"#utility.yul\":42142:42235   */\n      tag_896\n        /* \"#utility.yul\":42231:42234   */\n      dup3\n        /* \"#utility.yul\":42142:42235   */\n      tag_559\n      jump\t// in\n    tag_896:\n        /* \"#utility.yul\":42260:42262   */\n      0x20\n        /* \"#utility.yul\":42255:42258   */\n      dup3\n        /* \"#utility.yul\":42251:42263   */\n      add\n        /* \"#utility.yul\":42244:42263   */\n      swap1\n      pop\n        /* \"#utility.yul\":41903:42269   */\n      swap2\n      swap1\n      pop\n      jump\t// out\n        /* \"#utility.yul\":42275:42694   */\n    tag_406:\n        /* \"#utility.yul\":42441:42445   */\n      0x00\n        /* \"#utility.yul\":42479:42481   */\n      0x20\n        /* \"#utility.yul\":42468:42477   */\n      dup3\n        /* \"#utility.yul\":42464:42482   */\n      add\n        /* \"#utility.yul\":42456:42482   */\n      swap1\n      pop\n        /* \"#utility.yul\":42528:42537   */\n      dup2\n        /* \"#utility.yul\":42522:42526   */\n      dup2\n        /* \"#utility.yul\":42518:42538   */\n      sub\n        /* \"#utility.yul\":42514:42515   */\n      0x00\n        /* \"#utility.yul\":42503:42512   */\n      dup4\n        /* \"#utility.yul\":42499:42516   */\n      add\n        /* \"#utility.yul\":42492:42539   */\n      mstore\n        /* \"#utility.yul\":42556:42687   */\n      tag_898\n        /* \"#utility.yul\":42682:42686   */\n      dup2\n        /* \"#utility.yul\":42556:42687   */\n      tag_560\n      jump\t// in\n    tag_898:\n        /* \"#utility.yul\":42548:42687   */\n      swap1\n      pop\n        /* \"#utility.yul\":42275:42694   */\n      swap2\n      swap1\n      pop\n      jump\t// out\n\n    auxdata: 0xa2646970667358221220971ec39616b3b9704a248d83d6b41c0d818e759f09e37d475aad7f064916f03864736f6c634300081c0033\n}\n",
				"bytecode": {
					"linkReferences": {},
					"object": "60806040525f60045f6101000a81548160ff0219169083600581111561002857610027610185565b5b02179055506001600a5534801561003d575f5ffd5b50335f73ffffffffffffffffffffffffffffffffffffffff168173ffffffffffffffffffffffffffffffffffffffff16036100af575f6040517f1e4fbdf70000000000000000000000000000000000000000000000000000000081526004016100a691906101f1565b60405180910390fd5b6100be816100c460201b60201c565b5061020a565b5f5f5f9054906101000a900473ffffffffffffffffffffffffffffffffffffffff169050815f5f6101000a81548173ffffffffffffffffffffffffffffffffffffffff021916908373ffffffffffffffffffffffffffffffffffffffff1602179055508173ffffffffffffffffffffffffffffffffffffffff168173ffffffffffffffffffffffffffffffffffffffff167f8be0079c531659141344cd1fd0a4f28419497f9722a3daafe3b4186f6b6457e060405160405180910390a35050565b7f4e487b71000000000000000000000000000000000000000000000000000000005f52602160045260245ffd5b5f73ffffffffffffffffffffffffffffffffffffffff82169050919050565b5f6101db826101b2565b9050919050565b6101eb816101d1565b82525050565b5f6020820190506102045f8301846101e2565b92915050565b613860806102175f395ff3fe608060405234801561000f575f5ffd5b5060043610610171575f3560e01c80639589dfcc116100dc578063ada7415f11610095578063e06752c21161006f578063e06752c2146103a5578063e1ab86fb146103af578063f2fde38b146103cd578063f74c168d146103e957610171565b8063ada7415f14610373578063c08cc02d1461037d578063d826f88f1461039b57610171565b80639589dfcc146102d5578063a3c1885b146102f3578063a3dd261914610311578063a46c36371461032f578063aa98df391461034d578063aaa983461461036957610171565b806362564c481161012e57806362564c481461021157806364aa135a1461022f57806365f88a7c1461025f578063715018a61461027d57806380525548146102875780638da5cb5b146102b757610171565b80630121b93f1461017557806311174a291461019157806338db6dd3146101af57806343850c2d146101cb57806350d072fc146101e95780635bc46514146101f3575b5f5ffd5b61018f600480360381019061018a91906122fa565b6103f3565b005b6101996107e7565b6040516101a69190612334565b60405180910390f35b6101c960048036038101906101c491906123a7565b6107f0565b005b6101d36109f9565b6040516101e09190612442565b60405180910390f35b6101f1610b1f565b005b6101fb610c91565b6040516102089190612334565b60405180910390f35b610219610d0e565b60405161022691906125d0565b60405180910390f35b610249600480360381019061024491906122fa565b610e58565b60405161025691906125ff565b60405180910390f35b610267611034565b604051610274919061268b565b60405180910390f35b610285611079565b005b6102a1600480360381019061029c91906123a7565b61108c565b6040516102ae91906126f1565b60405180910390f35b6102bf61131e565b6040516102cc91906125ff565b60405180910390f35b6102dd611345565b6040516102ea9190612334565b60405180910390f35b6102fb61134e565b60405161030891906126f1565b60405180910390f35b6103196114ea565b604051610326919061268b565b60405180910390f35b6103376114ff565b6040516103449190612334565b60405180910390f35b6103676004803603810190610362919061283d565b611508565b005b610371611796565b005b61037b6118c4565b005b610385611a37565b6040516103929190612334565b60405180910390f35b6103a3611a43565b005b6103ad611c2f565b005b6103b7611da4565b6040516103c49190612334565b60405180910390f35b6103e760048036038101906103e291906123a7565b611dad565b005b6103f1611e31565b005b3373ffffffffffffffffffffffffffffffffffffffff1661041261131e565b73ffffffffffffffffffffffffffffffffffffffff160361047f57600160095411610472576040517f08c379a0000000000000000000000000000000000000000000000000000000008152600401610469906128f4565b60405180910390fd5b6001600981905550610619565b6003600581111561049357610492612618565b5b60045f9054906101000a900460ff1660058111156104b4576104b3612618565b5b146104f4576040517f08c379a00000000000000000000000000000000000000000000000000000000081526004016104eb90612982565b60405180910390fd5b6001151560015f3373ffffffffffffffffffffffffffffffffffffffff1673ffffffffffffffffffffffffffffffffffffffff1681526020019081526020015f205f015f9054906101000a900460ff16151514610586576040517f08c379a000000000000000000000000000000000000000000000000000000000815260040161057d906129ea565b60405180910390fd5b5f151560015f3373ffffffffffffffffffffffffffffffffffffffff1673ffffffffffffffffffffffffffffffffffffffff1681526020019081526020015f205f0160019054906101000a900460ff16151514610618576040517f08c379a000000000000000000000000000000000000000000000000000000000815260040161060f90612a52565b60405180910390fd5b5b6002805490508110610660576040517f08c379a000000000000000000000000000000000000000000000000000000000815260040161065790612aba565b60405180910390fd5b6001805f3373ffffffffffffffffffffffffffffffffffffffff1673ffffffffffffffffffffffffffffffffffffffff1681526020019081526020015f205f0160016101000a81548160ff0219169083151502179055508060015f3373ffffffffffffffffffffffffffffffffffffffff1673ffffffffffffffffffffffffffffffffffffffff1681526020019081526020015f2060010181905550600281815481106107105761070f612ad8565b5b905f5260205f2090600302016001015f81548092919061072f90612b32565b919050555060075f81548092919061074690612b32565b9190505550600333908060018154018082558091505060019003905f5260205f20015f9091909190916101000a81548173ffffffffffffffffffffffffffffffffffffffff021916908373ffffffffffffffffffffffffffffffffffffffff1602179055507f4d99b957a2bc29a30ebd96a7be8e68fe50a3c701db28a91436490b7d53870ca433826040516107dc929190612b79565b60405180910390a150565b5f600654905090565b6107f8611faa565b5f600581111561080b5761080a612618565b5b60045f9054906101000a900460ff16600581111561082c5761082b612618565b5b1461086c576040517f08c379a000000000000000000000000000000000000000000000000000000000815260040161086390612c10565b60405180910390fd5b5f151560015f8373ffffffffffffffffffffffffffffffffffffffff1673ffffffffffffffffffffffffffffffffffffffff1681526020019081526020015f205f015f9054906101000a900460ff161515146108fd576040517f08c379a00000000000000000000000000000000000000000000000000000000081526004016108f490612c78565b60405180910390fd5b5f60405180606001604052806001151581526020015f151581526020015f81525090508060015f8473ffffffffffffffffffffffffffffffffffffffff1673ffffffffffffffffffffffffffffffffffffffff1681526020019081526020015f205f820151815f015f6101000a81548160ff0219169083151502179055506020820151815f0160016101000a81548160ff0219169083151502179055506040820151816001015590505060065f8154809291906109b990612b32565b91905055507fb6be2187d059cc2a55fe29e0e503b566e1e0f8c8780096e185429350acffd3dd826040516109ed91906125ff565b60405180910390a15050565b6060600580811115610a0e57610a0d612618565b5b60045f9054906101000a900460ff166005811115610a2f57610a2e612618565b5b14610a6f576040517f08c379a0000000000000000000000000000000000000000000000000000000008152600401610a6690612d06565b60405180910390fd5b600260055481548110610a8557610a84612ad8565b5b905f5260205f2090600302015f018054610a9e90612d51565b80601f0160208091040260200160405190810160405280929190818152602001828054610aca90612d51565b8015610b155780601f10610aec57610100808354040283529160200191610b15565b820191905f5260205f20905b815481529060010190602001808311610af857829003601f168201915b5050505050905090565b610b27611faa565b5f6005811115610b3a57610b39612618565b5b60045f9054906101000a900460ff166005811115610b5b57610b5a612618565b5b14610b9b576040517f08c379a0000000000000000000000000000000000000000000000000000000008152600401610b9290612df1565b60405180910390fd5b600160065411610be0576040517f08c379a0000000000000000000000000000000000000000000000000000000008152600401610bd790612e7f565b60405180910390fd5b600160045f6101000a81548160ff02191690836005811115610c0557610c04612618565b5b02179055507f0a97a4ee45751e2abf3e4fc8946939630b11b371ea8ae39ccdc3056e98f5cc3f600160045f9054906101000a900460ff166005811115610c4e57610c4d612618565b5b610c589190612e9d565b6005811115610c6a57610c69612618565b5b60045f9054906101000a900460ff16604051610c87929190612ed0565b60405180910390a1565b5f600580811115610ca557610ca4612618565b5b60045f9054906101000a900460ff166005811115610cc657610cc5612618565b5b14610d06576040517f08c379a0000000000000000000000000000000000000000000000000000000008152600401610cfd90612d06565b60405180910390fd5b600554905090565b60606002805480602002602001604051908101604052809291908181526020015f905b82821015610e4f578382905f5260205f2090600302016040518060600160405290815f82018054610d6190612d51565b80601f0160208091040260200160405190810160405280929190818152602001828054610d8d90612d51565b8015610dd85780601f10610daf57610100808354040283529160200191610dd8565b820191905f5260205f20905b815481529060010190602001808311610dbb57829003601f168201915b5050505050815260200160018201548152602001600282015f9054906101000a900473ffffffffffffffffffffffffffffffffffffffff1673ffffffffffffffffffffffffffffffffffffffff1673ffffffffffffffffffffffffffffffffffffffff168152505081526020019060010190610d31565b50505050905090565b5f60016005811115610e6d57610e6c612618565b5b60045f9054906101000a900460ff166005811115610e8e57610e8d612618565b5b1015610ecf576040517f08c379a0000000000000000000000000000000000000000000000000000000008152600401610ec690612f67565b60405180910390fd5b6002805490508210610f16576040517f08c379a0000000000000000000000000000000000000000000000000000000008152600401610f0d90612aba565b60405180910390fd5b6001151560015f60028581548110610f3157610f30612ad8565b5b905f5260205f2090600302016002015f9054906101000a900473ffffffffffffffffffffffffffffffffffffffff1673ffffffffffffffffffffffffffffffffffffffff1673ffffffffffffffffffffffffffffffffffffffff1681526020019081526020015f205f015f9054906101000a900460ff16151514610fea576040517f08c379a0000000000000000000000000000000000000000000000000000000008152600401610fe190612fcf565b60405180910390fd5b60028281548110610ffe57610ffd612ad8565b5b905f5260205f2090600302016002015f9054906101000a900473ffffffffffffffffffffffffffffffffffffffff169050919050565b5f600160045f9054906101000a900460ff16600581111561105857611057612618565b5b6110629190612e9d565b600581111561107457611073612618565b5b905090565b611081611faa565b61108a5f612031565b565b611094612198565b6001151560015f8473ffffffffffffffffffffffffffffffffffffffff1673ffffffffffffffffffffffffffffffffffffffff1681526020019081526020015f205f015f9054906101000a900460ff16151514611126576040517f08c379a000000000000000000000000000000000000000000000000000000000815260040161111d90612fcf565b60405180910390fd5b6001151560015f8473ffffffffffffffffffffffffffffffffffffffff1673ffffffffffffffffffffffffffffffffffffffff1681526020019081526020015f205f0160019054906101000a900460ff161515146111b9576040517f08c379a00000000000000000000000000000000000000000000000000000000081526004016111b090613037565b60405180910390fd5b5f60015f8473ffffffffffffffffffffffffffffffffffffffff1673ffffffffffffffffffffffffffffffffffffffff1681526020019081526020015f206001015490506002818154811061121157611210612ad8565b5b905f5260205f2090600302016040518060600160405290815f8201805461123790612d51565b80601f016020809104026020016040519081016040528092919081815260200182805461126390612d51565b80156112ae5780601f10611285576101008083540402835291602001916112ae565b820191905f5260205f20905b81548152906001019060200180831161129157829003601f168201915b5050505050815260200160018201548152602001600282015f9054906101000a900473ffffffffffffffffffffffffffffffffffffffff1673ffffffffffffffffffffffffffffffffffffffff1673ffffffffffffffffffffffffffffffffffffffff1681525050915050919050565b5f5f5f9054906101000a900473ffffffffffffffffffffffffffffffffffffffff16905090565b5f600a54905090565b611356612198565b60058081111561136957611368612618565b5b60045f9054906101000a900460ff16600581111561138a57611389612618565b5b146113ca576040517f08c379a00000000000000000000000000000000000000000000000000000000081526004016113c190612d06565b60405180910390fd5b6002600554815481106113e0576113df612ad8565b5b905f5260205f2090600302016040518060600160405290815f8201805461140690612d51565b80601f016020809104026020016040519081016040528092919081815260200182805461143290612d51565b801561147d5780601f106114545761010080835404028352916020019161147d565b820191905f5260205f20905b81548152906001019060200180831161146057829003601f168201915b5050505050815260200160018201548152602001600282015f9054906101000a900473ffffffffffffffffffffffffffffffffffffffff1673ffffffffffffffffffffffffffffffffffffffff1673ffffffffffffffffffffffffffffffffffffffff1681525050905090565b5f60045f9054906101000a900460ff16905090565b5f600954905090565b6001600581111561151c5761151b612618565b5b60045f9054906101000a900460ff16600581111561153d5761153c612618565b5b1461157d576040517f08c379a0000000000000000000000000000000000000000000000000000000008152600401611574906130c5565b60405180910390fd5b3373ffffffffffffffffffffffffffffffffffffffff1661159c61131e565b73ffffffffffffffffffffffffffffffffffffffff16036115f2576040517f08c379a00000000000000000000000000000000000000000000000000000000081526004016115e990613153565b60405180910390fd5b6001151560015f3373ffffffffffffffffffffffffffffffffffffffff1673ffffffffffffffffffffffffffffffffffffffff1681526020019081526020015f205f015f9054906101000a900460ff16151514611684576040517f08c379a000000000000000000000000000000000000000000000000000000000815260040161167b906129ea565b60405180910390fd5b600260405180606001604052808381526020015f81526020013373ffffffffffffffffffffffffffffffffffffffff16815250908060018154018082558091505060019003905f5260205f2090600302015f909190919091505f820151815f0190816116f09190613311565b50602082015181600101556040820151816002015f6101000a81548173ffffffffffffffffffffffffffffffffffffffff021916908373ffffffffffffffffffffffffffffffffffffffff160217905550505060085f81548092919061175590612b32565b91905055507f92e393e9b54e2f801d3ea4beb0c5e71a21cc34a5d34b77d0fb8a3aa1650dc18f60085460405161178b9190612334565b60405180910390a150565b61179e611faa565b600260058111156117b2576117b1612618565b5b60045f9054906101000a900460ff1660058111156117d3576117d2612618565b5b14611813576040517f08c379a000000000000000000000000000000000000000000000000000000000815260040161180a90613476565b60405180910390fd5b600360045f6101000a81548160ff0219169083600581111561183857611837612618565b5b02179055507f0a97a4ee45751e2abf3e4fc8946939630b11b371ea8ae39ccdc3056e98f5cc3f600160045f9054906101000a900460ff16600581111561188157611880612618565b5b61188b9190612e9d565b600581111561189d5761189c612618565b5b60045f9054906101000a900460ff166040516118ba929190612ed0565b60405180910390a1565b6118cc611faa565b600460058111156118e0576118df612618565b5b60045f9054906101000a900460ff16600581111561190157611900612618565b5b14611941576040517f08c379a0000000000000000000000000000000000000000000000000000000008152600401611938906134de565b60405180910390fd5b600160095414611986576040517f08c379a000000000000000000000000000000000000000000000000000000000815260040161197d9061356c565b60405180910390fd5b600560045f6101000a81548160ff021916908360058111156119ab576119aa612618565b5b02179055507f0a97a4ee45751e2abf3e4fc8946939630b11b371ea8ae39ccdc3056e98f5cc3f600160045f9054906101000a900460ff1660058111156119f4576119f3612618565b5b6119fe9190612e9d565b6005811115611a1057611a0f612618565b5b60045f9054906101000a900460ff16604051611a2d929190612ed0565b60405180910390a1565b5f600280549050905090565b611a4b611faa565b600580811115611a5e57611a5d612618565b5b60045f9054906101000a900460ff166005811115611a7f57611a7e612618565b5b14611abf576040517f08c379a0000000000000000000000000000000000000000000000000000000008152600401611ab6906135fa565b60405180910390fd5b5f5f90505b600380549050811015611bbe5760405180606001604052805f151581526020015f151581526020015f81525060015f60038481548110611b0757611b06612ad8565b5b905f5260205f20015f9054906101000a900473ffffffffffffffffffffffffffffffffffffffff1673ffffffffffffffffffffffffffffffffffffffff1673ffffffffffffffffffffffffffffffffffffffff1681526020019081526020015f205f820151815f015f6101000a81548160ff0219169083151502179055506020820151815f0160016101000a81548160ff021916908315150217905550604082015181600101559050508080600101915050611ac4565b5060025f611bcc91906121cd565b60035f611bd991906121ee565b5f6009819055505f6005819055505f6006819055505f6007819055506001600a819055505f6008819055505f60045f6101000a81548160ff02191690836005811115611c2857611c27612618565b5b0217905550565b611c37611faa565b60016005811115611c4b57611c4a612618565b5b60045f9054906101000a900460ff166005811115611c6c57611c6b612618565b5b14611cac576040517f08c379a0000000000000000000000000000000000000000000000000000000008152600401611ca390613688565b60405180910390fd5b5f60028054905011611cf3576040517f08c379a0000000000000000000000000000000000000000000000000000000008152600401611cea90613716565b60405180910390fd5b600260045f6101000a81548160ff02191690836005811115611d1857611d17612618565b5b02179055507f0a97a4ee45751e2abf3e4fc8946939630b11b371ea8ae39ccdc3056e98f5cc3f600160045f9054906101000a900460ff166005811115611d6157611d60612618565b5b611d6b9190612e9d565b6005811115611d7d57611d7c612618565b5b60045f9054906101000a900460ff16604051611d9a929190612ed0565b60405180910390a1565b5f600754905090565b611db5611faa565b5f73ffffffffffffffffffffffffffffffffffffffff168173ffffffffffffffffffffffffffffffffffffffff1603611e25575f6040517f1e4fbdf7000000000000000000000000000000000000000000000000000000008152600401611e1c91906125ff565b60405180910390fd5b611e2e81612031565b50565b611e39611faa565b60036005811115611e4d57611e4c612618565b5b60045f9054906101000a900460ff166005811115611e6e57611e6d612618565b5b14611eae576040517f08c379a0000000000000000000000000000000000000000000000000000000008152600401611ea5906137a4565b60405180910390fd5b5f60075411611ef2576040517f08c379a0000000000000000000000000000000000000000000000000000000008152600401611ee99061380c565b60405180910390fd5b6004805f6101000a81548160ff02191690836005811115611f1657611f15612618565b5b0217905550611f236120f2565b7f0a97a4ee45751e2abf3e4fc8946939630b11b371ea8ae39ccdc3056e98f5cc3f600160045f9054906101000a900460ff166005811115611f6757611f66612618565b5b611f719190612e9d565b6005811115611f8357611f82612618565b5b60045f9054906101000a900460ff16604051611fa0929190612ed0565b60405180910390a1565b611fb2612191565b73ffffffffffffffffffffffffffffffffffffffff16611fd061131e565b73ffffffffffffffffffffffffffffffffffffffff161461202f57611ff3612191565b6040517f118cdaa700000000000000000000000000000000000000000000000000000000815260040161202691906125ff565b60405180910390fd5b565b5f5f5f9054906101000a900473ffffffffffffffffffffffffffffffffffffffff169050815f5f6101000a81548173ffffffffffffffffffffffffffffffffffffffff021916908373ffffffffffffffffffffffffffffffffffffffff1602179055508173ffffffffffffffffffffffffffffffffffffffff168173ffffffffffffffffffffffffffffffffffffffff167f8be0079c531659141344cd1fd0a4f28419497f9722a3daafe3b4186f6b6457e060405160405180910390a35050565b6120fa611faa565b5f5f90505b60028054905081101561218e57600a546002828154811061212357612122612ad8565b5b905f5260205f2090600302016001015410612181576002818154811061214c5761214b612ad8565b5b905f5260205f20906003020160010154600a819055508060058190555060095f81548092919061217b90612b32565b91905055505b80806001019150506120ff565b50565b5f33905090565b6040518060600160405280606081526020015f81526020015f73ffffffffffffffffffffffffffffffffffffffff1681525090565b5080545f8255600302905f5260205f20908101906121eb919061220c565b50565b5080545f8255905f5260205f2090810190612209919061225e565b50565b5b8082111561225a575f5f82015f6122249190612279565b600182015f9055600282015f6101000a81549073ffffffffffffffffffffffffffffffffffffffff02191690555060030161220d565b5090565b5b80821115612275575f815f90555060010161225f565b5090565b50805461228590612d51565b5f825580601f1061229657506122b3565b601f0160209004905f5260205f20908101906122b2919061225e565b5b50565b5f604051905090565b5f5ffd5b5f5ffd5b5f819050919050565b6122d9816122c7565b81146122e3575f5ffd5b50565b5f813590506122f4816122d0565b92915050565b5f6020828403121561230f5761230e6122bf565b5b5f61231c848285016122e6565b91505092915050565b61232e816122c7565b82525050565b5f6020820190506123475f830184612325565b92915050565b5f73ffffffffffffffffffffffffffffffffffffffff82169050919050565b5f6123768261234d565b9050919050565b6123868161236c565b8114612390575f5ffd5b50565b5f813590506123a18161237d565b92915050565b5f602082840312156123bc576123bb6122bf565b5b5f6123c984828501612393565b91505092915050565b5f81519050919050565b5f82825260208201905092915050565b8281835e5f83830152505050565b5f601f19601f8301169050919050565b5f612414826123d2565b61241e81856123dc565b935061242e8185602086016123ec565b612437816123fa565b840191505092915050565b5f6020820190508181035f83015261245a818461240a565b905092915050565b5f81519050919050565b5f82825260208201905092915050565b5f819050602082019050919050565b5f82825260208201905092915050565b5f6124a5826123d2565b6124af818561248b565b93506124bf8185602086016123ec565b6124c8816123fa565b840191505092915050565b6124dc816122c7565b82525050565b6124eb8161236c565b82525050565b5f606083015f8301518482035f86015261250b828261249b565b915050602083015161252060208601826124d3565b50604083015161253360408601826124e2565b508091505092915050565b5f61254983836124f1565b905092915050565b5f602082019050919050565b5f61256782612462565b612571818561246c565b9350836020820285016125838561247c565b805f5b858110156125be578484038952815161259f858261253e565b94506125aa83612551565b925060208a01995050600181019050612586565b50829750879550505050505092915050565b5f6020820190508181035f8301526125e8818461255d565b905092915050565b6125f98161236c565b82525050565b5f6020820190506126125f8301846125f0565b92915050565b7f4e487b71000000000000000000000000000000000000000000000000000000005f52602160045260245ffd5b6006811061265657612655612618565b5b50565b5f81905061266682612645565b919050565b5f61267582612659565b9050919050565b6126858161266b565b82525050565b5f60208201905061269e5f83018461267c565b92915050565b5f606083015f8301518482035f8601526126be828261249b565b91505060208301516126d360208601826124d3565b5060408301516126e660408601826124e2565b508091505092915050565b5f6020820190508181035f83015261270981846126a4565b905092915050565b5f5ffd5b5f5ffd5b7f4e487b71000000000000000000000000000000000000000000000000000000005f52604160045260245ffd5b61274f826123fa565b810181811067ffffffffffffffff8211171561276e5761276d612719565b5b80604052505050565b5f6127806122b6565b905061278c8282612746565b919050565b5f67ffffffffffffffff8211156127ab576127aa612719565b5b6127b4826123fa565b9050602081019050919050565b828183375f83830152505050565b5f6127e16127dc84612791565b612777565b9050828152602081018484840111156127fd576127fc612715565b5b6128088482856127c1565b509392505050565b5f82601f83011261282457612823612711565b5b81356128348482602086016127cf565b91505092915050565b5f60208284031215612852576128516122bf565b5b5f82013567ffffffffffffffff81111561286f5761286e6122c3565b5b61287b84828501612810565b91505092915050565b7f596f752063616e206f6e6c7920766f7465206966207468657265206973206d6f5f8201527f7265207468616e20312077696e6e657200000000000000000000000000000000602082015250565b5f6128de6030836123dc565b91506128e982612884565b604082019050919050565b5f6020820190508181035f83015261290b816128d2565b9050919050565b7f54686520766f74696e672073657373696f6e206973206e6f74207374617274655f8201527f6400000000000000000000000000000000000000000000000000000000000000602082015250565b5f61296c6021836123dc565b915061297782612912565b604082019050919050565b5f6020820190508181035f83015261299981612960565b9050919050565b7f596f7520617265206e6f742072656769737465726564000000000000000000005f82015250565b5f6129d46016836123dc565b91506129df826129a0565b602082019050919050565b5f6020820190508181035f830152612a01816129c8565b9050919050565b7f596f7520616c726561647920766f7465640000000000000000000000000000005f82015250565b5f612a3c6011836123dc565b9150612a4782612a08565b602082019050919050565b5f6020820190508181035f830152612a6981612a30565b9050919050565b7f546869732070726f706f73616c20494420646f6573206e6f74206578697374735f82015250565b5f612aa46020836123dc565b9150612aaf82612a70565b602082019050919050565b5f6020820190508181035f830152612ad181612a98565b9050919050565b7f4e487b71000000000000000000000000000000000000000000000000000000005f52603260045260245ffd5b7f4e487b71000000000000000000000000000000000000000000000000000000005f52601160045260245ffd5b5f612b3c826122c7565b91507fffffffffffffffffffffffffffffffffffffffffffffffffffffffffffffffff8203612b6e57612b6d612b05565b5b600182019050919050565b5f604082019050612b8c5f8301856125f0565b612b996020830184612325565b9392505050565b7f596f7520617265206e6f7420696e20766f74657220726567697374726174696f5f8201527f6e20706572696f64000000000000000000000000000000000000000000000000602082015250565b5f612bfa6028836123dc565b9150612c0582612ba0565b604082019050919050565b5f6020820190508181035f830152612c2781612bee565b9050919050565b7f596f7520616c72656164792068617665206164642074686973206164726573735f82015250565b5f612c626020836123dc565b9150612c6d82612c2e565b602082019050919050565b5f6020820190508181035f830152612c8f81612c56565b9050919050565b7f5468652077696e6e65722068617665206e6f74206265656e2063686f6f73656e5f8201527f2079657400000000000000000000000000000000000000000000000000000000602082015250565b5f612cf06024836123dc565b9150612cfb82612c96565b604082019050919050565b5f6020820190508181035f830152612d1d81612ce4565b9050919050565b7f4e487b71000000000000000000000000000000000000000000000000000000005f52602260045260245ffd5b5f6002820490506001821680612d6857607f821691505b602082108103612d7b57612d7a612d24565b5b50919050565b7f596f752063616e206e6f7420737461727420616761696e207468652070726f705f8201527f6f73616c2073657373696f6e0000000000000000000000000000000000000000602082015250565b5f612ddb602c836123dc565b9150612de682612d81565b604082019050919050565b5f6020820190508181035f830152612e0881612dcf565b9050919050565b7f596f75206d757374207265676973746572206174206c656173742032206164645f8201527f7265737365730000000000000000000000000000000000000000000000000000602082015250565b5f612e696026836123dc565b9150612e7482612e0f565b604082019050919050565b5f6020820190508181035f830152612e9681612e5d565b9050919050565b5f612ea7826122c7565b9150612eb2836122c7565b9250828203905081811115612eca57612ec9612b05565b5b92915050565b5f604082019050612ee35f83018561267c565b612ef0602083018461267c565b9392505050565b7f5468652070726f706f73616c2073657373696f6e20686173206e6f74207374615f8201527f7274656400000000000000000000000000000000000000000000000000000000602082015250565b5f612f516024836123dc565b9150612f5c82612ef7565b604082019050919050565b5f6020820190508181035f830152612f7e81612f45565b9050919050565b7f546869732061646472657373206973206e6f74207265676973746572656400005f82015250565b5f612fb9601e836123dc565b9150612fc482612f85565b602082019050919050565b5f6020820190508181035f830152612fe681612fad565b9050919050565b7f54686973206164647265737320686173206e6f7420766f7465640000000000005f82015250565b5f613021601a836123dc565b915061302c82612fed565b602082019050919050565b5f6020820190508181035f83015261304e81613015565b9050919050565b7f5468652070726f706f73616c2073657373696f6e206973206e6f7420737461725f8201527f7465640000000000000000000000000000000000000000000000000000000000602082015250565b5f6130af6023836123dc565b91506130ba82613055565b604082019050919050565b5f6020820190508181035f8301526130dc816130a3565b9050919050565b7f596f752061726520746865206f776e6572206f66207468697320636f6e7472615f8201527f63742c20796f752063616e206e6f742070726f706f7365000000000000000000602082015250565b5f61313d6037836123dc565b9150613148826130e3565b604082019050919050565b5f6020820190508181035f83015261316a81613131565b9050919050565b5f819050815f5260205f209050919050565b5f6020601f8301049050919050565b5f82821b905092915050565b5f600883026131cd7fffffffffffffffffffffffffffffffffffffffffffffffffffffffffffffffff82613192565b6131d78683613192565b95508019841693508086168417925050509392505050565b5f819050919050565b5f61321261320d613208846122c7565b6131ef565b6122c7565b9050919050565b5f819050919050565b61322b836131f8565b61323f61323782613219565b84845461319e565b825550505050565b5f5f905090565b613256613247565b613261818484613222565b505050565b5b81811015613284576132795f8261324e565b600181019050613267565b5050565b601f8211156132c95761329a81613171565b6132a384613183565b810160208510156132b2578190505b6132c66132be85613183565b830182613266565b50505b505050565b5f82821c905092915050565b5f6132e95f19846008026132ce565b1980831691505092915050565b5f61330183836132da565b9150826002028217905092915050565b61331a826123d2565b67ffffffffffffffff81111561333357613332612719565b5b61333d8254612d51565b613348828285613288565b5f60209050601f831160018114613379575f8415613367578287015190505b61337185826132f6565b8655506133d8565b601f19841661338786613171565b5f5b828110156133ae57848901518255600182019150602085019450602081019050613389565b868310156133cb57848901516133c7601f8916826132da565b8355505b6001600288020188555050505b505050505050565b7f5468652070726f706f73616c2073657373696f6e206973206e6f7420656e64655f8201527f64206f722074686520766f74652073657373696f6e2068617320616c7265616460208201527f7920737461727465640000000000000000000000000000000000000000000000604082015250565b5f6134606049836123dc565b915061346b826133e0565b606082019050919050565b5f6020820190508181035f83015261348d81613454565b9050919050565b7f54686520766f74652073657373696f6e206973206e6f7420656e6465640000005f82015250565b5f6134c8601d836123dc565b91506134d382613494565b602082019050919050565b5f6020820190508181035f8301526134f5816134bc565b9050919050565b7f5468657265206973206d6f7265207468616e20312077696e6e65722c20796f755f8201527f206861766520746f20766f746500000000000000000000000000000000000000602082015250565b5f613556602d836123dc565b9150613561826134fc565b604082019050919050565b5f6020820190508181035f8301526135838161354a565b9050919050565b7f546865206c61737420766f746520686173206e6f74206265656e2074616c6c695f8201527f6564000000000000000000000000000000000000000000000000000000000000602082015250565b5f6135e46022836123dc565b91506135ef8261358a565b604082019050919050565b5f6020820190508181035f830152613611816135d8565b9050919050565b7f5468652070726f706f73616c2073657373696f6e20686173206e6f74207374615f8201527f72746564206f722068617320616c7265616479206265656e20656e6465640000602082015250565b5f613672603e836123dc565b915061367d82613618565b604082019050919050565b5f6020820190508181035f83015261369f81613666565b9050919050565b7f546865726520617265206e6f2070726f706f73616c73207265676973746572655f8201527f6400000000000000000000000000000000000000000000000000000000000000602082015250565b5f6137006021836123dc565b915061370b826136a6565b604082019050919050565b5f6020820190508181035f83015261372d816136f4565b9050919050565b7f54686520766f74652073657373696f6e20686173206e6f7420737461727465645f8201527f206f722068617320616c726561647920656e6465640000000000000000000000602082015250565b5f61378e6035836123dc565b915061379982613734565b604082019050919050565b5f6020820190508181035f8301526137bb81613782565b9050919050565b7f546865726520617265206e6f20766f74652072656769737465726564000000005f82015250565b5f6137f6601c836123dc565b9150613801826137c2565b602082019050919050565b5f6020820190508181035f830152613823816137ea565b905091905056fea2646970667358221220971ec39616b3b9704a248d83d6b41c0d818e759f09e37d475aad7f064916f03864736f6c634300081c0033",
					"opcodes": "PUSH1 0x80 PUSH1 0x40 MSTORE PUSH0 PUSH1 0x4 PUSH0 PUSH2 0x100 EXP DUP2 SLOAD DUP2 PUSH1 0xFF MUL NOT AND SWAP1 DUP4 PUSH1 0x5 DUP2 GT ISZERO PUSH2 0x28 JUMPI PUSH2 0x27 PUSH2 0x185 JUMP JUMPDEST JUMPDEST MUL OR SWAP1 SSTORE POP PUSH1 0x1 PUSH1 0xA SSTORE CALLVALUE DUP1 ISZERO PUSH2 0x3D JUMPI PUSH0 PUSH0 REVERT JUMPDEST POP CALLER PUSH0 PUSH20 0xFFFFFFFFFFFFFFFFFFFFFFFFFFFFFFFFFFFFFFFF AND DUP2 PUSH20 0xFFFFFFFFFFFFFFFFFFFFFFFFFFFFFFFFFFFFFFFF AND SUB PUSH2 0xAF JUMPI PUSH0 PUSH1 0x40 MLOAD PUSH32 0x1E4FBDF700000000000000000000000000000000000000000000000000000000 DUP2 MSTORE PUSH1 0x4 ADD PUSH2 0xA6 SWAP2 SWAP1 PUSH2 0x1F1 JUMP JUMPDEST PUSH1 0x40 MLOAD DUP1 SWAP2 SUB SWAP1 REVERT JUMPDEST PUSH2 0xBE DUP2 PUSH2 0xC4 PUSH1 0x20 SHL PUSH1 0x20 SHR JUMP JUMPDEST POP PUSH2 0x20A JUMP JUMPDEST PUSH0 PUSH0 PUSH0 SWAP1 SLOAD SWAP1 PUSH2 0x100 EXP SWAP1 DIV PUSH20 0xFFFFFFFFFFFFFFFFFFFFFFFFFFFFFFFFFFFFFFFF AND SWAP1 POP DUP2 PUSH0 PUSH0 PUSH2 0x100 EXP DUP2 SLOAD DUP2 PUSH20 0xFFFFFFFFFFFFFFFFFFFFFFFFFFFFFFFFFFFFFFFF MUL NOT AND SWAP1 DUP4 PUSH20 0xFFFFFFFFFFFFFFFFFFFFFFFFFFFFFFFFFFFFFFFF AND MUL OR SWAP1 SSTORE POP DUP2 PUSH20 0xFFFFFFFFFFFFFFFFFFFFFFFFFFFFFFFFFFFFFFFF AND DUP2 PUSH20 0xFFFFFFFFFFFFFFFFFFFFFFFFFFFFFFFFFFFFFFFF AND PUSH32 0x8BE0079C531659141344CD1FD0A4F28419497F9722A3DAAFE3B4186F6B6457E0 PUSH1 0x40 MLOAD PUSH1 0x40 MLOAD DUP1 SWAP2 SUB SWAP1 LOG3 POP POP JUMP JUMPDEST PUSH32 0x4E487B7100000000000000000000000000000000000000000000000000000000 PUSH0 MSTORE PUSH1 0x21 PUSH1 0x4 MSTORE PUSH1 0x24 PUSH0 REVERT JUMPDEST PUSH0 PUSH20 0xFFFFFFFFFFFFFFFFFFFFFFFFFFFFFFFFFFFFFFFF DUP3 AND SWAP1 POP SWAP2 SWAP1 POP JUMP JUMPDEST PUSH0 PUSH2 0x1DB DUP3 PUSH2 0x1B2 JUMP JUMPDEST SWAP1 POP SWAP2 SWAP1 POP JUMP JUMPDEST PUSH2 0x1EB DUP2 PUSH2 0x1D1 JUMP JUMPDEST DUP3 MSTORE POP POP JUMP JUMPDEST PUSH0 PUSH1 0x20 DUP3 ADD SWAP1 POP PUSH2 0x204 PUSH0 DUP4 ADD DUP5 PUSH2 0x1E2 JUMP JUMPDEST SWAP3 SWAP2 POP POP JUMP JUMPDEST PUSH2 0x3860 DUP1 PUSH2 0x217 PUSH0 CODECOPY PUSH0 RETURN INVALID PUSH1 0x80 PUSH1 0x40 MSTORE CALLVALUE DUP1 ISZERO PUSH2 0xF JUMPI PUSH0 PUSH0 REVERT JUMPDEST POP PUSH1 0x4 CALLDATASIZE LT PUSH2 0x171 JUMPI PUSH0 CALLDATALOAD PUSH1 0xE0 SHR DUP1 PUSH4 0x9589DFCC GT PUSH2 0xDC JUMPI DUP1 PUSH4 0xADA7415F GT PUSH2 0x95 JUMPI DUP1 PUSH4 0xE06752C2 GT PUSH2 0x6F JUMPI DUP1 PUSH4 0xE06752C2 EQ PUSH2 0x3A5 JUMPI DUP1 PUSH4 0xE1AB86FB EQ PUSH2 0x3AF JUMPI DUP1 PUSH4 0xF2FDE38B EQ PUSH2 0x3CD JUMPI DUP1 PUSH4 0xF74C168D EQ PUSH2 0x3E9 JUMPI PUSH2 0x171 JUMP JUMPDEST DUP1 PUSH4 0xADA7415F EQ PUSH2 0x373 JUMPI DUP1 PUSH4 0xC08CC02D EQ PUSH2 0x37D JUMPI DUP1 PUSH4 0xD826F88F EQ PUSH2 0x39B JUMPI PUSH2 0x171 JUMP JUMPDEST DUP1 PUSH4 0x9589DFCC EQ PUSH2 0x2D5 JUMPI DUP1 PUSH4 0xA3C1885B EQ PUSH2 0x2F3 JUMPI DUP1 PUSH4 0xA3DD2619 EQ PUSH2 0x311 JUMPI DUP1 PUSH4 0xA46C3637 EQ PUSH2 0x32F JUMPI DUP1 PUSH4 0xAA98DF39 EQ PUSH2 0x34D JUMPI DUP1 PUSH4 0xAAA98346 EQ PUSH2 0x369 JUMPI PUSH2 0x171 JUMP JUMPDEST DUP1 PUSH4 0x62564C48 GT PUSH2 0x12E JUMPI DUP1 PUSH4 0x62564C48 EQ PUSH2 0x211 JUMPI DUP1 PUSH4 0x64AA135A EQ PUSH2 0x22F JUMPI DUP1 PUSH4 0x65F88A7C EQ PUSH2 0x25F JUMPI DUP1 PUSH4 0x715018A6 EQ PUSH2 0x27D JUMPI DUP1 PUSH4 0x80525548 EQ PUSH2 0x287 JUMPI DUP1 PUSH4 0x8DA5CB5B EQ PUSH2 0x2B7 JUMPI PUSH2 0x171 JUMP JUMPDEST DUP1 PUSH4 0x121B93F EQ PUSH2 0x175 JUMPI DUP1 PUSH4 0x11174A29 EQ PUSH2 0x191 JUMPI DUP1 PUSH4 0x38DB6DD3 EQ PUSH2 0x1AF JUMPI DUP1 PUSH4 0x43850C2D EQ PUSH2 0x1CB JUMPI DUP1 PUSH4 0x50D072FC EQ PUSH2 0x1E9 JUMPI DUP1 PUSH4 0x5BC46514 EQ PUSH2 0x1F3 JUMPI JUMPDEST PUSH0 PUSH0 REVERT JUMPDEST PUSH2 0x18F PUSH1 0x4 DUP1 CALLDATASIZE SUB DUP2 ADD SWAP1 PUSH2 0x18A SWAP2 SWAP1 PUSH2 0x22FA JUMP JUMPDEST PUSH2 0x3F3 JUMP JUMPDEST STOP JUMPDEST PUSH2 0x199 PUSH2 0x7E7 JUMP JUMPDEST PUSH1 0x40 MLOAD PUSH2 0x1A6 SWAP2 SWAP1 PUSH2 0x2334 JUMP JUMPDEST PUSH1 0x40 MLOAD DUP1 SWAP2 SUB SWAP1 RETURN JUMPDEST PUSH2 0x1C9 PUSH1 0x4 DUP1 CALLDATASIZE SUB DUP2 ADD SWAP1 PUSH2 0x1C4 SWAP2 SWAP1 PUSH2 0x23A7 JUMP JUMPDEST PUSH2 0x7F0 JUMP JUMPDEST STOP JUMPDEST PUSH2 0x1D3 PUSH2 0x9F9 JUMP JUMPDEST PUSH1 0x40 MLOAD PUSH2 0x1E0 SWAP2 SWAP1 PUSH2 0x2442 JUMP JUMPDEST PUSH1 0x40 MLOAD DUP1 SWAP2 SUB SWAP1 RETURN JUMPDEST PUSH2 0x1F1 PUSH2 0xB1F JUMP JUMPDEST STOP JUMPDEST PUSH2 0x1FB PUSH2 0xC91 JUMP JUMPDEST PUSH1 0x40 MLOAD PUSH2 0x208 SWAP2 SWAP1 PUSH2 0x2334 JUMP JUMPDEST PUSH1 0x40 MLOAD DUP1 SWAP2 SUB SWAP1 RETURN JUMPDEST PUSH2 0x219 PUSH2 0xD0E JUMP JUMPDEST PUSH1 0x40 MLOAD PUSH2 0x226 SWAP2 SWAP1 PUSH2 0x25D0 JUMP JUMPDEST PUSH1 0x40 MLOAD DUP1 SWAP2 SUB SWAP1 RETURN JUMPDEST PUSH2 0x249 PUSH1 0x4 DUP1 CALLDATASIZE SUB DUP2 ADD SWAP1 PUSH2 0x244 SWAP2 SWAP1 PUSH2 0x22FA JUMP JUMPDEST PUSH2 0xE58 JUMP JUMPDEST PUSH1 0x40 MLOAD PUSH2 0x256 SWAP2 SWAP1 PUSH2 0x25FF JUMP JUMPDEST PUSH1 0x40 MLOAD DUP1 SWAP2 SUB SWAP1 RETURN JUMPDEST PUSH2 0x267 PUSH2 0x1034 JUMP JUMPDEST PUSH1 0x40 MLOAD PUSH2 0x274 SWAP2 SWAP1 PUSH2 0x268B JUMP JUMPDEST PUSH1 0x40 MLOAD DUP1 SWAP2 SUB SWAP1 RETURN JUMPDEST PUSH2 0x285 PUSH2 0x1079 JUMP JUMPDEST STOP JUMPDEST PUSH2 0x2A1 PUSH1 0x4 DUP1 CALLDATASIZE SUB DUP2 ADD SWAP1 PUSH2 0x29C SWAP2 SWAP1 PUSH2 0x23A7 JUMP JUMPDEST PUSH2 0x108C JUMP JUMPDEST PUSH1 0x40 MLOAD PUSH2 0x2AE SWAP2 SWAP1 PUSH2 0x26F1 JUMP JUMPDEST PUSH1 0x40 MLOAD DUP1 SWAP2 SUB SWAP1 RETURN JUMPDEST PUSH2 0x2BF PUSH2 0x131E JUMP JUMPDEST PUSH1 0x40 MLOAD PUSH2 0x2CC SWAP2 SWAP1 PUSH2 0x25FF JUMP JUMPDEST PUSH1 0x40 MLOAD DUP1 SWAP2 SUB SWAP1 RETURN JUMPDEST PUSH2 0x2DD PUSH2 0x1345 JUMP JUMPDEST PUSH1 0x40 MLOAD PUSH2 0x2EA SWAP2 SWAP1 PUSH2 0x2334 JUMP JUMPDEST PUSH1 0x40 MLOAD DUP1 SWAP2 SUB SWAP1 RETURN JUMPDEST PUSH2 0x2FB PUSH2 0x134E JUMP JUMPDEST PUSH1 0x40 MLOAD PUSH2 0x308 SWAP2 SWAP1 PUSH2 0x26F1 JUMP JUMPDEST PUSH1 0x40 MLOAD DUP1 SWAP2 SUB SWAP1 RETURN JUMPDEST PUSH2 0x319 PUSH2 0x14EA JUMP JUMPDEST PUSH1 0x40 MLOAD PUSH2 0x326 SWAP2 SWAP1 PUSH2 0x268B JUMP JUMPDEST PUSH1 0x40 MLOAD DUP1 SWAP2 SUB SWAP1 RETURN JUMPDEST PUSH2 0x337 PUSH2 0x14FF JUMP JUMPDEST PUSH1 0x40 MLOAD PUSH2 0x344 SWAP2 SWAP1 PUSH2 0x2334 JUMP JUMPDEST PUSH1 0x40 MLOAD DUP1 SWAP2 SUB SWAP1 RETURN JUMPDEST PUSH2 0x367 PUSH1 0x4 DUP1 CALLDATASIZE SUB DUP2 ADD SWAP1 PUSH2 0x362 SWAP2 SWAP1 PUSH2 0x283D JUMP JUMPDEST PUSH2 0x1508 JUMP JUMPDEST STOP JUMPDEST PUSH2 0x371 PUSH2 0x1796 JUMP JUMPDEST STOP JUMPDEST PUSH2 0x37B PUSH2 0x18C4 JUMP JUMPDEST STOP JUMPDEST PUSH2 0x385 PUSH2 0x1A37 JUMP JUMPDEST PUSH1 0x40 MLOAD PUSH2 0x392 SWAP2 SWAP1 PUSH2 0x2334 JUMP JUMPDEST PUSH1 0x40 MLOAD DUP1 SWAP2 SUB SWAP1 RETURN JUMPDEST PUSH2 0x3A3 PUSH2 0x1A43 JUMP JUMPDEST STOP JUMPDEST PUSH2 0x3AD PUSH2 0x1C2F JUMP JUMPDEST STOP JUMPDEST PUSH2 0x3B7 PUSH2 0x1DA4 JUMP JUMPDEST PUSH1 0x40 MLOAD PUSH2 0x3C4 SWAP2 SWAP1 PUSH2 0x2334 JUMP JUMPDEST PUSH1 0x40 MLOAD DUP1 SWAP2 SUB SWAP1 RETURN JUMPDEST PUSH2 0x3E7 PUSH1 0x4 DUP1 CALLDATASIZE SUB DUP2 ADD SWAP1 PUSH2 0x3E2 SWAP2 SWAP1 PUSH2 0x23A7 JUMP JUMPDEST PUSH2 0x1DAD JUMP JUMPDEST STOP JUMPDEST PUSH2 0x3F1 PUSH2 0x1E31 JUMP JUMPDEST STOP JUMPDEST CALLER PUSH20 0xFFFFFFFFFFFFFFFFFFFFFFFFFFFFFFFFFFFFFFFF AND PUSH2 0x412 PUSH2 0x131E JUMP JUMPDEST PUSH20 0xFFFFFFFFFFFFFFFFFFFFFFFFFFFFFFFFFFFFFFFF AND SUB PUSH2 0x47F JUMPI PUSH1 0x1 PUSH1 0x9 SLOAD GT PUSH2 0x472 JUMPI PUSH1 0x40 MLOAD PUSH32 0x8C379A000000000000000000000000000000000000000000000000000000000 DUP2 MSTORE PUSH1 0x4 ADD PUSH2 0x469 SWAP1 PUSH2 0x28F4 JUMP JUMPDEST PUSH1 0x40 MLOAD DUP1 SWAP2 SUB SWAP1 REVERT JUMPDEST PUSH1 0x1 PUSH1 0x9 DUP2 SWAP1 SSTORE POP PUSH2 0x619 JUMP JUMPDEST PUSH1 0x3 PUSH1 0x5 DUP2 GT ISZERO PUSH2 0x493 JUMPI PUSH2 0x492 PUSH2 0x2618 JUMP JUMPDEST JUMPDEST PUSH1 0x4 PUSH0 SWAP1 SLOAD SWAP1 PUSH2 0x100 EXP SWAP1 DIV PUSH1 0xFF AND PUSH1 0x5 DUP2 GT ISZERO PUSH2 0x4B4 JUMPI PUSH2 0x4B3 PUSH2 0x2618 JUMP JUMPDEST JUMPDEST EQ PUSH2 0x4F4 JUMPI PUSH1 0x40 MLOAD PUSH32 0x8C379A000000000000000000000000000000000000000000000000000000000 DUP2 MSTORE PUSH1 0x4 ADD PUSH2 0x4EB SWAP1 PUSH2 0x2982 JUMP JUMPDEST PUSH1 0x40 MLOAD DUP1 SWAP2 SUB SWAP1 REVERT JUMPDEST PUSH1 0x1 ISZERO ISZERO PUSH1 0x1 PUSH0 CALLER PUSH20 0xFFFFFFFFFFFFFFFFFFFFFFFFFFFFFFFFFFFFFFFF AND PUSH20 0xFFFFFFFFFFFFFFFFFFFFFFFFFFFFFFFFFFFFFFFF AND DUP2 MSTORE PUSH1 0x20 ADD SWAP1 DUP2 MSTORE PUSH1 0x20 ADD PUSH0 KECCAK256 PUSH0 ADD PUSH0 SWAP1 SLOAD SWAP1 PUSH2 0x100 EXP SWAP1 DIV PUSH1 0xFF AND ISZERO ISZERO EQ PUSH2 0x586 JUMPI PUSH1 0x40 MLOAD PUSH32 0x8C379A000000000000000000000000000000000000000000000000000000000 DUP2 MSTORE PUSH1 0x4 ADD PUSH2 0x57D SWAP1 PUSH2 0x29EA JUMP JUMPDEST PUSH1 0x40 MLOAD DUP1 SWAP2 SUB SWAP1 REVERT JUMPDEST PUSH0 ISZERO ISZERO PUSH1 0x1 PUSH0 CALLER PUSH20 0xFFFFFFFFFFFFFFFFFFFFFFFFFFFFFFFFFFFFFFFF AND PUSH20 0xFFFFFFFFFFFFFFFFFFFFFFFFFFFFFFFFFFFFFFFF AND DUP2 MSTORE PUSH1 0x20 ADD SWAP1 DUP2 MSTORE PUSH1 0x20 ADD PUSH0 KECCAK256 PUSH0 ADD PUSH1 0x1 SWAP1 SLOAD SWAP1 PUSH2 0x100 EXP SWAP1 DIV PUSH1 0xFF AND ISZERO ISZERO EQ PUSH2 0x618 JUMPI PUSH1 0x40 MLOAD PUSH32 0x8C379A000000000000000000000000000000000000000000000000000000000 DUP2 MSTORE PUSH1 0x4 ADD PUSH2 0x60F SWAP1 PUSH2 0x2A52 JUMP JUMPDEST PUSH1 0x40 MLOAD DUP1 SWAP2 SUB SWAP1 REVERT JUMPDEST JUMPDEST PUSH1 0x2 DUP1 SLOAD SWAP1 POP DUP2 LT PUSH2 0x660 JUMPI PUSH1 0x40 MLOAD PUSH32 0x8C379A000000000000000000000000000000000000000000000000000000000 DUP2 MSTORE PUSH1 0x4 ADD PUSH2 0x657 SWAP1 PUSH2 0x2ABA JUMP JUMPDEST PUSH1 0x40 MLOAD DUP1 SWAP2 SUB SWAP1 REVERT JUMPDEST PUSH1 0x1 DUP1 PUSH0 CALLER PUSH20 0xFFFFFFFFFFFFFFFFFFFFFFFFFFFFFFFFFFFFFFFF AND PUSH20 0xFFFFFFFFFFFFFFFFFFFFFFFFFFFFFFFFFFFFFFFF AND DUP2 MSTORE PUSH1 0x20 ADD SWAP1 DUP2 MSTORE PUSH1 0x20 ADD PUSH0 KECCAK256 PUSH0 ADD PUSH1 0x1 PUSH2 0x100 EXP DUP2 SLOAD DUP2 PUSH1 0xFF MUL NOT AND SWAP1 DUP4 ISZERO ISZERO MUL OR SWAP1 SSTORE POP DUP1 PUSH1 0x1 PUSH0 CALLER PUSH20 0xFFFFFFFFFFFFFFFFFFFFFFFFFFFFFFFFFFFFFFFF AND PUSH20 0xFFFFFFFFFFFFFFFFFFFFFFFFFFFFFFFFFFFFFFFF AND DUP2 MSTORE PUSH1 0x20 ADD SWAP1 DUP2 MSTORE PUSH1 0x20 ADD PUSH0 KECCAK256 PUSH1 0x1 ADD DUP2 SWAP1 SSTORE POP PUSH1 0x2 DUP2 DUP2 SLOAD DUP2 LT PUSH2 0x710 JUMPI PUSH2 0x70F PUSH2 0x2AD8 JUMP JUMPDEST JUMPDEST SWAP1 PUSH0 MSTORE PUSH1 0x20 PUSH0 KECCAK256 SWAP1 PUSH1 0x3 MUL ADD PUSH1 0x1 ADD PUSH0 DUP2 SLOAD DUP1 SWAP3 SWAP2 SWAP1 PUSH2 0x72F SWAP1 PUSH2 0x2B32 JUMP JUMPDEST SWAP2 SWAP1 POP SSTORE POP PUSH1 0x7 PUSH0 DUP2 SLOAD DUP1 SWAP3 SWAP2 SWAP1 PUSH2 0x746 SWAP1 PUSH2 0x2B32 JUMP JUMPDEST SWAP2 SWAP1 POP SSTORE POP PUSH1 0x3 CALLER SWAP1 DUP1 PUSH1 0x1 DUP2 SLOAD ADD DUP1 DUP3 SSTORE DUP1 SWAP2 POP POP PUSH1 0x1 SWAP1 SUB SWAP1 PUSH0 MSTORE PUSH1 0x20 PUSH0 KECCAK256 ADD PUSH0 SWAP1 SWAP2 SWAP1 SWAP2 SWAP1 SWAP2 PUSH2 0x100 EXP DUP2 SLOAD DUP2 PUSH20 0xFFFFFFFFFFFFFFFFFFFFFFFFFFFFFFFFFFFFFFFF MUL NOT AND SWAP1 DUP4 PUSH20 0xFFFFFFFFFFFFFFFFFFFFFFFFFFFFFFFFFFFFFFFF AND MUL OR SWAP1 SSTORE POP PUSH32 0x4D99B957A2BC29A30EBD96A7BE8E68FE50A3C701DB28A91436490B7D53870CA4 CALLER DUP3 PUSH1 0x40 MLOAD PUSH2 0x7DC SWAP3 SWAP2 SWAP1 PUSH2 0x2B79 JUMP JUMPDEST PUSH1 0x40 MLOAD DUP1 SWAP2 SUB SWAP1 LOG1 POP JUMP JUMPDEST PUSH0 PUSH1 0x6 SLOAD SWAP1 POP SWAP1 JUMP JUMPDEST PUSH2 0x7F8 PUSH2 0x1FAA JUMP JUMPDEST PUSH0 PUSH1 0x5 DUP2 GT ISZERO PUSH2 0x80B JUMPI PUSH2 0x80A PUSH2 0x2618 JUMP JUMPDEST JUMPDEST PUSH1 0x4 PUSH0 SWAP1 SLOAD SWAP1 PUSH2 0x100 EXP SWAP1 DIV PUSH1 0xFF AND PUSH1 0x5 DUP2 GT ISZERO PUSH2 0x82C JUMPI PUSH2 0x82B PUSH2 0x2618 JUMP JUMPDEST JUMPDEST EQ PUSH2 0x86C JUMPI PUSH1 0x40 MLOAD PUSH32 0x8C379A000000000000000000000000000000000000000000000000000000000 DUP2 MSTORE PUSH1 0x4 ADD PUSH2 0x863 SWAP1 PUSH2 0x2C10 JUMP JUMPDEST PUSH1 0x40 MLOAD DUP1 SWAP2 SUB SWAP1 REVERT JUMPDEST PUSH0 ISZERO ISZERO PUSH1 0x1 PUSH0 DUP4 PUSH20 0xFFFFFFFFFFFFFFFFFFFFFFFFFFFFFFFFFFFFFFFF AND PUSH20 0xFFFFFFFFFFFFFFFFFFFFFFFFFFFFFFFFFFFFFFFF AND DUP2 MSTORE PUSH1 0x20 ADD SWAP1 DUP2 MSTORE PUSH1 0x20 ADD PUSH0 KECCAK256 PUSH0 ADD PUSH0 SWAP1 SLOAD SWAP1 PUSH2 0x100 EXP SWAP1 DIV PUSH1 0xFF AND ISZERO ISZERO EQ PUSH2 0x8FD JUMPI PUSH1 0x40 MLOAD PUSH32 0x8C379A000000000000000000000000000000000000000000000000000000000 DUP2 MSTORE PUSH1 0x4 ADD PUSH2 0x8F4 SWAP1 PUSH2 0x2C78 JUMP JUMPDEST PUSH1 0x40 MLOAD DUP1 SWAP2 SUB SWAP1 REVERT JUMPDEST PUSH0 PUSH1 0x40 MLOAD DUP1 PUSH1 0x60 ADD PUSH1 0x40 MSTORE DUP1 PUSH1 0x1 ISZERO ISZERO DUP2 MSTORE PUSH1 0x20 ADD PUSH0 ISZERO ISZERO DUP2 MSTORE PUSH1 0x20 ADD PUSH0 DUP2 MSTORE POP SWAP1 POP DUP1 PUSH1 0x1 PUSH0 DUP5 PUSH20 0xFFFFFFFFFFFFFFFFFFFFFFFFFFFFFFFFFFFFFFFF AND PUSH20 0xFFFFFFFFFFFFFFFFFFFFFFFFFFFFFFFFFFFFFFFF AND DUP2 MSTORE PUSH1 0x20 ADD SWAP1 DUP2 MSTORE PUSH1 0x20 ADD PUSH0 KECCAK256 PUSH0 DUP3 ADD MLOAD DUP2 PUSH0 ADD PUSH0 PUSH2 0x100 EXP DUP2 SLOAD DUP2 PUSH1 0xFF MUL NOT AND SWAP1 DUP4 ISZERO ISZERO MUL OR SWAP1 SSTORE POP PUSH1 0x20 DUP3 ADD MLOAD DUP2 PUSH0 ADD PUSH1 0x1 PUSH2 0x100 EXP DUP2 SLOAD DUP2 PUSH1 0xFF MUL NOT AND SWAP1 DUP4 ISZERO ISZERO MUL OR SWAP1 SSTORE POP PUSH1 0x40 DUP3 ADD MLOAD DUP2 PUSH1 0x1 ADD SSTORE SWAP1 POP POP PUSH1 0x6 PUSH0 DUP2 SLOAD DUP1 SWAP3 SWAP2 SWAP1 PUSH2 0x9B9 SWAP1 PUSH2 0x2B32 JUMP JUMPDEST SWAP2 SWAP1 POP SSTORE POP PUSH32 0xB6BE2187D059CC2A55FE29E0E503B566E1E0F8C8780096E185429350ACFFD3DD DUP3 PUSH1 0x40 MLOAD PUSH2 0x9ED SWAP2 SWAP1 PUSH2 0x25FF JUMP JUMPDEST PUSH1 0x40 MLOAD DUP1 SWAP2 SUB SWAP1 LOG1 POP POP JUMP JUMPDEST PUSH1 0x60 PUSH1 0x5 DUP1 DUP2 GT ISZERO PUSH2 0xA0E JUMPI PUSH2 0xA0D PUSH2 0x2618 JUMP JUMPDEST JUMPDEST PUSH1 0x4 PUSH0 SWAP1 SLOAD SWAP1 PUSH2 0x100 EXP SWAP1 DIV PUSH1 0xFF AND PUSH1 0x5 DUP2 GT ISZERO PUSH2 0xA2F JUMPI PUSH2 0xA2E PUSH2 0x2618 JUMP JUMPDEST JUMPDEST EQ PUSH2 0xA6F JUMPI PUSH1 0x40 MLOAD PUSH32 0x8C379A000000000000000000000000000000000000000000000000000000000 DUP2 MSTORE PUSH1 0x4 ADD PUSH2 0xA66 SWAP1 PUSH2 0x2D06 JUMP JUMPDEST PUSH1 0x40 MLOAD DUP1 SWAP2 SUB SWAP1 REVERT JUMPDEST PUSH1 0x2 PUSH1 0x5 SLOAD DUP2 SLOAD DUP2 LT PUSH2 0xA85 JUMPI PUSH2 0xA84 PUSH2 0x2AD8 JUMP JUMPDEST JUMPDEST SWAP1 PUSH0 MSTORE PUSH1 0x20 PUSH0 KECCAK256 SWAP1 PUSH1 0x3 MUL ADD PUSH0 ADD DUP1 SLOAD PUSH2 0xA9E SWAP1 PUSH2 0x2D51 JUMP JUMPDEST DUP1 PUSH1 0x1F ADD PUSH1 0x20 DUP1 SWAP2 DIV MUL PUSH1 0x20 ADD PUSH1 0x40 MLOAD SWAP1 DUP2 ADD PUSH1 0x40 MSTORE DUP1 SWAP3 SWAP2 SWAP1 DUP2 DUP2 MSTORE PUSH1 0x20 ADD DUP3 DUP1 SLOAD PUSH2 0xACA SWAP1 PUSH2 0x2D51 JUMP JUMPDEST DUP1 ISZERO PUSH2 0xB15 JUMPI DUP1 PUSH1 0x1F LT PUSH2 0xAEC JUMPI PUSH2 0x100 DUP1 DUP4 SLOAD DIV MUL DUP4 MSTORE SWAP2 PUSH1 0x20 ADD SWAP2 PUSH2 0xB15 JUMP JUMPDEST DUP3 ADD SWAP2 SWAP1 PUSH0 MSTORE PUSH1 0x20 PUSH0 KECCAK256 SWAP1 JUMPDEST DUP2 SLOAD DUP2 MSTORE SWAP1 PUSH1 0x1 ADD SWAP1 PUSH1 0x20 ADD DUP1 DUP4 GT PUSH2 0xAF8 JUMPI DUP3 SWAP1 SUB PUSH1 0x1F AND DUP3 ADD SWAP2 JUMPDEST POP POP POP POP POP SWAP1 POP SWAP1 JUMP JUMPDEST PUSH2 0xB27 PUSH2 0x1FAA JUMP JUMPDEST PUSH0 PUSH1 0x5 DUP2 GT ISZERO PUSH2 0xB3A JUMPI PUSH2 0xB39 PUSH2 0x2618 JUMP JUMPDEST JUMPDEST PUSH1 0x4 PUSH0 SWAP1 SLOAD SWAP1 PUSH2 0x100 EXP SWAP1 DIV PUSH1 0xFF AND PUSH1 0x5 DUP2 GT ISZERO PUSH2 0xB5B JUMPI PUSH2 0xB5A PUSH2 0x2618 JUMP JUMPDEST JUMPDEST EQ PUSH2 0xB9B JUMPI PUSH1 0x40 MLOAD PUSH32 0x8C379A000000000000000000000000000000000000000000000000000000000 DUP2 MSTORE PUSH1 0x4 ADD PUSH2 0xB92 SWAP1 PUSH2 0x2DF1 JUMP JUMPDEST PUSH1 0x40 MLOAD DUP1 SWAP2 SUB SWAP1 REVERT JUMPDEST PUSH1 0x1 PUSH1 0x6 SLOAD GT PUSH2 0xBE0 JUMPI PUSH1 0x40 MLOAD PUSH32 0x8C379A000000000000000000000000000000000000000000000000000000000 DUP2 MSTORE PUSH1 0x4 ADD PUSH2 0xBD7 SWAP1 PUSH2 0x2E7F JUMP JUMPDEST PUSH1 0x40 MLOAD DUP1 SWAP2 SUB SWAP1 REVERT JUMPDEST PUSH1 0x1 PUSH1 0x4 PUSH0 PUSH2 0x100 EXP DUP2 SLOAD DUP2 PUSH1 0xFF MUL NOT AND SWAP1 DUP4 PUSH1 0x5 DUP2 GT ISZERO PUSH2 0xC05 JUMPI PUSH2 0xC04 PUSH2 0x2618 JUMP JUMPDEST JUMPDEST MUL OR SWAP1 SSTORE POP PUSH32 0xA97A4EE45751E2ABF3E4FC8946939630B11B371EA8AE39CCDC3056E98F5CC3F PUSH1 0x1 PUSH1 0x4 PUSH0 SWAP1 SLOAD SWAP1 PUSH2 0x100 EXP SWAP1 DIV PUSH1 0xFF AND PUSH1 0x5 DUP2 GT ISZERO PUSH2 0xC4E JUMPI PUSH2 0xC4D PUSH2 0x2618 JUMP JUMPDEST JUMPDEST PUSH2 0xC58 SWAP2 SWAP1 PUSH2 0x2E9D JUMP JUMPDEST PUSH1 0x5 DUP2 GT ISZERO PUSH2 0xC6A JUMPI PUSH2 0xC69 PUSH2 0x2618 JUMP JUMPDEST JUMPDEST PUSH1 0x4 PUSH0 SWAP1 SLOAD SWAP1 PUSH2 0x100 EXP SWAP1 DIV PUSH1 0xFF AND PUSH1 0x40 MLOAD PUSH2 0xC87 SWAP3 SWAP2 SWAP1 PUSH2 0x2ED0 JUMP JUMPDEST PUSH1 0x40 MLOAD DUP1 SWAP2 SUB SWAP1 LOG1 JUMP JUMPDEST PUSH0 PUSH1 0x5 DUP1 DUP2 GT ISZERO PUSH2 0xCA5 JUMPI PUSH2 0xCA4 PUSH2 0x2618 JUMP JUMPDEST JUMPDEST PUSH1 0x4 PUSH0 SWAP1 SLOAD SWAP1 PUSH2 0x100 EXP SWAP1 DIV PUSH1 0xFF AND PUSH1 0x5 DUP2 GT ISZERO PUSH2 0xCC6 JUMPI PUSH2 0xCC5 PUSH2 0x2618 JUMP JUMPDEST JUMPDEST EQ PUSH2 0xD06 JUMPI PUSH1 0x40 MLOAD PUSH32 0x8C379A000000000000000000000000000000000000000000000000000000000 DUP2 MSTORE PUSH1 0x4 ADD PUSH2 0xCFD SWAP1 PUSH2 0x2D06 JUMP JUMPDEST PUSH1 0x40 MLOAD DUP1 SWAP2 SUB SWAP1 REVERT JUMPDEST PUSH1 0x5 SLOAD SWAP1 POP SWAP1 JUMP JUMPDEST PUSH1 0x60 PUSH1 0x2 DUP1 SLOAD DUP1 PUSH1 0x20 MUL PUSH1 0x20 ADD PUSH1 0x40 MLOAD SWAP1 DUP2 ADD PUSH1 0x40 MSTORE DUP1 SWAP3 SWAP2 SWAP1 DUP2 DUP2 MSTORE PUSH1 0x20 ADD PUSH0 SWAP1 JUMPDEST DUP3 DUP3 LT ISZERO PUSH2 0xE4F JUMPI DUP4 DUP3 SWAP1 PUSH0 MSTORE PUSH1 0x20 PUSH0 KECCAK256 SWAP1 PUSH1 0x3 MUL ADD PUSH1 0x40 MLOAD DUP1 PUSH1 0x60 ADD PUSH1 0x40 MSTORE SWAP1 DUP2 PUSH0 DUP3 ADD DUP1 SLOAD PUSH2 0xD61 SWAP1 PUSH2 0x2D51 JUMP JUMPDEST DUP1 PUSH1 0x1F ADD PUSH1 0x20 DUP1 SWAP2 DIV MUL PUSH1 0x20 ADD PUSH1 0x40 MLOAD SWAP1 DUP2 ADD PUSH1 0x40 MSTORE DUP1 SWAP3 SWAP2 SWAP1 DUP2 DUP2 MSTORE PUSH1 0x20 ADD DUP3 DUP1 SLOAD PUSH2 0xD8D SWAP1 PUSH2 0x2D51 JUMP JUMPDEST DUP1 ISZERO PUSH2 0xDD8 JUMPI DUP1 PUSH1 0x1F LT PUSH2 0xDAF JUMPI PUSH2 0x100 DUP1 DUP4 SLOAD DIV MUL DUP4 MSTORE SWAP2 PUSH1 0x20 ADD SWAP2 PUSH2 0xDD8 JUMP JUMPDEST DUP3 ADD SWAP2 SWAP1 PUSH0 MSTORE PUSH1 0x20 PUSH0 KECCAK256 SWAP1 JUMPDEST DUP2 SLOAD DUP2 MSTORE SWAP1 PUSH1 0x1 ADD SWAP1 PUSH1 0x20 ADD DUP1 DUP4 GT PUSH2 0xDBB JUMPI DUP3 SWAP1 SUB PUSH1 0x1F AND DUP3 ADD SWAP2 JUMPDEST POP POP POP POP POP DUP2 MSTORE PUSH1 0x20 ADD PUSH1 0x1 DUP3 ADD SLOAD DUP2 MSTORE PUSH1 0x20 ADD PUSH1 0x2 DUP3 ADD PUSH0 SWAP1 SLOAD SWAP1 PUSH2 0x100 EXP SWAP1 DIV PUSH20 0xFFFFFFFFFFFFFFFFFFFFFFFFFFFFFFFFFFFFFFFF AND PUSH20 0xFFFFFFFFFFFFFFFFFFFFFFFFFFFFFFFFFFFFFFFF AND PUSH20 0xFFFFFFFFFFFFFFFFFFFFFFFFFFFFFFFFFFFFFFFF AND DUP2 MSTORE POP POP DUP2 MSTORE PUSH1 0x20 ADD SWAP1 PUSH1 0x1 ADD SWAP1 PUSH2 0xD31 JUMP JUMPDEST POP POP POP POP SWAP1 POP SWAP1 JUMP JUMPDEST PUSH0 PUSH1 0x1 PUSH1 0x5 DUP2 GT ISZERO PUSH2 0xE6D JUMPI PUSH2 0xE6C PUSH2 0x2618 JUMP JUMPDEST JUMPDEST PUSH1 0x4 PUSH0 SWAP1 SLOAD SWAP1 PUSH2 0x100 EXP SWAP1 DIV PUSH1 0xFF AND PUSH1 0x5 DUP2 GT ISZERO PUSH2 0xE8E JUMPI PUSH2 0xE8D PUSH2 0x2618 JUMP JUMPDEST JUMPDEST LT ISZERO PUSH2 0xECF JUMPI PUSH1 0x40 MLOAD PUSH32 0x8C379A000000000000000000000000000000000000000000000000000000000 DUP2 MSTORE PUSH1 0x4 ADD PUSH2 0xEC6 SWAP1 PUSH2 0x2F67 JUMP JUMPDEST PUSH1 0x40 MLOAD DUP1 SWAP2 SUB SWAP1 REVERT JUMPDEST PUSH1 0x2 DUP1 SLOAD SWAP1 POP DUP3 LT PUSH2 0xF16 JUMPI PUSH1 0x40 MLOAD PUSH32 0x8C379A000000000000000000000000000000000000000000000000000000000 DUP2 MSTORE PUSH1 0x4 ADD PUSH2 0xF0D SWAP1 PUSH2 0x2ABA JUMP JUMPDEST PUSH1 0x40 MLOAD DUP1 SWAP2 SUB SWAP1 REVERT JUMPDEST PUSH1 0x1 ISZERO ISZERO PUSH1 0x1 PUSH0 PUSH1 0x2 DUP6 DUP2 SLOAD DUP2 LT PUSH2 0xF31 JUMPI PUSH2 0xF30 PUSH2 0x2AD8 JUMP JUMPDEST JUMPDEST SWAP1 PUSH0 MSTORE PUSH1 0x20 PUSH0 KECCAK256 SWAP1 PUSH1 0x3 MUL ADD PUSH1 0x2 ADD PUSH0 SWAP1 SLOAD SWAP1 PUSH2 0x100 EXP SWAP1 DIV PUSH20 0xFFFFFFFFFFFFFFFFFFFFFFFFFFFFFFFFFFFFFFFF AND PUSH20 0xFFFFFFFFFFFFFFFFFFFFFFFFFFFFFFFFFFFFFFFF AND PUSH20 0xFFFFFFFFFFFFFFFFFFFFFFFFFFFFFFFFFFFFFFFF AND DUP2 MSTORE PUSH1 0x20 ADD SWAP1 DUP2 MSTORE PUSH1 0x20 ADD PUSH0 KECCAK256 PUSH0 ADD PUSH0 SWAP1 SLOAD SWAP1 PUSH2 0x100 EXP SWAP1 DIV PUSH1 0xFF AND ISZERO ISZERO EQ PUSH2 0xFEA JUMPI PUSH1 0x40 MLOAD PUSH32 0x8C379A000000000000000000000000000000000000000000000000000000000 DUP2 MSTORE PUSH1 0x4 ADD PUSH2 0xFE1 SWAP1 PUSH2 0x2FCF JUMP JUMPDEST PUSH1 0x40 MLOAD DUP1 SWAP2 SUB SWAP1 REVERT JUMPDEST PUSH1 0x2 DUP3 DUP2 SLOAD DUP2 LT PUSH2 0xFFE JUMPI PUSH2 0xFFD PUSH2 0x2AD8 JUMP JUMPDEST JUMPDEST SWAP1 PUSH0 MSTORE PUSH1 0x20 PUSH0 KECCAK256 SWAP1 PUSH1 0x3 MUL ADD PUSH1 0x2 ADD PUSH0 SWAP1 SLOAD SWAP1 PUSH2 0x100 EXP SWAP1 DIV PUSH20 0xFFFFFFFFFFFFFFFFFFFFFFFFFFFFFFFFFFFFFFFF AND SWAP1 POP SWAP2 SWAP1 POP JUMP JUMPDEST PUSH0 PUSH1 0x1 PUSH1 0x4 PUSH0 SWAP1 SLOAD SWAP1 PUSH2 0x100 EXP SWAP1 DIV PUSH1 0xFF AND PUSH1 0x5 DUP2 GT ISZERO PUSH2 0x1058 JUMPI PUSH2 0x1057 PUSH2 0x2618 JUMP JUMPDEST JUMPDEST PUSH2 0x1062 SWAP2 SWAP1 PUSH2 0x2E9D JUMP JUMPDEST PUSH1 0x5 DUP2 GT ISZERO PUSH2 0x1074 JUMPI PUSH2 0x1073 PUSH2 0x2618 JUMP JUMPDEST JUMPDEST SWAP1 POP SWAP1 JUMP JUMPDEST PUSH2 0x1081 PUSH2 0x1FAA JUMP JUMPDEST PUSH2 0x108A PUSH0 PUSH2 0x2031 JUMP JUMPDEST JUMP JUMPDEST PUSH2 0x1094 PUSH2 0x2198 JUMP JUMPDEST PUSH1 0x1 ISZERO ISZERO PUSH1 0x1 PUSH0 DUP5 PUSH20 0xFFFFFFFFFFFFFFFFFFFFFFFFFFFFFFFFFFFFFFFF AND PUSH20 0xFFFFFFFFFFFFFFFFFFFFFFFFFFFFFFFFFFFFFFFF AND DUP2 MSTORE PUSH1 0x20 ADD SWAP1 DUP2 MSTORE PUSH1 0x20 ADD PUSH0 KECCAK256 PUSH0 ADD PUSH0 SWAP1 SLOAD SWAP1 PUSH2 0x100 EXP SWAP1 DIV PUSH1 0xFF AND ISZERO ISZERO EQ PUSH2 0x1126 JUMPI PUSH1 0x40 MLOAD PUSH32 0x8C379A000000000000000000000000000000000000000000000000000000000 DUP2 MSTORE PUSH1 0x4 ADD PUSH2 0x111D SWAP1 PUSH2 0x2FCF JUMP JUMPDEST PUSH1 0x40 MLOAD DUP1 SWAP2 SUB SWAP1 REVERT JUMPDEST PUSH1 0x1 ISZERO ISZERO PUSH1 0x1 PUSH0 DUP5 PUSH20 0xFFFFFFFFFFFFFFFFFFFFFFFFFFFFFFFFFFFFFFFF AND PUSH20 0xFFFFFFFFFFFFFFFFFFFFFFFFFFFFFFFFFFFFFFFF AND DUP2 MSTORE PUSH1 0x20 ADD SWAP1 DUP2 MSTORE PUSH1 0x20 ADD PUSH0 KECCAK256 PUSH0 ADD PUSH1 0x1 SWAP1 SLOAD SWAP1 PUSH2 0x100 EXP SWAP1 DIV PUSH1 0xFF AND ISZERO ISZERO EQ PUSH2 0x11B9 JUMPI PUSH1 0x40 MLOAD PUSH32 0x8C379A000000000000000000000000000000000000000000000000000000000 DUP2 MSTORE PUSH1 0x4 ADD PUSH2 0x11B0 SWAP1 PUSH2 0x3037 JUMP JUMPDEST PUSH1 0x40 MLOAD DUP1 SWAP2 SUB SWAP1 REVERT JUMPDEST PUSH0 PUSH1 0x1 PUSH0 DUP5 PUSH20 0xFFFFFFFFFFFFFFFFFFFFFFFFFFFFFFFFFFFFFFFF AND PUSH20 0xFFFFFFFFFFFFFFFFFFFFFFFFFFFFFFFFFFFFFFFF AND DUP2 MSTORE PUSH1 0x20 ADD SWAP1 DUP2 MSTORE PUSH1 0x20 ADD PUSH0 KECCAK256 PUSH1 0x1 ADD SLOAD SWAP1 POP PUSH1 0x2 DUP2 DUP2 SLOAD DUP2 LT PUSH2 0x1211 JUMPI PUSH2 0x1210 PUSH2 0x2AD8 JUMP JUMPDEST JUMPDEST SWAP1 PUSH0 MSTORE PUSH1 0x20 PUSH0 KECCAK256 SWAP1 PUSH1 0x3 MUL ADD PUSH1 0x40 MLOAD DUP1 PUSH1 0x60 ADD PUSH1 0x40 MSTORE SWAP1 DUP2 PUSH0 DUP3 ADD DUP1 SLOAD PUSH2 0x1237 SWAP1 PUSH2 0x2D51 JUMP JUMPDEST DUP1 PUSH1 0x1F ADD PUSH1 0x20 DUP1 SWAP2 DIV MUL PUSH1 0x20 ADD PUSH1 0x40 MLOAD SWAP1 DUP2 ADD PUSH1 0x40 MSTORE DUP1 SWAP3 SWAP2 SWAP1 DUP2 DUP2 MSTORE PUSH1 0x20 ADD DUP3 DUP1 SLOAD PUSH2 0x1263 SWAP1 PUSH2 0x2D51 JUMP JUMPDEST DUP1 ISZERO PUSH2 0x12AE JUMPI DUP1 PUSH1 0x1F LT PUSH2 0x1285 JUMPI PUSH2 0x100 DUP1 DUP4 SLOAD DIV MUL DUP4 MSTORE SWAP2 PUSH1 0x20 ADD SWAP2 PUSH2 0x12AE JUMP JUMPDEST DUP3 ADD SWAP2 SWAP1 PUSH0 MSTORE PUSH1 0x20 PUSH0 KECCAK256 SWAP1 JUMPDEST DUP2 SLOAD DUP2 MSTORE SWAP1 PUSH1 0x1 ADD SWAP1 PUSH1 0x20 ADD DUP1 DUP4 GT PUSH2 0x1291 JUMPI DUP3 SWAP1 SUB PUSH1 0x1F AND DUP3 ADD SWAP2 JUMPDEST POP POP POP POP POP DUP2 MSTORE PUSH1 0x20 ADD PUSH1 0x1 DUP3 ADD SLOAD DUP2 MSTORE PUSH1 0x20 ADD PUSH1 0x2 DUP3 ADD PUSH0 SWAP1 SLOAD SWAP1 PUSH2 0x100 EXP SWAP1 DIV PUSH20 0xFFFFFFFFFFFFFFFFFFFFFFFFFFFFFFFFFFFFFFFF AND PUSH20 0xFFFFFFFFFFFFFFFFFFFFFFFFFFFFFFFFFFFFFFFF AND PUSH20 0xFFFFFFFFFFFFFFFFFFFFFFFFFFFFFFFFFFFFFFFF AND DUP2 MSTORE POP POP SWAP2 POP POP SWAP2 SWAP1 POP JUMP JUMPDEST PUSH0 PUSH0 PUSH0 SWAP1 SLOAD SWAP1 PUSH2 0x100 EXP SWAP1 DIV PUSH20 0xFFFFFFFFFFFFFFFFFFFFFFFFFFFFFFFFFFFFFFFF AND SWAP1 POP SWAP1 JUMP JUMPDEST PUSH0 PUSH1 0xA SLOAD SWAP1 POP SWAP1 JUMP JUMPDEST PUSH2 0x1356 PUSH2 0x2198 JUMP JUMPDEST PUSH1 0x5 DUP1 DUP2 GT ISZERO PUSH2 0x1369 JUMPI PUSH2 0x1368 PUSH2 0x2618 JUMP JUMPDEST JUMPDEST PUSH1 0x4 PUSH0 SWAP1 SLOAD SWAP1 PUSH2 0x100 EXP SWAP1 DIV PUSH1 0xFF AND PUSH1 0x5 DUP2 GT ISZERO PUSH2 0x138A JUMPI PUSH2 0x1389 PUSH2 0x2618 JUMP JUMPDEST JUMPDEST EQ PUSH2 0x13CA JUMPI PUSH1 0x40 MLOAD PUSH32 0x8C379A000000000000000000000000000000000000000000000000000000000 DUP2 MSTORE PUSH1 0x4 ADD PUSH2 0x13C1 SWAP1 PUSH2 0x2D06 JUMP JUMPDEST PUSH1 0x40 MLOAD DUP1 SWAP2 SUB SWAP1 REVERT JUMPDEST PUSH1 0x2 PUSH1 0x5 SLOAD DUP2 SLOAD DUP2 LT PUSH2 0x13E0 JUMPI PUSH2 0x13DF PUSH2 0x2AD8 JUMP JUMPDEST JUMPDEST SWAP1 PUSH0 MSTORE PUSH1 0x20 PUSH0 KECCAK256 SWAP1 PUSH1 0x3 MUL ADD PUSH1 0x40 MLOAD DUP1 PUSH1 0x60 ADD PUSH1 0x40 MSTORE SWAP1 DUP2 PUSH0 DUP3 ADD DUP1 SLOAD PUSH2 0x1406 SWAP1 PUSH2 0x2D51 JUMP JUMPDEST DUP1 PUSH1 0x1F ADD PUSH1 0x20 DUP1 SWAP2 DIV MUL PUSH1 0x20 ADD PUSH1 0x40 MLOAD SWAP1 DUP2 ADD PUSH1 0x40 MSTORE DUP1 SWAP3 SWAP2 SWAP1 DUP2 DUP2 MSTORE PUSH1 0x20 ADD DUP3 DUP1 SLOAD PUSH2 0x1432 SWAP1 PUSH2 0x2D51 JUMP JUMPDEST DUP1 ISZERO PUSH2 0x147D JUMPI DUP1 PUSH1 0x1F LT PUSH2 0x1454 JUMPI PUSH2 0x100 DUP1 DUP4 SLOAD DIV MUL DUP4 MSTORE SWAP2 PUSH1 0x20 ADD SWAP2 PUSH2 0x147D JUMP JUMPDEST DUP3 ADD SWAP2 SWAP1 PUSH0 MSTORE PUSH1 0x20 PUSH0 KECCAK256 SWAP1 JUMPDEST DUP2 SLOAD DUP2 MSTORE SWAP1 PUSH1 0x1 ADD SWAP1 PUSH1 0x20 ADD DUP1 DUP4 GT PUSH2 0x1460 JUMPI DUP3 SWAP1 SUB PUSH1 0x1F AND DUP3 ADD SWAP2 JUMPDEST POP POP POP POP POP DUP2 MSTORE PUSH1 0x20 ADD PUSH1 0x1 DUP3 ADD SLOAD DUP2 MSTORE PUSH1 0x20 ADD PUSH1 0x2 DUP3 ADD PUSH0 SWAP1 SLOAD SWAP1 PUSH2 0x100 EXP SWAP1 DIV PUSH20 0xFFFFFFFFFFFFFFFFFFFFFFFFFFFFFFFFFFFFFFFF AND PUSH20 0xFFFFFFFFFFFFFFFFFFFFFFFFFFFFFFFFFFFFFFFF AND PUSH20 0xFFFFFFFFFFFFFFFFFFFFFFFFFFFFFFFFFFFFFFFF AND DUP2 MSTORE POP POP SWAP1 POP SWAP1 JUMP JUMPDEST PUSH0 PUSH1 0x4 PUSH0 SWAP1 SLOAD SWAP1 PUSH2 0x100 EXP SWAP1 DIV PUSH1 0xFF AND SWAP1 POP SWAP1 JUMP JUMPDEST PUSH0 PUSH1 0x9 SLOAD SWAP1 POP SWAP1 JUMP JUMPDEST PUSH1 0x1 PUSH1 0x5 DUP2 GT ISZERO PUSH2 0x151C JUMPI PUSH2 0x151B PUSH2 0x2618 JUMP JUMPDEST JUMPDEST PUSH1 0x4 PUSH0 SWAP1 SLOAD SWAP1 PUSH2 0x100 EXP SWAP1 DIV PUSH1 0xFF AND PUSH1 0x5 DUP2 GT ISZERO PUSH2 0x153D JUMPI PUSH2 0x153C PUSH2 0x2618 JUMP JUMPDEST JUMPDEST EQ PUSH2 0x157D JUMPI PUSH1 0x40 MLOAD PUSH32 0x8C379A000000000000000000000000000000000000000000000000000000000 DUP2 MSTORE PUSH1 0x4 ADD PUSH2 0x1574 SWAP1 PUSH2 0x30C5 JUMP JUMPDEST PUSH1 0x40 MLOAD DUP1 SWAP2 SUB SWAP1 REVERT JUMPDEST CALLER PUSH20 0xFFFFFFFFFFFFFFFFFFFFFFFFFFFFFFFFFFFFFFFF AND PUSH2 0x159C PUSH2 0x131E JUMP JUMPDEST PUSH20 0xFFFFFFFFFFFFFFFFFFFFFFFFFFFFFFFFFFFFFFFF AND SUB PUSH2 0x15F2 JUMPI PUSH1 0x40 MLOAD PUSH32 0x8C379A000000000000000000000000000000000000000000000000000000000 DUP2 MSTORE PUSH1 0x4 ADD PUSH2 0x15E9 SWAP1 PUSH2 0x3153 JUMP JUMPDEST PUSH1 0x40 MLOAD DUP1 SWAP2 SUB SWAP1 REVERT JUMPDEST PUSH1 0x1 ISZERO ISZERO PUSH1 0x1 PUSH0 CALLER PUSH20 0xFFFFFFFFFFFFFFFFFFFFFFFFFFFFFFFFFFFFFFFF AND PUSH20 0xFFFFFFFFFFFFFFFFFFFFFFFFFFFFFFFFFFFFFFFF AND DUP2 MSTORE PUSH1 0x20 ADD SWAP1 DUP2 MSTORE PUSH1 0x20 ADD PUSH0 KECCAK256 PUSH0 ADD PUSH0 SWAP1 SLOAD SWAP1 PUSH2 0x100 EXP SWAP1 DIV PUSH1 0xFF AND ISZERO ISZERO EQ PUSH2 0x1684 JUMPI PUSH1 0x40 MLOAD PUSH32 0x8C379A000000000000000000000000000000000000000000000000000000000 DUP2 MSTORE PUSH1 0x4 ADD PUSH2 0x167B SWAP1 PUSH2 0x29EA JUMP JUMPDEST PUSH1 0x40 MLOAD DUP1 SWAP2 SUB SWAP1 REVERT JUMPDEST PUSH1 0x2 PUSH1 0x40 MLOAD DUP1 PUSH1 0x60 ADD PUSH1 0x40 MSTORE DUP1 DUP4 DUP2 MSTORE PUSH1 0x20 ADD PUSH0 DUP2 MSTORE PUSH1 0x20 ADD CALLER PUSH20 0xFFFFFFFFFFFFFFFFFFFFFFFFFFFFFFFFFFFFFFFF AND DUP2 MSTORE POP SWAP1 DUP1 PUSH1 0x1 DUP2 SLOAD ADD DUP1 DUP3 SSTORE DUP1 SWAP2 POP POP PUSH1 0x1 SWAP1 SUB SWAP1 PUSH0 MSTORE PUSH1 0x20 PUSH0 KECCAK256 SWAP1 PUSH1 0x3 MUL ADD PUSH0 SWAP1 SWAP2 SWAP1 SWAP2 SWAP1 SWAP2 POP PUSH0 DUP3 ADD MLOAD DUP2 PUSH0 ADD SWAP1 DUP2 PUSH2 0x16F0 SWAP2 SWAP1 PUSH2 0x3311 JUMP JUMPDEST POP PUSH1 0x20 DUP3 ADD MLOAD DUP2 PUSH1 0x1 ADD SSTORE PUSH1 0x40 DUP3 ADD MLOAD DUP2 PUSH1 0x2 ADD PUSH0 PUSH2 0x100 EXP DUP2 SLOAD DUP2 PUSH20 0xFFFFFFFFFFFFFFFFFFFFFFFFFFFFFFFFFFFFFFFF MUL NOT AND SWAP1 DUP4 PUSH20 0xFFFFFFFFFFFFFFFFFFFFFFFFFFFFFFFFFFFFFFFF AND MUL OR SWAP1 SSTORE POP POP POP PUSH1 0x8 PUSH0 DUP2 SLOAD DUP1 SWAP3 SWAP2 SWAP1 PUSH2 0x1755 SWAP1 PUSH2 0x2B32 JUMP JUMPDEST SWAP2 SWAP1 POP SSTORE POP PUSH32 0x92E393E9B54E2F801D3EA4BEB0C5E71A21CC34A5D34B77D0FB8A3AA1650DC18F PUSH1 0x8 SLOAD PUSH1 0x40 MLOAD PUSH2 0x178B SWAP2 SWAP1 PUSH2 0x2334 JUMP JUMPDEST PUSH1 0x40 MLOAD DUP1 SWAP2 SUB SWAP1 LOG1 POP JUMP JUMPDEST PUSH2 0x179E PUSH2 0x1FAA JUMP JUMPDEST PUSH1 0x2 PUSH1 0x5 DUP2 GT ISZERO PUSH2 0x17B2 JUMPI PUSH2 0x17B1 PUSH2 0x2618 JUMP JUMPDEST JUMPDEST PUSH1 0x4 PUSH0 SWAP1 SLOAD SWAP1 PUSH2 0x100 EXP SWAP1 DIV PUSH1 0xFF AND PUSH1 0x5 DUP2 GT ISZERO PUSH2 0x17D3 JUMPI PUSH2 0x17D2 PUSH2 0x2618 JUMP JUMPDEST JUMPDEST EQ PUSH2 0x1813 JUMPI PUSH1 0x40 MLOAD PUSH32 0x8C379A000000000000000000000000000000000000000000000000000000000 DUP2 MSTORE PUSH1 0x4 ADD PUSH2 0x180A SWAP1 PUSH2 0x3476 JUMP JUMPDEST PUSH1 0x40 MLOAD DUP1 SWAP2 SUB SWAP1 REVERT JUMPDEST PUSH1 0x3 PUSH1 0x4 PUSH0 PUSH2 0x100 EXP DUP2 SLOAD DUP2 PUSH1 0xFF MUL NOT AND SWAP1 DUP4 PUSH1 0x5 DUP2 GT ISZERO PUSH2 0x1838 JUMPI PUSH2 0x1837 PUSH2 0x2618 JUMP JUMPDEST JUMPDEST MUL OR SWAP1 SSTORE POP PUSH32 0xA97A4EE45751E2ABF3E4FC8946939630B11B371EA8AE39CCDC3056E98F5CC3F PUSH1 0x1 PUSH1 0x4 PUSH0 SWAP1 SLOAD SWAP1 PUSH2 0x100 EXP SWAP1 DIV PUSH1 0xFF AND PUSH1 0x5 DUP2 GT ISZERO PUSH2 0x1881 JUMPI PUSH2 0x1880 PUSH2 0x2618 JUMP JUMPDEST JUMPDEST PUSH2 0x188B SWAP2 SWAP1 PUSH2 0x2E9D JUMP JUMPDEST PUSH1 0x5 DUP2 GT ISZERO PUSH2 0x189D JUMPI PUSH2 0x189C PUSH2 0x2618 JUMP JUMPDEST JUMPDEST PUSH1 0x4 PUSH0 SWAP1 SLOAD SWAP1 PUSH2 0x100 EXP SWAP1 DIV PUSH1 0xFF AND PUSH1 0x40 MLOAD PUSH2 0x18BA SWAP3 SWAP2 SWAP1 PUSH2 0x2ED0 JUMP JUMPDEST PUSH1 0x40 MLOAD DUP1 SWAP2 SUB SWAP1 LOG1 JUMP JUMPDEST PUSH2 0x18CC PUSH2 0x1FAA JUMP JUMPDEST PUSH1 0x4 PUSH1 0x5 DUP2 GT ISZERO PUSH2 0x18E0 JUMPI PUSH2 0x18DF PUSH2 0x2618 JUMP JUMPDEST JUMPDEST PUSH1 0x4 PUSH0 SWAP1 SLOAD SWAP1 PUSH2 0x100 EXP SWAP1 DIV PUSH1 0xFF AND PUSH1 0x5 DUP2 GT ISZERO PUSH2 0x1901 JUMPI PUSH2 0x1900 PUSH2 0x2618 JUMP JUMPDEST JUMPDEST EQ PUSH2 0x1941 JUMPI PUSH1 0x40 MLOAD PUSH32 0x8C379A000000000000000000000000000000000000000000000000000000000 DUP2 MSTORE PUSH1 0x4 ADD PUSH2 0x1938 SWAP1 PUSH2 0x34DE JUMP JUMPDEST PUSH1 0x40 MLOAD DUP1 SWAP2 SUB SWAP1 REVERT JUMPDEST PUSH1 0x1 PUSH1 0x9 SLOAD EQ PUSH2 0x1986 JUMPI PUSH1 0x40 MLOAD PUSH32 0x8C379A000000000000000000000000000000000000000000000000000000000 DUP2 MSTORE PUSH1 0x4 ADD PUSH2 0x197D SWAP1 PUSH2 0x356C JUMP JUMPDEST PUSH1 0x40 MLOAD DUP1 SWAP2 SUB SWAP1 REVERT JUMPDEST PUSH1 0x5 PUSH1 0x4 PUSH0 PUSH2 0x100 EXP DUP2 SLOAD DUP2 PUSH1 0xFF MUL NOT AND SWAP1 DUP4 PUSH1 0x5 DUP2 GT ISZERO PUSH2 0x19AB JUMPI PUSH2 0x19AA PUSH2 0x2618 JUMP JUMPDEST JUMPDEST MUL OR SWAP1 SSTORE POP PUSH32 0xA97A4EE45751E2ABF3E4FC8946939630B11B371EA8AE39CCDC3056E98F5CC3F PUSH1 0x1 PUSH1 0x4 PUSH0 SWAP1 SLOAD SWAP1 PUSH2 0x100 EXP SWAP1 DIV PUSH1 0xFF AND PUSH1 0x5 DUP2 GT ISZERO PUSH2 0x19F4 JUMPI PUSH2 0x19F3 PUSH2 0x2618 JUMP JUMPDEST JUMPDEST PUSH2 0x19FE SWAP2 SWAP1 PUSH2 0x2E9D JUMP JUMPDEST PUSH1 0x5 DUP2 GT ISZERO PUSH2 0x1A10 JUMPI PUSH2 0x1A0F PUSH2 0x2618 JUMP JUMPDEST JUMPDEST PUSH1 0x4 PUSH0 SWAP1 SLOAD SWAP1 PUSH2 0x100 EXP SWAP1 DIV PUSH1 0xFF AND PUSH1 0x40 MLOAD PUSH2 0x1A2D SWAP3 SWAP2 SWAP1 PUSH2 0x2ED0 JUMP JUMPDEST PUSH1 0x40 MLOAD DUP1 SWAP2 SUB SWAP1 LOG1 JUMP JUMPDEST PUSH0 PUSH1 0x2 DUP1 SLOAD SWAP1 POP SWAP1 POP SWAP1 JUMP JUMPDEST PUSH2 0x1A4B PUSH2 0x1FAA JUMP JUMPDEST PUSH1 0x5 DUP1 DUP2 GT ISZERO PUSH2 0x1A5E JUMPI PUSH2 0x1A5D PUSH2 0x2618 JUMP JUMPDEST JUMPDEST PUSH1 0x4 PUSH0 SWAP1 SLOAD SWAP1 PUSH2 0x100 EXP SWAP1 DIV PUSH1 0xFF AND PUSH1 0x5 DUP2 GT ISZERO PUSH2 0x1A7F JUMPI PUSH2 0x1A7E PUSH2 0x2618 JUMP JUMPDEST JUMPDEST EQ PUSH2 0x1ABF JUMPI PUSH1 0x40 MLOAD PUSH32 0x8C379A000000000000000000000000000000000000000000000000000000000 DUP2 MSTORE PUSH1 0x4 ADD PUSH2 0x1AB6 SWAP1 PUSH2 0x35FA JUMP JUMPDEST PUSH1 0x40 MLOAD DUP1 SWAP2 SUB SWAP1 REVERT JUMPDEST PUSH0 PUSH0 SWAP1 POP JUMPDEST PUSH1 0x3 DUP1 SLOAD SWAP1 POP DUP2 LT ISZERO PUSH2 0x1BBE JUMPI PUSH1 0x40 MLOAD DUP1 PUSH1 0x60 ADD PUSH1 0x40 MSTORE DUP1 PUSH0 ISZERO ISZERO DUP2 MSTORE PUSH1 0x20 ADD PUSH0 ISZERO ISZERO DUP2 MSTORE PUSH1 0x20 ADD PUSH0 DUP2 MSTORE POP PUSH1 0x1 PUSH0 PUSH1 0x3 DUP5 DUP2 SLOAD DUP2 LT PUSH2 0x1B07 JUMPI PUSH2 0x1B06 PUSH2 0x2AD8 JUMP JUMPDEST JUMPDEST SWAP1 PUSH0 MSTORE PUSH1 0x20 PUSH0 KECCAK256 ADD PUSH0 SWAP1 SLOAD SWAP1 PUSH2 0x100 EXP SWAP1 DIV PUSH20 0xFFFFFFFFFFFFFFFFFFFFFFFFFFFFFFFFFFFFFFFF AND PUSH20 0xFFFFFFFFFFFFFFFFFFFFFFFFFFFFFFFFFFFFFFFF AND PUSH20 0xFFFFFFFFFFFFFFFFFFFFFFFFFFFFFFFFFFFFFFFF AND DUP2 MSTORE PUSH1 0x20 ADD SWAP1 DUP2 MSTORE PUSH1 0x20 ADD PUSH0 KECCAK256 PUSH0 DUP3 ADD MLOAD DUP2 PUSH0 ADD PUSH0 PUSH2 0x100 EXP DUP2 SLOAD DUP2 PUSH1 0xFF MUL NOT AND SWAP1 DUP4 ISZERO ISZERO MUL OR SWAP1 SSTORE POP PUSH1 0x20 DUP3 ADD MLOAD DUP2 PUSH0 ADD PUSH1 0x1 PUSH2 0x100 EXP DUP2 SLOAD DUP2 PUSH1 0xFF MUL NOT AND SWAP1 DUP4 ISZERO ISZERO MUL OR SWAP1 SSTORE POP PUSH1 0x40 DUP3 ADD MLOAD DUP2 PUSH1 0x1 ADD SSTORE SWAP1 POP POP DUP1 DUP1 PUSH1 0x1 ADD SWAP2 POP POP PUSH2 0x1AC4 JUMP JUMPDEST POP PUSH1 0x2 PUSH0 PUSH2 0x1BCC SWAP2 SWAP1 PUSH2 0x21CD JUMP JUMPDEST PUSH1 0x3 PUSH0 PUSH2 0x1BD9 SWAP2 SWAP1 PUSH2 0x21EE JUMP JUMPDEST PUSH0 PUSH1 0x9 DUP2 SWAP1 SSTORE POP PUSH0 PUSH1 0x5 DUP2 SWAP1 SSTORE POP PUSH0 PUSH1 0x6 DUP2 SWAP1 SSTORE POP PUSH0 PUSH1 0x7 DUP2 SWAP1 SSTORE POP PUSH1 0x1 PUSH1 0xA DUP2 SWAP1 SSTORE POP PUSH0 PUSH1 0x8 DUP2 SWAP1 SSTORE POP PUSH0 PUSH1 0x4 PUSH0 PUSH2 0x100 EXP DUP2 SLOAD DUP2 PUSH1 0xFF MUL NOT AND SWAP1 DUP4 PUSH1 0x5 DUP2 GT ISZERO PUSH2 0x1C28 JUMPI PUSH2 0x1C27 PUSH2 0x2618 JUMP JUMPDEST JUMPDEST MUL OR SWAP1 SSTORE POP JUMP JUMPDEST PUSH2 0x1C37 PUSH2 0x1FAA JUMP JUMPDEST PUSH1 0x1 PUSH1 0x5 DUP2 GT ISZERO PUSH2 0x1C4B JUMPI PUSH2 0x1C4A PUSH2 0x2618 JUMP JUMPDEST JUMPDEST PUSH1 0x4 PUSH0 SWAP1 SLOAD SWAP1 PUSH2 0x100 EXP SWAP1 DIV PUSH1 0xFF AND PUSH1 0x5 DUP2 GT ISZERO PUSH2 0x1C6C JUMPI PUSH2 0x1C6B PUSH2 0x2618 JUMP JUMPDEST JUMPDEST EQ PUSH2 0x1CAC JUMPI PUSH1 0x40 MLOAD PUSH32 0x8C379A000000000000000000000000000000000000000000000000000000000 DUP2 MSTORE PUSH1 0x4 ADD PUSH2 0x1CA3 SWAP1 PUSH2 0x3688 JUMP JUMPDEST PUSH1 0x40 MLOAD DUP1 SWAP2 SUB SWAP1 REVERT JUMPDEST PUSH0 PUSH1 0x2 DUP1 SLOAD SWAP1 POP GT PUSH2 0x1CF3 JUMPI PUSH1 0x40 MLOAD PUSH32 0x8C379A000000000000000000000000000000000000000000000000000000000 DUP2 MSTORE PUSH1 0x4 ADD PUSH2 0x1CEA SWAP1 PUSH2 0x3716 JUMP JUMPDEST PUSH1 0x40 MLOAD DUP1 SWAP2 SUB SWAP1 REVERT JUMPDEST PUSH1 0x2 PUSH1 0x4 PUSH0 PUSH2 0x100 EXP DUP2 SLOAD DUP2 PUSH1 0xFF MUL NOT AND SWAP1 DUP4 PUSH1 0x5 DUP2 GT ISZERO PUSH2 0x1D18 JUMPI PUSH2 0x1D17 PUSH2 0x2618 JUMP JUMPDEST JUMPDEST MUL OR SWAP1 SSTORE POP PUSH32 0xA97A4EE45751E2ABF3E4FC8946939630B11B371EA8AE39CCDC3056E98F5CC3F PUSH1 0x1 PUSH1 0x4 PUSH0 SWAP1 SLOAD SWAP1 PUSH2 0x100 EXP SWAP1 DIV PUSH1 0xFF AND PUSH1 0x5 DUP2 GT ISZERO PUSH2 0x1D61 JUMPI PUSH2 0x1D60 PUSH2 0x2618 JUMP JUMPDEST JUMPDEST PUSH2 0x1D6B SWAP2 SWAP1 PUSH2 0x2E9D JUMP JUMPDEST PUSH1 0x5 DUP2 GT ISZERO PUSH2 0x1D7D JUMPI PUSH2 0x1D7C PUSH2 0x2618 JUMP JUMPDEST JUMPDEST PUSH1 0x4 PUSH0 SWAP1 SLOAD SWAP1 PUSH2 0x100 EXP SWAP1 DIV PUSH1 0xFF AND PUSH1 0x40 MLOAD PUSH2 0x1D9A SWAP3 SWAP2 SWAP1 PUSH2 0x2ED0 JUMP JUMPDEST PUSH1 0x40 MLOAD DUP1 SWAP2 SUB SWAP1 LOG1 JUMP JUMPDEST PUSH0 PUSH1 0x7 SLOAD SWAP1 POP SWAP1 JUMP JUMPDEST PUSH2 0x1DB5 PUSH2 0x1FAA JUMP JUMPDEST PUSH0 PUSH20 0xFFFFFFFFFFFFFFFFFFFFFFFFFFFFFFFFFFFFFFFF AND DUP2 PUSH20 0xFFFFFFFFFFFFFFFFFFFFFFFFFFFFFFFFFFFFFFFF AND SUB PUSH2 0x1E25 JUMPI PUSH0 PUSH1 0x40 MLOAD PUSH32 0x1E4FBDF700000000000000000000000000000000000000000000000000000000 DUP2 MSTORE PUSH1 0x4 ADD PUSH2 0x1E1C SWAP2 SWAP1 PUSH2 0x25FF JUMP JUMPDEST PUSH1 0x40 MLOAD DUP1 SWAP2 SUB SWAP1 REVERT JUMPDEST PUSH2 0x1E2E DUP2 PUSH2 0x2031 JUMP JUMPDEST POP JUMP JUMPDEST PUSH2 0x1E39 PUSH2 0x1FAA JUMP JUMPDEST PUSH1 0x3 PUSH1 0x5 DUP2 GT ISZERO PUSH2 0x1E4D JUMPI PUSH2 0x1E4C PUSH2 0x2618 JUMP JUMPDEST JUMPDEST PUSH1 0x4 PUSH0 SWAP1 SLOAD SWAP1 PUSH2 0x100 EXP SWAP1 DIV PUSH1 0xFF AND PUSH1 0x5 DUP2 GT ISZERO PUSH2 0x1E6E JUMPI PUSH2 0x1E6D PUSH2 0x2618 JUMP JUMPDEST JUMPDEST EQ PUSH2 0x1EAE JUMPI PUSH1 0x40 MLOAD PUSH32 0x8C379A000000000000000000000000000000000000000000000000000000000 DUP2 MSTORE PUSH1 0x4 ADD PUSH2 0x1EA5 SWAP1 PUSH2 0x37A4 JUMP JUMPDEST PUSH1 0x40 MLOAD DUP1 SWAP2 SUB SWAP1 REVERT JUMPDEST PUSH0 PUSH1 0x7 SLOAD GT PUSH2 0x1EF2 JUMPI PUSH1 0x40 MLOAD PUSH32 0x8C379A000000000000000000000000000000000000000000000000000000000 DUP2 MSTORE PUSH1 0x4 ADD PUSH2 0x1EE9 SWAP1 PUSH2 0x380C JUMP JUMPDEST PUSH1 0x40 MLOAD DUP1 SWAP2 SUB SWAP1 REVERT JUMPDEST PUSH1 0x4 DUP1 PUSH0 PUSH2 0x100 EXP DUP2 SLOAD DUP2 PUSH1 0xFF MUL NOT AND SWAP1 DUP4 PUSH1 0x5 DUP2 GT ISZERO PUSH2 0x1F16 JUMPI PUSH2 0x1F15 PUSH2 0x2618 JUMP JUMPDEST JUMPDEST MUL OR SWAP1 SSTORE POP PUSH2 0x1F23 PUSH2 0x20F2 JUMP JUMPDEST PUSH32 0xA97A4EE45751E2ABF3E4FC8946939630B11B371EA8AE39CCDC3056E98F5CC3F PUSH1 0x1 PUSH1 0x4 PUSH0 SWAP1 SLOAD SWAP1 PUSH2 0x100 EXP SWAP1 DIV PUSH1 0xFF AND PUSH1 0x5 DUP2 GT ISZERO PUSH2 0x1F67 JUMPI PUSH2 0x1F66 PUSH2 0x2618 JUMP JUMPDEST JUMPDEST PUSH2 0x1F71 SWAP2 SWAP1 PUSH2 0x2E9D JUMP JUMPDEST PUSH1 0x5 DUP2 GT ISZERO PUSH2 0x1F83 JUMPI PUSH2 0x1F82 PUSH2 0x2618 JUMP JUMPDEST JUMPDEST PUSH1 0x4 PUSH0 SWAP1 SLOAD SWAP1 PUSH2 0x100 EXP SWAP1 DIV PUSH1 0xFF AND PUSH1 0x40 MLOAD PUSH2 0x1FA0 SWAP3 SWAP2 SWAP1 PUSH2 0x2ED0 JUMP JUMPDEST PUSH1 0x40 MLOAD DUP1 SWAP2 SUB SWAP1 LOG1 JUMP JUMPDEST PUSH2 0x1FB2 PUSH2 0x2191 JUMP JUMPDEST PUSH20 0xFFFFFFFFFFFFFFFFFFFFFFFFFFFFFFFFFFFFFFFF AND PUSH2 0x1FD0 PUSH2 0x131E JUMP JUMPDEST PUSH20 0xFFFFFFFFFFFFFFFFFFFFFFFFFFFFFFFFFFFFFFFF AND EQ PUSH2 0x202F JUMPI PUSH2 0x1FF3 PUSH2 0x2191 JUMP JUMPDEST PUSH1 0x40 MLOAD PUSH32 0x118CDAA700000000000000000000000000000000000000000000000000000000 DUP2 MSTORE PUSH1 0x4 ADD PUSH2 0x2026 SWAP2 SWAP1 PUSH2 0x25FF JUMP JUMPDEST PUSH1 0x40 MLOAD DUP1 SWAP2 SUB SWAP1 REVERT JUMPDEST JUMP JUMPDEST PUSH0 PUSH0 PUSH0 SWAP1 SLOAD SWAP1 PUSH2 0x100 EXP SWAP1 DIV PUSH20 0xFFFFFFFFFFFFFFFFFFFFFFFFFFFFFFFFFFFFFFFF AND SWAP1 POP DUP2 PUSH0 PUSH0 PUSH2 0x100 EXP DUP2 SLOAD DUP2 PUSH20 0xFFFFFFFFFFFFFFFFFFFFFFFFFFFFFFFFFFFFFFFF MUL NOT AND SWAP1 DUP4 PUSH20 0xFFFFFFFFFFFFFFFFFFFFFFFFFFFFFFFFFFFFFFFF AND MUL OR SWAP1 SSTORE POP DUP2 PUSH20 0xFFFFFFFFFFFFFFFFFFFFFFFFFFFFFFFFFFFFFFFF AND DUP2 PUSH20 0xFFFFFFFFFFFFFFFFFFFFFFFFFFFFFFFFFFFFFFFF AND PUSH32 0x8BE0079C531659141344CD1FD0A4F28419497F9722A3DAAFE3B4186F6B6457E0 PUSH1 0x40 MLOAD PUSH1 0x40 MLOAD DUP1 SWAP2 SUB SWAP1 LOG3 POP POP JUMP JUMPDEST PUSH2 0x20FA PUSH2 0x1FAA JUMP JUMPDEST PUSH0 PUSH0 SWAP1 POP JUMPDEST PUSH1 0x2 DUP1 SLOAD SWAP1 POP DUP2 LT ISZERO PUSH2 0x218E JUMPI PUSH1 0xA SLOAD PUSH1 0x2 DUP3 DUP2 SLOAD DUP2 LT PUSH2 0x2123 JUMPI PUSH2 0x2122 PUSH2 0x2AD8 JUMP JUMPDEST JUMPDEST SWAP1 PUSH0 MSTORE PUSH1 0x20 PUSH0 KECCAK256 SWAP1 PUSH1 0x3 MUL ADD PUSH1 0x1 ADD SLOAD LT PUSH2 0x2181 JUMPI PUSH1 0x2 DUP2 DUP2 SLOAD DUP2 LT PUSH2 0x214C JUMPI PUSH2 0x214B PUSH2 0x2AD8 JUMP JUMPDEST JUMPDEST SWAP1 PUSH0 MSTORE PUSH1 0x20 PUSH0 KECCAK256 SWAP1 PUSH1 0x3 MUL ADD PUSH1 0x1 ADD SLOAD PUSH1 0xA DUP2 SWAP1 SSTORE POP DUP1 PUSH1 0x5 DUP2 SWAP1 SSTORE POP PUSH1 0x9 PUSH0 DUP2 SLOAD DUP1 SWAP3 SWAP2 SWAP1 PUSH2 0x217B SWAP1 PUSH2 0x2B32 JUMP JUMPDEST SWAP2 SWAP1 POP SSTORE POP JUMPDEST DUP1 DUP1 PUSH1 0x1 ADD SWAP2 POP POP PUSH2 0x20FF JUMP JUMPDEST POP JUMP JUMPDEST PUSH0 CALLER SWAP1 POP SWAP1 JUMP JUMPDEST PUSH1 0x40 MLOAD DUP1 PUSH1 0x60 ADD PUSH1 0x40 MSTORE DUP1 PUSH1 0x60 DUP2 MSTORE PUSH1 0x20 ADD PUSH0 DUP2 MSTORE PUSH1 0x20 ADD PUSH0 PUSH20 0xFFFFFFFFFFFFFFFFFFFFFFFFFFFFFFFFFFFFFFFF AND DUP2 MSTORE POP SWAP1 JUMP JUMPDEST POP DUP1 SLOAD PUSH0 DUP3 SSTORE PUSH1 0x3 MUL SWAP1 PUSH0 MSTORE PUSH1 0x20 PUSH0 KECCAK256 SWAP1 DUP2 ADD SWAP1 PUSH2 0x21EB SWAP2 SWAP1 PUSH2 0x220C JUMP JUMPDEST POP JUMP JUMPDEST POP DUP1 SLOAD PUSH0 DUP3 SSTORE SWAP1 PUSH0 MSTORE PUSH1 0x20 PUSH0 KECCAK256 SWAP1 DUP2 ADD SWAP1 PUSH2 0x2209 SWAP2 SWAP1 PUSH2 0x225E JUMP JUMPDEST POP JUMP JUMPDEST JUMPDEST DUP1 DUP3 GT ISZERO PUSH2 0x225A JUMPI PUSH0 PUSH0 DUP3 ADD PUSH0 PUSH2 0x2224 SWAP2 SWAP1 PUSH2 0x2279 JUMP JUMPDEST PUSH1 0x1 DUP3 ADD PUSH0 SWAP1 SSTORE PUSH1 0x2 DUP3 ADD PUSH0 PUSH2 0x100 EXP DUP2 SLOAD SWAP1 PUSH20 0xFFFFFFFFFFFFFFFFFFFFFFFFFFFFFFFFFFFFFFFF MUL NOT AND SWAP1 SSTORE POP PUSH1 0x3 ADD PUSH2 0x220D JUMP JUMPDEST POP SWAP1 JUMP JUMPDEST JUMPDEST DUP1 DUP3 GT ISZERO PUSH2 0x2275 JUMPI PUSH0 DUP2 PUSH0 SWAP1 SSTORE POP PUSH1 0x1 ADD PUSH2 0x225F JUMP JUMPDEST POP SWAP1 JUMP JUMPDEST POP DUP1 SLOAD PUSH2 0x2285 SWAP1 PUSH2 0x2D51 JUMP JUMPDEST PUSH0 DUP3 SSTORE DUP1 PUSH1 0x1F LT PUSH2 0x2296 JUMPI POP PUSH2 0x22B3 JUMP JUMPDEST PUSH1 0x1F ADD PUSH1 0x20 SWAP1 DIV SWAP1 PUSH0 MSTORE PUSH1 0x20 PUSH0 KECCAK256 SWAP1 DUP2 ADD SWAP1 PUSH2 0x22B2 SWAP2 SWAP1 PUSH2 0x225E JUMP JUMPDEST JUMPDEST POP JUMP JUMPDEST PUSH0 PUSH1 0x40 MLOAD SWAP1 POP SWAP1 JUMP JUMPDEST PUSH0 PUSH0 REVERT JUMPDEST PUSH0 PUSH0 REVERT JUMPDEST PUSH0 DUP2 SWAP1 POP SWAP2 SWAP1 POP JUMP JUMPDEST PUSH2 0x22D9 DUP2 PUSH2 0x22C7 JUMP JUMPDEST DUP2 EQ PUSH2 0x22E3 JUMPI PUSH0 PUSH0 REVERT JUMPDEST POP JUMP JUMPDEST PUSH0 DUP2 CALLDATALOAD SWAP1 POP PUSH2 0x22F4 DUP2 PUSH2 0x22D0 JUMP JUMPDEST SWAP3 SWAP2 POP POP JUMP JUMPDEST PUSH0 PUSH1 0x20 DUP3 DUP5 SUB SLT ISZERO PUSH2 0x230F JUMPI PUSH2 0x230E PUSH2 0x22BF JUMP JUMPDEST JUMPDEST PUSH0 PUSH2 0x231C DUP5 DUP3 DUP6 ADD PUSH2 0x22E6 JUMP JUMPDEST SWAP2 POP POP SWAP3 SWAP2 POP POP JUMP JUMPDEST PUSH2 0x232E DUP2 PUSH2 0x22C7 JUMP JUMPDEST DUP3 MSTORE POP POP JUMP JUMPDEST PUSH0 PUSH1 0x20 DUP3 ADD SWAP1 POP PUSH2 0x2347 PUSH0 DUP4 ADD DUP5 PUSH2 0x2325 JUMP JUMPDEST SWAP3 SWAP2 POP POP JUMP JUMPDEST PUSH0 PUSH20 0xFFFFFFFFFFFFFFFFFFFFFFFFFFFFFFFFFFFFFFFF DUP3 AND SWAP1 POP SWAP2 SWAP1 POP JUMP JUMPDEST PUSH0 PUSH2 0x2376 DUP3 PUSH2 0x234D JUMP JUMPDEST SWAP1 POP SWAP2 SWAP1 POP JUMP JUMPDEST PUSH2 0x2386 DUP2 PUSH2 0x236C JUMP JUMPDEST DUP2 EQ PUSH2 0x2390 JUMPI PUSH0 PUSH0 REVERT JUMPDEST POP JUMP JUMPDEST PUSH0 DUP2 CALLDATALOAD SWAP1 POP PUSH2 0x23A1 DUP2 PUSH2 0x237D JUMP JUMPDEST SWAP3 SWAP2 POP POP JUMP JUMPDEST PUSH0 PUSH1 0x20 DUP3 DUP5 SUB SLT ISZERO PUSH2 0x23BC JUMPI PUSH2 0x23BB PUSH2 0x22BF JUMP JUMPDEST JUMPDEST PUSH0 PUSH2 0x23C9 DUP5 DUP3 DUP6 ADD PUSH2 0x2393 JUMP JUMPDEST SWAP2 POP POP SWAP3 SWAP2 POP POP JUMP JUMPDEST PUSH0 DUP2 MLOAD SWAP1 POP SWAP2 SWAP1 POP JUMP JUMPDEST PUSH0 DUP3 DUP3 MSTORE PUSH1 0x20 DUP3 ADD SWAP1 POP SWAP3 SWAP2 POP POP JUMP JUMPDEST DUP3 DUP2 DUP4 MCOPY PUSH0 DUP4 DUP4 ADD MSTORE POP POP POP JUMP JUMPDEST PUSH0 PUSH1 0x1F NOT PUSH1 0x1F DUP4 ADD AND SWAP1 POP SWAP2 SWAP1 POP JUMP JUMPDEST PUSH0 PUSH2 0x2414 DUP3 PUSH2 0x23D2 JUMP JUMPDEST PUSH2 0x241E DUP2 DUP6 PUSH2 0x23DC JUMP JUMPDEST SWAP4 POP PUSH2 0x242E DUP2 DUP6 PUSH1 0x20 DUP7 ADD PUSH2 0x23EC JUMP JUMPDEST PUSH2 0x2437 DUP2 PUSH2 0x23FA JUMP JUMPDEST DUP5 ADD SWAP2 POP POP SWAP3 SWAP2 POP POP JUMP JUMPDEST PUSH0 PUSH1 0x20 DUP3 ADD SWAP1 POP DUP2 DUP2 SUB PUSH0 DUP4 ADD MSTORE PUSH2 0x245A DUP2 DUP5 PUSH2 0x240A JUMP JUMPDEST SWAP1 POP SWAP3 SWAP2 POP POP JUMP JUMPDEST PUSH0 DUP2 MLOAD SWAP1 POP SWAP2 SWAP1 POP JUMP JUMPDEST PUSH0 DUP3 DUP3 MSTORE PUSH1 0x20 DUP3 ADD SWAP1 POP SWAP3 SWAP2 POP POP JUMP JUMPDEST PUSH0 DUP2 SWAP1 POP PUSH1 0x20 DUP3 ADD SWAP1 POP SWAP2 SWAP1 POP JUMP JUMPDEST PUSH0 DUP3 DUP3 MSTORE PUSH1 0x20 DUP3 ADD SWAP1 POP SWAP3 SWAP2 POP POP JUMP JUMPDEST PUSH0 PUSH2 0x24A5 DUP3 PUSH2 0x23D2 JUMP JUMPDEST PUSH2 0x24AF DUP2 DUP6 PUSH2 0x248B JUMP JUMPDEST SWAP4 POP PUSH2 0x24BF DUP2 DUP6 PUSH1 0x20 DUP7 ADD PUSH2 0x23EC JUMP JUMPDEST PUSH2 0x24C8 DUP2 PUSH2 0x23FA JUMP JUMPDEST DUP5 ADD SWAP2 POP POP SWAP3 SWAP2 POP POP JUMP JUMPDEST PUSH2 0x24DC DUP2 PUSH2 0x22C7 JUMP JUMPDEST DUP3 MSTORE POP POP JUMP JUMPDEST PUSH2 0x24EB DUP2 PUSH2 0x236C JUMP JUMPDEST DUP3 MSTORE POP POP JUMP JUMPDEST PUSH0 PUSH1 0x60 DUP4 ADD PUSH0 DUP4 ADD MLOAD DUP5 DUP3 SUB PUSH0 DUP7 ADD MSTORE PUSH2 0x250B DUP3 DUP3 PUSH2 0x249B JUMP JUMPDEST SWAP2 POP POP PUSH1 0x20 DUP4 ADD MLOAD PUSH2 0x2520 PUSH1 0x20 DUP7 ADD DUP3 PUSH2 0x24D3 JUMP JUMPDEST POP PUSH1 0x40 DUP4 ADD MLOAD PUSH2 0x2533 PUSH1 0x40 DUP7 ADD DUP3 PUSH2 0x24E2 JUMP JUMPDEST POP DUP1 SWAP2 POP POP SWAP3 SWAP2 POP POP JUMP JUMPDEST PUSH0 PUSH2 0x2549 DUP4 DUP4 PUSH2 0x24F1 JUMP JUMPDEST SWAP1 POP SWAP3 SWAP2 POP POP JUMP JUMPDEST PUSH0 PUSH1 0x20 DUP3 ADD SWAP1 POP SWAP2 SWAP1 POP JUMP JUMPDEST PUSH0 PUSH2 0x2567 DUP3 PUSH2 0x2462 JUMP JUMPDEST PUSH2 0x2571 DUP2 DUP6 PUSH2 0x246C JUMP JUMPDEST SWAP4 POP DUP4 PUSH1 0x20 DUP3 MUL DUP6 ADD PUSH2 0x2583 DUP6 PUSH2 0x247C JUMP JUMPDEST DUP1 PUSH0 JUMPDEST DUP6 DUP2 LT ISZERO PUSH2 0x25BE JUMPI DUP5 DUP5 SUB DUP10 MSTORE DUP2 MLOAD PUSH2 0x259F DUP6 DUP3 PUSH2 0x253E JUMP JUMPDEST SWAP5 POP PUSH2 0x25AA DUP4 PUSH2 0x2551 JUMP JUMPDEST SWAP3 POP PUSH1 0x20 DUP11 ADD SWAP10 POP POP PUSH1 0x1 DUP2 ADD SWAP1 POP PUSH2 0x2586 JUMP JUMPDEST POP DUP3 SWAP8 POP DUP8 SWAP6 POP POP POP POP POP POP SWAP3 SWAP2 POP POP JUMP JUMPDEST PUSH0 PUSH1 0x20 DUP3 ADD SWAP1 POP DUP2 DUP2 SUB PUSH0 DUP4 ADD MSTORE PUSH2 0x25E8 DUP2 DUP5 PUSH2 0x255D JUMP JUMPDEST SWAP1 POP SWAP3 SWAP2 POP POP JUMP JUMPDEST PUSH2 0x25F9 DUP2 PUSH2 0x236C JUMP JUMPDEST DUP3 MSTORE POP POP JUMP JUMPDEST PUSH0 PUSH1 0x20 DUP3 ADD SWAP1 POP PUSH2 0x2612 PUSH0 DUP4 ADD DUP5 PUSH2 0x25F0 JUMP JUMPDEST SWAP3 SWAP2 POP POP JUMP JUMPDEST PUSH32 0x4E487B7100000000000000000000000000000000000000000000000000000000 PUSH0 MSTORE PUSH1 0x21 PUSH1 0x4 MSTORE PUSH1 0x24 PUSH0 REVERT JUMPDEST PUSH1 0x6 DUP2 LT PUSH2 0x2656 JUMPI PUSH2 0x2655 PUSH2 0x2618 JUMP JUMPDEST JUMPDEST POP JUMP JUMPDEST PUSH0 DUP2 SWAP1 POP PUSH2 0x2666 DUP3 PUSH2 0x2645 JUMP JUMPDEST SWAP2 SWAP1 POP JUMP JUMPDEST PUSH0 PUSH2 0x2675 DUP3 PUSH2 0x2659 JUMP JUMPDEST SWAP1 POP SWAP2 SWAP1 POP JUMP JUMPDEST PUSH2 0x2685 DUP2 PUSH2 0x266B JUMP JUMPDEST DUP3 MSTORE POP POP JUMP JUMPDEST PUSH0 PUSH1 0x20 DUP3 ADD SWAP1 POP PUSH2 0x269E PUSH0 DUP4 ADD DUP5 PUSH2 0x267C JUMP JUMPDEST SWAP3 SWAP2 POP POP JUMP JUMPDEST PUSH0 PUSH1 0x60 DUP4 ADD PUSH0 DUP4 ADD MLOAD DUP5 DUP3 SUB PUSH0 DUP7 ADD MSTORE PUSH2 0x26BE DUP3 DUP3 PUSH2 0x249B JUMP JUMPDEST SWAP2 POP POP PUSH1 0x20 DUP4 ADD MLOAD PUSH2 0x26D3 PUSH1 0x20 DUP7 ADD DUP3 PUSH2 0x24D3 JUMP JUMPDEST POP PUSH1 0x40 DUP4 ADD MLOAD PUSH2 0x26E6 PUSH1 0x40 DUP7 ADD DUP3 PUSH2 0x24E2 JUMP JUMPDEST POP DUP1 SWAP2 POP POP SWAP3 SWAP2 POP POP JUMP JUMPDEST PUSH0 PUSH1 0x20 DUP3 ADD SWAP1 POP DUP2 DUP2 SUB PUSH0 DUP4 ADD MSTORE PUSH2 0x2709 DUP2 DUP5 PUSH2 0x26A4 JUMP JUMPDEST SWAP1 POP SWAP3 SWAP2 POP POP JUMP JUMPDEST PUSH0 PUSH0 REVERT JUMPDEST PUSH0 PUSH0 REVERT JUMPDEST PUSH32 0x4E487B7100000000000000000000000000000000000000000000000000000000 PUSH0 MSTORE PUSH1 0x41 PUSH1 0x4 MSTORE PUSH1 0x24 PUSH0 REVERT JUMPDEST PUSH2 0x274F DUP3 PUSH2 0x23FA JUMP JUMPDEST DUP2 ADD DUP2 DUP2 LT PUSH8 0xFFFFFFFFFFFFFFFF DUP3 GT OR ISZERO PUSH2 0x276E JUMPI PUSH2 0x276D PUSH2 0x2719 JUMP JUMPDEST JUMPDEST DUP1 PUSH1 0x40 MSTORE POP POP POP JUMP JUMPDEST PUSH0 PUSH2 0x2780 PUSH2 0x22B6 JUMP JUMPDEST SWAP1 POP PUSH2 0x278C DUP3 DUP3 PUSH2 0x2746 JUMP JUMPDEST SWAP2 SWAP1 POP JUMP JUMPDEST PUSH0 PUSH8 0xFFFFFFFFFFFFFFFF DUP3 GT ISZERO PUSH2 0x27AB JUMPI PUSH2 0x27AA PUSH2 0x2719 JUMP JUMPDEST JUMPDEST PUSH2 0x27B4 DUP3 PUSH2 0x23FA JUMP JUMPDEST SWAP1 POP PUSH1 0x20 DUP2 ADD SWAP1 POP SWAP2 SWAP1 POP JUMP JUMPDEST DUP3 DUP2 DUP4 CALLDATACOPY PUSH0 DUP4 DUP4 ADD MSTORE POP POP POP JUMP JUMPDEST PUSH0 PUSH2 0x27E1 PUSH2 0x27DC DUP5 PUSH2 0x2791 JUMP JUMPDEST PUSH2 0x2777 JUMP JUMPDEST SWAP1 POP DUP3 DUP2 MSTORE PUSH1 0x20 DUP2 ADD DUP5 DUP5 DUP5 ADD GT ISZERO PUSH2 0x27FD JUMPI PUSH2 0x27FC PUSH2 0x2715 JUMP JUMPDEST JUMPDEST PUSH2 0x2808 DUP5 DUP3 DUP6 PUSH2 0x27C1 JUMP JUMPDEST POP SWAP4 SWAP3 POP POP POP JUMP JUMPDEST PUSH0 DUP3 PUSH1 0x1F DUP4 ADD SLT PUSH2 0x2824 JUMPI PUSH2 0x2823 PUSH2 0x2711 JUMP JUMPDEST JUMPDEST DUP2 CALLDATALOAD PUSH2 0x2834 DUP5 DUP3 PUSH1 0x20 DUP7 ADD PUSH2 0x27CF JUMP JUMPDEST SWAP2 POP POP SWAP3 SWAP2 POP POP JUMP JUMPDEST PUSH0 PUSH1 0x20 DUP3 DUP5 SUB SLT ISZERO PUSH2 0x2852 JUMPI PUSH2 0x2851 PUSH2 0x22BF JUMP JUMPDEST JUMPDEST PUSH0 DUP3 ADD CALLDATALOAD PUSH8 0xFFFFFFFFFFFFFFFF DUP2 GT ISZERO PUSH2 0x286F JUMPI PUSH2 0x286E PUSH2 0x22C3 JUMP JUMPDEST JUMPDEST PUSH2 0x287B DUP5 DUP3 DUP6 ADD PUSH2 0x2810 JUMP JUMPDEST SWAP2 POP POP SWAP3 SWAP2 POP POP JUMP JUMPDEST PUSH32 0x596F752063616E206F6E6C7920766F7465206966207468657265206973206D6F PUSH0 DUP3 ADD MSTORE PUSH32 0x7265207468616E20312077696E6E657200000000000000000000000000000000 PUSH1 0x20 DUP3 ADD MSTORE POP JUMP JUMPDEST PUSH0 PUSH2 0x28DE PUSH1 0x30 DUP4 PUSH2 0x23DC JUMP JUMPDEST SWAP2 POP PUSH2 0x28E9 DUP3 PUSH2 0x2884 JUMP JUMPDEST PUSH1 0x40 DUP3 ADD SWAP1 POP SWAP2 SWAP1 POP JUMP JUMPDEST PUSH0 PUSH1 0x20 DUP3 ADD SWAP1 POP DUP2 DUP2 SUB PUSH0 DUP4 ADD MSTORE PUSH2 0x290B DUP2 PUSH2 0x28D2 JUMP JUMPDEST SWAP1 POP SWAP2 SWAP1 POP JUMP JUMPDEST PUSH32 0x54686520766F74696E672073657373696F6E206973206E6F7420737461727465 PUSH0 DUP3 ADD MSTORE PUSH32 0x6400000000000000000000000000000000000000000000000000000000000000 PUSH1 0x20 DUP3 ADD MSTORE POP JUMP JUMPDEST PUSH0 PUSH2 0x296C PUSH1 0x21 DUP4 PUSH2 0x23DC JUMP JUMPDEST SWAP2 POP PUSH2 0x2977 DUP3 PUSH2 0x2912 JUMP JUMPDEST PUSH1 0x40 DUP3 ADD SWAP1 POP SWAP2 SWAP1 POP JUMP JUMPDEST PUSH0 PUSH1 0x20 DUP3 ADD SWAP1 POP DUP2 DUP2 SUB PUSH0 DUP4 ADD MSTORE PUSH2 0x2999 DUP2 PUSH2 0x2960 JUMP JUMPDEST SWAP1 POP SWAP2 SWAP1 POP JUMP JUMPDEST PUSH32 0x596F7520617265206E6F74207265676973746572656400000000000000000000 PUSH0 DUP3 ADD MSTORE POP JUMP JUMPDEST PUSH0 PUSH2 0x29D4 PUSH1 0x16 DUP4 PUSH2 0x23DC JUMP JUMPDEST SWAP2 POP PUSH2 0x29DF DUP3 PUSH2 0x29A0 JUMP JUMPDEST PUSH1 0x20 DUP3 ADD SWAP1 POP SWAP2 SWAP1 POP JUMP JUMPDEST PUSH0 PUSH1 0x20 DUP3 ADD SWAP1 POP DUP2 DUP2 SUB PUSH0 DUP4 ADD MSTORE PUSH2 0x2A01 DUP2 PUSH2 0x29C8 JUMP JUMPDEST SWAP1 POP SWAP2 SWAP1 POP JUMP JUMPDEST PUSH32 0x596F7520616C726561647920766F746564000000000000000000000000000000 PUSH0 DUP3 ADD MSTORE POP JUMP JUMPDEST PUSH0 PUSH2 0x2A3C PUSH1 0x11 DUP4 PUSH2 0x23DC JUMP JUMPDEST SWAP2 POP PUSH2 0x2A47 DUP3 PUSH2 0x2A08 JUMP JUMPDEST PUSH1 0x20 DUP3 ADD SWAP1 POP SWAP2 SWAP1 POP JUMP JUMPDEST PUSH0 PUSH1 0x20 DUP3 ADD SWAP1 POP DUP2 DUP2 SUB PUSH0 DUP4 ADD MSTORE PUSH2 0x2A69 DUP2 PUSH2 0x2A30 JUMP JUMPDEST SWAP1 POP SWAP2 SWAP1 POP JUMP JUMPDEST PUSH32 0x546869732070726F706F73616C20494420646F6573206E6F7420657869737473 PUSH0 DUP3 ADD MSTORE POP JUMP JUMPDEST PUSH0 PUSH2 0x2AA4 PUSH1 0x20 DUP4 PUSH2 0x23DC JUMP JUMPDEST SWAP2 POP PUSH2 0x2AAF DUP3 PUSH2 0x2A70 JUMP JUMPDEST PUSH1 0x20 DUP3 ADD SWAP1 POP SWAP2 SWAP1 POP JUMP JUMPDEST PUSH0 PUSH1 0x20 DUP3 ADD SWAP1 POP DUP2 DUP2 SUB PUSH0 DUP4 ADD MSTORE PUSH2 0x2AD1 DUP2 PUSH2 0x2A98 JUMP JUMPDEST SWAP1 POP SWAP2 SWAP1 POP JUMP JUMPDEST PUSH32 0x4E487B7100000000000000000000000000000000000000000000000000000000 PUSH0 MSTORE PUSH1 0x32 PUSH1 0x4 MSTORE PUSH1 0x24 PUSH0 REVERT JUMPDEST PUSH32 0x4E487B7100000000000000000000000000000000000000000000000000000000 PUSH0 MSTORE PUSH1 0x11 PUSH1 0x4 MSTORE PUSH1 0x24 PUSH0 REVERT JUMPDEST PUSH0 PUSH2 0x2B3C DUP3 PUSH2 0x22C7 JUMP JUMPDEST SWAP2 POP PUSH32 0xFFFFFFFFFFFFFFFFFFFFFFFFFFFFFFFFFFFFFFFFFFFFFFFFFFFFFFFFFFFFFFFF DUP3 SUB PUSH2 0x2B6E JUMPI PUSH2 0x2B6D PUSH2 0x2B05 JUMP JUMPDEST JUMPDEST PUSH1 0x1 DUP3 ADD SWAP1 POP SWAP2 SWAP1 POP JUMP JUMPDEST PUSH0 PUSH1 0x40 DUP3 ADD SWAP1 POP PUSH2 0x2B8C PUSH0 DUP4 ADD DUP6 PUSH2 0x25F0 JUMP JUMPDEST PUSH2 0x2B99 PUSH1 0x20 DUP4 ADD DUP5 PUSH2 0x2325 JUMP JUMPDEST SWAP4 SWAP3 POP POP POP JUMP JUMPDEST PUSH32 0x596F7520617265206E6F7420696E20766F74657220726567697374726174696F PUSH0 DUP3 ADD MSTORE PUSH32 0x6E20706572696F64000000000000000000000000000000000000000000000000 PUSH1 0x20 DUP3 ADD MSTORE POP JUMP JUMPDEST PUSH0 PUSH2 0x2BFA PUSH1 0x28 DUP4 PUSH2 0x23DC JUMP JUMPDEST SWAP2 POP PUSH2 0x2C05 DUP3 PUSH2 0x2BA0 JUMP JUMPDEST PUSH1 0x40 DUP3 ADD SWAP1 POP SWAP2 SWAP1 POP JUMP JUMPDEST PUSH0 PUSH1 0x20 DUP3 ADD SWAP1 POP DUP2 DUP2 SUB PUSH0 DUP4 ADD MSTORE PUSH2 0x2C27 DUP2 PUSH2 0x2BEE JUMP JUMPDEST SWAP1 POP SWAP2 SWAP1 POP JUMP JUMPDEST PUSH32 0x596F7520616C7265616479206861766520616464207468697320616472657373 PUSH0 DUP3 ADD MSTORE POP JUMP JUMPDEST PUSH0 PUSH2 0x2C62 PUSH1 0x20 DUP4 PUSH2 0x23DC JUMP JUMPDEST SWAP2 POP PUSH2 0x2C6D DUP3 PUSH2 0x2C2E JUMP JUMPDEST PUSH1 0x20 DUP3 ADD SWAP1 POP SWAP2 SWAP1 POP JUMP JUMPDEST PUSH0 PUSH1 0x20 DUP3 ADD SWAP1 POP DUP2 DUP2 SUB PUSH0 DUP4 ADD MSTORE PUSH2 0x2C8F DUP2 PUSH2 0x2C56 JUMP JUMPDEST SWAP1 POP SWAP2 SWAP1 POP JUMP JUMPDEST PUSH32 0x5468652077696E6E65722068617665206E6F74206265656E2063686F6F73656E PUSH0 DUP3 ADD MSTORE PUSH32 0x2079657400000000000000000000000000000000000000000000000000000000 PUSH1 0x20 DUP3 ADD MSTORE POP JUMP JUMPDEST PUSH0 PUSH2 0x2CF0 PUSH1 0x24 DUP4 PUSH2 0x23DC JUMP JUMPDEST SWAP2 POP PUSH2 0x2CFB DUP3 PUSH2 0x2C96 JUMP JUMPDEST PUSH1 0x40 DUP3 ADD SWAP1 POP SWAP2 SWAP1 POP JUMP JUMPDEST PUSH0 PUSH1 0x20 DUP3 ADD SWAP1 POP DUP2 DUP2 SUB PUSH0 DUP4 ADD MSTORE PUSH2 0x2D1D DUP2 PUSH2 0x2CE4 JUMP JUMPDEST SWAP1 POP SWAP2 SWAP1 POP JUMP JUMPDEST PUSH32 0x4E487B7100000000000000000000000000000000000000000000000000000000 PUSH0 MSTORE PUSH1 0x22 PUSH1 0x4 MSTORE PUSH1 0x24 PUSH0 REVERT JUMPDEST PUSH0 PUSH1 0x2 DUP3 DIV SWAP1 POP PUSH1 0x1 DUP3 AND DUP1 PUSH2 0x2D68 JUMPI PUSH1 0x7F DUP3 AND SWAP2 POP JUMPDEST PUSH1 0x20 DUP3 LT DUP2 SUB PUSH2 0x2D7B JUMPI PUSH2 0x2D7A PUSH2 0x2D24 JUMP JUMPDEST JUMPDEST POP SWAP2 SWAP1 POP JUMP JUMPDEST PUSH32 0x596F752063616E206E6F7420737461727420616761696E207468652070726F70 PUSH0 DUP3 ADD MSTORE PUSH32 0x6F73616C2073657373696F6E0000000000000000000000000000000000000000 PUSH1 0x20 DUP3 ADD MSTORE POP JUMP JUMPDEST PUSH0 PUSH2 0x2DDB PUSH1 0x2C DUP4 PUSH2 0x23DC JUMP JUMPDEST SWAP2 POP PUSH2 0x2DE6 DUP3 PUSH2 0x2D81 JUMP JUMPDEST PUSH1 0x40 DUP3 ADD SWAP1 POP SWAP2 SWAP1 POP JUMP JUMPDEST PUSH0 PUSH1 0x20 DUP3 ADD SWAP1 POP DUP2 DUP2 SUB PUSH0 DUP4 ADD MSTORE PUSH2 0x2E08 DUP2 PUSH2 0x2DCF JUMP JUMPDEST SWAP1 POP SWAP2 SWAP1 POP JUMP JUMPDEST PUSH32 0x596F75206D757374207265676973746572206174206C65617374203220616464 PUSH0 DUP3 ADD MSTORE PUSH32 0x7265737365730000000000000000000000000000000000000000000000000000 PUSH1 0x20 DUP3 ADD MSTORE POP JUMP JUMPDEST PUSH0 PUSH2 0x2E69 PUSH1 0x26 DUP4 PUSH2 0x23DC JUMP JUMPDEST SWAP2 POP PUSH2 0x2E74 DUP3 PUSH2 0x2E0F JUMP JUMPDEST PUSH1 0x40 DUP3 ADD SWAP1 POP SWAP2 SWAP1 POP JUMP JUMPDEST PUSH0 PUSH1 0x20 DUP3 ADD SWAP1 POP DUP2 DUP2 SUB PUSH0 DUP4 ADD MSTORE PUSH2 0x2E96 DUP2 PUSH2 0x2E5D JUMP JUMPDEST SWAP1 POP SWAP2 SWAP1 POP JUMP JUMPDEST PUSH0 PUSH2 0x2EA7 DUP3 PUSH2 0x22C7 JUMP JUMPDEST SWAP2 POP PUSH2 0x2EB2 DUP4 PUSH2 0x22C7 JUMP JUMPDEST SWAP3 POP DUP3 DUP3 SUB SWAP1 POP DUP2 DUP2 GT ISZERO PUSH2 0x2ECA JUMPI PUSH2 0x2EC9 PUSH2 0x2B05 JUMP JUMPDEST JUMPDEST SWAP3 SWAP2 POP POP JUMP JUMPDEST PUSH0 PUSH1 0x40 DUP3 ADD SWAP1 POP PUSH2 0x2EE3 PUSH0 DUP4 ADD DUP6 PUSH2 0x267C JUMP JUMPDEST PUSH2 0x2EF0 PUSH1 0x20 DUP4 ADD DUP5 PUSH2 0x267C JUMP JUMPDEST SWAP4 SWAP3 POP POP POP JUMP JUMPDEST PUSH32 0x5468652070726F706F73616C2073657373696F6E20686173206E6F7420737461 PUSH0 DUP3 ADD MSTORE PUSH32 0x7274656400000000000000000000000000000000000000000000000000000000 PUSH1 0x20 DUP3 ADD MSTORE POP JUMP JUMPDEST PUSH0 PUSH2 0x2F51 PUSH1 0x24 DUP4 PUSH2 0x23DC JUMP JUMPDEST SWAP2 POP PUSH2 0x2F5C DUP3 PUSH2 0x2EF7 JUMP JUMPDEST PUSH1 0x40 DUP3 ADD SWAP1 POP SWAP2 SWAP1 POP JUMP JUMPDEST PUSH0 PUSH1 0x20 DUP3 ADD SWAP1 POP DUP2 DUP2 SUB PUSH0 DUP4 ADD MSTORE PUSH2 0x2F7E DUP2 PUSH2 0x2F45 JUMP JUMPDEST SWAP1 POP SWAP2 SWAP1 POP JUMP JUMPDEST PUSH32 0x546869732061646472657373206973206E6F7420726567697374657265640000 PUSH0 DUP3 ADD MSTORE POP JUMP JUMPDEST PUSH0 PUSH2 0x2FB9 PUSH1 0x1E DUP4 PUSH2 0x23DC JUMP JUMPDEST SWAP2 POP PUSH2 0x2FC4 DUP3 PUSH2 0x2F85 JUMP JUMPDEST PUSH1 0x20 DUP3 ADD SWAP1 POP SWAP2 SWAP1 POP JUMP JUMPDEST PUSH0 PUSH1 0x20 DUP3 ADD SWAP1 POP DUP2 DUP2 SUB PUSH0 DUP4 ADD MSTORE PUSH2 0x2FE6 DUP2 PUSH2 0x2FAD JUMP JUMPDEST SWAP1 POP SWAP2 SWAP1 POP JUMP JUMPDEST PUSH32 0x54686973206164647265737320686173206E6F7420766F746564000000000000 PUSH0 DUP3 ADD MSTORE POP JUMP JUMPDEST PUSH0 PUSH2 0x3021 PUSH1 0x1A DUP4 PUSH2 0x23DC JUMP JUMPDEST SWAP2 POP PUSH2 0x302C DUP3 PUSH2 0x2FED JUMP JUMPDEST PUSH1 0x20 DUP3 ADD SWAP1 POP SWAP2 SWAP1 POP JUMP JUMPDEST PUSH0 PUSH1 0x20 DUP3 ADD SWAP1 POP DUP2 DUP2 SUB PUSH0 DUP4 ADD MSTORE PUSH2 0x304E DUP2 PUSH2 0x3015 JUMP JUMPDEST SWAP1 POP SWAP2 SWAP1 POP JUMP JUMPDEST PUSH32 0x5468652070726F706F73616C2073657373696F6E206973206E6F742073746172 PUSH0 DUP3 ADD MSTORE PUSH32 0x7465640000000000000000000000000000000000000000000000000000000000 PUSH1 0x20 DUP3 ADD MSTORE POP JUMP JUMPDEST PUSH0 PUSH2 0x30AF PUSH1 0x23 DUP4 PUSH2 0x23DC JUMP JUMPDEST SWAP2 POP PUSH2 0x30BA DUP3 PUSH2 0x3055 JUMP JUMPDEST PUSH1 0x40 DUP3 ADD SWAP1 POP SWAP2 SWAP1 POP JUMP JUMPDEST PUSH0 PUSH1 0x20 DUP3 ADD SWAP1 POP DUP2 DUP2 SUB PUSH0 DUP4 ADD MSTORE PUSH2 0x30DC DUP2 PUSH2 0x30A3 JUMP JUMPDEST SWAP1 POP SWAP2 SWAP1 POP JUMP JUMPDEST PUSH32 0x596F752061726520746865206F776E6572206F66207468697320636F6E747261 PUSH0 DUP3 ADD MSTORE PUSH32 0x63742C20796F752063616E206E6F742070726F706F7365000000000000000000 PUSH1 0x20 DUP3 ADD MSTORE POP JUMP JUMPDEST PUSH0 PUSH2 0x313D PUSH1 0x37 DUP4 PUSH2 0x23DC JUMP JUMPDEST SWAP2 POP PUSH2 0x3148 DUP3 PUSH2 0x30E3 JUMP JUMPDEST PUSH1 0x40 DUP3 ADD SWAP1 POP SWAP2 SWAP1 POP JUMP JUMPDEST PUSH0 PUSH1 0x20 DUP3 ADD SWAP1 POP DUP2 DUP2 SUB PUSH0 DUP4 ADD MSTORE PUSH2 0x316A DUP2 PUSH2 0x3131 JUMP JUMPDEST SWAP1 POP SWAP2 SWAP1 POP JUMP JUMPDEST PUSH0 DUP2 SWAP1 POP DUP2 PUSH0 MSTORE PUSH1 0x20 PUSH0 KECCAK256 SWAP1 POP SWAP2 SWAP1 POP JUMP JUMPDEST PUSH0 PUSH1 0x20 PUSH1 0x1F DUP4 ADD DIV SWAP1 POP SWAP2 SWAP1 POP JUMP JUMPDEST PUSH0 DUP3 DUP3 SHL SWAP1 POP SWAP3 SWAP2 POP POP JUMP JUMPDEST PUSH0 PUSH1 0x8 DUP4 MUL PUSH2 0x31CD PUSH32 0xFFFFFFFFFFFFFFFFFFFFFFFFFFFFFFFFFFFFFFFFFFFFFFFFFFFFFFFFFFFFFFFF DUP3 PUSH2 0x3192 JUMP JUMPDEST PUSH2 0x31D7 DUP7 DUP4 PUSH2 0x3192 JUMP JUMPDEST SWAP6 POP DUP1 NOT DUP5 AND SWAP4 POP DUP1 DUP7 AND DUP5 OR SWAP3 POP POP POP SWAP4 SWAP3 POP POP POP JUMP JUMPDEST PUSH0 DUP2 SWAP1 POP SWAP2 SWAP1 POP JUMP JUMPDEST PUSH0 PUSH2 0x3212 PUSH2 0x320D PUSH2 0x3208 DUP5 PUSH2 0x22C7 JUMP JUMPDEST PUSH2 0x31EF JUMP JUMPDEST PUSH2 0x22C7 JUMP JUMPDEST SWAP1 POP SWAP2 SWAP1 POP JUMP JUMPDEST PUSH0 DUP2 SWAP1 POP SWAP2 SWAP1 POP JUMP JUMPDEST PUSH2 0x322B DUP4 PUSH2 0x31F8 JUMP JUMPDEST PUSH2 0x323F PUSH2 0x3237 DUP3 PUSH2 0x3219 JUMP JUMPDEST DUP5 DUP5 SLOAD PUSH2 0x319E JUMP JUMPDEST DUP3 SSTORE POP POP POP POP JUMP JUMPDEST PUSH0 PUSH0 SWAP1 POP SWAP1 JUMP JUMPDEST PUSH2 0x3256 PUSH2 0x3247 JUMP JUMPDEST PUSH2 0x3261 DUP2 DUP5 DUP5 PUSH2 0x3222 JUMP JUMPDEST POP POP POP JUMP JUMPDEST JUMPDEST DUP2 DUP2 LT ISZERO PUSH2 0x3284 JUMPI PUSH2 0x3279 PUSH0 DUP3 PUSH2 0x324E JUMP JUMPDEST PUSH1 0x1 DUP2 ADD SWAP1 POP PUSH2 0x3267 JUMP JUMPDEST POP POP JUMP JUMPDEST PUSH1 0x1F DUP3 GT ISZERO PUSH2 0x32C9 JUMPI PUSH2 0x329A DUP2 PUSH2 0x3171 JUMP JUMPDEST PUSH2 0x32A3 DUP5 PUSH2 0x3183 JUMP JUMPDEST DUP2 ADD PUSH1 0x20 DUP6 LT ISZERO PUSH2 0x32B2 JUMPI DUP2 SWAP1 POP JUMPDEST PUSH2 0x32C6 PUSH2 0x32BE DUP6 PUSH2 0x3183 JUMP JUMPDEST DUP4 ADD DUP3 PUSH2 0x3266 JUMP JUMPDEST POP POP JUMPDEST POP POP POP JUMP JUMPDEST PUSH0 DUP3 DUP3 SHR SWAP1 POP SWAP3 SWAP2 POP POP JUMP JUMPDEST PUSH0 PUSH2 0x32E9 PUSH0 NOT DUP5 PUSH1 0x8 MUL PUSH2 0x32CE JUMP JUMPDEST NOT DUP1 DUP4 AND SWAP2 POP POP SWAP3 SWAP2 POP POP JUMP JUMPDEST PUSH0 PUSH2 0x3301 DUP4 DUP4 PUSH2 0x32DA JUMP JUMPDEST SWAP2 POP DUP3 PUSH1 0x2 MUL DUP3 OR SWAP1 POP SWAP3 SWAP2 POP POP JUMP JUMPDEST PUSH2 0x331A DUP3 PUSH2 0x23D2 JUMP JUMPDEST PUSH8 0xFFFFFFFFFFFFFFFF DUP2 GT ISZERO PUSH2 0x3333 JUMPI PUSH2 0x3332 PUSH2 0x2719 JUMP JUMPDEST JUMPDEST PUSH2 0x333D DUP3 SLOAD PUSH2 0x2D51 JUMP JUMPDEST PUSH2 0x3348 DUP3 DUP3 DUP6 PUSH2 0x3288 JUMP JUMPDEST PUSH0 PUSH1 0x20 SWAP1 POP PUSH1 0x1F DUP4 GT PUSH1 0x1 DUP2 EQ PUSH2 0x3379 JUMPI PUSH0 DUP5 ISZERO PUSH2 0x3367 JUMPI DUP3 DUP8 ADD MLOAD SWAP1 POP JUMPDEST PUSH2 0x3371 DUP6 DUP3 PUSH2 0x32F6 JUMP JUMPDEST DUP7 SSTORE POP PUSH2 0x33D8 JUMP JUMPDEST PUSH1 0x1F NOT DUP5 AND PUSH2 0x3387 DUP7 PUSH2 0x3171 JUMP JUMPDEST PUSH0 JUMPDEST DUP3 DUP2 LT ISZERO PUSH2 0x33AE JUMPI DUP5 DUP10 ADD MLOAD DUP3 SSTORE PUSH1 0x1 DUP3 ADD SWAP2 POP PUSH1 0x20 DUP6 ADD SWAP5 POP PUSH1 0x20 DUP2 ADD SWAP1 POP PUSH2 0x3389 JUMP JUMPDEST DUP7 DUP4 LT ISZERO PUSH2 0x33CB JUMPI DUP5 DUP10 ADD MLOAD PUSH2 0x33C7 PUSH1 0x1F DUP10 AND DUP3 PUSH2 0x32DA JUMP JUMPDEST DUP4 SSTORE POP JUMPDEST PUSH1 0x1 PUSH1 0x2 DUP9 MUL ADD DUP9 SSTORE POP POP POP JUMPDEST POP POP POP POP POP POP JUMP JUMPDEST PUSH32 0x5468652070726F706F73616C2073657373696F6E206973206E6F7420656E6465 PUSH0 DUP3 ADD MSTORE PUSH32 0x64206F722074686520766F74652073657373696F6E2068617320616C72656164 PUSH1 0x20 DUP3 ADD MSTORE PUSH32 0x7920737461727465640000000000000000000000000000000000000000000000 PUSH1 0x40 DUP3 ADD MSTORE POP JUMP JUMPDEST PUSH0 PUSH2 0x3460 PUSH1 0x49 DUP4 PUSH2 0x23DC JUMP JUMPDEST SWAP2 POP PUSH2 0x346B DUP3 PUSH2 0x33E0 JUMP JUMPDEST PUSH1 0x60 DUP3 ADD SWAP1 POP SWAP2 SWAP1 POP JUMP JUMPDEST PUSH0 PUSH1 0x20 DUP3 ADD SWAP1 POP DUP2 DUP2 SUB PUSH0 DUP4 ADD MSTORE PUSH2 0x348D DUP2 PUSH2 0x3454 JUMP JUMPDEST SWAP1 POP SWAP2 SWAP1 POP JUMP JUMPDEST PUSH32 0x54686520766F74652073657373696F6E206973206E6F7420656E646564000000 PUSH0 DUP3 ADD MSTORE POP JUMP JUMPDEST PUSH0 PUSH2 0x34C8 PUSH1 0x1D DUP4 PUSH2 0x23DC JUMP JUMPDEST SWAP2 POP PUSH2 0x34D3 DUP3 PUSH2 0x3494 JUMP JUMPDEST PUSH1 0x20 DUP3 ADD SWAP1 POP SWAP2 SWAP1 POP JUMP JUMPDEST PUSH0 PUSH1 0x20 DUP3 ADD SWAP1 POP DUP2 DUP2 SUB PUSH0 DUP4 ADD MSTORE PUSH2 0x34F5 DUP2 PUSH2 0x34BC JUMP JUMPDEST SWAP1 POP SWAP2 SWAP1 POP JUMP JUMPDEST PUSH32 0x5468657265206973206D6F7265207468616E20312077696E6E65722C20796F75 PUSH0 DUP3 ADD MSTORE PUSH32 0x206861766520746F20766F746500000000000000000000000000000000000000 PUSH1 0x20 DUP3 ADD MSTORE POP JUMP JUMPDEST PUSH0 PUSH2 0x3556 PUSH1 0x2D DUP4 PUSH2 0x23DC JUMP JUMPDEST SWAP2 POP PUSH2 0x3561 DUP3 PUSH2 0x34FC JUMP JUMPDEST PUSH1 0x40 DUP3 ADD SWAP1 POP SWAP2 SWAP1 POP JUMP JUMPDEST PUSH0 PUSH1 0x20 DUP3 ADD SWAP1 POP DUP2 DUP2 SUB PUSH0 DUP4 ADD MSTORE PUSH2 0x3583 DUP2 PUSH2 0x354A JUMP JUMPDEST SWAP1 POP SWAP2 SWAP1 POP JUMP JUMPDEST PUSH32 0x546865206C61737420766F746520686173206E6F74206265656E2074616C6C69 PUSH0 DUP3 ADD MSTORE PUSH32 0x6564000000000000000000000000000000000000000000000000000000000000 PUSH1 0x20 DUP3 ADD MSTORE POP JUMP JUMPDEST PUSH0 PUSH2 0x35E4 PUSH1 0x22 DUP4 PUSH2 0x23DC JUMP JUMPDEST SWAP2 POP PUSH2 0x35EF DUP3 PUSH2 0x358A JUMP JUMPDEST PUSH1 0x40 DUP3 ADD SWAP1 POP SWAP2 SWAP1 POP JUMP JUMPDEST PUSH0 PUSH1 0x20 DUP3 ADD SWAP1 POP DUP2 DUP2 SUB PUSH0 DUP4 ADD MSTORE PUSH2 0x3611 DUP2 PUSH2 0x35D8 JUMP JUMPDEST SWAP1 POP SWAP2 SWAP1 POP JUMP JUMPDEST PUSH32 0x5468652070726F706F73616C2073657373696F6E20686173206E6F7420737461 PUSH0 DUP3 ADD MSTORE PUSH32 0x72746564206F722068617320616C7265616479206265656E20656E6465640000 PUSH1 0x20 DUP3 ADD MSTORE POP JUMP JUMPDEST PUSH0 PUSH2 0x3672 PUSH1 0x3E DUP4 PUSH2 0x23DC JUMP JUMPDEST SWAP2 POP PUSH2 0x367D DUP3 PUSH2 0x3618 JUMP JUMPDEST PUSH1 0x40 DUP3 ADD SWAP1 POP SWAP2 SWAP1 POP JUMP JUMPDEST PUSH0 PUSH1 0x20 DUP3 ADD SWAP1 POP DUP2 DUP2 SUB PUSH0 DUP4 ADD MSTORE PUSH2 0x369F DUP2 PUSH2 0x3666 JUMP JUMPDEST SWAP1 POP SWAP2 SWAP1 POP JUMP JUMPDEST PUSH32 0x546865726520617265206E6F2070726F706F73616C7320726567697374657265 PUSH0 DUP3 ADD MSTORE PUSH32 0x6400000000000000000000000000000000000000000000000000000000000000 PUSH1 0x20 DUP3 ADD MSTORE POP JUMP JUMPDEST PUSH0 PUSH2 0x3700 PUSH1 0x21 DUP4 PUSH2 0x23DC JUMP JUMPDEST SWAP2 POP PUSH2 0x370B DUP3 PUSH2 0x36A6 JUMP JUMPDEST PUSH1 0x40 DUP3 ADD SWAP1 POP SWAP2 SWAP1 POP JUMP JUMPDEST PUSH0 PUSH1 0x20 DUP3 ADD SWAP1 POP DUP2 DUP2 SUB PUSH0 DUP4 ADD MSTORE PUSH2 0x372D DUP2 PUSH2 0x36F4 JUMP JUMPDEST SWAP1 POP SWAP2 SWAP1 POP JUMP JUMPDEST PUSH32 0x54686520766F74652073657373696F6E20686173206E6F742073746172746564 PUSH0 DUP3 ADD MSTORE PUSH32 0x206F722068617320616C726561647920656E6465640000000000000000000000 PUSH1 0x20 DUP3 ADD MSTORE POP JUMP JUMPDEST PUSH0 PUSH2 0x378E PUSH1 0x35 DUP4 PUSH2 0x23DC JUMP JUMPDEST SWAP2 POP PUSH2 0x3799 DUP3 PUSH2 0x3734 JUMP JUMPDEST PUSH1 0x40 DUP3 ADD SWAP1 POP SWAP2 SWAP1 POP JUMP JUMPDEST PUSH0 PUSH1 0x20 DUP3 ADD SWAP1 POP DUP2 DUP2 SUB PUSH0 DUP4 ADD MSTORE PUSH2 0x37BB DUP2 PUSH2 0x3782 JUMP JUMPDEST SWAP1 POP SWAP2 SWAP1 POP JUMP JUMPDEST PUSH32 0x546865726520617265206E6F20766F7465207265676973746572656400000000 PUSH0 DUP3 ADD MSTORE POP JUMP JUMPDEST PUSH0 PUSH2 0x37F6 PUSH1 0x1C DUP4 PUSH2 0x23DC JUMP JUMPDEST SWAP2 POP PUSH2 0x3801 DUP3 PUSH2 0x37C2 JUMP JUMPDEST PUSH1 0x20 DUP3 ADD SWAP1 POP SWAP2 SWAP1 POP JUMP JUMPDEST PUSH0 PUSH1 0x20 DUP3 ADD SWAP1 POP DUP2 DUP2 SUB PUSH0 DUP4 ADD MSTORE PUSH2 0x3823 DUP2 PUSH2 0x37EA JUMP JUMPDEST SWAP1 POP SWAP2 SWAP1 POP JUMP INVALID LOG2 PUSH5 0x6970667358 0x22 SLT KECCAK256 SWAP8 0x1E 0xC3 SWAP7 AND 0xB3 0xB9 PUSH17 0x4A248D83D6B41C0D818E759F09E37D475A 0xAD PUSH32 0x64916F03864736F6C634300081C003300000000000000000000000000000000 "
				},
				"gasEstimates": {
					"creation": {
						"codeDepositCost": "2886400",
						"executionCost": "infinite",
						"totalCost": "infinite"
					},
					"external": {
						"endProposalSession()": "infinite",
						"endVoteSession()": "infinite",
						"getAddressByProposalId(uint256)": "15953",
						"getCurrentStatus()": "2628",
						"getPreviousStatus()": "infinite",
						"getProposalCount()": "2507",
						"getProposals()": "infinite",
						"getVoteByAddress(address)": "infinite",
						"getVoteCountTotal()": "2498",
						"getVoteWinnerCount()": "2455",
						"getVoterCount()": "2478",
						"getWinnerCount()": "2521",
						"getWinnerProposal()": "infinite",
						"getWinnerProposalId()": "4776",
						"getWinner_proposaldescription()": "infinite",
						"owner()": "2647",
						"propose(string)": "infinite",
						"registerVoter(address)": "infinite",
						"renounceOwnership()": "infinite",
						"reset()": "infinite",
						"startProposalSession()": "infinite",
						"startVoteSession()": "infinite",
						"transferOwnership(address)": "infinite",
						"vote(uint256)": "infinite",
						"votesTallied()": "infinite"
					},
					"internal": {
						"setWinnerProposal()": "infinite"
					}
				},
				"methodIdentifiers": {
					"endProposalSession()": "e06752c2",
					"endVoteSession()": "f74c168d",
					"getAddressByProposalId(uint256)": "64aa135a",
					"getCurrentStatus()": "a3dd2619",
					"getPreviousStatus()": "65f88a7c",
					"getProposalCount()": "c08cc02d",
					"getProposals()": "62564c48",
					"getVoteByAddress(address)": "80525548",
					"getVoteCountTotal()": "e1ab86fb",
					"getVoteWinnerCount()": "9589dfcc",
					"getVoterCount()": "11174a29",
					"getWinnerCount()": "a46c3637",
					"getWinnerProposal()": "a3c1885b",
					"getWinnerProposalId()": "5bc46514",
					"getWinner_proposaldescription()": "43850c2d",
					"owner()": "8da5cb5b",
					"propose(string)": "aa98df39",
					"registerVoter(address)": "38db6dd3",
					"renounceOwnership()": "715018a6",
					"reset()": "d826f88f",
					"startProposalSession()": "50d072fc",
					"startVoteSession()": "aaa98346",
					"transferOwnership(address)": "f2fde38b",
					"vote(uint256)": "0121b93f",
					"votesTallied()": "ada7415f"
				}
			},
			"storageLayout": {
				"storage": [
					{
						"astId": 8,
						"contract": "contracts/VotingExtended.sol:Voting",
						"label": "_owner",
						"offset": 0,
						"slot": "0",
						"type": "t_address"
					},
					{
						"astId": 201,
						"contract": "contracts/VotingExtended.sol:Voting",
						"label": "whitelistVoter",
						"offset": 0,
						"slot": "1",
						"type": "t_mapping(t_address,t_struct(Voter)189_storage)"
					},
					{
						"astId": 205,
						"contract": "contracts/VotingExtended.sol:Voting",
						"label": "proposals",
						"offset": 0,
						"slot": "2",
						"type": "t_array(t_struct(Proposal)196_storage)dyn_storage"
					},
					{
						"astId": 208,
						"contract": "contracts/VotingExtended.sol:Voting",
						"label": "voterAddress",
						"offset": 0,
						"slot": "3",
						"type": "t_array(t_address)dyn_storage"
					},
					{
						"astId": 220,
						"contract": "contracts/VotingExtended.sol:Voting",
						"label": "currentStatus",
						"offset": 0,
						"slot": "4",
						"type": "t_enum(WorkflowStatus)215"
					},
					{
						"astId": 222,
						"contract": "contracts/VotingExtended.sol:Voting",
						"label": "winningProposalId",
						"offset": 0,
						"slot": "5",
						"type": "t_uint256"
					},
					{
						"astId": 224,
						"contract": "contracts/VotingExtended.sol:Voting",
						"label": "voterCount",
						"offset": 0,
						"slot": "6",
						"type": "t_uint256"
					},
					{
						"astId": 226,
						"contract": "contracts/VotingExtended.sol:Voting",
						"label": "voteCountTotal",
						"offset": 0,
						"slot": "7",
						"type": "t_uint256"
					},
					{
						"astId": 228,
						"contract": "contracts/VotingExtended.sol:Voting",
						"label": "numberProposal",
						"offset": 0,
						"slot": "8",
						"type": "t_uint256"
					},
					{
						"astId": 230,
						"contract": "contracts/VotingExtended.sol:Voting",
						"label": "winnerCount",
						"offset": 0,
						"slot": "9",
						"type": "t_uint256"
					},
					{
						"astId": 233,
						"contract": "contracts/VotingExtended.sol:Voting",
						"label": "voteWinnerCount",
						"offset": 0,
						"slot": "10",
						"type": "t_uint256"
					}
				],
				"types": {
					"t_address": {
						"encoding": "inplace",
						"label": "address",
						"numberOfBytes": "20"
					},
					"t_array(t_address)dyn_storage": {
						"base": "t_address",
						"encoding": "dynamic_array",
						"label": "address[]",
						"numberOfBytes": "32"
					},
					"t_array(t_struct(Proposal)196_storage)dyn_storage": {
						"base": "t_struct(Proposal)196_storage",
						"encoding": "dynamic_array",
						"label": "struct Voting.Proposal[]",
						"numberOfBytes": "32"
					},
					"t_bool": {
						"encoding": "inplace",
						"label": "bool",
						"numberOfBytes": "1"
					},
					"t_enum(WorkflowStatus)215": {
						"encoding": "inplace",
						"label": "enum Voting.WorkflowStatus",
						"numberOfBytes": "1"
					},
					"t_mapping(t_address,t_struct(Voter)189_storage)": {
						"encoding": "mapping",
						"key": "t_address",
						"label": "mapping(address => struct Voting.Voter)",
						"numberOfBytes": "32",
						"value": "t_struct(Voter)189_storage"
					},
					"t_string_storage": {
						"encoding": "bytes",
						"label": "string",
						"numberOfBytes": "32"
					},
					"t_struct(Proposal)196_storage": {
						"encoding": "inplace",
						"label": "struct Voting.Proposal",
						"members": [
							{
								"astId": 191,
								"contract": "contracts/VotingExtended.sol:Voting",
								"label": "description",
								"offset": 0,
								"slot": "0",
								"type": "t_string_storage"
							},
							{
								"astId": 193,
								"contract": "contracts/VotingExtended.sol:Voting",
								"label": "voteCount",
								"offset": 0,
								"slot": "1",
								"type": "t_uint256"
							},
							{
								"astId": 195,
								"contract": "contracts/VotingExtended.sol:Voting",
								"label": "voter",
								"offset": 0,
								"slot": "2",
								"type": "t_address"
							}
						],
						"numberOfBytes": "96"
					},
					"t_struct(Voter)189_storage": {
						"encoding": "inplace",
						"label": "struct Voting.Voter",
						"members": [
							{
								"astId": 184,
								"contract": "contracts/VotingExtended.sol:Voting",
								"label": "isRegistered",
								"offset": 0,
								"slot": "0",
								"type": "t_bool"
							},
							{
								"astId": 186,
								"contract": "contracts/VotingExtended.sol:Voting",
								"label": "hasVoted",
								"offset": 1,
								"slot": "0",
								"type": "t_bool"
							},
							{
								"astId": 188,
								"contract": "contracts/VotingExtended.sol:Voting",
								"label": "votedProposalId",
								"offset": 0,
								"slot": "1",
								"type": "t_uint256"
							}
						],
						"numberOfBytes": "64"
					},
					"t_uint256": {
						"encoding": "inplace",
						"label": "uint256",
						"numberOfBytes": "32"
					}
				}
			},
			"userdoc": {
				"kind": "user",
				"methods": {},
				"version": 1
			}
		}
	}
}