{
	"contracts/VotingPlus.sol": {
		"VotingPlus": {
			"abi": [
				{
					"inputs": [],
					"stateMutability": "nonpayable",
					"type": "constructor"
				},
				{
					"inputs": [
						{
							"internalType": "address",
							"name": "owner",
							"type": "address"
						}
					],
					"name": "OwnableInvalidOwner",
					"type": "error"
				},
				{
					"inputs": [
						{
							"internalType": "address",
							"name": "account",
							"type": "address"
						}
					],
					"name": "OwnableUnauthorizedAccount",
					"type": "error"
				},
				{
					"anonymous": false,
					"inputs": [
						{
							"indexed": true,
							"internalType": "address",
							"name": "previousOwner",
							"type": "address"
						},
						{
							"indexed": true,
							"internalType": "address",
							"name": "newOwner",
							"type": "address"
						}
					],
					"name": "OwnershipTransferred",
					"type": "event"
				},
				{
					"anonymous": false,
					"inputs": [
						{
							"indexed": false,
							"internalType": "uint256",
							"name": "proposalId",
							"type": "uint256"
						}
					],
					"name": "ProposalRegistered",
					"type": "event"
				},
				{
					"anonymous": false,
					"inputs": [
						{
							"indexed": false,
							"internalType": "address",
							"name": "voter",
							"type": "address"
						},
						{
							"indexed": false,
							"internalType": "uint256",
							"name": "proposalId",
							"type": "uint256"
						}
					],
					"name": "Voted",
					"type": "event"
				},
				{
					"anonymous": false,
					"inputs": [
						{
							"indexed": false,
							"internalType": "address",
							"name": "voterRegisteredAddress",
							"type": "address"
						}
					],
					"name": "VoterRegistered",
					"type": "event"
				},
				{
					"anonymous": false,
					"inputs": [
						{
							"indexed": false,
							"internalType": "enum VotingPlus.WorkflowStatus",
							"name": "previousStatus",
							"type": "uint8"
						},
						{
							"indexed": false,
							"internalType": "enum VotingPlus.WorkflowStatus",
							"name": "newStatus",
							"type": "uint8"
						}
					],
					"name": "WorkflowStatusChange",
					"type": "event"
				},
				{
					"inputs": [
						{
							"internalType": "address",
							"name": "_address",
							"type": "address"
						}
					],
					"name": "checkIfRegistered",
					"outputs": [
						{
							"internalType": "bool",
							"name": "",
							"type": "bool"
						}
					],
					"stateMutability": "view",
					"type": "function"
				},
				{
					"inputs": [],
					"name": "endProposalSession",
					"outputs": [],
					"stateMutability": "nonpayable",
					"type": "function"
				},
				{
					"inputs": [],
					"name": "endVoteSession",
					"outputs": [],
					"stateMutability": "nonpayable",
					"type": "function"
				},
				{
					"inputs": [
						{
							"internalType": "uint256",
							"name": "_proposalId",
							"type": "uint256"
						}
					],
					"name": "getAddressByProposalId",
					"outputs": [
						{
							"internalType": "address",
							"name": "",
							"type": "address"
						}
					],
					"stateMutability": "view",
					"type": "function"
				},
				{
					"inputs": [],
					"name": "getCurrentStatus",
					"outputs": [
						{
							"internalType": "enum VotingPlus.WorkflowStatus",
							"name": "",
							"type": "uint8"
						}
					],
					"stateMutability": "view",
					"type": "function"
				},
				{
					"inputs": [],
					"name": "getPreviousStatus",
					"outputs": [
						{
							"internalType": "enum VotingPlus.WorkflowStatus",
							"name": "",
							"type": "uint8"
						}
					],
					"stateMutability": "view",
					"type": "function"
				},
				{
					"inputs": [],
					"name": "getProposalCount",
					"outputs": [
						{
							"internalType": "uint256",
							"name": "",
							"type": "uint256"
						}
					],
					"stateMutability": "view",
					"type": "function"
				},
				{
					"inputs": [],
					"name": "getProposals",
					"outputs": [
						{
							"components": [
								{
									"internalType": "string",
									"name": "description",
									"type": "string"
								},
								{
									"internalType": "uint256",
									"name": "voteCount",
									"type": "uint256"
								},
								{
									"internalType": "address",
									"name": "voter",
									"type": "address"
								}
							],
							"internalType": "struct VotingPlus.Proposal[]",
							"name": "",
							"type": "tuple[]"
						}
					],
					"stateMutability": "view",
					"type": "function"
				},
				{
					"inputs": [
						{
							"internalType": "address",
							"name": "_address",
							"type": "address"
						}
					],
					"name": "getVoteByAddress",
					"outputs": [
						{
							"components": [
								{
									"internalType": "string",
									"name": "description",
									"type": "string"
								},
								{
									"internalType": "uint256",
									"name": "voteCount",
									"type": "uint256"
								},
								{
									"internalType": "address",
									"name": "voter",
									"type": "address"
								}
							],
							"internalType": "struct VotingPlus.Proposal",
							"name": "",
							"type": "tuple"
						}
					],
					"stateMutability": "view",
					"type": "function"
				},
				{
					"inputs": [],
					"name": "getVoteCountTotal",
					"outputs": [
						{
							"internalType": "uint256",
							"name": "",
							"type": "uint256"
						}
					],
					"stateMutability": "view",
					"type": "function"
				},
				{
					"inputs": [],
					"name": "getVoteWinnerCount",
					"outputs": [
						{
							"internalType": "uint256",
							"name": "",
							"type": "uint256"
						}
					],
					"stateMutability": "view",
					"type": "function"
				},
				{
					"inputs": [],
					"name": "getVoterCount",
					"outputs": [
						{
							"internalType": "uint256",
							"name": "",
							"type": "uint256"
						}
					],
					"stateMutability": "view",
					"type": "function"
				},
				{
					"inputs": [],
					"name": "getVoterRegisteredAddress",
					"outputs": [
						{
							"internalType": "address[]",
							"name": "",
							"type": "address[]"
						}
					],
					"stateMutability": "view",
					"type": "function"
				},
				{
					"inputs": [],
					"name": "getWinnerCount",
					"outputs": [
						{
							"internalType": "uint256",
							"name": "",
							"type": "uint256"
						}
					],
					"stateMutability": "view",
					"type": "function"
				},
				{
					"inputs": [],
					"name": "getWinnerProposal",
					"outputs": [
						{
							"components": [
								{
									"internalType": "string",
									"name": "description",
									"type": "string"
								},
								{
									"internalType": "uint256",
									"name": "voteCount",
									"type": "uint256"
								},
								{
									"internalType": "address",
									"name": "voter",
									"type": "address"
								}
							],
							"internalType": "struct VotingPlus.Proposal",
							"name": "",
							"type": "tuple"
						}
					],
					"stateMutability": "view",
					"type": "function"
				},
				{
					"inputs": [],
					"name": "getWinnerProposalDescription",
					"outputs": [
						{
							"internalType": "string",
							"name": "",
							"type": "string"
						}
					],
					"stateMutability": "view",
					"type": "function"
				},
				{
					"inputs": [],
					"name": "getWinnerProposalId",
					"outputs": [
						{
							"internalType": "uint256",
							"name": "",
							"type": "uint256"
						}
					],
					"stateMutability": "view",
					"type": "function"
				},
				{
					"inputs": [
						{
							"internalType": "address",
							"name": "_address",
							"type": "address"
						}
					],
					"name": "isRegistered",
					"outputs": [
						{
							"internalType": "bool",
							"name": "",
							"type": "bool"
						}
					],
					"stateMutability": "view",
					"type": "function"
				},
				{
					"inputs": [],
					"name": "owner",
					"outputs": [
						{
							"internalType": "address",
							"name": "",
							"type": "address"
						}
					],
					"stateMutability": "view",
					"type": "function"
				},
				{
					"inputs": [
						{
							"internalType": "string",
							"name": "_proposal",
							"type": "string"
						}
					],
					"name": "propose",
					"outputs": [],
					"stateMutability": "nonpayable",
					"type": "function"
				},
				{
					"inputs": [
						{
							"internalType": "address",
							"name": "_address",
							"type": "address"
						}
					],
					"name": "registerVoter",
					"outputs": [],
					"stateMutability": "nonpayable",
					"type": "function"
				},
				{
					"inputs": [],
					"name": "renounceOwnership",
					"outputs": [],
					"stateMutability": "nonpayable",
					"type": "function"
				},
				{
					"inputs": [],
					"name": "reset",
					"outputs": [],
					"stateMutability": "nonpayable",
					"type": "function"
				},
				{
					"inputs": [],
					"name": "startProposalSession",
					"outputs": [],
					"stateMutability": "nonpayable",
					"type": "function"
				},
				{
					"inputs": [],
					"name": "startVoteSession",
					"outputs": [],
					"stateMutability": "nonpayable",
					"type": "function"
				},
				{
					"inputs": [
						{
							"internalType": "address",
							"name": "newOwner",
							"type": "address"
						}
					],
					"name": "transferOwnership",
					"outputs": [],
					"stateMutability": "nonpayable",
					"type": "function"
				},
				{
					"inputs": [
						{
							"internalType": "uint256",
							"name": "_proposald",
							"type": "uint256"
						}
					],
					"name": "vote",
					"outputs": [],
					"stateMutability": "nonpayable",
					"type": "function"
				},
				{
					"inputs": [],
					"name": "votesTallied",
					"outputs": [],
					"stateMutability": "nonpayable",
					"type": "function"
				}
			],
			"devdoc": {
				"errors": {
					"OwnableInvalidOwner(address)": [
						{
							"details": "The owner is not a valid owner account. (eg. `address(0)`)"
						}
					],
					"OwnableUnauthorizedAccount(address)": [
						{
							"details": "The caller account is not authorized to perform an operation."
						}
					]
				},
				"kind": "dev",
				"methods": {
					"owner()": {
						"details": "Returns the address of the current owner."
					},
					"renounceOwnership()": {
						"details": "Leaves the contract without owner. It will not be possible to call `onlyOwner` functions. Can only be called by the current owner. NOTE: Renouncing ownership will leave the contract without an owner, thereby disabling any functionality that is only available to the owner."
					},
					"transferOwnership(address)": {
						"details": "Transfers ownership of the contract to a new account (`newOwner`). Can only be called by the current owner."
					}
				},
				"version": 1
			},
			"evm": {
				"assembly": "    /* \"contracts/VotingPlus.sol\":116:11327  contract VotingPlus is Ownable {... */\n  mstore(0x40, 0x80)\n    /* \"contracts/VotingPlus.sol\":973:1005  WorkflowStatus.RegisteringVoters */\n  0x00\n    /* \"contracts/VotingPlus.sol\":942:1005  WorkflowStatus currentStatus = WorkflowStatus.RegisteringVoters */\n  0x04\n  exp(0x0100, 0x00)\n  dup2\n  sload\n  dup2\n  0xff\n  mul\n  not\n  and\n  swap1\n  dup4\n  0x05\n  dup2\n  gt\n  iszero\n  tag_1\n  jumpi\n  tag_2\n  tag_3\n  jump\t// in\ntag_2:\ntag_1:\n  mul\n  or\n  swap1\n  sstore\n  pop\n    /* \"contracts/VotingPlus.sol\":1354:1355  1 */\n  0x01\n    /* \"contracts/VotingPlus.sol\":1323:1355  uint private voteWinnerCount = 1 */\n  0x09\n  sstore\n    /* \"contracts/VotingPlus.sol\":1756:1798  constructor() Ownable(msg.sender) {... */\n  callvalue\n  dup1\n  iszero\n  tag_4\n  jumpi\n  revert(0x00, 0x00)\ntag_4:\n  pop\n    /* \"contracts/VotingPlus.sol\":1778:1788  msg.sender */\n  caller\n    /* \"@openzeppelin/contracts/access/Ownable.sol\":1297:1298  0 */\n  0x00\n    /* \"@openzeppelin/contracts/access/Ownable.sol\":1273:1299  initialOwner == address(0) */\n  0xffffffffffffffffffffffffffffffffffffffff\n  and\n    /* \"@openzeppelin/contracts/access/Ownable.sol\":1273:1285  initialOwner */\n  dup2\n    /* \"@openzeppelin/contracts/access/Ownable.sol\":1273:1299  initialOwner == address(0) */\n  0xffffffffffffffffffffffffffffffffffffffff\n  and\n  sub\n    /* \"@openzeppelin/contracts/access/Ownable.sol\":1269:1364  if (initialOwner == address(0)) {... */\n  tag_8\n  jumpi\n    /* \"@openzeppelin/contracts/access/Ownable.sol\":1350:1351  0 */\n  0x00\n    /* \"@openzeppelin/contracts/access/Ownable.sol\":1322:1353  OwnableInvalidOwner(address(0)) */\n  mload(0x40)\n  0x1e4fbdf700000000000000000000000000000000000000000000000000000000\n  dup2\n  mstore\n  0x04\n  add\n  tag_9\n  swap2\n  swap1\n  tag_10\n  jump\t// in\ntag_9:\n  mload(0x40)\n  dup1\n  swap2\n  sub\n  swap1\n  revert\n    /* \"@openzeppelin/contracts/access/Ownable.sol\":1269:1364  if (initialOwner == address(0)) {... */\ntag_8:\n    /* \"@openzeppelin/contracts/access/Ownable.sol\":1373:1405  _transferOwnership(initialOwner) */\n  tag_11\n    /* \"@openzeppelin/contracts/access/Ownable.sol\":1392:1404  initialOwner */\n  dup2\n    /* \"@openzeppelin/contracts/access/Ownable.sol\":1373:1391  _transferOwnership */\n  shl(0x20, tag_12)\n    /* \"@openzeppelin/contracts/access/Ownable.sol\":1373:1405  _transferOwnership(initialOwner) */\n  0x20\n  shr\n  jump\t// in\ntag_11:\n    /* \"@openzeppelin/contracts/access/Ownable.sol\":1225:1412  constructor(address initialOwner) {... */\n  pop\n    /* \"contracts/VotingPlus.sol\":116:11327  contract VotingPlus is Ownable {... */\n  jump(tag_14)\n    /* \"@openzeppelin/contracts/access/Ownable.sol\":2912:3099  function _transferOwnership(address newOwner) internal virtual {... */\ntag_12:\n    /* \"@openzeppelin/contracts/access/Ownable.sol\":2985:3001  address oldOwner */\n  0x00\n    /* \"@openzeppelin/contracts/access/Ownable.sol\":3004:3010  _owner */\n  0x00\n  0x00\n  swap1\n  sload\n  swap1\n  0x0100\n  exp\n  swap1\n  div\n  0xffffffffffffffffffffffffffffffffffffffff\n  and\n    /* \"@openzeppelin/contracts/access/Ownable.sol\":2985:3010  address oldOwner = _owner */\n  swap1\n  pop\n    /* \"@openzeppelin/contracts/access/Ownable.sol\":3029:3037  newOwner */\n  dup2\n    /* \"@openzeppelin/contracts/access/Ownable.sol\":3020:3026  _owner */\n  0x00\n  0x00\n    /* \"@openzeppelin/contracts/access/Ownable.sol\":3020:3037  _owner = newOwner */\n  0x0100\n  exp\n  dup2\n  sload\n  dup2\n  0xffffffffffffffffffffffffffffffffffffffff\n  mul\n  not\n  and\n  swap1\n  dup4\n  0xffffffffffffffffffffffffffffffffffffffff\n  and\n  mul\n  or\n  swap1\n  sstore\n  pop\n    /* \"@openzeppelin/contracts/access/Ownable.sol\":3083:3091  newOwner */\n  dup2\n    /* \"@openzeppelin/contracts/access/Ownable.sol\":3052:3092  OwnershipTransferred(oldOwner, newOwner) */\n  0xffffffffffffffffffffffffffffffffffffffff\n  and\n    /* \"@openzeppelin/contracts/access/Ownable.sol\":3073:3081  oldOwner */\n  dup2\n    /* \"@openzeppelin/contracts/access/Ownable.sol\":3052:3092  OwnershipTransferred(oldOwner, newOwner) */\n  0xffffffffffffffffffffffffffffffffffffffff\n  and\n  0x8be0079c531659141344cd1fd0a4f28419497f9722a3daafe3b4186f6b6457e0\n  mload(0x40)\n  mload(0x40)\n  dup1\n  swap2\n  sub\n  swap1\n  log3\n    /* \"@openzeppelin/contracts/access/Ownable.sol\":2975:3099  {... */\n  pop\n    /* \"@openzeppelin/contracts/access/Ownable.sol\":2912:3099  function _transferOwnership(address newOwner) internal virtual {... */\n  pop\n  jump\t// out\n    /* \"#utility.yul\":7:187   */\ntag_3:\n    /* \"#utility.yul\":55:132   */\n  0x4e487b7100000000000000000000000000000000000000000000000000000000\n    /* \"#utility.yul\":52:53   */\n  0x00\n    /* \"#utility.yul\":45:133   */\n  mstore\n    /* \"#utility.yul\":152:156   */\n  0x21\n    /* \"#utility.yul\":149:150   */\n  0x04\n    /* \"#utility.yul\":142:157   */\n  mstore\n    /* \"#utility.yul\":176:180   */\n  0x24\n    /* \"#utility.yul\":173:174   */\n  0x00\n    /* \"#utility.yul\":166:181   */\n  revert\n    /* \"#utility.yul\":193:319   */\ntag_16:\n    /* \"#utility.yul\":230:237   */\n  0x00\n    /* \"#utility.yul\":270:312   */\n  0xffffffffffffffffffffffffffffffffffffffff\n    /* \"#utility.yul\":263:268   */\n  dup3\n    /* \"#utility.yul\":259:313   */\n  and\n    /* \"#utility.yul\":248:313   */\n  swap1\n  pop\n    /* \"#utility.yul\":193:319   */\n  swap2\n  swap1\n  pop\n  jump\t// out\n    /* \"#utility.yul\":325:421   */\ntag_17:\n    /* \"#utility.yul\":362:369   */\n  0x00\n    /* \"#utility.yul\":391:415   */\n  tag_23\n    /* \"#utility.yul\":409:414   */\n  dup3\n    /* \"#utility.yul\":391:415   */\n  tag_16\n  jump\t// in\ntag_23:\n    /* \"#utility.yul\":380:415   */\n  swap1\n  pop\n    /* \"#utility.yul\":325:421   */\n  swap2\n  swap1\n  pop\n  jump\t// out\n    /* \"#utility.yul\":427:545   */\ntag_18:\n    /* \"#utility.yul\":514:538   */\n  tag_25\n    /* \"#utility.yul\":532:537   */\n  dup2\n    /* \"#utility.yul\":514:538   */\n  tag_17\n  jump\t// in\ntag_25:\n    /* \"#utility.yul\":509:512   */\n  dup3\n    /* \"#utility.yul\":502:539   */\n  mstore\n    /* \"#utility.yul\":427:545   */\n  pop\n  pop\n  jump\t// out\n    /* \"#utility.yul\":551:773   */\ntag_10:\n    /* \"#utility.yul\":644:648   */\n  0x00\n    /* \"#utility.yul\":682:684   */\n  0x20\n    /* \"#utility.yul\":671:680   */\n  dup3\n    /* \"#utility.yul\":667:685   */\n  add\n    /* \"#utility.yul\":659:685   */\n  swap1\n  pop\n    /* \"#utility.yul\":695:766   */\n  tag_27\n    /* \"#utility.yul\":763:764   */\n  0x00\n    /* \"#utility.yul\":752:761   */\n  dup4\n    /* \"#utility.yul\":748:765   */\n  add\n    /* \"#utility.yul\":739:745   */\n  dup5\n    /* \"#utility.yul\":695:766   */\n  tag_18\n  jump\t// in\ntag_27:\n    /* \"#utility.yul\":551:773   */\n  swap3\n  swap2\n  pop\n  pop\n  jump\t// out\n    /* \"contracts/VotingPlus.sol\":116:11327  contract VotingPlus is Ownable {... */\ntag_14:\n  dataSize(sub_0)\n  dup1\n  dataOffset(sub_0)\n  0x00\n  codecopy\n  0x00\n  return\nstop\n\nsub_0: assembly {\n        /* \"contracts/VotingPlus.sol\":116:11327  contract VotingPlus is Ownable {... */\n      mstore(0x40, 0x80)\n      callvalue\n      dup1\n      iszero\n      tag_1\n      jumpi\n      revert(0x00, 0x00)\n    tag_1:\n      pop\n      jumpi(tag_2, lt(calldatasize, 0x04))\n      shr(0xe0, calldataload(0x00))\n      dup1\n      0xa46c3637\n      gt\n      tag_31\n      jumpi\n      dup1\n      0xc3c5a547\n      gt\n      tag_32\n      jumpi\n      dup1\n      0xe06752c2\n      gt\n      tag_33\n      jumpi\n      dup1\n      0xe06752c2\n      eq\n      tag_27\n      jumpi\n      dup1\n      0xe1ab86fb\n      eq\n      tag_28\n      jumpi\n      dup1\n      0xf2fde38b\n      eq\n      tag_29\n      jumpi\n      dup1\n      0xf74c168d\n      eq\n      tag_30\n      jumpi\n      jump(tag_2)\n    tag_33:\n      dup1\n      0xc3c5a547\n      eq\n      tag_24\n      jumpi\n      dup1\n      0xd370035a\n      eq\n      tag_25\n      jumpi\n      dup1\n      0xd826f88f\n      eq\n      tag_26\n      jumpi\n      jump(tag_2)\n    tag_32:\n      dup1\n      0xada7415f\n      gt\n      tag_34\n      jumpi\n      dup1\n      0xada7415f\n      eq\n      tag_20\n      jumpi\n      dup1\n      0xaf64e735\n      eq\n      tag_21\n      jumpi\n      dup1\n      0xbfbf53af\n      eq\n      tag_22\n      jumpi\n      dup1\n      0xc08cc02d\n      eq\n      tag_23\n      jumpi\n      jump(tag_2)\n    tag_34:\n      dup1\n      0xa46c3637\n      eq\n      tag_17\n      jumpi\n      dup1\n      0xaa98df39\n      eq\n      tag_18\n      jumpi\n      dup1\n      0xaaa98346\n      eq\n      tag_19\n      jumpi\n      jump(tag_2)\n    tag_31:\n      dup1\n      0x65f88a7c\n      gt\n      tag_35\n      jumpi\n      dup1\n      0x8da5cb5b\n      gt\n      tag_36\n      jumpi\n      dup1\n      0x8da5cb5b\n      eq\n      tag_13\n      jumpi\n      dup1\n      0x9589dfcc\n      eq\n      tag_14\n      jumpi\n      dup1\n      0xa3c1885b\n      eq\n      tag_15\n      jumpi\n      dup1\n      0xa3dd2619\n      eq\n      tag_16\n      jumpi\n      jump(tag_2)\n    tag_36:\n      dup1\n      0x65f88a7c\n      eq\n      tag_10\n      jumpi\n      dup1\n      0x715018a6\n      eq\n      tag_11\n      jumpi\n      dup1\n      0x80525548\n      eq\n      tag_12\n      jumpi\n      jump(tag_2)\n    tag_35:\n      dup1\n      0x50d072fc\n      gt\n      tag_37\n      jumpi\n      dup1\n      0x50d072fc\n      eq\n      tag_6\n      jumpi\n      dup1\n      0x5bc46514\n      eq\n      tag_7\n      jumpi\n      dup1\n      0x62564c48\n      eq\n      tag_8\n      jumpi\n      dup1\n      0x64aa135a\n      eq\n      tag_9\n      jumpi\n      jump(tag_2)\n    tag_37:\n      dup1\n      0x0121b93f\n      eq\n      tag_3\n      jumpi\n      dup1\n      0x11174a29\n      eq\n      tag_4\n      jumpi\n      dup1\n      0x38db6dd3\n      eq\n      tag_5\n      jumpi\n    tag_2:\n      revert(0x00, 0x00)\n        /* \"contracts/VotingPlus.sol\":3459:3847  function vote(uint _proposald) external restrictOwnerToVote {... */\n    tag_3:\n      tag_38\n      0x04\n      dup1\n      calldatasize\n      sub\n      dup2\n      add\n      swap1\n      tag_39\n      swap2\n      swap1\n      tag_40\n      jump\t// in\n    tag_39:\n      tag_41\n      jump\t// in\n    tag_38:\n      stop\n        /* \"contracts/VotingPlus.sol\":10517:10605  function getVoterCount() external view returns(uint){... */\n    tag_4:\n      tag_42\n      tag_43\n      jump\t// in\n    tag_42:\n      mload(0x40)\n      tag_44\n      swap2\n      swap1\n      tag_45\n      jump\t// in\n    tag_44:\n      mload(0x40)\n      dup1\n      swap2\n      sub\n      swap1\n      return\n        /* \"contracts/VotingPlus.sol\":2164:2647  function registerVoter(address _address) external onlyOwner {... */\n    tag_5:\n      tag_46\n      0x04\n      dup1\n      calldatasize\n      sub\n      dup2\n      add\n      swap1\n      tag_47\n      swap2\n      swap1\n      tag_48\n      jump\t// in\n    tag_47:\n      tag_49\n      jump\t// in\n    tag_46:\n      stop\n        /* \"contracts/VotingPlus.sol\":4587:5002  function startProposalSession() external onlyOwner {... */\n    tag_6:\n      tag_50\n      tag_51\n      jump\t// in\n    tag_50:\n      stop\n        /* \"contracts/VotingPlus.sol\":9599:9807  function getWinnerProposalId() external view returns (uint) {... */\n    tag_7:\n      tag_52\n      tag_53\n      jump\t// in\n    tag_52:\n      mload(0x40)\n      tag_54\n      swap2\n      swap1\n      tag_45\n      jump\t// in\n    tag_54:\n      mload(0x40)\n      dup1\n      swap2\n      sub\n      swap1\n      return\n        /* \"contracts/VotingPlus.sol\":10366:10465  function getProposals() external view returns(Proposal[] memory){... */\n    tag_8:\n      tag_55\n      tag_56\n      jump\t// in\n    tag_55:\n      mload(0x40)\n      tag_57\n      swap2\n      swap1\n      tag_58\n      jump\t// in\n    tag_57:\n      mload(0x40)\n      dup1\n      swap2\n      sub\n      swap1\n      return\n        /* \"contracts/VotingPlus.sol\":7508:8085  function getAddressByProposalId(uint _proposalId) external view returns(address){... */\n    tag_9:\n      tag_59\n      0x04\n      dup1\n      calldatasize\n      sub\n      dup2\n      add\n      swap1\n      tag_60\n      swap2\n      swap1\n      tag_40\n      jump\t// in\n    tag_60:\n      tag_61\n      jump\t// in\n    tag_59:\n      mload(0x40)\n      tag_62\n      swap2\n      swap1\n      tag_63\n      jump\t// in\n    tag_62:\n      mload(0x40)\n      dup1\n      swap2\n      sub\n      swap1\n      return\n        /* \"contracts/VotingPlus.sol\":10039:10172  function getPreviousStatus() external view returns (WorkflowStatus) {... */\n    tag_10:\n      tag_64\n      tag_65\n      jump\t// in\n    tag_64:\n      mload(0x40)\n      tag_66\n      swap2\n      swap1\n      tag_67\n      jump\t// in\n    tag_66:\n      mload(0x40)\n      dup1\n      swap2\n      sub\n      swap1\n      return\n        /* \"@openzeppelin/contracts/access/Ownable.sol\":2293:2394  function renounceOwnership() public virtual onlyOwner {... */\n    tag_11:\n      tag_68\n      tag_69\n      jump\t// in\n    tag_68:\n      stop\n        /* \"contracts/VotingPlus.sol\":8093:8552  function getVoteByAddress(address _address) external view returns(Proposal memory){... */\n    tag_12:\n      tag_70\n      0x04\n      dup1\n      calldatasize\n      sub\n      dup2\n      add\n      swap1\n      tag_71\n      swap2\n      swap1\n      tag_48\n      jump\t// in\n    tag_71:\n      tag_72\n      jump\t// in\n    tag_70:\n      mload(0x40)\n      tag_73\n      swap2\n      swap1\n      tag_74\n      jump\t// in\n    tag_73:\n      mload(0x40)\n      dup1\n      swap2\n      sub\n      swap1\n      return\n        /* \"@openzeppelin/contracts/access/Ownable.sol\":1638:1723  function owner() public view virtual returns (address) {... */\n    tag_13:\n      tag_75\n      tag_76\n      jump\t// in\n    tag_75:\n      mload(0x40)\n      tag_77\n      swap2\n      swap1\n      tag_63\n      jump\t// in\n    tag_77:\n      mload(0x40)\n      dup1\n      swap2\n      sub\n      swap1\n      return\n        /* \"contracts/VotingPlus.sol\":10966:11064  function getVoteWinnerCount() external view returns(uint){... */\n    tag_14:\n      tag_78\n      tag_79\n      jump\t// in\n    tag_78:\n      mload(0x40)\n      tag_80\n      swap2\n      swap1\n      tag_45\n      jump\t// in\n    tag_80:\n      mload(0x40)\n      dup1\n      swap2\n      sub\n      swap1\n      return\n        /* \"contracts/VotingPlus.sol\":8996:9224  function getWinnerProposal() external view returns (Proposal memory) {... */\n    tag_15:\n      tag_81\n      tag_82\n      jump\t// in\n    tag_81:\n      mload(0x40)\n      tag_83\n      swap2\n      swap1\n      tag_74\n      jump\t// in\n    tag_83:\n      mload(0x40)\n      dup1\n      swap2\n      sub\n      swap1\n      return\n        /* \"contracts/VotingPlus.sol\":9863:9969  function getCurrentStatus() external view returns (WorkflowStatus) {... */\n    tag_16:\n      tag_84\n      tag_85\n      jump\t// in\n    tag_84:\n      mload(0x40)\n      tag_86\n      swap2\n      swap1\n      tag_67\n      jump\t// in\n    tag_86:\n      mload(0x40)\n      dup1\n      swap2\n      sub\n      swap1\n      return\n        /* \"contracts/VotingPlus.sol\":10806:10896  function getWinnerCount() external view returns(uint){... */\n    tag_17:\n      tag_87\n      tag_88\n      jump\t// in\n    tag_87:\n      mload(0x40)\n      tag_89\n      swap2\n      swap1\n      tag_45\n      jump\t// in\n    tag_89:\n      mload(0x40)\n      dup1\n      swap2\n      sub\n      swap1\n      return\n        /* \"contracts/VotingPlus.sol\":2840:3412  function propose(string memory _proposal) external {... */\n    tag_18:\n      tag_90\n      0x04\n      dup1\n      calldatasize\n      sub\n      dup2\n      add\n      swap1\n      tag_91\n      swap2\n      swap1\n      tag_92\n      jump\t// in\n    tag_91:\n      tag_93\n      jump\t// in\n    tag_90:\n      stop\n        /* \"contracts/VotingPlus.sol\":5461:5826  function startVoteSession() external onlyOwner {... */\n    tag_19:\n      tag_94\n      tag_95\n      jump\t// in\n    tag_94:\n      stop\n        /* \"contracts/VotingPlus.sol\":6295:6681  function votesTallied() external onlyOwner {... */\n    tag_20:\n      tag_96\n      tag_97\n      jump\t// in\n    tag_96:\n      stop\n        /* \"contracts/VotingPlus.sol\":1868:2003  function checkIfRegistered(address _address) public view returns (bool) {... */\n    tag_21:\n      tag_98\n      0x04\n      dup1\n      calldatasize\n      sub\n      dup2\n      add\n      swap1\n      tag_99\n      swap2\n      swap1\n      tag_48\n      jump\t// in\n    tag_99:\n      tag_100\n      jump\t// in\n    tag_98:\n      mload(0x40)\n      tag_101\n      swap2\n      swap1\n      tag_102\n      jump\t// in\n    tag_101:\n      mload(0x40)\n      dup1\n      swap2\n      sub\n      swap1\n      return\n        /* \"contracts/VotingPlus.sol\":9292:9541  function getWinnerProposalDescription() external view returns (string memory) {... */\n    tag_22:\n      tag_103\n      tag_104\n      jump\t// in\n    tag_103:\n      mload(0x40)\n      tag_105\n      swap2\n      swap1\n      tag_106\n      jump\t// in\n    tag_105:\n      mload(0x40)\n      dup1\n      swap2\n      sub\n      swap1\n      return\n        /* \"contracts/VotingPlus.sol\":10225:10322  function getProposalCount() external view returns(uint){... */\n    tag_23:\n      tag_107\n      tag_108\n      jump\t// in\n    tag_107:\n      mload(0x40)\n      tag_109\n      swap2\n      swap1\n      tag_45\n      jump\t// in\n    tag_109:\n      mload(0x40)\n      dup1\n      swap2\n      sub\n      swap1\n      return\n        /* \"contracts/VotingPlus.sol\":11072:11192  function isRegistered(address _address) external view returns(bool){... */\n    tag_24:\n      tag_110\n      0x04\n      dup1\n      calldatasize\n      sub\n      dup2\n      add\n      swap1\n      tag_111\n      swap2\n      swap1\n      tag_48\n      jump\t// in\n    tag_111:\n      tag_112\n      jump\t// in\n    tag_110:\n      mload(0x40)\n      tag_113\n      swap2\n      swap1\n      tag_102\n      jump\t// in\n    tag_113:\n      mload(0x40)\n      dup1\n      swap2\n      sub\n      swap1\n      return\n        /* \"contracts/VotingPlus.sol\":11200:11324  function getVoterRegisteredAddress() external view returns(address[] memory){... */\n    tag_25:\n      tag_114\n      tag_115\n      jump\t// in\n    tag_114:\n      mload(0x40)\n      tag_116\n      swap2\n      swap1\n      tag_117\n      jump\t// in\n    tag_116:\n      mload(0x40)\n      dup1\n      swap2\n      sub\n      swap1\n      return\n        /* \"contracts/VotingPlus.sol\":6689:7368  function reset() external onlyOwner {... */\n    tag_26:\n      tag_118\n      tag_119\n      jump\t// in\n    tag_118:\n      stop\n        /* \"contracts/VotingPlus.sol\":5010:5451  function endProposalSession() external onlyOwner {... */\n    tag_27:\n      tag_120\n      tag_121\n      jump\t// in\n    tag_120:\n      stop\n        /* \"contracts/VotingPlus.sol\":10656:10752  function getVoteCountTotal() external view returns(uint){... */\n    tag_28:\n      tag_122\n      tag_123\n      jump\t// in\n    tag_122:\n      mload(0x40)\n      tag_124\n      swap2\n      swap1\n      tag_45\n      jump\t// in\n    tag_124:\n      mload(0x40)\n      dup1\n      swap2\n      sub\n      swap1\n      return\n        /* \"@openzeppelin/contracts/access/Ownable.sol\":2543:2758  function transferOwnership(address newOwner) public virtual onlyOwner {... */\n    tag_29:\n      tag_125\n      0x04\n      dup1\n      calldatasize\n      sub\n      dup2\n      add\n      swap1\n      tag_126\n      swap2\n      swap1\n      tag_48\n      jump\t// in\n    tag_126:\n      tag_127\n      jump\t// in\n    tag_125:\n      stop\n        /* \"contracts/VotingPlus.sol\":5836:6287  function endVoteSession() external onlyOwner {... */\n    tag_30:\n      tag_128\n      tag_129\n      jump\t// in\n    tag_128:\n      stop\n        /* \"contracts/VotingPlus.sol\":3459:3847  function vote(uint _proposald) external restrictOwnerToVote {... */\n    tag_41:\n        /* \"contracts/VotingPlus.sol\":3958:3968  msg.sender */\n      caller\n        /* \"contracts/VotingPlus.sol\":3947:3968  owner() == msg.sender */\n      0xffffffffffffffffffffffffffffffffffffffff\n      and\n        /* \"contracts/VotingPlus.sol\":3947:3954  owner() */\n      tag_131\n        /* \"contracts/VotingPlus.sol\":3947:3952  owner */\n      tag_76\n        /* \"contracts/VotingPlus.sol\":3947:3954  owner() */\n      jump\t// in\n    tag_131:\n        /* \"contracts/VotingPlus.sol\":3947:3968  owner() == msg.sender */\n      0xffffffffffffffffffffffffffffffffffffffff\n      and\n      sub\n        /* \"contracts/VotingPlus.sol\":3944:4411  if(owner() == msg.sender) {... */\n      tag_132\n      jumpi\n        /* \"contracts/VotingPlus.sol\":4007:4008  1 */\n      0x01\n        /* \"contracts/VotingPlus.sol\":3993:4004  winnerCount */\n      sload(0x08)\n        /* \"contracts/VotingPlus.sol\":3993:4008  winnerCount > 1 */\n      gt\n        /* \"contracts/VotingPlus.sol\":3985:4061  require(winnerCount > 1, \"You can only vote if there is more than 1 winner\") */\n      tag_133\n      jumpi\n      mload(0x40)\n      0x08c379a000000000000000000000000000000000000000000000000000000000\n      dup2\n      mstore\n      0x04\n      add\n      tag_134\n      swap1\n      tag_135\n      jump\t// in\n    tag_134:\n      mload(0x40)\n      dup1\n      swap2\n      sub\n      swap1\n      revert\n    tag_133:\n        /* \"contracts/VotingPlus.sol\":4090:4091  1 */\n      0x01\n        /* \"contracts/VotingPlus.sol\":4076:4087  winnerCount */\n      0x08\n        /* \"contracts/VotingPlus.sol\":4076:4091  winnerCount = 1 */\n      dup2\n      swap1\n      sstore\n      pop\n        /* \"contracts/VotingPlus.sol\":3944:4411  if(owner() == msg.sender) {... */\n      jump(tag_136)\n    tag_132:\n        /* \"contracts/VotingPlus.sol\":4149:4184  WorkflowStatus.VotingSessionStarted */\n      0x03\n        /* \"contracts/VotingPlus.sol\":4132:4184  currentStatus == WorkflowStatus.VotingSessionStarted */\n      0x05\n      dup2\n      gt\n      iszero\n      tag_137\n      jumpi\n      tag_138\n      tag_139\n      jump\t// in\n    tag_138:\n    tag_137:\n        /* \"contracts/VotingPlus.sol\":4132:4145  currentStatus */\n      0x04\n      0x00\n      swap1\n      sload\n      swap1\n      0x0100\n      exp\n      swap1\n      div\n      0xff\n      and\n        /* \"contracts/VotingPlus.sol\":4132:4184  currentStatus == WorkflowStatus.VotingSessionStarted */\n      0x05\n      dup2\n      gt\n      iszero\n      tag_140\n      jumpi\n      tag_141\n      tag_139\n      jump\t// in\n    tag_141:\n    tag_140:\n      eq\n        /* \"contracts/VotingPlus.sol\":4124:4222  require(currentStatus == WorkflowStatus.VotingSessionStarted, \"The voting session is not started\") */\n      tag_142\n      jumpi\n      mload(0x40)\n      0x08c379a000000000000000000000000000000000000000000000000000000000\n      dup2\n      mstore\n      0x04\n      add\n      tag_143\n      swap1\n      tag_144\n      jump\t// in\n    tag_143:\n      mload(0x40)\n      dup1\n      swap2\n      sub\n      swap1\n      revert\n    tag_142:\n        /* \"contracts/VotingPlus.sol\":4279:4283  true */\n      0x01\n        /* \"contracts/VotingPlus.sol\":4246:4283  checkIfRegistered(msg.sender) == true */\n      iszero\n      iszero\n        /* \"contracts/VotingPlus.sol\":4246:4275  checkIfRegistered(msg.sender) */\n      tag_145\n        /* \"contracts/VotingPlus.sol\":4264:4274  msg.sender */\n      caller\n        /* \"contracts/VotingPlus.sol\":4246:4263  checkIfRegistered */\n      tag_100\n        /* \"contracts/VotingPlus.sol\":4246:4275  checkIfRegistered(msg.sender) */\n      jump\t// in\n    tag_145:\n        /* \"contracts/VotingPlus.sol\":4246:4283  checkIfRegistered(msg.sender) == true */\n      iszero\n      iszero\n      eq\n        /* \"contracts/VotingPlus.sol\":4238:4310  require(checkIfRegistered(msg.sender) == true, \"You are not registered\") */\n      tag_146\n      jumpi\n      mload(0x40)\n      0x08c379a000000000000000000000000000000000000000000000000000000000\n      dup2\n      mstore\n      0x04\n      add\n      tag_147\n      swap1\n      tag_148\n      jump\t// in\n    tag_147:\n      mload(0x40)\n      dup1\n      swap2\n      sub\n      swap1\n      revert\n    tag_146:\n        /* \"contracts/VotingPlus.sol\":4372:4377  false */\n      0x00\n        /* \"contracts/VotingPlus.sol\":4333:4377  whitelistVoter[msg.sender].hasVoted == false */\n      iszero\n      iszero\n        /* \"contracts/VotingPlus.sol\":4333:4347  whitelistVoter */\n      0x01\n        /* \"contracts/VotingPlus.sol\":4333:4359  whitelistVoter[msg.sender] */\n      0x00\n        /* \"contracts/VotingPlus.sol\":4348:4358  msg.sender */\n      caller\n        /* \"contracts/VotingPlus.sol\":4333:4359  whitelistVoter[msg.sender] */\n      0xffffffffffffffffffffffffffffffffffffffff\n      and\n      0xffffffffffffffffffffffffffffffffffffffff\n      and\n      dup2\n      mstore\n      0x20\n      add\n      swap1\n      dup2\n      mstore\n      0x20\n      add\n      0x00\n      keccak256\n        /* \"contracts/VotingPlus.sol\":4333:4368  whitelistVoter[msg.sender].hasVoted */\n      0x00\n      add\n      0x01\n      swap1\n      sload\n      swap1\n      0x0100\n      exp\n      swap1\n      div\n      0xff\n      and\n        /* \"contracts/VotingPlus.sol\":4333:4377  whitelistVoter[msg.sender].hasVoted == false */\n      iszero\n      iszero\n      eq\n        /* \"contracts/VotingPlus.sol\":4325:4399  require(whitelistVoter[msg.sender].hasVoted == false, \"You already voted\") */\n      tag_149\n      jumpi\n      mload(0x40)\n      0x08c379a000000000000000000000000000000000000000000000000000000000\n      dup2\n      mstore\n      0x04\n      add\n      tag_150\n      swap1\n      tag_151\n      jump\t// in\n    tag_150:\n      mload(0x40)\n      dup1\n      swap2\n      sub\n      swap1\n      revert\n    tag_149:\n        /* \"contracts/VotingPlus.sol\":3944:4411  if(owner() == msg.sender) {... */\n    tag_136:\n        /* \"contracts/VotingPlus.sol\":3551:3560  proposals */\n      0x02\n        /* \"contracts/VotingPlus.sol\":3551:3567  proposals.length */\n      dup1\n      sload\n      swap1\n      pop\n        /* \"contracts/VotingPlus.sol\":3538:3548  _proposald */\n      dup2\n        /* \"contracts/VotingPlus.sol\":3538:3567  _proposald < proposals.length */\n      lt\n        /* \"contracts/VotingPlus.sol\":3530:3604  require(_proposald < proposals.length, \"This proposal ID does not exists\") */\n      tag_153\n      jumpi\n      mload(0x40)\n      0x08c379a000000000000000000000000000000000000000000000000000000000\n      dup2\n      mstore\n      0x04\n      add\n      tag_154\n      swap1\n      tag_155\n      jump\t// in\n    tag_154:\n      mload(0x40)\n      dup1\n      swap2\n      sub\n      swap1\n      revert\n    tag_153:\n        /* \"contracts/VotingPlus.sol\":3653:3657  true */\n      0x01\n        /* \"contracts/VotingPlus.sol\":3615:3629  whitelistVoter */\n      dup1\n        /* \"contracts/VotingPlus.sol\":3615:3641  whitelistVoter[msg.sender] */\n      0x00\n        /* \"contracts/VotingPlus.sol\":3630:3640  msg.sender */\n      caller\n        /* \"contracts/VotingPlus.sol\":3615:3641  whitelistVoter[msg.sender] */\n      0xffffffffffffffffffffffffffffffffffffffff\n      and\n      0xffffffffffffffffffffffffffffffffffffffff\n      and\n      dup2\n      mstore\n      0x20\n      add\n      swap1\n      dup2\n      mstore\n      0x20\n      add\n      0x00\n      keccak256\n        /* \"contracts/VotingPlus.sol\":3615:3650  whitelistVoter[msg.sender].hasVoted */\n      0x00\n      add\n      0x01\n        /* \"contracts/VotingPlus.sol\":3615:3657  whitelistVoter[msg.sender].hasVoted = true */\n      0x0100\n      exp\n      dup2\n      sload\n      dup2\n      0xff\n      mul\n      not\n      and\n      swap1\n      dup4\n      iszero\n      iszero\n      mul\n      or\n      swap1\n      sstore\n      pop\n        /* \"contracts/VotingPlus.sol\":3713:3723  _proposald */\n      dup1\n        /* \"contracts/VotingPlus.sol\":3668:3682  whitelistVoter */\n      0x01\n        /* \"contracts/VotingPlus.sol\":3668:3694  whitelistVoter[msg.sender] */\n      0x00\n        /* \"contracts/VotingPlus.sol\":3683:3693  msg.sender */\n      caller\n        /* \"contracts/VotingPlus.sol\":3668:3694  whitelistVoter[msg.sender] */\n      0xffffffffffffffffffffffffffffffffffffffff\n      and\n      0xffffffffffffffffffffffffffffffffffffffff\n      and\n      dup2\n      mstore\n      0x20\n      add\n      swap1\n      dup2\n      mstore\n      0x20\n      add\n      0x00\n      keccak256\n        /* \"contracts/VotingPlus.sol\":3668:3710  whitelistVoter[msg.sender].votedProposalId */\n      0x01\n      add\n        /* \"contracts/VotingPlus.sol\":3668:3723  whitelistVoter[msg.sender].votedProposalId = _proposald */\n      dup2\n      swap1\n      sstore\n      pop\n        /* \"contracts/VotingPlus.sol\":3734:3743  proposals */\n      0x02\n        /* \"contracts/VotingPlus.sol\":3744:3754  _proposald */\n      dup2\n        /* \"contracts/VotingPlus.sol\":3734:3755  proposals[_proposald] */\n      dup2\n      sload\n      dup2\n      lt\n      tag_156\n      jumpi\n      tag_157\n      tag_158\n      jump\t// in\n    tag_157:\n    tag_156:\n      swap1\n      0x00\n      mstore\n      keccak256(0x00, 0x20)\n      swap1\n      0x03\n      mul\n      add\n        /* \"contracts/VotingPlus.sol\":3734:3765  proposals[_proposald].voteCount */\n      0x01\n      add\n      0x00\n        /* \"contracts/VotingPlus.sol\":3734:3767  proposals[_proposald].voteCount++ */\n      dup2\n      sload\n      dup1\n      swap3\n      swap2\n      swap1\n      tag_160\n      swap1\n      tag_161\n      jump\t// in\n    tag_160:\n      swap2\n      swap1\n      pop\n      sstore\n      pop\n        /* \"contracts/VotingPlus.sol\":3778:3792  voteCountTotal */\n      0x07\n      0x00\n        /* \"contracts/VotingPlus.sol\":3778:3794  voteCountTotal++ */\n      dup2\n      sload\n      dup1\n      swap3\n      swap2\n      swap1\n      tag_162\n      swap1\n      tag_161\n      jump\t// in\n    tag_162:\n      swap2\n      swap1\n      pop\n      sstore\n      pop\n        /* \"contracts/VotingPlus.sol\":3810:3839  Voted(msg.sender, _proposald) */\n      0x4d99b957a2bc29a30ebd96a7be8e68fe50a3c701db28a91436490b7d53870ca4\n        /* \"contracts/VotingPlus.sol\":3816:3826  msg.sender */\n      caller\n        /* \"contracts/VotingPlus.sol\":3828:3838  _proposald */\n      dup3\n        /* \"contracts/VotingPlus.sol\":3810:3839  Voted(msg.sender, _proposald) */\n      mload(0x40)\n      tag_163\n      swap3\n      swap2\n      swap1\n      tag_164\n      jump\t// in\n    tag_163:\n      mload(0x40)\n      dup1\n      swap2\n      sub\n      swap1\n      log1\n        /* \"contracts/VotingPlus.sol\":3459:3847  function vote(uint _proposald) external restrictOwnerToVote {... */\n      pop\n      jump\t// out\n        /* \"contracts/VotingPlus.sol\":10517:10605  function getVoterCount() external view returns(uint){... */\n    tag_43:\n        /* \"contracts/VotingPlus.sol\":10564:10568  uint */\n      0x00\n        /* \"contracts/VotingPlus.sol\":10587:10597  voterCount */\n      sload(0x06)\n        /* \"contracts/VotingPlus.sol\":10580:10597  return voterCount */\n      swap1\n      pop\n        /* \"contracts/VotingPlus.sol\":10517:10605  function getVoterCount() external view returns(uint){... */\n      swap1\n      jump\t// out\n        /* \"contracts/VotingPlus.sol\":2164:2647  function registerVoter(address _address) external onlyOwner {... */\n    tag_49:\n        /* \"@openzeppelin/contracts/access/Ownable.sol\":1531:1544  _checkOwner() */\n      tag_167\n        /* \"@openzeppelin/contracts/access/Ownable.sol\":1531:1542  _checkOwner */\n      tag_168\n        /* \"@openzeppelin/contracts/access/Ownable.sol\":1531:1544  _checkOwner() */\n      jump\t// in\n    tag_167:\n        /* \"contracts/VotingPlus.sol\":2260:2292  WorkflowStatus.RegisteringVoters */\n      0x00\n        /* \"contracts/VotingPlus.sol\":2243:2292  currentStatus == WorkflowStatus.RegisteringVoters */\n      0x05\n      dup2\n      gt\n      iszero\n      tag_170\n      jumpi\n      tag_171\n      tag_139\n      jump\t// in\n    tag_171:\n    tag_170:\n        /* \"contracts/VotingPlus.sol\":2243:2256  currentStatus */\n      0x04\n      0x00\n      swap1\n      sload\n      swap1\n      0x0100\n      exp\n      swap1\n      div\n      0xff\n      and\n        /* \"contracts/VotingPlus.sol\":2243:2292  currentStatus == WorkflowStatus.RegisteringVoters */\n      0x05\n      dup2\n      gt\n      iszero\n      tag_172\n      jumpi\n      tag_173\n      tag_139\n      jump\t// in\n    tag_173:\n    tag_172:\n      eq\n        /* \"contracts/VotingPlus.sol\":2235:2337  require(currentStatus == WorkflowStatus.RegisteringVoters, \"You are not in voter registration period\") */\n      tag_174\n      jumpi\n      mload(0x40)\n      0x08c379a000000000000000000000000000000000000000000000000000000000\n      dup2\n      mstore\n      0x04\n      add\n      tag_175\n      swap1\n      tag_176\n      jump\t// in\n    tag_175:\n      mload(0x40)\n      dup1\n      swap2\n      sub\n      swap1\n      revert\n    tag_174:\n        /* \"contracts/VotingPlus.sol\":2387:2392  false */\n      0x00\n        /* \"contracts/VotingPlus.sol\":2356:2392  checkIfRegistered(_address) == false */\n      iszero\n      iszero\n        /* \"contracts/VotingPlus.sol\":2356:2383  checkIfRegistered(_address) */\n      tag_177\n        /* \"contracts/VotingPlus.sol\":2374:2382  _address */\n      dup3\n        /* \"contracts/VotingPlus.sol\":2356:2373  checkIfRegistered */\n      tag_100\n        /* \"contracts/VotingPlus.sol\":2356:2383  checkIfRegistered(_address) */\n      jump\t// in\n    tag_177:\n        /* \"contracts/VotingPlus.sol\":2356:2392  checkIfRegistered(_address) == false */\n      iszero\n      iszero\n      eq\n        /* \"contracts/VotingPlus.sol\":2348:2429  require(checkIfRegistered(_address) == false, \"You already have add this adress\") */\n      tag_178\n      jumpi\n      mload(0x40)\n      0x08c379a000000000000000000000000000000000000000000000000000000000\n      dup2\n      mstore\n      0x04\n      add\n      tag_179\n      swap1\n      tag_180\n      jump\t// in\n    tag_179:\n      mload(0x40)\n      dup1\n      swap2\n      sub\n      swap1\n      revert\n    tag_178:\n        /* \"contracts/VotingPlus.sol\":2442:2460  Voter memory voter */\n      0x00\n        /* \"contracts/VotingPlus.sol\":2463:2484  Voter(true, false, 0) */\n      mload(0x40)\n      dup1\n      0x60\n      add\n      0x40\n      mstore\n      dup1\n        /* \"contracts/VotingPlus.sol\":2469:2473  true */\n      0x01\n        /* \"contracts/VotingPlus.sol\":2463:2484  Voter(true, false, 0) */\n      iszero\n      iszero\n      dup2\n      mstore\n      0x20\n      add\n        /* \"contracts/VotingPlus.sol\":2475:2480  false */\n      0x00\n        /* \"contracts/VotingPlus.sol\":2463:2484  Voter(true, false, 0) */\n      iszero\n      iszero\n      dup2\n      mstore\n      0x20\n      add\n        /* \"contracts/VotingPlus.sol\":2482:2483  0 */\n      0x00\n        /* \"contracts/VotingPlus.sol\":2463:2484  Voter(true, false, 0) */\n      dup2\n      mstore\n      pop\n        /* \"contracts/VotingPlus.sol\":2442:2484  Voter memory voter = Voter(true, false, 0) */\n      swap1\n      pop\n        /* \"contracts/VotingPlus.sol\":2522:2527  voter */\n      dup1\n        /* \"contracts/VotingPlus.sol\":2495:2509  whitelistVoter */\n      0x01\n        /* \"contracts/VotingPlus.sol\":2495:2519  whitelistVoter[_address] */\n      0x00\n        /* \"contracts/VotingPlus.sol\":2510:2518  _address */\n      dup5\n        /* \"contracts/VotingPlus.sol\":2495:2519  whitelistVoter[_address] */\n      0xffffffffffffffffffffffffffffffffffffffff\n      and\n      0xffffffffffffffffffffffffffffffffffffffff\n      and\n      dup2\n      mstore\n      0x20\n      add\n      swap1\n      dup2\n      mstore\n      0x20\n      add\n      0x00\n      keccak256\n        /* \"contracts/VotingPlus.sol\":2495:2527  whitelistVoter[_address] = voter */\n      0x00\n      dup3\n      add\n      mload\n      dup2\n      0x00\n      add\n      exp(0x0100, 0x00)\n      dup2\n      sload\n      dup2\n      0xff\n      mul\n      not\n      and\n      swap1\n      dup4\n      iszero\n      iszero\n      mul\n      or\n      swap1\n      sstore\n      pop\n      0x20\n      dup3\n      add\n      mload\n      dup2\n      0x00\n      add\n      exp(0x0100, 0x01)\n      dup2\n      sload\n      dup2\n      0xff\n      mul\n      not\n      and\n      swap1\n      dup4\n      iszero\n      iszero\n      mul\n      or\n      swap1\n      sstore\n      pop\n      0x40\n      dup3\n      add\n      mload\n      dup2\n      0x01\n      add\n      sstore\n      swap1\n      pop\n      pop\n        /* \"contracts/VotingPlus.sol\":2538:2560  voterRegisteredAddress */\n      0x03\n        /* \"contracts/VotingPlus.sol\":2566:2574  _address */\n      dup3\n        /* \"contracts/VotingPlus.sol\":2538:2575  voterRegisteredAddress.push(_address) */\n      swap1\n      dup1\n      0x01\n      dup2\n      sload\n      add\n      dup1\n      dup3\n      sstore\n      dup1\n      swap2\n      pop\n      pop\n      0x01\n      swap1\n      sub\n      swap1\n      0x00\n      mstore\n      keccak256(0x00, 0x20)\n      add\n      0x00\n      swap1\n      swap2\n      swap1\n      swap2\n      swap1\n      swap2\n      0x0100\n      exp\n      dup2\n      sload\n      dup2\n      0xffffffffffffffffffffffffffffffffffffffff\n      mul\n      not\n      and\n      swap1\n      dup4\n      0xffffffffffffffffffffffffffffffffffffffff\n      and\n      mul\n      or\n      swap1\n      sstore\n      pop\n        /* \"contracts/VotingPlus.sol\":2586:2596  voterCount */\n      0x06\n      0x00\n        /* \"contracts/VotingPlus.sol\":2586:2598  voterCount++ */\n      dup2\n      sload\n      dup1\n      swap3\n      swap2\n      swap1\n      tag_182\n      swap1\n      tag_161\n      jump\t// in\n    tag_182:\n      swap2\n      swap1\n      pop\n      sstore\n      pop\n        /* \"contracts/VotingPlus.sol\":2614:2639  VoterRegistered(_address) */\n      0xb6be2187d059cc2a55fe29e0e503b566e1e0f8c8780096e185429350acffd3dd\n        /* \"contracts/VotingPlus.sol\":2630:2638  _address */\n      dup3\n        /* \"contracts/VotingPlus.sol\":2614:2639  VoterRegistered(_address) */\n      mload(0x40)\n      tag_183\n      swap2\n      swap1\n      tag_63\n      jump\t// in\n    tag_183:\n      mload(0x40)\n      dup1\n      swap2\n      sub\n      swap1\n      log1\n        /* \"contracts/VotingPlus.sol\":2224:2647  {... */\n      pop\n        /* \"contracts/VotingPlus.sol\":2164:2647  function registerVoter(address _address) external onlyOwner {... */\n      pop\n      jump\t// out\n        /* \"contracts/VotingPlus.sol\":4587:5002  function startProposalSession() external onlyOwner {... */\n    tag_51:\n        /* \"@openzeppelin/contracts/access/Ownable.sol\":1531:1544  _checkOwner() */\n      tag_185\n        /* \"@openzeppelin/contracts/access/Ownable.sol\":1531:1542  _checkOwner */\n      tag_168\n        /* \"@openzeppelin/contracts/access/Ownable.sol\":1531:1544  _checkOwner() */\n      jump\t// in\n    tag_185:\n        /* \"contracts/VotingPlus.sol\":4675:4707  WorkflowStatus.RegisteringVoters */\n      0x00\n        /* \"contracts/VotingPlus.sol\":4657:4707  currentStatus ==  WorkflowStatus.RegisteringVoters */\n      0x05\n      dup2\n      gt\n      iszero\n      tag_187\n      jumpi\n      tag_188\n      tag_139\n      jump\t// in\n    tag_188:\n    tag_187:\n        /* \"contracts/VotingPlus.sol\":4657:4670  currentStatus */\n      0x04\n      0x00\n      swap1\n      sload\n      swap1\n      0x0100\n      exp\n      swap1\n      div\n      0xff\n      and\n        /* \"contracts/VotingPlus.sol\":4657:4707  currentStatus ==  WorkflowStatus.RegisteringVoters */\n      0x05\n      dup2\n      gt\n      iszero\n      tag_189\n      jumpi\n      tag_190\n      tag_139\n      jump\t// in\n    tag_190:\n    tag_189:\n      eq\n        /* \"contracts/VotingPlus.sol\":4649:4756  require(currentStatus ==  WorkflowStatus.RegisteringVoters, \"You can not start again the proposal session\") */\n      tag_191\n      jumpi\n      mload(0x40)\n      0x08c379a000000000000000000000000000000000000000000000000000000000\n      dup2\n      mstore\n      0x04\n      add\n      tag_192\n      swap1\n      tag_193\n      jump\t// in\n    tag_192:\n      mload(0x40)\n      dup1\n      swap2\n      sub\n      swap1\n      revert\n    tag_191:\n        /* \"contracts/VotingPlus.sol\":4788:4789  1 */\n      0x01\n        /* \"contracts/VotingPlus.sol\":4775:4785  voterCount */\n      sload(0x06)\n        /* \"contracts/VotingPlus.sol\":4775:4789  voterCount > 1 */\n      gt\n        /* \"contracts/VotingPlus.sol\":4767:4832  require(voterCount > 1, \"You must register at least 2 addresses\") */\n      tag_194\n      jumpi\n      mload(0x40)\n      0x08c379a000000000000000000000000000000000000000000000000000000000\n      dup2\n      mstore\n      0x04\n      add\n      tag_195\n      swap1\n      tag_196\n      jump\t// in\n    tag_195:\n      mload(0x40)\n      dup1\n      swap2\n      sub\n      swap1\n      revert\n    tag_194:\n        /* \"contracts/VotingPlus.sol\":4859:4902  WorkflowStatus.ProposalsRegistrationStarted */\n      0x01\n        /* \"contracts/VotingPlus.sol\":4843:4856  currentStatus */\n      0x04\n      0x00\n        /* \"contracts/VotingPlus.sol\":4843:4902  currentStatus = WorkflowStatus.ProposalsRegistrationStarted */\n      0x0100\n      exp\n      dup2\n      sload\n      dup2\n      0xff\n      mul\n      not\n      and\n      swap1\n      dup4\n      0x05\n      dup2\n      gt\n      iszero\n      tag_197\n      jumpi\n      tag_198\n      tag_139\n      jump\t// in\n    tag_198:\n    tag_197:\n      mul\n      or\n      swap1\n      sstore\n      pop\n        /* \"contracts/VotingPlus.sol\":4918:4994  WorkflowStatusChange(WorkflowStatus(uint(currentStatus) - 1), currentStatus) */\n      0x0a97a4ee45751e2abf3e4fc8946939630b11b371ea8ae39ccdc3056e98f5cc3f\n        /* \"contracts/VotingPlus.sol\":4976:4977  1 */\n      0x01\n        /* \"contracts/VotingPlus.sol\":4959:4972  currentStatus */\n      0x04\n      0x00\n      swap1\n      sload\n      swap1\n      0x0100\n      exp\n      swap1\n      div\n      0xff\n      and\n        /* \"contracts/VotingPlus.sol\":4954:4973  uint(currentStatus) */\n      0x05\n      dup2\n      gt\n      iszero\n      tag_199\n      jumpi\n      tag_200\n      tag_139\n      jump\t// in\n    tag_200:\n    tag_199:\n        /* \"contracts/VotingPlus.sol\":4954:4977  uint(currentStatus) - 1 */\n      tag_201\n      swap2\n      swap1\n      tag_202\n      jump\t// in\n    tag_201:\n        /* \"contracts/VotingPlus.sol\":4939:4978  WorkflowStatus(uint(currentStatus) - 1) */\n      0x05\n      dup2\n      gt\n      iszero\n      tag_203\n      jumpi\n      tag_204\n      tag_139\n      jump\t// in\n    tag_204:\n    tag_203:\n        /* \"contracts/VotingPlus.sol\":4980:4993  currentStatus */\n      0x04\n      0x00\n      swap1\n      sload\n      swap1\n      0x0100\n      exp\n      swap1\n      div\n      0xff\n      and\n        /* \"contracts/VotingPlus.sol\":4918:4994  WorkflowStatusChange(WorkflowStatus(uint(currentStatus) - 1), currentStatus) */\n      mload(0x40)\n      tag_205\n      swap3\n      swap2\n      swap1\n      tag_206\n      jump\t// in\n    tag_205:\n      mload(0x40)\n      dup1\n      swap2\n      sub\n      swap1\n      log1\n        /* \"contracts/VotingPlus.sol\":4587:5002  function startProposalSession() external onlyOwner {... */\n      jump\t// out\n        /* \"contracts/VotingPlus.sol\":9599:9807  function getWinnerProposalId() external view returns (uint) {... */\n    tag_53:\n        /* \"contracts/VotingPlus.sol\":9653:9657  uint */\n      0x00\n        /* \"contracts/VotingPlus.sol\":9696:9723  WorkflowStatus.VotesTallied */\n      0x05\n        /* \"contracts/VotingPlus.sol\":9678:9723  currentStatus ==  WorkflowStatus.VotesTallied */\n      dup1\n      dup2\n      gt\n      iszero\n      tag_208\n      jumpi\n      tag_209\n      tag_139\n      jump\t// in\n    tag_209:\n    tag_208:\n        /* \"contracts/VotingPlus.sol\":9678:9691  currentStatus */\n      0x04\n      0x00\n      swap1\n      sload\n      swap1\n      0x0100\n      exp\n      swap1\n      div\n      0xff\n      and\n        /* \"contracts/VotingPlus.sol\":9678:9723  currentStatus ==  WorkflowStatus.VotesTallied */\n      0x05\n      dup2\n      gt\n      iszero\n      tag_210\n      jumpi\n      tag_211\n      tag_139\n      jump\t// in\n    tag_211:\n    tag_210:\n      eq\n        /* \"contracts/VotingPlus.sol\":9670:9764  require(currentStatus ==  WorkflowStatus.VotesTallied, \"The winner have not been choosen yet\") */\n      tag_212\n      jumpi\n      mload(0x40)\n      0x08c379a000000000000000000000000000000000000000000000000000000000\n      dup2\n      mstore\n      0x04\n      add\n      tag_213\n      swap1\n      tag_214\n      jump\t// in\n    tag_213:\n      mload(0x40)\n      dup1\n      swap2\n      sub\n      swap1\n      revert\n    tag_212:\n        /* \"contracts/VotingPlus.sol\":9782:9799  winningProposalId */\n      sload(0x05)\n        /* \"contracts/VotingPlus.sol\":9775:9799  return winningProposalId */\n      swap1\n      pop\n        /* \"contracts/VotingPlus.sol\":9599:9807  function getWinnerProposalId() external view returns (uint) {... */\n      swap1\n      jump\t// out\n        /* \"contracts/VotingPlus.sol\":10366:10465  function getProposals() external view returns(Proposal[] memory){... */\n    tag_56:\n        /* \"contracts/VotingPlus.sol\":10412:10429  Proposal[] memory */\n      0x60\n        /* \"contracts/VotingPlus.sol\":10448:10457  proposals */\n      0x02\n        /* \"contracts/VotingPlus.sol\":10441:10457  return proposals */\n      dup1\n      sload\n      dup1\n      0x20\n      mul\n      0x20\n      add\n      mload(0x40)\n      swap1\n      dup2\n      add\n      0x40\n      mstore\n      dup1\n      swap3\n      swap2\n      swap1\n      dup2\n      dup2\n      mstore\n      0x20\n      add\n      0x00\n      swap1\n    tag_216:\n      dup3\n      dup3\n      lt\n      iszero\n      tag_217\n      jumpi\n      dup4\n      dup3\n      swap1\n      0x00\n      mstore\n      keccak256(0x00, 0x20)\n      swap1\n      0x03\n      mul\n      add\n      mload(0x40)\n      dup1\n      0x60\n      add\n      0x40\n      mstore\n      swap1\n      dup2\n      0x00\n      dup3\n      add\n      dup1\n      sload\n      tag_219\n      swap1\n      tag_220\n      jump\t// in\n    tag_219:\n      dup1\n      0x1f\n      add\n      0x20\n      dup1\n      swap2\n      div\n      mul\n      0x20\n      add\n      mload(0x40)\n      swap1\n      dup2\n      add\n      0x40\n      mstore\n      dup1\n      swap3\n      swap2\n      swap1\n      dup2\n      dup2\n      mstore\n      0x20\n      add\n      dup3\n      dup1\n      sload\n      tag_221\n      swap1\n      tag_220\n      jump\t// in\n    tag_221:\n      dup1\n      iszero\n      tag_222\n      jumpi\n      dup1\n      0x1f\n      lt\n      tag_223\n      jumpi\n      0x0100\n      dup1\n      dup4\n      sload\n      div\n      mul\n      dup4\n      mstore\n      swap2\n      0x20\n      add\n      swap2\n      jump(tag_222)\n    tag_223:\n      dup3\n      add\n      swap2\n      swap1\n      0x00\n      mstore\n      keccak256(0x00, 0x20)\n      swap1\n    tag_224:\n      dup2\n      sload\n      dup2\n      mstore\n      swap1\n      0x01\n      add\n      swap1\n      0x20\n      add\n      dup1\n      dup4\n      gt\n      tag_224\n      jumpi\n      dup3\n      swap1\n      sub\n      0x1f\n      and\n      dup3\n      add\n      swap2\n    tag_222:\n      pop\n      pop\n      pop\n      pop\n      pop\n      dup2\n      mstore\n      0x20\n      add\n      0x01\n      dup3\n      add\n      sload\n      dup2\n      mstore\n      0x20\n      add\n      0x02\n      dup3\n      add\n      0x00\n      swap1\n      sload\n      swap1\n      0x0100\n      exp\n      swap1\n      div\n      0xffffffffffffffffffffffffffffffffffffffff\n      and\n      0xffffffffffffffffffffffffffffffffffffffff\n      and\n      0xffffffffffffffffffffffffffffffffffffffff\n      and\n      dup2\n      mstore\n      pop\n      pop\n      dup2\n      mstore\n      0x20\n      add\n      swap1\n      0x01\n      add\n      swap1\n      jump(tag_216)\n    tag_217:\n      pop\n      pop\n      pop\n      pop\n      swap1\n      pop\n        /* \"contracts/VotingPlus.sol\":10366:10465  function getProposals() external view returns(Proposal[] memory){... */\n      swap1\n      jump\t// out\n        /* \"contracts/VotingPlus.sol\":7508:8085  function getAddressByProposalId(uint _proposalId) external view returns(address){... */\n    tag_61:\n        /* \"contracts/VotingPlus.sol\":7580:7587  address */\n      0x00\n        /* \"contracts/VotingPlus.sol\":7625:7668  WorkflowStatus.ProposalsRegistrationStarted */\n      0x01\n        /* \"contracts/VotingPlus.sol\":7607:7668  currentStatus >=  WorkflowStatus.ProposalsRegistrationStarted */\n      0x05\n      dup2\n      gt\n      iszero\n      tag_226\n      jumpi\n      tag_227\n      tag_139\n      jump\t// in\n    tag_227:\n    tag_226:\n        /* \"contracts/VotingPlus.sol\":7607:7620  currentStatus */\n      0x04\n      0x00\n      swap1\n      sload\n      swap1\n      0x0100\n      exp\n      swap1\n      div\n      0xff\n      and\n        /* \"contracts/VotingPlus.sol\":7607:7668  currentStatus >=  WorkflowStatus.ProposalsRegistrationStarted */\n      0x05\n      dup2\n      gt\n      iszero\n      tag_228\n      jumpi\n      tag_229\n      tag_139\n      jump\t// in\n    tag_229:\n    tag_228:\n      lt\n      iszero\n        /* \"contracts/VotingPlus.sol\":7599:7709  require(currentStatus >=  WorkflowStatus.ProposalsRegistrationStarted, \"The proposal session has not started\") */\n      tag_230\n      jumpi\n      mload(0x40)\n      0x08c379a000000000000000000000000000000000000000000000000000000000\n      dup2\n      mstore\n      0x04\n      add\n      tag_231\n      swap1\n      tag_232\n      jump\t// in\n    tag_231:\n      mload(0x40)\n      dup1\n      swap2\n      sub\n      swap1\n      revert\n    tag_230:\n        /* \"contracts/VotingPlus.sol\":7790:7799  proposals */\n      0x02\n        /* \"contracts/VotingPlus.sol\":7790:7806  proposals.length */\n      dup1\n      sload\n      swap1\n      pop\n        /* \"contracts/VotingPlus.sol\":7776:7787  _proposalId */\n      dup3\n        /* \"contracts/VotingPlus.sol\":7776:7806  _proposalId < proposals.length */\n      lt\n        /* \"contracts/VotingPlus.sol\":7768:7843  require(_proposalId < proposals.length, \"This proposal ID does not exists\") */\n      tag_233\n      jumpi\n      mload(0x40)\n      0x08c379a000000000000000000000000000000000000000000000000000000000\n      dup2\n      mstore\n      0x04\n      add\n      tag_234\n      swap1\n      tag_155\n      jump\t// in\n    tag_234:\n      mload(0x40)\n      dup1\n      swap2\n      sub\n      swap1\n      revert\n    tag_233:\n        /* \"contracts/VotingPlus.sol\":7982:7986  true */\n      0x01\n        /* \"contracts/VotingPlus.sol\":7931:7986  checkIfRegistered(proposals[_proposalId].voter) == true */\n      iszero\n      iszero\n        /* \"contracts/VotingPlus.sol\":7931:7978  checkIfRegistered(proposals[_proposalId].voter) */\n      tag_235\n        /* \"contracts/VotingPlus.sol\":7949:7958  proposals */\n      0x02\n        /* \"contracts/VotingPlus.sol\":7959:7970  _proposalId */\n      dup5\n        /* \"contracts/VotingPlus.sol\":7949:7971  proposals[_proposalId] */\n      dup2\n      sload\n      dup2\n      lt\n      tag_236\n      jumpi\n      tag_237\n      tag_158\n      jump\t// in\n    tag_237:\n    tag_236:\n      swap1\n      0x00\n      mstore\n      keccak256(0x00, 0x20)\n      swap1\n      0x03\n      mul\n      add\n        /* \"contracts/VotingPlus.sol\":7949:7977  proposals[_proposalId].voter */\n      0x02\n      add\n      0x00\n      swap1\n      sload\n      swap1\n      0x0100\n      exp\n      swap1\n      div\n      0xffffffffffffffffffffffffffffffffffffffff\n      and\n        /* \"contracts/VotingPlus.sol\":7931:7948  checkIfRegistered */\n      tag_100\n        /* \"contracts/VotingPlus.sol\":7931:7978  checkIfRegistered(proposals[_proposalId].voter) */\n      jump\t// in\n    tag_235:\n        /* \"contracts/VotingPlus.sol\":7931:7986  checkIfRegistered(proposals[_proposalId].voter) == true */\n      iszero\n      iszero\n      eq\n        /* \"contracts/VotingPlus.sol\":7923:8021  require(checkIfRegistered(proposals[_proposalId].voter) == true, \"This address is not registered\") */\n      tag_239\n      jumpi\n      mload(0x40)\n      0x08c379a000000000000000000000000000000000000000000000000000000000\n      dup2\n      mstore\n      0x04\n      add\n      tag_240\n      swap1\n      tag_241\n      jump\t// in\n    tag_240:\n      mload(0x40)\n      dup1\n      swap2\n      sub\n      swap1\n      revert\n    tag_239:\n        /* \"contracts/VotingPlus.sol\":8049:8058  proposals */\n      0x02\n        /* \"contracts/VotingPlus.sol\":8059:8070  _proposalId */\n      dup3\n        /* \"contracts/VotingPlus.sol\":8049:8071  proposals[_proposalId] */\n      dup2\n      sload\n      dup2\n      lt\n      tag_242\n      jumpi\n      tag_243\n      tag_158\n      jump\t// in\n    tag_243:\n    tag_242:\n      swap1\n      0x00\n      mstore\n      keccak256(0x00, 0x20)\n      swap1\n      0x03\n      mul\n      add\n        /* \"contracts/VotingPlus.sol\":8049:8077  proposals[_proposalId].voter */\n      0x02\n      add\n      0x00\n      swap1\n      sload\n      swap1\n      0x0100\n      exp\n      swap1\n      div\n      0xffffffffffffffffffffffffffffffffffffffff\n      and\n        /* \"contracts/VotingPlus.sol\":8042:8077  return proposals[_proposalId].voter */\n      swap1\n      pop\n        /* \"contracts/VotingPlus.sol\":7508:8085  function getAddressByProposalId(uint _proposalId) external view returns(address){... */\n      swap2\n      swap1\n      pop\n      jump\t// out\n        /* \"contracts/VotingPlus.sol\":10039:10172  function getPreviousStatus() external view returns (WorkflowStatus) {... */\n    tag_65:\n        /* \"contracts/VotingPlus.sol\":10091:10105  WorkflowStatus */\n      0x00\n        /* \"contracts/VotingPlus.sol\":10162:10163  1 */\n      0x01\n        /* \"contracts/VotingPlus.sol\":10145:10158  currentStatus */\n      0x04\n      0x00\n      swap1\n      sload\n      swap1\n      0x0100\n      exp\n      swap1\n      div\n      0xff\n      and\n        /* \"contracts/VotingPlus.sol\":10140:10159  uint(currentStatus) */\n      0x05\n      dup2\n      gt\n      iszero\n      tag_246\n      jumpi\n      tag_247\n      tag_139\n      jump\t// in\n    tag_247:\n    tag_246:\n        /* \"contracts/VotingPlus.sol\":10140:10163  uint(currentStatus) - 1 */\n      tag_248\n      swap2\n      swap1\n      tag_202\n      jump\t// in\n    tag_248:\n        /* \"contracts/VotingPlus.sol\":10125:10164  WorkflowStatus(uint(currentStatus) - 1) */\n      0x05\n      dup2\n      gt\n      iszero\n      tag_249\n      jumpi\n      tag_250\n      tag_139\n      jump\t// in\n    tag_250:\n    tag_249:\n        /* \"contracts/VotingPlus.sol\":10118:10164  return WorkflowStatus(uint(currentStatus) - 1) */\n      swap1\n      pop\n        /* \"contracts/VotingPlus.sol\":10039:10172  function getPreviousStatus() external view returns (WorkflowStatus) {... */\n      swap1\n      jump\t// out\n        /* \"@openzeppelin/contracts/access/Ownable.sol\":2293:2394  function renounceOwnership() public virtual onlyOwner {... */\n    tag_69:\n        /* \"@openzeppelin/contracts/access/Ownable.sol\":1531:1544  _checkOwner() */\n      tag_252\n        /* \"@openzeppelin/contracts/access/Ownable.sol\":1531:1542  _checkOwner */\n      tag_168\n        /* \"@openzeppelin/contracts/access/Ownable.sol\":1531:1544  _checkOwner() */\n      jump\t// in\n    tag_252:\n        /* \"@openzeppelin/contracts/access/Ownable.sol\":2357:2387  _transferOwnership(address(0)) */\n      tag_254\n        /* \"@openzeppelin/contracts/access/Ownable.sol\":2384:2385  0 */\n      0x00\n        /* \"@openzeppelin/contracts/access/Ownable.sol\":2357:2375  _transferOwnership */\n      tag_255\n        /* \"@openzeppelin/contracts/access/Ownable.sol\":2357:2387  _transferOwnership(address(0)) */\n      jump\t// in\n    tag_254:\n        /* \"@openzeppelin/contracts/access/Ownable.sol\":2293:2394  function renounceOwnership() public virtual onlyOwner {... */\n      jump\t// out\n        /* \"contracts/VotingPlus.sol\":8093:8552  function getVoteByAddress(address _address) external view returns(Proposal memory){... */\n    tag_72:\n        /* \"contracts/VotingPlus.sol\":8159:8174  Proposal memory */\n      tag_256\n      tag_257\n      jump\t// in\n    tag_256:\n        /* \"contracts/VotingPlus.sol\":8294:8298  true */\n      0x01\n        /* \"contracts/VotingPlus.sol\":8263:8298  checkIfRegistered(_address) == true */\n      iszero\n      iszero\n        /* \"contracts/VotingPlus.sol\":8263:8290  checkIfRegistered(_address) */\n      tag_259\n        /* \"contracts/VotingPlus.sol\":8281:8289  _address */\n      dup4\n        /* \"contracts/VotingPlus.sol\":8263:8280  checkIfRegistered */\n      tag_100\n        /* \"contracts/VotingPlus.sol\":8263:8290  checkIfRegistered(_address) */\n      jump\t// in\n    tag_259:\n        /* \"contracts/VotingPlus.sol\":8263:8298  checkIfRegistered(_address) == true */\n      iszero\n      iszero\n      eq\n        /* \"contracts/VotingPlus.sol\":8255:8333  require(checkIfRegistered(_address) == true, \"This address is not registered\") */\n      tag_260\n      jumpi\n      mload(0x40)\n      0x08c379a000000000000000000000000000000000000000000000000000000000\n      dup2\n      mstore\n      0x04\n      add\n      tag_261\n      swap1\n      tag_241\n      jump\t// in\n    tag_261:\n      mload(0x40)\n      dup1\n      swap2\n      sub\n      swap1\n      revert\n    tag_260:\n        /* \"contracts/VotingPlus.sol\":8389:8393  true */\n      0x01\n        /* \"contracts/VotingPlus.sol\":8352:8393  whitelistVoter[_address].hasVoted == true */\n      iszero\n      iszero\n        /* \"contracts/VotingPlus.sol\":8352:8366  whitelistVoter */\n      0x01\n        /* \"contracts/VotingPlus.sol\":8352:8376  whitelistVoter[_address] */\n      0x00\n        /* \"contracts/VotingPlus.sol\":8367:8375  _address */\n      dup5\n        /* \"contracts/VotingPlus.sol\":8352:8376  whitelistVoter[_address] */\n      0xffffffffffffffffffffffffffffffffffffffff\n      and\n      0xffffffffffffffffffffffffffffffffffffffff\n      and\n      dup2\n      mstore\n      0x20\n      add\n      swap1\n      dup2\n      mstore\n      0x20\n      add\n      0x00\n      keccak256\n        /* \"contracts/VotingPlus.sol\":8352:8385  whitelistVoter[_address].hasVoted */\n      0x00\n      add\n      0x01\n      swap1\n      sload\n      swap1\n      0x0100\n      exp\n      swap1\n      div\n      0xff\n      and\n        /* \"contracts/VotingPlus.sol\":8352:8393  whitelistVoter[_address].hasVoted == true */\n      iszero\n      iszero\n      eq\n        /* \"contracts/VotingPlus.sol\":8344:8424  require(whitelistVoter[_address].hasVoted == true, \"This address has not voted\") */\n      tag_262\n      jumpi\n      mload(0x40)\n      0x08c379a000000000000000000000000000000000000000000000000000000000\n      dup2\n      mstore\n      0x04\n      add\n      tag_263\n      swap1\n      tag_264\n      jump\t// in\n    tag_263:\n      mload(0x40)\n      dup1\n      swap2\n      sub\n      swap1\n      revert\n    tag_262:\n        /* \"contracts/VotingPlus.sol\":8437:8457  uint votedProposalId */\n      0x00\n        /* \"contracts/VotingPlus.sol\":8460:8474  whitelistVoter */\n      0x01\n        /* \"contracts/VotingPlus.sol\":8460:8484  whitelistVoter[_address] */\n      0x00\n        /* \"contracts/VotingPlus.sol\":8475:8483  _address */\n      dup5\n        /* \"contracts/VotingPlus.sol\":8460:8484  whitelistVoter[_address] */\n      0xffffffffffffffffffffffffffffffffffffffff\n      and\n      0xffffffffffffffffffffffffffffffffffffffff\n      and\n      dup2\n      mstore\n      0x20\n      add\n      swap1\n      dup2\n      mstore\n      0x20\n      add\n      0x00\n      keccak256\n        /* \"contracts/VotingPlus.sol\":8460:8500  whitelistVoter[_address].votedProposalId */\n      0x01\n      add\n      sload\n        /* \"contracts/VotingPlus.sol\":8437:8500  uint votedProposalId = whitelistVoter[_address].votedProposalId */\n      swap1\n      pop\n        /* \"contracts/VotingPlus.sol\":8518:8527  proposals */\n      0x02\n        /* \"contracts/VotingPlus.sol\":8528:8543  votedProposalId */\n      dup2\n        /* \"contracts/VotingPlus.sol\":8518:8544  proposals[votedProposalId] */\n      dup2\n      sload\n      dup2\n      lt\n      tag_265\n      jumpi\n      tag_266\n      tag_158\n      jump\t// in\n    tag_266:\n    tag_265:\n      swap1\n      0x00\n      mstore\n      keccak256(0x00, 0x20)\n      swap1\n      0x03\n      mul\n      add\n        /* \"contracts/VotingPlus.sol\":8511:8544  return proposals[votedProposalId] */\n      mload(0x40)\n      dup1\n      0x60\n      add\n      0x40\n      mstore\n      swap1\n      dup2\n      0x00\n      dup3\n      add\n      dup1\n      sload\n      tag_268\n      swap1\n      tag_220\n      jump\t// in\n    tag_268:\n      dup1\n      0x1f\n      add\n      0x20\n      dup1\n      swap2\n      div\n      mul\n      0x20\n      add\n      mload(0x40)\n      swap1\n      dup2\n      add\n      0x40\n      mstore\n      dup1\n      swap3\n      swap2\n      swap1\n      dup2\n      dup2\n      mstore\n      0x20\n      add\n      dup3\n      dup1\n      sload\n      tag_269\n      swap1\n      tag_220\n      jump\t// in\n    tag_269:\n      dup1\n      iszero\n      tag_270\n      jumpi\n      dup1\n      0x1f\n      lt\n      tag_271\n      jumpi\n      0x0100\n      dup1\n      dup4\n      sload\n      div\n      mul\n      dup4\n      mstore\n      swap2\n      0x20\n      add\n      swap2\n      jump(tag_270)\n    tag_271:\n      dup3\n      add\n      swap2\n      swap1\n      0x00\n      mstore\n      keccak256(0x00, 0x20)\n      swap1\n    tag_272:\n      dup2\n      sload\n      dup2\n      mstore\n      swap1\n      0x01\n      add\n      swap1\n      0x20\n      add\n      dup1\n      dup4\n      gt\n      tag_272\n      jumpi\n      dup3\n      swap1\n      sub\n      0x1f\n      and\n      dup3\n      add\n      swap2\n    tag_270:\n      pop\n      pop\n      pop\n      pop\n      pop\n      dup2\n      mstore\n      0x20\n      add\n      0x01\n      dup3\n      add\n      sload\n      dup2\n      mstore\n      0x20\n      add\n      0x02\n      dup3\n      add\n      0x00\n      swap1\n      sload\n      swap1\n      0x0100\n      exp\n      swap1\n      div\n      0xffffffffffffffffffffffffffffffffffffffff\n      and\n      0xffffffffffffffffffffffffffffffffffffffff\n      and\n      0xffffffffffffffffffffffffffffffffffffffff\n      and\n      dup2\n      mstore\n      pop\n      pop\n      swap2\n      pop\n      pop\n        /* \"contracts/VotingPlus.sol\":8093:8552  function getVoteByAddress(address _address) external view returns(Proposal memory){... */\n      swap2\n      swap1\n      pop\n      jump\t// out\n        /* \"@openzeppelin/contracts/access/Ownable.sol\":1638:1723  function owner() public view virtual returns (address) {... */\n    tag_76:\n        /* \"@openzeppelin/contracts/access/Ownable.sol\":1684:1691  address */\n      0x00\n        /* \"@openzeppelin/contracts/access/Ownable.sol\":1710:1716  _owner */\n      0x00\n      0x00\n      swap1\n      sload\n      swap1\n      0x0100\n      exp\n      swap1\n      div\n      0xffffffffffffffffffffffffffffffffffffffff\n      and\n        /* \"@openzeppelin/contracts/access/Ownable.sol\":1703:1716  return _owner */\n      swap1\n      pop\n        /* \"@openzeppelin/contracts/access/Ownable.sol\":1638:1723  function owner() public view virtual returns (address) {... */\n      swap1\n      jump\t// out\n        /* \"contracts/VotingPlus.sol\":10966:11064  function getVoteWinnerCount() external view returns(uint){... */\n    tag_79:\n        /* \"contracts/VotingPlus.sol\":11018:11022  uint */\n      0x00\n        /* \"contracts/VotingPlus.sol\":11041:11056  voteWinnerCount */\n      sload(0x09)\n        /* \"contracts/VotingPlus.sol\":11034:11056  return voteWinnerCount */\n      swap1\n      pop\n        /* \"contracts/VotingPlus.sol\":10966:11064  function getVoteWinnerCount() external view returns(uint){... */\n      swap1\n      jump\t// out\n        /* \"contracts/VotingPlus.sol\":8996:9224  function getWinnerProposal() external view returns (Proposal memory) {... */\n    tag_82:\n        /* \"contracts/VotingPlus.sol\":9048:9063  Proposal memory */\n      tag_275\n      tag_257\n      jump\t// in\n    tag_275:\n        /* \"contracts/VotingPlus.sol\":9102:9129  WorkflowStatus.VotesTallied */\n      0x05\n        /* \"contracts/VotingPlus.sol\":9084:9129  currentStatus ==  WorkflowStatus.VotesTallied */\n      dup1\n      dup2\n      gt\n      iszero\n      tag_277\n      jumpi\n      tag_278\n      tag_139\n      jump\t// in\n    tag_278:\n    tag_277:\n        /* \"contracts/VotingPlus.sol\":9084:9097  currentStatus */\n      0x04\n      0x00\n      swap1\n      sload\n      swap1\n      0x0100\n      exp\n      swap1\n      div\n      0xff\n      and\n        /* \"contracts/VotingPlus.sol\":9084:9129  currentStatus ==  WorkflowStatus.VotesTallied */\n      0x05\n      dup2\n      gt\n      iszero\n      tag_279\n      jumpi\n      tag_280\n      tag_139\n      jump\t// in\n    tag_280:\n    tag_279:\n      eq\n        /* \"contracts/VotingPlus.sol\":9076:9170  require(currentStatus ==  WorkflowStatus.VotesTallied, \"The winner have not been choosen yet\") */\n      tag_281\n      jumpi\n      mload(0x40)\n      0x08c379a000000000000000000000000000000000000000000000000000000000\n      dup2\n      mstore\n      0x04\n      add\n      tag_282\n      swap1\n      tag_214\n      jump\t// in\n    tag_282:\n      mload(0x40)\n      dup1\n      swap2\n      sub\n      swap1\n      revert\n    tag_281:\n        /* \"contracts/VotingPlus.sol\":9188:9197  proposals */\n      0x02\n        /* \"contracts/VotingPlus.sol\":9198:9215  winningProposalId */\n      sload(0x05)\n        /* \"contracts/VotingPlus.sol\":9188:9216  proposals[winningProposalId] */\n      dup2\n      sload\n      dup2\n      lt\n      tag_283\n      jumpi\n      tag_284\n      tag_158\n      jump\t// in\n    tag_284:\n    tag_283:\n      swap1\n      0x00\n      mstore\n      keccak256(0x00, 0x20)\n      swap1\n      0x03\n      mul\n      add\n        /* \"contracts/VotingPlus.sol\":9181:9216  return proposals[winningProposalId] */\n      mload(0x40)\n      dup1\n      0x60\n      add\n      0x40\n      mstore\n      swap1\n      dup2\n      0x00\n      dup3\n      add\n      dup1\n      sload\n      tag_286\n      swap1\n      tag_220\n      jump\t// in\n    tag_286:\n      dup1\n      0x1f\n      add\n      0x20\n      dup1\n      swap2\n      div\n      mul\n      0x20\n      add\n      mload(0x40)\n      swap1\n      dup2\n      add\n      0x40\n      mstore\n      dup1\n      swap3\n      swap2\n      swap1\n      dup2\n      dup2\n      mstore\n      0x20\n      add\n      dup3\n      dup1\n      sload\n      tag_287\n      swap1\n      tag_220\n      jump\t// in\n    tag_287:\n      dup1\n      iszero\n      tag_288\n      jumpi\n      dup1\n      0x1f\n      lt\n      tag_289\n      jumpi\n      0x0100\n      dup1\n      dup4\n      sload\n      div\n      mul\n      dup4\n      mstore\n      swap2\n      0x20\n      add\n      swap2\n      jump(tag_288)\n    tag_289:\n      dup3\n      add\n      swap2\n      swap1\n      0x00\n      mstore\n      keccak256(0x00, 0x20)\n      swap1\n    tag_290:\n      dup2\n      sload\n      dup2\n      mstore\n      swap1\n      0x01\n      add\n      swap1\n      0x20\n      add\n      dup1\n      dup4\n      gt\n      tag_290\n      jumpi\n      dup3\n      swap1\n      sub\n      0x1f\n      and\n      dup3\n      add\n      swap2\n    tag_288:\n      pop\n      pop\n      pop\n      pop\n      pop\n      dup2\n      mstore\n      0x20\n      add\n      0x01\n      dup3\n      add\n      sload\n      dup2\n      mstore\n      0x20\n      add\n      0x02\n      dup3\n      add\n      0x00\n      swap1\n      sload\n      swap1\n      0x0100\n      exp\n      swap1\n      div\n      0xffffffffffffffffffffffffffffffffffffffff\n      and\n      0xffffffffffffffffffffffffffffffffffffffff\n      and\n      0xffffffffffffffffffffffffffffffffffffffff\n      and\n      dup2\n      mstore\n      pop\n      pop\n      swap1\n      pop\n        /* \"contracts/VotingPlus.sol\":8996:9224  function getWinnerProposal() external view returns (Proposal memory) {... */\n      swap1\n      jump\t// out\n        /* \"contracts/VotingPlus.sol\":9863:9969  function getCurrentStatus() external view returns (WorkflowStatus) {... */\n    tag_85:\n        /* \"contracts/VotingPlus.sol\":9914:9928  WorkflowStatus */\n      0x00\n        /* \"contracts/VotingPlus.sol\":9948:9961  currentStatus */\n      0x04\n      0x00\n      swap1\n      sload\n      swap1\n      0x0100\n      exp\n      swap1\n      div\n      0xff\n      and\n        /* \"contracts/VotingPlus.sol\":9941:9961  return currentStatus */\n      swap1\n      pop\n        /* \"contracts/VotingPlus.sol\":9863:9969  function getCurrentStatus() external view returns (WorkflowStatus) {... */\n      swap1\n      jump\t// out\n        /* \"contracts/VotingPlus.sol\":10806:10896  function getWinnerCount() external view returns(uint){... */\n    tag_88:\n        /* \"contracts/VotingPlus.sol\":10854:10858  uint */\n      0x00\n        /* \"contracts/VotingPlus.sol\":10877:10888  winnerCount */\n      sload(0x08)\n        /* \"contracts/VotingPlus.sol\":10870:10888  return winnerCount */\n      swap1\n      pop\n        /* \"contracts/VotingPlus.sol\":10806:10896  function getWinnerCount() external view returns(uint){... */\n      swap1\n      jump\t// out\n        /* \"contracts/VotingPlus.sol\":2840:3412  function propose(string memory _proposal) external {... */\n    tag_93:\n        /* \"contracts/VotingPlus.sol\":2927:2970  WorkflowStatus.ProposalsRegistrationStarted */\n      0x01\n        /* \"contracts/VotingPlus.sol\":2910:2970  currentStatus == WorkflowStatus.ProposalsRegistrationStarted */\n      0x05\n      dup2\n      gt\n      iszero\n      tag_294\n      jumpi\n      tag_295\n      tag_139\n      jump\t// in\n    tag_295:\n    tag_294:\n        /* \"contracts/VotingPlus.sol\":2910:2923  currentStatus */\n      0x04\n      0x00\n      swap1\n      sload\n      swap1\n      0x0100\n      exp\n      swap1\n      div\n      0xff\n      and\n        /* \"contracts/VotingPlus.sol\":2910:2970  currentStatus == WorkflowStatus.ProposalsRegistrationStarted */\n      0x05\n      dup2\n      gt\n      iszero\n      tag_296\n      jumpi\n      tag_297\n      tag_139\n      jump\t// in\n    tag_297:\n    tag_296:\n      eq\n        /* \"contracts/VotingPlus.sol\":2902:3010  require(currentStatus == WorkflowStatus.ProposalsRegistrationStarted, \"The proposal session is not started\") */\n      tag_298\n      jumpi\n      mload(0x40)\n      0x08c379a000000000000000000000000000000000000000000000000000000000\n      dup2\n      mstore\n      0x04\n      add\n      tag_299\n      swap1\n      tag_300\n      jump\t// in\n    tag_299:\n      mload(0x40)\n      dup1\n      swap2\n      sub\n      swap1\n      revert\n    tag_298:\n        /* \"contracts/VotingPlus.sol\":3041:3051  msg.sender */\n      caller\n        /* \"contracts/VotingPlus.sol\":3030:3051  owner() != msg.sender */\n      0xffffffffffffffffffffffffffffffffffffffff\n      and\n        /* \"contracts/VotingPlus.sol\":3030:3037  owner() */\n      tag_301\n        /* \"contracts/VotingPlus.sol\":3030:3035  owner */\n      tag_76\n        /* \"contracts/VotingPlus.sol\":3030:3037  owner() */\n      jump\t// in\n    tag_301:\n        /* \"contracts/VotingPlus.sol\":3030:3051  owner() != msg.sender */\n      0xffffffffffffffffffffffffffffffffffffffff\n      and\n      sub\n        /* \"contracts/VotingPlus.sol\":3022:3111  require(owner() != msg.sender, \"You are the owner of this contract, you can not propose\") */\n      tag_302\n      jumpi\n      mload(0x40)\n      0x08c379a000000000000000000000000000000000000000000000000000000000\n      dup2\n      mstore\n      0x04\n      add\n      tag_303\n      swap1\n      tag_304\n      jump\t// in\n    tag_303:\n      mload(0x40)\n      dup1\n      swap2\n      sub\n      swap1\n      revert\n    tag_302:\n        /* \"contracts/VotingPlus.sol\":3163:3167  true */\n      0x01\n        /* \"contracts/VotingPlus.sol\":3130:3167  checkIfRegistered(msg.sender) == true */\n      iszero\n      iszero\n        /* \"contracts/VotingPlus.sol\":3130:3159  checkIfRegistered(msg.sender) */\n      tag_305\n        /* \"contracts/VotingPlus.sol\":3148:3158  msg.sender */\n      caller\n        /* \"contracts/VotingPlus.sol\":3130:3147  checkIfRegistered */\n      tag_100\n        /* \"contracts/VotingPlus.sol\":3130:3159  checkIfRegistered(msg.sender) */\n      jump\t// in\n    tag_305:\n        /* \"contracts/VotingPlus.sol\":3130:3167  checkIfRegistered(msg.sender) == true */\n      iszero\n      iszero\n      eq\n        /* \"contracts/VotingPlus.sol\":3122:3194  require(checkIfRegistered(msg.sender) == true, \"You are not registered\") */\n      tag_306\n      jumpi\n      mload(0x40)\n      0x08c379a000000000000000000000000000000000000000000000000000000000\n      dup2\n      mstore\n      0x04\n      add\n      tag_307\n      swap1\n      tag_148\n      jump\t// in\n    tag_307:\n      mload(0x40)\n      dup1\n      swap2\n      sub\n      swap1\n      revert\n    tag_306:\n        /* \"contracts/VotingPlus.sol\":3207:3216  proposals */\n      0x02\n        /* \"contracts/VotingPlus.sol\":3222:3351  Proposal({... */\n      mload(0x40)\n      dup1\n      0x60\n      add\n      0x40\n      mstore\n      dup1\n        /* \"contracts/VotingPlus.sol\":3263:3272  _proposal */\n      dup4\n        /* \"contracts/VotingPlus.sol\":3222:3351  Proposal({... */\n      dup2\n      mstore\n      0x20\n      add\n        /* \"contracts/VotingPlus.sol\":3302:3303  0 */\n      0x00\n        /* \"contracts/VotingPlus.sol\":3222:3351  Proposal({... */\n      dup2\n      mstore\n      0x20\n      add\n        /* \"contracts/VotingPlus.sol\":3329:3339  msg.sender */\n      caller\n        /* \"contracts/VotingPlus.sol\":3222:3351  Proposal({... */\n      0xffffffffffffffffffffffffffffffffffffffff\n      and\n      dup2\n      mstore\n      pop\n        /* \"contracts/VotingPlus.sol\":3207:3352  proposals.push(Proposal({... */\n      swap1\n      dup1\n      0x01\n      dup2\n      sload\n      add\n      dup1\n      dup3\n      sstore\n      dup1\n      swap2\n      pop\n      pop\n      0x01\n      swap1\n      sub\n      swap1\n      0x00\n      mstore\n      keccak256(0x00, 0x20)\n      swap1\n      0x03\n      mul\n      add\n      0x00\n      swap1\n      swap2\n      swap1\n      swap2\n      swap1\n      swap2\n      pop\n      0x00\n      dup3\n      add\n      mload\n      dup2\n      0x00\n      add\n      swap1\n      dup2\n      tag_309\n      swap2\n      swap1\n      tag_310\n      jump\t// in\n    tag_309:\n      pop\n      0x20\n      dup3\n      add\n      mload\n      dup2\n      0x01\n      add\n      sstore\n      0x40\n      dup3\n      add\n      mload\n      dup2\n      0x02\n      add\n      exp(0x0100, 0x00)\n      dup2\n      sload\n      dup2\n      0xffffffffffffffffffffffffffffffffffffffff\n      mul\n      not\n      and\n      swap1\n      dup4\n      0xffffffffffffffffffffffffffffffffffffffff\n      and\n      mul\n      or\n      swap1\n      sstore\n      pop\n      pop\n      pop\n        /* \"contracts/VotingPlus.sol\":3368:3404  ProposalRegistered(proposals.length) */\n      0x92e393e9b54e2f801d3ea4beb0c5e71a21cc34a5d34b77d0fb8a3aa1650dc18f\n        /* \"contracts/VotingPlus.sol\":3387:3396  proposals */\n      0x02\n        /* \"contracts/VotingPlus.sol\":3387:3403  proposals.length */\n      dup1\n      sload\n      swap1\n      pop\n        /* \"contracts/VotingPlus.sol\":3368:3404  ProposalRegistered(proposals.length) */\n      mload(0x40)\n      tag_311\n      swap2\n      swap1\n      tag_45\n      jump\t// in\n    tag_311:\n      mload(0x40)\n      dup1\n      swap2\n      sub\n      swap1\n      log1\n        /* \"contracts/VotingPlus.sol\":2840:3412  function propose(string memory _proposal) external {... */\n      pop\n      jump\t// out\n        /* \"contracts/VotingPlus.sol\":5461:5826  function startVoteSession() external onlyOwner {... */\n    tag_95:\n        /* \"@openzeppelin/contracts/access/Ownable.sol\":1531:1544  _checkOwner() */\n      tag_313\n        /* \"@openzeppelin/contracts/access/Ownable.sol\":1531:1542  _checkOwner */\n      tag_168\n        /* \"@openzeppelin/contracts/access/Ownable.sol\":1531:1544  _checkOwner() */\n      jump\t// in\n    tag_313:\n        /* \"contracts/VotingPlus.sol\":5545:5586  WorkflowStatus.ProposalsRegistrationEnded */\n      0x02\n        /* \"contracts/VotingPlus.sol\":5527:5586  currentStatus ==  WorkflowStatus.ProposalsRegistrationEnded */\n      0x05\n      dup2\n      gt\n      iszero\n      tag_315\n      jumpi\n      tag_316\n      tag_139\n      jump\t// in\n    tag_316:\n    tag_315:\n        /* \"contracts/VotingPlus.sol\":5527:5540  currentStatus */\n      0x04\n      0x00\n      swap1\n      sload\n      swap1\n      0x0100\n      exp\n      swap1\n      div\n      0xff\n      and\n        /* \"contracts/VotingPlus.sol\":5527:5586  currentStatus ==  WorkflowStatus.ProposalsRegistrationEnded */\n      0x05\n      dup2\n      gt\n      iszero\n      tag_317\n      jumpi\n      tag_318\n      tag_139\n      jump\t// in\n    tag_318:\n    tag_317:\n      eq\n        /* \"contracts/VotingPlus.sol\":5519:5664  require(currentStatus ==  WorkflowStatus.ProposalsRegistrationEnded, \"The proposal session is not ended or the vote session has already started\") */\n      tag_319\n      jumpi\n      mload(0x40)\n      0x08c379a000000000000000000000000000000000000000000000000000000000\n      dup2\n      mstore\n      0x04\n      add\n      tag_320\n      swap1\n      tag_321\n      jump\t// in\n    tag_320:\n      mload(0x40)\n      dup1\n      swap2\n      sub\n      swap1\n      revert\n    tag_319:\n        /* \"contracts/VotingPlus.sol\":5691:5726  WorkflowStatus.VotingSessionStarted */\n      0x03\n        /* \"contracts/VotingPlus.sol\":5675:5688  currentStatus */\n      0x04\n      0x00\n        /* \"contracts/VotingPlus.sol\":5675:5726  currentStatus = WorkflowStatus.VotingSessionStarted */\n      0x0100\n      exp\n      dup2\n      sload\n      dup2\n      0xff\n      mul\n      not\n      and\n      swap1\n      dup4\n      0x05\n      dup2\n      gt\n      iszero\n      tag_322\n      jumpi\n      tag_323\n      tag_139\n      jump\t// in\n    tag_323:\n    tag_322:\n      mul\n      or\n      swap1\n      sstore\n      pop\n        /* \"contracts/VotingPlus.sol\":5742:5818  WorkflowStatusChange(WorkflowStatus(uint(currentStatus) - 1), currentStatus) */\n      0x0a97a4ee45751e2abf3e4fc8946939630b11b371ea8ae39ccdc3056e98f5cc3f\n        /* \"contracts/VotingPlus.sol\":5800:5801  1 */\n      0x01\n        /* \"contracts/VotingPlus.sol\":5783:5796  currentStatus */\n      0x04\n      0x00\n      swap1\n      sload\n      swap1\n      0x0100\n      exp\n      swap1\n      div\n      0xff\n      and\n        /* \"contracts/VotingPlus.sol\":5778:5797  uint(currentStatus) */\n      0x05\n      dup2\n      gt\n      iszero\n      tag_324\n      jumpi\n      tag_325\n      tag_139\n      jump\t// in\n    tag_325:\n    tag_324:\n        /* \"contracts/VotingPlus.sol\":5778:5801  uint(currentStatus) - 1 */\n      tag_326\n      swap2\n      swap1\n      tag_202\n      jump\t// in\n    tag_326:\n        /* \"contracts/VotingPlus.sol\":5763:5802  WorkflowStatus(uint(currentStatus) - 1) */\n      0x05\n      dup2\n      gt\n      iszero\n      tag_327\n      jumpi\n      tag_328\n      tag_139\n      jump\t// in\n    tag_328:\n    tag_327:\n        /* \"contracts/VotingPlus.sol\":5804:5817  currentStatus */\n      0x04\n      0x00\n      swap1\n      sload\n      swap1\n      0x0100\n      exp\n      swap1\n      div\n      0xff\n      and\n        /* \"contracts/VotingPlus.sol\":5742:5818  WorkflowStatusChange(WorkflowStatus(uint(currentStatus) - 1), currentStatus) */\n      mload(0x40)\n      tag_329\n      swap3\n      swap2\n      swap1\n      tag_206\n      jump\t// in\n    tag_329:\n      mload(0x40)\n      dup1\n      swap2\n      sub\n      swap1\n      log1\n        /* \"contracts/VotingPlus.sol\":5461:5826  function startVoteSession() external onlyOwner {... */\n      jump\t// out\n        /* \"contracts/VotingPlus.sol\":6295:6681  function votesTallied() external onlyOwner {... */\n    tag_97:\n        /* \"@openzeppelin/contracts/access/Ownable.sol\":1531:1544  _checkOwner() */\n      tag_331\n        /* \"@openzeppelin/contracts/access/Ownable.sol\":1531:1542  _checkOwner */\n      tag_168\n        /* \"@openzeppelin/contracts/access/Ownable.sol\":1531:1544  _checkOwner() */\n      jump\t// in\n    tag_331:\n        /* \"contracts/VotingPlus.sol\":6375:6408  WorkflowStatus.VotingSessionEnded */\n      0x04\n        /* \"contracts/VotingPlus.sol\":6357:6408  currentStatus ==  WorkflowStatus.VotingSessionEnded */\n      0x05\n      dup2\n      gt\n      iszero\n      tag_333\n      jumpi\n      tag_334\n      tag_139\n      jump\t// in\n    tag_334:\n    tag_333:\n        /* \"contracts/VotingPlus.sol\":6357:6370  currentStatus */\n      0x04\n      0x00\n      swap1\n      sload\n      swap1\n      0x0100\n      exp\n      swap1\n      div\n      0xff\n      and\n        /* \"contracts/VotingPlus.sol\":6357:6408  currentStatus ==  WorkflowStatus.VotingSessionEnded */\n      0x05\n      dup2\n      gt\n      iszero\n      tag_335\n      jumpi\n      tag_336\n      tag_139\n      jump\t// in\n    tag_336:\n    tag_335:\n      eq\n        /* \"contracts/VotingPlus.sol\":6349:6442  require(currentStatus ==  WorkflowStatus.VotingSessionEnded, \"The vote session is not ended\") */\n      tag_337\n      jumpi\n      mload(0x40)\n      0x08c379a000000000000000000000000000000000000000000000000000000000\n      dup2\n      mstore\n      0x04\n      add\n      tag_338\n      swap1\n      tag_339\n      jump\t// in\n    tag_338:\n      mload(0x40)\n      dup1\n      swap2\n      sub\n      swap1\n      revert\n    tag_337:\n        /* \"contracts/VotingPlus.sol\":6476:6477  1 */\n      0x01\n        /* \"contracts/VotingPlus.sol\":6461:6472  winnerCount */\n      sload(0x08)\n        /* \"contracts/VotingPlus.sol\":6461:6477  winnerCount == 1 */\n      eq\n        /* \"contracts/VotingPlus.sol\":6453:6527  require(winnerCount == 1, \"There is more than 1 winner, you have to vote\") */\n      tag_340\n      jumpi\n      mload(0x40)\n      0x08c379a000000000000000000000000000000000000000000000000000000000\n      dup2\n      mstore\n      0x04\n      add\n      tag_341\n      swap1\n      tag_342\n      jump\t// in\n    tag_341:\n      mload(0x40)\n      dup1\n      swap2\n      sub\n      swap1\n      revert\n    tag_340:\n        /* \"contracts/VotingPlus.sol\":6554:6581  WorkflowStatus.VotesTallied */\n      0x05\n        /* \"contracts/VotingPlus.sol\":6538:6551  currentStatus */\n      0x04\n      0x00\n        /* \"contracts/VotingPlus.sol\":6538:6581  currentStatus = WorkflowStatus.VotesTallied */\n      0x0100\n      exp\n      dup2\n      sload\n      dup2\n      0xff\n      mul\n      not\n      and\n      swap1\n      dup4\n      0x05\n      dup2\n      gt\n      iszero\n      tag_343\n      jumpi\n      tag_344\n      tag_139\n      jump\t// in\n    tag_344:\n    tag_343:\n      mul\n      or\n      swap1\n      sstore\n      pop\n        /* \"contracts/VotingPlus.sol\":6597:6673  WorkflowStatusChange(WorkflowStatus(uint(currentStatus) - 1), currentStatus) */\n      0x0a97a4ee45751e2abf3e4fc8946939630b11b371ea8ae39ccdc3056e98f5cc3f\n        /* \"contracts/VotingPlus.sol\":6655:6656  1 */\n      0x01\n        /* \"contracts/VotingPlus.sol\":6638:6651  currentStatus */\n      0x04\n      0x00\n      swap1\n      sload\n      swap1\n      0x0100\n      exp\n      swap1\n      div\n      0xff\n      and\n        /* \"contracts/VotingPlus.sol\":6633:6652  uint(currentStatus) */\n      0x05\n      dup2\n      gt\n      iszero\n      tag_345\n      jumpi\n      tag_346\n      tag_139\n      jump\t// in\n    tag_346:\n    tag_345:\n        /* \"contracts/VotingPlus.sol\":6633:6656  uint(currentStatus) - 1 */\n      tag_347\n      swap2\n      swap1\n      tag_202\n      jump\t// in\n    tag_347:\n        /* \"contracts/VotingPlus.sol\":6618:6657  WorkflowStatus(uint(currentStatus) - 1) */\n      0x05\n      dup2\n      gt\n      iszero\n      tag_348\n      jumpi\n      tag_349\n      tag_139\n      jump\t// in\n    tag_349:\n    tag_348:\n        /* \"contracts/VotingPlus.sol\":6659:6672  currentStatus */\n      0x04\n      0x00\n      swap1\n      sload\n      swap1\n      0x0100\n      exp\n      swap1\n      div\n      0xff\n      and\n        /* \"contracts/VotingPlus.sol\":6597:6673  WorkflowStatusChange(WorkflowStatus(uint(currentStatus) - 1), currentStatus) */\n      mload(0x40)\n      tag_350\n      swap3\n      swap2\n      swap1\n      tag_206\n      jump\t// in\n    tag_350:\n      mload(0x40)\n      dup1\n      swap2\n      sub\n      swap1\n      log1\n        /* \"contracts/VotingPlus.sol\":6295:6681  function votesTallied() external onlyOwner {... */\n      jump\t// out\n        /* \"contracts/VotingPlus.sol\":1868:2003  function checkIfRegistered(address _address) public view returns (bool) {... */\n    tag_100:\n        /* \"contracts/VotingPlus.sol\":1934:1938  bool */\n      0x00\n        /* \"contracts/VotingPlus.sol\":1958:1972  whitelistVoter */\n      0x01\n        /* \"contracts/VotingPlus.sol\":1958:1982  whitelistVoter[_address] */\n      0x00\n        /* \"contracts/VotingPlus.sol\":1973:1981  _address */\n      dup4\n        /* \"contracts/VotingPlus.sol\":1958:1982  whitelistVoter[_address] */\n      0xffffffffffffffffffffffffffffffffffffffff\n      and\n      0xffffffffffffffffffffffffffffffffffffffff\n      and\n      dup2\n      mstore\n      0x20\n      add\n      swap1\n      dup2\n      mstore\n      0x20\n      add\n      0x00\n      keccak256\n        /* \"contracts/VotingPlus.sol\":1958:1995  whitelistVoter[_address].isRegistered */\n      0x00\n      add\n      0x00\n      swap1\n      sload\n      swap1\n      0x0100\n      exp\n      swap1\n      div\n      0xff\n      and\n        /* \"contracts/VotingPlus.sol\":1951:1995  return whitelistVoter[_address].isRegistered */\n      swap1\n      pop\n        /* \"contracts/VotingPlus.sol\":1868:2003  function checkIfRegistered(address _address) public view returns (bool) {... */\n      swap2\n      swap1\n      pop\n      jump\t// out\n        /* \"contracts/VotingPlus.sol\":9292:9541  function getWinnerProposalDescription() external view returns (string memory) {... */\n    tag_104:\n        /* \"contracts/VotingPlus.sol\":9355:9368  string memory */\n      0x60\n        /* \"contracts/VotingPlus.sol\":9407:9434  WorkflowStatus.VotesTallied */\n      0x05\n        /* \"contracts/VotingPlus.sol\":9389:9434  currentStatus ==  WorkflowStatus.VotesTallied */\n      dup1\n      dup2\n      gt\n      iszero\n      tag_353\n      jumpi\n      tag_354\n      tag_139\n      jump\t// in\n    tag_354:\n    tag_353:\n        /* \"contracts/VotingPlus.sol\":9389:9402  currentStatus */\n      0x04\n      0x00\n      swap1\n      sload\n      swap1\n      0x0100\n      exp\n      swap1\n      div\n      0xff\n      and\n        /* \"contracts/VotingPlus.sol\":9389:9434  currentStatus ==  WorkflowStatus.VotesTallied */\n      0x05\n      dup2\n      gt\n      iszero\n      tag_355\n      jumpi\n      tag_356\n      tag_139\n      jump\t// in\n    tag_356:\n    tag_355:\n      eq\n        /* \"contracts/VotingPlus.sol\":9381:9475  require(currentStatus ==  WorkflowStatus.VotesTallied, \"The winner have not been choosen yet\") */\n      tag_357\n      jumpi\n      mload(0x40)\n      0x08c379a000000000000000000000000000000000000000000000000000000000\n      dup2\n      mstore\n      0x04\n      add\n      tag_358\n      swap1\n      tag_214\n      jump\t// in\n    tag_358:\n      mload(0x40)\n      dup1\n      swap2\n      sub\n      swap1\n      revert\n    tag_357:\n        /* \"contracts/VotingPlus.sol\":9493:9502  proposals */\n      0x02\n        /* \"contracts/VotingPlus.sol\":9503:9520  winningProposalId */\n      sload(0x05)\n        /* \"contracts/VotingPlus.sol\":9493:9521  proposals[winningProposalId] */\n      dup2\n      sload\n      dup2\n      lt\n      tag_359\n      jumpi\n      tag_360\n      tag_158\n      jump\t// in\n    tag_360:\n    tag_359:\n      swap1\n      0x00\n      mstore\n      keccak256(0x00, 0x20)\n      swap1\n      0x03\n      mul\n      add\n        /* \"contracts/VotingPlus.sol\":9493:9533  proposals[winningProposalId].description */\n      0x00\n      add\n        /* \"contracts/VotingPlus.sol\":9486:9533  return proposals[winningProposalId].description */\n      dup1\n      sload\n      tag_362\n      swap1\n      tag_220\n      jump\t// in\n    tag_362:\n      dup1\n      0x1f\n      add\n      0x20\n      dup1\n      swap2\n      div\n      mul\n      0x20\n      add\n      mload(0x40)\n      swap1\n      dup2\n      add\n      0x40\n      mstore\n      dup1\n      swap3\n      swap2\n      swap1\n      dup2\n      dup2\n      mstore\n      0x20\n      add\n      dup3\n      dup1\n      sload\n      tag_363\n      swap1\n      tag_220\n      jump\t// in\n    tag_363:\n      dup1\n      iszero\n      tag_364\n      jumpi\n      dup1\n      0x1f\n      lt\n      tag_365\n      jumpi\n      0x0100\n      dup1\n      dup4\n      sload\n      div\n      mul\n      dup4\n      mstore\n      swap2\n      0x20\n      add\n      swap2\n      jump(tag_364)\n    tag_365:\n      dup3\n      add\n      swap2\n      swap1\n      0x00\n      mstore\n      keccak256(0x00, 0x20)\n      swap1\n    tag_366:\n      dup2\n      sload\n      dup2\n      mstore\n      swap1\n      0x01\n      add\n      swap1\n      0x20\n      add\n      dup1\n      dup4\n      gt\n      tag_366\n      jumpi\n      dup3\n      swap1\n      sub\n      0x1f\n      and\n      dup3\n      add\n      swap2\n    tag_364:\n      pop\n      pop\n      pop\n      pop\n      pop\n      swap1\n      pop\n        /* \"contracts/VotingPlus.sol\":9292:9541  function getWinnerProposalDescription() external view returns (string memory) {... */\n      swap1\n      jump\t// out\n        /* \"contracts/VotingPlus.sol\":10225:10322  function getProposalCount() external view returns(uint){... */\n    tag_108:\n        /* \"contracts/VotingPlus.sol\":10275:10279  uint */\n      0x00\n        /* \"contracts/VotingPlus.sol\":10298:10307  proposals */\n      0x02\n        /* \"contracts/VotingPlus.sol\":10298:10314  proposals.length */\n      dup1\n      sload\n      swap1\n      pop\n        /* \"contracts/VotingPlus.sol\":10291:10314  return proposals.length */\n      swap1\n      pop\n        /* \"contracts/VotingPlus.sol\":10225:10322  function getProposalCount() external view returns(uint){... */\n      swap1\n      jump\t// out\n        /* \"contracts/VotingPlus.sol\":11072:11192  function isRegistered(address _address) external view returns(bool){... */\n    tag_112:\n        /* \"contracts/VotingPlus.sol\":11134:11138  bool */\n      0x00\n        /* \"contracts/VotingPlus.sol\":11157:11184  checkIfRegistered(_address) */\n      tag_369\n        /* \"contracts/VotingPlus.sol\":11175:11183  _address */\n      dup3\n        /* \"contracts/VotingPlus.sol\":11157:11174  checkIfRegistered */\n      tag_100\n        /* \"contracts/VotingPlus.sol\":11157:11184  checkIfRegistered(_address) */\n      jump\t// in\n    tag_369:\n        /* \"contracts/VotingPlus.sol\":11150:11184  return checkIfRegistered(_address) */\n      swap1\n      pop\n        /* \"contracts/VotingPlus.sol\":11072:11192  function isRegistered(address _address) external view returns(bool){... */\n      swap2\n      swap1\n      pop\n      jump\t// out\n        /* \"contracts/VotingPlus.sol\":11200:11324  function getVoterRegisteredAddress() external view returns(address[] memory){... */\n    tag_115:\n        /* \"contracts/VotingPlus.sol\":11259:11275  address[] memory */\n      0x60\n        /* \"contracts/VotingPlus.sol\":11294:11316  voterRegisteredAddress */\n      0x03\n        /* \"contracts/VotingPlus.sol\":11287:11316  return voterRegisteredAddress */\n      dup1\n      sload\n      dup1\n      0x20\n      mul\n      0x20\n      add\n      mload(0x40)\n      swap1\n      dup2\n      add\n      0x40\n      mstore\n      dup1\n      swap3\n      swap2\n      swap1\n      dup2\n      dup2\n      mstore\n      0x20\n      add\n      dup3\n      dup1\n      sload\n      dup1\n      iszero\n      tag_371\n      jumpi\n      0x20\n      mul\n      dup3\n      add\n      swap2\n      swap1\n      0x00\n      mstore\n      keccak256(0x00, 0x20)\n      swap1\n    tag_372:\n      dup2\n      0x00\n      swap1\n      sload\n      swap1\n      0x0100\n      exp\n      swap1\n      div\n      0xffffffffffffffffffffffffffffffffffffffff\n      and\n      0xffffffffffffffffffffffffffffffffffffffff\n      and\n      dup2\n      mstore\n      0x20\n      add\n      swap1\n      0x01\n      add\n      swap1\n      dup1\n      dup4\n      gt\n      tag_372\n      jumpi\n    tag_371:\n      pop\n      pop\n      pop\n      pop\n      pop\n      swap1\n      pop\n        /* \"contracts/VotingPlus.sol\":11200:11324  function getVoterRegisteredAddress() external view returns(address[] memory){... */\n      swap1\n      jump\t// out\n        /* \"contracts/VotingPlus.sol\":6689:7368  function reset() external onlyOwner {... */\n    tag_119:\n        /* \"@openzeppelin/contracts/access/Ownable.sol\":1531:1544  _checkOwner() */\n      tag_374\n        /* \"@openzeppelin/contracts/access/Ownable.sol\":1531:1542  _checkOwner */\n      tag_168\n        /* \"@openzeppelin/contracts/access/Ownable.sol\":1531:1544  _checkOwner() */\n      jump\t// in\n    tag_374:\n        /* \"contracts/VotingPlus.sol\":6762:6789  WorkflowStatus.VotesTallied */\n      0x05\n        /* \"contracts/VotingPlus.sol\":6744:6789  currentStatus ==  WorkflowStatus.VotesTallied */\n      dup1\n      dup2\n      gt\n      iszero\n      tag_376\n      jumpi\n      tag_377\n      tag_139\n      jump\t// in\n    tag_377:\n    tag_376:\n        /* \"contracts/VotingPlus.sol\":6744:6757  currentStatus */\n      0x04\n      0x00\n      swap1\n      sload\n      swap1\n      0x0100\n      exp\n      swap1\n      div\n      0xff\n      and\n        /* \"contracts/VotingPlus.sol\":6744:6789  currentStatus ==  WorkflowStatus.VotesTallied */\n      0x05\n      dup2\n      gt\n      iszero\n      tag_378\n      jumpi\n      tag_379\n      tag_139\n      jump\t// in\n    tag_379:\n    tag_378:\n      eq\n        /* \"contracts/VotingPlus.sol\":6736:6828  require(currentStatus ==  WorkflowStatus.VotesTallied, \"The last vote has not been tallied\") */\n      tag_380\n      jumpi\n      mload(0x40)\n      0x08c379a000000000000000000000000000000000000000000000000000000000\n      dup2\n      mstore\n      0x04\n      add\n      tag_381\n      swap1\n      tag_382\n      jump\t// in\n    tag_381:\n      mload(0x40)\n      dup1\n      swap2\n      sub\n      swap1\n      revert\n    tag_380:\n        /* \"contracts/VotingPlus.sol\":6894:6900  uint i */\n      0x00\n        /* \"contracts/VotingPlus.sol\":6903:6904  0 */\n      0x00\n        /* \"contracts/VotingPlus.sol\":6894:6904  uint i = 0 */\n      swap1\n      pop\n        /* \"contracts/VotingPlus.sol\":6889:7084  for (uint i = 0; i < voterRegisteredAddress.length; i++) {... */\n    tag_383:\n        /* \"contracts/VotingPlus.sol\":6910:6932  voterRegisteredAddress */\n      0x03\n        /* \"contracts/VotingPlus.sol\":6910:6939  voterRegisteredAddress.length */\n      dup1\n      sload\n      swap1\n      pop\n        /* \"contracts/VotingPlus.sol\":6906:6907  i */\n      dup2\n        /* \"contracts/VotingPlus.sol\":6906:6939  i < voterRegisteredAddress.length */\n      lt\n        /* \"contracts/VotingPlus.sol\":6889:7084  for (uint i = 0; i < voterRegisteredAddress.length; i++) {... */\n      iszero\n      tag_384\n      jumpi\n        /* \"contracts/VotingPlus.sol\":7005:7072  Voter({ isRegistered: false, hasVoted: false, votedProposalId: 0 }) */\n      mload(0x40)\n      dup1\n      0x60\n      add\n      0x40\n      mstore\n      dup1\n        /* \"contracts/VotingPlus.sol\":7027:7032  false */\n      0x00\n        /* \"contracts/VotingPlus.sol\":7005:7072  Voter({ isRegistered: false, hasVoted: false, votedProposalId: 0 }) */\n      iszero\n      iszero\n      dup2\n      mstore\n      0x20\n      add\n        /* \"contracts/VotingPlus.sol\":7044:7049  false */\n      0x00\n        /* \"contracts/VotingPlus.sol\":7005:7072  Voter({ isRegistered: false, hasVoted: false, votedProposalId: 0 }) */\n      iszero\n      iszero\n      dup2\n      mstore\n      0x20\n      add\n        /* \"contracts/VotingPlus.sol\":7068:7069  0 */\n      0x00\n        /* \"contracts/VotingPlus.sol\":7005:7072  Voter({ isRegistered: false, hasVoted: false, votedProposalId: 0 }) */\n      dup2\n      mstore\n      pop\n        /* \"contracts/VotingPlus.sol\":6961:6975  whitelistVoter */\n      0x01\n        /* \"contracts/VotingPlus.sol\":6961:7002  whitelistVoter[voterRegisteredAddress[i]] */\n      0x00\n        /* \"contracts/VotingPlus.sol\":6976:6998  voterRegisteredAddress */\n      0x03\n        /* \"contracts/VotingPlus.sol\":6999:7000  i */\n      dup5\n        /* \"contracts/VotingPlus.sol\":6976:7001  voterRegisteredAddress[i] */\n      dup2\n      sload\n      dup2\n      lt\n      tag_386\n      jumpi\n      tag_387\n      tag_158\n      jump\t// in\n    tag_387:\n    tag_386:\n      swap1\n      0x00\n      mstore\n      keccak256(0x00, 0x20)\n      add\n      0x00\n      swap1\n      sload\n      swap1\n      0x0100\n      exp\n      swap1\n      div\n      0xffffffffffffffffffffffffffffffffffffffff\n      and\n        /* \"contracts/VotingPlus.sol\":6961:7002  whitelistVoter[voterRegisteredAddress[i]] */\n      0xffffffffffffffffffffffffffffffffffffffff\n      and\n      0xffffffffffffffffffffffffffffffffffffffff\n      and\n      dup2\n      mstore\n      0x20\n      add\n      swap1\n      dup2\n      mstore\n      0x20\n      add\n      0x00\n      keccak256\n        /* \"contracts/VotingPlus.sol\":6961:7072  whitelistVoter[voterRegisteredAddress[i]] = Voter({ isRegistered: false, hasVoted: false, votedProposalId: 0 }) */\n      0x00\n      dup3\n      add\n      mload\n      dup2\n      0x00\n      add\n      exp(0x0100, 0x00)\n      dup2\n      sload\n      dup2\n      0xff\n      mul\n      not\n      and\n      swap1\n      dup4\n      iszero\n      iszero\n      mul\n      or\n      swap1\n      sstore\n      pop\n      0x20\n      dup3\n      add\n      mload\n      dup2\n      0x00\n      add\n      exp(0x0100, 0x01)\n      dup2\n      sload\n      dup2\n      0xff\n      mul\n      not\n      and\n      swap1\n      dup4\n      iszero\n      iszero\n      mul\n      or\n      swap1\n      sstore\n      pop\n      0x40\n      dup3\n      add\n      mload\n      dup2\n      0x01\n      add\n      sstore\n      swap1\n      pop\n      pop\n        /* \"contracts/VotingPlus.sol\":6941:6944  i++ */\n      dup1\n      dup1\n      0x01\n      add\n      swap2\n      pop\n      pop\n        /* \"contracts/VotingPlus.sol\":6889:7084  for (uint i = 0; i < voterRegisteredAddress.length; i++) {... */\n      jump(tag_383)\n    tag_384:\n      pop\n        /* \"contracts/VotingPlus.sol\":7101:7110  proposals */\n      0x02\n      0x00\n        /* \"contracts/VotingPlus.sol\":7094:7110  delete proposals */\n      tag_389\n      swap2\n      swap1\n      tag_390\n      jump\t// in\n    tag_389:\n        /* \"contracts/VotingPlus.sol\":7128:7150  voterRegisteredAddress */\n      0x03\n      0x00\n        /* \"contracts/VotingPlus.sol\":7121:7150  delete voterRegisteredAddress */\n      tag_391\n      swap2\n      swap1\n      tag_392\n      jump\t// in\n    tag_391:\n        /* \"contracts/VotingPlus.sol\":7175:7176  0 */\n      0x00\n        /* \"contracts/VotingPlus.sol\":7161:7172  winnerCount */\n      0x08\n        /* \"contracts/VotingPlus.sol\":7161:7176  winnerCount = 0 */\n      dup2\n      swap1\n      sstore\n      pop\n        /* \"contracts/VotingPlus.sol\":7215:7216  0 */\n      0x00\n        /* \"contracts/VotingPlus.sol\":7195:7212  winningProposalId */\n      0x05\n        /* \"contracts/VotingPlus.sol\":7195:7216  winningProposalId = 0 */\n      dup2\n      swap1\n      sstore\n      pop\n        /* \"contracts/VotingPlus.sol\":7241:7242  0 */\n      0x00\n        /* \"contracts/VotingPlus.sol\":7228:7238  voterCount */\n      0x06\n        /* \"contracts/VotingPlus.sol\":7228:7242  voterCount = 0 */\n      dup2\n      swap1\n      sstore\n      pop\n        /* \"contracts/VotingPlus.sol\":7270:7271  0 */\n      0x00\n        /* \"contracts/VotingPlus.sol\":7253:7267  voteCountTotal */\n      0x07\n        /* \"contracts/VotingPlus.sol\":7253:7271  voteCountTotal = 0 */\n      dup2\n      swap1\n      sstore\n      pop\n        /* \"contracts/VotingPlus.sol\":7300:7301  1 */\n      0x01\n        /* \"contracts/VotingPlus.sol\":7282:7297  voteWinnerCount */\n      0x09\n        /* \"contracts/VotingPlus.sol\":7282:7301  voteWinnerCount = 1 */\n      dup2\n      swap1\n      sstore\n      pop\n        /* \"contracts/VotingPlus.sol\":7328:7360  WorkflowStatus.RegisteringVoters */\n      0x00\n        /* \"contracts/VotingPlus.sol\":7312:7325  currentStatus */\n      0x04\n      0x00\n        /* \"contracts/VotingPlus.sol\":7312:7360  currentStatus = WorkflowStatus.RegisteringVoters */\n      0x0100\n      exp\n      dup2\n      sload\n      dup2\n      0xff\n      mul\n      not\n      and\n      swap1\n      dup4\n      0x05\n      dup2\n      gt\n      iszero\n      tag_393\n      jumpi\n      tag_394\n      tag_139\n      jump\t// in\n    tag_394:\n    tag_393:\n      mul\n      or\n      swap1\n      sstore\n      pop\n        /* \"contracts/VotingPlus.sol\":6689:7368  function reset() external onlyOwner {... */\n      jump\t// out\n        /* \"contracts/VotingPlus.sol\":5010:5451  function endProposalSession() external onlyOwner {... */\n    tag_121:\n        /* \"@openzeppelin/contracts/access/Ownable.sol\":1531:1544  _checkOwner() */\n      tag_396\n        /* \"@openzeppelin/contracts/access/Ownable.sol\":1531:1542  _checkOwner */\n      tag_168\n        /* \"@openzeppelin/contracts/access/Ownable.sol\":1531:1544  _checkOwner() */\n      jump\t// in\n    tag_396:\n        /* \"contracts/VotingPlus.sol\":5096:5139  WorkflowStatus.ProposalsRegistrationStarted */\n      0x01\n        /* \"contracts/VotingPlus.sol\":5078:5139  currentStatus ==  WorkflowStatus.ProposalsRegistrationStarted */\n      0x05\n      dup2\n      gt\n      iszero\n      tag_398\n      jumpi\n      tag_399\n      tag_139\n      jump\t// in\n    tag_399:\n    tag_398:\n        /* \"contracts/VotingPlus.sol\":5078:5091  currentStatus */\n      0x04\n      0x00\n      swap1\n      sload\n      swap1\n      0x0100\n      exp\n      swap1\n      div\n      0xff\n      and\n        /* \"contracts/VotingPlus.sol\":5078:5139  currentStatus ==  WorkflowStatus.ProposalsRegistrationStarted */\n      0x05\n      dup2\n      gt\n      iszero\n      tag_400\n      jumpi\n      tag_401\n      tag_139\n      jump\t// in\n    tag_401:\n    tag_400:\n      eq\n        /* \"contracts/VotingPlus.sol\":5070:5206  require(currentStatus ==  WorkflowStatus.ProposalsRegistrationStarted, \"The proposal session has not started or has already been ended\") */\n      tag_402\n      jumpi\n      mload(0x40)\n      0x08c379a000000000000000000000000000000000000000000000000000000000\n      dup2\n      mstore\n      0x04\n      add\n      tag_403\n      swap1\n      tag_404\n      jump\t// in\n    tag_403:\n      mload(0x40)\n      dup1\n      swap2\n      sub\n      swap1\n      revert\n    tag_402:\n        /* \"contracts/VotingPlus.sol\":5244:5245  0 */\n      0x00\n        /* \"contracts/VotingPlus.sol\":5225:5234  proposals */\n      0x02\n        /* \"contracts/VotingPlus.sol\":5225:5241  proposals.length */\n      dup1\n      sload\n      swap1\n      pop\n        /* \"contracts/VotingPlus.sol\":5225:5245  proposals.length > 0 */\n      gt\n        /* \"contracts/VotingPlus.sol\":5217:5283  require(proposals.length > 0, \"There are no proposals registered\") */\n      tag_405\n      jumpi\n      mload(0x40)\n      0x08c379a000000000000000000000000000000000000000000000000000000000\n      dup2\n      mstore\n      0x04\n      add\n      tag_406\n      swap1\n      tag_407\n      jump\t// in\n    tag_406:\n      mload(0x40)\n      dup1\n      swap2\n      sub\n      swap1\n      revert\n    tag_405:\n        /* \"contracts/VotingPlus.sol\":5310:5351  WorkflowStatus.ProposalsRegistrationEnded */\n      0x02\n        /* \"contracts/VotingPlus.sol\":5294:5307  currentStatus */\n      0x04\n      0x00\n        /* \"contracts/VotingPlus.sol\":5294:5351  currentStatus = WorkflowStatus.ProposalsRegistrationEnded */\n      0x0100\n      exp\n      dup2\n      sload\n      dup2\n      0xff\n      mul\n      not\n      and\n      swap1\n      dup4\n      0x05\n      dup2\n      gt\n      iszero\n      tag_408\n      jumpi\n      tag_409\n      tag_139\n      jump\t// in\n    tag_409:\n    tag_408:\n      mul\n      or\n      swap1\n      sstore\n      pop\n        /* \"contracts/VotingPlus.sol\":5367:5443  WorkflowStatusChange(WorkflowStatus(uint(currentStatus) - 1), currentStatus) */\n      0x0a97a4ee45751e2abf3e4fc8946939630b11b371ea8ae39ccdc3056e98f5cc3f\n        /* \"contracts/VotingPlus.sol\":5425:5426  1 */\n      0x01\n        /* \"contracts/VotingPlus.sol\":5408:5421  currentStatus */\n      0x04\n      0x00\n      swap1\n      sload\n      swap1\n      0x0100\n      exp\n      swap1\n      div\n      0xff\n      and\n        /* \"contracts/VotingPlus.sol\":5403:5422  uint(currentStatus) */\n      0x05\n      dup2\n      gt\n      iszero\n      tag_410\n      jumpi\n      tag_411\n      tag_139\n      jump\t// in\n    tag_411:\n    tag_410:\n        /* \"contracts/VotingPlus.sol\":5403:5426  uint(currentStatus) - 1 */\n      tag_412\n      swap2\n      swap1\n      tag_202\n      jump\t// in\n    tag_412:\n        /* \"contracts/VotingPlus.sol\":5388:5427  WorkflowStatus(uint(currentStatus) - 1) */\n      0x05\n      dup2\n      gt\n      iszero\n      tag_413\n      jumpi\n      tag_414\n      tag_139\n      jump\t// in\n    tag_414:\n    tag_413:\n        /* \"contracts/VotingPlus.sol\":5429:5442  currentStatus */\n      0x04\n      0x00\n      swap1\n      sload\n      swap1\n      0x0100\n      exp\n      swap1\n      div\n      0xff\n      and\n        /* \"contracts/VotingPlus.sol\":5367:5443  WorkflowStatusChange(WorkflowStatus(uint(currentStatus) - 1), currentStatus) */\n      mload(0x40)\n      tag_415\n      swap3\n      swap2\n      swap1\n      tag_206\n      jump\t// in\n    tag_415:\n      mload(0x40)\n      dup1\n      swap2\n      sub\n      swap1\n      log1\n        /* \"contracts/VotingPlus.sol\":5010:5451  function endProposalSession() external onlyOwner {... */\n      jump\t// out\n        /* \"contracts/VotingPlus.sol\":10656:10752  function getVoteCountTotal() external view returns(uint){... */\n    tag_123:\n        /* \"contracts/VotingPlus.sol\":10707:10711  uint */\n      0x00\n        /* \"contracts/VotingPlus.sol\":10730:10744  voteCountTotal */\n      sload(0x07)\n        /* \"contracts/VotingPlus.sol\":10723:10744  return voteCountTotal */\n      swap1\n      pop\n        /* \"contracts/VotingPlus.sol\":10656:10752  function getVoteCountTotal() external view returns(uint){... */\n      swap1\n      jump\t// out\n        /* \"@openzeppelin/contracts/access/Ownable.sol\":2543:2758  function transferOwnership(address newOwner) public virtual onlyOwner {... */\n    tag_127:\n        /* \"@openzeppelin/contracts/access/Ownable.sol\":1531:1544  _checkOwner() */\n      tag_418\n        /* \"@openzeppelin/contracts/access/Ownable.sol\":1531:1542  _checkOwner */\n      tag_168\n        /* \"@openzeppelin/contracts/access/Ownable.sol\":1531:1544  _checkOwner() */\n      jump\t// in\n    tag_418:\n        /* \"@openzeppelin/contracts/access/Ownable.sol\":2647:2648  0 */\n      0x00\n        /* \"@openzeppelin/contracts/access/Ownable.sol\":2627:2649  newOwner == address(0) */\n      0xffffffffffffffffffffffffffffffffffffffff\n      and\n        /* \"@openzeppelin/contracts/access/Ownable.sol\":2627:2635  newOwner */\n      dup2\n        /* \"@openzeppelin/contracts/access/Ownable.sol\":2627:2649  newOwner == address(0) */\n      0xffffffffffffffffffffffffffffffffffffffff\n      and\n      sub\n        /* \"@openzeppelin/contracts/access/Ownable.sol\":2623:2714  if (newOwner == address(0)) {... */\n      tag_420\n      jumpi\n        /* \"@openzeppelin/contracts/access/Ownable.sol\":2700:2701  0 */\n      0x00\n        /* \"@openzeppelin/contracts/access/Ownable.sol\":2672:2703  OwnableInvalidOwner(address(0)) */\n      mload(0x40)\n      0x1e4fbdf700000000000000000000000000000000000000000000000000000000\n      dup2\n      mstore\n      0x04\n      add\n      tag_421\n      swap2\n      swap1\n      tag_63\n      jump\t// in\n    tag_421:\n      mload(0x40)\n      dup1\n      swap2\n      sub\n      swap1\n      revert\n        /* \"@openzeppelin/contracts/access/Ownable.sol\":2623:2714  if (newOwner == address(0)) {... */\n    tag_420:\n        /* \"@openzeppelin/contracts/access/Ownable.sol\":2723:2751  _transferOwnership(newOwner) */\n      tag_422\n        /* \"@openzeppelin/contracts/access/Ownable.sol\":2742:2750  newOwner */\n      dup2\n        /* \"@openzeppelin/contracts/access/Ownable.sol\":2723:2741  _transferOwnership */\n      tag_255\n        /* \"@openzeppelin/contracts/access/Ownable.sol\":2723:2751  _transferOwnership(newOwner) */\n      jump\t// in\n    tag_422:\n        /* \"@openzeppelin/contracts/access/Ownable.sol\":2543:2758  function transferOwnership(address newOwner) public virtual onlyOwner {... */\n      pop\n      jump\t// out\n        /* \"contracts/VotingPlus.sol\":5836:6287  function endVoteSession() external onlyOwner {... */\n    tag_129:\n        /* \"@openzeppelin/contracts/access/Ownable.sol\":1531:1544  _checkOwner() */\n      tag_424\n        /* \"@openzeppelin/contracts/access/Ownable.sol\":1531:1542  _checkOwner */\n      tag_168\n        /* \"@openzeppelin/contracts/access/Ownable.sol\":1531:1544  _checkOwner() */\n      jump\t// in\n    tag_424:\n        /* \"contracts/VotingPlus.sol\":5918:5953  WorkflowStatus.VotingSessionStarted */\n      0x03\n        /* \"contracts/VotingPlus.sol\":5900:5953  currentStatus ==  WorkflowStatus.VotingSessionStarted */\n      0x05\n      dup2\n      gt\n      iszero\n      tag_426\n      jumpi\n      tag_427\n      tag_139\n      jump\t// in\n    tag_427:\n    tag_426:\n        /* \"contracts/VotingPlus.sol\":5900:5913  currentStatus */\n      0x04\n      0x00\n      swap1\n      sload\n      swap1\n      0x0100\n      exp\n      swap1\n      div\n      0xff\n      and\n        /* \"contracts/VotingPlus.sol\":5900:5953  currentStatus ==  WorkflowStatus.VotingSessionStarted */\n      0x05\n      dup2\n      gt\n      iszero\n      tag_428\n      jumpi\n      tag_429\n      tag_139\n      jump\t// in\n    tag_429:\n    tag_428:\n      eq\n        /* \"contracts/VotingPlus.sol\":5892:6011  require(currentStatus ==  WorkflowStatus.VotingSessionStarted, \"The vote session has not started or has already ended\") */\n      tag_430\n      jumpi\n      mload(0x40)\n      0x08c379a000000000000000000000000000000000000000000000000000000000\n      dup2\n      mstore\n      0x04\n      add\n      tag_431\n      swap1\n      tag_432\n      jump\t// in\n    tag_431:\n      mload(0x40)\n      dup1\n      swap2\n      sub\n      swap1\n      revert\n    tag_430:\n        /* \"contracts/VotingPlus.sol\":6047:6048  0 */\n      0x00\n        /* \"contracts/VotingPlus.sol\":6030:6044  voteCountTotal */\n      sload(0x07)\n        /* \"contracts/VotingPlus.sol\":6030:6048  voteCountTotal > 0 */\n      gt\n        /* \"contracts/VotingPlus.sol\":6022:6081  require(voteCountTotal > 0, \"There are no vote registered\") */\n      tag_433\n      jumpi\n      mload(0x40)\n      0x08c379a000000000000000000000000000000000000000000000000000000000\n      dup2\n      mstore\n      0x04\n      add\n      tag_434\n      swap1\n      tag_435\n      jump\t// in\n    tag_434:\n      mload(0x40)\n      dup1\n      swap2\n      sub\n      swap1\n      revert\n    tag_433:\n        /* \"contracts/VotingPlus.sol\":6108:6141  WorkflowStatus.VotingSessionEnded */\n      0x04\n        /* \"contracts/VotingPlus.sol\":6092:6105  currentStatus */\n      dup1\n      0x00\n        /* \"contracts/VotingPlus.sol\":6092:6141  currentStatus = WorkflowStatus.VotingSessionEnded */\n      0x0100\n      exp\n      dup2\n      sload\n      dup2\n      0xff\n      mul\n      not\n      and\n      swap1\n      dup4\n      0x05\n      dup2\n      gt\n      iszero\n      tag_436\n      jumpi\n      tag_437\n      tag_139\n      jump\t// in\n    tag_437:\n    tag_436:\n      mul\n      or\n      swap1\n      sstore\n      pop\n        /* \"contracts/VotingPlus.sol\":6152:6177  calculateWinnerProposal() */\n      tag_438\n        /* \"contracts/VotingPlus.sol\":6152:6175  calculateWinnerProposal */\n      tag_439\n        /* \"contracts/VotingPlus.sol\":6152:6177  calculateWinnerProposal() */\n      jump\t// in\n    tag_438:\n        /* \"contracts/VotingPlus.sol\":6194:6270  WorkflowStatusChange(WorkflowStatus(uint(currentStatus) - 1), currentStatus) */\n      0x0a97a4ee45751e2abf3e4fc8946939630b11b371ea8ae39ccdc3056e98f5cc3f\n        /* \"contracts/VotingPlus.sol\":6252:6253  1 */\n      0x01\n        /* \"contracts/VotingPlus.sol\":6235:6248  currentStatus */\n      0x04\n      0x00\n      swap1\n      sload\n      swap1\n      0x0100\n      exp\n      swap1\n      div\n      0xff\n      and\n        /* \"contracts/VotingPlus.sol\":6230:6249  uint(currentStatus) */\n      0x05\n      dup2\n      gt\n      iszero\n      tag_440\n      jumpi\n      tag_441\n      tag_139\n      jump\t// in\n    tag_441:\n    tag_440:\n        /* \"contracts/VotingPlus.sol\":6230:6253  uint(currentStatus) - 1 */\n      tag_442\n      swap2\n      swap1\n      tag_202\n      jump\t// in\n    tag_442:\n        /* \"contracts/VotingPlus.sol\":6215:6254  WorkflowStatus(uint(currentStatus) - 1) */\n      0x05\n      dup2\n      gt\n      iszero\n      tag_443\n      jumpi\n      tag_444\n      tag_139\n      jump\t// in\n    tag_444:\n    tag_443:\n        /* \"contracts/VotingPlus.sol\":6256:6269  currentStatus */\n      0x04\n      0x00\n      swap1\n      sload\n      swap1\n      0x0100\n      exp\n      swap1\n      div\n      0xff\n      and\n        /* \"contracts/VotingPlus.sol\":6194:6270  WorkflowStatusChange(WorkflowStatus(uint(currentStatus) - 1), currentStatus) */\n      mload(0x40)\n      tag_445\n      swap3\n      swap2\n      swap1\n      tag_206\n      jump\t// in\n    tag_445:\n      mload(0x40)\n      dup1\n      swap2\n      sub\n      swap1\n      log1\n        /* \"contracts/VotingPlus.sol\":5836:6287  function endVoteSession() external onlyOwner {... */\n      jump\t// out\n        /* \"@openzeppelin/contracts/access/Ownable.sol\":1796:1958  function _checkOwner() internal view virtual {... */\n    tag_168:\n        /* \"@openzeppelin/contracts/access/Ownable.sol\":1866:1878  _msgSender() */\n      tag_447\n        /* \"@openzeppelin/contracts/access/Ownable.sol\":1866:1876  _msgSender */\n      tag_448\n        /* \"@openzeppelin/contracts/access/Ownable.sol\":1866:1878  _msgSender() */\n      jump\t// in\n    tag_447:\n        /* \"@openzeppelin/contracts/access/Ownable.sol\":1855:1878  owner() != _msgSender() */\n      0xffffffffffffffffffffffffffffffffffffffff\n      and\n        /* \"@openzeppelin/contracts/access/Ownable.sol\":1855:1862  owner() */\n      tag_449\n        /* \"@openzeppelin/contracts/access/Ownable.sol\":1855:1860  owner */\n      tag_76\n        /* \"@openzeppelin/contracts/access/Ownable.sol\":1855:1862  owner() */\n      jump\t// in\n    tag_449:\n        /* \"@openzeppelin/contracts/access/Ownable.sol\":1855:1878  owner() != _msgSender() */\n      0xffffffffffffffffffffffffffffffffffffffff\n      and\n      eq\n        /* \"@openzeppelin/contracts/access/Ownable.sol\":1851:1952  if (owner() != _msgSender()) {... */\n      tag_450\n      jumpi\n        /* \"@openzeppelin/contracts/access/Ownable.sol\":1928:1940  _msgSender() */\n      tag_451\n        /* \"@openzeppelin/contracts/access/Ownable.sol\":1928:1938  _msgSender */\n      tag_448\n        /* \"@openzeppelin/contracts/access/Ownable.sol\":1928:1940  _msgSender() */\n      jump\t// in\n    tag_451:\n        /* \"@openzeppelin/contracts/access/Ownable.sol\":1901:1941  OwnableUnauthorizedAccount(_msgSender()) */\n      mload(0x40)\n      0x118cdaa700000000000000000000000000000000000000000000000000000000\n      dup2\n      mstore\n      0x04\n      add\n      tag_452\n      swap2\n      swap1\n      tag_63\n      jump\t// in\n    tag_452:\n      mload(0x40)\n      dup1\n      swap2\n      sub\n      swap1\n      revert\n        /* \"@openzeppelin/contracts/access/Ownable.sol\":1851:1952  if (owner() != _msgSender()) {... */\n    tag_450:\n        /* \"@openzeppelin/contracts/access/Ownable.sol\":1796:1958  function _checkOwner() internal view virtual {... */\n      jump\t// out\n        /* \"@openzeppelin/contracts/access/Ownable.sol\":2912:3099  function _transferOwnership(address newOwner) internal virtual {... */\n    tag_255:\n        /* \"@openzeppelin/contracts/access/Ownable.sol\":2985:3001  address oldOwner */\n      0x00\n        /* \"@openzeppelin/contracts/access/Ownable.sol\":3004:3010  _owner */\n      0x00\n      0x00\n      swap1\n      sload\n      swap1\n      0x0100\n      exp\n      swap1\n      div\n      0xffffffffffffffffffffffffffffffffffffffff\n      and\n        /* \"@openzeppelin/contracts/access/Ownable.sol\":2985:3010  address oldOwner = _owner */\n      swap1\n      pop\n        /* \"@openzeppelin/contracts/access/Ownable.sol\":3029:3037  newOwner */\n      dup2\n        /* \"@openzeppelin/contracts/access/Ownable.sol\":3020:3026  _owner */\n      0x00\n      0x00\n        /* \"@openzeppelin/contracts/access/Ownable.sol\":3020:3037  _owner = newOwner */\n      0x0100\n      exp\n      dup2\n      sload\n      dup2\n      0xffffffffffffffffffffffffffffffffffffffff\n      mul\n      not\n      and\n      swap1\n      dup4\n      0xffffffffffffffffffffffffffffffffffffffff\n      and\n      mul\n      or\n      swap1\n      sstore\n      pop\n        /* \"@openzeppelin/contracts/access/Ownable.sol\":3083:3091  newOwner */\n      dup2\n        /* \"@openzeppelin/contracts/access/Ownable.sol\":3052:3092  OwnershipTransferred(oldOwner, newOwner) */\n      0xffffffffffffffffffffffffffffffffffffffff\n      and\n        /* \"@openzeppelin/contracts/access/Ownable.sol\":3073:3081  oldOwner */\n      dup2\n        /* \"@openzeppelin/contracts/access/Ownable.sol\":3052:3092  OwnershipTransferred(oldOwner, newOwner) */\n      0xffffffffffffffffffffffffffffffffffffffff\n      and\n      0x8be0079c531659141344cd1fd0a4f28419497f9722a3daafe3b4186f6b6457e0\n      mload(0x40)\n      mload(0x40)\n      dup1\n      swap2\n      sub\n      swap1\n      log3\n        /* \"@openzeppelin/contracts/access/Ownable.sol\":2975:3099  {... */\n      pop\n        /* \"@openzeppelin/contracts/access/Ownable.sol\":2912:3099  function _transferOwnership(address newOwner) internal virtual {... */\n      pop\n      jump\t// out\n        /* \"contracts/VotingPlus.sol\":8601:8943  function calculateWinnerProposal() private onlyOwner {... */\n    tag_439:\n        /* \"@openzeppelin/contracts/access/Ownable.sol\":1531:1544  _checkOwner() */\n      tag_455\n        /* \"@openzeppelin/contracts/access/Ownable.sol\":1531:1542  _checkOwner */\n      tag_168\n        /* \"@openzeppelin/contracts/access/Ownable.sol\":1531:1544  _checkOwner() */\n      jump\t// in\n    tag_455:\n        /* \"contracts/VotingPlus.sol\":8670:8676  uint i */\n      0x00\n        /* \"contracts/VotingPlus.sol\":8679:8680  0 */\n      0x00\n        /* \"contracts/VotingPlus.sol\":8670:8680  uint i = 0 */\n      swap1\n      pop\n        /* \"contracts/VotingPlus.sol\":8665:8935  for (uint i = 0; i < proposals.length; i++) {... */\n    tag_457:\n        /* \"contracts/VotingPlus.sol\":8686:8695  proposals */\n      0x02\n        /* \"contracts/VotingPlus.sol\":8686:8702  proposals.length */\n      dup1\n      sload\n      swap1\n      pop\n        /* \"contracts/VotingPlus.sol\":8682:8683  i */\n      dup2\n        /* \"contracts/VotingPlus.sol\":8682:8702  i < proposals.length */\n      lt\n        /* \"contracts/VotingPlus.sol\":8665:8935  for (uint i = 0; i < proposals.length; i++) {... */\n      iszero\n      tag_458\n      jumpi\n        /* \"contracts/VotingPlus.sol\":8754:8769  voteWinnerCount */\n      sload(0x09)\n        /* \"contracts/VotingPlus.sol\":8728:8737  proposals */\n      0x02\n        /* \"contracts/VotingPlus.sol\":8738:8739  i */\n      dup3\n        /* \"contracts/VotingPlus.sol\":8728:8740  proposals[i] */\n      dup2\n      sload\n      dup2\n      lt\n      tag_460\n      jumpi\n      tag_461\n      tag_158\n      jump\t// in\n    tag_461:\n    tag_460:\n      swap1\n      0x00\n      mstore\n      keccak256(0x00, 0x20)\n      swap1\n      0x03\n      mul\n      add\n        /* \"contracts/VotingPlus.sol\":8728:8750  proposals[i].voteCount */\n      0x01\n      add\n      sload\n        /* \"contracts/VotingPlus.sol\":8728:8769  proposals[i].voteCount >= voteWinnerCount */\n      lt\n        /* \"contracts/VotingPlus.sol\":8724:8918  if (proposals[i].voteCount >= voteWinnerCount) {... */\n      tag_463\n      jumpi\n        /* \"contracts/VotingPlus.sol\":8808:8817  proposals */\n      0x02\n        /* \"contracts/VotingPlus.sol\":8818:8819  i */\n      dup2\n        /* \"contracts/VotingPlus.sol\":8808:8820  proposals[i] */\n      dup2\n      sload\n      dup2\n      lt\n      tag_464\n      jumpi\n      tag_465\n      tag_158\n      jump\t// in\n    tag_465:\n    tag_464:\n      swap1\n      0x00\n      mstore\n      keccak256(0x00, 0x20)\n      swap1\n      0x03\n      mul\n      add\n        /* \"contracts/VotingPlus.sol\":8808:8830  proposals[i].voteCount */\n      0x01\n      add\n      sload\n        /* \"contracts/VotingPlus.sol\":8790:8805  voteWinnerCount */\n      0x09\n        /* \"contracts/VotingPlus.sol\":8790:8830  voteWinnerCount = proposals[i].voteCount */\n      dup2\n      swap1\n      sstore\n      pop\n        /* \"contracts/VotingPlus.sol\":8869:8870  i */\n      dup1\n        /* \"contracts/VotingPlus.sol\":8849:8866  winningProposalId */\n      0x05\n        /* \"contracts/VotingPlus.sol\":8849:8870  winningProposalId = i */\n      dup2\n      swap1\n      sstore\n      pop\n        /* \"contracts/VotingPlus.sol\":8889:8900  winnerCount */\n      0x08\n      0x00\n        /* \"contracts/VotingPlus.sol\":8889:8902  winnerCount++ */\n      dup2\n      sload\n      dup1\n      swap3\n      swap2\n      swap1\n      tag_467\n      swap1\n      tag_161\n      jump\t// in\n    tag_467:\n      swap2\n      swap1\n      pop\n      sstore\n      pop\n        /* \"contracts/VotingPlus.sol\":8724:8918  if (proposals[i].voteCount >= voteWinnerCount) {... */\n    tag_463:\n        /* \"contracts/VotingPlus.sol\":8704:8707  i++ */\n      dup1\n      dup1\n      0x01\n      add\n      swap2\n      pop\n      pop\n        /* \"contracts/VotingPlus.sol\":8665:8935  for (uint i = 0; i < proposals.length; i++) {... */\n      jump(tag_457)\n    tag_458:\n      pop\n        /* \"contracts/VotingPlus.sol\":8601:8943  function calculateWinnerProposal() private onlyOwner {... */\n      jump\t// out\n        /* \"@openzeppelin/contracts/utils/Context.sol\":656:752  function _msgSender() internal view virtual returns (address) {... */\n    tag_448:\n        /* \"@openzeppelin/contracts/utils/Context.sol\":709:716  address */\n      0x00\n        /* \"@openzeppelin/contracts/utils/Context.sol\":735:745  msg.sender */\n      caller\n        /* \"@openzeppelin/contracts/utils/Context.sol\":728:745  return msg.sender */\n      swap1\n      pop\n        /* \"@openzeppelin/contracts/utils/Context.sol\":656:752  function _msgSender() internal view virtual returns (address) {... */\n      swap1\n      jump\t// out\n    tag_257:\n      mload(0x40)\n      dup1\n      0x60\n      add\n      0x40\n      mstore\n      dup1\n      0x60\n      dup2\n      mstore\n      0x20\n      add\n      0x00\n      dup2\n      mstore\n      0x20\n      add\n      and(0xffffffffffffffffffffffffffffffffffffffff, 0x00)\n      dup2\n      mstore\n      pop\n      swap1\n      jump\t// out\n    tag_390:\n      pop\n      dup1\n      sload\n      0x00\n      dup3\n      sstore\n      0x03\n      mul\n      swap1\n      0x00\n      mstore\n      keccak256(0x00, 0x20)\n      swap1\n      dup2\n      add\n      swap1\n      tag_470\n      swap2\n      swap1\n      tag_471\n      jump\t// in\n    tag_470:\n      pop\n      jump\t// out\n    tag_392:\n      pop\n      dup1\n      sload\n      0x00\n      dup3\n      sstore\n      swap1\n      0x00\n      mstore\n      keccak256(0x00, 0x20)\n      swap1\n      dup2\n      add\n      swap1\n      tag_473\n      swap2\n      swap1\n      tag_474\n      jump\t// in\n    tag_473:\n      pop\n      jump\t// out\n    tag_471:\n    tag_475:\n      dup1\n      dup3\n      gt\n      iszero\n      tag_476\n      jumpi\n      0x00\n      0x00\n      dup3\n      add\n      0x00\n      tag_477\n      swap2\n      swap1\n      tag_478\n      jump\t// in\n    tag_477:\n      0x01\n      dup3\n      add\n      0x00\n      swap1\n      sstore\n      0x02\n      dup3\n      add\n      exp(0x0100, 0x00)\n      dup2\n      sload\n      swap1\n      0xffffffffffffffffffffffffffffffffffffffff\n      mul\n      not\n      and\n      swap1\n      sstore\n      pop\n      0x03\n      add\n      jump(tag_475)\n    tag_476:\n      pop\n      swap1\n      jump\t// out\n    tag_474:\n    tag_479:\n      dup1\n      dup3\n      gt\n      iszero\n      tag_480\n      jumpi\n      0x00\n      dup2\n      0x00\n      swap1\n      sstore\n      pop\n      0x01\n      add\n      jump(tag_479)\n    tag_480:\n      pop\n      swap1\n      jump\t// out\n    tag_478:\n      pop\n      dup1\n      sload\n      tag_481\n      swap1\n      tag_220\n      jump\t// in\n    tag_481:\n      0x00\n      dup3\n      sstore\n      dup1\n      0x1f\n      lt\n      tag_483\n      jumpi\n      pop\n      jump(tag_482)\n    tag_483:\n      0x1f\n      add\n      0x20\n      swap1\n      div\n      swap1\n      0x00\n      mstore\n      keccak256(0x00, 0x20)\n      swap1\n      dup2\n      add\n      swap1\n      tag_484\n      swap2\n      swap1\n      tag_474\n      jump\t// in\n    tag_484:\n    tag_482:\n      pop\n      jump\t// out\n        /* \"#utility.yul\":7:82   */\n    tag_485:\n        /* \"#utility.yul\":40:46   */\n      0x00\n        /* \"#utility.yul\":73:75   */\n      0x40\n        /* \"#utility.yul\":67:76   */\n      mload\n        /* \"#utility.yul\":57:76   */\n      swap1\n      pop\n        /* \"#utility.yul\":7:82   */\n      swap1\n      jump\t// out\n        /* \"#utility.yul\":88:205   */\n    tag_486:\n        /* \"#utility.yul\":197:198   */\n      0x00\n        /* \"#utility.yul\":194:195   */\n      0x00\n        /* \"#utility.yul\":187:199   */\n      revert\n        /* \"#utility.yul\":211:328   */\n    tag_487:\n        /* \"#utility.yul\":320:321   */\n      0x00\n        /* \"#utility.yul\":317:318   */\n      0x00\n        /* \"#utility.yul\":310:322   */\n      revert\n        /* \"#utility.yul\":334:411   */\n    tag_488:\n        /* \"#utility.yul\":371:378   */\n      0x00\n        /* \"#utility.yul\":400:405   */\n      dup2\n        /* \"#utility.yul\":389:405   */\n      swap1\n      pop\n        /* \"#utility.yul\":334:411   */\n      swap2\n      swap1\n      pop\n      jump\t// out\n        /* \"#utility.yul\":417:539   */\n    tag_489:\n        /* \"#utility.yul\":490:514   */\n      tag_604\n        /* \"#utility.yul\":508:513   */\n      dup2\n        /* \"#utility.yul\":490:514   */\n      tag_488\n      jump\t// in\n    tag_604:\n        /* \"#utility.yul\":483:488   */\n      dup2\n        /* \"#utility.yul\":480:515   */\n      eq\n        /* \"#utility.yul\":470:533   */\n      tag_605\n      jumpi\n        /* \"#utility.yul\":529:530   */\n      0x00\n        /* \"#utility.yul\":526:527   */\n      0x00\n        /* \"#utility.yul\":519:531   */\n      revert\n        /* \"#utility.yul\":470:533   */\n    tag_605:\n        /* \"#utility.yul\":417:539   */\n      pop\n      jump\t// out\n        /* \"#utility.yul\":545:684   */\n    tag_490:\n        /* \"#utility.yul\":591:596   */\n      0x00\n        /* \"#utility.yul\":629:635   */\n      dup2\n        /* \"#utility.yul\":616:636   */\n      calldataload\n        /* \"#utility.yul\":607:636   */\n      swap1\n      pop\n        /* \"#utility.yul\":645:678   */\n      tag_607\n        /* \"#utility.yul\":672:677   */\n      dup2\n        /* \"#utility.yul\":645:678   */\n      tag_489\n      jump\t// in\n    tag_607:\n        /* \"#utility.yul\":545:684   */\n      swap3\n      swap2\n      pop\n      pop\n      jump\t// out\n        /* \"#utility.yul\":690:1019   */\n    tag_40:\n        /* \"#utility.yul\":749:755   */\n      0x00\n        /* \"#utility.yul\":798:800   */\n      0x20\n        /* \"#utility.yul\":786:795   */\n      dup3\n        /* \"#utility.yul\":777:784   */\n      dup5\n        /* \"#utility.yul\":773:796   */\n      sub\n        /* \"#utility.yul\":769:801   */\n      slt\n        /* \"#utility.yul\":766:885   */\n      iszero\n      tag_609\n      jumpi\n        /* \"#utility.yul\":804:883   */\n      tag_610\n      tag_486\n      jump\t// in\n    tag_610:\n        /* \"#utility.yul\":766:885   */\n    tag_609:\n        /* \"#utility.yul\":924:925   */\n      0x00\n        /* \"#utility.yul\":949:1002   */\n      tag_611\n        /* \"#utility.yul\":994:1001   */\n      dup5\n        /* \"#utility.yul\":985:991   */\n      dup3\n        /* \"#utility.yul\":974:983   */\n      dup6\n        /* \"#utility.yul\":970:992   */\n      add\n        /* \"#utility.yul\":949:1002   */\n      tag_490\n      jump\t// in\n    tag_611:\n        /* \"#utility.yul\":939:1002   */\n      swap2\n      pop\n        /* \"#utility.yul\":895:1012   */\n      pop\n        /* \"#utility.yul\":690:1019   */\n      swap3\n      swap2\n      pop\n      pop\n      jump\t// out\n        /* \"#utility.yul\":1025:1143   */\n    tag_491:\n        /* \"#utility.yul\":1112:1136   */\n      tag_613\n        /* \"#utility.yul\":1130:1135   */\n      dup2\n        /* \"#utility.yul\":1112:1136   */\n      tag_488\n      jump\t// in\n    tag_613:\n        /* \"#utility.yul\":1107:1110   */\n      dup3\n        /* \"#utility.yul\":1100:1137   */\n      mstore\n        /* \"#utility.yul\":1025:1143   */\n      pop\n      pop\n      jump\t// out\n        /* \"#utility.yul\":1149:1371   */\n    tag_45:\n        /* \"#utility.yul\":1242:1246   */\n      0x00\n        /* \"#utility.yul\":1280:1282   */\n      0x20\n        /* \"#utility.yul\":1269:1278   */\n      dup3\n        /* \"#utility.yul\":1265:1283   */\n      add\n        /* \"#utility.yul\":1257:1283   */\n      swap1\n      pop\n        /* \"#utility.yul\":1293:1364   */\n      tag_615\n        /* \"#utility.yul\":1361:1362   */\n      0x00\n        /* \"#utility.yul\":1350:1359   */\n      dup4\n        /* \"#utility.yul\":1346:1363   */\n      add\n        /* \"#utility.yul\":1337:1343   */\n      dup5\n        /* \"#utility.yul\":1293:1364   */\n      tag_491\n      jump\t// in\n    tag_615:\n        /* \"#utility.yul\":1149:1371   */\n      swap3\n      swap2\n      pop\n      pop\n      jump\t// out\n        /* \"#utility.yul\":1377:1503   */\n    tag_492:\n        /* \"#utility.yul\":1414:1421   */\n      0x00\n        /* \"#utility.yul\":1454:1496   */\n      0xffffffffffffffffffffffffffffffffffffffff\n        /* \"#utility.yul\":1447:1452   */\n      dup3\n        /* \"#utility.yul\":1443:1497   */\n      and\n        /* \"#utility.yul\":1432:1497   */\n      swap1\n      pop\n        /* \"#utility.yul\":1377:1503   */\n      swap2\n      swap1\n      pop\n      jump\t// out\n        /* \"#utility.yul\":1509:1605   */\n    tag_493:\n        /* \"#utility.yul\":1546:1553   */\n      0x00\n        /* \"#utility.yul\":1575:1599   */\n      tag_618\n        /* \"#utility.yul\":1593:1598   */\n      dup3\n        /* \"#utility.yul\":1575:1599   */\n      tag_492\n      jump\t// in\n    tag_618:\n        /* \"#utility.yul\":1564:1599   */\n      swap1\n      pop\n        /* \"#utility.yul\":1509:1605   */\n      swap2\n      swap1\n      pop\n      jump\t// out\n        /* \"#utility.yul\":1611:1733   */\n    tag_494:\n        /* \"#utility.yul\":1684:1708   */\n      tag_620\n        /* \"#utility.yul\":1702:1707   */\n      dup2\n        /* \"#utility.yul\":1684:1708   */\n      tag_493\n      jump\t// in\n    tag_620:\n        /* \"#utility.yul\":1677:1682   */\n      dup2\n        /* \"#utility.yul\":1674:1709   */\n      eq\n        /* \"#utility.yul\":1664:1727   */\n      tag_621\n      jumpi\n        /* \"#utility.yul\":1723:1724   */\n      0x00\n        /* \"#utility.yul\":1720:1721   */\n      0x00\n        /* \"#utility.yul\":1713:1725   */\n      revert\n        /* \"#utility.yul\":1664:1727   */\n    tag_621:\n        /* \"#utility.yul\":1611:1733   */\n      pop\n      jump\t// out\n        /* \"#utility.yul\":1739:1878   */\n    tag_495:\n        /* \"#utility.yul\":1785:1790   */\n      0x00\n        /* \"#utility.yul\":1823:1829   */\n      dup2\n        /* \"#utility.yul\":1810:1830   */\n      calldataload\n        /* \"#utility.yul\":1801:1830   */\n      swap1\n      pop\n        /* \"#utility.yul\":1839:1872   */\n      tag_623\n        /* \"#utility.yul\":1866:1871   */\n      dup2\n        /* \"#utility.yul\":1839:1872   */\n      tag_494\n      jump\t// in\n    tag_623:\n        /* \"#utility.yul\":1739:1878   */\n      swap3\n      swap2\n      pop\n      pop\n      jump\t// out\n        /* \"#utility.yul\":1884:2213   */\n    tag_48:\n        /* \"#utility.yul\":1943:1949   */\n      0x00\n        /* \"#utility.yul\":1992:1994   */\n      0x20\n        /* \"#utility.yul\":1980:1989   */\n      dup3\n        /* \"#utility.yul\":1971:1978   */\n      dup5\n        /* \"#utility.yul\":1967:1990   */\n      sub\n        /* \"#utility.yul\":1963:1995   */\n      slt\n        /* \"#utility.yul\":1960:2079   */\n      iszero\n      tag_625\n      jumpi\n        /* \"#utility.yul\":1998:2077   */\n      tag_626\n      tag_486\n      jump\t// in\n    tag_626:\n        /* \"#utility.yul\":1960:2079   */\n    tag_625:\n        /* \"#utility.yul\":2118:2119   */\n      0x00\n        /* \"#utility.yul\":2143:2196   */\n      tag_627\n        /* \"#utility.yul\":2188:2195   */\n      dup5\n        /* \"#utility.yul\":2179:2185   */\n      dup3\n        /* \"#utility.yul\":2168:2177   */\n      dup6\n        /* \"#utility.yul\":2164:2186   */\n      add\n        /* \"#utility.yul\":2143:2196   */\n      tag_495\n      jump\t// in\n    tag_627:\n        /* \"#utility.yul\":2133:2196   */\n      swap2\n      pop\n        /* \"#utility.yul\":2089:2206   */\n      pop\n        /* \"#utility.yul\":1884:2213   */\n      swap3\n      swap2\n      pop\n      pop\n      jump\t// out\n        /* \"#utility.yul\":2219:2358   */\n    tag_496:\n        /* \"#utility.yul\":2311:2317   */\n      0x00\n        /* \"#utility.yul\":2345:2350   */\n      dup2\n        /* \"#utility.yul\":2339:2351   */\n      mload\n        /* \"#utility.yul\":2329:2351   */\n      swap1\n      pop\n        /* \"#utility.yul\":2219:2358   */\n      swap2\n      swap1\n      pop\n      jump\t// out\n        /* \"#utility.yul\":2364:2573   */\n    tag_497:\n        /* \"#utility.yul\":2488:2499   */\n      0x00\n        /* \"#utility.yul\":2522:2528   */\n      dup3\n        /* \"#utility.yul\":2517:2520   */\n      dup3\n        /* \"#utility.yul\":2510:2529   */\n      mstore\n        /* \"#utility.yul\":2562:2566   */\n      0x20\n        /* \"#utility.yul\":2557:2560   */\n      dup3\n        /* \"#utility.yul\":2553:2567   */\n      add\n        /* \"#utility.yul\":2538:2567   */\n      swap1\n      pop\n        /* \"#utility.yul\":2364:2573   */\n      swap3\n      swap2\n      pop\n      pop\n      jump\t// out\n        /* \"#utility.yul\":2579:2736   */\n    tag_498:\n        /* \"#utility.yul\":2671:2675   */\n      0x00\n        /* \"#utility.yul\":2694:2697   */\n      dup2\n        /* \"#utility.yul\":2686:2697   */\n      swap1\n      pop\n        /* \"#utility.yul\":2724:2728   */\n      0x20\n        /* \"#utility.yul\":2719:2722   */\n      dup3\n        /* \"#utility.yul\":2715:2729   */\n      add\n        /* \"#utility.yul\":2707:2729   */\n      swap1\n      pop\n        /* \"#utility.yul\":2579:2736   */\n      swap2\n      swap1\n      pop\n      jump\t// out\n        /* \"#utility.yul\":2742:2841   */\n    tag_499:\n        /* \"#utility.yul\":2794:2800   */\n      0x00\n        /* \"#utility.yul\":2828:2833   */\n      dup2\n        /* \"#utility.yul\":2822:2834   */\n      mload\n        /* \"#utility.yul\":2812:2834   */\n      swap1\n      pop\n        /* \"#utility.yul\":2742:2841   */\n      swap2\n      swap1\n      pop\n      jump\t// out\n        /* \"#utility.yul\":2847:3006   */\n    tag_500:\n        /* \"#utility.yul\":2921:2932   */\n      0x00\n        /* \"#utility.yul\":2955:2961   */\n      dup3\n        /* \"#utility.yul\":2950:2953   */\n      dup3\n        /* \"#utility.yul\":2943:2962   */\n      mstore\n        /* \"#utility.yul\":2995:2999   */\n      0x20\n        /* \"#utility.yul\":2990:2993   */\n      dup3\n        /* \"#utility.yul\":2986:3000   */\n      add\n        /* \"#utility.yul\":2971:3000   */\n      swap1\n      pop\n        /* \"#utility.yul\":2847:3006   */\n      swap3\n      swap2\n      pop\n      pop\n      jump\t// out\n        /* \"#utility.yul\":3012:3151   */\n    tag_501:\n        /* \"#utility.yul\":3101:3107   */\n      dup3\n        /* \"#utility.yul\":3096:3099   */\n      dup2\n        /* \"#utility.yul\":3091:3094   */\n      dup4\n        /* \"#utility.yul\":3085:3108   */\n      mcopy\n        /* \"#utility.yul\":3142:3143   */\n      0x00\n        /* \"#utility.yul\":3133:3139   */\n      dup4\n        /* \"#utility.yul\":3128:3131   */\n      dup4\n        /* \"#utility.yul\":3124:3140   */\n      add\n        /* \"#utility.yul\":3117:3144   */\n      mstore\n        /* \"#utility.yul\":3012:3151   */\n      pop\n      pop\n      pop\n      jump\t// out\n        /* \"#utility.yul\":3157:3259   */\n    tag_502:\n        /* \"#utility.yul\":3198:3204   */\n      0x00\n        /* \"#utility.yul\":3249:3251   */\n      0x1f\n        /* \"#utility.yul\":3245:3252   */\n      not\n        /* \"#utility.yul\":3240:3242   */\n      0x1f\n        /* \"#utility.yul\":3233:3238   */\n      dup4\n        /* \"#utility.yul\":3229:3243   */\n      add\n        /* \"#utility.yul\":3225:3253   */\n      and\n        /* \"#utility.yul\":3215:3253   */\n      swap1\n      pop\n        /* \"#utility.yul\":3157:3259   */\n      swap2\n      swap1\n      pop\n      jump\t// out\n        /* \"#utility.yul\":3265:3622   */\n    tag_503:\n        /* \"#utility.yul\":3343:3346   */\n      0x00\n        /* \"#utility.yul\":3371:3410   */\n      tag_636\n        /* \"#utility.yul\":3404:3409   */\n      dup3\n        /* \"#utility.yul\":3371:3410   */\n      tag_499\n      jump\t// in\n    tag_636:\n        /* \"#utility.yul\":3426:3487   */\n      tag_637\n        /* \"#utility.yul\":3480:3486   */\n      dup2\n        /* \"#utility.yul\":3475:3478   */\n      dup6\n        /* \"#utility.yul\":3426:3487   */\n      tag_500\n      jump\t// in\n    tag_637:\n        /* \"#utility.yul\":3419:3487   */\n      swap4\n      pop\n        /* \"#utility.yul\":3496:3561   */\n      tag_638\n        /* \"#utility.yul\":3554:3560   */\n      dup2\n        /* \"#utility.yul\":3549:3552   */\n      dup6\n        /* \"#utility.yul\":3542:3546   */\n      0x20\n        /* \"#utility.yul\":3535:3540   */\n      dup7\n        /* \"#utility.yul\":3531:3547   */\n      add\n        /* \"#utility.yul\":3496:3561   */\n      tag_501\n      jump\t// in\n    tag_638:\n        /* \"#utility.yul\":3586:3615   */\n      tag_639\n        /* \"#utility.yul\":3608:3614   */\n      dup2\n        /* \"#utility.yul\":3586:3615   */\n      tag_502\n      jump\t// in\n    tag_639:\n        /* \"#utility.yul\":3581:3584   */\n      dup5\n        /* \"#utility.yul\":3577:3616   */\n      add\n        /* \"#utility.yul\":3570:3616   */\n      swap2\n      pop\n        /* \"#utility.yul\":3347:3622   */\n      pop\n        /* \"#utility.yul\":3265:3622   */\n      swap3\n      swap2\n      pop\n      pop\n      jump\t// out\n        /* \"#utility.yul\":3628:3736   */\n    tag_504:\n        /* \"#utility.yul\":3705:3729   */\n      tag_641\n        /* \"#utility.yul\":3723:3728   */\n      dup2\n        /* \"#utility.yul\":3705:3729   */\n      tag_488\n      jump\t// in\n    tag_641:\n        /* \"#utility.yul\":3700:3703   */\n      dup3\n        /* \"#utility.yul\":3693:3730   */\n      mstore\n        /* \"#utility.yul\":3628:3736   */\n      pop\n      pop\n      jump\t// out\n        /* \"#utility.yul\":3742:3850   */\n    tag_505:\n        /* \"#utility.yul\":3819:3843   */\n      tag_643\n        /* \"#utility.yul\":3837:3842   */\n      dup2\n        /* \"#utility.yul\":3819:3843   */\n      tag_493\n      jump\t// in\n    tag_643:\n        /* \"#utility.yul\":3814:3817   */\n      dup3\n        /* \"#utility.yul\":3807:3844   */\n      mstore\n        /* \"#utility.yul\":3742:3850   */\n      pop\n      pop\n      jump\t// out\n        /* \"#utility.yul\":3920:4703   */\n    tag_506:\n        /* \"#utility.yul\":4029:4032   */\n      0x00\n        /* \"#utility.yul\":4065:4069   */\n      0x60\n        /* \"#utility.yul\":4060:4063   */\n      dup4\n        /* \"#utility.yul\":4056:4070   */\n      add\n        /* \"#utility.yul\":4159:4163   */\n      0x00\n        /* \"#utility.yul\":4152:4157   */\n      dup4\n        /* \"#utility.yul\":4148:4164   */\n      add\n        /* \"#utility.yul\":4142:4165   */\n      mload\n        /* \"#utility.yul\":4212:4215   */\n      dup5\n        /* \"#utility.yul\":4206:4210   */\n      dup3\n        /* \"#utility.yul\":4202:4216   */\n      sub\n        /* \"#utility.yul\":4195:4199   */\n      0x00\n        /* \"#utility.yul\":4190:4193   */\n      dup7\n        /* \"#utility.yul\":4186:4200   */\n      add\n        /* \"#utility.yul\":4179:4217   */\n      mstore\n        /* \"#utility.yul\":4238:4311   */\n      tag_645\n        /* \"#utility.yul\":4306:4310   */\n      dup3\n        /* \"#utility.yul\":4292:4304   */\n      dup3\n        /* \"#utility.yul\":4238:4311   */\n      tag_503\n      jump\t// in\n    tag_645:\n        /* \"#utility.yul\":4230:4311   */\n      swap2\n      pop\n        /* \"#utility.yul\":4080:4322   */\n      pop\n        /* \"#utility.yul\":4409:4413   */\n      0x20\n        /* \"#utility.yul\":4402:4407   */\n      dup4\n        /* \"#utility.yul\":4398:4414   */\n      add\n        /* \"#utility.yul\":4392:4415   */\n      mload\n        /* \"#utility.yul\":4428:4491   */\n      tag_646\n        /* \"#utility.yul\":4485:4489   */\n      0x20\n        /* \"#utility.yul\":4480:4483   */\n      dup7\n        /* \"#utility.yul\":4476:4490   */\n      add\n        /* \"#utility.yul\":4462:4474   */\n      dup3\n        /* \"#utility.yul\":4428:4491   */\n      tag_504\n      jump\t// in\n    tag_646:\n        /* \"#utility.yul\":4332:4501   */\n      pop\n        /* \"#utility.yul\":4584:4588   */\n      0x40\n        /* \"#utility.yul\":4577:4582   */\n      dup4\n        /* \"#utility.yul\":4573:4589   */\n      add\n        /* \"#utility.yul\":4567:4590   */\n      mload\n        /* \"#utility.yul\":4603:4666   */\n      tag_647\n        /* \"#utility.yul\":4660:4664   */\n      0x40\n        /* \"#utility.yul\":4655:4658   */\n      dup7\n        /* \"#utility.yul\":4651:4665   */\n      add\n        /* \"#utility.yul\":4637:4649   */\n      dup3\n        /* \"#utility.yul\":4603:4666   */\n      tag_505\n      jump\t// in\n    tag_647:\n        /* \"#utility.yul\":4511:4676   */\n      pop\n        /* \"#utility.yul\":4693:4697   */\n      dup1\n        /* \"#utility.yul\":4686:4697   */\n      swap2\n      pop\n        /* \"#utility.yul\":4034:4703   */\n      pop\n        /* \"#utility.yul\":3920:4703   */\n      swap3\n      swap2\n      pop\n      pop\n      jump\t// out\n        /* \"#utility.yul\":4709:4965   */\n    tag_507:\n        /* \"#utility.yul\":4828:4838   */\n      0x00\n        /* \"#utility.yul\":4863:4959   */\n      tag_649\n        /* \"#utility.yul\":4955:4958   */\n      dup4\n        /* \"#utility.yul\":4947:4953   */\n      dup4\n        /* \"#utility.yul\":4863:4959   */\n      tag_506\n      jump\t// in\n    tag_649:\n        /* \"#utility.yul\":4849:4959   */\n      swap1\n      pop\n        /* \"#utility.yul\":4709:4965   */\n      swap3\n      swap2\n      pop\n      pop\n      jump\t// out\n        /* \"#utility.yul\":4971:5109   */\n    tag_508:\n        /* \"#utility.yul\":5066:5070   */\n      0x00\n        /* \"#utility.yul\":5098:5102   */\n      0x20\n        /* \"#utility.yul\":5093:5096   */\n      dup3\n        /* \"#utility.yul\":5089:5103   */\n      add\n        /* \"#utility.yul\":5081:5103   */\n      swap1\n      pop\n        /* \"#utility.yul\":4971:5109   */\n      swap2\n      swap1\n      pop\n      jump\t// out\n        /* \"#utility.yul\":5183:6294   */\n    tag_509:\n        /* \"#utility.yul\":5352:5355   */\n      0x00\n        /* \"#utility.yul\":5381:5460   */\n      tag_652\n        /* \"#utility.yul\":5454:5459   */\n      dup3\n        /* \"#utility.yul\":5381:5460   */\n      tag_496\n      jump\t// in\n    tag_652:\n        /* \"#utility.yul\":5476:5587   */\n      tag_653\n        /* \"#utility.yul\":5580:5586   */\n      dup2\n        /* \"#utility.yul\":5575:5578   */\n      dup6\n        /* \"#utility.yul\":5476:5587   */\n      tag_497\n      jump\t// in\n    tag_653:\n        /* \"#utility.yul\":5469:5587   */\n      swap4\n      pop\n        /* \"#utility.yul\":5613:5616   */\n      dup4\n        /* \"#utility.yul\":5658:5662   */\n      0x20\n        /* \"#utility.yul\":5650:5656   */\n      dup3\n        /* \"#utility.yul\":5646:5663   */\n      mul\n        /* \"#utility.yul\":5641:5644   */\n      dup6\n        /* \"#utility.yul\":5637:5664   */\n      add\n        /* \"#utility.yul\":5688:5769   */\n      tag_654\n        /* \"#utility.yul\":5763:5768   */\n      dup6\n        /* \"#utility.yul\":5688:5769   */\n      tag_498\n      jump\t// in\n    tag_654:\n        /* \"#utility.yul\":5792:5799   */\n      dup1\n        /* \"#utility.yul\":5823:5824   */\n      0x00\n        /* \"#utility.yul\":5808:6249   */\n    tag_655:\n        /* \"#utility.yul\":5833:5839   */\n      dup6\n        /* \"#utility.yul\":5830:5831   */\n      dup2\n        /* \"#utility.yul\":5827:5840   */\n      lt\n        /* \"#utility.yul\":5808:6249   */\n      iszero\n      tag_657\n      jumpi\n        /* \"#utility.yul\":5904:5913   */\n      dup5\n        /* \"#utility.yul\":5898:5902   */\n      dup5\n        /* \"#utility.yul\":5894:5914   */\n      sub\n        /* \"#utility.yul\":5889:5892   */\n      dup10\n        /* \"#utility.yul\":5882:5915   */\n      mstore\n        /* \"#utility.yul\":5955:5961   */\n      dup2\n        /* \"#utility.yul\":5949:5962   */\n      mload\n        /* \"#utility.yul\":5983:6097   */\n      tag_658\n        /* \"#utility.yul\":6092:6096   */\n      dup6\n        /* \"#utility.yul\":6077:6090   */\n      dup3\n        /* \"#utility.yul\":5983:6097   */\n      tag_507\n      jump\t// in\n    tag_658:\n        /* \"#utility.yul\":5975:6097   */\n      swap5\n      pop\n        /* \"#utility.yul\":6120:6205   */\n      tag_659\n        /* \"#utility.yul\":6198:6204   */\n      dup4\n        /* \"#utility.yul\":6120:6205   */\n      tag_508\n      jump\t// in\n    tag_659:\n        /* \"#utility.yul\":6110:6205   */\n      swap3\n      pop\n        /* \"#utility.yul\":6234:6238   */\n      0x20\n        /* \"#utility.yul\":6229:6232   */\n      dup11\n        /* \"#utility.yul\":6225:6239   */\n      add\n        /* \"#utility.yul\":6218:6239   */\n      swap10\n      pop\n        /* \"#utility.yul\":5868:6249   */\n      pop\n        /* \"#utility.yul\":5855:5856   */\n      0x01\n        /* \"#utility.yul\":5852:5853   */\n      dup2\n        /* \"#utility.yul\":5848:5857   */\n      add\n        /* \"#utility.yul\":5843:5857   */\n      swap1\n      pop\n        /* \"#utility.yul\":5808:6249   */\n      jump(tag_655)\n    tag_657:\n        /* \"#utility.yul\":5812:5826   */\n      pop\n        /* \"#utility.yul\":6265:6269   */\n      dup3\n        /* \"#utility.yul\":6258:6269   */\n      swap8\n      pop\n        /* \"#utility.yul\":6285:6288   */\n      dup8\n        /* \"#utility.yul\":6278:6288   */\n      swap6\n      pop\n        /* \"#utility.yul\":5357:6294   */\n      pop\n      pop\n      pop\n      pop\n      pop\n        /* \"#utility.yul\":5183:6294   */\n      swap3\n      swap2\n      pop\n      pop\n      jump\t// out\n        /* \"#utility.yul\":6300:6773   */\n    tag_58:\n        /* \"#utility.yul\":6493:6497   */\n      0x00\n        /* \"#utility.yul\":6531:6533   */\n      0x20\n        /* \"#utility.yul\":6520:6529   */\n      dup3\n        /* \"#utility.yul\":6516:6534   */\n      add\n        /* \"#utility.yul\":6508:6534   */\n      swap1\n      pop\n        /* \"#utility.yul\":6580:6589   */\n      dup2\n        /* \"#utility.yul\":6574:6578   */\n      dup2\n        /* \"#utility.yul\":6570:6590   */\n      sub\n        /* \"#utility.yul\":6566:6567   */\n      0x00\n        /* \"#utility.yul\":6555:6564   */\n      dup4\n        /* \"#utility.yul\":6551:6568   */\n      add\n        /* \"#utility.yul\":6544:6591   */\n      mstore\n        /* \"#utility.yul\":6608:6766   */\n      tag_661\n        /* \"#utility.yul\":6761:6765   */\n      dup2\n        /* \"#utility.yul\":6752:6758   */\n      dup5\n        /* \"#utility.yul\":6608:6766   */\n      tag_509\n      jump\t// in\n    tag_661:\n        /* \"#utility.yul\":6600:6766   */\n      swap1\n      pop\n        /* \"#utility.yul\":6300:6773   */\n      swap3\n      swap2\n      pop\n      pop\n      jump\t// out\n        /* \"#utility.yul\":6779:6897   */\n    tag_510:\n        /* \"#utility.yul\":6866:6890   */\n      tag_663\n        /* \"#utility.yul\":6884:6889   */\n      dup2\n        /* \"#utility.yul\":6866:6890   */\n      tag_493\n      jump\t// in\n    tag_663:\n        /* \"#utility.yul\":6861:6864   */\n      dup3\n        /* \"#utility.yul\":6854:6891   */\n      mstore\n        /* \"#utility.yul\":6779:6897   */\n      pop\n      pop\n      jump\t// out\n        /* \"#utility.yul\":6903:7125   */\n    tag_63:\n        /* \"#utility.yul\":6996:7000   */\n      0x00\n        /* \"#utility.yul\":7034:7036   */\n      0x20\n        /* \"#utility.yul\":7023:7032   */\n      dup3\n        /* \"#utility.yul\":7019:7037   */\n      add\n        /* \"#utility.yul\":7011:7037   */\n      swap1\n      pop\n        /* \"#utility.yul\":7047:7118   */\n      tag_665\n        /* \"#utility.yul\":7115:7116   */\n      0x00\n        /* \"#utility.yul\":7104:7113   */\n      dup4\n        /* \"#utility.yul\":7100:7117   */\n      add\n        /* \"#utility.yul\":7091:7097   */\n      dup5\n        /* \"#utility.yul\":7047:7118   */\n      tag_510\n      jump\t// in\n    tag_665:\n        /* \"#utility.yul\":6903:7125   */\n      swap3\n      swap2\n      pop\n      pop\n      jump\t// out\n        /* \"#utility.yul\":7131:7311   */\n    tag_139:\n        /* \"#utility.yul\":7179:7256   */\n      0x4e487b7100000000000000000000000000000000000000000000000000000000\n        /* \"#utility.yul\":7176:7177   */\n      0x00\n        /* \"#utility.yul\":7169:7257   */\n      mstore\n        /* \"#utility.yul\":7276:7280   */\n      0x21\n        /* \"#utility.yul\":7273:7274   */\n      0x04\n        /* \"#utility.yul\":7266:7281   */\n      mstore\n        /* \"#utility.yul\":7300:7304   */\n      0x24\n        /* \"#utility.yul\":7297:7298   */\n      0x00\n        /* \"#utility.yul\":7290:7305   */\n      revert\n        /* \"#utility.yul\":7317:7440   */\n    tag_511:\n        /* \"#utility.yul\":7408:7409   */\n      0x06\n        /* \"#utility.yul\":7401:7406   */\n      dup2\n        /* \"#utility.yul\":7398:7410   */\n      lt\n        /* \"#utility.yul\":7388:7434   */\n      tag_668\n      jumpi\n        /* \"#utility.yul\":7414:7432   */\n      tag_669\n      tag_139\n      jump\t// in\n    tag_669:\n        /* \"#utility.yul\":7388:7434   */\n    tag_668:\n        /* \"#utility.yul\":7317:7440   */\n      pop\n      jump\t// out\n        /* \"#utility.yul\":7446:7593   */\n    tag_512:\n        /* \"#utility.yul\":7501:7508   */\n      0x00\n        /* \"#utility.yul\":7530:7535   */\n      dup2\n        /* \"#utility.yul\":7519:7535   */\n      swap1\n      pop\n        /* \"#utility.yul\":7536:7587   */\n      tag_671\n        /* \"#utility.yul\":7581:7586   */\n      dup3\n        /* \"#utility.yul\":7536:7587   */\n      tag_511\n      jump\t// in\n    tag_671:\n        /* \"#utility.yul\":7446:7593   */\n      swap2\n      swap1\n      pop\n      jump\t// out\n        /* \"#utility.yul\":7599:7746   */\n    tag_513:\n        /* \"#utility.yul\":7665:7674   */\n      0x00\n        /* \"#utility.yul\":7698:7740   */\n      tag_673\n        /* \"#utility.yul\":7734:7739   */\n      dup3\n        /* \"#utility.yul\":7698:7740   */\n      tag_512\n      jump\t// in\n    tag_673:\n        /* \"#utility.yul\":7685:7740   */\n      swap1\n      pop\n        /* \"#utility.yul\":7599:7746   */\n      swap2\n      swap1\n      pop\n      jump\t// out\n        /* \"#utility.yul\":7752:7915   */\n    tag_514:\n        /* \"#utility.yul\":7855:7908   */\n      tag_675\n        /* \"#utility.yul\":7902:7907   */\n      dup2\n        /* \"#utility.yul\":7855:7908   */\n      tag_513\n      jump\t// in\n    tag_675:\n        /* \"#utility.yul\":7850:7853   */\n      dup3\n        /* \"#utility.yul\":7843:7909   */\n      mstore\n        /* \"#utility.yul\":7752:7915   */\n      pop\n      pop\n      jump\t// out\n        /* \"#utility.yul\":7921:8175   */\n    tag_67:\n        /* \"#utility.yul\":8030:8034   */\n      0x00\n        /* \"#utility.yul\":8068:8070   */\n      0x20\n        /* \"#utility.yul\":8057:8066   */\n      dup3\n        /* \"#utility.yul\":8053:8071   */\n      add\n        /* \"#utility.yul\":8045:8071   */\n      swap1\n      pop\n        /* \"#utility.yul\":8081:8168   */\n      tag_677\n        /* \"#utility.yul\":8165:8166   */\n      0x00\n        /* \"#utility.yul\":8154:8163   */\n      dup4\n        /* \"#utility.yul\":8150:8167   */\n      add\n        /* \"#utility.yul\":8141:8147   */\n      dup5\n        /* \"#utility.yul\":8081:8168   */\n      tag_514\n      jump\t// in\n    tag_677:\n        /* \"#utility.yul\":7921:8175   */\n      swap3\n      swap2\n      pop\n      pop\n      jump\t// out\n        /* \"#utility.yul\":8245:9038   */\n    tag_515:\n        /* \"#utility.yul\":8364:8367   */\n      0x00\n        /* \"#utility.yul\":8400:8404   */\n      0x60\n        /* \"#utility.yul\":8395:8398   */\n      dup4\n        /* \"#utility.yul\":8391:8405   */\n      add\n        /* \"#utility.yul\":8494:8498   */\n      0x00\n        /* \"#utility.yul\":8487:8492   */\n      dup4\n        /* \"#utility.yul\":8483:8499   */\n      add\n        /* \"#utility.yul\":8477:8500   */\n      mload\n        /* \"#utility.yul\":8547:8550   */\n      dup5\n        /* \"#utility.yul\":8541:8545   */\n      dup3\n        /* \"#utility.yul\":8537:8551   */\n      sub\n        /* \"#utility.yul\":8530:8534   */\n      0x00\n        /* \"#utility.yul\":8525:8528   */\n      dup7\n        /* \"#utility.yul\":8521:8535   */\n      add\n        /* \"#utility.yul\":8514:8552   */\n      mstore\n        /* \"#utility.yul\":8573:8646   */\n      tag_679\n        /* \"#utility.yul\":8641:8645   */\n      dup3\n        /* \"#utility.yul\":8627:8639   */\n      dup3\n        /* \"#utility.yul\":8573:8646   */\n      tag_503\n      jump\t// in\n    tag_679:\n        /* \"#utility.yul\":8565:8646   */\n      swap2\n      pop\n        /* \"#utility.yul\":8415:8657   */\n      pop\n        /* \"#utility.yul\":8744:8748   */\n      0x20\n        /* \"#utility.yul\":8737:8742   */\n      dup4\n        /* \"#utility.yul\":8733:8749   */\n      add\n        /* \"#utility.yul\":8727:8750   */\n      mload\n        /* \"#utility.yul\":8763:8826   */\n      tag_680\n        /* \"#utility.yul\":8820:8824   */\n      0x20\n        /* \"#utility.yul\":8815:8818   */\n      dup7\n        /* \"#utility.yul\":8811:8825   */\n      add\n        /* \"#utility.yul\":8797:8809   */\n      dup3\n        /* \"#utility.yul\":8763:8826   */\n      tag_504\n      jump\t// in\n    tag_680:\n        /* \"#utility.yul\":8667:8836   */\n      pop\n        /* \"#utility.yul\":8919:8923   */\n      0x40\n        /* \"#utility.yul\":8912:8917   */\n      dup4\n        /* \"#utility.yul\":8908:8924   */\n      add\n        /* \"#utility.yul\":8902:8925   */\n      mload\n        /* \"#utility.yul\":8938:9001   */\n      tag_681\n        /* \"#utility.yul\":8995:8999   */\n      0x40\n        /* \"#utility.yul\":8990:8993   */\n      dup7\n        /* \"#utility.yul\":8986:9000   */\n      add\n        /* \"#utility.yul\":8972:8984   */\n      dup3\n        /* \"#utility.yul\":8938:9001   */\n      tag_505\n      jump\t// in\n    tag_681:\n        /* \"#utility.yul\":8846:9011   */\n      pop\n        /* \"#utility.yul\":9028:9032   */\n      dup1\n        /* \"#utility.yul\":9021:9032   */\n      swap2\n      pop\n        /* \"#utility.yul\":8369:9038   */\n      pop\n        /* \"#utility.yul\":8245:9038   */\n      swap3\n      swap2\n      pop\n      pop\n      jump\t// out\n        /* \"#utility.yul\":9044:9417   */\n    tag_74:\n        /* \"#utility.yul\":9187:9191   */\n      0x00\n        /* \"#utility.yul\":9225:9227   */\n      0x20\n        /* \"#utility.yul\":9214:9223   */\n      dup3\n        /* \"#utility.yul\":9210:9228   */\n      add\n        /* \"#utility.yul\":9202:9228   */\n      swap1\n      pop\n        /* \"#utility.yul\":9274:9283   */\n      dup2\n        /* \"#utility.yul\":9268:9272   */\n      dup2\n        /* \"#utility.yul\":9264:9284   */\n      sub\n        /* \"#utility.yul\":9260:9261   */\n      0x00\n        /* \"#utility.yul\":9249:9258   */\n      dup4\n        /* \"#utility.yul\":9245:9262   */\n      add\n        /* \"#utility.yul\":9238:9285   */\n      mstore\n        /* \"#utility.yul\":9302:9410   */\n      tag_683\n        /* \"#utility.yul\":9405:9409   */\n      dup2\n        /* \"#utility.yul\":9396:9402   */\n      dup5\n        /* \"#utility.yul\":9302:9410   */\n      tag_515\n      jump\t// in\n    tag_683:\n        /* \"#utility.yul\":9294:9410   */\n      swap1\n      pop\n        /* \"#utility.yul\":9044:9417   */\n      swap3\n      swap2\n      pop\n      pop\n      jump\t// out\n        /* \"#utility.yul\":9423:9540   */\n    tag_516:\n        /* \"#utility.yul\":9532:9533   */\n      0x00\n        /* \"#utility.yul\":9529:9530   */\n      0x00\n        /* \"#utility.yul\":9522:9534   */\n      revert\n        /* \"#utility.yul\":9546:9663   */\n    tag_517:\n        /* \"#utility.yul\":9655:9656   */\n      0x00\n        /* \"#utility.yul\":9652:9653   */\n      0x00\n        /* \"#utility.yul\":9645:9657   */\n      revert\n        /* \"#utility.yul\":9669:9849   */\n    tag_518:\n        /* \"#utility.yul\":9717:9794   */\n      0x4e487b7100000000000000000000000000000000000000000000000000000000\n        /* \"#utility.yul\":9714:9715   */\n      0x00\n        /* \"#utility.yul\":9707:9795   */\n      mstore\n        /* \"#utility.yul\":9814:9818   */\n      0x41\n        /* \"#utility.yul\":9811:9812   */\n      0x04\n        /* \"#utility.yul\":9804:9819   */\n      mstore\n        /* \"#utility.yul\":9838:9842   */\n      0x24\n        /* \"#utility.yul\":9835:9836   */\n      0x00\n        /* \"#utility.yul\":9828:9843   */\n      revert\n        /* \"#utility.yul\":9855:10136   */\n    tag_519:\n        /* \"#utility.yul\":9938:9965   */\n      tag_688\n        /* \"#utility.yul\":9960:9964   */\n      dup3\n        /* \"#utility.yul\":9938:9965   */\n      tag_502\n      jump\t// in\n    tag_688:\n        /* \"#utility.yul\":9930:9936   */\n      dup2\n        /* \"#utility.yul\":9926:9966   */\n      add\n        /* \"#utility.yul\":10068:10074   */\n      dup2\n        /* \"#utility.yul\":10056:10066   */\n      dup2\n        /* \"#utility.yul\":10053:10075   */\n      lt\n        /* \"#utility.yul\":10032:10050   */\n      0xffffffffffffffff\n        /* \"#utility.yul\":10020:10030   */\n      dup3\n        /* \"#utility.yul\":10017:10051   */\n      gt\n        /* \"#utility.yul\":10014:10076   */\n      or\n        /* \"#utility.yul\":10011:10099   */\n      iszero\n      tag_689\n      jumpi\n        /* \"#utility.yul\":10079:10097   */\n      tag_690\n      tag_518\n      jump\t// in\n    tag_690:\n        /* \"#utility.yul\":10011:10099   */\n    tag_689:\n        /* \"#utility.yul\":10119:10129   */\n      dup1\n        /* \"#utility.yul\":10115:10117   */\n      0x40\n        /* \"#utility.yul\":10108:10130   */\n      mstore\n        /* \"#utility.yul\":9898:10136   */\n      pop\n        /* \"#utility.yul\":9855:10136   */\n      pop\n      pop\n      jump\t// out\n        /* \"#utility.yul\":10142:10271   */\n    tag_520:\n        /* \"#utility.yul\":10176:10182   */\n      0x00\n        /* \"#utility.yul\":10203:10223   */\n      tag_692\n      tag_485\n      jump\t// in\n    tag_692:\n        /* \"#utility.yul\":10193:10223   */\n      swap1\n      pop\n        /* \"#utility.yul\":10232:10265   */\n      tag_693\n        /* \"#utility.yul\":10260:10264   */\n      dup3\n        /* \"#utility.yul\":10252:10258   */\n      dup3\n        /* \"#utility.yul\":10232:10265   */\n      tag_519\n      jump\t// in\n    tag_693:\n        /* \"#utility.yul\":10142:10271   */\n      swap2\n      swap1\n      pop\n      jump\t// out\n        /* \"#utility.yul\":10277:10585   */\n    tag_521:\n        /* \"#utility.yul\":10339:10343   */\n      0x00\n        /* \"#utility.yul\":10429:10447   */\n      0xffffffffffffffff\n        /* \"#utility.yul\":10421:10427   */\n      dup3\n        /* \"#utility.yul\":10418:10448   */\n      gt\n        /* \"#utility.yul\":10415:10471   */\n      iszero\n      tag_695\n      jumpi\n        /* \"#utility.yul\":10451:10469   */\n      tag_696\n      tag_518\n      jump\t// in\n    tag_696:\n        /* \"#utility.yul\":10415:10471   */\n    tag_695:\n        /* \"#utility.yul\":10489:10518   */\n      tag_697\n        /* \"#utility.yul\":10511:10517   */\n      dup3\n        /* \"#utility.yul\":10489:10518   */\n      tag_502\n      jump\t// in\n    tag_697:\n        /* \"#utility.yul\":10481:10518   */\n      swap1\n      pop\n        /* \"#utility.yul\":10573:10577   */\n      0x20\n        /* \"#utility.yul\":10567:10571   */\n      dup2\n        /* \"#utility.yul\":10563:10578   */\n      add\n        /* \"#utility.yul\":10555:10578   */\n      swap1\n      pop\n        /* \"#utility.yul\":10277:10585   */\n      swap2\n      swap1\n      pop\n      jump\t// out\n        /* \"#utility.yul\":10591:10739   */\n    tag_522:\n        /* \"#utility.yul\":10689:10695   */\n      dup3\n        /* \"#utility.yul\":10684:10687   */\n      dup2\n        /* \"#utility.yul\":10679:10682   */\n      dup4\n        /* \"#utility.yul\":10666:10696   */\n      calldatacopy\n        /* \"#utility.yul\":10730:10731   */\n      0x00\n        /* \"#utility.yul\":10721:10727   */\n      dup4\n        /* \"#utility.yul\":10716:10719   */\n      dup4\n        /* \"#utility.yul\":10712:10728   */\n      add\n        /* \"#utility.yul\":10705:10732   */\n      mstore\n        /* \"#utility.yul\":10591:10739   */\n      pop\n      pop\n      pop\n      jump\t// out\n        /* \"#utility.yul\":10745:11170   */\n    tag_523:\n        /* \"#utility.yul\":10823:10828   */\n      0x00\n        /* \"#utility.yul\":10848:10914   */\n      tag_700\n        /* \"#utility.yul\":10864:10913   */\n      tag_701\n        /* \"#utility.yul\":10906:10912   */\n      dup5\n        /* \"#utility.yul\":10864:10913   */\n      tag_521\n      jump\t// in\n    tag_701:\n        /* \"#utility.yul\":10848:10914   */\n      tag_520\n      jump\t// in\n    tag_700:\n        /* \"#utility.yul\":10839:10914   */\n      swap1\n      pop\n        /* \"#utility.yul\":10937:10943   */\n      dup3\n        /* \"#utility.yul\":10930:10935   */\n      dup2\n        /* \"#utility.yul\":10923:10944   */\n      mstore\n        /* \"#utility.yul\":10975:10979   */\n      0x20\n        /* \"#utility.yul\":10968:10973   */\n      dup2\n        /* \"#utility.yul\":10964:10980   */\n      add\n        /* \"#utility.yul\":11013:11016   */\n      dup5\n        /* \"#utility.yul\":11004:11010   */\n      dup5\n        /* \"#utility.yul\":10999:11002   */\n      dup5\n        /* \"#utility.yul\":10995:11011   */\n      add\n        /* \"#utility.yul\":10992:11017   */\n      gt\n        /* \"#utility.yul\":10989:11101   */\n      iszero\n      tag_702\n      jumpi\n        /* \"#utility.yul\":11020:11099   */\n      tag_703\n      tag_517\n      jump\t// in\n    tag_703:\n        /* \"#utility.yul\":10989:11101   */\n    tag_702:\n        /* \"#utility.yul\":11110:11164   */\n      tag_704\n        /* \"#utility.yul\":11157:11163   */\n      dup5\n        /* \"#utility.yul\":11152:11155   */\n      dup3\n        /* \"#utility.yul\":11147:11150   */\n      dup6\n        /* \"#utility.yul\":11110:11164   */\n      tag_522\n      jump\t// in\n    tag_704:\n        /* \"#utility.yul\":10829:11170   */\n      pop\n        /* \"#utility.yul\":10745:11170   */\n      swap4\n      swap3\n      pop\n      pop\n      pop\n      jump\t// out\n        /* \"#utility.yul\":11190:11530   */\n    tag_524:\n        /* \"#utility.yul\":11246:11251   */\n      0x00\n        /* \"#utility.yul\":11295:11298   */\n      dup3\n        /* \"#utility.yul\":11288:11292   */\n      0x1f\n        /* \"#utility.yul\":11280:11286   */\n      dup4\n        /* \"#utility.yul\":11276:11293   */\n      add\n        /* \"#utility.yul\":11272:11299   */\n      slt\n        /* \"#utility.yul\":11262:11384   */\n      tag_706\n      jumpi\n        /* \"#utility.yul\":11303:11382   */\n      tag_707\n      tag_516\n      jump\t// in\n    tag_707:\n        /* \"#utility.yul\":11262:11384   */\n    tag_706:\n        /* \"#utility.yul\":11420:11426   */\n      dup2\n        /* \"#utility.yul\":11407:11427   */\n      calldataload\n        /* \"#utility.yul\":11445:11524   */\n      tag_708\n        /* \"#utility.yul\":11520:11523   */\n      dup5\n        /* \"#utility.yul\":11512:11518   */\n      dup3\n        /* \"#utility.yul\":11505:11509   */\n      0x20\n        /* \"#utility.yul\":11497:11503   */\n      dup7\n        /* \"#utility.yul\":11493:11510   */\n      add\n        /* \"#utility.yul\":11445:11524   */\n      tag_523\n      jump\t// in\n    tag_708:\n        /* \"#utility.yul\":11436:11524   */\n      swap2\n      pop\n        /* \"#utility.yul\":11252:11530   */\n      pop\n        /* \"#utility.yul\":11190:11530   */\n      swap3\n      swap2\n      pop\n      pop\n      jump\t// out\n        /* \"#utility.yul\":11536:12045   */\n    tag_92:\n        /* \"#utility.yul\":11605:11611   */\n      0x00\n        /* \"#utility.yul\":11654:11656   */\n      0x20\n        /* \"#utility.yul\":11642:11651   */\n      dup3\n        /* \"#utility.yul\":11633:11640   */\n      dup5\n        /* \"#utility.yul\":11629:11652   */\n      sub\n        /* \"#utility.yul\":11625:11657   */\n      slt\n        /* \"#utility.yul\":11622:11741   */\n      iszero\n      tag_710\n      jumpi\n        /* \"#utility.yul\":11660:11739   */\n      tag_711\n      tag_486\n      jump\t// in\n    tag_711:\n        /* \"#utility.yul\":11622:11741   */\n    tag_710:\n        /* \"#utility.yul\":11808:11809   */\n      0x00\n        /* \"#utility.yul\":11797:11806   */\n      dup3\n        /* \"#utility.yul\":11793:11810   */\n      add\n        /* \"#utility.yul\":11780:11811   */\n      calldataload\n        /* \"#utility.yul\":11838:11856   */\n      0xffffffffffffffff\n        /* \"#utility.yul\":11830:11836   */\n      dup2\n        /* \"#utility.yul\":11827:11857   */\n      gt\n        /* \"#utility.yul\":11824:11941   */\n      iszero\n      tag_712\n      jumpi\n        /* \"#utility.yul\":11860:11939   */\n      tag_713\n      tag_487\n      jump\t// in\n    tag_713:\n        /* \"#utility.yul\":11824:11941   */\n    tag_712:\n        /* \"#utility.yul\":11965:12028   */\n      tag_714\n        /* \"#utility.yul\":12020:12027   */\n      dup5\n        /* \"#utility.yul\":12011:12017   */\n      dup3\n        /* \"#utility.yul\":12000:12009   */\n      dup6\n        /* \"#utility.yul\":11996:12018   */\n      add\n        /* \"#utility.yul\":11965:12028   */\n      tag_524\n      jump\t// in\n    tag_714:\n        /* \"#utility.yul\":11955:12028   */\n      swap2\n      pop\n        /* \"#utility.yul\":11751:12038   */\n      pop\n        /* \"#utility.yul\":11536:12045   */\n      swap3\n      swap2\n      pop\n      pop\n      jump\t// out\n        /* \"#utility.yul\":12051:12141   */\n    tag_525:\n        /* \"#utility.yul\":12085:12092   */\n      0x00\n        /* \"#utility.yul\":12128:12133   */\n      dup2\n        /* \"#utility.yul\":12121:12134   */\n      iszero\n        /* \"#utility.yul\":12114:12135   */\n      iszero\n        /* \"#utility.yul\":12103:12135   */\n      swap1\n      pop\n        /* \"#utility.yul\":12051:12141   */\n      swap2\n      swap1\n      pop\n      jump\t// out\n        /* \"#utility.yul\":12147:12256   */\n    tag_526:\n        /* \"#utility.yul\":12228:12249   */\n      tag_717\n        /* \"#utility.yul\":12243:12248   */\n      dup2\n        /* \"#utility.yul\":12228:12249   */\n      tag_525\n      jump\t// in\n    tag_717:\n        /* \"#utility.yul\":12223:12226   */\n      dup3\n        /* \"#utility.yul\":12216:12250   */\n      mstore\n        /* \"#utility.yul\":12147:12256   */\n      pop\n      pop\n      jump\t// out\n        /* \"#utility.yul\":12262:12472   */\n    tag_102:\n        /* \"#utility.yul\":12349:12353   */\n      0x00\n        /* \"#utility.yul\":12387:12389   */\n      0x20\n        /* \"#utility.yul\":12376:12385   */\n      dup3\n        /* \"#utility.yul\":12372:12390   */\n      add\n        /* \"#utility.yul\":12364:12390   */\n      swap1\n      pop\n        /* \"#utility.yul\":12400:12465   */\n      tag_719\n        /* \"#utility.yul\":12462:12463   */\n      0x00\n        /* \"#utility.yul\":12451:12460   */\n      dup4\n        /* \"#utility.yul\":12447:12464   */\n      add\n        /* \"#utility.yul\":12438:12444   */\n      dup5\n        /* \"#utility.yul\":12400:12465   */\n      tag_526\n      jump\t// in\n    tag_719:\n        /* \"#utility.yul\":12262:12472   */\n      swap3\n      swap2\n      pop\n      pop\n      jump\t// out\n        /* \"#utility.yul\":12478:12647   */\n    tag_527:\n        /* \"#utility.yul\":12562:12573   */\n      0x00\n        /* \"#utility.yul\":12596:12602   */\n      dup3\n        /* \"#utility.yul\":12591:12594   */\n      dup3\n        /* \"#utility.yul\":12584:12603   */\n      mstore\n        /* \"#utility.yul\":12636:12640   */\n      0x20\n        /* \"#utility.yul\":12631:12634   */\n      dup3\n        /* \"#utility.yul\":12627:12641   */\n      add\n        /* \"#utility.yul\":12612:12641   */\n      swap1\n      pop\n        /* \"#utility.yul\":12478:12647   */\n      swap3\n      swap2\n      pop\n      pop\n      jump\t// out\n        /* \"#utility.yul\":12653:13030   */\n    tag_528:\n        /* \"#utility.yul\":12741:12744   */\n      0x00\n        /* \"#utility.yul\":12769:12808   */\n      tag_722\n        /* \"#utility.yul\":12802:12807   */\n      dup3\n        /* \"#utility.yul\":12769:12808   */\n      tag_499\n      jump\t// in\n    tag_722:\n        /* \"#utility.yul\":12824:12895   */\n      tag_723\n        /* \"#utility.yul\":12888:12894   */\n      dup2\n        /* \"#utility.yul\":12883:12886   */\n      dup6\n        /* \"#utility.yul\":12824:12895   */\n      tag_527\n      jump\t// in\n    tag_723:\n        /* \"#utility.yul\":12817:12895   */\n      swap4\n      pop\n        /* \"#utility.yul\":12904:12969   */\n      tag_724\n        /* \"#utility.yul\":12962:12968   */\n      dup2\n        /* \"#utility.yul\":12957:12960   */\n      dup6\n        /* \"#utility.yul\":12950:12954   */\n      0x20\n        /* \"#utility.yul\":12943:12948   */\n      dup7\n        /* \"#utility.yul\":12939:12955   */\n      add\n        /* \"#utility.yul\":12904:12969   */\n      tag_501\n      jump\t// in\n    tag_724:\n        /* \"#utility.yul\":12994:13023   */\n      tag_725\n        /* \"#utility.yul\":13016:13022   */\n      dup2\n        /* \"#utility.yul\":12994:13023   */\n      tag_502\n      jump\t// in\n    tag_725:\n        /* \"#utility.yul\":12989:12992   */\n      dup5\n        /* \"#utility.yul\":12985:13024   */\n      add\n        /* \"#utility.yul\":12978:13024   */\n      swap2\n      pop\n        /* \"#utility.yul\":12745:13030   */\n      pop\n        /* \"#utility.yul\":12653:13030   */\n      swap3\n      swap2\n      pop\n      pop\n      jump\t// out\n        /* \"#utility.yul\":13036:13349   */\n    tag_106:\n        /* \"#utility.yul\":13149:13153   */\n      0x00\n        /* \"#utility.yul\":13187:13189   */\n      0x20\n        /* \"#utility.yul\":13176:13185   */\n      dup3\n        /* \"#utility.yul\":13172:13190   */\n      add\n        /* \"#utility.yul\":13164:13190   */\n      swap1\n      pop\n        /* \"#utility.yul\":13236:13245   */\n      dup2\n        /* \"#utility.yul\":13230:13234   */\n      dup2\n        /* \"#utility.yul\":13226:13246   */\n      sub\n        /* \"#utility.yul\":13222:13223   */\n      0x00\n        /* \"#utility.yul\":13211:13220   */\n      dup4\n        /* \"#utility.yul\":13207:13224   */\n      add\n        /* \"#utility.yul\":13200:13247   */\n      mstore\n        /* \"#utility.yul\":13264:13342   */\n      tag_727\n        /* \"#utility.yul\":13337:13341   */\n      dup2\n        /* \"#utility.yul\":13328:13334   */\n      dup5\n        /* \"#utility.yul\":13264:13342   */\n      tag_528\n      jump\t// in\n    tag_727:\n        /* \"#utility.yul\":13256:13342   */\n      swap1\n      pop\n        /* \"#utility.yul\":13036:13349   */\n      swap3\n      swap2\n      pop\n      pop\n      jump\t// out\n        /* \"#utility.yul\":13355:13469   */\n    tag_529:\n        /* \"#utility.yul\":13422:13428   */\n      0x00\n        /* \"#utility.yul\":13456:13461   */\n      dup2\n        /* \"#utility.yul\":13450:13462   */\n      mload\n        /* \"#utility.yul\":13440:13462   */\n      swap1\n      pop\n        /* \"#utility.yul\":13355:13469   */\n      swap2\n      swap1\n      pop\n      jump\t// out\n        /* \"#utility.yul\":13475:13659   */\n    tag_530:\n        /* \"#utility.yul\":13574:13585   */\n      0x00\n        /* \"#utility.yul\":13608:13614   */\n      dup3\n        /* \"#utility.yul\":13603:13606   */\n      dup3\n        /* \"#utility.yul\":13596:13615   */\n      mstore\n        /* \"#utility.yul\":13648:13652   */\n      0x20\n        /* \"#utility.yul\":13643:13646   */\n      dup3\n        /* \"#utility.yul\":13639:13653   */\n      add\n        /* \"#utility.yul\":13624:13653   */\n      swap1\n      pop\n        /* \"#utility.yul\":13475:13659   */\n      swap3\n      swap2\n      pop\n      pop\n      jump\t// out\n        /* \"#utility.yul\":13665:13797   */\n    tag_531:\n        /* \"#utility.yul\":13732:13736   */\n      0x00\n        /* \"#utility.yul\":13755:13758   */\n      dup2\n        /* \"#utility.yul\":13747:13758   */\n      swap1\n      pop\n        /* \"#utility.yul\":13785:13789   */\n      0x20\n        /* \"#utility.yul\":13780:13783   */\n      dup3\n        /* \"#utility.yul\":13776:13790   */\n      add\n        /* \"#utility.yul\":13768:13790   */\n      swap1\n      pop\n        /* \"#utility.yul\":13665:13797   */\n      swap2\n      swap1\n      pop\n      jump\t// out\n        /* \"#utility.yul\":13803:13982   */\n    tag_532:\n        /* \"#utility.yul\":13872:13882   */\n      0x00\n        /* \"#utility.yul\":13893:13939   */\n      tag_732\n        /* \"#utility.yul\":13935:13938   */\n      dup4\n        /* \"#utility.yul\":13927:13933   */\n      dup4\n        /* \"#utility.yul\":13893:13939   */\n      tag_505\n      jump\t// in\n    tag_732:\n        /* \"#utility.yul\":13971:13975   */\n      0x20\n        /* \"#utility.yul\":13966:13969   */\n      dup4\n        /* \"#utility.yul\":13962:13976   */\n      add\n        /* \"#utility.yul\":13948:13976   */\n      swap1\n      pop\n        /* \"#utility.yul\":13803:13982   */\n      swap3\n      swap2\n      pop\n      pop\n      jump\t// out\n        /* \"#utility.yul\":13988:14101   */\n    tag_533:\n        /* \"#utility.yul\":14058:14062   */\n      0x00\n        /* \"#utility.yul\":14090:14094   */\n      0x20\n        /* \"#utility.yul\":14085:14088   */\n      dup3\n        /* \"#utility.yul\":14081:14095   */\n      add\n        /* \"#utility.yul\":14073:14095   */\n      swap1\n      pop\n        /* \"#utility.yul\":13988:14101   */\n      swap2\n      swap1\n      pop\n      jump\t// out\n        /* \"#utility.yul\":14137:14869   */\n    tag_534:\n        /* \"#utility.yul\":14256:14259   */\n      0x00\n        /* \"#utility.yul\":14285:14339   */\n      tag_735\n        /* \"#utility.yul\":14333:14338   */\n      dup3\n        /* \"#utility.yul\":14285:14339   */\n      tag_529\n      jump\t// in\n    tag_735:\n        /* \"#utility.yul\":14355:14441   */\n      tag_736\n        /* \"#utility.yul\":14434:14440   */\n      dup2\n        /* \"#utility.yul\":14429:14432   */\n      dup6\n        /* \"#utility.yul\":14355:14441   */\n      tag_530\n      jump\t// in\n    tag_736:\n        /* \"#utility.yul\":14348:14441   */\n      swap4\n      pop\n        /* \"#utility.yul\":14465:14521   */\n      tag_737\n        /* \"#utility.yul\":14515:14520   */\n      dup4\n        /* \"#utility.yul\":14465:14521   */\n      tag_531\n      jump\t// in\n    tag_737:\n        /* \"#utility.yul\":14544:14551   */\n      dup1\n        /* \"#utility.yul\":14575:14576   */\n      0x00\n        /* \"#utility.yul\":14560:14844   */\n    tag_738:\n        /* \"#utility.yul\":14585:14591   */\n      dup4\n        /* \"#utility.yul\":14582:14583   */\n      dup2\n        /* \"#utility.yul\":14579:14592   */\n      lt\n        /* \"#utility.yul\":14560:14844   */\n      iszero\n      tag_740\n      jumpi\n        /* \"#utility.yul\":14661:14667   */\n      dup2\n        /* \"#utility.yul\":14655:14668   */\n      mload\n        /* \"#utility.yul\":14688:14751   */\n      tag_741\n        /* \"#utility.yul\":14747:14750   */\n      dup9\n        /* \"#utility.yul\":14732:14745   */\n      dup3\n        /* \"#utility.yul\":14688:14751   */\n      tag_532\n      jump\t// in\n    tag_741:\n        /* \"#utility.yul\":14681:14751   */\n      swap8\n      pop\n        /* \"#utility.yul\":14774:14834   */\n      tag_742\n        /* \"#utility.yul\":14827:14833   */\n      dup4\n        /* \"#utility.yul\":14774:14834   */\n      tag_533\n      jump\t// in\n    tag_742:\n        /* \"#utility.yul\":14764:14834   */\n      swap3\n      pop\n        /* \"#utility.yul\":14620:14844   */\n      pop\n        /* \"#utility.yul\":14607:14608   */\n      0x01\n        /* \"#utility.yul\":14604:14605   */\n      dup2\n        /* \"#utility.yul\":14600:14609   */\n      add\n        /* \"#utility.yul\":14595:14609   */\n      swap1\n      pop\n        /* \"#utility.yul\":14560:14844   */\n      jump(tag_738)\n    tag_740:\n        /* \"#utility.yul\":14564:14578   */\n      pop\n        /* \"#utility.yul\":14860:14863   */\n      dup6\n        /* \"#utility.yul\":14853:14863   */\n      swap4\n      pop\n        /* \"#utility.yul\":14261:14869   */\n      pop\n      pop\n      pop\n        /* \"#utility.yul\":14137:14869   */\n      swap3\n      swap2\n      pop\n      pop\n      jump\t// out\n        /* \"#utility.yul\":14875:15248   */\n    tag_117:\n        /* \"#utility.yul\":15018:15022   */\n      0x00\n        /* \"#utility.yul\":15056:15058   */\n      0x20\n        /* \"#utility.yul\":15045:15054   */\n      dup3\n        /* \"#utility.yul\":15041:15059   */\n      add\n        /* \"#utility.yul\":15033:15059   */\n      swap1\n      pop\n        /* \"#utility.yul\":15105:15114   */\n      dup2\n        /* \"#utility.yul\":15099:15103   */\n      dup2\n        /* \"#utility.yul\":15095:15115   */\n      sub\n        /* \"#utility.yul\":15091:15092   */\n      0x00\n        /* \"#utility.yul\":15080:15089   */\n      dup4\n        /* \"#utility.yul\":15076:15093   */\n      add\n        /* \"#utility.yul\":15069:15116   */\n      mstore\n        /* \"#utility.yul\":15133:15241   */\n      tag_744\n        /* \"#utility.yul\":15236:15240   */\n      dup2\n        /* \"#utility.yul\":15227:15233   */\n      dup5\n        /* \"#utility.yul\":15133:15241   */\n      tag_534\n      jump\t// in\n    tag_744:\n        /* \"#utility.yul\":15125:15241   */\n      swap1\n      pop\n        /* \"#utility.yul\":14875:15248   */\n      swap3\n      swap2\n      pop\n      pop\n      jump\t// out\n        /* \"#utility.yul\":15254:15489   */\n    tag_535:\n        /* \"#utility.yul\":15394:15428   */\n      0x596f752063616e206f6e6c7920766f7465206966207468657265206973206d6f\n        /* \"#utility.yul\":15390:15391   */\n      0x00\n        /* \"#utility.yul\":15382:15388   */\n      dup3\n        /* \"#utility.yul\":15378:15392   */\n      add\n        /* \"#utility.yul\":15371:15429   */\n      mstore\n        /* \"#utility.yul\":15463:15481   */\n      0x7265207468616e20312077696e6e657200000000000000000000000000000000\n        /* \"#utility.yul\":15458:15460   */\n      0x20\n        /* \"#utility.yul\":15450:15456   */\n      dup3\n        /* \"#utility.yul\":15446:15461   */\n      add\n        /* \"#utility.yul\":15439:15482   */\n      mstore\n        /* \"#utility.yul\":15254:15489   */\n      pop\n      jump\t// out\n        /* \"#utility.yul\":15495:15861   */\n    tag_536:\n        /* \"#utility.yul\":15637:15640   */\n      0x00\n        /* \"#utility.yul\":15658:15725   */\n      tag_747\n        /* \"#utility.yul\":15722:15724   */\n      0x30\n        /* \"#utility.yul\":15717:15720   */\n      dup4\n        /* \"#utility.yul\":15658:15725   */\n      tag_527\n      jump\t// in\n    tag_747:\n        /* \"#utility.yul\":15651:15725   */\n      swap2\n      pop\n        /* \"#utility.yul\":15734:15827   */\n      tag_748\n        /* \"#utility.yul\":15823:15826   */\n      dup3\n        /* \"#utility.yul\":15734:15827   */\n      tag_535\n      jump\t// in\n    tag_748:\n        /* \"#utility.yul\":15852:15854   */\n      0x40\n        /* \"#utility.yul\":15847:15850   */\n      dup3\n        /* \"#utility.yul\":15843:15855   */\n      add\n        /* \"#utility.yul\":15836:15855   */\n      swap1\n      pop\n        /* \"#utility.yul\":15495:15861   */\n      swap2\n      swap1\n      pop\n      jump\t// out\n        /* \"#utility.yul\":15867:16286   */\n    tag_135:\n        /* \"#utility.yul\":16033:16037   */\n      0x00\n        /* \"#utility.yul\":16071:16073   */\n      0x20\n        /* \"#utility.yul\":16060:16069   */\n      dup3\n        /* \"#utility.yul\":16056:16074   */\n      add\n        /* \"#utility.yul\":16048:16074   */\n      swap1\n      pop\n        /* \"#utility.yul\":16120:16129   */\n      dup2\n        /* \"#utility.yul\":16114:16118   */\n      dup2\n        /* \"#utility.yul\":16110:16130   */\n      sub\n        /* \"#utility.yul\":16106:16107   */\n      0x00\n        /* \"#utility.yul\":16095:16104   */\n      dup4\n        /* \"#utility.yul\":16091:16108   */\n      add\n        /* \"#utility.yul\":16084:16131   */\n      mstore\n        /* \"#utility.yul\":16148:16279   */\n      tag_750\n        /* \"#utility.yul\":16274:16278   */\n      dup2\n        /* \"#utility.yul\":16148:16279   */\n      tag_536\n      jump\t// in\n    tag_750:\n        /* \"#utility.yul\":16140:16279   */\n      swap1\n      pop\n        /* \"#utility.yul\":15867:16286   */\n      swap2\n      swap1\n      pop\n      jump\t// out\n        /* \"#utility.yul\":16292:16512   */\n    tag_537:\n        /* \"#utility.yul\":16432:16466   */\n      0x54686520766f74696e672073657373696f6e206973206e6f7420737461727465\n        /* \"#utility.yul\":16428:16429   */\n      0x00\n        /* \"#utility.yul\":16420:16426   */\n      dup3\n        /* \"#utility.yul\":16416:16430   */\n      add\n        /* \"#utility.yul\":16409:16467   */\n      mstore\n        /* \"#utility.yul\":16501:16504   */\n      0x6400000000000000000000000000000000000000000000000000000000000000\n        /* \"#utility.yul\":16496:16498   */\n      0x20\n        /* \"#utility.yul\":16488:16494   */\n      dup3\n        /* \"#utility.yul\":16484:16499   */\n      add\n        /* \"#utility.yul\":16477:16505   */\n      mstore\n        /* \"#utility.yul\":16292:16512   */\n      pop\n      jump\t// out\n        /* \"#utility.yul\":16518:16884   */\n    tag_538:\n        /* \"#utility.yul\":16660:16663   */\n      0x00\n        /* \"#utility.yul\":16681:16748   */\n      tag_753\n        /* \"#utility.yul\":16745:16747   */\n      0x21\n        /* \"#utility.yul\":16740:16743   */\n      dup4\n        /* \"#utility.yul\":16681:16748   */\n      tag_527\n      jump\t// in\n    tag_753:\n        /* \"#utility.yul\":16674:16748   */\n      swap2\n      pop\n        /* \"#utility.yul\":16757:16850   */\n      tag_754\n        /* \"#utility.yul\":16846:16849   */\n      dup3\n        /* \"#utility.yul\":16757:16850   */\n      tag_537\n      jump\t// in\n    tag_754:\n        /* \"#utility.yul\":16875:16877   */\n      0x40\n        /* \"#utility.yul\":16870:16873   */\n      dup3\n        /* \"#utility.yul\":16866:16878   */\n      add\n        /* \"#utility.yul\":16859:16878   */\n      swap1\n      pop\n        /* \"#utility.yul\":16518:16884   */\n      swap2\n      swap1\n      pop\n      jump\t// out\n        /* \"#utility.yul\":16890:17309   */\n    tag_144:\n        /* \"#utility.yul\":17056:17060   */\n      0x00\n        /* \"#utility.yul\":17094:17096   */\n      0x20\n        /* \"#utility.yul\":17083:17092   */\n      dup3\n        /* \"#utility.yul\":17079:17097   */\n      add\n        /* \"#utility.yul\":17071:17097   */\n      swap1\n      pop\n        /* \"#utility.yul\":17143:17152   */\n      dup2\n        /* \"#utility.yul\":17137:17141   */\n      dup2\n        /* \"#utility.yul\":17133:17153   */\n      sub\n        /* \"#utility.yul\":17129:17130   */\n      0x00\n        /* \"#utility.yul\":17118:17127   */\n      dup4\n        /* \"#utility.yul\":17114:17131   */\n      add\n        /* \"#utility.yul\":17107:17154   */\n      mstore\n        /* \"#utility.yul\":17171:17302   */\n      tag_756\n        /* \"#utility.yul\":17297:17301   */\n      dup2\n        /* \"#utility.yul\":17171:17302   */\n      tag_538\n      jump\t// in\n    tag_756:\n        /* \"#utility.yul\":17163:17302   */\n      swap1\n      pop\n        /* \"#utility.yul\":16890:17309   */\n      swap2\n      swap1\n      pop\n      jump\t// out\n        /* \"#utility.yul\":17315:17487   */\n    tag_539:\n        /* \"#utility.yul\":17455:17479   */\n      0x596f7520617265206e6f74207265676973746572656400000000000000000000\n        /* \"#utility.yul\":17451:17452   */\n      0x00\n        /* \"#utility.yul\":17443:17449   */\n      dup3\n        /* \"#utility.yul\":17439:17453   */\n      add\n        /* \"#utility.yul\":17432:17480   */\n      mstore\n        /* \"#utility.yul\":17315:17487   */\n      pop\n      jump\t// out\n        /* \"#utility.yul\":17493:17859   */\n    tag_540:\n        /* \"#utility.yul\":17635:17638   */\n      0x00\n        /* \"#utility.yul\":17656:17723   */\n      tag_759\n        /* \"#utility.yul\":17720:17722   */\n      0x16\n        /* \"#utility.yul\":17715:17718   */\n      dup4\n        /* \"#utility.yul\":17656:17723   */\n      tag_527\n      jump\t// in\n    tag_759:\n        /* \"#utility.yul\":17649:17723   */\n      swap2\n      pop\n        /* \"#utility.yul\":17732:17825   */\n      tag_760\n        /* \"#utility.yul\":17821:17824   */\n      dup3\n        /* \"#utility.yul\":17732:17825   */\n      tag_539\n      jump\t// in\n    tag_760:\n        /* \"#utility.yul\":17850:17852   */\n      0x20\n        /* \"#utility.yul\":17845:17848   */\n      dup3\n        /* \"#utility.yul\":17841:17853   */\n      add\n        /* \"#utility.yul\":17834:17853   */\n      swap1\n      pop\n        /* \"#utility.yul\":17493:17859   */\n      swap2\n      swap1\n      pop\n      jump\t// out\n        /* \"#utility.yul\":17865:18284   */\n    tag_148:\n        /* \"#utility.yul\":18031:18035   */\n      0x00\n        /* \"#utility.yul\":18069:18071   */\n      0x20\n        /* \"#utility.yul\":18058:18067   */\n      dup3\n        /* \"#utility.yul\":18054:18072   */\n      add\n        /* \"#utility.yul\":18046:18072   */\n      swap1\n      pop\n        /* \"#utility.yul\":18118:18127   */\n      dup2\n        /* \"#utility.yul\":18112:18116   */\n      dup2\n        /* \"#utility.yul\":18108:18128   */\n      sub\n        /* \"#utility.yul\":18104:18105   */\n      0x00\n        /* \"#utility.yul\":18093:18102   */\n      dup4\n        /* \"#utility.yul\":18089:18106   */\n      add\n        /* \"#utility.yul\":18082:18129   */\n      mstore\n        /* \"#utility.yul\":18146:18277   */\n      tag_762\n        /* \"#utility.yul\":18272:18276   */\n      dup2\n        /* \"#utility.yul\":18146:18277   */\n      tag_540\n      jump\t// in\n    tag_762:\n        /* \"#utility.yul\":18138:18277   */\n      swap1\n      pop\n        /* \"#utility.yul\":17865:18284   */\n      swap2\n      swap1\n      pop\n      jump\t// out\n        /* \"#utility.yul\":18290:18457   */\n    tag_541:\n        /* \"#utility.yul\":18430:18449   */\n      0x596f7520616c726561647920766f746564000000000000000000000000000000\n        /* \"#utility.yul\":18426:18427   */\n      0x00\n        /* \"#utility.yul\":18418:18424   */\n      dup3\n        /* \"#utility.yul\":18414:18428   */\n      add\n        /* \"#utility.yul\":18407:18450   */\n      mstore\n        /* \"#utility.yul\":18290:18457   */\n      pop\n      jump\t// out\n        /* \"#utility.yul\":18463:18829   */\n    tag_542:\n        /* \"#utility.yul\":18605:18608   */\n      0x00\n        /* \"#utility.yul\":18626:18693   */\n      tag_765\n        /* \"#utility.yul\":18690:18692   */\n      0x11\n        /* \"#utility.yul\":18685:18688   */\n      dup4\n        /* \"#utility.yul\":18626:18693   */\n      tag_527\n      jump\t// in\n    tag_765:\n        /* \"#utility.yul\":18619:18693   */\n      swap2\n      pop\n        /* \"#utility.yul\":18702:18795   */\n      tag_766\n        /* \"#utility.yul\":18791:18794   */\n      dup3\n        /* \"#utility.yul\":18702:18795   */\n      tag_541\n      jump\t// in\n    tag_766:\n        /* \"#utility.yul\":18820:18822   */\n      0x20\n        /* \"#utility.yul\":18815:18818   */\n      dup3\n        /* \"#utility.yul\":18811:18823   */\n      add\n        /* \"#utility.yul\":18804:18823   */\n      swap1\n      pop\n        /* \"#utility.yul\":18463:18829   */\n      swap2\n      swap1\n      pop\n      jump\t// out\n        /* \"#utility.yul\":18835:19254   */\n    tag_151:\n        /* \"#utility.yul\":19001:19005   */\n      0x00\n        /* \"#utility.yul\":19039:19041   */\n      0x20\n        /* \"#utility.yul\":19028:19037   */\n      dup3\n        /* \"#utility.yul\":19024:19042   */\n      add\n        /* \"#utility.yul\":19016:19042   */\n      swap1\n      pop\n        /* \"#utility.yul\":19088:19097   */\n      dup2\n        /* \"#utility.yul\":19082:19086   */\n      dup2\n        /* \"#utility.yul\":19078:19098   */\n      sub\n        /* \"#utility.yul\":19074:19075   */\n      0x00\n        /* \"#utility.yul\":19063:19072   */\n      dup4\n        /* \"#utility.yul\":19059:19076   */\n      add\n        /* \"#utility.yul\":19052:19099   */\n      mstore\n        /* \"#utility.yul\":19116:19247   */\n      tag_768\n        /* \"#utility.yul\":19242:19246   */\n      dup2\n        /* \"#utility.yul\":19116:19247   */\n      tag_542\n      jump\t// in\n    tag_768:\n        /* \"#utility.yul\":19108:19247   */\n      swap1\n      pop\n        /* \"#utility.yul\":18835:19254   */\n      swap2\n      swap1\n      pop\n      jump\t// out\n        /* \"#utility.yul\":19260:19442   */\n    tag_543:\n        /* \"#utility.yul\":19400:19434   */\n      0x546869732070726f706f73616c20494420646f6573206e6f7420657869737473\n        /* \"#utility.yul\":19396:19397   */\n      0x00\n        /* \"#utility.yul\":19388:19394   */\n      dup3\n        /* \"#utility.yul\":19384:19398   */\n      add\n        /* \"#utility.yul\":19377:19435   */\n      mstore\n        /* \"#utility.yul\":19260:19442   */\n      pop\n      jump\t// out\n        /* \"#utility.yul\":19448:19814   */\n    tag_544:\n        /* \"#utility.yul\":19590:19593   */\n      0x00\n        /* \"#utility.yul\":19611:19678   */\n      tag_771\n        /* \"#utility.yul\":19675:19677   */\n      0x20\n        /* \"#utility.yul\":19670:19673   */\n      dup4\n        /* \"#utility.yul\":19611:19678   */\n      tag_527\n      jump\t// in\n    tag_771:\n        /* \"#utility.yul\":19604:19678   */\n      swap2\n      pop\n        /* \"#utility.yul\":19687:19780   */\n      tag_772\n        /* \"#utility.yul\":19776:19779   */\n      dup3\n        /* \"#utility.yul\":19687:19780   */\n      tag_543\n      jump\t// in\n    tag_772:\n        /* \"#utility.yul\":19805:19807   */\n      0x20\n        /* \"#utility.yul\":19800:19803   */\n      dup3\n        /* \"#utility.yul\":19796:19808   */\n      add\n        /* \"#utility.yul\":19789:19808   */\n      swap1\n      pop\n        /* \"#utility.yul\":19448:19814   */\n      swap2\n      swap1\n      pop\n      jump\t// out\n        /* \"#utility.yul\":19820:20239   */\n    tag_155:\n        /* \"#utility.yul\":19986:19990   */\n      0x00\n        /* \"#utility.yul\":20024:20026   */\n      0x20\n        /* \"#utility.yul\":20013:20022   */\n      dup3\n        /* \"#utility.yul\":20009:20027   */\n      add\n        /* \"#utility.yul\":20001:20027   */\n      swap1\n      pop\n        /* \"#utility.yul\":20073:20082   */\n      dup2\n        /* \"#utility.yul\":20067:20071   */\n      dup2\n        /* \"#utility.yul\":20063:20083   */\n      sub\n        /* \"#utility.yul\":20059:20060   */\n      0x00\n        /* \"#utility.yul\":20048:20057   */\n      dup4\n        /* \"#utility.yul\":20044:20061   */\n      add\n        /* \"#utility.yul\":20037:20084   */\n      mstore\n        /* \"#utility.yul\":20101:20232   */\n      tag_774\n        /* \"#utility.yul\":20227:20231   */\n      dup2\n        /* \"#utility.yul\":20101:20232   */\n      tag_544\n      jump\t// in\n    tag_774:\n        /* \"#utility.yul\":20093:20232   */\n      swap1\n      pop\n        /* \"#utility.yul\":19820:20239   */\n      swap2\n      swap1\n      pop\n      jump\t// out\n        /* \"#utility.yul\":20245:20425   */\n    tag_158:\n        /* \"#utility.yul\":20293:20370   */\n      0x4e487b7100000000000000000000000000000000000000000000000000000000\n        /* \"#utility.yul\":20290:20291   */\n      0x00\n        /* \"#utility.yul\":20283:20371   */\n      mstore\n        /* \"#utility.yul\":20390:20394   */\n      0x32\n        /* \"#utility.yul\":20387:20388   */\n      0x04\n        /* \"#utility.yul\":20380:20395   */\n      mstore\n        /* \"#utility.yul\":20414:20418   */\n      0x24\n        /* \"#utility.yul\":20411:20412   */\n      0x00\n        /* \"#utility.yul\":20404:20419   */\n      revert\n        /* \"#utility.yul\":20431:20611   */\n    tag_545:\n        /* \"#utility.yul\":20479:20556   */\n      0x4e487b7100000000000000000000000000000000000000000000000000000000\n        /* \"#utility.yul\":20476:20477   */\n      0x00\n        /* \"#utility.yul\":20469:20557   */\n      mstore\n        /* \"#utility.yul\":20576:20580   */\n      0x11\n        /* \"#utility.yul\":20573:20574   */\n      0x04\n        /* \"#utility.yul\":20566:20581   */\n      mstore\n        /* \"#utility.yul\":20600:20604   */\n      0x24\n        /* \"#utility.yul\":20597:20598   */\n      0x00\n        /* \"#utility.yul\":20590:20605   */\n      revert\n        /* \"#utility.yul\":20617:20850   */\n    tag_161:\n        /* \"#utility.yul\":20656:20659   */\n      0x00\n        /* \"#utility.yul\":20679:20703   */\n      tag_778\n        /* \"#utility.yul\":20697:20702   */\n      dup3\n        /* \"#utility.yul\":20679:20703   */\n      tag_488\n      jump\t// in\n    tag_778:\n        /* \"#utility.yul\":20670:20703   */\n      swap2\n      pop\n        /* \"#utility.yul\":20725:20791   */\n      0xffffffffffffffffffffffffffffffffffffffffffffffffffffffffffffffff\n        /* \"#utility.yul\":20718:20723   */\n      dup3\n        /* \"#utility.yul\":20715:20792   */\n      sub\n        /* \"#utility.yul\":20712:20815   */\n      tag_779\n      jumpi\n        /* \"#utility.yul\":20795:20813   */\n      tag_780\n      tag_545\n      jump\t// in\n    tag_780:\n        /* \"#utility.yul\":20712:20815   */\n    tag_779:\n        /* \"#utility.yul\":20842:20843   */\n      0x01\n        /* \"#utility.yul\":20835:20840   */\n      dup3\n        /* \"#utility.yul\":20831:20844   */\n      add\n        /* \"#utility.yul\":20824:20844   */\n      swap1\n      pop\n        /* \"#utility.yul\":20617:20850   */\n      swap2\n      swap1\n      pop\n      jump\t// out\n        /* \"#utility.yul\":20856:21188   */\n    tag_164:\n        /* \"#utility.yul\":20977:20981   */\n      0x00\n        /* \"#utility.yul\":21015:21017   */\n      0x40\n        /* \"#utility.yul\":21004:21013   */\n      dup3\n        /* \"#utility.yul\":21000:21018   */\n      add\n        /* \"#utility.yul\":20992:21018   */\n      swap1\n      pop\n        /* \"#utility.yul\":21028:21099   */\n      tag_782\n        /* \"#utility.yul\":21096:21097   */\n      0x00\n        /* \"#utility.yul\":21085:21094   */\n      dup4\n        /* \"#utility.yul\":21081:21098   */\n      add\n        /* \"#utility.yul\":21072:21078   */\n      dup6\n        /* \"#utility.yul\":21028:21099   */\n      tag_510\n      jump\t// in\n    tag_782:\n        /* \"#utility.yul\":21109:21181   */\n      tag_783\n        /* \"#utility.yul\":21177:21179   */\n      0x20\n        /* \"#utility.yul\":21166:21175   */\n      dup4\n        /* \"#utility.yul\":21162:21180   */\n      add\n        /* \"#utility.yul\":21153:21159   */\n      dup5\n        /* \"#utility.yul\":21109:21181   */\n      tag_491\n      jump\t// in\n    tag_783:\n        /* \"#utility.yul\":20856:21188   */\n      swap4\n      swap3\n      pop\n      pop\n      pop\n      jump\t// out\n        /* \"#utility.yul\":21194:21421   */\n    tag_546:\n        /* \"#utility.yul\":21334:21368   */\n      0x596f7520617265206e6f7420696e20766f74657220726567697374726174696f\n        /* \"#utility.yul\":21330:21331   */\n      0x00\n        /* \"#utility.yul\":21322:21328   */\n      dup3\n        /* \"#utility.yul\":21318:21332   */\n      add\n        /* \"#utility.yul\":21311:21369   */\n      mstore\n        /* \"#utility.yul\":21403:21413   */\n      0x6e20706572696f64000000000000000000000000000000000000000000000000\n        /* \"#utility.yul\":21398:21400   */\n      0x20\n        /* \"#utility.yul\":21390:21396   */\n      dup3\n        /* \"#utility.yul\":21386:21401   */\n      add\n        /* \"#utility.yul\":21379:21414   */\n      mstore\n        /* \"#utility.yul\":21194:21421   */\n      pop\n      jump\t// out\n        /* \"#utility.yul\":21427:21793   */\n    tag_547:\n        /* \"#utility.yul\":21569:21572   */\n      0x00\n        /* \"#utility.yul\":21590:21657   */\n      tag_786\n        /* \"#utility.yul\":21654:21656   */\n      0x28\n        /* \"#utility.yul\":21649:21652   */\n      dup4\n        /* \"#utility.yul\":21590:21657   */\n      tag_527\n      jump\t// in\n    tag_786:\n        /* \"#utility.yul\":21583:21657   */\n      swap2\n      pop\n        /* \"#utility.yul\":21666:21759   */\n      tag_787\n        /* \"#utility.yul\":21755:21758   */\n      dup3\n        /* \"#utility.yul\":21666:21759   */\n      tag_546\n      jump\t// in\n    tag_787:\n        /* \"#utility.yul\":21784:21786   */\n      0x40\n        /* \"#utility.yul\":21779:21782   */\n      dup3\n        /* \"#utility.yul\":21775:21787   */\n      add\n        /* \"#utility.yul\":21768:21787   */\n      swap1\n      pop\n        /* \"#utility.yul\":21427:21793   */\n      swap2\n      swap1\n      pop\n      jump\t// out\n        /* \"#utility.yul\":21799:22218   */\n    tag_176:\n        /* \"#utility.yul\":21965:21969   */\n      0x00\n        /* \"#utility.yul\":22003:22005   */\n      0x20\n        /* \"#utility.yul\":21992:22001   */\n      dup3\n        /* \"#utility.yul\":21988:22006   */\n      add\n        /* \"#utility.yul\":21980:22006   */\n      swap1\n      pop\n        /* \"#utility.yul\":22052:22061   */\n      dup2\n        /* \"#utility.yul\":22046:22050   */\n      dup2\n        /* \"#utility.yul\":22042:22062   */\n      sub\n        /* \"#utility.yul\":22038:22039   */\n      0x00\n        /* \"#utility.yul\":22027:22036   */\n      dup4\n        /* \"#utility.yul\":22023:22040   */\n      add\n        /* \"#utility.yul\":22016:22063   */\n      mstore\n        /* \"#utility.yul\":22080:22211   */\n      tag_789\n        /* \"#utility.yul\":22206:22210   */\n      dup2\n        /* \"#utility.yul\":22080:22211   */\n      tag_547\n      jump\t// in\n    tag_789:\n        /* \"#utility.yul\":22072:22211   */\n      swap1\n      pop\n        /* \"#utility.yul\":21799:22218   */\n      swap2\n      swap1\n      pop\n      jump\t// out\n        /* \"#utility.yul\":22224:22406   */\n    tag_548:\n        /* \"#utility.yul\":22364:22398   */\n      0x596f7520616c7265616479206861766520616464207468697320616472657373\n        /* \"#utility.yul\":22360:22361   */\n      0x00\n        /* \"#utility.yul\":22352:22358   */\n      dup3\n        /* \"#utility.yul\":22348:22362   */\n      add\n        /* \"#utility.yul\":22341:22399   */\n      mstore\n        /* \"#utility.yul\":22224:22406   */\n      pop\n      jump\t// out\n        /* \"#utility.yul\":22412:22778   */\n    tag_549:\n        /* \"#utility.yul\":22554:22557   */\n      0x00\n        /* \"#utility.yul\":22575:22642   */\n      tag_792\n        /* \"#utility.yul\":22639:22641   */\n      0x20\n        /* \"#utility.yul\":22634:22637   */\n      dup4\n        /* \"#utility.yul\":22575:22642   */\n      tag_527\n      jump\t// in\n    tag_792:\n        /* \"#utility.yul\":22568:22642   */\n      swap2\n      pop\n        /* \"#utility.yul\":22651:22744   */\n      tag_793\n        /* \"#utility.yul\":22740:22743   */\n      dup3\n        /* \"#utility.yul\":22651:22744   */\n      tag_548\n      jump\t// in\n    tag_793:\n        /* \"#utility.yul\":22769:22771   */\n      0x20\n        /* \"#utility.yul\":22764:22767   */\n      dup3\n        /* \"#utility.yul\":22760:22772   */\n      add\n        /* \"#utility.yul\":22753:22772   */\n      swap1\n      pop\n        /* \"#utility.yul\":22412:22778   */\n      swap2\n      swap1\n      pop\n      jump\t// out\n        /* \"#utility.yul\":22784:23203   */\n    tag_180:\n        /* \"#utility.yul\":22950:22954   */\n      0x00\n        /* \"#utility.yul\":22988:22990   */\n      0x20\n        /* \"#utility.yul\":22977:22986   */\n      dup3\n        /* \"#utility.yul\":22973:22991   */\n      add\n        /* \"#utility.yul\":22965:22991   */\n      swap1\n      pop\n        /* \"#utility.yul\":23037:23046   */\n      dup2\n        /* \"#utility.yul\":23031:23035   */\n      dup2\n        /* \"#utility.yul\":23027:23047   */\n      sub\n        /* \"#utility.yul\":23023:23024   */\n      0x00\n        /* \"#utility.yul\":23012:23021   */\n      dup4\n        /* \"#utility.yul\":23008:23025   */\n      add\n        /* \"#utility.yul\":23001:23048   */\n      mstore\n        /* \"#utility.yul\":23065:23196   */\n      tag_795\n        /* \"#utility.yul\":23191:23195   */\n      dup2\n        /* \"#utility.yul\":23065:23196   */\n      tag_549\n      jump\t// in\n    tag_795:\n        /* \"#utility.yul\":23057:23196   */\n      swap1\n      pop\n        /* \"#utility.yul\":22784:23203   */\n      swap2\n      swap1\n      pop\n      jump\t// out\n        /* \"#utility.yul\":23209:23440   */\n    tag_550:\n        /* \"#utility.yul\":23349:23383   */\n      0x596f752063616e206e6f7420737461727420616761696e207468652070726f70\n        /* \"#utility.yul\":23345:23346   */\n      0x00\n        /* \"#utility.yul\":23337:23343   */\n      dup3\n        /* \"#utility.yul\":23333:23347   */\n      add\n        /* \"#utility.yul\":23326:23384   */\n      mstore\n        /* \"#utility.yul\":23418:23432   */\n      0x6f73616c2073657373696f6e0000000000000000000000000000000000000000\n        /* \"#utility.yul\":23413:23415   */\n      0x20\n        /* \"#utility.yul\":23405:23411   */\n      dup3\n        /* \"#utility.yul\":23401:23416   */\n      add\n        /* \"#utility.yul\":23394:23433   */\n      mstore\n        /* \"#utility.yul\":23209:23440   */\n      pop\n      jump\t// out\n        /* \"#utility.yul\":23446:23812   */\n    tag_551:\n        /* \"#utility.yul\":23588:23591   */\n      0x00\n        /* \"#utility.yul\":23609:23676   */\n      tag_798\n        /* \"#utility.yul\":23673:23675   */\n      0x2c\n        /* \"#utility.yul\":23668:23671   */\n      dup4\n        /* \"#utility.yul\":23609:23676   */\n      tag_527\n      jump\t// in\n    tag_798:\n        /* \"#utility.yul\":23602:23676   */\n      swap2\n      pop\n        /* \"#utility.yul\":23685:23778   */\n      tag_799\n        /* \"#utility.yul\":23774:23777   */\n      dup3\n        /* \"#utility.yul\":23685:23778   */\n      tag_550\n      jump\t// in\n    tag_799:\n        /* \"#utility.yul\":23803:23805   */\n      0x40\n        /* \"#utility.yul\":23798:23801   */\n      dup3\n        /* \"#utility.yul\":23794:23806   */\n      add\n        /* \"#utility.yul\":23787:23806   */\n      swap1\n      pop\n        /* \"#utility.yul\":23446:23812   */\n      swap2\n      swap1\n      pop\n      jump\t// out\n        /* \"#utility.yul\":23818:24237   */\n    tag_193:\n        /* \"#utility.yul\":23984:23988   */\n      0x00\n        /* \"#utility.yul\":24022:24024   */\n      0x20\n        /* \"#utility.yul\":24011:24020   */\n      dup3\n        /* \"#utility.yul\":24007:24025   */\n      add\n        /* \"#utility.yul\":23999:24025   */\n      swap1\n      pop\n        /* \"#utility.yul\":24071:24080   */\n      dup2\n        /* \"#utility.yul\":24065:24069   */\n      dup2\n        /* \"#utility.yul\":24061:24081   */\n      sub\n        /* \"#utility.yul\":24057:24058   */\n      0x00\n        /* \"#utility.yul\":24046:24055   */\n      dup4\n        /* \"#utility.yul\":24042:24059   */\n      add\n        /* \"#utility.yul\":24035:24082   */\n      mstore\n        /* \"#utility.yul\":24099:24230   */\n      tag_801\n        /* \"#utility.yul\":24225:24229   */\n      dup2\n        /* \"#utility.yul\":24099:24230   */\n      tag_551\n      jump\t// in\n    tag_801:\n        /* \"#utility.yul\":24091:24230   */\n      swap1\n      pop\n        /* \"#utility.yul\":23818:24237   */\n      swap2\n      swap1\n      pop\n      jump\t// out\n        /* \"#utility.yul\":24243:24468   */\n    tag_552:\n        /* \"#utility.yul\":24383:24417   */\n      0x596f75206d757374207265676973746572206174206c65617374203220616464\n        /* \"#utility.yul\":24379:24380   */\n      0x00\n        /* \"#utility.yul\":24371:24377   */\n      dup3\n        /* \"#utility.yul\":24367:24381   */\n      add\n        /* \"#utility.yul\":24360:24418   */\n      mstore\n        /* \"#utility.yul\":24452:24460   */\n      0x7265737365730000000000000000000000000000000000000000000000000000\n        /* \"#utility.yul\":24447:24449   */\n      0x20\n        /* \"#utility.yul\":24439:24445   */\n      dup3\n        /* \"#utility.yul\":24435:24450   */\n      add\n        /* \"#utility.yul\":24428:24461   */\n      mstore\n        /* \"#utility.yul\":24243:24468   */\n      pop\n      jump\t// out\n        /* \"#utility.yul\":24474:24840   */\n    tag_553:\n        /* \"#utility.yul\":24616:24619   */\n      0x00\n        /* \"#utility.yul\":24637:24704   */\n      tag_804\n        /* \"#utility.yul\":24701:24703   */\n      0x26\n        /* \"#utility.yul\":24696:24699   */\n      dup4\n        /* \"#utility.yul\":24637:24704   */\n      tag_527\n      jump\t// in\n    tag_804:\n        /* \"#utility.yul\":24630:24704   */\n      swap2\n      pop\n        /* \"#utility.yul\":24713:24806   */\n      tag_805\n        /* \"#utility.yul\":24802:24805   */\n      dup3\n        /* \"#utility.yul\":24713:24806   */\n      tag_552\n      jump\t// in\n    tag_805:\n        /* \"#utility.yul\":24831:24833   */\n      0x40\n        /* \"#utility.yul\":24826:24829   */\n      dup3\n        /* \"#utility.yul\":24822:24834   */\n      add\n        /* \"#utility.yul\":24815:24834   */\n      swap1\n      pop\n        /* \"#utility.yul\":24474:24840   */\n      swap2\n      swap1\n      pop\n      jump\t// out\n        /* \"#utility.yul\":24846:25265   */\n    tag_196:\n        /* \"#utility.yul\":25012:25016   */\n      0x00\n        /* \"#utility.yul\":25050:25052   */\n      0x20\n        /* \"#utility.yul\":25039:25048   */\n      dup3\n        /* \"#utility.yul\":25035:25053   */\n      add\n        /* \"#utility.yul\":25027:25053   */\n      swap1\n      pop\n        /* \"#utility.yul\":25099:25108   */\n      dup2\n        /* \"#utility.yul\":25093:25097   */\n      dup2\n        /* \"#utility.yul\":25089:25109   */\n      sub\n        /* \"#utility.yul\":25085:25086   */\n      0x00\n        /* \"#utility.yul\":25074:25083   */\n      dup4\n        /* \"#utility.yul\":25070:25087   */\n      add\n        /* \"#utility.yul\":25063:25110   */\n      mstore\n        /* \"#utility.yul\":25127:25258   */\n      tag_807\n        /* \"#utility.yul\":25253:25257   */\n      dup2\n        /* \"#utility.yul\":25127:25258   */\n      tag_553\n      jump\t// in\n    tag_807:\n        /* \"#utility.yul\":25119:25258   */\n      swap1\n      pop\n        /* \"#utility.yul\":24846:25265   */\n      swap2\n      swap1\n      pop\n      jump\t// out\n        /* \"#utility.yul\":25271:25465   */\n    tag_202:\n        /* \"#utility.yul\":25311:25315   */\n      0x00\n        /* \"#utility.yul\":25331:25351   */\n      tag_809\n        /* \"#utility.yul\":25349:25350   */\n      dup3\n        /* \"#utility.yul\":25331:25351   */\n      tag_488\n      jump\t// in\n    tag_809:\n        /* \"#utility.yul\":25326:25351   */\n      swap2\n      pop\n        /* \"#utility.yul\":25365:25385   */\n      tag_810\n        /* \"#utility.yul\":25383:25384   */\n      dup4\n        /* \"#utility.yul\":25365:25385   */\n      tag_488\n      jump\t// in\n    tag_810:\n        /* \"#utility.yul\":25360:25385   */\n      swap3\n      pop\n        /* \"#utility.yul\":25409:25410   */\n      dup3\n        /* \"#utility.yul\":25406:25407   */\n      dup3\n        /* \"#utility.yul\":25402:25411   */\n      sub\n        /* \"#utility.yul\":25394:25411   */\n      swap1\n      pop\n        /* \"#utility.yul\":25433:25434   */\n      dup2\n        /* \"#utility.yul\":25427:25431   */\n      dup2\n        /* \"#utility.yul\":25424:25435   */\n      gt\n        /* \"#utility.yul\":25421:25458   */\n      iszero\n      tag_811\n      jumpi\n        /* \"#utility.yul\":25438:25456   */\n      tag_812\n      tag_545\n      jump\t// in\n    tag_812:\n        /* \"#utility.yul\":25421:25458   */\n    tag_811:\n        /* \"#utility.yul\":25271:25465   */\n      swap3\n      swap2\n      pop\n      pop\n      jump\t// out\n        /* \"#utility.yul\":25471:25867   */\n    tag_206:\n        /* \"#utility.yul\":25624:25628   */\n      0x00\n        /* \"#utility.yul\":25662:25664   */\n      0x40\n        /* \"#utility.yul\":25651:25660   */\n      dup3\n        /* \"#utility.yul\":25647:25665   */\n      add\n        /* \"#utility.yul\":25639:25665   */\n      swap1\n      pop\n        /* \"#utility.yul\":25675:25762   */\n      tag_814\n        /* \"#utility.yul\":25759:25760   */\n      0x00\n        /* \"#utility.yul\":25748:25757   */\n      dup4\n        /* \"#utility.yul\":25744:25761   */\n      add\n        /* \"#utility.yul\":25735:25741   */\n      dup6\n        /* \"#utility.yul\":25675:25762   */\n      tag_514\n      jump\t// in\n    tag_814:\n        /* \"#utility.yul\":25772:25860   */\n      tag_815\n        /* \"#utility.yul\":25856:25858   */\n      0x20\n        /* \"#utility.yul\":25845:25854   */\n      dup4\n        /* \"#utility.yul\":25841:25859   */\n      add\n        /* \"#utility.yul\":25832:25838   */\n      dup5\n        /* \"#utility.yul\":25772:25860   */\n      tag_514\n      jump\t// in\n    tag_815:\n        /* \"#utility.yul\":25471:25867   */\n      swap4\n      swap3\n      pop\n      pop\n      pop\n      jump\t// out\n        /* \"#utility.yul\":25873:26096   */\n    tag_554:\n        /* \"#utility.yul\":26013:26047   */\n      0x5468652077696e6e65722068617665206e6f74206265656e2063686f6f73656e\n        /* \"#utility.yul\":26009:26010   */\n      0x00\n        /* \"#utility.yul\":26001:26007   */\n      dup3\n        /* \"#utility.yul\":25997:26011   */\n      add\n        /* \"#utility.yul\":25990:26048   */\n      mstore\n        /* \"#utility.yul\":26082:26088   */\n      0x2079657400000000000000000000000000000000000000000000000000000000\n        /* \"#utility.yul\":26077:26079   */\n      0x20\n        /* \"#utility.yul\":26069:26075   */\n      dup3\n        /* \"#utility.yul\":26065:26080   */\n      add\n        /* \"#utility.yul\":26058:26089   */\n      mstore\n        /* \"#utility.yul\":25873:26096   */\n      pop\n      jump\t// out\n        /* \"#utility.yul\":26102:26468   */\n    tag_555:\n        /* \"#utility.yul\":26244:26247   */\n      0x00\n        /* \"#utility.yul\":26265:26332   */\n      tag_818\n        /* \"#utility.yul\":26329:26331   */\n      0x24\n        /* \"#utility.yul\":26324:26327   */\n      dup4\n        /* \"#utility.yul\":26265:26332   */\n      tag_527\n      jump\t// in\n    tag_818:\n        /* \"#utility.yul\":26258:26332   */\n      swap2\n      pop\n        /* \"#utility.yul\":26341:26434   */\n      tag_819\n        /* \"#utility.yul\":26430:26433   */\n      dup3\n        /* \"#utility.yul\":26341:26434   */\n      tag_554\n      jump\t// in\n    tag_819:\n        /* \"#utility.yul\":26459:26461   */\n      0x40\n        /* \"#utility.yul\":26454:26457   */\n      dup3\n        /* \"#utility.yul\":26450:26462   */\n      add\n        /* \"#utility.yul\":26443:26462   */\n      swap1\n      pop\n        /* \"#utility.yul\":26102:26468   */\n      swap2\n      swap1\n      pop\n      jump\t// out\n        /* \"#utility.yul\":26474:26893   */\n    tag_214:\n        /* \"#utility.yul\":26640:26644   */\n      0x00\n        /* \"#utility.yul\":26678:26680   */\n      0x20\n        /* \"#utility.yul\":26667:26676   */\n      dup3\n        /* \"#utility.yul\":26663:26681   */\n      add\n        /* \"#utility.yul\":26655:26681   */\n      swap1\n      pop\n        /* \"#utility.yul\":26727:26736   */\n      dup2\n        /* \"#utility.yul\":26721:26725   */\n      dup2\n        /* \"#utility.yul\":26717:26737   */\n      sub\n        /* \"#utility.yul\":26713:26714   */\n      0x00\n        /* \"#utility.yul\":26702:26711   */\n      dup4\n        /* \"#utility.yul\":26698:26715   */\n      add\n        /* \"#utility.yul\":26691:26738   */\n      mstore\n        /* \"#utility.yul\":26755:26886   */\n      tag_821\n        /* \"#utility.yul\":26881:26885   */\n      dup2\n        /* \"#utility.yul\":26755:26886   */\n      tag_555\n      jump\t// in\n    tag_821:\n        /* \"#utility.yul\":26747:26886   */\n      swap1\n      pop\n        /* \"#utility.yul\":26474:26893   */\n      swap2\n      swap1\n      pop\n      jump\t// out\n        /* \"#utility.yul\":26899:27079   */\n    tag_556:\n        /* \"#utility.yul\":26947:27024   */\n      0x4e487b7100000000000000000000000000000000000000000000000000000000\n        /* \"#utility.yul\":26944:26945   */\n      0x00\n        /* \"#utility.yul\":26937:27025   */\n      mstore\n        /* \"#utility.yul\":27044:27048   */\n      0x22\n        /* \"#utility.yul\":27041:27042   */\n      0x04\n        /* \"#utility.yul\":27034:27049   */\n      mstore\n        /* \"#utility.yul\":27068:27072   */\n      0x24\n        /* \"#utility.yul\":27065:27066   */\n      0x00\n        /* \"#utility.yul\":27058:27073   */\n      revert\n        /* \"#utility.yul\":27085:27405   */\n    tag_220:\n        /* \"#utility.yul\":27129:27135   */\n      0x00\n        /* \"#utility.yul\":27166:27167   */\n      0x02\n        /* \"#utility.yul\":27160:27164   */\n      dup3\n        /* \"#utility.yul\":27156:27168   */\n      div\n        /* \"#utility.yul\":27146:27168   */\n      swap1\n      pop\n        /* \"#utility.yul\":27213:27214   */\n      0x01\n        /* \"#utility.yul\":27207:27211   */\n      dup3\n        /* \"#utility.yul\":27203:27215   */\n      and\n        /* \"#utility.yul\":27234:27252   */\n      dup1\n        /* \"#utility.yul\":27224:27305   */\n      tag_824\n      jumpi\n        /* \"#utility.yul\":27290:27294   */\n      0x7f\n        /* \"#utility.yul\":27282:27288   */\n      dup3\n        /* \"#utility.yul\":27278:27295   */\n      and\n        /* \"#utility.yul\":27268:27295   */\n      swap2\n      pop\n        /* \"#utility.yul\":27224:27305   */\n    tag_824:\n        /* \"#utility.yul\":27352:27354   */\n      0x20\n        /* \"#utility.yul\":27344:27350   */\n      dup3\n        /* \"#utility.yul\":27341:27355   */\n      lt\n        /* \"#utility.yul\":27321:27339   */\n      dup2\n        /* \"#utility.yul\":27318:27356   */\n      sub\n        /* \"#utility.yul\":27315:27399   */\n      tag_825\n      jumpi\n        /* \"#utility.yul\":27371:27389   */\n      tag_826\n      tag_556\n      jump\t// in\n    tag_826:\n        /* \"#utility.yul\":27315:27399   */\n    tag_825:\n        /* \"#utility.yul\":27136:27405   */\n      pop\n        /* \"#utility.yul\":27085:27405   */\n      swap2\n      swap1\n      pop\n      jump\t// out\n        /* \"#utility.yul\":27411:27634   */\n    tag_557:\n        /* \"#utility.yul\":27551:27585   */\n      0x5468652070726f706f73616c2073657373696f6e20686173206e6f7420737461\n        /* \"#utility.yul\":27547:27548   */\n      0x00\n        /* \"#utility.yul\":27539:27545   */\n      dup3\n        /* \"#utility.yul\":27535:27549   */\n      add\n        /* \"#utility.yul\":27528:27586   */\n      mstore\n        /* \"#utility.yul\":27620:27626   */\n      0x7274656400000000000000000000000000000000000000000000000000000000\n        /* \"#utility.yul\":27615:27617   */\n      0x20\n        /* \"#utility.yul\":27607:27613   */\n      dup3\n        /* \"#utility.yul\":27603:27618   */\n      add\n        /* \"#utility.yul\":27596:27627   */\n      mstore\n        /* \"#utility.yul\":27411:27634   */\n      pop\n      jump\t// out\n        /* \"#utility.yul\":27640:28006   */\n    tag_558:\n        /* \"#utility.yul\":27782:27785   */\n      0x00\n        /* \"#utility.yul\":27803:27870   */\n      tag_829\n        /* \"#utility.yul\":27867:27869   */\n      0x24\n        /* \"#utility.yul\":27862:27865   */\n      dup4\n        /* \"#utility.yul\":27803:27870   */\n      tag_527\n      jump\t// in\n    tag_829:\n        /* \"#utility.yul\":27796:27870   */\n      swap2\n      pop\n        /* \"#utility.yul\":27879:27972   */\n      tag_830\n        /* \"#utility.yul\":27968:27971   */\n      dup3\n        /* \"#utility.yul\":27879:27972   */\n      tag_557\n      jump\t// in\n    tag_830:\n        /* \"#utility.yul\":27997:27999   */\n      0x40\n        /* \"#utility.yul\":27992:27995   */\n      dup3\n        /* \"#utility.yul\":27988:28000   */\n      add\n        /* \"#utility.yul\":27981:28000   */\n      swap1\n      pop\n        /* \"#utility.yul\":27640:28006   */\n      swap2\n      swap1\n      pop\n      jump\t// out\n        /* \"#utility.yul\":28012:28431   */\n    tag_232:\n        /* \"#utility.yul\":28178:28182   */\n      0x00\n        /* \"#utility.yul\":28216:28218   */\n      0x20\n        /* \"#utility.yul\":28205:28214   */\n      dup3\n        /* \"#utility.yul\":28201:28219   */\n      add\n        /* \"#utility.yul\":28193:28219   */\n      swap1\n      pop\n        /* \"#utility.yul\":28265:28274   */\n      dup2\n        /* \"#utility.yul\":28259:28263   */\n      dup2\n        /* \"#utility.yul\":28255:28275   */\n      sub\n        /* \"#utility.yul\":28251:28252   */\n      0x00\n        /* \"#utility.yul\":28240:28249   */\n      dup4\n        /* \"#utility.yul\":28236:28253   */\n      add\n        /* \"#utility.yul\":28229:28276   */\n      mstore\n        /* \"#utility.yul\":28293:28424   */\n      tag_832\n        /* \"#utility.yul\":28419:28423   */\n      dup2\n        /* \"#utility.yul\":28293:28424   */\n      tag_558\n      jump\t// in\n    tag_832:\n        /* \"#utility.yul\":28285:28424   */\n      swap1\n      pop\n        /* \"#utility.yul\":28012:28431   */\n      swap2\n      swap1\n      pop\n      jump\t// out\n        /* \"#utility.yul\":28437:28617   */\n    tag_559:\n        /* \"#utility.yul\":28577:28609   */\n      0x546869732061646472657373206973206e6f7420726567697374657265640000\n        /* \"#utility.yul\":28573:28574   */\n      0x00\n        /* \"#utility.yul\":28565:28571   */\n      dup3\n        /* \"#utility.yul\":28561:28575   */\n      add\n        /* \"#utility.yul\":28554:28610   */\n      mstore\n        /* \"#utility.yul\":28437:28617   */\n      pop\n      jump\t// out\n        /* \"#utility.yul\":28623:28989   */\n    tag_560:\n        /* \"#utility.yul\":28765:28768   */\n      0x00\n        /* \"#utility.yul\":28786:28853   */\n      tag_835\n        /* \"#utility.yul\":28850:28852   */\n      0x1e\n        /* \"#utility.yul\":28845:28848   */\n      dup4\n        /* \"#utility.yul\":28786:28853   */\n      tag_527\n      jump\t// in\n    tag_835:\n        /* \"#utility.yul\":28779:28853   */\n      swap2\n      pop\n        /* \"#utility.yul\":28862:28955   */\n      tag_836\n        /* \"#utility.yul\":28951:28954   */\n      dup3\n        /* \"#utility.yul\":28862:28955   */\n      tag_559\n      jump\t// in\n    tag_836:\n        /* \"#utility.yul\":28980:28982   */\n      0x20\n        /* \"#utility.yul\":28975:28978   */\n      dup3\n        /* \"#utility.yul\":28971:28983   */\n      add\n        /* \"#utility.yul\":28964:28983   */\n      swap1\n      pop\n        /* \"#utility.yul\":28623:28989   */\n      swap2\n      swap1\n      pop\n      jump\t// out\n        /* \"#utility.yul\":28995:29414   */\n    tag_241:\n        /* \"#utility.yul\":29161:29165   */\n      0x00\n        /* \"#utility.yul\":29199:29201   */\n      0x20\n        /* \"#utility.yul\":29188:29197   */\n      dup3\n        /* \"#utility.yul\":29184:29202   */\n      add\n        /* \"#utility.yul\":29176:29202   */\n      swap1\n      pop\n        /* \"#utility.yul\":29248:29257   */\n      dup2\n        /* \"#utility.yul\":29242:29246   */\n      dup2\n        /* \"#utility.yul\":29238:29258   */\n      sub\n        /* \"#utility.yul\":29234:29235   */\n      0x00\n        /* \"#utility.yul\":29223:29232   */\n      dup4\n        /* \"#utility.yul\":29219:29236   */\n      add\n        /* \"#utility.yul\":29212:29259   */\n      mstore\n        /* \"#utility.yul\":29276:29407   */\n      tag_838\n        /* \"#utility.yul\":29402:29406   */\n      dup2\n        /* \"#utility.yul\":29276:29407   */\n      tag_560\n      jump\t// in\n    tag_838:\n        /* \"#utility.yul\":29268:29407   */\n      swap1\n      pop\n        /* \"#utility.yul\":28995:29414   */\n      swap2\n      swap1\n      pop\n      jump\t// out\n        /* \"#utility.yul\":29420:29596   */\n    tag_561:\n        /* \"#utility.yul\":29560:29588   */\n      0x54686973206164647265737320686173206e6f7420766f746564000000000000\n        /* \"#utility.yul\":29556:29557   */\n      0x00\n        /* \"#utility.yul\":29548:29554   */\n      dup3\n        /* \"#utility.yul\":29544:29558   */\n      add\n        /* \"#utility.yul\":29537:29589   */\n      mstore\n        /* \"#utility.yul\":29420:29596   */\n      pop\n      jump\t// out\n        /* \"#utility.yul\":29602:29968   */\n    tag_562:\n        /* \"#utility.yul\":29744:29747   */\n      0x00\n        /* \"#utility.yul\":29765:29832   */\n      tag_841\n        /* \"#utility.yul\":29829:29831   */\n      0x1a\n        /* \"#utility.yul\":29824:29827   */\n      dup4\n        /* \"#utility.yul\":29765:29832   */\n      tag_527\n      jump\t// in\n    tag_841:\n        /* \"#utility.yul\":29758:29832   */\n      swap2\n      pop\n        /* \"#utility.yul\":29841:29934   */\n      tag_842\n        /* \"#utility.yul\":29930:29933   */\n      dup3\n        /* \"#utility.yul\":29841:29934   */\n      tag_561\n      jump\t// in\n    tag_842:\n        /* \"#utility.yul\":29959:29961   */\n      0x20\n        /* \"#utility.yul\":29954:29957   */\n      dup3\n        /* \"#utility.yul\":29950:29962   */\n      add\n        /* \"#utility.yul\":29943:29962   */\n      swap1\n      pop\n        /* \"#utility.yul\":29602:29968   */\n      swap2\n      swap1\n      pop\n      jump\t// out\n        /* \"#utility.yul\":29974:30393   */\n    tag_264:\n        /* \"#utility.yul\":30140:30144   */\n      0x00\n        /* \"#utility.yul\":30178:30180   */\n      0x20\n        /* \"#utility.yul\":30167:30176   */\n      dup3\n        /* \"#utility.yul\":30163:30181   */\n      add\n        /* \"#utility.yul\":30155:30181   */\n      swap1\n      pop\n        /* \"#utility.yul\":30227:30236   */\n      dup2\n        /* \"#utility.yul\":30221:30225   */\n      dup2\n        /* \"#utility.yul\":30217:30237   */\n      sub\n        /* \"#utility.yul\":30213:30214   */\n      0x00\n        /* \"#utility.yul\":30202:30211   */\n      dup4\n        /* \"#utility.yul\":30198:30215   */\n      add\n        /* \"#utility.yul\":30191:30238   */\n      mstore\n        /* \"#utility.yul\":30255:30386   */\n      tag_844\n        /* \"#utility.yul\":30381:30385   */\n      dup2\n        /* \"#utility.yul\":30255:30386   */\n      tag_562\n      jump\t// in\n    tag_844:\n        /* \"#utility.yul\":30247:30386   */\n      swap1\n      pop\n        /* \"#utility.yul\":29974:30393   */\n      swap2\n      swap1\n      pop\n      jump\t// out\n        /* \"#utility.yul\":30399:30621   */\n    tag_563:\n        /* \"#utility.yul\":30539:30573   */\n      0x5468652070726f706f73616c2073657373696f6e206973206e6f742073746172\n        /* \"#utility.yul\":30535:30536   */\n      0x00\n        /* \"#utility.yul\":30527:30533   */\n      dup3\n        /* \"#utility.yul\":30523:30537   */\n      add\n        /* \"#utility.yul\":30516:30574   */\n      mstore\n        /* \"#utility.yul\":30608:30613   */\n      0x7465640000000000000000000000000000000000000000000000000000000000\n        /* \"#utility.yul\":30603:30605   */\n      0x20\n        /* \"#utility.yul\":30595:30601   */\n      dup3\n        /* \"#utility.yul\":30591:30606   */\n      add\n        /* \"#utility.yul\":30584:30614   */\n      mstore\n        /* \"#utility.yul\":30399:30621   */\n      pop\n      jump\t// out\n        /* \"#utility.yul\":30627:30993   */\n    tag_564:\n        /* \"#utility.yul\":30769:30772   */\n      0x00\n        /* \"#utility.yul\":30790:30857   */\n      tag_847\n        /* \"#utility.yul\":30854:30856   */\n      0x23\n        /* \"#utility.yul\":30849:30852   */\n      dup4\n        /* \"#utility.yul\":30790:30857   */\n      tag_527\n      jump\t// in\n    tag_847:\n        /* \"#utility.yul\":30783:30857   */\n      swap2\n      pop\n        /* \"#utility.yul\":30866:30959   */\n      tag_848\n        /* \"#utility.yul\":30955:30958   */\n      dup3\n        /* \"#utility.yul\":30866:30959   */\n      tag_563\n      jump\t// in\n    tag_848:\n        /* \"#utility.yul\":30984:30986   */\n      0x40\n        /* \"#utility.yul\":30979:30982   */\n      dup3\n        /* \"#utility.yul\":30975:30987   */\n      add\n        /* \"#utility.yul\":30968:30987   */\n      swap1\n      pop\n        /* \"#utility.yul\":30627:30993   */\n      swap2\n      swap1\n      pop\n      jump\t// out\n        /* \"#utility.yul\":30999:31418   */\n    tag_300:\n        /* \"#utility.yul\":31165:31169   */\n      0x00\n        /* \"#utility.yul\":31203:31205   */\n      0x20\n        /* \"#utility.yul\":31192:31201   */\n      dup3\n        /* \"#utility.yul\":31188:31206   */\n      add\n        /* \"#utility.yul\":31180:31206   */\n      swap1\n      pop\n        /* \"#utility.yul\":31252:31261   */\n      dup2\n        /* \"#utility.yul\":31246:31250   */\n      dup2\n        /* \"#utility.yul\":31242:31262   */\n      sub\n        /* \"#utility.yul\":31238:31239   */\n      0x00\n        /* \"#utility.yul\":31227:31236   */\n      dup4\n        /* \"#utility.yul\":31223:31240   */\n      add\n        /* \"#utility.yul\":31216:31263   */\n      mstore\n        /* \"#utility.yul\":31280:31411   */\n      tag_850\n        /* \"#utility.yul\":31406:31410   */\n      dup2\n        /* \"#utility.yul\":31280:31411   */\n      tag_564\n      jump\t// in\n    tag_850:\n        /* \"#utility.yul\":31272:31411   */\n      swap1\n      pop\n        /* \"#utility.yul\":30999:31418   */\n      swap2\n      swap1\n      pop\n      jump\t// out\n        /* \"#utility.yul\":31424:31666   */\n    tag_565:\n        /* \"#utility.yul\":31564:31598   */\n      0x596f752061726520746865206f776e6572206f66207468697320636f6e747261\n        /* \"#utility.yul\":31560:31561   */\n      0x00\n        /* \"#utility.yul\":31552:31558   */\n      dup3\n        /* \"#utility.yul\":31548:31562   */\n      add\n        /* \"#utility.yul\":31541:31599   */\n      mstore\n        /* \"#utility.yul\":31633:31658   */\n      0x63742c20796f752063616e206e6f742070726f706f7365000000000000000000\n        /* \"#utility.yul\":31628:31630   */\n      0x20\n        /* \"#utility.yul\":31620:31626   */\n      dup3\n        /* \"#utility.yul\":31616:31631   */\n      add\n        /* \"#utility.yul\":31609:31659   */\n      mstore\n        /* \"#utility.yul\":31424:31666   */\n      pop\n      jump\t// out\n        /* \"#utility.yul\":31672:32038   */\n    tag_566:\n        /* \"#utility.yul\":31814:31817   */\n      0x00\n        /* \"#utility.yul\":31835:31902   */\n      tag_853\n        /* \"#utility.yul\":31899:31901   */\n      0x37\n        /* \"#utility.yul\":31894:31897   */\n      dup4\n        /* \"#utility.yul\":31835:31902   */\n      tag_527\n      jump\t// in\n    tag_853:\n        /* \"#utility.yul\":31828:31902   */\n      swap2\n      pop\n        /* \"#utility.yul\":31911:32004   */\n      tag_854\n        /* \"#utility.yul\":32000:32003   */\n      dup3\n        /* \"#utility.yul\":31911:32004   */\n      tag_565\n      jump\t// in\n    tag_854:\n        /* \"#utility.yul\":32029:32031   */\n      0x40\n        /* \"#utility.yul\":32024:32027   */\n      dup3\n        /* \"#utility.yul\":32020:32032   */\n      add\n        /* \"#utility.yul\":32013:32032   */\n      swap1\n      pop\n        /* \"#utility.yul\":31672:32038   */\n      swap2\n      swap1\n      pop\n      jump\t// out\n        /* \"#utility.yul\":32044:32463   */\n    tag_304:\n        /* \"#utility.yul\":32210:32214   */\n      0x00\n        /* \"#utility.yul\":32248:32250   */\n      0x20\n        /* \"#utility.yul\":32237:32246   */\n      dup3\n        /* \"#utility.yul\":32233:32251   */\n      add\n        /* \"#utility.yul\":32225:32251   */\n      swap1\n      pop\n        /* \"#utility.yul\":32297:32306   */\n      dup2\n        /* \"#utility.yul\":32291:32295   */\n      dup2\n        /* \"#utility.yul\":32287:32307   */\n      sub\n        /* \"#utility.yul\":32283:32284   */\n      0x00\n        /* \"#utility.yul\":32272:32281   */\n      dup4\n        /* \"#utility.yul\":32268:32285   */\n      add\n        /* \"#utility.yul\":32261:32308   */\n      mstore\n        /* \"#utility.yul\":32325:32456   */\n      tag_856\n        /* \"#utility.yul\":32451:32455   */\n      dup2\n        /* \"#utility.yul\":32325:32456   */\n      tag_566\n      jump\t// in\n    tag_856:\n        /* \"#utility.yul\":32317:32456   */\n      swap1\n      pop\n        /* \"#utility.yul\":32044:32463   */\n      swap2\n      swap1\n      pop\n      jump\t// out\n        /* \"#utility.yul\":32469:32610   */\n    tag_567:\n        /* \"#utility.yul\":32518:32522   */\n      0x00\n        /* \"#utility.yul\":32541:32544   */\n      dup2\n        /* \"#utility.yul\":32533:32544   */\n      swap1\n      pop\n        /* \"#utility.yul\":32564:32567   */\n      dup2\n        /* \"#utility.yul\":32561:32562   */\n      0x00\n        /* \"#utility.yul\":32554:32568   */\n      mstore\n        /* \"#utility.yul\":32598:32602   */\n      0x20\n        /* \"#utility.yul\":32595:32596   */\n      0x00\n        /* \"#utility.yul\":32585:32603   */\n      keccak256\n        /* \"#utility.yul\":32577:32603   */\n      swap1\n      pop\n        /* \"#utility.yul\":32469:32610   */\n      swap2\n      swap1\n      pop\n      jump\t// out\n        /* \"#utility.yul\":32616:32709   */\n    tag_568:\n        /* \"#utility.yul\":32653:32659   */\n      0x00\n        /* \"#utility.yul\":32700:32702   */\n      0x20\n        /* \"#utility.yul\":32695:32697   */\n      0x1f\n        /* \"#utility.yul\":32688:32693   */\n      dup4\n        /* \"#utility.yul\":32684:32698   */\n      add\n        /* \"#utility.yul\":32680:32703   */\n      div\n        /* \"#utility.yul\":32670:32703   */\n      swap1\n      pop\n        /* \"#utility.yul\":32616:32709   */\n      swap2\n      swap1\n      pop\n      jump\t// out\n        /* \"#utility.yul\":32715:32822   */\n    tag_569:\n        /* \"#utility.yul\":32759:32767   */\n      0x00\n        /* \"#utility.yul\":32809:32814   */\n      dup3\n        /* \"#utility.yul\":32803:32807   */\n      dup3\n        /* \"#utility.yul\":32799:32815   */\n      shl\n        /* \"#utility.yul\":32778:32815   */\n      swap1\n      pop\n        /* \"#utility.yul\":32715:32822   */\n      swap3\n      swap2\n      pop\n      pop\n      jump\t// out\n        /* \"#utility.yul\":32828:33221   */\n    tag_570:\n        /* \"#utility.yul\":32897:32903   */\n      0x00\n        /* \"#utility.yul\":32947:32948   */\n      0x08\n        /* \"#utility.yul\":32935:32945   */\n      dup4\n        /* \"#utility.yul\":32931:32949   */\n      mul\n        /* \"#utility.yul\":32970:33067   */\n      tag_861\n        /* \"#utility.yul\":33000:33066   */\n      0xffffffffffffffffffffffffffffffffffffffffffffffffffffffffffffffff\n        /* \"#utility.yul\":32989:32998   */\n      dup3\n        /* \"#utility.yul\":32970:33067   */\n      tag_569\n      jump\t// in\n    tag_861:\n        /* \"#utility.yul\":33088:33127   */\n      tag_862\n        /* \"#utility.yul\":33118:33126   */\n      dup7\n        /* \"#utility.yul\":33107:33116   */\n      dup4\n        /* \"#utility.yul\":33088:33127   */\n      tag_569\n      jump\t// in\n    tag_862:\n        /* \"#utility.yul\":33076:33127   */\n      swap6\n      pop\n        /* \"#utility.yul\":33160:33164   */\n      dup1\n        /* \"#utility.yul\":33156:33165   */\n      not\n        /* \"#utility.yul\":33149:33154   */\n      dup5\n        /* \"#utility.yul\":33145:33166   */\n      and\n        /* \"#utility.yul\":33136:33166   */\n      swap4\n      pop\n        /* \"#utility.yul\":33209:33213   */\n      dup1\n        /* \"#utility.yul\":33199:33207   */\n      dup7\n        /* \"#utility.yul\":33195:33214   */\n      and\n        /* \"#utility.yul\":33188:33193   */\n      dup5\n        /* \"#utility.yul\":33185:33215   */\n      or\n        /* \"#utility.yul\":33175:33215   */\n      swap3\n      pop\n        /* \"#utility.yul\":32904:33221   */\n      pop\n      pop\n        /* \"#utility.yul\":32828:33221   */\n      swap4\n      swap3\n      pop\n      pop\n      pop\n      jump\t// out\n        /* \"#utility.yul\":33227:33287   */\n    tag_571:\n        /* \"#utility.yul\":33255:33258   */\n      0x00\n        /* \"#utility.yul\":33276:33281   */\n      dup2\n        /* \"#utility.yul\":33269:33281   */\n      swap1\n      pop\n        /* \"#utility.yul\":33227:33287   */\n      swap2\n      swap1\n      pop\n      jump\t// out\n        /* \"#utility.yul\":33293:33435   */\n    tag_572:\n        /* \"#utility.yul\":33343:33352   */\n      0x00\n        /* \"#utility.yul\":33376:33429   */\n      tag_865\n        /* \"#utility.yul\":33394:33428   */\n      tag_866\n        /* \"#utility.yul\":33403:33427   */\n      tag_867\n        /* \"#utility.yul\":33421:33426   */\n      dup5\n        /* \"#utility.yul\":33403:33427   */\n      tag_488\n      jump\t// in\n    tag_867:\n        /* \"#utility.yul\":33394:33428   */\n      tag_571\n      jump\t// in\n    tag_866:\n        /* \"#utility.yul\":33376:33429   */\n      tag_488\n      jump\t// in\n    tag_865:\n        /* \"#utility.yul\":33363:33429   */\n      swap1\n      pop\n        /* \"#utility.yul\":33293:33435   */\n      swap2\n      swap1\n      pop\n      jump\t// out\n        /* \"#utility.yul\":33441:33516   */\n    tag_573:\n        /* \"#utility.yul\":33484:33487   */\n      0x00\n        /* \"#utility.yul\":33505:33510   */\n      dup2\n        /* \"#utility.yul\":33498:33510   */\n      swap1\n      pop\n        /* \"#utility.yul\":33441:33516   */\n      swap2\n      swap1\n      pop\n      jump\t// out\n        /* \"#utility.yul\":33522:33791   */\n    tag_574:\n        /* \"#utility.yul\":33632:33671   */\n      tag_870\n        /* \"#utility.yul\":33663:33670   */\n      dup4\n        /* \"#utility.yul\":33632:33671   */\n      tag_572\n      jump\t// in\n    tag_870:\n        /* \"#utility.yul\":33693:33784   */\n      tag_871\n        /* \"#utility.yul\":33742:33783   */\n      tag_872\n        /* \"#utility.yul\":33766:33782   */\n      dup3\n        /* \"#utility.yul\":33742:33783   */\n      tag_573\n      jump\t// in\n    tag_872:\n        /* \"#utility.yul\":33734:33740   */\n      dup5\n        /* \"#utility.yul\":33727:33731   */\n      dup5\n        /* \"#utility.yul\":33721:33732   */\n      sload\n        /* \"#utility.yul\":33693:33784   */\n      tag_570\n      jump\t// in\n    tag_871:\n        /* \"#utility.yul\":33687:33691   */\n      dup3\n        /* \"#utility.yul\":33680:33785   */\n      sstore\n        /* \"#utility.yul\":33598:33791   */\n      pop\n        /* \"#utility.yul\":33522:33791   */\n      pop\n      pop\n      pop\n      jump\t// out\n        /* \"#utility.yul\":33797:33870   */\n    tag_575:\n        /* \"#utility.yul\":33842:33845   */\n      0x00\n        /* \"#utility.yul\":33863:33864   */\n      0x00\n        /* \"#utility.yul\":33856:33864   */\n      swap1\n      pop\n        /* \"#utility.yul\":33797:33870   */\n      swap1\n      jump\t// out\n        /* \"#utility.yul\":33876:34065   */\n    tag_576:\n        /* \"#utility.yul\":33953:33985   */\n      tag_875\n      tag_575\n      jump\t// in\n    tag_875:\n        /* \"#utility.yul\":33994:34059   */\n      tag_876\n        /* \"#utility.yul\":34052:34058   */\n      dup2\n        /* \"#utility.yul\":34044:34050   */\n      dup5\n        /* \"#utility.yul\":34038:34042   */\n      dup5\n        /* \"#utility.yul\":33994:34059   */\n      tag_574\n      jump\t// in\n    tag_876:\n        /* \"#utility.yul\":33929:34065   */\n      pop\n        /* \"#utility.yul\":33876:34065   */\n      pop\n      pop\n      jump\t// out\n        /* \"#utility.yul\":34071:34257   */\n    tag_577:\n        /* \"#utility.yul\":34131:34251   */\n    tag_878:\n        /* \"#utility.yul\":34148:34151   */\n      dup2\n        /* \"#utility.yul\":34141:34146   */\n      dup2\n        /* \"#utility.yul\":34138:34152   */\n      lt\n        /* \"#utility.yul\":34131:34251   */\n      iszero\n      tag_880\n      jumpi\n        /* \"#utility.yul\":34202:34241   */\n      tag_881\n        /* \"#utility.yul\":34239:34240   */\n      0x00\n        /* \"#utility.yul\":34232:34237   */\n      dup3\n        /* \"#utility.yul\":34202:34241   */\n      tag_576\n      jump\t// in\n    tag_881:\n        /* \"#utility.yul\":34175:34176   */\n      0x01\n        /* \"#utility.yul\":34168:34173   */\n      dup2\n        /* \"#utility.yul\":34164:34177   */\n      add\n        /* \"#utility.yul\":34155:34177   */\n      swap1\n      pop\n        /* \"#utility.yul\":34131:34251   */\n      jump(tag_878)\n    tag_880:\n        /* \"#utility.yul\":34071:34257   */\n      pop\n      pop\n      jump\t// out\n        /* \"#utility.yul\":34263:34806   */\n    tag_578:\n        /* \"#utility.yul\":34364:34366   */\n      0x1f\n        /* \"#utility.yul\":34359:34362   */\n      dup3\n        /* \"#utility.yul\":34356:34367   */\n      gt\n        /* \"#utility.yul\":34353:34799   */\n      iszero\n      tag_883\n      jumpi\n        /* \"#utility.yul\":34398:34436   */\n      tag_884\n        /* \"#utility.yul\":34430:34435   */\n      dup2\n        /* \"#utility.yul\":34398:34436   */\n      tag_567\n      jump\t// in\n    tag_884:\n        /* \"#utility.yul\":34482:34511   */\n      tag_885\n        /* \"#utility.yul\":34500:34510   */\n      dup5\n        /* \"#utility.yul\":34482:34511   */\n      tag_568\n      jump\t// in\n    tag_885:\n        /* \"#utility.yul\":34472:34480   */\n      dup2\n        /* \"#utility.yul\":34468:34512   */\n      add\n        /* \"#utility.yul\":34665:34667   */\n      0x20\n        /* \"#utility.yul\":34653:34663   */\n      dup6\n        /* \"#utility.yul\":34650:34668   */\n      lt\n        /* \"#utility.yul\":34647:34696   */\n      iszero\n      tag_886\n      jumpi\n        /* \"#utility.yul\":34686:34694   */\n      dup2\n        /* \"#utility.yul\":34671:34694   */\n      swap1\n      pop\n        /* \"#utility.yul\":34647:34696   */\n    tag_886:\n        /* \"#utility.yul\":34709:34789   */\n      tag_887\n        /* \"#utility.yul\":34765:34787   */\n      tag_888\n        /* \"#utility.yul\":34783:34786   */\n      dup6\n        /* \"#utility.yul\":34765:34787   */\n      tag_568\n      jump\t// in\n    tag_888:\n        /* \"#utility.yul\":34755:34763   */\n      dup4\n        /* \"#utility.yul\":34751:34788   */\n      add\n        /* \"#utility.yul\":34738:34749   */\n      dup3\n        /* \"#utility.yul\":34709:34789   */\n      tag_577\n      jump\t// in\n    tag_887:\n        /* \"#utility.yul\":34368:34799   */\n      pop\n      pop\n        /* \"#utility.yul\":34353:34799   */\n    tag_883:\n        /* \"#utility.yul\":34263:34806   */\n      pop\n      pop\n      pop\n      jump\t// out\n        /* \"#utility.yul\":34812:34929   */\n    tag_579:\n        /* \"#utility.yul\":34866:34874   */\n      0x00\n        /* \"#utility.yul\":34916:34921   */\n      dup3\n        /* \"#utility.yul\":34910:34914   */\n      dup3\n        /* \"#utility.yul\":34906:34922   */\n      shr\n        /* \"#utility.yul\":34885:34922   */\n      swap1\n      pop\n        /* \"#utility.yul\":34812:34929   */\n      swap3\n      swap2\n      pop\n      pop\n      jump\t// out\n        /* \"#utility.yul\":34935:35104   */\n    tag_580:\n        /* \"#utility.yul\":34979:34985   */\n      0x00\n        /* \"#utility.yul\":35012:35063   */\n      tag_891\n        /* \"#utility.yul\":35060:35061   */\n      0x00\n        /* \"#utility.yul\":35056:35062   */\n      not\n        /* \"#utility.yul\":35048:35053   */\n      dup5\n        /* \"#utility.yul\":35045:35046   */\n      0x08\n        /* \"#utility.yul\":35041:35054   */\n      mul\n        /* \"#utility.yul\":35012:35063   */\n      tag_579\n      jump\t// in\n    tag_891:\n        /* \"#utility.yul\":35008:35064   */\n      not\n        /* \"#utility.yul\":35093:35097   */\n      dup1\n        /* \"#utility.yul\":35087:35091   */\n      dup4\n        /* \"#utility.yul\":35083:35098   */\n      and\n        /* \"#utility.yul\":35073:35098   */\n      swap2\n      pop\n        /* \"#utility.yul\":34986:35104   */\n      pop\n        /* \"#utility.yul\":34935:35104   */\n      swap3\n      swap2\n      pop\n      pop\n      jump\t// out\n        /* \"#utility.yul\":35109:35404   */\n    tag_581:\n        /* \"#utility.yul\":35185:35189   */\n      0x00\n        /* \"#utility.yul\":35331:35360   */\n      tag_893\n        /* \"#utility.yul\":35356:35359   */\n      dup4\n        /* \"#utility.yul\":35350:35354   */\n      dup4\n        /* \"#utility.yul\":35331:35360   */\n      tag_580\n      jump\t// in\n    tag_893:\n        /* \"#utility.yul\":35323:35360   */\n      swap2\n      pop\n        /* \"#utility.yul\":35393:35396   */\n      dup3\n        /* \"#utility.yul\":35390:35391   */\n      0x02\n        /* \"#utility.yul\":35386:35397   */\n      mul\n        /* \"#utility.yul\":35380:35384   */\n      dup3\n        /* \"#utility.yul\":35377:35398   */\n      or\n        /* \"#utility.yul\":35369:35398   */\n      swap1\n      pop\n        /* \"#utility.yul\":35109:35404   */\n      swap3\n      swap2\n      pop\n      pop\n      jump\t// out\n        /* \"#utility.yul\":35409:36804   */\n    tag_310:\n        /* \"#utility.yul\":35526:35563   */\n      tag_895\n        /* \"#utility.yul\":35559:35562   */\n      dup3\n        /* \"#utility.yul\":35526:35563   */\n      tag_499\n      jump\t// in\n    tag_895:\n        /* \"#utility.yul\":35628:35646   */\n      0xffffffffffffffff\n        /* \"#utility.yul\":35620:35626   */\n      dup2\n        /* \"#utility.yul\":35617:35647   */\n      gt\n        /* \"#utility.yul\":35614:35670   */\n      iszero\n      tag_896\n      jumpi\n        /* \"#utility.yul\":35650:35668   */\n      tag_897\n      tag_518\n      jump\t// in\n    tag_897:\n        /* \"#utility.yul\":35614:35670   */\n    tag_896:\n        /* \"#utility.yul\":35694:35732   */\n      tag_898\n        /* \"#utility.yul\":35726:35730   */\n      dup3\n        /* \"#utility.yul\":35720:35731   */\n      sload\n        /* \"#utility.yul\":35694:35732   */\n      tag_220\n      jump\t// in\n    tag_898:\n        /* \"#utility.yul\":35779:35846   */\n      tag_899\n        /* \"#utility.yul\":35839:35845   */\n      dup3\n        /* \"#utility.yul\":35831:35837   */\n      dup3\n        /* \"#utility.yul\":35825:35829   */\n      dup6\n        /* \"#utility.yul\":35779:35846   */\n      tag_578\n      jump\t// in\n    tag_899:\n        /* \"#utility.yul\":35873:35874   */\n      0x00\n        /* \"#utility.yul\":35897:35901   */\n      0x20\n        /* \"#utility.yul\":35884:35901   */\n      swap1\n      pop\n        /* \"#utility.yul\":35929:35931   */\n      0x1f\n        /* \"#utility.yul\":35921:35927   */\n      dup4\n        /* \"#utility.yul\":35918:35932   */\n      gt\n        /* \"#utility.yul\":35946:35947   */\n      0x01\n        /* \"#utility.yul\":35941:36559   */\n      dup2\n      eq\n      tag_901\n      jumpi\n        /* \"#utility.yul\":36603:36604   */\n      0x00\n        /* \"#utility.yul\":36620:36626   */\n      dup5\n        /* \"#utility.yul\":36617:36694   */\n      iszero\n      tag_902\n      jumpi\n        /* \"#utility.yul\":36669:36678   */\n      dup3\n        /* \"#utility.yul\":36664:36667   */\n      dup8\n        /* \"#utility.yul\":36660:36679   */\n      add\n        /* \"#utility.yul\":36654:36680   */\n      mload\n        /* \"#utility.yul\":36645:36680   */\n      swap1\n      pop\n        /* \"#utility.yul\":36617:36694   */\n    tag_902:\n        /* \"#utility.yul\":36720:36787   */\n      tag_903\n        /* \"#utility.yul\":36780:36786   */\n      dup6\n        /* \"#utility.yul\":36773:36778   */\n      dup3\n        /* \"#utility.yul\":36720:36787   */\n      tag_581\n      jump\t// in\n    tag_903:\n        /* \"#utility.yul\":36714:36718   */\n      dup7\n        /* \"#utility.yul\":36707:36788   */\n      sstore\n        /* \"#utility.yul\":36576:36798   */\n      pop\n        /* \"#utility.yul\":35911:36798   */\n      jump(tag_900)\n        /* \"#utility.yul\":35941:36559   */\n    tag_901:\n        /* \"#utility.yul\":35993:35997   */\n      0x1f\n        /* \"#utility.yul\":35989:35998   */\n      not\n        /* \"#utility.yul\":35981:35987   */\n      dup5\n        /* \"#utility.yul\":35977:35999   */\n      and\n        /* \"#utility.yul\":36027:36064   */\n      tag_904\n        /* \"#utility.yul\":36059:36063   */\n      dup7\n        /* \"#utility.yul\":36027:36064   */\n      tag_567\n      jump\t// in\n    tag_904:\n        /* \"#utility.yul\":36086:36087   */\n      0x00\n        /* \"#utility.yul\":36100:36308   */\n    tag_905:\n        /* \"#utility.yul\":36114:36121   */\n      dup3\n        /* \"#utility.yul\":36111:36112   */\n      dup2\n        /* \"#utility.yul\":36108:36122   */\n      lt\n        /* \"#utility.yul\":36100:36308   */\n      iszero\n      tag_907\n      jumpi\n        /* \"#utility.yul\":36193:36202   */\n      dup5\n        /* \"#utility.yul\":36188:36191   */\n      dup10\n        /* \"#utility.yul\":36184:36203   */\n      add\n        /* \"#utility.yul\":36178:36204   */\n      mload\n        /* \"#utility.yul\":36170:36176   */\n      dup3\n        /* \"#utility.yul\":36163:36205   */\n      sstore\n        /* \"#utility.yul\":36244:36245   */\n      0x01\n        /* \"#utility.yul\":36236:36242   */\n      dup3\n        /* \"#utility.yul\":36232:36246   */\n      add\n        /* \"#utility.yul\":36222:36246   */\n      swap2\n      pop\n        /* \"#utility.yul\":36291:36293   */\n      0x20\n        /* \"#utility.yul\":36280:36289   */\n      dup6\n        /* \"#utility.yul\":36276:36294   */\n      add\n        /* \"#utility.yul\":36263:36294   */\n      swap5\n      pop\n        /* \"#utility.yul\":36137:36141   */\n      0x20\n        /* \"#utility.yul\":36134:36135   */\n      dup2\n        /* \"#utility.yul\":36130:36142   */\n      add\n        /* \"#utility.yul\":36125:36142   */\n      swap1\n      pop\n        /* \"#utility.yul\":36100:36308   */\n      jump(tag_905)\n    tag_907:\n        /* \"#utility.yul\":36336:36342   */\n      dup7\n        /* \"#utility.yul\":36327:36334   */\n      dup4\n        /* \"#utility.yul\":36324:36343   */\n      lt\n        /* \"#utility.yul\":36321:36500   */\n      iszero\n      tag_908\n      jumpi\n        /* \"#utility.yul\":36394:36403   */\n      dup5\n        /* \"#utility.yul\":36389:36392   */\n      dup10\n        /* \"#utility.yul\":36385:36404   */\n      add\n        /* \"#utility.yul\":36379:36405   */\n      mload\n        /* \"#utility.yul\":36437:36485   */\n      tag_909\n        /* \"#utility.yul\":36479:36483   */\n      0x1f\n        /* \"#utility.yul\":36471:36477   */\n      dup10\n        /* \"#utility.yul\":36467:36484   */\n      and\n        /* \"#utility.yul\":36456:36465   */\n      dup3\n        /* \"#utility.yul\":36437:36485   */\n      tag_580\n      jump\t// in\n    tag_909:\n        /* \"#utility.yul\":36429:36435   */\n      dup4\n        /* \"#utility.yul\":36422:36486   */\n      sstore\n        /* \"#utility.yul\":36344:36500   */\n      pop\n        /* \"#utility.yul\":36321:36500   */\n    tag_908:\n        /* \"#utility.yul\":36546:36547   */\n      0x01\n        /* \"#utility.yul\":36542:36543   */\n      0x02\n        /* \"#utility.yul\":36534:36540   */\n      dup9\n        /* \"#utility.yul\":36530:36544   */\n      mul\n        /* \"#utility.yul\":36526:36548   */\n      add\n        /* \"#utility.yul\":36520:36524   */\n      dup9\n        /* \"#utility.yul\":36513:36549   */\n      sstore\n        /* \"#utility.yul\":35948:36559   */\n      pop\n      pop\n      pop\n        /* \"#utility.yul\":35911:36798   */\n    tag_900:\n      pop\n        /* \"#utility.yul\":35501:36804   */\n      pop\n      pop\n      pop\n        /* \"#utility.yul\":35409:36804   */\n      pop\n      pop\n      jump\t// out\n        /* \"#utility.yul\":36810:37107   */\n    tag_582:\n        /* \"#utility.yul\":36950:36984   */\n      0x5468652070726f706f73616c2073657373696f6e206973206e6f7420656e6465\n        /* \"#utility.yul\":36946:36947   */\n      0x00\n        /* \"#utility.yul\":36938:36944   */\n      dup3\n        /* \"#utility.yul\":36934:36948   */\n      add\n        /* \"#utility.yul\":36927:36985   */\n      mstore\n        /* \"#utility.yul\":37019:37053   */\n      0x64206f722074686520766f74652073657373696f6e2068617320616c72656164\n        /* \"#utility.yul\":37014:37016   */\n      0x20\n        /* \"#utility.yul\":37006:37012   */\n      dup3\n        /* \"#utility.yul\":37002:37017   */\n      add\n        /* \"#utility.yul\":36995:37054   */\n      mstore\n        /* \"#utility.yul\":37088:37099   */\n      0x7920737461727465640000000000000000000000000000000000000000000000\n        /* \"#utility.yul\":37083:37085   */\n      0x40\n        /* \"#utility.yul\":37075:37081   */\n      dup3\n        /* \"#utility.yul\":37071:37086   */\n      add\n        /* \"#utility.yul\":37064:37100   */\n      mstore\n        /* \"#utility.yul\":36810:37107   */\n      pop\n      jump\t// out\n        /* \"#utility.yul\":37113:37479   */\n    tag_583:\n        /* \"#utility.yul\":37255:37258   */\n      0x00\n        /* \"#utility.yul\":37276:37343   */\n      tag_912\n        /* \"#utility.yul\":37340:37342   */\n      0x49\n        /* \"#utility.yul\":37335:37338   */\n      dup4\n        /* \"#utility.yul\":37276:37343   */\n      tag_527\n      jump\t// in\n    tag_912:\n        /* \"#utility.yul\":37269:37343   */\n      swap2\n      pop\n        /* \"#utility.yul\":37352:37445   */\n      tag_913\n        /* \"#utility.yul\":37441:37444   */\n      dup3\n        /* \"#utility.yul\":37352:37445   */\n      tag_582\n      jump\t// in\n    tag_913:\n        /* \"#utility.yul\":37470:37472   */\n      0x60\n        /* \"#utility.yul\":37465:37468   */\n      dup3\n        /* \"#utility.yul\":37461:37473   */\n      add\n        /* \"#utility.yul\":37454:37473   */\n      swap1\n      pop\n        /* \"#utility.yul\":37113:37479   */\n      swap2\n      swap1\n      pop\n      jump\t// out\n        /* \"#utility.yul\":37485:37904   */\n    tag_321:\n        /* \"#utility.yul\":37651:37655   */\n      0x00\n        /* \"#utility.yul\":37689:37691   */\n      0x20\n        /* \"#utility.yul\":37678:37687   */\n      dup3\n        /* \"#utility.yul\":37674:37692   */\n      add\n        /* \"#utility.yul\":37666:37692   */\n      swap1\n      pop\n        /* \"#utility.yul\":37738:37747   */\n      dup2\n        /* \"#utility.yul\":37732:37736   */\n      dup2\n        /* \"#utility.yul\":37728:37748   */\n      sub\n        /* \"#utility.yul\":37724:37725   */\n      0x00\n        /* \"#utility.yul\":37713:37722   */\n      dup4\n        /* \"#utility.yul\":37709:37726   */\n      add\n        /* \"#utility.yul\":37702:37749   */\n      mstore\n        /* \"#utility.yul\":37766:37897   */\n      tag_915\n        /* \"#utility.yul\":37892:37896   */\n      dup2\n        /* \"#utility.yul\":37766:37897   */\n      tag_583\n      jump\t// in\n    tag_915:\n        /* \"#utility.yul\":37758:37897   */\n      swap1\n      pop\n        /* \"#utility.yul\":37485:37904   */\n      swap2\n      swap1\n      pop\n      jump\t// out\n        /* \"#utility.yul\":37910:38089   */\n    tag_584:\n        /* \"#utility.yul\":38050:38081   */\n      0x54686520766f74652073657373696f6e206973206e6f7420656e646564000000\n        /* \"#utility.yul\":38046:38047   */\n      0x00\n        /* \"#utility.yul\":38038:38044   */\n      dup3\n        /* \"#utility.yul\":38034:38048   */\n      add\n        /* \"#utility.yul\":38027:38082   */\n      mstore\n        /* \"#utility.yul\":37910:38089   */\n      pop\n      jump\t// out\n        /* \"#utility.yul\":38095:38461   */\n    tag_585:\n        /* \"#utility.yul\":38237:38240   */\n      0x00\n        /* \"#utility.yul\":38258:38325   */\n      tag_918\n        /* \"#utility.yul\":38322:38324   */\n      0x1d\n        /* \"#utility.yul\":38317:38320   */\n      dup4\n        /* \"#utility.yul\":38258:38325   */\n      tag_527\n      jump\t// in\n    tag_918:\n        /* \"#utility.yul\":38251:38325   */\n      swap2\n      pop\n        /* \"#utility.yul\":38334:38427   */\n      tag_919\n        /* \"#utility.yul\":38423:38426   */\n      dup3\n        /* \"#utility.yul\":38334:38427   */\n      tag_584\n      jump\t// in\n    tag_919:\n        /* \"#utility.yul\":38452:38454   */\n      0x20\n        /* \"#utility.yul\":38447:38450   */\n      dup3\n        /* \"#utility.yul\":38443:38455   */\n      add\n        /* \"#utility.yul\":38436:38455   */\n      swap1\n      pop\n        /* \"#utility.yul\":38095:38461   */\n      swap2\n      swap1\n      pop\n      jump\t// out\n        /* \"#utility.yul\":38467:38886   */\n    tag_339:\n        /* \"#utility.yul\":38633:38637   */\n      0x00\n        /* \"#utility.yul\":38671:38673   */\n      0x20\n        /* \"#utility.yul\":38660:38669   */\n      dup3\n        /* \"#utility.yul\":38656:38674   */\n      add\n        /* \"#utility.yul\":38648:38674   */\n      swap1\n      pop\n        /* \"#utility.yul\":38720:38729   */\n      dup2\n        /* \"#utility.yul\":38714:38718   */\n      dup2\n        /* \"#utility.yul\":38710:38730   */\n      sub\n        /* \"#utility.yul\":38706:38707   */\n      0x00\n        /* \"#utility.yul\":38695:38704   */\n      dup4\n        /* \"#utility.yul\":38691:38708   */\n      add\n        /* \"#utility.yul\":38684:38731   */\n      mstore\n        /* \"#utility.yul\":38748:38879   */\n      tag_921\n        /* \"#utility.yul\":38874:38878   */\n      dup2\n        /* \"#utility.yul\":38748:38879   */\n      tag_585\n      jump\t// in\n    tag_921:\n        /* \"#utility.yul\":38740:38879   */\n      swap1\n      pop\n        /* \"#utility.yul\":38467:38886   */\n      swap2\n      swap1\n      pop\n      jump\t// out\n        /* \"#utility.yul\":38892:39124   */\n    tag_586:\n        /* \"#utility.yul\":39032:39066   */\n      0x5468657265206973206d6f7265207468616e20312077696e6e65722c20796f75\n        /* \"#utility.yul\":39028:39029   */\n      0x00\n        /* \"#utility.yul\":39020:39026   */\n      dup3\n        /* \"#utility.yul\":39016:39030   */\n      add\n        /* \"#utility.yul\":39009:39067   */\n      mstore\n        /* \"#utility.yul\":39101:39116   */\n      0x206861766520746f20766f746500000000000000000000000000000000000000\n        /* \"#utility.yul\":39096:39098   */\n      0x20\n        /* \"#utility.yul\":39088:39094   */\n      dup3\n        /* \"#utility.yul\":39084:39099   */\n      add\n        /* \"#utility.yul\":39077:39117   */\n      mstore\n        /* \"#utility.yul\":38892:39124   */\n      pop\n      jump\t// out\n        /* \"#utility.yul\":39130:39496   */\n    tag_587:\n        /* \"#utility.yul\":39272:39275   */\n      0x00\n        /* \"#utility.yul\":39293:39360   */\n      tag_924\n        /* \"#utility.yul\":39357:39359   */\n      0x2d\n        /* \"#utility.yul\":39352:39355   */\n      dup4\n        /* \"#utility.yul\":39293:39360   */\n      tag_527\n      jump\t// in\n    tag_924:\n        /* \"#utility.yul\":39286:39360   */\n      swap2\n      pop\n        /* \"#utility.yul\":39369:39462   */\n      tag_925\n        /* \"#utility.yul\":39458:39461   */\n      dup3\n        /* \"#utility.yul\":39369:39462   */\n      tag_586\n      jump\t// in\n    tag_925:\n        /* \"#utility.yul\":39487:39489   */\n      0x40\n        /* \"#utility.yul\":39482:39485   */\n      dup3\n        /* \"#utility.yul\":39478:39490   */\n      add\n        /* \"#utility.yul\":39471:39490   */\n      swap1\n      pop\n        /* \"#utility.yul\":39130:39496   */\n      swap2\n      swap1\n      pop\n      jump\t// out\n        /* \"#utility.yul\":39502:39921   */\n    tag_342:\n        /* \"#utility.yul\":39668:39672   */\n      0x00\n        /* \"#utility.yul\":39706:39708   */\n      0x20\n        /* \"#utility.yul\":39695:39704   */\n      dup3\n        /* \"#utility.yul\":39691:39709   */\n      add\n        /* \"#utility.yul\":39683:39709   */\n      swap1\n      pop\n        /* \"#utility.yul\":39755:39764   */\n      dup2\n        /* \"#utility.yul\":39749:39753   */\n      dup2\n        /* \"#utility.yul\":39745:39765   */\n      sub\n        /* \"#utility.yul\":39741:39742   */\n      0x00\n        /* \"#utility.yul\":39730:39739   */\n      dup4\n        /* \"#utility.yul\":39726:39743   */\n      add\n        /* \"#utility.yul\":39719:39766   */\n      mstore\n        /* \"#utility.yul\":39783:39914   */\n      tag_927\n        /* \"#utility.yul\":39909:39913   */\n      dup2\n        /* \"#utility.yul\":39783:39914   */\n      tag_587\n      jump\t// in\n    tag_927:\n        /* \"#utility.yul\":39775:39914   */\n      swap1\n      pop\n        /* \"#utility.yul\":39502:39921   */\n      swap2\n      swap1\n      pop\n      jump\t// out\n        /* \"#utility.yul\":39927:40148   */\n    tag_588:\n        /* \"#utility.yul\":40067:40101   */\n      0x546865206c61737420766f746520686173206e6f74206265656e2074616c6c69\n        /* \"#utility.yul\":40063:40064   */\n      0x00\n        /* \"#utility.yul\":40055:40061   */\n      dup3\n        /* \"#utility.yul\":40051:40065   */\n      add\n        /* \"#utility.yul\":40044:40102   */\n      mstore\n        /* \"#utility.yul\":40136:40140   */\n      0x6564000000000000000000000000000000000000000000000000000000000000\n        /* \"#utility.yul\":40131:40133   */\n      0x20\n        /* \"#utility.yul\":40123:40129   */\n      dup3\n        /* \"#utility.yul\":40119:40134   */\n      add\n        /* \"#utility.yul\":40112:40141   */\n      mstore\n        /* \"#utility.yul\":39927:40148   */\n      pop\n      jump\t// out\n        /* \"#utility.yul\":40154:40520   */\n    tag_589:\n        /* \"#utility.yul\":40296:40299   */\n      0x00\n        /* \"#utility.yul\":40317:40384   */\n      tag_930\n        /* \"#utility.yul\":40381:40383   */\n      0x22\n        /* \"#utility.yul\":40376:40379   */\n      dup4\n        /* \"#utility.yul\":40317:40384   */\n      tag_527\n      jump\t// in\n    tag_930:\n        /* \"#utility.yul\":40310:40384   */\n      swap2\n      pop\n        /* \"#utility.yul\":40393:40486   */\n      tag_931\n        /* \"#utility.yul\":40482:40485   */\n      dup3\n        /* \"#utility.yul\":40393:40486   */\n      tag_588\n      jump\t// in\n    tag_931:\n        /* \"#utility.yul\":40511:40513   */\n      0x40\n        /* \"#utility.yul\":40506:40509   */\n      dup3\n        /* \"#utility.yul\":40502:40514   */\n      add\n        /* \"#utility.yul\":40495:40514   */\n      swap1\n      pop\n        /* \"#utility.yul\":40154:40520   */\n      swap2\n      swap1\n      pop\n      jump\t// out\n        /* \"#utility.yul\":40526:40945   */\n    tag_382:\n        /* \"#utility.yul\":40692:40696   */\n      0x00\n        /* \"#utility.yul\":40730:40732   */\n      0x20\n        /* \"#utility.yul\":40719:40728   */\n      dup3\n        /* \"#utility.yul\":40715:40733   */\n      add\n        /* \"#utility.yul\":40707:40733   */\n      swap1\n      pop\n        /* \"#utility.yul\":40779:40788   */\n      dup2\n        /* \"#utility.yul\":40773:40777   */\n      dup2\n        /* \"#utility.yul\":40769:40789   */\n      sub\n        /* \"#utility.yul\":40765:40766   */\n      0x00\n        /* \"#utility.yul\":40754:40763   */\n      dup4\n        /* \"#utility.yul\":40750:40767   */\n      add\n        /* \"#utility.yul\":40743:40790   */\n      mstore\n        /* \"#utility.yul\":40807:40938   */\n      tag_933\n        /* \"#utility.yul\":40933:40937   */\n      dup2\n        /* \"#utility.yul\":40807:40938   */\n      tag_589\n      jump\t// in\n    tag_933:\n        /* \"#utility.yul\":40799:40938   */\n      swap1\n      pop\n        /* \"#utility.yul\":40526:40945   */\n      swap2\n      swap1\n      pop\n      jump\t// out\n        /* \"#utility.yul\":40951:41200   */\n    tag_590:\n        /* \"#utility.yul\":41091:41125   */\n      0x5468652070726f706f73616c2073657373696f6e20686173206e6f7420737461\n        /* \"#utility.yul\":41087:41088   */\n      0x00\n        /* \"#utility.yul\":41079:41085   */\n      dup3\n        /* \"#utility.yul\":41075:41089   */\n      add\n        /* \"#utility.yul\":41068:41126   */\n      mstore\n        /* \"#utility.yul\":41160:41192   */\n      0x72746564206f722068617320616c7265616479206265656e20656e6465640000\n        /* \"#utility.yul\":41155:41157   */\n      0x20\n        /* \"#utility.yul\":41147:41153   */\n      dup3\n        /* \"#utility.yul\":41143:41158   */\n      add\n        /* \"#utility.yul\":41136:41193   */\n      mstore\n        /* \"#utility.yul\":40951:41200   */\n      pop\n      jump\t// out\n        /* \"#utility.yul\":41206:41572   */\n    tag_591:\n        /* \"#utility.yul\":41348:41351   */\n      0x00\n        /* \"#utility.yul\":41369:41436   */\n      tag_936\n        /* \"#utility.yul\":41433:41435   */\n      0x3e\n        /* \"#utility.yul\":41428:41431   */\n      dup4\n        /* \"#utility.yul\":41369:41436   */\n      tag_527\n      jump\t// in\n    tag_936:\n        /* \"#utility.yul\":41362:41436   */\n      swap2\n      pop\n        /* \"#utility.yul\":41445:41538   */\n      tag_937\n        /* \"#utility.yul\":41534:41537   */\n      dup3\n        /* \"#utility.yul\":41445:41538   */\n      tag_590\n      jump\t// in\n    tag_937:\n        /* \"#utility.yul\":41563:41565   */\n      0x40\n        /* \"#utility.yul\":41558:41561   */\n      dup3\n        /* \"#utility.yul\":41554:41566   */\n      add\n        /* \"#utility.yul\":41547:41566   */\n      swap1\n      pop\n        /* \"#utility.yul\":41206:41572   */\n      swap2\n      swap1\n      pop\n      jump\t// out\n        /* \"#utility.yul\":41578:41997   */\n    tag_404:\n        /* \"#utility.yul\":41744:41748   */\n      0x00\n        /* \"#utility.yul\":41782:41784   */\n      0x20\n        /* \"#utility.yul\":41771:41780   */\n      dup3\n        /* \"#utility.yul\":41767:41785   */\n      add\n        /* \"#utility.yul\":41759:41785   */\n      swap1\n      pop\n        /* \"#utility.yul\":41831:41840   */\n      dup2\n        /* \"#utility.yul\":41825:41829   */\n      dup2\n        /* \"#utility.yul\":41821:41841   */\n      sub\n        /* \"#utility.yul\":41817:41818   */\n      0x00\n        /* \"#utility.yul\":41806:41815   */\n      dup4\n        /* \"#utility.yul\":41802:41819   */\n      add\n        /* \"#utility.yul\":41795:41842   */\n      mstore\n        /* \"#utility.yul\":41859:41990   */\n      tag_939\n        /* \"#utility.yul\":41985:41989   */\n      dup2\n        /* \"#utility.yul\":41859:41990   */\n      tag_591\n      jump\t// in\n    tag_939:\n        /* \"#utility.yul\":41851:41990   */\n      swap1\n      pop\n        /* \"#utility.yul\":41578:41997   */\n      swap2\n      swap1\n      pop\n      jump\t// out\n        /* \"#utility.yul\":42003:42223   */\n    tag_592:\n        /* \"#utility.yul\":42143:42177   */\n      0x546865726520617265206e6f2070726f706f73616c7320726567697374657265\n        /* \"#utility.yul\":42139:42140   */\n      0x00\n        /* \"#utility.yul\":42131:42137   */\n      dup3\n        /* \"#utility.yul\":42127:42141   */\n      add\n        /* \"#utility.yul\":42120:42178   */\n      mstore\n        /* \"#utility.yul\":42212:42215   */\n      0x6400000000000000000000000000000000000000000000000000000000000000\n        /* \"#utility.yul\":42207:42209   */\n      0x20\n        /* \"#utility.yul\":42199:42205   */\n      dup3\n        /* \"#utility.yul\":42195:42210   */\n      add\n        /* \"#utility.yul\":42188:42216   */\n      mstore\n        /* \"#utility.yul\":42003:42223   */\n      pop\n      jump\t// out\n        /* \"#utility.yul\":42229:42595   */\n    tag_593:\n        /* \"#utility.yul\":42371:42374   */\n      0x00\n        /* \"#utility.yul\":42392:42459   */\n      tag_942\n        /* \"#utility.yul\":42456:42458   */\n      0x21\n        /* \"#utility.yul\":42451:42454   */\n      dup4\n        /* \"#utility.yul\":42392:42459   */\n      tag_527\n      jump\t// in\n    tag_942:\n        /* \"#utility.yul\":42385:42459   */\n      swap2\n      pop\n        /* \"#utility.yul\":42468:42561   */\n      tag_943\n        /* \"#utility.yul\":42557:42560   */\n      dup3\n        /* \"#utility.yul\":42468:42561   */\n      tag_592\n      jump\t// in\n    tag_943:\n        /* \"#utility.yul\":42586:42588   */\n      0x40\n        /* \"#utility.yul\":42581:42584   */\n      dup3\n        /* \"#utility.yul\":42577:42589   */\n      add\n        /* \"#utility.yul\":42570:42589   */\n      swap1\n      pop\n        /* \"#utility.yul\":42229:42595   */\n      swap2\n      swap1\n      pop\n      jump\t// out\n        /* \"#utility.yul\":42601:43020   */\n    tag_407:\n        /* \"#utility.yul\":42767:42771   */\n      0x00\n        /* \"#utility.yul\":42805:42807   */\n      0x20\n        /* \"#utility.yul\":42794:42803   */\n      dup3\n        /* \"#utility.yul\":42790:42808   */\n      add\n        /* \"#utility.yul\":42782:42808   */\n      swap1\n      pop\n        /* \"#utility.yul\":42854:42863   */\n      dup2\n        /* \"#utility.yul\":42848:42852   */\n      dup2\n        /* \"#utility.yul\":42844:42864   */\n      sub\n        /* \"#utility.yul\":42840:42841   */\n      0x00\n        /* \"#utility.yul\":42829:42838   */\n      dup4\n        /* \"#utility.yul\":42825:42842   */\n      add\n        /* \"#utility.yul\":42818:42865   */\n      mstore\n        /* \"#utility.yul\":42882:43013   */\n      tag_945\n        /* \"#utility.yul\":43008:43012   */\n      dup2\n        /* \"#utility.yul\":42882:43013   */\n      tag_593\n      jump\t// in\n    tag_945:\n        /* \"#utility.yul\":42874:43013   */\n      swap1\n      pop\n        /* \"#utility.yul\":42601:43020   */\n      swap2\n      swap1\n      pop\n      jump\t// out\n        /* \"#utility.yul\":43026:43266   */\n    tag_594:\n        /* \"#utility.yul\":43166:43200   */\n      0x54686520766f74652073657373696f6e20686173206e6f742073746172746564\n        /* \"#utility.yul\":43162:43163   */\n      0x00\n        /* \"#utility.yul\":43154:43160   */\n      dup3\n        /* \"#utility.yul\":43150:43164   */\n      add\n        /* \"#utility.yul\":43143:43201   */\n      mstore\n        /* \"#utility.yul\":43235:43258   */\n      0x206f722068617320616c726561647920656e6465640000000000000000000000\n        /* \"#utility.yul\":43230:43232   */\n      0x20\n        /* \"#utility.yul\":43222:43228   */\n      dup3\n        /* \"#utility.yul\":43218:43233   */\n      add\n        /* \"#utility.yul\":43211:43259   */\n      mstore\n        /* \"#utility.yul\":43026:43266   */\n      pop\n      jump\t// out\n        /* \"#utility.yul\":43272:43638   */\n    tag_595:\n        /* \"#utility.yul\":43414:43417   */\n      0x00\n        /* \"#utility.yul\":43435:43502   */\n      tag_948\n        /* \"#utility.yul\":43499:43501   */\n      0x35\n        /* \"#utility.yul\":43494:43497   */\n      dup4\n        /* \"#utility.yul\":43435:43502   */\n      tag_527\n      jump\t// in\n    tag_948:\n        /* \"#utility.yul\":43428:43502   */\n      swap2\n      pop\n        /* \"#utility.yul\":43511:43604   */\n      tag_949\n        /* \"#utility.yul\":43600:43603   */\n      dup3\n        /* \"#utility.yul\":43511:43604   */\n      tag_594\n      jump\t// in\n    tag_949:\n        /* \"#utility.yul\":43629:43631   */\n      0x40\n        /* \"#utility.yul\":43624:43627   */\n      dup3\n        /* \"#utility.yul\":43620:43632   */\n      add\n        /* \"#utility.yul\":43613:43632   */\n      swap1\n      pop\n        /* \"#utility.yul\":43272:43638   */\n      swap2\n      swap1\n      pop\n      jump\t// out\n        /* \"#utility.yul\":43644:44063   */\n    tag_432:\n        /* \"#utility.yul\":43810:43814   */\n      0x00\n        /* \"#utility.yul\":43848:43850   */\n      0x20\n        /* \"#utility.yul\":43837:43846   */\n      dup3\n        /* \"#utility.yul\":43833:43851   */\n      add\n        /* \"#utility.yul\":43825:43851   */\n      swap1\n      pop\n        /* \"#utility.yul\":43897:43906   */\n      dup2\n        /* \"#utility.yul\":43891:43895   */\n      dup2\n        /* \"#utility.yul\":43887:43907   */\n      sub\n        /* \"#utility.yul\":43883:43884   */\n      0x00\n        /* \"#utility.yul\":43872:43881   */\n      dup4\n        /* \"#utility.yul\":43868:43885   */\n      add\n        /* \"#utility.yul\":43861:43908   */\n      mstore\n        /* \"#utility.yul\":43925:44056   */\n      tag_951\n        /* \"#utility.yul\":44051:44055   */\n      dup2\n        /* \"#utility.yul\":43925:44056   */\n      tag_595\n      jump\t// in\n    tag_951:\n        /* \"#utility.yul\":43917:44056   */\n      swap1\n      pop\n        /* \"#utility.yul\":43644:44063   */\n      swap2\n      swap1\n      pop\n      jump\t// out\n        /* \"#utility.yul\":44069:44247   */\n    tag_596:\n        /* \"#utility.yul\":44209:44239   */\n      0x546865726520617265206e6f20766f7465207265676973746572656400000000\n        /* \"#utility.yul\":44205:44206   */\n      0x00\n        /* \"#utility.yul\":44197:44203   */\n      dup3\n        /* \"#utility.yul\":44193:44207   */\n      add\n        /* \"#utility.yul\":44186:44240   */\n      mstore\n        /* \"#utility.yul\":44069:44247   */\n      pop\n      jump\t// out\n        /* \"#utility.yul\":44253:44619   */\n    tag_597:\n        /* \"#utility.yul\":44395:44398   */\n      0x00\n        /* \"#utility.yul\":44416:44483   */\n      tag_954\n        /* \"#utility.yul\":44480:44482   */\n      0x1c\n        /* \"#utility.yul\":44475:44478   */\n      dup4\n        /* \"#utility.yul\":44416:44483   */\n      tag_527\n      jump\t// in\n    tag_954:\n        /* \"#utility.yul\":44409:44483   */\n      swap2\n      pop\n        /* \"#utility.yul\":44492:44585   */\n      tag_955\n        /* \"#utility.yul\":44581:44584   */\n      dup3\n        /* \"#utility.yul\":44492:44585   */\n      tag_596\n      jump\t// in\n    tag_955:\n        /* \"#utility.yul\":44610:44612   */\n      0x20\n        /* \"#utility.yul\":44605:44608   */\n      dup3\n        /* \"#utility.yul\":44601:44613   */\n      add\n        /* \"#utility.yul\":44594:44613   */\n      swap1\n      pop\n        /* \"#utility.yul\":44253:44619   */\n      swap2\n      swap1\n      pop\n      jump\t// out\n        /* \"#utility.yul\":44625:45044   */\n    tag_435:\n        /* \"#utility.yul\":44791:44795   */\n      0x00\n        /* \"#utility.yul\":44829:44831   */\n      0x20\n        /* \"#utility.yul\":44818:44827   */\n      dup3\n        /* \"#utility.yul\":44814:44832   */\n      add\n        /* \"#utility.yul\":44806:44832   */\n      swap1\n      pop\n        /* \"#utility.yul\":44878:44887   */\n      dup2\n        /* \"#utility.yul\":44872:44876   */\n      dup2\n        /* \"#utility.yul\":44868:44888   */\n      sub\n        /* \"#utility.yul\":44864:44865   */\n      0x00\n        /* \"#utility.yul\":44853:44862   */\n      dup4\n        /* \"#utility.yul\":44849:44866   */\n      add\n        /* \"#utility.yul\":44842:44889   */\n      mstore\n        /* \"#utility.yul\":44906:45037   */\n      tag_957\n        /* \"#utility.yul\":45032:45036   */\n      dup2\n        /* \"#utility.yul\":44906:45037   */\n      tag_597\n      jump\t// in\n    tag_957:\n        /* \"#utility.yul\":44898:45037   */\n      swap1\n      pop\n        /* \"#utility.yul\":44625:45044   */\n      swap2\n      swap1\n      pop\n      jump\t// out\n\n    auxdata: 0xa2646970667358221220b0e5136cd3a52be2f20dac63a07508791aaa47f33352512a6812fbd4a7cceb9164736f6c634300081c0033\n}\n",
				"bytecode": {
					"linkReferences": {},
					"object": "60806040525f60045f6101000a81548160ff0219169083600581111561002857610027610185565b5b0217905550600160095534801561003d575f5ffd5b50335f73ffffffffffffffffffffffffffffffffffffffff168173ffffffffffffffffffffffffffffffffffffffff16036100af575f6040517f1e4fbdf70000000000000000000000000000000000000000000000000000000081526004016100a691906101f1565b60405180910390fd5b6100be816100c460201b60201c565b5061020a565b5f5f5f9054906101000a900473ffffffffffffffffffffffffffffffffffffffff169050815f5f6101000a81548173ffffffffffffffffffffffffffffffffffffffff021916908373ffffffffffffffffffffffffffffffffffffffff1602179055508173ffffffffffffffffffffffffffffffffffffffff168173ffffffffffffffffffffffffffffffffffffffff167f8be0079c531659141344cd1fd0a4f28419497f9722a3daafe3b4186f6b6457e060405160405180910390a35050565b7f4e487b71000000000000000000000000000000000000000000000000000000005f52602160045260245ffd5b5f73ffffffffffffffffffffffffffffffffffffffff82169050919050565b5f6101db826101b2565b9050919050565b6101eb816101d1565b82525050565b5f6020820190506102045f8301846101e2565b92915050565b6139b0806102175f395ff3fe608060405234801561000f575f5ffd5b50600436106101c2575f3560e01c8063a46c3637116100f7578063c3c5a54711610095578063e06752c21161006f578063e06752c214610474578063e1ab86fb1461047e578063f2fde38b1461049c578063f74c168d146104b8576101c2565b8063c3c5a5471461041c578063d370035a1461044c578063d826f88f1461046a576101c2565b8063ada7415f116100d1578063ada7415f146103a6578063af64e735146103b0578063bfbf53af146103e0578063c08cc02d146103fe576101c2565b8063a46c363714610362578063aa98df3914610380578063aaa983461461039c576101c2565b806365f88a7c116101645780638da5cb5b1161013e5780638da5cb5b146102ea5780639589dfcc14610308578063a3c1885b14610326578063a3dd261914610344576101c2565b806365f88a7c14610292578063715018a6146102b057806380525548146102ba576101c2565b806350d072fc116101a057806350d072fc1461021c5780635bc465141461022657806362564c481461024457806364aa135a14610262576101c2565b80630121b93f146101c657806311174a29146101e257806338db6dd314610200575b5f5ffd5b6101e060048036038101906101db919061234f565b6104c2565b005b6101ea610813565b6040516101f79190612389565b60405180910390f35b61021a600480360381019061021591906123fc565b61081c565b005b610224610a42565b005b61022e610bb4565b60405161023b9190612389565b60405180910390f35b61024c610c31565b60405161025991906125bd565b60405180910390f35b61027c6004803603810190610277919061234f565b610d7b565b60405161028991906125ec565b60405180910390f35b61029a610f14565b6040516102a79190612678565b60405180910390f35b6102b8610f59565b005b6102d460048036038101906102cf91906123fc565b610f6c565b6040516102e191906126de565b60405180910390f35b6102f26111bb565b6040516102ff91906125ec565b60405180910390f35b6103106111e2565b60405161031d9190612389565b60405180910390f35b61032e6111eb565b60405161033b91906126de565b60405180910390f35b61034c611387565b6040516103599190612678565b60405180910390f35b61036a61139c565b6040516103779190612389565b60405180910390f35b61039a6004803603810190610395919061282a565b6113a5565b005b6103a46115dc565b005b6103ae61170a565b005b6103ca60048036038101906103c591906123fc565b61187d565b6040516103d7919061288b565b60405180910390f35b6103e86118d1565b6040516103f591906128ec565b60405180910390f35b6104066119f7565b6040516104139190612389565b60405180910390f35b610436600480360381019061043191906123fc565b611a03565b604051610443919061288b565b60405180910390f35b610454611a14565b60405161046191906129b4565b60405180910390f35b610472611a9f565b005b61047c611c84565b005b610486611df9565b6040516104939190612389565b60405180910390f35b6104b660048036038101906104b191906123fc565b611e02565b005b6104c0611e86565b005b3373ffffffffffffffffffffffffffffffffffffffff166104e16111bb565b73ffffffffffffffffffffffffffffffffffffffff160361054e57600160085411610541576040517f08c379a000000000000000000000000000000000000000000000000000000000815260040161053890612a44565b60405180910390fd5b60016008819055506106a5565b6003600581111561056257610561612605565b5b60045f9054906101000a900460ff16600581111561058357610582612605565b5b146105c3576040517f08c379a00000000000000000000000000000000000000000000000000000000081526004016105ba90612ad2565b60405180910390fd5b600115156105d03361187d565b151514610612576040517f08c379a000000000000000000000000000000000000000000000000000000000815260040161060990612b3a565b60405180910390fd5b5f151560015f3373ffffffffffffffffffffffffffffffffffffffff1673ffffffffffffffffffffffffffffffffffffffff1681526020019081526020015f205f0160019054906101000a900460ff161515146106a4576040517f08c379a000000000000000000000000000000000000000000000000000000000815260040161069b90612ba2565b60405180910390fd5b5b60028054905081106106ec576040517f08c379a00000000000000000000000000000000000000000000000000000000081526004016106e390612c0a565b60405180910390fd5b6001805f3373ffffffffffffffffffffffffffffffffffffffff1673ffffffffffffffffffffffffffffffffffffffff1681526020019081526020015f205f0160016101000a81548160ff0219169083151502179055508060015f3373ffffffffffffffffffffffffffffffffffffffff1673ffffffffffffffffffffffffffffffffffffffff1681526020019081526020015f20600101819055506002818154811061079c5761079b612c28565b5b905f5260205f2090600302016001015f8154809291906107bb90612c82565b919050555060075f8154809291906107d290612c82565b91905055507f4d99b957a2bc29a30ebd96a7be8e68fe50a3c701db28a91436490b7d53870ca43382604051610808929190612cc9565b60405180910390a150565b5f600654905090565b610824611fff565b5f600581111561083757610836612605565b5b60045f9054906101000a900460ff16600581111561085857610857612605565b5b14610898576040517f08c379a000000000000000000000000000000000000000000000000000000000815260040161088f90612d60565b60405180910390fd5b5f15156108a48261187d565b1515146108e6576040517f08c379a00000000000000000000000000000000000000000000000000000000081526004016108dd90612dc8565b60405180910390fd5b5f60405180606001604052806001151581526020015f151581526020015f81525090508060015f8473ffffffffffffffffffffffffffffffffffffffff1673ffffffffffffffffffffffffffffffffffffffff1681526020019081526020015f205f820151815f015f6101000a81548160ff0219169083151502179055506020820151815f0160016101000a81548160ff02191690831515021790555060408201518160010155905050600382908060018154018082558091505060019003905f5260205f20015f9091909190916101000a81548173ffffffffffffffffffffffffffffffffffffffff021916908373ffffffffffffffffffffffffffffffffffffffff16021790555060065f815480929190610a0290612c82565b91905055507fb6be2187d059cc2a55fe29e0e503b566e1e0f8c8780096e185429350acffd3dd82604051610a3691906125ec565b60405180910390a15050565b610a4a611fff565b5f6005811115610a5d57610a5c612605565b5b60045f9054906101000a900460ff166005811115610a7e57610a7d612605565b5b14610abe576040517f08c379a0000000000000000000000000000000000000000000000000000000008152600401610ab590612e56565b60405180910390fd5b600160065411610b03576040517f08c379a0000000000000000000000000000000000000000000000000000000008152600401610afa90612ee4565b60405180910390fd5b600160045f6101000a81548160ff02191690836005811115610b2857610b27612605565b5b02179055507f0a97a4ee45751e2abf3e4fc8946939630b11b371ea8ae39ccdc3056e98f5cc3f600160045f9054906101000a900460ff166005811115610b7157610b70612605565b5b610b7b9190612f02565b6005811115610b8d57610b8c612605565b5b60045f9054906101000a900460ff16604051610baa929190612f35565b60405180910390a1565b5f600580811115610bc857610bc7612605565b5b60045f9054906101000a900460ff166005811115610be957610be8612605565b5b14610c29576040517f08c379a0000000000000000000000000000000000000000000000000000000008152600401610c2090612fcc565b60405180910390fd5b600554905090565b60606002805480602002602001604051908101604052809291908181526020015f905b82821015610d72578382905f5260205f2090600302016040518060600160405290815f82018054610c8490613017565b80601f0160208091040260200160405190810160405280929190818152602001828054610cb090613017565b8015610cfb5780601f10610cd257610100808354040283529160200191610cfb565b820191905f5260205f20905b815481529060010190602001808311610cde57829003601f168201915b5050505050815260200160018201548152602001600282015f9054906101000a900473ffffffffffffffffffffffffffffffffffffffff1673ffffffffffffffffffffffffffffffffffffffff1673ffffffffffffffffffffffffffffffffffffffff168152505081526020019060010190610c54565b50505050905090565b5f60016005811115610d9057610d8f612605565b5b60045f9054906101000a900460ff166005811115610db157610db0612605565b5b1015610df2576040517f08c379a0000000000000000000000000000000000000000000000000000000008152600401610de9906130b7565b60405180910390fd5b6002805490508210610e39576040517f08c379a0000000000000000000000000000000000000000000000000000000008152600401610e3090612c0a565b60405180910390fd5b60011515610e8860028481548110610e5457610e53612c28565b5b905f5260205f2090600302016002015f9054906101000a900473ffffffffffffffffffffffffffffffffffffffff1661187d565b151514610eca576040517f08c379a0000000000000000000000000000000000000000000000000000000008152600401610ec19061311f565b60405180910390fd5b60028281548110610ede57610edd612c28565b5b905f5260205f2090600302016002015f9054906101000a900473ffffffffffffffffffffffffffffffffffffffff169050919050565b5f600160045f9054906101000a900460ff166005811115610f3857610f37612605565b5b610f429190612f02565b6005811115610f5457610f53612605565b5b905090565b610f61611fff565b610f6a5f612086565b565b610f746121ed565b60011515610f818361187d565b151514610fc3576040517f08c379a0000000000000000000000000000000000000000000000000000000008152600401610fba9061311f565b60405180910390fd5b6001151560015f8473ffffffffffffffffffffffffffffffffffffffff1673ffffffffffffffffffffffffffffffffffffffff1681526020019081526020015f205f0160019054906101000a900460ff16151514611056576040517f08c379a000000000000000000000000000000000000000000000000000000000815260040161104d90613187565b60405180910390fd5b5f60015f8473ffffffffffffffffffffffffffffffffffffffff1673ffffffffffffffffffffffffffffffffffffffff1681526020019081526020015f20600101549050600281815481106110ae576110ad612c28565b5b905f5260205f2090600302016040518060600160405290815f820180546110d490613017565b80601f016020809104026020016040519081016040528092919081815260200182805461110090613017565b801561114b5780601f106111225761010080835404028352916020019161114b565b820191905f5260205f20905b81548152906001019060200180831161112e57829003601f168201915b5050505050815260200160018201548152602001600282015f9054906101000a900473ffffffffffffffffffffffffffffffffffffffff1673ffffffffffffffffffffffffffffffffffffffff1673ffffffffffffffffffffffffffffffffffffffff1681525050915050919050565b5f5f5f9054906101000a900473ffffffffffffffffffffffffffffffffffffffff16905090565b5f600954905090565b6111f36121ed565b60058081111561120657611205612605565b5b60045f9054906101000a900460ff16600581111561122757611226612605565b5b14611267576040517f08c379a000000000000000000000000000000000000000000000000000000000815260040161125e90612fcc565b60405180910390fd5b60026005548154811061127d5761127c612c28565b5b905f5260205f2090600302016040518060600160405290815f820180546112a390613017565b80601f01602080910402602001604051908101604052809291908181526020018280546112cf90613017565b801561131a5780601f106112f15761010080835404028352916020019161131a565b820191905f5260205f20905b8154815290600101906020018083116112fd57829003601f168201915b5050505050815260200160018201548152602001600282015f9054906101000a900473ffffffffffffffffffffffffffffffffffffffff1673ffffffffffffffffffffffffffffffffffffffff1673ffffffffffffffffffffffffffffffffffffffff1681525050905090565b5f60045f9054906101000a900460ff16905090565b5f600854905090565b600160058111156113b9576113b8612605565b5b60045f9054906101000a900460ff1660058111156113da576113d9612605565b5b1461141a576040517f08c379a000000000000000000000000000000000000000000000000000000000815260040161141190613215565b60405180910390fd5b3373ffffffffffffffffffffffffffffffffffffffff166114396111bb565b73ffffffffffffffffffffffffffffffffffffffff160361148f576040517f08c379a0000000000000000000000000000000000000000000000000000000008152600401611486906132a3565b60405180910390fd5b6001151561149c3361187d565b1515146114de576040517f08c379a00000000000000000000000000000000000000000000000000000000081526004016114d590612b3a565b60405180910390fd5b600260405180606001604052808381526020015f81526020013373ffffffffffffffffffffffffffffffffffffffff16815250908060018154018082558091505060019003905f5260205f2090600302015f909190919091505f820151815f01908161154a9190613461565b50602082015181600101556040820151816002015f6101000a81548173ffffffffffffffffffffffffffffffffffffffff021916908373ffffffffffffffffffffffffffffffffffffffff16021790555050507f92e393e9b54e2f801d3ea4beb0c5e71a21cc34a5d34b77d0fb8a3aa1650dc18f6002805490506040516115d19190612389565b60405180910390a150565b6115e4611fff565b600260058111156115f8576115f7612605565b5b60045f9054906101000a900460ff16600581111561161957611618612605565b5b14611659576040517f08c379a0000000000000000000000000000000000000000000000000000000008152600401611650906135c6565b60405180910390fd5b600360045f6101000a81548160ff0219169083600581111561167e5761167d612605565b5b02179055507f0a97a4ee45751e2abf3e4fc8946939630b11b371ea8ae39ccdc3056e98f5cc3f600160045f9054906101000a900460ff1660058111156116c7576116c6612605565b5b6116d19190612f02565b60058111156116e3576116e2612605565b5b60045f9054906101000a900460ff16604051611700929190612f35565b60405180910390a1565b611712611fff565b6004600581111561172657611725612605565b5b60045f9054906101000a900460ff16600581111561174757611746612605565b5b14611787576040517f08c379a000000000000000000000000000000000000000000000000000000000815260040161177e9061362e565b60405180910390fd5b6001600854146117cc576040517f08c379a00000000000000000000000000000000000000000000000000000000081526004016117c3906136bc565b60405180910390fd5b600560045f6101000a81548160ff021916908360058111156117f1576117f0612605565b5b02179055507f0a97a4ee45751e2abf3e4fc8946939630b11b371ea8ae39ccdc3056e98f5cc3f600160045f9054906101000a900460ff16600581111561183a57611839612605565b5b6118449190612f02565b600581111561185657611855612605565b5b60045f9054906101000a900460ff16604051611873929190612f35565b60405180910390a1565b5f60015f8373ffffffffffffffffffffffffffffffffffffffff1673ffffffffffffffffffffffffffffffffffffffff1681526020019081526020015f205f015f9054906101000a900460ff169050919050565b60606005808111156118e6576118e5612605565b5b60045f9054906101000a900460ff16600581111561190757611906612605565b5b14611947576040517f08c379a000000000000000000000000000000000000000000000000000000000815260040161193e90612fcc565b60405180910390fd5b60026005548154811061195d5761195c612c28565b5b905f5260205f2090600302015f01805461197690613017565b80601f01602080910402602001604051908101604052809291908181526020018280546119a290613017565b80156119ed5780601f106119c4576101008083540402835291602001916119ed565b820191905f5260205f20905b8154815290600101906020018083116119d057829003601f168201915b5050505050905090565b5f600280549050905090565b5f611a0d8261187d565b9050919050565b60606003805480602002602001604051908101604052809291908181526020018280548015611a9557602002820191905f5260205f20905b815f9054906101000a900473ffffffffffffffffffffffffffffffffffffffff1673ffffffffffffffffffffffffffffffffffffffff1681526020019060010190808311611a4c575b5050505050905090565b611aa7611fff565b600580811115611aba57611ab9612605565b5b60045f9054906101000a900460ff166005811115611adb57611ada612605565b5b14611b1b576040517f08c379a0000000000000000000000000000000000000000000000000000000008152600401611b129061374a565b60405180910390fd5b5f5f90505b600380549050811015611c1a5760405180606001604052805f151581526020015f151581526020015f81525060015f60038481548110611b6357611b62612c28565b5b905f5260205f20015f9054906101000a900473ffffffffffffffffffffffffffffffffffffffff1673ffffffffffffffffffffffffffffffffffffffff1673ffffffffffffffffffffffffffffffffffffffff1681526020019081526020015f205f820151815f015f6101000a81548160ff0219169083151502179055506020820151815f0160016101000a81548160ff021916908315150217905550604082015181600101559050508080600101915050611b20565b5060025f611c289190612222565b60035f611c359190612243565b5f6008819055505f6005819055505f6006819055505f60078190555060016009819055505f60045f6101000a81548160ff02191690836005811115611c7d57611c7c612605565b5b0217905550565b611c8c611fff565b60016005811115611ca057611c9f612605565b5b60045f9054906101000a900460ff166005811115611cc157611cc0612605565b5b14611d01576040517f08c379a0000000000000000000000000000000000000000000000000000000008152600401611cf8906137d8565b60405180910390fd5b5f60028054905011611d48576040517f08c379a0000000000000000000000000000000000000000000000000000000008152600401611d3f90613866565b60405180910390fd5b600260045f6101000a81548160ff02191690836005811115611d6d57611d6c612605565b5b02179055507f0a97a4ee45751e2abf3e4fc8946939630b11b371ea8ae39ccdc3056e98f5cc3f600160045f9054906101000a900460ff166005811115611db657611db5612605565b5b611dc09190612f02565b6005811115611dd257611dd1612605565b5b60045f9054906101000a900460ff16604051611def929190612f35565b60405180910390a1565b5f600754905090565b611e0a611fff565b5f73ffffffffffffffffffffffffffffffffffffffff168173ffffffffffffffffffffffffffffffffffffffff1603611e7a575f6040517f1e4fbdf7000000000000000000000000000000000000000000000000000000008152600401611e7191906125ec565b60405180910390fd5b611e8381612086565b50565b611e8e611fff565b60036005811115611ea257611ea1612605565b5b60045f9054906101000a900460ff166005811115611ec357611ec2612605565b5b14611f03576040517f08c379a0000000000000000000000000000000000000000000000000000000008152600401611efa906138f4565b60405180910390fd5b5f60075411611f47576040517f08c379a0000000000000000000000000000000000000000000000000000000008152600401611f3e9061395c565b60405180910390fd5b6004805f6101000a81548160ff02191690836005811115611f6b57611f6a612605565b5b0217905550611f78612147565b7f0a97a4ee45751e2abf3e4fc8946939630b11b371ea8ae39ccdc3056e98f5cc3f600160045f9054906101000a900460ff166005811115611fbc57611fbb612605565b5b611fc69190612f02565b6005811115611fd857611fd7612605565b5b60045f9054906101000a900460ff16604051611ff5929190612f35565b60405180910390a1565b6120076121e6565b73ffffffffffffffffffffffffffffffffffffffff166120256111bb565b73ffffffffffffffffffffffffffffffffffffffff1614612084576120486121e6565b6040517f118cdaa700000000000000000000000000000000000000000000000000000000815260040161207b91906125ec565b60405180910390fd5b565b5f5f5f9054906101000a900473ffffffffffffffffffffffffffffffffffffffff169050815f5f6101000a81548173ffffffffffffffffffffffffffffffffffffffff021916908373ffffffffffffffffffffffffffffffffffffffff1602179055508173ffffffffffffffffffffffffffffffffffffffff168173ffffffffffffffffffffffffffffffffffffffff167f8be0079c531659141344cd1fd0a4f28419497f9722a3daafe3b4186f6b6457e060405160405180910390a35050565b61214f611fff565b5f5f90505b6002805490508110156121e3576009546002828154811061217857612177612c28565b5b905f5260205f20906003020160010154106121d657600281815481106121a1576121a0612c28565b5b905f5260205f209060030201600101546009819055508060058190555060085f8154809291906121d090612c82565b91905055505b8080600101915050612154565b50565b5f33905090565b6040518060600160405280606081526020015f81526020015f73ffffffffffffffffffffffffffffffffffffffff1681525090565b5080545f8255600302905f5260205f20908101906122409190612261565b50565b5080545f8255905f5260205f209081019061225e91906122b3565b50565b5b808211156122af575f5f82015f61227991906122ce565b600182015f9055600282015f6101000a81549073ffffffffffffffffffffffffffffffffffffffff021916905550600301612262565b5090565b5b808211156122ca575f815f9055506001016122b4565b5090565b5080546122da90613017565b5f825580601f106122eb5750612308565b601f0160209004905f5260205f209081019061230791906122b3565b5b50565b5f604051905090565b5f5ffd5b5f5ffd5b5f819050919050565b61232e8161231c565b8114612338575f5ffd5b50565b5f8135905061234981612325565b92915050565b5f6020828403121561236457612363612314565b5b5f6123718482850161233b565b91505092915050565b6123838161231c565b82525050565b5f60208201905061239c5f83018461237a565b92915050565b5f73ffffffffffffffffffffffffffffffffffffffff82169050919050565b5f6123cb826123a2565b9050919050565b6123db816123c1565b81146123e5575f5ffd5b50565b5f813590506123f6816123d2565b92915050565b5f6020828403121561241157612410612314565b5b5f61241e848285016123e8565b91505092915050565b5f81519050919050565b5f82825260208201905092915050565b5f819050602082019050919050565b5f81519050919050565b5f82825260208201905092915050565b8281835e5f83830152505050565b5f601f19601f8301169050919050565b5f61249282612450565b61249c818561245a565b93506124ac81856020860161246a565b6124b581612478565b840191505092915050565b6124c98161231c565b82525050565b6124d8816123c1565b82525050565b5f606083015f8301518482035f8601526124f88282612488565b915050602083015161250d60208601826124c0565b50604083015161252060408601826124cf565b508091505092915050565b5f61253683836124de565b905092915050565b5f602082019050919050565b5f61255482612427565b61255e8185612431565b93508360208202850161257085612441565b805f5b858110156125ab578484038952815161258c858261252b565b94506125978361253e565b925060208a01995050600181019050612573565b50829750879550505050505092915050565b5f6020820190508181035f8301526125d5818461254a565b905092915050565b6125e6816123c1565b82525050565b5f6020820190506125ff5f8301846125dd565b92915050565b7f4e487b71000000000000000000000000000000000000000000000000000000005f52602160045260245ffd5b6006811061264357612642612605565b5b50565b5f81905061265382612632565b919050565b5f61266282612646565b9050919050565b61267281612658565b82525050565b5f60208201905061268b5f830184612669565b92915050565b5f606083015f8301518482035f8601526126ab8282612488565b91505060208301516126c060208601826124c0565b5060408301516126d360408601826124cf565b508091505092915050565b5f6020820190508181035f8301526126f68184612691565b905092915050565b5f5ffd5b5f5ffd5b7f4e487b71000000000000000000000000000000000000000000000000000000005f52604160045260245ffd5b61273c82612478565b810181811067ffffffffffffffff8211171561275b5761275a612706565b5b80604052505050565b5f61276d61230b565b90506127798282612733565b919050565b5f67ffffffffffffffff82111561279857612797612706565b5b6127a182612478565b9050602081019050919050565b828183375f83830152505050565b5f6127ce6127c98461277e565b612764565b9050828152602081018484840111156127ea576127e9612702565b5b6127f58482856127ae565b509392505050565b5f82601f830112612811576128106126fe565b5b81356128218482602086016127bc565b91505092915050565b5f6020828403121561283f5761283e612314565b5b5f82013567ffffffffffffffff81111561285c5761285b612318565b5b612868848285016127fd565b91505092915050565b5f8115159050919050565b61288581612871565b82525050565b5f60208201905061289e5f83018461287c565b92915050565b5f82825260208201905092915050565b5f6128be82612450565b6128c881856128a4565b93506128d881856020860161246a565b6128e181612478565b840191505092915050565b5f6020820190508181035f83015261290481846128b4565b905092915050565b5f81519050919050565b5f82825260208201905092915050565b5f819050602082019050919050565b5f61294083836124cf565b60208301905092915050565b5f602082019050919050565b5f6129628261290c565b61296c8185612916565b935061297783612926565b805f5b838110156129a757815161298e8882612935565b97506129998361294c565b92505060018101905061297a565b5085935050505092915050565b5f6020820190508181035f8301526129cc8184612958565b905092915050565b7f596f752063616e206f6e6c7920766f7465206966207468657265206973206d6f5f8201527f7265207468616e20312077696e6e657200000000000000000000000000000000602082015250565b5f612a2e6030836128a4565b9150612a39826129d4565b604082019050919050565b5f6020820190508181035f830152612a5b81612a22565b9050919050565b7f54686520766f74696e672073657373696f6e206973206e6f74207374617274655f8201527f6400000000000000000000000000000000000000000000000000000000000000602082015250565b5f612abc6021836128a4565b9150612ac782612a62565b604082019050919050565b5f6020820190508181035f830152612ae981612ab0565b9050919050565b7f596f7520617265206e6f742072656769737465726564000000000000000000005f82015250565b5f612b246016836128a4565b9150612b2f82612af0565b602082019050919050565b5f6020820190508181035f830152612b5181612b18565b9050919050565b7f596f7520616c726561647920766f7465640000000000000000000000000000005f82015250565b5f612b8c6011836128a4565b9150612b9782612b58565b602082019050919050565b5f6020820190508181035f830152612bb981612b80565b9050919050565b7f546869732070726f706f73616c20494420646f6573206e6f74206578697374735f82015250565b5f612bf46020836128a4565b9150612bff82612bc0565b602082019050919050565b5f6020820190508181035f830152612c2181612be8565b9050919050565b7f4e487b71000000000000000000000000000000000000000000000000000000005f52603260045260245ffd5b7f4e487b71000000000000000000000000000000000000000000000000000000005f52601160045260245ffd5b5f612c8c8261231c565b91507fffffffffffffffffffffffffffffffffffffffffffffffffffffffffffffffff8203612cbe57612cbd612c55565b5b600182019050919050565b5f604082019050612cdc5f8301856125dd565b612ce9602083018461237a565b9392505050565b7f596f7520617265206e6f7420696e20766f74657220726567697374726174696f5f8201527f6e20706572696f64000000000000000000000000000000000000000000000000602082015250565b5f612d4a6028836128a4565b9150612d5582612cf0565b604082019050919050565b5f6020820190508181035f830152612d7781612d3e565b9050919050565b7f596f7520616c72656164792068617665206164642074686973206164726573735f82015250565b5f612db26020836128a4565b9150612dbd82612d7e565b602082019050919050565b5f6020820190508181035f830152612ddf81612da6565b9050919050565b7f596f752063616e206e6f7420737461727420616761696e207468652070726f705f8201527f6f73616c2073657373696f6e0000000000000000000000000000000000000000602082015250565b5f612e40602c836128a4565b9150612e4b82612de6565b604082019050919050565b5f6020820190508181035f830152612e6d81612e34565b9050919050565b7f596f75206d757374207265676973746572206174206c656173742032206164645f8201527f7265737365730000000000000000000000000000000000000000000000000000602082015250565b5f612ece6026836128a4565b9150612ed982612e74565b604082019050919050565b5f6020820190508181035f830152612efb81612ec2565b9050919050565b5f612f0c8261231c565b9150612f178361231c565b9250828203905081811115612f2f57612f2e612c55565b5b92915050565b5f604082019050612f485f830185612669565b612f556020830184612669565b9392505050565b7f5468652077696e6e65722068617665206e6f74206265656e2063686f6f73656e5f8201527f2079657400000000000000000000000000000000000000000000000000000000602082015250565b5f612fb66024836128a4565b9150612fc182612f5c565b604082019050919050565b5f6020820190508181035f830152612fe381612faa565b9050919050565b7f4e487b71000000000000000000000000000000000000000000000000000000005f52602260045260245ffd5b5f600282049050600182168061302e57607f821691505b60208210810361304157613040612fea565b5b50919050565b7f5468652070726f706f73616c2073657373696f6e20686173206e6f74207374615f8201527f7274656400000000000000000000000000000000000000000000000000000000602082015250565b5f6130a16024836128a4565b91506130ac82613047565b604082019050919050565b5f6020820190508181035f8301526130ce81613095565b9050919050565b7f546869732061646472657373206973206e6f74207265676973746572656400005f82015250565b5f613109601e836128a4565b9150613114826130d5565b602082019050919050565b5f6020820190508181035f830152613136816130fd565b9050919050565b7f54686973206164647265737320686173206e6f7420766f7465640000000000005f82015250565b5f613171601a836128a4565b915061317c8261313d565b602082019050919050565b5f6020820190508181035f83015261319e81613165565b9050919050565b7f5468652070726f706f73616c2073657373696f6e206973206e6f7420737461725f8201527f7465640000000000000000000000000000000000000000000000000000000000602082015250565b5f6131ff6023836128a4565b915061320a826131a5565b604082019050919050565b5f6020820190508181035f83015261322c816131f3565b9050919050565b7f596f752061726520746865206f776e6572206f66207468697320636f6e7472615f8201527f63742c20796f752063616e206e6f742070726f706f7365000000000000000000602082015250565b5f61328d6037836128a4565b915061329882613233565b604082019050919050565b5f6020820190508181035f8301526132ba81613281565b9050919050565b5f819050815f5260205f209050919050565b5f6020601f8301049050919050565b5f82821b905092915050565b5f6008830261331d7fffffffffffffffffffffffffffffffffffffffffffffffffffffffffffffffff826132e2565b61332786836132e2565b95508019841693508086168417925050509392505050565b5f819050919050565b5f61336261335d6133588461231c565b61333f565b61231c565b9050919050565b5f819050919050565b61337b83613348565b61338f61338782613369565b8484546132ee565b825550505050565b5f5f905090565b6133a6613397565b6133b1818484613372565b505050565b5b818110156133d4576133c95f8261339e565b6001810190506133b7565b5050565b601f821115613419576133ea816132c1565b6133f3846132d3565b81016020851015613402578190505b61341661340e856132d3565b8301826133b6565b50505b505050565b5f82821c905092915050565b5f6134395f198460080261341e565b1980831691505092915050565b5f613451838361342a565b9150826002028217905092915050565b61346a82612450565b67ffffffffffffffff81111561348357613482612706565b5b61348d8254613017565b6134988282856133d8565b5f60209050601f8311600181146134c9575f84156134b7578287015190505b6134c18582613446565b865550613528565b601f1984166134d7866132c1565b5f5b828110156134fe578489015182556001820191506020850194506020810190506134d9565b8683101561351b5784890151613517601f89168261342a565b8355505b6001600288020188555050505b505050505050565b7f5468652070726f706f73616c2073657373696f6e206973206e6f7420656e64655f8201527f64206f722074686520766f74652073657373696f6e2068617320616c7265616460208201527f7920737461727465640000000000000000000000000000000000000000000000604082015250565b5f6135b06049836128a4565b91506135bb82613530565b606082019050919050565b5f6020820190508181035f8301526135dd816135a4565b9050919050565b7f54686520766f74652073657373696f6e206973206e6f7420656e6465640000005f82015250565b5f613618601d836128a4565b9150613623826135e4565b602082019050919050565b5f6020820190508181035f8301526136458161360c565b9050919050565b7f5468657265206973206d6f7265207468616e20312077696e6e65722c20796f755f8201527f206861766520746f20766f746500000000000000000000000000000000000000602082015250565b5f6136a6602d836128a4565b91506136b18261364c565b604082019050919050565b5f6020820190508181035f8301526136d38161369a565b9050919050565b7f546865206c61737420766f746520686173206e6f74206265656e2074616c6c695f8201527f6564000000000000000000000000000000000000000000000000000000000000602082015250565b5f6137346022836128a4565b915061373f826136da565b604082019050919050565b5f6020820190508181035f83015261376181613728565b9050919050565b7f5468652070726f706f73616c2073657373696f6e20686173206e6f74207374615f8201527f72746564206f722068617320616c7265616479206265656e20656e6465640000602082015250565b5f6137c2603e836128a4565b91506137cd82613768565b604082019050919050565b5f6020820190508181035f8301526137ef816137b6565b9050919050565b7f546865726520617265206e6f2070726f706f73616c73207265676973746572655f8201527f6400000000000000000000000000000000000000000000000000000000000000602082015250565b5f6138506021836128a4565b915061385b826137f6565b604082019050919050565b5f6020820190508181035f83015261387d81613844565b9050919050565b7f54686520766f74652073657373696f6e20686173206e6f7420737461727465645f8201527f206f722068617320616c726561647920656e6465640000000000000000000000602082015250565b5f6138de6035836128a4565b91506138e982613884565b604082019050919050565b5f6020820190508181035f83015261390b816138d2565b9050919050565b7f546865726520617265206e6f20766f74652072656769737465726564000000005f82015250565b5f613946601c836128a4565b915061395182613912565b602082019050919050565b5f6020820190508181035f8301526139738161393a565b905091905056fea2646970667358221220b0e5136cd3a52be2f20dac63a07508791aaa47f33352512a6812fbd4a7cceb9164736f6c634300081c0033",
					"opcodes": "PUSH1 0x80 PUSH1 0x40 MSTORE PUSH0 PUSH1 0x4 PUSH0 PUSH2 0x100 EXP DUP2 SLOAD DUP2 PUSH1 0xFF MUL NOT AND SWAP1 DUP4 PUSH1 0x5 DUP2 GT ISZERO PUSH2 0x28 JUMPI PUSH2 0x27 PUSH2 0x185 JUMP JUMPDEST JUMPDEST MUL OR SWAP1 SSTORE POP PUSH1 0x1 PUSH1 0x9 SSTORE CALLVALUE DUP1 ISZERO PUSH2 0x3D JUMPI PUSH0 PUSH0 REVERT JUMPDEST POP CALLER PUSH0 PUSH20 0xFFFFFFFFFFFFFFFFFFFFFFFFFFFFFFFFFFFFFFFF AND DUP2 PUSH20 0xFFFFFFFFFFFFFFFFFFFFFFFFFFFFFFFFFFFFFFFF AND SUB PUSH2 0xAF JUMPI PUSH0 PUSH1 0x40 MLOAD PUSH32 0x1E4FBDF700000000000000000000000000000000000000000000000000000000 DUP2 MSTORE PUSH1 0x4 ADD PUSH2 0xA6 SWAP2 SWAP1 PUSH2 0x1F1 JUMP JUMPDEST PUSH1 0x40 MLOAD DUP1 SWAP2 SUB SWAP1 REVERT JUMPDEST PUSH2 0xBE DUP2 PUSH2 0xC4 PUSH1 0x20 SHL PUSH1 0x20 SHR JUMP JUMPDEST POP PUSH2 0x20A JUMP JUMPDEST PUSH0 PUSH0 PUSH0 SWAP1 SLOAD SWAP1 PUSH2 0x100 EXP SWAP1 DIV PUSH20 0xFFFFFFFFFFFFFFFFFFFFFFFFFFFFFFFFFFFFFFFF AND SWAP1 POP DUP2 PUSH0 PUSH0 PUSH2 0x100 EXP DUP2 SLOAD DUP2 PUSH20 0xFFFFFFFFFFFFFFFFFFFFFFFFFFFFFFFFFFFFFFFF MUL NOT AND SWAP1 DUP4 PUSH20 0xFFFFFFFFFFFFFFFFFFFFFFFFFFFFFFFFFFFFFFFF AND MUL OR SWAP1 SSTORE POP DUP2 PUSH20 0xFFFFFFFFFFFFFFFFFFFFFFFFFFFFFFFFFFFFFFFF AND DUP2 PUSH20 0xFFFFFFFFFFFFFFFFFFFFFFFFFFFFFFFFFFFFFFFF AND PUSH32 0x8BE0079C531659141344CD1FD0A4F28419497F9722A3DAAFE3B4186F6B6457E0 PUSH1 0x40 MLOAD PUSH1 0x40 MLOAD DUP1 SWAP2 SUB SWAP1 LOG3 POP POP JUMP JUMPDEST PUSH32 0x4E487B7100000000000000000000000000000000000000000000000000000000 PUSH0 MSTORE PUSH1 0x21 PUSH1 0x4 MSTORE PUSH1 0x24 PUSH0 REVERT JUMPDEST PUSH0 PUSH20 0xFFFFFFFFFFFFFFFFFFFFFFFFFFFFFFFFFFFFFFFF DUP3 AND SWAP1 POP SWAP2 SWAP1 POP JUMP JUMPDEST PUSH0 PUSH2 0x1DB DUP3 PUSH2 0x1B2 JUMP JUMPDEST SWAP1 POP SWAP2 SWAP1 POP JUMP JUMPDEST PUSH2 0x1EB DUP2 PUSH2 0x1D1 JUMP JUMPDEST DUP3 MSTORE POP POP JUMP JUMPDEST PUSH0 PUSH1 0x20 DUP3 ADD SWAP1 POP PUSH2 0x204 PUSH0 DUP4 ADD DUP5 PUSH2 0x1E2 JUMP JUMPDEST SWAP3 SWAP2 POP POP JUMP JUMPDEST PUSH2 0x39B0 DUP1 PUSH2 0x217 PUSH0 CODECOPY PUSH0 RETURN INVALID PUSH1 0x80 PUSH1 0x40 MSTORE CALLVALUE DUP1 ISZERO PUSH2 0xF JUMPI PUSH0 PUSH0 REVERT JUMPDEST POP PUSH1 0x4 CALLDATASIZE LT PUSH2 0x1C2 JUMPI PUSH0 CALLDATALOAD PUSH1 0xE0 SHR DUP1 PUSH4 0xA46C3637 GT PUSH2 0xF7 JUMPI DUP1 PUSH4 0xC3C5A547 GT PUSH2 0x95 JUMPI DUP1 PUSH4 0xE06752C2 GT PUSH2 0x6F JUMPI DUP1 PUSH4 0xE06752C2 EQ PUSH2 0x474 JUMPI DUP1 PUSH4 0xE1AB86FB EQ PUSH2 0x47E JUMPI DUP1 PUSH4 0xF2FDE38B EQ PUSH2 0x49C JUMPI DUP1 PUSH4 0xF74C168D EQ PUSH2 0x4B8 JUMPI PUSH2 0x1C2 JUMP JUMPDEST DUP1 PUSH4 0xC3C5A547 EQ PUSH2 0x41C JUMPI DUP1 PUSH4 0xD370035A EQ PUSH2 0x44C JUMPI DUP1 PUSH4 0xD826F88F EQ PUSH2 0x46A JUMPI PUSH2 0x1C2 JUMP JUMPDEST DUP1 PUSH4 0xADA7415F GT PUSH2 0xD1 JUMPI DUP1 PUSH4 0xADA7415F EQ PUSH2 0x3A6 JUMPI DUP1 PUSH4 0xAF64E735 EQ PUSH2 0x3B0 JUMPI DUP1 PUSH4 0xBFBF53AF EQ PUSH2 0x3E0 JUMPI DUP1 PUSH4 0xC08CC02D EQ PUSH2 0x3FE JUMPI PUSH2 0x1C2 JUMP JUMPDEST DUP1 PUSH4 0xA46C3637 EQ PUSH2 0x362 JUMPI DUP1 PUSH4 0xAA98DF39 EQ PUSH2 0x380 JUMPI DUP1 PUSH4 0xAAA98346 EQ PUSH2 0x39C JUMPI PUSH2 0x1C2 JUMP JUMPDEST DUP1 PUSH4 0x65F88A7C GT PUSH2 0x164 JUMPI DUP1 PUSH4 0x8DA5CB5B GT PUSH2 0x13E JUMPI DUP1 PUSH4 0x8DA5CB5B EQ PUSH2 0x2EA JUMPI DUP1 PUSH4 0x9589DFCC EQ PUSH2 0x308 JUMPI DUP1 PUSH4 0xA3C1885B EQ PUSH2 0x326 JUMPI DUP1 PUSH4 0xA3DD2619 EQ PUSH2 0x344 JUMPI PUSH2 0x1C2 JUMP JUMPDEST DUP1 PUSH4 0x65F88A7C EQ PUSH2 0x292 JUMPI DUP1 PUSH4 0x715018A6 EQ PUSH2 0x2B0 JUMPI DUP1 PUSH4 0x80525548 EQ PUSH2 0x2BA JUMPI PUSH2 0x1C2 JUMP JUMPDEST DUP1 PUSH4 0x50D072FC GT PUSH2 0x1A0 JUMPI DUP1 PUSH4 0x50D072FC EQ PUSH2 0x21C JUMPI DUP1 PUSH4 0x5BC46514 EQ PUSH2 0x226 JUMPI DUP1 PUSH4 0x62564C48 EQ PUSH2 0x244 JUMPI DUP1 PUSH4 0x64AA135A EQ PUSH2 0x262 JUMPI PUSH2 0x1C2 JUMP JUMPDEST DUP1 PUSH4 0x121B93F EQ PUSH2 0x1C6 JUMPI DUP1 PUSH4 0x11174A29 EQ PUSH2 0x1E2 JUMPI DUP1 PUSH4 0x38DB6DD3 EQ PUSH2 0x200 JUMPI JUMPDEST PUSH0 PUSH0 REVERT JUMPDEST PUSH2 0x1E0 PUSH1 0x4 DUP1 CALLDATASIZE SUB DUP2 ADD SWAP1 PUSH2 0x1DB SWAP2 SWAP1 PUSH2 0x234F JUMP JUMPDEST PUSH2 0x4C2 JUMP JUMPDEST STOP JUMPDEST PUSH2 0x1EA PUSH2 0x813 JUMP JUMPDEST PUSH1 0x40 MLOAD PUSH2 0x1F7 SWAP2 SWAP1 PUSH2 0x2389 JUMP JUMPDEST PUSH1 0x40 MLOAD DUP1 SWAP2 SUB SWAP1 RETURN JUMPDEST PUSH2 0x21A PUSH1 0x4 DUP1 CALLDATASIZE SUB DUP2 ADD SWAP1 PUSH2 0x215 SWAP2 SWAP1 PUSH2 0x23FC JUMP JUMPDEST PUSH2 0x81C JUMP JUMPDEST STOP JUMPDEST PUSH2 0x224 PUSH2 0xA42 JUMP JUMPDEST STOP JUMPDEST PUSH2 0x22E PUSH2 0xBB4 JUMP JUMPDEST PUSH1 0x40 MLOAD PUSH2 0x23B SWAP2 SWAP1 PUSH2 0x2389 JUMP JUMPDEST PUSH1 0x40 MLOAD DUP1 SWAP2 SUB SWAP1 RETURN JUMPDEST PUSH2 0x24C PUSH2 0xC31 JUMP JUMPDEST PUSH1 0x40 MLOAD PUSH2 0x259 SWAP2 SWAP1 PUSH2 0x25BD JUMP JUMPDEST PUSH1 0x40 MLOAD DUP1 SWAP2 SUB SWAP1 RETURN JUMPDEST PUSH2 0x27C PUSH1 0x4 DUP1 CALLDATASIZE SUB DUP2 ADD SWAP1 PUSH2 0x277 SWAP2 SWAP1 PUSH2 0x234F JUMP JUMPDEST PUSH2 0xD7B JUMP JUMPDEST PUSH1 0x40 MLOAD PUSH2 0x289 SWAP2 SWAP1 PUSH2 0x25EC JUMP JUMPDEST PUSH1 0x40 MLOAD DUP1 SWAP2 SUB SWAP1 RETURN JUMPDEST PUSH2 0x29A PUSH2 0xF14 JUMP JUMPDEST PUSH1 0x40 MLOAD PUSH2 0x2A7 SWAP2 SWAP1 PUSH2 0x2678 JUMP JUMPDEST PUSH1 0x40 MLOAD DUP1 SWAP2 SUB SWAP1 RETURN JUMPDEST PUSH2 0x2B8 PUSH2 0xF59 JUMP JUMPDEST STOP JUMPDEST PUSH2 0x2D4 PUSH1 0x4 DUP1 CALLDATASIZE SUB DUP2 ADD SWAP1 PUSH2 0x2CF SWAP2 SWAP1 PUSH2 0x23FC JUMP JUMPDEST PUSH2 0xF6C JUMP JUMPDEST PUSH1 0x40 MLOAD PUSH2 0x2E1 SWAP2 SWAP1 PUSH2 0x26DE JUMP JUMPDEST PUSH1 0x40 MLOAD DUP1 SWAP2 SUB SWAP1 RETURN JUMPDEST PUSH2 0x2F2 PUSH2 0x11BB JUMP JUMPDEST PUSH1 0x40 MLOAD PUSH2 0x2FF SWAP2 SWAP1 PUSH2 0x25EC JUMP JUMPDEST PUSH1 0x40 MLOAD DUP1 SWAP2 SUB SWAP1 RETURN JUMPDEST PUSH2 0x310 PUSH2 0x11E2 JUMP JUMPDEST PUSH1 0x40 MLOAD PUSH2 0x31D SWAP2 SWAP1 PUSH2 0x2389 JUMP JUMPDEST PUSH1 0x40 MLOAD DUP1 SWAP2 SUB SWAP1 RETURN JUMPDEST PUSH2 0x32E PUSH2 0x11EB JUMP JUMPDEST PUSH1 0x40 MLOAD PUSH2 0x33B SWAP2 SWAP1 PUSH2 0x26DE JUMP JUMPDEST PUSH1 0x40 MLOAD DUP1 SWAP2 SUB SWAP1 RETURN JUMPDEST PUSH2 0x34C PUSH2 0x1387 JUMP JUMPDEST PUSH1 0x40 MLOAD PUSH2 0x359 SWAP2 SWAP1 PUSH2 0x2678 JUMP JUMPDEST PUSH1 0x40 MLOAD DUP1 SWAP2 SUB SWAP1 RETURN JUMPDEST PUSH2 0x36A PUSH2 0x139C JUMP JUMPDEST PUSH1 0x40 MLOAD PUSH2 0x377 SWAP2 SWAP1 PUSH2 0x2389 JUMP JUMPDEST PUSH1 0x40 MLOAD DUP1 SWAP2 SUB SWAP1 RETURN JUMPDEST PUSH2 0x39A PUSH1 0x4 DUP1 CALLDATASIZE SUB DUP2 ADD SWAP1 PUSH2 0x395 SWAP2 SWAP1 PUSH2 0x282A JUMP JUMPDEST PUSH2 0x13A5 JUMP JUMPDEST STOP JUMPDEST PUSH2 0x3A4 PUSH2 0x15DC JUMP JUMPDEST STOP JUMPDEST PUSH2 0x3AE PUSH2 0x170A JUMP JUMPDEST STOP JUMPDEST PUSH2 0x3CA PUSH1 0x4 DUP1 CALLDATASIZE SUB DUP2 ADD SWAP1 PUSH2 0x3C5 SWAP2 SWAP1 PUSH2 0x23FC JUMP JUMPDEST PUSH2 0x187D JUMP JUMPDEST PUSH1 0x40 MLOAD PUSH2 0x3D7 SWAP2 SWAP1 PUSH2 0x288B JUMP JUMPDEST PUSH1 0x40 MLOAD DUP1 SWAP2 SUB SWAP1 RETURN JUMPDEST PUSH2 0x3E8 PUSH2 0x18D1 JUMP JUMPDEST PUSH1 0x40 MLOAD PUSH2 0x3F5 SWAP2 SWAP1 PUSH2 0x28EC JUMP JUMPDEST PUSH1 0x40 MLOAD DUP1 SWAP2 SUB SWAP1 RETURN JUMPDEST PUSH2 0x406 PUSH2 0x19F7 JUMP JUMPDEST PUSH1 0x40 MLOAD PUSH2 0x413 SWAP2 SWAP1 PUSH2 0x2389 JUMP JUMPDEST PUSH1 0x40 MLOAD DUP1 SWAP2 SUB SWAP1 RETURN JUMPDEST PUSH2 0x436 PUSH1 0x4 DUP1 CALLDATASIZE SUB DUP2 ADD SWAP1 PUSH2 0x431 SWAP2 SWAP1 PUSH2 0x23FC JUMP JUMPDEST PUSH2 0x1A03 JUMP JUMPDEST PUSH1 0x40 MLOAD PUSH2 0x443 SWAP2 SWAP1 PUSH2 0x288B JUMP JUMPDEST PUSH1 0x40 MLOAD DUP1 SWAP2 SUB SWAP1 RETURN JUMPDEST PUSH2 0x454 PUSH2 0x1A14 JUMP JUMPDEST PUSH1 0x40 MLOAD PUSH2 0x461 SWAP2 SWAP1 PUSH2 0x29B4 JUMP JUMPDEST PUSH1 0x40 MLOAD DUP1 SWAP2 SUB SWAP1 RETURN JUMPDEST PUSH2 0x472 PUSH2 0x1A9F JUMP JUMPDEST STOP JUMPDEST PUSH2 0x47C PUSH2 0x1C84 JUMP JUMPDEST STOP JUMPDEST PUSH2 0x486 PUSH2 0x1DF9 JUMP JUMPDEST PUSH1 0x40 MLOAD PUSH2 0x493 SWAP2 SWAP1 PUSH2 0x2389 JUMP JUMPDEST PUSH1 0x40 MLOAD DUP1 SWAP2 SUB SWAP1 RETURN JUMPDEST PUSH2 0x4B6 PUSH1 0x4 DUP1 CALLDATASIZE SUB DUP2 ADD SWAP1 PUSH2 0x4B1 SWAP2 SWAP1 PUSH2 0x23FC JUMP JUMPDEST PUSH2 0x1E02 JUMP JUMPDEST STOP JUMPDEST PUSH2 0x4C0 PUSH2 0x1E86 JUMP JUMPDEST STOP JUMPDEST CALLER PUSH20 0xFFFFFFFFFFFFFFFFFFFFFFFFFFFFFFFFFFFFFFFF AND PUSH2 0x4E1 PUSH2 0x11BB JUMP JUMPDEST PUSH20 0xFFFFFFFFFFFFFFFFFFFFFFFFFFFFFFFFFFFFFFFF AND SUB PUSH2 0x54E JUMPI PUSH1 0x1 PUSH1 0x8 SLOAD GT PUSH2 0x541 JUMPI PUSH1 0x40 MLOAD PUSH32 0x8C379A000000000000000000000000000000000000000000000000000000000 DUP2 MSTORE PUSH1 0x4 ADD PUSH2 0x538 SWAP1 PUSH2 0x2A44 JUMP JUMPDEST PUSH1 0x40 MLOAD DUP1 SWAP2 SUB SWAP1 REVERT JUMPDEST PUSH1 0x1 PUSH1 0x8 DUP2 SWAP1 SSTORE POP PUSH2 0x6A5 JUMP JUMPDEST PUSH1 0x3 PUSH1 0x5 DUP2 GT ISZERO PUSH2 0x562 JUMPI PUSH2 0x561 PUSH2 0x2605 JUMP JUMPDEST JUMPDEST PUSH1 0x4 PUSH0 SWAP1 SLOAD SWAP1 PUSH2 0x100 EXP SWAP1 DIV PUSH1 0xFF AND PUSH1 0x5 DUP2 GT ISZERO PUSH2 0x583 JUMPI PUSH2 0x582 PUSH2 0x2605 JUMP JUMPDEST JUMPDEST EQ PUSH2 0x5C3 JUMPI PUSH1 0x40 MLOAD PUSH32 0x8C379A000000000000000000000000000000000000000000000000000000000 DUP2 MSTORE PUSH1 0x4 ADD PUSH2 0x5BA SWAP1 PUSH2 0x2AD2 JUMP JUMPDEST PUSH1 0x40 MLOAD DUP1 SWAP2 SUB SWAP1 REVERT JUMPDEST PUSH1 0x1 ISZERO ISZERO PUSH2 0x5D0 CALLER PUSH2 0x187D JUMP JUMPDEST ISZERO ISZERO EQ PUSH2 0x612 JUMPI PUSH1 0x40 MLOAD PUSH32 0x8C379A000000000000000000000000000000000000000000000000000000000 DUP2 MSTORE PUSH1 0x4 ADD PUSH2 0x609 SWAP1 PUSH2 0x2B3A JUMP JUMPDEST PUSH1 0x40 MLOAD DUP1 SWAP2 SUB SWAP1 REVERT JUMPDEST PUSH0 ISZERO ISZERO PUSH1 0x1 PUSH0 CALLER PUSH20 0xFFFFFFFFFFFFFFFFFFFFFFFFFFFFFFFFFFFFFFFF AND PUSH20 0xFFFFFFFFFFFFFFFFFFFFFFFFFFFFFFFFFFFFFFFF AND DUP2 MSTORE PUSH1 0x20 ADD SWAP1 DUP2 MSTORE PUSH1 0x20 ADD PUSH0 KECCAK256 PUSH0 ADD PUSH1 0x1 SWAP1 SLOAD SWAP1 PUSH2 0x100 EXP SWAP1 DIV PUSH1 0xFF AND ISZERO ISZERO EQ PUSH2 0x6A4 JUMPI PUSH1 0x40 MLOAD PUSH32 0x8C379A000000000000000000000000000000000000000000000000000000000 DUP2 MSTORE PUSH1 0x4 ADD PUSH2 0x69B SWAP1 PUSH2 0x2BA2 JUMP JUMPDEST PUSH1 0x40 MLOAD DUP1 SWAP2 SUB SWAP1 REVERT JUMPDEST JUMPDEST PUSH1 0x2 DUP1 SLOAD SWAP1 POP DUP2 LT PUSH2 0x6EC JUMPI PUSH1 0x40 MLOAD PUSH32 0x8C379A000000000000000000000000000000000000000000000000000000000 DUP2 MSTORE PUSH1 0x4 ADD PUSH2 0x6E3 SWAP1 PUSH2 0x2C0A JUMP JUMPDEST PUSH1 0x40 MLOAD DUP1 SWAP2 SUB SWAP1 REVERT JUMPDEST PUSH1 0x1 DUP1 PUSH0 CALLER PUSH20 0xFFFFFFFFFFFFFFFFFFFFFFFFFFFFFFFFFFFFFFFF AND PUSH20 0xFFFFFFFFFFFFFFFFFFFFFFFFFFFFFFFFFFFFFFFF AND DUP2 MSTORE PUSH1 0x20 ADD SWAP1 DUP2 MSTORE PUSH1 0x20 ADD PUSH0 KECCAK256 PUSH0 ADD PUSH1 0x1 PUSH2 0x100 EXP DUP2 SLOAD DUP2 PUSH1 0xFF MUL NOT AND SWAP1 DUP4 ISZERO ISZERO MUL OR SWAP1 SSTORE POP DUP1 PUSH1 0x1 PUSH0 CALLER PUSH20 0xFFFFFFFFFFFFFFFFFFFFFFFFFFFFFFFFFFFFFFFF AND PUSH20 0xFFFFFFFFFFFFFFFFFFFFFFFFFFFFFFFFFFFFFFFF AND DUP2 MSTORE PUSH1 0x20 ADD SWAP1 DUP2 MSTORE PUSH1 0x20 ADD PUSH0 KECCAK256 PUSH1 0x1 ADD DUP2 SWAP1 SSTORE POP PUSH1 0x2 DUP2 DUP2 SLOAD DUP2 LT PUSH2 0x79C JUMPI PUSH2 0x79B PUSH2 0x2C28 JUMP JUMPDEST JUMPDEST SWAP1 PUSH0 MSTORE PUSH1 0x20 PUSH0 KECCAK256 SWAP1 PUSH1 0x3 MUL ADD PUSH1 0x1 ADD PUSH0 DUP2 SLOAD DUP1 SWAP3 SWAP2 SWAP1 PUSH2 0x7BB SWAP1 PUSH2 0x2C82 JUMP JUMPDEST SWAP2 SWAP1 POP SSTORE POP PUSH1 0x7 PUSH0 DUP2 SLOAD DUP1 SWAP3 SWAP2 SWAP1 PUSH2 0x7D2 SWAP1 PUSH2 0x2C82 JUMP JUMPDEST SWAP2 SWAP1 POP SSTORE POP PUSH32 0x4D99B957A2BC29A30EBD96A7BE8E68FE50A3C701DB28A91436490B7D53870CA4 CALLER DUP3 PUSH1 0x40 MLOAD PUSH2 0x808 SWAP3 SWAP2 SWAP1 PUSH2 0x2CC9 JUMP JUMPDEST PUSH1 0x40 MLOAD DUP1 SWAP2 SUB SWAP1 LOG1 POP JUMP JUMPDEST PUSH0 PUSH1 0x6 SLOAD SWAP1 POP SWAP1 JUMP JUMPDEST PUSH2 0x824 PUSH2 0x1FFF JUMP JUMPDEST PUSH0 PUSH1 0x5 DUP2 GT ISZERO PUSH2 0x837 JUMPI PUSH2 0x836 PUSH2 0x2605 JUMP JUMPDEST JUMPDEST PUSH1 0x4 PUSH0 SWAP1 SLOAD SWAP1 PUSH2 0x100 EXP SWAP1 DIV PUSH1 0xFF AND PUSH1 0x5 DUP2 GT ISZERO PUSH2 0x858 JUMPI PUSH2 0x857 PUSH2 0x2605 JUMP JUMPDEST JUMPDEST EQ PUSH2 0x898 JUMPI PUSH1 0x40 MLOAD PUSH32 0x8C379A000000000000000000000000000000000000000000000000000000000 DUP2 MSTORE PUSH1 0x4 ADD PUSH2 0x88F SWAP1 PUSH2 0x2D60 JUMP JUMPDEST PUSH1 0x40 MLOAD DUP1 SWAP2 SUB SWAP1 REVERT JUMPDEST PUSH0 ISZERO ISZERO PUSH2 0x8A4 DUP3 PUSH2 0x187D JUMP JUMPDEST ISZERO ISZERO EQ PUSH2 0x8E6 JUMPI PUSH1 0x40 MLOAD PUSH32 0x8C379A000000000000000000000000000000000000000000000000000000000 DUP2 MSTORE PUSH1 0x4 ADD PUSH2 0x8DD SWAP1 PUSH2 0x2DC8 JUMP JUMPDEST PUSH1 0x40 MLOAD DUP1 SWAP2 SUB SWAP1 REVERT JUMPDEST PUSH0 PUSH1 0x40 MLOAD DUP1 PUSH1 0x60 ADD PUSH1 0x40 MSTORE DUP1 PUSH1 0x1 ISZERO ISZERO DUP2 MSTORE PUSH1 0x20 ADD PUSH0 ISZERO ISZERO DUP2 MSTORE PUSH1 0x20 ADD PUSH0 DUP2 MSTORE POP SWAP1 POP DUP1 PUSH1 0x1 PUSH0 DUP5 PUSH20 0xFFFFFFFFFFFFFFFFFFFFFFFFFFFFFFFFFFFFFFFF AND PUSH20 0xFFFFFFFFFFFFFFFFFFFFFFFFFFFFFFFFFFFFFFFF AND DUP2 MSTORE PUSH1 0x20 ADD SWAP1 DUP2 MSTORE PUSH1 0x20 ADD PUSH0 KECCAK256 PUSH0 DUP3 ADD MLOAD DUP2 PUSH0 ADD PUSH0 PUSH2 0x100 EXP DUP2 SLOAD DUP2 PUSH1 0xFF MUL NOT AND SWAP1 DUP4 ISZERO ISZERO MUL OR SWAP1 SSTORE POP PUSH1 0x20 DUP3 ADD MLOAD DUP2 PUSH0 ADD PUSH1 0x1 PUSH2 0x100 EXP DUP2 SLOAD DUP2 PUSH1 0xFF MUL NOT AND SWAP1 DUP4 ISZERO ISZERO MUL OR SWAP1 SSTORE POP PUSH1 0x40 DUP3 ADD MLOAD DUP2 PUSH1 0x1 ADD SSTORE SWAP1 POP POP PUSH1 0x3 DUP3 SWAP1 DUP1 PUSH1 0x1 DUP2 SLOAD ADD DUP1 DUP3 SSTORE DUP1 SWAP2 POP POP PUSH1 0x1 SWAP1 SUB SWAP1 PUSH0 MSTORE PUSH1 0x20 PUSH0 KECCAK256 ADD PUSH0 SWAP1 SWAP2 SWAP1 SWAP2 SWAP1 SWAP2 PUSH2 0x100 EXP DUP2 SLOAD DUP2 PUSH20 0xFFFFFFFFFFFFFFFFFFFFFFFFFFFFFFFFFFFFFFFF MUL NOT AND SWAP1 DUP4 PUSH20 0xFFFFFFFFFFFFFFFFFFFFFFFFFFFFFFFFFFFFFFFF AND MUL OR SWAP1 SSTORE POP PUSH1 0x6 PUSH0 DUP2 SLOAD DUP1 SWAP3 SWAP2 SWAP1 PUSH2 0xA02 SWAP1 PUSH2 0x2C82 JUMP JUMPDEST SWAP2 SWAP1 POP SSTORE POP PUSH32 0xB6BE2187D059CC2A55FE29E0E503B566E1E0F8C8780096E185429350ACFFD3DD DUP3 PUSH1 0x40 MLOAD PUSH2 0xA36 SWAP2 SWAP1 PUSH2 0x25EC JUMP JUMPDEST PUSH1 0x40 MLOAD DUP1 SWAP2 SUB SWAP1 LOG1 POP POP JUMP JUMPDEST PUSH2 0xA4A PUSH2 0x1FFF JUMP JUMPDEST PUSH0 PUSH1 0x5 DUP2 GT ISZERO PUSH2 0xA5D JUMPI PUSH2 0xA5C PUSH2 0x2605 JUMP JUMPDEST JUMPDEST PUSH1 0x4 PUSH0 SWAP1 SLOAD SWAP1 PUSH2 0x100 EXP SWAP1 DIV PUSH1 0xFF AND PUSH1 0x5 DUP2 GT ISZERO PUSH2 0xA7E JUMPI PUSH2 0xA7D PUSH2 0x2605 JUMP JUMPDEST JUMPDEST EQ PUSH2 0xABE JUMPI PUSH1 0x40 MLOAD PUSH32 0x8C379A000000000000000000000000000000000000000000000000000000000 DUP2 MSTORE PUSH1 0x4 ADD PUSH2 0xAB5 SWAP1 PUSH2 0x2E56 JUMP JUMPDEST PUSH1 0x40 MLOAD DUP1 SWAP2 SUB SWAP1 REVERT JUMPDEST PUSH1 0x1 PUSH1 0x6 SLOAD GT PUSH2 0xB03 JUMPI PUSH1 0x40 MLOAD PUSH32 0x8C379A000000000000000000000000000000000000000000000000000000000 DUP2 MSTORE PUSH1 0x4 ADD PUSH2 0xAFA SWAP1 PUSH2 0x2EE4 JUMP JUMPDEST PUSH1 0x40 MLOAD DUP1 SWAP2 SUB SWAP1 REVERT JUMPDEST PUSH1 0x1 PUSH1 0x4 PUSH0 PUSH2 0x100 EXP DUP2 SLOAD DUP2 PUSH1 0xFF MUL NOT AND SWAP1 DUP4 PUSH1 0x5 DUP2 GT ISZERO PUSH2 0xB28 JUMPI PUSH2 0xB27 PUSH2 0x2605 JUMP JUMPDEST JUMPDEST MUL OR SWAP1 SSTORE POP PUSH32 0xA97A4EE45751E2ABF3E4FC8946939630B11B371EA8AE39CCDC3056E98F5CC3F PUSH1 0x1 PUSH1 0x4 PUSH0 SWAP1 SLOAD SWAP1 PUSH2 0x100 EXP SWAP1 DIV PUSH1 0xFF AND PUSH1 0x5 DUP2 GT ISZERO PUSH2 0xB71 JUMPI PUSH2 0xB70 PUSH2 0x2605 JUMP JUMPDEST JUMPDEST PUSH2 0xB7B SWAP2 SWAP1 PUSH2 0x2F02 JUMP JUMPDEST PUSH1 0x5 DUP2 GT ISZERO PUSH2 0xB8D JUMPI PUSH2 0xB8C PUSH2 0x2605 JUMP JUMPDEST JUMPDEST PUSH1 0x4 PUSH0 SWAP1 SLOAD SWAP1 PUSH2 0x100 EXP SWAP1 DIV PUSH1 0xFF AND PUSH1 0x40 MLOAD PUSH2 0xBAA SWAP3 SWAP2 SWAP1 PUSH2 0x2F35 JUMP JUMPDEST PUSH1 0x40 MLOAD DUP1 SWAP2 SUB SWAP1 LOG1 JUMP JUMPDEST PUSH0 PUSH1 0x5 DUP1 DUP2 GT ISZERO PUSH2 0xBC8 JUMPI PUSH2 0xBC7 PUSH2 0x2605 JUMP JUMPDEST JUMPDEST PUSH1 0x4 PUSH0 SWAP1 SLOAD SWAP1 PUSH2 0x100 EXP SWAP1 DIV PUSH1 0xFF AND PUSH1 0x5 DUP2 GT ISZERO PUSH2 0xBE9 JUMPI PUSH2 0xBE8 PUSH2 0x2605 JUMP JUMPDEST JUMPDEST EQ PUSH2 0xC29 JUMPI PUSH1 0x40 MLOAD PUSH32 0x8C379A000000000000000000000000000000000000000000000000000000000 DUP2 MSTORE PUSH1 0x4 ADD PUSH2 0xC20 SWAP1 PUSH2 0x2FCC JUMP JUMPDEST PUSH1 0x40 MLOAD DUP1 SWAP2 SUB SWAP1 REVERT JUMPDEST PUSH1 0x5 SLOAD SWAP1 POP SWAP1 JUMP JUMPDEST PUSH1 0x60 PUSH1 0x2 DUP1 SLOAD DUP1 PUSH1 0x20 MUL PUSH1 0x20 ADD PUSH1 0x40 MLOAD SWAP1 DUP2 ADD PUSH1 0x40 MSTORE DUP1 SWAP3 SWAP2 SWAP1 DUP2 DUP2 MSTORE PUSH1 0x20 ADD PUSH0 SWAP1 JUMPDEST DUP3 DUP3 LT ISZERO PUSH2 0xD72 JUMPI DUP4 DUP3 SWAP1 PUSH0 MSTORE PUSH1 0x20 PUSH0 KECCAK256 SWAP1 PUSH1 0x3 MUL ADD PUSH1 0x40 MLOAD DUP1 PUSH1 0x60 ADD PUSH1 0x40 MSTORE SWAP1 DUP2 PUSH0 DUP3 ADD DUP1 SLOAD PUSH2 0xC84 SWAP1 PUSH2 0x3017 JUMP JUMPDEST DUP1 PUSH1 0x1F ADD PUSH1 0x20 DUP1 SWAP2 DIV MUL PUSH1 0x20 ADD PUSH1 0x40 MLOAD SWAP1 DUP2 ADD PUSH1 0x40 MSTORE DUP1 SWAP3 SWAP2 SWAP1 DUP2 DUP2 MSTORE PUSH1 0x20 ADD DUP3 DUP1 SLOAD PUSH2 0xCB0 SWAP1 PUSH2 0x3017 JUMP JUMPDEST DUP1 ISZERO PUSH2 0xCFB JUMPI DUP1 PUSH1 0x1F LT PUSH2 0xCD2 JUMPI PUSH2 0x100 DUP1 DUP4 SLOAD DIV MUL DUP4 MSTORE SWAP2 PUSH1 0x20 ADD SWAP2 PUSH2 0xCFB JUMP JUMPDEST DUP3 ADD SWAP2 SWAP1 PUSH0 MSTORE PUSH1 0x20 PUSH0 KECCAK256 SWAP1 JUMPDEST DUP2 SLOAD DUP2 MSTORE SWAP1 PUSH1 0x1 ADD SWAP1 PUSH1 0x20 ADD DUP1 DUP4 GT PUSH2 0xCDE JUMPI DUP3 SWAP1 SUB PUSH1 0x1F AND DUP3 ADD SWAP2 JUMPDEST POP POP POP POP POP DUP2 MSTORE PUSH1 0x20 ADD PUSH1 0x1 DUP3 ADD SLOAD DUP2 MSTORE PUSH1 0x20 ADD PUSH1 0x2 DUP3 ADD PUSH0 SWAP1 SLOAD SWAP1 PUSH2 0x100 EXP SWAP1 DIV PUSH20 0xFFFFFFFFFFFFFFFFFFFFFFFFFFFFFFFFFFFFFFFF AND PUSH20 0xFFFFFFFFFFFFFFFFFFFFFFFFFFFFFFFFFFFFFFFF AND PUSH20 0xFFFFFFFFFFFFFFFFFFFFFFFFFFFFFFFFFFFFFFFF AND DUP2 MSTORE POP POP DUP2 MSTORE PUSH1 0x20 ADD SWAP1 PUSH1 0x1 ADD SWAP1 PUSH2 0xC54 JUMP JUMPDEST POP POP POP POP SWAP1 POP SWAP1 JUMP JUMPDEST PUSH0 PUSH1 0x1 PUSH1 0x5 DUP2 GT ISZERO PUSH2 0xD90 JUMPI PUSH2 0xD8F PUSH2 0x2605 JUMP JUMPDEST JUMPDEST PUSH1 0x4 PUSH0 SWAP1 SLOAD SWAP1 PUSH2 0x100 EXP SWAP1 DIV PUSH1 0xFF AND PUSH1 0x5 DUP2 GT ISZERO PUSH2 0xDB1 JUMPI PUSH2 0xDB0 PUSH2 0x2605 JUMP JUMPDEST JUMPDEST LT ISZERO PUSH2 0xDF2 JUMPI PUSH1 0x40 MLOAD PUSH32 0x8C379A000000000000000000000000000000000000000000000000000000000 DUP2 MSTORE PUSH1 0x4 ADD PUSH2 0xDE9 SWAP1 PUSH2 0x30B7 JUMP JUMPDEST PUSH1 0x40 MLOAD DUP1 SWAP2 SUB SWAP1 REVERT JUMPDEST PUSH1 0x2 DUP1 SLOAD SWAP1 POP DUP3 LT PUSH2 0xE39 JUMPI PUSH1 0x40 MLOAD PUSH32 0x8C379A000000000000000000000000000000000000000000000000000000000 DUP2 MSTORE PUSH1 0x4 ADD PUSH2 0xE30 SWAP1 PUSH2 0x2C0A JUMP JUMPDEST PUSH1 0x40 MLOAD DUP1 SWAP2 SUB SWAP1 REVERT JUMPDEST PUSH1 0x1 ISZERO ISZERO PUSH2 0xE88 PUSH1 0x2 DUP5 DUP2 SLOAD DUP2 LT PUSH2 0xE54 JUMPI PUSH2 0xE53 PUSH2 0x2C28 JUMP JUMPDEST JUMPDEST SWAP1 PUSH0 MSTORE PUSH1 0x20 PUSH0 KECCAK256 SWAP1 PUSH1 0x3 MUL ADD PUSH1 0x2 ADD PUSH0 SWAP1 SLOAD SWAP1 PUSH2 0x100 EXP SWAP1 DIV PUSH20 0xFFFFFFFFFFFFFFFFFFFFFFFFFFFFFFFFFFFFFFFF AND PUSH2 0x187D JUMP JUMPDEST ISZERO ISZERO EQ PUSH2 0xECA JUMPI PUSH1 0x40 MLOAD PUSH32 0x8C379A000000000000000000000000000000000000000000000000000000000 DUP2 MSTORE PUSH1 0x4 ADD PUSH2 0xEC1 SWAP1 PUSH2 0x311F JUMP JUMPDEST PUSH1 0x40 MLOAD DUP1 SWAP2 SUB SWAP1 REVERT JUMPDEST PUSH1 0x2 DUP3 DUP2 SLOAD DUP2 LT PUSH2 0xEDE JUMPI PUSH2 0xEDD PUSH2 0x2C28 JUMP JUMPDEST JUMPDEST SWAP1 PUSH0 MSTORE PUSH1 0x20 PUSH0 KECCAK256 SWAP1 PUSH1 0x3 MUL ADD PUSH1 0x2 ADD PUSH0 SWAP1 SLOAD SWAP1 PUSH2 0x100 EXP SWAP1 DIV PUSH20 0xFFFFFFFFFFFFFFFFFFFFFFFFFFFFFFFFFFFFFFFF AND SWAP1 POP SWAP2 SWAP1 POP JUMP JUMPDEST PUSH0 PUSH1 0x1 PUSH1 0x4 PUSH0 SWAP1 SLOAD SWAP1 PUSH2 0x100 EXP SWAP1 DIV PUSH1 0xFF AND PUSH1 0x5 DUP2 GT ISZERO PUSH2 0xF38 JUMPI PUSH2 0xF37 PUSH2 0x2605 JUMP JUMPDEST JUMPDEST PUSH2 0xF42 SWAP2 SWAP1 PUSH2 0x2F02 JUMP JUMPDEST PUSH1 0x5 DUP2 GT ISZERO PUSH2 0xF54 JUMPI PUSH2 0xF53 PUSH2 0x2605 JUMP JUMPDEST JUMPDEST SWAP1 POP SWAP1 JUMP JUMPDEST PUSH2 0xF61 PUSH2 0x1FFF JUMP JUMPDEST PUSH2 0xF6A PUSH0 PUSH2 0x2086 JUMP JUMPDEST JUMP JUMPDEST PUSH2 0xF74 PUSH2 0x21ED JUMP JUMPDEST PUSH1 0x1 ISZERO ISZERO PUSH2 0xF81 DUP4 PUSH2 0x187D JUMP JUMPDEST ISZERO ISZERO EQ PUSH2 0xFC3 JUMPI PUSH1 0x40 MLOAD PUSH32 0x8C379A000000000000000000000000000000000000000000000000000000000 DUP2 MSTORE PUSH1 0x4 ADD PUSH2 0xFBA SWAP1 PUSH2 0x311F JUMP JUMPDEST PUSH1 0x40 MLOAD DUP1 SWAP2 SUB SWAP1 REVERT JUMPDEST PUSH1 0x1 ISZERO ISZERO PUSH1 0x1 PUSH0 DUP5 PUSH20 0xFFFFFFFFFFFFFFFFFFFFFFFFFFFFFFFFFFFFFFFF AND PUSH20 0xFFFFFFFFFFFFFFFFFFFFFFFFFFFFFFFFFFFFFFFF AND DUP2 MSTORE PUSH1 0x20 ADD SWAP1 DUP2 MSTORE PUSH1 0x20 ADD PUSH0 KECCAK256 PUSH0 ADD PUSH1 0x1 SWAP1 SLOAD SWAP1 PUSH2 0x100 EXP SWAP1 DIV PUSH1 0xFF AND ISZERO ISZERO EQ PUSH2 0x1056 JUMPI PUSH1 0x40 MLOAD PUSH32 0x8C379A000000000000000000000000000000000000000000000000000000000 DUP2 MSTORE PUSH1 0x4 ADD PUSH2 0x104D SWAP1 PUSH2 0x3187 JUMP JUMPDEST PUSH1 0x40 MLOAD DUP1 SWAP2 SUB SWAP1 REVERT JUMPDEST PUSH0 PUSH1 0x1 PUSH0 DUP5 PUSH20 0xFFFFFFFFFFFFFFFFFFFFFFFFFFFFFFFFFFFFFFFF AND PUSH20 0xFFFFFFFFFFFFFFFFFFFFFFFFFFFFFFFFFFFFFFFF AND DUP2 MSTORE PUSH1 0x20 ADD SWAP1 DUP2 MSTORE PUSH1 0x20 ADD PUSH0 KECCAK256 PUSH1 0x1 ADD SLOAD SWAP1 POP PUSH1 0x2 DUP2 DUP2 SLOAD DUP2 LT PUSH2 0x10AE JUMPI PUSH2 0x10AD PUSH2 0x2C28 JUMP JUMPDEST JUMPDEST SWAP1 PUSH0 MSTORE PUSH1 0x20 PUSH0 KECCAK256 SWAP1 PUSH1 0x3 MUL ADD PUSH1 0x40 MLOAD DUP1 PUSH1 0x60 ADD PUSH1 0x40 MSTORE SWAP1 DUP2 PUSH0 DUP3 ADD DUP1 SLOAD PUSH2 0x10D4 SWAP1 PUSH2 0x3017 JUMP JUMPDEST DUP1 PUSH1 0x1F ADD PUSH1 0x20 DUP1 SWAP2 DIV MUL PUSH1 0x20 ADD PUSH1 0x40 MLOAD SWAP1 DUP2 ADD PUSH1 0x40 MSTORE DUP1 SWAP3 SWAP2 SWAP1 DUP2 DUP2 MSTORE PUSH1 0x20 ADD DUP3 DUP1 SLOAD PUSH2 0x1100 SWAP1 PUSH2 0x3017 JUMP JUMPDEST DUP1 ISZERO PUSH2 0x114B JUMPI DUP1 PUSH1 0x1F LT PUSH2 0x1122 JUMPI PUSH2 0x100 DUP1 DUP4 SLOAD DIV MUL DUP4 MSTORE SWAP2 PUSH1 0x20 ADD SWAP2 PUSH2 0x114B JUMP JUMPDEST DUP3 ADD SWAP2 SWAP1 PUSH0 MSTORE PUSH1 0x20 PUSH0 KECCAK256 SWAP1 JUMPDEST DUP2 SLOAD DUP2 MSTORE SWAP1 PUSH1 0x1 ADD SWAP1 PUSH1 0x20 ADD DUP1 DUP4 GT PUSH2 0x112E JUMPI DUP3 SWAP1 SUB PUSH1 0x1F AND DUP3 ADD SWAP2 JUMPDEST POP POP POP POP POP DUP2 MSTORE PUSH1 0x20 ADD PUSH1 0x1 DUP3 ADD SLOAD DUP2 MSTORE PUSH1 0x20 ADD PUSH1 0x2 DUP3 ADD PUSH0 SWAP1 SLOAD SWAP1 PUSH2 0x100 EXP SWAP1 DIV PUSH20 0xFFFFFFFFFFFFFFFFFFFFFFFFFFFFFFFFFFFFFFFF AND PUSH20 0xFFFFFFFFFFFFFFFFFFFFFFFFFFFFFFFFFFFFFFFF AND PUSH20 0xFFFFFFFFFFFFFFFFFFFFFFFFFFFFFFFFFFFFFFFF AND DUP2 MSTORE POP POP SWAP2 POP POP SWAP2 SWAP1 POP JUMP JUMPDEST PUSH0 PUSH0 PUSH0 SWAP1 SLOAD SWAP1 PUSH2 0x100 EXP SWAP1 DIV PUSH20 0xFFFFFFFFFFFFFFFFFFFFFFFFFFFFFFFFFFFFFFFF AND SWAP1 POP SWAP1 JUMP JUMPDEST PUSH0 PUSH1 0x9 SLOAD SWAP1 POP SWAP1 JUMP JUMPDEST PUSH2 0x11F3 PUSH2 0x21ED JUMP JUMPDEST PUSH1 0x5 DUP1 DUP2 GT ISZERO PUSH2 0x1206 JUMPI PUSH2 0x1205 PUSH2 0x2605 JUMP JUMPDEST JUMPDEST PUSH1 0x4 PUSH0 SWAP1 SLOAD SWAP1 PUSH2 0x100 EXP SWAP1 DIV PUSH1 0xFF AND PUSH1 0x5 DUP2 GT ISZERO PUSH2 0x1227 JUMPI PUSH2 0x1226 PUSH2 0x2605 JUMP JUMPDEST JUMPDEST EQ PUSH2 0x1267 JUMPI PUSH1 0x40 MLOAD PUSH32 0x8C379A000000000000000000000000000000000000000000000000000000000 DUP2 MSTORE PUSH1 0x4 ADD PUSH2 0x125E SWAP1 PUSH2 0x2FCC JUMP JUMPDEST PUSH1 0x40 MLOAD DUP1 SWAP2 SUB SWAP1 REVERT JUMPDEST PUSH1 0x2 PUSH1 0x5 SLOAD DUP2 SLOAD DUP2 LT PUSH2 0x127D JUMPI PUSH2 0x127C PUSH2 0x2C28 JUMP JUMPDEST JUMPDEST SWAP1 PUSH0 MSTORE PUSH1 0x20 PUSH0 KECCAK256 SWAP1 PUSH1 0x3 MUL ADD PUSH1 0x40 MLOAD DUP1 PUSH1 0x60 ADD PUSH1 0x40 MSTORE SWAP1 DUP2 PUSH0 DUP3 ADD DUP1 SLOAD PUSH2 0x12A3 SWAP1 PUSH2 0x3017 JUMP JUMPDEST DUP1 PUSH1 0x1F ADD PUSH1 0x20 DUP1 SWAP2 DIV MUL PUSH1 0x20 ADD PUSH1 0x40 MLOAD SWAP1 DUP2 ADD PUSH1 0x40 MSTORE DUP1 SWAP3 SWAP2 SWAP1 DUP2 DUP2 MSTORE PUSH1 0x20 ADD DUP3 DUP1 SLOAD PUSH2 0x12CF SWAP1 PUSH2 0x3017 JUMP JUMPDEST DUP1 ISZERO PUSH2 0x131A JUMPI DUP1 PUSH1 0x1F LT PUSH2 0x12F1 JUMPI PUSH2 0x100 DUP1 DUP4 SLOAD DIV MUL DUP4 MSTORE SWAP2 PUSH1 0x20 ADD SWAP2 PUSH2 0x131A JUMP JUMPDEST DUP3 ADD SWAP2 SWAP1 PUSH0 MSTORE PUSH1 0x20 PUSH0 KECCAK256 SWAP1 JUMPDEST DUP2 SLOAD DUP2 MSTORE SWAP1 PUSH1 0x1 ADD SWAP1 PUSH1 0x20 ADD DUP1 DUP4 GT PUSH2 0x12FD JUMPI DUP3 SWAP1 SUB PUSH1 0x1F AND DUP3 ADD SWAP2 JUMPDEST POP POP POP POP POP DUP2 MSTORE PUSH1 0x20 ADD PUSH1 0x1 DUP3 ADD SLOAD DUP2 MSTORE PUSH1 0x20 ADD PUSH1 0x2 DUP3 ADD PUSH0 SWAP1 SLOAD SWAP1 PUSH2 0x100 EXP SWAP1 DIV PUSH20 0xFFFFFFFFFFFFFFFFFFFFFFFFFFFFFFFFFFFFFFFF AND PUSH20 0xFFFFFFFFFFFFFFFFFFFFFFFFFFFFFFFFFFFFFFFF AND PUSH20 0xFFFFFFFFFFFFFFFFFFFFFFFFFFFFFFFFFFFFFFFF AND DUP2 MSTORE POP POP SWAP1 POP SWAP1 JUMP JUMPDEST PUSH0 PUSH1 0x4 PUSH0 SWAP1 SLOAD SWAP1 PUSH2 0x100 EXP SWAP1 DIV PUSH1 0xFF AND SWAP1 POP SWAP1 JUMP JUMPDEST PUSH0 PUSH1 0x8 SLOAD SWAP1 POP SWAP1 JUMP JUMPDEST PUSH1 0x1 PUSH1 0x5 DUP2 GT ISZERO PUSH2 0x13B9 JUMPI PUSH2 0x13B8 PUSH2 0x2605 JUMP JUMPDEST JUMPDEST PUSH1 0x4 PUSH0 SWAP1 SLOAD SWAP1 PUSH2 0x100 EXP SWAP1 DIV PUSH1 0xFF AND PUSH1 0x5 DUP2 GT ISZERO PUSH2 0x13DA JUMPI PUSH2 0x13D9 PUSH2 0x2605 JUMP JUMPDEST JUMPDEST EQ PUSH2 0x141A JUMPI PUSH1 0x40 MLOAD PUSH32 0x8C379A000000000000000000000000000000000000000000000000000000000 DUP2 MSTORE PUSH1 0x4 ADD PUSH2 0x1411 SWAP1 PUSH2 0x3215 JUMP JUMPDEST PUSH1 0x40 MLOAD DUP1 SWAP2 SUB SWAP1 REVERT JUMPDEST CALLER PUSH20 0xFFFFFFFFFFFFFFFFFFFFFFFFFFFFFFFFFFFFFFFF AND PUSH2 0x1439 PUSH2 0x11BB JUMP JUMPDEST PUSH20 0xFFFFFFFFFFFFFFFFFFFFFFFFFFFFFFFFFFFFFFFF AND SUB PUSH2 0x148F JUMPI PUSH1 0x40 MLOAD PUSH32 0x8C379A000000000000000000000000000000000000000000000000000000000 DUP2 MSTORE PUSH1 0x4 ADD PUSH2 0x1486 SWAP1 PUSH2 0x32A3 JUMP JUMPDEST PUSH1 0x40 MLOAD DUP1 SWAP2 SUB SWAP1 REVERT JUMPDEST PUSH1 0x1 ISZERO ISZERO PUSH2 0x149C CALLER PUSH2 0x187D JUMP JUMPDEST ISZERO ISZERO EQ PUSH2 0x14DE JUMPI PUSH1 0x40 MLOAD PUSH32 0x8C379A000000000000000000000000000000000000000000000000000000000 DUP2 MSTORE PUSH1 0x4 ADD PUSH2 0x14D5 SWAP1 PUSH2 0x2B3A JUMP JUMPDEST PUSH1 0x40 MLOAD DUP1 SWAP2 SUB SWAP1 REVERT JUMPDEST PUSH1 0x2 PUSH1 0x40 MLOAD DUP1 PUSH1 0x60 ADD PUSH1 0x40 MSTORE DUP1 DUP4 DUP2 MSTORE PUSH1 0x20 ADD PUSH0 DUP2 MSTORE PUSH1 0x20 ADD CALLER PUSH20 0xFFFFFFFFFFFFFFFFFFFFFFFFFFFFFFFFFFFFFFFF AND DUP2 MSTORE POP SWAP1 DUP1 PUSH1 0x1 DUP2 SLOAD ADD DUP1 DUP3 SSTORE DUP1 SWAP2 POP POP PUSH1 0x1 SWAP1 SUB SWAP1 PUSH0 MSTORE PUSH1 0x20 PUSH0 KECCAK256 SWAP1 PUSH1 0x3 MUL ADD PUSH0 SWAP1 SWAP2 SWAP1 SWAP2 SWAP1 SWAP2 POP PUSH0 DUP3 ADD MLOAD DUP2 PUSH0 ADD SWAP1 DUP2 PUSH2 0x154A SWAP2 SWAP1 PUSH2 0x3461 JUMP JUMPDEST POP PUSH1 0x20 DUP3 ADD MLOAD DUP2 PUSH1 0x1 ADD SSTORE PUSH1 0x40 DUP3 ADD MLOAD DUP2 PUSH1 0x2 ADD PUSH0 PUSH2 0x100 EXP DUP2 SLOAD DUP2 PUSH20 0xFFFFFFFFFFFFFFFFFFFFFFFFFFFFFFFFFFFFFFFF MUL NOT AND SWAP1 DUP4 PUSH20 0xFFFFFFFFFFFFFFFFFFFFFFFFFFFFFFFFFFFFFFFF AND MUL OR SWAP1 SSTORE POP POP POP PUSH32 0x92E393E9B54E2F801D3EA4BEB0C5E71A21CC34A5D34B77D0FB8A3AA1650DC18F PUSH1 0x2 DUP1 SLOAD SWAP1 POP PUSH1 0x40 MLOAD PUSH2 0x15D1 SWAP2 SWAP1 PUSH2 0x2389 JUMP JUMPDEST PUSH1 0x40 MLOAD DUP1 SWAP2 SUB SWAP1 LOG1 POP JUMP JUMPDEST PUSH2 0x15E4 PUSH2 0x1FFF JUMP JUMPDEST PUSH1 0x2 PUSH1 0x5 DUP2 GT ISZERO PUSH2 0x15F8 JUMPI PUSH2 0x15F7 PUSH2 0x2605 JUMP JUMPDEST JUMPDEST PUSH1 0x4 PUSH0 SWAP1 SLOAD SWAP1 PUSH2 0x100 EXP SWAP1 DIV PUSH1 0xFF AND PUSH1 0x5 DUP2 GT ISZERO PUSH2 0x1619 JUMPI PUSH2 0x1618 PUSH2 0x2605 JUMP JUMPDEST JUMPDEST EQ PUSH2 0x1659 JUMPI PUSH1 0x40 MLOAD PUSH32 0x8C379A000000000000000000000000000000000000000000000000000000000 DUP2 MSTORE PUSH1 0x4 ADD PUSH2 0x1650 SWAP1 PUSH2 0x35C6 JUMP JUMPDEST PUSH1 0x40 MLOAD DUP1 SWAP2 SUB SWAP1 REVERT JUMPDEST PUSH1 0x3 PUSH1 0x4 PUSH0 PUSH2 0x100 EXP DUP2 SLOAD DUP2 PUSH1 0xFF MUL NOT AND SWAP1 DUP4 PUSH1 0x5 DUP2 GT ISZERO PUSH2 0x167E JUMPI PUSH2 0x167D PUSH2 0x2605 JUMP JUMPDEST JUMPDEST MUL OR SWAP1 SSTORE POP PUSH32 0xA97A4EE45751E2ABF3E4FC8946939630B11B371EA8AE39CCDC3056E98F5CC3F PUSH1 0x1 PUSH1 0x4 PUSH0 SWAP1 SLOAD SWAP1 PUSH2 0x100 EXP SWAP1 DIV PUSH1 0xFF AND PUSH1 0x5 DUP2 GT ISZERO PUSH2 0x16C7 JUMPI PUSH2 0x16C6 PUSH2 0x2605 JUMP JUMPDEST JUMPDEST PUSH2 0x16D1 SWAP2 SWAP1 PUSH2 0x2F02 JUMP JUMPDEST PUSH1 0x5 DUP2 GT ISZERO PUSH2 0x16E3 JUMPI PUSH2 0x16E2 PUSH2 0x2605 JUMP JUMPDEST JUMPDEST PUSH1 0x4 PUSH0 SWAP1 SLOAD SWAP1 PUSH2 0x100 EXP SWAP1 DIV PUSH1 0xFF AND PUSH1 0x40 MLOAD PUSH2 0x1700 SWAP3 SWAP2 SWAP1 PUSH2 0x2F35 JUMP JUMPDEST PUSH1 0x40 MLOAD DUP1 SWAP2 SUB SWAP1 LOG1 JUMP JUMPDEST PUSH2 0x1712 PUSH2 0x1FFF JUMP JUMPDEST PUSH1 0x4 PUSH1 0x5 DUP2 GT ISZERO PUSH2 0x1726 JUMPI PUSH2 0x1725 PUSH2 0x2605 JUMP JUMPDEST JUMPDEST PUSH1 0x4 PUSH0 SWAP1 SLOAD SWAP1 PUSH2 0x100 EXP SWAP1 DIV PUSH1 0xFF AND PUSH1 0x5 DUP2 GT ISZERO PUSH2 0x1747 JUMPI PUSH2 0x1746 PUSH2 0x2605 JUMP JUMPDEST JUMPDEST EQ PUSH2 0x1787 JUMPI PUSH1 0x40 MLOAD PUSH32 0x8C379A000000000000000000000000000000000000000000000000000000000 DUP2 MSTORE PUSH1 0x4 ADD PUSH2 0x177E SWAP1 PUSH2 0x362E JUMP JUMPDEST PUSH1 0x40 MLOAD DUP1 SWAP2 SUB SWAP1 REVERT JUMPDEST PUSH1 0x1 PUSH1 0x8 SLOAD EQ PUSH2 0x17CC JUMPI PUSH1 0x40 MLOAD PUSH32 0x8C379A000000000000000000000000000000000000000000000000000000000 DUP2 MSTORE PUSH1 0x4 ADD PUSH2 0x17C3 SWAP1 PUSH2 0x36BC JUMP JUMPDEST PUSH1 0x40 MLOAD DUP1 SWAP2 SUB SWAP1 REVERT JUMPDEST PUSH1 0x5 PUSH1 0x4 PUSH0 PUSH2 0x100 EXP DUP2 SLOAD DUP2 PUSH1 0xFF MUL NOT AND SWAP1 DUP4 PUSH1 0x5 DUP2 GT ISZERO PUSH2 0x17F1 JUMPI PUSH2 0x17F0 PUSH2 0x2605 JUMP JUMPDEST JUMPDEST MUL OR SWAP1 SSTORE POP PUSH32 0xA97A4EE45751E2ABF3E4FC8946939630B11B371EA8AE39CCDC3056E98F5CC3F PUSH1 0x1 PUSH1 0x4 PUSH0 SWAP1 SLOAD SWAP1 PUSH2 0x100 EXP SWAP1 DIV PUSH1 0xFF AND PUSH1 0x5 DUP2 GT ISZERO PUSH2 0x183A JUMPI PUSH2 0x1839 PUSH2 0x2605 JUMP JUMPDEST JUMPDEST PUSH2 0x1844 SWAP2 SWAP1 PUSH2 0x2F02 JUMP JUMPDEST PUSH1 0x5 DUP2 GT ISZERO PUSH2 0x1856 JUMPI PUSH2 0x1855 PUSH2 0x2605 JUMP JUMPDEST JUMPDEST PUSH1 0x4 PUSH0 SWAP1 SLOAD SWAP1 PUSH2 0x100 EXP SWAP1 DIV PUSH1 0xFF AND PUSH1 0x40 MLOAD PUSH2 0x1873 SWAP3 SWAP2 SWAP1 PUSH2 0x2F35 JUMP JUMPDEST PUSH1 0x40 MLOAD DUP1 SWAP2 SUB SWAP1 LOG1 JUMP JUMPDEST PUSH0 PUSH1 0x1 PUSH0 DUP4 PUSH20 0xFFFFFFFFFFFFFFFFFFFFFFFFFFFFFFFFFFFFFFFF AND PUSH20 0xFFFFFFFFFFFFFFFFFFFFFFFFFFFFFFFFFFFFFFFF AND DUP2 MSTORE PUSH1 0x20 ADD SWAP1 DUP2 MSTORE PUSH1 0x20 ADD PUSH0 KECCAK256 PUSH0 ADD PUSH0 SWAP1 SLOAD SWAP1 PUSH2 0x100 EXP SWAP1 DIV PUSH1 0xFF AND SWAP1 POP SWAP2 SWAP1 POP JUMP JUMPDEST PUSH1 0x60 PUSH1 0x5 DUP1 DUP2 GT ISZERO PUSH2 0x18E6 JUMPI PUSH2 0x18E5 PUSH2 0x2605 JUMP JUMPDEST JUMPDEST PUSH1 0x4 PUSH0 SWAP1 SLOAD SWAP1 PUSH2 0x100 EXP SWAP1 DIV PUSH1 0xFF AND PUSH1 0x5 DUP2 GT ISZERO PUSH2 0x1907 JUMPI PUSH2 0x1906 PUSH2 0x2605 JUMP JUMPDEST JUMPDEST EQ PUSH2 0x1947 JUMPI PUSH1 0x40 MLOAD PUSH32 0x8C379A000000000000000000000000000000000000000000000000000000000 DUP2 MSTORE PUSH1 0x4 ADD PUSH2 0x193E SWAP1 PUSH2 0x2FCC JUMP JUMPDEST PUSH1 0x40 MLOAD DUP1 SWAP2 SUB SWAP1 REVERT JUMPDEST PUSH1 0x2 PUSH1 0x5 SLOAD DUP2 SLOAD DUP2 LT PUSH2 0x195D JUMPI PUSH2 0x195C PUSH2 0x2C28 JUMP JUMPDEST JUMPDEST SWAP1 PUSH0 MSTORE PUSH1 0x20 PUSH0 KECCAK256 SWAP1 PUSH1 0x3 MUL ADD PUSH0 ADD DUP1 SLOAD PUSH2 0x1976 SWAP1 PUSH2 0x3017 JUMP JUMPDEST DUP1 PUSH1 0x1F ADD PUSH1 0x20 DUP1 SWAP2 DIV MUL PUSH1 0x20 ADD PUSH1 0x40 MLOAD SWAP1 DUP2 ADD PUSH1 0x40 MSTORE DUP1 SWAP3 SWAP2 SWAP1 DUP2 DUP2 MSTORE PUSH1 0x20 ADD DUP3 DUP1 SLOAD PUSH2 0x19A2 SWAP1 PUSH2 0x3017 JUMP JUMPDEST DUP1 ISZERO PUSH2 0x19ED JUMPI DUP1 PUSH1 0x1F LT PUSH2 0x19C4 JUMPI PUSH2 0x100 DUP1 DUP4 SLOAD DIV MUL DUP4 MSTORE SWAP2 PUSH1 0x20 ADD SWAP2 PUSH2 0x19ED JUMP JUMPDEST DUP3 ADD SWAP2 SWAP1 PUSH0 MSTORE PUSH1 0x20 PUSH0 KECCAK256 SWAP1 JUMPDEST DUP2 SLOAD DUP2 MSTORE SWAP1 PUSH1 0x1 ADD SWAP1 PUSH1 0x20 ADD DUP1 DUP4 GT PUSH2 0x19D0 JUMPI DUP3 SWAP1 SUB PUSH1 0x1F AND DUP3 ADD SWAP2 JUMPDEST POP POP POP POP POP SWAP1 POP SWAP1 JUMP JUMPDEST PUSH0 PUSH1 0x2 DUP1 SLOAD SWAP1 POP SWAP1 POP SWAP1 JUMP JUMPDEST PUSH0 PUSH2 0x1A0D DUP3 PUSH2 0x187D JUMP JUMPDEST SWAP1 POP SWAP2 SWAP1 POP JUMP JUMPDEST PUSH1 0x60 PUSH1 0x3 DUP1 SLOAD DUP1 PUSH1 0x20 MUL PUSH1 0x20 ADD PUSH1 0x40 MLOAD SWAP1 DUP2 ADD PUSH1 0x40 MSTORE DUP1 SWAP3 SWAP2 SWAP1 DUP2 DUP2 MSTORE PUSH1 0x20 ADD DUP3 DUP1 SLOAD DUP1 ISZERO PUSH2 0x1A95 JUMPI PUSH1 0x20 MUL DUP3 ADD SWAP2 SWAP1 PUSH0 MSTORE PUSH1 0x20 PUSH0 KECCAK256 SWAP1 JUMPDEST DUP2 PUSH0 SWAP1 SLOAD SWAP1 PUSH2 0x100 EXP SWAP1 DIV PUSH20 0xFFFFFFFFFFFFFFFFFFFFFFFFFFFFFFFFFFFFFFFF AND PUSH20 0xFFFFFFFFFFFFFFFFFFFFFFFFFFFFFFFFFFFFFFFF AND DUP2 MSTORE PUSH1 0x20 ADD SWAP1 PUSH1 0x1 ADD SWAP1 DUP1 DUP4 GT PUSH2 0x1A4C JUMPI JUMPDEST POP POP POP POP POP SWAP1 POP SWAP1 JUMP JUMPDEST PUSH2 0x1AA7 PUSH2 0x1FFF JUMP JUMPDEST PUSH1 0x5 DUP1 DUP2 GT ISZERO PUSH2 0x1ABA JUMPI PUSH2 0x1AB9 PUSH2 0x2605 JUMP JUMPDEST JUMPDEST PUSH1 0x4 PUSH0 SWAP1 SLOAD SWAP1 PUSH2 0x100 EXP SWAP1 DIV PUSH1 0xFF AND PUSH1 0x5 DUP2 GT ISZERO PUSH2 0x1ADB JUMPI PUSH2 0x1ADA PUSH2 0x2605 JUMP JUMPDEST JUMPDEST EQ PUSH2 0x1B1B JUMPI PUSH1 0x40 MLOAD PUSH32 0x8C379A000000000000000000000000000000000000000000000000000000000 DUP2 MSTORE PUSH1 0x4 ADD PUSH2 0x1B12 SWAP1 PUSH2 0x374A JUMP JUMPDEST PUSH1 0x40 MLOAD DUP1 SWAP2 SUB SWAP1 REVERT JUMPDEST PUSH0 PUSH0 SWAP1 POP JUMPDEST PUSH1 0x3 DUP1 SLOAD SWAP1 POP DUP2 LT ISZERO PUSH2 0x1C1A JUMPI PUSH1 0x40 MLOAD DUP1 PUSH1 0x60 ADD PUSH1 0x40 MSTORE DUP1 PUSH0 ISZERO ISZERO DUP2 MSTORE PUSH1 0x20 ADD PUSH0 ISZERO ISZERO DUP2 MSTORE PUSH1 0x20 ADD PUSH0 DUP2 MSTORE POP PUSH1 0x1 PUSH0 PUSH1 0x3 DUP5 DUP2 SLOAD DUP2 LT PUSH2 0x1B63 JUMPI PUSH2 0x1B62 PUSH2 0x2C28 JUMP JUMPDEST JUMPDEST SWAP1 PUSH0 MSTORE PUSH1 0x20 PUSH0 KECCAK256 ADD PUSH0 SWAP1 SLOAD SWAP1 PUSH2 0x100 EXP SWAP1 DIV PUSH20 0xFFFFFFFFFFFFFFFFFFFFFFFFFFFFFFFFFFFFFFFF AND PUSH20 0xFFFFFFFFFFFFFFFFFFFFFFFFFFFFFFFFFFFFFFFF AND PUSH20 0xFFFFFFFFFFFFFFFFFFFFFFFFFFFFFFFFFFFFFFFF AND DUP2 MSTORE PUSH1 0x20 ADD SWAP1 DUP2 MSTORE PUSH1 0x20 ADD PUSH0 KECCAK256 PUSH0 DUP3 ADD MLOAD DUP2 PUSH0 ADD PUSH0 PUSH2 0x100 EXP DUP2 SLOAD DUP2 PUSH1 0xFF MUL NOT AND SWAP1 DUP4 ISZERO ISZERO MUL OR SWAP1 SSTORE POP PUSH1 0x20 DUP3 ADD MLOAD DUP2 PUSH0 ADD PUSH1 0x1 PUSH2 0x100 EXP DUP2 SLOAD DUP2 PUSH1 0xFF MUL NOT AND SWAP1 DUP4 ISZERO ISZERO MUL OR SWAP1 SSTORE POP PUSH1 0x40 DUP3 ADD MLOAD DUP2 PUSH1 0x1 ADD SSTORE SWAP1 POP POP DUP1 DUP1 PUSH1 0x1 ADD SWAP2 POP POP PUSH2 0x1B20 JUMP JUMPDEST POP PUSH1 0x2 PUSH0 PUSH2 0x1C28 SWAP2 SWAP1 PUSH2 0x2222 JUMP JUMPDEST PUSH1 0x3 PUSH0 PUSH2 0x1C35 SWAP2 SWAP1 PUSH2 0x2243 JUMP JUMPDEST PUSH0 PUSH1 0x8 DUP2 SWAP1 SSTORE POP PUSH0 PUSH1 0x5 DUP2 SWAP1 SSTORE POP PUSH0 PUSH1 0x6 DUP2 SWAP1 SSTORE POP PUSH0 PUSH1 0x7 DUP2 SWAP1 SSTORE POP PUSH1 0x1 PUSH1 0x9 DUP2 SWAP1 SSTORE POP PUSH0 PUSH1 0x4 PUSH0 PUSH2 0x100 EXP DUP2 SLOAD DUP2 PUSH1 0xFF MUL NOT AND SWAP1 DUP4 PUSH1 0x5 DUP2 GT ISZERO PUSH2 0x1C7D JUMPI PUSH2 0x1C7C PUSH2 0x2605 JUMP JUMPDEST JUMPDEST MUL OR SWAP1 SSTORE POP JUMP JUMPDEST PUSH2 0x1C8C PUSH2 0x1FFF JUMP JUMPDEST PUSH1 0x1 PUSH1 0x5 DUP2 GT ISZERO PUSH2 0x1CA0 JUMPI PUSH2 0x1C9F PUSH2 0x2605 JUMP JUMPDEST JUMPDEST PUSH1 0x4 PUSH0 SWAP1 SLOAD SWAP1 PUSH2 0x100 EXP SWAP1 DIV PUSH1 0xFF AND PUSH1 0x5 DUP2 GT ISZERO PUSH2 0x1CC1 JUMPI PUSH2 0x1CC0 PUSH2 0x2605 JUMP JUMPDEST JUMPDEST EQ PUSH2 0x1D01 JUMPI PUSH1 0x40 MLOAD PUSH32 0x8C379A000000000000000000000000000000000000000000000000000000000 DUP2 MSTORE PUSH1 0x4 ADD PUSH2 0x1CF8 SWAP1 PUSH2 0x37D8 JUMP JUMPDEST PUSH1 0x40 MLOAD DUP1 SWAP2 SUB SWAP1 REVERT JUMPDEST PUSH0 PUSH1 0x2 DUP1 SLOAD SWAP1 POP GT PUSH2 0x1D48 JUMPI PUSH1 0x40 MLOAD PUSH32 0x8C379A000000000000000000000000000000000000000000000000000000000 DUP2 MSTORE PUSH1 0x4 ADD PUSH2 0x1D3F SWAP1 PUSH2 0x3866 JUMP JUMPDEST PUSH1 0x40 MLOAD DUP1 SWAP2 SUB SWAP1 REVERT JUMPDEST PUSH1 0x2 PUSH1 0x4 PUSH0 PUSH2 0x100 EXP DUP2 SLOAD DUP2 PUSH1 0xFF MUL NOT AND SWAP1 DUP4 PUSH1 0x5 DUP2 GT ISZERO PUSH2 0x1D6D JUMPI PUSH2 0x1D6C PUSH2 0x2605 JUMP JUMPDEST JUMPDEST MUL OR SWAP1 SSTORE POP PUSH32 0xA97A4EE45751E2ABF3E4FC8946939630B11B371EA8AE39CCDC3056E98F5CC3F PUSH1 0x1 PUSH1 0x4 PUSH0 SWAP1 SLOAD SWAP1 PUSH2 0x100 EXP SWAP1 DIV PUSH1 0xFF AND PUSH1 0x5 DUP2 GT ISZERO PUSH2 0x1DB6 JUMPI PUSH2 0x1DB5 PUSH2 0x2605 JUMP JUMPDEST JUMPDEST PUSH2 0x1DC0 SWAP2 SWAP1 PUSH2 0x2F02 JUMP JUMPDEST PUSH1 0x5 DUP2 GT ISZERO PUSH2 0x1DD2 JUMPI PUSH2 0x1DD1 PUSH2 0x2605 JUMP JUMPDEST JUMPDEST PUSH1 0x4 PUSH0 SWAP1 SLOAD SWAP1 PUSH2 0x100 EXP SWAP1 DIV PUSH1 0xFF AND PUSH1 0x40 MLOAD PUSH2 0x1DEF SWAP3 SWAP2 SWAP1 PUSH2 0x2F35 JUMP JUMPDEST PUSH1 0x40 MLOAD DUP1 SWAP2 SUB SWAP1 LOG1 JUMP JUMPDEST PUSH0 PUSH1 0x7 SLOAD SWAP1 POP SWAP1 JUMP JUMPDEST PUSH2 0x1E0A PUSH2 0x1FFF JUMP JUMPDEST PUSH0 PUSH20 0xFFFFFFFFFFFFFFFFFFFFFFFFFFFFFFFFFFFFFFFF AND DUP2 PUSH20 0xFFFFFFFFFFFFFFFFFFFFFFFFFFFFFFFFFFFFFFFF AND SUB PUSH2 0x1E7A JUMPI PUSH0 PUSH1 0x40 MLOAD PUSH32 0x1E4FBDF700000000000000000000000000000000000000000000000000000000 DUP2 MSTORE PUSH1 0x4 ADD PUSH2 0x1E71 SWAP2 SWAP1 PUSH2 0x25EC JUMP JUMPDEST PUSH1 0x40 MLOAD DUP1 SWAP2 SUB SWAP1 REVERT JUMPDEST PUSH2 0x1E83 DUP2 PUSH2 0x2086 JUMP JUMPDEST POP JUMP JUMPDEST PUSH2 0x1E8E PUSH2 0x1FFF JUMP JUMPDEST PUSH1 0x3 PUSH1 0x5 DUP2 GT ISZERO PUSH2 0x1EA2 JUMPI PUSH2 0x1EA1 PUSH2 0x2605 JUMP JUMPDEST JUMPDEST PUSH1 0x4 PUSH0 SWAP1 SLOAD SWAP1 PUSH2 0x100 EXP SWAP1 DIV PUSH1 0xFF AND PUSH1 0x5 DUP2 GT ISZERO PUSH2 0x1EC3 JUMPI PUSH2 0x1EC2 PUSH2 0x2605 JUMP JUMPDEST JUMPDEST EQ PUSH2 0x1F03 JUMPI PUSH1 0x40 MLOAD PUSH32 0x8C379A000000000000000000000000000000000000000000000000000000000 DUP2 MSTORE PUSH1 0x4 ADD PUSH2 0x1EFA SWAP1 PUSH2 0x38F4 JUMP JUMPDEST PUSH1 0x40 MLOAD DUP1 SWAP2 SUB SWAP1 REVERT JUMPDEST PUSH0 PUSH1 0x7 SLOAD GT PUSH2 0x1F47 JUMPI PUSH1 0x40 MLOAD PUSH32 0x8C379A000000000000000000000000000000000000000000000000000000000 DUP2 MSTORE PUSH1 0x4 ADD PUSH2 0x1F3E SWAP1 PUSH2 0x395C JUMP JUMPDEST PUSH1 0x40 MLOAD DUP1 SWAP2 SUB SWAP1 REVERT JUMPDEST PUSH1 0x4 DUP1 PUSH0 PUSH2 0x100 EXP DUP2 SLOAD DUP2 PUSH1 0xFF MUL NOT AND SWAP1 DUP4 PUSH1 0x5 DUP2 GT ISZERO PUSH2 0x1F6B JUMPI PUSH2 0x1F6A PUSH2 0x2605 JUMP JUMPDEST JUMPDEST MUL OR SWAP1 SSTORE POP PUSH2 0x1F78 PUSH2 0x2147 JUMP JUMPDEST PUSH32 0xA97A4EE45751E2ABF3E4FC8946939630B11B371EA8AE39CCDC3056E98F5CC3F PUSH1 0x1 PUSH1 0x4 PUSH0 SWAP1 SLOAD SWAP1 PUSH2 0x100 EXP SWAP1 DIV PUSH1 0xFF AND PUSH1 0x5 DUP2 GT ISZERO PUSH2 0x1FBC JUMPI PUSH2 0x1FBB PUSH2 0x2605 JUMP JUMPDEST JUMPDEST PUSH2 0x1FC6 SWAP2 SWAP1 PUSH2 0x2F02 JUMP JUMPDEST PUSH1 0x5 DUP2 GT ISZERO PUSH2 0x1FD8 JUMPI PUSH2 0x1FD7 PUSH2 0x2605 JUMP JUMPDEST JUMPDEST PUSH1 0x4 PUSH0 SWAP1 SLOAD SWAP1 PUSH2 0x100 EXP SWAP1 DIV PUSH1 0xFF AND PUSH1 0x40 MLOAD PUSH2 0x1FF5 SWAP3 SWAP2 SWAP1 PUSH2 0x2F35 JUMP JUMPDEST PUSH1 0x40 MLOAD DUP1 SWAP2 SUB SWAP1 LOG1 JUMP JUMPDEST PUSH2 0x2007 PUSH2 0x21E6 JUMP JUMPDEST PUSH20 0xFFFFFFFFFFFFFFFFFFFFFFFFFFFFFFFFFFFFFFFF AND PUSH2 0x2025 PUSH2 0x11BB JUMP JUMPDEST PUSH20 0xFFFFFFFFFFFFFFFFFFFFFFFFFFFFFFFFFFFFFFFF AND EQ PUSH2 0x2084 JUMPI PUSH2 0x2048 PUSH2 0x21E6 JUMP JUMPDEST PUSH1 0x40 MLOAD PUSH32 0x118CDAA700000000000000000000000000000000000000000000000000000000 DUP2 MSTORE PUSH1 0x4 ADD PUSH2 0x207B SWAP2 SWAP1 PUSH2 0x25EC JUMP JUMPDEST PUSH1 0x40 MLOAD DUP1 SWAP2 SUB SWAP1 REVERT JUMPDEST JUMP JUMPDEST PUSH0 PUSH0 PUSH0 SWAP1 SLOAD SWAP1 PUSH2 0x100 EXP SWAP1 DIV PUSH20 0xFFFFFFFFFFFFFFFFFFFFFFFFFFFFFFFFFFFFFFFF AND SWAP1 POP DUP2 PUSH0 PUSH0 PUSH2 0x100 EXP DUP2 SLOAD DUP2 PUSH20 0xFFFFFFFFFFFFFFFFFFFFFFFFFFFFFFFFFFFFFFFF MUL NOT AND SWAP1 DUP4 PUSH20 0xFFFFFFFFFFFFFFFFFFFFFFFFFFFFFFFFFFFFFFFF AND MUL OR SWAP1 SSTORE POP DUP2 PUSH20 0xFFFFFFFFFFFFFFFFFFFFFFFFFFFFFFFFFFFFFFFF AND DUP2 PUSH20 0xFFFFFFFFFFFFFFFFFFFFFFFFFFFFFFFFFFFFFFFF AND PUSH32 0x8BE0079C531659141344CD1FD0A4F28419497F9722A3DAAFE3B4186F6B6457E0 PUSH1 0x40 MLOAD PUSH1 0x40 MLOAD DUP1 SWAP2 SUB SWAP1 LOG3 POP POP JUMP JUMPDEST PUSH2 0x214F PUSH2 0x1FFF JUMP JUMPDEST PUSH0 PUSH0 SWAP1 POP JUMPDEST PUSH1 0x2 DUP1 SLOAD SWAP1 POP DUP2 LT ISZERO PUSH2 0x21E3 JUMPI PUSH1 0x9 SLOAD PUSH1 0x2 DUP3 DUP2 SLOAD DUP2 LT PUSH2 0x2178 JUMPI PUSH2 0x2177 PUSH2 0x2C28 JUMP JUMPDEST JUMPDEST SWAP1 PUSH0 MSTORE PUSH1 0x20 PUSH0 KECCAK256 SWAP1 PUSH1 0x3 MUL ADD PUSH1 0x1 ADD SLOAD LT PUSH2 0x21D6 JUMPI PUSH1 0x2 DUP2 DUP2 SLOAD DUP2 LT PUSH2 0x21A1 JUMPI PUSH2 0x21A0 PUSH2 0x2C28 JUMP JUMPDEST JUMPDEST SWAP1 PUSH0 MSTORE PUSH1 0x20 PUSH0 KECCAK256 SWAP1 PUSH1 0x3 MUL ADD PUSH1 0x1 ADD SLOAD PUSH1 0x9 DUP2 SWAP1 SSTORE POP DUP1 PUSH1 0x5 DUP2 SWAP1 SSTORE POP PUSH1 0x8 PUSH0 DUP2 SLOAD DUP1 SWAP3 SWAP2 SWAP1 PUSH2 0x21D0 SWAP1 PUSH2 0x2C82 JUMP JUMPDEST SWAP2 SWAP1 POP SSTORE POP JUMPDEST DUP1 DUP1 PUSH1 0x1 ADD SWAP2 POP POP PUSH2 0x2154 JUMP JUMPDEST POP JUMP JUMPDEST PUSH0 CALLER SWAP1 POP SWAP1 JUMP JUMPDEST PUSH1 0x40 MLOAD DUP1 PUSH1 0x60 ADD PUSH1 0x40 MSTORE DUP1 PUSH1 0x60 DUP2 MSTORE PUSH1 0x20 ADD PUSH0 DUP2 MSTORE PUSH1 0x20 ADD PUSH0 PUSH20 0xFFFFFFFFFFFFFFFFFFFFFFFFFFFFFFFFFFFFFFFF AND DUP2 MSTORE POP SWAP1 JUMP JUMPDEST POP DUP1 SLOAD PUSH0 DUP3 SSTORE PUSH1 0x3 MUL SWAP1 PUSH0 MSTORE PUSH1 0x20 PUSH0 KECCAK256 SWAP1 DUP2 ADD SWAP1 PUSH2 0x2240 SWAP2 SWAP1 PUSH2 0x2261 JUMP JUMPDEST POP JUMP JUMPDEST POP DUP1 SLOAD PUSH0 DUP3 SSTORE SWAP1 PUSH0 MSTORE PUSH1 0x20 PUSH0 KECCAK256 SWAP1 DUP2 ADD SWAP1 PUSH2 0x225E SWAP2 SWAP1 PUSH2 0x22B3 JUMP JUMPDEST POP JUMP JUMPDEST JUMPDEST DUP1 DUP3 GT ISZERO PUSH2 0x22AF JUMPI PUSH0 PUSH0 DUP3 ADD PUSH0 PUSH2 0x2279 SWAP2 SWAP1 PUSH2 0x22CE JUMP JUMPDEST PUSH1 0x1 DUP3 ADD PUSH0 SWAP1 SSTORE PUSH1 0x2 DUP3 ADD PUSH0 PUSH2 0x100 EXP DUP2 SLOAD SWAP1 PUSH20 0xFFFFFFFFFFFFFFFFFFFFFFFFFFFFFFFFFFFFFFFF MUL NOT AND SWAP1 SSTORE POP PUSH1 0x3 ADD PUSH2 0x2262 JUMP JUMPDEST POP SWAP1 JUMP JUMPDEST JUMPDEST DUP1 DUP3 GT ISZERO PUSH2 0x22CA JUMPI PUSH0 DUP2 PUSH0 SWAP1 SSTORE POP PUSH1 0x1 ADD PUSH2 0x22B4 JUMP JUMPDEST POP SWAP1 JUMP JUMPDEST POP DUP1 SLOAD PUSH2 0x22DA SWAP1 PUSH2 0x3017 JUMP JUMPDEST PUSH0 DUP3 SSTORE DUP1 PUSH1 0x1F LT PUSH2 0x22EB JUMPI POP PUSH2 0x2308 JUMP JUMPDEST PUSH1 0x1F ADD PUSH1 0x20 SWAP1 DIV SWAP1 PUSH0 MSTORE PUSH1 0x20 PUSH0 KECCAK256 SWAP1 DUP2 ADD SWAP1 PUSH2 0x2307 SWAP2 SWAP1 PUSH2 0x22B3 JUMP JUMPDEST JUMPDEST POP JUMP JUMPDEST PUSH0 PUSH1 0x40 MLOAD SWAP1 POP SWAP1 JUMP JUMPDEST PUSH0 PUSH0 REVERT JUMPDEST PUSH0 PUSH0 REVERT JUMPDEST PUSH0 DUP2 SWAP1 POP SWAP2 SWAP1 POP JUMP JUMPDEST PUSH2 0x232E DUP2 PUSH2 0x231C JUMP JUMPDEST DUP2 EQ PUSH2 0x2338 JUMPI PUSH0 PUSH0 REVERT JUMPDEST POP JUMP JUMPDEST PUSH0 DUP2 CALLDATALOAD SWAP1 POP PUSH2 0x2349 DUP2 PUSH2 0x2325 JUMP JUMPDEST SWAP3 SWAP2 POP POP JUMP JUMPDEST PUSH0 PUSH1 0x20 DUP3 DUP5 SUB SLT ISZERO PUSH2 0x2364 JUMPI PUSH2 0x2363 PUSH2 0x2314 JUMP JUMPDEST JUMPDEST PUSH0 PUSH2 0x2371 DUP5 DUP3 DUP6 ADD PUSH2 0x233B JUMP JUMPDEST SWAP2 POP POP SWAP3 SWAP2 POP POP JUMP JUMPDEST PUSH2 0x2383 DUP2 PUSH2 0x231C JUMP JUMPDEST DUP3 MSTORE POP POP JUMP JUMPDEST PUSH0 PUSH1 0x20 DUP3 ADD SWAP1 POP PUSH2 0x239C PUSH0 DUP4 ADD DUP5 PUSH2 0x237A JUMP JUMPDEST SWAP3 SWAP2 POP POP JUMP JUMPDEST PUSH0 PUSH20 0xFFFFFFFFFFFFFFFFFFFFFFFFFFFFFFFFFFFFFFFF DUP3 AND SWAP1 POP SWAP2 SWAP1 POP JUMP JUMPDEST PUSH0 PUSH2 0x23CB DUP3 PUSH2 0x23A2 JUMP JUMPDEST SWAP1 POP SWAP2 SWAP1 POP JUMP JUMPDEST PUSH2 0x23DB DUP2 PUSH2 0x23C1 JUMP JUMPDEST DUP2 EQ PUSH2 0x23E5 JUMPI PUSH0 PUSH0 REVERT JUMPDEST POP JUMP JUMPDEST PUSH0 DUP2 CALLDATALOAD SWAP1 POP PUSH2 0x23F6 DUP2 PUSH2 0x23D2 JUMP JUMPDEST SWAP3 SWAP2 POP POP JUMP JUMPDEST PUSH0 PUSH1 0x20 DUP3 DUP5 SUB SLT ISZERO PUSH2 0x2411 JUMPI PUSH2 0x2410 PUSH2 0x2314 JUMP JUMPDEST JUMPDEST PUSH0 PUSH2 0x241E DUP5 DUP3 DUP6 ADD PUSH2 0x23E8 JUMP JUMPDEST SWAP2 POP POP SWAP3 SWAP2 POP POP JUMP JUMPDEST PUSH0 DUP2 MLOAD SWAP1 POP SWAP2 SWAP1 POP JUMP JUMPDEST PUSH0 DUP3 DUP3 MSTORE PUSH1 0x20 DUP3 ADD SWAP1 POP SWAP3 SWAP2 POP POP JUMP JUMPDEST PUSH0 DUP2 SWAP1 POP PUSH1 0x20 DUP3 ADD SWAP1 POP SWAP2 SWAP1 POP JUMP JUMPDEST PUSH0 DUP2 MLOAD SWAP1 POP SWAP2 SWAP1 POP JUMP JUMPDEST PUSH0 DUP3 DUP3 MSTORE PUSH1 0x20 DUP3 ADD SWAP1 POP SWAP3 SWAP2 POP POP JUMP JUMPDEST DUP3 DUP2 DUP4 MCOPY PUSH0 DUP4 DUP4 ADD MSTORE POP POP POP JUMP JUMPDEST PUSH0 PUSH1 0x1F NOT PUSH1 0x1F DUP4 ADD AND SWAP1 POP SWAP2 SWAP1 POP JUMP JUMPDEST PUSH0 PUSH2 0x2492 DUP3 PUSH2 0x2450 JUMP JUMPDEST PUSH2 0x249C DUP2 DUP6 PUSH2 0x245A JUMP JUMPDEST SWAP4 POP PUSH2 0x24AC DUP2 DUP6 PUSH1 0x20 DUP7 ADD PUSH2 0x246A JUMP JUMPDEST PUSH2 0x24B5 DUP2 PUSH2 0x2478 JUMP JUMPDEST DUP5 ADD SWAP2 POP POP SWAP3 SWAP2 POP POP JUMP JUMPDEST PUSH2 0x24C9 DUP2 PUSH2 0x231C JUMP JUMPDEST DUP3 MSTORE POP POP JUMP JUMPDEST PUSH2 0x24D8 DUP2 PUSH2 0x23C1 JUMP JUMPDEST DUP3 MSTORE POP POP JUMP JUMPDEST PUSH0 PUSH1 0x60 DUP4 ADD PUSH0 DUP4 ADD MLOAD DUP5 DUP3 SUB PUSH0 DUP7 ADD MSTORE PUSH2 0x24F8 DUP3 DUP3 PUSH2 0x2488 JUMP JUMPDEST SWAP2 POP POP PUSH1 0x20 DUP4 ADD MLOAD PUSH2 0x250D PUSH1 0x20 DUP7 ADD DUP3 PUSH2 0x24C0 JUMP JUMPDEST POP PUSH1 0x40 DUP4 ADD MLOAD PUSH2 0x2520 PUSH1 0x40 DUP7 ADD DUP3 PUSH2 0x24CF JUMP JUMPDEST POP DUP1 SWAP2 POP POP SWAP3 SWAP2 POP POP JUMP JUMPDEST PUSH0 PUSH2 0x2536 DUP4 DUP4 PUSH2 0x24DE JUMP JUMPDEST SWAP1 POP SWAP3 SWAP2 POP POP JUMP JUMPDEST PUSH0 PUSH1 0x20 DUP3 ADD SWAP1 POP SWAP2 SWAP1 POP JUMP JUMPDEST PUSH0 PUSH2 0x2554 DUP3 PUSH2 0x2427 JUMP JUMPDEST PUSH2 0x255E DUP2 DUP6 PUSH2 0x2431 JUMP JUMPDEST SWAP4 POP DUP4 PUSH1 0x20 DUP3 MUL DUP6 ADD PUSH2 0x2570 DUP6 PUSH2 0x2441 JUMP JUMPDEST DUP1 PUSH0 JUMPDEST DUP6 DUP2 LT ISZERO PUSH2 0x25AB JUMPI DUP5 DUP5 SUB DUP10 MSTORE DUP2 MLOAD PUSH2 0x258C DUP6 DUP3 PUSH2 0x252B JUMP JUMPDEST SWAP5 POP PUSH2 0x2597 DUP4 PUSH2 0x253E JUMP JUMPDEST SWAP3 POP PUSH1 0x20 DUP11 ADD SWAP10 POP POP PUSH1 0x1 DUP2 ADD SWAP1 POP PUSH2 0x2573 JUMP JUMPDEST POP DUP3 SWAP8 POP DUP8 SWAP6 POP POP POP POP POP POP SWAP3 SWAP2 POP POP JUMP JUMPDEST PUSH0 PUSH1 0x20 DUP3 ADD SWAP1 POP DUP2 DUP2 SUB PUSH0 DUP4 ADD MSTORE PUSH2 0x25D5 DUP2 DUP5 PUSH2 0x254A JUMP JUMPDEST SWAP1 POP SWAP3 SWAP2 POP POP JUMP JUMPDEST PUSH2 0x25E6 DUP2 PUSH2 0x23C1 JUMP JUMPDEST DUP3 MSTORE POP POP JUMP JUMPDEST PUSH0 PUSH1 0x20 DUP3 ADD SWAP1 POP PUSH2 0x25FF PUSH0 DUP4 ADD DUP5 PUSH2 0x25DD JUMP JUMPDEST SWAP3 SWAP2 POP POP JUMP JUMPDEST PUSH32 0x4E487B7100000000000000000000000000000000000000000000000000000000 PUSH0 MSTORE PUSH1 0x21 PUSH1 0x4 MSTORE PUSH1 0x24 PUSH0 REVERT JUMPDEST PUSH1 0x6 DUP2 LT PUSH2 0x2643 JUMPI PUSH2 0x2642 PUSH2 0x2605 JUMP JUMPDEST JUMPDEST POP JUMP JUMPDEST PUSH0 DUP2 SWAP1 POP PUSH2 0x2653 DUP3 PUSH2 0x2632 JUMP JUMPDEST SWAP2 SWAP1 POP JUMP JUMPDEST PUSH0 PUSH2 0x2662 DUP3 PUSH2 0x2646 JUMP JUMPDEST SWAP1 POP SWAP2 SWAP1 POP JUMP JUMPDEST PUSH2 0x2672 DUP2 PUSH2 0x2658 JUMP JUMPDEST DUP3 MSTORE POP POP JUMP JUMPDEST PUSH0 PUSH1 0x20 DUP3 ADD SWAP1 POP PUSH2 0x268B PUSH0 DUP4 ADD DUP5 PUSH2 0x2669 JUMP JUMPDEST SWAP3 SWAP2 POP POP JUMP JUMPDEST PUSH0 PUSH1 0x60 DUP4 ADD PUSH0 DUP4 ADD MLOAD DUP5 DUP3 SUB PUSH0 DUP7 ADD MSTORE PUSH2 0x26AB DUP3 DUP3 PUSH2 0x2488 JUMP JUMPDEST SWAP2 POP POP PUSH1 0x20 DUP4 ADD MLOAD PUSH2 0x26C0 PUSH1 0x20 DUP7 ADD DUP3 PUSH2 0x24C0 JUMP JUMPDEST POP PUSH1 0x40 DUP4 ADD MLOAD PUSH2 0x26D3 PUSH1 0x40 DUP7 ADD DUP3 PUSH2 0x24CF JUMP JUMPDEST POP DUP1 SWAP2 POP POP SWAP3 SWAP2 POP POP JUMP JUMPDEST PUSH0 PUSH1 0x20 DUP3 ADD SWAP1 POP DUP2 DUP2 SUB PUSH0 DUP4 ADD MSTORE PUSH2 0x26F6 DUP2 DUP5 PUSH2 0x2691 JUMP JUMPDEST SWAP1 POP SWAP3 SWAP2 POP POP JUMP JUMPDEST PUSH0 PUSH0 REVERT JUMPDEST PUSH0 PUSH0 REVERT JUMPDEST PUSH32 0x4E487B7100000000000000000000000000000000000000000000000000000000 PUSH0 MSTORE PUSH1 0x41 PUSH1 0x4 MSTORE PUSH1 0x24 PUSH0 REVERT JUMPDEST PUSH2 0x273C DUP3 PUSH2 0x2478 JUMP JUMPDEST DUP2 ADD DUP2 DUP2 LT PUSH8 0xFFFFFFFFFFFFFFFF DUP3 GT OR ISZERO PUSH2 0x275B JUMPI PUSH2 0x275A PUSH2 0x2706 JUMP JUMPDEST JUMPDEST DUP1 PUSH1 0x40 MSTORE POP POP POP JUMP JUMPDEST PUSH0 PUSH2 0x276D PUSH2 0x230B JUMP JUMPDEST SWAP1 POP PUSH2 0x2779 DUP3 DUP3 PUSH2 0x2733 JUMP JUMPDEST SWAP2 SWAP1 POP JUMP JUMPDEST PUSH0 PUSH8 0xFFFFFFFFFFFFFFFF DUP3 GT ISZERO PUSH2 0x2798 JUMPI PUSH2 0x2797 PUSH2 0x2706 JUMP JUMPDEST JUMPDEST PUSH2 0x27A1 DUP3 PUSH2 0x2478 JUMP JUMPDEST SWAP1 POP PUSH1 0x20 DUP2 ADD SWAP1 POP SWAP2 SWAP1 POP JUMP JUMPDEST DUP3 DUP2 DUP4 CALLDATACOPY PUSH0 DUP4 DUP4 ADD MSTORE POP POP POP JUMP JUMPDEST PUSH0 PUSH2 0x27CE PUSH2 0x27C9 DUP5 PUSH2 0x277E JUMP JUMPDEST PUSH2 0x2764 JUMP JUMPDEST SWAP1 POP DUP3 DUP2 MSTORE PUSH1 0x20 DUP2 ADD DUP5 DUP5 DUP5 ADD GT ISZERO PUSH2 0x27EA JUMPI PUSH2 0x27E9 PUSH2 0x2702 JUMP JUMPDEST JUMPDEST PUSH2 0x27F5 DUP5 DUP3 DUP6 PUSH2 0x27AE JUMP JUMPDEST POP SWAP4 SWAP3 POP POP POP JUMP JUMPDEST PUSH0 DUP3 PUSH1 0x1F DUP4 ADD SLT PUSH2 0x2811 JUMPI PUSH2 0x2810 PUSH2 0x26FE JUMP JUMPDEST JUMPDEST DUP2 CALLDATALOAD PUSH2 0x2821 DUP5 DUP3 PUSH1 0x20 DUP7 ADD PUSH2 0x27BC JUMP JUMPDEST SWAP2 POP POP SWAP3 SWAP2 POP POP JUMP JUMPDEST PUSH0 PUSH1 0x20 DUP3 DUP5 SUB SLT ISZERO PUSH2 0x283F JUMPI PUSH2 0x283E PUSH2 0x2314 JUMP JUMPDEST JUMPDEST PUSH0 DUP3 ADD CALLDATALOAD PUSH8 0xFFFFFFFFFFFFFFFF DUP2 GT ISZERO PUSH2 0x285C JUMPI PUSH2 0x285B PUSH2 0x2318 JUMP JUMPDEST JUMPDEST PUSH2 0x2868 DUP5 DUP3 DUP6 ADD PUSH2 0x27FD JUMP JUMPDEST SWAP2 POP POP SWAP3 SWAP2 POP POP JUMP JUMPDEST PUSH0 DUP2 ISZERO ISZERO SWAP1 POP SWAP2 SWAP1 POP JUMP JUMPDEST PUSH2 0x2885 DUP2 PUSH2 0x2871 JUMP JUMPDEST DUP3 MSTORE POP POP JUMP JUMPDEST PUSH0 PUSH1 0x20 DUP3 ADD SWAP1 POP PUSH2 0x289E PUSH0 DUP4 ADD DUP5 PUSH2 0x287C JUMP JUMPDEST SWAP3 SWAP2 POP POP JUMP JUMPDEST PUSH0 DUP3 DUP3 MSTORE PUSH1 0x20 DUP3 ADD SWAP1 POP SWAP3 SWAP2 POP POP JUMP JUMPDEST PUSH0 PUSH2 0x28BE DUP3 PUSH2 0x2450 JUMP JUMPDEST PUSH2 0x28C8 DUP2 DUP6 PUSH2 0x28A4 JUMP JUMPDEST SWAP4 POP PUSH2 0x28D8 DUP2 DUP6 PUSH1 0x20 DUP7 ADD PUSH2 0x246A JUMP JUMPDEST PUSH2 0x28E1 DUP2 PUSH2 0x2478 JUMP JUMPDEST DUP5 ADD SWAP2 POP POP SWAP3 SWAP2 POP POP JUMP JUMPDEST PUSH0 PUSH1 0x20 DUP3 ADD SWAP1 POP DUP2 DUP2 SUB PUSH0 DUP4 ADD MSTORE PUSH2 0x2904 DUP2 DUP5 PUSH2 0x28B4 JUMP JUMPDEST SWAP1 POP SWAP3 SWAP2 POP POP JUMP JUMPDEST PUSH0 DUP2 MLOAD SWAP1 POP SWAP2 SWAP1 POP JUMP JUMPDEST PUSH0 DUP3 DUP3 MSTORE PUSH1 0x20 DUP3 ADD SWAP1 POP SWAP3 SWAP2 POP POP JUMP JUMPDEST PUSH0 DUP2 SWAP1 POP PUSH1 0x20 DUP3 ADD SWAP1 POP SWAP2 SWAP1 POP JUMP JUMPDEST PUSH0 PUSH2 0x2940 DUP4 DUP4 PUSH2 0x24CF JUMP JUMPDEST PUSH1 0x20 DUP4 ADD SWAP1 POP SWAP3 SWAP2 POP POP JUMP JUMPDEST PUSH0 PUSH1 0x20 DUP3 ADD SWAP1 POP SWAP2 SWAP1 POP JUMP JUMPDEST PUSH0 PUSH2 0x2962 DUP3 PUSH2 0x290C JUMP JUMPDEST PUSH2 0x296C DUP2 DUP6 PUSH2 0x2916 JUMP JUMPDEST SWAP4 POP PUSH2 0x2977 DUP4 PUSH2 0x2926 JUMP JUMPDEST DUP1 PUSH0 JUMPDEST DUP4 DUP2 LT ISZERO PUSH2 0x29A7 JUMPI DUP2 MLOAD PUSH2 0x298E DUP9 DUP3 PUSH2 0x2935 JUMP JUMPDEST SWAP8 POP PUSH2 0x2999 DUP4 PUSH2 0x294C JUMP JUMPDEST SWAP3 POP POP PUSH1 0x1 DUP2 ADD SWAP1 POP PUSH2 0x297A JUMP JUMPDEST POP DUP6 SWAP4 POP POP POP POP SWAP3 SWAP2 POP POP JUMP JUMPDEST PUSH0 PUSH1 0x20 DUP3 ADD SWAP1 POP DUP2 DUP2 SUB PUSH0 DUP4 ADD MSTORE PUSH2 0x29CC DUP2 DUP5 PUSH2 0x2958 JUMP JUMPDEST SWAP1 POP SWAP3 SWAP2 POP POP JUMP JUMPDEST PUSH32 0x596F752063616E206F6E6C7920766F7465206966207468657265206973206D6F PUSH0 DUP3 ADD MSTORE PUSH32 0x7265207468616E20312077696E6E657200000000000000000000000000000000 PUSH1 0x20 DUP3 ADD MSTORE POP JUMP JUMPDEST PUSH0 PUSH2 0x2A2E PUSH1 0x30 DUP4 PUSH2 0x28A4 JUMP JUMPDEST SWAP2 POP PUSH2 0x2A39 DUP3 PUSH2 0x29D4 JUMP JUMPDEST PUSH1 0x40 DUP3 ADD SWAP1 POP SWAP2 SWAP1 POP JUMP JUMPDEST PUSH0 PUSH1 0x20 DUP3 ADD SWAP1 POP DUP2 DUP2 SUB PUSH0 DUP4 ADD MSTORE PUSH2 0x2A5B DUP2 PUSH2 0x2A22 JUMP JUMPDEST SWAP1 POP SWAP2 SWAP1 POP JUMP JUMPDEST PUSH32 0x54686520766F74696E672073657373696F6E206973206E6F7420737461727465 PUSH0 DUP3 ADD MSTORE PUSH32 0x6400000000000000000000000000000000000000000000000000000000000000 PUSH1 0x20 DUP3 ADD MSTORE POP JUMP JUMPDEST PUSH0 PUSH2 0x2ABC PUSH1 0x21 DUP4 PUSH2 0x28A4 JUMP JUMPDEST SWAP2 POP PUSH2 0x2AC7 DUP3 PUSH2 0x2A62 JUMP JUMPDEST PUSH1 0x40 DUP3 ADD SWAP1 POP SWAP2 SWAP1 POP JUMP JUMPDEST PUSH0 PUSH1 0x20 DUP3 ADD SWAP1 POP DUP2 DUP2 SUB PUSH0 DUP4 ADD MSTORE PUSH2 0x2AE9 DUP2 PUSH2 0x2AB0 JUMP JUMPDEST SWAP1 POP SWAP2 SWAP1 POP JUMP JUMPDEST PUSH32 0x596F7520617265206E6F74207265676973746572656400000000000000000000 PUSH0 DUP3 ADD MSTORE POP JUMP JUMPDEST PUSH0 PUSH2 0x2B24 PUSH1 0x16 DUP4 PUSH2 0x28A4 JUMP JUMPDEST SWAP2 POP PUSH2 0x2B2F DUP3 PUSH2 0x2AF0 JUMP JUMPDEST PUSH1 0x20 DUP3 ADD SWAP1 POP SWAP2 SWAP1 POP JUMP JUMPDEST PUSH0 PUSH1 0x20 DUP3 ADD SWAP1 POP DUP2 DUP2 SUB PUSH0 DUP4 ADD MSTORE PUSH2 0x2B51 DUP2 PUSH2 0x2B18 JUMP JUMPDEST SWAP1 POP SWAP2 SWAP1 POP JUMP JUMPDEST PUSH32 0x596F7520616C726561647920766F746564000000000000000000000000000000 PUSH0 DUP3 ADD MSTORE POP JUMP JUMPDEST PUSH0 PUSH2 0x2B8C PUSH1 0x11 DUP4 PUSH2 0x28A4 JUMP JUMPDEST SWAP2 POP PUSH2 0x2B97 DUP3 PUSH2 0x2B58 JUMP JUMPDEST PUSH1 0x20 DUP3 ADD SWAP1 POP SWAP2 SWAP1 POP JUMP JUMPDEST PUSH0 PUSH1 0x20 DUP3 ADD SWAP1 POP DUP2 DUP2 SUB PUSH0 DUP4 ADD MSTORE PUSH2 0x2BB9 DUP2 PUSH2 0x2B80 JUMP JUMPDEST SWAP1 POP SWAP2 SWAP1 POP JUMP JUMPDEST PUSH32 0x546869732070726F706F73616C20494420646F6573206E6F7420657869737473 PUSH0 DUP3 ADD MSTORE POP JUMP JUMPDEST PUSH0 PUSH2 0x2BF4 PUSH1 0x20 DUP4 PUSH2 0x28A4 JUMP JUMPDEST SWAP2 POP PUSH2 0x2BFF DUP3 PUSH2 0x2BC0 JUMP JUMPDEST PUSH1 0x20 DUP3 ADD SWAP1 POP SWAP2 SWAP1 POP JUMP JUMPDEST PUSH0 PUSH1 0x20 DUP3 ADD SWAP1 POP DUP2 DUP2 SUB PUSH0 DUP4 ADD MSTORE PUSH2 0x2C21 DUP2 PUSH2 0x2BE8 JUMP JUMPDEST SWAP1 POP SWAP2 SWAP1 POP JUMP JUMPDEST PUSH32 0x4E487B7100000000000000000000000000000000000000000000000000000000 PUSH0 MSTORE PUSH1 0x32 PUSH1 0x4 MSTORE PUSH1 0x24 PUSH0 REVERT JUMPDEST PUSH32 0x4E487B7100000000000000000000000000000000000000000000000000000000 PUSH0 MSTORE PUSH1 0x11 PUSH1 0x4 MSTORE PUSH1 0x24 PUSH0 REVERT JUMPDEST PUSH0 PUSH2 0x2C8C DUP3 PUSH2 0x231C JUMP JUMPDEST SWAP2 POP PUSH32 0xFFFFFFFFFFFFFFFFFFFFFFFFFFFFFFFFFFFFFFFFFFFFFFFFFFFFFFFFFFFFFFFF DUP3 SUB PUSH2 0x2CBE JUMPI PUSH2 0x2CBD PUSH2 0x2C55 JUMP JUMPDEST JUMPDEST PUSH1 0x1 DUP3 ADD SWAP1 POP SWAP2 SWAP1 POP JUMP JUMPDEST PUSH0 PUSH1 0x40 DUP3 ADD SWAP1 POP PUSH2 0x2CDC PUSH0 DUP4 ADD DUP6 PUSH2 0x25DD JUMP JUMPDEST PUSH2 0x2CE9 PUSH1 0x20 DUP4 ADD DUP5 PUSH2 0x237A JUMP JUMPDEST SWAP4 SWAP3 POP POP POP JUMP JUMPDEST PUSH32 0x596F7520617265206E6F7420696E20766F74657220726567697374726174696F PUSH0 DUP3 ADD MSTORE PUSH32 0x6E20706572696F64000000000000000000000000000000000000000000000000 PUSH1 0x20 DUP3 ADD MSTORE POP JUMP JUMPDEST PUSH0 PUSH2 0x2D4A PUSH1 0x28 DUP4 PUSH2 0x28A4 JUMP JUMPDEST SWAP2 POP PUSH2 0x2D55 DUP3 PUSH2 0x2CF0 JUMP JUMPDEST PUSH1 0x40 DUP3 ADD SWAP1 POP SWAP2 SWAP1 POP JUMP JUMPDEST PUSH0 PUSH1 0x20 DUP3 ADD SWAP1 POP DUP2 DUP2 SUB PUSH0 DUP4 ADD MSTORE PUSH2 0x2D77 DUP2 PUSH2 0x2D3E JUMP JUMPDEST SWAP1 POP SWAP2 SWAP1 POP JUMP JUMPDEST PUSH32 0x596F7520616C7265616479206861766520616464207468697320616472657373 PUSH0 DUP3 ADD MSTORE POP JUMP JUMPDEST PUSH0 PUSH2 0x2DB2 PUSH1 0x20 DUP4 PUSH2 0x28A4 JUMP JUMPDEST SWAP2 POP PUSH2 0x2DBD DUP3 PUSH2 0x2D7E JUMP JUMPDEST PUSH1 0x20 DUP3 ADD SWAP1 POP SWAP2 SWAP1 POP JUMP JUMPDEST PUSH0 PUSH1 0x20 DUP3 ADD SWAP1 POP DUP2 DUP2 SUB PUSH0 DUP4 ADD MSTORE PUSH2 0x2DDF DUP2 PUSH2 0x2DA6 JUMP JUMPDEST SWAP1 POP SWAP2 SWAP1 POP JUMP JUMPDEST PUSH32 0x596F752063616E206E6F7420737461727420616761696E207468652070726F70 PUSH0 DUP3 ADD MSTORE PUSH32 0x6F73616C2073657373696F6E0000000000000000000000000000000000000000 PUSH1 0x20 DUP3 ADD MSTORE POP JUMP JUMPDEST PUSH0 PUSH2 0x2E40 PUSH1 0x2C DUP4 PUSH2 0x28A4 JUMP JUMPDEST SWAP2 POP PUSH2 0x2E4B DUP3 PUSH2 0x2DE6 JUMP JUMPDEST PUSH1 0x40 DUP3 ADD SWAP1 POP SWAP2 SWAP1 POP JUMP JUMPDEST PUSH0 PUSH1 0x20 DUP3 ADD SWAP1 POP DUP2 DUP2 SUB PUSH0 DUP4 ADD MSTORE PUSH2 0x2E6D DUP2 PUSH2 0x2E34 JUMP JUMPDEST SWAP1 POP SWAP2 SWAP1 POP JUMP JUMPDEST PUSH32 0x596F75206D757374207265676973746572206174206C65617374203220616464 PUSH0 DUP3 ADD MSTORE PUSH32 0x7265737365730000000000000000000000000000000000000000000000000000 PUSH1 0x20 DUP3 ADD MSTORE POP JUMP JUMPDEST PUSH0 PUSH2 0x2ECE PUSH1 0x26 DUP4 PUSH2 0x28A4 JUMP JUMPDEST SWAP2 POP PUSH2 0x2ED9 DUP3 PUSH2 0x2E74 JUMP JUMPDEST PUSH1 0x40 DUP3 ADD SWAP1 POP SWAP2 SWAP1 POP JUMP JUMPDEST PUSH0 PUSH1 0x20 DUP3 ADD SWAP1 POP DUP2 DUP2 SUB PUSH0 DUP4 ADD MSTORE PUSH2 0x2EFB DUP2 PUSH2 0x2EC2 JUMP JUMPDEST SWAP1 POP SWAP2 SWAP1 POP JUMP JUMPDEST PUSH0 PUSH2 0x2F0C DUP3 PUSH2 0x231C JUMP JUMPDEST SWAP2 POP PUSH2 0x2F17 DUP4 PUSH2 0x231C JUMP JUMPDEST SWAP3 POP DUP3 DUP3 SUB SWAP1 POP DUP2 DUP2 GT ISZERO PUSH2 0x2F2F JUMPI PUSH2 0x2F2E PUSH2 0x2C55 JUMP JUMPDEST JUMPDEST SWAP3 SWAP2 POP POP JUMP JUMPDEST PUSH0 PUSH1 0x40 DUP3 ADD SWAP1 POP PUSH2 0x2F48 PUSH0 DUP4 ADD DUP6 PUSH2 0x2669 JUMP JUMPDEST PUSH2 0x2F55 PUSH1 0x20 DUP4 ADD DUP5 PUSH2 0x2669 JUMP JUMPDEST SWAP4 SWAP3 POP POP POP JUMP JUMPDEST PUSH32 0x5468652077696E6E65722068617665206E6F74206265656E2063686F6F73656E PUSH0 DUP3 ADD MSTORE PUSH32 0x2079657400000000000000000000000000000000000000000000000000000000 PUSH1 0x20 DUP3 ADD MSTORE POP JUMP JUMPDEST PUSH0 PUSH2 0x2FB6 PUSH1 0x24 DUP4 PUSH2 0x28A4 JUMP JUMPDEST SWAP2 POP PUSH2 0x2FC1 DUP3 PUSH2 0x2F5C JUMP JUMPDEST PUSH1 0x40 DUP3 ADD SWAP1 POP SWAP2 SWAP1 POP JUMP JUMPDEST PUSH0 PUSH1 0x20 DUP3 ADD SWAP1 POP DUP2 DUP2 SUB PUSH0 DUP4 ADD MSTORE PUSH2 0x2FE3 DUP2 PUSH2 0x2FAA JUMP JUMPDEST SWAP1 POP SWAP2 SWAP1 POP JUMP JUMPDEST PUSH32 0x4E487B7100000000000000000000000000000000000000000000000000000000 PUSH0 MSTORE PUSH1 0x22 PUSH1 0x4 MSTORE PUSH1 0x24 PUSH0 REVERT JUMPDEST PUSH0 PUSH1 0x2 DUP3 DIV SWAP1 POP PUSH1 0x1 DUP3 AND DUP1 PUSH2 0x302E JUMPI PUSH1 0x7F DUP3 AND SWAP2 POP JUMPDEST PUSH1 0x20 DUP3 LT DUP2 SUB PUSH2 0x3041 JUMPI PUSH2 0x3040 PUSH2 0x2FEA JUMP JUMPDEST JUMPDEST POP SWAP2 SWAP1 POP JUMP JUMPDEST PUSH32 0x5468652070726F706F73616C2073657373696F6E20686173206E6F7420737461 PUSH0 DUP3 ADD MSTORE PUSH32 0x7274656400000000000000000000000000000000000000000000000000000000 PUSH1 0x20 DUP3 ADD MSTORE POP JUMP JUMPDEST PUSH0 PUSH2 0x30A1 PUSH1 0x24 DUP4 PUSH2 0x28A4 JUMP JUMPDEST SWAP2 POP PUSH2 0x30AC DUP3 PUSH2 0x3047 JUMP JUMPDEST PUSH1 0x40 DUP3 ADD SWAP1 POP SWAP2 SWAP1 POP JUMP JUMPDEST PUSH0 PUSH1 0x20 DUP3 ADD SWAP1 POP DUP2 DUP2 SUB PUSH0 DUP4 ADD MSTORE PUSH2 0x30CE DUP2 PUSH2 0x3095 JUMP JUMPDEST SWAP1 POP SWAP2 SWAP1 POP JUMP JUMPDEST PUSH32 0x546869732061646472657373206973206E6F7420726567697374657265640000 PUSH0 DUP3 ADD MSTORE POP JUMP JUMPDEST PUSH0 PUSH2 0x3109 PUSH1 0x1E DUP4 PUSH2 0x28A4 JUMP JUMPDEST SWAP2 POP PUSH2 0x3114 DUP3 PUSH2 0x30D5 JUMP JUMPDEST PUSH1 0x20 DUP3 ADD SWAP1 POP SWAP2 SWAP1 POP JUMP JUMPDEST PUSH0 PUSH1 0x20 DUP3 ADD SWAP1 POP DUP2 DUP2 SUB PUSH0 DUP4 ADD MSTORE PUSH2 0x3136 DUP2 PUSH2 0x30FD JUMP JUMPDEST SWAP1 POP SWAP2 SWAP1 POP JUMP JUMPDEST PUSH32 0x54686973206164647265737320686173206E6F7420766F746564000000000000 PUSH0 DUP3 ADD MSTORE POP JUMP JUMPDEST PUSH0 PUSH2 0x3171 PUSH1 0x1A DUP4 PUSH2 0x28A4 JUMP JUMPDEST SWAP2 POP PUSH2 0x317C DUP3 PUSH2 0x313D JUMP JUMPDEST PUSH1 0x20 DUP3 ADD SWAP1 POP SWAP2 SWAP1 POP JUMP JUMPDEST PUSH0 PUSH1 0x20 DUP3 ADD SWAP1 POP DUP2 DUP2 SUB PUSH0 DUP4 ADD MSTORE PUSH2 0x319E DUP2 PUSH2 0x3165 JUMP JUMPDEST SWAP1 POP SWAP2 SWAP1 POP JUMP JUMPDEST PUSH32 0x5468652070726F706F73616C2073657373696F6E206973206E6F742073746172 PUSH0 DUP3 ADD MSTORE PUSH32 0x7465640000000000000000000000000000000000000000000000000000000000 PUSH1 0x20 DUP3 ADD MSTORE POP JUMP JUMPDEST PUSH0 PUSH2 0x31FF PUSH1 0x23 DUP4 PUSH2 0x28A4 JUMP JUMPDEST SWAP2 POP PUSH2 0x320A DUP3 PUSH2 0x31A5 JUMP JUMPDEST PUSH1 0x40 DUP3 ADD SWAP1 POP SWAP2 SWAP1 POP JUMP JUMPDEST PUSH0 PUSH1 0x20 DUP3 ADD SWAP1 POP DUP2 DUP2 SUB PUSH0 DUP4 ADD MSTORE PUSH2 0x322C DUP2 PUSH2 0x31F3 JUMP JUMPDEST SWAP1 POP SWAP2 SWAP1 POP JUMP JUMPDEST PUSH32 0x596F752061726520746865206F776E6572206F66207468697320636F6E747261 PUSH0 DUP3 ADD MSTORE PUSH32 0x63742C20796F752063616E206E6F742070726F706F7365000000000000000000 PUSH1 0x20 DUP3 ADD MSTORE POP JUMP JUMPDEST PUSH0 PUSH2 0x328D PUSH1 0x37 DUP4 PUSH2 0x28A4 JUMP JUMPDEST SWAP2 POP PUSH2 0x3298 DUP3 PUSH2 0x3233 JUMP JUMPDEST PUSH1 0x40 DUP3 ADD SWAP1 POP SWAP2 SWAP1 POP JUMP JUMPDEST PUSH0 PUSH1 0x20 DUP3 ADD SWAP1 POP DUP2 DUP2 SUB PUSH0 DUP4 ADD MSTORE PUSH2 0x32BA DUP2 PUSH2 0x3281 JUMP JUMPDEST SWAP1 POP SWAP2 SWAP1 POP JUMP JUMPDEST PUSH0 DUP2 SWAP1 POP DUP2 PUSH0 MSTORE PUSH1 0x20 PUSH0 KECCAK256 SWAP1 POP SWAP2 SWAP1 POP JUMP JUMPDEST PUSH0 PUSH1 0x20 PUSH1 0x1F DUP4 ADD DIV SWAP1 POP SWAP2 SWAP1 POP JUMP JUMPDEST PUSH0 DUP3 DUP3 SHL SWAP1 POP SWAP3 SWAP2 POP POP JUMP JUMPDEST PUSH0 PUSH1 0x8 DUP4 MUL PUSH2 0x331D PUSH32 0xFFFFFFFFFFFFFFFFFFFFFFFFFFFFFFFFFFFFFFFFFFFFFFFFFFFFFFFFFFFFFFFF DUP3 PUSH2 0x32E2 JUMP JUMPDEST PUSH2 0x3327 DUP7 DUP4 PUSH2 0x32E2 JUMP JUMPDEST SWAP6 POP DUP1 NOT DUP5 AND SWAP4 POP DUP1 DUP7 AND DUP5 OR SWAP3 POP POP POP SWAP4 SWAP3 POP POP POP JUMP JUMPDEST PUSH0 DUP2 SWAP1 POP SWAP2 SWAP1 POP JUMP JUMPDEST PUSH0 PUSH2 0x3362 PUSH2 0x335D PUSH2 0x3358 DUP5 PUSH2 0x231C JUMP JUMPDEST PUSH2 0x333F JUMP JUMPDEST PUSH2 0x231C JUMP JUMPDEST SWAP1 POP SWAP2 SWAP1 POP JUMP JUMPDEST PUSH0 DUP2 SWAP1 POP SWAP2 SWAP1 POP JUMP JUMPDEST PUSH2 0x337B DUP4 PUSH2 0x3348 JUMP JUMPDEST PUSH2 0x338F PUSH2 0x3387 DUP3 PUSH2 0x3369 JUMP JUMPDEST DUP5 DUP5 SLOAD PUSH2 0x32EE JUMP JUMPDEST DUP3 SSTORE POP POP POP POP JUMP JUMPDEST PUSH0 PUSH0 SWAP1 POP SWAP1 JUMP JUMPDEST PUSH2 0x33A6 PUSH2 0x3397 JUMP JUMPDEST PUSH2 0x33B1 DUP2 DUP5 DUP5 PUSH2 0x3372 JUMP JUMPDEST POP POP POP JUMP JUMPDEST JUMPDEST DUP2 DUP2 LT ISZERO PUSH2 0x33D4 JUMPI PUSH2 0x33C9 PUSH0 DUP3 PUSH2 0x339E JUMP JUMPDEST PUSH1 0x1 DUP2 ADD SWAP1 POP PUSH2 0x33B7 JUMP JUMPDEST POP POP JUMP JUMPDEST PUSH1 0x1F DUP3 GT ISZERO PUSH2 0x3419 JUMPI PUSH2 0x33EA DUP2 PUSH2 0x32C1 JUMP JUMPDEST PUSH2 0x33F3 DUP5 PUSH2 0x32D3 JUMP JUMPDEST DUP2 ADD PUSH1 0x20 DUP6 LT ISZERO PUSH2 0x3402 JUMPI DUP2 SWAP1 POP JUMPDEST PUSH2 0x3416 PUSH2 0x340E DUP6 PUSH2 0x32D3 JUMP JUMPDEST DUP4 ADD DUP3 PUSH2 0x33B6 JUMP JUMPDEST POP POP JUMPDEST POP POP POP JUMP JUMPDEST PUSH0 DUP3 DUP3 SHR SWAP1 POP SWAP3 SWAP2 POP POP JUMP JUMPDEST PUSH0 PUSH2 0x3439 PUSH0 NOT DUP5 PUSH1 0x8 MUL PUSH2 0x341E JUMP JUMPDEST NOT DUP1 DUP4 AND SWAP2 POP POP SWAP3 SWAP2 POP POP JUMP JUMPDEST PUSH0 PUSH2 0x3451 DUP4 DUP4 PUSH2 0x342A JUMP JUMPDEST SWAP2 POP DUP3 PUSH1 0x2 MUL DUP3 OR SWAP1 POP SWAP3 SWAP2 POP POP JUMP JUMPDEST PUSH2 0x346A DUP3 PUSH2 0x2450 JUMP JUMPDEST PUSH8 0xFFFFFFFFFFFFFFFF DUP2 GT ISZERO PUSH2 0x3483 JUMPI PUSH2 0x3482 PUSH2 0x2706 JUMP JUMPDEST JUMPDEST PUSH2 0x348D DUP3 SLOAD PUSH2 0x3017 JUMP JUMPDEST PUSH2 0x3498 DUP3 DUP3 DUP6 PUSH2 0x33D8 JUMP JUMPDEST PUSH0 PUSH1 0x20 SWAP1 POP PUSH1 0x1F DUP4 GT PUSH1 0x1 DUP2 EQ PUSH2 0x34C9 JUMPI PUSH0 DUP5 ISZERO PUSH2 0x34B7 JUMPI DUP3 DUP8 ADD MLOAD SWAP1 POP JUMPDEST PUSH2 0x34C1 DUP6 DUP3 PUSH2 0x3446 JUMP JUMPDEST DUP7 SSTORE POP PUSH2 0x3528 JUMP JUMPDEST PUSH1 0x1F NOT DUP5 AND PUSH2 0x34D7 DUP7 PUSH2 0x32C1 JUMP JUMPDEST PUSH0 JUMPDEST DUP3 DUP2 LT ISZERO PUSH2 0x34FE JUMPI DUP5 DUP10 ADD MLOAD DUP3 SSTORE PUSH1 0x1 DUP3 ADD SWAP2 POP PUSH1 0x20 DUP6 ADD SWAP5 POP PUSH1 0x20 DUP2 ADD SWAP1 POP PUSH2 0x34D9 JUMP JUMPDEST DUP7 DUP4 LT ISZERO PUSH2 0x351B JUMPI DUP5 DUP10 ADD MLOAD PUSH2 0x3517 PUSH1 0x1F DUP10 AND DUP3 PUSH2 0x342A JUMP JUMPDEST DUP4 SSTORE POP JUMPDEST PUSH1 0x1 PUSH1 0x2 DUP9 MUL ADD DUP9 SSTORE POP POP POP JUMPDEST POP POP POP POP POP POP JUMP JUMPDEST PUSH32 0x5468652070726F706F73616C2073657373696F6E206973206E6F7420656E6465 PUSH0 DUP3 ADD MSTORE PUSH32 0x64206F722074686520766F74652073657373696F6E2068617320616C72656164 PUSH1 0x20 DUP3 ADD MSTORE PUSH32 0x7920737461727465640000000000000000000000000000000000000000000000 PUSH1 0x40 DUP3 ADD MSTORE POP JUMP JUMPDEST PUSH0 PUSH2 0x35B0 PUSH1 0x49 DUP4 PUSH2 0x28A4 JUMP JUMPDEST SWAP2 POP PUSH2 0x35BB DUP3 PUSH2 0x3530 JUMP JUMPDEST PUSH1 0x60 DUP3 ADD SWAP1 POP SWAP2 SWAP1 POP JUMP JUMPDEST PUSH0 PUSH1 0x20 DUP3 ADD SWAP1 POP DUP2 DUP2 SUB PUSH0 DUP4 ADD MSTORE PUSH2 0x35DD DUP2 PUSH2 0x35A4 JUMP JUMPDEST SWAP1 POP SWAP2 SWAP1 POP JUMP JUMPDEST PUSH32 0x54686520766F74652073657373696F6E206973206E6F7420656E646564000000 PUSH0 DUP3 ADD MSTORE POP JUMP JUMPDEST PUSH0 PUSH2 0x3618 PUSH1 0x1D DUP4 PUSH2 0x28A4 JUMP JUMPDEST SWAP2 POP PUSH2 0x3623 DUP3 PUSH2 0x35E4 JUMP JUMPDEST PUSH1 0x20 DUP3 ADD SWAP1 POP SWAP2 SWAP1 POP JUMP JUMPDEST PUSH0 PUSH1 0x20 DUP3 ADD SWAP1 POP DUP2 DUP2 SUB PUSH0 DUP4 ADD MSTORE PUSH2 0x3645 DUP2 PUSH2 0x360C JUMP JUMPDEST SWAP1 POP SWAP2 SWAP1 POP JUMP JUMPDEST PUSH32 0x5468657265206973206D6F7265207468616E20312077696E6E65722C20796F75 PUSH0 DUP3 ADD MSTORE PUSH32 0x206861766520746F20766F746500000000000000000000000000000000000000 PUSH1 0x20 DUP3 ADD MSTORE POP JUMP JUMPDEST PUSH0 PUSH2 0x36A6 PUSH1 0x2D DUP4 PUSH2 0x28A4 JUMP JUMPDEST SWAP2 POP PUSH2 0x36B1 DUP3 PUSH2 0x364C JUMP JUMPDEST PUSH1 0x40 DUP3 ADD SWAP1 POP SWAP2 SWAP1 POP JUMP JUMPDEST PUSH0 PUSH1 0x20 DUP3 ADD SWAP1 POP DUP2 DUP2 SUB PUSH0 DUP4 ADD MSTORE PUSH2 0x36D3 DUP2 PUSH2 0x369A JUMP JUMPDEST SWAP1 POP SWAP2 SWAP1 POP JUMP JUMPDEST PUSH32 0x546865206C61737420766F746520686173206E6F74206265656E2074616C6C69 PUSH0 DUP3 ADD MSTORE PUSH32 0x6564000000000000000000000000000000000000000000000000000000000000 PUSH1 0x20 DUP3 ADD MSTORE POP JUMP JUMPDEST PUSH0 PUSH2 0x3734 PUSH1 0x22 DUP4 PUSH2 0x28A4 JUMP JUMPDEST SWAP2 POP PUSH2 0x373F DUP3 PUSH2 0x36DA JUMP JUMPDEST PUSH1 0x40 DUP3 ADD SWAP1 POP SWAP2 SWAP1 POP JUMP JUMPDEST PUSH0 PUSH1 0x20 DUP3 ADD SWAP1 POP DUP2 DUP2 SUB PUSH0 DUP4 ADD MSTORE PUSH2 0x3761 DUP2 PUSH2 0x3728 JUMP JUMPDEST SWAP1 POP SWAP2 SWAP1 POP JUMP JUMPDEST PUSH32 0x5468652070726F706F73616C2073657373696F6E20686173206E6F7420737461 PUSH0 DUP3 ADD MSTORE PUSH32 0x72746564206F722068617320616C7265616479206265656E20656E6465640000 PUSH1 0x20 DUP3 ADD MSTORE POP JUMP JUMPDEST PUSH0 PUSH2 0x37C2 PUSH1 0x3E DUP4 PUSH2 0x28A4 JUMP JUMPDEST SWAP2 POP PUSH2 0x37CD DUP3 PUSH2 0x3768 JUMP JUMPDEST PUSH1 0x40 DUP3 ADD SWAP1 POP SWAP2 SWAP1 POP JUMP JUMPDEST PUSH0 PUSH1 0x20 DUP3 ADD SWAP1 POP DUP2 DUP2 SUB PUSH0 DUP4 ADD MSTORE PUSH2 0x37EF DUP2 PUSH2 0x37B6 JUMP JUMPDEST SWAP1 POP SWAP2 SWAP1 POP JUMP JUMPDEST PUSH32 0x546865726520617265206E6F2070726F706F73616C7320726567697374657265 PUSH0 DUP3 ADD MSTORE PUSH32 0x6400000000000000000000000000000000000000000000000000000000000000 PUSH1 0x20 DUP3 ADD MSTORE POP JUMP JUMPDEST PUSH0 PUSH2 0x3850 PUSH1 0x21 DUP4 PUSH2 0x28A4 JUMP JUMPDEST SWAP2 POP PUSH2 0x385B DUP3 PUSH2 0x37F6 JUMP JUMPDEST PUSH1 0x40 DUP3 ADD SWAP1 POP SWAP2 SWAP1 POP JUMP JUMPDEST PUSH0 PUSH1 0x20 DUP3 ADD SWAP1 POP DUP2 DUP2 SUB PUSH0 DUP4 ADD MSTORE PUSH2 0x387D DUP2 PUSH2 0x3844 JUMP JUMPDEST SWAP1 POP SWAP2 SWAP1 POP JUMP JUMPDEST PUSH32 0x54686520766F74652073657373696F6E20686173206E6F742073746172746564 PUSH0 DUP3 ADD MSTORE PUSH32 0x206F722068617320616C726561647920656E6465640000000000000000000000 PUSH1 0x20 DUP3 ADD MSTORE POP JUMP JUMPDEST PUSH0 PUSH2 0x38DE PUSH1 0x35 DUP4 PUSH2 0x28A4 JUMP JUMPDEST SWAP2 POP PUSH2 0x38E9 DUP3 PUSH2 0x3884 JUMP JUMPDEST PUSH1 0x40 DUP3 ADD SWAP1 POP SWAP2 SWAP1 POP JUMP JUMPDEST PUSH0 PUSH1 0x20 DUP3 ADD SWAP1 POP DUP2 DUP2 SUB PUSH0 DUP4 ADD MSTORE PUSH2 0x390B DUP2 PUSH2 0x38D2 JUMP JUMPDEST SWAP1 POP SWAP2 SWAP1 POP JUMP JUMPDEST PUSH32 0x546865726520617265206E6F20766F7465207265676973746572656400000000 PUSH0 DUP3 ADD MSTORE POP JUMP JUMPDEST PUSH0 PUSH2 0x3946 PUSH1 0x1C DUP4 PUSH2 0x28A4 JUMP JUMPDEST SWAP2 POP PUSH2 0x3951 DUP3 PUSH2 0x3912 JUMP JUMPDEST PUSH1 0x20 DUP3 ADD SWAP1 POP SWAP2 SWAP1 POP JUMP JUMPDEST PUSH0 PUSH1 0x20 DUP3 ADD SWAP1 POP DUP2 DUP2 SUB PUSH0 DUP4 ADD MSTORE PUSH2 0x3973 DUP2 PUSH2 0x393A JUMP JUMPDEST SWAP1 POP SWAP2 SWAP1 POP JUMP INVALID LOG2 PUSH5 0x6970667358 0x22 SLT KECCAK256 0xB0 0xE5 SGT PUSH13 0xD3A52BE2F20DAC63A07508791A 0xAA SELFBALANCE RETURN CALLER MSTORE MLOAD 0x2A PUSH9 0x12FBD4A7CCEB916473 PUSH16 0x6C634300081C00330000000000000000 "
				},
				"gasEstimates": {
					"creation": {
						"codeDepositCost": "2953600",
						"executionCost": "infinite",
						"totalCost": "infinite"
					},
					"external": {
						"checkIfRegistered(address)": "2942",
						"endProposalSession()": "infinite",
						"endVoteSession()": "infinite",
						"getAddressByProposalId(uint256)": "16062",
						"getCurrentStatus()": "2672",
						"getPreviousStatus()": "infinite",
						"getProposalCount()": "2551",
						"getProposals()": "infinite",
						"getVoteByAddress(address)": "infinite",
						"getVoteCountTotal()": "2498",
						"getVoteWinnerCount()": "2499",
						"getVoterCount()": "2501",
						"getVoterRegisteredAddress()": "infinite",
						"getWinnerCount()": "2478",
						"getWinnerProposal()": "infinite",
						"getWinnerProposalDescription()": "infinite",
						"getWinnerProposalId()": "4710",
						"isRegistered(address)": "2962",
						"owner()": "2559",
						"propose(string)": "infinite",
						"registerVoter(address)": "infinite",
						"renounceOwnership()": "infinite",
						"reset()": "infinite",
						"startProposalSession()": "infinite",
						"startVoteSession()": "infinite",
						"transferOwnership(address)": "infinite",
						"vote(uint256)": "infinite",
						"votesTallied()": "infinite"
					},
					"internal": {
						"calculateWinnerProposal()": "infinite"
					}
				},
				"methodIdentifiers": {
					"checkIfRegistered(address)": "af64e735",
					"endProposalSession()": "e06752c2",
					"endVoteSession()": "f74c168d",
					"getAddressByProposalId(uint256)": "64aa135a",
					"getCurrentStatus()": "a3dd2619",
					"getPreviousStatus()": "65f88a7c",
					"getProposalCount()": "c08cc02d",
					"getProposals()": "62564c48",
					"getVoteByAddress(address)": "80525548",
					"getVoteCountTotal()": "e1ab86fb",
					"getVoteWinnerCount()": "9589dfcc",
					"getVoterCount()": "11174a29",
					"getVoterRegisteredAddress()": "d370035a",
					"getWinnerCount()": "a46c3637",
					"getWinnerProposal()": "a3c1885b",
					"getWinnerProposalDescription()": "bfbf53af",
					"getWinnerProposalId()": "5bc46514",
					"isRegistered(address)": "c3c5a547",
					"owner()": "8da5cb5b",
					"propose(string)": "aa98df39",
					"registerVoter(address)": "38db6dd3",
					"renounceOwnership()": "715018a6",
					"reset()": "d826f88f",
					"startProposalSession()": "50d072fc",
					"startVoteSession()": "aaa98346",
					"transferOwnership(address)": "f2fde38b",
					"vote(uint256)": "0121b93f",
					"votesTallied()": "ada7415f"
				}
			},
			"storageLayout": {
				"storage": [
					{
						"astId": 8,
						"contract": "contracts/VotingPlus.sol:VotingPlus",
						"label": "_owner",
						"offset": 0,
						"slot": "0",
						"type": "t_address"
					},
					{
						"astId": 201,
						"contract": "contracts/VotingPlus.sol:VotingPlus",
						"label": "whitelistVoter",
						"offset": 0,
						"slot": "1",
						"type": "t_mapping(t_address,t_struct(Voter)189_storage)"
					},
					{
						"astId": 205,
						"contract": "contracts/VotingPlus.sol:VotingPlus",
						"label": "proposals",
						"offset": 0,
						"slot": "2",
						"type": "t_array(t_struct(Proposal)196_storage)dyn_storage"
					},
					{
						"astId": 208,
						"contract": "contracts/VotingPlus.sol:VotingPlus",
						"label": "voterRegisteredAddress",
						"offset": 0,
						"slot": "3",
						"type": "t_array(t_address)dyn_storage"
					},
					{
						"astId": 220,
						"contract": "contracts/VotingPlus.sol:VotingPlus",
						"label": "currentStatus",
						"offset": 0,
						"slot": "4",
						"type": "t_enum(WorkflowStatus)215"
					},
					{
						"astId": 222,
						"contract": "contracts/VotingPlus.sol:VotingPlus",
						"label": "winningProposalId",
						"offset": 0,
						"slot": "5",
						"type": "t_uint256"
					},
					{
						"astId": 224,
						"contract": "contracts/VotingPlus.sol:VotingPlus",
						"label": "voterCount",
						"offset": 0,
						"slot": "6",
						"type": "t_uint256"
					},
					{
						"astId": 226,
						"contract": "contracts/VotingPlus.sol:VotingPlus",
						"label": "voteCountTotal",
						"offset": 0,
						"slot": "7",
						"type": "t_uint256"
					},
					{
						"astId": 228,
						"contract": "contracts/VotingPlus.sol:VotingPlus",
						"label": "winnerCount",
						"offset": 0,
						"slot": "8",
						"type": "t_uint256"
					},
					{
						"astId": 231,
						"contract": "contracts/VotingPlus.sol:VotingPlus",
						"label": "voteWinnerCount",
						"offset": 0,
						"slot": "9",
						"type": "t_uint256"
					}
				],
				"types": {
					"t_address": {
						"encoding": "inplace",
						"label": "address",
						"numberOfBytes": "20"
					},
					"t_array(t_address)dyn_storage": {
						"base": "t_address",
						"encoding": "dynamic_array",
						"label": "address[]",
						"numberOfBytes": "32"
					},
					"t_array(t_struct(Proposal)196_storage)dyn_storage": {
						"base": "t_struct(Proposal)196_storage",
						"encoding": "dynamic_array",
						"label": "struct VotingPlus.Proposal[]",
						"numberOfBytes": "32"
					},
					"t_bool": {
						"encoding": "inplace",
						"label": "bool",
						"numberOfBytes": "1"
					},
					"t_enum(WorkflowStatus)215": {
						"encoding": "inplace",
						"label": "enum VotingPlus.WorkflowStatus",
						"numberOfBytes": "1"
					},
					"t_mapping(t_address,t_struct(Voter)189_storage)": {
						"encoding": "mapping",
						"key": "t_address",
						"label": "mapping(address => struct VotingPlus.Voter)",
						"numberOfBytes": "32",
						"value": "t_struct(Voter)189_storage"
					},
					"t_string_storage": {
						"encoding": "bytes",
						"label": "string",
						"numberOfBytes": "32"
					},
					"t_struct(Proposal)196_storage": {
						"encoding": "inplace",
						"label": "struct VotingPlus.Proposal",
						"members": [
							{
								"astId": 191,
								"contract": "contracts/VotingPlus.sol:VotingPlus",
								"label": "description",
								"offset": 0,
								"slot": "0",
								"type": "t_string_storage"
							},
							{
								"astId": 193,
								"contract": "contracts/VotingPlus.sol:VotingPlus",
								"label": "voteCount",
								"offset": 0,
								"slot": "1",
								"type": "t_uint256"
							},
							{
								"astId": 195,
								"contract": "contracts/VotingPlus.sol:VotingPlus",
								"label": "voter",
								"offset": 0,
								"slot": "2",
								"type": "t_address"
							}
						],
						"numberOfBytes": "96"
					},
					"t_struct(Voter)189_storage": {
						"encoding": "inplace",
						"label": "struct VotingPlus.Voter",
						"members": [
							{
								"astId": 184,
								"contract": "contracts/VotingPlus.sol:VotingPlus",
								"label": "isRegistered",
								"offset": 0,
								"slot": "0",
								"type": "t_bool"
							},
							{
								"astId": 186,
								"contract": "contracts/VotingPlus.sol:VotingPlus",
								"label": "hasVoted",
								"offset": 1,
								"slot": "0",
								"type": "t_bool"
							},
							{
								"astId": 188,
								"contract": "contracts/VotingPlus.sol:VotingPlus",
								"label": "votedProposalId",
								"offset": 0,
								"slot": "1",
								"type": "t_uint256"
							}
						],
						"numberOfBytes": "64"
					},
					"t_uint256": {
						"encoding": "inplace",
						"label": "uint256",
						"numberOfBytes": "32"
					}
				}
			},
			"userdoc": {
				"kind": "user",
				"methods": {},
				"version": 1
			}
		}
	}
}