{
	"contracts/Voting.sol": {
		"Voting": {
			"abi": [
				{
					"inputs": [],
					"stateMutability": "nonpayable",
					"type": "constructor"
				},
				{
					"inputs": [
						{
							"internalType": "address",
							"name": "owner",
							"type": "address"
						}
					],
					"name": "OwnableInvalidOwner",
					"type": "error"
				},
				{
					"inputs": [
						{
							"internalType": "address",
							"name": "account",
							"type": "address"
						}
					],
					"name": "OwnableUnauthorizedAccount",
					"type": "error"
				},
				{
					"anonymous": false,
					"inputs": [
						{
							"indexed": true,
							"internalType": "address",
							"name": "previousOwner",
							"type": "address"
						},
						{
							"indexed": true,
							"internalType": "address",
							"name": "newOwner",
							"type": "address"
						}
					],
					"name": "OwnershipTransferred",
					"type": "event"
				},
				{
					"anonymous": false,
					"inputs": [
						{
							"indexed": false,
							"internalType": "uint256",
							"name": "proposalId",
							"type": "uint256"
						}
					],
					"name": "ProposalRegistered",
					"type": "event"
				},
				{
					"anonymous": false,
					"inputs": [
						{
							"indexed": false,
							"internalType": "address",
							"name": "voter",
							"type": "address"
						},
						{
							"indexed": false,
							"internalType": "uint256",
							"name": "proposalId",
							"type": "uint256"
						}
					],
					"name": "Voted",
					"type": "event"
				},
				{
					"anonymous": false,
					"inputs": [
						{
							"indexed": false,
							"internalType": "address",
							"name": "voterAddress",
							"type": "address"
						}
					],
					"name": "VoterRegistered",
					"type": "event"
				},
				{
					"anonymous": false,
					"inputs": [
						{
							"indexed": false,
							"internalType": "enum Voting.WorkflowStatus",
							"name": "previousStatus",
							"type": "uint8"
						},
						{
							"indexed": false,
							"internalType": "enum Voting.WorkflowStatus",
							"name": "newStatus",
							"type": "uint8"
						}
					],
					"name": "WorkflowStatusChange",
					"type": "event"
				},
				{
					"inputs": [],
					"name": "endProposalSession",
					"outputs": [],
					"stateMutability": "nonpayable",
					"type": "function"
				},
				{
					"inputs": [],
					"name": "endVoteSession",
					"outputs": [],
					"stateMutability": "nonpayable",
					"type": "function"
				},
				{
					"inputs": [],
					"name": "getCurrentStatus",
					"outputs": [
						{
							"internalType": "enum Voting.WorkflowStatus",
							"name": "",
							"type": "uint8"
						}
					],
					"stateMutability": "view",
					"type": "function"
				},
				{
					"inputs": [],
					"name": "getPreviousStatus",
					"outputs": [
						{
							"internalType": "enum Voting.WorkflowStatus",
							"name": "",
							"type": "uint8"
						}
					],
					"stateMutability": "view",
					"type": "function"
				},
				{
					"inputs": [],
					"name": "getProposalCount",
					"outputs": [
						{
							"internalType": "uint256",
							"name": "",
							"type": "uint256"
						}
					],
					"stateMutability": "view",
					"type": "function"
				},
				{
					"inputs": [],
					"name": "getProposals",
					"outputs": [
						{
							"components": [
								{
									"internalType": "string",
									"name": "description",
									"type": "string"
								},
								{
									"internalType": "uint256",
									"name": "voteCount",
									"type": "uint256"
								}
							],
							"internalType": "struct Voting.Proposal[]",
							"name": "",
							"type": "tuple[]"
						}
					],
					"stateMutability": "view",
					"type": "function"
				},
				{
					"inputs": [
						{
							"internalType": "address",
							"name": "_address",
							"type": "address"
						}
					],
					"name": "getVoteByAddress",
					"outputs": [
						{
							"components": [
								{
									"internalType": "string",
									"name": "description",
									"type": "string"
								},
								{
									"internalType": "uint256",
									"name": "voteCount",
									"type": "uint256"
								}
							],
							"internalType": "struct Voting.Proposal",
							"name": "",
							"type": "tuple"
						}
					],
					"stateMutability": "view",
					"type": "function"
				},
				{
					"inputs": [],
					"name": "getVoteCountTotal",
					"outputs": [
						{
							"internalType": "uint256",
							"name": "",
							"type": "uint256"
						}
					],
					"stateMutability": "view",
					"type": "function"
				},
				{
					"inputs": [],
					"name": "getVoteWinnerCount",
					"outputs": [
						{
							"internalType": "uint256",
							"name": "",
							"type": "uint256"
						}
					],
					"stateMutability": "view",
					"type": "function"
				},
				{
					"inputs": [],
					"name": "getVoterCount",
					"outputs": [
						{
							"internalType": "uint256",
							"name": "",
							"type": "uint256"
						}
					],
					"stateMutability": "view",
					"type": "function"
				},
				{
					"inputs": [],
					"name": "getWinnerCount",
					"outputs": [
						{
							"internalType": "uint256",
							"name": "",
							"type": "uint256"
						}
					],
					"stateMutability": "view",
					"type": "function"
				},
				{
					"inputs": [],
					"name": "getWinnerProposal",
					"outputs": [
						{
							"components": [
								{
									"internalType": "string",
									"name": "description",
									"type": "string"
								},
								{
									"internalType": "uint256",
									"name": "voteCount",
									"type": "uint256"
								}
							],
							"internalType": "struct Voting.Proposal",
							"name": "",
							"type": "tuple"
						}
					],
					"stateMutability": "view",
					"type": "function"
				},
				{
					"inputs": [],
					"name": "getWinnerProposalId",
					"outputs": [
						{
							"internalType": "uint256",
							"name": "",
							"type": "uint256"
						}
					],
					"stateMutability": "view",
					"type": "function"
				},
				{
					"inputs": [],
					"name": "getWinner_proposaldescription",
					"outputs": [
						{
							"internalType": "string",
							"name": "",
							"type": "string"
						}
					],
					"stateMutability": "view",
					"type": "function"
				},
				{
					"inputs": [],
					"name": "owner",
					"outputs": [
						{
							"internalType": "address",
							"name": "",
							"type": "address"
						}
					],
					"stateMutability": "view",
					"type": "function"
				},
				{
					"inputs": [
						{
							"internalType": "string",
							"name": "_proposal",
							"type": "string"
						}
					],
					"name": "propose",
					"outputs": [
						{
							"internalType": "string",
							"name": "",
							"type": "string"
						}
					],
					"stateMutability": "nonpayable",
					"type": "function"
				},
				{
					"inputs": [
						{
							"internalType": "address",
							"name": "_address",
							"type": "address"
						}
					],
					"name": "registerVoter",
					"outputs": [],
					"stateMutability": "nonpayable",
					"type": "function"
				},
				{
					"inputs": [],
					"name": "renounceOwnership",
					"outputs": [],
					"stateMutability": "nonpayable",
					"type": "function"
				},
				{
					"inputs": [],
					"name": "startProposalSession",
					"outputs": [],
					"stateMutability": "nonpayable",
					"type": "function"
				},
				{
					"inputs": [],
					"name": "startVoteSession",
					"outputs": [],
					"stateMutability": "nonpayable",
					"type": "function"
				},
				{
					"inputs": [
						{
							"internalType": "address",
							"name": "newOwner",
							"type": "address"
						}
					],
					"name": "transferOwnership",
					"outputs": [],
					"stateMutability": "nonpayable",
					"type": "function"
				},
				{
					"inputs": [
						{
							"internalType": "uint256",
							"name": "_proposald",
							"type": "uint256"
						}
					],
					"name": "vote",
					"outputs": [],
					"stateMutability": "nonpayable",
					"type": "function"
				},
				{
					"inputs": [],
					"name": "votesTallied",
					"outputs": [],
					"stateMutability": "nonpayable",
					"type": "function"
				}
			],
			"devdoc": {
				"errors": {
					"OwnableInvalidOwner(address)": [
						{
							"details": "The owner is not a valid owner account. (eg. `address(0)`)"
						}
					],
					"OwnableUnauthorizedAccount(address)": [
						{
							"details": "The caller account is not authorized to perform an operation."
						}
					]
				},
				"kind": "dev",
				"methods": {
					"owner()": {
						"details": "Returns the address of the current owner."
					},
					"renounceOwnership()": {
						"details": "Leaves the contract without owner. It will not be possible to call `onlyOwner` functions. Can only be called by the current owner. NOTE: Renouncing ownership will leave the contract without an owner, thereby disabling any functionality that is only available to the owner."
					},
					"transferOwnership(address)": {
						"details": "Transfers ownership of the contract to a new account (`newOwner`). Can only be called by the current owner."
					}
				},
				"version": 1
			},
			"evm": {
				"assembly": "    /* \"contracts/Voting.sol\":111:9105  contract Voting is Ownable {... */\n  mstore(0x40, 0x80)\n    /* \"contracts/Voting.sol\":845:877  WorkflowStatus.RegisteringVoters */\n  0x00\n    /* \"contracts/Voting.sol\":814:877  WorkflowStatus currentStatus = WorkflowStatus.RegisteringVoters */\n  0x03\n  exp(0x0100, 0x00)\n  dup2\n  sload\n  dup2\n  0xff\n  mul\n  not\n  and\n  swap1\n  dup4\n  0x05\n  dup2\n  gt\n  iszero\n  tag_1\n  jumpi\n  tag_2\n  tag_3\n  jump\t// in\ntag_2:\ntag_1:\n  mul\n  or\n  swap1\n  sstore\n  pop\n    /* \"contracts/Voting.sol\":1233:1234  1 */\n  0x01\n    /* \"contracts/Voting.sol\":1210:1234  uint voteWinnerCount = 1 */\n  0x09\n  sstore\n    /* \"contracts/Voting.sol\":1615:1656  constructor() Ownable(msg.sender) {... */\n  callvalue\n  dup1\n  iszero\n  tag_4\n  jumpi\n  revert(0x00, 0x00)\ntag_4:\n  pop\n    /* \"contracts/Voting.sol\":1637:1647  msg.sender */\n  caller\n    /* \"@openzeppelin/contracts/access/Ownable.sol\":1297:1298  0 */\n  0x00\n    /* \"@openzeppelin/contracts/access/Ownable.sol\":1273:1299  initialOwner == address(0) */\n  0xffffffffffffffffffffffffffffffffffffffff\n  and\n    /* \"@openzeppelin/contracts/access/Ownable.sol\":1273:1285  initialOwner */\n  dup2\n    /* \"@openzeppelin/contracts/access/Ownable.sol\":1273:1299  initialOwner == address(0) */\n  0xffffffffffffffffffffffffffffffffffffffff\n  and\n  sub\n    /* \"@openzeppelin/contracts/access/Ownable.sol\":1269:1364  if (initialOwner == address(0)) {... */\n  tag_8\n  jumpi\n    /* \"@openzeppelin/contracts/access/Ownable.sol\":1350:1351  0 */\n  0x00\n    /* \"@openzeppelin/contracts/access/Ownable.sol\":1322:1353  OwnableInvalidOwner(address(0)) */\n  mload(0x40)\n  0x1e4fbdf700000000000000000000000000000000000000000000000000000000\n  dup2\n  mstore\n  0x04\n  add\n  tag_9\n  swap2\n  swap1\n  tag_10\n  jump\t// in\ntag_9:\n  mload(0x40)\n  dup1\n  swap2\n  sub\n  swap1\n  revert\n    /* \"@openzeppelin/contracts/access/Ownable.sol\":1269:1364  if (initialOwner == address(0)) {... */\ntag_8:\n    /* \"@openzeppelin/contracts/access/Ownable.sol\":1373:1405  _transferOwnership(initialOwner) */\n  tag_11\n    /* \"@openzeppelin/contracts/access/Ownable.sol\":1392:1404  initialOwner */\n  dup2\n    /* \"@openzeppelin/contracts/access/Ownable.sol\":1373:1391  _transferOwnership */\n  shl(0x20, tag_12)\n    /* \"@openzeppelin/contracts/access/Ownable.sol\":1373:1405  _transferOwnership(initialOwner) */\n  0x20\n  shr\n  jump\t// in\ntag_11:\n    /* \"@openzeppelin/contracts/access/Ownable.sol\":1225:1412  constructor(address initialOwner) {... */\n  pop\n    /* \"contracts/Voting.sol\":111:9105  contract Voting is Ownable {... */\n  jump(tag_14)\n    /* \"@openzeppelin/contracts/access/Ownable.sol\":2912:3099  function _transferOwnership(address newOwner) internal virtual {... */\ntag_12:\n    /* \"@openzeppelin/contracts/access/Ownable.sol\":2985:3001  address oldOwner */\n  0x00\n    /* \"@openzeppelin/contracts/access/Ownable.sol\":3004:3010  _owner */\n  0x00\n  0x00\n  swap1\n  sload\n  swap1\n  0x0100\n  exp\n  swap1\n  div\n  0xffffffffffffffffffffffffffffffffffffffff\n  and\n    /* \"@openzeppelin/contracts/access/Ownable.sol\":2985:3010  address oldOwner = _owner */\n  swap1\n  pop\n    /* \"@openzeppelin/contracts/access/Ownable.sol\":3029:3037  newOwner */\n  dup2\n    /* \"@openzeppelin/contracts/access/Ownable.sol\":3020:3026  _owner */\n  0x00\n  0x00\n    /* \"@openzeppelin/contracts/access/Ownable.sol\":3020:3037  _owner = newOwner */\n  0x0100\n  exp\n  dup2\n  sload\n  dup2\n  0xffffffffffffffffffffffffffffffffffffffff\n  mul\n  not\n  and\n  swap1\n  dup4\n  0xffffffffffffffffffffffffffffffffffffffff\n  and\n  mul\n  or\n  swap1\n  sstore\n  pop\n    /* \"@openzeppelin/contracts/access/Ownable.sol\":3083:3091  newOwner */\n  dup2\n    /* \"@openzeppelin/contracts/access/Ownable.sol\":3052:3092  OwnershipTransferred(oldOwner, newOwner) */\n  0xffffffffffffffffffffffffffffffffffffffff\n  and\n    /* \"@openzeppelin/contracts/access/Ownable.sol\":3073:3081  oldOwner */\n  dup2\n    /* \"@openzeppelin/contracts/access/Ownable.sol\":3052:3092  OwnershipTransferred(oldOwner, newOwner) */\n  0xffffffffffffffffffffffffffffffffffffffff\n  and\n  0x8be0079c531659141344cd1fd0a4f28419497f9722a3daafe3b4186f6b6457e0\n  mload(0x40)\n  mload(0x40)\n  dup1\n  swap2\n  sub\n  swap1\n  log3\n    /* \"@openzeppelin/contracts/access/Ownable.sol\":2975:3099  {... */\n  pop\n    /* \"@openzeppelin/contracts/access/Ownable.sol\":2912:3099  function _transferOwnership(address newOwner) internal virtual {... */\n  pop\n  jump\t// out\n    /* \"#utility.yul\":7:187   */\ntag_3:\n    /* \"#utility.yul\":55:132   */\n  0x4e487b7100000000000000000000000000000000000000000000000000000000\n    /* \"#utility.yul\":52:53   */\n  0x00\n    /* \"#utility.yul\":45:133   */\n  mstore\n    /* \"#utility.yul\":152:156   */\n  0x21\n    /* \"#utility.yul\":149:150   */\n  0x04\n    /* \"#utility.yul\":142:157   */\n  mstore\n    /* \"#utility.yul\":176:180   */\n  0x24\n    /* \"#utility.yul\":173:174   */\n  0x00\n    /* \"#utility.yul\":166:181   */\n  revert\n    /* \"#utility.yul\":193:319   */\ntag_16:\n    /* \"#utility.yul\":230:237   */\n  0x00\n    /* \"#utility.yul\":270:312   */\n  0xffffffffffffffffffffffffffffffffffffffff\n    /* \"#utility.yul\":263:268   */\n  dup3\n    /* \"#utility.yul\":259:313   */\n  and\n    /* \"#utility.yul\":248:313   */\n  swap1\n  pop\n    /* \"#utility.yul\":193:319   */\n  swap2\n  swap1\n  pop\n  jump\t// out\n    /* \"#utility.yul\":325:421   */\ntag_17:\n    /* \"#utility.yul\":362:369   */\n  0x00\n    /* \"#utility.yul\":391:415   */\n  tag_23\n    /* \"#utility.yul\":409:414   */\n  dup3\n    /* \"#utility.yul\":391:415   */\n  tag_16\n  jump\t// in\ntag_23:\n    /* \"#utility.yul\":380:415   */\n  swap1\n  pop\n    /* \"#utility.yul\":325:421   */\n  swap2\n  swap1\n  pop\n  jump\t// out\n    /* \"#utility.yul\":427:545   */\ntag_18:\n    /* \"#utility.yul\":514:538   */\n  tag_25\n    /* \"#utility.yul\":532:537   */\n  dup2\n    /* \"#utility.yul\":514:538   */\n  tag_17\n  jump\t// in\ntag_25:\n    /* \"#utility.yul\":509:512   */\n  dup3\n    /* \"#utility.yul\":502:539   */\n  mstore\n    /* \"#utility.yul\":427:545   */\n  pop\n  pop\n  jump\t// out\n    /* \"#utility.yul\":551:773   */\ntag_10:\n    /* \"#utility.yul\":644:648   */\n  0x00\n    /* \"#utility.yul\":682:684   */\n  0x20\n    /* \"#utility.yul\":671:680   */\n  dup3\n    /* \"#utility.yul\":667:685   */\n  add\n    /* \"#utility.yul\":659:685   */\n  swap1\n  pop\n    /* \"#utility.yul\":695:766   */\n  tag_27\n    /* \"#utility.yul\":763:764   */\n  0x00\n    /* \"#utility.yul\":752:761   */\n  dup4\n    /* \"#utility.yul\":748:765   */\n  add\n    /* \"#utility.yul\":739:745   */\n  dup5\n    /* \"#utility.yul\":695:766   */\n  tag_18\n  jump\t// in\ntag_27:\n    /* \"#utility.yul\":551:773   */\n  swap3\n  swap2\n  pop\n  pop\n  jump\t// out\n    /* \"contracts/Voting.sol\":111:9105  contract Voting is Ownable {... */\ntag_14:\n  dataSize(sub_0)\n  dup1\n  dataOffset(sub_0)\n  0x00\n  codecopy\n  0x00\n  return\nstop\n\nsub_0: assembly {\n        /* \"contracts/Voting.sol\":111:9105  contract Voting is Ownable {... */\n      mstore(0x40, 0x80)\n      callvalue\n      dup1\n      iszero\n      tag_1\n      jumpi\n      revert(0x00, 0x00)\n    tag_1:\n      pop\n      jumpi(tag_2, lt(calldatasize, 0x04))\n      shr(0xe0, calldataload(0x00))\n      dup1\n      0x9589dfcc\n      gt\n      tag_26\n      jumpi\n      dup1\n      0xada7415f\n      gt\n      tag_27\n      jumpi\n      dup1\n      0xada7415f\n      eq\n      tag_20\n      jumpi\n      dup1\n      0xc08cc02d\n      eq\n      tag_21\n      jumpi\n      dup1\n      0xe06752c2\n      eq\n      tag_22\n      jumpi\n      dup1\n      0xe1ab86fb\n      eq\n      tag_23\n      jumpi\n      dup1\n      0xf2fde38b\n      eq\n      tag_24\n      jumpi\n      dup1\n      0xf74c168d\n      eq\n      tag_25\n      jumpi\n      jump(tag_2)\n    tag_27:\n      dup1\n      0x9589dfcc\n      eq\n      tag_14\n      jumpi\n      dup1\n      0xa3c1885b\n      eq\n      tag_15\n      jumpi\n      dup1\n      0xa3dd2619\n      eq\n      tag_16\n      jumpi\n      dup1\n      0xa46c3637\n      eq\n      tag_17\n      jumpi\n      dup1\n      0xaa98df39\n      eq\n      tag_18\n      jumpi\n      dup1\n      0xaaa98346\n      eq\n      tag_19\n      jumpi\n      jump(tag_2)\n    tag_26:\n      dup1\n      0x5bc46514\n      gt\n      tag_28\n      jumpi\n      dup1\n      0x5bc46514\n      eq\n      tag_8\n      jumpi\n      dup1\n      0x62564c48\n      eq\n      tag_9\n      jumpi\n      dup1\n      0x65f88a7c\n      eq\n      tag_10\n      jumpi\n      dup1\n      0x715018a6\n      eq\n      tag_11\n      jumpi\n      dup1\n      0x80525548\n      eq\n      tag_12\n      jumpi\n      dup1\n      0x8da5cb5b\n      eq\n      tag_13\n      jumpi\n      jump(tag_2)\n    tag_28:\n      dup1\n      0x0121b93f\n      eq\n      tag_3\n      jumpi\n      dup1\n      0x11174a29\n      eq\n      tag_4\n      jumpi\n      dup1\n      0x38db6dd3\n      eq\n      tag_5\n      jumpi\n      dup1\n      0x43850c2d\n      eq\n      tag_6\n      jumpi\n      dup1\n      0x50d072fc\n      eq\n      tag_7\n      jumpi\n    tag_2:\n      revert(0x00, 0x00)\n        /* \"contracts/Voting.sol\":2983:3367  function vote(uint256 _proposald) external restrictOwnerToVote {... */\n    tag_3:\n      tag_29\n      0x04\n      dup1\n      calldatasize\n      sub\n      dup2\n      add\n      swap1\n      tag_30\n      swap2\n      swap1\n      tag_31\n      jump\t// in\n    tag_30:\n      tag_32\n      jump\t// in\n    tag_29:\n      stop\n        /* \"contracts/Voting.sol\":8572:8658  function getVoterCount() external view returns(uint){... */\n    tag_4:\n      tag_33\n      tag_34\n      jump\t// in\n    tag_33:\n      mload(0x40)\n      tag_35\n      swap2\n      swap1\n      tag_36\n      jump\t// in\n    tag_35:\n      mload(0x40)\n      dup1\n      swap2\n      sub\n      swap1\n      return\n        /* \"contracts/Voting.sol\":1782:2219  function registerVoter(address _address) external onlyOwner {... */\n    tag_5:\n      tag_37\n      0x04\n      dup1\n      calldatasize\n      sub\n      dup2\n      add\n      swap1\n      tag_38\n      swap2\n      swap1\n      tag_39\n      jump\t// in\n    tag_38:\n      tag_40\n      jump\t// in\n    tag_37:\n      stop\n        /* \"contracts/Voting.sol\":7378:7625  function getWinner_proposaldescription() external view returns (string memory) {... */\n    tag_6:\n      tag_41\n      tag_42\n      jump\t// in\n    tag_41:\n      mload(0x40)\n      tag_43\n      swap2\n      swap1\n      tag_44\n      jump\t// in\n    tag_43:\n      mload(0x40)\n      dup1\n      swap2\n      sub\n      swap1\n      return\n        /* \"contracts/Voting.sol\":4053:4463  function startProposalSession() external onlyOwner {... */\n    tag_7:\n      tag_45\n      tag_46\n      jump\t// in\n    tag_45:\n      stop\n        /* \"contracts/Voting.sol\":7680:7885  function getWinnerProposalId() external view returns (uint) {... */\n    tag_8:\n      tag_47\n      tag_48\n      jump\t// in\n    tag_47:\n      mload(0x40)\n      tag_49\n      swap2\n      swap1\n      tag_36\n      jump\t// in\n    tag_49:\n      mload(0x40)\n      dup1\n      swap2\n      sub\n      swap1\n      return\n        /* \"contracts/Voting.sol\":8426:8523  function getProposals() external view returns(Proposal[] memory){... */\n    tag_9:\n      tag_50\n      tag_51\n      jump\t// in\n    tag_50:\n      mload(0x40)\n      tag_52\n      swap2\n      swap1\n      tag_53\n      jump\t// in\n    tag_52:\n      mload(0x40)\n      dup1\n      swap2\n      sub\n      swap1\n      return\n        /* \"contracts/Voting.sol\":8109:8240  function getPreviousStatus() external view returns (WorkflowStatus) {... */\n    tag_10:\n      tag_54\n      tag_55\n      jump\t// in\n    tag_54:\n      mload(0x40)\n      tag_56\n      swap2\n      swap1\n      tag_57\n      jump\t// in\n    tag_56:\n      mload(0x40)\n      dup1\n      swap2\n      sub\n      swap1\n      return\n        /* \"@openzeppelin/contracts/access/Ownable.sol\":2293:2394  function renounceOwnership() public virtual onlyOwner {... */\n    tag_11:\n      tag_58\n      tag_59\n      jump\t// in\n    tag_58:\n      stop\n        /* \"contracts/Voting.sol\":6241:6703  function getVoteByAddress(address _address) external view returns(Proposal memory){... */\n    tag_12:\n      tag_60\n      0x04\n      dup1\n      calldatasize\n      sub\n      dup2\n      add\n      swap1\n      tag_61\n      swap2\n      swap1\n      tag_39\n      jump\t// in\n    tag_61:\n      tag_62\n      jump\t// in\n    tag_60:\n      mload(0x40)\n      tag_63\n      swap2\n      swap1\n      tag_64\n      jump\t// in\n    tag_63:\n      mload(0x40)\n      dup1\n      swap2\n      sub\n      swap1\n      return\n        /* \"@openzeppelin/contracts/access/Ownable.sol\":1638:1723  function owner() public view virtual returns (address) {... */\n    tag_13:\n      tag_65\n      tag_66\n      jump\t// in\n    tag_65:\n      mload(0x40)\n      tag_67\n      swap2\n      swap1\n      tag_68\n      jump\t// in\n    tag_67:\n      mload(0x40)\n      dup1\n      swap2\n      sub\n      swap1\n      return\n        /* \"contracts/Voting.sol\":9006:9102  function getVoteWinnerCount() external view returns(uint){... */\n    tag_14:\n      tag_69\n      tag_70\n      jump\t// in\n    tag_69:\n      mload(0x40)\n      tag_71\n      swap2\n      swap1\n      tag_36\n      jump\t// in\n    tag_71:\n      mload(0x40)\n      dup1\n      swap2\n      sub\n      swap1\n      return\n        /* \"contracts/Voting.sol\":7088:7313  function getWinnerProposal() external view returns (Proposal memory) {... */\n    tag_15:\n      tag_72\n      tag_73\n      jump\t// in\n    tag_72:\n      mload(0x40)\n      tag_74\n      swap2\n      swap1\n      tag_64\n      jump\t// in\n    tag_74:\n      mload(0x40)\n      dup1\n      swap2\n      sub\n      swap1\n      return\n        /* \"contracts/Voting.sol\":7938:8042  function getCurrentStatus() external view returns (WorkflowStatus) {... */\n    tag_16:\n      tag_75\n      tag_76\n      jump\t// in\n    tag_75:\n      mload(0x40)\n      tag_77\n      swap2\n      swap1\n      tag_57\n      jump\t// in\n    tag_77:\n      mload(0x40)\n      dup1\n      swap2\n      sub\n      swap1\n      return\n        /* \"contracts/Voting.sol\":8851:8939  function getWinnerCount() external view returns(uint){... */\n    tag_17:\n      tag_78\n      tag_79\n      jump\t// in\n    tag_78:\n      mload(0x40)\n      tag_80\n      swap2\n      swap1\n      tag_36\n      jump\t// in\n    tag_80:\n      mload(0x40)\n      dup1\n      swap2\n      sub\n      swap1\n      return\n        /* \"contracts/Voting.sol\":2352:2977  function propose(string memory _proposal) external returns (string memory){... */\n    tag_18:\n      tag_81\n      0x04\n      dup1\n      calldatasize\n      sub\n      dup2\n      add\n      swap1\n      tag_82\n      swap2\n      swap1\n      tag_83\n      jump\t// in\n    tag_82:\n      tag_84\n      jump\t// in\n    tag_81:\n      mload(0x40)\n      tag_85\n      swap2\n      swap1\n      tag_44\n      jump\t// in\n    tag_85:\n      mload(0x40)\n      dup1\n      swap2\n      sub\n      swap1\n      return\n        /* \"contracts/Voting.sol\":4912:5273  function startVoteSession() external onlyOwner {... */\n    tag_19:\n      tag_86\n      tag_87\n      jump\t// in\n    tag_86:\n      stop\n        /* \"contracts/Voting.sol\":5724:6105  function votesTallied() external onlyOwner {... */\n    tag_20:\n      tag_88\n      tag_89\n      jump\t// in\n    tag_88:\n      stop\n        /* \"contracts/Voting.sol\":8290:8385  function getProposalCount() external view returns(uint){... */\n    tag_21:\n      tag_90\n      tag_91\n      jump\t// in\n    tag_90:\n      mload(0x40)\n      tag_92\n      swap2\n      swap1\n      tag_36\n      jump\t// in\n    tag_92:\n      mload(0x40)\n      dup1\n      swap2\n      sub\n      swap1\n      return\n        /* \"contracts/Voting.sol\":4469:4905  function endProposalSession() external onlyOwner {... */\n    tag_22:\n      tag_93\n      tag_94\n      jump\t// in\n    tag_93:\n      stop\n        /* \"contracts/Voting.sol\":8706:8800  function getVoteCountTotal() external view returns(uint){... */\n    tag_23:\n      tag_95\n      tag_96\n      jump\t// in\n    tag_95:\n      mload(0x40)\n      tag_97\n      swap2\n      swap1\n      tag_36\n      jump\t// in\n    tag_97:\n      mload(0x40)\n      dup1\n      swap2\n      sub\n      swap1\n      return\n        /* \"@openzeppelin/contracts/access/Ownable.sol\":2543:2758  function transferOwnership(address newOwner) public virtual onlyOwner {... */\n    tag_24:\n      tag_98\n      0x04\n      dup1\n      calldatasize\n      sub\n      dup2\n      add\n      swap1\n      tag_99\n      swap2\n      swap1\n      tag_39\n      jump\t// in\n    tag_99:\n      tag_100\n      jump\t// in\n    tag_98:\n      stop\n        /* \"contracts/Voting.sol\":5280:5718  function endVoteSession() external onlyOwner {... */\n    tag_25:\n      tag_101\n      tag_102\n      jump\t// in\n    tag_101:\n      stop\n        /* \"contracts/Voting.sol\":2983:3367  function vote(uint256 _proposald) external restrictOwnerToVote {... */\n    tag_32:\n        /* \"contracts/Voting.sol\":3428:3438  msg.sender */\n      caller\n        /* \"contracts/Voting.sol\":3417:3438  owner() == msg.sender */\n      0xffffffffffffffffffffffffffffffffffffffff\n      and\n        /* \"contracts/Voting.sol\":3417:3424  owner() */\n      tag_104\n        /* \"contracts/Voting.sol\":3417:3422  owner */\n      tag_66\n        /* \"contracts/Voting.sol\":3417:3424  owner() */\n      jump\t// in\n    tag_104:\n        /* \"contracts/Voting.sol\":3417:3438  owner() == msg.sender */\n      0xffffffffffffffffffffffffffffffffffffffff\n      and\n      sub\n        /* \"contracts/Voting.sol\":3414:3884  if(owner() == msg.sender) {... */\n      tag_105\n      jumpi\n        /* \"contracts/Voting.sol\":3476:3477  1 */\n      0x01\n        /* \"contracts/Voting.sol\":3462:3473  winnerCount */\n      sload(0x08)\n        /* \"contracts/Voting.sol\":3462:3477  winnerCount > 1 */\n      gt\n        /* \"contracts/Voting.sol\":3454:3530  require(winnerCount > 1, \"You can only vote if there is more than 1 winner\") */\n      tag_106\n      jumpi\n      mload(0x40)\n      0x08c379a000000000000000000000000000000000000000000000000000000000\n      dup2\n      mstore\n      0x04\n      add\n      tag_107\n      swap1\n      tag_108\n      jump\t// in\n    tag_107:\n      mload(0x40)\n      dup1\n      swap2\n      sub\n      swap1\n      revert\n    tag_106:\n        /* \"contracts/Voting.sol\":3558:3559  1 */\n      0x01\n        /* \"contracts/Voting.sol\":3544:3555  winnerCount */\n      0x08\n        /* \"contracts/Voting.sol\":3544:3559  winnerCount = 1 */\n      dup2\n      swap1\n      sstore\n      pop\n        /* \"contracts/Voting.sol\":3414:3884  if(owner() == msg.sender) {... */\n      jump(tag_109)\n    tag_105:\n        /* \"contracts/Voting.sol\":3615:3650  WorkflowStatus.VotingSessionStarted */\n      0x03\n        /* \"contracts/Voting.sol\":3598:3650  currentStatus == WorkflowStatus.VotingSessionStarted */\n      0x05\n      dup2\n      gt\n      iszero\n      tag_110\n      jumpi\n      tag_111\n      tag_112\n      jump\t// in\n    tag_111:\n    tag_110:\n        /* \"contracts/Voting.sol\":3598:3611  currentStatus */\n      0x03\n      0x00\n      swap1\n      sload\n      swap1\n      0x0100\n      exp\n      swap1\n      div\n      0xff\n      and\n        /* \"contracts/Voting.sol\":3598:3650  currentStatus == WorkflowStatus.VotingSessionStarted */\n      0x05\n      dup2\n      gt\n      iszero\n      tag_113\n      jumpi\n      tag_114\n      tag_112\n      jump\t// in\n    tag_114:\n    tag_113:\n      eq\n        /* \"contracts/Voting.sol\":3590:3688  require(currentStatus == WorkflowStatus.VotingSessionStarted, \"The voting session is not started\") */\n      tag_115\n      jumpi\n      mload(0x40)\n      0x08c379a000000000000000000000000000000000000000000000000000000000\n      dup2\n      mstore\n      0x04\n      add\n      tag_116\n      swap1\n      tag_117\n      jump\t// in\n    tag_116:\n      mload(0x40)\n      dup1\n      swap2\n      sub\n      swap1\n      revert\n    tag_115:\n        /* \"contracts/Voting.sol\":3754:3758  true */\n      0x01\n        /* \"contracts/Voting.sol\":3711:3758  whitelistVoter[msg.sender].isRegistered == true */\n      iszero\n      iszero\n        /* \"contracts/Voting.sol\":3711:3725  whitelistVoter */\n      0x01\n        /* \"contracts/Voting.sol\":3711:3737  whitelistVoter[msg.sender] */\n      0x00\n        /* \"contracts/Voting.sol\":3726:3736  msg.sender */\n      caller\n        /* \"contracts/Voting.sol\":3711:3737  whitelistVoter[msg.sender] */\n      0xffffffffffffffffffffffffffffffffffffffff\n      and\n      0xffffffffffffffffffffffffffffffffffffffff\n      and\n      dup2\n      mstore\n      0x20\n      add\n      swap1\n      dup2\n      mstore\n      0x20\n      add\n      0x00\n      keccak256\n        /* \"contracts/Voting.sol\":3711:3750  whitelistVoter[msg.sender].isRegistered */\n      0x00\n      add\n      0x00\n      swap1\n      sload\n      swap1\n      0x0100\n      exp\n      swap1\n      div\n      0xff\n      and\n        /* \"contracts/Voting.sol\":3711:3758  whitelistVoter[msg.sender].isRegistered == true */\n      iszero\n      iszero\n      eq\n        /* \"contracts/Voting.sol\":3703:3785  require(whitelistVoter[msg.sender].isRegistered == true, \"You are not registered\") */\n      tag_118\n      jumpi\n      mload(0x40)\n      0x08c379a000000000000000000000000000000000000000000000000000000000\n      dup2\n      mstore\n      0x04\n      add\n      tag_119\n      swap1\n      tag_120\n      jump\t// in\n    tag_119:\n      mload(0x40)\n      dup1\n      swap2\n      sub\n      swap1\n      revert\n    tag_118:\n        /* \"contracts/Voting.sol\":3846:3851  false */\n      0x00\n        /* \"contracts/Voting.sol\":3807:3851  whitelistVoter[msg.sender].hasVoted == false */\n      iszero\n      iszero\n        /* \"contracts/Voting.sol\":3807:3821  whitelistVoter */\n      0x01\n        /* \"contracts/Voting.sol\":3807:3833  whitelistVoter[msg.sender] */\n      0x00\n        /* \"contracts/Voting.sol\":3822:3832  msg.sender */\n      caller\n        /* \"contracts/Voting.sol\":3807:3833  whitelistVoter[msg.sender] */\n      0xffffffffffffffffffffffffffffffffffffffff\n      and\n      0xffffffffffffffffffffffffffffffffffffffff\n      and\n      dup2\n      mstore\n      0x20\n      add\n      swap1\n      dup2\n      mstore\n      0x20\n      add\n      0x00\n      keccak256\n        /* \"contracts/Voting.sol\":3807:3842  whitelistVoter[msg.sender].hasVoted */\n      0x00\n      add\n      0x01\n      swap1\n      sload\n      swap1\n      0x0100\n      exp\n      swap1\n      div\n      0xff\n      and\n        /* \"contracts/Voting.sol\":3807:3851  whitelistVoter[msg.sender].hasVoted == false */\n      iszero\n      iszero\n      eq\n        /* \"contracts/Voting.sol\":3799:3873  require(whitelistVoter[msg.sender].hasVoted == false, \"You already voted\") */\n      tag_121\n      jumpi\n      mload(0x40)\n      0x08c379a000000000000000000000000000000000000000000000000000000000\n      dup2\n      mstore\n      0x04\n      add\n      tag_122\n      swap1\n      tag_123\n      jump\t// in\n    tag_122:\n      mload(0x40)\n      dup1\n      swap2\n      sub\n      swap1\n      revert\n    tag_121:\n        /* \"contracts/Voting.sol\":3414:3884  if(owner() == msg.sender) {... */\n    tag_109:\n        /* \"contracts/Voting.sol\":3077:3086  proposals */\n      0x02\n        /* \"contracts/Voting.sol\":3077:3093  proposals.length */\n      dup1\n      sload\n      swap1\n      pop\n        /* \"contracts/Voting.sol\":3064:3074  _proposald */\n      dup2\n        /* \"contracts/Voting.sol\":3064:3093  _proposald < proposals.length */\n      lt\n        /* \"contracts/Voting.sol\":3056:3130  require(_proposald < proposals.length, \"This proposal ID does not exists\") */\n      tag_125\n      jumpi\n      mload(0x40)\n      0x08c379a000000000000000000000000000000000000000000000000000000000\n      dup2\n      mstore\n      0x04\n      add\n      tag_126\n      swap1\n      tag_127\n      jump\t// in\n    tag_126:\n      mload(0x40)\n      dup1\n      swap2\n      sub\n      swap1\n      revert\n    tag_125:\n        /* \"contracts/Voting.sol\":3178:3182  true */\n      0x01\n        /* \"contracts/Voting.sol\":3140:3154  whitelistVoter */\n      dup1\n        /* \"contracts/Voting.sol\":3140:3166  whitelistVoter[msg.sender] */\n      0x00\n        /* \"contracts/Voting.sol\":3155:3165  msg.sender */\n      caller\n        /* \"contracts/Voting.sol\":3140:3166  whitelistVoter[msg.sender] */\n      0xffffffffffffffffffffffffffffffffffffffff\n      and\n      0xffffffffffffffffffffffffffffffffffffffff\n      and\n      dup2\n      mstore\n      0x20\n      add\n      swap1\n      dup2\n      mstore\n      0x20\n      add\n      0x00\n      keccak256\n        /* \"contracts/Voting.sol\":3140:3175  whitelistVoter[msg.sender].hasVoted */\n      0x00\n      add\n      0x01\n        /* \"contracts/Voting.sol\":3140:3182  whitelistVoter[msg.sender].hasVoted = true */\n      0x0100\n      exp\n      dup2\n      sload\n      dup2\n      0xff\n      mul\n      not\n      and\n      swap1\n      dup4\n      iszero\n      iszero\n      mul\n      or\n      swap1\n      sstore\n      pop\n        /* \"contracts/Voting.sol\":3237:3247  _proposald */\n      dup1\n        /* \"contracts/Voting.sol\":3192:3206  whitelistVoter */\n      0x01\n        /* \"contracts/Voting.sol\":3192:3218  whitelistVoter[msg.sender] */\n      0x00\n        /* \"contracts/Voting.sol\":3207:3217  msg.sender */\n      caller\n        /* \"contracts/Voting.sol\":3192:3218  whitelistVoter[msg.sender] */\n      0xffffffffffffffffffffffffffffffffffffffff\n      and\n      0xffffffffffffffffffffffffffffffffffffffff\n      and\n      dup2\n      mstore\n      0x20\n      add\n      swap1\n      dup2\n      mstore\n      0x20\n      add\n      0x00\n      keccak256\n        /* \"contracts/Voting.sol\":3192:3234  whitelistVoter[msg.sender].votedProposalId */\n      0x01\n      add\n        /* \"contracts/Voting.sol\":3192:3247  whitelistVoter[msg.sender].votedProposalId = _proposald */\n      dup2\n      swap1\n      sstore\n      pop\n        /* \"contracts/Voting.sol\":3257:3266  proposals */\n      0x02\n        /* \"contracts/Voting.sol\":3267:3277  _proposald */\n      dup2\n        /* \"contracts/Voting.sol\":3257:3278  proposals[_proposald] */\n      dup2\n      sload\n      dup2\n      lt\n      tag_128\n      jumpi\n      tag_129\n      tag_130\n      jump\t// in\n    tag_129:\n    tag_128:\n      swap1\n      0x00\n      mstore\n      keccak256(0x00, 0x20)\n      swap1\n      0x02\n      mul\n      add\n        /* \"contracts/Voting.sol\":3257:3288  proposals[_proposald].voteCount */\n      0x01\n      add\n      0x00\n        /* \"contracts/Voting.sol\":3257:3290  proposals[_proposald].voteCount++ */\n      dup2\n      sload\n      dup1\n      swap3\n      swap2\n      swap1\n      tag_132\n      swap1\n      tag_133\n      jump\t// in\n    tag_132:\n      swap2\n      swap1\n      pop\n      sstore\n      pop\n        /* \"contracts/Voting.sol\":3300:3314  voteCountTotal */\n      0x06\n      0x00\n        /* \"contracts/Voting.sol\":3300:3316  voteCountTotal++ */\n      dup2\n      sload\n      dup1\n      swap3\n      swap2\n      swap1\n      tag_134\n      swap1\n      tag_133\n      jump\t// in\n    tag_134:\n      swap2\n      swap1\n      pop\n      sstore\n      pop\n        /* \"contracts/Voting.sol\":3331:3360  Voted(msg.sender, _proposald) */\n      0x4d99b957a2bc29a30ebd96a7be8e68fe50a3c701db28a91436490b7d53870ca4\n        /* \"contracts/Voting.sol\":3337:3347  msg.sender */\n      caller\n        /* \"contracts/Voting.sol\":3349:3359  _proposald */\n      dup3\n        /* \"contracts/Voting.sol\":3331:3360  Voted(msg.sender, _proposald) */\n      mload(0x40)\n      tag_135\n      swap3\n      swap2\n      swap1\n      tag_136\n      jump\t// in\n    tag_135:\n      mload(0x40)\n      dup1\n      swap2\n      sub\n      swap1\n      log1\n        /* \"contracts/Voting.sol\":2983:3367  function vote(uint256 _proposald) external restrictOwnerToVote {... */\n      pop\n      jump\t// out\n        /* \"contracts/Voting.sol\":8572:8658  function getVoterCount() external view returns(uint){... */\n    tag_34:\n        /* \"contracts/Voting.sol\":8619:8623  uint */\n      0x00\n        /* \"contracts/Voting.sol\":8641:8651  voterCount */\n      sload(0x05)\n        /* \"contracts/Voting.sol\":8634:8651  return voterCount */\n      swap1\n      pop\n        /* \"contracts/Voting.sol\":8572:8658  function getVoterCount() external view returns(uint){... */\n      swap1\n      jump\t// out\n        /* \"contracts/Voting.sol\":1782:2219  function registerVoter(address _address) external onlyOwner {... */\n    tag_40:\n        /* \"@openzeppelin/contracts/access/Ownable.sol\":1531:1544  _checkOwner() */\n      tag_139\n        /* \"@openzeppelin/contracts/access/Ownable.sol\":1531:1542  _checkOwner */\n      tag_140\n        /* \"@openzeppelin/contracts/access/Ownable.sol\":1531:1544  _checkOwner() */\n      jump\t// in\n    tag_139:\n        /* \"contracts/Voting.sol\":1877:1909  WorkflowStatus.RegisteringVoters */\n      0x00\n        /* \"contracts/Voting.sol\":1860:1909  currentStatus == WorkflowStatus.RegisteringVoters */\n      0x05\n      dup2\n      gt\n      iszero\n      tag_142\n      jumpi\n      tag_143\n      tag_112\n      jump\t// in\n    tag_143:\n    tag_142:\n        /* \"contracts/Voting.sol\":1860:1873  currentStatus */\n      0x03\n      0x00\n      swap1\n      sload\n      swap1\n      0x0100\n      exp\n      swap1\n      div\n      0xff\n      and\n        /* \"contracts/Voting.sol\":1860:1909  currentStatus == WorkflowStatus.RegisteringVoters */\n      0x05\n      dup2\n      gt\n      iszero\n      tag_144\n      jumpi\n      tag_145\n      tag_112\n      jump\t// in\n    tag_145:\n    tag_144:\n      eq\n        /* \"contracts/Voting.sol\":1852:1954  require(currentStatus == WorkflowStatus.RegisteringVoters, \"You are not in voter registration period\") */\n      tag_146\n      jumpi\n      mload(0x40)\n      0x08c379a000000000000000000000000000000000000000000000000000000000\n      dup2\n      mstore\n      0x04\n      add\n      tag_147\n      swap1\n      tag_148\n      jump\t// in\n    tag_147:\n      mload(0x40)\n      dup1\n      swap2\n      sub\n      swap1\n      revert\n    tag_146:\n        /* \"contracts/Voting.sol\":2013:2018  false */\n      0x00\n        /* \"contracts/Voting.sol\":1972:2018  whitelistVoter[_address].isRegistered == false */\n      iszero\n      iszero\n        /* \"contracts/Voting.sol\":1972:1986  whitelistVoter */\n      0x01\n        /* \"contracts/Voting.sol\":1972:1996  whitelistVoter[_address] */\n      0x00\n        /* \"contracts/Voting.sol\":1987:1995  _address */\n      dup4\n        /* \"contracts/Voting.sol\":1972:1996  whitelistVoter[_address] */\n      0xffffffffffffffffffffffffffffffffffffffff\n      and\n      0xffffffffffffffffffffffffffffffffffffffff\n      and\n      dup2\n      mstore\n      0x20\n      add\n      swap1\n      dup2\n      mstore\n      0x20\n      add\n      0x00\n      keccak256\n        /* \"contracts/Voting.sol\":1972:2009  whitelistVoter[_address].isRegistered */\n      0x00\n      add\n      0x00\n      swap1\n      sload\n      swap1\n      0x0100\n      exp\n      swap1\n      div\n      0xff\n      and\n        /* \"contracts/Voting.sol\":1972:2018  whitelistVoter[_address].isRegistered == false */\n      iszero\n      iszero\n      eq\n        /* \"contracts/Voting.sol\":1964:2055  require(whitelistVoter[_address].isRegistered == false, \"You already have add this adress\") */\n      tag_149\n      jumpi\n      mload(0x40)\n      0x08c379a000000000000000000000000000000000000000000000000000000000\n      dup2\n      mstore\n      0x04\n      add\n      tag_150\n      swap1\n      tag_151\n      jump\t// in\n    tag_150:\n      mload(0x40)\n      dup1\n      swap2\n      sub\n      swap1\n      revert\n    tag_149:\n        /* \"contracts/Voting.sol\":2066:2084  Voter memory voter */\n      0x00\n        /* \"contracts/Voting.sol\":2087:2108  Voter(true, false, 0) */\n      mload(0x40)\n      dup1\n      0x60\n      add\n      0x40\n      mstore\n      dup1\n        /* \"contracts/Voting.sol\":2093:2097  true */\n      0x01\n        /* \"contracts/Voting.sol\":2087:2108  Voter(true, false, 0) */\n      iszero\n      iszero\n      dup2\n      mstore\n      0x20\n      add\n        /* \"contracts/Voting.sol\":2099:2104  false */\n      0x00\n        /* \"contracts/Voting.sol\":2087:2108  Voter(true, false, 0) */\n      iszero\n      iszero\n      dup2\n      mstore\n      0x20\n      add\n        /* \"contracts/Voting.sol\":2106:2107  0 */\n      0x00\n        /* \"contracts/Voting.sol\":2087:2108  Voter(true, false, 0) */\n      dup2\n      mstore\n      pop\n        /* \"contracts/Voting.sol\":2066:2108  Voter memory voter = Voter(true, false, 0) */\n      swap1\n      pop\n        /* \"contracts/Voting.sol\":2145:2150  voter */\n      dup1\n        /* \"contracts/Voting.sol\":2118:2132  whitelistVoter */\n      0x01\n        /* \"contracts/Voting.sol\":2118:2142  whitelistVoter[_address] */\n      0x00\n        /* \"contracts/Voting.sol\":2133:2141  _address */\n      dup5\n        /* \"contracts/Voting.sol\":2118:2142  whitelistVoter[_address] */\n      0xffffffffffffffffffffffffffffffffffffffff\n      and\n      0xffffffffffffffffffffffffffffffffffffffff\n      and\n      dup2\n      mstore\n      0x20\n      add\n      swap1\n      dup2\n      mstore\n      0x20\n      add\n      0x00\n      keccak256\n        /* \"contracts/Voting.sol\":2118:2150  whitelistVoter[_address] = voter */\n      0x00\n      dup3\n      add\n      mload\n      dup2\n      0x00\n      add\n      exp(0x0100, 0x00)\n      dup2\n      sload\n      dup2\n      0xff\n      mul\n      not\n      and\n      swap1\n      dup4\n      iszero\n      iszero\n      mul\n      or\n      swap1\n      sstore\n      pop\n      0x20\n      dup3\n      add\n      mload\n      dup2\n      0x00\n      add\n      exp(0x0100, 0x01)\n      dup2\n      sload\n      dup2\n      0xff\n      mul\n      not\n      and\n      swap1\n      dup4\n      iszero\n      iszero\n      mul\n      or\n      swap1\n      sstore\n      pop\n      0x40\n      dup3\n      add\n      mload\n      dup2\n      0x01\n      add\n      sstore\n      swap1\n      pop\n      pop\n        /* \"contracts/Voting.sol\":2160:2170  voterCount */\n      0x05\n      0x00\n        /* \"contracts/Voting.sol\":2160:2172  voterCount++ */\n      dup2\n      sload\n      dup1\n      swap3\n      swap2\n      swap1\n      tag_152\n      swap1\n      tag_133\n      jump\t// in\n    tag_152:\n      swap2\n      swap1\n      pop\n      sstore\n      pop\n        /* \"contracts/Voting.sol\":2187:2212  VoterRegistered(_address) */\n      0xb6be2187d059cc2a55fe29e0e503b566e1e0f8c8780096e185429350acffd3dd\n        /* \"contracts/Voting.sol\":2203:2211  _address */\n      dup3\n        /* \"contracts/Voting.sol\":2187:2212  VoterRegistered(_address) */\n      mload(0x40)\n      tag_153\n      swap2\n      swap1\n      tag_68\n      jump\t// in\n    tag_153:\n      mload(0x40)\n      dup1\n      swap2\n      sub\n      swap1\n      log1\n        /* \"contracts/Voting.sol\":1842:2219  {... */\n      pop\n        /* \"contracts/Voting.sol\":1782:2219  function registerVoter(address _address) external onlyOwner {... */\n      pop\n      jump\t// out\n        /* \"contracts/Voting.sol\":7378:7625  function getWinner_proposaldescription() external view returns (string memory) {... */\n    tag_42:\n        /* \"contracts/Voting.sol\":7442:7455  string memory */\n      0x60\n        /* \"contracts/Voting.sol\":7493:7520  WorkflowStatus.VotesTallied */\n      0x05\n        /* \"contracts/Voting.sol\":7475:7520  currentStatus ==  WorkflowStatus.VotesTallied */\n      dup1\n      dup2\n      gt\n      iszero\n      tag_155\n      jumpi\n      tag_156\n      tag_112\n      jump\t// in\n    tag_156:\n    tag_155:\n        /* \"contracts/Voting.sol\":7475:7488  currentStatus */\n      0x03\n      0x00\n      swap1\n      sload\n      swap1\n      0x0100\n      exp\n      swap1\n      div\n      0xff\n      and\n        /* \"contracts/Voting.sol\":7475:7520  currentStatus ==  WorkflowStatus.VotesTallied */\n      0x05\n      dup2\n      gt\n      iszero\n      tag_157\n      jumpi\n      tag_158\n      tag_112\n      jump\t// in\n    tag_158:\n    tag_157:\n      eq\n        /* \"contracts/Voting.sol\":7467:7561  require(currentStatus ==  WorkflowStatus.VotesTallied, \"The winner have not been choosen yet\") */\n      tag_159\n      jumpi\n      mload(0x40)\n      0x08c379a000000000000000000000000000000000000000000000000000000000\n      dup2\n      mstore\n      0x04\n      add\n      tag_160\n      swap1\n      tag_161\n      jump\t// in\n    tag_160:\n      mload(0x40)\n      dup1\n      swap2\n      sub\n      swap1\n      revert\n    tag_159:\n        /* \"contracts/Voting.sol\":7578:7587  proposals */\n      0x02\n        /* \"contracts/Voting.sol\":7588:7605  winningProposalId */\n      sload(0x04)\n        /* \"contracts/Voting.sol\":7578:7606  proposals[winningProposalId] */\n      dup2\n      sload\n      dup2\n      lt\n      tag_162\n      jumpi\n      tag_163\n      tag_130\n      jump\t// in\n    tag_163:\n    tag_162:\n      swap1\n      0x00\n      mstore\n      keccak256(0x00, 0x20)\n      swap1\n      0x02\n      mul\n      add\n        /* \"contracts/Voting.sol\":7578:7618  proposals[winningProposalId].description */\n      0x00\n      add\n        /* \"contracts/Voting.sol\":7571:7618  return proposals[winningProposalId].description */\n      dup1\n      sload\n      tag_165\n      swap1\n      tag_166\n      jump\t// in\n    tag_165:\n      dup1\n      0x1f\n      add\n      0x20\n      dup1\n      swap2\n      div\n      mul\n      0x20\n      add\n      mload(0x40)\n      swap1\n      dup2\n      add\n      0x40\n      mstore\n      dup1\n      swap3\n      swap2\n      swap1\n      dup2\n      dup2\n      mstore\n      0x20\n      add\n      dup3\n      dup1\n      sload\n      tag_167\n      swap1\n      tag_166\n      jump\t// in\n    tag_167:\n      dup1\n      iszero\n      tag_168\n      jumpi\n      dup1\n      0x1f\n      lt\n      tag_169\n      jumpi\n      0x0100\n      dup1\n      dup4\n      sload\n      div\n      mul\n      dup4\n      mstore\n      swap2\n      0x20\n      add\n      swap2\n      jump(tag_168)\n    tag_169:\n      dup3\n      add\n      swap2\n      swap1\n      0x00\n      mstore\n      keccak256(0x00, 0x20)\n      swap1\n    tag_170:\n      dup2\n      sload\n      dup2\n      mstore\n      swap1\n      0x01\n      add\n      swap1\n      0x20\n      add\n      dup1\n      dup4\n      gt\n      tag_170\n      jumpi\n      dup3\n      swap1\n      sub\n      0x1f\n      and\n      dup3\n      add\n      swap2\n    tag_168:\n      pop\n      pop\n      pop\n      pop\n      pop\n      swap1\n      pop\n        /* \"contracts/Voting.sol\":7378:7625  function getWinner_proposaldescription() external view returns (string memory) {... */\n      swap1\n      jump\t// out\n        /* \"contracts/Voting.sol\":4053:4463  function startProposalSession() external onlyOwner {... */\n    tag_46:\n        /* \"@openzeppelin/contracts/access/Ownable.sol\":1531:1544  _checkOwner() */\n      tag_172\n        /* \"@openzeppelin/contracts/access/Ownable.sol\":1531:1542  _checkOwner */\n      tag_140\n        /* \"@openzeppelin/contracts/access/Ownable.sol\":1531:1544  _checkOwner() */\n      jump\t// in\n    tag_172:\n        /* \"contracts/Voting.sol\":4140:4172  WorkflowStatus.RegisteringVoters */\n      0x00\n        /* \"contracts/Voting.sol\":4122:4172  currentStatus ==  WorkflowStatus.RegisteringVoters */\n      0x05\n      dup2\n      gt\n      iszero\n      tag_174\n      jumpi\n      tag_175\n      tag_112\n      jump\t// in\n    tag_175:\n    tag_174:\n        /* \"contracts/Voting.sol\":4122:4135  currentStatus */\n      0x03\n      0x00\n      swap1\n      sload\n      swap1\n      0x0100\n      exp\n      swap1\n      div\n      0xff\n      and\n        /* \"contracts/Voting.sol\":4122:4172  currentStatus ==  WorkflowStatus.RegisteringVoters */\n      0x05\n      dup2\n      gt\n      iszero\n      tag_176\n      jumpi\n      tag_177\n      tag_112\n      jump\t// in\n    tag_177:\n    tag_176:\n      eq\n        /* \"contracts/Voting.sol\":4114:4221  require(currentStatus ==  WorkflowStatus.RegisteringVoters, \"You can not start again the proposal session\") */\n      tag_178\n      jumpi\n      mload(0x40)\n      0x08c379a000000000000000000000000000000000000000000000000000000000\n      dup2\n      mstore\n      0x04\n      add\n      tag_179\n      swap1\n      tag_180\n      jump\t// in\n    tag_179:\n      mload(0x40)\n      dup1\n      swap2\n      sub\n      swap1\n      revert\n    tag_178:\n        /* \"contracts/Voting.sol\":4252:4253  1 */\n      0x01\n        /* \"contracts/Voting.sol\":4239:4249  voterCount */\n      sload(0x05)\n        /* \"contracts/Voting.sol\":4239:4253  voterCount > 1 */\n      gt\n        /* \"contracts/Voting.sol\":4231:4296  require(voterCount > 1, \"You must register at least 2 addresses\") */\n      tag_181\n      jumpi\n      mload(0x40)\n      0x08c379a000000000000000000000000000000000000000000000000000000000\n      dup2\n      mstore\n      0x04\n      add\n      tag_182\n      swap1\n      tag_183\n      jump\t// in\n    tag_182:\n      mload(0x40)\n      dup1\n      swap2\n      sub\n      swap1\n      revert\n    tag_181:\n        /* \"contracts/Voting.sol\":4322:4365  WorkflowStatus.ProposalsRegistrationStarted */\n      0x01\n        /* \"contracts/Voting.sol\":4306:4319  currentStatus */\n      0x03\n      0x00\n        /* \"contracts/Voting.sol\":4306:4365  currentStatus = WorkflowStatus.ProposalsRegistrationStarted */\n      0x0100\n      exp\n      dup2\n      sload\n      dup2\n      0xff\n      mul\n      not\n      and\n      swap1\n      dup4\n      0x05\n      dup2\n      gt\n      iszero\n      tag_184\n      jumpi\n      tag_185\n      tag_112\n      jump\t// in\n    tag_185:\n    tag_184:\n      mul\n      or\n      swap1\n      sstore\n      pop\n        /* \"contracts/Voting.sol\":4380:4456  WorkflowStatusChange(WorkflowStatus(uint(currentStatus) - 1), currentStatus) */\n      0x0a97a4ee45751e2abf3e4fc8946939630b11b371ea8ae39ccdc3056e98f5cc3f\n        /* \"contracts/Voting.sol\":4438:4439  1 */\n      0x01\n        /* \"contracts/Voting.sol\":4421:4434  currentStatus */\n      0x03\n      0x00\n      swap1\n      sload\n      swap1\n      0x0100\n      exp\n      swap1\n      div\n      0xff\n      and\n        /* \"contracts/Voting.sol\":4416:4435  uint(currentStatus) */\n      0x05\n      dup2\n      gt\n      iszero\n      tag_186\n      jumpi\n      tag_187\n      tag_112\n      jump\t// in\n    tag_187:\n    tag_186:\n        /* \"contracts/Voting.sol\":4416:4439  uint(currentStatus) - 1 */\n      tag_188\n      swap2\n      swap1\n      tag_189\n      jump\t// in\n    tag_188:\n        /* \"contracts/Voting.sol\":4401:4440  WorkflowStatus(uint(currentStatus) - 1) */\n      0x05\n      dup2\n      gt\n      iszero\n      tag_190\n      jumpi\n      tag_191\n      tag_112\n      jump\t// in\n    tag_191:\n    tag_190:\n        /* \"contracts/Voting.sol\":4442:4455  currentStatus */\n      0x03\n      0x00\n      swap1\n      sload\n      swap1\n      0x0100\n      exp\n      swap1\n      div\n      0xff\n      and\n        /* \"contracts/Voting.sol\":4380:4456  WorkflowStatusChange(WorkflowStatus(uint(currentStatus) - 1), currentStatus) */\n      mload(0x40)\n      tag_192\n      swap3\n      swap2\n      swap1\n      tag_193\n      jump\t// in\n    tag_192:\n      mload(0x40)\n      dup1\n      swap2\n      sub\n      swap1\n      log1\n        /* \"contracts/Voting.sol\":4053:4463  function startProposalSession() external onlyOwner {... */\n      jump\t// out\n        /* \"contracts/Voting.sol\":7680:7885  function getWinnerProposalId() external view returns (uint) {... */\n    tag_48:\n        /* \"contracts/Voting.sol\":7734:7738  uint */\n      0x00\n        /* \"contracts/Voting.sol\":7776:7803  WorkflowStatus.VotesTallied */\n      0x05\n        /* \"contracts/Voting.sol\":7758:7803  currentStatus ==  WorkflowStatus.VotesTallied */\n      dup1\n      dup2\n      gt\n      iszero\n      tag_195\n      jumpi\n      tag_196\n      tag_112\n      jump\t// in\n    tag_196:\n    tag_195:\n        /* \"contracts/Voting.sol\":7758:7771  currentStatus */\n      0x03\n      0x00\n      swap1\n      sload\n      swap1\n      0x0100\n      exp\n      swap1\n      div\n      0xff\n      and\n        /* \"contracts/Voting.sol\":7758:7803  currentStatus ==  WorkflowStatus.VotesTallied */\n      0x05\n      dup2\n      gt\n      iszero\n      tag_197\n      jumpi\n      tag_198\n      tag_112\n      jump\t// in\n    tag_198:\n    tag_197:\n      eq\n        /* \"contracts/Voting.sol\":7750:7844  require(currentStatus ==  WorkflowStatus.VotesTallied, \"The winner have not been choosen yet\") */\n      tag_199\n      jumpi\n      mload(0x40)\n      0x08c379a000000000000000000000000000000000000000000000000000000000\n      dup2\n      mstore\n      0x04\n      add\n      tag_200\n      swap1\n      tag_161\n      jump\t// in\n    tag_200:\n      mload(0x40)\n      dup1\n      swap2\n      sub\n      swap1\n      revert\n    tag_199:\n        /* \"contracts/Voting.sol\":7861:7878  winningProposalId */\n      sload(0x04)\n        /* \"contracts/Voting.sol\":7854:7878  return winningProposalId */\n      swap1\n      pop\n        /* \"contracts/Voting.sol\":7680:7885  function getWinnerProposalId() external view returns (uint) {... */\n      swap1\n      jump\t// out\n        /* \"contracts/Voting.sol\":8426:8523  function getProposals() external view returns(Proposal[] memory){... */\n    tag_51:\n        /* \"contracts/Voting.sol\":8472:8489  Proposal[] memory */\n      0x60\n        /* \"contracts/Voting.sol\":8507:8516  proposals */\n      0x02\n        /* \"contracts/Voting.sol\":8500:8516  return proposals */\n      dup1\n      sload\n      dup1\n      0x20\n      mul\n      0x20\n      add\n      mload(0x40)\n      swap1\n      dup2\n      add\n      0x40\n      mstore\n      dup1\n      swap3\n      swap2\n      swap1\n      dup2\n      dup2\n      mstore\n      0x20\n      add\n      0x00\n      swap1\n    tag_202:\n      dup3\n      dup3\n      lt\n      iszero\n      tag_203\n      jumpi\n      dup4\n      dup3\n      swap1\n      0x00\n      mstore\n      keccak256(0x00, 0x20)\n      swap1\n      0x02\n      mul\n      add\n      mload(0x40)\n      dup1\n      0x40\n      add\n      0x40\n      mstore\n      swap1\n      dup2\n      0x00\n      dup3\n      add\n      dup1\n      sload\n      tag_205\n      swap1\n      tag_166\n      jump\t// in\n    tag_205:\n      dup1\n      0x1f\n      add\n      0x20\n      dup1\n      swap2\n      div\n      mul\n      0x20\n      add\n      mload(0x40)\n      swap1\n      dup2\n      add\n      0x40\n      mstore\n      dup1\n      swap3\n      swap2\n      swap1\n      dup2\n      dup2\n      mstore\n      0x20\n      add\n      dup3\n      dup1\n      sload\n      tag_206\n      swap1\n      tag_166\n      jump\t// in\n    tag_206:\n      dup1\n      iszero\n      tag_207\n      jumpi\n      dup1\n      0x1f\n      lt\n      tag_208\n      jumpi\n      0x0100\n      dup1\n      dup4\n      sload\n      div\n      mul\n      dup4\n      mstore\n      swap2\n      0x20\n      add\n      swap2\n      jump(tag_207)\n    tag_208:\n      dup3\n      add\n      swap2\n      swap1\n      0x00\n      mstore\n      keccak256(0x00, 0x20)\n      swap1\n    tag_209:\n      dup2\n      sload\n      dup2\n      mstore\n      swap1\n      0x01\n      add\n      swap1\n      0x20\n      add\n      dup1\n      dup4\n      gt\n      tag_209\n      jumpi\n      dup3\n      swap1\n      sub\n      0x1f\n      and\n      dup3\n      add\n      swap2\n    tag_207:\n      pop\n      pop\n      pop\n      pop\n      pop\n      dup2\n      mstore\n      0x20\n      add\n      0x01\n      dup3\n      add\n      sload\n      dup2\n      mstore\n      pop\n      pop\n      dup2\n      mstore\n      0x20\n      add\n      swap1\n      0x01\n      add\n      swap1\n      jump(tag_202)\n    tag_203:\n      pop\n      pop\n      pop\n      pop\n      swap1\n      pop\n        /* \"contracts/Voting.sol\":8426:8523  function getProposals() external view returns(Proposal[] memory){... */\n      swap1\n      jump\t// out\n        /* \"contracts/Voting.sol\":8109:8240  function getPreviousStatus() external view returns (WorkflowStatus) {... */\n    tag_55:\n        /* \"contracts/Voting.sol\":8161:8175  WorkflowStatus */\n      0x00\n        /* \"contracts/Voting.sol\":8231:8232  1 */\n      0x01\n        /* \"contracts/Voting.sol\":8214:8227  currentStatus */\n      0x03\n      0x00\n      swap1\n      sload\n      swap1\n      0x0100\n      exp\n      swap1\n      div\n      0xff\n      and\n        /* \"contracts/Voting.sol\":8209:8228  uint(currentStatus) */\n      0x05\n      dup2\n      gt\n      iszero\n      tag_211\n      jumpi\n      tag_212\n      tag_112\n      jump\t// in\n    tag_212:\n    tag_211:\n        /* \"contracts/Voting.sol\":8209:8232  uint(currentStatus) - 1 */\n      tag_213\n      swap2\n      swap1\n      tag_189\n      jump\t// in\n    tag_213:\n        /* \"contracts/Voting.sol\":8194:8233  WorkflowStatus(uint(currentStatus) - 1) */\n      0x05\n      dup2\n      gt\n      iszero\n      tag_214\n      jumpi\n      tag_215\n      tag_112\n      jump\t// in\n    tag_215:\n    tag_214:\n        /* \"contracts/Voting.sol\":8187:8233  return WorkflowStatus(uint(currentStatus) - 1) */\n      swap1\n      pop\n        /* \"contracts/Voting.sol\":8109:8240  function getPreviousStatus() external view returns (WorkflowStatus) {... */\n      swap1\n      jump\t// out\n        /* \"@openzeppelin/contracts/access/Ownable.sol\":2293:2394  function renounceOwnership() public virtual onlyOwner {... */\n    tag_59:\n        /* \"@openzeppelin/contracts/access/Ownable.sol\":1531:1544  _checkOwner() */\n      tag_217\n        /* \"@openzeppelin/contracts/access/Ownable.sol\":1531:1542  _checkOwner */\n      tag_140\n        /* \"@openzeppelin/contracts/access/Ownable.sol\":1531:1544  _checkOwner() */\n      jump\t// in\n    tag_217:\n        /* \"@openzeppelin/contracts/access/Ownable.sol\":2357:2387  _transferOwnership(address(0)) */\n      tag_219\n        /* \"@openzeppelin/contracts/access/Ownable.sol\":2384:2385  0 */\n      0x00\n        /* \"@openzeppelin/contracts/access/Ownable.sol\":2357:2375  _transferOwnership */\n      tag_220\n        /* \"@openzeppelin/contracts/access/Ownable.sol\":2357:2387  _transferOwnership(address(0)) */\n      jump\t// in\n    tag_219:\n        /* \"@openzeppelin/contracts/access/Ownable.sol\":2293:2394  function renounceOwnership() public virtual onlyOwner {... */\n      jump\t// out\n        /* \"contracts/Voting.sol\":6241:6703  function getVoteByAddress(address _address) external view returns(Proposal memory){... */\n    tag_62:\n        /* \"contracts/Voting.sol\":6307:6322  Proposal memory */\n      tag_221\n      tag_222\n      jump\t// in\n    tag_221:\n        /* \"contracts/Voting.sol\":6450:6454  true */\n      0x01\n        /* \"contracts/Voting.sol\":6409:6454  whitelistVoter[_address].isRegistered == true */\n      iszero\n      iszero\n        /* \"contracts/Voting.sol\":6409:6423  whitelistVoter */\n      0x01\n        /* \"contracts/Voting.sol\":6409:6433  whitelistVoter[_address] */\n      0x00\n        /* \"contracts/Voting.sol\":6424:6432  _address */\n      dup5\n        /* \"contracts/Voting.sol\":6409:6433  whitelistVoter[_address] */\n      0xffffffffffffffffffffffffffffffffffffffff\n      and\n      0xffffffffffffffffffffffffffffffffffffffff\n      and\n      dup2\n      mstore\n      0x20\n      add\n      swap1\n      dup2\n      mstore\n      0x20\n      add\n      0x00\n      keccak256\n        /* \"contracts/Voting.sol\":6409:6446  whitelistVoter[_address].isRegistered */\n      0x00\n      add\n      0x00\n      swap1\n      sload\n      swap1\n      0x0100\n      exp\n      swap1\n      div\n      0xff\n      and\n        /* \"contracts/Voting.sol\":6409:6454  whitelistVoter[_address].isRegistered == true */\n      iszero\n      iszero\n      eq\n        /* \"contracts/Voting.sol\":6401:6489  require(whitelistVoter[_address].isRegistered == true, \"This address is not registered\") */\n      tag_224\n      jumpi\n      mload(0x40)\n      0x08c379a000000000000000000000000000000000000000000000000000000000\n      dup2\n      mstore\n      0x04\n      add\n      tag_225\n      swap1\n      tag_226\n      jump\t// in\n    tag_225:\n      mload(0x40)\n      dup1\n      swap2\n      sub\n      swap1\n      revert\n    tag_224:\n        /* \"contracts/Voting.sol\":6544:6548  true */\n      0x01\n        /* \"contracts/Voting.sol\":6507:6548  whitelistVoter[_address].hasVoted == true */\n      iszero\n      iszero\n        /* \"contracts/Voting.sol\":6507:6521  whitelistVoter */\n      0x01\n        /* \"contracts/Voting.sol\":6507:6531  whitelistVoter[_address] */\n      0x00\n        /* \"contracts/Voting.sol\":6522:6530  _address */\n      dup5\n        /* \"contracts/Voting.sol\":6507:6531  whitelistVoter[_address] */\n      0xffffffffffffffffffffffffffffffffffffffff\n      and\n      0xffffffffffffffffffffffffffffffffffffffff\n      and\n      dup2\n      mstore\n      0x20\n      add\n      swap1\n      dup2\n      mstore\n      0x20\n      add\n      0x00\n      keccak256\n        /* \"contracts/Voting.sol\":6507:6540  whitelistVoter[_address].hasVoted */\n      0x00\n      add\n      0x01\n      swap1\n      sload\n      swap1\n      0x0100\n      exp\n      swap1\n      div\n      0xff\n      and\n        /* \"contracts/Voting.sol\":6507:6548  whitelistVoter[_address].hasVoted == true */\n      iszero\n      iszero\n      eq\n        /* \"contracts/Voting.sol\":6499:6579  require(whitelistVoter[_address].hasVoted == true, \"This address has not voted\") */\n      tag_227\n      jumpi\n      mload(0x40)\n      0x08c379a000000000000000000000000000000000000000000000000000000000\n      dup2\n      mstore\n      0x04\n      add\n      tag_228\n      swap1\n      tag_229\n      jump\t// in\n    tag_228:\n      mload(0x40)\n      dup1\n      swap2\n      sub\n      swap1\n      revert\n    tag_227:\n        /* \"contracts/Voting.sol\":6590:6610  uint votedProposalId */\n      0x00\n        /* \"contracts/Voting.sol\":6613:6627  whitelistVoter */\n      0x01\n        /* \"contracts/Voting.sol\":6613:6637  whitelistVoter[_address] */\n      0x00\n        /* \"contracts/Voting.sol\":6628:6636  _address */\n      dup5\n        /* \"contracts/Voting.sol\":6613:6637  whitelistVoter[_address] */\n      0xffffffffffffffffffffffffffffffffffffffff\n      and\n      0xffffffffffffffffffffffffffffffffffffffff\n      and\n      dup2\n      mstore\n      0x20\n      add\n      swap1\n      dup2\n      mstore\n      0x20\n      add\n      0x00\n      keccak256\n        /* \"contracts/Voting.sol\":6613:6653  whitelistVoter[_address].votedProposalId */\n      0x01\n      add\n      sload\n        /* \"contracts/Voting.sol\":6590:6653  uint votedProposalId = whitelistVoter[_address].votedProposalId */\n      swap1\n      pop\n        /* \"contracts/Voting.sol\":6670:6679  proposals */\n      0x02\n        /* \"contracts/Voting.sol\":6680:6695  votedProposalId */\n      dup2\n        /* \"contracts/Voting.sol\":6670:6696  proposals[votedProposalId] */\n      dup2\n      sload\n      dup2\n      lt\n      tag_230\n      jumpi\n      tag_231\n      tag_130\n      jump\t// in\n    tag_231:\n    tag_230:\n      swap1\n      0x00\n      mstore\n      keccak256(0x00, 0x20)\n      swap1\n      0x02\n      mul\n      add\n        /* \"contracts/Voting.sol\":6663:6696  return proposals[votedProposalId] */\n      mload(0x40)\n      dup1\n      0x40\n      add\n      0x40\n      mstore\n      swap1\n      dup2\n      0x00\n      dup3\n      add\n      dup1\n      sload\n      tag_233\n      swap1\n      tag_166\n      jump\t// in\n    tag_233:\n      dup1\n      0x1f\n      add\n      0x20\n      dup1\n      swap2\n      div\n      mul\n      0x20\n      add\n      mload(0x40)\n      swap1\n      dup2\n      add\n      0x40\n      mstore\n      dup1\n      swap3\n      swap2\n      swap1\n      dup2\n      dup2\n      mstore\n      0x20\n      add\n      dup3\n      dup1\n      sload\n      tag_234\n      swap1\n      tag_166\n      jump\t// in\n    tag_234:\n      dup1\n      iszero\n      tag_235\n      jumpi\n      dup1\n      0x1f\n      lt\n      tag_236\n      jumpi\n      0x0100\n      dup1\n      dup4\n      sload\n      div\n      mul\n      dup4\n      mstore\n      swap2\n      0x20\n      add\n      swap2\n      jump(tag_235)\n    tag_236:\n      dup3\n      add\n      swap2\n      swap1\n      0x00\n      mstore\n      keccak256(0x00, 0x20)\n      swap1\n    tag_237:\n      dup2\n      sload\n      dup2\n      mstore\n      swap1\n      0x01\n      add\n      swap1\n      0x20\n      add\n      dup1\n      dup4\n      gt\n      tag_237\n      jumpi\n      dup3\n      swap1\n      sub\n      0x1f\n      and\n      dup3\n      add\n      swap2\n    tag_235:\n      pop\n      pop\n      pop\n      pop\n      pop\n      dup2\n      mstore\n      0x20\n      add\n      0x01\n      dup3\n      add\n      sload\n      dup2\n      mstore\n      pop\n      pop\n      swap2\n      pop\n      pop\n        /* \"contracts/Voting.sol\":6241:6703  function getVoteByAddress(address _address) external view returns(Proposal memory){... */\n      swap2\n      swap1\n      pop\n      jump\t// out\n        /* \"@openzeppelin/contracts/access/Ownable.sol\":1638:1723  function owner() public view virtual returns (address) {... */\n    tag_66:\n        /* \"@openzeppelin/contracts/access/Ownable.sol\":1684:1691  address */\n      0x00\n        /* \"@openzeppelin/contracts/access/Ownable.sol\":1710:1716  _owner */\n      0x00\n      0x00\n      swap1\n      sload\n      swap1\n      0x0100\n      exp\n      swap1\n      div\n      0xffffffffffffffffffffffffffffffffffffffff\n      and\n        /* \"@openzeppelin/contracts/access/Ownable.sol\":1703:1716  return _owner */\n      swap1\n      pop\n        /* \"@openzeppelin/contracts/access/Ownable.sol\":1638:1723  function owner() public view virtual returns (address) {... */\n      swap1\n      jump\t// out\n        /* \"contracts/Voting.sol\":9006:9102  function getVoteWinnerCount() external view returns(uint){... */\n    tag_70:\n        /* \"contracts/Voting.sol\":9058:9062  uint */\n      0x00\n        /* \"contracts/Voting.sol\":9080:9095  voteWinnerCount */\n      sload(0x09)\n        /* \"contracts/Voting.sol\":9073:9095  return voteWinnerCount */\n      swap1\n      pop\n        /* \"contracts/Voting.sol\":9006:9102  function getVoteWinnerCount() external view returns(uint){... */\n      swap1\n      jump\t// out\n        /* \"contracts/Voting.sol\":7088:7313  function getWinnerProposal() external view returns (Proposal memory) {... */\n    tag_73:\n        /* \"contracts/Voting.sol\":7140:7155  Proposal memory */\n      tag_240\n      tag_222\n      jump\t// in\n    tag_240:\n        /* \"contracts/Voting.sol\":7193:7220  WorkflowStatus.VotesTallied */\n      0x05\n        /* \"contracts/Voting.sol\":7175:7220  currentStatus ==  WorkflowStatus.VotesTallied */\n      dup1\n      dup2\n      gt\n      iszero\n      tag_242\n      jumpi\n      tag_243\n      tag_112\n      jump\t// in\n    tag_243:\n    tag_242:\n        /* \"contracts/Voting.sol\":7175:7188  currentStatus */\n      0x03\n      0x00\n      swap1\n      sload\n      swap1\n      0x0100\n      exp\n      swap1\n      div\n      0xff\n      and\n        /* \"contracts/Voting.sol\":7175:7220  currentStatus ==  WorkflowStatus.VotesTallied */\n      0x05\n      dup2\n      gt\n      iszero\n      tag_244\n      jumpi\n      tag_245\n      tag_112\n      jump\t// in\n    tag_245:\n    tag_244:\n      eq\n        /* \"contracts/Voting.sol\":7167:7261  require(currentStatus ==  WorkflowStatus.VotesTallied, \"The winner have not been choosen yet\") */\n      tag_246\n      jumpi\n      mload(0x40)\n      0x08c379a000000000000000000000000000000000000000000000000000000000\n      dup2\n      mstore\n      0x04\n      add\n      tag_247\n      swap1\n      tag_161\n      jump\t// in\n    tag_247:\n      mload(0x40)\n      dup1\n      swap2\n      sub\n      swap1\n      revert\n    tag_246:\n        /* \"contracts/Voting.sol\":7278:7287  proposals */\n      0x02\n        /* \"contracts/Voting.sol\":7288:7305  winningProposalId */\n      sload(0x04)\n        /* \"contracts/Voting.sol\":7278:7306  proposals[winningProposalId] */\n      dup2\n      sload\n      dup2\n      lt\n      tag_248\n      jumpi\n      tag_249\n      tag_130\n      jump\t// in\n    tag_249:\n    tag_248:\n      swap1\n      0x00\n      mstore\n      keccak256(0x00, 0x20)\n      swap1\n      0x02\n      mul\n      add\n        /* \"contracts/Voting.sol\":7271:7306  return proposals[winningProposalId] */\n      mload(0x40)\n      dup1\n      0x40\n      add\n      0x40\n      mstore\n      swap1\n      dup2\n      0x00\n      dup3\n      add\n      dup1\n      sload\n      tag_251\n      swap1\n      tag_166\n      jump\t// in\n    tag_251:\n      dup1\n      0x1f\n      add\n      0x20\n      dup1\n      swap2\n      div\n      mul\n      0x20\n      add\n      mload(0x40)\n      swap1\n      dup2\n      add\n      0x40\n      mstore\n      dup1\n      swap3\n      swap2\n      swap1\n      dup2\n      dup2\n      mstore\n      0x20\n      add\n      dup3\n      dup1\n      sload\n      tag_252\n      swap1\n      tag_166\n      jump\t// in\n    tag_252:\n      dup1\n      iszero\n      tag_253\n      jumpi\n      dup1\n      0x1f\n      lt\n      tag_254\n      jumpi\n      0x0100\n      dup1\n      dup4\n      sload\n      div\n      mul\n      dup4\n      mstore\n      swap2\n      0x20\n      add\n      swap2\n      jump(tag_253)\n    tag_254:\n      dup3\n      add\n      swap2\n      swap1\n      0x00\n      mstore\n      keccak256(0x00, 0x20)\n      swap1\n    tag_255:\n      dup2\n      sload\n      dup2\n      mstore\n      swap1\n      0x01\n      add\n      swap1\n      0x20\n      add\n      dup1\n      dup4\n      gt\n      tag_255\n      jumpi\n      dup3\n      swap1\n      sub\n      0x1f\n      and\n      dup3\n      add\n      swap2\n    tag_253:\n      pop\n      pop\n      pop\n      pop\n      pop\n      dup2\n      mstore\n      0x20\n      add\n      0x01\n      dup3\n      add\n      sload\n      dup2\n      mstore\n      pop\n      pop\n      swap1\n      pop\n        /* \"contracts/Voting.sol\":7088:7313  function getWinnerProposal() external view returns (Proposal memory) {... */\n      swap1\n      jump\t// out\n        /* \"contracts/Voting.sol\":7938:8042  function getCurrentStatus() external view returns (WorkflowStatus) {... */\n    tag_76:\n        /* \"contracts/Voting.sol\":7989:8003  WorkflowStatus */\n      0x00\n        /* \"contracts/Voting.sol\":8022:8035  currentStatus */\n      0x03\n      0x00\n      swap1\n      sload\n      swap1\n      0x0100\n      exp\n      swap1\n      div\n      0xff\n      and\n        /* \"contracts/Voting.sol\":8015:8035  return currentStatus */\n      swap1\n      pop\n        /* \"contracts/Voting.sol\":7938:8042  function getCurrentStatus() external view returns (WorkflowStatus) {... */\n      swap1\n      jump\t// out\n        /* \"contracts/Voting.sol\":8851:8939  function getWinnerCount() external view returns(uint){... */\n    tag_79:\n        /* \"contracts/Voting.sol\":8899:8903  uint */\n      0x00\n        /* \"contracts/Voting.sol\":8921:8932  winnerCount */\n      sload(0x08)\n        /* \"contracts/Voting.sol\":8914:8932  return winnerCount */\n      swap1\n      pop\n        /* \"contracts/Voting.sol\":8851:8939  function getWinnerCount() external view returns(uint){... */\n      swap1\n      jump\t// out\n        /* \"contracts/Voting.sol\":2352:2977  function propose(string memory _proposal) external returns (string memory){... */\n    tag_84:\n        /* \"contracts/Voting.sol\":2412:2425  string memory */\n      0x60\n        /* \"contracts/Voting.sol\":2461:2504  WorkflowStatus.ProposalsRegistrationStarted */\n      0x01\n        /* \"contracts/Voting.sol\":2444:2504  currentStatus == WorkflowStatus.ProposalsRegistrationStarted */\n      0x05\n      dup2\n      gt\n      iszero\n      tag_259\n      jumpi\n      tag_260\n      tag_112\n      jump\t// in\n    tag_260:\n    tag_259:\n        /* \"contracts/Voting.sol\":2444:2457  currentStatus */\n      0x03\n      0x00\n      swap1\n      sload\n      swap1\n      0x0100\n      exp\n      swap1\n      div\n      0xff\n      and\n        /* \"contracts/Voting.sol\":2444:2504  currentStatus == WorkflowStatus.ProposalsRegistrationStarted */\n      0x05\n      dup2\n      gt\n      iszero\n      tag_261\n      jumpi\n      tag_262\n      tag_112\n      jump\t// in\n    tag_262:\n    tag_261:\n      eq\n        /* \"contracts/Voting.sol\":2436:2544  require(currentStatus == WorkflowStatus.ProposalsRegistrationStarted, \"The proposal session is not started\") */\n      tag_263\n      jumpi\n      mload(0x40)\n      0x08c379a000000000000000000000000000000000000000000000000000000000\n      dup2\n      mstore\n      0x04\n      add\n      tag_264\n      swap1\n      tag_265\n      jump\t// in\n    tag_264:\n      mload(0x40)\n      dup1\n      swap2\n      sub\n      swap1\n      revert\n    tag_263:\n        /* \"contracts/Voting.sol\":2574:2584  msg.sender */\n      caller\n        /* \"contracts/Voting.sol\":2563:2584  owner() != msg.sender */\n      0xffffffffffffffffffffffffffffffffffffffff\n      and\n        /* \"contracts/Voting.sol\":2563:2570  owner() */\n      tag_266\n        /* \"contracts/Voting.sol\":2563:2568  owner */\n      tag_66\n        /* \"contracts/Voting.sol\":2563:2570  owner() */\n      jump\t// in\n    tag_266:\n        /* \"contracts/Voting.sol\":2563:2584  owner() != msg.sender */\n      0xffffffffffffffffffffffffffffffffffffffff\n      and\n      sub\n        /* \"contracts/Voting.sol\":2555:2644  require(owner() != msg.sender, \"You are the owner of this contract, you can not propose\") */\n      tag_267\n      jumpi\n      mload(0x40)\n      0x08c379a000000000000000000000000000000000000000000000000000000000\n      dup2\n      mstore\n      0x04\n      add\n      tag_268\n      swap1\n      tag_269\n      jump\t// in\n    tag_268:\n      mload(0x40)\n      dup1\n      swap2\n      sub\n      swap1\n      revert\n    tag_267:\n        /* \"contracts/Voting.sol\":2705:2709  true */\n      0x01\n        /* \"contracts/Voting.sol\":2662:2709  whitelistVoter[msg.sender].isRegistered == true */\n      iszero\n      iszero\n        /* \"contracts/Voting.sol\":2662:2676  whitelistVoter */\n      0x01\n        /* \"contracts/Voting.sol\":2662:2688  whitelistVoter[msg.sender] */\n      0x00\n        /* \"contracts/Voting.sol\":2677:2687  msg.sender */\n      caller\n        /* \"contracts/Voting.sol\":2662:2688  whitelistVoter[msg.sender] */\n      0xffffffffffffffffffffffffffffffffffffffff\n      and\n      0xffffffffffffffffffffffffffffffffffffffff\n      and\n      dup2\n      mstore\n      0x20\n      add\n      swap1\n      dup2\n      mstore\n      0x20\n      add\n      0x00\n      keccak256\n        /* \"contracts/Voting.sol\":2662:2701  whitelistVoter[msg.sender].isRegistered */\n      0x00\n      add\n      0x00\n      swap1\n      sload\n      swap1\n      0x0100\n      exp\n      swap1\n      div\n      0xff\n      and\n        /* \"contracts/Voting.sol\":2662:2709  whitelistVoter[msg.sender].isRegistered == true */\n      iszero\n      iszero\n      eq\n        /* \"contracts/Voting.sol\":2654:2736  require(whitelistVoter[msg.sender].isRegistered == true, \"You are not registered\") */\n      tag_270\n      jumpi\n      mload(0x40)\n      0x08c379a000000000000000000000000000000000000000000000000000000000\n      dup2\n      mstore\n      0x04\n      add\n      tag_271\n      swap1\n      tag_120\n      jump\t// in\n    tag_271:\n      mload(0x40)\n      dup1\n      swap2\n      sub\n      swap1\n      revert\n    tag_270:\n        /* \"contracts/Voting.sol\":2747:2756  proposals */\n      0x02\n        /* \"contracts/Voting.sol\":2762:2852  Proposal({... */\n      mload(0x40)\n      dup1\n      0x40\n      add\n      0x40\n      mstore\n      dup1\n        /* \"contracts/Voting.sol\":2802:2811  _proposal */\n      dup5\n        /* \"contracts/Voting.sol\":2762:2852  Proposal({... */\n      dup2\n      mstore\n      0x20\n      add\n        /* \"contracts/Voting.sol\":2840:2841  0 */\n      0x00\n        /* \"contracts/Voting.sol\":2762:2852  Proposal({... */\n      dup2\n      mstore\n      pop\n        /* \"contracts/Voting.sol\":2747:2853  proposals.push(Proposal({... */\n      swap1\n      dup1\n      0x01\n      dup2\n      sload\n      add\n      dup1\n      dup3\n      sstore\n      dup1\n      swap2\n      pop\n      pop\n      0x01\n      swap1\n      sub\n      swap1\n      0x00\n      mstore\n      keccak256(0x00, 0x20)\n      swap1\n      0x02\n      mul\n      add\n      0x00\n      swap1\n      swap2\n      swap1\n      swap2\n      swap1\n      swap2\n      pop\n      0x00\n      dup3\n      add\n      mload\n      dup2\n      0x00\n      add\n      swap1\n      dup2\n      tag_273\n      swap2\n      swap1\n      tag_274\n      jump\t// in\n    tag_273:\n      pop\n      0x20\n      dup3\n      add\n      mload\n      dup2\n      0x01\n      add\n      sstore\n      pop\n      pop\n        /* \"contracts/Voting.sol\":2863:2877  numberProposal */\n      0x07\n      0x00\n        /* \"contracts/Voting.sol\":2863:2879  numberProposal++ */\n      dup2\n      sload\n      dup1\n      swap3\n      swap2\n      swap1\n      tag_275\n      swap1\n      tag_133\n      jump\t// in\n    tag_275:\n      swap2\n      swap1\n      pop\n      sstore\n      pop\n        /* \"contracts/Voting.sol\":2894:2928  ProposalRegistered(numberProposal) */\n      0x92e393e9b54e2f801d3ea4beb0c5e71a21cc34a5d34b77d0fb8a3aa1650dc18f\n        /* \"contracts/Voting.sol\":2913:2927  numberProposal */\n      sload(0x07)\n        /* \"contracts/Voting.sol\":2894:2928  ProposalRegistered(numberProposal) */\n      mload(0x40)\n      tag_276\n      swap2\n      swap1\n      tag_36\n      jump\t// in\n    tag_276:\n      mload(0x40)\n      dup1\n      swap2\n      sub\n      swap1\n      log1\n        /* \"contracts/Voting.sol\":2939:2970  return \"Ok proposal registered\" */\n      mload(0x40)\n      dup1\n      0x40\n      add\n      0x40\n      mstore\n      dup1\n      0x16\n      dup2\n      mstore\n      0x20\n      add\n      0x4f6b2070726f706f73616c207265676973746572656400000000000000000000\n      dup2\n      mstore\n      pop\n      swap1\n      pop\n        /* \"contracts/Voting.sol\":2352:2977  function propose(string memory _proposal) external returns (string memory){... */\n      swap2\n      swap1\n      pop\n      jump\t// out\n        /* \"contracts/Voting.sol\":4912:5273  function startVoteSession() external onlyOwner {... */\n    tag_87:\n        /* \"@openzeppelin/contracts/access/Ownable.sol\":1531:1544  _checkOwner() */\n      tag_278\n        /* \"@openzeppelin/contracts/access/Ownable.sol\":1531:1542  _checkOwner */\n      tag_140\n        /* \"@openzeppelin/contracts/access/Ownable.sol\":1531:1544  _checkOwner() */\n      jump\t// in\n    tag_278:\n        /* \"contracts/Voting.sol\":4995:5036  WorkflowStatus.ProposalsRegistrationEnded */\n      0x02\n        /* \"contracts/Voting.sol\":4977:5036  currentStatus ==  WorkflowStatus.ProposalsRegistrationEnded */\n      0x05\n      dup2\n      gt\n      iszero\n      tag_280\n      jumpi\n      tag_281\n      tag_112\n      jump\t// in\n    tag_281:\n    tag_280:\n        /* \"contracts/Voting.sol\":4977:4990  currentStatus */\n      0x03\n      0x00\n      swap1\n      sload\n      swap1\n      0x0100\n      exp\n      swap1\n      div\n      0xff\n      and\n        /* \"contracts/Voting.sol\":4977:5036  currentStatus ==  WorkflowStatus.ProposalsRegistrationEnded */\n      0x05\n      dup2\n      gt\n      iszero\n      tag_282\n      jumpi\n      tag_283\n      tag_112\n      jump\t// in\n    tag_283:\n    tag_282:\n      eq\n        /* \"contracts/Voting.sol\":4969:5114  require(currentStatus ==  WorkflowStatus.ProposalsRegistrationEnded, \"The proposal session is not ended or the vote session has already started\") */\n      tag_284\n      jumpi\n      mload(0x40)\n      0x08c379a000000000000000000000000000000000000000000000000000000000\n      dup2\n      mstore\n      0x04\n      add\n      tag_285\n      swap1\n      tag_286\n      jump\t// in\n    tag_285:\n      mload(0x40)\n      dup1\n      swap2\n      sub\n      swap1\n      revert\n    tag_284:\n        /* \"contracts/Voting.sol\":5140:5175  WorkflowStatus.VotingSessionStarted */\n      0x03\n        /* \"contracts/Voting.sol\":5124:5137  currentStatus */\n      dup1\n      0x00\n        /* \"contracts/Voting.sol\":5124:5175  currentStatus = WorkflowStatus.VotingSessionStarted */\n      0x0100\n      exp\n      dup2\n      sload\n      dup2\n      0xff\n      mul\n      not\n      and\n      swap1\n      dup4\n      0x05\n      dup2\n      gt\n      iszero\n      tag_287\n      jumpi\n      tag_288\n      tag_112\n      jump\t// in\n    tag_288:\n    tag_287:\n      mul\n      or\n      swap1\n      sstore\n      pop\n        /* \"contracts/Voting.sol\":5190:5266  WorkflowStatusChange(WorkflowStatus(uint(currentStatus) - 1), currentStatus) */\n      0x0a97a4ee45751e2abf3e4fc8946939630b11b371ea8ae39ccdc3056e98f5cc3f\n        /* \"contracts/Voting.sol\":5248:5249  1 */\n      0x01\n        /* \"contracts/Voting.sol\":5231:5244  currentStatus */\n      0x03\n      0x00\n      swap1\n      sload\n      swap1\n      0x0100\n      exp\n      swap1\n      div\n      0xff\n      and\n        /* \"contracts/Voting.sol\":5226:5245  uint(currentStatus) */\n      0x05\n      dup2\n      gt\n      iszero\n      tag_289\n      jumpi\n      tag_290\n      tag_112\n      jump\t// in\n    tag_290:\n    tag_289:\n        /* \"contracts/Voting.sol\":5226:5249  uint(currentStatus) - 1 */\n      tag_291\n      swap2\n      swap1\n      tag_189\n      jump\t// in\n    tag_291:\n        /* \"contracts/Voting.sol\":5211:5250  WorkflowStatus(uint(currentStatus) - 1) */\n      0x05\n      dup2\n      gt\n      iszero\n      tag_292\n      jumpi\n      tag_293\n      tag_112\n      jump\t// in\n    tag_293:\n    tag_292:\n        /* \"contracts/Voting.sol\":5252:5265  currentStatus */\n      0x03\n      0x00\n      swap1\n      sload\n      swap1\n      0x0100\n      exp\n      swap1\n      div\n      0xff\n      and\n        /* \"contracts/Voting.sol\":5190:5266  WorkflowStatusChange(WorkflowStatus(uint(currentStatus) - 1), currentStatus) */\n      mload(0x40)\n      tag_294\n      swap3\n      swap2\n      swap1\n      tag_193\n      jump\t// in\n    tag_294:\n      mload(0x40)\n      dup1\n      swap2\n      sub\n      swap1\n      log1\n        /* \"contracts/Voting.sol\":4912:5273  function startVoteSession() external onlyOwner {... */\n      jump\t// out\n        /* \"contracts/Voting.sol\":5724:6105  function votesTallied() external onlyOwner {... */\n    tag_89:\n        /* \"@openzeppelin/contracts/access/Ownable.sol\":1531:1544  _checkOwner() */\n      tag_296\n        /* \"@openzeppelin/contracts/access/Ownable.sol\":1531:1542  _checkOwner */\n      tag_140\n        /* \"@openzeppelin/contracts/access/Ownable.sol\":1531:1544  _checkOwner() */\n      jump\t// in\n    tag_296:\n        /* \"contracts/Voting.sol\":5803:5836  WorkflowStatus.VotingSessionEnded */\n      0x04\n        /* \"contracts/Voting.sol\":5785:5836  currentStatus ==  WorkflowStatus.VotingSessionEnded */\n      0x05\n      dup2\n      gt\n      iszero\n      tag_298\n      jumpi\n      tag_299\n      tag_112\n      jump\t// in\n    tag_299:\n    tag_298:\n        /* \"contracts/Voting.sol\":5785:5798  currentStatus */\n      0x03\n      0x00\n      swap1\n      sload\n      swap1\n      0x0100\n      exp\n      swap1\n      div\n      0xff\n      and\n        /* \"contracts/Voting.sol\":5785:5836  currentStatus ==  WorkflowStatus.VotingSessionEnded */\n      0x05\n      dup2\n      gt\n      iszero\n      tag_300\n      jumpi\n      tag_301\n      tag_112\n      jump\t// in\n    tag_301:\n    tag_300:\n      eq\n        /* \"contracts/Voting.sol\":5777:5870  require(currentStatus ==  WorkflowStatus.VotingSessionEnded, \"The vote session is not ended\") */\n      tag_302\n      jumpi\n      mload(0x40)\n      0x08c379a000000000000000000000000000000000000000000000000000000000\n      dup2\n      mstore\n      0x04\n      add\n      tag_303\n      swap1\n      tag_304\n      jump\t// in\n    tag_303:\n      mload(0x40)\n      dup1\n      swap2\n      sub\n      swap1\n      revert\n    tag_302:\n        /* \"contracts/Voting.sol\":5903:5904  1 */\n      0x01\n        /* \"contracts/Voting.sol\":5888:5899  winnerCount */\n      sload(0x08)\n        /* \"contracts/Voting.sol\":5888:5904  winnerCount == 1 */\n      eq\n        /* \"contracts/Voting.sol\":5880:5954  require(winnerCount == 1, \"There is more than 1 winner, you have to vote\") */\n      tag_305\n      jumpi\n      mload(0x40)\n      0x08c379a000000000000000000000000000000000000000000000000000000000\n      dup2\n      mstore\n      0x04\n      add\n      tag_306\n      swap1\n      tag_307\n      jump\t// in\n    tag_306:\n      mload(0x40)\n      dup1\n      swap2\n      sub\n      swap1\n      revert\n    tag_305:\n        /* \"contracts/Voting.sol\":5980:6007  WorkflowStatus.VotesTallied */\n      0x05\n        /* \"contracts/Voting.sol\":5964:5977  currentStatus */\n      0x03\n      0x00\n        /* \"contracts/Voting.sol\":5964:6007  currentStatus = WorkflowStatus.VotesTallied */\n      0x0100\n      exp\n      dup2\n      sload\n      dup2\n      0xff\n      mul\n      not\n      and\n      swap1\n      dup4\n      0x05\n      dup2\n      gt\n      iszero\n      tag_308\n      jumpi\n      tag_309\n      tag_112\n      jump\t// in\n    tag_309:\n    tag_308:\n      mul\n      or\n      swap1\n      sstore\n      pop\n        /* \"contracts/Voting.sol\":6022:6098  WorkflowStatusChange(WorkflowStatus(uint(currentStatus) - 1), currentStatus) */\n      0x0a97a4ee45751e2abf3e4fc8946939630b11b371ea8ae39ccdc3056e98f5cc3f\n        /* \"contracts/Voting.sol\":6080:6081  1 */\n      0x01\n        /* \"contracts/Voting.sol\":6063:6076  currentStatus */\n      0x03\n      0x00\n      swap1\n      sload\n      swap1\n      0x0100\n      exp\n      swap1\n      div\n      0xff\n      and\n        /* \"contracts/Voting.sol\":6058:6077  uint(currentStatus) */\n      0x05\n      dup2\n      gt\n      iszero\n      tag_310\n      jumpi\n      tag_311\n      tag_112\n      jump\t// in\n    tag_311:\n    tag_310:\n        /* \"contracts/Voting.sol\":6058:6081  uint(currentStatus) - 1 */\n      tag_312\n      swap2\n      swap1\n      tag_189\n      jump\t// in\n    tag_312:\n        /* \"contracts/Voting.sol\":6043:6082  WorkflowStatus(uint(currentStatus) - 1) */\n      0x05\n      dup2\n      gt\n      iszero\n      tag_313\n      jumpi\n      tag_314\n      tag_112\n      jump\t// in\n    tag_314:\n    tag_313:\n        /* \"contracts/Voting.sol\":6084:6097  currentStatus */\n      0x03\n      0x00\n      swap1\n      sload\n      swap1\n      0x0100\n      exp\n      swap1\n      div\n      0xff\n      and\n        /* \"contracts/Voting.sol\":6022:6098  WorkflowStatusChange(WorkflowStatus(uint(currentStatus) - 1), currentStatus) */\n      mload(0x40)\n      tag_315\n      swap3\n      swap2\n      swap1\n      tag_193\n      jump\t// in\n    tag_315:\n      mload(0x40)\n      dup1\n      swap2\n      sub\n      swap1\n      log1\n        /* \"contracts/Voting.sol\":5724:6105  function votesTallied() external onlyOwner {... */\n      jump\t// out\n        /* \"contracts/Voting.sol\":8290:8385  function getProposalCount() external view returns(uint){... */\n    tag_91:\n        /* \"contracts/Voting.sol\":8340:8344  uint */\n      0x00\n        /* \"contracts/Voting.sol\":8362:8371  proposals */\n      0x02\n        /* \"contracts/Voting.sol\":8362:8378  proposals.length */\n      dup1\n      sload\n      swap1\n      pop\n        /* \"contracts/Voting.sol\":8355:8378  return proposals.length */\n      swap1\n      pop\n        /* \"contracts/Voting.sol\":8290:8385  function getProposalCount() external view returns(uint){... */\n      swap1\n      jump\t// out\n        /* \"contracts/Voting.sol\":4469:4905  function endProposalSession() external onlyOwner {... */\n    tag_94:\n        /* \"@openzeppelin/contracts/access/Ownable.sol\":1531:1544  _checkOwner() */\n      tag_318\n        /* \"@openzeppelin/contracts/access/Ownable.sol\":1531:1542  _checkOwner */\n      tag_140\n        /* \"@openzeppelin/contracts/access/Ownable.sol\":1531:1544  _checkOwner() */\n      jump\t// in\n    tag_318:\n        /* \"contracts/Voting.sol\":4554:4597  WorkflowStatus.ProposalsRegistrationStarted */\n      0x01\n        /* \"contracts/Voting.sol\":4536:4597  currentStatus ==  WorkflowStatus.ProposalsRegistrationStarted */\n      0x05\n      dup2\n      gt\n      iszero\n      tag_320\n      jumpi\n      tag_321\n      tag_112\n      jump\t// in\n    tag_321:\n    tag_320:\n        /* \"contracts/Voting.sol\":4536:4549  currentStatus */\n      0x03\n      0x00\n      swap1\n      sload\n      swap1\n      0x0100\n      exp\n      swap1\n      div\n      0xff\n      and\n        /* \"contracts/Voting.sol\":4536:4597  currentStatus ==  WorkflowStatus.ProposalsRegistrationStarted */\n      0x05\n      dup2\n      gt\n      iszero\n      tag_322\n      jumpi\n      tag_323\n      tag_112\n      jump\t// in\n    tag_323:\n    tag_322:\n      eq\n        /* \"contracts/Voting.sol\":4528:4664  require(currentStatus ==  WorkflowStatus.ProposalsRegistrationStarted, \"The proposal session has not started or has already been ended\") */\n      tag_324\n      jumpi\n      mload(0x40)\n      0x08c379a000000000000000000000000000000000000000000000000000000000\n      dup2\n      mstore\n      0x04\n      add\n      tag_325\n      swap1\n      tag_326\n      jump\t// in\n    tag_325:\n      mload(0x40)\n      dup1\n      swap2\n      sub\n      swap1\n      revert\n    tag_324:\n        /* \"contracts/Voting.sol\":4701:4702  0 */\n      0x00\n        /* \"contracts/Voting.sol\":4682:4691  proposals */\n      0x02\n        /* \"contracts/Voting.sol\":4682:4698  proposals.length */\n      dup1\n      sload\n      swap1\n      pop\n        /* \"contracts/Voting.sol\":4682:4702  proposals.length > 0 */\n      gt\n        /* \"contracts/Voting.sol\":4674:4740  require(proposals.length > 0, \"There are no proposals registered\") */\n      tag_327\n      jumpi\n      mload(0x40)\n      0x08c379a000000000000000000000000000000000000000000000000000000000\n      dup2\n      mstore\n      0x04\n      add\n      tag_328\n      swap1\n      tag_329\n      jump\t// in\n    tag_328:\n      mload(0x40)\n      dup1\n      swap2\n      sub\n      swap1\n      revert\n    tag_327:\n        /* \"contracts/Voting.sol\":4766:4807  WorkflowStatus.ProposalsRegistrationEnded */\n      0x02\n        /* \"contracts/Voting.sol\":4750:4763  currentStatus */\n      0x03\n      0x00\n        /* \"contracts/Voting.sol\":4750:4807  currentStatus = WorkflowStatus.ProposalsRegistrationEnded */\n      0x0100\n      exp\n      dup2\n      sload\n      dup2\n      0xff\n      mul\n      not\n      and\n      swap1\n      dup4\n      0x05\n      dup2\n      gt\n      iszero\n      tag_330\n      jumpi\n      tag_331\n      tag_112\n      jump\t// in\n    tag_331:\n    tag_330:\n      mul\n      or\n      swap1\n      sstore\n      pop\n        /* \"contracts/Voting.sol\":4822:4898  WorkflowStatusChange(WorkflowStatus(uint(currentStatus) - 1), currentStatus) */\n      0x0a97a4ee45751e2abf3e4fc8946939630b11b371ea8ae39ccdc3056e98f5cc3f\n        /* \"contracts/Voting.sol\":4880:4881  1 */\n      0x01\n        /* \"contracts/Voting.sol\":4863:4876  currentStatus */\n      0x03\n      0x00\n      swap1\n      sload\n      swap1\n      0x0100\n      exp\n      swap1\n      div\n      0xff\n      and\n        /* \"contracts/Voting.sol\":4858:4877  uint(currentStatus) */\n      0x05\n      dup2\n      gt\n      iszero\n      tag_332\n      jumpi\n      tag_333\n      tag_112\n      jump\t// in\n    tag_333:\n    tag_332:\n        /* \"contracts/Voting.sol\":4858:4881  uint(currentStatus) - 1 */\n      tag_334\n      swap2\n      swap1\n      tag_189\n      jump\t// in\n    tag_334:\n        /* \"contracts/Voting.sol\":4843:4882  WorkflowStatus(uint(currentStatus) - 1) */\n      0x05\n      dup2\n      gt\n      iszero\n      tag_335\n      jumpi\n      tag_336\n      tag_112\n      jump\t// in\n    tag_336:\n    tag_335:\n        /* \"contracts/Voting.sol\":4884:4897  currentStatus */\n      0x03\n      0x00\n      swap1\n      sload\n      swap1\n      0x0100\n      exp\n      swap1\n      div\n      0xff\n      and\n        /* \"contracts/Voting.sol\":4822:4898  WorkflowStatusChange(WorkflowStatus(uint(currentStatus) - 1), currentStatus) */\n      mload(0x40)\n      tag_337\n      swap3\n      swap2\n      swap1\n      tag_193\n      jump\t// in\n    tag_337:\n      mload(0x40)\n      dup1\n      swap2\n      sub\n      swap1\n      log1\n        /* \"contracts/Voting.sol\":4469:4905  function endProposalSession() external onlyOwner {... */\n      jump\t// out\n        /* \"contracts/Voting.sol\":8706:8800  function getVoteCountTotal() external view returns(uint){... */\n    tag_96:\n        /* \"contracts/Voting.sol\":8757:8761  uint */\n      0x00\n        /* \"contracts/Voting.sol\":8779:8793  voteCountTotal */\n      sload(0x06)\n        /* \"contracts/Voting.sol\":8772:8793  return voteCountTotal */\n      swap1\n      pop\n        /* \"contracts/Voting.sol\":8706:8800  function getVoteCountTotal() external view returns(uint){... */\n      swap1\n      jump\t// out\n        /* \"@openzeppelin/contracts/access/Ownable.sol\":2543:2758  function transferOwnership(address newOwner) public virtual onlyOwner {... */\n    tag_100:\n        /* \"@openzeppelin/contracts/access/Ownable.sol\":1531:1544  _checkOwner() */\n      tag_340\n        /* \"@openzeppelin/contracts/access/Ownable.sol\":1531:1542  _checkOwner */\n      tag_140\n        /* \"@openzeppelin/contracts/access/Ownable.sol\":1531:1544  _checkOwner() */\n      jump\t// in\n    tag_340:\n        /* \"@openzeppelin/contracts/access/Ownable.sol\":2647:2648  0 */\n      0x00\n        /* \"@openzeppelin/contracts/access/Ownable.sol\":2627:2649  newOwner == address(0) */\n      0xffffffffffffffffffffffffffffffffffffffff\n      and\n        /* \"@openzeppelin/contracts/access/Ownable.sol\":2627:2635  newOwner */\n      dup2\n        /* \"@openzeppelin/contracts/access/Ownable.sol\":2627:2649  newOwner == address(0) */\n      0xffffffffffffffffffffffffffffffffffffffff\n      and\n      sub\n        /* \"@openzeppelin/contracts/access/Ownable.sol\":2623:2714  if (newOwner == address(0)) {... */\n      tag_342\n      jumpi\n        /* \"@openzeppelin/contracts/access/Ownable.sol\":2700:2701  0 */\n      0x00\n        /* \"@openzeppelin/contracts/access/Ownable.sol\":2672:2703  OwnableInvalidOwner(address(0)) */\n      mload(0x40)\n      0x1e4fbdf700000000000000000000000000000000000000000000000000000000\n      dup2\n      mstore\n      0x04\n      add\n      tag_343\n      swap2\n      swap1\n      tag_68\n      jump\t// in\n    tag_343:\n      mload(0x40)\n      dup1\n      swap2\n      sub\n      swap1\n      revert\n        /* \"@openzeppelin/contracts/access/Ownable.sol\":2623:2714  if (newOwner == address(0)) {... */\n    tag_342:\n        /* \"@openzeppelin/contracts/access/Ownable.sol\":2723:2751  _transferOwnership(newOwner) */\n      tag_344\n        /* \"@openzeppelin/contracts/access/Ownable.sol\":2742:2750  newOwner */\n      dup2\n        /* \"@openzeppelin/contracts/access/Ownable.sol\":2723:2741  _transferOwnership */\n      tag_220\n        /* \"@openzeppelin/contracts/access/Ownable.sol\":2723:2751  _transferOwnership(newOwner) */\n      jump\t// in\n    tag_344:\n        /* \"@openzeppelin/contracts/access/Ownable.sol\":2543:2758  function transferOwnership(address newOwner) public virtual onlyOwner {... */\n      pop\n      jump\t// out\n        /* \"contracts/Voting.sol\":5280:5718  function endVoteSession() external onlyOwner {... */\n    tag_102:\n        /* \"@openzeppelin/contracts/access/Ownable.sol\":1531:1544  _checkOwner() */\n      tag_346\n        /* \"@openzeppelin/contracts/access/Ownable.sol\":1531:1542  _checkOwner */\n      tag_140\n        /* \"@openzeppelin/contracts/access/Ownable.sol\":1531:1544  _checkOwner() */\n      jump\t// in\n    tag_346:\n        /* \"contracts/Voting.sol\":5361:5396  WorkflowStatus.VotingSessionStarted */\n      0x03\n        /* \"contracts/Voting.sol\":5343:5396  currentStatus ==  WorkflowStatus.VotingSessionStarted */\n      0x05\n      dup2\n      gt\n      iszero\n      tag_348\n      jumpi\n      tag_349\n      tag_112\n      jump\t// in\n    tag_349:\n    tag_348:\n        /* \"contracts/Voting.sol\":5343:5356  currentStatus */\n      0x03\n      0x00\n      swap1\n      sload\n      swap1\n      0x0100\n      exp\n      swap1\n      div\n      0xff\n      and\n        /* \"contracts/Voting.sol\":5343:5396  currentStatus ==  WorkflowStatus.VotingSessionStarted */\n      0x05\n      dup2\n      gt\n      iszero\n      tag_350\n      jumpi\n      tag_351\n      tag_112\n      jump\t// in\n    tag_351:\n    tag_350:\n      eq\n        /* \"contracts/Voting.sol\":5335:5454  require(currentStatus ==  WorkflowStatus.VotingSessionStarted, \"The vote session has not started or has already ended\") */\n      tag_352\n      jumpi\n      mload(0x40)\n      0x08c379a000000000000000000000000000000000000000000000000000000000\n      dup2\n      mstore\n      0x04\n      add\n      tag_353\n      swap1\n      tag_354\n      jump\t// in\n    tag_353:\n      mload(0x40)\n      dup1\n      swap2\n      sub\n      swap1\n      revert\n    tag_352:\n        /* \"contracts/Voting.sol\":5489:5490  0 */\n      0x00\n        /* \"contracts/Voting.sol\":5472:5486  voteCountTotal */\n      sload(0x06)\n        /* \"contracts/Voting.sol\":5472:5490  voteCountTotal > 0 */\n      gt\n        /* \"contracts/Voting.sol\":5464:5523  require(voteCountTotal > 0, \"There are no vote registered\") */\n      tag_355\n      jumpi\n      mload(0x40)\n      0x08c379a000000000000000000000000000000000000000000000000000000000\n      dup2\n      mstore\n      0x04\n      add\n      tag_356\n      swap1\n      tag_357\n      jump\t// in\n    tag_356:\n      mload(0x40)\n      dup1\n      swap2\n      sub\n      swap1\n      revert\n    tag_355:\n        /* \"contracts/Voting.sol\":5549:5582  WorkflowStatus.VotingSessionEnded */\n      0x04\n        /* \"contracts/Voting.sol\":5533:5546  currentStatus */\n      0x03\n      0x00\n        /* \"contracts/Voting.sol\":5533:5582  currentStatus = WorkflowStatus.VotingSessionEnded */\n      0x0100\n      exp\n      dup2\n      sload\n      dup2\n      0xff\n      mul\n      not\n      and\n      swap1\n      dup4\n      0x05\n      dup2\n      gt\n      iszero\n      tag_358\n      jumpi\n      tag_359\n      tag_112\n      jump\t// in\n    tag_359:\n    tag_358:\n      mul\n      or\n      swap1\n      sstore\n      pop\n        /* \"contracts/Voting.sol\":5592:5611  setWinnerProposal() */\n      tag_360\n        /* \"contracts/Voting.sol\":5592:5609  setWinnerProposal */\n      tag_361\n        /* \"contracts/Voting.sol\":5592:5611  setWinnerProposal() */\n      jump\t// in\n    tag_360:\n        /* \"contracts/Voting.sol\":5627:5703  WorkflowStatusChange(WorkflowStatus(uint(currentStatus) - 1), currentStatus) */\n      0x0a97a4ee45751e2abf3e4fc8946939630b11b371ea8ae39ccdc3056e98f5cc3f\n        /* \"contracts/Voting.sol\":5685:5686  1 */\n      0x01\n        /* \"contracts/Voting.sol\":5668:5681  currentStatus */\n      0x03\n      0x00\n      swap1\n      sload\n      swap1\n      0x0100\n      exp\n      swap1\n      div\n      0xff\n      and\n        /* \"contracts/Voting.sol\":5663:5682  uint(currentStatus) */\n      0x05\n      dup2\n      gt\n      iszero\n      tag_362\n      jumpi\n      tag_363\n      tag_112\n      jump\t// in\n    tag_363:\n    tag_362:\n        /* \"contracts/Voting.sol\":5663:5686  uint(currentStatus) - 1 */\n      tag_364\n      swap2\n      swap1\n      tag_189\n      jump\t// in\n    tag_364:\n        /* \"contracts/Voting.sol\":5648:5687  WorkflowStatus(uint(currentStatus) - 1) */\n      0x05\n      dup2\n      gt\n      iszero\n      tag_365\n      jumpi\n      tag_366\n      tag_112\n      jump\t// in\n    tag_366:\n    tag_365:\n        /* \"contracts/Voting.sol\":5689:5702  currentStatus */\n      0x03\n      0x00\n      swap1\n      sload\n      swap1\n      0x0100\n      exp\n      swap1\n      div\n      0xff\n      and\n        /* \"contracts/Voting.sol\":5627:5703  WorkflowStatusChange(WorkflowStatus(uint(currentStatus) - 1), currentStatus) */\n      mload(0x40)\n      tag_367\n      swap3\n      swap2\n      swap1\n      tag_193\n      jump\t// in\n    tag_367:\n      mload(0x40)\n      dup1\n      swap2\n      sub\n      swap1\n      log1\n        /* \"contracts/Voting.sol\":5280:5718  function endVoteSession() external onlyOwner {... */\n      jump\t// out\n        /* \"@openzeppelin/contracts/access/Ownable.sol\":1796:1958  function _checkOwner() internal view virtual {... */\n    tag_140:\n        /* \"@openzeppelin/contracts/access/Ownable.sol\":1866:1878  _msgSender() */\n      tag_369\n        /* \"@openzeppelin/contracts/access/Ownable.sol\":1866:1876  _msgSender */\n      tag_370\n        /* \"@openzeppelin/contracts/access/Ownable.sol\":1866:1878  _msgSender() */\n      jump\t// in\n    tag_369:\n        /* \"@openzeppelin/contracts/access/Ownable.sol\":1855:1878  owner() != _msgSender() */\n      0xffffffffffffffffffffffffffffffffffffffff\n      and\n        /* \"@openzeppelin/contracts/access/Ownable.sol\":1855:1862  owner() */\n      tag_371\n        /* \"@openzeppelin/contracts/access/Ownable.sol\":1855:1860  owner */\n      tag_66\n        /* \"@openzeppelin/contracts/access/Ownable.sol\":1855:1862  owner() */\n      jump\t// in\n    tag_371:\n        /* \"@openzeppelin/contracts/access/Ownable.sol\":1855:1878  owner() != _msgSender() */\n      0xffffffffffffffffffffffffffffffffffffffff\n      and\n      eq\n        /* \"@openzeppelin/contracts/access/Ownable.sol\":1851:1952  if (owner() != _msgSender()) {... */\n      tag_372\n      jumpi\n        /* \"@openzeppelin/contracts/access/Ownable.sol\":1928:1940  _msgSender() */\n      tag_373\n        /* \"@openzeppelin/contracts/access/Ownable.sol\":1928:1938  _msgSender */\n      tag_370\n        /* \"@openzeppelin/contracts/access/Ownable.sol\":1928:1940  _msgSender() */\n      jump\t// in\n    tag_373:\n        /* \"@openzeppelin/contracts/access/Ownable.sol\":1901:1941  OwnableUnauthorizedAccount(_msgSender()) */\n      mload(0x40)\n      0x118cdaa700000000000000000000000000000000000000000000000000000000\n      dup2\n      mstore\n      0x04\n      add\n      tag_374\n      swap2\n      swap1\n      tag_68\n      jump\t// in\n    tag_374:\n      mload(0x40)\n      dup1\n      swap2\n      sub\n      swap1\n      revert\n        /* \"@openzeppelin/contracts/access/Ownable.sol\":1851:1952  if (owner() != _msgSender()) {... */\n    tag_372:\n        /* \"@openzeppelin/contracts/access/Ownable.sol\":1796:1958  function _checkOwner() internal view virtual {... */\n      jump\t// out\n        /* \"@openzeppelin/contracts/access/Ownable.sol\":2912:3099  function _transferOwnership(address newOwner) internal virtual {... */\n    tag_220:\n        /* \"@openzeppelin/contracts/access/Ownable.sol\":2985:3001  address oldOwner */\n      0x00\n        /* \"@openzeppelin/contracts/access/Ownable.sol\":3004:3010  _owner */\n      0x00\n      0x00\n      swap1\n      sload\n      swap1\n      0x0100\n      exp\n      swap1\n      div\n      0xffffffffffffffffffffffffffffffffffffffff\n      and\n        /* \"@openzeppelin/contracts/access/Ownable.sol\":2985:3010  address oldOwner = _owner */\n      swap1\n      pop\n        /* \"@openzeppelin/contracts/access/Ownable.sol\":3029:3037  newOwner */\n      dup2\n        /* \"@openzeppelin/contracts/access/Ownable.sol\":3020:3026  _owner */\n      0x00\n      0x00\n        /* \"@openzeppelin/contracts/access/Ownable.sol\":3020:3037  _owner = newOwner */\n      0x0100\n      exp\n      dup2\n      sload\n      dup2\n      0xffffffffffffffffffffffffffffffffffffffff\n      mul\n      not\n      and\n      swap1\n      dup4\n      0xffffffffffffffffffffffffffffffffffffffff\n      and\n      mul\n      or\n      swap1\n      sstore\n      pop\n        /* \"@openzeppelin/contracts/access/Ownable.sol\":3083:3091  newOwner */\n      dup2\n        /* \"@openzeppelin/contracts/access/Ownable.sol\":3052:3092  OwnershipTransferred(oldOwner, newOwner) */\n      0xffffffffffffffffffffffffffffffffffffffff\n      and\n        /* \"@openzeppelin/contracts/access/Ownable.sol\":3073:3081  oldOwner */\n      dup2\n        /* \"@openzeppelin/contracts/access/Ownable.sol\":3052:3092  OwnershipTransferred(oldOwner, newOwner) */\n      0xffffffffffffffffffffffffffffffffffffffff\n      and\n      0x8be0079c531659141344cd1fd0a4f28419497f9722a3daafe3b4186f6b6457e0\n      mload(0x40)\n      mload(0x40)\n      dup1\n      swap2\n      sub\n      swap1\n      log3\n        /* \"@openzeppelin/contracts/access/Ownable.sol\":2975:3099  {... */\n      pop\n        /* \"@openzeppelin/contracts/access/Ownable.sol\":2912:3099  function _transferOwnership(address newOwner) internal virtual {... */\n      pop\n      jump\t// out\n        /* \"contracts/Voting.sol\":6709:7037  function setWinnerProposal() private onlyOwner {... */\n    tag_361:\n        /* \"@openzeppelin/contracts/access/Ownable.sol\":1531:1544  _checkOwner() */\n      tag_377\n        /* \"@openzeppelin/contracts/access/Ownable.sol\":1531:1542  _checkOwner */\n      tag_140\n        /* \"@openzeppelin/contracts/access/Ownable.sol\":1531:1544  _checkOwner() */\n      jump\t// in\n    tag_377:\n        /* \"contracts/Voting.sol\":6771:6777  uint i */\n      0x00\n        /* \"contracts/Voting.sol\":6780:6781  0 */\n      0x00\n        /* \"contracts/Voting.sol\":6771:6781  uint i = 0 */\n      swap1\n      pop\n        /* \"contracts/Voting.sol\":6766:7030  for (uint i = 0; i < proposals.length; i++) {... */\n    tag_379:\n        /* \"contracts/Voting.sol\":6787:6796  proposals */\n      0x02\n        /* \"contracts/Voting.sol\":6787:6803  proposals.length */\n      dup1\n      sload\n      swap1\n      pop\n        /* \"contracts/Voting.sol\":6783:6784  i */\n      dup2\n        /* \"contracts/Voting.sol\":6783:6803  i < proposals.length */\n      lt\n        /* \"contracts/Voting.sol\":6766:7030  for (uint i = 0; i < proposals.length; i++) {... */\n      iszero\n      tag_380\n      jumpi\n        /* \"contracts/Voting.sol\":6854:6869  voteWinnerCount */\n      sload(0x09)\n        /* \"contracts/Voting.sol\":6828:6837  proposals */\n      0x02\n        /* \"contracts/Voting.sol\":6838:6839  i */\n      dup3\n        /* \"contracts/Voting.sol\":6828:6840  proposals[i] */\n      dup2\n      sload\n      dup2\n      lt\n      tag_382\n      jumpi\n      tag_383\n      tag_130\n      jump\t// in\n    tag_383:\n    tag_382:\n      swap1\n      0x00\n      mstore\n      keccak256(0x00, 0x20)\n      swap1\n      0x02\n      mul\n      add\n        /* \"contracts/Voting.sol\":6828:6850  proposals[i].voteCount */\n      0x01\n      add\n      sload\n        /* \"contracts/Voting.sol\":6828:6869  proposals[i].voteCount >= voteWinnerCount */\n      lt\n        /* \"contracts/Voting.sol\":6824:7014  if (proposals[i].voteCount >= voteWinnerCount) {... */\n      tag_385\n      jumpi\n        /* \"contracts/Voting.sol\":6907:6916  proposals */\n      0x02\n        /* \"contracts/Voting.sol\":6917:6918  i */\n      dup2\n        /* \"contracts/Voting.sol\":6907:6919  proposals[i] */\n      dup2\n      sload\n      dup2\n      lt\n      tag_386\n      jumpi\n      tag_387\n      tag_130\n      jump\t// in\n    tag_387:\n    tag_386:\n      swap1\n      0x00\n      mstore\n      keccak256(0x00, 0x20)\n      swap1\n      0x02\n      mul\n      add\n        /* \"contracts/Voting.sol\":6907:6929  proposals[i].voteCount */\n      0x01\n      add\n      sload\n        /* \"contracts/Voting.sol\":6889:6904  voteWinnerCount */\n      0x09\n        /* \"contracts/Voting.sol\":6889:6929  voteWinnerCount = proposals[i].voteCount */\n      dup2\n      swap1\n      sstore\n      pop\n        /* \"contracts/Voting.sol\":6967:6968  i */\n      dup1\n        /* \"contracts/Voting.sol\":6947:6964  winningProposalId */\n      0x04\n        /* \"contracts/Voting.sol\":6947:6968  winningProposalId = i */\n      dup2\n      swap1\n      sstore\n      pop\n        /* \"contracts/Voting.sol\":6986:6997  winnerCount */\n      0x08\n      0x00\n        /* \"contracts/Voting.sol\":6986:6999  winnerCount++ */\n      dup2\n      sload\n      dup1\n      swap3\n      swap2\n      swap1\n      tag_389\n      swap1\n      tag_133\n      jump\t// in\n    tag_389:\n      swap2\n      swap1\n      pop\n      sstore\n      pop\n        /* \"contracts/Voting.sol\":6824:7014  if (proposals[i].voteCount >= voteWinnerCount) {... */\n    tag_385:\n        /* \"contracts/Voting.sol\":6805:6808  i++ */\n      dup1\n      dup1\n      0x01\n      add\n      swap2\n      pop\n      pop\n        /* \"contracts/Voting.sol\":6766:7030  for (uint i = 0; i < proposals.length; i++) {... */\n      jump(tag_379)\n    tag_380:\n      pop\n        /* \"contracts/Voting.sol\":6709:7037  function setWinnerProposal() private onlyOwner {... */\n      jump\t// out\n        /* \"@openzeppelin/contracts/utils/Context.sol\":656:752  function _msgSender() internal view virtual returns (address) {... */\n    tag_370:\n        /* \"@openzeppelin/contracts/utils/Context.sol\":709:716  address */\n      0x00\n        /* \"@openzeppelin/contracts/utils/Context.sol\":735:745  msg.sender */\n      caller\n        /* \"@openzeppelin/contracts/utils/Context.sol\":728:745  return msg.sender */\n      swap1\n      pop\n        /* \"@openzeppelin/contracts/utils/Context.sol\":656:752  function _msgSender() internal view virtual returns (address) {... */\n      swap1\n      jump\t// out\n    tag_222:\n      mload(0x40)\n      dup1\n      0x40\n      add\n      0x40\n      mstore\n      dup1\n      0x60\n      dup2\n      mstore\n      0x20\n      add\n      0x00\n      dup2\n      mstore\n      pop\n      swap1\n      jump\t// out\n        /* \"#utility.yul\":7:82   */\n    tag_391:\n        /* \"#utility.yul\":40:46   */\n      0x00\n        /* \"#utility.yul\":73:75   */\n      0x40\n        /* \"#utility.yul\":67:76   */\n      mload\n        /* \"#utility.yul\":57:76   */\n      swap1\n      pop\n        /* \"#utility.yul\":7:82   */\n      swap1\n      jump\t// out\n        /* \"#utility.yul\":88:205   */\n    tag_392:\n        /* \"#utility.yul\":197:198   */\n      0x00\n        /* \"#utility.yul\":194:195   */\n      0x00\n        /* \"#utility.yul\":187:199   */\n      revert\n        /* \"#utility.yul\":211:328   */\n    tag_393:\n        /* \"#utility.yul\":320:321   */\n      0x00\n        /* \"#utility.yul\":317:318   */\n      0x00\n        /* \"#utility.yul\":310:322   */\n      revert\n        /* \"#utility.yul\":334:411   */\n    tag_394:\n        /* \"#utility.yul\":371:378   */\n      0x00\n        /* \"#utility.yul\":400:405   */\n      dup2\n        /* \"#utility.yul\":389:405   */\n      swap1\n      pop\n        /* \"#utility.yul\":334:411   */\n      swap2\n      swap1\n      pop\n      jump\t// out\n        /* \"#utility.yul\":417:539   */\n    tag_395:\n        /* \"#utility.yul\":490:514   */\n      tag_497\n        /* \"#utility.yul\":508:513   */\n      dup2\n        /* \"#utility.yul\":490:514   */\n      tag_394\n      jump\t// in\n    tag_497:\n        /* \"#utility.yul\":483:488   */\n      dup2\n        /* \"#utility.yul\":480:515   */\n      eq\n        /* \"#utility.yul\":470:533   */\n      tag_498\n      jumpi\n        /* \"#utility.yul\":529:530   */\n      0x00\n        /* \"#utility.yul\":526:527   */\n      0x00\n        /* \"#utility.yul\":519:531   */\n      revert\n        /* \"#utility.yul\":470:533   */\n    tag_498:\n        /* \"#utility.yul\":417:539   */\n      pop\n      jump\t// out\n        /* \"#utility.yul\":545:684   */\n    tag_396:\n        /* \"#utility.yul\":591:596   */\n      0x00\n        /* \"#utility.yul\":629:635   */\n      dup2\n        /* \"#utility.yul\":616:636   */\n      calldataload\n        /* \"#utility.yul\":607:636   */\n      swap1\n      pop\n        /* \"#utility.yul\":645:678   */\n      tag_500\n        /* \"#utility.yul\":672:677   */\n      dup2\n        /* \"#utility.yul\":645:678   */\n      tag_395\n      jump\t// in\n    tag_500:\n        /* \"#utility.yul\":545:684   */\n      swap3\n      swap2\n      pop\n      pop\n      jump\t// out\n        /* \"#utility.yul\":690:1019   */\n    tag_31:\n        /* \"#utility.yul\":749:755   */\n      0x00\n        /* \"#utility.yul\":798:800   */\n      0x20\n        /* \"#utility.yul\":786:795   */\n      dup3\n        /* \"#utility.yul\":777:784   */\n      dup5\n        /* \"#utility.yul\":773:796   */\n      sub\n        /* \"#utility.yul\":769:801   */\n      slt\n        /* \"#utility.yul\":766:885   */\n      iszero\n      tag_502\n      jumpi\n        /* \"#utility.yul\":804:883   */\n      tag_503\n      tag_392\n      jump\t// in\n    tag_503:\n        /* \"#utility.yul\":766:885   */\n    tag_502:\n        /* \"#utility.yul\":924:925   */\n      0x00\n        /* \"#utility.yul\":949:1002   */\n      tag_504\n        /* \"#utility.yul\":994:1001   */\n      dup5\n        /* \"#utility.yul\":985:991   */\n      dup3\n        /* \"#utility.yul\":974:983   */\n      dup6\n        /* \"#utility.yul\":970:992   */\n      add\n        /* \"#utility.yul\":949:1002   */\n      tag_396\n      jump\t// in\n    tag_504:\n        /* \"#utility.yul\":939:1002   */\n      swap2\n      pop\n        /* \"#utility.yul\":895:1012   */\n      pop\n        /* \"#utility.yul\":690:1019   */\n      swap3\n      swap2\n      pop\n      pop\n      jump\t// out\n        /* \"#utility.yul\":1025:1143   */\n    tag_397:\n        /* \"#utility.yul\":1112:1136   */\n      tag_506\n        /* \"#utility.yul\":1130:1135   */\n      dup2\n        /* \"#utility.yul\":1112:1136   */\n      tag_394\n      jump\t// in\n    tag_506:\n        /* \"#utility.yul\":1107:1110   */\n      dup3\n        /* \"#utility.yul\":1100:1137   */\n      mstore\n        /* \"#utility.yul\":1025:1143   */\n      pop\n      pop\n      jump\t// out\n        /* \"#utility.yul\":1149:1371   */\n    tag_36:\n        /* \"#utility.yul\":1242:1246   */\n      0x00\n        /* \"#utility.yul\":1280:1282   */\n      0x20\n        /* \"#utility.yul\":1269:1278   */\n      dup3\n        /* \"#utility.yul\":1265:1283   */\n      add\n        /* \"#utility.yul\":1257:1283   */\n      swap1\n      pop\n        /* \"#utility.yul\":1293:1364   */\n      tag_508\n        /* \"#utility.yul\":1361:1362   */\n      0x00\n        /* \"#utility.yul\":1350:1359   */\n      dup4\n        /* \"#utility.yul\":1346:1363   */\n      add\n        /* \"#utility.yul\":1337:1343   */\n      dup5\n        /* \"#utility.yul\":1293:1364   */\n      tag_397\n      jump\t// in\n    tag_508:\n        /* \"#utility.yul\":1149:1371   */\n      swap3\n      swap2\n      pop\n      pop\n      jump\t// out\n        /* \"#utility.yul\":1377:1503   */\n    tag_398:\n        /* \"#utility.yul\":1414:1421   */\n      0x00\n        /* \"#utility.yul\":1454:1496   */\n      0xffffffffffffffffffffffffffffffffffffffff\n        /* \"#utility.yul\":1447:1452   */\n      dup3\n        /* \"#utility.yul\":1443:1497   */\n      and\n        /* \"#utility.yul\":1432:1497   */\n      swap1\n      pop\n        /* \"#utility.yul\":1377:1503   */\n      swap2\n      swap1\n      pop\n      jump\t// out\n        /* \"#utility.yul\":1509:1605   */\n    tag_399:\n        /* \"#utility.yul\":1546:1553   */\n      0x00\n        /* \"#utility.yul\":1575:1599   */\n      tag_511\n        /* \"#utility.yul\":1593:1598   */\n      dup3\n        /* \"#utility.yul\":1575:1599   */\n      tag_398\n      jump\t// in\n    tag_511:\n        /* \"#utility.yul\":1564:1599   */\n      swap1\n      pop\n        /* \"#utility.yul\":1509:1605   */\n      swap2\n      swap1\n      pop\n      jump\t// out\n        /* \"#utility.yul\":1611:1733   */\n    tag_400:\n        /* \"#utility.yul\":1684:1708   */\n      tag_513\n        /* \"#utility.yul\":1702:1707   */\n      dup2\n        /* \"#utility.yul\":1684:1708   */\n      tag_399\n      jump\t// in\n    tag_513:\n        /* \"#utility.yul\":1677:1682   */\n      dup2\n        /* \"#utility.yul\":1674:1709   */\n      eq\n        /* \"#utility.yul\":1664:1727   */\n      tag_514\n      jumpi\n        /* \"#utility.yul\":1723:1724   */\n      0x00\n        /* \"#utility.yul\":1720:1721   */\n      0x00\n        /* \"#utility.yul\":1713:1725   */\n      revert\n        /* \"#utility.yul\":1664:1727   */\n    tag_514:\n        /* \"#utility.yul\":1611:1733   */\n      pop\n      jump\t// out\n        /* \"#utility.yul\":1739:1878   */\n    tag_401:\n        /* \"#utility.yul\":1785:1790   */\n      0x00\n        /* \"#utility.yul\":1823:1829   */\n      dup2\n        /* \"#utility.yul\":1810:1830   */\n      calldataload\n        /* \"#utility.yul\":1801:1830   */\n      swap1\n      pop\n        /* \"#utility.yul\":1839:1872   */\n      tag_516\n        /* \"#utility.yul\":1866:1871   */\n      dup2\n        /* \"#utility.yul\":1839:1872   */\n      tag_400\n      jump\t// in\n    tag_516:\n        /* \"#utility.yul\":1739:1878   */\n      swap3\n      swap2\n      pop\n      pop\n      jump\t// out\n        /* \"#utility.yul\":1884:2213   */\n    tag_39:\n        /* \"#utility.yul\":1943:1949   */\n      0x00\n        /* \"#utility.yul\":1992:1994   */\n      0x20\n        /* \"#utility.yul\":1980:1989   */\n      dup3\n        /* \"#utility.yul\":1971:1978   */\n      dup5\n        /* \"#utility.yul\":1967:1990   */\n      sub\n        /* \"#utility.yul\":1963:1995   */\n      slt\n        /* \"#utility.yul\":1960:2079   */\n      iszero\n      tag_518\n      jumpi\n        /* \"#utility.yul\":1998:2077   */\n      tag_519\n      tag_392\n      jump\t// in\n    tag_519:\n        /* \"#utility.yul\":1960:2079   */\n    tag_518:\n        /* \"#utility.yul\":2118:2119   */\n      0x00\n        /* \"#utility.yul\":2143:2196   */\n      tag_520\n        /* \"#utility.yul\":2188:2195   */\n      dup5\n        /* \"#utility.yul\":2179:2185   */\n      dup3\n        /* \"#utility.yul\":2168:2177   */\n      dup6\n        /* \"#utility.yul\":2164:2186   */\n      add\n        /* \"#utility.yul\":2143:2196   */\n      tag_401\n      jump\t// in\n    tag_520:\n        /* \"#utility.yul\":2133:2196   */\n      swap2\n      pop\n        /* \"#utility.yul\":2089:2206   */\n      pop\n        /* \"#utility.yul\":1884:2213   */\n      swap3\n      swap2\n      pop\n      pop\n      jump\t// out\n        /* \"#utility.yul\":2219:2318   */\n    tag_402:\n        /* \"#utility.yul\":2271:2277   */\n      0x00\n        /* \"#utility.yul\":2305:2310   */\n      dup2\n        /* \"#utility.yul\":2299:2311   */\n      mload\n        /* \"#utility.yul\":2289:2311   */\n      swap1\n      pop\n        /* \"#utility.yul\":2219:2318   */\n      swap2\n      swap1\n      pop\n      jump\t// out\n        /* \"#utility.yul\":2324:2493   */\n    tag_403:\n        /* \"#utility.yul\":2408:2419   */\n      0x00\n        /* \"#utility.yul\":2442:2448   */\n      dup3\n        /* \"#utility.yul\":2437:2440   */\n      dup3\n        /* \"#utility.yul\":2430:2449   */\n      mstore\n        /* \"#utility.yul\":2482:2486   */\n      0x20\n        /* \"#utility.yul\":2477:2480   */\n      dup3\n        /* \"#utility.yul\":2473:2487   */\n      add\n        /* \"#utility.yul\":2458:2487   */\n      swap1\n      pop\n        /* \"#utility.yul\":2324:2493   */\n      swap3\n      swap2\n      pop\n      pop\n      jump\t// out\n        /* \"#utility.yul\":2499:2638   */\n    tag_404:\n        /* \"#utility.yul\":2588:2594   */\n      dup3\n        /* \"#utility.yul\":2583:2586   */\n      dup2\n        /* \"#utility.yul\":2578:2581   */\n      dup4\n        /* \"#utility.yul\":2572:2595   */\n      mcopy\n        /* \"#utility.yul\":2629:2630   */\n      0x00\n        /* \"#utility.yul\":2620:2626   */\n      dup4\n        /* \"#utility.yul\":2615:2618   */\n      dup4\n        /* \"#utility.yul\":2611:2627   */\n      add\n        /* \"#utility.yul\":2604:2631   */\n      mstore\n        /* \"#utility.yul\":2499:2638   */\n      pop\n      pop\n      pop\n      jump\t// out\n        /* \"#utility.yul\":2644:2746   */\n    tag_405:\n        /* \"#utility.yul\":2685:2691   */\n      0x00\n        /* \"#utility.yul\":2736:2738   */\n      0x1f\n        /* \"#utility.yul\":2732:2739   */\n      not\n        /* \"#utility.yul\":2727:2729   */\n      0x1f\n        /* \"#utility.yul\":2720:2725   */\n      dup4\n        /* \"#utility.yul\":2716:2730   */\n      add\n        /* \"#utility.yul\":2712:2740   */\n      and\n        /* \"#utility.yul\":2702:2740   */\n      swap1\n      pop\n        /* \"#utility.yul\":2644:2746   */\n      swap2\n      swap1\n      pop\n      jump\t// out\n        /* \"#utility.yul\":2752:3129   */\n    tag_406:\n        /* \"#utility.yul\":2840:2843   */\n      0x00\n        /* \"#utility.yul\":2868:2907   */\n      tag_526\n        /* \"#utility.yul\":2901:2906   */\n      dup3\n        /* \"#utility.yul\":2868:2907   */\n      tag_402\n      jump\t// in\n    tag_526:\n        /* \"#utility.yul\":2923:2994   */\n      tag_527\n        /* \"#utility.yul\":2987:2993   */\n      dup2\n        /* \"#utility.yul\":2982:2985   */\n      dup6\n        /* \"#utility.yul\":2923:2994   */\n      tag_403\n      jump\t// in\n    tag_527:\n        /* \"#utility.yul\":2916:2994   */\n      swap4\n      pop\n        /* \"#utility.yul\":3003:3068   */\n      tag_528\n        /* \"#utility.yul\":3061:3067   */\n      dup2\n        /* \"#utility.yul\":3056:3059   */\n      dup6\n        /* \"#utility.yul\":3049:3053   */\n      0x20\n        /* \"#utility.yul\":3042:3047   */\n      dup7\n        /* \"#utility.yul\":3038:3054   */\n      add\n        /* \"#utility.yul\":3003:3068   */\n      tag_404\n      jump\t// in\n    tag_528:\n        /* \"#utility.yul\":3093:3122   */\n      tag_529\n        /* \"#utility.yul\":3115:3121   */\n      dup2\n        /* \"#utility.yul\":3093:3122   */\n      tag_405\n      jump\t// in\n    tag_529:\n        /* \"#utility.yul\":3088:3091   */\n      dup5\n        /* \"#utility.yul\":3084:3123   */\n      add\n        /* \"#utility.yul\":3077:3123   */\n      swap2\n      pop\n        /* \"#utility.yul\":2844:3129   */\n      pop\n        /* \"#utility.yul\":2752:3129   */\n      swap3\n      swap2\n      pop\n      pop\n      jump\t// out\n        /* \"#utility.yul\":3135:3448   */\n    tag_44:\n        /* \"#utility.yul\":3248:3252   */\n      0x00\n        /* \"#utility.yul\":3286:3288   */\n      0x20\n        /* \"#utility.yul\":3275:3284   */\n      dup3\n        /* \"#utility.yul\":3271:3289   */\n      add\n        /* \"#utility.yul\":3263:3289   */\n      swap1\n      pop\n        /* \"#utility.yul\":3335:3344   */\n      dup2\n        /* \"#utility.yul\":3329:3333   */\n      dup2\n        /* \"#utility.yul\":3325:3345   */\n      sub\n        /* \"#utility.yul\":3321:3322   */\n      0x00\n        /* \"#utility.yul\":3310:3319   */\n      dup4\n        /* \"#utility.yul\":3306:3323   */\n      add\n        /* \"#utility.yul\":3299:3346   */\n      mstore\n        /* \"#utility.yul\":3363:3441   */\n      tag_531\n        /* \"#utility.yul\":3436:3440   */\n      dup2\n        /* \"#utility.yul\":3427:3433   */\n      dup5\n        /* \"#utility.yul\":3363:3441   */\n      tag_406\n      jump\t// in\n    tag_531:\n        /* \"#utility.yul\":3355:3441   */\n      swap1\n      pop\n        /* \"#utility.yul\":3135:3448   */\n      swap3\n      swap2\n      pop\n      pop\n      jump\t// out\n        /* \"#utility.yul\":3454:3593   */\n    tag_407:\n        /* \"#utility.yul\":3546:3552   */\n      0x00\n        /* \"#utility.yul\":3580:3585   */\n      dup2\n        /* \"#utility.yul\":3574:3586   */\n      mload\n        /* \"#utility.yul\":3564:3586   */\n      swap1\n      pop\n        /* \"#utility.yul\":3454:3593   */\n      swap2\n      swap1\n      pop\n      jump\t// out\n        /* \"#utility.yul\":3599:3808   */\n    tag_408:\n        /* \"#utility.yul\":3723:3734   */\n      0x00\n        /* \"#utility.yul\":3757:3763   */\n      dup3\n        /* \"#utility.yul\":3752:3755   */\n      dup3\n        /* \"#utility.yul\":3745:3764   */\n      mstore\n        /* \"#utility.yul\":3797:3801   */\n      0x20\n        /* \"#utility.yul\":3792:3795   */\n      dup3\n        /* \"#utility.yul\":3788:3802   */\n      add\n        /* \"#utility.yul\":3773:3802   */\n      swap1\n      pop\n        /* \"#utility.yul\":3599:3808   */\n      swap3\n      swap2\n      pop\n      pop\n      jump\t// out\n        /* \"#utility.yul\":3814:3971   */\n    tag_409:\n        /* \"#utility.yul\":3906:3910   */\n      0x00\n        /* \"#utility.yul\":3929:3932   */\n      dup2\n        /* \"#utility.yul\":3921:3932   */\n      swap1\n      pop\n        /* \"#utility.yul\":3959:3963   */\n      0x20\n        /* \"#utility.yul\":3954:3957   */\n      dup3\n        /* \"#utility.yul\":3950:3964   */\n      add\n        /* \"#utility.yul\":3942:3964   */\n      swap1\n      pop\n        /* \"#utility.yul\":3814:3971   */\n      swap2\n      swap1\n      pop\n      jump\t// out\n        /* \"#utility.yul\":3977:4136   */\n    tag_410:\n        /* \"#utility.yul\":4051:4062   */\n      0x00\n        /* \"#utility.yul\":4085:4091   */\n      dup3\n        /* \"#utility.yul\":4080:4083   */\n      dup3\n        /* \"#utility.yul\":4073:4092   */\n      mstore\n        /* \"#utility.yul\":4125:4129   */\n      0x20\n        /* \"#utility.yul\":4120:4123   */\n      dup3\n        /* \"#utility.yul\":4116:4130   */\n      add\n        /* \"#utility.yul\":4101:4130   */\n      swap1\n      pop\n        /* \"#utility.yul\":3977:4136   */\n      swap3\n      swap2\n      pop\n      pop\n      jump\t// out\n        /* \"#utility.yul\":4142:4499   */\n    tag_411:\n        /* \"#utility.yul\":4220:4223   */\n      0x00\n        /* \"#utility.yul\":4248:4287   */\n      tag_537\n        /* \"#utility.yul\":4281:4286   */\n      dup3\n        /* \"#utility.yul\":4248:4287   */\n      tag_402\n      jump\t// in\n    tag_537:\n        /* \"#utility.yul\":4303:4364   */\n      tag_538\n        /* \"#utility.yul\":4357:4363   */\n      dup2\n        /* \"#utility.yul\":4352:4355   */\n      dup6\n        /* \"#utility.yul\":4303:4364   */\n      tag_410\n      jump\t// in\n    tag_538:\n        /* \"#utility.yul\":4296:4364   */\n      swap4\n      pop\n        /* \"#utility.yul\":4373:4438   */\n      tag_539\n        /* \"#utility.yul\":4431:4437   */\n      dup2\n        /* \"#utility.yul\":4426:4429   */\n      dup6\n        /* \"#utility.yul\":4419:4423   */\n      0x20\n        /* \"#utility.yul\":4412:4417   */\n      dup7\n        /* \"#utility.yul\":4408:4424   */\n      add\n        /* \"#utility.yul\":4373:4438   */\n      tag_404\n      jump\t// in\n    tag_539:\n        /* \"#utility.yul\":4463:4492   */\n      tag_540\n        /* \"#utility.yul\":4485:4491   */\n      dup2\n        /* \"#utility.yul\":4463:4492   */\n      tag_405\n      jump\t// in\n    tag_540:\n        /* \"#utility.yul\":4458:4461   */\n      dup5\n        /* \"#utility.yul\":4454:4493   */\n      add\n        /* \"#utility.yul\":4447:4493   */\n      swap2\n      pop\n        /* \"#utility.yul\":4224:4499   */\n      pop\n        /* \"#utility.yul\":4142:4499   */\n      swap3\n      swap2\n      pop\n      pop\n      jump\t// out\n        /* \"#utility.yul\":4505:4613   */\n    tag_412:\n        /* \"#utility.yul\":4582:4606   */\n      tag_542\n        /* \"#utility.yul\":4600:4605   */\n      dup2\n        /* \"#utility.yul\":4582:4606   */\n      tag_394\n      jump\t// in\n    tag_542:\n        /* \"#utility.yul\":4577:4580   */\n      dup3\n        /* \"#utility.yul\":4570:4607   */\n      mstore\n        /* \"#utility.yul\":4505:4613   */\n      pop\n      pop\n      jump\t// out\n        /* \"#utility.yul\":4675:5283   */\n    tag_413:\n        /* \"#utility.yul\":4784:4787   */\n      0x00\n        /* \"#utility.yul\":4820:4824   */\n      0x40\n        /* \"#utility.yul\":4815:4818   */\n      dup4\n        /* \"#utility.yul\":4811:4825   */\n      add\n        /* \"#utility.yul\":4914:4918   */\n      0x00\n        /* \"#utility.yul\":4907:4912   */\n      dup4\n        /* \"#utility.yul\":4903:4919   */\n      add\n        /* \"#utility.yul\":4897:4920   */\n      mload\n        /* \"#utility.yul\":4967:4970   */\n      dup5\n        /* \"#utility.yul\":4961:4965   */\n      dup3\n        /* \"#utility.yul\":4957:4971   */\n      sub\n        /* \"#utility.yul\":4950:4954   */\n      0x00\n        /* \"#utility.yul\":4945:4948   */\n      dup7\n        /* \"#utility.yul\":4941:4955   */\n      add\n        /* \"#utility.yul\":4934:4972   */\n      mstore\n        /* \"#utility.yul\":4993:5066   */\n      tag_544\n        /* \"#utility.yul\":5061:5065   */\n      dup3\n        /* \"#utility.yul\":5047:5059   */\n      dup3\n        /* \"#utility.yul\":4993:5066   */\n      tag_411\n      jump\t// in\n    tag_544:\n        /* \"#utility.yul\":4985:5066   */\n      swap2\n      pop\n        /* \"#utility.yul\":4835:5077   */\n      pop\n        /* \"#utility.yul\":5164:5168   */\n      0x20\n        /* \"#utility.yul\":5157:5162   */\n      dup4\n        /* \"#utility.yul\":5153:5169   */\n      add\n        /* \"#utility.yul\":5147:5170   */\n      mload\n        /* \"#utility.yul\":5183:5246   */\n      tag_545\n        /* \"#utility.yul\":5240:5244   */\n      0x20\n        /* \"#utility.yul\":5235:5238   */\n      dup7\n        /* \"#utility.yul\":5231:5245   */\n      add\n        /* \"#utility.yul\":5217:5229   */\n      dup3\n        /* \"#utility.yul\":5183:5246   */\n      tag_412\n      jump\t// in\n    tag_545:\n        /* \"#utility.yul\":5087:5256   */\n      pop\n        /* \"#utility.yul\":5273:5277   */\n      dup1\n        /* \"#utility.yul\":5266:5277   */\n      swap2\n      pop\n        /* \"#utility.yul\":4789:5283   */\n      pop\n        /* \"#utility.yul\":4675:5283   */\n      swap3\n      swap2\n      pop\n      pop\n      jump\t// out\n        /* \"#utility.yul\":5289:5545   */\n    tag_414:\n        /* \"#utility.yul\":5408:5418   */\n      0x00\n        /* \"#utility.yul\":5443:5539   */\n      tag_547\n        /* \"#utility.yul\":5535:5538   */\n      dup4\n        /* \"#utility.yul\":5527:5533   */\n      dup4\n        /* \"#utility.yul\":5443:5539   */\n      tag_413\n      jump\t// in\n    tag_547:\n        /* \"#utility.yul\":5429:5539   */\n      swap1\n      pop\n        /* \"#utility.yul\":5289:5545   */\n      swap3\n      swap2\n      pop\n      pop\n      jump\t// out\n        /* \"#utility.yul\":5551:5689   */\n    tag_415:\n        /* \"#utility.yul\":5646:5650   */\n      0x00\n        /* \"#utility.yul\":5678:5682   */\n      0x20\n        /* \"#utility.yul\":5673:5676   */\n      dup3\n        /* \"#utility.yul\":5669:5683   */\n      add\n        /* \"#utility.yul\":5661:5683   */\n      swap1\n      pop\n        /* \"#utility.yul\":5551:5689   */\n      swap2\n      swap1\n      pop\n      jump\t// out\n        /* \"#utility.yul\":5755:6866   */\n    tag_416:\n        /* \"#utility.yul\":5924:5927   */\n      0x00\n        /* \"#utility.yul\":5953:6032   */\n      tag_550\n        /* \"#utility.yul\":6026:6031   */\n      dup3\n        /* \"#utility.yul\":5953:6032   */\n      tag_407\n      jump\t// in\n    tag_550:\n        /* \"#utility.yul\":6048:6159   */\n      tag_551\n        /* \"#utility.yul\":6152:6158   */\n      dup2\n        /* \"#utility.yul\":6147:6150   */\n      dup6\n        /* \"#utility.yul\":6048:6159   */\n      tag_408\n      jump\t// in\n    tag_551:\n        /* \"#utility.yul\":6041:6159   */\n      swap4\n      pop\n        /* \"#utility.yul\":6185:6188   */\n      dup4\n        /* \"#utility.yul\":6230:6234   */\n      0x20\n        /* \"#utility.yul\":6222:6228   */\n      dup3\n        /* \"#utility.yul\":6218:6235   */\n      mul\n        /* \"#utility.yul\":6213:6216   */\n      dup6\n        /* \"#utility.yul\":6209:6236   */\n      add\n        /* \"#utility.yul\":6260:6341   */\n      tag_552\n        /* \"#utility.yul\":6335:6340   */\n      dup6\n        /* \"#utility.yul\":6260:6341   */\n      tag_409\n      jump\t// in\n    tag_552:\n        /* \"#utility.yul\":6364:6371   */\n      dup1\n        /* \"#utility.yul\":6395:6396   */\n      0x00\n        /* \"#utility.yul\":6380:6821   */\n    tag_553:\n        /* \"#utility.yul\":6405:6411   */\n      dup6\n        /* \"#utility.yul\":6402:6403   */\n      dup2\n        /* \"#utility.yul\":6399:6412   */\n      lt\n        /* \"#utility.yul\":6380:6821   */\n      iszero\n      tag_555\n      jumpi\n        /* \"#utility.yul\":6476:6485   */\n      dup5\n        /* \"#utility.yul\":6470:6474   */\n      dup5\n        /* \"#utility.yul\":6466:6486   */\n      sub\n        /* \"#utility.yul\":6461:6464   */\n      dup10\n        /* \"#utility.yul\":6454:6487   */\n      mstore\n        /* \"#utility.yul\":6527:6533   */\n      dup2\n        /* \"#utility.yul\":6521:6534   */\n      mload\n        /* \"#utility.yul\":6555:6669   */\n      tag_556\n        /* \"#utility.yul\":6664:6668   */\n      dup6\n        /* \"#utility.yul\":6649:6662   */\n      dup3\n        /* \"#utility.yul\":6555:6669   */\n      tag_414\n      jump\t// in\n    tag_556:\n        /* \"#utility.yul\":6547:6669   */\n      swap5\n      pop\n        /* \"#utility.yul\":6692:6777   */\n      tag_557\n        /* \"#utility.yul\":6770:6776   */\n      dup4\n        /* \"#utility.yul\":6692:6777   */\n      tag_415\n      jump\t// in\n    tag_557:\n        /* \"#utility.yul\":6682:6777   */\n      swap3\n      pop\n        /* \"#utility.yul\":6806:6810   */\n      0x20\n        /* \"#utility.yul\":6801:6804   */\n      dup11\n        /* \"#utility.yul\":6797:6811   */\n      add\n        /* \"#utility.yul\":6790:6811   */\n      swap10\n      pop\n        /* \"#utility.yul\":6440:6821   */\n      pop\n        /* \"#utility.yul\":6427:6428   */\n      0x01\n        /* \"#utility.yul\":6424:6425   */\n      dup2\n        /* \"#utility.yul\":6420:6429   */\n      add\n        /* \"#utility.yul\":6415:6429   */\n      swap1\n      pop\n        /* \"#utility.yul\":6380:6821   */\n      jump(tag_553)\n    tag_555:\n        /* \"#utility.yul\":6384:6398   */\n      pop\n        /* \"#utility.yul\":6837:6841   */\n      dup3\n        /* \"#utility.yul\":6830:6841   */\n      swap8\n      pop\n        /* \"#utility.yul\":6857:6860   */\n      dup8\n        /* \"#utility.yul\":6850:6860   */\n      swap6\n      pop\n        /* \"#utility.yul\":5929:6866   */\n      pop\n      pop\n      pop\n      pop\n      pop\n        /* \"#utility.yul\":5755:6866   */\n      swap3\n      swap2\n      pop\n      pop\n      jump\t// out\n        /* \"#utility.yul\":6872:7345   */\n    tag_53:\n        /* \"#utility.yul\":7065:7069   */\n      0x00\n        /* \"#utility.yul\":7103:7105   */\n      0x20\n        /* \"#utility.yul\":7092:7101   */\n      dup3\n        /* \"#utility.yul\":7088:7106   */\n      add\n        /* \"#utility.yul\":7080:7106   */\n      swap1\n      pop\n        /* \"#utility.yul\":7152:7161   */\n      dup2\n        /* \"#utility.yul\":7146:7150   */\n      dup2\n        /* \"#utility.yul\":7142:7162   */\n      sub\n        /* \"#utility.yul\":7138:7139   */\n      0x00\n        /* \"#utility.yul\":7127:7136   */\n      dup4\n        /* \"#utility.yul\":7123:7140   */\n      add\n        /* \"#utility.yul\":7116:7163   */\n      mstore\n        /* \"#utility.yul\":7180:7338   */\n      tag_559\n        /* \"#utility.yul\":7333:7337   */\n      dup2\n        /* \"#utility.yul\":7324:7330   */\n      dup5\n        /* \"#utility.yul\":7180:7338   */\n      tag_416\n      jump\t// in\n    tag_559:\n        /* \"#utility.yul\":7172:7338   */\n      swap1\n      pop\n        /* \"#utility.yul\":6872:7345   */\n      swap3\n      swap2\n      pop\n      pop\n      jump\t// out\n        /* \"#utility.yul\":7351:7531   */\n    tag_112:\n        /* \"#utility.yul\":7399:7476   */\n      0x4e487b7100000000000000000000000000000000000000000000000000000000\n        /* \"#utility.yul\":7396:7397   */\n      0x00\n        /* \"#utility.yul\":7389:7477   */\n      mstore\n        /* \"#utility.yul\":7496:7500   */\n      0x21\n        /* \"#utility.yul\":7493:7494   */\n      0x04\n        /* \"#utility.yul\":7486:7501   */\n      mstore\n        /* \"#utility.yul\":7520:7524   */\n      0x24\n        /* \"#utility.yul\":7517:7518   */\n      0x00\n        /* \"#utility.yul\":7510:7525   */\n      revert\n        /* \"#utility.yul\":7537:7660   */\n    tag_417:\n        /* \"#utility.yul\":7628:7629   */\n      0x06\n        /* \"#utility.yul\":7621:7626   */\n      dup2\n        /* \"#utility.yul\":7618:7630   */\n      lt\n        /* \"#utility.yul\":7608:7654   */\n      tag_562\n      jumpi\n        /* \"#utility.yul\":7634:7652   */\n      tag_563\n      tag_112\n      jump\t// in\n    tag_563:\n        /* \"#utility.yul\":7608:7654   */\n    tag_562:\n        /* \"#utility.yul\":7537:7660   */\n      pop\n      jump\t// out\n        /* \"#utility.yul\":7666:7813   */\n    tag_418:\n        /* \"#utility.yul\":7721:7728   */\n      0x00\n        /* \"#utility.yul\":7750:7755   */\n      dup2\n        /* \"#utility.yul\":7739:7755   */\n      swap1\n      pop\n        /* \"#utility.yul\":7756:7807   */\n      tag_565\n        /* \"#utility.yul\":7801:7806   */\n      dup3\n        /* \"#utility.yul\":7756:7807   */\n      tag_417\n      jump\t// in\n    tag_565:\n        /* \"#utility.yul\":7666:7813   */\n      swap2\n      swap1\n      pop\n      jump\t// out\n        /* \"#utility.yul\":7819:7966   */\n    tag_419:\n        /* \"#utility.yul\":7885:7894   */\n      0x00\n        /* \"#utility.yul\":7918:7960   */\n      tag_567\n        /* \"#utility.yul\":7954:7959   */\n      dup3\n        /* \"#utility.yul\":7918:7960   */\n      tag_418\n      jump\t// in\n    tag_567:\n        /* \"#utility.yul\":7905:7960   */\n      swap1\n      pop\n        /* \"#utility.yul\":7819:7966   */\n      swap2\n      swap1\n      pop\n      jump\t// out\n        /* \"#utility.yul\":7972:8135   */\n    tag_420:\n        /* \"#utility.yul\":8075:8128   */\n      tag_569\n        /* \"#utility.yul\":8122:8127   */\n      dup2\n        /* \"#utility.yul\":8075:8128   */\n      tag_419\n      jump\t// in\n    tag_569:\n        /* \"#utility.yul\":8070:8073   */\n      dup3\n        /* \"#utility.yul\":8063:8129   */\n      mstore\n        /* \"#utility.yul\":7972:8135   */\n      pop\n      pop\n      jump\t// out\n        /* \"#utility.yul\":8141:8395   */\n    tag_57:\n        /* \"#utility.yul\":8250:8254   */\n      0x00\n        /* \"#utility.yul\":8288:8290   */\n      0x20\n        /* \"#utility.yul\":8277:8286   */\n      dup3\n        /* \"#utility.yul\":8273:8291   */\n      add\n        /* \"#utility.yul\":8265:8291   */\n      swap1\n      pop\n        /* \"#utility.yul\":8301:8388   */\n      tag_571\n        /* \"#utility.yul\":8385:8386   */\n      0x00\n        /* \"#utility.yul\":8374:8383   */\n      dup4\n        /* \"#utility.yul\":8370:8387   */\n      add\n        /* \"#utility.yul\":8361:8367   */\n      dup5\n        /* \"#utility.yul\":8301:8388   */\n      tag_420\n      jump\t// in\n    tag_571:\n        /* \"#utility.yul\":8141:8395   */\n      swap3\n      swap2\n      pop\n      pop\n      jump\t// out\n        /* \"#utility.yul\":8457:9075   */\n    tag_421:\n        /* \"#utility.yul\":8576:8579   */\n      0x00\n        /* \"#utility.yul\":8612:8616   */\n      0x40\n        /* \"#utility.yul\":8607:8610   */\n      dup4\n        /* \"#utility.yul\":8603:8617   */\n      add\n        /* \"#utility.yul\":8706:8710   */\n      0x00\n        /* \"#utility.yul\":8699:8704   */\n      dup4\n        /* \"#utility.yul\":8695:8711   */\n      add\n        /* \"#utility.yul\":8689:8712   */\n      mload\n        /* \"#utility.yul\":8759:8762   */\n      dup5\n        /* \"#utility.yul\":8753:8757   */\n      dup3\n        /* \"#utility.yul\":8749:8763   */\n      sub\n        /* \"#utility.yul\":8742:8746   */\n      0x00\n        /* \"#utility.yul\":8737:8740   */\n      dup7\n        /* \"#utility.yul\":8733:8747   */\n      add\n        /* \"#utility.yul\":8726:8764   */\n      mstore\n        /* \"#utility.yul\":8785:8858   */\n      tag_573\n        /* \"#utility.yul\":8853:8857   */\n      dup3\n        /* \"#utility.yul\":8839:8851   */\n      dup3\n        /* \"#utility.yul\":8785:8858   */\n      tag_411\n      jump\t// in\n    tag_573:\n        /* \"#utility.yul\":8777:8858   */\n      swap2\n      pop\n        /* \"#utility.yul\":8627:8869   */\n      pop\n        /* \"#utility.yul\":8956:8960   */\n      0x20\n        /* \"#utility.yul\":8949:8954   */\n      dup4\n        /* \"#utility.yul\":8945:8961   */\n      add\n        /* \"#utility.yul\":8939:8962   */\n      mload\n        /* \"#utility.yul\":8975:9038   */\n      tag_574\n        /* \"#utility.yul\":9032:9036   */\n      0x20\n        /* \"#utility.yul\":9027:9030   */\n      dup7\n        /* \"#utility.yul\":9023:9037   */\n      add\n        /* \"#utility.yul\":9009:9021   */\n      dup3\n        /* \"#utility.yul\":8975:9038   */\n      tag_412\n      jump\t// in\n    tag_574:\n        /* \"#utility.yul\":8879:9048   */\n      pop\n        /* \"#utility.yul\":9065:9069   */\n      dup1\n        /* \"#utility.yul\":9058:9069   */\n      swap2\n      pop\n        /* \"#utility.yul\":8581:9075   */\n      pop\n        /* \"#utility.yul\":8457:9075   */\n      swap3\n      swap2\n      pop\n      pop\n      jump\t// out\n        /* \"#utility.yul\":9081:9454   */\n    tag_64:\n        /* \"#utility.yul\":9224:9228   */\n      0x00\n        /* \"#utility.yul\":9262:9264   */\n      0x20\n        /* \"#utility.yul\":9251:9260   */\n      dup3\n        /* \"#utility.yul\":9247:9265   */\n      add\n        /* \"#utility.yul\":9239:9265   */\n      swap1\n      pop\n        /* \"#utility.yul\":9311:9320   */\n      dup2\n        /* \"#utility.yul\":9305:9309   */\n      dup2\n        /* \"#utility.yul\":9301:9321   */\n      sub\n        /* \"#utility.yul\":9297:9298   */\n      0x00\n        /* \"#utility.yul\":9286:9295   */\n      dup4\n        /* \"#utility.yul\":9282:9299   */\n      add\n        /* \"#utility.yul\":9275:9322   */\n      mstore\n        /* \"#utility.yul\":9339:9447   */\n      tag_576\n        /* \"#utility.yul\":9442:9446   */\n      dup2\n        /* \"#utility.yul\":9433:9439   */\n      dup5\n        /* \"#utility.yul\":9339:9447   */\n      tag_421\n      jump\t// in\n    tag_576:\n        /* \"#utility.yul\":9331:9447   */\n      swap1\n      pop\n        /* \"#utility.yul\":9081:9454   */\n      swap3\n      swap2\n      pop\n      pop\n      jump\t// out\n        /* \"#utility.yul\":9460:9578   */\n    tag_422:\n        /* \"#utility.yul\":9547:9571   */\n      tag_578\n        /* \"#utility.yul\":9565:9570   */\n      dup2\n        /* \"#utility.yul\":9547:9571   */\n      tag_399\n      jump\t// in\n    tag_578:\n        /* \"#utility.yul\":9542:9545   */\n      dup3\n        /* \"#utility.yul\":9535:9572   */\n      mstore\n        /* \"#utility.yul\":9460:9578   */\n      pop\n      pop\n      jump\t// out\n        /* \"#utility.yul\":9584:9806   */\n    tag_68:\n        /* \"#utility.yul\":9677:9681   */\n      0x00\n        /* \"#utility.yul\":9715:9717   */\n      0x20\n        /* \"#utility.yul\":9704:9713   */\n      dup3\n        /* \"#utility.yul\":9700:9718   */\n      add\n        /* \"#utility.yul\":9692:9718   */\n      swap1\n      pop\n        /* \"#utility.yul\":9728:9799   */\n      tag_580\n        /* \"#utility.yul\":9796:9797   */\n      0x00\n        /* \"#utility.yul\":9785:9794   */\n      dup4\n        /* \"#utility.yul\":9781:9798   */\n      add\n        /* \"#utility.yul\":9772:9778   */\n      dup5\n        /* \"#utility.yul\":9728:9799   */\n      tag_422\n      jump\t// in\n    tag_580:\n        /* \"#utility.yul\":9584:9806   */\n      swap3\n      swap2\n      pop\n      pop\n      jump\t// out\n        /* \"#utility.yul\":9812:9929   */\n    tag_423:\n        /* \"#utility.yul\":9921:9922   */\n      0x00\n        /* \"#utility.yul\":9918:9919   */\n      0x00\n        /* \"#utility.yul\":9911:9923   */\n      revert\n        /* \"#utility.yul\":9935:10052   */\n    tag_424:\n        /* \"#utility.yul\":10044:10045   */\n      0x00\n        /* \"#utility.yul\":10041:10042   */\n      0x00\n        /* \"#utility.yul\":10034:10046   */\n      revert\n        /* \"#utility.yul\":10058:10238   */\n    tag_425:\n        /* \"#utility.yul\":10106:10183   */\n      0x4e487b7100000000000000000000000000000000000000000000000000000000\n        /* \"#utility.yul\":10103:10104   */\n      0x00\n        /* \"#utility.yul\":10096:10184   */\n      mstore\n        /* \"#utility.yul\":10203:10207   */\n      0x41\n        /* \"#utility.yul\":10200:10201   */\n      0x04\n        /* \"#utility.yul\":10193:10208   */\n      mstore\n        /* \"#utility.yul\":10227:10231   */\n      0x24\n        /* \"#utility.yul\":10224:10225   */\n      0x00\n        /* \"#utility.yul\":10217:10232   */\n      revert\n        /* \"#utility.yul\":10244:10525   */\n    tag_426:\n        /* \"#utility.yul\":10327:10354   */\n      tag_585\n        /* \"#utility.yul\":10349:10353   */\n      dup3\n        /* \"#utility.yul\":10327:10354   */\n      tag_405\n      jump\t// in\n    tag_585:\n        /* \"#utility.yul\":10319:10325   */\n      dup2\n        /* \"#utility.yul\":10315:10355   */\n      add\n        /* \"#utility.yul\":10457:10463   */\n      dup2\n        /* \"#utility.yul\":10445:10455   */\n      dup2\n        /* \"#utility.yul\":10442:10464   */\n      lt\n        /* \"#utility.yul\":10421:10439   */\n      0xffffffffffffffff\n        /* \"#utility.yul\":10409:10419   */\n      dup3\n        /* \"#utility.yul\":10406:10440   */\n      gt\n        /* \"#utility.yul\":10403:10465   */\n      or\n        /* \"#utility.yul\":10400:10488   */\n      iszero\n      tag_586\n      jumpi\n        /* \"#utility.yul\":10468:10486   */\n      tag_587\n      tag_425\n      jump\t// in\n    tag_587:\n        /* \"#utility.yul\":10400:10488   */\n    tag_586:\n        /* \"#utility.yul\":10508:10518   */\n      dup1\n        /* \"#utility.yul\":10504:10506   */\n      0x40\n        /* \"#utility.yul\":10497:10519   */\n      mstore\n        /* \"#utility.yul\":10287:10525   */\n      pop\n        /* \"#utility.yul\":10244:10525   */\n      pop\n      pop\n      jump\t// out\n        /* \"#utility.yul\":10531:10660   */\n    tag_427:\n        /* \"#utility.yul\":10565:10571   */\n      0x00\n        /* \"#utility.yul\":10592:10612   */\n      tag_589\n      tag_391\n      jump\t// in\n    tag_589:\n        /* \"#utility.yul\":10582:10612   */\n      swap1\n      pop\n        /* \"#utility.yul\":10621:10654   */\n      tag_590\n        /* \"#utility.yul\":10649:10653   */\n      dup3\n        /* \"#utility.yul\":10641:10647   */\n      dup3\n        /* \"#utility.yul\":10621:10654   */\n      tag_426\n      jump\t// in\n    tag_590:\n        /* \"#utility.yul\":10531:10660   */\n      swap2\n      swap1\n      pop\n      jump\t// out\n        /* \"#utility.yul\":10666:10974   */\n    tag_428:\n        /* \"#utility.yul\":10728:10732   */\n      0x00\n        /* \"#utility.yul\":10818:10836   */\n      0xffffffffffffffff\n        /* \"#utility.yul\":10810:10816   */\n      dup3\n        /* \"#utility.yul\":10807:10837   */\n      gt\n        /* \"#utility.yul\":10804:10860   */\n      iszero\n      tag_592\n      jumpi\n        /* \"#utility.yul\":10840:10858   */\n      tag_593\n      tag_425\n      jump\t// in\n    tag_593:\n        /* \"#utility.yul\":10804:10860   */\n    tag_592:\n        /* \"#utility.yul\":10878:10907   */\n      tag_594\n        /* \"#utility.yul\":10900:10906   */\n      dup3\n        /* \"#utility.yul\":10878:10907   */\n      tag_405\n      jump\t// in\n    tag_594:\n        /* \"#utility.yul\":10870:10907   */\n      swap1\n      pop\n        /* \"#utility.yul\":10962:10966   */\n      0x20\n        /* \"#utility.yul\":10956:10960   */\n      dup2\n        /* \"#utility.yul\":10952:10967   */\n      add\n        /* \"#utility.yul\":10944:10967   */\n      swap1\n      pop\n        /* \"#utility.yul\":10666:10974   */\n      swap2\n      swap1\n      pop\n      jump\t// out\n        /* \"#utility.yul\":10980:11128   */\n    tag_429:\n        /* \"#utility.yul\":11078:11084   */\n      dup3\n        /* \"#utility.yul\":11073:11076   */\n      dup2\n        /* \"#utility.yul\":11068:11071   */\n      dup4\n        /* \"#utility.yul\":11055:11085   */\n      calldatacopy\n        /* \"#utility.yul\":11119:11120   */\n      0x00\n        /* \"#utility.yul\":11110:11116   */\n      dup4\n        /* \"#utility.yul\":11105:11108   */\n      dup4\n        /* \"#utility.yul\":11101:11117   */\n      add\n        /* \"#utility.yul\":11094:11121   */\n      mstore\n        /* \"#utility.yul\":10980:11128   */\n      pop\n      pop\n      pop\n      jump\t// out\n        /* \"#utility.yul\":11134:11559   */\n    tag_430:\n        /* \"#utility.yul\":11212:11217   */\n      0x00\n        /* \"#utility.yul\":11237:11303   */\n      tag_597\n        /* \"#utility.yul\":11253:11302   */\n      tag_598\n        /* \"#utility.yul\":11295:11301   */\n      dup5\n        /* \"#utility.yul\":11253:11302   */\n      tag_428\n      jump\t// in\n    tag_598:\n        /* \"#utility.yul\":11237:11303   */\n      tag_427\n      jump\t// in\n    tag_597:\n        /* \"#utility.yul\":11228:11303   */\n      swap1\n      pop\n        /* \"#utility.yul\":11326:11332   */\n      dup3\n        /* \"#utility.yul\":11319:11324   */\n      dup2\n        /* \"#utility.yul\":11312:11333   */\n      mstore\n        /* \"#utility.yul\":11364:11368   */\n      0x20\n        /* \"#utility.yul\":11357:11362   */\n      dup2\n        /* \"#utility.yul\":11353:11369   */\n      add\n        /* \"#utility.yul\":11402:11405   */\n      dup5\n        /* \"#utility.yul\":11393:11399   */\n      dup5\n        /* \"#utility.yul\":11388:11391   */\n      dup5\n        /* \"#utility.yul\":11384:11400   */\n      add\n        /* \"#utility.yul\":11381:11406   */\n      gt\n        /* \"#utility.yul\":11378:11490   */\n      iszero\n      tag_599\n      jumpi\n        /* \"#utility.yul\":11409:11488   */\n      tag_600\n      tag_424\n      jump\t// in\n    tag_600:\n        /* \"#utility.yul\":11378:11490   */\n    tag_599:\n        /* \"#utility.yul\":11499:11553   */\n      tag_601\n        /* \"#utility.yul\":11546:11552   */\n      dup5\n        /* \"#utility.yul\":11541:11544   */\n      dup3\n        /* \"#utility.yul\":11536:11539   */\n      dup6\n        /* \"#utility.yul\":11499:11553   */\n      tag_429\n      jump\t// in\n    tag_601:\n        /* \"#utility.yul\":11218:11559   */\n      pop\n        /* \"#utility.yul\":11134:11559   */\n      swap4\n      swap3\n      pop\n      pop\n      pop\n      jump\t// out\n        /* \"#utility.yul\":11579:11919   */\n    tag_431:\n        /* \"#utility.yul\":11635:11640   */\n      0x00\n        /* \"#utility.yul\":11684:11687   */\n      dup3\n        /* \"#utility.yul\":11677:11681   */\n      0x1f\n        /* \"#utility.yul\":11669:11675   */\n      dup4\n        /* \"#utility.yul\":11665:11682   */\n      add\n        /* \"#utility.yul\":11661:11688   */\n      slt\n        /* \"#utility.yul\":11651:11773   */\n      tag_603\n      jumpi\n        /* \"#utility.yul\":11692:11771   */\n      tag_604\n      tag_423\n      jump\t// in\n    tag_604:\n        /* \"#utility.yul\":11651:11773   */\n    tag_603:\n        /* \"#utility.yul\":11809:11815   */\n      dup2\n        /* \"#utility.yul\":11796:11816   */\n      calldataload\n        /* \"#utility.yul\":11834:11913   */\n      tag_605\n        /* \"#utility.yul\":11909:11912   */\n      dup5\n        /* \"#utility.yul\":11901:11907   */\n      dup3\n        /* \"#utility.yul\":11894:11898   */\n      0x20\n        /* \"#utility.yul\":11886:11892   */\n      dup7\n        /* \"#utility.yul\":11882:11899   */\n      add\n        /* \"#utility.yul\":11834:11913   */\n      tag_430\n      jump\t// in\n    tag_605:\n        /* \"#utility.yul\":11825:11913   */\n      swap2\n      pop\n        /* \"#utility.yul\":11641:11919   */\n      pop\n        /* \"#utility.yul\":11579:11919   */\n      swap3\n      swap2\n      pop\n      pop\n      jump\t// out\n        /* \"#utility.yul\":11925:12434   */\n    tag_83:\n        /* \"#utility.yul\":11994:12000   */\n      0x00\n        /* \"#utility.yul\":12043:12045   */\n      0x20\n        /* \"#utility.yul\":12031:12040   */\n      dup3\n        /* \"#utility.yul\":12022:12029   */\n      dup5\n        /* \"#utility.yul\":12018:12041   */\n      sub\n        /* \"#utility.yul\":12014:12046   */\n      slt\n        /* \"#utility.yul\":12011:12130   */\n      iszero\n      tag_607\n      jumpi\n        /* \"#utility.yul\":12049:12128   */\n      tag_608\n      tag_392\n      jump\t// in\n    tag_608:\n        /* \"#utility.yul\":12011:12130   */\n    tag_607:\n        /* \"#utility.yul\":12197:12198   */\n      0x00\n        /* \"#utility.yul\":12186:12195   */\n      dup3\n        /* \"#utility.yul\":12182:12199   */\n      add\n        /* \"#utility.yul\":12169:12200   */\n      calldataload\n        /* \"#utility.yul\":12227:12245   */\n      0xffffffffffffffff\n        /* \"#utility.yul\":12219:12225   */\n      dup2\n        /* \"#utility.yul\":12216:12246   */\n      gt\n        /* \"#utility.yul\":12213:12330   */\n      iszero\n      tag_609\n      jumpi\n        /* \"#utility.yul\":12249:12328   */\n      tag_610\n      tag_393\n      jump\t// in\n    tag_610:\n        /* \"#utility.yul\":12213:12330   */\n    tag_609:\n        /* \"#utility.yul\":12354:12417   */\n      tag_611\n        /* \"#utility.yul\":12409:12416   */\n      dup5\n        /* \"#utility.yul\":12400:12406   */\n      dup3\n        /* \"#utility.yul\":12389:12398   */\n      dup6\n        /* \"#utility.yul\":12385:12407   */\n      add\n        /* \"#utility.yul\":12354:12417   */\n      tag_431\n      jump\t// in\n    tag_611:\n        /* \"#utility.yul\":12344:12417   */\n      swap2\n      pop\n        /* \"#utility.yul\":12140:12427   */\n      pop\n        /* \"#utility.yul\":11925:12434   */\n      swap3\n      swap2\n      pop\n      pop\n      jump\t// out\n        /* \"#utility.yul\":12440:12675   */\n    tag_432:\n        /* \"#utility.yul\":12580:12614   */\n      0x596f752063616e206f6e6c7920766f7465206966207468657265206973206d6f\n        /* \"#utility.yul\":12576:12577   */\n      0x00\n        /* \"#utility.yul\":12568:12574   */\n      dup3\n        /* \"#utility.yul\":12564:12578   */\n      add\n        /* \"#utility.yul\":12557:12615   */\n      mstore\n        /* \"#utility.yul\":12649:12667   */\n      0x7265207468616e20312077696e6e657200000000000000000000000000000000\n        /* \"#utility.yul\":12644:12646   */\n      0x20\n        /* \"#utility.yul\":12636:12642   */\n      dup3\n        /* \"#utility.yul\":12632:12647   */\n      add\n        /* \"#utility.yul\":12625:12668   */\n      mstore\n        /* \"#utility.yul\":12440:12675   */\n      pop\n      jump\t// out\n        /* \"#utility.yul\":12681:13047   */\n    tag_433:\n        /* \"#utility.yul\":12823:12826   */\n      0x00\n        /* \"#utility.yul\":12844:12911   */\n      tag_614\n        /* \"#utility.yul\":12908:12910   */\n      0x30\n        /* \"#utility.yul\":12903:12906   */\n      dup4\n        /* \"#utility.yul\":12844:12911   */\n      tag_403\n      jump\t// in\n    tag_614:\n        /* \"#utility.yul\":12837:12911   */\n      swap2\n      pop\n        /* \"#utility.yul\":12920:13013   */\n      tag_615\n        /* \"#utility.yul\":13009:13012   */\n      dup3\n        /* \"#utility.yul\":12920:13013   */\n      tag_432\n      jump\t// in\n    tag_615:\n        /* \"#utility.yul\":13038:13040   */\n      0x40\n        /* \"#utility.yul\":13033:13036   */\n      dup3\n        /* \"#utility.yul\":13029:13041   */\n      add\n        /* \"#utility.yul\":13022:13041   */\n      swap1\n      pop\n        /* \"#utility.yul\":12681:13047   */\n      swap2\n      swap1\n      pop\n      jump\t// out\n        /* \"#utility.yul\":13053:13472   */\n    tag_108:\n        /* \"#utility.yul\":13219:13223   */\n      0x00\n        /* \"#utility.yul\":13257:13259   */\n      0x20\n        /* \"#utility.yul\":13246:13255   */\n      dup3\n        /* \"#utility.yul\":13242:13260   */\n      add\n        /* \"#utility.yul\":13234:13260   */\n      swap1\n      pop\n        /* \"#utility.yul\":13306:13315   */\n      dup2\n        /* \"#utility.yul\":13300:13304   */\n      dup2\n        /* \"#utility.yul\":13296:13316   */\n      sub\n        /* \"#utility.yul\":13292:13293   */\n      0x00\n        /* \"#utility.yul\":13281:13290   */\n      dup4\n        /* \"#utility.yul\":13277:13294   */\n      add\n        /* \"#utility.yul\":13270:13317   */\n      mstore\n        /* \"#utility.yul\":13334:13465   */\n      tag_617\n        /* \"#utility.yul\":13460:13464   */\n      dup2\n        /* \"#utility.yul\":13334:13465   */\n      tag_433\n      jump\t// in\n    tag_617:\n        /* \"#utility.yul\":13326:13465   */\n      swap1\n      pop\n        /* \"#utility.yul\":13053:13472   */\n      swap2\n      swap1\n      pop\n      jump\t// out\n        /* \"#utility.yul\":13478:13698   */\n    tag_434:\n        /* \"#utility.yul\":13618:13652   */\n      0x54686520766f74696e672073657373696f6e206973206e6f7420737461727465\n        /* \"#utility.yul\":13614:13615   */\n      0x00\n        /* \"#utility.yul\":13606:13612   */\n      dup3\n        /* \"#utility.yul\":13602:13616   */\n      add\n        /* \"#utility.yul\":13595:13653   */\n      mstore\n        /* \"#utility.yul\":13687:13690   */\n      0x6400000000000000000000000000000000000000000000000000000000000000\n        /* \"#utility.yul\":13682:13684   */\n      0x20\n        /* \"#utility.yul\":13674:13680   */\n      dup3\n        /* \"#utility.yul\":13670:13685   */\n      add\n        /* \"#utility.yul\":13663:13691   */\n      mstore\n        /* \"#utility.yul\":13478:13698   */\n      pop\n      jump\t// out\n        /* \"#utility.yul\":13704:14070   */\n    tag_435:\n        /* \"#utility.yul\":13846:13849   */\n      0x00\n        /* \"#utility.yul\":13867:13934   */\n      tag_620\n        /* \"#utility.yul\":13931:13933   */\n      0x21\n        /* \"#utility.yul\":13926:13929   */\n      dup4\n        /* \"#utility.yul\":13867:13934   */\n      tag_403\n      jump\t// in\n    tag_620:\n        /* \"#utility.yul\":13860:13934   */\n      swap2\n      pop\n        /* \"#utility.yul\":13943:14036   */\n      tag_621\n        /* \"#utility.yul\":14032:14035   */\n      dup3\n        /* \"#utility.yul\":13943:14036   */\n      tag_434\n      jump\t// in\n    tag_621:\n        /* \"#utility.yul\":14061:14063   */\n      0x40\n        /* \"#utility.yul\":14056:14059   */\n      dup3\n        /* \"#utility.yul\":14052:14064   */\n      add\n        /* \"#utility.yul\":14045:14064   */\n      swap1\n      pop\n        /* \"#utility.yul\":13704:14070   */\n      swap2\n      swap1\n      pop\n      jump\t// out\n        /* \"#utility.yul\":14076:14495   */\n    tag_117:\n        /* \"#utility.yul\":14242:14246   */\n      0x00\n        /* \"#utility.yul\":14280:14282   */\n      0x20\n        /* \"#utility.yul\":14269:14278   */\n      dup3\n        /* \"#utility.yul\":14265:14283   */\n      add\n        /* \"#utility.yul\":14257:14283   */\n      swap1\n      pop\n        /* \"#utility.yul\":14329:14338   */\n      dup2\n        /* \"#utility.yul\":14323:14327   */\n      dup2\n        /* \"#utility.yul\":14319:14339   */\n      sub\n        /* \"#utility.yul\":14315:14316   */\n      0x00\n        /* \"#utility.yul\":14304:14313   */\n      dup4\n        /* \"#utility.yul\":14300:14317   */\n      add\n        /* \"#utility.yul\":14293:14340   */\n      mstore\n        /* \"#utility.yul\":14357:14488   */\n      tag_623\n        /* \"#utility.yul\":14483:14487   */\n      dup2\n        /* \"#utility.yul\":14357:14488   */\n      tag_435\n      jump\t// in\n    tag_623:\n        /* \"#utility.yul\":14349:14488   */\n      swap1\n      pop\n        /* \"#utility.yul\":14076:14495   */\n      swap2\n      swap1\n      pop\n      jump\t// out\n        /* \"#utility.yul\":14501:14673   */\n    tag_436:\n        /* \"#utility.yul\":14641:14665   */\n      0x596f7520617265206e6f74207265676973746572656400000000000000000000\n        /* \"#utility.yul\":14637:14638   */\n      0x00\n        /* \"#utility.yul\":14629:14635   */\n      dup3\n        /* \"#utility.yul\":14625:14639   */\n      add\n        /* \"#utility.yul\":14618:14666   */\n      mstore\n        /* \"#utility.yul\":14501:14673   */\n      pop\n      jump\t// out\n        /* \"#utility.yul\":14679:15045   */\n    tag_437:\n        /* \"#utility.yul\":14821:14824   */\n      0x00\n        /* \"#utility.yul\":14842:14909   */\n      tag_626\n        /* \"#utility.yul\":14906:14908   */\n      0x16\n        /* \"#utility.yul\":14901:14904   */\n      dup4\n        /* \"#utility.yul\":14842:14909   */\n      tag_403\n      jump\t// in\n    tag_626:\n        /* \"#utility.yul\":14835:14909   */\n      swap2\n      pop\n        /* \"#utility.yul\":14918:15011   */\n      tag_627\n        /* \"#utility.yul\":15007:15010   */\n      dup3\n        /* \"#utility.yul\":14918:15011   */\n      tag_436\n      jump\t// in\n    tag_627:\n        /* \"#utility.yul\":15036:15038   */\n      0x20\n        /* \"#utility.yul\":15031:15034   */\n      dup3\n        /* \"#utility.yul\":15027:15039   */\n      add\n        /* \"#utility.yul\":15020:15039   */\n      swap1\n      pop\n        /* \"#utility.yul\":14679:15045   */\n      swap2\n      swap1\n      pop\n      jump\t// out\n        /* \"#utility.yul\":15051:15470   */\n    tag_120:\n        /* \"#utility.yul\":15217:15221   */\n      0x00\n        /* \"#utility.yul\":15255:15257   */\n      0x20\n        /* \"#utility.yul\":15244:15253   */\n      dup3\n        /* \"#utility.yul\":15240:15258   */\n      add\n        /* \"#utility.yul\":15232:15258   */\n      swap1\n      pop\n        /* \"#utility.yul\":15304:15313   */\n      dup2\n        /* \"#utility.yul\":15298:15302   */\n      dup2\n        /* \"#utility.yul\":15294:15314   */\n      sub\n        /* \"#utility.yul\":15290:15291   */\n      0x00\n        /* \"#utility.yul\":15279:15288   */\n      dup4\n        /* \"#utility.yul\":15275:15292   */\n      add\n        /* \"#utility.yul\":15268:15315   */\n      mstore\n        /* \"#utility.yul\":15332:15463   */\n      tag_629\n        /* \"#utility.yul\":15458:15462   */\n      dup2\n        /* \"#utility.yul\":15332:15463   */\n      tag_437\n      jump\t// in\n    tag_629:\n        /* \"#utility.yul\":15324:15463   */\n      swap1\n      pop\n        /* \"#utility.yul\":15051:15470   */\n      swap2\n      swap1\n      pop\n      jump\t// out\n        /* \"#utility.yul\":15476:15643   */\n    tag_438:\n        /* \"#utility.yul\":15616:15635   */\n      0x596f7520616c726561647920766f746564000000000000000000000000000000\n        /* \"#utility.yul\":15612:15613   */\n      0x00\n        /* \"#utility.yul\":15604:15610   */\n      dup3\n        /* \"#utility.yul\":15600:15614   */\n      add\n        /* \"#utility.yul\":15593:15636   */\n      mstore\n        /* \"#utility.yul\":15476:15643   */\n      pop\n      jump\t// out\n        /* \"#utility.yul\":15649:16015   */\n    tag_439:\n        /* \"#utility.yul\":15791:15794   */\n      0x00\n        /* \"#utility.yul\":15812:15879   */\n      tag_632\n        /* \"#utility.yul\":15876:15878   */\n      0x11\n        /* \"#utility.yul\":15871:15874   */\n      dup4\n        /* \"#utility.yul\":15812:15879   */\n      tag_403\n      jump\t// in\n    tag_632:\n        /* \"#utility.yul\":15805:15879   */\n      swap2\n      pop\n        /* \"#utility.yul\":15888:15981   */\n      tag_633\n        /* \"#utility.yul\":15977:15980   */\n      dup3\n        /* \"#utility.yul\":15888:15981   */\n      tag_438\n      jump\t// in\n    tag_633:\n        /* \"#utility.yul\":16006:16008   */\n      0x20\n        /* \"#utility.yul\":16001:16004   */\n      dup3\n        /* \"#utility.yul\":15997:16009   */\n      add\n        /* \"#utility.yul\":15990:16009   */\n      swap1\n      pop\n        /* \"#utility.yul\":15649:16015   */\n      swap2\n      swap1\n      pop\n      jump\t// out\n        /* \"#utility.yul\":16021:16440   */\n    tag_123:\n        /* \"#utility.yul\":16187:16191   */\n      0x00\n        /* \"#utility.yul\":16225:16227   */\n      0x20\n        /* \"#utility.yul\":16214:16223   */\n      dup3\n        /* \"#utility.yul\":16210:16228   */\n      add\n        /* \"#utility.yul\":16202:16228   */\n      swap1\n      pop\n        /* \"#utility.yul\":16274:16283   */\n      dup2\n        /* \"#utility.yul\":16268:16272   */\n      dup2\n        /* \"#utility.yul\":16264:16284   */\n      sub\n        /* \"#utility.yul\":16260:16261   */\n      0x00\n        /* \"#utility.yul\":16249:16258   */\n      dup4\n        /* \"#utility.yul\":16245:16262   */\n      add\n        /* \"#utility.yul\":16238:16285   */\n      mstore\n        /* \"#utility.yul\":16302:16433   */\n      tag_635\n        /* \"#utility.yul\":16428:16432   */\n      dup2\n        /* \"#utility.yul\":16302:16433   */\n      tag_439\n      jump\t// in\n    tag_635:\n        /* \"#utility.yul\":16294:16433   */\n      swap1\n      pop\n        /* \"#utility.yul\":16021:16440   */\n      swap2\n      swap1\n      pop\n      jump\t// out\n        /* \"#utility.yul\":16446:16628   */\n    tag_440:\n        /* \"#utility.yul\":16586:16620   */\n      0x546869732070726f706f73616c20494420646f6573206e6f7420657869737473\n        /* \"#utility.yul\":16582:16583   */\n      0x00\n        /* \"#utility.yul\":16574:16580   */\n      dup3\n        /* \"#utility.yul\":16570:16584   */\n      add\n        /* \"#utility.yul\":16563:16621   */\n      mstore\n        /* \"#utility.yul\":16446:16628   */\n      pop\n      jump\t// out\n        /* \"#utility.yul\":16634:17000   */\n    tag_441:\n        /* \"#utility.yul\":16776:16779   */\n      0x00\n        /* \"#utility.yul\":16797:16864   */\n      tag_638\n        /* \"#utility.yul\":16861:16863   */\n      0x20\n        /* \"#utility.yul\":16856:16859   */\n      dup4\n        /* \"#utility.yul\":16797:16864   */\n      tag_403\n      jump\t// in\n    tag_638:\n        /* \"#utility.yul\":16790:16864   */\n      swap2\n      pop\n        /* \"#utility.yul\":16873:16966   */\n      tag_639\n        /* \"#utility.yul\":16962:16965   */\n      dup3\n        /* \"#utility.yul\":16873:16966   */\n      tag_440\n      jump\t// in\n    tag_639:\n        /* \"#utility.yul\":16991:16993   */\n      0x20\n        /* \"#utility.yul\":16986:16989   */\n      dup3\n        /* \"#utility.yul\":16982:16994   */\n      add\n        /* \"#utility.yul\":16975:16994   */\n      swap1\n      pop\n        /* \"#utility.yul\":16634:17000   */\n      swap2\n      swap1\n      pop\n      jump\t// out\n        /* \"#utility.yul\":17006:17425   */\n    tag_127:\n        /* \"#utility.yul\":17172:17176   */\n      0x00\n        /* \"#utility.yul\":17210:17212   */\n      0x20\n        /* \"#utility.yul\":17199:17208   */\n      dup3\n        /* \"#utility.yul\":17195:17213   */\n      add\n        /* \"#utility.yul\":17187:17213   */\n      swap1\n      pop\n        /* \"#utility.yul\":17259:17268   */\n      dup2\n        /* \"#utility.yul\":17253:17257   */\n      dup2\n        /* \"#utility.yul\":17249:17269   */\n      sub\n        /* \"#utility.yul\":17245:17246   */\n      0x00\n        /* \"#utility.yul\":17234:17243   */\n      dup4\n        /* \"#utility.yul\":17230:17247   */\n      add\n        /* \"#utility.yul\":17223:17270   */\n      mstore\n        /* \"#utility.yul\":17287:17418   */\n      tag_641\n        /* \"#utility.yul\":17413:17417   */\n      dup2\n        /* \"#utility.yul\":17287:17418   */\n      tag_441\n      jump\t// in\n    tag_641:\n        /* \"#utility.yul\":17279:17418   */\n      swap1\n      pop\n        /* \"#utility.yul\":17006:17425   */\n      swap2\n      swap1\n      pop\n      jump\t// out\n        /* \"#utility.yul\":17431:17611   */\n    tag_130:\n        /* \"#utility.yul\":17479:17556   */\n      0x4e487b7100000000000000000000000000000000000000000000000000000000\n        /* \"#utility.yul\":17476:17477   */\n      0x00\n        /* \"#utility.yul\":17469:17557   */\n      mstore\n        /* \"#utility.yul\":17576:17580   */\n      0x32\n        /* \"#utility.yul\":17573:17574   */\n      0x04\n        /* \"#utility.yul\":17566:17581   */\n      mstore\n        /* \"#utility.yul\":17600:17604   */\n      0x24\n        /* \"#utility.yul\":17597:17598   */\n      0x00\n        /* \"#utility.yul\":17590:17605   */\n      revert\n        /* \"#utility.yul\":17617:17797   */\n    tag_442:\n        /* \"#utility.yul\":17665:17742   */\n      0x4e487b7100000000000000000000000000000000000000000000000000000000\n        /* \"#utility.yul\":17662:17663   */\n      0x00\n        /* \"#utility.yul\":17655:17743   */\n      mstore\n        /* \"#utility.yul\":17762:17766   */\n      0x11\n        /* \"#utility.yul\":17759:17760   */\n      0x04\n        /* \"#utility.yul\":17752:17767   */\n      mstore\n        /* \"#utility.yul\":17786:17790   */\n      0x24\n        /* \"#utility.yul\":17783:17784   */\n      0x00\n        /* \"#utility.yul\":17776:17791   */\n      revert\n        /* \"#utility.yul\":17803:18036   */\n    tag_133:\n        /* \"#utility.yul\":17842:17845   */\n      0x00\n        /* \"#utility.yul\":17865:17889   */\n      tag_645\n        /* \"#utility.yul\":17883:17888   */\n      dup3\n        /* \"#utility.yul\":17865:17889   */\n      tag_394\n      jump\t// in\n    tag_645:\n        /* \"#utility.yul\":17856:17889   */\n      swap2\n      pop\n        /* \"#utility.yul\":17911:17977   */\n      0xffffffffffffffffffffffffffffffffffffffffffffffffffffffffffffffff\n        /* \"#utility.yul\":17904:17909   */\n      dup3\n        /* \"#utility.yul\":17901:17978   */\n      sub\n        /* \"#utility.yul\":17898:18001   */\n      tag_646\n      jumpi\n        /* \"#utility.yul\":17981:17999   */\n      tag_647\n      tag_442\n      jump\t// in\n    tag_647:\n        /* \"#utility.yul\":17898:18001   */\n    tag_646:\n        /* \"#utility.yul\":18028:18029   */\n      0x01\n        /* \"#utility.yul\":18021:18026   */\n      dup3\n        /* \"#utility.yul\":18017:18030   */\n      add\n        /* \"#utility.yul\":18010:18030   */\n      swap1\n      pop\n        /* \"#utility.yul\":17803:18036   */\n      swap2\n      swap1\n      pop\n      jump\t// out\n        /* \"#utility.yul\":18042:18374   */\n    tag_136:\n        /* \"#utility.yul\":18163:18167   */\n      0x00\n        /* \"#utility.yul\":18201:18203   */\n      0x40\n        /* \"#utility.yul\":18190:18199   */\n      dup3\n        /* \"#utility.yul\":18186:18204   */\n      add\n        /* \"#utility.yul\":18178:18204   */\n      swap1\n      pop\n        /* \"#utility.yul\":18214:18285   */\n      tag_649\n        /* \"#utility.yul\":18282:18283   */\n      0x00\n        /* \"#utility.yul\":18271:18280   */\n      dup4\n        /* \"#utility.yul\":18267:18284   */\n      add\n        /* \"#utility.yul\":18258:18264   */\n      dup6\n        /* \"#utility.yul\":18214:18285   */\n      tag_422\n      jump\t// in\n    tag_649:\n        /* \"#utility.yul\":18295:18367   */\n      tag_650\n        /* \"#utility.yul\":18363:18365   */\n      0x20\n        /* \"#utility.yul\":18352:18361   */\n      dup4\n        /* \"#utility.yul\":18348:18366   */\n      add\n        /* \"#utility.yul\":18339:18345   */\n      dup5\n        /* \"#utility.yul\":18295:18367   */\n      tag_397\n      jump\t// in\n    tag_650:\n        /* \"#utility.yul\":18042:18374   */\n      swap4\n      swap3\n      pop\n      pop\n      pop\n      jump\t// out\n        /* \"#utility.yul\":18380:18607   */\n    tag_443:\n        /* \"#utility.yul\":18520:18554   */\n      0x596f7520617265206e6f7420696e20766f74657220726567697374726174696f\n        /* \"#utility.yul\":18516:18517   */\n      0x00\n        /* \"#utility.yul\":18508:18514   */\n      dup3\n        /* \"#utility.yul\":18504:18518   */\n      add\n        /* \"#utility.yul\":18497:18555   */\n      mstore\n        /* \"#utility.yul\":18589:18599   */\n      0x6e20706572696f64000000000000000000000000000000000000000000000000\n        /* \"#utility.yul\":18584:18586   */\n      0x20\n        /* \"#utility.yul\":18576:18582   */\n      dup3\n        /* \"#utility.yul\":18572:18587   */\n      add\n        /* \"#utility.yul\":18565:18600   */\n      mstore\n        /* \"#utility.yul\":18380:18607   */\n      pop\n      jump\t// out\n        /* \"#utility.yul\":18613:18979   */\n    tag_444:\n        /* \"#utility.yul\":18755:18758   */\n      0x00\n        /* \"#utility.yul\":18776:18843   */\n      tag_653\n        /* \"#utility.yul\":18840:18842   */\n      0x28\n        /* \"#utility.yul\":18835:18838   */\n      dup4\n        /* \"#utility.yul\":18776:18843   */\n      tag_403\n      jump\t// in\n    tag_653:\n        /* \"#utility.yul\":18769:18843   */\n      swap2\n      pop\n        /* \"#utility.yul\":18852:18945   */\n      tag_654\n        /* \"#utility.yul\":18941:18944   */\n      dup3\n        /* \"#utility.yul\":18852:18945   */\n      tag_443\n      jump\t// in\n    tag_654:\n        /* \"#utility.yul\":18970:18972   */\n      0x40\n        /* \"#utility.yul\":18965:18968   */\n      dup3\n        /* \"#utility.yul\":18961:18973   */\n      add\n        /* \"#utility.yul\":18954:18973   */\n      swap1\n      pop\n        /* \"#utility.yul\":18613:18979   */\n      swap2\n      swap1\n      pop\n      jump\t// out\n        /* \"#utility.yul\":18985:19404   */\n    tag_148:\n        /* \"#utility.yul\":19151:19155   */\n      0x00\n        /* \"#utility.yul\":19189:19191   */\n      0x20\n        /* \"#utility.yul\":19178:19187   */\n      dup3\n        /* \"#utility.yul\":19174:19192   */\n      add\n        /* \"#utility.yul\":19166:19192   */\n      swap1\n      pop\n        /* \"#utility.yul\":19238:19247   */\n      dup2\n        /* \"#utility.yul\":19232:19236   */\n      dup2\n        /* \"#utility.yul\":19228:19248   */\n      sub\n        /* \"#utility.yul\":19224:19225   */\n      0x00\n        /* \"#utility.yul\":19213:19222   */\n      dup4\n        /* \"#utility.yul\":19209:19226   */\n      add\n        /* \"#utility.yul\":19202:19249   */\n      mstore\n        /* \"#utility.yul\":19266:19397   */\n      tag_656\n        /* \"#utility.yul\":19392:19396   */\n      dup2\n        /* \"#utility.yul\":19266:19397   */\n      tag_444\n      jump\t// in\n    tag_656:\n        /* \"#utility.yul\":19258:19397   */\n      swap1\n      pop\n        /* \"#utility.yul\":18985:19404   */\n      swap2\n      swap1\n      pop\n      jump\t// out\n        /* \"#utility.yul\":19410:19592   */\n    tag_445:\n        /* \"#utility.yul\":19550:19584   */\n      0x596f7520616c7265616479206861766520616464207468697320616472657373\n        /* \"#utility.yul\":19546:19547   */\n      0x00\n        /* \"#utility.yul\":19538:19544   */\n      dup3\n        /* \"#utility.yul\":19534:19548   */\n      add\n        /* \"#utility.yul\":19527:19585   */\n      mstore\n        /* \"#utility.yul\":19410:19592   */\n      pop\n      jump\t// out\n        /* \"#utility.yul\":19598:19964   */\n    tag_446:\n        /* \"#utility.yul\":19740:19743   */\n      0x00\n        /* \"#utility.yul\":19761:19828   */\n      tag_659\n        /* \"#utility.yul\":19825:19827   */\n      0x20\n        /* \"#utility.yul\":19820:19823   */\n      dup4\n        /* \"#utility.yul\":19761:19828   */\n      tag_403\n      jump\t// in\n    tag_659:\n        /* \"#utility.yul\":19754:19828   */\n      swap2\n      pop\n        /* \"#utility.yul\":19837:19930   */\n      tag_660\n        /* \"#utility.yul\":19926:19929   */\n      dup3\n        /* \"#utility.yul\":19837:19930   */\n      tag_445\n      jump\t// in\n    tag_660:\n        /* \"#utility.yul\":19955:19957   */\n      0x20\n        /* \"#utility.yul\":19950:19953   */\n      dup3\n        /* \"#utility.yul\":19946:19958   */\n      add\n        /* \"#utility.yul\":19939:19958   */\n      swap1\n      pop\n        /* \"#utility.yul\":19598:19964   */\n      swap2\n      swap1\n      pop\n      jump\t// out\n        /* \"#utility.yul\":19970:20389   */\n    tag_151:\n        /* \"#utility.yul\":20136:20140   */\n      0x00\n        /* \"#utility.yul\":20174:20176   */\n      0x20\n        /* \"#utility.yul\":20163:20172   */\n      dup3\n        /* \"#utility.yul\":20159:20177   */\n      add\n        /* \"#utility.yul\":20151:20177   */\n      swap1\n      pop\n        /* \"#utility.yul\":20223:20232   */\n      dup2\n        /* \"#utility.yul\":20217:20221   */\n      dup2\n        /* \"#utility.yul\":20213:20233   */\n      sub\n        /* \"#utility.yul\":20209:20210   */\n      0x00\n        /* \"#utility.yul\":20198:20207   */\n      dup4\n        /* \"#utility.yul\":20194:20211   */\n      add\n        /* \"#utility.yul\":20187:20234   */\n      mstore\n        /* \"#utility.yul\":20251:20382   */\n      tag_662\n        /* \"#utility.yul\":20377:20381   */\n      dup2\n        /* \"#utility.yul\":20251:20382   */\n      tag_446\n      jump\t// in\n    tag_662:\n        /* \"#utility.yul\":20243:20382   */\n      swap1\n      pop\n        /* \"#utility.yul\":19970:20389   */\n      swap2\n      swap1\n      pop\n      jump\t// out\n        /* \"#utility.yul\":20395:20618   */\n    tag_447:\n        /* \"#utility.yul\":20535:20569   */\n      0x5468652077696e6e65722068617665206e6f74206265656e2063686f6f73656e\n        /* \"#utility.yul\":20531:20532   */\n      0x00\n        /* \"#utility.yul\":20523:20529   */\n      dup3\n        /* \"#utility.yul\":20519:20533   */\n      add\n        /* \"#utility.yul\":20512:20570   */\n      mstore\n        /* \"#utility.yul\":20604:20610   */\n      0x2079657400000000000000000000000000000000000000000000000000000000\n        /* \"#utility.yul\":20599:20601   */\n      0x20\n        /* \"#utility.yul\":20591:20597   */\n      dup3\n        /* \"#utility.yul\":20587:20602   */\n      add\n        /* \"#utility.yul\":20580:20611   */\n      mstore\n        /* \"#utility.yul\":20395:20618   */\n      pop\n      jump\t// out\n        /* \"#utility.yul\":20624:20990   */\n    tag_448:\n        /* \"#utility.yul\":20766:20769   */\n      0x00\n        /* \"#utility.yul\":20787:20854   */\n      tag_665\n        /* \"#utility.yul\":20851:20853   */\n      0x24\n        /* \"#utility.yul\":20846:20849   */\n      dup4\n        /* \"#utility.yul\":20787:20854   */\n      tag_403\n      jump\t// in\n    tag_665:\n        /* \"#utility.yul\":20780:20854   */\n      swap2\n      pop\n        /* \"#utility.yul\":20863:20956   */\n      tag_666\n        /* \"#utility.yul\":20952:20955   */\n      dup3\n        /* \"#utility.yul\":20863:20956   */\n      tag_447\n      jump\t// in\n    tag_666:\n        /* \"#utility.yul\":20981:20983   */\n      0x40\n        /* \"#utility.yul\":20976:20979   */\n      dup3\n        /* \"#utility.yul\":20972:20984   */\n      add\n        /* \"#utility.yul\":20965:20984   */\n      swap1\n      pop\n        /* \"#utility.yul\":20624:20990   */\n      swap2\n      swap1\n      pop\n      jump\t// out\n        /* \"#utility.yul\":20996:21415   */\n    tag_161:\n        /* \"#utility.yul\":21162:21166   */\n      0x00\n        /* \"#utility.yul\":21200:21202   */\n      0x20\n        /* \"#utility.yul\":21189:21198   */\n      dup3\n        /* \"#utility.yul\":21185:21203   */\n      add\n        /* \"#utility.yul\":21177:21203   */\n      swap1\n      pop\n        /* \"#utility.yul\":21249:21258   */\n      dup2\n        /* \"#utility.yul\":21243:21247   */\n      dup2\n        /* \"#utility.yul\":21239:21259   */\n      sub\n        /* \"#utility.yul\":21235:21236   */\n      0x00\n        /* \"#utility.yul\":21224:21233   */\n      dup4\n        /* \"#utility.yul\":21220:21237   */\n      add\n        /* \"#utility.yul\":21213:21260   */\n      mstore\n        /* \"#utility.yul\":21277:21408   */\n      tag_668\n        /* \"#utility.yul\":21403:21407   */\n      dup2\n        /* \"#utility.yul\":21277:21408   */\n      tag_448\n      jump\t// in\n    tag_668:\n        /* \"#utility.yul\":21269:21408   */\n      swap1\n      pop\n        /* \"#utility.yul\":20996:21415   */\n      swap2\n      swap1\n      pop\n      jump\t// out\n        /* \"#utility.yul\":21421:21601   */\n    tag_449:\n        /* \"#utility.yul\":21469:21546   */\n      0x4e487b7100000000000000000000000000000000000000000000000000000000\n        /* \"#utility.yul\":21466:21467   */\n      0x00\n        /* \"#utility.yul\":21459:21547   */\n      mstore\n        /* \"#utility.yul\":21566:21570   */\n      0x22\n        /* \"#utility.yul\":21563:21564   */\n      0x04\n        /* \"#utility.yul\":21556:21571   */\n      mstore\n        /* \"#utility.yul\":21590:21594   */\n      0x24\n        /* \"#utility.yul\":21587:21588   */\n      0x00\n        /* \"#utility.yul\":21580:21595   */\n      revert\n        /* \"#utility.yul\":21607:21927   */\n    tag_166:\n        /* \"#utility.yul\":21651:21657   */\n      0x00\n        /* \"#utility.yul\":21688:21689   */\n      0x02\n        /* \"#utility.yul\":21682:21686   */\n      dup3\n        /* \"#utility.yul\":21678:21690   */\n      div\n        /* \"#utility.yul\":21668:21690   */\n      swap1\n      pop\n        /* \"#utility.yul\":21735:21736   */\n      0x01\n        /* \"#utility.yul\":21729:21733   */\n      dup3\n        /* \"#utility.yul\":21725:21737   */\n      and\n        /* \"#utility.yul\":21756:21774   */\n      dup1\n        /* \"#utility.yul\":21746:21827   */\n      tag_671\n      jumpi\n        /* \"#utility.yul\":21812:21816   */\n      0x7f\n        /* \"#utility.yul\":21804:21810   */\n      dup3\n        /* \"#utility.yul\":21800:21817   */\n      and\n        /* \"#utility.yul\":21790:21817   */\n      swap2\n      pop\n        /* \"#utility.yul\":21746:21827   */\n    tag_671:\n        /* \"#utility.yul\":21874:21876   */\n      0x20\n        /* \"#utility.yul\":21866:21872   */\n      dup3\n        /* \"#utility.yul\":21863:21877   */\n      lt\n        /* \"#utility.yul\":21843:21861   */\n      dup2\n        /* \"#utility.yul\":21840:21878   */\n      sub\n        /* \"#utility.yul\":21837:21921   */\n      tag_672\n      jumpi\n        /* \"#utility.yul\":21893:21911   */\n      tag_673\n      tag_449\n      jump\t// in\n    tag_673:\n        /* \"#utility.yul\":21837:21921   */\n    tag_672:\n        /* \"#utility.yul\":21658:21927   */\n      pop\n        /* \"#utility.yul\":21607:21927   */\n      swap2\n      swap1\n      pop\n      jump\t// out\n        /* \"#utility.yul\":21933:22164   */\n    tag_450:\n        /* \"#utility.yul\":22073:22107   */\n      0x596f752063616e206e6f7420737461727420616761696e207468652070726f70\n        /* \"#utility.yul\":22069:22070   */\n      0x00\n        /* \"#utility.yul\":22061:22067   */\n      dup3\n        /* \"#utility.yul\":22057:22071   */\n      add\n        /* \"#utility.yul\":22050:22108   */\n      mstore\n        /* \"#utility.yul\":22142:22156   */\n      0x6f73616c2073657373696f6e0000000000000000000000000000000000000000\n        /* \"#utility.yul\":22137:22139   */\n      0x20\n        /* \"#utility.yul\":22129:22135   */\n      dup3\n        /* \"#utility.yul\":22125:22140   */\n      add\n        /* \"#utility.yul\":22118:22157   */\n      mstore\n        /* \"#utility.yul\":21933:22164   */\n      pop\n      jump\t// out\n        /* \"#utility.yul\":22170:22536   */\n    tag_451:\n        /* \"#utility.yul\":22312:22315   */\n      0x00\n        /* \"#utility.yul\":22333:22400   */\n      tag_676\n        /* \"#utility.yul\":22397:22399   */\n      0x2c\n        /* \"#utility.yul\":22392:22395   */\n      dup4\n        /* \"#utility.yul\":22333:22400   */\n      tag_403\n      jump\t// in\n    tag_676:\n        /* \"#utility.yul\":22326:22400   */\n      swap2\n      pop\n        /* \"#utility.yul\":22409:22502   */\n      tag_677\n        /* \"#utility.yul\":22498:22501   */\n      dup3\n        /* \"#utility.yul\":22409:22502   */\n      tag_450\n      jump\t// in\n    tag_677:\n        /* \"#utility.yul\":22527:22529   */\n      0x40\n        /* \"#utility.yul\":22522:22525   */\n      dup3\n        /* \"#utility.yul\":22518:22530   */\n      add\n        /* \"#utility.yul\":22511:22530   */\n      swap1\n      pop\n        /* \"#utility.yul\":22170:22536   */\n      swap2\n      swap1\n      pop\n      jump\t// out\n        /* \"#utility.yul\":22542:22961   */\n    tag_180:\n        /* \"#utility.yul\":22708:22712   */\n      0x00\n        /* \"#utility.yul\":22746:22748   */\n      0x20\n        /* \"#utility.yul\":22735:22744   */\n      dup3\n        /* \"#utility.yul\":22731:22749   */\n      add\n        /* \"#utility.yul\":22723:22749   */\n      swap1\n      pop\n        /* \"#utility.yul\":22795:22804   */\n      dup2\n        /* \"#utility.yul\":22789:22793   */\n      dup2\n        /* \"#utility.yul\":22785:22805   */\n      sub\n        /* \"#utility.yul\":22781:22782   */\n      0x00\n        /* \"#utility.yul\":22770:22779   */\n      dup4\n        /* \"#utility.yul\":22766:22783   */\n      add\n        /* \"#utility.yul\":22759:22806   */\n      mstore\n        /* \"#utility.yul\":22823:22954   */\n      tag_679\n        /* \"#utility.yul\":22949:22953   */\n      dup2\n        /* \"#utility.yul\":22823:22954   */\n      tag_451\n      jump\t// in\n    tag_679:\n        /* \"#utility.yul\":22815:22954   */\n      swap1\n      pop\n        /* \"#utility.yul\":22542:22961   */\n      swap2\n      swap1\n      pop\n      jump\t// out\n        /* \"#utility.yul\":22967:23192   */\n    tag_452:\n        /* \"#utility.yul\":23107:23141   */\n      0x596f75206d757374207265676973746572206174206c65617374203220616464\n        /* \"#utility.yul\":23103:23104   */\n      0x00\n        /* \"#utility.yul\":23095:23101   */\n      dup3\n        /* \"#utility.yul\":23091:23105   */\n      add\n        /* \"#utility.yul\":23084:23142   */\n      mstore\n        /* \"#utility.yul\":23176:23184   */\n      0x7265737365730000000000000000000000000000000000000000000000000000\n        /* \"#utility.yul\":23171:23173   */\n      0x20\n        /* \"#utility.yul\":23163:23169   */\n      dup3\n        /* \"#utility.yul\":23159:23174   */\n      add\n        /* \"#utility.yul\":23152:23185   */\n      mstore\n        /* \"#utility.yul\":22967:23192   */\n      pop\n      jump\t// out\n        /* \"#utility.yul\":23198:23564   */\n    tag_453:\n        /* \"#utility.yul\":23340:23343   */\n      0x00\n        /* \"#utility.yul\":23361:23428   */\n      tag_682\n        /* \"#utility.yul\":23425:23427   */\n      0x26\n        /* \"#utility.yul\":23420:23423   */\n      dup4\n        /* \"#utility.yul\":23361:23428   */\n      tag_403\n      jump\t// in\n    tag_682:\n        /* \"#utility.yul\":23354:23428   */\n      swap2\n      pop\n        /* \"#utility.yul\":23437:23530   */\n      tag_683\n        /* \"#utility.yul\":23526:23529   */\n      dup3\n        /* \"#utility.yul\":23437:23530   */\n      tag_452\n      jump\t// in\n    tag_683:\n        /* \"#utility.yul\":23555:23557   */\n      0x40\n        /* \"#utility.yul\":23550:23553   */\n      dup3\n        /* \"#utility.yul\":23546:23558   */\n      add\n        /* \"#utility.yul\":23539:23558   */\n      swap1\n      pop\n        /* \"#utility.yul\":23198:23564   */\n      swap2\n      swap1\n      pop\n      jump\t// out\n        /* \"#utility.yul\":23570:23989   */\n    tag_183:\n        /* \"#utility.yul\":23736:23740   */\n      0x00\n        /* \"#utility.yul\":23774:23776   */\n      0x20\n        /* \"#utility.yul\":23763:23772   */\n      dup3\n        /* \"#utility.yul\":23759:23777   */\n      add\n        /* \"#utility.yul\":23751:23777   */\n      swap1\n      pop\n        /* \"#utility.yul\":23823:23832   */\n      dup2\n        /* \"#utility.yul\":23817:23821   */\n      dup2\n        /* \"#utility.yul\":23813:23833   */\n      sub\n        /* \"#utility.yul\":23809:23810   */\n      0x00\n        /* \"#utility.yul\":23798:23807   */\n      dup4\n        /* \"#utility.yul\":23794:23811   */\n      add\n        /* \"#utility.yul\":23787:23834   */\n      mstore\n        /* \"#utility.yul\":23851:23982   */\n      tag_685\n        /* \"#utility.yul\":23977:23981   */\n      dup2\n        /* \"#utility.yul\":23851:23982   */\n      tag_453\n      jump\t// in\n    tag_685:\n        /* \"#utility.yul\":23843:23982   */\n      swap1\n      pop\n        /* \"#utility.yul\":23570:23989   */\n      swap2\n      swap1\n      pop\n      jump\t// out\n        /* \"#utility.yul\":23995:24189   */\n    tag_189:\n        /* \"#utility.yul\":24035:24039   */\n      0x00\n        /* \"#utility.yul\":24055:24075   */\n      tag_687\n        /* \"#utility.yul\":24073:24074   */\n      dup3\n        /* \"#utility.yul\":24055:24075   */\n      tag_394\n      jump\t// in\n    tag_687:\n        /* \"#utility.yul\":24050:24075   */\n      swap2\n      pop\n        /* \"#utility.yul\":24089:24109   */\n      tag_688\n        /* \"#utility.yul\":24107:24108   */\n      dup4\n        /* \"#utility.yul\":24089:24109   */\n      tag_394\n      jump\t// in\n    tag_688:\n        /* \"#utility.yul\":24084:24109   */\n      swap3\n      pop\n        /* \"#utility.yul\":24133:24134   */\n      dup3\n        /* \"#utility.yul\":24130:24131   */\n      dup3\n        /* \"#utility.yul\":24126:24135   */\n      sub\n        /* \"#utility.yul\":24118:24135   */\n      swap1\n      pop\n        /* \"#utility.yul\":24157:24158   */\n      dup2\n        /* \"#utility.yul\":24151:24155   */\n      dup2\n        /* \"#utility.yul\":24148:24159   */\n      gt\n        /* \"#utility.yul\":24145:24182   */\n      iszero\n      tag_689\n      jumpi\n        /* \"#utility.yul\":24162:24180   */\n      tag_690\n      tag_442\n      jump\t// in\n    tag_690:\n        /* \"#utility.yul\":24145:24182   */\n    tag_689:\n        /* \"#utility.yul\":23995:24189   */\n      swap3\n      swap2\n      pop\n      pop\n      jump\t// out\n        /* \"#utility.yul\":24195:24591   */\n    tag_193:\n        /* \"#utility.yul\":24348:24352   */\n      0x00\n        /* \"#utility.yul\":24386:24388   */\n      0x40\n        /* \"#utility.yul\":24375:24384   */\n      dup3\n        /* \"#utility.yul\":24371:24389   */\n      add\n        /* \"#utility.yul\":24363:24389   */\n      swap1\n      pop\n        /* \"#utility.yul\":24399:24486   */\n      tag_692\n        /* \"#utility.yul\":24483:24484   */\n      0x00\n        /* \"#utility.yul\":24472:24481   */\n      dup4\n        /* \"#utility.yul\":24468:24485   */\n      add\n        /* \"#utility.yul\":24459:24465   */\n      dup6\n        /* \"#utility.yul\":24399:24486   */\n      tag_420\n      jump\t// in\n    tag_692:\n        /* \"#utility.yul\":24496:24584   */\n      tag_693\n        /* \"#utility.yul\":24580:24582   */\n      0x20\n        /* \"#utility.yul\":24569:24578   */\n      dup4\n        /* \"#utility.yul\":24565:24583   */\n      add\n        /* \"#utility.yul\":24556:24562   */\n      dup5\n        /* \"#utility.yul\":24496:24584   */\n      tag_420\n      jump\t// in\n    tag_693:\n        /* \"#utility.yul\":24195:24591   */\n      swap4\n      swap3\n      pop\n      pop\n      pop\n      jump\t// out\n        /* \"#utility.yul\":24597:24777   */\n    tag_454:\n        /* \"#utility.yul\":24737:24769   */\n      0x546869732061646472657373206973206e6f7420726567697374657265640000\n        /* \"#utility.yul\":24733:24734   */\n      0x00\n        /* \"#utility.yul\":24725:24731   */\n      dup3\n        /* \"#utility.yul\":24721:24735   */\n      add\n        /* \"#utility.yul\":24714:24770   */\n      mstore\n        /* \"#utility.yul\":24597:24777   */\n      pop\n      jump\t// out\n        /* \"#utility.yul\":24783:25149   */\n    tag_455:\n        /* \"#utility.yul\":24925:24928   */\n      0x00\n        /* \"#utility.yul\":24946:25013   */\n      tag_696\n        /* \"#utility.yul\":25010:25012   */\n      0x1e\n        /* \"#utility.yul\":25005:25008   */\n      dup4\n        /* \"#utility.yul\":24946:25013   */\n      tag_403\n      jump\t// in\n    tag_696:\n        /* \"#utility.yul\":24939:25013   */\n      swap2\n      pop\n        /* \"#utility.yul\":25022:25115   */\n      tag_697\n        /* \"#utility.yul\":25111:25114   */\n      dup3\n        /* \"#utility.yul\":25022:25115   */\n      tag_454\n      jump\t// in\n    tag_697:\n        /* \"#utility.yul\":25140:25142   */\n      0x20\n        /* \"#utility.yul\":25135:25138   */\n      dup3\n        /* \"#utility.yul\":25131:25143   */\n      add\n        /* \"#utility.yul\":25124:25143   */\n      swap1\n      pop\n        /* \"#utility.yul\":24783:25149   */\n      swap2\n      swap1\n      pop\n      jump\t// out\n        /* \"#utility.yul\":25155:25574   */\n    tag_226:\n        /* \"#utility.yul\":25321:25325   */\n      0x00\n        /* \"#utility.yul\":25359:25361   */\n      0x20\n        /* \"#utility.yul\":25348:25357   */\n      dup3\n        /* \"#utility.yul\":25344:25362   */\n      add\n        /* \"#utility.yul\":25336:25362   */\n      swap1\n      pop\n        /* \"#utility.yul\":25408:25417   */\n      dup2\n        /* \"#utility.yul\":25402:25406   */\n      dup2\n        /* \"#utility.yul\":25398:25418   */\n      sub\n        /* \"#utility.yul\":25394:25395   */\n      0x00\n        /* \"#utility.yul\":25383:25392   */\n      dup4\n        /* \"#utility.yul\":25379:25396   */\n      add\n        /* \"#utility.yul\":25372:25419   */\n      mstore\n        /* \"#utility.yul\":25436:25567   */\n      tag_699\n        /* \"#utility.yul\":25562:25566   */\n      dup2\n        /* \"#utility.yul\":25436:25567   */\n      tag_455\n      jump\t// in\n    tag_699:\n        /* \"#utility.yul\":25428:25567   */\n      swap1\n      pop\n        /* \"#utility.yul\":25155:25574   */\n      swap2\n      swap1\n      pop\n      jump\t// out\n        /* \"#utility.yul\":25580:25756   */\n    tag_456:\n        /* \"#utility.yul\":25720:25748   */\n      0x54686973206164647265737320686173206e6f7420766f746564000000000000\n        /* \"#utility.yul\":25716:25717   */\n      0x00\n        /* \"#utility.yul\":25708:25714   */\n      dup3\n        /* \"#utility.yul\":25704:25718   */\n      add\n        /* \"#utility.yul\":25697:25749   */\n      mstore\n        /* \"#utility.yul\":25580:25756   */\n      pop\n      jump\t// out\n        /* \"#utility.yul\":25762:26128   */\n    tag_457:\n        /* \"#utility.yul\":25904:25907   */\n      0x00\n        /* \"#utility.yul\":25925:25992   */\n      tag_702\n        /* \"#utility.yul\":25989:25991   */\n      0x1a\n        /* \"#utility.yul\":25984:25987   */\n      dup4\n        /* \"#utility.yul\":25925:25992   */\n      tag_403\n      jump\t// in\n    tag_702:\n        /* \"#utility.yul\":25918:25992   */\n      swap2\n      pop\n        /* \"#utility.yul\":26001:26094   */\n      tag_703\n        /* \"#utility.yul\":26090:26093   */\n      dup3\n        /* \"#utility.yul\":26001:26094   */\n      tag_456\n      jump\t// in\n    tag_703:\n        /* \"#utility.yul\":26119:26121   */\n      0x20\n        /* \"#utility.yul\":26114:26117   */\n      dup3\n        /* \"#utility.yul\":26110:26122   */\n      add\n        /* \"#utility.yul\":26103:26122   */\n      swap1\n      pop\n        /* \"#utility.yul\":25762:26128   */\n      swap2\n      swap1\n      pop\n      jump\t// out\n        /* \"#utility.yul\":26134:26553   */\n    tag_229:\n        /* \"#utility.yul\":26300:26304   */\n      0x00\n        /* \"#utility.yul\":26338:26340   */\n      0x20\n        /* \"#utility.yul\":26327:26336   */\n      dup3\n        /* \"#utility.yul\":26323:26341   */\n      add\n        /* \"#utility.yul\":26315:26341   */\n      swap1\n      pop\n        /* \"#utility.yul\":26387:26396   */\n      dup2\n        /* \"#utility.yul\":26381:26385   */\n      dup2\n        /* \"#utility.yul\":26377:26397   */\n      sub\n        /* \"#utility.yul\":26373:26374   */\n      0x00\n        /* \"#utility.yul\":26362:26371   */\n      dup4\n        /* \"#utility.yul\":26358:26375   */\n      add\n        /* \"#utility.yul\":26351:26398   */\n      mstore\n        /* \"#utility.yul\":26415:26546   */\n      tag_705\n        /* \"#utility.yul\":26541:26545   */\n      dup2\n        /* \"#utility.yul\":26415:26546   */\n      tag_457\n      jump\t// in\n    tag_705:\n        /* \"#utility.yul\":26407:26546   */\n      swap1\n      pop\n        /* \"#utility.yul\":26134:26553   */\n      swap2\n      swap1\n      pop\n      jump\t// out\n        /* \"#utility.yul\":26559:26781   */\n    tag_458:\n        /* \"#utility.yul\":26699:26733   */\n      0x5468652070726f706f73616c2073657373696f6e206973206e6f742073746172\n        /* \"#utility.yul\":26695:26696   */\n      0x00\n        /* \"#utility.yul\":26687:26693   */\n      dup3\n        /* \"#utility.yul\":26683:26697   */\n      add\n        /* \"#utility.yul\":26676:26734   */\n      mstore\n        /* \"#utility.yul\":26768:26773   */\n      0x7465640000000000000000000000000000000000000000000000000000000000\n        /* \"#utility.yul\":26763:26765   */\n      0x20\n        /* \"#utility.yul\":26755:26761   */\n      dup3\n        /* \"#utility.yul\":26751:26766   */\n      add\n        /* \"#utility.yul\":26744:26774   */\n      mstore\n        /* \"#utility.yul\":26559:26781   */\n      pop\n      jump\t// out\n        /* \"#utility.yul\":26787:27153   */\n    tag_459:\n        /* \"#utility.yul\":26929:26932   */\n      0x00\n        /* \"#utility.yul\":26950:27017   */\n      tag_708\n        /* \"#utility.yul\":27014:27016   */\n      0x23\n        /* \"#utility.yul\":27009:27012   */\n      dup4\n        /* \"#utility.yul\":26950:27017   */\n      tag_403\n      jump\t// in\n    tag_708:\n        /* \"#utility.yul\":26943:27017   */\n      swap2\n      pop\n        /* \"#utility.yul\":27026:27119   */\n      tag_709\n        /* \"#utility.yul\":27115:27118   */\n      dup3\n        /* \"#utility.yul\":27026:27119   */\n      tag_458\n      jump\t// in\n    tag_709:\n        /* \"#utility.yul\":27144:27146   */\n      0x40\n        /* \"#utility.yul\":27139:27142   */\n      dup3\n        /* \"#utility.yul\":27135:27147   */\n      add\n        /* \"#utility.yul\":27128:27147   */\n      swap1\n      pop\n        /* \"#utility.yul\":26787:27153   */\n      swap2\n      swap1\n      pop\n      jump\t// out\n        /* \"#utility.yul\":27159:27578   */\n    tag_265:\n        /* \"#utility.yul\":27325:27329   */\n      0x00\n        /* \"#utility.yul\":27363:27365   */\n      0x20\n        /* \"#utility.yul\":27352:27361   */\n      dup3\n        /* \"#utility.yul\":27348:27366   */\n      add\n        /* \"#utility.yul\":27340:27366   */\n      swap1\n      pop\n        /* \"#utility.yul\":27412:27421   */\n      dup2\n        /* \"#utility.yul\":27406:27410   */\n      dup2\n        /* \"#utility.yul\":27402:27422   */\n      sub\n        /* \"#utility.yul\":27398:27399   */\n      0x00\n        /* \"#utility.yul\":27387:27396   */\n      dup4\n        /* \"#utility.yul\":27383:27400   */\n      add\n        /* \"#utility.yul\":27376:27423   */\n      mstore\n        /* \"#utility.yul\":27440:27571   */\n      tag_711\n        /* \"#utility.yul\":27566:27570   */\n      dup2\n        /* \"#utility.yul\":27440:27571   */\n      tag_459\n      jump\t// in\n    tag_711:\n        /* \"#utility.yul\":27432:27571   */\n      swap1\n      pop\n        /* \"#utility.yul\":27159:27578   */\n      swap2\n      swap1\n      pop\n      jump\t// out\n        /* \"#utility.yul\":27584:27826   */\n    tag_460:\n        /* \"#utility.yul\":27724:27758   */\n      0x596f752061726520746865206f776e6572206f66207468697320636f6e747261\n        /* \"#utility.yul\":27720:27721   */\n      0x00\n        /* \"#utility.yul\":27712:27718   */\n      dup3\n        /* \"#utility.yul\":27708:27722   */\n      add\n        /* \"#utility.yul\":27701:27759   */\n      mstore\n        /* \"#utility.yul\":27793:27818   */\n      0x63742c20796f752063616e206e6f742070726f706f7365000000000000000000\n        /* \"#utility.yul\":27788:27790   */\n      0x20\n        /* \"#utility.yul\":27780:27786   */\n      dup3\n        /* \"#utility.yul\":27776:27791   */\n      add\n        /* \"#utility.yul\":27769:27819   */\n      mstore\n        /* \"#utility.yul\":27584:27826   */\n      pop\n      jump\t// out\n        /* \"#utility.yul\":27832:28198   */\n    tag_461:\n        /* \"#utility.yul\":27974:27977   */\n      0x00\n        /* \"#utility.yul\":27995:28062   */\n      tag_714\n        /* \"#utility.yul\":28059:28061   */\n      0x37\n        /* \"#utility.yul\":28054:28057   */\n      dup4\n        /* \"#utility.yul\":27995:28062   */\n      tag_403\n      jump\t// in\n    tag_714:\n        /* \"#utility.yul\":27988:28062   */\n      swap2\n      pop\n        /* \"#utility.yul\":28071:28164   */\n      tag_715\n        /* \"#utility.yul\":28160:28163   */\n      dup3\n        /* \"#utility.yul\":28071:28164   */\n      tag_460\n      jump\t// in\n    tag_715:\n        /* \"#utility.yul\":28189:28191   */\n      0x40\n        /* \"#utility.yul\":28184:28187   */\n      dup3\n        /* \"#utility.yul\":28180:28192   */\n      add\n        /* \"#utility.yul\":28173:28192   */\n      swap1\n      pop\n        /* \"#utility.yul\":27832:28198   */\n      swap2\n      swap1\n      pop\n      jump\t// out\n        /* \"#utility.yul\":28204:28623   */\n    tag_269:\n        /* \"#utility.yul\":28370:28374   */\n      0x00\n        /* \"#utility.yul\":28408:28410   */\n      0x20\n        /* \"#utility.yul\":28397:28406   */\n      dup3\n        /* \"#utility.yul\":28393:28411   */\n      add\n        /* \"#utility.yul\":28385:28411   */\n      swap1\n      pop\n        /* \"#utility.yul\":28457:28466   */\n      dup2\n        /* \"#utility.yul\":28451:28455   */\n      dup2\n        /* \"#utility.yul\":28447:28467   */\n      sub\n        /* \"#utility.yul\":28443:28444   */\n      0x00\n        /* \"#utility.yul\":28432:28441   */\n      dup4\n        /* \"#utility.yul\":28428:28445   */\n      add\n        /* \"#utility.yul\":28421:28468   */\n      mstore\n        /* \"#utility.yul\":28485:28616   */\n      tag_717\n        /* \"#utility.yul\":28611:28615   */\n      dup2\n        /* \"#utility.yul\":28485:28616   */\n      tag_461\n      jump\t// in\n    tag_717:\n        /* \"#utility.yul\":28477:28616   */\n      swap1\n      pop\n        /* \"#utility.yul\":28204:28623   */\n      swap2\n      swap1\n      pop\n      jump\t// out\n        /* \"#utility.yul\":28629:28770   */\n    tag_462:\n        /* \"#utility.yul\":28678:28682   */\n      0x00\n        /* \"#utility.yul\":28701:28704   */\n      dup2\n        /* \"#utility.yul\":28693:28704   */\n      swap1\n      pop\n        /* \"#utility.yul\":28724:28727   */\n      dup2\n        /* \"#utility.yul\":28721:28722   */\n      0x00\n        /* \"#utility.yul\":28714:28728   */\n      mstore\n        /* \"#utility.yul\":28758:28762   */\n      0x20\n        /* \"#utility.yul\":28755:28756   */\n      0x00\n        /* \"#utility.yul\":28745:28763   */\n      keccak256\n        /* \"#utility.yul\":28737:28763   */\n      swap1\n      pop\n        /* \"#utility.yul\":28629:28770   */\n      swap2\n      swap1\n      pop\n      jump\t// out\n        /* \"#utility.yul\":28776:28869   */\n    tag_463:\n        /* \"#utility.yul\":28813:28819   */\n      0x00\n        /* \"#utility.yul\":28860:28862   */\n      0x20\n        /* \"#utility.yul\":28855:28857   */\n      0x1f\n        /* \"#utility.yul\":28848:28853   */\n      dup4\n        /* \"#utility.yul\":28844:28858   */\n      add\n        /* \"#utility.yul\":28840:28863   */\n      div\n        /* \"#utility.yul\":28830:28863   */\n      swap1\n      pop\n        /* \"#utility.yul\":28776:28869   */\n      swap2\n      swap1\n      pop\n      jump\t// out\n        /* \"#utility.yul\":28875:28982   */\n    tag_464:\n        /* \"#utility.yul\":28919:28927   */\n      0x00\n        /* \"#utility.yul\":28969:28974   */\n      dup3\n        /* \"#utility.yul\":28963:28967   */\n      dup3\n        /* \"#utility.yul\":28959:28975   */\n      shl\n        /* \"#utility.yul\":28938:28975   */\n      swap1\n      pop\n        /* \"#utility.yul\":28875:28982   */\n      swap3\n      swap2\n      pop\n      pop\n      jump\t// out\n        /* \"#utility.yul\":28988:29381   */\n    tag_465:\n        /* \"#utility.yul\":29057:29063   */\n      0x00\n        /* \"#utility.yul\":29107:29108   */\n      0x08\n        /* \"#utility.yul\":29095:29105   */\n      dup4\n        /* \"#utility.yul\":29091:29109   */\n      mul\n        /* \"#utility.yul\":29130:29227   */\n      tag_722\n        /* \"#utility.yul\":29160:29226   */\n      0xffffffffffffffffffffffffffffffffffffffffffffffffffffffffffffffff\n        /* \"#utility.yul\":29149:29158   */\n      dup3\n        /* \"#utility.yul\":29130:29227   */\n      tag_464\n      jump\t// in\n    tag_722:\n        /* \"#utility.yul\":29248:29287   */\n      tag_723\n        /* \"#utility.yul\":29278:29286   */\n      dup7\n        /* \"#utility.yul\":29267:29276   */\n      dup4\n        /* \"#utility.yul\":29248:29287   */\n      tag_464\n      jump\t// in\n    tag_723:\n        /* \"#utility.yul\":29236:29287   */\n      swap6\n      pop\n        /* \"#utility.yul\":29320:29324   */\n      dup1\n        /* \"#utility.yul\":29316:29325   */\n      not\n        /* \"#utility.yul\":29309:29314   */\n      dup5\n        /* \"#utility.yul\":29305:29326   */\n      and\n        /* \"#utility.yul\":29296:29326   */\n      swap4\n      pop\n        /* \"#utility.yul\":29369:29373   */\n      dup1\n        /* \"#utility.yul\":29359:29367   */\n      dup7\n        /* \"#utility.yul\":29355:29374   */\n      and\n        /* \"#utility.yul\":29348:29353   */\n      dup5\n        /* \"#utility.yul\":29345:29375   */\n      or\n        /* \"#utility.yul\":29335:29375   */\n      swap3\n      pop\n        /* \"#utility.yul\":29064:29381   */\n      pop\n      pop\n        /* \"#utility.yul\":28988:29381   */\n      swap4\n      swap3\n      pop\n      pop\n      pop\n      jump\t// out\n        /* \"#utility.yul\":29387:29447   */\n    tag_466:\n        /* \"#utility.yul\":29415:29418   */\n      0x00\n        /* \"#utility.yul\":29436:29441   */\n      dup2\n        /* \"#utility.yul\":29429:29441   */\n      swap1\n      pop\n        /* \"#utility.yul\":29387:29447   */\n      swap2\n      swap1\n      pop\n      jump\t// out\n        /* \"#utility.yul\":29453:29595   */\n    tag_467:\n        /* \"#utility.yul\":29503:29512   */\n      0x00\n        /* \"#utility.yul\":29536:29589   */\n      tag_726\n        /* \"#utility.yul\":29554:29588   */\n      tag_727\n        /* \"#utility.yul\":29563:29587   */\n      tag_728\n        /* \"#utility.yul\":29581:29586   */\n      dup5\n        /* \"#utility.yul\":29563:29587   */\n      tag_394\n      jump\t// in\n    tag_728:\n        /* \"#utility.yul\":29554:29588   */\n      tag_466\n      jump\t// in\n    tag_727:\n        /* \"#utility.yul\":29536:29589   */\n      tag_394\n      jump\t// in\n    tag_726:\n        /* \"#utility.yul\":29523:29589   */\n      swap1\n      pop\n        /* \"#utility.yul\":29453:29595   */\n      swap2\n      swap1\n      pop\n      jump\t// out\n        /* \"#utility.yul\":29601:29676   */\n    tag_468:\n        /* \"#utility.yul\":29644:29647   */\n      0x00\n        /* \"#utility.yul\":29665:29670   */\n      dup2\n        /* \"#utility.yul\":29658:29670   */\n      swap1\n      pop\n        /* \"#utility.yul\":29601:29676   */\n      swap2\n      swap1\n      pop\n      jump\t// out\n        /* \"#utility.yul\":29682:29951   */\n    tag_469:\n        /* \"#utility.yul\":29792:29831   */\n      tag_731\n        /* \"#utility.yul\":29823:29830   */\n      dup4\n        /* \"#utility.yul\":29792:29831   */\n      tag_467\n      jump\t// in\n    tag_731:\n        /* \"#utility.yul\":29853:29944   */\n      tag_732\n        /* \"#utility.yul\":29902:29943   */\n      tag_733\n        /* \"#utility.yul\":29926:29942   */\n      dup3\n        /* \"#utility.yul\":29902:29943   */\n      tag_468\n      jump\t// in\n    tag_733:\n        /* \"#utility.yul\":29894:29900   */\n      dup5\n        /* \"#utility.yul\":29887:29891   */\n      dup5\n        /* \"#utility.yul\":29881:29892   */\n      sload\n        /* \"#utility.yul\":29853:29944   */\n      tag_465\n      jump\t// in\n    tag_732:\n        /* \"#utility.yul\":29847:29851   */\n      dup3\n        /* \"#utility.yul\":29840:29945   */\n      sstore\n        /* \"#utility.yul\":29758:29951   */\n      pop\n        /* \"#utility.yul\":29682:29951   */\n      pop\n      pop\n      pop\n      jump\t// out\n        /* \"#utility.yul\":29957:30030   */\n    tag_470:\n        /* \"#utility.yul\":30002:30005   */\n      0x00\n        /* \"#utility.yul\":30023:30024   */\n      0x00\n        /* \"#utility.yul\":30016:30024   */\n      swap1\n      pop\n        /* \"#utility.yul\":29957:30030   */\n      swap1\n      jump\t// out\n        /* \"#utility.yul\":30036:30225   */\n    tag_471:\n        /* \"#utility.yul\":30113:30145   */\n      tag_736\n      tag_470\n      jump\t// in\n    tag_736:\n        /* \"#utility.yul\":30154:30219   */\n      tag_737\n        /* \"#utility.yul\":30212:30218   */\n      dup2\n        /* \"#utility.yul\":30204:30210   */\n      dup5\n        /* \"#utility.yul\":30198:30202   */\n      dup5\n        /* \"#utility.yul\":30154:30219   */\n      tag_469\n      jump\t// in\n    tag_737:\n        /* \"#utility.yul\":30089:30225   */\n      pop\n        /* \"#utility.yul\":30036:30225   */\n      pop\n      pop\n      jump\t// out\n        /* \"#utility.yul\":30231:30417   */\n    tag_472:\n        /* \"#utility.yul\":30291:30411   */\n    tag_739:\n        /* \"#utility.yul\":30308:30311   */\n      dup2\n        /* \"#utility.yul\":30301:30306   */\n      dup2\n        /* \"#utility.yul\":30298:30312   */\n      lt\n        /* \"#utility.yul\":30291:30411   */\n      iszero\n      tag_741\n      jumpi\n        /* \"#utility.yul\":30362:30401   */\n      tag_742\n        /* \"#utility.yul\":30399:30400   */\n      0x00\n        /* \"#utility.yul\":30392:30397   */\n      dup3\n        /* \"#utility.yul\":30362:30401   */\n      tag_471\n      jump\t// in\n    tag_742:\n        /* \"#utility.yul\":30335:30336   */\n      0x01\n        /* \"#utility.yul\":30328:30333   */\n      dup2\n        /* \"#utility.yul\":30324:30337   */\n      add\n        /* \"#utility.yul\":30315:30337   */\n      swap1\n      pop\n        /* \"#utility.yul\":30291:30411   */\n      jump(tag_739)\n    tag_741:\n        /* \"#utility.yul\":30231:30417   */\n      pop\n      pop\n      jump\t// out\n        /* \"#utility.yul\":30423:30966   */\n    tag_473:\n        /* \"#utility.yul\":30524:30526   */\n      0x1f\n        /* \"#utility.yul\":30519:30522   */\n      dup3\n        /* \"#utility.yul\":30516:30527   */\n      gt\n        /* \"#utility.yul\":30513:30959   */\n      iszero\n      tag_744\n      jumpi\n        /* \"#utility.yul\":30558:30596   */\n      tag_745\n        /* \"#utility.yul\":30590:30595   */\n      dup2\n        /* \"#utility.yul\":30558:30596   */\n      tag_462\n      jump\t// in\n    tag_745:\n        /* \"#utility.yul\":30642:30671   */\n      tag_746\n        /* \"#utility.yul\":30660:30670   */\n      dup5\n        /* \"#utility.yul\":30642:30671   */\n      tag_463\n      jump\t// in\n    tag_746:\n        /* \"#utility.yul\":30632:30640   */\n      dup2\n        /* \"#utility.yul\":30628:30672   */\n      add\n        /* \"#utility.yul\":30825:30827   */\n      0x20\n        /* \"#utility.yul\":30813:30823   */\n      dup6\n        /* \"#utility.yul\":30810:30828   */\n      lt\n        /* \"#utility.yul\":30807:30856   */\n      iszero\n      tag_747\n      jumpi\n        /* \"#utility.yul\":30846:30854   */\n      dup2\n        /* \"#utility.yul\":30831:30854   */\n      swap1\n      pop\n        /* \"#utility.yul\":30807:30856   */\n    tag_747:\n        /* \"#utility.yul\":30869:30949   */\n      tag_748\n        /* \"#utility.yul\":30925:30947   */\n      tag_749\n        /* \"#utility.yul\":30943:30946   */\n      dup6\n        /* \"#utility.yul\":30925:30947   */\n      tag_463\n      jump\t// in\n    tag_749:\n        /* \"#utility.yul\":30915:30923   */\n      dup4\n        /* \"#utility.yul\":30911:30948   */\n      add\n        /* \"#utility.yul\":30898:30909   */\n      dup3\n        /* \"#utility.yul\":30869:30949   */\n      tag_472\n      jump\t// in\n    tag_748:\n        /* \"#utility.yul\":30528:30959   */\n      pop\n      pop\n        /* \"#utility.yul\":30513:30959   */\n    tag_744:\n        /* \"#utility.yul\":30423:30966   */\n      pop\n      pop\n      pop\n      jump\t// out\n        /* \"#utility.yul\":30972:31089   */\n    tag_474:\n        /* \"#utility.yul\":31026:31034   */\n      0x00\n        /* \"#utility.yul\":31076:31081   */\n      dup3\n        /* \"#utility.yul\":31070:31074   */\n      dup3\n        /* \"#utility.yul\":31066:31082   */\n      shr\n        /* \"#utility.yul\":31045:31082   */\n      swap1\n      pop\n        /* \"#utility.yul\":30972:31089   */\n      swap3\n      swap2\n      pop\n      pop\n      jump\t// out\n        /* \"#utility.yul\":31095:31264   */\n    tag_475:\n        /* \"#utility.yul\":31139:31145   */\n      0x00\n        /* \"#utility.yul\":31172:31223   */\n      tag_752\n        /* \"#utility.yul\":31220:31221   */\n      0x00\n        /* \"#utility.yul\":31216:31222   */\n      not\n        /* \"#utility.yul\":31208:31213   */\n      dup5\n        /* \"#utility.yul\":31205:31206   */\n      0x08\n        /* \"#utility.yul\":31201:31214   */\n      mul\n        /* \"#utility.yul\":31172:31223   */\n      tag_474\n      jump\t// in\n    tag_752:\n        /* \"#utility.yul\":31168:31224   */\n      not\n        /* \"#utility.yul\":31253:31257   */\n      dup1\n        /* \"#utility.yul\":31247:31251   */\n      dup4\n        /* \"#utility.yul\":31243:31258   */\n      and\n        /* \"#utility.yul\":31233:31258   */\n      swap2\n      pop\n        /* \"#utility.yul\":31146:31264   */\n      pop\n        /* \"#utility.yul\":31095:31264   */\n      swap3\n      swap2\n      pop\n      pop\n      jump\t// out\n        /* \"#utility.yul\":31269:31564   */\n    tag_476:\n        /* \"#utility.yul\":31345:31349   */\n      0x00\n        /* \"#utility.yul\":31491:31520   */\n      tag_754\n        /* \"#utility.yul\":31516:31519   */\n      dup4\n        /* \"#utility.yul\":31510:31514   */\n      dup4\n        /* \"#utility.yul\":31491:31520   */\n      tag_475\n      jump\t// in\n    tag_754:\n        /* \"#utility.yul\":31483:31520   */\n      swap2\n      pop\n        /* \"#utility.yul\":31553:31556   */\n      dup3\n        /* \"#utility.yul\":31550:31551   */\n      0x02\n        /* \"#utility.yul\":31546:31557   */\n      mul\n        /* \"#utility.yul\":31540:31544   */\n      dup3\n        /* \"#utility.yul\":31537:31558   */\n      or\n        /* \"#utility.yul\":31529:31558   */\n      swap1\n      pop\n        /* \"#utility.yul\":31269:31564   */\n      swap3\n      swap2\n      pop\n      pop\n      jump\t// out\n        /* \"#utility.yul\":31569:32964   */\n    tag_274:\n        /* \"#utility.yul\":31686:31723   */\n      tag_756\n        /* \"#utility.yul\":31719:31722   */\n      dup3\n        /* \"#utility.yul\":31686:31723   */\n      tag_402\n      jump\t// in\n    tag_756:\n        /* \"#utility.yul\":31788:31806   */\n      0xffffffffffffffff\n        /* \"#utility.yul\":31780:31786   */\n      dup2\n        /* \"#utility.yul\":31777:31807   */\n      gt\n        /* \"#utility.yul\":31774:31830   */\n      iszero\n      tag_757\n      jumpi\n        /* \"#utility.yul\":31810:31828   */\n      tag_758\n      tag_425\n      jump\t// in\n    tag_758:\n        /* \"#utility.yul\":31774:31830   */\n    tag_757:\n        /* \"#utility.yul\":31854:31892   */\n      tag_759\n        /* \"#utility.yul\":31886:31890   */\n      dup3\n        /* \"#utility.yul\":31880:31891   */\n      sload\n        /* \"#utility.yul\":31854:31892   */\n      tag_166\n      jump\t// in\n    tag_759:\n        /* \"#utility.yul\":31939:32006   */\n      tag_760\n        /* \"#utility.yul\":31999:32005   */\n      dup3\n        /* \"#utility.yul\":31991:31997   */\n      dup3\n        /* \"#utility.yul\":31985:31989   */\n      dup6\n        /* \"#utility.yul\":31939:32006   */\n      tag_473\n      jump\t// in\n    tag_760:\n        /* \"#utility.yul\":32033:32034   */\n      0x00\n        /* \"#utility.yul\":32057:32061   */\n      0x20\n        /* \"#utility.yul\":32044:32061   */\n      swap1\n      pop\n        /* \"#utility.yul\":32089:32091   */\n      0x1f\n        /* \"#utility.yul\":32081:32087   */\n      dup4\n        /* \"#utility.yul\":32078:32092   */\n      gt\n        /* \"#utility.yul\":32106:32107   */\n      0x01\n        /* \"#utility.yul\":32101:32719   */\n      dup2\n      eq\n      tag_762\n      jumpi\n        /* \"#utility.yul\":32763:32764   */\n      0x00\n        /* \"#utility.yul\":32780:32786   */\n      dup5\n        /* \"#utility.yul\":32777:32854   */\n      iszero\n      tag_763\n      jumpi\n        /* \"#utility.yul\":32829:32838   */\n      dup3\n        /* \"#utility.yul\":32824:32827   */\n      dup8\n        /* \"#utility.yul\":32820:32839   */\n      add\n        /* \"#utility.yul\":32814:32840   */\n      mload\n        /* \"#utility.yul\":32805:32840   */\n      swap1\n      pop\n        /* \"#utility.yul\":32777:32854   */\n    tag_763:\n        /* \"#utility.yul\":32880:32947   */\n      tag_764\n        /* \"#utility.yul\":32940:32946   */\n      dup6\n        /* \"#utility.yul\":32933:32938   */\n      dup3\n        /* \"#utility.yul\":32880:32947   */\n      tag_476\n      jump\t// in\n    tag_764:\n        /* \"#utility.yul\":32874:32878   */\n      dup7\n        /* \"#utility.yul\":32867:32948   */\n      sstore\n        /* \"#utility.yul\":32736:32958   */\n      pop\n        /* \"#utility.yul\":32071:32958   */\n      jump(tag_761)\n        /* \"#utility.yul\":32101:32719   */\n    tag_762:\n        /* \"#utility.yul\":32153:32157   */\n      0x1f\n        /* \"#utility.yul\":32149:32158   */\n      not\n        /* \"#utility.yul\":32141:32147   */\n      dup5\n        /* \"#utility.yul\":32137:32159   */\n      and\n        /* \"#utility.yul\":32187:32224   */\n      tag_765\n        /* \"#utility.yul\":32219:32223   */\n      dup7\n        /* \"#utility.yul\":32187:32224   */\n      tag_462\n      jump\t// in\n    tag_765:\n        /* \"#utility.yul\":32246:32247   */\n      0x00\n        /* \"#utility.yul\":32260:32468   */\n    tag_766:\n        /* \"#utility.yul\":32274:32281   */\n      dup3\n        /* \"#utility.yul\":32271:32272   */\n      dup2\n        /* \"#utility.yul\":32268:32282   */\n      lt\n        /* \"#utility.yul\":32260:32468   */\n      iszero\n      tag_768\n      jumpi\n        /* \"#utility.yul\":32353:32362   */\n      dup5\n        /* \"#utility.yul\":32348:32351   */\n      dup10\n        /* \"#utility.yul\":32344:32363   */\n      add\n        /* \"#utility.yul\":32338:32364   */\n      mload\n        /* \"#utility.yul\":32330:32336   */\n      dup3\n        /* \"#utility.yul\":32323:32365   */\n      sstore\n        /* \"#utility.yul\":32404:32405   */\n      0x01\n        /* \"#utility.yul\":32396:32402   */\n      dup3\n        /* \"#utility.yul\":32392:32406   */\n      add\n        /* \"#utility.yul\":32382:32406   */\n      swap2\n      pop\n        /* \"#utility.yul\":32451:32453   */\n      0x20\n        /* \"#utility.yul\":32440:32449   */\n      dup6\n        /* \"#utility.yul\":32436:32454   */\n      add\n        /* \"#utility.yul\":32423:32454   */\n      swap5\n      pop\n        /* \"#utility.yul\":32297:32301   */\n      0x20\n        /* \"#utility.yul\":32294:32295   */\n      dup2\n        /* \"#utility.yul\":32290:32302   */\n      add\n        /* \"#utility.yul\":32285:32302   */\n      swap1\n      pop\n        /* \"#utility.yul\":32260:32468   */\n      jump(tag_766)\n    tag_768:\n        /* \"#utility.yul\":32496:32502   */\n      dup7\n        /* \"#utility.yul\":32487:32494   */\n      dup4\n        /* \"#utility.yul\":32484:32503   */\n      lt\n        /* \"#utility.yul\":32481:32660   */\n      iszero\n      tag_769\n      jumpi\n        /* \"#utility.yul\":32554:32563   */\n      dup5\n        /* \"#utility.yul\":32549:32552   */\n      dup10\n        /* \"#utility.yul\":32545:32564   */\n      add\n        /* \"#utility.yul\":32539:32565   */\n      mload\n        /* \"#utility.yul\":32597:32645   */\n      tag_770\n        /* \"#utility.yul\":32639:32643   */\n      0x1f\n        /* \"#utility.yul\":32631:32637   */\n      dup10\n        /* \"#utility.yul\":32627:32644   */\n      and\n        /* \"#utility.yul\":32616:32625   */\n      dup3\n        /* \"#utility.yul\":32597:32645   */\n      tag_475\n      jump\t// in\n    tag_770:\n        /* \"#utility.yul\":32589:32595   */\n      dup4\n        /* \"#utility.yul\":32582:32646   */\n      sstore\n        /* \"#utility.yul\":32504:32660   */\n      pop\n        /* \"#utility.yul\":32481:32660   */\n    tag_769:\n        /* \"#utility.yul\":32706:32707   */\n      0x01\n        /* \"#utility.yul\":32702:32703   */\n      0x02\n        /* \"#utility.yul\":32694:32700   */\n      dup9\n        /* \"#utility.yul\":32690:32704   */\n      mul\n        /* \"#utility.yul\":32686:32708   */\n      add\n        /* \"#utility.yul\":32680:32684   */\n      dup9\n        /* \"#utility.yul\":32673:32709   */\n      sstore\n        /* \"#utility.yul\":32108:32719   */\n      pop\n      pop\n      pop\n        /* \"#utility.yul\":32071:32958   */\n    tag_761:\n      pop\n        /* \"#utility.yul\":31661:32964   */\n      pop\n      pop\n      pop\n        /* \"#utility.yul\":31569:32964   */\n      pop\n      pop\n      jump\t// out\n        /* \"#utility.yul\":32970:33267   */\n    tag_477:\n        /* \"#utility.yul\":33110:33144   */\n      0x5468652070726f706f73616c2073657373696f6e206973206e6f7420656e6465\n        /* \"#utility.yul\":33106:33107   */\n      0x00\n        /* \"#utility.yul\":33098:33104   */\n      dup3\n        /* \"#utility.yul\":33094:33108   */\n      add\n        /* \"#utility.yul\":33087:33145   */\n      mstore\n        /* \"#utility.yul\":33179:33213   */\n      0x64206f722074686520766f74652073657373696f6e2068617320616c72656164\n        /* \"#utility.yul\":33174:33176   */\n      0x20\n        /* \"#utility.yul\":33166:33172   */\n      dup3\n        /* \"#utility.yul\":33162:33177   */\n      add\n        /* \"#utility.yul\":33155:33214   */\n      mstore\n        /* \"#utility.yul\":33248:33259   */\n      0x7920737461727465640000000000000000000000000000000000000000000000\n        /* \"#utility.yul\":33243:33245   */\n      0x40\n        /* \"#utility.yul\":33235:33241   */\n      dup3\n        /* \"#utility.yul\":33231:33246   */\n      add\n        /* \"#utility.yul\":33224:33260   */\n      mstore\n        /* \"#utility.yul\":32970:33267   */\n      pop\n      jump\t// out\n        /* \"#utility.yul\":33273:33639   */\n    tag_478:\n        /* \"#utility.yul\":33415:33418   */\n      0x00\n        /* \"#utility.yul\":33436:33503   */\n      tag_773\n        /* \"#utility.yul\":33500:33502   */\n      0x49\n        /* \"#utility.yul\":33495:33498   */\n      dup4\n        /* \"#utility.yul\":33436:33503   */\n      tag_403\n      jump\t// in\n    tag_773:\n        /* \"#utility.yul\":33429:33503   */\n      swap2\n      pop\n        /* \"#utility.yul\":33512:33605   */\n      tag_774\n        /* \"#utility.yul\":33601:33604   */\n      dup3\n        /* \"#utility.yul\":33512:33605   */\n      tag_477\n      jump\t// in\n    tag_774:\n        /* \"#utility.yul\":33630:33632   */\n      0x60\n        /* \"#utility.yul\":33625:33628   */\n      dup3\n        /* \"#utility.yul\":33621:33633   */\n      add\n        /* \"#utility.yul\":33614:33633   */\n      swap1\n      pop\n        /* \"#utility.yul\":33273:33639   */\n      swap2\n      swap1\n      pop\n      jump\t// out\n        /* \"#utility.yul\":33645:34064   */\n    tag_286:\n        /* \"#utility.yul\":33811:33815   */\n      0x00\n        /* \"#utility.yul\":33849:33851   */\n      0x20\n        /* \"#utility.yul\":33838:33847   */\n      dup3\n        /* \"#utility.yul\":33834:33852   */\n      add\n        /* \"#utility.yul\":33826:33852   */\n      swap1\n      pop\n        /* \"#utility.yul\":33898:33907   */\n      dup2\n        /* \"#utility.yul\":33892:33896   */\n      dup2\n        /* \"#utility.yul\":33888:33908   */\n      sub\n        /* \"#utility.yul\":33884:33885   */\n      0x00\n        /* \"#utility.yul\":33873:33882   */\n      dup4\n        /* \"#utility.yul\":33869:33886   */\n      add\n        /* \"#utility.yul\":33862:33909   */\n      mstore\n        /* \"#utility.yul\":33926:34057   */\n      tag_776\n        /* \"#utility.yul\":34052:34056   */\n      dup2\n        /* \"#utility.yul\":33926:34057   */\n      tag_478\n      jump\t// in\n    tag_776:\n        /* \"#utility.yul\":33918:34057   */\n      swap1\n      pop\n        /* \"#utility.yul\":33645:34064   */\n      swap2\n      swap1\n      pop\n      jump\t// out\n        /* \"#utility.yul\":34070:34249   */\n    tag_479:\n        /* \"#utility.yul\":34210:34241   */\n      0x54686520766f74652073657373696f6e206973206e6f7420656e646564000000\n        /* \"#utility.yul\":34206:34207   */\n      0x00\n        /* \"#utility.yul\":34198:34204   */\n      dup3\n        /* \"#utility.yul\":34194:34208   */\n      add\n        /* \"#utility.yul\":34187:34242   */\n      mstore\n        /* \"#utility.yul\":34070:34249   */\n      pop\n      jump\t// out\n        /* \"#utility.yul\":34255:34621   */\n    tag_480:\n        /* \"#utility.yul\":34397:34400   */\n      0x00\n        /* \"#utility.yul\":34418:34485   */\n      tag_779\n        /* \"#utility.yul\":34482:34484   */\n      0x1d\n        /* \"#utility.yul\":34477:34480   */\n      dup4\n        /* \"#utility.yul\":34418:34485   */\n      tag_403\n      jump\t// in\n    tag_779:\n        /* \"#utility.yul\":34411:34485   */\n      swap2\n      pop\n        /* \"#utility.yul\":34494:34587   */\n      tag_780\n        /* \"#utility.yul\":34583:34586   */\n      dup3\n        /* \"#utility.yul\":34494:34587   */\n      tag_479\n      jump\t// in\n    tag_780:\n        /* \"#utility.yul\":34612:34614   */\n      0x20\n        /* \"#utility.yul\":34607:34610   */\n      dup3\n        /* \"#utility.yul\":34603:34615   */\n      add\n        /* \"#utility.yul\":34596:34615   */\n      swap1\n      pop\n        /* \"#utility.yul\":34255:34621   */\n      swap2\n      swap1\n      pop\n      jump\t// out\n        /* \"#utility.yul\":34627:35046   */\n    tag_304:\n        /* \"#utility.yul\":34793:34797   */\n      0x00\n        /* \"#utility.yul\":34831:34833   */\n      0x20\n        /* \"#utility.yul\":34820:34829   */\n      dup3\n        /* \"#utility.yul\":34816:34834   */\n      add\n        /* \"#utility.yul\":34808:34834   */\n      swap1\n      pop\n        /* \"#utility.yul\":34880:34889   */\n      dup2\n        /* \"#utility.yul\":34874:34878   */\n      dup2\n        /* \"#utility.yul\":34870:34890   */\n      sub\n        /* \"#utility.yul\":34866:34867   */\n      0x00\n        /* \"#utility.yul\":34855:34864   */\n      dup4\n        /* \"#utility.yul\":34851:34868   */\n      add\n        /* \"#utility.yul\":34844:34891   */\n      mstore\n        /* \"#utility.yul\":34908:35039   */\n      tag_782\n        /* \"#utility.yul\":35034:35038   */\n      dup2\n        /* \"#utility.yul\":34908:35039   */\n      tag_480\n      jump\t// in\n    tag_782:\n        /* \"#utility.yul\":34900:35039   */\n      swap1\n      pop\n        /* \"#utility.yul\":34627:35046   */\n      swap2\n      swap1\n      pop\n      jump\t// out\n        /* \"#utility.yul\":35052:35284   */\n    tag_481:\n        /* \"#utility.yul\":35192:35226   */\n      0x5468657265206973206d6f7265207468616e20312077696e6e65722c20796f75\n        /* \"#utility.yul\":35188:35189   */\n      0x00\n        /* \"#utility.yul\":35180:35186   */\n      dup3\n        /* \"#utility.yul\":35176:35190   */\n      add\n        /* \"#utility.yul\":35169:35227   */\n      mstore\n        /* \"#utility.yul\":35261:35276   */\n      0x206861766520746f20766f746500000000000000000000000000000000000000\n        /* \"#utility.yul\":35256:35258   */\n      0x20\n        /* \"#utility.yul\":35248:35254   */\n      dup3\n        /* \"#utility.yul\":35244:35259   */\n      add\n        /* \"#utility.yul\":35237:35277   */\n      mstore\n        /* \"#utility.yul\":35052:35284   */\n      pop\n      jump\t// out\n        /* \"#utility.yul\":35290:35656   */\n    tag_482:\n        /* \"#utility.yul\":35432:35435   */\n      0x00\n        /* \"#utility.yul\":35453:35520   */\n      tag_785\n        /* \"#utility.yul\":35517:35519   */\n      0x2d\n        /* \"#utility.yul\":35512:35515   */\n      dup4\n        /* \"#utility.yul\":35453:35520   */\n      tag_403\n      jump\t// in\n    tag_785:\n        /* \"#utility.yul\":35446:35520   */\n      swap2\n      pop\n        /* \"#utility.yul\":35529:35622   */\n      tag_786\n        /* \"#utility.yul\":35618:35621   */\n      dup3\n        /* \"#utility.yul\":35529:35622   */\n      tag_481\n      jump\t// in\n    tag_786:\n        /* \"#utility.yul\":35647:35649   */\n      0x40\n        /* \"#utility.yul\":35642:35645   */\n      dup3\n        /* \"#utility.yul\":35638:35650   */\n      add\n        /* \"#utility.yul\":35631:35650   */\n      swap1\n      pop\n        /* \"#utility.yul\":35290:35656   */\n      swap2\n      swap1\n      pop\n      jump\t// out\n        /* \"#utility.yul\":35662:36081   */\n    tag_307:\n        /* \"#utility.yul\":35828:35832   */\n      0x00\n        /* \"#utility.yul\":35866:35868   */\n      0x20\n        /* \"#utility.yul\":35855:35864   */\n      dup3\n        /* \"#utility.yul\":35851:35869   */\n      add\n        /* \"#utility.yul\":35843:35869   */\n      swap1\n      pop\n        /* \"#utility.yul\":35915:35924   */\n      dup2\n        /* \"#utility.yul\":35909:35913   */\n      dup2\n        /* \"#utility.yul\":35905:35925   */\n      sub\n        /* \"#utility.yul\":35901:35902   */\n      0x00\n        /* \"#utility.yul\":35890:35899   */\n      dup4\n        /* \"#utility.yul\":35886:35903   */\n      add\n        /* \"#utility.yul\":35879:35926   */\n      mstore\n        /* \"#utility.yul\":35943:36074   */\n      tag_788\n        /* \"#utility.yul\":36069:36073   */\n      dup2\n        /* \"#utility.yul\":35943:36074   */\n      tag_482\n      jump\t// in\n    tag_788:\n        /* \"#utility.yul\":35935:36074   */\n      swap1\n      pop\n        /* \"#utility.yul\":35662:36081   */\n      swap2\n      swap1\n      pop\n      jump\t// out\n        /* \"#utility.yul\":36087:36336   */\n    tag_483:\n        /* \"#utility.yul\":36227:36261   */\n      0x5468652070726f706f73616c2073657373696f6e20686173206e6f7420737461\n        /* \"#utility.yul\":36223:36224   */\n      0x00\n        /* \"#utility.yul\":36215:36221   */\n      dup3\n        /* \"#utility.yul\":36211:36225   */\n      add\n        /* \"#utility.yul\":36204:36262   */\n      mstore\n        /* \"#utility.yul\":36296:36328   */\n      0x72746564206f722068617320616c7265616479206265656e20656e6465640000\n        /* \"#utility.yul\":36291:36293   */\n      0x20\n        /* \"#utility.yul\":36283:36289   */\n      dup3\n        /* \"#utility.yul\":36279:36294   */\n      add\n        /* \"#utility.yul\":36272:36329   */\n      mstore\n        /* \"#utility.yul\":36087:36336   */\n      pop\n      jump\t// out\n        /* \"#utility.yul\":36342:36708   */\n    tag_484:\n        /* \"#utility.yul\":36484:36487   */\n      0x00\n        /* \"#utility.yul\":36505:36572   */\n      tag_791\n        /* \"#utility.yul\":36569:36571   */\n      0x3e\n        /* \"#utility.yul\":36564:36567   */\n      dup4\n        /* \"#utility.yul\":36505:36572   */\n      tag_403\n      jump\t// in\n    tag_791:\n        /* \"#utility.yul\":36498:36572   */\n      swap2\n      pop\n        /* \"#utility.yul\":36581:36674   */\n      tag_792\n        /* \"#utility.yul\":36670:36673   */\n      dup3\n        /* \"#utility.yul\":36581:36674   */\n      tag_483\n      jump\t// in\n    tag_792:\n        /* \"#utility.yul\":36699:36701   */\n      0x40\n        /* \"#utility.yul\":36694:36697   */\n      dup3\n        /* \"#utility.yul\":36690:36702   */\n      add\n        /* \"#utility.yul\":36683:36702   */\n      swap1\n      pop\n        /* \"#utility.yul\":36342:36708   */\n      swap2\n      swap1\n      pop\n      jump\t// out\n        /* \"#utility.yul\":36714:37133   */\n    tag_326:\n        /* \"#utility.yul\":36880:36884   */\n      0x00\n        /* \"#utility.yul\":36918:36920   */\n      0x20\n        /* \"#utility.yul\":36907:36916   */\n      dup3\n        /* \"#utility.yul\":36903:36921   */\n      add\n        /* \"#utility.yul\":36895:36921   */\n      swap1\n      pop\n        /* \"#utility.yul\":36967:36976   */\n      dup2\n        /* \"#utility.yul\":36961:36965   */\n      dup2\n        /* \"#utility.yul\":36957:36977   */\n      sub\n        /* \"#utility.yul\":36953:36954   */\n      0x00\n        /* \"#utility.yul\":36942:36951   */\n      dup4\n        /* \"#utility.yul\":36938:36955   */\n      add\n        /* \"#utility.yul\":36931:36978   */\n      mstore\n        /* \"#utility.yul\":36995:37126   */\n      tag_794\n        /* \"#utility.yul\":37121:37125   */\n      dup2\n        /* \"#utility.yul\":36995:37126   */\n      tag_484\n      jump\t// in\n    tag_794:\n        /* \"#utility.yul\":36987:37126   */\n      swap1\n      pop\n        /* \"#utility.yul\":36714:37133   */\n      swap2\n      swap1\n      pop\n      jump\t// out\n        /* \"#utility.yul\":37139:37359   */\n    tag_485:\n        /* \"#utility.yul\":37279:37313   */\n      0x546865726520617265206e6f2070726f706f73616c7320726567697374657265\n        /* \"#utility.yul\":37275:37276   */\n      0x00\n        /* \"#utility.yul\":37267:37273   */\n      dup3\n        /* \"#utility.yul\":37263:37277   */\n      add\n        /* \"#utility.yul\":37256:37314   */\n      mstore\n        /* \"#utility.yul\":37348:37351   */\n      0x6400000000000000000000000000000000000000000000000000000000000000\n        /* \"#utility.yul\":37343:37345   */\n      0x20\n        /* \"#utility.yul\":37335:37341   */\n      dup3\n        /* \"#utility.yul\":37331:37346   */\n      add\n        /* \"#utility.yul\":37324:37352   */\n      mstore\n        /* \"#utility.yul\":37139:37359   */\n      pop\n      jump\t// out\n        /* \"#utility.yul\":37365:37731   */\n    tag_486:\n        /* \"#utility.yul\":37507:37510   */\n      0x00\n        /* \"#utility.yul\":37528:37595   */\n      tag_797\n        /* \"#utility.yul\":37592:37594   */\n      0x21\n        /* \"#utility.yul\":37587:37590   */\n      dup4\n        /* \"#utility.yul\":37528:37595   */\n      tag_403\n      jump\t// in\n    tag_797:\n        /* \"#utility.yul\":37521:37595   */\n      swap2\n      pop\n        /* \"#utility.yul\":37604:37697   */\n      tag_798\n        /* \"#utility.yul\":37693:37696   */\n      dup3\n        /* \"#utility.yul\":37604:37697   */\n      tag_485\n      jump\t// in\n    tag_798:\n        /* \"#utility.yul\":37722:37724   */\n      0x40\n        /* \"#utility.yul\":37717:37720   */\n      dup3\n        /* \"#utility.yul\":37713:37725   */\n      add\n        /* \"#utility.yul\":37706:37725   */\n      swap1\n      pop\n        /* \"#utility.yul\":37365:37731   */\n      swap2\n      swap1\n      pop\n      jump\t// out\n        /* \"#utility.yul\":37737:38156   */\n    tag_329:\n        /* \"#utility.yul\":37903:37907   */\n      0x00\n        /* \"#utility.yul\":37941:37943   */\n      0x20\n        /* \"#utility.yul\":37930:37939   */\n      dup3\n        /* \"#utility.yul\":37926:37944   */\n      add\n        /* \"#utility.yul\":37918:37944   */\n      swap1\n      pop\n        /* \"#utility.yul\":37990:37999   */\n      dup2\n        /* \"#utility.yul\":37984:37988   */\n      dup2\n        /* \"#utility.yul\":37980:38000   */\n      sub\n        /* \"#utility.yul\":37976:37977   */\n      0x00\n        /* \"#utility.yul\":37965:37974   */\n      dup4\n        /* \"#utility.yul\":37961:37978   */\n      add\n        /* \"#utility.yul\":37954:38001   */\n      mstore\n        /* \"#utility.yul\":38018:38149   */\n      tag_800\n        /* \"#utility.yul\":38144:38148   */\n      dup2\n        /* \"#utility.yul\":38018:38149   */\n      tag_486\n      jump\t// in\n    tag_800:\n        /* \"#utility.yul\":38010:38149   */\n      swap1\n      pop\n        /* \"#utility.yul\":37737:38156   */\n      swap2\n      swap1\n      pop\n      jump\t// out\n        /* \"#utility.yul\":38162:38402   */\n    tag_487:\n        /* \"#utility.yul\":38302:38336   */\n      0x54686520766f74652073657373696f6e20686173206e6f742073746172746564\n        /* \"#utility.yul\":38298:38299   */\n      0x00\n        /* \"#utility.yul\":38290:38296   */\n      dup3\n        /* \"#utility.yul\":38286:38300   */\n      add\n        /* \"#utility.yul\":38279:38337   */\n      mstore\n        /* \"#utility.yul\":38371:38394   */\n      0x206f722068617320616c726561647920656e6465640000000000000000000000\n        /* \"#utility.yul\":38366:38368   */\n      0x20\n        /* \"#utility.yul\":38358:38364   */\n      dup3\n        /* \"#utility.yul\":38354:38369   */\n      add\n        /* \"#utility.yul\":38347:38395   */\n      mstore\n        /* \"#utility.yul\":38162:38402   */\n      pop\n      jump\t// out\n        /* \"#utility.yul\":38408:38774   */\n    tag_488:\n        /* \"#utility.yul\":38550:38553   */\n      0x00\n        /* \"#utility.yul\":38571:38638   */\n      tag_803\n        /* \"#utility.yul\":38635:38637   */\n      0x35\n        /* \"#utility.yul\":38630:38633   */\n      dup4\n        /* \"#utility.yul\":38571:38638   */\n      tag_403\n      jump\t// in\n    tag_803:\n        /* \"#utility.yul\":38564:38638   */\n      swap2\n      pop\n        /* \"#utility.yul\":38647:38740   */\n      tag_804\n        /* \"#utility.yul\":38736:38739   */\n      dup3\n        /* \"#utility.yul\":38647:38740   */\n      tag_487\n      jump\t// in\n    tag_804:\n        /* \"#utility.yul\":38765:38767   */\n      0x40\n        /* \"#utility.yul\":38760:38763   */\n      dup3\n        /* \"#utility.yul\":38756:38768   */\n      add\n        /* \"#utility.yul\":38749:38768   */\n      swap1\n      pop\n        /* \"#utility.yul\":38408:38774   */\n      swap2\n      swap1\n      pop\n      jump\t// out\n        /* \"#utility.yul\":38780:39199   */\n    tag_354:\n        /* \"#utility.yul\":38946:38950   */\n      0x00\n        /* \"#utility.yul\":38984:38986   */\n      0x20\n        /* \"#utility.yul\":38973:38982   */\n      dup3\n        /* \"#utility.yul\":38969:38987   */\n      add\n        /* \"#utility.yul\":38961:38987   */\n      swap1\n      pop\n        /* \"#utility.yul\":39033:39042   */\n      dup2\n        /* \"#utility.yul\":39027:39031   */\n      dup2\n        /* \"#utility.yul\":39023:39043   */\n      sub\n        /* \"#utility.yul\":39019:39020   */\n      0x00\n        /* \"#utility.yul\":39008:39017   */\n      dup4\n        /* \"#utility.yul\":39004:39021   */\n      add\n        /* \"#utility.yul\":38997:39044   */\n      mstore\n        /* \"#utility.yul\":39061:39192   */\n      tag_806\n        /* \"#utility.yul\":39187:39191   */\n      dup2\n        /* \"#utility.yul\":39061:39192   */\n      tag_488\n      jump\t// in\n    tag_806:\n        /* \"#utility.yul\":39053:39192   */\n      swap1\n      pop\n        /* \"#utility.yul\":38780:39199   */\n      swap2\n      swap1\n      pop\n      jump\t// out\n        /* \"#utility.yul\":39205:39383   */\n    tag_489:\n        /* \"#utility.yul\":39345:39375   */\n      0x546865726520617265206e6f20766f7465207265676973746572656400000000\n        /* \"#utility.yul\":39341:39342   */\n      0x00\n        /* \"#utility.yul\":39333:39339   */\n      dup3\n        /* \"#utility.yul\":39329:39343   */\n      add\n        /* \"#utility.yul\":39322:39376   */\n      mstore\n        /* \"#utility.yul\":39205:39383   */\n      pop\n      jump\t// out\n        /* \"#utility.yul\":39389:39755   */\n    tag_490:\n        /* \"#utility.yul\":39531:39534   */\n      0x00\n        /* \"#utility.yul\":39552:39619   */\n      tag_809\n        /* \"#utility.yul\":39616:39618   */\n      0x1c\n        /* \"#utility.yul\":39611:39614   */\n      dup4\n        /* \"#utility.yul\":39552:39619   */\n      tag_403\n      jump\t// in\n    tag_809:\n        /* \"#utility.yul\":39545:39619   */\n      swap2\n      pop\n        /* \"#utility.yul\":39628:39721   */\n      tag_810\n        /* \"#utility.yul\":39717:39720   */\n      dup3\n        /* \"#utility.yul\":39628:39721   */\n      tag_489\n      jump\t// in\n    tag_810:\n        /* \"#utility.yul\":39746:39748   */\n      0x20\n        /* \"#utility.yul\":39741:39744   */\n      dup3\n        /* \"#utility.yul\":39737:39749   */\n      add\n        /* \"#utility.yul\":39730:39749   */\n      swap1\n      pop\n        /* \"#utility.yul\":39389:39755   */\n      swap2\n      swap1\n      pop\n      jump\t// out\n        /* \"#utility.yul\":39761:40180   */\n    tag_357:\n        /* \"#utility.yul\":39927:39931   */\n      0x00\n        /* \"#utility.yul\":39965:39967   */\n      0x20\n        /* \"#utility.yul\":39954:39963   */\n      dup3\n        /* \"#utility.yul\":39950:39968   */\n      add\n        /* \"#utility.yul\":39942:39968   */\n      swap1\n      pop\n        /* \"#utility.yul\":40014:40023   */\n      dup2\n        /* \"#utility.yul\":40008:40012   */\n      dup2\n        /* \"#utility.yul\":40004:40024   */\n      sub\n        /* \"#utility.yul\":40000:40001   */\n      0x00\n        /* \"#utility.yul\":39989:39998   */\n      dup4\n        /* \"#utility.yul\":39985:40002   */\n      add\n        /* \"#utility.yul\":39978:40025   */\n      mstore\n        /* \"#utility.yul\":40042:40173   */\n      tag_812\n        /* \"#utility.yul\":40168:40172   */\n      dup2\n        /* \"#utility.yul\":40042:40173   */\n      tag_490\n      jump\t// in\n    tag_812:\n        /* \"#utility.yul\":40034:40173   */\n      swap1\n      pop\n        /* \"#utility.yul\":39761:40180   */\n      swap2\n      swap1\n      pop\n      jump\t// out\n\n    auxdata: 0xa2646970667358221220604286f8a0e9d1a66894544beae76ae765259d6dcdb9128c38ece8a764c059e764736f6c634300081c0033\n}\n",
				"bytecode": {
					"linkReferences": {},
					"object": "60806040525f60035f6101000a81548160ff0219169083600581111561002857610027610185565b5b0217905550600160095534801561003d575f5ffd5b50335f73ffffffffffffffffffffffffffffffffffffffff168173ffffffffffffffffffffffffffffffffffffffff16036100af575f6040517f1e4fbdf70000000000000000000000000000000000000000000000000000000081526004016100a691906101f1565b60405180910390fd5b6100be816100c460201b60201c565b5061020a565b5f5f5f9054906101000a900473ffffffffffffffffffffffffffffffffffffffff169050815f5f6101000a81548173ffffffffffffffffffffffffffffffffffffffff021916908373ffffffffffffffffffffffffffffffffffffffff1602179055508173ffffffffffffffffffffffffffffffffffffffff168173ffffffffffffffffffffffffffffffffffffffff167f8be0079c531659141344cd1fd0a4f28419497f9722a3daafe3b4186f6b6457e060405160405180910390a35050565b7f4e487b71000000000000000000000000000000000000000000000000000000005f52602160045260245ffd5b5f73ffffffffffffffffffffffffffffffffffffffff82169050919050565b5f6101db826101b2565b9050919050565b6101eb816101d1565b82525050565b5f6020820190506102045f8301846101e2565b92915050565b613071806102175f395ff3fe608060405234801561000f575f5ffd5b506004361061014b575f3560e01c80639589dfcc116100c1578063ada7415f1161007a578063ada7415f14610331578063c08cc02d1461033b578063e06752c214610359578063e1ab86fb14610363578063f2fde38b14610381578063f74c168d1461039d5761014b565b80639589dfcc1461027f578063a3c1885b1461029d578063a3dd2619146102bb578063a46c3637146102d9578063aa98df39146102f7578063aaa98346146103275761014b565b80635bc46514116101135780635bc46514146101cd57806362564c48146101eb57806365f88a7c14610209578063715018a61461022757806380525548146102315780638da5cb5b146102615761014b565b80630121b93f1461014f57806311174a291461016b57806338db6dd31461018957806343850c2d146101a557806350d072fc146101c3575b5f5ffd5b61016960048036038101906101649190611c5c565b6103a7565b005b61017361073b565b6040516101809190611c96565b60405180910390f35b6101a3600480360381019061019e9190611d09565b610744565b005b6101ad61094d565b6040516101ba9190611da4565b60405180910390f35b6101cb610a73565b005b6101d5610be5565b6040516101e29190611c96565b60405180910390f35b6101f3610c62565b6040516102009190611f10565b60405180910390f35b610211610d57565b60405161021e9190611fa3565b60405180910390f35b61022f610d9c565b005b61024b60048036038101906102469190611d09565b610daf565b6040516102589190611ff6565b60405180910390f35b610269610fec565b6040516102769190612025565b60405180910390f35b610287611013565b6040516102949190611c96565b60405180910390f35b6102a561101c565b6040516102b29190611ff6565b60405180910390f35b6102c3611163565b6040516102d09190611fa3565b60405180910390f35b6102e1611178565b6040516102ee9190611c96565b60405180910390f35b610311600480360381019061030c919061216a565b611181565b60405161031e9190611da4565b60405180910390f35b61032f6113e9565b005b610339611516565b005b610343611689565b6040516103509190611c96565b60405180910390f35b610361611695565b005b61036b61180a565b6040516103789190611c96565b60405180910390f35b61039b60048036038101906103969190611d09565b611813565b005b6103a5611897565b005b3373ffffffffffffffffffffffffffffffffffffffff166103c6610fec565b73ffffffffffffffffffffffffffffffffffffffff160361043357600160085411610426576040517f08c379a000000000000000000000000000000000000000000000000000000000815260040161041d90612221565b60405180910390fd5b60016008819055506105cd565b6003600581111561044757610446611f30565b5b60035f9054906101000a900460ff16600581111561046857610467611f30565b5b146104a8576040517f08c379a000000000000000000000000000000000000000000000000000000000815260040161049f906122af565b60405180910390fd5b6001151560015f3373ffffffffffffffffffffffffffffffffffffffff1673ffffffffffffffffffffffffffffffffffffffff1681526020019081526020015f205f015f9054906101000a900460ff1615151461053a576040517f08c379a000000000000000000000000000000000000000000000000000000000815260040161053190612317565b60405180910390fd5b5f151560015f3373ffffffffffffffffffffffffffffffffffffffff1673ffffffffffffffffffffffffffffffffffffffff1681526020019081526020015f205f0160019054906101000a900460ff161515146105cc576040517f08c379a00000000000000000000000000000000000000000000000000000000081526004016105c39061237f565b60405180910390fd5b5b6002805490508110610614576040517f08c379a000000000000000000000000000000000000000000000000000000000815260040161060b906123e7565b60405180910390fd5b6001805f3373ffffffffffffffffffffffffffffffffffffffff1673ffffffffffffffffffffffffffffffffffffffff1681526020019081526020015f205f0160016101000a81548160ff0219169083151502179055508060015f3373ffffffffffffffffffffffffffffffffffffffff1673ffffffffffffffffffffffffffffffffffffffff1681526020019081526020015f2060010181905550600281815481106106c4576106c3612405565b5b905f5260205f2090600202016001015f8154809291906106e39061245f565b919050555060065f8154809291906106fa9061245f565b91905055507f4d99b957a2bc29a30ebd96a7be8e68fe50a3c701db28a91436490b7d53870ca433826040516107309291906124a6565b60405180910390a150565b5f600554905090565b61074c611a11565b5f600581111561075f5761075e611f30565b5b60035f9054906101000a900460ff1660058111156107805761077f611f30565b5b146107c0576040517f08c379a00000000000000000000000000000000000000000000000000000000081526004016107b79061253d565b60405180910390fd5b5f151560015f8373ffffffffffffffffffffffffffffffffffffffff1673ffffffffffffffffffffffffffffffffffffffff1681526020019081526020015f205f015f9054906101000a900460ff16151514610851576040517f08c379a0000000000000000000000000000000000000000000000000000000008152600401610848906125a5565b60405180910390fd5b5f60405180606001604052806001151581526020015f151581526020015f81525090508060015f8473ffffffffffffffffffffffffffffffffffffffff1673ffffffffffffffffffffffffffffffffffffffff1681526020019081526020015f205f820151815f015f6101000a81548160ff0219169083151502179055506020820151815f0160016101000a81548160ff0219169083151502179055506040820151816001015590505060055f81548092919061090d9061245f565b91905055507fb6be2187d059cc2a55fe29e0e503b566e1e0f8c8780096e185429350acffd3dd826040516109419190612025565b60405180910390a15050565b606060058081111561096257610961611f30565b5b60035f9054906101000a900460ff16600581111561098357610982611f30565b5b146109c3576040517f08c379a00000000000000000000000000000000000000000000000000000000081526004016109ba90612633565b60405180910390fd5b6002600454815481106109d9576109d8612405565b5b905f5260205f2090600202015f0180546109f29061267e565b80601f0160208091040260200160405190810160405280929190818152602001828054610a1e9061267e565b8015610a695780601f10610a4057610100808354040283529160200191610a69565b820191905f5260205f20905b815481529060010190602001808311610a4c57829003601f168201915b5050505050905090565b610a7b611a11565b5f6005811115610a8e57610a8d611f30565b5b60035f9054906101000a900460ff166005811115610aaf57610aae611f30565b5b14610aef576040517f08c379a0000000000000000000000000000000000000000000000000000000008152600401610ae69061271e565b60405180910390fd5b600160055411610b34576040517f08c379a0000000000000000000000000000000000000000000000000000000008152600401610b2b906127ac565b60405180910390fd5b600160035f6101000a81548160ff02191690836005811115610b5957610b58611f30565b5b02179055507f0a97a4ee45751e2abf3e4fc8946939630b11b371ea8ae39ccdc3056e98f5cc3f600160035f9054906101000a900460ff166005811115610ba257610ba1611f30565b5b610bac91906127ca565b6005811115610bbe57610bbd611f30565b5b60035f9054906101000a900460ff16604051610bdb9291906127fd565b60405180910390a1565b5f600580811115610bf957610bf8611f30565b5b60035f9054906101000a900460ff166005811115610c1a57610c19611f30565b5b14610c5a576040517f08c379a0000000000000000000000000000000000000000000000000000000008152600401610c5190612633565b60405180910390fd5b600454905090565b60606002805480602002602001604051908101604052809291908181526020015f905b82821015610d4e578382905f5260205f2090600202016040518060400160405290815f82018054610cb59061267e565b80601f0160208091040260200160405190810160405280929190818152602001828054610ce19061267e565b8015610d2c5780601f10610d0357610100808354040283529160200191610d2c565b820191905f5260205f20905b815481529060010190602001808311610d0f57829003601f168201915b5050505050815260200160018201548152505081526020019060010190610c85565b50505050905090565b5f600160035f9054906101000a900460ff166005811115610d7b57610d7a611f30565b5b610d8591906127ca565b6005811115610d9757610d96611f30565b5b905090565b610da4611a11565b610dad5f611a98565b565b610db7611bff565b6001151560015f8473ffffffffffffffffffffffffffffffffffffffff1673ffffffffffffffffffffffffffffffffffffffff1681526020019081526020015f205f015f9054906101000a900460ff16151514610e49576040517f08c379a0000000000000000000000000000000000000000000000000000000008152600401610e409061286e565b60405180910390fd5b6001151560015f8473ffffffffffffffffffffffffffffffffffffffff1673ffffffffffffffffffffffffffffffffffffffff1681526020019081526020015f205f0160019054906101000a900460ff16151514610edc576040517f08c379a0000000000000000000000000000000000000000000000000000000008152600401610ed3906128d6565b60405180910390fd5b5f60015f8473ffffffffffffffffffffffffffffffffffffffff1673ffffffffffffffffffffffffffffffffffffffff1681526020019081526020015f2060010154905060028181548110610f3457610f33612405565b5b905f5260205f2090600202016040518060400160405290815f82018054610f5a9061267e565b80601f0160208091040260200160405190810160405280929190818152602001828054610f869061267e565b8015610fd15780601f10610fa857610100808354040283529160200191610fd1565b820191905f5260205f20905b815481529060010190602001808311610fb457829003601f168201915b50505050508152602001600182015481525050915050919050565b5f5f5f9054906101000a900473ffffffffffffffffffffffffffffffffffffffff16905090565b5f600954905090565b611024611bff565b60058081111561103757611036611f30565b5b60035f9054906101000a900460ff16600581111561105857611057611f30565b5b14611098576040517f08c379a000000000000000000000000000000000000000000000000000000000815260040161108f90612633565b60405180910390fd5b6002600454815481106110ae576110ad612405565b5b905f5260205f2090600202016040518060400160405290815f820180546110d49061267e565b80601f01602080910402602001604051908101604052809291908181526020018280546111009061267e565b801561114b5780601f106111225761010080835404028352916020019161114b565b820191905f5260205f20905b81548152906001019060200180831161112e57829003601f168201915b50505050508152602001600182015481525050905090565b5f60035f9054906101000a900460ff16905090565b5f600854905090565b60606001600581111561119757611196611f30565b5b60035f9054906101000a900460ff1660058111156111b8576111b7611f30565b5b146111f8576040517f08c379a00000000000000000000000000000000000000000000000000000000081526004016111ef90612964565b60405180910390fd5b3373ffffffffffffffffffffffffffffffffffffffff16611217610fec565b73ffffffffffffffffffffffffffffffffffffffff160361126d576040517f08c379a0000000000000000000000000000000000000000000000000000000008152600401611264906129f2565b60405180910390fd5b6001151560015f3373ffffffffffffffffffffffffffffffffffffffff1673ffffffffffffffffffffffffffffffffffffffff1681526020019081526020015f205f015f9054906101000a900460ff161515146112ff576040517f08c379a00000000000000000000000000000000000000000000000000000000081526004016112f690612317565b60405180910390fd5b600260405180604001604052808481526020015f815250908060018154018082558091505060019003905f5260205f2090600202015f909190919091505f820151815f01908161134f9190612bb0565b5060208201518160010155505060075f81548092919061136e9061245f565b91905055507f92e393e9b54e2f801d3ea4beb0c5e71a21cc34a5d34b77d0fb8a3aa1650dc18f6007546040516113a49190611c96565b60405180910390a16040518060400160405280601681526020017f4f6b2070726f706f73616c2072656769737465726564000000000000000000008152509050919050565b6113f1611a11565b6002600581111561140557611404611f30565b5b60035f9054906101000a900460ff16600581111561142657611425611f30565b5b14611466576040517f08c379a000000000000000000000000000000000000000000000000000000000815260040161145d90612d15565b60405180910390fd5b6003805f6101000a81548160ff0219169083600581111561148a57611489611f30565b5b02179055507f0a97a4ee45751e2abf3e4fc8946939630b11b371ea8ae39ccdc3056e98f5cc3f600160035f9054906101000a900460ff1660058111156114d3576114d2611f30565b5b6114dd91906127ca565b60058111156114ef576114ee611f30565b5b60035f9054906101000a900460ff1660405161150c9291906127fd565b60405180910390a1565b61151e611a11565b6004600581111561153257611531611f30565b5b60035f9054906101000a900460ff16600581111561155357611552611f30565b5b14611593576040517f08c379a000000000000000000000000000000000000000000000000000000000815260040161158a90612d7d565b60405180910390fd5b6001600854146115d8576040517f08c379a00000000000000000000000000000000000000000000000000000000081526004016115cf90612e0b565b60405180910390fd5b600560035f6101000a81548160ff021916908360058111156115fd576115fc611f30565b5b02179055507f0a97a4ee45751e2abf3e4fc8946939630b11b371ea8ae39ccdc3056e98f5cc3f600160035f9054906101000a900460ff16600581111561164657611645611f30565b5b61165091906127ca565b600581111561166257611661611f30565b5b60035f9054906101000a900460ff1660405161167f9291906127fd565b60405180910390a1565b5f600280549050905090565b61169d611a11565b600160058111156116b1576116b0611f30565b5b60035f9054906101000a900460ff1660058111156116d2576116d1611f30565b5b14611712576040517f08c379a000000000000000000000000000000000000000000000000000000000815260040161170990612e99565b60405180910390fd5b5f60028054905011611759576040517f08c379a000000000000000000000000000000000000000000000000000000000815260040161175090612f27565b60405180910390fd5b600260035f6101000a81548160ff0219169083600581111561177e5761177d611f30565b5b02179055507f0a97a4ee45751e2abf3e4fc8946939630b11b371ea8ae39ccdc3056e98f5cc3f600160035f9054906101000a900460ff1660058111156117c7576117c6611f30565b5b6117d191906127ca565b60058111156117e3576117e2611f30565b5b60035f9054906101000a900460ff166040516118009291906127fd565b60405180910390a1565b5f600654905090565b61181b611a11565b5f73ffffffffffffffffffffffffffffffffffffffff168173ffffffffffffffffffffffffffffffffffffffff160361188b575f6040517f1e4fbdf70000000000000000000000000000000000000000000000000000000081526004016118829190612025565b60405180910390fd5b61189481611a98565b50565b61189f611a11565b600360058111156118b3576118b2611f30565b5b60035f9054906101000a900460ff1660058111156118d4576118d3611f30565b5b14611914576040517f08c379a000000000000000000000000000000000000000000000000000000000815260040161190b90612fb5565b60405180910390fd5b5f60065411611958576040517f08c379a000000000000000000000000000000000000000000000000000000000815260040161194f9061301d565b60405180910390fd5b600460035f6101000a81548160ff0219169083600581111561197d5761197c611f30565b5b021790555061198a611b59565b7f0a97a4ee45751e2abf3e4fc8946939630b11b371ea8ae39ccdc3056e98f5cc3f600160035f9054906101000a900460ff1660058111156119ce576119cd611f30565b5b6119d891906127ca565b60058111156119ea576119e9611f30565b5b60035f9054906101000a900460ff16604051611a079291906127fd565b60405180910390a1565b611a19611bf8565b73ffffffffffffffffffffffffffffffffffffffff16611a37610fec565b73ffffffffffffffffffffffffffffffffffffffff1614611a9657611a5a611bf8565b6040517f118cdaa7000000000000000000000000000000000000000000000000000000008152600401611a8d9190612025565b60405180910390fd5b565b5f5f5f9054906101000a900473ffffffffffffffffffffffffffffffffffffffff169050815f5f6101000a81548173ffffffffffffffffffffffffffffffffffffffff021916908373ffffffffffffffffffffffffffffffffffffffff1602179055508173ffffffffffffffffffffffffffffffffffffffff168173ffffffffffffffffffffffffffffffffffffffff167f8be0079c531659141344cd1fd0a4f28419497f9722a3daafe3b4186f6b6457e060405160405180910390a35050565b611b61611a11565b5f5f90505b600280549050811015611bf55760095460028281548110611b8a57611b89612405565b5b905f5260205f2090600202016001015410611be85760028181548110611bb357611bb2612405565b5b905f5260205f209060020201600101546009819055508060048190555060085f815480929190611be29061245f565b91905055505b8080600101915050611b66565b50565b5f33905090565b6040518060400160405280606081526020015f81525090565b5f604051905090565b5f5ffd5b5f5ffd5b5f819050919050565b611c3b81611c29565b8114611c45575f5ffd5b50565b5f81359050611c5681611c32565b92915050565b5f60208284031215611c7157611c70611c21565b5b5f611c7e84828501611c48565b91505092915050565b611c9081611c29565b82525050565b5f602082019050611ca95f830184611c87565b92915050565b5f73ffffffffffffffffffffffffffffffffffffffff82169050919050565b5f611cd882611caf565b9050919050565b611ce881611cce565b8114611cf2575f5ffd5b50565b5f81359050611d0381611cdf565b92915050565b5f60208284031215611d1e57611d1d611c21565b5b5f611d2b84828501611cf5565b91505092915050565b5f81519050919050565b5f82825260208201905092915050565b8281835e5f83830152505050565b5f601f19601f8301169050919050565b5f611d7682611d34565b611d808185611d3e565b9350611d90818560208601611d4e565b611d9981611d5c565b840191505092915050565b5f6020820190508181035f830152611dbc8184611d6c565b905092915050565b5f81519050919050565b5f82825260208201905092915050565b5f819050602082019050919050565b5f82825260208201905092915050565b5f611e0782611d34565b611e118185611ded565b9350611e21818560208601611d4e565b611e2a81611d5c565b840191505092915050565b611e3e81611c29565b82525050565b5f604083015f8301518482035f860152611e5e8282611dfd565b9150506020830151611e736020860182611e35565b508091505092915050565b5f611e898383611e44565b905092915050565b5f602082019050919050565b5f611ea782611dc4565b611eb18185611dce565b935083602082028501611ec385611dde565b805f5b85811015611efe5784840389528151611edf8582611e7e565b9450611eea83611e91565b925060208a01995050600181019050611ec6565b50829750879550505050505092915050565b5f6020820190508181035f830152611f288184611e9d565b905092915050565b7f4e487b71000000000000000000000000000000000000000000000000000000005f52602160045260245ffd5b60068110611f6e57611f6d611f30565b5b50565b5f819050611f7e82611f5d565b919050565b5f611f8d82611f71565b9050919050565b611f9d81611f83565b82525050565b5f602082019050611fb65f830184611f94565b92915050565b5f604083015f8301518482035f860152611fd68282611dfd565b9150506020830151611feb6020860182611e35565b508091505092915050565b5f6020820190508181035f83015261200e8184611fbc565b905092915050565b61201f81611cce565b82525050565b5f6020820190506120385f830184612016565b92915050565b5f5ffd5b5f5ffd5b7f4e487b71000000000000000000000000000000000000000000000000000000005f52604160045260245ffd5b61207c82611d5c565b810181811067ffffffffffffffff8211171561209b5761209a612046565b5b80604052505050565b5f6120ad611c18565b90506120b98282612073565b919050565b5f67ffffffffffffffff8211156120d8576120d7612046565b5b6120e182611d5c565b9050602081019050919050565b828183375f83830152505050565b5f61210e612109846120be565b6120a4565b90508281526020810184848401111561212a57612129612042565b5b6121358482856120ee565b509392505050565b5f82601f8301126121515761215061203e565b5b81356121618482602086016120fc565b91505092915050565b5f6020828403121561217f5761217e611c21565b5b5f82013567ffffffffffffffff81111561219c5761219b611c25565b5b6121a88482850161213d565b91505092915050565b7f596f752063616e206f6e6c7920766f7465206966207468657265206973206d6f5f8201527f7265207468616e20312077696e6e657200000000000000000000000000000000602082015250565b5f61220b603083611d3e565b9150612216826121b1565b604082019050919050565b5f6020820190508181035f830152612238816121ff565b9050919050565b7f54686520766f74696e672073657373696f6e206973206e6f74207374617274655f8201527f6400000000000000000000000000000000000000000000000000000000000000602082015250565b5f612299602183611d3e565b91506122a48261223f565b604082019050919050565b5f6020820190508181035f8301526122c68161228d565b9050919050565b7f596f7520617265206e6f742072656769737465726564000000000000000000005f82015250565b5f612301601683611d3e565b915061230c826122cd565b602082019050919050565b5f6020820190508181035f83015261232e816122f5565b9050919050565b7f596f7520616c726561647920766f7465640000000000000000000000000000005f82015250565b5f612369601183611d3e565b915061237482612335565b602082019050919050565b5f6020820190508181035f8301526123968161235d565b9050919050565b7f546869732070726f706f73616c20494420646f6573206e6f74206578697374735f82015250565b5f6123d1602083611d3e565b91506123dc8261239d565b602082019050919050565b5f6020820190508181035f8301526123fe816123c5565b9050919050565b7f4e487b71000000000000000000000000000000000000000000000000000000005f52603260045260245ffd5b7f4e487b71000000000000000000000000000000000000000000000000000000005f52601160045260245ffd5b5f61246982611c29565b91507fffffffffffffffffffffffffffffffffffffffffffffffffffffffffffffffff820361249b5761249a612432565b5b600182019050919050565b5f6040820190506124b95f830185612016565b6124c66020830184611c87565b9392505050565b7f596f7520617265206e6f7420696e20766f74657220726567697374726174696f5f8201527f6e20706572696f64000000000000000000000000000000000000000000000000602082015250565b5f612527602883611d3e565b9150612532826124cd565b604082019050919050565b5f6020820190508181035f8301526125548161251b565b9050919050565b7f596f7520616c72656164792068617665206164642074686973206164726573735f82015250565b5f61258f602083611d3e565b915061259a8261255b565b602082019050919050565b5f6020820190508181035f8301526125bc81612583565b9050919050565b7f5468652077696e6e65722068617665206e6f74206265656e2063686f6f73656e5f8201527f2079657400000000000000000000000000000000000000000000000000000000602082015250565b5f61261d602483611d3e565b9150612628826125c3565b604082019050919050565b5f6020820190508181035f83015261264a81612611565b9050919050565b7f4e487b71000000000000000000000000000000000000000000000000000000005f52602260045260245ffd5b5f600282049050600182168061269557607f821691505b6020821081036126a8576126a7612651565b5b50919050565b7f596f752063616e206e6f7420737461727420616761696e207468652070726f705f8201527f6f73616c2073657373696f6e0000000000000000000000000000000000000000602082015250565b5f612708602c83611d3e565b9150612713826126ae565b604082019050919050565b5f6020820190508181035f830152612735816126fc565b9050919050565b7f596f75206d757374207265676973746572206174206c656173742032206164645f8201527f7265737365730000000000000000000000000000000000000000000000000000602082015250565b5f612796602683611d3e565b91506127a18261273c565b604082019050919050565b5f6020820190508181035f8301526127c38161278a565b9050919050565b5f6127d482611c29565b91506127df83611c29565b92508282039050818111156127f7576127f6612432565b5b92915050565b5f6040820190506128105f830185611f94565b61281d6020830184611f94565b9392505050565b7f546869732061646472657373206973206e6f74207265676973746572656400005f82015250565b5f612858601e83611d3e565b915061286382612824565b602082019050919050565b5f6020820190508181035f8301526128858161284c565b9050919050565b7f54686973206164647265737320686173206e6f7420766f7465640000000000005f82015250565b5f6128c0601a83611d3e565b91506128cb8261288c565b602082019050919050565b5f6020820190508181035f8301526128ed816128b4565b9050919050565b7f5468652070726f706f73616c2073657373696f6e206973206e6f7420737461725f8201527f7465640000000000000000000000000000000000000000000000000000000000602082015250565b5f61294e602383611d3e565b9150612959826128f4565b604082019050919050565b5f6020820190508181035f83015261297b81612942565b9050919050565b7f596f752061726520746865206f776e6572206f66207468697320636f6e7472615f8201527f63742c20796f752063616e206e6f742070726f706f7365000000000000000000602082015250565b5f6129dc603783611d3e565b91506129e782612982565b604082019050919050565b5f6020820190508181035f830152612a09816129d0565b9050919050565b5f819050815f5260205f209050919050565b5f6020601f8301049050919050565b5f82821b905092915050565b5f60088302612a6c7fffffffffffffffffffffffffffffffffffffffffffffffffffffffffffffffff82612a31565b612a768683612a31565b95508019841693508086168417925050509392505050565b5f819050919050565b5f612ab1612aac612aa784611c29565b612a8e565b611c29565b9050919050565b5f819050919050565b612aca83612a97565b612ade612ad682612ab8565b848454612a3d565b825550505050565b5f5f905090565b612af5612ae6565b612b00818484612ac1565b505050565b5b81811015612b2357612b185f82612aed565b600181019050612b06565b5050565b601f821115612b6857612b3981612a10565b612b4284612a22565b81016020851015612b51578190505b612b65612b5d85612a22565b830182612b05565b50505b505050565b5f82821c905092915050565b5f612b885f1984600802612b6d565b1980831691505092915050565b5f612ba08383612b79565b9150826002028217905092915050565b612bb982611d34565b67ffffffffffffffff811115612bd257612bd1612046565b5b612bdc825461267e565b612be7828285612b27565b5f60209050601f831160018114612c18575f8415612c06578287015190505b612c108582612b95565b865550612c77565b601f198416612c2686612a10565b5f5b82811015612c4d57848901518255600182019150602085019450602081019050612c28565b86831015612c6a5784890151612c66601f891682612b79565b8355505b6001600288020188555050505b505050505050565b7f5468652070726f706f73616c2073657373696f6e206973206e6f7420656e64655f8201527f64206f722074686520766f74652073657373696f6e2068617320616c7265616460208201527f7920737461727465640000000000000000000000000000000000000000000000604082015250565b5f612cff604983611d3e565b9150612d0a82612c7f565b606082019050919050565b5f6020820190508181035f830152612d2c81612cf3565b9050919050565b7f54686520766f74652073657373696f6e206973206e6f7420656e6465640000005f82015250565b5f612d67601d83611d3e565b9150612d7282612d33565b602082019050919050565b5f6020820190508181035f830152612d9481612d5b565b9050919050565b7f5468657265206973206d6f7265207468616e20312077696e6e65722c20796f755f8201527f206861766520746f20766f746500000000000000000000000000000000000000602082015250565b5f612df5602d83611d3e565b9150612e0082612d9b565b604082019050919050565b5f6020820190508181035f830152612e2281612de9565b9050919050565b7f5468652070726f706f73616c2073657373696f6e20686173206e6f74207374615f8201527f72746564206f722068617320616c7265616479206265656e20656e6465640000602082015250565b5f612e83603e83611d3e565b9150612e8e82612e29565b604082019050919050565b5f6020820190508181035f830152612eb081612e77565b9050919050565b7f546865726520617265206e6f2070726f706f73616c73207265676973746572655f8201527f6400000000000000000000000000000000000000000000000000000000000000602082015250565b5f612f11602183611d3e565b9150612f1c82612eb7565b604082019050919050565b5f6020820190508181035f830152612f3e81612f05565b9050919050565b7f54686520766f74652073657373696f6e20686173206e6f7420737461727465645f8201527f206f722068617320616c726561647920656e6465640000000000000000000000602082015250565b5f612f9f603583611d3e565b9150612faa82612f45565b604082019050919050565b5f6020820190508181035f830152612fcc81612f93565b9050919050565b7f546865726520617265206e6f20766f74652072656769737465726564000000005f82015250565b5f613007601c83611d3e565b915061301282612fd3565b602082019050919050565b5f6020820190508181035f83015261303481612ffb565b905091905056fea2646970667358221220604286f8a0e9d1a66894544beae76ae765259d6dcdb9128c38ece8a764c059e764736f6c634300081c0033",
					"opcodes": "PUSH1 0x80 PUSH1 0x40 MSTORE PUSH0 PUSH1 0x3 PUSH0 PUSH2 0x100 EXP DUP2 SLOAD DUP2 PUSH1 0xFF MUL NOT AND SWAP1 DUP4 PUSH1 0x5 DUP2 GT ISZERO PUSH2 0x28 JUMPI PUSH2 0x27 PUSH2 0x185 JUMP JUMPDEST JUMPDEST MUL OR SWAP1 SSTORE POP PUSH1 0x1 PUSH1 0x9 SSTORE CALLVALUE DUP1 ISZERO PUSH2 0x3D JUMPI PUSH0 PUSH0 REVERT JUMPDEST POP CALLER PUSH0 PUSH20 0xFFFFFFFFFFFFFFFFFFFFFFFFFFFFFFFFFFFFFFFF AND DUP2 PUSH20 0xFFFFFFFFFFFFFFFFFFFFFFFFFFFFFFFFFFFFFFFF AND SUB PUSH2 0xAF JUMPI PUSH0 PUSH1 0x40 MLOAD PUSH32 0x1E4FBDF700000000000000000000000000000000000000000000000000000000 DUP2 MSTORE PUSH1 0x4 ADD PUSH2 0xA6 SWAP2 SWAP1 PUSH2 0x1F1 JUMP JUMPDEST PUSH1 0x40 MLOAD DUP1 SWAP2 SUB SWAP1 REVERT JUMPDEST PUSH2 0xBE DUP2 PUSH2 0xC4 PUSH1 0x20 SHL PUSH1 0x20 SHR JUMP JUMPDEST POP PUSH2 0x20A JUMP JUMPDEST PUSH0 PUSH0 PUSH0 SWAP1 SLOAD SWAP1 PUSH2 0x100 EXP SWAP1 DIV PUSH20 0xFFFFFFFFFFFFFFFFFFFFFFFFFFFFFFFFFFFFFFFF AND SWAP1 POP DUP2 PUSH0 PUSH0 PUSH2 0x100 EXP DUP2 SLOAD DUP2 PUSH20 0xFFFFFFFFFFFFFFFFFFFFFFFFFFFFFFFFFFFFFFFF MUL NOT AND SWAP1 DUP4 PUSH20 0xFFFFFFFFFFFFFFFFFFFFFFFFFFFFFFFFFFFFFFFF AND MUL OR SWAP1 SSTORE POP DUP2 PUSH20 0xFFFFFFFFFFFFFFFFFFFFFFFFFFFFFFFFFFFFFFFF AND DUP2 PUSH20 0xFFFFFFFFFFFFFFFFFFFFFFFFFFFFFFFFFFFFFFFF AND PUSH32 0x8BE0079C531659141344CD1FD0A4F28419497F9722A3DAAFE3B4186F6B6457E0 PUSH1 0x40 MLOAD PUSH1 0x40 MLOAD DUP1 SWAP2 SUB SWAP1 LOG3 POP POP JUMP JUMPDEST PUSH32 0x4E487B7100000000000000000000000000000000000000000000000000000000 PUSH0 MSTORE PUSH1 0x21 PUSH1 0x4 MSTORE PUSH1 0x24 PUSH0 REVERT JUMPDEST PUSH0 PUSH20 0xFFFFFFFFFFFFFFFFFFFFFFFFFFFFFFFFFFFFFFFF DUP3 AND SWAP1 POP SWAP2 SWAP1 POP JUMP JUMPDEST PUSH0 PUSH2 0x1DB DUP3 PUSH2 0x1B2 JUMP JUMPDEST SWAP1 POP SWAP2 SWAP1 POP JUMP JUMPDEST PUSH2 0x1EB DUP2 PUSH2 0x1D1 JUMP JUMPDEST DUP3 MSTORE POP POP JUMP JUMPDEST PUSH0 PUSH1 0x20 DUP3 ADD SWAP1 POP PUSH2 0x204 PUSH0 DUP4 ADD DUP5 PUSH2 0x1E2 JUMP JUMPDEST SWAP3 SWAP2 POP POP JUMP JUMPDEST PUSH2 0x3071 DUP1 PUSH2 0x217 PUSH0 CODECOPY PUSH0 RETURN INVALID PUSH1 0x80 PUSH1 0x40 MSTORE CALLVALUE DUP1 ISZERO PUSH2 0xF JUMPI PUSH0 PUSH0 REVERT JUMPDEST POP PUSH1 0x4 CALLDATASIZE LT PUSH2 0x14B JUMPI PUSH0 CALLDATALOAD PUSH1 0xE0 SHR DUP1 PUSH4 0x9589DFCC GT PUSH2 0xC1 JUMPI DUP1 PUSH4 0xADA7415F GT PUSH2 0x7A JUMPI DUP1 PUSH4 0xADA7415F EQ PUSH2 0x331 JUMPI DUP1 PUSH4 0xC08CC02D EQ PUSH2 0x33B JUMPI DUP1 PUSH4 0xE06752C2 EQ PUSH2 0x359 JUMPI DUP1 PUSH4 0xE1AB86FB EQ PUSH2 0x363 JUMPI DUP1 PUSH4 0xF2FDE38B EQ PUSH2 0x381 JUMPI DUP1 PUSH4 0xF74C168D EQ PUSH2 0x39D JUMPI PUSH2 0x14B JUMP JUMPDEST DUP1 PUSH4 0x9589DFCC EQ PUSH2 0x27F JUMPI DUP1 PUSH4 0xA3C1885B EQ PUSH2 0x29D JUMPI DUP1 PUSH4 0xA3DD2619 EQ PUSH2 0x2BB JUMPI DUP1 PUSH4 0xA46C3637 EQ PUSH2 0x2D9 JUMPI DUP1 PUSH4 0xAA98DF39 EQ PUSH2 0x2F7 JUMPI DUP1 PUSH4 0xAAA98346 EQ PUSH2 0x327 JUMPI PUSH2 0x14B JUMP JUMPDEST DUP1 PUSH4 0x5BC46514 GT PUSH2 0x113 JUMPI DUP1 PUSH4 0x5BC46514 EQ PUSH2 0x1CD JUMPI DUP1 PUSH4 0x62564C48 EQ PUSH2 0x1EB JUMPI DUP1 PUSH4 0x65F88A7C EQ PUSH2 0x209 JUMPI DUP1 PUSH4 0x715018A6 EQ PUSH2 0x227 JUMPI DUP1 PUSH4 0x80525548 EQ PUSH2 0x231 JUMPI DUP1 PUSH4 0x8DA5CB5B EQ PUSH2 0x261 JUMPI PUSH2 0x14B JUMP JUMPDEST DUP1 PUSH4 0x121B93F EQ PUSH2 0x14F JUMPI DUP1 PUSH4 0x11174A29 EQ PUSH2 0x16B JUMPI DUP1 PUSH4 0x38DB6DD3 EQ PUSH2 0x189 JUMPI DUP1 PUSH4 0x43850C2D EQ PUSH2 0x1A5 JUMPI DUP1 PUSH4 0x50D072FC EQ PUSH2 0x1C3 JUMPI JUMPDEST PUSH0 PUSH0 REVERT JUMPDEST PUSH2 0x169 PUSH1 0x4 DUP1 CALLDATASIZE SUB DUP2 ADD SWAP1 PUSH2 0x164 SWAP2 SWAP1 PUSH2 0x1C5C JUMP JUMPDEST PUSH2 0x3A7 JUMP JUMPDEST STOP JUMPDEST PUSH2 0x173 PUSH2 0x73B JUMP JUMPDEST PUSH1 0x40 MLOAD PUSH2 0x180 SWAP2 SWAP1 PUSH2 0x1C96 JUMP JUMPDEST PUSH1 0x40 MLOAD DUP1 SWAP2 SUB SWAP1 RETURN JUMPDEST PUSH2 0x1A3 PUSH1 0x4 DUP1 CALLDATASIZE SUB DUP2 ADD SWAP1 PUSH2 0x19E SWAP2 SWAP1 PUSH2 0x1D09 JUMP JUMPDEST PUSH2 0x744 JUMP JUMPDEST STOP JUMPDEST PUSH2 0x1AD PUSH2 0x94D JUMP JUMPDEST PUSH1 0x40 MLOAD PUSH2 0x1BA SWAP2 SWAP1 PUSH2 0x1DA4 JUMP JUMPDEST PUSH1 0x40 MLOAD DUP1 SWAP2 SUB SWAP1 RETURN JUMPDEST PUSH2 0x1CB PUSH2 0xA73 JUMP JUMPDEST STOP JUMPDEST PUSH2 0x1D5 PUSH2 0xBE5 JUMP JUMPDEST PUSH1 0x40 MLOAD PUSH2 0x1E2 SWAP2 SWAP1 PUSH2 0x1C96 JUMP JUMPDEST PUSH1 0x40 MLOAD DUP1 SWAP2 SUB SWAP1 RETURN JUMPDEST PUSH2 0x1F3 PUSH2 0xC62 JUMP JUMPDEST PUSH1 0x40 MLOAD PUSH2 0x200 SWAP2 SWAP1 PUSH2 0x1F10 JUMP JUMPDEST PUSH1 0x40 MLOAD DUP1 SWAP2 SUB SWAP1 RETURN JUMPDEST PUSH2 0x211 PUSH2 0xD57 JUMP JUMPDEST PUSH1 0x40 MLOAD PUSH2 0x21E SWAP2 SWAP1 PUSH2 0x1FA3 JUMP JUMPDEST PUSH1 0x40 MLOAD DUP1 SWAP2 SUB SWAP1 RETURN JUMPDEST PUSH2 0x22F PUSH2 0xD9C JUMP JUMPDEST STOP JUMPDEST PUSH2 0x24B PUSH1 0x4 DUP1 CALLDATASIZE SUB DUP2 ADD SWAP1 PUSH2 0x246 SWAP2 SWAP1 PUSH2 0x1D09 JUMP JUMPDEST PUSH2 0xDAF JUMP JUMPDEST PUSH1 0x40 MLOAD PUSH2 0x258 SWAP2 SWAP1 PUSH2 0x1FF6 JUMP JUMPDEST PUSH1 0x40 MLOAD DUP1 SWAP2 SUB SWAP1 RETURN JUMPDEST PUSH2 0x269 PUSH2 0xFEC JUMP JUMPDEST PUSH1 0x40 MLOAD PUSH2 0x276 SWAP2 SWAP1 PUSH2 0x2025 JUMP JUMPDEST PUSH1 0x40 MLOAD DUP1 SWAP2 SUB SWAP1 RETURN JUMPDEST PUSH2 0x287 PUSH2 0x1013 JUMP JUMPDEST PUSH1 0x40 MLOAD PUSH2 0x294 SWAP2 SWAP1 PUSH2 0x1C96 JUMP JUMPDEST PUSH1 0x40 MLOAD DUP1 SWAP2 SUB SWAP1 RETURN JUMPDEST PUSH2 0x2A5 PUSH2 0x101C JUMP JUMPDEST PUSH1 0x40 MLOAD PUSH2 0x2B2 SWAP2 SWAP1 PUSH2 0x1FF6 JUMP JUMPDEST PUSH1 0x40 MLOAD DUP1 SWAP2 SUB SWAP1 RETURN JUMPDEST PUSH2 0x2C3 PUSH2 0x1163 JUMP JUMPDEST PUSH1 0x40 MLOAD PUSH2 0x2D0 SWAP2 SWAP1 PUSH2 0x1FA3 JUMP JUMPDEST PUSH1 0x40 MLOAD DUP1 SWAP2 SUB SWAP1 RETURN JUMPDEST PUSH2 0x2E1 PUSH2 0x1178 JUMP JUMPDEST PUSH1 0x40 MLOAD PUSH2 0x2EE SWAP2 SWAP1 PUSH2 0x1C96 JUMP JUMPDEST PUSH1 0x40 MLOAD DUP1 SWAP2 SUB SWAP1 RETURN JUMPDEST PUSH2 0x311 PUSH1 0x4 DUP1 CALLDATASIZE SUB DUP2 ADD SWAP1 PUSH2 0x30C SWAP2 SWAP1 PUSH2 0x216A JUMP JUMPDEST PUSH2 0x1181 JUMP JUMPDEST PUSH1 0x40 MLOAD PUSH2 0x31E SWAP2 SWAP1 PUSH2 0x1DA4 JUMP JUMPDEST PUSH1 0x40 MLOAD DUP1 SWAP2 SUB SWAP1 RETURN JUMPDEST PUSH2 0x32F PUSH2 0x13E9 JUMP JUMPDEST STOP JUMPDEST PUSH2 0x339 PUSH2 0x1516 JUMP JUMPDEST STOP JUMPDEST PUSH2 0x343 PUSH2 0x1689 JUMP JUMPDEST PUSH1 0x40 MLOAD PUSH2 0x350 SWAP2 SWAP1 PUSH2 0x1C96 JUMP JUMPDEST PUSH1 0x40 MLOAD DUP1 SWAP2 SUB SWAP1 RETURN JUMPDEST PUSH2 0x361 PUSH2 0x1695 JUMP JUMPDEST STOP JUMPDEST PUSH2 0x36B PUSH2 0x180A JUMP JUMPDEST PUSH1 0x40 MLOAD PUSH2 0x378 SWAP2 SWAP1 PUSH2 0x1C96 JUMP JUMPDEST PUSH1 0x40 MLOAD DUP1 SWAP2 SUB SWAP1 RETURN JUMPDEST PUSH2 0x39B PUSH1 0x4 DUP1 CALLDATASIZE SUB DUP2 ADD SWAP1 PUSH2 0x396 SWAP2 SWAP1 PUSH2 0x1D09 JUMP JUMPDEST PUSH2 0x1813 JUMP JUMPDEST STOP JUMPDEST PUSH2 0x3A5 PUSH2 0x1897 JUMP JUMPDEST STOP JUMPDEST CALLER PUSH20 0xFFFFFFFFFFFFFFFFFFFFFFFFFFFFFFFFFFFFFFFF AND PUSH2 0x3C6 PUSH2 0xFEC JUMP JUMPDEST PUSH20 0xFFFFFFFFFFFFFFFFFFFFFFFFFFFFFFFFFFFFFFFF AND SUB PUSH2 0x433 JUMPI PUSH1 0x1 PUSH1 0x8 SLOAD GT PUSH2 0x426 JUMPI PUSH1 0x40 MLOAD PUSH32 0x8C379A000000000000000000000000000000000000000000000000000000000 DUP2 MSTORE PUSH1 0x4 ADD PUSH2 0x41D SWAP1 PUSH2 0x2221 JUMP JUMPDEST PUSH1 0x40 MLOAD DUP1 SWAP2 SUB SWAP1 REVERT JUMPDEST PUSH1 0x1 PUSH1 0x8 DUP2 SWAP1 SSTORE POP PUSH2 0x5CD JUMP JUMPDEST PUSH1 0x3 PUSH1 0x5 DUP2 GT ISZERO PUSH2 0x447 JUMPI PUSH2 0x446 PUSH2 0x1F30 JUMP JUMPDEST JUMPDEST PUSH1 0x3 PUSH0 SWAP1 SLOAD SWAP1 PUSH2 0x100 EXP SWAP1 DIV PUSH1 0xFF AND PUSH1 0x5 DUP2 GT ISZERO PUSH2 0x468 JUMPI PUSH2 0x467 PUSH2 0x1F30 JUMP JUMPDEST JUMPDEST EQ PUSH2 0x4A8 JUMPI PUSH1 0x40 MLOAD PUSH32 0x8C379A000000000000000000000000000000000000000000000000000000000 DUP2 MSTORE PUSH1 0x4 ADD PUSH2 0x49F SWAP1 PUSH2 0x22AF JUMP JUMPDEST PUSH1 0x40 MLOAD DUP1 SWAP2 SUB SWAP1 REVERT JUMPDEST PUSH1 0x1 ISZERO ISZERO PUSH1 0x1 PUSH0 CALLER PUSH20 0xFFFFFFFFFFFFFFFFFFFFFFFFFFFFFFFFFFFFFFFF AND PUSH20 0xFFFFFFFFFFFFFFFFFFFFFFFFFFFFFFFFFFFFFFFF AND DUP2 MSTORE PUSH1 0x20 ADD SWAP1 DUP2 MSTORE PUSH1 0x20 ADD PUSH0 KECCAK256 PUSH0 ADD PUSH0 SWAP1 SLOAD SWAP1 PUSH2 0x100 EXP SWAP1 DIV PUSH1 0xFF AND ISZERO ISZERO EQ PUSH2 0x53A JUMPI PUSH1 0x40 MLOAD PUSH32 0x8C379A000000000000000000000000000000000000000000000000000000000 DUP2 MSTORE PUSH1 0x4 ADD PUSH2 0x531 SWAP1 PUSH2 0x2317 JUMP JUMPDEST PUSH1 0x40 MLOAD DUP1 SWAP2 SUB SWAP1 REVERT JUMPDEST PUSH0 ISZERO ISZERO PUSH1 0x1 PUSH0 CALLER PUSH20 0xFFFFFFFFFFFFFFFFFFFFFFFFFFFFFFFFFFFFFFFF AND PUSH20 0xFFFFFFFFFFFFFFFFFFFFFFFFFFFFFFFFFFFFFFFF AND DUP2 MSTORE PUSH1 0x20 ADD SWAP1 DUP2 MSTORE PUSH1 0x20 ADD PUSH0 KECCAK256 PUSH0 ADD PUSH1 0x1 SWAP1 SLOAD SWAP1 PUSH2 0x100 EXP SWAP1 DIV PUSH1 0xFF AND ISZERO ISZERO EQ PUSH2 0x5CC JUMPI PUSH1 0x40 MLOAD PUSH32 0x8C379A000000000000000000000000000000000000000000000000000000000 DUP2 MSTORE PUSH1 0x4 ADD PUSH2 0x5C3 SWAP1 PUSH2 0x237F JUMP JUMPDEST PUSH1 0x40 MLOAD DUP1 SWAP2 SUB SWAP1 REVERT JUMPDEST JUMPDEST PUSH1 0x2 DUP1 SLOAD SWAP1 POP DUP2 LT PUSH2 0x614 JUMPI PUSH1 0x40 MLOAD PUSH32 0x8C379A000000000000000000000000000000000000000000000000000000000 DUP2 MSTORE PUSH1 0x4 ADD PUSH2 0x60B SWAP1 PUSH2 0x23E7 JUMP JUMPDEST PUSH1 0x40 MLOAD DUP1 SWAP2 SUB SWAP1 REVERT JUMPDEST PUSH1 0x1 DUP1 PUSH0 CALLER PUSH20 0xFFFFFFFFFFFFFFFFFFFFFFFFFFFFFFFFFFFFFFFF AND PUSH20 0xFFFFFFFFFFFFFFFFFFFFFFFFFFFFFFFFFFFFFFFF AND DUP2 MSTORE PUSH1 0x20 ADD SWAP1 DUP2 MSTORE PUSH1 0x20 ADD PUSH0 KECCAK256 PUSH0 ADD PUSH1 0x1 PUSH2 0x100 EXP DUP2 SLOAD DUP2 PUSH1 0xFF MUL NOT AND SWAP1 DUP4 ISZERO ISZERO MUL OR SWAP1 SSTORE POP DUP1 PUSH1 0x1 PUSH0 CALLER PUSH20 0xFFFFFFFFFFFFFFFFFFFFFFFFFFFFFFFFFFFFFFFF AND PUSH20 0xFFFFFFFFFFFFFFFFFFFFFFFFFFFFFFFFFFFFFFFF AND DUP2 MSTORE PUSH1 0x20 ADD SWAP1 DUP2 MSTORE PUSH1 0x20 ADD PUSH0 KECCAK256 PUSH1 0x1 ADD DUP2 SWAP1 SSTORE POP PUSH1 0x2 DUP2 DUP2 SLOAD DUP2 LT PUSH2 0x6C4 JUMPI PUSH2 0x6C3 PUSH2 0x2405 JUMP JUMPDEST JUMPDEST SWAP1 PUSH0 MSTORE PUSH1 0x20 PUSH0 KECCAK256 SWAP1 PUSH1 0x2 MUL ADD PUSH1 0x1 ADD PUSH0 DUP2 SLOAD DUP1 SWAP3 SWAP2 SWAP1 PUSH2 0x6E3 SWAP1 PUSH2 0x245F JUMP JUMPDEST SWAP2 SWAP1 POP SSTORE POP PUSH1 0x6 PUSH0 DUP2 SLOAD DUP1 SWAP3 SWAP2 SWAP1 PUSH2 0x6FA SWAP1 PUSH2 0x245F JUMP JUMPDEST SWAP2 SWAP1 POP SSTORE POP PUSH32 0x4D99B957A2BC29A30EBD96A7BE8E68FE50A3C701DB28A91436490B7D53870CA4 CALLER DUP3 PUSH1 0x40 MLOAD PUSH2 0x730 SWAP3 SWAP2 SWAP1 PUSH2 0x24A6 JUMP JUMPDEST PUSH1 0x40 MLOAD DUP1 SWAP2 SUB SWAP1 LOG1 POP JUMP JUMPDEST PUSH0 PUSH1 0x5 SLOAD SWAP1 POP SWAP1 JUMP JUMPDEST PUSH2 0x74C PUSH2 0x1A11 JUMP JUMPDEST PUSH0 PUSH1 0x5 DUP2 GT ISZERO PUSH2 0x75F JUMPI PUSH2 0x75E PUSH2 0x1F30 JUMP JUMPDEST JUMPDEST PUSH1 0x3 PUSH0 SWAP1 SLOAD SWAP1 PUSH2 0x100 EXP SWAP1 DIV PUSH1 0xFF AND PUSH1 0x5 DUP2 GT ISZERO PUSH2 0x780 JUMPI PUSH2 0x77F PUSH2 0x1F30 JUMP JUMPDEST JUMPDEST EQ PUSH2 0x7C0 JUMPI PUSH1 0x40 MLOAD PUSH32 0x8C379A000000000000000000000000000000000000000000000000000000000 DUP2 MSTORE PUSH1 0x4 ADD PUSH2 0x7B7 SWAP1 PUSH2 0x253D JUMP JUMPDEST PUSH1 0x40 MLOAD DUP1 SWAP2 SUB SWAP1 REVERT JUMPDEST PUSH0 ISZERO ISZERO PUSH1 0x1 PUSH0 DUP4 PUSH20 0xFFFFFFFFFFFFFFFFFFFFFFFFFFFFFFFFFFFFFFFF AND PUSH20 0xFFFFFFFFFFFFFFFFFFFFFFFFFFFFFFFFFFFFFFFF AND DUP2 MSTORE PUSH1 0x20 ADD SWAP1 DUP2 MSTORE PUSH1 0x20 ADD PUSH0 KECCAK256 PUSH0 ADD PUSH0 SWAP1 SLOAD SWAP1 PUSH2 0x100 EXP SWAP1 DIV PUSH1 0xFF AND ISZERO ISZERO EQ PUSH2 0x851 JUMPI PUSH1 0x40 MLOAD PUSH32 0x8C379A000000000000000000000000000000000000000000000000000000000 DUP2 MSTORE PUSH1 0x4 ADD PUSH2 0x848 SWAP1 PUSH2 0x25A5 JUMP JUMPDEST PUSH1 0x40 MLOAD DUP1 SWAP2 SUB SWAP1 REVERT JUMPDEST PUSH0 PUSH1 0x40 MLOAD DUP1 PUSH1 0x60 ADD PUSH1 0x40 MSTORE DUP1 PUSH1 0x1 ISZERO ISZERO DUP2 MSTORE PUSH1 0x20 ADD PUSH0 ISZERO ISZERO DUP2 MSTORE PUSH1 0x20 ADD PUSH0 DUP2 MSTORE POP SWAP1 POP DUP1 PUSH1 0x1 PUSH0 DUP5 PUSH20 0xFFFFFFFFFFFFFFFFFFFFFFFFFFFFFFFFFFFFFFFF AND PUSH20 0xFFFFFFFFFFFFFFFFFFFFFFFFFFFFFFFFFFFFFFFF AND DUP2 MSTORE PUSH1 0x20 ADD SWAP1 DUP2 MSTORE PUSH1 0x20 ADD PUSH0 KECCAK256 PUSH0 DUP3 ADD MLOAD DUP2 PUSH0 ADD PUSH0 PUSH2 0x100 EXP DUP2 SLOAD DUP2 PUSH1 0xFF MUL NOT AND SWAP1 DUP4 ISZERO ISZERO MUL OR SWAP1 SSTORE POP PUSH1 0x20 DUP3 ADD MLOAD DUP2 PUSH0 ADD PUSH1 0x1 PUSH2 0x100 EXP DUP2 SLOAD DUP2 PUSH1 0xFF MUL NOT AND SWAP1 DUP4 ISZERO ISZERO MUL OR SWAP1 SSTORE POP PUSH1 0x40 DUP3 ADD MLOAD DUP2 PUSH1 0x1 ADD SSTORE SWAP1 POP POP PUSH1 0x5 PUSH0 DUP2 SLOAD DUP1 SWAP3 SWAP2 SWAP1 PUSH2 0x90D SWAP1 PUSH2 0x245F JUMP JUMPDEST SWAP2 SWAP1 POP SSTORE POP PUSH32 0xB6BE2187D059CC2A55FE29E0E503B566E1E0F8C8780096E185429350ACFFD3DD DUP3 PUSH1 0x40 MLOAD PUSH2 0x941 SWAP2 SWAP1 PUSH2 0x2025 JUMP JUMPDEST PUSH1 0x40 MLOAD DUP1 SWAP2 SUB SWAP1 LOG1 POP POP JUMP JUMPDEST PUSH1 0x60 PUSH1 0x5 DUP1 DUP2 GT ISZERO PUSH2 0x962 JUMPI PUSH2 0x961 PUSH2 0x1F30 JUMP JUMPDEST JUMPDEST PUSH1 0x3 PUSH0 SWAP1 SLOAD SWAP1 PUSH2 0x100 EXP SWAP1 DIV PUSH1 0xFF AND PUSH1 0x5 DUP2 GT ISZERO PUSH2 0x983 JUMPI PUSH2 0x982 PUSH2 0x1F30 JUMP JUMPDEST JUMPDEST EQ PUSH2 0x9C3 JUMPI PUSH1 0x40 MLOAD PUSH32 0x8C379A000000000000000000000000000000000000000000000000000000000 DUP2 MSTORE PUSH1 0x4 ADD PUSH2 0x9BA SWAP1 PUSH2 0x2633 JUMP JUMPDEST PUSH1 0x40 MLOAD DUP1 SWAP2 SUB SWAP1 REVERT JUMPDEST PUSH1 0x2 PUSH1 0x4 SLOAD DUP2 SLOAD DUP2 LT PUSH2 0x9D9 JUMPI PUSH2 0x9D8 PUSH2 0x2405 JUMP JUMPDEST JUMPDEST SWAP1 PUSH0 MSTORE PUSH1 0x20 PUSH0 KECCAK256 SWAP1 PUSH1 0x2 MUL ADD PUSH0 ADD DUP1 SLOAD PUSH2 0x9F2 SWAP1 PUSH2 0x267E JUMP JUMPDEST DUP1 PUSH1 0x1F ADD PUSH1 0x20 DUP1 SWAP2 DIV MUL PUSH1 0x20 ADD PUSH1 0x40 MLOAD SWAP1 DUP2 ADD PUSH1 0x40 MSTORE DUP1 SWAP3 SWAP2 SWAP1 DUP2 DUP2 MSTORE PUSH1 0x20 ADD DUP3 DUP1 SLOAD PUSH2 0xA1E SWAP1 PUSH2 0x267E JUMP JUMPDEST DUP1 ISZERO PUSH2 0xA69 JUMPI DUP1 PUSH1 0x1F LT PUSH2 0xA40 JUMPI PUSH2 0x100 DUP1 DUP4 SLOAD DIV MUL DUP4 MSTORE SWAP2 PUSH1 0x20 ADD SWAP2 PUSH2 0xA69 JUMP JUMPDEST DUP3 ADD SWAP2 SWAP1 PUSH0 MSTORE PUSH1 0x20 PUSH0 KECCAK256 SWAP1 JUMPDEST DUP2 SLOAD DUP2 MSTORE SWAP1 PUSH1 0x1 ADD SWAP1 PUSH1 0x20 ADD DUP1 DUP4 GT PUSH2 0xA4C JUMPI DUP3 SWAP1 SUB PUSH1 0x1F AND DUP3 ADD SWAP2 JUMPDEST POP POP POP POP POP SWAP1 POP SWAP1 JUMP JUMPDEST PUSH2 0xA7B PUSH2 0x1A11 JUMP JUMPDEST PUSH0 PUSH1 0x5 DUP2 GT ISZERO PUSH2 0xA8E JUMPI PUSH2 0xA8D PUSH2 0x1F30 JUMP JUMPDEST JUMPDEST PUSH1 0x3 PUSH0 SWAP1 SLOAD SWAP1 PUSH2 0x100 EXP SWAP1 DIV PUSH1 0xFF AND PUSH1 0x5 DUP2 GT ISZERO PUSH2 0xAAF JUMPI PUSH2 0xAAE PUSH2 0x1F30 JUMP JUMPDEST JUMPDEST EQ PUSH2 0xAEF JUMPI PUSH1 0x40 MLOAD PUSH32 0x8C379A000000000000000000000000000000000000000000000000000000000 DUP2 MSTORE PUSH1 0x4 ADD PUSH2 0xAE6 SWAP1 PUSH2 0x271E JUMP JUMPDEST PUSH1 0x40 MLOAD DUP1 SWAP2 SUB SWAP1 REVERT JUMPDEST PUSH1 0x1 PUSH1 0x5 SLOAD GT PUSH2 0xB34 JUMPI PUSH1 0x40 MLOAD PUSH32 0x8C379A000000000000000000000000000000000000000000000000000000000 DUP2 MSTORE PUSH1 0x4 ADD PUSH2 0xB2B SWAP1 PUSH2 0x27AC JUMP JUMPDEST PUSH1 0x40 MLOAD DUP1 SWAP2 SUB SWAP1 REVERT JUMPDEST PUSH1 0x1 PUSH1 0x3 PUSH0 PUSH2 0x100 EXP DUP2 SLOAD DUP2 PUSH1 0xFF MUL NOT AND SWAP1 DUP4 PUSH1 0x5 DUP2 GT ISZERO PUSH2 0xB59 JUMPI PUSH2 0xB58 PUSH2 0x1F30 JUMP JUMPDEST JUMPDEST MUL OR SWAP1 SSTORE POP PUSH32 0xA97A4EE45751E2ABF3E4FC8946939630B11B371EA8AE39CCDC3056E98F5CC3F PUSH1 0x1 PUSH1 0x3 PUSH0 SWAP1 SLOAD SWAP1 PUSH2 0x100 EXP SWAP1 DIV PUSH1 0xFF AND PUSH1 0x5 DUP2 GT ISZERO PUSH2 0xBA2 JUMPI PUSH2 0xBA1 PUSH2 0x1F30 JUMP JUMPDEST JUMPDEST PUSH2 0xBAC SWAP2 SWAP1 PUSH2 0x27CA JUMP JUMPDEST PUSH1 0x5 DUP2 GT ISZERO PUSH2 0xBBE JUMPI PUSH2 0xBBD PUSH2 0x1F30 JUMP JUMPDEST JUMPDEST PUSH1 0x3 PUSH0 SWAP1 SLOAD SWAP1 PUSH2 0x100 EXP SWAP1 DIV PUSH1 0xFF AND PUSH1 0x40 MLOAD PUSH2 0xBDB SWAP3 SWAP2 SWAP1 PUSH2 0x27FD JUMP JUMPDEST PUSH1 0x40 MLOAD DUP1 SWAP2 SUB SWAP1 LOG1 JUMP JUMPDEST PUSH0 PUSH1 0x5 DUP1 DUP2 GT ISZERO PUSH2 0xBF9 JUMPI PUSH2 0xBF8 PUSH2 0x1F30 JUMP JUMPDEST JUMPDEST PUSH1 0x3 PUSH0 SWAP1 SLOAD SWAP1 PUSH2 0x100 EXP SWAP1 DIV PUSH1 0xFF AND PUSH1 0x5 DUP2 GT ISZERO PUSH2 0xC1A JUMPI PUSH2 0xC19 PUSH2 0x1F30 JUMP JUMPDEST JUMPDEST EQ PUSH2 0xC5A JUMPI PUSH1 0x40 MLOAD PUSH32 0x8C379A000000000000000000000000000000000000000000000000000000000 DUP2 MSTORE PUSH1 0x4 ADD PUSH2 0xC51 SWAP1 PUSH2 0x2633 JUMP JUMPDEST PUSH1 0x40 MLOAD DUP1 SWAP2 SUB SWAP1 REVERT JUMPDEST PUSH1 0x4 SLOAD SWAP1 POP SWAP1 JUMP JUMPDEST PUSH1 0x60 PUSH1 0x2 DUP1 SLOAD DUP1 PUSH1 0x20 MUL PUSH1 0x20 ADD PUSH1 0x40 MLOAD SWAP1 DUP2 ADD PUSH1 0x40 MSTORE DUP1 SWAP3 SWAP2 SWAP1 DUP2 DUP2 MSTORE PUSH1 0x20 ADD PUSH0 SWAP1 JUMPDEST DUP3 DUP3 LT ISZERO PUSH2 0xD4E JUMPI DUP4 DUP3 SWAP1 PUSH0 MSTORE PUSH1 0x20 PUSH0 KECCAK256 SWAP1 PUSH1 0x2 MUL ADD PUSH1 0x40 MLOAD DUP1 PUSH1 0x40 ADD PUSH1 0x40 MSTORE SWAP1 DUP2 PUSH0 DUP3 ADD DUP1 SLOAD PUSH2 0xCB5 SWAP1 PUSH2 0x267E JUMP JUMPDEST DUP1 PUSH1 0x1F ADD PUSH1 0x20 DUP1 SWAP2 DIV MUL PUSH1 0x20 ADD PUSH1 0x40 MLOAD SWAP1 DUP2 ADD PUSH1 0x40 MSTORE DUP1 SWAP3 SWAP2 SWAP1 DUP2 DUP2 MSTORE PUSH1 0x20 ADD DUP3 DUP1 SLOAD PUSH2 0xCE1 SWAP1 PUSH2 0x267E JUMP JUMPDEST DUP1 ISZERO PUSH2 0xD2C JUMPI DUP1 PUSH1 0x1F LT PUSH2 0xD03 JUMPI PUSH2 0x100 DUP1 DUP4 SLOAD DIV MUL DUP4 MSTORE SWAP2 PUSH1 0x20 ADD SWAP2 PUSH2 0xD2C JUMP JUMPDEST DUP3 ADD SWAP2 SWAP1 PUSH0 MSTORE PUSH1 0x20 PUSH0 KECCAK256 SWAP1 JUMPDEST DUP2 SLOAD DUP2 MSTORE SWAP1 PUSH1 0x1 ADD SWAP1 PUSH1 0x20 ADD DUP1 DUP4 GT PUSH2 0xD0F JUMPI DUP3 SWAP1 SUB PUSH1 0x1F AND DUP3 ADD SWAP2 JUMPDEST POP POP POP POP POP DUP2 MSTORE PUSH1 0x20 ADD PUSH1 0x1 DUP3 ADD SLOAD DUP2 MSTORE POP POP DUP2 MSTORE PUSH1 0x20 ADD SWAP1 PUSH1 0x1 ADD SWAP1 PUSH2 0xC85 JUMP JUMPDEST POP POP POP POP SWAP1 POP SWAP1 JUMP JUMPDEST PUSH0 PUSH1 0x1 PUSH1 0x3 PUSH0 SWAP1 SLOAD SWAP1 PUSH2 0x100 EXP SWAP1 DIV PUSH1 0xFF AND PUSH1 0x5 DUP2 GT ISZERO PUSH2 0xD7B JUMPI PUSH2 0xD7A PUSH2 0x1F30 JUMP JUMPDEST JUMPDEST PUSH2 0xD85 SWAP2 SWAP1 PUSH2 0x27CA JUMP JUMPDEST PUSH1 0x5 DUP2 GT ISZERO PUSH2 0xD97 JUMPI PUSH2 0xD96 PUSH2 0x1F30 JUMP JUMPDEST JUMPDEST SWAP1 POP SWAP1 JUMP JUMPDEST PUSH2 0xDA4 PUSH2 0x1A11 JUMP JUMPDEST PUSH2 0xDAD PUSH0 PUSH2 0x1A98 JUMP JUMPDEST JUMP JUMPDEST PUSH2 0xDB7 PUSH2 0x1BFF JUMP JUMPDEST PUSH1 0x1 ISZERO ISZERO PUSH1 0x1 PUSH0 DUP5 PUSH20 0xFFFFFFFFFFFFFFFFFFFFFFFFFFFFFFFFFFFFFFFF AND PUSH20 0xFFFFFFFFFFFFFFFFFFFFFFFFFFFFFFFFFFFFFFFF AND DUP2 MSTORE PUSH1 0x20 ADD SWAP1 DUP2 MSTORE PUSH1 0x20 ADD PUSH0 KECCAK256 PUSH0 ADD PUSH0 SWAP1 SLOAD SWAP1 PUSH2 0x100 EXP SWAP1 DIV PUSH1 0xFF AND ISZERO ISZERO EQ PUSH2 0xE49 JUMPI PUSH1 0x40 MLOAD PUSH32 0x8C379A000000000000000000000000000000000000000000000000000000000 DUP2 MSTORE PUSH1 0x4 ADD PUSH2 0xE40 SWAP1 PUSH2 0x286E JUMP JUMPDEST PUSH1 0x40 MLOAD DUP1 SWAP2 SUB SWAP1 REVERT JUMPDEST PUSH1 0x1 ISZERO ISZERO PUSH1 0x1 PUSH0 DUP5 PUSH20 0xFFFFFFFFFFFFFFFFFFFFFFFFFFFFFFFFFFFFFFFF AND PUSH20 0xFFFFFFFFFFFFFFFFFFFFFFFFFFFFFFFFFFFFFFFF AND DUP2 MSTORE PUSH1 0x20 ADD SWAP1 DUP2 MSTORE PUSH1 0x20 ADD PUSH0 KECCAK256 PUSH0 ADD PUSH1 0x1 SWAP1 SLOAD SWAP1 PUSH2 0x100 EXP SWAP1 DIV PUSH1 0xFF AND ISZERO ISZERO EQ PUSH2 0xEDC JUMPI PUSH1 0x40 MLOAD PUSH32 0x8C379A000000000000000000000000000000000000000000000000000000000 DUP2 MSTORE PUSH1 0x4 ADD PUSH2 0xED3 SWAP1 PUSH2 0x28D6 JUMP JUMPDEST PUSH1 0x40 MLOAD DUP1 SWAP2 SUB SWAP1 REVERT JUMPDEST PUSH0 PUSH1 0x1 PUSH0 DUP5 PUSH20 0xFFFFFFFFFFFFFFFFFFFFFFFFFFFFFFFFFFFFFFFF AND PUSH20 0xFFFFFFFFFFFFFFFFFFFFFFFFFFFFFFFFFFFFFFFF AND DUP2 MSTORE PUSH1 0x20 ADD SWAP1 DUP2 MSTORE PUSH1 0x20 ADD PUSH0 KECCAK256 PUSH1 0x1 ADD SLOAD SWAP1 POP PUSH1 0x2 DUP2 DUP2 SLOAD DUP2 LT PUSH2 0xF34 JUMPI PUSH2 0xF33 PUSH2 0x2405 JUMP JUMPDEST JUMPDEST SWAP1 PUSH0 MSTORE PUSH1 0x20 PUSH0 KECCAK256 SWAP1 PUSH1 0x2 MUL ADD PUSH1 0x40 MLOAD DUP1 PUSH1 0x40 ADD PUSH1 0x40 MSTORE SWAP1 DUP2 PUSH0 DUP3 ADD DUP1 SLOAD PUSH2 0xF5A SWAP1 PUSH2 0x267E JUMP JUMPDEST DUP1 PUSH1 0x1F ADD PUSH1 0x20 DUP1 SWAP2 DIV MUL PUSH1 0x20 ADD PUSH1 0x40 MLOAD SWAP1 DUP2 ADD PUSH1 0x40 MSTORE DUP1 SWAP3 SWAP2 SWAP1 DUP2 DUP2 MSTORE PUSH1 0x20 ADD DUP3 DUP1 SLOAD PUSH2 0xF86 SWAP1 PUSH2 0x267E JUMP JUMPDEST DUP1 ISZERO PUSH2 0xFD1 JUMPI DUP1 PUSH1 0x1F LT PUSH2 0xFA8 JUMPI PUSH2 0x100 DUP1 DUP4 SLOAD DIV MUL DUP4 MSTORE SWAP2 PUSH1 0x20 ADD SWAP2 PUSH2 0xFD1 JUMP JUMPDEST DUP3 ADD SWAP2 SWAP1 PUSH0 MSTORE PUSH1 0x20 PUSH0 KECCAK256 SWAP1 JUMPDEST DUP2 SLOAD DUP2 MSTORE SWAP1 PUSH1 0x1 ADD SWAP1 PUSH1 0x20 ADD DUP1 DUP4 GT PUSH2 0xFB4 JUMPI DUP3 SWAP1 SUB PUSH1 0x1F AND DUP3 ADD SWAP2 JUMPDEST POP POP POP POP POP DUP2 MSTORE PUSH1 0x20 ADD PUSH1 0x1 DUP3 ADD SLOAD DUP2 MSTORE POP POP SWAP2 POP POP SWAP2 SWAP1 POP JUMP JUMPDEST PUSH0 PUSH0 PUSH0 SWAP1 SLOAD SWAP1 PUSH2 0x100 EXP SWAP1 DIV PUSH20 0xFFFFFFFFFFFFFFFFFFFFFFFFFFFFFFFFFFFFFFFF AND SWAP1 POP SWAP1 JUMP JUMPDEST PUSH0 PUSH1 0x9 SLOAD SWAP1 POP SWAP1 JUMP JUMPDEST PUSH2 0x1024 PUSH2 0x1BFF JUMP JUMPDEST PUSH1 0x5 DUP1 DUP2 GT ISZERO PUSH2 0x1037 JUMPI PUSH2 0x1036 PUSH2 0x1F30 JUMP JUMPDEST JUMPDEST PUSH1 0x3 PUSH0 SWAP1 SLOAD SWAP1 PUSH2 0x100 EXP SWAP1 DIV PUSH1 0xFF AND PUSH1 0x5 DUP2 GT ISZERO PUSH2 0x1058 JUMPI PUSH2 0x1057 PUSH2 0x1F30 JUMP JUMPDEST JUMPDEST EQ PUSH2 0x1098 JUMPI PUSH1 0x40 MLOAD PUSH32 0x8C379A000000000000000000000000000000000000000000000000000000000 DUP2 MSTORE PUSH1 0x4 ADD PUSH2 0x108F SWAP1 PUSH2 0x2633 JUMP JUMPDEST PUSH1 0x40 MLOAD DUP1 SWAP2 SUB SWAP1 REVERT JUMPDEST PUSH1 0x2 PUSH1 0x4 SLOAD DUP2 SLOAD DUP2 LT PUSH2 0x10AE JUMPI PUSH2 0x10AD PUSH2 0x2405 JUMP JUMPDEST JUMPDEST SWAP1 PUSH0 MSTORE PUSH1 0x20 PUSH0 KECCAK256 SWAP1 PUSH1 0x2 MUL ADD PUSH1 0x40 MLOAD DUP1 PUSH1 0x40 ADD PUSH1 0x40 MSTORE SWAP1 DUP2 PUSH0 DUP3 ADD DUP1 SLOAD PUSH2 0x10D4 SWAP1 PUSH2 0x267E JUMP JUMPDEST DUP1 PUSH1 0x1F ADD PUSH1 0x20 DUP1 SWAP2 DIV MUL PUSH1 0x20 ADD PUSH1 0x40 MLOAD SWAP1 DUP2 ADD PUSH1 0x40 MSTORE DUP1 SWAP3 SWAP2 SWAP1 DUP2 DUP2 MSTORE PUSH1 0x20 ADD DUP3 DUP1 SLOAD PUSH2 0x1100 SWAP1 PUSH2 0x267E JUMP JUMPDEST DUP1 ISZERO PUSH2 0x114B JUMPI DUP1 PUSH1 0x1F LT PUSH2 0x1122 JUMPI PUSH2 0x100 DUP1 DUP4 SLOAD DIV MUL DUP4 MSTORE SWAP2 PUSH1 0x20 ADD SWAP2 PUSH2 0x114B JUMP JUMPDEST DUP3 ADD SWAP2 SWAP1 PUSH0 MSTORE PUSH1 0x20 PUSH0 KECCAK256 SWAP1 JUMPDEST DUP2 SLOAD DUP2 MSTORE SWAP1 PUSH1 0x1 ADD SWAP1 PUSH1 0x20 ADD DUP1 DUP4 GT PUSH2 0x112E JUMPI DUP3 SWAP1 SUB PUSH1 0x1F AND DUP3 ADD SWAP2 JUMPDEST POP POP POP POP POP DUP2 MSTORE PUSH1 0x20 ADD PUSH1 0x1 DUP3 ADD SLOAD DUP2 MSTORE POP POP SWAP1 POP SWAP1 JUMP JUMPDEST PUSH0 PUSH1 0x3 PUSH0 SWAP1 SLOAD SWAP1 PUSH2 0x100 EXP SWAP1 DIV PUSH1 0xFF AND SWAP1 POP SWAP1 JUMP JUMPDEST PUSH0 PUSH1 0x8 SLOAD SWAP1 POP SWAP1 JUMP JUMPDEST PUSH1 0x60 PUSH1 0x1 PUSH1 0x5 DUP2 GT ISZERO PUSH2 0x1197 JUMPI PUSH2 0x1196 PUSH2 0x1F30 JUMP JUMPDEST JUMPDEST PUSH1 0x3 PUSH0 SWAP1 SLOAD SWAP1 PUSH2 0x100 EXP SWAP1 DIV PUSH1 0xFF AND PUSH1 0x5 DUP2 GT ISZERO PUSH2 0x11B8 JUMPI PUSH2 0x11B7 PUSH2 0x1F30 JUMP JUMPDEST JUMPDEST EQ PUSH2 0x11F8 JUMPI PUSH1 0x40 MLOAD PUSH32 0x8C379A000000000000000000000000000000000000000000000000000000000 DUP2 MSTORE PUSH1 0x4 ADD PUSH2 0x11EF SWAP1 PUSH2 0x2964 JUMP JUMPDEST PUSH1 0x40 MLOAD DUP1 SWAP2 SUB SWAP1 REVERT JUMPDEST CALLER PUSH20 0xFFFFFFFFFFFFFFFFFFFFFFFFFFFFFFFFFFFFFFFF AND PUSH2 0x1217 PUSH2 0xFEC JUMP JUMPDEST PUSH20 0xFFFFFFFFFFFFFFFFFFFFFFFFFFFFFFFFFFFFFFFF AND SUB PUSH2 0x126D JUMPI PUSH1 0x40 MLOAD PUSH32 0x8C379A000000000000000000000000000000000000000000000000000000000 DUP2 MSTORE PUSH1 0x4 ADD PUSH2 0x1264 SWAP1 PUSH2 0x29F2 JUMP JUMPDEST PUSH1 0x40 MLOAD DUP1 SWAP2 SUB SWAP1 REVERT JUMPDEST PUSH1 0x1 ISZERO ISZERO PUSH1 0x1 PUSH0 CALLER PUSH20 0xFFFFFFFFFFFFFFFFFFFFFFFFFFFFFFFFFFFFFFFF AND PUSH20 0xFFFFFFFFFFFFFFFFFFFFFFFFFFFFFFFFFFFFFFFF AND DUP2 MSTORE PUSH1 0x20 ADD SWAP1 DUP2 MSTORE PUSH1 0x20 ADD PUSH0 KECCAK256 PUSH0 ADD PUSH0 SWAP1 SLOAD SWAP1 PUSH2 0x100 EXP SWAP1 DIV PUSH1 0xFF AND ISZERO ISZERO EQ PUSH2 0x12FF JUMPI PUSH1 0x40 MLOAD PUSH32 0x8C379A000000000000000000000000000000000000000000000000000000000 DUP2 MSTORE PUSH1 0x4 ADD PUSH2 0x12F6 SWAP1 PUSH2 0x2317 JUMP JUMPDEST PUSH1 0x40 MLOAD DUP1 SWAP2 SUB SWAP1 REVERT JUMPDEST PUSH1 0x2 PUSH1 0x40 MLOAD DUP1 PUSH1 0x40 ADD PUSH1 0x40 MSTORE DUP1 DUP5 DUP2 MSTORE PUSH1 0x20 ADD PUSH0 DUP2 MSTORE POP SWAP1 DUP1 PUSH1 0x1 DUP2 SLOAD ADD DUP1 DUP3 SSTORE DUP1 SWAP2 POP POP PUSH1 0x1 SWAP1 SUB SWAP1 PUSH0 MSTORE PUSH1 0x20 PUSH0 KECCAK256 SWAP1 PUSH1 0x2 MUL ADD PUSH0 SWAP1 SWAP2 SWAP1 SWAP2 SWAP1 SWAP2 POP PUSH0 DUP3 ADD MLOAD DUP2 PUSH0 ADD SWAP1 DUP2 PUSH2 0x134F SWAP2 SWAP1 PUSH2 0x2BB0 JUMP JUMPDEST POP PUSH1 0x20 DUP3 ADD MLOAD DUP2 PUSH1 0x1 ADD SSTORE POP POP PUSH1 0x7 PUSH0 DUP2 SLOAD DUP1 SWAP3 SWAP2 SWAP1 PUSH2 0x136E SWAP1 PUSH2 0x245F JUMP JUMPDEST SWAP2 SWAP1 POP SSTORE POP PUSH32 0x92E393E9B54E2F801D3EA4BEB0C5E71A21CC34A5D34B77D0FB8A3AA1650DC18F PUSH1 0x7 SLOAD PUSH1 0x40 MLOAD PUSH2 0x13A4 SWAP2 SWAP1 PUSH2 0x1C96 JUMP JUMPDEST PUSH1 0x40 MLOAD DUP1 SWAP2 SUB SWAP1 LOG1 PUSH1 0x40 MLOAD DUP1 PUSH1 0x40 ADD PUSH1 0x40 MSTORE DUP1 PUSH1 0x16 DUP2 MSTORE PUSH1 0x20 ADD PUSH32 0x4F6B2070726F706F73616C207265676973746572656400000000000000000000 DUP2 MSTORE POP SWAP1 POP SWAP2 SWAP1 POP JUMP JUMPDEST PUSH2 0x13F1 PUSH2 0x1A11 JUMP JUMPDEST PUSH1 0x2 PUSH1 0x5 DUP2 GT ISZERO PUSH2 0x1405 JUMPI PUSH2 0x1404 PUSH2 0x1F30 JUMP JUMPDEST JUMPDEST PUSH1 0x3 PUSH0 SWAP1 SLOAD SWAP1 PUSH2 0x100 EXP SWAP1 DIV PUSH1 0xFF AND PUSH1 0x5 DUP2 GT ISZERO PUSH2 0x1426 JUMPI PUSH2 0x1425 PUSH2 0x1F30 JUMP JUMPDEST JUMPDEST EQ PUSH2 0x1466 JUMPI PUSH1 0x40 MLOAD PUSH32 0x8C379A000000000000000000000000000000000000000000000000000000000 DUP2 MSTORE PUSH1 0x4 ADD PUSH2 0x145D SWAP1 PUSH2 0x2D15 JUMP JUMPDEST PUSH1 0x40 MLOAD DUP1 SWAP2 SUB SWAP1 REVERT JUMPDEST PUSH1 0x3 DUP1 PUSH0 PUSH2 0x100 EXP DUP2 SLOAD DUP2 PUSH1 0xFF MUL NOT AND SWAP1 DUP4 PUSH1 0x5 DUP2 GT ISZERO PUSH2 0x148A JUMPI PUSH2 0x1489 PUSH2 0x1F30 JUMP JUMPDEST JUMPDEST MUL OR SWAP1 SSTORE POP PUSH32 0xA97A4EE45751E2ABF3E4FC8946939630B11B371EA8AE39CCDC3056E98F5CC3F PUSH1 0x1 PUSH1 0x3 PUSH0 SWAP1 SLOAD SWAP1 PUSH2 0x100 EXP SWAP1 DIV PUSH1 0xFF AND PUSH1 0x5 DUP2 GT ISZERO PUSH2 0x14D3 JUMPI PUSH2 0x14D2 PUSH2 0x1F30 JUMP JUMPDEST JUMPDEST PUSH2 0x14DD SWAP2 SWAP1 PUSH2 0x27CA JUMP JUMPDEST PUSH1 0x5 DUP2 GT ISZERO PUSH2 0x14EF JUMPI PUSH2 0x14EE PUSH2 0x1F30 JUMP JUMPDEST JUMPDEST PUSH1 0x3 PUSH0 SWAP1 SLOAD SWAP1 PUSH2 0x100 EXP SWAP1 DIV PUSH1 0xFF AND PUSH1 0x40 MLOAD PUSH2 0x150C SWAP3 SWAP2 SWAP1 PUSH2 0x27FD JUMP JUMPDEST PUSH1 0x40 MLOAD DUP1 SWAP2 SUB SWAP1 LOG1 JUMP JUMPDEST PUSH2 0x151E PUSH2 0x1A11 JUMP JUMPDEST PUSH1 0x4 PUSH1 0x5 DUP2 GT ISZERO PUSH2 0x1532 JUMPI PUSH2 0x1531 PUSH2 0x1F30 JUMP JUMPDEST JUMPDEST PUSH1 0x3 PUSH0 SWAP1 SLOAD SWAP1 PUSH2 0x100 EXP SWAP1 DIV PUSH1 0xFF AND PUSH1 0x5 DUP2 GT ISZERO PUSH2 0x1553 JUMPI PUSH2 0x1552 PUSH2 0x1F30 JUMP JUMPDEST JUMPDEST EQ PUSH2 0x1593 JUMPI PUSH1 0x40 MLOAD PUSH32 0x8C379A000000000000000000000000000000000000000000000000000000000 DUP2 MSTORE PUSH1 0x4 ADD PUSH2 0x158A SWAP1 PUSH2 0x2D7D JUMP JUMPDEST PUSH1 0x40 MLOAD DUP1 SWAP2 SUB SWAP1 REVERT JUMPDEST PUSH1 0x1 PUSH1 0x8 SLOAD EQ PUSH2 0x15D8 JUMPI PUSH1 0x40 MLOAD PUSH32 0x8C379A000000000000000000000000000000000000000000000000000000000 DUP2 MSTORE PUSH1 0x4 ADD PUSH2 0x15CF SWAP1 PUSH2 0x2E0B JUMP JUMPDEST PUSH1 0x40 MLOAD DUP1 SWAP2 SUB SWAP1 REVERT JUMPDEST PUSH1 0x5 PUSH1 0x3 PUSH0 PUSH2 0x100 EXP DUP2 SLOAD DUP2 PUSH1 0xFF MUL NOT AND SWAP1 DUP4 PUSH1 0x5 DUP2 GT ISZERO PUSH2 0x15FD JUMPI PUSH2 0x15FC PUSH2 0x1F30 JUMP JUMPDEST JUMPDEST MUL OR SWAP1 SSTORE POP PUSH32 0xA97A4EE45751E2ABF3E4FC8946939630B11B371EA8AE39CCDC3056E98F5CC3F PUSH1 0x1 PUSH1 0x3 PUSH0 SWAP1 SLOAD SWAP1 PUSH2 0x100 EXP SWAP1 DIV PUSH1 0xFF AND PUSH1 0x5 DUP2 GT ISZERO PUSH2 0x1646 JUMPI PUSH2 0x1645 PUSH2 0x1F30 JUMP JUMPDEST JUMPDEST PUSH2 0x1650 SWAP2 SWAP1 PUSH2 0x27CA JUMP JUMPDEST PUSH1 0x5 DUP2 GT ISZERO PUSH2 0x1662 JUMPI PUSH2 0x1661 PUSH2 0x1F30 JUMP JUMPDEST JUMPDEST PUSH1 0x3 PUSH0 SWAP1 SLOAD SWAP1 PUSH2 0x100 EXP SWAP1 DIV PUSH1 0xFF AND PUSH1 0x40 MLOAD PUSH2 0x167F SWAP3 SWAP2 SWAP1 PUSH2 0x27FD JUMP JUMPDEST PUSH1 0x40 MLOAD DUP1 SWAP2 SUB SWAP1 LOG1 JUMP JUMPDEST PUSH0 PUSH1 0x2 DUP1 SLOAD SWAP1 POP SWAP1 POP SWAP1 JUMP JUMPDEST PUSH2 0x169D PUSH2 0x1A11 JUMP JUMPDEST PUSH1 0x1 PUSH1 0x5 DUP2 GT ISZERO PUSH2 0x16B1 JUMPI PUSH2 0x16B0 PUSH2 0x1F30 JUMP JUMPDEST JUMPDEST PUSH1 0x3 PUSH0 SWAP1 SLOAD SWAP1 PUSH2 0x100 EXP SWAP1 DIV PUSH1 0xFF AND PUSH1 0x5 DUP2 GT ISZERO PUSH2 0x16D2 JUMPI PUSH2 0x16D1 PUSH2 0x1F30 JUMP JUMPDEST JUMPDEST EQ PUSH2 0x1712 JUMPI PUSH1 0x40 MLOAD PUSH32 0x8C379A000000000000000000000000000000000000000000000000000000000 DUP2 MSTORE PUSH1 0x4 ADD PUSH2 0x1709 SWAP1 PUSH2 0x2E99 JUMP JUMPDEST PUSH1 0x40 MLOAD DUP1 SWAP2 SUB SWAP1 REVERT JUMPDEST PUSH0 PUSH1 0x2 DUP1 SLOAD SWAP1 POP GT PUSH2 0x1759 JUMPI PUSH1 0x40 MLOAD PUSH32 0x8C379A000000000000000000000000000000000000000000000000000000000 DUP2 MSTORE PUSH1 0x4 ADD PUSH2 0x1750 SWAP1 PUSH2 0x2F27 JUMP JUMPDEST PUSH1 0x40 MLOAD DUP1 SWAP2 SUB SWAP1 REVERT JUMPDEST PUSH1 0x2 PUSH1 0x3 PUSH0 PUSH2 0x100 EXP DUP2 SLOAD DUP2 PUSH1 0xFF MUL NOT AND SWAP1 DUP4 PUSH1 0x5 DUP2 GT ISZERO PUSH2 0x177E JUMPI PUSH2 0x177D PUSH2 0x1F30 JUMP JUMPDEST JUMPDEST MUL OR SWAP1 SSTORE POP PUSH32 0xA97A4EE45751E2ABF3E4FC8946939630B11B371EA8AE39CCDC3056E98F5CC3F PUSH1 0x1 PUSH1 0x3 PUSH0 SWAP1 SLOAD SWAP1 PUSH2 0x100 EXP SWAP1 DIV PUSH1 0xFF AND PUSH1 0x5 DUP2 GT ISZERO PUSH2 0x17C7 JUMPI PUSH2 0x17C6 PUSH2 0x1F30 JUMP JUMPDEST JUMPDEST PUSH2 0x17D1 SWAP2 SWAP1 PUSH2 0x27CA JUMP JUMPDEST PUSH1 0x5 DUP2 GT ISZERO PUSH2 0x17E3 JUMPI PUSH2 0x17E2 PUSH2 0x1F30 JUMP JUMPDEST JUMPDEST PUSH1 0x3 PUSH0 SWAP1 SLOAD SWAP1 PUSH2 0x100 EXP SWAP1 DIV PUSH1 0xFF AND PUSH1 0x40 MLOAD PUSH2 0x1800 SWAP3 SWAP2 SWAP1 PUSH2 0x27FD JUMP JUMPDEST PUSH1 0x40 MLOAD DUP1 SWAP2 SUB SWAP1 LOG1 JUMP JUMPDEST PUSH0 PUSH1 0x6 SLOAD SWAP1 POP SWAP1 JUMP JUMPDEST PUSH2 0x181B PUSH2 0x1A11 JUMP JUMPDEST PUSH0 PUSH20 0xFFFFFFFFFFFFFFFFFFFFFFFFFFFFFFFFFFFFFFFF AND DUP2 PUSH20 0xFFFFFFFFFFFFFFFFFFFFFFFFFFFFFFFFFFFFFFFF AND SUB PUSH2 0x188B JUMPI PUSH0 PUSH1 0x40 MLOAD PUSH32 0x1E4FBDF700000000000000000000000000000000000000000000000000000000 DUP2 MSTORE PUSH1 0x4 ADD PUSH2 0x1882 SWAP2 SWAP1 PUSH2 0x2025 JUMP JUMPDEST PUSH1 0x40 MLOAD DUP1 SWAP2 SUB SWAP1 REVERT JUMPDEST PUSH2 0x1894 DUP2 PUSH2 0x1A98 JUMP JUMPDEST POP JUMP JUMPDEST PUSH2 0x189F PUSH2 0x1A11 JUMP JUMPDEST PUSH1 0x3 PUSH1 0x5 DUP2 GT ISZERO PUSH2 0x18B3 JUMPI PUSH2 0x18B2 PUSH2 0x1F30 JUMP JUMPDEST JUMPDEST PUSH1 0x3 PUSH0 SWAP1 SLOAD SWAP1 PUSH2 0x100 EXP SWAP1 DIV PUSH1 0xFF AND PUSH1 0x5 DUP2 GT ISZERO PUSH2 0x18D4 JUMPI PUSH2 0x18D3 PUSH2 0x1F30 JUMP JUMPDEST JUMPDEST EQ PUSH2 0x1914 JUMPI PUSH1 0x40 MLOAD PUSH32 0x8C379A000000000000000000000000000000000000000000000000000000000 DUP2 MSTORE PUSH1 0x4 ADD PUSH2 0x190B SWAP1 PUSH2 0x2FB5 JUMP JUMPDEST PUSH1 0x40 MLOAD DUP1 SWAP2 SUB SWAP1 REVERT JUMPDEST PUSH0 PUSH1 0x6 SLOAD GT PUSH2 0x1958 JUMPI PUSH1 0x40 MLOAD PUSH32 0x8C379A000000000000000000000000000000000000000000000000000000000 DUP2 MSTORE PUSH1 0x4 ADD PUSH2 0x194F SWAP1 PUSH2 0x301D JUMP JUMPDEST PUSH1 0x40 MLOAD DUP1 SWAP2 SUB SWAP1 REVERT JUMPDEST PUSH1 0x4 PUSH1 0x3 PUSH0 PUSH2 0x100 EXP DUP2 SLOAD DUP2 PUSH1 0xFF MUL NOT AND SWAP1 DUP4 PUSH1 0x5 DUP2 GT ISZERO PUSH2 0x197D JUMPI PUSH2 0x197C PUSH2 0x1F30 JUMP JUMPDEST JUMPDEST MUL OR SWAP1 SSTORE POP PUSH2 0x198A PUSH2 0x1B59 JUMP JUMPDEST PUSH32 0xA97A4EE45751E2ABF3E4FC8946939630B11B371EA8AE39CCDC3056E98F5CC3F PUSH1 0x1 PUSH1 0x3 PUSH0 SWAP1 SLOAD SWAP1 PUSH2 0x100 EXP SWAP1 DIV PUSH1 0xFF AND PUSH1 0x5 DUP2 GT ISZERO PUSH2 0x19CE JUMPI PUSH2 0x19CD PUSH2 0x1F30 JUMP JUMPDEST JUMPDEST PUSH2 0x19D8 SWAP2 SWAP1 PUSH2 0x27CA JUMP JUMPDEST PUSH1 0x5 DUP2 GT ISZERO PUSH2 0x19EA JUMPI PUSH2 0x19E9 PUSH2 0x1F30 JUMP JUMPDEST JUMPDEST PUSH1 0x3 PUSH0 SWAP1 SLOAD SWAP1 PUSH2 0x100 EXP SWAP1 DIV PUSH1 0xFF AND PUSH1 0x40 MLOAD PUSH2 0x1A07 SWAP3 SWAP2 SWAP1 PUSH2 0x27FD JUMP JUMPDEST PUSH1 0x40 MLOAD DUP1 SWAP2 SUB SWAP1 LOG1 JUMP JUMPDEST PUSH2 0x1A19 PUSH2 0x1BF8 JUMP JUMPDEST PUSH20 0xFFFFFFFFFFFFFFFFFFFFFFFFFFFFFFFFFFFFFFFF AND PUSH2 0x1A37 PUSH2 0xFEC JUMP JUMPDEST PUSH20 0xFFFFFFFFFFFFFFFFFFFFFFFFFFFFFFFFFFFFFFFF AND EQ PUSH2 0x1A96 JUMPI PUSH2 0x1A5A PUSH2 0x1BF8 JUMP JUMPDEST PUSH1 0x40 MLOAD PUSH32 0x118CDAA700000000000000000000000000000000000000000000000000000000 DUP2 MSTORE PUSH1 0x4 ADD PUSH2 0x1A8D SWAP2 SWAP1 PUSH2 0x2025 JUMP JUMPDEST PUSH1 0x40 MLOAD DUP1 SWAP2 SUB SWAP1 REVERT JUMPDEST JUMP JUMPDEST PUSH0 PUSH0 PUSH0 SWAP1 SLOAD SWAP1 PUSH2 0x100 EXP SWAP1 DIV PUSH20 0xFFFFFFFFFFFFFFFFFFFFFFFFFFFFFFFFFFFFFFFF AND SWAP1 POP DUP2 PUSH0 PUSH0 PUSH2 0x100 EXP DUP2 SLOAD DUP2 PUSH20 0xFFFFFFFFFFFFFFFFFFFFFFFFFFFFFFFFFFFFFFFF MUL NOT AND SWAP1 DUP4 PUSH20 0xFFFFFFFFFFFFFFFFFFFFFFFFFFFFFFFFFFFFFFFF AND MUL OR SWAP1 SSTORE POP DUP2 PUSH20 0xFFFFFFFFFFFFFFFFFFFFFFFFFFFFFFFFFFFFFFFF AND DUP2 PUSH20 0xFFFFFFFFFFFFFFFFFFFFFFFFFFFFFFFFFFFFFFFF AND PUSH32 0x8BE0079C531659141344CD1FD0A4F28419497F9722A3DAAFE3B4186F6B6457E0 PUSH1 0x40 MLOAD PUSH1 0x40 MLOAD DUP1 SWAP2 SUB SWAP1 LOG3 POP POP JUMP JUMPDEST PUSH2 0x1B61 PUSH2 0x1A11 JUMP JUMPDEST PUSH0 PUSH0 SWAP1 POP JUMPDEST PUSH1 0x2 DUP1 SLOAD SWAP1 POP DUP2 LT ISZERO PUSH2 0x1BF5 JUMPI PUSH1 0x9 SLOAD PUSH1 0x2 DUP3 DUP2 SLOAD DUP2 LT PUSH2 0x1B8A JUMPI PUSH2 0x1B89 PUSH2 0x2405 JUMP JUMPDEST JUMPDEST SWAP1 PUSH0 MSTORE PUSH1 0x20 PUSH0 KECCAK256 SWAP1 PUSH1 0x2 MUL ADD PUSH1 0x1 ADD SLOAD LT PUSH2 0x1BE8 JUMPI PUSH1 0x2 DUP2 DUP2 SLOAD DUP2 LT PUSH2 0x1BB3 JUMPI PUSH2 0x1BB2 PUSH2 0x2405 JUMP JUMPDEST JUMPDEST SWAP1 PUSH0 MSTORE PUSH1 0x20 PUSH0 KECCAK256 SWAP1 PUSH1 0x2 MUL ADD PUSH1 0x1 ADD SLOAD PUSH1 0x9 DUP2 SWAP1 SSTORE POP DUP1 PUSH1 0x4 DUP2 SWAP1 SSTORE POP PUSH1 0x8 PUSH0 DUP2 SLOAD DUP1 SWAP3 SWAP2 SWAP1 PUSH2 0x1BE2 SWAP1 PUSH2 0x245F JUMP JUMPDEST SWAP2 SWAP1 POP SSTORE POP JUMPDEST DUP1 DUP1 PUSH1 0x1 ADD SWAP2 POP POP PUSH2 0x1B66 JUMP JUMPDEST POP JUMP JUMPDEST PUSH0 CALLER SWAP1 POP SWAP1 JUMP JUMPDEST PUSH1 0x40 MLOAD DUP1 PUSH1 0x40 ADD PUSH1 0x40 MSTORE DUP1 PUSH1 0x60 DUP2 MSTORE PUSH1 0x20 ADD PUSH0 DUP2 MSTORE POP SWAP1 JUMP JUMPDEST PUSH0 PUSH1 0x40 MLOAD SWAP1 POP SWAP1 JUMP JUMPDEST PUSH0 PUSH0 REVERT JUMPDEST PUSH0 PUSH0 REVERT JUMPDEST PUSH0 DUP2 SWAP1 POP SWAP2 SWAP1 POP JUMP JUMPDEST PUSH2 0x1C3B DUP2 PUSH2 0x1C29 JUMP JUMPDEST DUP2 EQ PUSH2 0x1C45 JUMPI PUSH0 PUSH0 REVERT JUMPDEST POP JUMP JUMPDEST PUSH0 DUP2 CALLDATALOAD SWAP1 POP PUSH2 0x1C56 DUP2 PUSH2 0x1C32 JUMP JUMPDEST SWAP3 SWAP2 POP POP JUMP JUMPDEST PUSH0 PUSH1 0x20 DUP3 DUP5 SUB SLT ISZERO PUSH2 0x1C71 JUMPI PUSH2 0x1C70 PUSH2 0x1C21 JUMP JUMPDEST JUMPDEST PUSH0 PUSH2 0x1C7E DUP5 DUP3 DUP6 ADD PUSH2 0x1C48 JUMP JUMPDEST SWAP2 POP POP SWAP3 SWAP2 POP POP JUMP JUMPDEST PUSH2 0x1C90 DUP2 PUSH2 0x1C29 JUMP JUMPDEST DUP3 MSTORE POP POP JUMP JUMPDEST PUSH0 PUSH1 0x20 DUP3 ADD SWAP1 POP PUSH2 0x1CA9 PUSH0 DUP4 ADD DUP5 PUSH2 0x1C87 JUMP JUMPDEST SWAP3 SWAP2 POP POP JUMP JUMPDEST PUSH0 PUSH20 0xFFFFFFFFFFFFFFFFFFFFFFFFFFFFFFFFFFFFFFFF DUP3 AND SWAP1 POP SWAP2 SWAP1 POP JUMP JUMPDEST PUSH0 PUSH2 0x1CD8 DUP3 PUSH2 0x1CAF JUMP JUMPDEST SWAP1 POP SWAP2 SWAP1 POP JUMP JUMPDEST PUSH2 0x1CE8 DUP2 PUSH2 0x1CCE JUMP JUMPDEST DUP2 EQ PUSH2 0x1CF2 JUMPI PUSH0 PUSH0 REVERT JUMPDEST POP JUMP JUMPDEST PUSH0 DUP2 CALLDATALOAD SWAP1 POP PUSH2 0x1D03 DUP2 PUSH2 0x1CDF JUMP JUMPDEST SWAP3 SWAP2 POP POP JUMP JUMPDEST PUSH0 PUSH1 0x20 DUP3 DUP5 SUB SLT ISZERO PUSH2 0x1D1E JUMPI PUSH2 0x1D1D PUSH2 0x1C21 JUMP JUMPDEST JUMPDEST PUSH0 PUSH2 0x1D2B DUP5 DUP3 DUP6 ADD PUSH2 0x1CF5 JUMP JUMPDEST SWAP2 POP POP SWAP3 SWAP2 POP POP JUMP JUMPDEST PUSH0 DUP2 MLOAD SWAP1 POP SWAP2 SWAP1 POP JUMP JUMPDEST PUSH0 DUP3 DUP3 MSTORE PUSH1 0x20 DUP3 ADD SWAP1 POP SWAP3 SWAP2 POP POP JUMP JUMPDEST DUP3 DUP2 DUP4 MCOPY PUSH0 DUP4 DUP4 ADD MSTORE POP POP POP JUMP JUMPDEST PUSH0 PUSH1 0x1F NOT PUSH1 0x1F DUP4 ADD AND SWAP1 POP SWAP2 SWAP1 POP JUMP JUMPDEST PUSH0 PUSH2 0x1D76 DUP3 PUSH2 0x1D34 JUMP JUMPDEST PUSH2 0x1D80 DUP2 DUP6 PUSH2 0x1D3E JUMP JUMPDEST SWAP4 POP PUSH2 0x1D90 DUP2 DUP6 PUSH1 0x20 DUP7 ADD PUSH2 0x1D4E JUMP JUMPDEST PUSH2 0x1D99 DUP2 PUSH2 0x1D5C JUMP JUMPDEST DUP5 ADD SWAP2 POP POP SWAP3 SWAP2 POP POP JUMP JUMPDEST PUSH0 PUSH1 0x20 DUP3 ADD SWAP1 POP DUP2 DUP2 SUB PUSH0 DUP4 ADD MSTORE PUSH2 0x1DBC DUP2 DUP5 PUSH2 0x1D6C JUMP JUMPDEST SWAP1 POP SWAP3 SWAP2 POP POP JUMP JUMPDEST PUSH0 DUP2 MLOAD SWAP1 POP SWAP2 SWAP1 POP JUMP JUMPDEST PUSH0 DUP3 DUP3 MSTORE PUSH1 0x20 DUP3 ADD SWAP1 POP SWAP3 SWAP2 POP POP JUMP JUMPDEST PUSH0 DUP2 SWAP1 POP PUSH1 0x20 DUP3 ADD SWAP1 POP SWAP2 SWAP1 POP JUMP JUMPDEST PUSH0 DUP3 DUP3 MSTORE PUSH1 0x20 DUP3 ADD SWAP1 POP SWAP3 SWAP2 POP POP JUMP JUMPDEST PUSH0 PUSH2 0x1E07 DUP3 PUSH2 0x1D34 JUMP JUMPDEST PUSH2 0x1E11 DUP2 DUP6 PUSH2 0x1DED JUMP JUMPDEST SWAP4 POP PUSH2 0x1E21 DUP2 DUP6 PUSH1 0x20 DUP7 ADD PUSH2 0x1D4E JUMP JUMPDEST PUSH2 0x1E2A DUP2 PUSH2 0x1D5C JUMP JUMPDEST DUP5 ADD SWAP2 POP POP SWAP3 SWAP2 POP POP JUMP JUMPDEST PUSH2 0x1E3E DUP2 PUSH2 0x1C29 JUMP JUMPDEST DUP3 MSTORE POP POP JUMP JUMPDEST PUSH0 PUSH1 0x40 DUP4 ADD PUSH0 DUP4 ADD MLOAD DUP5 DUP3 SUB PUSH0 DUP7 ADD MSTORE PUSH2 0x1E5E DUP3 DUP3 PUSH2 0x1DFD JUMP JUMPDEST SWAP2 POP POP PUSH1 0x20 DUP4 ADD MLOAD PUSH2 0x1E73 PUSH1 0x20 DUP7 ADD DUP3 PUSH2 0x1E35 JUMP JUMPDEST POP DUP1 SWAP2 POP POP SWAP3 SWAP2 POP POP JUMP JUMPDEST PUSH0 PUSH2 0x1E89 DUP4 DUP4 PUSH2 0x1E44 JUMP JUMPDEST SWAP1 POP SWAP3 SWAP2 POP POP JUMP JUMPDEST PUSH0 PUSH1 0x20 DUP3 ADD SWAP1 POP SWAP2 SWAP1 POP JUMP JUMPDEST PUSH0 PUSH2 0x1EA7 DUP3 PUSH2 0x1DC4 JUMP JUMPDEST PUSH2 0x1EB1 DUP2 DUP6 PUSH2 0x1DCE JUMP JUMPDEST SWAP4 POP DUP4 PUSH1 0x20 DUP3 MUL DUP6 ADD PUSH2 0x1EC3 DUP6 PUSH2 0x1DDE JUMP JUMPDEST DUP1 PUSH0 JUMPDEST DUP6 DUP2 LT ISZERO PUSH2 0x1EFE JUMPI DUP5 DUP5 SUB DUP10 MSTORE DUP2 MLOAD PUSH2 0x1EDF DUP6 DUP3 PUSH2 0x1E7E JUMP JUMPDEST SWAP5 POP PUSH2 0x1EEA DUP4 PUSH2 0x1E91 JUMP JUMPDEST SWAP3 POP PUSH1 0x20 DUP11 ADD SWAP10 POP POP PUSH1 0x1 DUP2 ADD SWAP1 POP PUSH2 0x1EC6 JUMP JUMPDEST POP DUP3 SWAP8 POP DUP8 SWAP6 POP POP POP POP POP POP SWAP3 SWAP2 POP POP JUMP JUMPDEST PUSH0 PUSH1 0x20 DUP3 ADD SWAP1 POP DUP2 DUP2 SUB PUSH0 DUP4 ADD MSTORE PUSH2 0x1F28 DUP2 DUP5 PUSH2 0x1E9D JUMP JUMPDEST SWAP1 POP SWAP3 SWAP2 POP POP JUMP JUMPDEST PUSH32 0x4E487B7100000000000000000000000000000000000000000000000000000000 PUSH0 MSTORE PUSH1 0x21 PUSH1 0x4 MSTORE PUSH1 0x24 PUSH0 REVERT JUMPDEST PUSH1 0x6 DUP2 LT PUSH2 0x1F6E JUMPI PUSH2 0x1F6D PUSH2 0x1F30 JUMP JUMPDEST JUMPDEST POP JUMP JUMPDEST PUSH0 DUP2 SWAP1 POP PUSH2 0x1F7E DUP3 PUSH2 0x1F5D JUMP JUMPDEST SWAP2 SWAP1 POP JUMP JUMPDEST PUSH0 PUSH2 0x1F8D DUP3 PUSH2 0x1F71 JUMP JUMPDEST SWAP1 POP SWAP2 SWAP1 POP JUMP JUMPDEST PUSH2 0x1F9D DUP2 PUSH2 0x1F83 JUMP JUMPDEST DUP3 MSTORE POP POP JUMP JUMPDEST PUSH0 PUSH1 0x20 DUP3 ADD SWAP1 POP PUSH2 0x1FB6 PUSH0 DUP4 ADD DUP5 PUSH2 0x1F94 JUMP JUMPDEST SWAP3 SWAP2 POP POP JUMP JUMPDEST PUSH0 PUSH1 0x40 DUP4 ADD PUSH0 DUP4 ADD MLOAD DUP5 DUP3 SUB PUSH0 DUP7 ADD MSTORE PUSH2 0x1FD6 DUP3 DUP3 PUSH2 0x1DFD JUMP JUMPDEST SWAP2 POP POP PUSH1 0x20 DUP4 ADD MLOAD PUSH2 0x1FEB PUSH1 0x20 DUP7 ADD DUP3 PUSH2 0x1E35 JUMP JUMPDEST POP DUP1 SWAP2 POP POP SWAP3 SWAP2 POP POP JUMP JUMPDEST PUSH0 PUSH1 0x20 DUP3 ADD SWAP1 POP DUP2 DUP2 SUB PUSH0 DUP4 ADD MSTORE PUSH2 0x200E DUP2 DUP5 PUSH2 0x1FBC JUMP JUMPDEST SWAP1 POP SWAP3 SWAP2 POP POP JUMP JUMPDEST PUSH2 0x201F DUP2 PUSH2 0x1CCE JUMP JUMPDEST DUP3 MSTORE POP POP JUMP JUMPDEST PUSH0 PUSH1 0x20 DUP3 ADD SWAP1 POP PUSH2 0x2038 PUSH0 DUP4 ADD DUP5 PUSH2 0x2016 JUMP JUMPDEST SWAP3 SWAP2 POP POP JUMP JUMPDEST PUSH0 PUSH0 REVERT JUMPDEST PUSH0 PUSH0 REVERT JUMPDEST PUSH32 0x4E487B7100000000000000000000000000000000000000000000000000000000 PUSH0 MSTORE PUSH1 0x41 PUSH1 0x4 MSTORE PUSH1 0x24 PUSH0 REVERT JUMPDEST PUSH2 0x207C DUP3 PUSH2 0x1D5C JUMP JUMPDEST DUP2 ADD DUP2 DUP2 LT PUSH8 0xFFFFFFFFFFFFFFFF DUP3 GT OR ISZERO PUSH2 0x209B JUMPI PUSH2 0x209A PUSH2 0x2046 JUMP JUMPDEST JUMPDEST DUP1 PUSH1 0x40 MSTORE POP POP POP JUMP JUMPDEST PUSH0 PUSH2 0x20AD PUSH2 0x1C18 JUMP JUMPDEST SWAP1 POP PUSH2 0x20B9 DUP3 DUP3 PUSH2 0x2073 JUMP JUMPDEST SWAP2 SWAP1 POP JUMP JUMPDEST PUSH0 PUSH8 0xFFFFFFFFFFFFFFFF DUP3 GT ISZERO PUSH2 0x20D8 JUMPI PUSH2 0x20D7 PUSH2 0x2046 JUMP JUMPDEST JUMPDEST PUSH2 0x20E1 DUP3 PUSH2 0x1D5C JUMP JUMPDEST SWAP1 POP PUSH1 0x20 DUP2 ADD SWAP1 POP SWAP2 SWAP1 POP JUMP JUMPDEST DUP3 DUP2 DUP4 CALLDATACOPY PUSH0 DUP4 DUP4 ADD MSTORE POP POP POP JUMP JUMPDEST PUSH0 PUSH2 0x210E PUSH2 0x2109 DUP5 PUSH2 0x20BE JUMP JUMPDEST PUSH2 0x20A4 JUMP JUMPDEST SWAP1 POP DUP3 DUP2 MSTORE PUSH1 0x20 DUP2 ADD DUP5 DUP5 DUP5 ADD GT ISZERO PUSH2 0x212A JUMPI PUSH2 0x2129 PUSH2 0x2042 JUMP JUMPDEST JUMPDEST PUSH2 0x2135 DUP5 DUP3 DUP6 PUSH2 0x20EE JUMP JUMPDEST POP SWAP4 SWAP3 POP POP POP JUMP JUMPDEST PUSH0 DUP3 PUSH1 0x1F DUP4 ADD SLT PUSH2 0x2151 JUMPI PUSH2 0x2150 PUSH2 0x203E JUMP JUMPDEST JUMPDEST DUP2 CALLDATALOAD PUSH2 0x2161 DUP5 DUP3 PUSH1 0x20 DUP7 ADD PUSH2 0x20FC JUMP JUMPDEST SWAP2 POP POP SWAP3 SWAP2 POP POP JUMP JUMPDEST PUSH0 PUSH1 0x20 DUP3 DUP5 SUB SLT ISZERO PUSH2 0x217F JUMPI PUSH2 0x217E PUSH2 0x1C21 JUMP JUMPDEST JUMPDEST PUSH0 DUP3 ADD CALLDATALOAD PUSH8 0xFFFFFFFFFFFFFFFF DUP2 GT ISZERO PUSH2 0x219C JUMPI PUSH2 0x219B PUSH2 0x1C25 JUMP JUMPDEST JUMPDEST PUSH2 0x21A8 DUP5 DUP3 DUP6 ADD PUSH2 0x213D JUMP JUMPDEST SWAP2 POP POP SWAP3 SWAP2 POP POP JUMP JUMPDEST PUSH32 0x596F752063616E206F6E6C7920766F7465206966207468657265206973206D6F PUSH0 DUP3 ADD MSTORE PUSH32 0x7265207468616E20312077696E6E657200000000000000000000000000000000 PUSH1 0x20 DUP3 ADD MSTORE POP JUMP JUMPDEST PUSH0 PUSH2 0x220B PUSH1 0x30 DUP4 PUSH2 0x1D3E JUMP JUMPDEST SWAP2 POP PUSH2 0x2216 DUP3 PUSH2 0x21B1 JUMP JUMPDEST PUSH1 0x40 DUP3 ADD SWAP1 POP SWAP2 SWAP1 POP JUMP JUMPDEST PUSH0 PUSH1 0x20 DUP3 ADD SWAP1 POP DUP2 DUP2 SUB PUSH0 DUP4 ADD MSTORE PUSH2 0x2238 DUP2 PUSH2 0x21FF JUMP JUMPDEST SWAP1 POP SWAP2 SWAP1 POP JUMP JUMPDEST PUSH32 0x54686520766F74696E672073657373696F6E206973206E6F7420737461727465 PUSH0 DUP3 ADD MSTORE PUSH32 0x6400000000000000000000000000000000000000000000000000000000000000 PUSH1 0x20 DUP3 ADD MSTORE POP JUMP JUMPDEST PUSH0 PUSH2 0x2299 PUSH1 0x21 DUP4 PUSH2 0x1D3E JUMP JUMPDEST SWAP2 POP PUSH2 0x22A4 DUP3 PUSH2 0x223F JUMP JUMPDEST PUSH1 0x40 DUP3 ADD SWAP1 POP SWAP2 SWAP1 POP JUMP JUMPDEST PUSH0 PUSH1 0x20 DUP3 ADD SWAP1 POP DUP2 DUP2 SUB PUSH0 DUP4 ADD MSTORE PUSH2 0x22C6 DUP2 PUSH2 0x228D JUMP JUMPDEST SWAP1 POP SWAP2 SWAP1 POP JUMP JUMPDEST PUSH32 0x596F7520617265206E6F74207265676973746572656400000000000000000000 PUSH0 DUP3 ADD MSTORE POP JUMP JUMPDEST PUSH0 PUSH2 0x2301 PUSH1 0x16 DUP4 PUSH2 0x1D3E JUMP JUMPDEST SWAP2 POP PUSH2 0x230C DUP3 PUSH2 0x22CD JUMP JUMPDEST PUSH1 0x20 DUP3 ADD SWAP1 POP SWAP2 SWAP1 POP JUMP JUMPDEST PUSH0 PUSH1 0x20 DUP3 ADD SWAP1 POP DUP2 DUP2 SUB PUSH0 DUP4 ADD MSTORE PUSH2 0x232E DUP2 PUSH2 0x22F5 JUMP JUMPDEST SWAP1 POP SWAP2 SWAP1 POP JUMP JUMPDEST PUSH32 0x596F7520616C726561647920766F746564000000000000000000000000000000 PUSH0 DUP3 ADD MSTORE POP JUMP JUMPDEST PUSH0 PUSH2 0x2369 PUSH1 0x11 DUP4 PUSH2 0x1D3E JUMP JUMPDEST SWAP2 POP PUSH2 0x2374 DUP3 PUSH2 0x2335 JUMP JUMPDEST PUSH1 0x20 DUP3 ADD SWAP1 POP SWAP2 SWAP1 POP JUMP JUMPDEST PUSH0 PUSH1 0x20 DUP3 ADD SWAP1 POP DUP2 DUP2 SUB PUSH0 DUP4 ADD MSTORE PUSH2 0x2396 DUP2 PUSH2 0x235D JUMP JUMPDEST SWAP1 POP SWAP2 SWAP1 POP JUMP JUMPDEST PUSH32 0x546869732070726F706F73616C20494420646F6573206E6F7420657869737473 PUSH0 DUP3 ADD MSTORE POP JUMP JUMPDEST PUSH0 PUSH2 0x23D1 PUSH1 0x20 DUP4 PUSH2 0x1D3E JUMP JUMPDEST SWAP2 POP PUSH2 0x23DC DUP3 PUSH2 0x239D JUMP JUMPDEST PUSH1 0x20 DUP3 ADD SWAP1 POP SWAP2 SWAP1 POP JUMP JUMPDEST PUSH0 PUSH1 0x20 DUP3 ADD SWAP1 POP DUP2 DUP2 SUB PUSH0 DUP4 ADD MSTORE PUSH2 0x23FE DUP2 PUSH2 0x23C5 JUMP JUMPDEST SWAP1 POP SWAP2 SWAP1 POP JUMP JUMPDEST PUSH32 0x4E487B7100000000000000000000000000000000000000000000000000000000 PUSH0 MSTORE PUSH1 0x32 PUSH1 0x4 MSTORE PUSH1 0x24 PUSH0 REVERT JUMPDEST PUSH32 0x4E487B7100000000000000000000000000000000000000000000000000000000 PUSH0 MSTORE PUSH1 0x11 PUSH1 0x4 MSTORE PUSH1 0x24 PUSH0 REVERT JUMPDEST PUSH0 PUSH2 0x2469 DUP3 PUSH2 0x1C29 JUMP JUMPDEST SWAP2 POP PUSH32 0xFFFFFFFFFFFFFFFFFFFFFFFFFFFFFFFFFFFFFFFFFFFFFFFFFFFFFFFFFFFFFFFF DUP3 SUB PUSH2 0x249B JUMPI PUSH2 0x249A PUSH2 0x2432 JUMP JUMPDEST JUMPDEST PUSH1 0x1 DUP3 ADD SWAP1 POP SWAP2 SWAP1 POP JUMP JUMPDEST PUSH0 PUSH1 0x40 DUP3 ADD SWAP1 POP PUSH2 0x24B9 PUSH0 DUP4 ADD DUP6 PUSH2 0x2016 JUMP JUMPDEST PUSH2 0x24C6 PUSH1 0x20 DUP4 ADD DUP5 PUSH2 0x1C87 JUMP JUMPDEST SWAP4 SWAP3 POP POP POP JUMP JUMPDEST PUSH32 0x596F7520617265206E6F7420696E20766F74657220726567697374726174696F PUSH0 DUP3 ADD MSTORE PUSH32 0x6E20706572696F64000000000000000000000000000000000000000000000000 PUSH1 0x20 DUP3 ADD MSTORE POP JUMP JUMPDEST PUSH0 PUSH2 0x2527 PUSH1 0x28 DUP4 PUSH2 0x1D3E JUMP JUMPDEST SWAP2 POP PUSH2 0x2532 DUP3 PUSH2 0x24CD JUMP JUMPDEST PUSH1 0x40 DUP3 ADD SWAP1 POP SWAP2 SWAP1 POP JUMP JUMPDEST PUSH0 PUSH1 0x20 DUP3 ADD SWAP1 POP DUP2 DUP2 SUB PUSH0 DUP4 ADD MSTORE PUSH2 0x2554 DUP2 PUSH2 0x251B JUMP JUMPDEST SWAP1 POP SWAP2 SWAP1 POP JUMP JUMPDEST PUSH32 0x596F7520616C7265616479206861766520616464207468697320616472657373 PUSH0 DUP3 ADD MSTORE POP JUMP JUMPDEST PUSH0 PUSH2 0x258F PUSH1 0x20 DUP4 PUSH2 0x1D3E JUMP JUMPDEST SWAP2 POP PUSH2 0x259A DUP3 PUSH2 0x255B JUMP JUMPDEST PUSH1 0x20 DUP3 ADD SWAP1 POP SWAP2 SWAP1 POP JUMP JUMPDEST PUSH0 PUSH1 0x20 DUP3 ADD SWAP1 POP DUP2 DUP2 SUB PUSH0 DUP4 ADD MSTORE PUSH2 0x25BC DUP2 PUSH2 0x2583 JUMP JUMPDEST SWAP1 POP SWAP2 SWAP1 POP JUMP JUMPDEST PUSH32 0x5468652077696E6E65722068617665206E6F74206265656E2063686F6F73656E PUSH0 DUP3 ADD MSTORE PUSH32 0x2079657400000000000000000000000000000000000000000000000000000000 PUSH1 0x20 DUP3 ADD MSTORE POP JUMP JUMPDEST PUSH0 PUSH2 0x261D PUSH1 0x24 DUP4 PUSH2 0x1D3E JUMP JUMPDEST SWAP2 POP PUSH2 0x2628 DUP3 PUSH2 0x25C3 JUMP JUMPDEST PUSH1 0x40 DUP3 ADD SWAP1 POP SWAP2 SWAP1 POP JUMP JUMPDEST PUSH0 PUSH1 0x20 DUP3 ADD SWAP1 POP DUP2 DUP2 SUB PUSH0 DUP4 ADD MSTORE PUSH2 0x264A DUP2 PUSH2 0x2611 JUMP JUMPDEST SWAP1 POP SWAP2 SWAP1 POP JUMP JUMPDEST PUSH32 0x4E487B7100000000000000000000000000000000000000000000000000000000 PUSH0 MSTORE PUSH1 0x22 PUSH1 0x4 MSTORE PUSH1 0x24 PUSH0 REVERT JUMPDEST PUSH0 PUSH1 0x2 DUP3 DIV SWAP1 POP PUSH1 0x1 DUP3 AND DUP1 PUSH2 0x2695 JUMPI PUSH1 0x7F DUP3 AND SWAP2 POP JUMPDEST PUSH1 0x20 DUP3 LT DUP2 SUB PUSH2 0x26A8 JUMPI PUSH2 0x26A7 PUSH2 0x2651 JUMP JUMPDEST JUMPDEST POP SWAP2 SWAP1 POP JUMP JUMPDEST PUSH32 0x596F752063616E206E6F7420737461727420616761696E207468652070726F70 PUSH0 DUP3 ADD MSTORE PUSH32 0x6F73616C2073657373696F6E0000000000000000000000000000000000000000 PUSH1 0x20 DUP3 ADD MSTORE POP JUMP JUMPDEST PUSH0 PUSH2 0x2708 PUSH1 0x2C DUP4 PUSH2 0x1D3E JUMP JUMPDEST SWAP2 POP PUSH2 0x2713 DUP3 PUSH2 0x26AE JUMP JUMPDEST PUSH1 0x40 DUP3 ADD SWAP1 POP SWAP2 SWAP1 POP JUMP JUMPDEST PUSH0 PUSH1 0x20 DUP3 ADD SWAP1 POP DUP2 DUP2 SUB PUSH0 DUP4 ADD MSTORE PUSH2 0x2735 DUP2 PUSH2 0x26FC JUMP JUMPDEST SWAP1 POP SWAP2 SWAP1 POP JUMP JUMPDEST PUSH32 0x596F75206D757374207265676973746572206174206C65617374203220616464 PUSH0 DUP3 ADD MSTORE PUSH32 0x7265737365730000000000000000000000000000000000000000000000000000 PUSH1 0x20 DUP3 ADD MSTORE POP JUMP JUMPDEST PUSH0 PUSH2 0x2796 PUSH1 0x26 DUP4 PUSH2 0x1D3E JUMP JUMPDEST SWAP2 POP PUSH2 0x27A1 DUP3 PUSH2 0x273C JUMP JUMPDEST PUSH1 0x40 DUP3 ADD SWAP1 POP SWAP2 SWAP1 POP JUMP JUMPDEST PUSH0 PUSH1 0x20 DUP3 ADD SWAP1 POP DUP2 DUP2 SUB PUSH0 DUP4 ADD MSTORE PUSH2 0x27C3 DUP2 PUSH2 0x278A JUMP JUMPDEST SWAP1 POP SWAP2 SWAP1 POP JUMP JUMPDEST PUSH0 PUSH2 0x27D4 DUP3 PUSH2 0x1C29 JUMP JUMPDEST SWAP2 POP PUSH2 0x27DF DUP4 PUSH2 0x1C29 JUMP JUMPDEST SWAP3 POP DUP3 DUP3 SUB SWAP1 POP DUP2 DUP2 GT ISZERO PUSH2 0x27F7 JUMPI PUSH2 0x27F6 PUSH2 0x2432 JUMP JUMPDEST JUMPDEST SWAP3 SWAP2 POP POP JUMP JUMPDEST PUSH0 PUSH1 0x40 DUP3 ADD SWAP1 POP PUSH2 0x2810 PUSH0 DUP4 ADD DUP6 PUSH2 0x1F94 JUMP JUMPDEST PUSH2 0x281D PUSH1 0x20 DUP4 ADD DUP5 PUSH2 0x1F94 JUMP JUMPDEST SWAP4 SWAP3 POP POP POP JUMP JUMPDEST PUSH32 0x546869732061646472657373206973206E6F7420726567697374657265640000 PUSH0 DUP3 ADD MSTORE POP JUMP JUMPDEST PUSH0 PUSH2 0x2858 PUSH1 0x1E DUP4 PUSH2 0x1D3E JUMP JUMPDEST SWAP2 POP PUSH2 0x2863 DUP3 PUSH2 0x2824 JUMP JUMPDEST PUSH1 0x20 DUP3 ADD SWAP1 POP SWAP2 SWAP1 POP JUMP JUMPDEST PUSH0 PUSH1 0x20 DUP3 ADD SWAP1 POP DUP2 DUP2 SUB PUSH0 DUP4 ADD MSTORE PUSH2 0x2885 DUP2 PUSH2 0x284C JUMP JUMPDEST SWAP1 POP SWAP2 SWAP1 POP JUMP JUMPDEST PUSH32 0x54686973206164647265737320686173206E6F7420766F746564000000000000 PUSH0 DUP3 ADD MSTORE POP JUMP JUMPDEST PUSH0 PUSH2 0x28C0 PUSH1 0x1A DUP4 PUSH2 0x1D3E JUMP JUMPDEST SWAP2 POP PUSH2 0x28CB DUP3 PUSH2 0x288C JUMP JUMPDEST PUSH1 0x20 DUP3 ADD SWAP1 POP SWAP2 SWAP1 POP JUMP JUMPDEST PUSH0 PUSH1 0x20 DUP3 ADD SWAP1 POP DUP2 DUP2 SUB PUSH0 DUP4 ADD MSTORE PUSH2 0x28ED DUP2 PUSH2 0x28B4 JUMP JUMPDEST SWAP1 POP SWAP2 SWAP1 POP JUMP JUMPDEST PUSH32 0x5468652070726F706F73616C2073657373696F6E206973206E6F742073746172 PUSH0 DUP3 ADD MSTORE PUSH32 0x7465640000000000000000000000000000000000000000000000000000000000 PUSH1 0x20 DUP3 ADD MSTORE POP JUMP JUMPDEST PUSH0 PUSH2 0x294E PUSH1 0x23 DUP4 PUSH2 0x1D3E JUMP JUMPDEST SWAP2 POP PUSH2 0x2959 DUP3 PUSH2 0x28F4 JUMP JUMPDEST PUSH1 0x40 DUP3 ADD SWAP1 POP SWAP2 SWAP1 POP JUMP JUMPDEST PUSH0 PUSH1 0x20 DUP3 ADD SWAP1 POP DUP2 DUP2 SUB PUSH0 DUP4 ADD MSTORE PUSH2 0x297B DUP2 PUSH2 0x2942 JUMP JUMPDEST SWAP1 POP SWAP2 SWAP1 POP JUMP JUMPDEST PUSH32 0x596F752061726520746865206F776E6572206F66207468697320636F6E747261 PUSH0 DUP3 ADD MSTORE PUSH32 0x63742C20796F752063616E206E6F742070726F706F7365000000000000000000 PUSH1 0x20 DUP3 ADD MSTORE POP JUMP JUMPDEST PUSH0 PUSH2 0x29DC PUSH1 0x37 DUP4 PUSH2 0x1D3E JUMP JUMPDEST SWAP2 POP PUSH2 0x29E7 DUP3 PUSH2 0x2982 JUMP JUMPDEST PUSH1 0x40 DUP3 ADD SWAP1 POP SWAP2 SWAP1 POP JUMP JUMPDEST PUSH0 PUSH1 0x20 DUP3 ADD SWAP1 POP DUP2 DUP2 SUB PUSH0 DUP4 ADD MSTORE PUSH2 0x2A09 DUP2 PUSH2 0x29D0 JUMP JUMPDEST SWAP1 POP SWAP2 SWAP1 POP JUMP JUMPDEST PUSH0 DUP2 SWAP1 POP DUP2 PUSH0 MSTORE PUSH1 0x20 PUSH0 KECCAK256 SWAP1 POP SWAP2 SWAP1 POP JUMP JUMPDEST PUSH0 PUSH1 0x20 PUSH1 0x1F DUP4 ADD DIV SWAP1 POP SWAP2 SWAP1 POP JUMP JUMPDEST PUSH0 DUP3 DUP3 SHL SWAP1 POP SWAP3 SWAP2 POP POP JUMP JUMPDEST PUSH0 PUSH1 0x8 DUP4 MUL PUSH2 0x2A6C PUSH32 0xFFFFFFFFFFFFFFFFFFFFFFFFFFFFFFFFFFFFFFFFFFFFFFFFFFFFFFFFFFFFFFFF DUP3 PUSH2 0x2A31 JUMP JUMPDEST PUSH2 0x2A76 DUP7 DUP4 PUSH2 0x2A31 JUMP JUMPDEST SWAP6 POP DUP1 NOT DUP5 AND SWAP4 POP DUP1 DUP7 AND DUP5 OR SWAP3 POP POP POP SWAP4 SWAP3 POP POP POP JUMP JUMPDEST PUSH0 DUP2 SWAP1 POP SWAP2 SWAP1 POP JUMP JUMPDEST PUSH0 PUSH2 0x2AB1 PUSH2 0x2AAC PUSH2 0x2AA7 DUP5 PUSH2 0x1C29 JUMP JUMPDEST PUSH2 0x2A8E JUMP JUMPDEST PUSH2 0x1C29 JUMP JUMPDEST SWAP1 POP SWAP2 SWAP1 POP JUMP JUMPDEST PUSH0 DUP2 SWAP1 POP SWAP2 SWAP1 POP JUMP JUMPDEST PUSH2 0x2ACA DUP4 PUSH2 0x2A97 JUMP JUMPDEST PUSH2 0x2ADE PUSH2 0x2AD6 DUP3 PUSH2 0x2AB8 JUMP JUMPDEST DUP5 DUP5 SLOAD PUSH2 0x2A3D JUMP JUMPDEST DUP3 SSTORE POP POP POP POP JUMP JUMPDEST PUSH0 PUSH0 SWAP1 POP SWAP1 JUMP JUMPDEST PUSH2 0x2AF5 PUSH2 0x2AE6 JUMP JUMPDEST PUSH2 0x2B00 DUP2 DUP5 DUP5 PUSH2 0x2AC1 JUMP JUMPDEST POP POP POP JUMP JUMPDEST JUMPDEST DUP2 DUP2 LT ISZERO PUSH2 0x2B23 JUMPI PUSH2 0x2B18 PUSH0 DUP3 PUSH2 0x2AED JUMP JUMPDEST PUSH1 0x1 DUP2 ADD SWAP1 POP PUSH2 0x2B06 JUMP JUMPDEST POP POP JUMP JUMPDEST PUSH1 0x1F DUP3 GT ISZERO PUSH2 0x2B68 JUMPI PUSH2 0x2B39 DUP2 PUSH2 0x2A10 JUMP JUMPDEST PUSH2 0x2B42 DUP5 PUSH2 0x2A22 JUMP JUMPDEST DUP2 ADD PUSH1 0x20 DUP6 LT ISZERO PUSH2 0x2B51 JUMPI DUP2 SWAP1 POP JUMPDEST PUSH2 0x2B65 PUSH2 0x2B5D DUP6 PUSH2 0x2A22 JUMP JUMPDEST DUP4 ADD DUP3 PUSH2 0x2B05 JUMP JUMPDEST POP POP JUMPDEST POP POP POP JUMP JUMPDEST PUSH0 DUP3 DUP3 SHR SWAP1 POP SWAP3 SWAP2 POP POP JUMP JUMPDEST PUSH0 PUSH2 0x2B88 PUSH0 NOT DUP5 PUSH1 0x8 MUL PUSH2 0x2B6D JUMP JUMPDEST NOT DUP1 DUP4 AND SWAP2 POP POP SWAP3 SWAP2 POP POP JUMP JUMPDEST PUSH0 PUSH2 0x2BA0 DUP4 DUP4 PUSH2 0x2B79 JUMP JUMPDEST SWAP2 POP DUP3 PUSH1 0x2 MUL DUP3 OR SWAP1 POP SWAP3 SWAP2 POP POP JUMP JUMPDEST PUSH2 0x2BB9 DUP3 PUSH2 0x1D34 JUMP JUMPDEST PUSH8 0xFFFFFFFFFFFFFFFF DUP2 GT ISZERO PUSH2 0x2BD2 JUMPI PUSH2 0x2BD1 PUSH2 0x2046 JUMP JUMPDEST JUMPDEST PUSH2 0x2BDC DUP3 SLOAD PUSH2 0x267E JUMP JUMPDEST PUSH2 0x2BE7 DUP3 DUP3 DUP6 PUSH2 0x2B27 JUMP JUMPDEST PUSH0 PUSH1 0x20 SWAP1 POP PUSH1 0x1F DUP4 GT PUSH1 0x1 DUP2 EQ PUSH2 0x2C18 JUMPI PUSH0 DUP5 ISZERO PUSH2 0x2C06 JUMPI DUP3 DUP8 ADD MLOAD SWAP1 POP JUMPDEST PUSH2 0x2C10 DUP6 DUP3 PUSH2 0x2B95 JUMP JUMPDEST DUP7 SSTORE POP PUSH2 0x2C77 JUMP JUMPDEST PUSH1 0x1F NOT DUP5 AND PUSH2 0x2C26 DUP7 PUSH2 0x2A10 JUMP JUMPDEST PUSH0 JUMPDEST DUP3 DUP2 LT ISZERO PUSH2 0x2C4D JUMPI DUP5 DUP10 ADD MLOAD DUP3 SSTORE PUSH1 0x1 DUP3 ADD SWAP2 POP PUSH1 0x20 DUP6 ADD SWAP5 POP PUSH1 0x20 DUP2 ADD SWAP1 POP PUSH2 0x2C28 JUMP JUMPDEST DUP7 DUP4 LT ISZERO PUSH2 0x2C6A JUMPI DUP5 DUP10 ADD MLOAD PUSH2 0x2C66 PUSH1 0x1F DUP10 AND DUP3 PUSH2 0x2B79 JUMP JUMPDEST DUP4 SSTORE POP JUMPDEST PUSH1 0x1 PUSH1 0x2 DUP9 MUL ADD DUP9 SSTORE POP POP POP JUMPDEST POP POP POP POP POP POP JUMP JUMPDEST PUSH32 0x5468652070726F706F73616C2073657373696F6E206973206E6F7420656E6465 PUSH0 DUP3 ADD MSTORE PUSH32 0x64206F722074686520766F74652073657373696F6E2068617320616C72656164 PUSH1 0x20 DUP3 ADD MSTORE PUSH32 0x7920737461727465640000000000000000000000000000000000000000000000 PUSH1 0x40 DUP3 ADD MSTORE POP JUMP JUMPDEST PUSH0 PUSH2 0x2CFF PUSH1 0x49 DUP4 PUSH2 0x1D3E JUMP JUMPDEST SWAP2 POP PUSH2 0x2D0A DUP3 PUSH2 0x2C7F JUMP JUMPDEST PUSH1 0x60 DUP3 ADD SWAP1 POP SWAP2 SWAP1 POP JUMP JUMPDEST PUSH0 PUSH1 0x20 DUP3 ADD SWAP1 POP DUP2 DUP2 SUB PUSH0 DUP4 ADD MSTORE PUSH2 0x2D2C DUP2 PUSH2 0x2CF3 JUMP JUMPDEST SWAP1 POP SWAP2 SWAP1 POP JUMP JUMPDEST PUSH32 0x54686520766F74652073657373696F6E206973206E6F7420656E646564000000 PUSH0 DUP3 ADD MSTORE POP JUMP JUMPDEST PUSH0 PUSH2 0x2D67 PUSH1 0x1D DUP4 PUSH2 0x1D3E JUMP JUMPDEST SWAP2 POP PUSH2 0x2D72 DUP3 PUSH2 0x2D33 JUMP JUMPDEST PUSH1 0x20 DUP3 ADD SWAP1 POP SWAP2 SWAP1 POP JUMP JUMPDEST PUSH0 PUSH1 0x20 DUP3 ADD SWAP1 POP DUP2 DUP2 SUB PUSH0 DUP4 ADD MSTORE PUSH2 0x2D94 DUP2 PUSH2 0x2D5B JUMP JUMPDEST SWAP1 POP SWAP2 SWAP1 POP JUMP JUMPDEST PUSH32 0x5468657265206973206D6F7265207468616E20312077696E6E65722C20796F75 PUSH0 DUP3 ADD MSTORE PUSH32 0x206861766520746F20766F746500000000000000000000000000000000000000 PUSH1 0x20 DUP3 ADD MSTORE POP JUMP JUMPDEST PUSH0 PUSH2 0x2DF5 PUSH1 0x2D DUP4 PUSH2 0x1D3E JUMP JUMPDEST SWAP2 POP PUSH2 0x2E00 DUP3 PUSH2 0x2D9B JUMP JUMPDEST PUSH1 0x40 DUP3 ADD SWAP1 POP SWAP2 SWAP1 POP JUMP JUMPDEST PUSH0 PUSH1 0x20 DUP3 ADD SWAP1 POP DUP2 DUP2 SUB PUSH0 DUP4 ADD MSTORE PUSH2 0x2E22 DUP2 PUSH2 0x2DE9 JUMP JUMPDEST SWAP1 POP SWAP2 SWAP1 POP JUMP JUMPDEST PUSH32 0x5468652070726F706F73616C2073657373696F6E20686173206E6F7420737461 PUSH0 DUP3 ADD MSTORE PUSH32 0x72746564206F722068617320616C7265616479206265656E20656E6465640000 PUSH1 0x20 DUP3 ADD MSTORE POP JUMP JUMPDEST PUSH0 PUSH2 0x2E83 PUSH1 0x3E DUP4 PUSH2 0x1D3E JUMP JUMPDEST SWAP2 POP PUSH2 0x2E8E DUP3 PUSH2 0x2E29 JUMP JUMPDEST PUSH1 0x40 DUP3 ADD SWAP1 POP SWAP2 SWAP1 POP JUMP JUMPDEST PUSH0 PUSH1 0x20 DUP3 ADD SWAP1 POP DUP2 DUP2 SUB PUSH0 DUP4 ADD MSTORE PUSH2 0x2EB0 DUP2 PUSH2 0x2E77 JUMP JUMPDEST SWAP1 POP SWAP2 SWAP1 POP JUMP JUMPDEST PUSH32 0x546865726520617265206E6F2070726F706F73616C7320726567697374657265 PUSH0 DUP3 ADD MSTORE PUSH32 0x6400000000000000000000000000000000000000000000000000000000000000 PUSH1 0x20 DUP3 ADD MSTORE POP JUMP JUMPDEST PUSH0 PUSH2 0x2F11 PUSH1 0x21 DUP4 PUSH2 0x1D3E JUMP JUMPDEST SWAP2 POP PUSH2 0x2F1C DUP3 PUSH2 0x2EB7 JUMP JUMPDEST PUSH1 0x40 DUP3 ADD SWAP1 POP SWAP2 SWAP1 POP JUMP JUMPDEST PUSH0 PUSH1 0x20 DUP3 ADD SWAP1 POP DUP2 DUP2 SUB PUSH0 DUP4 ADD MSTORE PUSH2 0x2F3E DUP2 PUSH2 0x2F05 JUMP JUMPDEST SWAP1 POP SWAP2 SWAP1 POP JUMP JUMPDEST PUSH32 0x54686520766F74652073657373696F6E20686173206E6F742073746172746564 PUSH0 DUP3 ADD MSTORE PUSH32 0x206F722068617320616C726561647920656E6465640000000000000000000000 PUSH1 0x20 DUP3 ADD MSTORE POP JUMP JUMPDEST PUSH0 PUSH2 0x2F9F PUSH1 0x35 DUP4 PUSH2 0x1D3E JUMP JUMPDEST SWAP2 POP PUSH2 0x2FAA DUP3 PUSH2 0x2F45 JUMP JUMPDEST PUSH1 0x40 DUP3 ADD SWAP1 POP SWAP2 SWAP1 POP JUMP JUMPDEST PUSH0 PUSH1 0x20 DUP3 ADD SWAP1 POP DUP2 DUP2 SUB PUSH0 DUP4 ADD MSTORE PUSH2 0x2FCC DUP2 PUSH2 0x2F93 JUMP JUMPDEST SWAP1 POP SWAP2 SWAP1 POP JUMP JUMPDEST PUSH32 0x546865726520617265206E6F20766F7465207265676973746572656400000000 PUSH0 DUP3 ADD MSTORE POP JUMP JUMPDEST PUSH0 PUSH2 0x3007 PUSH1 0x1C DUP4 PUSH2 0x1D3E JUMP JUMPDEST SWAP2 POP PUSH2 0x3012 DUP3 PUSH2 0x2FD3 JUMP JUMPDEST PUSH1 0x20 DUP3 ADD SWAP1 POP SWAP2 SWAP1 POP JUMP JUMPDEST PUSH0 PUSH1 0x20 DUP3 ADD SWAP1 POP DUP2 DUP2 SUB PUSH0 DUP4 ADD MSTORE PUSH2 0x3034 DUP2 PUSH2 0x2FFB JUMP JUMPDEST SWAP1 POP SWAP2 SWAP1 POP JUMP INVALID LOG2 PUSH5 0x6970667358 0x22 SLT KECCAK256 PUSH1 0x42 DUP7 0xF8 LOG0 0xE9 0xD1 0xA6 PUSH9 0x94544BEAE76AE76525 SWAP14 PUSH14 0xCDB9128C38ECE8A764C059E76473 PUSH16 0x6C634300081C00330000000000000000 "
				},
				"gasEstimates": {
					"creation": {
						"codeDepositCost": "2480200",
						"executionCost": "infinite",
						"totalCost": "infinite"
					},
					"external": {
						"endProposalSession()": "infinite",
						"endVoteSession()": "infinite",
						"getCurrentStatus()": "2628",
						"getPreviousStatus()": "infinite",
						"getProposalCount()": "2484",
						"getProposals()": "infinite",
						"getVoteByAddress(address)": "infinite",
						"getVoteCountTotal()": "2520",
						"getVoteWinnerCount()": "2455",
						"getVoterCount()": "2478",
						"getWinnerCount()": "2521",
						"getWinnerProposal()": "infinite",
						"getWinnerProposalId()": "4665",
						"getWinner_proposaldescription()": "infinite",
						"owner()": "2647",
						"propose(string)": "infinite",
						"registerVoter(address)": "infinite",
						"renounceOwnership()": "infinite",
						"startProposalSession()": "infinite",
						"startVoteSession()": "infinite",
						"transferOwnership(address)": "infinite",
						"vote(uint256)": "infinite",
						"votesTallied()": "infinite"
					},
					"internal": {
						"setWinnerProposal()": "infinite"
					}
				},
				"methodIdentifiers": {
					"endProposalSession()": "e06752c2",
					"endVoteSession()": "f74c168d",
					"getCurrentStatus()": "a3dd2619",
					"getPreviousStatus()": "65f88a7c",
					"getProposalCount()": "c08cc02d",
					"getProposals()": "62564c48",
					"getVoteByAddress(address)": "80525548",
					"getVoteCountTotal()": "e1ab86fb",
					"getVoteWinnerCount()": "9589dfcc",
					"getVoterCount()": "11174a29",
					"getWinnerCount()": "a46c3637",
					"getWinnerProposal()": "a3c1885b",
					"getWinnerProposalId()": "5bc46514",
					"getWinner_proposaldescription()": "43850c2d",
					"owner()": "8da5cb5b",
					"propose(string)": "aa98df39",
					"registerVoter(address)": "38db6dd3",
					"renounceOwnership()": "715018a6",
					"startProposalSession()": "50d072fc",
					"startVoteSession()": "aaa98346",
					"transferOwnership(address)": "f2fde38b",
					"vote(uint256)": "0121b93f",
					"votesTallied()": "ada7415f"
				}
			},
			"storageLayout": {
				"storage": [
					{
						"astId": 8,
						"contract": "contracts/Voting.sol:Voting",
						"label": "_owner",
						"offset": 0,
						"slot": "0",
						"type": "t_address"
					},
					{
						"astId": 199,
						"contract": "contracts/Voting.sol:Voting",
						"label": "whitelistVoter",
						"offset": 0,
						"slot": "1",
						"type": "t_mapping(t_address,t_struct(Voter)189_storage)"
					},
					{
						"astId": 203,
						"contract": "contracts/Voting.sol:Voting",
						"label": "proposals",
						"offset": 0,
						"slot": "2",
						"type": "t_array(t_struct(Proposal)194_storage)dyn_storage"
					},
					{
						"astId": 215,
						"contract": "contracts/Voting.sol:Voting",
						"label": "currentStatus",
						"offset": 0,
						"slot": "3",
						"type": "t_enum(WorkflowStatus)210"
					},
					{
						"astId": 217,
						"contract": "contracts/Voting.sol:Voting",
						"label": "winningProposalId",
						"offset": 0,
						"slot": "4",
						"type": "t_uint256"
					},
					{
						"astId": 219,
						"contract": "contracts/Voting.sol:Voting",
						"label": "voterCount",
						"offset": 0,
						"slot": "5",
						"type": "t_uint256"
					},
					{
						"astId": 221,
						"contract": "contracts/Voting.sol:Voting",
						"label": "voteCountTotal",
						"offset": 0,
						"slot": "6",
						"type": "t_uint256"
					},
					{
						"astId": 223,
						"contract": "contracts/Voting.sol:Voting",
						"label": "numberProposal",
						"offset": 0,
						"slot": "7",
						"type": "t_uint256"
					},
					{
						"astId": 225,
						"contract": "contracts/Voting.sol:Voting",
						"label": "winnerCount",
						"offset": 0,
						"slot": "8",
						"type": "t_uint256"
					},
					{
						"astId": 228,
						"contract": "contracts/Voting.sol:Voting",
						"label": "voteWinnerCount",
						"offset": 0,
						"slot": "9",
						"type": "t_uint256"
					}
				],
				"types": {
					"t_address": {
						"encoding": "inplace",
						"label": "address",
						"numberOfBytes": "20"
					},
					"t_array(t_struct(Proposal)194_storage)dyn_storage": {
						"base": "t_struct(Proposal)194_storage",
						"encoding": "dynamic_array",
						"label": "struct Voting.Proposal[]",
						"numberOfBytes": "32"
					},
					"t_bool": {
						"encoding": "inplace",
						"label": "bool",
						"numberOfBytes": "1"
					},
					"t_enum(WorkflowStatus)210": {
						"encoding": "inplace",
						"label": "enum Voting.WorkflowStatus",
						"numberOfBytes": "1"
					},
					"t_mapping(t_address,t_struct(Voter)189_storage)": {
						"encoding": "mapping",
						"key": "t_address",
						"label": "mapping(address => struct Voting.Voter)",
						"numberOfBytes": "32",
						"value": "t_struct(Voter)189_storage"
					},
					"t_string_storage": {
						"encoding": "bytes",
						"label": "string",
						"numberOfBytes": "32"
					},
					"t_struct(Proposal)194_storage": {
						"encoding": "inplace",
						"label": "struct Voting.Proposal",
						"members": [
							{
								"astId": 191,
								"contract": "contracts/Voting.sol:Voting",
								"label": "description",
								"offset": 0,
								"slot": "0",
								"type": "t_string_storage"
							},
							{
								"astId": 193,
								"contract": "contracts/Voting.sol:Voting",
								"label": "voteCount",
								"offset": 0,
								"slot": "1",
								"type": "t_uint256"
							}
						],
						"numberOfBytes": "64"
					},
					"t_struct(Voter)189_storage": {
						"encoding": "inplace",
						"label": "struct Voting.Voter",
						"members": [
							{
								"astId": 184,
								"contract": "contracts/Voting.sol:Voting",
								"label": "isRegistered",
								"offset": 0,
								"slot": "0",
								"type": "t_bool"
							},
							{
								"astId": 186,
								"contract": "contracts/Voting.sol:Voting",
								"label": "hasVoted",
								"offset": 1,
								"slot": "0",
								"type": "t_bool"
							},
							{
								"astId": 188,
								"contract": "contracts/Voting.sol:Voting",
								"label": "votedProposalId",
								"offset": 0,
								"slot": "1",
								"type": "t_uint256"
							}
						],
						"numberOfBytes": "64"
					},
					"t_uint256": {
						"encoding": "inplace",
						"label": "uint256",
						"numberOfBytes": "32"
					}
				}
			},
			"userdoc": {
				"kind": "user",
				"methods": {},
				"version": 1
			}
		}
	}
}