{
	"contracts/Voting.sol": {
		"Voting": {
			"abi": [
				{
					"inputs": [],
					"stateMutability": "nonpayable",
					"type": "constructor"
				},
				{
					"inputs": [
						{
							"internalType": "address",
							"name": "owner",
							"type": "address"
						}
					],
					"name": "OwnableInvalidOwner",
					"type": "error"
				},
				{
					"inputs": [
						{
							"internalType": "address",
							"name": "account",
							"type": "address"
						}
					],
					"name": "OwnableUnauthorizedAccount",
					"type": "error"
				},
				{
					"anonymous": false,
					"inputs": [
						{
							"indexed": true,
							"internalType": "address",
							"name": "previousOwner",
							"type": "address"
						},
						{
							"indexed": true,
							"internalType": "address",
							"name": "newOwner",
							"type": "address"
						}
					],
					"name": "OwnershipTransferred",
					"type": "event"
				},
				{
					"anonymous": false,
					"inputs": [
						{
							"indexed": false,
							"internalType": "uint256",
							"name": "proposalId",
							"type": "uint256"
						}
					],
					"name": "ProposalRegistered",
					"type": "event"
				},
				{
					"anonymous": false,
					"inputs": [
						{
							"indexed": false,
							"internalType": "address",
							"name": "voter",
							"type": "address"
						},
						{
							"indexed": false,
							"internalType": "uint256",
							"name": "proposalId",
							"type": "uint256"
						}
					],
					"name": "Voted",
					"type": "event"
				},
				{
					"anonymous": false,
					"inputs": [
						{
							"indexed": false,
							"internalType": "address",
							"name": "voterAddress",
							"type": "address"
						}
					],
					"name": "VoterRegistered",
					"type": "event"
				},
				{
					"anonymous": false,
					"inputs": [
						{
							"indexed": false,
							"internalType": "enum Voting.WorkflowStatus",
							"name": "previousStatus",
							"type": "uint8"
						},
						{
							"indexed": false,
							"internalType": "enum Voting.WorkflowStatus",
							"name": "newStatus",
							"type": "uint8"
						}
					],
					"name": "WorkflowStatusChange",
					"type": "event"
				},
				{
					"inputs": [
						{
							"internalType": "string",
							"name": "a",
							"type": "string"
						},
						{
							"internalType": "string",
							"name": "b",
							"type": "string"
						}
					],
					"name": "concatenateStrings",
					"outputs": [
						{
							"internalType": "string",
							"name": "",
							"type": "string"
						}
					],
					"stateMutability": "pure",
					"type": "function"
				},
				{
					"inputs": [],
					"name": "endProposalSession",
					"outputs": [],
					"stateMutability": "nonpayable",
					"type": "function"
				},
				{
					"inputs": [],
					"name": "endVoteSession",
					"outputs": [],
					"stateMutability": "nonpayable",
					"type": "function"
				},
				{
					"inputs": [],
					"name": "getCurrentStatus",
					"outputs": [
						{
							"internalType": "enum Voting.WorkflowStatus",
							"name": "",
							"type": "uint8"
						}
					],
					"stateMutability": "view",
					"type": "function"
				},
				{
					"inputs": [],
					"name": "getProposalLength",
					"outputs": [
						{
							"internalType": "uint256",
							"name": "",
							"type": "uint256"
						}
					],
					"stateMutability": "view",
					"type": "function"
				},
				{
					"inputs": [],
					"name": "getProposalsString",
					"outputs": [
						{
							"internalType": "string",
							"name": "",
							"type": "string"
						}
					],
					"stateMutability": "view",
					"type": "function"
				},
				{
					"inputs": [
						{
							"internalType": "address",
							"name": "_address",
							"type": "address"
						}
					],
					"name": "getVotedProposalIdByAddress",
					"outputs": [
						{
							"internalType": "uint256",
							"name": "",
							"type": "uint256"
						}
					],
					"stateMutability": "view",
					"type": "function"
				},
				{
					"inputs": [
						{
							"internalType": "address",
							"name": "_address",
							"type": "address"
						}
					],
					"name": "getVoterVote",
					"outputs": [
						{
							"internalType": "string",
							"name": "",
							"type": "string"
						}
					],
					"stateMutability": "view",
					"type": "function"
				},
				{
					"inputs": [],
					"name": "getWinnerProposals",
					"outputs": [
						{
							"components": [
								{
									"internalType": "string",
									"name": "description",
									"type": "string"
								},
								{
									"internalType": "uint256",
									"name": "voteCount",
									"type": "uint256"
								}
							],
							"internalType": "struct Voting.Proposal",
							"name": "",
							"type": "tuple"
						}
					],
					"stateMutability": "view",
					"type": "function"
				},
				{
					"inputs": [],
					"name": "getnumberVoter",
					"outputs": [
						{
							"internalType": "uint256",
							"name": "",
							"type": "uint256"
						}
					],
					"stateMutability": "view",
					"type": "function"
				},
				{
					"inputs": [],
					"name": "owner",
					"outputs": [
						{
							"internalType": "address",
							"name": "",
							"type": "address"
						}
					],
					"stateMutability": "view",
					"type": "function"
				},
				{
					"inputs": [
						{
							"internalType": "string",
							"name": "_proposal",
							"type": "string"
						}
					],
					"name": "propose",
					"outputs": [
						{
							"internalType": "string",
							"name": "",
							"type": "string"
						}
					],
					"stateMutability": "nonpayable",
					"type": "function"
				},
				{
					"inputs": [
						{
							"internalType": "address",
							"name": "_voterAddress",
							"type": "address"
						}
					],
					"name": "registerVoter",
					"outputs": [],
					"stateMutability": "nonpayable",
					"type": "function"
				},
				{
					"inputs": [],
					"name": "renounceOwnership",
					"outputs": [],
					"stateMutability": "nonpayable",
					"type": "function"
				},
				{
					"inputs": [],
					"name": "startProposalSession",
					"outputs": [],
					"stateMutability": "nonpayable",
					"type": "function"
				},
				{
					"inputs": [],
					"name": "startVoteSession",
					"outputs": [],
					"stateMutability": "nonpayable",
					"type": "function"
				},
				{
					"inputs": [
						{
							"internalType": "address",
							"name": "newOwner",
							"type": "address"
						}
					],
					"name": "transferOwnership",
					"outputs": [],
					"stateMutability": "nonpayable",
					"type": "function"
				},
				{
					"inputs": [
						{
							"internalType": "uint256",
							"name": "_vote",
							"type": "uint256"
						}
					],
					"name": "vote",
					"outputs": [],
					"stateMutability": "nonpayable",
					"type": "function"
				},
				{
					"inputs": [],
					"name": "votesTallied",
					"outputs": [],
					"stateMutability": "nonpayable",
					"type": "function"
				}
			],
			"devdoc": {
				"errors": {
					"OwnableInvalidOwner(address)": [
						{
							"details": "The owner is not a valid owner account. (eg. `address(0)`)"
						}
					],
					"OwnableUnauthorizedAccount(address)": [
						{
							"details": "The caller account is not authorized to perform an operation."
						}
					]
				},
				"kind": "dev",
				"methods": {
					"owner()": {
						"details": "Returns the address of the current owner."
					},
					"renounceOwnership()": {
						"details": "Leaves the contract without owner. It will not be possible to call `onlyOwner` functions. Can only be called by the current owner. NOTE: Renouncing ownership will leave the contract without an owner, thereby disabling any functionality that is only available to the owner."
					},
					"transferOwnership(address)": {
						"details": "Transfers ownership of the contract to a new account (`newOwner`). Can only be called by the current owner."
					}
				},
				"version": 1
			},
			"evm": {
				"assembly": "    /* \"contracts/Voting.sol\":350:9845  contract Voting is Ownable {... */\n  mstore(0x40, 0x80)\n    /* \"contracts/Voting.sol\":1727:1759  WorkflowStatus.RegisteringVoters */\n  0x00\n    /* \"contracts/Voting.sol\":1696:1759  WorkflowStatus currentStatus = WorkflowStatus.RegisteringVoters */\n  0x08\n  exp(0x0100, 0x00)\n  dup2\n  sload\n  dup2\n  0xff\n  mul\n  not\n  and\n  swap1\n  dup4\n  0x05\n  dup2\n  gt\n  iszero\n  tag_1\n  jumpi\n  tag_2\n  tag_3\n  jump\t// in\ntag_2:\ntag_1:\n  mul\n  or\n  swap1\n  sstore\n  pop\n    /* \"contracts/Voting.sol\":1884:2069  constructor() Ownable(msg.sender) {... */\n  callvalue\n  dup1\n  iszero\n  tag_4\n  jumpi\n  revert(0x00, 0x00)\ntag_4:\n  pop\n    /* \"contracts/Voting.sol\":1906:1916  msg.sender */\n  caller\n    /* \"@openzeppelin/contracts/access/Ownable.sol\":1297:1298  0 */\n  0x00\n    /* \"@openzeppelin/contracts/access/Ownable.sol\":1273:1299  initialOwner == address(0) */\n  0xffffffffffffffffffffffffffffffffffffffff\n  and\n    /* \"@openzeppelin/contracts/access/Ownable.sol\":1273:1285  initialOwner */\n  dup2\n    /* \"@openzeppelin/contracts/access/Ownable.sol\":1273:1299  initialOwner == address(0) */\n  0xffffffffffffffffffffffffffffffffffffffff\n  and\n  sub\n    /* \"@openzeppelin/contracts/access/Ownable.sol\":1269:1364  if (initialOwner == address(0)) {... */\n  tag_8\n  jumpi\n    /* \"@openzeppelin/contracts/access/Ownable.sol\":1350:1351  0 */\n  0x00\n    /* \"@openzeppelin/contracts/access/Ownable.sol\":1322:1353  OwnableInvalidOwner(address(0)) */\n  mload(0x40)\n  0x1e4fbdf700000000000000000000000000000000000000000000000000000000\n  dup2\n  mstore\n  0x04\n  add\n  tag_9\n  swap2\n  swap1\n  tag_10\n  jump\t// in\ntag_9:\n  mload(0x40)\n  dup1\n  swap2\n  sub\n  swap1\n  revert\n    /* \"@openzeppelin/contracts/access/Ownable.sol\":1269:1364  if (initialOwner == address(0)) {... */\ntag_8:\n    /* \"@openzeppelin/contracts/access/Ownable.sol\":1373:1405  _transferOwnership(initialOwner) */\n  tag_11\n    /* \"@openzeppelin/contracts/access/Ownable.sol\":1392:1404  initialOwner */\n  dup2\n    /* \"@openzeppelin/contracts/access/Ownable.sol\":1373:1391  _transferOwnership */\n  shl(0x20, tag_12)\n    /* \"@openzeppelin/contracts/access/Ownable.sol\":1373:1405  _transferOwnership(initialOwner) */\n  0x20\n  shr\n  jump\t// in\ntag_11:\n    /* \"@openzeppelin/contracts/access/Ownable.sol\":1225:1412  constructor(address initialOwner) {... */\n  pop\n    /* \"contracts/Voting.sol\":1928:1937  proposals */\n  0x02\n    /* \"contracts/Voting.sol\":1943:2061  Proposal({... */\n  mload(0x40)\n  dup1\n  0x40\n  add\n  0x40\n  mstore\n  dup1\n  mload(0x40)\n  dup1\n  0x60\n  add\n  0x40\n  mstore\n  dup1\n  0x23\n  dup2\n  mstore\n  0x20\n  add\n  data_10f2253f81ed1c052b8b04915f98dc077c44929e72604ad0cbc142281b959278\n  0x23\n  swap2\n  codecopy\n  dup2\n  mstore\n  0x20\n  add\n    /* \"contracts/Voting.sol\":2049:2050  0 */\n  0x00\n    /* \"contracts/Voting.sol\":1943:2061  Proposal({... */\n  dup2\n  mstore\n  pop\n    /* \"contracts/Voting.sol\":1928:2062  proposals.push(Proposal({... */\n  swap1\n  dup1\n  0x01\n  dup2\n  sload\n  add\n  dup1\n  dup3\n  sstore\n  dup1\n  swap2\n  pop\n  pop\n  0x01\n  swap1\n  sub\n  swap1\n  0x00\n  mstore\n  keccak256(0x00, 0x20)\n  swap1\n  0x02\n  mul\n  add\n  0x00\n  swap1\n  swap2\n  swap1\n  swap2\n  swap1\n  swap2\n  pop\n  0x00\n  dup3\n  add\n  mload\n  dup2\n  0x00\n  add\n  swap1\n  dup2\n  tag_15\n  swap2\n  swap1\n  tag_16\n  jump\t// in\ntag_15:\n  pop\n  0x20\n  dup3\n  add\n  mload\n  dup2\n  0x01\n  add\n  sstore\n  pop\n  pop\n    /* \"contracts/Voting.sol\":350:9845  contract Voting is Ownable {... */\n  jump(tag_17)\n    /* \"@openzeppelin/contracts/access/Ownable.sol\":2912:3099  function _transferOwnership(address newOwner) internal virtual {... */\ntag_12:\n    /* \"@openzeppelin/contracts/access/Ownable.sol\":2985:3001  address oldOwner */\n  0x00\n    /* \"@openzeppelin/contracts/access/Ownable.sol\":3004:3010  _owner */\n  0x00\n  0x00\n  swap1\n  sload\n  swap1\n  0x0100\n  exp\n  swap1\n  div\n  0xffffffffffffffffffffffffffffffffffffffff\n  and\n    /* \"@openzeppelin/contracts/access/Ownable.sol\":2985:3010  address oldOwner = _owner */\n  swap1\n  pop\n    /* \"@openzeppelin/contracts/access/Ownable.sol\":3029:3037  newOwner */\n  dup2\n    /* \"@openzeppelin/contracts/access/Ownable.sol\":3020:3026  _owner */\n  0x00\n  0x00\n    /* \"@openzeppelin/contracts/access/Ownable.sol\":3020:3037  _owner = newOwner */\n  0x0100\n  exp\n  dup2\n  sload\n  dup2\n  0xffffffffffffffffffffffffffffffffffffffff\n  mul\n  not\n  and\n  swap1\n  dup4\n  0xffffffffffffffffffffffffffffffffffffffff\n  and\n  mul\n  or\n  swap1\n  sstore\n  pop\n    /* \"@openzeppelin/contracts/access/Ownable.sol\":3083:3091  newOwner */\n  dup2\n    /* \"@openzeppelin/contracts/access/Ownable.sol\":3052:3092  OwnershipTransferred(oldOwner, newOwner) */\n  0xffffffffffffffffffffffffffffffffffffffff\n  and\n    /* \"@openzeppelin/contracts/access/Ownable.sol\":3073:3081  oldOwner */\n  dup2\n    /* \"@openzeppelin/contracts/access/Ownable.sol\":3052:3092  OwnershipTransferred(oldOwner, newOwner) */\n  0xffffffffffffffffffffffffffffffffffffffff\n  and\n  0x8be0079c531659141344cd1fd0a4f28419497f9722a3daafe3b4186f6b6457e0\n  mload(0x40)\n  mload(0x40)\n  dup1\n  swap2\n  sub\n  swap1\n  log3\n    /* \"@openzeppelin/contracts/access/Ownable.sol\":2975:3099  {... */\n  pop\n    /* \"@openzeppelin/contracts/access/Ownable.sol\":2912:3099  function _transferOwnership(address newOwner) internal virtual {... */\n  pop\n  jump\t// out\n    /* \"#utility.yul\":7:187   */\ntag_3:\n    /* \"#utility.yul\":55:132   */\n  0x4e487b7100000000000000000000000000000000000000000000000000000000\n    /* \"#utility.yul\":52:53   */\n  0x00\n    /* \"#utility.yul\":45:133   */\n  mstore\n    /* \"#utility.yul\":152:156   */\n  0x21\n    /* \"#utility.yul\":149:150   */\n  0x04\n    /* \"#utility.yul\":142:157   */\n  mstore\n    /* \"#utility.yul\":176:180   */\n  0x24\n    /* \"#utility.yul\":173:174   */\n  0x00\n    /* \"#utility.yul\":166:181   */\n  revert\n    /* \"#utility.yul\":193:319   */\ntag_19:\n    /* \"#utility.yul\":230:237   */\n  0x00\n    /* \"#utility.yul\":270:312   */\n  0xffffffffffffffffffffffffffffffffffffffff\n    /* \"#utility.yul\":263:268   */\n  dup3\n    /* \"#utility.yul\":259:313   */\n  and\n    /* \"#utility.yul\":248:313   */\n  swap1\n  pop\n    /* \"#utility.yul\":193:319   */\n  swap2\n  swap1\n  pop\n  jump\t// out\n    /* \"#utility.yul\":325:421   */\ntag_20:\n    /* \"#utility.yul\":362:369   */\n  0x00\n    /* \"#utility.yul\":391:415   */\n  tag_46\n    /* \"#utility.yul\":409:414   */\n  dup3\n    /* \"#utility.yul\":391:415   */\n  tag_19\n  jump\t// in\ntag_46:\n    /* \"#utility.yul\":380:415   */\n  swap1\n  pop\n    /* \"#utility.yul\":325:421   */\n  swap2\n  swap1\n  pop\n  jump\t// out\n    /* \"#utility.yul\":427:545   */\ntag_21:\n    /* \"#utility.yul\":514:538   */\n  tag_48\n    /* \"#utility.yul\":532:537   */\n  dup2\n    /* \"#utility.yul\":514:538   */\n  tag_20\n  jump\t// in\ntag_48:\n    /* \"#utility.yul\":509:512   */\n  dup3\n    /* \"#utility.yul\":502:539   */\n  mstore\n    /* \"#utility.yul\":427:545   */\n  pop\n  pop\n  jump\t// out\n    /* \"#utility.yul\":551:773   */\ntag_10:\n    /* \"#utility.yul\":644:648   */\n  0x00\n    /* \"#utility.yul\":682:684   */\n  0x20\n    /* \"#utility.yul\":671:680   */\n  dup3\n    /* \"#utility.yul\":667:685   */\n  add\n    /* \"#utility.yul\":659:685   */\n  swap1\n  pop\n    /* \"#utility.yul\":695:766   */\n  tag_50\n    /* \"#utility.yul\":763:764   */\n  0x00\n    /* \"#utility.yul\":752:761   */\n  dup4\n    /* \"#utility.yul\":748:765   */\n  add\n    /* \"#utility.yul\":739:745   */\n  dup5\n    /* \"#utility.yul\":695:766   */\n  tag_21\n  jump\t// in\ntag_50:\n    /* \"#utility.yul\":551:773   */\n  swap3\n  swap2\n  pop\n  pop\n  jump\t// out\n    /* \"#utility.yul\":779:878   */\ntag_22:\n    /* \"#utility.yul\":831:837   */\n  0x00\n    /* \"#utility.yul\":865:870   */\n  dup2\n    /* \"#utility.yul\":859:871   */\n  mload\n    /* \"#utility.yul\":849:871   */\n  swap1\n  pop\n    /* \"#utility.yul\":779:878   */\n  swap2\n  swap1\n  pop\n  jump\t// out\n    /* \"#utility.yul\":884:1064   */\ntag_23:\n    /* \"#utility.yul\":932:1009   */\n  0x4e487b7100000000000000000000000000000000000000000000000000000000\n    /* \"#utility.yul\":929:930   */\n  0x00\n    /* \"#utility.yul\":922:1010   */\n  mstore\n    /* \"#utility.yul\":1029:1033   */\n  0x41\n    /* \"#utility.yul\":1026:1027   */\n  0x04\n    /* \"#utility.yul\":1019:1034   */\n  mstore\n    /* \"#utility.yul\":1053:1057   */\n  0x24\n    /* \"#utility.yul\":1050:1051   */\n  0x00\n    /* \"#utility.yul\":1043:1058   */\n  revert\n    /* \"#utility.yul\":1070:1250   */\ntag_24:\n    /* \"#utility.yul\":1118:1195   */\n  0x4e487b7100000000000000000000000000000000000000000000000000000000\n    /* \"#utility.yul\":1115:1116   */\n  0x00\n    /* \"#utility.yul\":1108:1196   */\n  mstore\n    /* \"#utility.yul\":1215:1219   */\n  0x22\n    /* \"#utility.yul\":1212:1213   */\n  0x04\n    /* \"#utility.yul\":1205:1220   */\n  mstore\n    /* \"#utility.yul\":1239:1243   */\n  0x24\n    /* \"#utility.yul\":1236:1237   */\n  0x00\n    /* \"#utility.yul\":1229:1244   */\n  revert\n    /* \"#utility.yul\":1256:1576   */\ntag_25:\n    /* \"#utility.yul\":1300:1306   */\n  0x00\n    /* \"#utility.yul\":1337:1338   */\n  0x02\n    /* \"#utility.yul\":1331:1335   */\n  dup3\n    /* \"#utility.yul\":1327:1339   */\n  div\n    /* \"#utility.yul\":1317:1339   */\n  swap1\n  pop\n    /* \"#utility.yul\":1384:1385   */\n  0x01\n    /* \"#utility.yul\":1378:1382   */\n  dup3\n    /* \"#utility.yul\":1374:1386   */\n  and\n    /* \"#utility.yul\":1405:1423   */\n  dup1\n    /* \"#utility.yul\":1395:1476   */\n  tag_55\n  jumpi\n    /* \"#utility.yul\":1461:1465   */\n  0x7f\n    /* \"#utility.yul\":1453:1459   */\n  dup3\n    /* \"#utility.yul\":1449:1466   */\n  and\n    /* \"#utility.yul\":1439:1466   */\n  swap2\n  pop\n    /* \"#utility.yul\":1395:1476   */\ntag_55:\n    /* \"#utility.yul\":1523:1525   */\n  0x20\n    /* \"#utility.yul\":1515:1521   */\n  dup3\n    /* \"#utility.yul\":1512:1526   */\n  lt\n    /* \"#utility.yul\":1492:1510   */\n  dup2\n    /* \"#utility.yul\":1489:1527   */\n  sub\n    /* \"#utility.yul\":1486:1570   */\n  tag_56\n  jumpi\n    /* \"#utility.yul\":1542:1560   */\n  tag_57\n  tag_24\n  jump\t// in\ntag_57:\n    /* \"#utility.yul\":1486:1570   */\ntag_56:\n    /* \"#utility.yul\":1307:1576   */\n  pop\n    /* \"#utility.yul\":1256:1576   */\n  swap2\n  swap1\n  pop\n  jump\t// out\n    /* \"#utility.yul\":1582:1723   */\ntag_26:\n    /* \"#utility.yul\":1631:1635   */\n  0x00\n    /* \"#utility.yul\":1654:1657   */\n  dup2\n    /* \"#utility.yul\":1646:1657   */\n  swap1\n  pop\n    /* \"#utility.yul\":1677:1680   */\n  dup2\n    /* \"#utility.yul\":1674:1675   */\n  0x00\n    /* \"#utility.yul\":1667:1681   */\n  mstore\n    /* \"#utility.yul\":1711:1715   */\n  0x20\n    /* \"#utility.yul\":1708:1709   */\n  0x00\n    /* \"#utility.yul\":1698:1716   */\n  keccak256\n    /* \"#utility.yul\":1690:1716   */\n  swap1\n  pop\n    /* \"#utility.yul\":1582:1723   */\n  swap2\n  swap1\n  pop\n  jump\t// out\n    /* \"#utility.yul\":1729:1822   */\ntag_27:\n    /* \"#utility.yul\":1766:1772   */\n  0x00\n    /* \"#utility.yul\":1813:1815   */\n  0x20\n    /* \"#utility.yul\":1808:1810   */\n  0x1f\n    /* \"#utility.yul\":1801:1806   */\n  dup4\n    /* \"#utility.yul\":1797:1811   */\n  add\n    /* \"#utility.yul\":1793:1816   */\n  div\n    /* \"#utility.yul\":1783:1816   */\n  swap1\n  pop\n    /* \"#utility.yul\":1729:1822   */\n  swap2\n  swap1\n  pop\n  jump\t// out\n    /* \"#utility.yul\":1828:1935   */\ntag_28:\n    /* \"#utility.yul\":1872:1880   */\n  0x00\n    /* \"#utility.yul\":1922:1927   */\n  dup3\n    /* \"#utility.yul\":1916:1920   */\n  dup3\n    /* \"#utility.yul\":1912:1928   */\n  shl\n    /* \"#utility.yul\":1891:1928   */\n  swap1\n  pop\n    /* \"#utility.yul\":1828:1935   */\n  swap3\n  swap2\n  pop\n  pop\n  jump\t// out\n    /* \"#utility.yul\":1941:2334   */\ntag_29:\n    /* \"#utility.yul\":2010:2016   */\n  0x00\n    /* \"#utility.yul\":2060:2061   */\n  0x08\n    /* \"#utility.yul\":2048:2058   */\n  dup4\n    /* \"#utility.yul\":2044:2062   */\n  mul\n    /* \"#utility.yul\":2083:2180   */\n  tag_62\n    /* \"#utility.yul\":2113:2179   */\n  0xffffffffffffffffffffffffffffffffffffffffffffffffffffffffffffffff\n    /* \"#utility.yul\":2102:2111   */\n  dup3\n    /* \"#utility.yul\":2083:2180   */\n  tag_28\n  jump\t// in\ntag_62:\n    /* \"#utility.yul\":2201:2240   */\n  tag_63\n    /* \"#utility.yul\":2231:2239   */\n  dup7\n    /* \"#utility.yul\":2220:2229   */\n  dup4\n    /* \"#utility.yul\":2201:2240   */\n  tag_28\n  jump\t// in\ntag_63:\n    /* \"#utility.yul\":2189:2240   */\n  swap6\n  pop\n    /* \"#utility.yul\":2273:2277   */\n  dup1\n    /* \"#utility.yul\":2269:2278   */\n  not\n    /* \"#utility.yul\":2262:2267   */\n  dup5\n    /* \"#utility.yul\":2258:2279   */\n  and\n    /* \"#utility.yul\":2249:2279   */\n  swap4\n  pop\n    /* \"#utility.yul\":2322:2326   */\n  dup1\n    /* \"#utility.yul\":2312:2320   */\n  dup7\n    /* \"#utility.yul\":2308:2327   */\n  and\n    /* \"#utility.yul\":2301:2306   */\n  dup5\n    /* \"#utility.yul\":2298:2328   */\n  or\n    /* \"#utility.yul\":2288:2328   */\n  swap3\n  pop\n    /* \"#utility.yul\":2017:2334   */\n  pop\n  pop\n    /* \"#utility.yul\":1941:2334   */\n  swap4\n  swap3\n  pop\n  pop\n  pop\n  jump\t// out\n    /* \"#utility.yul\":2340:2417   */\ntag_30:\n    /* \"#utility.yul\":2377:2384   */\n  0x00\n    /* \"#utility.yul\":2406:2411   */\n  dup2\n    /* \"#utility.yul\":2395:2411   */\n  swap1\n  pop\n    /* \"#utility.yul\":2340:2417   */\n  swap2\n  swap1\n  pop\n  jump\t// out\n    /* \"#utility.yul\":2423:2483   */\ntag_31:\n    /* \"#utility.yul\":2451:2454   */\n  0x00\n    /* \"#utility.yul\":2472:2477   */\n  dup2\n    /* \"#utility.yul\":2465:2477   */\n  swap1\n  pop\n    /* \"#utility.yul\":2423:2483   */\n  swap2\n  swap1\n  pop\n  jump\t// out\n    /* \"#utility.yul\":2489:2631   */\ntag_32:\n    /* \"#utility.yul\":2539:2548   */\n  0x00\n    /* \"#utility.yul\":2572:2625   */\n  tag_67\n    /* \"#utility.yul\":2590:2624   */\n  tag_68\n    /* \"#utility.yul\":2599:2623   */\n  tag_69\n    /* \"#utility.yul\":2617:2622   */\n  dup5\n    /* \"#utility.yul\":2599:2623   */\n  tag_30\n  jump\t// in\ntag_69:\n    /* \"#utility.yul\":2590:2624   */\n  tag_31\n  jump\t// in\ntag_68:\n    /* \"#utility.yul\":2572:2625   */\n  tag_30\n  jump\t// in\ntag_67:\n    /* \"#utility.yul\":2559:2625   */\n  swap1\n  pop\n    /* \"#utility.yul\":2489:2631   */\n  swap2\n  swap1\n  pop\n  jump\t// out\n    /* \"#utility.yul\":2637:2712   */\ntag_33:\n    /* \"#utility.yul\":2680:2683   */\n  0x00\n    /* \"#utility.yul\":2701:2706   */\n  dup2\n    /* \"#utility.yul\":2694:2706   */\n  swap1\n  pop\n    /* \"#utility.yul\":2637:2712   */\n  swap2\n  swap1\n  pop\n  jump\t// out\n    /* \"#utility.yul\":2718:2987   */\ntag_34:\n    /* \"#utility.yul\":2828:2867   */\n  tag_72\n    /* \"#utility.yul\":2859:2866   */\n  dup4\n    /* \"#utility.yul\":2828:2867   */\n  tag_32\n  jump\t// in\ntag_72:\n    /* \"#utility.yul\":2889:2980   */\n  tag_73\n    /* \"#utility.yul\":2938:2979   */\n  tag_74\n    /* \"#utility.yul\":2962:2978   */\n  dup3\n    /* \"#utility.yul\":2938:2979   */\n  tag_33\n  jump\t// in\ntag_74:\n    /* \"#utility.yul\":2930:2936   */\n  dup5\n    /* \"#utility.yul\":2923:2927   */\n  dup5\n    /* \"#utility.yul\":2917:2928   */\n  sload\n    /* \"#utility.yul\":2889:2980   */\n  tag_29\n  jump\t// in\ntag_73:\n    /* \"#utility.yul\":2883:2887   */\n  dup3\n    /* \"#utility.yul\":2876:2981   */\n  sstore\n    /* \"#utility.yul\":2794:2987   */\n  pop\n    /* \"#utility.yul\":2718:2987   */\n  pop\n  pop\n  pop\n  jump\t// out\n    /* \"#utility.yul\":2993:3066   */\ntag_35:\n    /* \"#utility.yul\":3038:3041   */\n  0x00\n    /* \"#utility.yul\":3059:3060   */\n  0x00\n    /* \"#utility.yul\":3052:3060   */\n  swap1\n  pop\n    /* \"#utility.yul\":2993:3066   */\n  swap1\n  jump\t// out\n    /* \"#utility.yul\":3072:3261   */\ntag_36:\n    /* \"#utility.yul\":3149:3181   */\n  tag_77\n  tag_35\n  jump\t// in\ntag_77:\n    /* \"#utility.yul\":3190:3255   */\n  tag_78\n    /* \"#utility.yul\":3248:3254   */\n  dup2\n    /* \"#utility.yul\":3240:3246   */\n  dup5\n    /* \"#utility.yul\":3234:3238   */\n  dup5\n    /* \"#utility.yul\":3190:3255   */\n  tag_34\n  jump\t// in\ntag_78:\n    /* \"#utility.yul\":3125:3261   */\n  pop\n    /* \"#utility.yul\":3072:3261   */\n  pop\n  pop\n  jump\t// out\n    /* \"#utility.yul\":3267:3453   */\ntag_37:\n    /* \"#utility.yul\":3327:3447   */\ntag_80:\n    /* \"#utility.yul\":3344:3347   */\n  dup2\n    /* \"#utility.yul\":3337:3342   */\n  dup2\n    /* \"#utility.yul\":3334:3348   */\n  lt\n    /* \"#utility.yul\":3327:3447   */\n  iszero\n  tag_82\n  jumpi\n    /* \"#utility.yul\":3398:3437   */\n  tag_83\n    /* \"#utility.yul\":3435:3436   */\n  0x00\n    /* \"#utility.yul\":3428:3433   */\n  dup3\n    /* \"#utility.yul\":3398:3437   */\n  tag_36\n  jump\t// in\ntag_83:\n    /* \"#utility.yul\":3371:3372   */\n  0x01\n    /* \"#utility.yul\":3364:3369   */\n  dup2\n    /* \"#utility.yul\":3360:3373   */\n  add\n    /* \"#utility.yul\":3351:3373   */\n  swap1\n  pop\n    /* \"#utility.yul\":3327:3447   */\n  jump(tag_80)\ntag_82:\n    /* \"#utility.yul\":3267:3453   */\n  pop\n  pop\n  jump\t// out\n    /* \"#utility.yul\":3459:4002   */\ntag_38:\n    /* \"#utility.yul\":3560:3562   */\n  0x1f\n    /* \"#utility.yul\":3555:3558   */\n  dup3\n    /* \"#utility.yul\":3552:3563   */\n  gt\n    /* \"#utility.yul\":3549:3995   */\n  iszero\n  tag_85\n  jumpi\n    /* \"#utility.yul\":3594:3632   */\n  tag_86\n    /* \"#utility.yul\":3626:3631   */\n  dup2\n    /* \"#utility.yul\":3594:3632   */\n  tag_26\n  jump\t// in\ntag_86:\n    /* \"#utility.yul\":3678:3707   */\n  tag_87\n    /* \"#utility.yul\":3696:3706   */\n  dup5\n    /* \"#utility.yul\":3678:3707   */\n  tag_27\n  jump\t// in\ntag_87:\n    /* \"#utility.yul\":3668:3676   */\n  dup2\n    /* \"#utility.yul\":3664:3708   */\n  add\n    /* \"#utility.yul\":3861:3863   */\n  0x20\n    /* \"#utility.yul\":3849:3859   */\n  dup6\n    /* \"#utility.yul\":3846:3864   */\n  lt\n    /* \"#utility.yul\":3843:3892   */\n  iszero\n  tag_88\n  jumpi\n    /* \"#utility.yul\":3882:3890   */\n  dup2\n    /* \"#utility.yul\":3867:3890   */\n  swap1\n  pop\n    /* \"#utility.yul\":3843:3892   */\ntag_88:\n    /* \"#utility.yul\":3905:3985   */\n  tag_89\n    /* \"#utility.yul\":3961:3983   */\n  tag_90\n    /* \"#utility.yul\":3979:3982   */\n  dup6\n    /* \"#utility.yul\":3961:3983   */\n  tag_27\n  jump\t// in\ntag_90:\n    /* \"#utility.yul\":3951:3959   */\n  dup4\n    /* \"#utility.yul\":3947:3984   */\n  add\n    /* \"#utility.yul\":3934:3945   */\n  dup3\n    /* \"#utility.yul\":3905:3985   */\n  tag_37\n  jump\t// in\ntag_89:\n    /* \"#utility.yul\":3564:3995   */\n  pop\n  pop\n    /* \"#utility.yul\":3549:3995   */\ntag_85:\n    /* \"#utility.yul\":3459:4002   */\n  pop\n  pop\n  pop\n  jump\t// out\n    /* \"#utility.yul\":4008:4125   */\ntag_39:\n    /* \"#utility.yul\":4062:4070   */\n  0x00\n    /* \"#utility.yul\":4112:4117   */\n  dup3\n    /* \"#utility.yul\":4106:4110   */\n  dup3\n    /* \"#utility.yul\":4102:4118   */\n  shr\n    /* \"#utility.yul\":4081:4118   */\n  swap1\n  pop\n    /* \"#utility.yul\":4008:4125   */\n  swap3\n  swap2\n  pop\n  pop\n  jump\t// out\n    /* \"#utility.yul\":4131:4300   */\ntag_40:\n    /* \"#utility.yul\":4175:4181   */\n  0x00\n    /* \"#utility.yul\":4208:4259   */\n  tag_93\n    /* \"#utility.yul\":4256:4257   */\n  0x00\n    /* \"#utility.yul\":4252:4258   */\n  not\n    /* \"#utility.yul\":4244:4249   */\n  dup5\n    /* \"#utility.yul\":4241:4242   */\n  0x08\n    /* \"#utility.yul\":4237:4250   */\n  mul\n    /* \"#utility.yul\":4208:4259   */\n  tag_39\n  jump\t// in\ntag_93:\n    /* \"#utility.yul\":4204:4260   */\n  not\n    /* \"#utility.yul\":4289:4293   */\n  dup1\n    /* \"#utility.yul\":4283:4287   */\n  dup4\n    /* \"#utility.yul\":4279:4294   */\n  and\n    /* \"#utility.yul\":4269:4294   */\n  swap2\n  pop\n    /* \"#utility.yul\":4182:4300   */\n  pop\n    /* \"#utility.yul\":4131:4300   */\n  swap3\n  swap2\n  pop\n  pop\n  jump\t// out\n    /* \"#utility.yul\":4305:4600   */\ntag_41:\n    /* \"#utility.yul\":4381:4385   */\n  0x00\n    /* \"#utility.yul\":4527:4556   */\n  tag_95\n    /* \"#utility.yul\":4552:4555   */\n  dup4\n    /* \"#utility.yul\":4546:4550   */\n  dup4\n    /* \"#utility.yul\":4527:4556   */\n  tag_40\n  jump\t// in\ntag_95:\n    /* \"#utility.yul\":4519:4556   */\n  swap2\n  pop\n    /* \"#utility.yul\":4589:4592   */\n  dup3\n    /* \"#utility.yul\":4586:4587   */\n  0x02\n    /* \"#utility.yul\":4582:4593   */\n  mul\n    /* \"#utility.yul\":4576:4580   */\n  dup3\n    /* \"#utility.yul\":4573:4594   */\n  or\n    /* \"#utility.yul\":4565:4594   */\n  swap1\n  pop\n    /* \"#utility.yul\":4305:4600   */\n  swap3\n  swap2\n  pop\n  pop\n  jump\t// out\n    /* \"#utility.yul\":4605:6000   */\ntag_16:\n    /* \"#utility.yul\":4722:4759   */\n  tag_97\n    /* \"#utility.yul\":4755:4758   */\n  dup3\n    /* \"#utility.yul\":4722:4759   */\n  tag_22\n  jump\t// in\ntag_97:\n    /* \"#utility.yul\":4824:4842   */\n  0xffffffffffffffff\n    /* \"#utility.yul\":4816:4822   */\n  dup2\n    /* \"#utility.yul\":4813:4843   */\n  gt\n    /* \"#utility.yul\":4810:4866   */\n  iszero\n  tag_98\n  jumpi\n    /* \"#utility.yul\":4846:4864   */\n  tag_99\n  tag_23\n  jump\t// in\ntag_99:\n    /* \"#utility.yul\":4810:4866   */\ntag_98:\n    /* \"#utility.yul\":4890:4928   */\n  tag_100\n    /* \"#utility.yul\":4922:4926   */\n  dup3\n    /* \"#utility.yul\":4916:4927   */\n  sload\n    /* \"#utility.yul\":4890:4928   */\n  tag_25\n  jump\t// in\ntag_100:\n    /* \"#utility.yul\":4975:5042   */\n  tag_101\n    /* \"#utility.yul\":5035:5041   */\n  dup3\n    /* \"#utility.yul\":5027:5033   */\n  dup3\n    /* \"#utility.yul\":5021:5025   */\n  dup6\n    /* \"#utility.yul\":4975:5042   */\n  tag_38\n  jump\t// in\ntag_101:\n    /* \"#utility.yul\":5069:5070   */\n  0x00\n    /* \"#utility.yul\":5093:5097   */\n  0x20\n    /* \"#utility.yul\":5080:5097   */\n  swap1\n  pop\n    /* \"#utility.yul\":5125:5127   */\n  0x1f\n    /* \"#utility.yul\":5117:5123   */\n  dup4\n    /* \"#utility.yul\":5114:5128   */\n  gt\n    /* \"#utility.yul\":5142:5143   */\n  0x01\n    /* \"#utility.yul\":5137:5755   */\n  dup2\n  eq\n  tag_103\n  jumpi\n    /* \"#utility.yul\":5799:5800   */\n  0x00\n    /* \"#utility.yul\":5816:5822   */\n  dup5\n    /* \"#utility.yul\":5813:5890   */\n  iszero\n  tag_104\n  jumpi\n    /* \"#utility.yul\":5865:5874   */\n  dup3\n    /* \"#utility.yul\":5860:5863   */\n  dup8\n    /* \"#utility.yul\":5856:5875   */\n  add\n    /* \"#utility.yul\":5850:5876   */\n  mload\n    /* \"#utility.yul\":5841:5876   */\n  swap1\n  pop\n    /* \"#utility.yul\":5813:5890   */\ntag_104:\n    /* \"#utility.yul\":5916:5983   */\n  tag_105\n    /* \"#utility.yul\":5976:5982   */\n  dup6\n    /* \"#utility.yul\":5969:5974   */\n  dup3\n    /* \"#utility.yul\":5916:5983   */\n  tag_41\n  jump\t// in\ntag_105:\n    /* \"#utility.yul\":5910:5914   */\n  dup7\n    /* \"#utility.yul\":5903:5984   */\n  sstore\n    /* \"#utility.yul\":5772:5994   */\n  pop\n    /* \"#utility.yul\":5107:5994   */\n  jump(tag_102)\n    /* \"#utility.yul\":5137:5755   */\ntag_103:\n    /* \"#utility.yul\":5189:5193   */\n  0x1f\n    /* \"#utility.yul\":5185:5194   */\n  not\n    /* \"#utility.yul\":5177:5183   */\n  dup5\n    /* \"#utility.yul\":5173:5195   */\n  and\n    /* \"#utility.yul\":5223:5260   */\n  tag_106\n    /* \"#utility.yul\":5255:5259   */\n  dup7\n    /* \"#utility.yul\":5223:5260   */\n  tag_26\n  jump\t// in\ntag_106:\n    /* \"#utility.yul\":5282:5283   */\n  0x00\n    /* \"#utility.yul\":5296:5504   */\ntag_107:\n    /* \"#utility.yul\":5310:5317   */\n  dup3\n    /* \"#utility.yul\":5307:5308   */\n  dup2\n    /* \"#utility.yul\":5304:5318   */\n  lt\n    /* \"#utility.yul\":5296:5504   */\n  iszero\n  tag_109\n  jumpi\n    /* \"#utility.yul\":5389:5398   */\n  dup5\n    /* \"#utility.yul\":5384:5387   */\n  dup10\n    /* \"#utility.yul\":5380:5399   */\n  add\n    /* \"#utility.yul\":5374:5400   */\n  mload\n    /* \"#utility.yul\":5366:5372   */\n  dup3\n    /* \"#utility.yul\":5359:5401   */\n  sstore\n    /* \"#utility.yul\":5440:5441   */\n  0x01\n    /* \"#utility.yul\":5432:5438   */\n  dup3\n    /* \"#utility.yul\":5428:5442   */\n  add\n    /* \"#utility.yul\":5418:5442   */\n  swap2\n  pop\n    /* \"#utility.yul\":5487:5489   */\n  0x20\n    /* \"#utility.yul\":5476:5485   */\n  dup6\n    /* \"#utility.yul\":5472:5490   */\n  add\n    /* \"#utility.yul\":5459:5490   */\n  swap5\n  pop\n    /* \"#utility.yul\":5333:5337   */\n  0x20\n    /* \"#utility.yul\":5330:5331   */\n  dup2\n    /* \"#utility.yul\":5326:5338   */\n  add\n    /* \"#utility.yul\":5321:5338   */\n  swap1\n  pop\n    /* \"#utility.yul\":5296:5504   */\n  jump(tag_107)\ntag_109:\n    /* \"#utility.yul\":5532:5538   */\n  dup7\n    /* \"#utility.yul\":5523:5530   */\n  dup4\n    /* \"#utility.yul\":5520:5539   */\n  lt\n    /* \"#utility.yul\":5517:5696   */\n  iszero\n  tag_110\n  jumpi\n    /* \"#utility.yul\":5590:5599   */\n  dup5\n    /* \"#utility.yul\":5585:5588   */\n  dup10\n    /* \"#utility.yul\":5581:5600   */\n  add\n    /* \"#utility.yul\":5575:5601   */\n  mload\n    /* \"#utility.yul\":5633:5681   */\n  tag_111\n    /* \"#utility.yul\":5675:5679   */\n  0x1f\n    /* \"#utility.yul\":5667:5673   */\n  dup10\n    /* \"#utility.yul\":5663:5680   */\n  and\n    /* \"#utility.yul\":5652:5661   */\n  dup3\n    /* \"#utility.yul\":5633:5681   */\n  tag_40\n  jump\t// in\ntag_111:\n    /* \"#utility.yul\":5625:5631   */\n  dup4\n    /* \"#utility.yul\":5618:5682   */\n  sstore\n    /* \"#utility.yul\":5540:5696   */\n  pop\n    /* \"#utility.yul\":5517:5696   */\ntag_110:\n    /* \"#utility.yul\":5742:5743   */\n  0x01\n    /* \"#utility.yul\":5738:5739   */\n  0x02\n    /* \"#utility.yul\":5730:5736   */\n  dup9\n    /* \"#utility.yul\":5726:5740   */\n  mul\n    /* \"#utility.yul\":5722:5744   */\n  add\n    /* \"#utility.yul\":5716:5720   */\n  dup9\n    /* \"#utility.yul\":5709:5745   */\n  sstore\n    /* \"#utility.yul\":5144:5755   */\n  pop\n  pop\n  pop\n    /* \"#utility.yul\":5107:5994   */\ntag_102:\n  pop\n    /* \"#utility.yul\":4697:6000   */\n  pop\n  pop\n  pop\n    /* \"#utility.yul\":4605:6000   */\n  pop\n  pop\n  jump\t// out\n    /* \"contracts/Voting.sol\":350:9845  contract Voting is Ownable {... */\ntag_17:\n  dataSize(sub_0)\n  dup1\n  dataOffset(sub_0)\n  0x00\n  codecopy\n  0x00\n  return\nstop\ndata_10f2253f81ed1c052b8b04915f98dc077c44929e72604ad0cbc142281b959278 5468652077696e6e657220686173206e6f74206265656e2063686f6f73656e20796574\n\nsub_0: assembly {\n        /* \"contracts/Voting.sol\":350:9845  contract Voting is Ownable {... */\n      mstore(0x40, 0x80)\n      callvalue\n      dup1\n      iszero\n      tag_1\n      jumpi\n      revert(0x00, 0x00)\n    tag_1:\n      pop\n      jumpi(tag_2, lt(calldatasize, 0x04))\n      shr(0xe0, calldataload(0x00))\n      dup1\n      0x8da5cb5b\n      gt\n      tag_22\n      jumpi\n      dup1\n      0xb6c0fb59\n      gt\n      tag_23\n      jumpi\n      dup1\n      0xb6c0fb59\n      eq\n      tag_17\n      jumpi\n      dup1\n      0xd841e5fc\n      eq\n      tag_18\n      jumpi\n      dup1\n      0xe06752c2\n      eq\n      tag_19\n      jumpi\n      dup1\n      0xf2fde38b\n      eq\n      tag_20\n      jumpi\n      dup1\n      0xf74c168d\n      eq\n      tag_21\n      jumpi\n      jump(tag_2)\n    tag_23:\n      dup1\n      0x8da5cb5b\n      eq\n      tag_12\n      jumpi\n      dup1\n      0xa3dd2619\n      eq\n      tag_13\n      jumpi\n      dup1\n      0xaa98df39\n      eq\n      tag_14\n      jumpi\n      dup1\n      0xaaa98346\n      eq\n      tag_15\n      jumpi\n      dup1\n      0xada7415f\n      eq\n      tag_16\n      jumpi\n      jump(tag_2)\n    tag_22:\n      dup1\n      0x50d072fc\n      gt\n      tag_24\n      jumpi\n      dup1\n      0x50d072fc\n      eq\n      tag_7\n      jumpi\n      dup1\n      0x5141e520\n      eq\n      tag_8\n      jumpi\n      dup1\n      0x715018a6\n      eq\n      tag_9\n      jumpi\n      dup1\n      0x7a36b3ee\n      eq\n      tag_10\n      jumpi\n      dup1\n      0x8263a938\n      eq\n      tag_11\n      jumpi\n      jump(tag_2)\n    tag_24:\n      dup1\n      0x0121b93f\n      eq\n      tag_3\n      jumpi\n      dup1\n      0x2c456e9a\n      eq\n      tag_4\n      jumpi\n      dup1\n      0x38db6dd3\n      eq\n      tag_5\n      jumpi\n      dup1\n      0x4e02c55c\n      eq\n      tag_6\n      jumpi\n    tag_2:\n      revert(0x00, 0x00)\n        /* \"contracts/Voting.sol\":3879:4464  function vote(uint256 _vote) external {... */\n    tag_3:\n      tag_25\n      0x04\n      dup1\n      calldatasize\n      sub\n      dup2\n      add\n      swap1\n      tag_26\n      swap2\n      swap1\n      tag_27\n      jump\t// in\n    tag_26:\n      tag_28\n      jump\t// in\n    tag_25:\n      stop\n        /* \"contracts/Voting.sol\":8617:8763  function getVotedProposalIdByAddress(address _address) external view returns(uint){... */\n    tag_4:\n      tag_29\n      0x04\n      dup1\n      calldatasize\n      sub\n      dup2\n      add\n      swap1\n      tag_30\n      swap2\n      swap1\n      tag_31\n      jump\t// in\n    tag_30:\n      tag_32\n      jump\t// in\n    tag_29:\n      mload(0x40)\n      tag_33\n      swap2\n      swap1\n      tag_34\n      jump\t// in\n    tag_33:\n      mload(0x40)\n      dup1\n      swap2\n      sub\n      swap1\n      return\n        /* \"contracts/Voting.sol\":2195:2653  function registerVoter(address _voterAddress) external onlyOwner {... */\n    tag_5:\n      tag_35\n      0x04\n      dup1\n      calldatasize\n      sub\n      dup2\n      add\n      swap1\n      tag_36\n      swap2\n      swap1\n      tag_31\n      jump\t// in\n    tag_36:\n      tag_37\n      jump\t// in\n    tag_35:\n      stop\n        /* \"contracts/Voting.sol\":8445:8533  function getnumberVoter() external view returns(uint){... */\n    tag_6:\n      tag_38\n      tag_39\n      jump\t// in\n    tag_38:\n      mload(0x40)\n      tag_40\n      swap2\n      swap1\n      tag_34\n      jump\t// in\n    tag_40:\n      mload(0x40)\n      dup1\n      swap2\n      sub\n      swap1\n      return\n        /* \"contracts/Voting.sol\":4832:5243  function startProposalSession() external onlyOwner {... */\n    tag_7:\n      tag_41\n      tag_42\n      jump\t// in\n    tag_41:\n      stop\n        /* \"contracts/Voting.sol\":8835:9503  function getVoterVote(address _address) external view returns (string memory) {... */\n    tag_8:\n      tag_43\n      0x04\n      dup1\n      calldatasize\n      sub\n      dup2\n      add\n      swap1\n      tag_44\n      swap2\n      swap1\n      tag_31\n      jump\t// in\n    tag_44:\n      tag_45\n      jump\t// in\n    tag_43:\n      mload(0x40)\n      tag_46\n      swap2\n      swap1\n      tag_47\n      jump\t// in\n    tag_46:\n      mload(0x40)\n      dup1\n      swap2\n      sub\n      swap1\n      return\n        /* \"@openzeppelin/contracts/access/Ownable.sol\":2293:2394  function renounceOwnership() public virtual onlyOwner {... */\n    tag_9:\n      tag_48\n      tag_49\n      jump\t// in\n    tag_48:\n      stop\n        /* \"contracts/Voting.sol\":9629:9841  function concatenateStrings(string memory a, string memory b) public pure returns (string memory) {... */\n    tag_10:\n      tag_50\n      0x04\n      dup1\n      calldatasize\n      sub\n      dup2\n      add\n      swap1\n      tag_51\n      swap2\n      swap1\n      tag_52\n      jump\t// in\n    tag_51:\n      tag_53\n      jump\t// in\n    tag_50:\n      mload(0x40)\n      tag_54\n      swap2\n      swap1\n      tag_47\n      jump\t// in\n    tag_54:\n      mload(0x40)\n      dup1\n      swap2\n      sub\n      swap1\n      return\n        /* \"contracts/Voting.sol\":8297:8393  function getProposalLength() external view returns(uint){... */\n    tag_11:\n      tag_55\n      tag_56\n      jump\t// in\n    tag_55:\n      mload(0x40)\n      tag_57\n      swap2\n      swap1\n      tag_34\n      jump\t// in\n    tag_57:\n      mload(0x40)\n      dup1\n      swap2\n      sub\n      swap1\n      return\n        /* \"@openzeppelin/contracts/access/Ownable.sol\":1638:1723  function owner() public view virtual returns (address) {... */\n    tag_12:\n      tag_58\n      tag_59\n      jump\t// in\n    tag_58:\n      mload(0x40)\n      tag_60\n      swap2\n      swap1\n      tag_61\n      jump\t// in\n    tag_60:\n      mload(0x40)\n      dup1\n      swap2\n      sub\n      swap1\n      return\n        /* \"contracts/Voting.sol\":8143:8247  function getCurrentStatus() external view returns (WorkflowStatus) {... */\n    tag_13:\n      tag_62\n      tag_63\n      jump\t// in\n    tag_62:\n      mload(0x40)\n      tag_64\n      swap2\n      swap1\n      tag_65\n      jump\t// in\n    tag_64:\n      mload(0x40)\n      dup1\n      swap2\n      sub\n      swap1\n      return\n        /* \"contracts/Voting.sol\":3245:3873  function propose(string memory _proposal) external returns (string memory){... */\n    tag_14:\n      tag_66\n      0x04\n      dup1\n      calldatasize\n      sub\n      dup2\n      add\n      swap1\n      tag_67\n      swap2\n      swap1\n      tag_68\n      jump\t// in\n    tag_67:\n      tag_69\n      jump\t// in\n    tag_66:\n      mload(0x40)\n      tag_70\n      swap2\n      swap1\n      tag_47\n      jump\t// in\n    tag_70:\n      mload(0x40)\n      dup1\n      swap2\n      sub\n      swap1\n      return\n        /* \"contracts/Voting.sol\":5616:5977  function startVoteSession() external onlyOwner {... */\n    tag_15:\n      tag_71\n      tag_72\n      jump\t// in\n    tag_71:\n      stop\n        /* \"contracts/Voting.sol\":6330:6767  function votesTallied() external onlyOwner {... */\n    tag_16:\n      tag_73\n      tag_74\n      jump\t// in\n    tag_73:\n      stop\n        /* \"contracts/Voting.sol\":7863:8089  function getWinnerProposals() external view returns (Proposal memory) {... */\n    tag_17:\n      tag_75\n      tag_76\n      jump\t// in\n    tag_75:\n      mload(0x40)\n      tag_77\n      swap2\n      swap1\n      tag_78\n      jump\t// in\n    tag_77:\n      mload(0x40)\n      dup1\n      swap2\n      sub\n      swap1\n      return\n        /* \"contracts/Voting.sol\":2786:3239  function getProposalsString() external view returns (string memory){... */\n    tag_18:\n      tag_79\n      tag_80\n      jump\t// in\n    tag_79:\n      mload(0x40)\n      tag_81\n      swap2\n      swap1\n      tag_47\n      jump\t// in\n    tag_81:\n      mload(0x40)\n      dup1\n      swap2\n      sub\n      swap1\n      return\n        /* \"contracts/Voting.sol\":5249:5609  function endProposalSession() external onlyOwner {... */\n    tag_19:\n      tag_82\n      tag_83\n      jump\t// in\n    tag_82:\n      stop\n        /* \"@openzeppelin/contracts/access/Ownable.sol\":2543:2758  function transferOwnership(address newOwner) public virtual onlyOwner {... */\n    tag_20:\n      tag_84\n      0x04\n      dup1\n      calldatasize\n      sub\n      dup2\n      add\n      swap1\n      tag_85\n      swap2\n      swap1\n      tag_31\n      jump\t// in\n    tag_85:\n      tag_86\n      jump\t// in\n    tag_84:\n      stop\n        /* \"contracts/Voting.sol\":5984:6323  function endVoteSession() external onlyOwner {... */\n    tag_21:\n      tag_87\n      tag_88\n      jump\t// in\n    tag_87:\n      stop\n        /* \"contracts/Voting.sol\":3879:4464  function vote(uint256 _vote) external {... */\n    tag_28:\n        /* \"contracts/Voting.sol\":3952:3987  WorkflowStatus.VotingSessionStarted */\n      0x03\n        /* \"contracts/Voting.sol\":3935:3987  currentStatus == WorkflowStatus.VotingSessionStarted */\n      0x05\n      dup2\n      gt\n      iszero\n      tag_90\n      jumpi\n      tag_91\n      tag_92\n      jump\t// in\n    tag_91:\n    tag_90:\n        /* \"contracts/Voting.sol\":3935:3948  currentStatus */\n      0x08\n      0x00\n      swap1\n      sload\n      swap1\n      0x0100\n      exp\n      swap1\n      div\n      0xff\n      and\n        /* \"contracts/Voting.sol\":3935:3987  currentStatus == WorkflowStatus.VotingSessionStarted */\n      0x05\n      dup2\n      gt\n      iszero\n      tag_93\n      jumpi\n      tag_94\n      tag_92\n      jump\t// in\n    tag_94:\n    tag_93:\n      eq\n        /* \"contracts/Voting.sol\":3927:4025  require(currentStatus == WorkflowStatus.VotingSessionStarted, \"The voting session is not started\") */\n      tag_95\n      jumpi\n      mload(0x40)\n      0x08c379a000000000000000000000000000000000000000000000000000000000\n      dup2\n      mstore\n      0x04\n      add\n      tag_96\n      swap1\n      tag_97\n      jump\t// in\n    tag_96:\n      mload(0x40)\n      dup1\n      swap2\n      sub\n      swap1\n      revert\n    tag_95:\n        /* \"contracts/Voting.sol\":4055:4065  msg.sender */\n      caller\n        /* \"contracts/Voting.sol\":4044:4065  owner() != msg.sender */\n      0xffffffffffffffffffffffffffffffffffffffff\n      and\n        /* \"contracts/Voting.sol\":4044:4051  owner() */\n      tag_98\n        /* \"contracts/Voting.sol\":4044:4049  owner */\n      tag_59\n        /* \"contracts/Voting.sol\":4044:4051  owner() */\n      jump\t// in\n    tag_98:\n        /* \"contracts/Voting.sol\":4044:4065  owner() != msg.sender */\n      0xffffffffffffffffffffffffffffffffffffffff\n      and\n      sub\n        /* \"contracts/Voting.sol\":4036:4122  require(owner() != msg.sender, \"You are the owner of this contract, you can not vote\") */\n      tag_99\n      jumpi\n      mload(0x40)\n      0x08c379a000000000000000000000000000000000000000000000000000000000\n      dup2\n      mstore\n      0x04\n      add\n      tag_100\n      swap1\n      tag_101\n      jump\t// in\n    tag_100:\n      mload(0x40)\n      dup1\n      swap2\n      sub\n      swap1\n      revert\n    tag_99:\n        /* \"contracts/Voting.sol\":4183:4187  true */\n      0x01\n        /* \"contracts/Voting.sol\":4140:4187  whitelistVoter[msg.sender].isRegistered == true */\n      iszero\n      iszero\n        /* \"contracts/Voting.sol\":4140:4154  whitelistVoter */\n      0x01\n        /* \"contracts/Voting.sol\":4140:4166  whitelistVoter[msg.sender] */\n      0x00\n        /* \"contracts/Voting.sol\":4155:4165  msg.sender */\n      caller\n        /* \"contracts/Voting.sol\":4140:4166  whitelistVoter[msg.sender] */\n      0xffffffffffffffffffffffffffffffffffffffff\n      and\n      0xffffffffffffffffffffffffffffffffffffffff\n      and\n      dup2\n      mstore\n      0x20\n      add\n      swap1\n      dup2\n      mstore\n      0x20\n      add\n      0x00\n      keccak256\n        /* \"contracts/Voting.sol\":4140:4179  whitelistVoter[msg.sender].isRegistered */\n      0x00\n      add\n      0x00\n      swap1\n      sload\n      swap1\n      0x0100\n      exp\n      swap1\n      div\n      0xff\n      and\n        /* \"contracts/Voting.sol\":4140:4187  whitelistVoter[msg.sender].isRegistered == true */\n      iszero\n      iszero\n      eq\n        /* \"contracts/Voting.sol\":4132:4214  require(whitelistVoter[msg.sender].isRegistered == true, \"You are not registered\") */\n      tag_102\n      jumpi\n      mload(0x40)\n      0x08c379a000000000000000000000000000000000000000000000000000000000\n      dup2\n      mstore\n      0x04\n      add\n      tag_103\n      swap1\n      tag_104\n      jump\t// in\n    tag_103:\n      mload(0x40)\n      dup1\n      swap2\n      sub\n      swap1\n      revert\n    tag_102:\n        /* \"contracts/Voting.sol\":4259:4260  1 */\n      0x01\n        /* \"contracts/Voting.sol\":4240:4249  proposals */\n      0x02\n        /* \"contracts/Voting.sol\":4240:4256  proposals.length */\n      dup1\n      sload\n      swap1\n      pop\n        /* \"contracts/Voting.sol\":4240:4260  proposals.length + 1 */\n      tag_105\n      swap2\n      swap1\n      tag_106\n      jump\t// in\n    tag_105:\n        /* \"contracts/Voting.sol\":4232:4237  _vote */\n      dup2\n        /* \"contracts/Voting.sol\":4232:4260  _vote < proposals.length + 1 */\n      lt\n        /* \"contracts/Voting.sol\":4224:4297  require(_vote < proposals.length + 1, \"This proposal ID does not exists\") */\n      tag_107\n      jumpi\n      mload(0x40)\n      0x08c379a000000000000000000000000000000000000000000000000000000000\n      dup2\n      mstore\n      0x04\n      add\n      tag_108\n      swap1\n      tag_109\n      jump\t// in\n    tag_108:\n      mload(0x40)\n      dup1\n      swap2\n      sub\n      swap1\n      revert\n    tag_107:\n        /* \"contracts/Voting.sol\":4354:4358  true */\n      0x01\n        /* \"contracts/Voting.sol\":4316:4330  whitelistVoter */\n      dup1\n        /* \"contracts/Voting.sol\":4316:4342  whitelistVoter[msg.sender] */\n      0x00\n        /* \"contracts/Voting.sol\":4331:4341  msg.sender */\n      caller\n        /* \"contracts/Voting.sol\":4316:4342  whitelistVoter[msg.sender] */\n      0xffffffffffffffffffffffffffffffffffffffff\n      and\n      0xffffffffffffffffffffffffffffffffffffffff\n      and\n      dup2\n      mstore\n      0x20\n      add\n      swap1\n      dup2\n      mstore\n      0x20\n      add\n      0x00\n      keccak256\n        /* \"contracts/Voting.sol\":4316:4351  whitelistVoter[msg.sender].hasVoted */\n      0x00\n      add\n      0x01\n        /* \"contracts/Voting.sol\":4316:4358  whitelistVoter[msg.sender].hasVoted = true */\n      0x0100\n      exp\n      dup2\n      sload\n      dup2\n      0xff\n      mul\n      not\n      and\n      swap1\n      dup4\n      iszero\n      iszero\n      mul\n      or\n      swap1\n      sstore\n      pop\n        /* \"contracts/Voting.sol\":4413:4418  _vote */\n      dup1\n        /* \"contracts/Voting.sol\":4368:4382  whitelistVoter */\n      0x01\n        /* \"contracts/Voting.sol\":4368:4394  whitelistVoter[msg.sender] */\n      0x00\n        /* \"contracts/Voting.sol\":4383:4393  msg.sender */\n      caller\n        /* \"contracts/Voting.sol\":4368:4394  whitelistVoter[msg.sender] */\n      0xffffffffffffffffffffffffffffffffffffffff\n      and\n      0xffffffffffffffffffffffffffffffffffffffff\n      and\n      dup2\n      mstore\n      0x20\n      add\n      swap1\n      dup2\n      mstore\n      0x20\n      add\n      0x00\n      keccak256\n        /* \"contracts/Voting.sol\":4368:4410  whitelistVoter[msg.sender].votedProposalId */\n      0x01\n      add\n        /* \"contracts/Voting.sol\":4368:4418  whitelistVoter[msg.sender].votedProposalId = _vote */\n      dup2\n      swap1\n      sstore\n      pop\n        /* \"contracts/Voting.sol\":4428:4437  proposals */\n      0x02\n        /* \"contracts/Voting.sol\":4438:4443  _vote */\n      dup2\n        /* \"contracts/Voting.sol\":4428:4444  proposals[_vote] */\n      dup2\n      sload\n      dup2\n      lt\n      tag_110\n      jumpi\n      tag_111\n      tag_112\n      jump\t// in\n    tag_111:\n    tag_110:\n      swap1\n      0x00\n      mstore\n      keccak256(0x00, 0x20)\n      swap1\n      0x02\n      mul\n      add\n        /* \"contracts/Voting.sol\":4428:4454  proposals[_vote].voteCount */\n      0x01\n      add\n      0x00\n        /* \"contracts/Voting.sol\":4428:4456  proposals[_vote].voteCount++ */\n      dup2\n      sload\n      dup1\n      swap3\n      swap2\n      swap1\n      tag_114\n      swap1\n      tag_115\n      jump\t// in\n    tag_114:\n      swap2\n      swap1\n      pop\n      sstore\n      pop\n        /* \"contracts/Voting.sol\":3879:4464  function vote(uint256 _vote) external {... */\n      pop\n      jump\t// out\n        /* \"contracts/Voting.sol\":8617:8763  function getVotedProposalIdByAddress(address _address) external view returns(uint){... */\n    tag_32:\n        /* \"contracts/Voting.sol\":8694:8698  uint */\n      0x00\n        /* \"contracts/Voting.sol\":8716:8730  whitelistVoter */\n      0x01\n        /* \"contracts/Voting.sol\":8716:8740  whitelistVoter[_address] */\n      0x00\n        /* \"contracts/Voting.sol\":8731:8739  _address */\n      dup4\n        /* \"contracts/Voting.sol\":8716:8740  whitelistVoter[_address] */\n      0xffffffffffffffffffffffffffffffffffffffff\n      and\n      0xffffffffffffffffffffffffffffffffffffffff\n      and\n      dup2\n      mstore\n      0x20\n      add\n      swap1\n      dup2\n      mstore\n      0x20\n      add\n      0x00\n      keccak256\n        /* \"contracts/Voting.sol\":8716:8756  whitelistVoter[_address].votedProposalId */\n      0x01\n      add\n      sload\n        /* \"contracts/Voting.sol\":8709:8756  return whitelistVoter[_address].votedProposalId */\n      swap1\n      pop\n        /* \"contracts/Voting.sol\":8617:8763  function getVotedProposalIdByAddress(address _address) external view returns(uint){... */\n      swap2\n      swap1\n      pop\n      jump\t// out\n        /* \"contracts/Voting.sol\":2195:2653  function registerVoter(address _voterAddress) external onlyOwner {... */\n    tag_37:\n        /* \"@openzeppelin/contracts/access/Ownable.sol\":1531:1544  _checkOwner() */\n      tag_118\n        /* \"@openzeppelin/contracts/access/Ownable.sol\":1531:1542  _checkOwner */\n      tag_119\n        /* \"@openzeppelin/contracts/access/Ownable.sol\":1531:1544  _checkOwner() */\n      jump\t// in\n    tag_118:\n        /* \"contracts/Voting.sol\":2295:2327  WorkflowStatus.RegisteringVoters */\n      0x00\n        /* \"contracts/Voting.sol\":2278:2327  currentStatus == WorkflowStatus.RegisteringVoters */\n      0x05\n      dup2\n      gt\n      iszero\n      tag_121\n      jumpi\n      tag_122\n      tag_92\n      jump\t// in\n    tag_122:\n    tag_121:\n        /* \"contracts/Voting.sol\":2278:2291  currentStatus */\n      0x08\n      0x00\n      swap1\n      sload\n      swap1\n      0x0100\n      exp\n      swap1\n      div\n      0xff\n      and\n        /* \"contracts/Voting.sol\":2278:2327  currentStatus == WorkflowStatus.RegisteringVoters */\n      0x05\n      dup2\n      gt\n      iszero\n      tag_123\n      jumpi\n      tag_124\n      tag_92\n      jump\t// in\n    tag_124:\n    tag_123:\n      eq\n        /* \"contracts/Voting.sol\":2270:2372  require(currentStatus == WorkflowStatus.RegisteringVoters, \"You are not in voter registration period\") */\n      tag_125\n      jumpi\n      mload(0x40)\n      0x08c379a000000000000000000000000000000000000000000000000000000000\n      dup2\n      mstore\n      0x04\n      add\n      tag_126\n      swap1\n      tag_127\n      jump\t// in\n    tag_126:\n      mload(0x40)\n      dup1\n      swap2\n      sub\n      swap1\n      revert\n    tag_125:\n        /* \"contracts/Voting.sol\":2436:2441  false */\n      0x00\n        /* \"contracts/Voting.sol\":2390:2441  whitelistVoter[_voterAddress].isRegistered == false */\n      iszero\n      iszero\n        /* \"contracts/Voting.sol\":2390:2404  whitelistVoter */\n      0x01\n        /* \"contracts/Voting.sol\":2390:2419  whitelistVoter[_voterAddress] */\n      0x00\n        /* \"contracts/Voting.sol\":2405:2418  _voterAddress */\n      dup4\n        /* \"contracts/Voting.sol\":2390:2419  whitelistVoter[_voterAddress] */\n      0xffffffffffffffffffffffffffffffffffffffff\n      and\n      0xffffffffffffffffffffffffffffffffffffffff\n      and\n      dup2\n      mstore\n      0x20\n      add\n      swap1\n      dup2\n      mstore\n      0x20\n      add\n      0x00\n      keccak256\n        /* \"contracts/Voting.sol\":2390:2432  whitelistVoter[_voterAddress].isRegistered */\n      0x00\n      add\n      0x00\n      swap1\n      sload\n      swap1\n      0x0100\n      exp\n      swap1\n      div\n      0xff\n      and\n        /* \"contracts/Voting.sol\":2390:2441  whitelistVoter[_voterAddress].isRegistered == false */\n      iszero\n      iszero\n      eq\n        /* \"contracts/Voting.sol\":2382:2478  require(whitelistVoter[_voterAddress].isRegistered == false, \"You already have add this adress\") */\n      tag_128\n      jumpi\n      mload(0x40)\n      0x08c379a000000000000000000000000000000000000000000000000000000000\n      dup2\n      mstore\n      0x04\n      add\n      tag_129\n      swap1\n      tag_130\n      jump\t// in\n    tag_129:\n      mload(0x40)\n      dup1\n      swap2\n      sub\n      swap1\n      revert\n    tag_128:\n        /* \"contracts/Voting.sol\":2489:2507  Voter memory voter */\n      0x00\n        /* \"contracts/Voting.sol\":2510:2531  Voter(true, false, 0) */\n      mload(0x40)\n      dup1\n      0x60\n      add\n      0x40\n      mstore\n      dup1\n        /* \"contracts/Voting.sol\":2516:2520  true */\n      0x01\n        /* \"contracts/Voting.sol\":2510:2531  Voter(true, false, 0) */\n      iszero\n      iszero\n      dup2\n      mstore\n      0x20\n      add\n        /* \"contracts/Voting.sol\":2522:2527  false */\n      0x00\n        /* \"contracts/Voting.sol\":2510:2531  Voter(true, false, 0) */\n      iszero\n      iszero\n      dup2\n      mstore\n      0x20\n      add\n        /* \"contracts/Voting.sol\":2529:2530  0 */\n      0x00\n        /* \"contracts/Voting.sol\":2510:2531  Voter(true, false, 0) */\n      dup2\n      mstore\n      pop\n        /* \"contracts/Voting.sol\":2489:2531  Voter memory voter = Voter(true, false, 0) */\n      swap1\n      pop\n        /* \"contracts/Voting.sol\":2573:2578  voter */\n      dup1\n        /* \"contracts/Voting.sol\":2541:2555  whitelistVoter */\n      0x01\n        /* \"contracts/Voting.sol\":2541:2570  whitelistVoter[_voterAddress] */\n      0x00\n        /* \"contracts/Voting.sol\":2556:2569  _voterAddress */\n      dup5\n        /* \"contracts/Voting.sol\":2541:2570  whitelistVoter[_voterAddress] */\n      0xffffffffffffffffffffffffffffffffffffffff\n      and\n      0xffffffffffffffffffffffffffffffffffffffff\n      and\n      dup2\n      mstore\n      0x20\n      add\n      swap1\n      dup2\n      mstore\n      0x20\n      add\n      0x00\n      keccak256\n        /* \"contracts/Voting.sol\":2541:2578  whitelistVoter[_voterAddress] = voter */\n      0x00\n      dup3\n      add\n      mload\n      dup2\n      0x00\n      add\n      exp(0x0100, 0x00)\n      dup2\n      sload\n      dup2\n      0xff\n      mul\n      not\n      and\n      swap1\n      dup4\n      iszero\n      iszero\n      mul\n      or\n      swap1\n      sstore\n      pop\n      0x20\n      dup3\n      add\n      mload\n      dup2\n      0x00\n      add\n      exp(0x0100, 0x01)\n      dup2\n      sload\n      dup2\n      0xff\n      mul\n      not\n      and\n      swap1\n      dup4\n      iszero\n      iszero\n      mul\n      or\n      swap1\n      sstore\n      pop\n      0x40\n      dup3\n      add\n      mload\n      dup2\n      0x01\n      add\n      sstore\n      swap1\n      pop\n      pop\n        /* \"contracts/Voting.sol\":2588:2599  numberVoter */\n      0x04\n      0x00\n        /* \"contracts/Voting.sol\":2588:2601  numberVoter++ */\n      dup2\n      sload\n      dup1\n      swap3\n      swap2\n      swap1\n      tag_131\n      swap1\n      tag_115\n      jump\t// in\n    tag_131:\n      swap2\n      swap1\n      pop\n      sstore\n      pop\n        /* \"contracts/Voting.sol\":2616:2646  VoterRegistered(_voterAddress) */\n      0xb6be2187d059cc2a55fe29e0e503b566e1e0f8c8780096e185429350acffd3dd\n        /* \"contracts/Voting.sol\":2632:2645  _voterAddress */\n      dup3\n        /* \"contracts/Voting.sol\":2616:2646  VoterRegistered(_voterAddress) */\n      mload(0x40)\n      tag_132\n      swap2\n      swap1\n      tag_61\n      jump\t// in\n    tag_132:\n      mload(0x40)\n      dup1\n      swap2\n      sub\n      swap1\n      log1\n        /* \"contracts/Voting.sol\":2260:2653  {... */\n      pop\n        /* \"contracts/Voting.sol\":2195:2653  function registerVoter(address _voterAddress) external onlyOwner {... */\n      pop\n      jump\t// out\n        /* \"contracts/Voting.sol\":8445:8533  function getnumberVoter() external view returns(uint){... */\n    tag_39:\n        /* \"contracts/Voting.sol\":8493:8497  uint */\n      0x00\n        /* \"contracts/Voting.sol\":8515:8526  numberVoter */\n      sload(0x04)\n        /* \"contracts/Voting.sol\":8508:8526  return numberVoter */\n      swap1\n      pop\n        /* \"contracts/Voting.sol\":8445:8533  function getnumberVoter() external view returns(uint){... */\n      swap1\n      jump\t// out\n        /* \"contracts/Voting.sol\":4832:5243  function startProposalSession() external onlyOwner {... */\n    tag_42:\n        /* \"@openzeppelin/contracts/access/Ownable.sol\":1531:1544  _checkOwner() */\n      tag_135\n        /* \"@openzeppelin/contracts/access/Ownable.sol\":1531:1542  _checkOwner */\n      tag_119\n        /* \"@openzeppelin/contracts/access/Ownable.sol\":1531:1544  _checkOwner() */\n      jump\t// in\n    tag_135:\n        /* \"contracts/Voting.sol\":4919:4951  WorkflowStatus.RegisteringVoters */\n      0x00\n        /* \"contracts/Voting.sol\":4901:4951  currentStatus ==  WorkflowStatus.RegisteringVoters */\n      0x05\n      dup2\n      gt\n      iszero\n      tag_137\n      jumpi\n      tag_138\n      tag_92\n      jump\t// in\n    tag_138:\n    tag_137:\n        /* \"contracts/Voting.sol\":4901:4914  currentStatus */\n      0x08\n      0x00\n      swap1\n      sload\n      swap1\n      0x0100\n      exp\n      swap1\n      div\n      0xff\n      and\n        /* \"contracts/Voting.sol\":4901:4951  currentStatus ==  WorkflowStatus.RegisteringVoters */\n      0x05\n      dup2\n      gt\n      iszero\n      tag_139\n      jumpi\n      tag_140\n      tag_92\n      jump\t// in\n    tag_140:\n    tag_139:\n      eq\n        /* \"contracts/Voting.sol\":4893:5000  require(currentStatus ==  WorkflowStatus.RegisteringVoters, \"You can not start again the proposal session\") */\n      tag_141\n      jumpi\n      mload(0x40)\n      0x08c379a000000000000000000000000000000000000000000000000000000000\n      dup2\n      mstore\n      0x04\n      add\n      tag_142\n      swap1\n      tag_143\n      jump\t// in\n    tag_142:\n      mload(0x40)\n      dup1\n      swap2\n      sub\n      swap1\n      revert\n    tag_141:\n        /* \"contracts/Voting.sol\":5032:5033  1 */\n      0x01\n        /* \"contracts/Voting.sol\":5018:5029  numberVoter */\n      sload(0x04)\n        /* \"contracts/Voting.sol\":5018:5033  numberVoter > 1 */\n      gt\n        /* \"contracts/Voting.sol\":5010:5076  require(numberVoter > 1, \"You must register at least 2 addresses\") */\n      tag_144\n      jumpi\n      mload(0x40)\n      0x08c379a000000000000000000000000000000000000000000000000000000000\n      dup2\n      mstore\n      0x04\n      add\n      tag_145\n      swap1\n      tag_146\n      jump\t// in\n    tag_145:\n      mload(0x40)\n      dup1\n      swap2\n      sub\n      swap1\n      revert\n    tag_144:\n        /* \"contracts/Voting.sol\":5102:5145  WorkflowStatus.ProposalsRegistrationStarted */\n      0x01\n        /* \"contracts/Voting.sol\":5086:5099  currentStatus */\n      0x08\n      0x00\n        /* \"contracts/Voting.sol\":5086:5145  currentStatus = WorkflowStatus.ProposalsRegistrationStarted */\n      0x0100\n      exp\n      dup2\n      sload\n      dup2\n      0xff\n      mul\n      not\n      and\n      swap1\n      dup4\n      0x05\n      dup2\n      gt\n      iszero\n      tag_147\n      jumpi\n      tag_148\n      tag_92\n      jump\t// in\n    tag_148:\n    tag_147:\n      mul\n      or\n      swap1\n      sstore\n      pop\n        /* \"contracts/Voting.sol\":5160:5236  WorkflowStatusChange(WorkflowStatus(uint(currentStatus) + 1), currentStatus) */\n      0x0a97a4ee45751e2abf3e4fc8946939630b11b371ea8ae39ccdc3056e98f5cc3f\n        /* \"contracts/Voting.sol\":5218:5219  1 */\n      0x01\n        /* \"contracts/Voting.sol\":5201:5214  currentStatus */\n      0x08\n      0x00\n      swap1\n      sload\n      swap1\n      0x0100\n      exp\n      swap1\n      div\n      0xff\n      and\n        /* \"contracts/Voting.sol\":5196:5215  uint(currentStatus) */\n      0x05\n      dup2\n      gt\n      iszero\n      tag_149\n      jumpi\n      tag_150\n      tag_92\n      jump\t// in\n    tag_150:\n    tag_149:\n        /* \"contracts/Voting.sol\":5196:5219  uint(currentStatus) + 1 */\n      tag_151\n      swap2\n      swap1\n      tag_106\n      jump\t// in\n    tag_151:\n        /* \"contracts/Voting.sol\":5181:5220  WorkflowStatus(uint(currentStatus) + 1) */\n      0x05\n      dup2\n      gt\n      iszero\n      tag_152\n      jumpi\n      tag_153\n      tag_92\n      jump\t// in\n    tag_153:\n    tag_152:\n        /* \"contracts/Voting.sol\":5222:5235  currentStatus */\n      0x08\n      0x00\n      swap1\n      sload\n      swap1\n      0x0100\n      exp\n      swap1\n      div\n      0xff\n      and\n        /* \"contracts/Voting.sol\":5160:5236  WorkflowStatusChange(WorkflowStatus(uint(currentStatus) + 1), currentStatus) */\n      mload(0x40)\n      tag_154\n      swap3\n      swap2\n      swap1\n      tag_155\n      jump\t// in\n    tag_154:\n      mload(0x40)\n      dup1\n      swap2\n      sub\n      swap1\n      log1\n        /* \"contracts/Voting.sol\":4832:5243  function startProposalSession() external onlyOwner {... */\n      jump\t// out\n        /* \"contracts/Voting.sol\":8835:9503  function getVoterVote(address _address) external view returns (string memory) {... */\n    tag_45:\n        /* \"contracts/Voting.sol\":8898:8911  string memory */\n      0x60\n        /* \"contracts/Voting.sol\":9040:9044  true */\n      0x01\n        /* \"contracts/Voting.sol\":8999:9044  whitelistVoter[_address].isRegistered == true */\n      iszero\n      iszero\n        /* \"contracts/Voting.sol\":8999:9013  whitelistVoter */\n      0x01\n        /* \"contracts/Voting.sol\":8999:9023  whitelistVoter[_address] */\n      0x00\n        /* \"contracts/Voting.sol\":9014:9022  _address */\n      dup5\n        /* \"contracts/Voting.sol\":8999:9023  whitelistVoter[_address] */\n      0xffffffffffffffffffffffffffffffffffffffff\n      and\n      0xffffffffffffffffffffffffffffffffffffffff\n      and\n      dup2\n      mstore\n      0x20\n      add\n      swap1\n      dup2\n      mstore\n      0x20\n      add\n      0x00\n      keccak256\n        /* \"contracts/Voting.sol\":8999:9036  whitelistVoter[_address].isRegistered */\n      0x00\n      add\n      0x00\n      swap1\n      sload\n      swap1\n      0x0100\n      exp\n      swap1\n      div\n      0xff\n      and\n        /* \"contracts/Voting.sol\":8999:9044  whitelistVoter[_address].isRegistered == true */\n      iszero\n      iszero\n      eq\n        /* \"contracts/Voting.sol\":8991:9091  require(whitelistVoter[_address].isRegistered == true, \"This address is not registered to the vote\") */\n      tag_157\n      jumpi\n      mload(0x40)\n      0x08c379a000000000000000000000000000000000000000000000000000000000\n      dup2\n      mstore\n      0x04\n      add\n      tag_158\n      swap1\n      tag_159\n      jump\t// in\n    tag_158:\n      mload(0x40)\n      dup1\n      swap2\n      sub\n      swap1\n      revert\n    tag_157:\n        /* \"contracts/Voting.sol\":9102:9122  uint votedProposalId */\n      0x00\n        /* \"contracts/Voting.sol\":9125:9139  whitelistVoter */\n      0x01\n        /* \"contracts/Voting.sol\":9125:9149  whitelistVoter[_address] */\n      0x00\n        /* \"contracts/Voting.sol\":9140:9148  _address */\n      dup5\n        /* \"contracts/Voting.sol\":9125:9149  whitelistVoter[_address] */\n      0xffffffffffffffffffffffffffffffffffffffff\n      and\n      0xffffffffffffffffffffffffffffffffffffffff\n      and\n      dup2\n      mstore\n      0x20\n      add\n      swap1\n      dup2\n      mstore\n      0x20\n      add\n      0x00\n      keccak256\n        /* \"contracts/Voting.sol\":9125:9165  whitelistVoter[_address].votedProposalId */\n      0x01\n      add\n      sload\n        /* \"contracts/Voting.sol\":9102:9165  uint votedProposalId = whitelistVoter[_address].votedProposalId */\n      swap1\n      pop\n        /* \"contracts/Voting.sol\":9175:9204  string memory proposalChoosen */\n      0x00\n        /* \"contracts/Voting.sol\":9207:9216  proposals */\n      0x02\n        /* \"contracts/Voting.sol\":9217:9232  votedProposalId */\n      dup3\n        /* \"contracts/Voting.sol\":9207:9233  proposals[votedProposalId] */\n      dup2\n      sload\n      dup2\n      lt\n      tag_160\n      jumpi\n      tag_161\n      tag_112\n      jump\t// in\n    tag_161:\n    tag_160:\n      swap1\n      0x00\n      mstore\n      keccak256(0x00, 0x20)\n      swap1\n      0x02\n      mul\n      add\n        /* \"contracts/Voting.sol\":9207:9245  proposals[votedProposalId].description */\n      0x00\n      add\n        /* \"contracts/Voting.sol\":9175:9245  string memory proposalChoosen = proposals[votedProposalId].description */\n      dup1\n      sload\n      tag_163\n      swap1\n      tag_164\n      jump\t// in\n    tag_163:\n      dup1\n      0x1f\n      add\n      0x20\n      dup1\n      swap2\n      div\n      mul\n      0x20\n      add\n      mload(0x40)\n      swap1\n      dup2\n      add\n      0x40\n      mstore\n      dup1\n      swap3\n      swap2\n      swap1\n      dup2\n      dup2\n      mstore\n      0x20\n      add\n      dup3\n      dup1\n      sload\n      tag_165\n      swap1\n      tag_164\n      jump\t// in\n    tag_165:\n      dup1\n      iszero\n      tag_166\n      jumpi\n      dup1\n      0x1f\n      lt\n      tag_167\n      jumpi\n      0x0100\n      dup1\n      dup4\n      sload\n      div\n      mul\n      dup4\n      mstore\n      swap2\n      0x20\n      add\n      swap2\n      jump(tag_166)\n    tag_167:\n      dup3\n      add\n      swap2\n      swap1\n      0x00\n      mstore\n      keccak256(0x00, 0x20)\n      swap1\n    tag_168:\n      dup2\n      sload\n      dup2\n      mstore\n      swap1\n      0x01\n      add\n      swap1\n      0x20\n      add\n      dup1\n      dup4\n      gt\n      tag_168\n      jumpi\n      dup3\n      swap1\n      sub\n      0x1f\n      and\n      dup3\n      add\n      swap2\n    tag_166:\n      pop\n      pop\n      pop\n      pop\n      pop\n      swap1\n      pop\n        /* \"contracts/Voting.sol\":9367:9387  abi.encodePacked(\"\") */\n      add(0x20, mload(0x40))\n      tag_169\n      swap1\n      tag_170\n      jump\t// in\n    tag_169:\n      mload(0x40)\n      0x20\n      dup2\n      dup4\n      sub\n      sub\n      dup2\n      mstore\n      swap1\n      0x40\n      mstore\n        /* \"contracts/Voting.sol\":9357:9388  keccak256(abi.encodePacked(\"\")) */\n      dup1\n      mload\n      swap1\n      0x20\n      add\n      keccak256\n        /* \"contracts/Voting.sol\":9336:9351  proposalChoosen */\n      dup2\n        /* \"contracts/Voting.sol\":9319:9352  abi.encodePacked(proposalChoosen) */\n      add(0x20, mload(0x40))\n      tag_171\n      swap2\n      swap1\n      tag_172\n      jump\t// in\n    tag_171:\n      mload(0x40)\n      0x20\n      dup2\n      dup4\n      sub\n      sub\n      dup2\n      mstore\n      swap1\n      0x40\n      mstore\n        /* \"contracts/Voting.sol\":9309:9353  keccak256(abi.encodePacked(proposalChoosen)) */\n      dup1\n      mload\n      swap1\n      0x20\n      add\n      keccak256\n        /* \"contracts/Voting.sol\":9309:9388  keccak256(abi.encodePacked(proposalChoosen)) == keccak256(abi.encodePacked(\"\")) */\n      sub\n        /* \"contracts/Voting.sol\":9305:9465  if( keccak256(abi.encodePacked(proposalChoosen)) == keccak256(abi.encodePacked(\"\"))) {... */\n      tag_173\n      jumpi\n        /* \"contracts/Voting.sol\":9404:9454  proposalChoosen = \"This address has not voted yet\" */\n      mload(0x40)\n      dup1\n      0x40\n      add\n      0x40\n      mstore\n      dup1\n      0x1e\n      dup2\n      mstore\n      0x20\n      add\n      0x54686973206164647265737320686173206e6f7420766f746564207965740000\n      dup2\n      mstore\n      pop\n      swap1\n      pop\n        /* \"contracts/Voting.sol\":9305:9465  if( keccak256(abi.encodePacked(proposalChoosen)) == keccak256(abi.encodePacked(\"\"))) {... */\n    tag_173:\n        /* \"contracts/Voting.sol\":9481:9496  proposalChoosen */\n      dup1\n        /* \"contracts/Voting.sol\":9474:9496  return proposalChoosen */\n      swap3\n      pop\n      pop\n      pop\n        /* \"contracts/Voting.sol\":8835:9503  function getVoterVote(address _address) external view returns (string memory) {... */\n      swap2\n      swap1\n      pop\n      jump\t// out\n        /* \"@openzeppelin/contracts/access/Ownable.sol\":2293:2394  function renounceOwnership() public virtual onlyOwner {... */\n    tag_49:\n        /* \"@openzeppelin/contracts/access/Ownable.sol\":1531:1544  _checkOwner() */\n      tag_175\n        /* \"@openzeppelin/contracts/access/Ownable.sol\":1531:1542  _checkOwner */\n      tag_119\n        /* \"@openzeppelin/contracts/access/Ownable.sol\":1531:1544  _checkOwner() */\n      jump\t// in\n    tag_175:\n        /* \"@openzeppelin/contracts/access/Ownable.sol\":2357:2387  _transferOwnership(address(0)) */\n      tag_177\n        /* \"@openzeppelin/contracts/access/Ownable.sol\":2384:2385  0 */\n      0x00\n        /* \"@openzeppelin/contracts/access/Ownable.sol\":2357:2375  _transferOwnership */\n      tag_178\n        /* \"@openzeppelin/contracts/access/Ownable.sol\":2357:2387  _transferOwnership(address(0)) */\n      jump\t// in\n    tag_177:\n        /* \"@openzeppelin/contracts/access/Ownable.sol\":2293:2394  function renounceOwnership() public virtual onlyOwner {... */\n      jump\t// out\n        /* \"contracts/Voting.sol\":9629:9841  function concatenateStrings(string memory a, string memory b) public pure returns (string memory) {... */\n    tag_53:\n        /* \"contracts/Voting.sol\":9712:9725  string memory */\n      0x60\n        /* \"contracts/Voting.sol\":9737:9767  bytes memory concatenatedBytes */\n      0x00\n        /* \"contracts/Voting.sol\":9787:9788  a */\n      dup4\n        /* \"contracts/Voting.sol\":9790:9791  b */\n      dup4\n        /* \"contracts/Voting.sol\":9770:9792  abi.encodePacked(a, b) */\n      add(0x20, mload(0x40))\n      tag_180\n      swap3\n      swap2\n      swap1\n      tag_181\n      jump\t// in\n    tag_180:\n      mload(0x40)\n      0x20\n      dup2\n      dup4\n      sub\n      sub\n      dup2\n      mstore\n      swap1\n      0x40\n      mstore\n        /* \"contracts/Voting.sol\":9737:9792  bytes memory concatenatedBytes = abi.encodePacked(a, b) */\n      swap1\n      pop\n        /* \"contracts/Voting.sol\":9816:9833  concatenatedBytes */\n      dup1\n        /* \"contracts/Voting.sol\":9802:9834  return string(concatenatedBytes) */\n      swap2\n      pop\n      pop\n        /* \"contracts/Voting.sol\":9629:9841  function concatenateStrings(string memory a, string memory b) public pure returns (string memory) {... */\n      swap3\n      swap2\n      pop\n      pop\n      jump\t// out\n        /* \"contracts/Voting.sol\":8297:8393  function getProposalLength() external view returns(uint){... */\n    tag_56:\n        /* \"contracts/Voting.sol\":8348:8352  uint */\n      0x00\n        /* \"contracts/Voting.sol\":8370:8379  proposals */\n      0x02\n        /* \"contracts/Voting.sol\":8370:8386  proposals.length */\n      dup1\n      sload\n      swap1\n      pop\n        /* \"contracts/Voting.sol\":8363:8386  return proposals.length */\n      swap1\n      pop\n        /* \"contracts/Voting.sol\":8297:8393  function getProposalLength() external view returns(uint){... */\n      swap1\n      jump\t// out\n        /* \"@openzeppelin/contracts/access/Ownable.sol\":1638:1723  function owner() public view virtual returns (address) {... */\n    tag_59:\n        /* \"@openzeppelin/contracts/access/Ownable.sol\":1684:1691  address */\n      0x00\n        /* \"@openzeppelin/contracts/access/Ownable.sol\":1710:1716  _owner */\n      0x00\n      0x00\n      swap1\n      sload\n      swap1\n      0x0100\n      exp\n      swap1\n      div\n      0xffffffffffffffffffffffffffffffffffffffff\n      and\n        /* \"@openzeppelin/contracts/access/Ownable.sol\":1703:1716  return _owner */\n      swap1\n      pop\n        /* \"@openzeppelin/contracts/access/Ownable.sol\":1638:1723  function owner() public view virtual returns (address) {... */\n      swap1\n      jump\t// out\n        /* \"contracts/Voting.sol\":8143:8247  function getCurrentStatus() external view returns (WorkflowStatus) {... */\n    tag_63:\n        /* \"contracts/Voting.sol\":8194:8208  WorkflowStatus */\n      0x00\n        /* \"contracts/Voting.sol\":8227:8240  currentStatus */\n      0x08\n      0x00\n      swap1\n      sload\n      swap1\n      0x0100\n      exp\n      swap1\n      div\n      0xff\n      and\n        /* \"contracts/Voting.sol\":8220:8240  return currentStatus */\n      swap1\n      pop\n        /* \"contracts/Voting.sol\":8143:8247  function getCurrentStatus() external view returns (WorkflowStatus) {... */\n      swap1\n      jump\t// out\n        /* \"contracts/Voting.sol\":3245:3873  function propose(string memory _proposal) external returns (string memory){... */\n    tag_69:\n        /* \"contracts/Voting.sol\":3305:3318  string memory */\n      0x60\n        /* \"contracts/Voting.sol\":3354:3397  WorkflowStatus.ProposalsRegistrationStarted */\n      0x01\n        /* \"contracts/Voting.sol\":3337:3397  currentStatus == WorkflowStatus.ProposalsRegistrationStarted */\n      0x05\n      dup2\n      gt\n      iszero\n      tag_186\n      jumpi\n      tag_187\n      tag_92\n      jump\t// in\n    tag_187:\n    tag_186:\n        /* \"contracts/Voting.sol\":3337:3350  currentStatus */\n      0x08\n      0x00\n      swap1\n      sload\n      swap1\n      0x0100\n      exp\n      swap1\n      div\n      0xff\n      and\n        /* \"contracts/Voting.sol\":3337:3397  currentStatus == WorkflowStatus.ProposalsRegistrationStarted */\n      0x05\n      dup2\n      gt\n      iszero\n      tag_188\n      jumpi\n      tag_189\n      tag_92\n      jump\t// in\n    tag_189:\n    tag_188:\n      eq\n        /* \"contracts/Voting.sol\":3329:3440  require(currentStatus == WorkflowStatus.ProposalsRegistrationStarted, \"The registration period is not started\") */\n      tag_190\n      jumpi\n      mload(0x40)\n      0x08c379a000000000000000000000000000000000000000000000000000000000\n      dup2\n      mstore\n      0x04\n      add\n      tag_191\n      swap1\n      tag_192\n      jump\t// in\n    tag_191:\n      mload(0x40)\n      dup1\n      swap2\n      sub\n      swap1\n      revert\n    tag_190:\n        /* \"contracts/Voting.sol\":3470:3480  msg.sender */\n      caller\n        /* \"contracts/Voting.sol\":3459:3480  owner() != msg.sender */\n      0xffffffffffffffffffffffffffffffffffffffff\n      and\n        /* \"contracts/Voting.sol\":3459:3466  owner() */\n      tag_193\n        /* \"contracts/Voting.sol\":3459:3464  owner */\n      tag_59\n        /* \"contracts/Voting.sol\":3459:3466  owner() */\n      jump\t// in\n    tag_193:\n        /* \"contracts/Voting.sol\":3459:3480  owner() != msg.sender */\n      0xffffffffffffffffffffffffffffffffffffffff\n      and\n      sub\n        /* \"contracts/Voting.sol\":3451:3540  require(owner() != msg.sender, \"You are the owner of this contract, you can not propose\") */\n      tag_194\n      jumpi\n      mload(0x40)\n      0x08c379a000000000000000000000000000000000000000000000000000000000\n      dup2\n      mstore\n      0x04\n      add\n      tag_195\n      swap1\n      tag_196\n      jump\t// in\n    tag_195:\n      mload(0x40)\n      dup1\n      swap2\n      sub\n      swap1\n      revert\n    tag_194:\n        /* \"contracts/Voting.sol\":3601:3605  true */\n      0x01\n        /* \"contracts/Voting.sol\":3558:3605  whitelistVoter[msg.sender].isRegistered == true */\n      iszero\n      iszero\n        /* \"contracts/Voting.sol\":3558:3572  whitelistVoter */\n      0x01\n        /* \"contracts/Voting.sol\":3558:3584  whitelistVoter[msg.sender] */\n      0x00\n        /* \"contracts/Voting.sol\":3573:3583  msg.sender */\n      caller\n        /* \"contracts/Voting.sol\":3558:3584  whitelistVoter[msg.sender] */\n      0xffffffffffffffffffffffffffffffffffffffff\n      and\n      0xffffffffffffffffffffffffffffffffffffffff\n      and\n      dup2\n      mstore\n      0x20\n      add\n      swap1\n      dup2\n      mstore\n      0x20\n      add\n      0x00\n      keccak256\n        /* \"contracts/Voting.sol\":3558:3597  whitelistVoter[msg.sender].isRegistered */\n      0x00\n      add\n      0x00\n      swap1\n      sload\n      swap1\n      0x0100\n      exp\n      swap1\n      div\n      0xff\n      and\n        /* \"contracts/Voting.sol\":3558:3605  whitelistVoter[msg.sender].isRegistered == true */\n      iszero\n      iszero\n      eq\n        /* \"contracts/Voting.sol\":3550:3632  require(whitelistVoter[msg.sender].isRegistered == true, \"You are not registered\") */\n      tag_197\n      jumpi\n      mload(0x40)\n      0x08c379a000000000000000000000000000000000000000000000000000000000\n      dup2\n      mstore\n      0x04\n      add\n      tag_198\n      swap1\n      tag_104\n      jump\t// in\n    tag_198:\n      mload(0x40)\n      dup1\n      swap2\n      sub\n      swap1\n      revert\n    tag_197:\n        /* \"contracts/Voting.sol\":3643:3652  proposals */\n      0x02\n        /* \"contracts/Voting.sol\":3658:3748  Proposal({... */\n      mload(0x40)\n      dup1\n      0x40\n      add\n      0x40\n      mstore\n      dup1\n        /* \"contracts/Voting.sol\":3698:3707  _proposal */\n      dup5\n        /* \"contracts/Voting.sol\":3658:3748  Proposal({... */\n      dup2\n      mstore\n      0x20\n      add\n        /* \"contracts/Voting.sol\":3736:3737  0 */\n      0x00\n        /* \"contracts/Voting.sol\":3658:3748  Proposal({... */\n      dup2\n      mstore\n      pop\n        /* \"contracts/Voting.sol\":3643:3749  proposals.push(Proposal({... */\n      swap1\n      dup1\n      0x01\n      dup2\n      sload\n      add\n      dup1\n      dup3\n      sstore\n      dup1\n      swap2\n      pop\n      pop\n      0x01\n      swap1\n      sub\n      swap1\n      0x00\n      mstore\n      keccak256(0x00, 0x20)\n      swap1\n      0x02\n      mul\n      add\n      0x00\n      swap1\n      swap2\n      swap1\n      swap2\n      swap1\n      swap2\n      pop\n      0x00\n      dup3\n      add\n      mload\n      dup2\n      0x00\n      add\n      swap1\n      dup2\n      tag_200\n      swap2\n      swap1\n      tag_201\n      jump\t// in\n    tag_200:\n      pop\n      0x20\n      dup3\n      add\n      mload\n      dup2\n      0x01\n      add\n      sstore\n      pop\n      pop\n        /* \"contracts/Voting.sol\":3759:3773  numberProposal */\n      0x05\n      0x00\n        /* \"contracts/Voting.sol\":3759:3775  numberProposal++ */\n      dup2\n      sload\n      dup1\n      swap3\n      swap2\n      swap1\n      tag_202\n      swap1\n      tag_115\n      jump\t// in\n    tag_202:\n      swap2\n      swap1\n      pop\n      sstore\n      pop\n        /* \"contracts/Voting.sol\":3790:3824  ProposalRegistered(numberProposal) */\n      0x92e393e9b54e2f801d3ea4beb0c5e71a21cc34a5d34b77d0fb8a3aa1650dc18f\n        /* \"contracts/Voting.sol\":3809:3823  numberProposal */\n      sload(0x05)\n        /* \"contracts/Voting.sol\":3790:3824  ProposalRegistered(numberProposal) */\n      mload(0x40)\n      tag_203\n      swap2\n      swap1\n      tag_34\n      jump\t// in\n    tag_203:\n      mload(0x40)\n      dup1\n      swap2\n      sub\n      swap1\n      log1\n        /* \"contracts/Voting.sol\":3835:3866  return \"Ok proposal registered\" */\n      mload(0x40)\n      dup1\n      0x40\n      add\n      0x40\n      mstore\n      dup1\n      0x16\n      dup2\n      mstore\n      0x20\n      add\n      0x4f6b2070726f706f73616c207265676973746572656400000000000000000000\n      dup2\n      mstore\n      pop\n      swap1\n      pop\n        /* \"contracts/Voting.sol\":3245:3873  function propose(string memory _proposal) external returns (string memory){... */\n      swap2\n      swap1\n      pop\n      jump\t// out\n        /* \"contracts/Voting.sol\":5616:5977  function startVoteSession() external onlyOwner {... */\n    tag_72:\n        /* \"@openzeppelin/contracts/access/Ownable.sol\":1531:1544  _checkOwner() */\n      tag_205\n        /* \"@openzeppelin/contracts/access/Ownable.sol\":1531:1542  _checkOwner */\n      tag_119\n        /* \"@openzeppelin/contracts/access/Ownable.sol\":1531:1544  _checkOwner() */\n      jump\t// in\n    tag_205:\n        /* \"contracts/Voting.sol\":5699:5740  WorkflowStatus.ProposalsRegistrationEnded */\n      0x02\n        /* \"contracts/Voting.sol\":5681:5740  currentStatus ==  WorkflowStatus.ProposalsRegistrationEnded */\n      0x05\n      dup2\n      gt\n      iszero\n      tag_207\n      jumpi\n      tag_208\n      tag_92\n      jump\t// in\n    tag_208:\n    tag_207:\n        /* \"contracts/Voting.sol\":5681:5694  currentStatus */\n      0x08\n      0x00\n      swap1\n      sload\n      swap1\n      0x0100\n      exp\n      swap1\n      div\n      0xff\n      and\n        /* \"contracts/Voting.sol\":5681:5740  currentStatus ==  WorkflowStatus.ProposalsRegistrationEnded */\n      0x05\n      dup2\n      gt\n      iszero\n      tag_209\n      jumpi\n      tag_210\n      tag_92\n      jump\t// in\n    tag_210:\n    tag_209:\n      eq\n        /* \"contracts/Voting.sol\":5673:5818  require(currentStatus ==  WorkflowStatus.ProposalsRegistrationEnded, \"The proposal session is not ended or the vote session has already started\") */\n      tag_211\n      jumpi\n      mload(0x40)\n      0x08c379a000000000000000000000000000000000000000000000000000000000\n      dup2\n      mstore\n      0x04\n      add\n      tag_212\n      swap1\n      tag_213\n      jump\t// in\n    tag_212:\n      mload(0x40)\n      dup1\n      swap2\n      sub\n      swap1\n      revert\n    tag_211:\n        /* \"contracts/Voting.sol\":5844:5879  WorkflowStatus.VotingSessionStarted */\n      0x03\n        /* \"contracts/Voting.sol\":5828:5841  currentStatus */\n      0x08\n      0x00\n        /* \"contracts/Voting.sol\":5828:5879  currentStatus = WorkflowStatus.VotingSessionStarted */\n      0x0100\n      exp\n      dup2\n      sload\n      dup2\n      0xff\n      mul\n      not\n      and\n      swap1\n      dup4\n      0x05\n      dup2\n      gt\n      iszero\n      tag_214\n      jumpi\n      tag_215\n      tag_92\n      jump\t// in\n    tag_215:\n    tag_214:\n      mul\n      or\n      swap1\n      sstore\n      pop\n        /* \"contracts/Voting.sol\":5894:5970  WorkflowStatusChange(WorkflowStatus(uint(currentStatus) + 1), currentStatus) */\n      0x0a97a4ee45751e2abf3e4fc8946939630b11b371ea8ae39ccdc3056e98f5cc3f\n        /* \"contracts/Voting.sol\":5952:5953  1 */\n      0x01\n        /* \"contracts/Voting.sol\":5935:5948  currentStatus */\n      0x08\n      0x00\n      swap1\n      sload\n      swap1\n      0x0100\n      exp\n      swap1\n      div\n      0xff\n      and\n        /* \"contracts/Voting.sol\":5930:5949  uint(currentStatus) */\n      0x05\n      dup2\n      gt\n      iszero\n      tag_216\n      jumpi\n      tag_217\n      tag_92\n      jump\t// in\n    tag_217:\n    tag_216:\n        /* \"contracts/Voting.sol\":5930:5953  uint(currentStatus) + 1 */\n      tag_218\n      swap2\n      swap1\n      tag_106\n      jump\t// in\n    tag_218:\n        /* \"contracts/Voting.sol\":5915:5954  WorkflowStatus(uint(currentStatus) + 1) */\n      0x05\n      dup2\n      gt\n      iszero\n      tag_219\n      jumpi\n      tag_220\n      tag_92\n      jump\t// in\n    tag_220:\n    tag_219:\n        /* \"contracts/Voting.sol\":5956:5969  currentStatus */\n      0x08\n      0x00\n      swap1\n      sload\n      swap1\n      0x0100\n      exp\n      swap1\n      div\n      0xff\n      and\n        /* \"contracts/Voting.sol\":5894:5970  WorkflowStatusChange(WorkflowStatus(uint(currentStatus) + 1), currentStatus) */\n      mload(0x40)\n      tag_221\n      swap3\n      swap2\n      swap1\n      tag_155\n      jump\t// in\n    tag_221:\n      mload(0x40)\n      dup1\n      swap2\n      sub\n      swap1\n      log1\n        /* \"contracts/Voting.sol\":5616:5977  function startVoteSession() external onlyOwner {... */\n      jump\t// out\n        /* \"contracts/Voting.sol\":6330:6767  function votesTallied() external onlyOwner {... */\n    tag_74:\n        /* \"@openzeppelin/contracts/access/Ownable.sol\":1531:1544  _checkOwner() */\n      tag_223\n        /* \"@openzeppelin/contracts/access/Ownable.sol\":1531:1542  _checkOwner */\n      tag_119\n        /* \"@openzeppelin/contracts/access/Ownable.sol\":1531:1544  _checkOwner() */\n      jump\t// in\n    tag_223:\n        /* \"contracts/Voting.sol\":6409:6442  WorkflowStatus.VotingSessionEnded */\n      0x04\n        /* \"contracts/Voting.sol\":6391:6442  currentStatus ==  WorkflowStatus.VotingSessionEnded */\n      0x05\n      dup2\n      gt\n      iszero\n      tag_225\n      jumpi\n      tag_226\n      tag_92\n      jump\t// in\n    tag_226:\n    tag_225:\n        /* \"contracts/Voting.sol\":6391:6404  currentStatus */\n      0x08\n      0x00\n      swap1\n      sload\n      swap1\n      0x0100\n      exp\n      swap1\n      div\n      0xff\n      and\n        /* \"contracts/Voting.sol\":6391:6442  currentStatus ==  WorkflowStatus.VotingSessionEnded */\n      0x05\n      dup2\n      gt\n      iszero\n      tag_227\n      jumpi\n      tag_228\n      tag_92\n      jump\t// in\n    tag_228:\n    tag_227:\n      eq\n        /* \"contracts/Voting.sol\":6383:6476  require(currentStatus ==  WorkflowStatus.VotingSessionEnded, \"The vote session is not ended\") */\n      tag_229\n      jumpi\n      mload(0x40)\n      0x08c379a000000000000000000000000000000000000000000000000000000000\n      dup2\n      mstore\n      0x04\n      add\n      tag_230\n      swap1\n      tag_231\n      jump\t// in\n    tag_230:\n      mload(0x40)\n      dup1\n      swap2\n      sub\n      swap1\n      revert\n    tag_229:\n        /* \"contracts/Voting.sol\":6486:6505  setWinnerProposal() */\n      tag_232\n        /* \"contracts/Voting.sol\":6486:6503  setWinnerProposal */\n      tag_233\n        /* \"contracts/Voting.sol\":6486:6505  setWinnerProposal() */\n      jump\t// in\n    tag_232:\n        /* \"contracts/Voting.sol\":6543:6544  0 */\n      0x00\n        /* \"contracts/Voting.sol\":6523:6540  winningProposalId */\n      sload(0x03)\n        /* \"contracts/Voting.sol\":6523:6544  winningProposalId > 0 */\n      gt\n        /* \"contracts/Voting.sol\":6523:6566  winningProposalId > 0 && numberWinners == 1 */\n      dup1\n      iszero\n      tag_234\n      jumpi\n      pop\n        /* \"contracts/Voting.sol\":6565:6566  1 */\n      0x01\n        /* \"contracts/Voting.sol\":6548:6561  numberWinners */\n      sload(0x06)\n        /* \"contracts/Voting.sol\":6548:6566  numberWinners == 1 */\n      eq\n        /* \"contracts/Voting.sol\":6523:6566  winningProposalId > 0 && numberWinners == 1 */\n    tag_234:\n        /* \"contracts/Voting.sol\":6515:6616  require(winningProposalId > 0 && numberWinners == 1, \"There is more than 1 winner, you have to vote\") */\n      tag_235\n      jumpi\n      mload(0x40)\n      0x08c379a000000000000000000000000000000000000000000000000000000000\n      dup2\n      mstore\n      0x04\n      add\n      tag_236\n      swap1\n      tag_237\n      jump\t// in\n    tag_236:\n      mload(0x40)\n      dup1\n      swap2\n      sub\n      swap1\n      revert\n    tag_235:\n        /* \"contracts/Voting.sol\":6642:6669  WorkflowStatus.VotesTallied */\n      0x05\n        /* \"contracts/Voting.sol\":6626:6639  currentStatus */\n      0x08\n      0x00\n        /* \"contracts/Voting.sol\":6626:6669  currentStatus = WorkflowStatus.VotesTallied */\n      0x0100\n      exp\n      dup2\n      sload\n      dup2\n      0xff\n      mul\n      not\n      and\n      swap1\n      dup4\n      0x05\n      dup2\n      gt\n      iszero\n      tag_238\n      jumpi\n      tag_239\n      tag_92\n      jump\t// in\n    tag_239:\n    tag_238:\n      mul\n      or\n      swap1\n      sstore\n      pop\n        /* \"contracts/Voting.sol\":6684:6760  WorkflowStatusChange(WorkflowStatus(uint(currentStatus) + 1), currentStatus) */\n      0x0a97a4ee45751e2abf3e4fc8946939630b11b371ea8ae39ccdc3056e98f5cc3f\n        /* \"contracts/Voting.sol\":6742:6743  1 */\n      0x01\n        /* \"contracts/Voting.sol\":6725:6738  currentStatus */\n      0x08\n      0x00\n      swap1\n      sload\n      swap1\n      0x0100\n      exp\n      swap1\n      div\n      0xff\n      and\n        /* \"contracts/Voting.sol\":6720:6739  uint(currentStatus) */\n      0x05\n      dup2\n      gt\n      iszero\n      tag_240\n      jumpi\n      tag_241\n      tag_92\n      jump\t// in\n    tag_241:\n    tag_240:\n        /* \"contracts/Voting.sol\":6720:6743  uint(currentStatus) + 1 */\n      tag_242\n      swap2\n      swap1\n      tag_106\n      jump\t// in\n    tag_242:\n        /* \"contracts/Voting.sol\":6705:6744  WorkflowStatus(uint(currentStatus) + 1) */\n      0x05\n      dup2\n      gt\n      iszero\n      tag_243\n      jumpi\n      tag_244\n      tag_92\n      jump\t// in\n    tag_244:\n    tag_243:\n        /* \"contracts/Voting.sol\":6746:6759  currentStatus */\n      0x08\n      0x00\n      swap1\n      sload\n      swap1\n      0x0100\n      exp\n      swap1\n      div\n      0xff\n      and\n        /* \"contracts/Voting.sol\":6684:6760  WorkflowStatusChange(WorkflowStatus(uint(currentStatus) + 1), currentStatus) */\n      mload(0x40)\n      tag_245\n      swap3\n      swap2\n      swap1\n      tag_155\n      jump\t// in\n    tag_245:\n      mload(0x40)\n      dup1\n      swap2\n      sub\n      swap1\n      log1\n        /* \"contracts/Voting.sol\":6330:6767  function votesTallied() external onlyOwner {... */\n      jump\t// out\n        /* \"contracts/Voting.sol\":7863:8089  function getWinnerProposals() external view returns (Proposal memory) {... */\n    tag_76:\n        /* \"contracts/Voting.sol\":7916:7931  Proposal memory */\n      tag_246\n      tag_247\n      jump\t// in\n    tag_246:\n        /* \"contracts/Voting.sol\":7969:7996  WorkflowStatus.VotesTallied */\n      0x05\n        /* \"contracts/Voting.sol\":7951:7996  currentStatus ==  WorkflowStatus.VotesTallied */\n      dup1\n      dup2\n      gt\n      iszero\n      tag_249\n      jumpi\n      tag_250\n      tag_92\n      jump\t// in\n    tag_250:\n    tag_249:\n        /* \"contracts/Voting.sol\":7951:7964  currentStatus */\n      0x08\n      0x00\n      swap1\n      sload\n      swap1\n      0x0100\n      exp\n      swap1\n      div\n      0xff\n      and\n        /* \"contracts/Voting.sol\":7951:7996  currentStatus ==  WorkflowStatus.VotesTallied */\n      0x05\n      dup2\n      gt\n      iszero\n      tag_251\n      jumpi\n      tag_252\n      tag_92\n      jump\t// in\n    tag_252:\n    tag_251:\n      eq\n        /* \"contracts/Voting.sol\":7943:8037  require(currentStatus ==  WorkflowStatus.VotesTallied, \"The winner have not been choosen yet\") */\n      tag_253\n      jumpi\n      mload(0x40)\n      0x08c379a000000000000000000000000000000000000000000000000000000000\n      dup2\n      mstore\n      0x04\n      add\n      tag_254\n      swap1\n      tag_255\n      jump\t// in\n    tag_254:\n      mload(0x40)\n      dup1\n      swap2\n      sub\n      swap1\n      revert\n    tag_253:\n        /* \"contracts/Voting.sol\":8054:8063  proposals */\n      0x02\n        /* \"contracts/Voting.sol\":8064:8081  winningProposalId */\n      sload(0x03)\n        /* \"contracts/Voting.sol\":8054:8082  proposals[winningProposalId] */\n      dup2\n      sload\n      dup2\n      lt\n      tag_256\n      jumpi\n      tag_257\n      tag_112\n      jump\t// in\n    tag_257:\n    tag_256:\n      swap1\n      0x00\n      mstore\n      keccak256(0x00, 0x20)\n      swap1\n      0x02\n      mul\n      add\n        /* \"contracts/Voting.sol\":8047:8082  return proposals[winningProposalId] */\n      mload(0x40)\n      dup1\n      0x40\n      add\n      0x40\n      mstore\n      swap1\n      dup2\n      0x00\n      dup3\n      add\n      dup1\n      sload\n      tag_259\n      swap1\n      tag_164\n      jump\t// in\n    tag_259:\n      dup1\n      0x1f\n      add\n      0x20\n      dup1\n      swap2\n      div\n      mul\n      0x20\n      add\n      mload(0x40)\n      swap1\n      dup2\n      add\n      0x40\n      mstore\n      dup1\n      swap3\n      swap2\n      swap1\n      dup2\n      dup2\n      mstore\n      0x20\n      add\n      dup3\n      dup1\n      sload\n      tag_260\n      swap1\n      tag_164\n      jump\t// in\n    tag_260:\n      dup1\n      iszero\n      tag_261\n      jumpi\n      dup1\n      0x1f\n      lt\n      tag_262\n      jumpi\n      0x0100\n      dup1\n      dup4\n      sload\n      div\n      mul\n      dup4\n      mstore\n      swap2\n      0x20\n      add\n      swap2\n      jump(tag_261)\n    tag_262:\n      dup3\n      add\n      swap2\n      swap1\n      0x00\n      mstore\n      keccak256(0x00, 0x20)\n      swap1\n    tag_263:\n      dup2\n      sload\n      dup2\n      mstore\n      swap1\n      0x01\n      add\n      swap1\n      0x20\n      add\n      dup1\n      dup4\n      gt\n      tag_263\n      jumpi\n      dup3\n      swap1\n      sub\n      0x1f\n      and\n      dup3\n      add\n      swap2\n    tag_261:\n      pop\n      pop\n      pop\n      pop\n      pop\n      dup2\n      mstore\n      0x20\n      add\n      0x01\n      dup3\n      add\n      sload\n      dup2\n      mstore\n      pop\n      pop\n      swap1\n      pop\n        /* \"contracts/Voting.sol\":7863:8089  function getWinnerProposals() external view returns (Proposal memory) {... */\n      swap1\n      jump\t// out\n        /* \"contracts/Voting.sol\":2786:3239  function getProposalsString() external view returns (string memory){... */\n    tag_80:\n        /* \"contracts/Voting.sol\":2839:2852  string memory */\n      0x60\n        /* \"contracts/Voting.sol\":2953:2979  string memory proposalList */\n      dup1\n        /* \"contracts/Voting.sol\":2994:3003  uint256 i */\n      0x00\n        /* \"contracts/Voting.sol\":3006:3007  0 */\n      0x00\n        /* \"contracts/Voting.sol\":2994:3007  uint256 i = 0 */\n      swap1\n      pop\n        /* \"contracts/Voting.sol\":2989:3204  for (uint256 i = 0; i < proposals.length; i++) {... */\n    tag_265:\n        /* \"contracts/Voting.sol\":3013:3022  proposals */\n      0x02\n        /* \"contracts/Voting.sol\":3013:3029  proposals.length */\n      dup1\n      sload\n      swap1\n      pop\n        /* \"contracts/Voting.sol\":3009:3010  i */\n      dup2\n        /* \"contracts/Voting.sol\":3009:3029  i < proposals.length */\n      lt\n        /* \"contracts/Voting.sol\":2989:3204  for (uint256 i = 0; i < proposals.length; i++) {... */\n      iszero\n      tag_266\n      jumpi\n        /* \"contracts/Voting.sol\":3050:3080  bytes memory concatenatedBytes */\n      0x00\n        /* \"contracts/Voting.sol\":3100:3112  proposalList */\n      dup3\n        /* \"contracts/Voting.sol\":3114:3123  proposals */\n      0x02\n        /* \"contracts/Voting.sol\":3124:3125  i */\n      dup4\n        /* \"contracts/Voting.sol\":3114:3126  proposals[i] */\n      dup2\n      sload\n      dup2\n      lt\n      tag_268\n      jumpi\n      tag_269\n      tag_112\n      jump\t// in\n    tag_269:\n    tag_268:\n      swap1\n      0x00\n      mstore\n      keccak256(0x00, 0x20)\n      swap1\n      0x02\n      mul\n      add\n        /* \"contracts/Voting.sol\":3114:3138  proposals[i].description */\n      0x00\n      add\n        /* \"contracts/Voting.sol\":3083:3139  abi.encodePacked(proposalList, proposals[i].description) */\n      add(0x20, mload(0x40))\n      tag_271\n      swap3\n      swap2\n      swap1\n      tag_272\n      jump\t// in\n    tag_271:\n      mload(0x40)\n      0x20\n      dup2\n      dup4\n      sub\n      sub\n      dup2\n      mstore\n      swap1\n      0x40\n      mstore\n        /* \"contracts/Voting.sol\":3050:3139  bytes memory concatenatedBytes = abi.encodePacked(proposalList, proposals[i].description) */\n      swap1\n      pop\n        /* \"contracts/Voting.sol\":3175:3192  concatenatedBytes */\n      dup1\n        /* \"contracts/Voting.sol\":3153:3193  proposalList = string(concatenatedBytes) */\n      swap3\n      pop\n        /* \"contracts/Voting.sol\":3036:3204  {... */\n      pop\n        /* \"contracts/Voting.sol\":3031:3034  i++ */\n      dup1\n      dup1\n      0x01\n      add\n      swap2\n      pop\n      pop\n        /* \"contracts/Voting.sol\":2989:3204  for (uint256 i = 0; i < proposals.length; i++) {... */\n      jump(tag_265)\n    tag_266:\n      pop\n        /* \"contracts/Voting.sol\":3220:3232  proposalList */\n      dup1\n        /* \"contracts/Voting.sol\":3213:3232  return proposalList */\n      swap2\n      pop\n      pop\n        /* \"contracts/Voting.sol\":2786:3239  function getProposalsString() external view returns (string memory){... */\n      swap1\n      jump\t// out\n        /* \"contracts/Voting.sol\":5249:5609  function endProposalSession() external onlyOwner {... */\n    tag_83:\n        /* \"@openzeppelin/contracts/access/Ownable.sol\":1531:1544  _checkOwner() */\n      tag_274\n        /* \"@openzeppelin/contracts/access/Ownable.sol\":1531:1542  _checkOwner */\n      tag_119\n        /* \"@openzeppelin/contracts/access/Ownable.sol\":1531:1544  _checkOwner() */\n      jump\t// in\n    tag_274:\n        /* \"contracts/Voting.sol\":5334:5377  WorkflowStatus.ProposalsRegistrationStarted */\n      0x01\n        /* \"contracts/Voting.sol\":5316:5377  currentStatus ==  WorkflowStatus.ProposalsRegistrationStarted */\n      0x05\n      dup2\n      gt\n      iszero\n      tag_276\n      jumpi\n      tag_277\n      tag_92\n      jump\t// in\n    tag_277:\n    tag_276:\n        /* \"contracts/Voting.sol\":5316:5329  currentStatus */\n      0x08\n      0x00\n      swap1\n      sload\n      swap1\n      0x0100\n      exp\n      swap1\n      div\n      0xff\n      and\n        /* \"contracts/Voting.sol\":5316:5377  currentStatus ==  WorkflowStatus.ProposalsRegistrationStarted */\n      0x05\n      dup2\n      gt\n      iszero\n      tag_278\n      jumpi\n      tag_279\n      tag_92\n      jump\t// in\n    tag_279:\n    tag_278:\n      eq\n        /* \"contracts/Voting.sol\":5308:5444  require(currentStatus ==  WorkflowStatus.ProposalsRegistrationStarted, \"The proposal session has not started or has already been ended\") */\n      tag_280\n      jumpi\n      mload(0x40)\n      0x08c379a000000000000000000000000000000000000000000000000000000000\n      dup2\n      mstore\n      0x04\n      add\n      tag_281\n      swap1\n      tag_282\n      jump\t// in\n    tag_281:\n      mload(0x40)\n      dup1\n      swap2\n      sub\n      swap1\n      revert\n    tag_280:\n        /* \"contracts/Voting.sol\":5470:5511  WorkflowStatus.ProposalsRegistrationEnded */\n      0x02\n        /* \"contracts/Voting.sol\":5454:5467  currentStatus */\n      0x08\n      0x00\n        /* \"contracts/Voting.sol\":5454:5511  currentStatus = WorkflowStatus.ProposalsRegistrationEnded */\n      0x0100\n      exp\n      dup2\n      sload\n      dup2\n      0xff\n      mul\n      not\n      and\n      swap1\n      dup4\n      0x05\n      dup2\n      gt\n      iszero\n      tag_283\n      jumpi\n      tag_284\n      tag_92\n      jump\t// in\n    tag_284:\n    tag_283:\n      mul\n      or\n      swap1\n      sstore\n      pop\n        /* \"contracts/Voting.sol\":5526:5602  WorkflowStatusChange(WorkflowStatus(uint(currentStatus) + 1), currentStatus) */\n      0x0a97a4ee45751e2abf3e4fc8946939630b11b371ea8ae39ccdc3056e98f5cc3f\n        /* \"contracts/Voting.sol\":5584:5585  1 */\n      0x01\n        /* \"contracts/Voting.sol\":5567:5580  currentStatus */\n      0x08\n      0x00\n      swap1\n      sload\n      swap1\n      0x0100\n      exp\n      swap1\n      div\n      0xff\n      and\n        /* \"contracts/Voting.sol\":5562:5581  uint(currentStatus) */\n      0x05\n      dup2\n      gt\n      iszero\n      tag_285\n      jumpi\n      tag_286\n      tag_92\n      jump\t// in\n    tag_286:\n    tag_285:\n        /* \"contracts/Voting.sol\":5562:5585  uint(currentStatus) + 1 */\n      tag_287\n      swap2\n      swap1\n      tag_106\n      jump\t// in\n    tag_287:\n        /* \"contracts/Voting.sol\":5547:5586  WorkflowStatus(uint(currentStatus) + 1) */\n      0x05\n      dup2\n      gt\n      iszero\n      tag_288\n      jumpi\n      tag_289\n      tag_92\n      jump\t// in\n    tag_289:\n    tag_288:\n        /* \"contracts/Voting.sol\":5588:5601  currentStatus */\n      0x08\n      0x00\n      swap1\n      sload\n      swap1\n      0x0100\n      exp\n      swap1\n      div\n      0xff\n      and\n        /* \"contracts/Voting.sol\":5526:5602  WorkflowStatusChange(WorkflowStatus(uint(currentStatus) + 1), currentStatus) */\n      mload(0x40)\n      tag_290\n      swap3\n      swap2\n      swap1\n      tag_155\n      jump\t// in\n    tag_290:\n      mload(0x40)\n      dup1\n      swap2\n      sub\n      swap1\n      log1\n        /* \"contracts/Voting.sol\":5249:5609  function endProposalSession() external onlyOwner {... */\n      jump\t// out\n        /* \"@openzeppelin/contracts/access/Ownable.sol\":2543:2758  function transferOwnership(address newOwner) public virtual onlyOwner {... */\n    tag_86:\n        /* \"@openzeppelin/contracts/access/Ownable.sol\":1531:1544  _checkOwner() */\n      tag_292\n        /* \"@openzeppelin/contracts/access/Ownable.sol\":1531:1542  _checkOwner */\n      tag_119\n        /* \"@openzeppelin/contracts/access/Ownable.sol\":1531:1544  _checkOwner() */\n      jump\t// in\n    tag_292:\n        /* \"@openzeppelin/contracts/access/Ownable.sol\":2647:2648  0 */\n      0x00\n        /* \"@openzeppelin/contracts/access/Ownable.sol\":2627:2649  newOwner == address(0) */\n      0xffffffffffffffffffffffffffffffffffffffff\n      and\n        /* \"@openzeppelin/contracts/access/Ownable.sol\":2627:2635  newOwner */\n      dup2\n        /* \"@openzeppelin/contracts/access/Ownable.sol\":2627:2649  newOwner == address(0) */\n      0xffffffffffffffffffffffffffffffffffffffff\n      and\n      sub\n        /* \"@openzeppelin/contracts/access/Ownable.sol\":2623:2714  if (newOwner == address(0)) {... */\n      tag_294\n      jumpi\n        /* \"@openzeppelin/contracts/access/Ownable.sol\":2700:2701  0 */\n      0x00\n        /* \"@openzeppelin/contracts/access/Ownable.sol\":2672:2703  OwnableInvalidOwner(address(0)) */\n      mload(0x40)\n      0x1e4fbdf700000000000000000000000000000000000000000000000000000000\n      dup2\n      mstore\n      0x04\n      add\n      tag_295\n      swap2\n      swap1\n      tag_61\n      jump\t// in\n    tag_295:\n      mload(0x40)\n      dup1\n      swap2\n      sub\n      swap1\n      revert\n        /* \"@openzeppelin/contracts/access/Ownable.sol\":2623:2714  if (newOwner == address(0)) {... */\n    tag_294:\n        /* \"@openzeppelin/contracts/access/Ownable.sol\":2723:2751  _transferOwnership(newOwner) */\n      tag_296\n        /* \"@openzeppelin/contracts/access/Ownable.sol\":2742:2750  newOwner */\n      dup2\n        /* \"@openzeppelin/contracts/access/Ownable.sol\":2723:2741  _transferOwnership */\n      tag_178\n        /* \"@openzeppelin/contracts/access/Ownable.sol\":2723:2751  _transferOwnership(newOwner) */\n      jump\t// in\n    tag_296:\n        /* \"@openzeppelin/contracts/access/Ownable.sol\":2543:2758  function transferOwnership(address newOwner) public virtual onlyOwner {... */\n      pop\n      jump\t// out\n        /* \"contracts/Voting.sol\":5984:6323  function endVoteSession() external onlyOwner {... */\n    tag_88:\n        /* \"@openzeppelin/contracts/access/Ownable.sol\":1531:1544  _checkOwner() */\n      tag_298\n        /* \"@openzeppelin/contracts/access/Ownable.sol\":1531:1542  _checkOwner */\n      tag_119\n        /* \"@openzeppelin/contracts/access/Ownable.sol\":1531:1544  _checkOwner() */\n      jump\t// in\n    tag_298:\n        /* \"contracts/Voting.sol\":6065:6100  WorkflowStatus.VotingSessionStarted */\n      0x03\n        /* \"contracts/Voting.sol\":6047:6100  currentStatus ==  WorkflowStatus.VotingSessionStarted */\n      0x05\n      dup2\n      gt\n      iszero\n      tag_300\n      jumpi\n      tag_301\n      tag_92\n      jump\t// in\n    tag_301:\n    tag_300:\n        /* \"contracts/Voting.sol\":6047:6060  currentStatus */\n      0x08\n      0x00\n      swap1\n      sload\n      swap1\n      0x0100\n      exp\n      swap1\n      div\n      0xff\n      and\n        /* \"contracts/Voting.sol\":6047:6100  currentStatus ==  WorkflowStatus.VotingSessionStarted */\n      0x05\n      dup2\n      gt\n      iszero\n      tag_302\n      jumpi\n      tag_303\n      tag_92\n      jump\t// in\n    tag_303:\n    tag_302:\n      eq\n        /* \"contracts/Voting.sol\":6039:6158  require(currentStatus ==  WorkflowStatus.VotingSessionStarted, \"The vote session has not started or has already ended\") */\n      tag_304\n      jumpi\n      mload(0x40)\n      0x08c379a000000000000000000000000000000000000000000000000000000000\n      dup2\n      mstore\n      0x04\n      add\n      tag_305\n      swap1\n      tag_306\n      jump\t// in\n    tag_305:\n      mload(0x40)\n      dup1\n      swap2\n      sub\n      swap1\n      revert\n    tag_304:\n        /* \"contracts/Voting.sol\":6184:6217  WorkflowStatus.VotingSessionEnded */\n      0x04\n        /* \"contracts/Voting.sol\":6168:6181  currentStatus */\n      0x08\n      0x00\n        /* \"contracts/Voting.sol\":6168:6217  currentStatus = WorkflowStatus.VotingSessionEnded */\n      0x0100\n      exp\n      dup2\n      sload\n      dup2\n      0xff\n      mul\n      not\n      and\n      swap1\n      dup4\n      0x05\n      dup2\n      gt\n      iszero\n      tag_307\n      jumpi\n      tag_308\n      tag_92\n      jump\t// in\n    tag_308:\n    tag_307:\n      mul\n      or\n      swap1\n      sstore\n      pop\n        /* \"contracts/Voting.sol\":6232:6308  WorkflowStatusChange(WorkflowStatus(uint(currentStatus) + 1), currentStatus) */\n      0x0a97a4ee45751e2abf3e4fc8946939630b11b371ea8ae39ccdc3056e98f5cc3f\n        /* \"contracts/Voting.sol\":6290:6291  1 */\n      0x01\n        /* \"contracts/Voting.sol\":6273:6286  currentStatus */\n      0x08\n      0x00\n      swap1\n      sload\n      swap1\n      0x0100\n      exp\n      swap1\n      div\n      0xff\n      and\n        /* \"contracts/Voting.sol\":6268:6287  uint(currentStatus) */\n      0x05\n      dup2\n      gt\n      iszero\n      tag_309\n      jumpi\n      tag_310\n      tag_92\n      jump\t// in\n    tag_310:\n    tag_309:\n        /* \"contracts/Voting.sol\":6268:6291  uint(currentStatus) + 1 */\n      tag_311\n      swap2\n      swap1\n      tag_106\n      jump\t// in\n    tag_311:\n        /* \"contracts/Voting.sol\":6253:6292  WorkflowStatus(uint(currentStatus) + 1) */\n      0x05\n      dup2\n      gt\n      iszero\n      tag_312\n      jumpi\n      tag_313\n      tag_92\n      jump\t// in\n    tag_313:\n    tag_312:\n        /* \"contracts/Voting.sol\":6294:6307  currentStatus */\n      0x08\n      0x00\n      swap1\n      sload\n      swap1\n      0x0100\n      exp\n      swap1\n      div\n      0xff\n      and\n        /* \"contracts/Voting.sol\":6232:6308  WorkflowStatusChange(WorkflowStatus(uint(currentStatus) + 1), currentStatus) */\n      mload(0x40)\n      tag_314\n      swap3\n      swap2\n      swap1\n      tag_155\n      jump\t// in\n    tag_314:\n      mload(0x40)\n      dup1\n      swap2\n      sub\n      swap1\n      log1\n        /* \"contracts/Voting.sol\":5984:6323  function endVoteSession() external onlyOwner {... */\n      jump\t// out\n        /* \"@openzeppelin/contracts/access/Ownable.sol\":1796:1958  function _checkOwner() internal view virtual {... */\n    tag_119:\n        /* \"@openzeppelin/contracts/access/Ownable.sol\":1866:1878  _msgSender() */\n      tag_316\n        /* \"@openzeppelin/contracts/access/Ownable.sol\":1866:1876  _msgSender */\n      tag_317\n        /* \"@openzeppelin/contracts/access/Ownable.sol\":1866:1878  _msgSender() */\n      jump\t// in\n    tag_316:\n        /* \"@openzeppelin/contracts/access/Ownable.sol\":1855:1878  owner() != _msgSender() */\n      0xffffffffffffffffffffffffffffffffffffffff\n      and\n        /* \"@openzeppelin/contracts/access/Ownable.sol\":1855:1862  owner() */\n      tag_318\n        /* \"@openzeppelin/contracts/access/Ownable.sol\":1855:1860  owner */\n      tag_59\n        /* \"@openzeppelin/contracts/access/Ownable.sol\":1855:1862  owner() */\n      jump\t// in\n    tag_318:\n        /* \"@openzeppelin/contracts/access/Ownable.sol\":1855:1878  owner() != _msgSender() */\n      0xffffffffffffffffffffffffffffffffffffffff\n      and\n      eq\n        /* \"@openzeppelin/contracts/access/Ownable.sol\":1851:1952  if (owner() != _msgSender()) {... */\n      tag_319\n      jumpi\n        /* \"@openzeppelin/contracts/access/Ownable.sol\":1928:1940  _msgSender() */\n      tag_320\n        /* \"@openzeppelin/contracts/access/Ownable.sol\":1928:1938  _msgSender */\n      tag_317\n        /* \"@openzeppelin/contracts/access/Ownable.sol\":1928:1940  _msgSender() */\n      jump\t// in\n    tag_320:\n        /* \"@openzeppelin/contracts/access/Ownable.sol\":1901:1941  OwnableUnauthorizedAccount(_msgSender()) */\n      mload(0x40)\n      0x118cdaa700000000000000000000000000000000000000000000000000000000\n      dup2\n      mstore\n      0x04\n      add\n      tag_321\n      swap2\n      swap1\n      tag_61\n      jump\t// in\n    tag_321:\n      mload(0x40)\n      dup1\n      swap2\n      sub\n      swap1\n      revert\n        /* \"@openzeppelin/contracts/access/Ownable.sol\":1851:1952  if (owner() != _msgSender()) {... */\n    tag_319:\n        /* \"@openzeppelin/contracts/access/Ownable.sol\":1796:1958  function _checkOwner() internal view virtual {... */\n      jump\t// out\n        /* \"@openzeppelin/contracts/access/Ownable.sol\":2912:3099  function _transferOwnership(address newOwner) internal virtual {... */\n    tag_178:\n        /* \"@openzeppelin/contracts/access/Ownable.sol\":2985:3001  address oldOwner */\n      0x00\n        /* \"@openzeppelin/contracts/access/Ownable.sol\":3004:3010  _owner */\n      0x00\n      0x00\n      swap1\n      sload\n      swap1\n      0x0100\n      exp\n      swap1\n      div\n      0xffffffffffffffffffffffffffffffffffffffff\n      and\n        /* \"@openzeppelin/contracts/access/Ownable.sol\":2985:3010  address oldOwner = _owner */\n      swap1\n      pop\n        /* \"@openzeppelin/contracts/access/Ownable.sol\":3029:3037  newOwner */\n      dup2\n        /* \"@openzeppelin/contracts/access/Ownable.sol\":3020:3026  _owner */\n      0x00\n      0x00\n        /* \"@openzeppelin/contracts/access/Ownable.sol\":3020:3037  _owner = newOwner */\n      0x0100\n      exp\n      dup2\n      sload\n      dup2\n      0xffffffffffffffffffffffffffffffffffffffff\n      mul\n      not\n      and\n      swap1\n      dup4\n      0xffffffffffffffffffffffffffffffffffffffff\n      and\n      mul\n      or\n      swap1\n      sstore\n      pop\n        /* \"@openzeppelin/contracts/access/Ownable.sol\":3083:3091  newOwner */\n      dup2\n        /* \"@openzeppelin/contracts/access/Ownable.sol\":3052:3092  OwnershipTransferred(oldOwner, newOwner) */\n      0xffffffffffffffffffffffffffffffffffffffff\n      and\n        /* \"@openzeppelin/contracts/access/Ownable.sol\":3073:3081  oldOwner */\n      dup2\n        /* \"@openzeppelin/contracts/access/Ownable.sol\":3052:3092  OwnershipTransferred(oldOwner, newOwner) */\n      0xffffffffffffffffffffffffffffffffffffffff\n      and\n      0x8be0079c531659141344cd1fd0a4f28419497f9722a3daafe3b4186f6b6457e0\n      mload(0x40)\n      mload(0x40)\n      dup1\n      swap2\n      sub\n      swap1\n      log3\n        /* \"@openzeppelin/contracts/access/Ownable.sol\":2975:3099  {... */\n      pop\n        /* \"@openzeppelin/contracts/access/Ownable.sol\":2912:3099  function _transferOwnership(address newOwner) internal virtual {... */\n      pop\n      jump\t// out\n        /* \"contracts/Voting.sol\":6903:7415  function setWinnerProposal() private onlyOwner {... */\n    tag_233:\n        /* \"@openzeppelin/contracts/access/Ownable.sol\":1531:1544  _checkOwner() */\n      tag_324\n        /* \"@openzeppelin/contracts/access/Ownable.sol\":1531:1542  _checkOwner */\n      tag_119\n        /* \"@openzeppelin/contracts/access/Ownable.sol\":1531:1544  _checkOwner() */\n      jump\t// in\n    tag_324:\n        /* \"contracts/Voting.sol\":6986:7019  WorkflowStatus.VotingSessionEnded */\n      0x04\n        /* \"contracts/Voting.sol\":6968:7019  currentStatus ==  WorkflowStatus.VotingSessionEnded */\n      0x05\n      dup2\n      gt\n      iszero\n      tag_326\n      jumpi\n      tag_327\n      tag_92\n      jump\t// in\n    tag_327:\n    tag_326:\n        /* \"contracts/Voting.sol\":6968:6981  currentStatus */\n      0x08\n      0x00\n      swap1\n      sload\n      swap1\n      0x0100\n      exp\n      swap1\n      div\n      0xff\n      and\n        /* \"contracts/Voting.sol\":6968:7019  currentStatus ==  WorkflowStatus.VotingSessionEnded */\n      0x05\n      dup2\n      gt\n      iszero\n      tag_328\n      jumpi\n      tag_329\n      tag_92\n      jump\t// in\n    tag_329:\n    tag_328:\n      eq\n        /* \"contracts/Voting.sol\":6960:7071  require(currentStatus ==  WorkflowStatus.VotingSessionEnded, \"Vote session did not take place or is not ended\") */\n      tag_330\n      jumpi\n      mload(0x40)\n      0x08c379a000000000000000000000000000000000000000000000000000000000\n      dup2\n      mstore\n      0x04\n      add\n      tag_331\n      swap1\n      tag_332\n      jump\t// in\n    tag_331:\n      mload(0x40)\n      dup1\n      swap2\n      sub\n      swap1\n      revert\n    tag_330:\n        /* \"contracts/Voting.sol\":7086:7095  uint256 i */\n      0x00\n        /* \"contracts/Voting.sol\":7098:7099  1 */\n      0x01\n        /* \"contracts/Voting.sol\":7086:7099  uint256 i = 1 */\n      swap1\n      pop\n        /* \"contracts/Voting.sol\":7081:7408  for (uint256 i = 1; i < proposals.length; i++) {... */\n    tag_333:\n        /* \"contracts/Voting.sol\":7105:7114  proposals */\n      0x02\n        /* \"contracts/Voting.sol\":7105:7121  proposals.length */\n      dup1\n      sload\n      swap1\n      pop\n        /* \"contracts/Voting.sol\":7101:7102  i */\n      dup2\n        /* \"contracts/Voting.sol\":7101:7121  i < proposals.length */\n      lt\n        /* \"contracts/Voting.sol\":7081:7408  for (uint256 i = 1; i < proposals.length; i++) {... */\n      iszero\n      tag_334\n      jumpi\n        /* \"contracts/Voting.sol\":7171:7188  numberWinnersVote */\n      sload(0x07)\n        /* \"contracts/Voting.sol\":7146:7155  proposals */\n      0x02\n        /* \"contracts/Voting.sol\":7156:7157  i */\n      dup3\n        /* \"contracts/Voting.sol\":7146:7158  proposals[i] */\n      dup2\n      sload\n      dup2\n      lt\n      tag_336\n      jumpi\n      tag_337\n      tag_112\n      jump\t// in\n    tag_337:\n    tag_336:\n      swap1\n      0x00\n      mstore\n      keccak256(0x00, 0x20)\n      swap1\n      0x02\n      mul\n      add\n        /* \"contracts/Voting.sol\":7146:7168  proposals[i].voteCount */\n      0x01\n      add\n      sload\n        /* \"contracts/Voting.sol\":7146:7188  proposals[i].voteCount > numberWinnersVote */\n      gt\n        /* \"contracts/Voting.sol\":7142:7392  if (proposals[i].voteCount > numberWinnersVote) {... */\n      iszero\n      tag_339\n      jumpi\n        /* \"contracts/Voting.sol\":7228:7237  proposals */\n      0x02\n        /* \"contracts/Voting.sol\":7238:7239  i */\n      dup2\n        /* \"contracts/Voting.sol\":7228:7240  proposals[i] */\n      dup2\n      sload\n      dup2\n      lt\n      tag_340\n      jumpi\n      tag_341\n      tag_112\n      jump\t// in\n    tag_341:\n    tag_340:\n      swap1\n      0x00\n      mstore\n      keccak256(0x00, 0x20)\n      swap1\n      0x02\n      mul\n      add\n        /* \"contracts/Voting.sol\":7228:7250  proposals[i].voteCount */\n      0x01\n      add\n      sload\n        /* \"contracts/Voting.sol\":7208:7225  numberWinnersVote */\n      0x07\n        /* \"contracts/Voting.sol\":7208:7250  numberWinnersVote = proposals[i].voteCount */\n      dup2\n      swap1\n      sstore\n      pop\n        /* \"contracts/Voting.sol\":7288:7289  i */\n      dup1\n        /* \"contracts/Voting.sol\":7268:7285  winningProposalId */\n      0x03\n        /* \"contracts/Voting.sol\":7268:7289  winningProposalId = i */\n      dup2\n      swap1\n      sstore\n      pop\n        /* \"contracts/Voting.sol\":7307:7320  numberWinners */\n      0x06\n      0x00\n        /* \"contracts/Voting.sol\":7307:7322  numberWinners++ */\n      dup2\n      sload\n      dup1\n      swap3\n      swap2\n      swap1\n      tag_343\n      swap1\n      tag_115\n      jump\t// in\n    tag_343:\n      swap2\n      swap1\n      pop\n      sstore\n      pop\n        /* \"contracts/Voting.sol\":7142:7392  if (proposals[i].voteCount > numberWinnersVote) {... */\n    tag_339:\n        /* \"contracts/Voting.sol\":7123:7126  i++ */\n      dup1\n      dup1\n      0x01\n      add\n      swap2\n      pop\n      pop\n        /* \"contracts/Voting.sol\":7081:7408  for (uint256 i = 1; i < proposals.length; i++) {... */\n      jump(tag_333)\n    tag_334:\n      pop\n        /* \"contracts/Voting.sol\":6903:7415  function setWinnerProposal() private onlyOwner {... */\n      jump\t// out\n        /* \"@openzeppelin/contracts/utils/Context.sol\":656:752  function _msgSender() internal view virtual returns (address) {... */\n    tag_317:\n        /* \"@openzeppelin/contracts/utils/Context.sol\":709:716  address */\n      0x00\n        /* \"@openzeppelin/contracts/utils/Context.sol\":735:745  msg.sender */\n      caller\n        /* \"@openzeppelin/contracts/utils/Context.sol\":728:745  return msg.sender */\n      swap1\n      pop\n        /* \"@openzeppelin/contracts/utils/Context.sol\":656:752  function _msgSender() internal view virtual returns (address) {... */\n      swap1\n      jump\t// out\n    tag_247:\n      mload(0x40)\n      dup1\n      0x40\n      add\n      0x40\n      mstore\n      dup1\n      0x60\n      dup2\n      mstore\n      0x20\n      add\n      0x00\n      dup2\n      mstore\n      pop\n      swap1\n      jump\t// out\n        /* \"#utility.yul\":7:82   */\n    tag_345:\n        /* \"#utility.yul\":40:46   */\n      0x00\n        /* \"#utility.yul\":73:75   */\n      0x40\n        /* \"#utility.yul\":67:76   */\n      mload\n        /* \"#utility.yul\":57:76   */\n      swap1\n      pop\n        /* \"#utility.yul\":7:82   */\n      swap1\n      jump\t// out\n        /* \"#utility.yul\":88:205   */\n    tag_346:\n        /* \"#utility.yul\":197:198   */\n      0x00\n        /* \"#utility.yul\":194:195   */\n      0x00\n        /* \"#utility.yul\":187:199   */\n      revert\n        /* \"#utility.yul\":211:328   */\n    tag_347:\n        /* \"#utility.yul\":320:321   */\n      0x00\n        /* \"#utility.yul\":317:318   */\n      0x00\n        /* \"#utility.yul\":310:322   */\n      revert\n        /* \"#utility.yul\":334:411   */\n    tag_348:\n        /* \"#utility.yul\":371:378   */\n      0x00\n        /* \"#utility.yul\":400:405   */\n      dup2\n        /* \"#utility.yul\":389:405   */\n      swap1\n      pop\n        /* \"#utility.yul\":334:411   */\n      swap2\n      swap1\n      pop\n      jump\t// out\n        /* \"#utility.yul\":417:539   */\n    tag_349:\n        /* \"#utility.yul\":490:514   */\n      tag_443\n        /* \"#utility.yul\":508:513   */\n      dup2\n        /* \"#utility.yul\":490:514   */\n      tag_348\n      jump\t// in\n    tag_443:\n        /* \"#utility.yul\":483:488   */\n      dup2\n        /* \"#utility.yul\":480:515   */\n      eq\n        /* \"#utility.yul\":470:533   */\n      tag_444\n      jumpi\n        /* \"#utility.yul\":529:530   */\n      0x00\n        /* \"#utility.yul\":526:527   */\n      0x00\n        /* \"#utility.yul\":519:531   */\n      revert\n        /* \"#utility.yul\":470:533   */\n    tag_444:\n        /* \"#utility.yul\":417:539   */\n      pop\n      jump\t// out\n        /* \"#utility.yul\":545:684   */\n    tag_350:\n        /* \"#utility.yul\":591:596   */\n      0x00\n        /* \"#utility.yul\":629:635   */\n      dup2\n        /* \"#utility.yul\":616:636   */\n      calldataload\n        /* \"#utility.yul\":607:636   */\n      swap1\n      pop\n        /* \"#utility.yul\":645:678   */\n      tag_446\n        /* \"#utility.yul\":672:677   */\n      dup2\n        /* \"#utility.yul\":645:678   */\n      tag_349\n      jump\t// in\n    tag_446:\n        /* \"#utility.yul\":545:684   */\n      swap3\n      swap2\n      pop\n      pop\n      jump\t// out\n        /* \"#utility.yul\":690:1019   */\n    tag_27:\n        /* \"#utility.yul\":749:755   */\n      0x00\n        /* \"#utility.yul\":798:800   */\n      0x20\n        /* \"#utility.yul\":786:795   */\n      dup3\n        /* \"#utility.yul\":777:784   */\n      dup5\n        /* \"#utility.yul\":773:796   */\n      sub\n        /* \"#utility.yul\":769:801   */\n      slt\n        /* \"#utility.yul\":766:885   */\n      iszero\n      tag_448\n      jumpi\n        /* \"#utility.yul\":804:883   */\n      tag_449\n      tag_346\n      jump\t// in\n    tag_449:\n        /* \"#utility.yul\":766:885   */\n    tag_448:\n        /* \"#utility.yul\":924:925   */\n      0x00\n        /* \"#utility.yul\":949:1002   */\n      tag_450\n        /* \"#utility.yul\":994:1001   */\n      dup5\n        /* \"#utility.yul\":985:991   */\n      dup3\n        /* \"#utility.yul\":974:983   */\n      dup6\n        /* \"#utility.yul\":970:992   */\n      add\n        /* \"#utility.yul\":949:1002   */\n      tag_350\n      jump\t// in\n    tag_450:\n        /* \"#utility.yul\":939:1002   */\n      swap2\n      pop\n        /* \"#utility.yul\":895:1012   */\n      pop\n        /* \"#utility.yul\":690:1019   */\n      swap3\n      swap2\n      pop\n      pop\n      jump\t// out\n        /* \"#utility.yul\":1025:1151   */\n    tag_351:\n        /* \"#utility.yul\":1062:1069   */\n      0x00\n        /* \"#utility.yul\":1102:1144   */\n      0xffffffffffffffffffffffffffffffffffffffff\n        /* \"#utility.yul\":1095:1100   */\n      dup3\n        /* \"#utility.yul\":1091:1145   */\n      and\n        /* \"#utility.yul\":1080:1145   */\n      swap1\n      pop\n        /* \"#utility.yul\":1025:1151   */\n      swap2\n      swap1\n      pop\n      jump\t// out\n        /* \"#utility.yul\":1157:1253   */\n    tag_352:\n        /* \"#utility.yul\":1194:1201   */\n      0x00\n        /* \"#utility.yul\":1223:1247   */\n      tag_453\n        /* \"#utility.yul\":1241:1246   */\n      dup3\n        /* \"#utility.yul\":1223:1247   */\n      tag_351\n      jump\t// in\n    tag_453:\n        /* \"#utility.yul\":1212:1247   */\n      swap1\n      pop\n        /* \"#utility.yul\":1157:1253   */\n      swap2\n      swap1\n      pop\n      jump\t// out\n        /* \"#utility.yul\":1259:1381   */\n    tag_353:\n        /* \"#utility.yul\":1332:1356   */\n      tag_455\n        /* \"#utility.yul\":1350:1355   */\n      dup2\n        /* \"#utility.yul\":1332:1356   */\n      tag_352\n      jump\t// in\n    tag_455:\n        /* \"#utility.yul\":1325:1330   */\n      dup2\n        /* \"#utility.yul\":1322:1357   */\n      eq\n        /* \"#utility.yul\":1312:1375   */\n      tag_456\n      jumpi\n        /* \"#utility.yul\":1371:1372   */\n      0x00\n        /* \"#utility.yul\":1368:1369   */\n      0x00\n        /* \"#utility.yul\":1361:1373   */\n      revert\n        /* \"#utility.yul\":1312:1375   */\n    tag_456:\n        /* \"#utility.yul\":1259:1381   */\n      pop\n      jump\t// out\n        /* \"#utility.yul\":1387:1526   */\n    tag_354:\n        /* \"#utility.yul\":1433:1438   */\n      0x00\n        /* \"#utility.yul\":1471:1477   */\n      dup2\n        /* \"#utility.yul\":1458:1478   */\n      calldataload\n        /* \"#utility.yul\":1449:1478   */\n      swap1\n      pop\n        /* \"#utility.yul\":1487:1520   */\n      tag_458\n        /* \"#utility.yul\":1514:1519   */\n      dup2\n        /* \"#utility.yul\":1487:1520   */\n      tag_353\n      jump\t// in\n    tag_458:\n        /* \"#utility.yul\":1387:1526   */\n      swap3\n      swap2\n      pop\n      pop\n      jump\t// out\n        /* \"#utility.yul\":1532:1861   */\n    tag_31:\n        /* \"#utility.yul\":1591:1597   */\n      0x00\n        /* \"#utility.yul\":1640:1642   */\n      0x20\n        /* \"#utility.yul\":1628:1637   */\n      dup3\n        /* \"#utility.yul\":1619:1626   */\n      dup5\n        /* \"#utility.yul\":1615:1638   */\n      sub\n        /* \"#utility.yul\":1611:1643   */\n      slt\n        /* \"#utility.yul\":1608:1727   */\n      iszero\n      tag_460\n      jumpi\n        /* \"#utility.yul\":1646:1725   */\n      tag_461\n      tag_346\n      jump\t// in\n    tag_461:\n        /* \"#utility.yul\":1608:1727   */\n    tag_460:\n        /* \"#utility.yul\":1766:1767   */\n      0x00\n        /* \"#utility.yul\":1791:1844   */\n      tag_462\n        /* \"#utility.yul\":1836:1843   */\n      dup5\n        /* \"#utility.yul\":1827:1833   */\n      dup3\n        /* \"#utility.yul\":1816:1825   */\n      dup6\n        /* \"#utility.yul\":1812:1834   */\n      add\n        /* \"#utility.yul\":1791:1844   */\n      tag_354\n      jump\t// in\n    tag_462:\n        /* \"#utility.yul\":1781:1844   */\n      swap2\n      pop\n        /* \"#utility.yul\":1737:1854   */\n      pop\n        /* \"#utility.yul\":1532:1861   */\n      swap3\n      swap2\n      pop\n      pop\n      jump\t// out\n        /* \"#utility.yul\":1867:1985   */\n    tag_355:\n        /* \"#utility.yul\":1954:1978   */\n      tag_464\n        /* \"#utility.yul\":1972:1977   */\n      dup2\n        /* \"#utility.yul\":1954:1978   */\n      tag_348\n      jump\t// in\n    tag_464:\n        /* \"#utility.yul\":1949:1952   */\n      dup3\n        /* \"#utility.yul\":1942:1979   */\n      mstore\n        /* \"#utility.yul\":1867:1985   */\n      pop\n      pop\n      jump\t// out\n        /* \"#utility.yul\":1991:2213   */\n    tag_34:\n        /* \"#utility.yul\":2084:2088   */\n      0x00\n        /* \"#utility.yul\":2122:2124   */\n      0x20\n        /* \"#utility.yul\":2111:2120   */\n      dup3\n        /* \"#utility.yul\":2107:2125   */\n      add\n        /* \"#utility.yul\":2099:2125   */\n      swap1\n      pop\n        /* \"#utility.yul\":2135:2206   */\n      tag_466\n        /* \"#utility.yul\":2203:2204   */\n      0x00\n        /* \"#utility.yul\":2192:2201   */\n      dup4\n        /* \"#utility.yul\":2188:2205   */\n      add\n        /* \"#utility.yul\":2179:2185   */\n      dup5\n        /* \"#utility.yul\":2135:2206   */\n      tag_355\n      jump\t// in\n    tag_466:\n        /* \"#utility.yul\":1991:2213   */\n      swap3\n      swap2\n      pop\n      pop\n      jump\t// out\n        /* \"#utility.yul\":2219:2318   */\n    tag_356:\n        /* \"#utility.yul\":2271:2277   */\n      0x00\n        /* \"#utility.yul\":2305:2310   */\n      dup2\n        /* \"#utility.yul\":2299:2311   */\n      mload\n        /* \"#utility.yul\":2289:2311   */\n      swap1\n      pop\n        /* \"#utility.yul\":2219:2318   */\n      swap2\n      swap1\n      pop\n      jump\t// out\n        /* \"#utility.yul\":2324:2493   */\n    tag_357:\n        /* \"#utility.yul\":2408:2419   */\n      0x00\n        /* \"#utility.yul\":2442:2448   */\n      dup3\n        /* \"#utility.yul\":2437:2440   */\n      dup3\n        /* \"#utility.yul\":2430:2449   */\n      mstore\n        /* \"#utility.yul\":2482:2486   */\n      0x20\n        /* \"#utility.yul\":2477:2480   */\n      dup3\n        /* \"#utility.yul\":2473:2487   */\n      add\n        /* \"#utility.yul\":2458:2487   */\n      swap1\n      pop\n        /* \"#utility.yul\":2324:2493   */\n      swap3\n      swap2\n      pop\n      pop\n      jump\t// out\n        /* \"#utility.yul\":2499:2638   */\n    tag_358:\n        /* \"#utility.yul\":2588:2594   */\n      dup3\n        /* \"#utility.yul\":2583:2586   */\n      dup2\n        /* \"#utility.yul\":2578:2581   */\n      dup4\n        /* \"#utility.yul\":2572:2595   */\n      mcopy\n        /* \"#utility.yul\":2629:2630   */\n      0x00\n        /* \"#utility.yul\":2620:2626   */\n      dup4\n        /* \"#utility.yul\":2615:2618   */\n      dup4\n        /* \"#utility.yul\":2611:2627   */\n      add\n        /* \"#utility.yul\":2604:2631   */\n      mstore\n        /* \"#utility.yul\":2499:2638   */\n      pop\n      pop\n      pop\n      jump\t// out\n        /* \"#utility.yul\":2644:2746   */\n    tag_359:\n        /* \"#utility.yul\":2685:2691   */\n      0x00\n        /* \"#utility.yul\":2736:2738   */\n      0x1f\n        /* \"#utility.yul\":2732:2739   */\n      not\n        /* \"#utility.yul\":2727:2729   */\n      0x1f\n        /* \"#utility.yul\":2720:2725   */\n      dup4\n        /* \"#utility.yul\":2716:2730   */\n      add\n        /* \"#utility.yul\":2712:2740   */\n      and\n        /* \"#utility.yul\":2702:2740   */\n      swap1\n      pop\n        /* \"#utility.yul\":2644:2746   */\n      swap2\n      swap1\n      pop\n      jump\t// out\n        /* \"#utility.yul\":2752:3129   */\n    tag_360:\n        /* \"#utility.yul\":2840:2843   */\n      0x00\n        /* \"#utility.yul\":2868:2907   */\n      tag_472\n        /* \"#utility.yul\":2901:2906   */\n      dup3\n        /* \"#utility.yul\":2868:2907   */\n      tag_356\n      jump\t// in\n    tag_472:\n        /* \"#utility.yul\":2923:2994   */\n      tag_473\n        /* \"#utility.yul\":2987:2993   */\n      dup2\n        /* \"#utility.yul\":2982:2985   */\n      dup6\n        /* \"#utility.yul\":2923:2994   */\n      tag_357\n      jump\t// in\n    tag_473:\n        /* \"#utility.yul\":2916:2994   */\n      swap4\n      pop\n        /* \"#utility.yul\":3003:3068   */\n      tag_474\n        /* \"#utility.yul\":3061:3067   */\n      dup2\n        /* \"#utility.yul\":3056:3059   */\n      dup6\n        /* \"#utility.yul\":3049:3053   */\n      0x20\n        /* \"#utility.yul\":3042:3047   */\n      dup7\n        /* \"#utility.yul\":3038:3054   */\n      add\n        /* \"#utility.yul\":3003:3068   */\n      tag_358\n      jump\t// in\n    tag_474:\n        /* \"#utility.yul\":3093:3122   */\n      tag_475\n        /* \"#utility.yul\":3115:3121   */\n      dup2\n        /* \"#utility.yul\":3093:3122   */\n      tag_359\n      jump\t// in\n    tag_475:\n        /* \"#utility.yul\":3088:3091   */\n      dup5\n        /* \"#utility.yul\":3084:3123   */\n      add\n        /* \"#utility.yul\":3077:3123   */\n      swap2\n      pop\n        /* \"#utility.yul\":2844:3129   */\n      pop\n        /* \"#utility.yul\":2752:3129   */\n      swap3\n      swap2\n      pop\n      pop\n      jump\t// out\n        /* \"#utility.yul\":3135:3448   */\n    tag_47:\n        /* \"#utility.yul\":3248:3252   */\n      0x00\n        /* \"#utility.yul\":3286:3288   */\n      0x20\n        /* \"#utility.yul\":3275:3284   */\n      dup3\n        /* \"#utility.yul\":3271:3289   */\n      add\n        /* \"#utility.yul\":3263:3289   */\n      swap1\n      pop\n        /* \"#utility.yul\":3335:3344   */\n      dup2\n        /* \"#utility.yul\":3329:3333   */\n      dup2\n        /* \"#utility.yul\":3325:3345   */\n      sub\n        /* \"#utility.yul\":3321:3322   */\n      0x00\n        /* \"#utility.yul\":3310:3319   */\n      dup4\n        /* \"#utility.yul\":3306:3323   */\n      add\n        /* \"#utility.yul\":3299:3346   */\n      mstore\n        /* \"#utility.yul\":3363:3441   */\n      tag_477\n        /* \"#utility.yul\":3436:3440   */\n      dup2\n        /* \"#utility.yul\":3427:3433   */\n      dup5\n        /* \"#utility.yul\":3363:3441   */\n      tag_360\n      jump\t// in\n    tag_477:\n        /* \"#utility.yul\":3355:3441   */\n      swap1\n      pop\n        /* \"#utility.yul\":3135:3448   */\n      swap3\n      swap2\n      pop\n      pop\n      jump\t// out\n        /* \"#utility.yul\":3454:3571   */\n    tag_361:\n        /* \"#utility.yul\":3563:3564   */\n      0x00\n        /* \"#utility.yul\":3560:3561   */\n      0x00\n        /* \"#utility.yul\":3553:3565   */\n      revert\n        /* \"#utility.yul\":3577:3694   */\n    tag_362:\n        /* \"#utility.yul\":3686:3687   */\n      0x00\n        /* \"#utility.yul\":3683:3684   */\n      0x00\n        /* \"#utility.yul\":3676:3688   */\n      revert\n        /* \"#utility.yul\":3700:3880   */\n    tag_363:\n        /* \"#utility.yul\":3748:3825   */\n      0x4e487b7100000000000000000000000000000000000000000000000000000000\n        /* \"#utility.yul\":3745:3746   */\n      0x00\n        /* \"#utility.yul\":3738:3826   */\n      mstore\n        /* \"#utility.yul\":3845:3849   */\n      0x41\n        /* \"#utility.yul\":3842:3843   */\n      0x04\n        /* \"#utility.yul\":3835:3850   */\n      mstore\n        /* \"#utility.yul\":3869:3873   */\n      0x24\n        /* \"#utility.yul\":3866:3867   */\n      0x00\n        /* \"#utility.yul\":3859:3874   */\n      revert\n        /* \"#utility.yul\":3886:4167   */\n    tag_364:\n        /* \"#utility.yul\":3969:3996   */\n      tag_482\n        /* \"#utility.yul\":3991:3995   */\n      dup3\n        /* \"#utility.yul\":3969:3996   */\n      tag_359\n      jump\t// in\n    tag_482:\n        /* \"#utility.yul\":3961:3967   */\n      dup2\n        /* \"#utility.yul\":3957:3997   */\n      add\n        /* \"#utility.yul\":4099:4105   */\n      dup2\n        /* \"#utility.yul\":4087:4097   */\n      dup2\n        /* \"#utility.yul\":4084:4106   */\n      lt\n        /* \"#utility.yul\":4063:4081   */\n      0xffffffffffffffff\n        /* \"#utility.yul\":4051:4061   */\n      dup3\n        /* \"#utility.yul\":4048:4082   */\n      gt\n        /* \"#utility.yul\":4045:4107   */\n      or\n        /* \"#utility.yul\":4042:4130   */\n      iszero\n      tag_483\n      jumpi\n        /* \"#utility.yul\":4110:4128   */\n      tag_484\n      tag_363\n      jump\t// in\n    tag_484:\n        /* \"#utility.yul\":4042:4130   */\n    tag_483:\n        /* \"#utility.yul\":4150:4160   */\n      dup1\n        /* \"#utility.yul\":4146:4148   */\n      0x40\n        /* \"#utility.yul\":4139:4161   */\n      mstore\n        /* \"#utility.yul\":3929:4167   */\n      pop\n        /* \"#utility.yul\":3886:4167   */\n      pop\n      pop\n      jump\t// out\n        /* \"#utility.yul\":4173:4302   */\n    tag_365:\n        /* \"#utility.yul\":4207:4213   */\n      0x00\n        /* \"#utility.yul\":4234:4254   */\n      tag_486\n      tag_345\n      jump\t// in\n    tag_486:\n        /* \"#utility.yul\":4224:4254   */\n      swap1\n      pop\n        /* \"#utility.yul\":4263:4296   */\n      tag_487\n        /* \"#utility.yul\":4291:4295   */\n      dup3\n        /* \"#utility.yul\":4283:4289   */\n      dup3\n        /* \"#utility.yul\":4263:4296   */\n      tag_364\n      jump\t// in\n    tag_487:\n        /* \"#utility.yul\":4173:4302   */\n      swap2\n      swap1\n      pop\n      jump\t// out\n        /* \"#utility.yul\":4308:4616   */\n    tag_366:\n        /* \"#utility.yul\":4370:4374   */\n      0x00\n        /* \"#utility.yul\":4460:4478   */\n      0xffffffffffffffff\n        /* \"#utility.yul\":4452:4458   */\n      dup3\n        /* \"#utility.yul\":4449:4479   */\n      gt\n        /* \"#utility.yul\":4446:4502   */\n      iszero\n      tag_489\n      jumpi\n        /* \"#utility.yul\":4482:4500   */\n      tag_490\n      tag_363\n      jump\t// in\n    tag_490:\n        /* \"#utility.yul\":4446:4502   */\n    tag_489:\n        /* \"#utility.yul\":4520:4549   */\n      tag_491\n        /* \"#utility.yul\":4542:4548   */\n      dup3\n        /* \"#utility.yul\":4520:4549   */\n      tag_359\n      jump\t// in\n    tag_491:\n        /* \"#utility.yul\":4512:4549   */\n      swap1\n      pop\n        /* \"#utility.yul\":4604:4608   */\n      0x20\n        /* \"#utility.yul\":4598:4602   */\n      dup2\n        /* \"#utility.yul\":4594:4609   */\n      add\n        /* \"#utility.yul\":4586:4609   */\n      swap1\n      pop\n        /* \"#utility.yul\":4308:4616   */\n      swap2\n      swap1\n      pop\n      jump\t// out\n        /* \"#utility.yul\":4622:4770   */\n    tag_367:\n        /* \"#utility.yul\":4720:4726   */\n      dup3\n        /* \"#utility.yul\":4715:4718   */\n      dup2\n        /* \"#utility.yul\":4710:4713   */\n      dup4\n        /* \"#utility.yul\":4697:4727   */\n      calldatacopy\n        /* \"#utility.yul\":4761:4762   */\n      0x00\n        /* \"#utility.yul\":4752:4758   */\n      dup4\n        /* \"#utility.yul\":4747:4750   */\n      dup4\n        /* \"#utility.yul\":4743:4759   */\n      add\n        /* \"#utility.yul\":4736:4763   */\n      mstore\n        /* \"#utility.yul\":4622:4770   */\n      pop\n      pop\n      pop\n      jump\t// out\n        /* \"#utility.yul\":4776:5201   */\n    tag_368:\n        /* \"#utility.yul\":4854:4859   */\n      0x00\n        /* \"#utility.yul\":4879:4945   */\n      tag_494\n        /* \"#utility.yul\":4895:4944   */\n      tag_495\n        /* \"#utility.yul\":4937:4943   */\n      dup5\n        /* \"#utility.yul\":4895:4944   */\n      tag_366\n      jump\t// in\n    tag_495:\n        /* \"#utility.yul\":4879:4945   */\n      tag_365\n      jump\t// in\n    tag_494:\n        /* \"#utility.yul\":4870:4945   */\n      swap1\n      pop\n        /* \"#utility.yul\":4968:4974   */\n      dup3\n        /* \"#utility.yul\":4961:4966   */\n      dup2\n        /* \"#utility.yul\":4954:4975   */\n      mstore\n        /* \"#utility.yul\":5006:5010   */\n      0x20\n        /* \"#utility.yul\":4999:5004   */\n      dup2\n        /* \"#utility.yul\":4995:5011   */\n      add\n        /* \"#utility.yul\":5044:5047   */\n      dup5\n        /* \"#utility.yul\":5035:5041   */\n      dup5\n        /* \"#utility.yul\":5030:5033   */\n      dup5\n        /* \"#utility.yul\":5026:5042   */\n      add\n        /* \"#utility.yul\":5023:5048   */\n      gt\n        /* \"#utility.yul\":5020:5132   */\n      iszero\n      tag_496\n      jumpi\n        /* \"#utility.yul\":5051:5130   */\n      tag_497\n      tag_362\n      jump\t// in\n    tag_497:\n        /* \"#utility.yul\":5020:5132   */\n    tag_496:\n        /* \"#utility.yul\":5141:5195   */\n      tag_498\n        /* \"#utility.yul\":5188:5194   */\n      dup5\n        /* \"#utility.yul\":5183:5186   */\n      dup3\n        /* \"#utility.yul\":5178:5181   */\n      dup6\n        /* \"#utility.yul\":5141:5195   */\n      tag_367\n      jump\t// in\n    tag_498:\n        /* \"#utility.yul\":4860:5201   */\n      pop\n        /* \"#utility.yul\":4776:5201   */\n      swap4\n      swap3\n      pop\n      pop\n      pop\n      jump\t// out\n        /* \"#utility.yul\":5221:5561   */\n    tag_369:\n        /* \"#utility.yul\":5277:5282   */\n      0x00\n        /* \"#utility.yul\":5326:5329   */\n      dup3\n        /* \"#utility.yul\":5319:5323   */\n      0x1f\n        /* \"#utility.yul\":5311:5317   */\n      dup4\n        /* \"#utility.yul\":5307:5324   */\n      add\n        /* \"#utility.yul\":5303:5330   */\n      slt\n        /* \"#utility.yul\":5293:5415   */\n      tag_500\n      jumpi\n        /* \"#utility.yul\":5334:5413   */\n      tag_501\n      tag_361\n      jump\t// in\n    tag_501:\n        /* \"#utility.yul\":5293:5415   */\n    tag_500:\n        /* \"#utility.yul\":5451:5457   */\n      dup2\n        /* \"#utility.yul\":5438:5458   */\n      calldataload\n        /* \"#utility.yul\":5476:5555   */\n      tag_502\n        /* \"#utility.yul\":5551:5554   */\n      dup5\n        /* \"#utility.yul\":5543:5549   */\n      dup3\n        /* \"#utility.yul\":5536:5540   */\n      0x20\n        /* \"#utility.yul\":5528:5534   */\n      dup7\n        /* \"#utility.yul\":5524:5541   */\n      add\n        /* \"#utility.yul\":5476:5555   */\n      tag_368\n      jump\t// in\n    tag_502:\n        /* \"#utility.yul\":5467:5555   */\n      swap2\n      pop\n        /* \"#utility.yul\":5283:5561   */\n      pop\n        /* \"#utility.yul\":5221:5561   */\n      swap3\n      swap2\n      pop\n      pop\n      jump\t// out\n        /* \"#utility.yul\":5567:6401   */\n    tag_52:\n        /* \"#utility.yul\":5655:5661   */\n      0x00\n        /* \"#utility.yul\":5663:5669   */\n      0x00\n        /* \"#utility.yul\":5712:5714   */\n      0x40\n        /* \"#utility.yul\":5700:5709   */\n      dup4\n        /* \"#utility.yul\":5691:5698   */\n      dup6\n        /* \"#utility.yul\":5687:5710   */\n      sub\n        /* \"#utility.yul\":5683:5715   */\n      slt\n        /* \"#utility.yul\":5680:5799   */\n      iszero\n      tag_504\n      jumpi\n        /* \"#utility.yul\":5718:5797   */\n      tag_505\n      tag_346\n      jump\t// in\n    tag_505:\n        /* \"#utility.yul\":5680:5799   */\n    tag_504:\n        /* \"#utility.yul\":5866:5867   */\n      0x00\n        /* \"#utility.yul\":5855:5864   */\n      dup4\n        /* \"#utility.yul\":5851:5868   */\n      add\n        /* \"#utility.yul\":5838:5869   */\n      calldataload\n        /* \"#utility.yul\":5896:5914   */\n      0xffffffffffffffff\n        /* \"#utility.yul\":5888:5894   */\n      dup2\n        /* \"#utility.yul\":5885:5915   */\n      gt\n        /* \"#utility.yul\":5882:5999   */\n      iszero\n      tag_506\n      jumpi\n        /* \"#utility.yul\":5918:5997   */\n      tag_507\n      tag_347\n      jump\t// in\n    tag_507:\n        /* \"#utility.yul\":5882:5999   */\n    tag_506:\n        /* \"#utility.yul\":6023:6086   */\n      tag_508\n        /* \"#utility.yul\":6078:6085   */\n      dup6\n        /* \"#utility.yul\":6069:6075   */\n      dup3\n        /* \"#utility.yul\":6058:6067   */\n      dup7\n        /* \"#utility.yul\":6054:6076   */\n      add\n        /* \"#utility.yul\":6023:6086   */\n      tag_369\n      jump\t// in\n    tag_508:\n        /* \"#utility.yul\":6013:6086   */\n      swap3\n      pop\n        /* \"#utility.yul\":5809:6096   */\n      pop\n        /* \"#utility.yul\":6163:6165   */\n      0x20\n        /* \"#utility.yul\":6152:6161   */\n      dup4\n        /* \"#utility.yul\":6148:6166   */\n      add\n        /* \"#utility.yul\":6135:6167   */\n      calldataload\n        /* \"#utility.yul\":6194:6212   */\n      0xffffffffffffffff\n        /* \"#utility.yul\":6186:6192   */\n      dup2\n        /* \"#utility.yul\":6183:6213   */\n      gt\n        /* \"#utility.yul\":6180:6297   */\n      iszero\n      tag_509\n      jumpi\n        /* \"#utility.yul\":6216:6295   */\n      tag_510\n      tag_347\n      jump\t// in\n    tag_510:\n        /* \"#utility.yul\":6180:6297   */\n    tag_509:\n        /* \"#utility.yul\":6321:6384   */\n      tag_511\n        /* \"#utility.yul\":6376:6383   */\n      dup6\n        /* \"#utility.yul\":6367:6373   */\n      dup3\n        /* \"#utility.yul\":6356:6365   */\n      dup7\n        /* \"#utility.yul\":6352:6374   */\n      add\n        /* \"#utility.yul\":6321:6384   */\n      tag_369\n      jump\t// in\n    tag_511:\n        /* \"#utility.yul\":6311:6384   */\n      swap2\n      pop\n        /* \"#utility.yul\":6106:6394   */\n      pop\n        /* \"#utility.yul\":5567:6401   */\n      swap3\n      pop\n      swap3\n      swap1\n      pop\n      jump\t// out\n        /* \"#utility.yul\":6407:6525   */\n    tag_370:\n        /* \"#utility.yul\":6494:6518   */\n      tag_513\n        /* \"#utility.yul\":6512:6517   */\n      dup2\n        /* \"#utility.yul\":6494:6518   */\n      tag_352\n      jump\t// in\n    tag_513:\n        /* \"#utility.yul\":6489:6492   */\n      dup3\n        /* \"#utility.yul\":6482:6519   */\n      mstore\n        /* \"#utility.yul\":6407:6525   */\n      pop\n      pop\n      jump\t// out\n        /* \"#utility.yul\":6531:6753   */\n    tag_61:\n        /* \"#utility.yul\":6624:6628   */\n      0x00\n        /* \"#utility.yul\":6662:6664   */\n      0x20\n        /* \"#utility.yul\":6651:6660   */\n      dup3\n        /* \"#utility.yul\":6647:6665   */\n      add\n        /* \"#utility.yul\":6639:6665   */\n      swap1\n      pop\n        /* \"#utility.yul\":6675:6746   */\n      tag_515\n        /* \"#utility.yul\":6743:6744   */\n      0x00\n        /* \"#utility.yul\":6732:6741   */\n      dup4\n        /* \"#utility.yul\":6728:6745   */\n      add\n        /* \"#utility.yul\":6719:6725   */\n      dup5\n        /* \"#utility.yul\":6675:6746   */\n      tag_370\n      jump\t// in\n    tag_515:\n        /* \"#utility.yul\":6531:6753   */\n      swap3\n      swap2\n      pop\n      pop\n      jump\t// out\n        /* \"#utility.yul\":6759:6939   */\n    tag_92:\n        /* \"#utility.yul\":6807:6884   */\n      0x4e487b7100000000000000000000000000000000000000000000000000000000\n        /* \"#utility.yul\":6804:6805   */\n      0x00\n        /* \"#utility.yul\":6797:6885   */\n      mstore\n        /* \"#utility.yul\":6904:6908   */\n      0x21\n        /* \"#utility.yul\":6901:6902   */\n      0x04\n        /* \"#utility.yul\":6894:6909   */\n      mstore\n        /* \"#utility.yul\":6928:6932   */\n      0x24\n        /* \"#utility.yul\":6925:6926   */\n      0x00\n        /* \"#utility.yul\":6918:6933   */\n      revert\n        /* \"#utility.yul\":6945:7068   */\n    tag_371:\n        /* \"#utility.yul\":7036:7037   */\n      0x06\n        /* \"#utility.yul\":7029:7034   */\n      dup2\n        /* \"#utility.yul\":7026:7038   */\n      lt\n        /* \"#utility.yul\":7016:7062   */\n      tag_518\n      jumpi\n        /* \"#utility.yul\":7042:7060   */\n      tag_519\n      tag_92\n      jump\t// in\n    tag_519:\n        /* \"#utility.yul\":7016:7062   */\n    tag_518:\n        /* \"#utility.yul\":6945:7068   */\n      pop\n      jump\t// out\n        /* \"#utility.yul\":7074:7221   */\n    tag_372:\n        /* \"#utility.yul\":7129:7136   */\n      0x00\n        /* \"#utility.yul\":7158:7163   */\n      dup2\n        /* \"#utility.yul\":7147:7163   */\n      swap1\n      pop\n        /* \"#utility.yul\":7164:7215   */\n      tag_521\n        /* \"#utility.yul\":7209:7214   */\n      dup3\n        /* \"#utility.yul\":7164:7215   */\n      tag_371\n      jump\t// in\n    tag_521:\n        /* \"#utility.yul\":7074:7221   */\n      swap2\n      swap1\n      pop\n      jump\t// out\n        /* \"#utility.yul\":7227:7374   */\n    tag_373:\n        /* \"#utility.yul\":7293:7302   */\n      0x00\n        /* \"#utility.yul\":7326:7368   */\n      tag_523\n        /* \"#utility.yul\":7362:7367   */\n      dup3\n        /* \"#utility.yul\":7326:7368   */\n      tag_372\n      jump\t// in\n    tag_523:\n        /* \"#utility.yul\":7313:7368   */\n      swap1\n      pop\n        /* \"#utility.yul\":7227:7374   */\n      swap2\n      swap1\n      pop\n      jump\t// out\n        /* \"#utility.yul\":7380:7543   */\n    tag_374:\n        /* \"#utility.yul\":7483:7536   */\n      tag_525\n        /* \"#utility.yul\":7530:7535   */\n      dup2\n        /* \"#utility.yul\":7483:7536   */\n      tag_373\n      jump\t// in\n    tag_525:\n        /* \"#utility.yul\":7478:7481   */\n      dup3\n        /* \"#utility.yul\":7471:7537   */\n      mstore\n        /* \"#utility.yul\":7380:7543   */\n      pop\n      pop\n      jump\t// out\n        /* \"#utility.yul\":7549:7803   */\n    tag_65:\n        /* \"#utility.yul\":7658:7662   */\n      0x00\n        /* \"#utility.yul\":7696:7698   */\n      0x20\n        /* \"#utility.yul\":7685:7694   */\n      dup3\n        /* \"#utility.yul\":7681:7699   */\n      add\n        /* \"#utility.yul\":7673:7699   */\n      swap1\n      pop\n        /* \"#utility.yul\":7709:7796   */\n      tag_527\n        /* \"#utility.yul\":7793:7794   */\n      0x00\n        /* \"#utility.yul\":7782:7791   */\n      dup4\n        /* \"#utility.yul\":7778:7795   */\n      add\n        /* \"#utility.yul\":7769:7775   */\n      dup5\n        /* \"#utility.yul\":7709:7796   */\n      tag_374\n      jump\t// in\n    tag_527:\n        /* \"#utility.yul\":7549:7803   */\n      swap3\n      swap2\n      pop\n      pop\n      jump\t// out\n        /* \"#utility.yul\":7809:8318   */\n    tag_68:\n        /* \"#utility.yul\":7878:7884   */\n      0x00\n        /* \"#utility.yul\":7927:7929   */\n      0x20\n        /* \"#utility.yul\":7915:7924   */\n      dup3\n        /* \"#utility.yul\":7906:7913   */\n      dup5\n        /* \"#utility.yul\":7902:7925   */\n      sub\n        /* \"#utility.yul\":7898:7930   */\n      slt\n        /* \"#utility.yul\":7895:8014   */\n      iszero\n      tag_529\n      jumpi\n        /* \"#utility.yul\":7933:8012   */\n      tag_530\n      tag_346\n      jump\t// in\n    tag_530:\n        /* \"#utility.yul\":7895:8014   */\n    tag_529:\n        /* \"#utility.yul\":8081:8082   */\n      0x00\n        /* \"#utility.yul\":8070:8079   */\n      dup3\n        /* \"#utility.yul\":8066:8083   */\n      add\n        /* \"#utility.yul\":8053:8084   */\n      calldataload\n        /* \"#utility.yul\":8111:8129   */\n      0xffffffffffffffff\n        /* \"#utility.yul\":8103:8109   */\n      dup2\n        /* \"#utility.yul\":8100:8130   */\n      gt\n        /* \"#utility.yul\":8097:8214   */\n      iszero\n      tag_531\n      jumpi\n        /* \"#utility.yul\":8133:8212   */\n      tag_532\n      tag_347\n      jump\t// in\n    tag_532:\n        /* \"#utility.yul\":8097:8214   */\n    tag_531:\n        /* \"#utility.yul\":8238:8301   */\n      tag_533\n        /* \"#utility.yul\":8293:8300   */\n      dup5\n        /* \"#utility.yul\":8284:8290   */\n      dup3\n        /* \"#utility.yul\":8273:8282   */\n      dup6\n        /* \"#utility.yul\":8269:8291   */\n      add\n        /* \"#utility.yul\":8238:8301   */\n      tag_369\n      jump\t// in\n    tag_533:\n        /* \"#utility.yul\":8228:8301   */\n      swap2\n      pop\n        /* \"#utility.yul\":8024:8311   */\n      pop\n        /* \"#utility.yul\":7809:8318   */\n      swap3\n      swap2\n      pop\n      pop\n      jump\t// out\n        /* \"#utility.yul\":8324:8483   */\n    tag_375:\n        /* \"#utility.yul\":8398:8409   */\n      0x00\n        /* \"#utility.yul\":8432:8438   */\n      dup3\n        /* \"#utility.yul\":8427:8430   */\n      dup3\n        /* \"#utility.yul\":8420:8439   */\n      mstore\n        /* \"#utility.yul\":8472:8476   */\n      0x20\n        /* \"#utility.yul\":8467:8470   */\n      dup3\n        /* \"#utility.yul\":8463:8477   */\n      add\n        /* \"#utility.yul\":8448:8477   */\n      swap1\n      pop\n        /* \"#utility.yul\":8324:8483   */\n      swap3\n      swap2\n      pop\n      pop\n      jump\t// out\n        /* \"#utility.yul\":8489:8846   */\n    tag_376:\n        /* \"#utility.yul\":8567:8570   */\n      0x00\n        /* \"#utility.yul\":8595:8634   */\n      tag_536\n        /* \"#utility.yul\":8628:8633   */\n      dup3\n        /* \"#utility.yul\":8595:8634   */\n      tag_356\n      jump\t// in\n    tag_536:\n        /* \"#utility.yul\":8650:8711   */\n      tag_537\n        /* \"#utility.yul\":8704:8710   */\n      dup2\n        /* \"#utility.yul\":8699:8702   */\n      dup6\n        /* \"#utility.yul\":8650:8711   */\n      tag_375\n      jump\t// in\n    tag_537:\n        /* \"#utility.yul\":8643:8711   */\n      swap4\n      pop\n        /* \"#utility.yul\":8720:8785   */\n      tag_538\n        /* \"#utility.yul\":8778:8784   */\n      dup2\n        /* \"#utility.yul\":8773:8776   */\n      dup6\n        /* \"#utility.yul\":8766:8770   */\n      0x20\n        /* \"#utility.yul\":8759:8764   */\n      dup7\n        /* \"#utility.yul\":8755:8771   */\n      add\n        /* \"#utility.yul\":8720:8785   */\n      tag_358\n      jump\t// in\n    tag_538:\n        /* \"#utility.yul\":8810:8839   */\n      tag_539\n        /* \"#utility.yul\":8832:8838   */\n      dup2\n        /* \"#utility.yul\":8810:8839   */\n      tag_359\n      jump\t// in\n    tag_539:\n        /* \"#utility.yul\":8805:8808   */\n      dup5\n        /* \"#utility.yul\":8801:8840   */\n      add\n        /* \"#utility.yul\":8794:8840   */\n      swap2\n      pop\n        /* \"#utility.yul\":8571:8846   */\n      pop\n        /* \"#utility.yul\":8489:8846   */\n      swap3\n      swap2\n      pop\n      pop\n      jump\t// out\n        /* \"#utility.yul\":8852:8960   */\n    tag_377:\n        /* \"#utility.yul\":8929:8953   */\n      tag_541\n        /* \"#utility.yul\":8947:8952   */\n      dup2\n        /* \"#utility.yul\":8929:8953   */\n      tag_348\n      jump\t// in\n    tag_541:\n        /* \"#utility.yul\":8924:8927   */\n      dup3\n        /* \"#utility.yul\":8917:8954   */\n      mstore\n        /* \"#utility.yul\":8852:8960   */\n      pop\n      pop\n      jump\t// out\n        /* \"#utility.yul\":9022:9640   */\n    tag_378:\n        /* \"#utility.yul\":9141:9144   */\n      0x00\n        /* \"#utility.yul\":9177:9181   */\n      0x40\n        /* \"#utility.yul\":9172:9175   */\n      dup4\n        /* \"#utility.yul\":9168:9182   */\n      add\n        /* \"#utility.yul\":9271:9275   */\n      0x00\n        /* \"#utility.yul\":9264:9269   */\n      dup4\n        /* \"#utility.yul\":9260:9276   */\n      add\n        /* \"#utility.yul\":9254:9277   */\n      mload\n        /* \"#utility.yul\":9324:9327   */\n      dup5\n        /* \"#utility.yul\":9318:9322   */\n      dup3\n        /* \"#utility.yul\":9314:9328   */\n      sub\n        /* \"#utility.yul\":9307:9311   */\n      0x00\n        /* \"#utility.yul\":9302:9305   */\n      dup7\n        /* \"#utility.yul\":9298:9312   */\n      add\n        /* \"#utility.yul\":9291:9329   */\n      mstore\n        /* \"#utility.yul\":9350:9423   */\n      tag_543\n        /* \"#utility.yul\":9418:9422   */\n      dup3\n        /* \"#utility.yul\":9404:9416   */\n      dup3\n        /* \"#utility.yul\":9350:9423   */\n      tag_376\n      jump\t// in\n    tag_543:\n        /* \"#utility.yul\":9342:9423   */\n      swap2\n      pop\n        /* \"#utility.yul\":9192:9434   */\n      pop\n        /* \"#utility.yul\":9521:9525   */\n      0x20\n        /* \"#utility.yul\":9514:9519   */\n      dup4\n        /* \"#utility.yul\":9510:9526   */\n      add\n        /* \"#utility.yul\":9504:9527   */\n      mload\n        /* \"#utility.yul\":9540:9603   */\n      tag_544\n        /* \"#utility.yul\":9597:9601   */\n      0x20\n        /* \"#utility.yul\":9592:9595   */\n      dup7\n        /* \"#utility.yul\":9588:9602   */\n      add\n        /* \"#utility.yul\":9574:9586   */\n      dup3\n        /* \"#utility.yul\":9540:9603   */\n      tag_377\n      jump\t// in\n    tag_544:\n        /* \"#utility.yul\":9444:9613   */\n      pop\n        /* \"#utility.yul\":9630:9634   */\n      dup1\n        /* \"#utility.yul\":9623:9634   */\n      swap2\n      pop\n        /* \"#utility.yul\":9146:9640   */\n      pop\n        /* \"#utility.yul\":9022:9640   */\n      swap3\n      swap2\n      pop\n      pop\n      jump\t// out\n        /* \"#utility.yul\":9646:10019   */\n    tag_78:\n        /* \"#utility.yul\":9789:9793   */\n      0x00\n        /* \"#utility.yul\":9827:9829   */\n      0x20\n        /* \"#utility.yul\":9816:9825   */\n      dup3\n        /* \"#utility.yul\":9812:9830   */\n      add\n        /* \"#utility.yul\":9804:9830   */\n      swap1\n      pop\n        /* \"#utility.yul\":9876:9885   */\n      dup2\n        /* \"#utility.yul\":9870:9874   */\n      dup2\n        /* \"#utility.yul\":9866:9886   */\n      sub\n        /* \"#utility.yul\":9862:9863   */\n      0x00\n        /* \"#utility.yul\":9851:9860   */\n      dup4\n        /* \"#utility.yul\":9847:9864   */\n      add\n        /* \"#utility.yul\":9840:9887   */\n      mstore\n        /* \"#utility.yul\":9904:10012   */\n      tag_546\n        /* \"#utility.yul\":10007:10011   */\n      dup2\n        /* \"#utility.yul\":9998:10004   */\n      dup5\n        /* \"#utility.yul\":9904:10012   */\n      tag_378\n      jump\t// in\n    tag_546:\n        /* \"#utility.yul\":9896:10012   */\n      swap1\n      pop\n        /* \"#utility.yul\":9646:10019   */\n      swap3\n      swap2\n      pop\n      pop\n      jump\t// out\n        /* \"#utility.yul\":10025:10245   */\n    tag_379:\n        /* \"#utility.yul\":10165:10199   */\n      0x54686520766f74696e672073657373696f6e206973206e6f7420737461727465\n        /* \"#utility.yul\":10161:10162   */\n      0x00\n        /* \"#utility.yul\":10153:10159   */\n      dup3\n        /* \"#utility.yul\":10149:10163   */\n      add\n        /* \"#utility.yul\":10142:10200   */\n      mstore\n        /* \"#utility.yul\":10234:10237   */\n      0x6400000000000000000000000000000000000000000000000000000000000000\n        /* \"#utility.yul\":10229:10231   */\n      0x20\n        /* \"#utility.yul\":10221:10227   */\n      dup3\n        /* \"#utility.yul\":10217:10232   */\n      add\n        /* \"#utility.yul\":10210:10238   */\n      mstore\n        /* \"#utility.yul\":10025:10245   */\n      pop\n      jump\t// out\n        /* \"#utility.yul\":10251:10617   */\n    tag_380:\n        /* \"#utility.yul\":10393:10396   */\n      0x00\n        /* \"#utility.yul\":10414:10481   */\n      tag_549\n        /* \"#utility.yul\":10478:10480   */\n      0x21\n        /* \"#utility.yul\":10473:10476   */\n      dup4\n        /* \"#utility.yul\":10414:10481   */\n      tag_357\n      jump\t// in\n    tag_549:\n        /* \"#utility.yul\":10407:10481   */\n      swap2\n      pop\n        /* \"#utility.yul\":10490:10583   */\n      tag_550\n        /* \"#utility.yul\":10579:10582   */\n      dup3\n        /* \"#utility.yul\":10490:10583   */\n      tag_379\n      jump\t// in\n    tag_550:\n        /* \"#utility.yul\":10608:10610   */\n      0x40\n        /* \"#utility.yul\":10603:10606   */\n      dup3\n        /* \"#utility.yul\":10599:10611   */\n      add\n        /* \"#utility.yul\":10592:10611   */\n      swap1\n      pop\n        /* \"#utility.yul\":10251:10617   */\n      swap2\n      swap1\n      pop\n      jump\t// out\n        /* \"#utility.yul\":10623:11042   */\n    tag_97:\n        /* \"#utility.yul\":10789:10793   */\n      0x00\n        /* \"#utility.yul\":10827:10829   */\n      0x20\n        /* \"#utility.yul\":10816:10825   */\n      dup3\n        /* \"#utility.yul\":10812:10830   */\n      add\n        /* \"#utility.yul\":10804:10830   */\n      swap1\n      pop\n        /* \"#utility.yul\":10876:10885   */\n      dup2\n        /* \"#utility.yul\":10870:10874   */\n      dup2\n        /* \"#utility.yul\":10866:10886   */\n      sub\n        /* \"#utility.yul\":10862:10863   */\n      0x00\n        /* \"#utility.yul\":10851:10860   */\n      dup4\n        /* \"#utility.yul\":10847:10864   */\n      add\n        /* \"#utility.yul\":10840:10887   */\n      mstore\n        /* \"#utility.yul\":10904:11035   */\n      tag_552\n        /* \"#utility.yul\":11030:11034   */\n      dup2\n        /* \"#utility.yul\":10904:11035   */\n      tag_380\n      jump\t// in\n    tag_552:\n        /* \"#utility.yul\":10896:11035   */\n      swap1\n      pop\n        /* \"#utility.yul\":10623:11042   */\n      swap2\n      swap1\n      pop\n      jump\t// out\n        /* \"#utility.yul\":11048:11287   */\n    tag_381:\n        /* \"#utility.yul\":11188:11222   */\n      0x596f752061726520746865206f776e6572206f66207468697320636f6e747261\n        /* \"#utility.yul\":11184:11185   */\n      0x00\n        /* \"#utility.yul\":11176:11182   */\n      dup3\n        /* \"#utility.yul\":11172:11186   */\n      add\n        /* \"#utility.yul\":11165:11223   */\n      mstore\n        /* \"#utility.yul\":11257:11279   */\n      0x63742c20796f752063616e206e6f7420766f7465000000000000000000000000\n        /* \"#utility.yul\":11252:11254   */\n      0x20\n        /* \"#utility.yul\":11244:11250   */\n      dup3\n        /* \"#utility.yul\":11240:11255   */\n      add\n        /* \"#utility.yul\":11233:11280   */\n      mstore\n        /* \"#utility.yul\":11048:11287   */\n      pop\n      jump\t// out\n        /* \"#utility.yul\":11293:11659   */\n    tag_382:\n        /* \"#utility.yul\":11435:11438   */\n      0x00\n        /* \"#utility.yul\":11456:11523   */\n      tag_555\n        /* \"#utility.yul\":11520:11522   */\n      0x34\n        /* \"#utility.yul\":11515:11518   */\n      dup4\n        /* \"#utility.yul\":11456:11523   */\n      tag_357\n      jump\t// in\n    tag_555:\n        /* \"#utility.yul\":11449:11523   */\n      swap2\n      pop\n        /* \"#utility.yul\":11532:11625   */\n      tag_556\n        /* \"#utility.yul\":11621:11624   */\n      dup3\n        /* \"#utility.yul\":11532:11625   */\n      tag_381\n      jump\t// in\n    tag_556:\n        /* \"#utility.yul\":11650:11652   */\n      0x40\n        /* \"#utility.yul\":11645:11648   */\n      dup3\n        /* \"#utility.yul\":11641:11653   */\n      add\n        /* \"#utility.yul\":11634:11653   */\n      swap1\n      pop\n        /* \"#utility.yul\":11293:11659   */\n      swap2\n      swap1\n      pop\n      jump\t// out\n        /* \"#utility.yul\":11665:12084   */\n    tag_101:\n        /* \"#utility.yul\":11831:11835   */\n      0x00\n        /* \"#utility.yul\":11869:11871   */\n      0x20\n        /* \"#utility.yul\":11858:11867   */\n      dup3\n        /* \"#utility.yul\":11854:11872   */\n      add\n        /* \"#utility.yul\":11846:11872   */\n      swap1\n      pop\n        /* \"#utility.yul\":11918:11927   */\n      dup2\n        /* \"#utility.yul\":11912:11916   */\n      dup2\n        /* \"#utility.yul\":11908:11928   */\n      sub\n        /* \"#utility.yul\":11904:11905   */\n      0x00\n        /* \"#utility.yul\":11893:11902   */\n      dup4\n        /* \"#utility.yul\":11889:11906   */\n      add\n        /* \"#utility.yul\":11882:11929   */\n      mstore\n        /* \"#utility.yul\":11946:12077   */\n      tag_558\n        /* \"#utility.yul\":12072:12076   */\n      dup2\n        /* \"#utility.yul\":11946:12077   */\n      tag_382\n      jump\t// in\n    tag_558:\n        /* \"#utility.yul\":11938:12077   */\n      swap1\n      pop\n        /* \"#utility.yul\":11665:12084   */\n      swap2\n      swap1\n      pop\n      jump\t// out\n        /* \"#utility.yul\":12090:12262   */\n    tag_383:\n        /* \"#utility.yul\":12230:12254   */\n      0x596f7520617265206e6f74207265676973746572656400000000000000000000\n        /* \"#utility.yul\":12226:12227   */\n      0x00\n        /* \"#utility.yul\":12218:12224   */\n      dup3\n        /* \"#utility.yul\":12214:12228   */\n      add\n        /* \"#utility.yul\":12207:12255   */\n      mstore\n        /* \"#utility.yul\":12090:12262   */\n      pop\n      jump\t// out\n        /* \"#utility.yul\":12268:12634   */\n    tag_384:\n        /* \"#utility.yul\":12410:12413   */\n      0x00\n        /* \"#utility.yul\":12431:12498   */\n      tag_561\n        /* \"#utility.yul\":12495:12497   */\n      0x16\n        /* \"#utility.yul\":12490:12493   */\n      dup4\n        /* \"#utility.yul\":12431:12498   */\n      tag_357\n      jump\t// in\n    tag_561:\n        /* \"#utility.yul\":12424:12498   */\n      swap2\n      pop\n        /* \"#utility.yul\":12507:12600   */\n      tag_562\n        /* \"#utility.yul\":12596:12599   */\n      dup3\n        /* \"#utility.yul\":12507:12600   */\n      tag_383\n      jump\t// in\n    tag_562:\n        /* \"#utility.yul\":12625:12627   */\n      0x20\n        /* \"#utility.yul\":12620:12623   */\n      dup3\n        /* \"#utility.yul\":12616:12628   */\n      add\n        /* \"#utility.yul\":12609:12628   */\n      swap1\n      pop\n        /* \"#utility.yul\":12268:12634   */\n      swap2\n      swap1\n      pop\n      jump\t// out\n        /* \"#utility.yul\":12640:13059   */\n    tag_104:\n        /* \"#utility.yul\":12806:12810   */\n      0x00\n        /* \"#utility.yul\":12844:12846   */\n      0x20\n        /* \"#utility.yul\":12833:12842   */\n      dup3\n        /* \"#utility.yul\":12829:12847   */\n      add\n        /* \"#utility.yul\":12821:12847   */\n      swap1\n      pop\n        /* \"#utility.yul\":12893:12902   */\n      dup2\n        /* \"#utility.yul\":12887:12891   */\n      dup2\n        /* \"#utility.yul\":12883:12903   */\n      sub\n        /* \"#utility.yul\":12879:12880   */\n      0x00\n        /* \"#utility.yul\":12868:12877   */\n      dup4\n        /* \"#utility.yul\":12864:12881   */\n      add\n        /* \"#utility.yul\":12857:12904   */\n      mstore\n        /* \"#utility.yul\":12921:13052   */\n      tag_564\n        /* \"#utility.yul\":13047:13051   */\n      dup2\n        /* \"#utility.yul\":12921:13052   */\n      tag_384\n      jump\t// in\n    tag_564:\n        /* \"#utility.yul\":12913:13052   */\n      swap1\n      pop\n        /* \"#utility.yul\":12640:13059   */\n      swap2\n      swap1\n      pop\n      jump\t// out\n        /* \"#utility.yul\":13065:13245   */\n    tag_385:\n        /* \"#utility.yul\":13113:13190   */\n      0x4e487b7100000000000000000000000000000000000000000000000000000000\n        /* \"#utility.yul\":13110:13111   */\n      0x00\n        /* \"#utility.yul\":13103:13191   */\n      mstore\n        /* \"#utility.yul\":13210:13214   */\n      0x11\n        /* \"#utility.yul\":13207:13208   */\n      0x04\n        /* \"#utility.yul\":13200:13215   */\n      mstore\n        /* \"#utility.yul\":13234:13238   */\n      0x24\n        /* \"#utility.yul\":13231:13232   */\n      0x00\n        /* \"#utility.yul\":13224:13239   */\n      revert\n        /* \"#utility.yul\":13251:13442   */\n    tag_106:\n        /* \"#utility.yul\":13291:13294   */\n      0x00\n        /* \"#utility.yul\":13310:13330   */\n      tag_567\n        /* \"#utility.yul\":13328:13329   */\n      dup3\n        /* \"#utility.yul\":13310:13330   */\n      tag_348\n      jump\t// in\n    tag_567:\n        /* \"#utility.yul\":13305:13330   */\n      swap2\n      pop\n        /* \"#utility.yul\":13344:13364   */\n      tag_568\n        /* \"#utility.yul\":13362:13363   */\n      dup4\n        /* \"#utility.yul\":13344:13364   */\n      tag_348\n      jump\t// in\n    tag_568:\n        /* \"#utility.yul\":13339:13364   */\n      swap3\n      pop\n        /* \"#utility.yul\":13387:13388   */\n      dup3\n        /* \"#utility.yul\":13384:13385   */\n      dup3\n        /* \"#utility.yul\":13380:13389   */\n      add\n        /* \"#utility.yul\":13373:13389   */\n      swap1\n      pop\n        /* \"#utility.yul\":13408:13411   */\n      dup1\n        /* \"#utility.yul\":13405:13406   */\n      dup3\n        /* \"#utility.yul\":13402:13412   */\n      gt\n        /* \"#utility.yul\":13399:13435   */\n      iszero\n      tag_569\n      jumpi\n        /* \"#utility.yul\":13415:13433   */\n      tag_570\n      tag_385\n      jump\t// in\n    tag_570:\n        /* \"#utility.yul\":13399:13435   */\n    tag_569:\n        /* \"#utility.yul\":13251:13442   */\n      swap3\n      swap2\n      pop\n      pop\n      jump\t// out\n        /* \"#utility.yul\":13448:13630   */\n    tag_386:\n        /* \"#utility.yul\":13588:13622   */\n      0x546869732070726f706f73616c20494420646f6573206e6f7420657869737473\n        /* \"#utility.yul\":13584:13585   */\n      0x00\n        /* \"#utility.yul\":13576:13582   */\n      dup3\n        /* \"#utility.yul\":13572:13586   */\n      add\n        /* \"#utility.yul\":13565:13623   */\n      mstore\n        /* \"#utility.yul\":13448:13630   */\n      pop\n      jump\t// out\n        /* \"#utility.yul\":13636:14002   */\n    tag_387:\n        /* \"#utility.yul\":13778:13781   */\n      0x00\n        /* \"#utility.yul\":13799:13866   */\n      tag_573\n        /* \"#utility.yul\":13863:13865   */\n      0x20\n        /* \"#utility.yul\":13858:13861   */\n      dup4\n        /* \"#utility.yul\":13799:13866   */\n      tag_357\n      jump\t// in\n    tag_573:\n        /* \"#utility.yul\":13792:13866   */\n      swap2\n      pop\n        /* \"#utility.yul\":13875:13968   */\n      tag_574\n        /* \"#utility.yul\":13964:13967   */\n      dup3\n        /* \"#utility.yul\":13875:13968   */\n      tag_386\n      jump\t// in\n    tag_574:\n        /* \"#utility.yul\":13993:13995   */\n      0x20\n        /* \"#utility.yul\":13988:13991   */\n      dup3\n        /* \"#utility.yul\":13984:13996   */\n      add\n        /* \"#utility.yul\":13977:13996   */\n      swap1\n      pop\n        /* \"#utility.yul\":13636:14002   */\n      swap2\n      swap1\n      pop\n      jump\t// out\n        /* \"#utility.yul\":14008:14427   */\n    tag_109:\n        /* \"#utility.yul\":14174:14178   */\n      0x00\n        /* \"#utility.yul\":14212:14214   */\n      0x20\n        /* \"#utility.yul\":14201:14210   */\n      dup3\n        /* \"#utility.yul\":14197:14215   */\n      add\n        /* \"#utility.yul\":14189:14215   */\n      swap1\n      pop\n        /* \"#utility.yul\":14261:14270   */\n      dup2\n        /* \"#utility.yul\":14255:14259   */\n      dup2\n        /* \"#utility.yul\":14251:14271   */\n      sub\n        /* \"#utility.yul\":14247:14248   */\n      0x00\n        /* \"#utility.yul\":14236:14245   */\n      dup4\n        /* \"#utility.yul\":14232:14249   */\n      add\n        /* \"#utility.yul\":14225:14272   */\n      mstore\n        /* \"#utility.yul\":14289:14420   */\n      tag_576\n        /* \"#utility.yul\":14415:14419   */\n      dup2\n        /* \"#utility.yul\":14289:14420   */\n      tag_387\n      jump\t// in\n    tag_576:\n        /* \"#utility.yul\":14281:14420   */\n      swap1\n      pop\n        /* \"#utility.yul\":14008:14427   */\n      swap2\n      swap1\n      pop\n      jump\t// out\n        /* \"#utility.yul\":14433:14613   */\n    tag_112:\n        /* \"#utility.yul\":14481:14558   */\n      0x4e487b7100000000000000000000000000000000000000000000000000000000\n        /* \"#utility.yul\":14478:14479   */\n      0x00\n        /* \"#utility.yul\":14471:14559   */\n      mstore\n        /* \"#utility.yul\":14578:14582   */\n      0x32\n        /* \"#utility.yul\":14575:14576   */\n      0x04\n        /* \"#utility.yul\":14568:14583   */\n      mstore\n        /* \"#utility.yul\":14602:14606   */\n      0x24\n        /* \"#utility.yul\":14599:14600   */\n      0x00\n        /* \"#utility.yul\":14592:14607   */\n      revert\n        /* \"#utility.yul\":14619:14852   */\n    tag_115:\n        /* \"#utility.yul\":14658:14661   */\n      0x00\n        /* \"#utility.yul\":14681:14705   */\n      tag_579\n        /* \"#utility.yul\":14699:14704   */\n      dup3\n        /* \"#utility.yul\":14681:14705   */\n      tag_348\n      jump\t// in\n    tag_579:\n        /* \"#utility.yul\":14672:14705   */\n      swap2\n      pop\n        /* \"#utility.yul\":14727:14793   */\n      0xffffffffffffffffffffffffffffffffffffffffffffffffffffffffffffffff\n        /* \"#utility.yul\":14720:14725   */\n      dup3\n        /* \"#utility.yul\":14717:14794   */\n      sub\n        /* \"#utility.yul\":14714:14817   */\n      tag_580\n      jumpi\n        /* \"#utility.yul\":14797:14815   */\n      tag_581\n      tag_385\n      jump\t// in\n    tag_581:\n        /* \"#utility.yul\":14714:14817   */\n    tag_580:\n        /* \"#utility.yul\":14844:14845   */\n      0x01\n        /* \"#utility.yul\":14837:14842   */\n      dup3\n        /* \"#utility.yul\":14833:14846   */\n      add\n        /* \"#utility.yul\":14826:14846   */\n      swap1\n      pop\n        /* \"#utility.yul\":14619:14852   */\n      swap2\n      swap1\n      pop\n      jump\t// out\n        /* \"#utility.yul\":14858:15085   */\n    tag_388:\n        /* \"#utility.yul\":14998:15032   */\n      0x596f7520617265206e6f7420696e20766f74657220726567697374726174696f\n        /* \"#utility.yul\":14994:14995   */\n      0x00\n        /* \"#utility.yul\":14986:14992   */\n      dup3\n        /* \"#utility.yul\":14982:14996   */\n      add\n        /* \"#utility.yul\":14975:15033   */\n      mstore\n        /* \"#utility.yul\":15067:15077   */\n      0x6e20706572696f64000000000000000000000000000000000000000000000000\n        /* \"#utility.yul\":15062:15064   */\n      0x20\n        /* \"#utility.yul\":15054:15060   */\n      dup3\n        /* \"#utility.yul\":15050:15065   */\n      add\n        /* \"#utility.yul\":15043:15078   */\n      mstore\n        /* \"#utility.yul\":14858:15085   */\n      pop\n      jump\t// out\n        /* \"#utility.yul\":15091:15457   */\n    tag_389:\n        /* \"#utility.yul\":15233:15236   */\n      0x00\n        /* \"#utility.yul\":15254:15321   */\n      tag_584\n        /* \"#utility.yul\":15318:15320   */\n      0x28\n        /* \"#utility.yul\":15313:15316   */\n      dup4\n        /* \"#utility.yul\":15254:15321   */\n      tag_357\n      jump\t// in\n    tag_584:\n        /* \"#utility.yul\":15247:15321   */\n      swap2\n      pop\n        /* \"#utility.yul\":15330:15423   */\n      tag_585\n        /* \"#utility.yul\":15419:15422   */\n      dup3\n        /* \"#utility.yul\":15330:15423   */\n      tag_388\n      jump\t// in\n    tag_585:\n        /* \"#utility.yul\":15448:15450   */\n      0x40\n        /* \"#utility.yul\":15443:15446   */\n      dup3\n        /* \"#utility.yul\":15439:15451   */\n      add\n        /* \"#utility.yul\":15432:15451   */\n      swap1\n      pop\n        /* \"#utility.yul\":15091:15457   */\n      swap2\n      swap1\n      pop\n      jump\t// out\n        /* \"#utility.yul\":15463:15882   */\n    tag_127:\n        /* \"#utility.yul\":15629:15633   */\n      0x00\n        /* \"#utility.yul\":15667:15669   */\n      0x20\n        /* \"#utility.yul\":15656:15665   */\n      dup3\n        /* \"#utility.yul\":15652:15670   */\n      add\n        /* \"#utility.yul\":15644:15670   */\n      swap1\n      pop\n        /* \"#utility.yul\":15716:15725   */\n      dup2\n        /* \"#utility.yul\":15710:15714   */\n      dup2\n        /* \"#utility.yul\":15706:15726   */\n      sub\n        /* \"#utility.yul\":15702:15703   */\n      0x00\n        /* \"#utility.yul\":15691:15700   */\n      dup4\n        /* \"#utility.yul\":15687:15704   */\n      add\n        /* \"#utility.yul\":15680:15727   */\n      mstore\n        /* \"#utility.yul\":15744:15875   */\n      tag_587\n        /* \"#utility.yul\":15870:15874   */\n      dup2\n        /* \"#utility.yul\":15744:15875   */\n      tag_389\n      jump\t// in\n    tag_587:\n        /* \"#utility.yul\":15736:15875   */\n      swap1\n      pop\n        /* \"#utility.yul\":15463:15882   */\n      swap2\n      swap1\n      pop\n      jump\t// out\n        /* \"#utility.yul\":15888:16070   */\n    tag_390:\n        /* \"#utility.yul\":16028:16062   */\n      0x596f7520616c7265616479206861766520616464207468697320616472657373\n        /* \"#utility.yul\":16024:16025   */\n      0x00\n        /* \"#utility.yul\":16016:16022   */\n      dup3\n        /* \"#utility.yul\":16012:16026   */\n      add\n        /* \"#utility.yul\":16005:16063   */\n      mstore\n        /* \"#utility.yul\":15888:16070   */\n      pop\n      jump\t// out\n        /* \"#utility.yul\":16076:16442   */\n    tag_391:\n        /* \"#utility.yul\":16218:16221   */\n      0x00\n        /* \"#utility.yul\":16239:16306   */\n      tag_590\n        /* \"#utility.yul\":16303:16305   */\n      0x20\n        /* \"#utility.yul\":16298:16301   */\n      dup4\n        /* \"#utility.yul\":16239:16306   */\n      tag_357\n      jump\t// in\n    tag_590:\n        /* \"#utility.yul\":16232:16306   */\n      swap2\n      pop\n        /* \"#utility.yul\":16315:16408   */\n      tag_591\n        /* \"#utility.yul\":16404:16407   */\n      dup3\n        /* \"#utility.yul\":16315:16408   */\n      tag_390\n      jump\t// in\n    tag_591:\n        /* \"#utility.yul\":16433:16435   */\n      0x20\n        /* \"#utility.yul\":16428:16431   */\n      dup3\n        /* \"#utility.yul\":16424:16436   */\n      add\n        /* \"#utility.yul\":16417:16436   */\n      swap1\n      pop\n        /* \"#utility.yul\":16076:16442   */\n      swap2\n      swap1\n      pop\n      jump\t// out\n        /* \"#utility.yul\":16448:16867   */\n    tag_130:\n        /* \"#utility.yul\":16614:16618   */\n      0x00\n        /* \"#utility.yul\":16652:16654   */\n      0x20\n        /* \"#utility.yul\":16641:16650   */\n      dup3\n        /* \"#utility.yul\":16637:16655   */\n      add\n        /* \"#utility.yul\":16629:16655   */\n      swap1\n      pop\n        /* \"#utility.yul\":16701:16710   */\n      dup2\n        /* \"#utility.yul\":16695:16699   */\n      dup2\n        /* \"#utility.yul\":16691:16711   */\n      sub\n        /* \"#utility.yul\":16687:16688   */\n      0x00\n        /* \"#utility.yul\":16676:16685   */\n      dup4\n        /* \"#utility.yul\":16672:16689   */\n      add\n        /* \"#utility.yul\":16665:16712   */\n      mstore\n        /* \"#utility.yul\":16729:16860   */\n      tag_593\n        /* \"#utility.yul\":16855:16859   */\n      dup2\n        /* \"#utility.yul\":16729:16860   */\n      tag_391\n      jump\t// in\n    tag_593:\n        /* \"#utility.yul\":16721:16860   */\n      swap1\n      pop\n        /* \"#utility.yul\":16448:16867   */\n      swap2\n      swap1\n      pop\n      jump\t// out\n        /* \"#utility.yul\":16873:17104   */\n    tag_392:\n        /* \"#utility.yul\":17013:17047   */\n      0x596f752063616e206e6f7420737461727420616761696e207468652070726f70\n        /* \"#utility.yul\":17009:17010   */\n      0x00\n        /* \"#utility.yul\":17001:17007   */\n      dup3\n        /* \"#utility.yul\":16997:17011   */\n      add\n        /* \"#utility.yul\":16990:17048   */\n      mstore\n        /* \"#utility.yul\":17082:17096   */\n      0x6f73616c2073657373696f6e0000000000000000000000000000000000000000\n        /* \"#utility.yul\":17077:17079   */\n      0x20\n        /* \"#utility.yul\":17069:17075   */\n      dup3\n        /* \"#utility.yul\":17065:17080   */\n      add\n        /* \"#utility.yul\":17058:17097   */\n      mstore\n        /* \"#utility.yul\":16873:17104   */\n      pop\n      jump\t// out\n        /* \"#utility.yul\":17110:17476   */\n    tag_393:\n        /* \"#utility.yul\":17252:17255   */\n      0x00\n        /* \"#utility.yul\":17273:17340   */\n      tag_596\n        /* \"#utility.yul\":17337:17339   */\n      0x2c\n        /* \"#utility.yul\":17332:17335   */\n      dup4\n        /* \"#utility.yul\":17273:17340   */\n      tag_357\n      jump\t// in\n    tag_596:\n        /* \"#utility.yul\":17266:17340   */\n      swap2\n      pop\n        /* \"#utility.yul\":17349:17442   */\n      tag_597\n        /* \"#utility.yul\":17438:17441   */\n      dup3\n        /* \"#utility.yul\":17349:17442   */\n      tag_392\n      jump\t// in\n    tag_597:\n        /* \"#utility.yul\":17467:17469   */\n      0x40\n        /* \"#utility.yul\":17462:17465   */\n      dup3\n        /* \"#utility.yul\":17458:17470   */\n      add\n        /* \"#utility.yul\":17451:17470   */\n      swap1\n      pop\n        /* \"#utility.yul\":17110:17476   */\n      swap2\n      swap1\n      pop\n      jump\t// out\n        /* \"#utility.yul\":17482:17901   */\n    tag_143:\n        /* \"#utility.yul\":17648:17652   */\n      0x00\n        /* \"#utility.yul\":17686:17688   */\n      0x20\n        /* \"#utility.yul\":17675:17684   */\n      dup3\n        /* \"#utility.yul\":17671:17689   */\n      add\n        /* \"#utility.yul\":17663:17689   */\n      swap1\n      pop\n        /* \"#utility.yul\":17735:17744   */\n      dup2\n        /* \"#utility.yul\":17729:17733   */\n      dup2\n        /* \"#utility.yul\":17725:17745   */\n      sub\n        /* \"#utility.yul\":17721:17722   */\n      0x00\n        /* \"#utility.yul\":17710:17719   */\n      dup4\n        /* \"#utility.yul\":17706:17723   */\n      add\n        /* \"#utility.yul\":17699:17746   */\n      mstore\n        /* \"#utility.yul\":17763:17894   */\n      tag_599\n        /* \"#utility.yul\":17889:17893   */\n      dup2\n        /* \"#utility.yul\":17763:17894   */\n      tag_393\n      jump\t// in\n    tag_599:\n        /* \"#utility.yul\":17755:17894   */\n      swap1\n      pop\n        /* \"#utility.yul\":17482:17901   */\n      swap2\n      swap1\n      pop\n      jump\t// out\n        /* \"#utility.yul\":17907:18132   */\n    tag_394:\n        /* \"#utility.yul\":18047:18081   */\n      0x596f75206d757374207265676973746572206174206c65617374203220616464\n        /* \"#utility.yul\":18043:18044   */\n      0x00\n        /* \"#utility.yul\":18035:18041   */\n      dup3\n        /* \"#utility.yul\":18031:18045   */\n      add\n        /* \"#utility.yul\":18024:18082   */\n      mstore\n        /* \"#utility.yul\":18116:18124   */\n      0x7265737365730000000000000000000000000000000000000000000000000000\n        /* \"#utility.yul\":18111:18113   */\n      0x20\n        /* \"#utility.yul\":18103:18109   */\n      dup3\n        /* \"#utility.yul\":18099:18114   */\n      add\n        /* \"#utility.yul\":18092:18125   */\n      mstore\n        /* \"#utility.yul\":17907:18132   */\n      pop\n      jump\t// out\n        /* \"#utility.yul\":18138:18504   */\n    tag_395:\n        /* \"#utility.yul\":18280:18283   */\n      0x00\n        /* \"#utility.yul\":18301:18368   */\n      tag_602\n        /* \"#utility.yul\":18365:18367   */\n      0x26\n        /* \"#utility.yul\":18360:18363   */\n      dup4\n        /* \"#utility.yul\":18301:18368   */\n      tag_357\n      jump\t// in\n    tag_602:\n        /* \"#utility.yul\":18294:18368   */\n      swap2\n      pop\n        /* \"#utility.yul\":18377:18470   */\n      tag_603\n        /* \"#utility.yul\":18466:18469   */\n      dup3\n        /* \"#utility.yul\":18377:18470   */\n      tag_394\n      jump\t// in\n    tag_603:\n        /* \"#utility.yul\":18495:18497   */\n      0x40\n        /* \"#utility.yul\":18490:18493   */\n      dup3\n        /* \"#utility.yul\":18486:18498   */\n      add\n        /* \"#utility.yul\":18479:18498   */\n      swap1\n      pop\n        /* \"#utility.yul\":18138:18504   */\n      swap2\n      swap1\n      pop\n      jump\t// out\n        /* \"#utility.yul\":18510:18929   */\n    tag_146:\n        /* \"#utility.yul\":18676:18680   */\n      0x00\n        /* \"#utility.yul\":18714:18716   */\n      0x20\n        /* \"#utility.yul\":18703:18712   */\n      dup3\n        /* \"#utility.yul\":18699:18717   */\n      add\n        /* \"#utility.yul\":18691:18717   */\n      swap1\n      pop\n        /* \"#utility.yul\":18763:18772   */\n      dup2\n        /* \"#utility.yul\":18757:18761   */\n      dup2\n        /* \"#utility.yul\":18753:18773   */\n      sub\n        /* \"#utility.yul\":18749:18750   */\n      0x00\n        /* \"#utility.yul\":18738:18747   */\n      dup4\n        /* \"#utility.yul\":18734:18751   */\n      add\n        /* \"#utility.yul\":18727:18774   */\n      mstore\n        /* \"#utility.yul\":18791:18922   */\n      tag_605\n        /* \"#utility.yul\":18917:18921   */\n      dup2\n        /* \"#utility.yul\":18791:18922   */\n      tag_395\n      jump\t// in\n    tag_605:\n        /* \"#utility.yul\":18783:18922   */\n      swap1\n      pop\n        /* \"#utility.yul\":18510:18929   */\n      swap2\n      swap1\n      pop\n      jump\t// out\n        /* \"#utility.yul\":18935:19331   */\n    tag_155:\n        /* \"#utility.yul\":19088:19092   */\n      0x00\n        /* \"#utility.yul\":19126:19128   */\n      0x40\n        /* \"#utility.yul\":19115:19124   */\n      dup3\n        /* \"#utility.yul\":19111:19129   */\n      add\n        /* \"#utility.yul\":19103:19129   */\n      swap1\n      pop\n        /* \"#utility.yul\":19139:19226   */\n      tag_607\n        /* \"#utility.yul\":19223:19224   */\n      0x00\n        /* \"#utility.yul\":19212:19221   */\n      dup4\n        /* \"#utility.yul\":19208:19225   */\n      add\n        /* \"#utility.yul\":19199:19205   */\n      dup6\n        /* \"#utility.yul\":19139:19226   */\n      tag_374\n      jump\t// in\n    tag_607:\n        /* \"#utility.yul\":19236:19324   */\n      tag_608\n        /* \"#utility.yul\":19320:19322   */\n      0x20\n        /* \"#utility.yul\":19309:19318   */\n      dup4\n        /* \"#utility.yul\":19305:19323   */\n      add\n        /* \"#utility.yul\":19296:19302   */\n      dup5\n        /* \"#utility.yul\":19236:19324   */\n      tag_374\n      jump\t// in\n    tag_608:\n        /* \"#utility.yul\":18935:19331   */\n      swap4\n      swap3\n      pop\n      pop\n      pop\n      jump\t// out\n        /* \"#utility.yul\":19337:19566   */\n    tag_396:\n        /* \"#utility.yul\":19477:19511   */\n      0x546869732061646472657373206973206e6f7420726567697374657265642074\n        /* \"#utility.yul\":19473:19474   */\n      0x00\n        /* \"#utility.yul\":19465:19471   */\n      dup3\n        /* \"#utility.yul\":19461:19475   */\n      add\n        /* \"#utility.yul\":19454:19512   */\n      mstore\n        /* \"#utility.yul\":19546:19558   */\n      0x6f2074686520766f746500000000000000000000000000000000000000000000\n        /* \"#utility.yul\":19541:19543   */\n      0x20\n        /* \"#utility.yul\":19533:19539   */\n      dup3\n        /* \"#utility.yul\":19529:19544   */\n      add\n        /* \"#utility.yul\":19522:19559   */\n      mstore\n        /* \"#utility.yul\":19337:19566   */\n      pop\n      jump\t// out\n        /* \"#utility.yul\":19572:19938   */\n    tag_397:\n        /* \"#utility.yul\":19714:19717   */\n      0x00\n        /* \"#utility.yul\":19735:19802   */\n      tag_611\n        /* \"#utility.yul\":19799:19801   */\n      0x2a\n        /* \"#utility.yul\":19794:19797   */\n      dup4\n        /* \"#utility.yul\":19735:19802   */\n      tag_357\n      jump\t// in\n    tag_611:\n        /* \"#utility.yul\":19728:19802   */\n      swap2\n      pop\n        /* \"#utility.yul\":19811:19904   */\n      tag_612\n        /* \"#utility.yul\":19900:19903   */\n      dup3\n        /* \"#utility.yul\":19811:19904   */\n      tag_396\n      jump\t// in\n    tag_612:\n        /* \"#utility.yul\":19929:19931   */\n      0x40\n        /* \"#utility.yul\":19924:19927   */\n      dup3\n        /* \"#utility.yul\":19920:19932   */\n      add\n        /* \"#utility.yul\":19913:19932   */\n      swap1\n      pop\n        /* \"#utility.yul\":19572:19938   */\n      swap2\n      swap1\n      pop\n      jump\t// out\n        /* \"#utility.yul\":19944:20363   */\n    tag_159:\n        /* \"#utility.yul\":20110:20114   */\n      0x00\n        /* \"#utility.yul\":20148:20150   */\n      0x20\n        /* \"#utility.yul\":20137:20146   */\n      dup3\n        /* \"#utility.yul\":20133:20151   */\n      add\n        /* \"#utility.yul\":20125:20151   */\n      swap1\n      pop\n        /* \"#utility.yul\":20197:20206   */\n      dup2\n        /* \"#utility.yul\":20191:20195   */\n      dup2\n        /* \"#utility.yul\":20187:20207   */\n      sub\n        /* \"#utility.yul\":20183:20184   */\n      0x00\n        /* \"#utility.yul\":20172:20181   */\n      dup4\n        /* \"#utility.yul\":20168:20185   */\n      add\n        /* \"#utility.yul\":20161:20208   */\n      mstore\n        /* \"#utility.yul\":20225:20356   */\n      tag_614\n        /* \"#utility.yul\":20351:20355   */\n      dup2\n        /* \"#utility.yul\":20225:20356   */\n      tag_397\n      jump\t// in\n    tag_614:\n        /* \"#utility.yul\":20217:20356   */\n      swap1\n      pop\n        /* \"#utility.yul\":19944:20363   */\n      swap2\n      swap1\n      pop\n      jump\t// out\n        /* \"#utility.yul\":20369:20549   */\n    tag_398:\n        /* \"#utility.yul\":20417:20494   */\n      0x4e487b7100000000000000000000000000000000000000000000000000000000\n        /* \"#utility.yul\":20414:20415   */\n      0x00\n        /* \"#utility.yul\":20407:20495   */\n      mstore\n        /* \"#utility.yul\":20514:20518   */\n      0x22\n        /* \"#utility.yul\":20511:20512   */\n      0x04\n        /* \"#utility.yul\":20504:20519   */\n      mstore\n        /* \"#utility.yul\":20538:20542   */\n      0x24\n        /* \"#utility.yul\":20535:20536   */\n      0x00\n        /* \"#utility.yul\":20528:20543   */\n      revert\n        /* \"#utility.yul\":20555:20875   */\n    tag_164:\n        /* \"#utility.yul\":20599:20605   */\n      0x00\n        /* \"#utility.yul\":20636:20637   */\n      0x02\n        /* \"#utility.yul\":20630:20634   */\n      dup3\n        /* \"#utility.yul\":20626:20638   */\n      div\n        /* \"#utility.yul\":20616:20638   */\n      swap1\n      pop\n        /* \"#utility.yul\":20683:20684   */\n      0x01\n        /* \"#utility.yul\":20677:20681   */\n      dup3\n        /* \"#utility.yul\":20673:20685   */\n      and\n        /* \"#utility.yul\":20704:20722   */\n      dup1\n        /* \"#utility.yul\":20694:20775   */\n      tag_617\n      jumpi\n        /* \"#utility.yul\":20760:20764   */\n      0x7f\n        /* \"#utility.yul\":20752:20758   */\n      dup3\n        /* \"#utility.yul\":20748:20765   */\n      and\n        /* \"#utility.yul\":20738:20765   */\n      swap2\n      pop\n        /* \"#utility.yul\":20694:20775   */\n    tag_617:\n        /* \"#utility.yul\":20822:20824   */\n      0x20\n        /* \"#utility.yul\":20814:20820   */\n      dup3\n        /* \"#utility.yul\":20811:20825   */\n      lt\n        /* \"#utility.yul\":20791:20809   */\n      dup2\n        /* \"#utility.yul\":20788:20826   */\n      sub\n        /* \"#utility.yul\":20785:20869   */\n      tag_618\n      jumpi\n        /* \"#utility.yul\":20841:20859   */\n      tag_619\n      tag_398\n      jump\t// in\n    tag_619:\n        /* \"#utility.yul\":20785:20869   */\n    tag_618:\n        /* \"#utility.yul\":20606:20875   */\n      pop\n        /* \"#utility.yul\":20555:20875   */\n      swap2\n      swap1\n      pop\n      jump\t// out\n        /* \"#utility.yul\":20881:21029   */\n    tag_399:\n        /* \"#utility.yul\":20983:20994   */\n      0x00\n        /* \"#utility.yul\":21020:21023   */\n      dup2\n        /* \"#utility.yul\":21005:21023   */\n      swap1\n      pop\n        /* \"#utility.yul\":20881:21029   */\n      swap3\n      swap2\n      pop\n      pop\n      jump\t// out\n        /* \"#utility.yul\":21035:21149   */\n    tag_400:\n      pop\n      jump\t// out\n        /* \"#utility.yul\":21155:21555   */\n    tag_401:\n        /* \"#utility.yul\":21315:21318   */\n      0x00\n        /* \"#utility.yul\":21336:21420   */\n      tag_623\n        /* \"#utility.yul\":21418:21419   */\n      0x00\n        /* \"#utility.yul\":21413:21416   */\n      dup4\n        /* \"#utility.yul\":21336:21420   */\n      tag_399\n      jump\t// in\n    tag_623:\n        /* \"#utility.yul\":21329:21420   */\n      swap2\n      pop\n        /* \"#utility.yul\":21429:21522   */\n      tag_624\n        /* \"#utility.yul\":21518:21521   */\n      dup3\n        /* \"#utility.yul\":21429:21522   */\n      tag_400\n      jump\t// in\n    tag_624:\n        /* \"#utility.yul\":21547:21548   */\n      0x00\n        /* \"#utility.yul\":21542:21545   */\n      dup3\n        /* \"#utility.yul\":21538:21549   */\n      add\n        /* \"#utility.yul\":21531:21549   */\n      swap1\n      pop\n        /* \"#utility.yul\":21155:21555   */\n      swap2\n      swap1\n      pop\n      jump\t// out\n        /* \"#utility.yul\":21561:21942   */\n    tag_170:\n        /* \"#utility.yul\":21746:21749   */\n      0x00\n        /* \"#utility.yul\":21768:21916   */\n      tag_626\n        /* \"#utility.yul\":21912:21915   */\n      dup3\n        /* \"#utility.yul\":21768:21916   */\n      tag_401\n      jump\t// in\n    tag_626:\n        /* \"#utility.yul\":21761:21916   */\n      swap2\n      pop\n        /* \"#utility.yul\":21933:21936   */\n      dup2\n        /* \"#utility.yul\":21926:21936   */\n      swap1\n      pop\n        /* \"#utility.yul\":21561:21942   */\n      swap2\n      swap1\n      pop\n      jump\t// out\n        /* \"#utility.yul\":21948:22338   */\n    tag_402:\n        /* \"#utility.yul\":22054:22057   */\n      0x00\n        /* \"#utility.yul\":22082:22121   */\n      tag_628\n        /* \"#utility.yul\":22115:22120   */\n      dup3\n        /* \"#utility.yul\":22082:22121   */\n      tag_356\n      jump\t// in\n    tag_628:\n        /* \"#utility.yul\":22137:22226   */\n      tag_629\n        /* \"#utility.yul\":22219:22225   */\n      dup2\n        /* \"#utility.yul\":22214:22217   */\n      dup6\n        /* \"#utility.yul\":22137:22226   */\n      tag_399\n      jump\t// in\n    tag_629:\n        /* \"#utility.yul\":22130:22226   */\n      swap4\n      pop\n        /* \"#utility.yul\":22235:22300   */\n      tag_630\n        /* \"#utility.yul\":22293:22299   */\n      dup2\n        /* \"#utility.yul\":22288:22291   */\n      dup6\n        /* \"#utility.yul\":22281:22285   */\n      0x20\n        /* \"#utility.yul\":22274:22279   */\n      dup7\n        /* \"#utility.yul\":22270:22286   */\n      add\n        /* \"#utility.yul\":22235:22300   */\n      tag_358\n      jump\t// in\n    tag_630:\n        /* \"#utility.yul\":22325:22331   */\n      dup1\n        /* \"#utility.yul\":22320:22323   */\n      dup5\n        /* \"#utility.yul\":22316:22332   */\n      add\n        /* \"#utility.yul\":22309:22332   */\n      swap2\n      pop\n        /* \"#utility.yul\":22058:22338   */\n      pop\n        /* \"#utility.yul\":21948:22338   */\n      swap3\n      swap2\n      pop\n      pop\n      jump\t// out\n        /* \"#utility.yul\":22344:22619   */\n    tag_172:\n        /* \"#utility.yul\":22476:22479   */\n      0x00\n        /* \"#utility.yul\":22498:22593   */\n      tag_632\n        /* \"#utility.yul\":22589:22592   */\n      dup3\n        /* \"#utility.yul\":22580:22586   */\n      dup5\n        /* \"#utility.yul\":22498:22593   */\n      tag_402\n      jump\t// in\n    tag_632:\n        /* \"#utility.yul\":22491:22593   */\n      swap2\n      pop\n        /* \"#utility.yul\":22610:22613   */\n      dup2\n        /* \"#utility.yul\":22603:22613   */\n      swap1\n      pop\n        /* \"#utility.yul\":22344:22619   */\n      swap3\n      swap2\n      pop\n      pop\n      jump\t// out\n        /* \"#utility.yul\":22625:23060   */\n    tag_181:\n        /* \"#utility.yul\":22805:22808   */\n      0x00\n        /* \"#utility.yul\":22827:22922   */\n      tag_634\n        /* \"#utility.yul\":22918:22921   */\n      dup3\n        /* \"#utility.yul\":22909:22915   */\n      dup6\n        /* \"#utility.yul\":22827:22922   */\n      tag_402\n      jump\t// in\n    tag_634:\n        /* \"#utility.yul\":22820:22922   */\n      swap2\n      pop\n        /* \"#utility.yul\":22939:23034   */\n      tag_635\n        /* \"#utility.yul\":23030:23033   */\n      dup3\n        /* \"#utility.yul\":23021:23027   */\n      dup5\n        /* \"#utility.yul\":22939:23034   */\n      tag_402\n      jump\t// in\n    tag_635:\n        /* \"#utility.yul\":22932:23034   */\n      swap2\n      pop\n        /* \"#utility.yul\":23051:23054   */\n      dup2\n        /* \"#utility.yul\":23044:23054   */\n      swap1\n      pop\n        /* \"#utility.yul\":22625:23060   */\n      swap4\n      swap3\n      pop\n      pop\n      pop\n      jump\t// out\n        /* \"#utility.yul\":23066:23291   */\n    tag_403:\n        /* \"#utility.yul\":23206:23240   */\n      0x54686520726567697374726174696f6e20706572696f64206973206e6f742073\n        /* \"#utility.yul\":23202:23203   */\n      0x00\n        /* \"#utility.yul\":23194:23200   */\n      dup3\n        /* \"#utility.yul\":23190:23204   */\n      add\n        /* \"#utility.yul\":23183:23241   */\n      mstore\n        /* \"#utility.yul\":23275:23283   */\n      0x7461727465640000000000000000000000000000000000000000000000000000\n        /* \"#utility.yul\":23270:23272   */\n      0x20\n        /* \"#utility.yul\":23262:23268   */\n      dup3\n        /* \"#utility.yul\":23258:23273   */\n      add\n        /* \"#utility.yul\":23251:23284   */\n      mstore\n        /* \"#utility.yul\":23066:23291   */\n      pop\n      jump\t// out\n        /* \"#utility.yul\":23297:23663   */\n    tag_404:\n        /* \"#utility.yul\":23439:23442   */\n      0x00\n        /* \"#utility.yul\":23460:23527   */\n      tag_638\n        /* \"#utility.yul\":23524:23526   */\n      0x26\n        /* \"#utility.yul\":23519:23522   */\n      dup4\n        /* \"#utility.yul\":23460:23527   */\n      tag_357\n      jump\t// in\n    tag_638:\n        /* \"#utility.yul\":23453:23527   */\n      swap2\n      pop\n        /* \"#utility.yul\":23536:23629   */\n      tag_639\n        /* \"#utility.yul\":23625:23628   */\n      dup3\n        /* \"#utility.yul\":23536:23629   */\n      tag_403\n      jump\t// in\n    tag_639:\n        /* \"#utility.yul\":23654:23656   */\n      0x40\n        /* \"#utility.yul\":23649:23652   */\n      dup3\n        /* \"#utility.yul\":23645:23657   */\n      add\n        /* \"#utility.yul\":23638:23657   */\n      swap1\n      pop\n        /* \"#utility.yul\":23297:23663   */\n      swap2\n      swap1\n      pop\n      jump\t// out\n        /* \"#utility.yul\":23669:24088   */\n    tag_192:\n        /* \"#utility.yul\":23835:23839   */\n      0x00\n        /* \"#utility.yul\":23873:23875   */\n      0x20\n        /* \"#utility.yul\":23862:23871   */\n      dup3\n        /* \"#utility.yul\":23858:23876   */\n      add\n        /* \"#utility.yul\":23850:23876   */\n      swap1\n      pop\n        /* \"#utility.yul\":23922:23931   */\n      dup2\n        /* \"#utility.yul\":23916:23920   */\n      dup2\n        /* \"#utility.yul\":23912:23932   */\n      sub\n        /* \"#utility.yul\":23908:23909   */\n      0x00\n        /* \"#utility.yul\":23897:23906   */\n      dup4\n        /* \"#utility.yul\":23893:23910   */\n      add\n        /* \"#utility.yul\":23886:23933   */\n      mstore\n        /* \"#utility.yul\":23950:24081   */\n      tag_641\n        /* \"#utility.yul\":24076:24080   */\n      dup2\n        /* \"#utility.yul\":23950:24081   */\n      tag_404\n      jump\t// in\n    tag_641:\n        /* \"#utility.yul\":23942:24081   */\n      swap1\n      pop\n        /* \"#utility.yul\":23669:24088   */\n      swap2\n      swap1\n      pop\n      jump\t// out\n        /* \"#utility.yul\":24094:24336   */\n    tag_405:\n        /* \"#utility.yul\":24234:24268   */\n      0x596f752061726520746865206f776e6572206f66207468697320636f6e747261\n        /* \"#utility.yul\":24230:24231   */\n      0x00\n        /* \"#utility.yul\":24222:24228   */\n      dup3\n        /* \"#utility.yul\":24218:24232   */\n      add\n        /* \"#utility.yul\":24211:24269   */\n      mstore\n        /* \"#utility.yul\":24303:24328   */\n      0x63742c20796f752063616e206e6f742070726f706f7365000000000000000000\n        /* \"#utility.yul\":24298:24300   */\n      0x20\n        /* \"#utility.yul\":24290:24296   */\n      dup3\n        /* \"#utility.yul\":24286:24301   */\n      add\n        /* \"#utility.yul\":24279:24329   */\n      mstore\n        /* \"#utility.yul\":24094:24336   */\n      pop\n      jump\t// out\n        /* \"#utility.yul\":24342:24708   */\n    tag_406:\n        /* \"#utility.yul\":24484:24487   */\n      0x00\n        /* \"#utility.yul\":24505:24572   */\n      tag_644\n        /* \"#utility.yul\":24569:24571   */\n      0x37\n        /* \"#utility.yul\":24564:24567   */\n      dup4\n        /* \"#utility.yul\":24505:24572   */\n      tag_357\n      jump\t// in\n    tag_644:\n        /* \"#utility.yul\":24498:24572   */\n      swap2\n      pop\n        /* \"#utility.yul\":24581:24674   */\n      tag_645\n        /* \"#utility.yul\":24670:24673   */\n      dup3\n        /* \"#utility.yul\":24581:24674   */\n      tag_405\n      jump\t// in\n    tag_645:\n        /* \"#utility.yul\":24699:24701   */\n      0x40\n        /* \"#utility.yul\":24694:24697   */\n      dup3\n        /* \"#utility.yul\":24690:24702   */\n      add\n        /* \"#utility.yul\":24683:24702   */\n      swap1\n      pop\n        /* \"#utility.yul\":24342:24708   */\n      swap2\n      swap1\n      pop\n      jump\t// out\n        /* \"#utility.yul\":24714:25133   */\n    tag_196:\n        /* \"#utility.yul\":24880:24884   */\n      0x00\n        /* \"#utility.yul\":24918:24920   */\n      0x20\n        /* \"#utility.yul\":24907:24916   */\n      dup3\n        /* \"#utility.yul\":24903:24921   */\n      add\n        /* \"#utility.yul\":24895:24921   */\n      swap1\n      pop\n        /* \"#utility.yul\":24967:24976   */\n      dup2\n        /* \"#utility.yul\":24961:24965   */\n      dup2\n        /* \"#utility.yul\":24957:24977   */\n      sub\n        /* \"#utility.yul\":24953:24954   */\n      0x00\n        /* \"#utility.yul\":24942:24951   */\n      dup4\n        /* \"#utility.yul\":24938:24955   */\n      add\n        /* \"#utility.yul\":24931:24978   */\n      mstore\n        /* \"#utility.yul\":24995:25126   */\n      tag_647\n        /* \"#utility.yul\":25121:25125   */\n      dup2\n        /* \"#utility.yul\":24995:25126   */\n      tag_406\n      jump\t// in\n    tag_647:\n        /* \"#utility.yul\":24987:25126   */\n      swap1\n      pop\n        /* \"#utility.yul\":24714:25133   */\n      swap2\n      swap1\n      pop\n      jump\t// out\n        /* \"#utility.yul\":25139:25280   */\n    tag_407:\n        /* \"#utility.yul\":25188:25192   */\n      0x00\n        /* \"#utility.yul\":25211:25214   */\n      dup2\n        /* \"#utility.yul\":25203:25214   */\n      swap1\n      pop\n        /* \"#utility.yul\":25234:25237   */\n      dup2\n        /* \"#utility.yul\":25231:25232   */\n      0x00\n        /* \"#utility.yul\":25224:25238   */\n      mstore\n        /* \"#utility.yul\":25268:25272   */\n      0x20\n        /* \"#utility.yul\":25265:25266   */\n      0x00\n        /* \"#utility.yul\":25255:25273   */\n      keccak256\n        /* \"#utility.yul\":25247:25273   */\n      swap1\n      pop\n        /* \"#utility.yul\":25139:25280   */\n      swap2\n      swap1\n      pop\n      jump\t// out\n        /* \"#utility.yul\":25286:25379   */\n    tag_408:\n        /* \"#utility.yul\":25323:25329   */\n      0x00\n        /* \"#utility.yul\":25370:25372   */\n      0x20\n        /* \"#utility.yul\":25365:25367   */\n      0x1f\n        /* \"#utility.yul\":25358:25363   */\n      dup4\n        /* \"#utility.yul\":25354:25368   */\n      add\n        /* \"#utility.yul\":25350:25373   */\n      div\n        /* \"#utility.yul\":25340:25373   */\n      swap1\n      pop\n        /* \"#utility.yul\":25286:25379   */\n      swap2\n      swap1\n      pop\n      jump\t// out\n        /* \"#utility.yul\":25385:25492   */\n    tag_409:\n        /* \"#utility.yul\":25429:25437   */\n      0x00\n        /* \"#utility.yul\":25479:25484   */\n      dup3\n        /* \"#utility.yul\":25473:25477   */\n      dup3\n        /* \"#utility.yul\":25469:25485   */\n      shl\n        /* \"#utility.yul\":25448:25485   */\n      swap1\n      pop\n        /* \"#utility.yul\":25385:25492   */\n      swap3\n      swap2\n      pop\n      pop\n      jump\t// out\n        /* \"#utility.yul\":25498:25891   */\n    tag_410:\n        /* \"#utility.yul\":25567:25573   */\n      0x00\n        /* \"#utility.yul\":25617:25618   */\n      0x08\n        /* \"#utility.yul\":25605:25615   */\n      dup4\n        /* \"#utility.yul\":25601:25619   */\n      mul\n        /* \"#utility.yul\":25640:25737   */\n      tag_652\n        /* \"#utility.yul\":25670:25736   */\n      0xffffffffffffffffffffffffffffffffffffffffffffffffffffffffffffffff\n        /* \"#utility.yul\":25659:25668   */\n      dup3\n        /* \"#utility.yul\":25640:25737   */\n      tag_409\n      jump\t// in\n    tag_652:\n        /* \"#utility.yul\":25758:25797   */\n      tag_653\n        /* \"#utility.yul\":25788:25796   */\n      dup7\n        /* \"#utility.yul\":25777:25786   */\n      dup4\n        /* \"#utility.yul\":25758:25797   */\n      tag_409\n      jump\t// in\n    tag_653:\n        /* \"#utility.yul\":25746:25797   */\n      swap6\n      pop\n        /* \"#utility.yul\":25830:25834   */\n      dup1\n        /* \"#utility.yul\":25826:25835   */\n      not\n        /* \"#utility.yul\":25819:25824   */\n      dup5\n        /* \"#utility.yul\":25815:25836   */\n      and\n        /* \"#utility.yul\":25806:25836   */\n      swap4\n      pop\n        /* \"#utility.yul\":25879:25883   */\n      dup1\n        /* \"#utility.yul\":25869:25877   */\n      dup7\n        /* \"#utility.yul\":25865:25884   */\n      and\n        /* \"#utility.yul\":25858:25863   */\n      dup5\n        /* \"#utility.yul\":25855:25885   */\n      or\n        /* \"#utility.yul\":25845:25885   */\n      swap3\n      pop\n        /* \"#utility.yul\":25574:25891   */\n      pop\n      pop\n        /* \"#utility.yul\":25498:25891   */\n      swap4\n      swap3\n      pop\n      pop\n      pop\n      jump\t// out\n        /* \"#utility.yul\":25897:25957   */\n    tag_411:\n        /* \"#utility.yul\":25925:25928   */\n      0x00\n        /* \"#utility.yul\":25946:25951   */\n      dup2\n        /* \"#utility.yul\":25939:25951   */\n      swap1\n      pop\n        /* \"#utility.yul\":25897:25957   */\n      swap2\n      swap1\n      pop\n      jump\t// out\n        /* \"#utility.yul\":25963:26105   */\n    tag_412:\n        /* \"#utility.yul\":26013:26022   */\n      0x00\n        /* \"#utility.yul\":26046:26099   */\n      tag_656\n        /* \"#utility.yul\":26064:26098   */\n      tag_657\n        /* \"#utility.yul\":26073:26097   */\n      tag_658\n        /* \"#utility.yul\":26091:26096   */\n      dup5\n        /* \"#utility.yul\":26073:26097   */\n      tag_348\n      jump\t// in\n    tag_658:\n        /* \"#utility.yul\":26064:26098   */\n      tag_411\n      jump\t// in\n    tag_657:\n        /* \"#utility.yul\":26046:26099   */\n      tag_348\n      jump\t// in\n    tag_656:\n        /* \"#utility.yul\":26033:26099   */\n      swap1\n      pop\n        /* \"#utility.yul\":25963:26105   */\n      swap2\n      swap1\n      pop\n      jump\t// out\n        /* \"#utility.yul\":26111:26186   */\n    tag_413:\n        /* \"#utility.yul\":26154:26157   */\n      0x00\n        /* \"#utility.yul\":26175:26180   */\n      dup2\n        /* \"#utility.yul\":26168:26180   */\n      swap1\n      pop\n        /* \"#utility.yul\":26111:26186   */\n      swap2\n      swap1\n      pop\n      jump\t// out\n        /* \"#utility.yul\":26192:26461   */\n    tag_414:\n        /* \"#utility.yul\":26302:26341   */\n      tag_661\n        /* \"#utility.yul\":26333:26340   */\n      dup4\n        /* \"#utility.yul\":26302:26341   */\n      tag_412\n      jump\t// in\n    tag_661:\n        /* \"#utility.yul\":26363:26454   */\n      tag_662\n        /* \"#utility.yul\":26412:26453   */\n      tag_663\n        /* \"#utility.yul\":26436:26452   */\n      dup3\n        /* \"#utility.yul\":26412:26453   */\n      tag_413\n      jump\t// in\n    tag_663:\n        /* \"#utility.yul\":26404:26410   */\n      dup5\n        /* \"#utility.yul\":26397:26401   */\n      dup5\n        /* \"#utility.yul\":26391:26402   */\n      sload\n        /* \"#utility.yul\":26363:26454   */\n      tag_410\n      jump\t// in\n    tag_662:\n        /* \"#utility.yul\":26357:26361   */\n      dup3\n        /* \"#utility.yul\":26350:26455   */\n      sstore\n        /* \"#utility.yul\":26268:26461   */\n      pop\n        /* \"#utility.yul\":26192:26461   */\n      pop\n      pop\n      pop\n      jump\t// out\n        /* \"#utility.yul\":26467:26540   */\n    tag_415:\n        /* \"#utility.yul\":26512:26515   */\n      0x00\n        /* \"#utility.yul\":26533:26534   */\n      0x00\n        /* \"#utility.yul\":26526:26534   */\n      swap1\n      pop\n        /* \"#utility.yul\":26467:26540   */\n      swap1\n      jump\t// out\n        /* \"#utility.yul\":26546:26735   */\n    tag_416:\n        /* \"#utility.yul\":26623:26655   */\n      tag_666\n      tag_415\n      jump\t// in\n    tag_666:\n        /* \"#utility.yul\":26664:26729   */\n      tag_667\n        /* \"#utility.yul\":26722:26728   */\n      dup2\n        /* \"#utility.yul\":26714:26720   */\n      dup5\n        /* \"#utility.yul\":26708:26712   */\n      dup5\n        /* \"#utility.yul\":26664:26729   */\n      tag_414\n      jump\t// in\n    tag_667:\n        /* \"#utility.yul\":26599:26735   */\n      pop\n        /* \"#utility.yul\":26546:26735   */\n      pop\n      pop\n      jump\t// out\n        /* \"#utility.yul\":26741:26927   */\n    tag_417:\n        /* \"#utility.yul\":26801:26921   */\n    tag_669:\n        /* \"#utility.yul\":26818:26821   */\n      dup2\n        /* \"#utility.yul\":26811:26816   */\n      dup2\n        /* \"#utility.yul\":26808:26822   */\n      lt\n        /* \"#utility.yul\":26801:26921   */\n      iszero\n      tag_671\n      jumpi\n        /* \"#utility.yul\":26872:26911   */\n      tag_672\n        /* \"#utility.yul\":26909:26910   */\n      0x00\n        /* \"#utility.yul\":26902:26907   */\n      dup3\n        /* \"#utility.yul\":26872:26911   */\n      tag_416\n      jump\t// in\n    tag_672:\n        /* \"#utility.yul\":26845:26846   */\n      0x01\n        /* \"#utility.yul\":26838:26843   */\n      dup2\n        /* \"#utility.yul\":26834:26847   */\n      add\n        /* \"#utility.yul\":26825:26847   */\n      swap1\n      pop\n        /* \"#utility.yul\":26801:26921   */\n      jump(tag_669)\n    tag_671:\n        /* \"#utility.yul\":26741:26927   */\n      pop\n      pop\n      jump\t// out\n        /* \"#utility.yul\":26933:27476   */\n    tag_418:\n        /* \"#utility.yul\":27034:27036   */\n      0x1f\n        /* \"#utility.yul\":27029:27032   */\n      dup3\n        /* \"#utility.yul\":27026:27037   */\n      gt\n        /* \"#utility.yul\":27023:27469   */\n      iszero\n      tag_674\n      jumpi\n        /* \"#utility.yul\":27068:27106   */\n      tag_675\n        /* \"#utility.yul\":27100:27105   */\n      dup2\n        /* \"#utility.yul\":27068:27106   */\n      tag_407\n      jump\t// in\n    tag_675:\n        /* \"#utility.yul\":27152:27181   */\n      tag_676\n        /* \"#utility.yul\":27170:27180   */\n      dup5\n        /* \"#utility.yul\":27152:27181   */\n      tag_408\n      jump\t// in\n    tag_676:\n        /* \"#utility.yul\":27142:27150   */\n      dup2\n        /* \"#utility.yul\":27138:27182   */\n      add\n        /* \"#utility.yul\":27335:27337   */\n      0x20\n        /* \"#utility.yul\":27323:27333   */\n      dup6\n        /* \"#utility.yul\":27320:27338   */\n      lt\n        /* \"#utility.yul\":27317:27366   */\n      iszero\n      tag_677\n      jumpi\n        /* \"#utility.yul\":27356:27364   */\n      dup2\n        /* \"#utility.yul\":27341:27364   */\n      swap1\n      pop\n        /* \"#utility.yul\":27317:27366   */\n    tag_677:\n        /* \"#utility.yul\":27379:27459   */\n      tag_678\n        /* \"#utility.yul\":27435:27457   */\n      tag_679\n        /* \"#utility.yul\":27453:27456   */\n      dup6\n        /* \"#utility.yul\":27435:27457   */\n      tag_408\n      jump\t// in\n    tag_679:\n        /* \"#utility.yul\":27425:27433   */\n      dup4\n        /* \"#utility.yul\":27421:27458   */\n      add\n        /* \"#utility.yul\":27408:27419   */\n      dup3\n        /* \"#utility.yul\":27379:27459   */\n      tag_417\n      jump\t// in\n    tag_678:\n        /* \"#utility.yul\":27038:27469   */\n      pop\n      pop\n        /* \"#utility.yul\":27023:27469   */\n    tag_674:\n        /* \"#utility.yul\":26933:27476   */\n      pop\n      pop\n      pop\n      jump\t// out\n        /* \"#utility.yul\":27482:27599   */\n    tag_419:\n        /* \"#utility.yul\":27536:27544   */\n      0x00\n        /* \"#utility.yul\":27586:27591   */\n      dup3\n        /* \"#utility.yul\":27580:27584   */\n      dup3\n        /* \"#utility.yul\":27576:27592   */\n      shr\n        /* \"#utility.yul\":27555:27592   */\n      swap1\n      pop\n        /* \"#utility.yul\":27482:27599   */\n      swap3\n      swap2\n      pop\n      pop\n      jump\t// out\n        /* \"#utility.yul\":27605:27774   */\n    tag_420:\n        /* \"#utility.yul\":27649:27655   */\n      0x00\n        /* \"#utility.yul\":27682:27733   */\n      tag_682\n        /* \"#utility.yul\":27730:27731   */\n      0x00\n        /* \"#utility.yul\":27726:27732   */\n      not\n        /* \"#utility.yul\":27718:27723   */\n      dup5\n        /* \"#utility.yul\":27715:27716   */\n      0x08\n        /* \"#utility.yul\":27711:27724   */\n      mul\n        /* \"#utility.yul\":27682:27733   */\n      tag_419\n      jump\t// in\n    tag_682:\n        /* \"#utility.yul\":27678:27734   */\n      not\n        /* \"#utility.yul\":27763:27767   */\n      dup1\n        /* \"#utility.yul\":27757:27761   */\n      dup4\n        /* \"#utility.yul\":27753:27768   */\n      and\n        /* \"#utility.yul\":27743:27768   */\n      swap2\n      pop\n        /* \"#utility.yul\":27656:27774   */\n      pop\n        /* \"#utility.yul\":27605:27774   */\n      swap3\n      swap2\n      pop\n      pop\n      jump\t// out\n        /* \"#utility.yul\":27779:28074   */\n    tag_421:\n        /* \"#utility.yul\":27855:27859   */\n      0x00\n        /* \"#utility.yul\":28001:28030   */\n      tag_684\n        /* \"#utility.yul\":28026:28029   */\n      dup4\n        /* \"#utility.yul\":28020:28024   */\n      dup4\n        /* \"#utility.yul\":28001:28030   */\n      tag_420\n      jump\t// in\n    tag_684:\n        /* \"#utility.yul\":27993:28030   */\n      swap2\n      pop\n        /* \"#utility.yul\":28063:28066   */\n      dup3\n        /* \"#utility.yul\":28060:28061   */\n      0x02\n        /* \"#utility.yul\":28056:28067   */\n      mul\n        /* \"#utility.yul\":28050:28054   */\n      dup3\n        /* \"#utility.yul\":28047:28068   */\n      or\n        /* \"#utility.yul\":28039:28068   */\n      swap1\n      pop\n        /* \"#utility.yul\":27779:28074   */\n      swap3\n      swap2\n      pop\n      pop\n      jump\t// out\n        /* \"#utility.yul\":28079:29474   */\n    tag_201:\n        /* \"#utility.yul\":28196:28233   */\n      tag_686\n        /* \"#utility.yul\":28229:28232   */\n      dup3\n        /* \"#utility.yul\":28196:28233   */\n      tag_356\n      jump\t// in\n    tag_686:\n        /* \"#utility.yul\":28298:28316   */\n      0xffffffffffffffff\n        /* \"#utility.yul\":28290:28296   */\n      dup2\n        /* \"#utility.yul\":28287:28317   */\n      gt\n        /* \"#utility.yul\":28284:28340   */\n      iszero\n      tag_687\n      jumpi\n        /* \"#utility.yul\":28320:28338   */\n      tag_688\n      tag_363\n      jump\t// in\n    tag_688:\n        /* \"#utility.yul\":28284:28340   */\n    tag_687:\n        /* \"#utility.yul\":28364:28402   */\n      tag_689\n        /* \"#utility.yul\":28396:28400   */\n      dup3\n        /* \"#utility.yul\":28390:28401   */\n      sload\n        /* \"#utility.yul\":28364:28402   */\n      tag_164\n      jump\t// in\n    tag_689:\n        /* \"#utility.yul\":28449:28516   */\n      tag_690\n        /* \"#utility.yul\":28509:28515   */\n      dup3\n        /* \"#utility.yul\":28501:28507   */\n      dup3\n        /* \"#utility.yul\":28495:28499   */\n      dup6\n        /* \"#utility.yul\":28449:28516   */\n      tag_418\n      jump\t// in\n    tag_690:\n        /* \"#utility.yul\":28543:28544   */\n      0x00\n        /* \"#utility.yul\":28567:28571   */\n      0x20\n        /* \"#utility.yul\":28554:28571   */\n      swap1\n      pop\n        /* \"#utility.yul\":28599:28601   */\n      0x1f\n        /* \"#utility.yul\":28591:28597   */\n      dup4\n        /* \"#utility.yul\":28588:28602   */\n      gt\n        /* \"#utility.yul\":28616:28617   */\n      0x01\n        /* \"#utility.yul\":28611:29229   */\n      dup2\n      eq\n      tag_692\n      jumpi\n        /* \"#utility.yul\":29273:29274   */\n      0x00\n        /* \"#utility.yul\":29290:29296   */\n      dup5\n        /* \"#utility.yul\":29287:29364   */\n      iszero\n      tag_693\n      jumpi\n        /* \"#utility.yul\":29339:29348   */\n      dup3\n        /* \"#utility.yul\":29334:29337   */\n      dup8\n        /* \"#utility.yul\":29330:29349   */\n      add\n        /* \"#utility.yul\":29324:29350   */\n      mload\n        /* \"#utility.yul\":29315:29350   */\n      swap1\n      pop\n        /* \"#utility.yul\":29287:29364   */\n    tag_693:\n        /* \"#utility.yul\":29390:29457   */\n      tag_694\n        /* \"#utility.yul\":29450:29456   */\n      dup6\n        /* \"#utility.yul\":29443:29448   */\n      dup3\n        /* \"#utility.yul\":29390:29457   */\n      tag_421\n      jump\t// in\n    tag_694:\n        /* \"#utility.yul\":29384:29388   */\n      dup7\n        /* \"#utility.yul\":29377:29458   */\n      sstore\n        /* \"#utility.yul\":29246:29468   */\n      pop\n        /* \"#utility.yul\":28581:29468   */\n      jump(tag_691)\n        /* \"#utility.yul\":28611:29229   */\n    tag_692:\n        /* \"#utility.yul\":28663:28667   */\n      0x1f\n        /* \"#utility.yul\":28659:28668   */\n      not\n        /* \"#utility.yul\":28651:28657   */\n      dup5\n        /* \"#utility.yul\":28647:28669   */\n      and\n        /* \"#utility.yul\":28697:28734   */\n      tag_695\n        /* \"#utility.yul\":28729:28733   */\n      dup7\n        /* \"#utility.yul\":28697:28734   */\n      tag_407\n      jump\t// in\n    tag_695:\n        /* \"#utility.yul\":28756:28757   */\n      0x00\n        /* \"#utility.yul\":28770:28978   */\n    tag_696:\n        /* \"#utility.yul\":28784:28791   */\n      dup3\n        /* \"#utility.yul\":28781:28782   */\n      dup2\n        /* \"#utility.yul\":28778:28792   */\n      lt\n        /* \"#utility.yul\":28770:28978   */\n      iszero\n      tag_698\n      jumpi\n        /* \"#utility.yul\":28863:28872   */\n      dup5\n        /* \"#utility.yul\":28858:28861   */\n      dup10\n        /* \"#utility.yul\":28854:28873   */\n      add\n        /* \"#utility.yul\":28848:28874   */\n      mload\n        /* \"#utility.yul\":28840:28846   */\n      dup3\n        /* \"#utility.yul\":28833:28875   */\n      sstore\n        /* \"#utility.yul\":28914:28915   */\n      0x01\n        /* \"#utility.yul\":28906:28912   */\n      dup3\n        /* \"#utility.yul\":28902:28916   */\n      add\n        /* \"#utility.yul\":28892:28916   */\n      swap2\n      pop\n        /* \"#utility.yul\":28961:28963   */\n      0x20\n        /* \"#utility.yul\":28950:28959   */\n      dup6\n        /* \"#utility.yul\":28946:28964   */\n      add\n        /* \"#utility.yul\":28933:28964   */\n      swap5\n      pop\n        /* \"#utility.yul\":28807:28811   */\n      0x20\n        /* \"#utility.yul\":28804:28805   */\n      dup2\n        /* \"#utility.yul\":28800:28812   */\n      add\n        /* \"#utility.yul\":28795:28812   */\n      swap1\n      pop\n        /* \"#utility.yul\":28770:28978   */\n      jump(tag_696)\n    tag_698:\n        /* \"#utility.yul\":29006:29012   */\n      dup7\n        /* \"#utility.yul\":28997:29004   */\n      dup4\n        /* \"#utility.yul\":28994:29013   */\n      lt\n        /* \"#utility.yul\":28991:29170   */\n      iszero\n      tag_699\n      jumpi\n        /* \"#utility.yul\":29064:29073   */\n      dup5\n        /* \"#utility.yul\":29059:29062   */\n      dup10\n        /* \"#utility.yul\":29055:29074   */\n      add\n        /* \"#utility.yul\":29049:29075   */\n      mload\n        /* \"#utility.yul\":29107:29155   */\n      tag_700\n        /* \"#utility.yul\":29149:29153   */\n      0x1f\n        /* \"#utility.yul\":29141:29147   */\n      dup10\n        /* \"#utility.yul\":29137:29154   */\n      and\n        /* \"#utility.yul\":29126:29135   */\n      dup3\n        /* \"#utility.yul\":29107:29155   */\n      tag_420\n      jump\t// in\n    tag_700:\n        /* \"#utility.yul\":29099:29105   */\n      dup4\n        /* \"#utility.yul\":29092:29156   */\n      sstore\n        /* \"#utility.yul\":29014:29170   */\n      pop\n        /* \"#utility.yul\":28991:29170   */\n    tag_699:\n        /* \"#utility.yul\":29216:29217   */\n      0x01\n        /* \"#utility.yul\":29212:29213   */\n      0x02\n        /* \"#utility.yul\":29204:29210   */\n      dup9\n        /* \"#utility.yul\":29200:29214   */\n      mul\n        /* \"#utility.yul\":29196:29218   */\n      add\n        /* \"#utility.yul\":29190:29194   */\n      dup9\n        /* \"#utility.yul\":29183:29219   */\n      sstore\n        /* \"#utility.yul\":28618:29229   */\n      pop\n      pop\n      pop\n        /* \"#utility.yul\":28581:29468   */\n    tag_691:\n      pop\n        /* \"#utility.yul\":28171:29474   */\n      pop\n      pop\n      pop\n        /* \"#utility.yul\":28079:29474   */\n      pop\n      pop\n      jump\t// out\n        /* \"#utility.yul\":29480:29777   */\n    tag_422:\n        /* \"#utility.yul\":29620:29654   */\n      0x5468652070726f706f73616c2073657373696f6e206973206e6f7420656e6465\n        /* \"#utility.yul\":29616:29617   */\n      0x00\n        /* \"#utility.yul\":29608:29614   */\n      dup3\n        /* \"#utility.yul\":29604:29618   */\n      add\n        /* \"#utility.yul\":29597:29655   */\n      mstore\n        /* \"#utility.yul\":29689:29723   */\n      0x64206f722074686520766f74652073657373696f6e2068617320616c72656164\n        /* \"#utility.yul\":29684:29686   */\n      0x20\n        /* \"#utility.yul\":29676:29682   */\n      dup3\n        /* \"#utility.yul\":29672:29687   */\n      add\n        /* \"#utility.yul\":29665:29724   */\n      mstore\n        /* \"#utility.yul\":29758:29769   */\n      0x7920737461727465640000000000000000000000000000000000000000000000\n        /* \"#utility.yul\":29753:29755   */\n      0x40\n        /* \"#utility.yul\":29745:29751   */\n      dup3\n        /* \"#utility.yul\":29741:29756   */\n      add\n        /* \"#utility.yul\":29734:29770   */\n      mstore\n        /* \"#utility.yul\":29480:29777   */\n      pop\n      jump\t// out\n        /* \"#utility.yul\":29783:30149   */\n    tag_423:\n        /* \"#utility.yul\":29925:29928   */\n      0x00\n        /* \"#utility.yul\":29946:30013   */\n      tag_703\n        /* \"#utility.yul\":30010:30012   */\n      0x49\n        /* \"#utility.yul\":30005:30008   */\n      dup4\n        /* \"#utility.yul\":29946:30013   */\n      tag_357\n      jump\t// in\n    tag_703:\n        /* \"#utility.yul\":29939:30013   */\n      swap2\n      pop\n        /* \"#utility.yul\":30022:30115   */\n      tag_704\n        /* \"#utility.yul\":30111:30114   */\n      dup3\n        /* \"#utility.yul\":30022:30115   */\n      tag_422\n      jump\t// in\n    tag_704:\n        /* \"#utility.yul\":30140:30142   */\n      0x60\n        /* \"#utility.yul\":30135:30138   */\n      dup3\n        /* \"#utility.yul\":30131:30143   */\n      add\n        /* \"#utility.yul\":30124:30143   */\n      swap1\n      pop\n        /* \"#utility.yul\":29783:30149   */\n      swap2\n      swap1\n      pop\n      jump\t// out\n        /* \"#utility.yul\":30155:30574   */\n    tag_213:\n        /* \"#utility.yul\":30321:30325   */\n      0x00\n        /* \"#utility.yul\":30359:30361   */\n      0x20\n        /* \"#utility.yul\":30348:30357   */\n      dup3\n        /* \"#utility.yul\":30344:30362   */\n      add\n        /* \"#utility.yul\":30336:30362   */\n      swap1\n      pop\n        /* \"#utility.yul\":30408:30417   */\n      dup2\n        /* \"#utility.yul\":30402:30406   */\n      dup2\n        /* \"#utility.yul\":30398:30418   */\n      sub\n        /* \"#utility.yul\":30394:30395   */\n      0x00\n        /* \"#utility.yul\":30383:30392   */\n      dup4\n        /* \"#utility.yul\":30379:30396   */\n      add\n        /* \"#utility.yul\":30372:30419   */\n      mstore\n        /* \"#utility.yul\":30436:30567   */\n      tag_706\n        /* \"#utility.yul\":30562:30566   */\n      dup2\n        /* \"#utility.yul\":30436:30567   */\n      tag_423\n      jump\t// in\n    tag_706:\n        /* \"#utility.yul\":30428:30567   */\n      swap1\n      pop\n        /* \"#utility.yul\":30155:30574   */\n      swap2\n      swap1\n      pop\n      jump\t// out\n        /* \"#utility.yul\":30580:30759   */\n    tag_424:\n        /* \"#utility.yul\":30720:30751   */\n      0x54686520766f74652073657373696f6e206973206e6f7420656e646564000000\n        /* \"#utility.yul\":30716:30717   */\n      0x00\n        /* \"#utility.yul\":30708:30714   */\n      dup3\n        /* \"#utility.yul\":30704:30718   */\n      add\n        /* \"#utility.yul\":30697:30752   */\n      mstore\n        /* \"#utility.yul\":30580:30759   */\n      pop\n      jump\t// out\n        /* \"#utility.yul\":30765:31131   */\n    tag_425:\n        /* \"#utility.yul\":30907:30910   */\n      0x00\n        /* \"#utility.yul\":30928:30995   */\n      tag_709\n        /* \"#utility.yul\":30992:30994   */\n      0x1d\n        /* \"#utility.yul\":30987:30990   */\n      dup4\n        /* \"#utility.yul\":30928:30995   */\n      tag_357\n      jump\t// in\n    tag_709:\n        /* \"#utility.yul\":30921:30995   */\n      swap2\n      pop\n        /* \"#utility.yul\":31004:31097   */\n      tag_710\n        /* \"#utility.yul\":31093:31096   */\n      dup3\n        /* \"#utility.yul\":31004:31097   */\n      tag_424\n      jump\t// in\n    tag_710:\n        /* \"#utility.yul\":31122:31124   */\n      0x20\n        /* \"#utility.yul\":31117:31120   */\n      dup3\n        /* \"#utility.yul\":31113:31125   */\n      add\n        /* \"#utility.yul\":31106:31125   */\n      swap1\n      pop\n        /* \"#utility.yul\":30765:31131   */\n      swap2\n      swap1\n      pop\n      jump\t// out\n        /* \"#utility.yul\":31137:31556   */\n    tag_231:\n        /* \"#utility.yul\":31303:31307   */\n      0x00\n        /* \"#utility.yul\":31341:31343   */\n      0x20\n        /* \"#utility.yul\":31330:31339   */\n      dup3\n        /* \"#utility.yul\":31326:31344   */\n      add\n        /* \"#utility.yul\":31318:31344   */\n      swap1\n      pop\n        /* \"#utility.yul\":31390:31399   */\n      dup2\n        /* \"#utility.yul\":31384:31388   */\n      dup2\n        /* \"#utility.yul\":31380:31400   */\n      sub\n        /* \"#utility.yul\":31376:31377   */\n      0x00\n        /* \"#utility.yul\":31365:31374   */\n      dup4\n        /* \"#utility.yul\":31361:31378   */\n      add\n        /* \"#utility.yul\":31354:31401   */\n      mstore\n        /* \"#utility.yul\":31418:31549   */\n      tag_712\n        /* \"#utility.yul\":31544:31548   */\n      dup2\n        /* \"#utility.yul\":31418:31549   */\n      tag_425\n      jump\t// in\n    tag_712:\n        /* \"#utility.yul\":31410:31549   */\n      swap1\n      pop\n        /* \"#utility.yul\":31137:31556   */\n      swap2\n      swap1\n      pop\n      jump\t// out\n        /* \"#utility.yul\":31562:31794   */\n    tag_426:\n        /* \"#utility.yul\":31702:31736   */\n      0x5468657265206973206d6f7265207468616e20312077696e6e65722c20796f75\n        /* \"#utility.yul\":31698:31699   */\n      0x00\n        /* \"#utility.yul\":31690:31696   */\n      dup3\n        /* \"#utility.yul\":31686:31700   */\n      add\n        /* \"#utility.yul\":31679:31737   */\n      mstore\n        /* \"#utility.yul\":31771:31786   */\n      0x206861766520746f20766f746500000000000000000000000000000000000000\n        /* \"#utility.yul\":31766:31768   */\n      0x20\n        /* \"#utility.yul\":31758:31764   */\n      dup3\n        /* \"#utility.yul\":31754:31769   */\n      add\n        /* \"#utility.yul\":31747:31787   */\n      mstore\n        /* \"#utility.yul\":31562:31794   */\n      pop\n      jump\t// out\n        /* \"#utility.yul\":31800:32166   */\n    tag_427:\n        /* \"#utility.yul\":31942:31945   */\n      0x00\n        /* \"#utility.yul\":31963:32030   */\n      tag_715\n        /* \"#utility.yul\":32027:32029   */\n      0x2d\n        /* \"#utility.yul\":32022:32025   */\n      dup4\n        /* \"#utility.yul\":31963:32030   */\n      tag_357\n      jump\t// in\n    tag_715:\n        /* \"#utility.yul\":31956:32030   */\n      swap2\n      pop\n        /* \"#utility.yul\":32039:32132   */\n      tag_716\n        /* \"#utility.yul\":32128:32131   */\n      dup3\n        /* \"#utility.yul\":32039:32132   */\n      tag_426\n      jump\t// in\n    tag_716:\n        /* \"#utility.yul\":32157:32159   */\n      0x40\n        /* \"#utility.yul\":32152:32155   */\n      dup3\n        /* \"#utility.yul\":32148:32160   */\n      add\n        /* \"#utility.yul\":32141:32160   */\n      swap1\n      pop\n        /* \"#utility.yul\":31800:32166   */\n      swap2\n      swap1\n      pop\n      jump\t// out\n        /* \"#utility.yul\":32172:32591   */\n    tag_237:\n        /* \"#utility.yul\":32338:32342   */\n      0x00\n        /* \"#utility.yul\":32376:32378   */\n      0x20\n        /* \"#utility.yul\":32365:32374   */\n      dup3\n        /* \"#utility.yul\":32361:32379   */\n      add\n        /* \"#utility.yul\":32353:32379   */\n      swap1\n      pop\n        /* \"#utility.yul\":32425:32434   */\n      dup2\n        /* \"#utility.yul\":32419:32423   */\n      dup2\n        /* \"#utility.yul\":32415:32435   */\n      sub\n        /* \"#utility.yul\":32411:32412   */\n      0x00\n        /* \"#utility.yul\":32400:32409   */\n      dup4\n        /* \"#utility.yul\":32396:32413   */\n      add\n        /* \"#utility.yul\":32389:32436   */\n      mstore\n        /* \"#utility.yul\":32453:32584   */\n      tag_718\n        /* \"#utility.yul\":32579:32583   */\n      dup2\n        /* \"#utility.yul\":32453:32584   */\n      tag_427\n      jump\t// in\n    tag_718:\n        /* \"#utility.yul\":32445:32584   */\n      swap1\n      pop\n        /* \"#utility.yul\":32172:32591   */\n      swap2\n      swap1\n      pop\n      jump\t// out\n        /* \"#utility.yul\":32597:32820   */\n    tag_428:\n        /* \"#utility.yul\":32737:32771   */\n      0x5468652077696e6e65722068617665206e6f74206265656e2063686f6f73656e\n        /* \"#utility.yul\":32733:32734   */\n      0x00\n        /* \"#utility.yul\":32725:32731   */\n      dup3\n        /* \"#utility.yul\":32721:32735   */\n      add\n        /* \"#utility.yul\":32714:32772   */\n      mstore\n        /* \"#utility.yul\":32806:32812   */\n      0x2079657400000000000000000000000000000000000000000000000000000000\n        /* \"#utility.yul\":32801:32803   */\n      0x20\n        /* \"#utility.yul\":32793:32799   */\n      dup3\n        /* \"#utility.yul\":32789:32804   */\n      add\n        /* \"#utility.yul\":32782:32813   */\n      mstore\n        /* \"#utility.yul\":32597:32820   */\n      pop\n      jump\t// out\n        /* \"#utility.yul\":32826:33192   */\n    tag_429:\n        /* \"#utility.yul\":32968:32971   */\n      0x00\n        /* \"#utility.yul\":32989:33056   */\n      tag_721\n        /* \"#utility.yul\":33053:33055   */\n      0x24\n        /* \"#utility.yul\":33048:33051   */\n      dup4\n        /* \"#utility.yul\":32989:33056   */\n      tag_357\n      jump\t// in\n    tag_721:\n        /* \"#utility.yul\":32982:33056   */\n      swap2\n      pop\n        /* \"#utility.yul\":33065:33158   */\n      tag_722\n        /* \"#utility.yul\":33154:33157   */\n      dup3\n        /* \"#utility.yul\":33065:33158   */\n      tag_428\n      jump\t// in\n    tag_722:\n        /* \"#utility.yul\":33183:33185   */\n      0x40\n        /* \"#utility.yul\":33178:33181   */\n      dup3\n        /* \"#utility.yul\":33174:33186   */\n      add\n        /* \"#utility.yul\":33167:33186   */\n      swap1\n      pop\n        /* \"#utility.yul\":32826:33192   */\n      swap2\n      swap1\n      pop\n      jump\t// out\n        /* \"#utility.yul\":33198:33617   */\n    tag_255:\n        /* \"#utility.yul\":33364:33368   */\n      0x00\n        /* \"#utility.yul\":33402:33404   */\n      0x20\n        /* \"#utility.yul\":33391:33400   */\n      dup3\n        /* \"#utility.yul\":33387:33405   */\n      add\n        /* \"#utility.yul\":33379:33405   */\n      swap1\n      pop\n        /* \"#utility.yul\":33451:33460   */\n      dup2\n        /* \"#utility.yul\":33445:33449   */\n      dup2\n        /* \"#utility.yul\":33441:33461   */\n      sub\n        /* \"#utility.yul\":33437:33438   */\n      0x00\n        /* \"#utility.yul\":33426:33435   */\n      dup4\n        /* \"#utility.yul\":33422:33439   */\n      add\n        /* \"#utility.yul\":33415:33462   */\n      mstore\n        /* \"#utility.yul\":33479:33610   */\n      tag_724\n        /* \"#utility.yul\":33605:33609   */\n      dup2\n        /* \"#utility.yul\":33479:33610   */\n      tag_429\n      jump\t// in\n    tag_724:\n        /* \"#utility.yul\":33471:33610   */\n      swap1\n      pop\n        /* \"#utility.yul\":33198:33617   */\n      swap2\n      swap1\n      pop\n      jump\t// out\n        /* \"#utility.yul\":33647:34521   */\n    tag_430:\n        /* \"#utility.yul\":33750:33753   */\n      0x00\n        /* \"#utility.yul\":33787:33792   */\n      dup2\n        /* \"#utility.yul\":33781:33793   */\n      sload\n        /* \"#utility.yul\":33816:33852   */\n      tag_726\n        /* \"#utility.yul\":33842:33851   */\n      dup2\n        /* \"#utility.yul\":33816:33852   */\n      tag_164\n      jump\t// in\n    tag_726:\n        /* \"#utility.yul\":33868:33957   */\n      tag_727\n        /* \"#utility.yul\":33950:33956   */\n      dup2\n        /* \"#utility.yul\":33945:33948   */\n      dup7\n        /* \"#utility.yul\":33868:33957   */\n      tag_399\n      jump\t// in\n    tag_727:\n        /* \"#utility.yul\":33861:33957   */\n      swap5\n      pop\n        /* \"#utility.yul\":33988:33989   */\n      0x01\n        /* \"#utility.yul\":33977:33986   */\n      dup3\n        /* \"#utility.yul\":33973:33990   */\n      and\n        /* \"#utility.yul\":34004:34005   */\n      0x00\n        /* \"#utility.yul\":33999:34165   */\n      dup2\n      eq\n      tag_729\n      jumpi\n        /* \"#utility.yul\":34179:34180   */\n      0x01\n        /* \"#utility.yul\":34174:34515   */\n      dup2\n      eq\n      tag_730\n      jumpi\n        /* \"#utility.yul\":33966:34515   */\n      jump(tag_728)\n        /* \"#utility.yul\":33999:34165   */\n    tag_729:\n        /* \"#utility.yul\":34083:34087   */\n      0xff\n        /* \"#utility.yul\":34079:34088   */\n      not\n        /* \"#utility.yul\":34068:34077   */\n      dup4\n        /* \"#utility.yul\":34064:34089   */\n      and\n        /* \"#utility.yul\":34059:34062   */\n      dup7\n        /* \"#utility.yul\":34052:34090   */\n      mstore\n        /* \"#utility.yul\":34145:34151   */\n      dup2\n        /* \"#utility.yul\":34138:34152   */\n      iszero\n        /* \"#utility.yul\":34131:34153   */\n      iszero\n        /* \"#utility.yul\":34123:34129   */\n      dup3\n        /* \"#utility.yul\":34119:34154   */\n      mul\n        /* \"#utility.yul\":34114:34117   */\n      dup7\n        /* \"#utility.yul\":34110:34155   */\n      add\n        /* \"#utility.yul\":34103:34155   */\n      swap4\n      pop\n        /* \"#utility.yul\":33999:34165   */\n      jump(tag_728)\n        /* \"#utility.yul\":34174:34515   */\n    tag_730:\n        /* \"#utility.yul\":34241:34279   */\n      tag_731\n        /* \"#utility.yul\":34273:34278   */\n      dup6\n        /* \"#utility.yul\":34241:34279   */\n      tag_407\n      jump\t// in\n    tag_731:\n        /* \"#utility.yul\":34301:34302   */\n      0x00\n        /* \"#utility.yul\":34315:34469   */\n    tag_732:\n        /* \"#utility.yul\":34329:34335   */\n      dup4\n        /* \"#utility.yul\":34326:34327   */\n      dup2\n        /* \"#utility.yul\":34323:34336   */\n      lt\n        /* \"#utility.yul\":34315:34469   */\n      iszero\n      tag_734\n      jumpi\n        /* \"#utility.yul\":34403:34410   */\n      dup2\n        /* \"#utility.yul\":34397:34411   */\n      sload\n        /* \"#utility.yul\":34393:34394   */\n      dup2\n        /* \"#utility.yul\":34388:34391   */\n      dup10\n        /* \"#utility.yul\":34384:34395   */\n      add\n        /* \"#utility.yul\":34377:34412   */\n      mstore\n        /* \"#utility.yul\":34453:34454   */\n      0x01\n        /* \"#utility.yul\":34444:34451   */\n      dup3\n        /* \"#utility.yul\":34440:34455   */\n      add\n        /* \"#utility.yul\":34429:34455   */\n      swap2\n      pop\n        /* \"#utility.yul\":34351:34355   */\n      0x20\n        /* \"#utility.yul\":34348:34349   */\n      dup2\n        /* \"#utility.yul\":34344:34356   */\n      add\n        /* \"#utility.yul\":34339:34356   */\n      swap1\n      pop\n        /* \"#utility.yul\":34315:34469   */\n      jump(tag_732)\n    tag_734:\n        /* \"#utility.yul\":34498:34504   */\n      dup4\n        /* \"#utility.yul\":34493:34496   */\n      dup9\n        /* \"#utility.yul\":34489:34505   */\n      add\n        /* \"#utility.yul\":34482:34505   */\n      swap6\n      pop\n        /* \"#utility.yul\":34181:34515   */\n      pop\n      pop\n        /* \"#utility.yul\":33966:34515   */\n    tag_728:\n      pop\n        /* \"#utility.yul\":33754:34521   */\n      pop\n      pop\n        /* \"#utility.yul\":33647:34521   */\n      swap3\n      swap2\n      pop\n      pop\n      jump\t// out\n        /* \"#utility.yul\":34527:34956   */\n    tag_272:\n        /* \"#utility.yul\":34704:34707   */\n      0x00\n        /* \"#utility.yul\":34726:34821   */\n      tag_736\n        /* \"#utility.yul\":34817:34820   */\n      dup3\n        /* \"#utility.yul\":34808:34814   */\n      dup6\n        /* \"#utility.yul\":34726:34821   */\n      tag_402\n      jump\t// in\n    tag_736:\n        /* \"#utility.yul\":34719:34821   */\n      swap2\n      pop\n        /* \"#utility.yul\":34838:34930   */\n      tag_737\n        /* \"#utility.yul\":34926:34929   */\n      dup3\n        /* \"#utility.yul\":34917:34923   */\n      dup5\n        /* \"#utility.yul\":34838:34930   */\n      tag_430\n      jump\t// in\n    tag_737:\n        /* \"#utility.yul\":34831:34930   */\n      swap2\n      pop\n        /* \"#utility.yul\":34947:34950   */\n      dup2\n        /* \"#utility.yul\":34940:34950   */\n      swap1\n      pop\n        /* \"#utility.yul\":34527:34956   */\n      swap4\n      swap3\n      pop\n      pop\n      pop\n      jump\t// out\n        /* \"#utility.yul\":34962:35211   */\n    tag_431:\n        /* \"#utility.yul\":35102:35136   */\n      0x5468652070726f706f73616c2073657373696f6e20686173206e6f7420737461\n        /* \"#utility.yul\":35098:35099   */\n      0x00\n        /* \"#utility.yul\":35090:35096   */\n      dup3\n        /* \"#utility.yul\":35086:35100   */\n      add\n        /* \"#utility.yul\":35079:35137   */\n      mstore\n        /* \"#utility.yul\":35171:35203   */\n      0x72746564206f722068617320616c7265616479206265656e20656e6465640000\n        /* \"#utility.yul\":35166:35168   */\n      0x20\n        /* \"#utility.yul\":35158:35164   */\n      dup3\n        /* \"#utility.yul\":35154:35169   */\n      add\n        /* \"#utility.yul\":35147:35204   */\n      mstore\n        /* \"#utility.yul\":34962:35211   */\n      pop\n      jump\t// out\n        /* \"#utility.yul\":35217:35583   */\n    tag_432:\n        /* \"#utility.yul\":35359:35362   */\n      0x00\n        /* \"#utility.yul\":35380:35447   */\n      tag_740\n        /* \"#utility.yul\":35444:35446   */\n      0x3e\n        /* \"#utility.yul\":35439:35442   */\n      dup4\n        /* \"#utility.yul\":35380:35447   */\n      tag_357\n      jump\t// in\n    tag_740:\n        /* \"#utility.yul\":35373:35447   */\n      swap2\n      pop\n        /* \"#utility.yul\":35456:35549   */\n      tag_741\n        /* \"#utility.yul\":35545:35548   */\n      dup3\n        /* \"#utility.yul\":35456:35549   */\n      tag_431\n      jump\t// in\n    tag_741:\n        /* \"#utility.yul\":35574:35576   */\n      0x40\n        /* \"#utility.yul\":35569:35572   */\n      dup3\n        /* \"#utility.yul\":35565:35577   */\n      add\n        /* \"#utility.yul\":35558:35577   */\n      swap1\n      pop\n        /* \"#utility.yul\":35217:35583   */\n      swap2\n      swap1\n      pop\n      jump\t// out\n        /* \"#utility.yul\":35589:36008   */\n    tag_282:\n        /* \"#utility.yul\":35755:35759   */\n      0x00\n        /* \"#utility.yul\":35793:35795   */\n      0x20\n        /* \"#utility.yul\":35782:35791   */\n      dup3\n        /* \"#utility.yul\":35778:35796   */\n      add\n        /* \"#utility.yul\":35770:35796   */\n      swap1\n      pop\n        /* \"#utility.yul\":35842:35851   */\n      dup2\n        /* \"#utility.yul\":35836:35840   */\n      dup2\n        /* \"#utility.yul\":35832:35852   */\n      sub\n        /* \"#utility.yul\":35828:35829   */\n      0x00\n        /* \"#utility.yul\":35817:35826   */\n      dup4\n        /* \"#utility.yul\":35813:35830   */\n      add\n        /* \"#utility.yul\":35806:35853   */\n      mstore\n        /* \"#utility.yul\":35870:36001   */\n      tag_743\n        /* \"#utility.yul\":35996:36000   */\n      dup2\n        /* \"#utility.yul\":35870:36001   */\n      tag_432\n      jump\t// in\n    tag_743:\n        /* \"#utility.yul\":35862:36001   */\n      swap1\n      pop\n        /* \"#utility.yul\":35589:36008   */\n      swap2\n      swap1\n      pop\n      jump\t// out\n        /* \"#utility.yul\":36014:36254   */\n    tag_433:\n        /* \"#utility.yul\":36154:36188   */\n      0x54686520766f74652073657373696f6e20686173206e6f742073746172746564\n        /* \"#utility.yul\":36150:36151   */\n      0x00\n        /* \"#utility.yul\":36142:36148   */\n      dup3\n        /* \"#utility.yul\":36138:36152   */\n      add\n        /* \"#utility.yul\":36131:36189   */\n      mstore\n        /* \"#utility.yul\":36223:36246   */\n      0x206f722068617320616c726561647920656e6465640000000000000000000000\n        /* \"#utility.yul\":36218:36220   */\n      0x20\n        /* \"#utility.yul\":36210:36216   */\n      dup3\n        /* \"#utility.yul\":36206:36221   */\n      add\n        /* \"#utility.yul\":36199:36247   */\n      mstore\n        /* \"#utility.yul\":36014:36254   */\n      pop\n      jump\t// out\n        /* \"#utility.yul\":36260:36626   */\n    tag_434:\n        /* \"#utility.yul\":36402:36405   */\n      0x00\n        /* \"#utility.yul\":36423:36490   */\n      tag_746\n        /* \"#utility.yul\":36487:36489   */\n      0x35\n        /* \"#utility.yul\":36482:36485   */\n      dup4\n        /* \"#utility.yul\":36423:36490   */\n      tag_357\n      jump\t// in\n    tag_746:\n        /* \"#utility.yul\":36416:36490   */\n      swap2\n      pop\n        /* \"#utility.yul\":36499:36592   */\n      tag_747\n        /* \"#utility.yul\":36588:36591   */\n      dup3\n        /* \"#utility.yul\":36499:36592   */\n      tag_433\n      jump\t// in\n    tag_747:\n        /* \"#utility.yul\":36617:36619   */\n      0x40\n        /* \"#utility.yul\":36612:36615   */\n      dup3\n        /* \"#utility.yul\":36608:36620   */\n      add\n        /* \"#utility.yul\":36601:36620   */\n      swap1\n      pop\n        /* \"#utility.yul\":36260:36626   */\n      swap2\n      swap1\n      pop\n      jump\t// out\n        /* \"#utility.yul\":36632:37051   */\n    tag_306:\n        /* \"#utility.yul\":36798:36802   */\n      0x00\n        /* \"#utility.yul\":36836:36838   */\n      0x20\n        /* \"#utility.yul\":36825:36834   */\n      dup3\n        /* \"#utility.yul\":36821:36839   */\n      add\n        /* \"#utility.yul\":36813:36839   */\n      swap1\n      pop\n        /* \"#utility.yul\":36885:36894   */\n      dup2\n        /* \"#utility.yul\":36879:36883   */\n      dup2\n        /* \"#utility.yul\":36875:36895   */\n      sub\n        /* \"#utility.yul\":36871:36872   */\n      0x00\n        /* \"#utility.yul\":36860:36869   */\n      dup4\n        /* \"#utility.yul\":36856:36873   */\n      add\n        /* \"#utility.yul\":36849:36896   */\n      mstore\n        /* \"#utility.yul\":36913:37044   */\n      tag_749\n        /* \"#utility.yul\":37039:37043   */\n      dup2\n        /* \"#utility.yul\":36913:37044   */\n      tag_434\n      jump\t// in\n    tag_749:\n        /* \"#utility.yul\":36905:37044   */\n      swap1\n      pop\n        /* \"#utility.yul\":36632:37051   */\n      swap2\n      swap1\n      pop\n      jump\t// out\n        /* \"#utility.yul\":37057:37291   */\n    tag_435:\n        /* \"#utility.yul\":37197:37231   */\n      0x566f74652073657373696f6e20646964206e6f742074616b6520706c61636520\n        /* \"#utility.yul\":37193:37194   */\n      0x00\n        /* \"#utility.yul\":37185:37191   */\n      dup3\n        /* \"#utility.yul\":37181:37195   */\n      add\n        /* \"#utility.yul\":37174:37232   */\n      mstore\n        /* \"#utility.yul\":37266:37283   */\n      0x6f72206973206e6f7420656e6465640000000000000000000000000000000000\n        /* \"#utility.yul\":37261:37263   */\n      0x20\n        /* \"#utility.yul\":37253:37259   */\n      dup3\n        /* \"#utility.yul\":37249:37264   */\n      add\n        /* \"#utility.yul\":37242:37284   */\n      mstore\n        /* \"#utility.yul\":37057:37291   */\n      pop\n      jump\t// out\n        /* \"#utility.yul\":37297:37663   */\n    tag_436:\n        /* \"#utility.yul\":37439:37442   */\n      0x00\n        /* \"#utility.yul\":37460:37527   */\n      tag_752\n        /* \"#utility.yul\":37524:37526   */\n      0x2f\n        /* \"#utility.yul\":37519:37522   */\n      dup4\n        /* \"#utility.yul\":37460:37527   */\n      tag_357\n      jump\t// in\n    tag_752:\n        /* \"#utility.yul\":37453:37527   */\n      swap2\n      pop\n        /* \"#utility.yul\":37536:37629   */\n      tag_753\n        /* \"#utility.yul\":37625:37628   */\n      dup3\n        /* \"#utility.yul\":37536:37629   */\n      tag_435\n      jump\t// in\n    tag_753:\n        /* \"#utility.yul\":37654:37656   */\n      0x40\n        /* \"#utility.yul\":37649:37652   */\n      dup3\n        /* \"#utility.yul\":37645:37657   */\n      add\n        /* \"#utility.yul\":37638:37657   */\n      swap1\n      pop\n        /* \"#utility.yul\":37297:37663   */\n      swap2\n      swap1\n      pop\n      jump\t// out\n        /* \"#utility.yul\":37669:38088   */\n    tag_332:\n        /* \"#utility.yul\":37835:37839   */\n      0x00\n        /* \"#utility.yul\":37873:37875   */\n      0x20\n        /* \"#utility.yul\":37862:37871   */\n      dup3\n        /* \"#utility.yul\":37858:37876   */\n      add\n        /* \"#utility.yul\":37850:37876   */\n      swap1\n      pop\n        /* \"#utility.yul\":37922:37931   */\n      dup2\n        /* \"#utility.yul\":37916:37920   */\n      dup2\n        /* \"#utility.yul\":37912:37932   */\n      sub\n        /* \"#utility.yul\":37908:37909   */\n      0x00\n        /* \"#utility.yul\":37897:37906   */\n      dup4\n        /* \"#utility.yul\":37893:37910   */\n      add\n        /* \"#utility.yul\":37886:37933   */\n      mstore\n        /* \"#utility.yul\":37950:38081   */\n      tag_755\n        /* \"#utility.yul\":38076:38080   */\n      dup2\n        /* \"#utility.yul\":37950:38081   */\n      tag_436\n      jump\t// in\n    tag_755:\n        /* \"#utility.yul\":37942:38081   */\n      swap1\n      pop\n        /* \"#utility.yul\":37669:38088   */\n      swap2\n      swap1\n      pop\n      jump\t// out\n\n    auxdata: 0xa26469706673582212202d989f56c56c914265a822a6d2cd6bda92a03333a59994664d5ed0b15993045264736f6c634300081c0033\n}\n",
				"bytecode": {
					"linkReferences": {},
					"object": "60806040525f60085f6101000a81548160ff02191690836005811115610028576100276101f5565b5b0217905550348015610038575f5ffd5b50335f73ffffffffffffffffffffffffffffffffffffffff168173ffffffffffffffffffffffffffffffffffffffff16036100aa575f6040517f1e4fbdf70000000000000000000000000000000000000000000000000000000081526004016100a19190610261565b60405180910390fd5b6100b98161013460201b60201c565b50600260405180604001604052806040518060600160405280602381526020016131d66023913981526020015f815250908060018154018082558091505060019003905f5260205f2090600202015f909190919091505f820151815f01908161012291906104b7565b50602082015181600101555050610586565b5f5f5f9054906101000a900473ffffffffffffffffffffffffffffffffffffffff169050815f5f6101000a81548173ffffffffffffffffffffffffffffffffffffffff021916908373ffffffffffffffffffffffffffffffffffffffff1602179055508173ffffffffffffffffffffffffffffffffffffffff168173ffffffffffffffffffffffffffffffffffffffff167f8be0079c531659141344cd1fd0a4f28419497f9722a3daafe3b4186f6b6457e060405160405180910390a35050565b7f4e487b71000000000000000000000000000000000000000000000000000000005f52602160045260245ffd5b5f73ffffffffffffffffffffffffffffffffffffffff82169050919050565b5f61024b82610222565b9050919050565b61025b81610241565b82525050565b5f6020820190506102745f830184610252565b92915050565b5f81519050919050565b7f4e487b71000000000000000000000000000000000000000000000000000000005f52604160045260245ffd5b7f4e487b71000000000000000000000000000000000000000000000000000000005f52602260045260245ffd5b5f60028204905060018216806102f557607f821691505b602082108103610308576103076102b1565b5b50919050565b5f819050815f5260205f209050919050565b5f6020601f8301049050919050565b5f82821b905092915050565b5f6008830261036a7fffffffffffffffffffffffffffffffffffffffffffffffffffffffffffffffff8261032f565b610374868361032f565b95508019841693508086168417925050509392505050565b5f819050919050565b5f819050919050565b5f6103b86103b36103ae8461038c565b610395565b61038c565b9050919050565b5f819050919050565b6103d18361039e565b6103e56103dd826103bf565b84845461033b565b825550505050565b5f5f905090565b6103fc6103ed565b6104078184846103c8565b505050565b5b8181101561042a5761041f5f826103f4565b60018101905061040d565b5050565b601f82111561046f576104408161030e565b61044984610320565b81016020851015610458578190505b61046c61046485610320565b83018261040c565b50505b505050565b5f82821c905092915050565b5f61048f5f1984600802610474565b1980831691505092915050565b5f6104a78383610480565b9150826002028217905092915050565b6104c08261027a565b67ffffffffffffffff8111156104d9576104d8610284565b5b6104e382546102de565b6104ee82828561042e565b5f60209050601f83116001811461051f575f841561050d578287015190505b610517858261049c565b86555061057e565b601f19841661052d8661030e565b5f5b828110156105545784890151825560018201915060208501945060208101905061052f565b86831015610571578489015161056d601f891682610480565b8355505b6001600288020188555050505b505050505050565b612c43806105935f395ff3fe608060405234801561000f575f5ffd5b506004361061011f575f3560e01c80638da5cb5b116100ab578063b6c0fb591161006f578063b6c0fb59146102bb578063d841e5fc146102d9578063e06752c2146102f7578063f2fde38b14610301578063f74c168d1461031d5761011f565b80638da5cb5b1461023b578063a3dd261914610259578063aa98df3914610277578063aaa98346146102a7578063ada7415f146102b15761011f565b806350d072fc116100f257806350d072fc146101a95780635141e520146101b3578063715018a6146101e35780637a36b3ee146101ed5780638263a9381461021d5761011f565b80630121b93f146101235780632c456e9a1461013f57806338db6dd31461016f5780634e02c55c1461018b575b5f5ffd5b61013d600480360381019061013891906118b9565b610327565b005b6101596004803603810190610154919061193e565b6105cd565b6040516101669190611978565b60405180910390f35b6101896004803603810190610184919061193e565b610616565b005b61019361081f565b6040516101a09190611978565b60405180910390f35b6101b1610828565b005b6101cd60048036038101906101c8919061193e565b61099a565b6040516101da9190611a01565b60405180910390f35b6101eb610bb2565b005b61020760048036038101906102029190611b4d565b610bc5565b6040516102149190611a01565b60405180910390f35b610225610bf6565b6040516102329190611978565b60405180910390f35b610243610c02565b6040516102509190611bd2565b60405180910390f35b610261610c29565b60405161026e9190611c5e565b60405180910390f35b610291600480360381019061028c9190611c77565b610c3e565b60405161029e9190611a01565b60405180910390f35b6102af610ea6565b005b6102b9610fd4565b005b6102c361115c565b6040516102d09190611d4f565b60405180910390f35b6102e16112a3565b6040516102ee9190611a01565b60405180910390f35b6102ff611317565b005b61031b6004803603810190610316919061193e565b611445565b005b6103256114c9565b005b6003600581111561033b5761033a611beb565b5b60085f9054906101000a900460ff16600581111561035c5761035b611beb565b5b1461039c576040517f08c379a000000000000000000000000000000000000000000000000000000000815260040161039390611ddf565b60405180910390fd5b3373ffffffffffffffffffffffffffffffffffffffff166103bb610c02565b73ffffffffffffffffffffffffffffffffffffffff1603610411576040517f08c379a000000000000000000000000000000000000000000000000000000000815260040161040890611e6d565b60405180910390fd5b6001151560015f3373ffffffffffffffffffffffffffffffffffffffff1673ffffffffffffffffffffffffffffffffffffffff1681526020019081526020015f205f015f9054906101000a900460ff161515146104a3576040517f08c379a000000000000000000000000000000000000000000000000000000000815260040161049a90611ed5565b60405180910390fd5b60016002805490506104b59190611f20565b81106104f6576040517f08c379a00000000000000000000000000000000000000000000000000000000081526004016104ed90611f9d565b60405180910390fd5b6001805f3373ffffffffffffffffffffffffffffffffffffffff1673ffffffffffffffffffffffffffffffffffffffff1681526020019081526020015f205f0160016101000a81548160ff0219169083151502179055508060015f3373ffffffffffffffffffffffffffffffffffffffff1673ffffffffffffffffffffffffffffffffffffffff1681526020019081526020015f2060010181905550600281815481106105a6576105a5611fbb565b5b905f5260205f2090600202016001015f8154809291906105c590611fe8565b919050555050565b5f60015f8373ffffffffffffffffffffffffffffffffffffffff1673ffffffffffffffffffffffffffffffffffffffff1681526020019081526020015f20600101549050919050565b61061e6115f7565b5f600581111561063157610630611beb565b5b60085f9054906101000a900460ff16600581111561065257610651611beb565b5b14610692576040517f08c379a00000000000000000000000000000000000000000000000000000000081526004016106899061209f565b60405180910390fd5b5f151560015f8373ffffffffffffffffffffffffffffffffffffffff1673ffffffffffffffffffffffffffffffffffffffff1681526020019081526020015f205f015f9054906101000a900460ff16151514610723576040517f08c379a000000000000000000000000000000000000000000000000000000000815260040161071a90612107565b60405180910390fd5b5f60405180606001604052806001151581526020015f151581526020015f81525090508060015f8473ffffffffffffffffffffffffffffffffffffffff1673ffffffffffffffffffffffffffffffffffffffff1681526020019081526020015f205f820151815f015f6101000a81548160ff0219169083151502179055506020820151815f0160016101000a81548160ff0219169083151502179055506040820151816001015590505060045f8154809291906107df90611fe8565b91905055507fb6be2187d059cc2a55fe29e0e503b566e1e0f8c8780096e185429350acffd3dd826040516108139190611bd2565b60405180910390a15050565b5f600454905090565b6108306115f7565b5f600581111561084357610842611beb565b5b60085f9054906101000a900460ff16600581111561086457610863611beb565b5b146108a4576040517f08c379a000000000000000000000000000000000000000000000000000000000815260040161089b90612195565b60405180910390fd5b6001600454116108e9576040517f08c379a00000000000000000000000000000000000000000000000000000000081526004016108e090612223565b60405180910390fd5b600160085f6101000a81548160ff0219169083600581111561090e5761090d611beb565b5b02179055507f0a97a4ee45751e2abf3e4fc8946939630b11b371ea8ae39ccdc3056e98f5cc3f600160085f9054906101000a900460ff16600581111561095757610956611beb565b5b6109619190611f20565b600581111561097357610972611beb565b5b60085f9054906101000a900460ff16604051610990929190612241565b60405180910390a1565b60606001151560015f8473ffffffffffffffffffffffffffffffffffffffff1673ffffffffffffffffffffffffffffffffffffffff1681526020019081526020015f205f015f9054906101000a900460ff16151514610a2e576040517f08c379a0000000000000000000000000000000000000000000000000000000008152600401610a25906122d8565b60405180910390fd5b5f60015f8473ffffffffffffffffffffffffffffffffffffffff1673ffffffffffffffffffffffffffffffffffffffff1681526020019081526020015f206001015490505f60028281548110610a8757610a86611fbb565b5b905f5260205f2090600202015f018054610aa090612323565b80601f0160208091040260200160405190810160405280929190818152602001828054610acc90612323565b8015610b175780601f10610aee57610100808354040283529160200191610b17565b820191905f5260205f20905b815481529060010190602001808311610afa57829003601f168201915b50505050509050604051602001610b2d90612380565b6040516020818303038152906040528051906020012081604051602001610b5491906123c4565b6040516020818303038152906040528051906020012003610ba8576040518060400160405280601e81526020017f54686973206164647265737320686173206e6f7420766f74656420796574000081525090505b8092505050919050565b610bba6115f7565b610bc35f61167e565b565b60605f8383604051602001610bdb9291906123da565b60405160208183030381529060405290508091505092915050565b5f600280549050905090565b5f5f5f9054906101000a900473ffffffffffffffffffffffffffffffffffffffff16905090565b5f60085f9054906101000a900460ff16905090565b606060016005811115610c5457610c53611beb565b5b60085f9054906101000a900460ff166005811115610c7557610c74611beb565b5b14610cb5576040517f08c379a0000000000000000000000000000000000000000000000000000000008152600401610cac9061246d565b60405180910390fd5b3373ffffffffffffffffffffffffffffffffffffffff16610cd4610c02565b73ffffffffffffffffffffffffffffffffffffffff1603610d2a576040517f08c379a0000000000000000000000000000000000000000000000000000000008152600401610d21906124fb565b60405180910390fd5b6001151560015f3373ffffffffffffffffffffffffffffffffffffffff1673ffffffffffffffffffffffffffffffffffffffff1681526020019081526020015f205f015f9054906101000a900460ff16151514610dbc576040517f08c379a0000000000000000000000000000000000000000000000000000000008152600401610db390611ed5565b60405180910390fd5b600260405180604001604052808481526020015f815250908060018154018082558091505060019003905f5260205f2090600202015f909190919091505f820151815f019081610e0c91906126b9565b5060208201518160010155505060055f815480929190610e2b90611fe8565b91905055507f92e393e9b54e2f801d3ea4beb0c5e71a21cc34a5d34b77d0fb8a3aa1650dc18f600554604051610e619190611978565b60405180910390a16040518060400160405280601681526020017f4f6b2070726f706f73616c2072656769737465726564000000000000000000008152509050919050565b610eae6115f7565b60026005811115610ec257610ec1611beb565b5b60085f9054906101000a900460ff166005811115610ee357610ee2611beb565b5b14610f23576040517f08c379a0000000000000000000000000000000000000000000000000000000008152600401610f1a9061281e565b60405180910390fd5b600360085f6101000a81548160ff02191690836005811115610f4857610f47611beb565b5b02179055507f0a97a4ee45751e2abf3e4fc8946939630b11b371ea8ae39ccdc3056e98f5cc3f600160085f9054906101000a900460ff166005811115610f9157610f90611beb565b5b610f9b9190611f20565b6005811115610fad57610fac611beb565b5b60085f9054906101000a900460ff16604051610fca929190612241565b60405180910390a1565b610fdc6115f7565b60046005811115610ff057610fef611beb565b5b60085f9054906101000a900460ff16600581111561101157611010611beb565b5b14611051576040517f08c379a000000000000000000000000000000000000000000000000000000000815260040161104890612886565b60405180910390fd5b61105961173f565b5f60035411801561106c57506001600654145b6110ab576040517f08c379a00000000000000000000000000000000000000000000000000000000081526004016110a290612914565b60405180910390fd5b600560085f6101000a81548160ff021916908360058111156110d0576110cf611beb565b5b02179055507f0a97a4ee45751e2abf3e4fc8946939630b11b371ea8ae39ccdc3056e98f5cc3f600160085f9054906101000a900460ff16600581111561111957611118611beb565b5b6111239190611f20565b600581111561113557611134611beb565b5b60085f9054906101000a900460ff16604051611152929190612241565b60405180910390a1565b61116461185c565b60058081111561117757611176611beb565b5b60085f9054906101000a900460ff16600581111561119857611197611beb565b5b146111d8576040517f08c379a00000000000000000000000000000000000000000000000000000000081526004016111cf906129a2565b60405180910390fd5b6002600354815481106111ee576111ed611fbb565b5b905f5260205f2090600202016040518060400160405290815f8201805461121490612323565b80601f016020809104026020016040519081016040528092919081815260200182805461124090612323565b801561128b5780601f106112625761010080835404028352916020019161128b565b820191905f5260205f20905b81548152906001019060200180831161126e57829003601f168201915b50505050508152602001600182015481525050905090565b6060805f5f90505b60028054905081101561130f575f82600283815481106112ce576112cd611fbb565b5b905f5260205f2090600202015f016040516020016112ed929190612a40565b60405160208183030381529060405290508092505080806001019150506112ab565b508091505090565b61131f6115f7565b6001600581111561133357611332611beb565b5b60085f9054906101000a900460ff16600581111561135457611353611beb565b5b14611394576040517f08c379a000000000000000000000000000000000000000000000000000000000815260040161138b90612ad3565b60405180910390fd5b600260085f6101000a81548160ff021916908360058111156113b9576113b8611beb565b5b02179055507f0a97a4ee45751e2abf3e4fc8946939630b11b371ea8ae39ccdc3056e98f5cc3f600160085f9054906101000a900460ff16600581111561140257611401611beb565b5b61140c9190611f20565b600581111561141e5761141d611beb565b5b60085f9054906101000a900460ff1660405161143b929190612241565b60405180910390a1565b61144d6115f7565b5f73ffffffffffffffffffffffffffffffffffffffff168173ffffffffffffffffffffffffffffffffffffffff16036114bd575f6040517f1e4fbdf70000000000000000000000000000000000000000000000000000000081526004016114b49190611bd2565b60405180910390fd5b6114c68161167e565b50565b6114d16115f7565b600360058111156114e5576114e4611beb565b5b60085f9054906101000a900460ff16600581111561150657611505611beb565b5b14611546576040517f08c379a000000000000000000000000000000000000000000000000000000000815260040161153d90612b61565b60405180910390fd5b600460085f6101000a81548160ff0219169083600581111561156b5761156a611beb565b5b02179055507f0a97a4ee45751e2abf3e4fc8946939630b11b371ea8ae39ccdc3056e98f5cc3f600160085f9054906101000a900460ff1660058111156115b4576115b3611beb565b5b6115be9190611f20565b60058111156115d0576115cf611beb565b5b60085f9054906101000a900460ff166040516115ed929190612241565b60405180910390a1565b6115ff611855565b73ffffffffffffffffffffffffffffffffffffffff1661161d610c02565b73ffffffffffffffffffffffffffffffffffffffff161461167c57611640611855565b6040517f118cdaa70000000000000000000000000000000000000000000000000000000081526004016116739190611bd2565b60405180910390fd5b565b5f5f5f9054906101000a900473ffffffffffffffffffffffffffffffffffffffff169050815f5f6101000a81548173ffffffffffffffffffffffffffffffffffffffff021916908373ffffffffffffffffffffffffffffffffffffffff1602179055508173ffffffffffffffffffffffffffffffffffffffff168173ffffffffffffffffffffffffffffffffffffffff167f8be0079c531659141344cd1fd0a4f28419497f9722a3daafe3b4186f6b6457e060405160405180910390a35050565b6117476115f7565b6004600581111561175b5761175a611beb565b5b60085f9054906101000a900460ff16600581111561177c5761177b611beb565b5b146117bc576040517f08c379a00000000000000000000000000000000000000000000000000000000081526004016117b390612bef565b60405180910390fd5b5f600190505b60028054905081101561185257600754600282815481106117e6576117e5611fbb565b5b905f5260205f20906002020160010154111561184557600281815481106118105761180f611fbb565b5b905f5260205f209060020201600101546007819055508060038190555060065f81548092919061183f90611fe8565b91905055505b80806001019150506117c2565b50565b5f33905090565b6040518060400160405280606081526020015f81525090565b5f604051905090565b5f5ffd5b5f5ffd5b5f819050919050565b61189881611886565b81146118a2575f5ffd5b50565b5f813590506118b38161188f565b92915050565b5f602082840312156118ce576118cd61187e565b5b5f6118db848285016118a5565b91505092915050565b5f73ffffffffffffffffffffffffffffffffffffffff82169050919050565b5f61190d826118e4565b9050919050565b61191d81611903565b8114611927575f5ffd5b50565b5f8135905061193881611914565b92915050565b5f602082840312156119535761195261187e565b5b5f6119608482850161192a565b91505092915050565b61197281611886565b82525050565b5f60208201905061198b5f830184611969565b92915050565b5f81519050919050565b5f82825260208201905092915050565b8281835e5f83830152505050565b5f601f19601f8301169050919050565b5f6119d382611991565b6119dd818561199b565b93506119ed8185602086016119ab565b6119f6816119b9565b840191505092915050565b5f6020820190508181035f830152611a1981846119c9565b905092915050565b5f5ffd5b5f5ffd5b7f4e487b71000000000000000000000000000000000000000000000000000000005f52604160045260245ffd5b611a5f826119b9565b810181811067ffffffffffffffff82111715611a7e57611a7d611a29565b5b80604052505050565b5f611a90611875565b9050611a9c8282611a56565b919050565b5f67ffffffffffffffff821115611abb57611aba611a29565b5b611ac4826119b9565b9050602081019050919050565b828183375f83830152505050565b5f611af1611aec84611aa1565b611a87565b905082815260208101848484011115611b0d57611b0c611a25565b5b611b18848285611ad1565b509392505050565b5f82601f830112611b3457611b33611a21565b5b8135611b44848260208601611adf565b91505092915050565b5f5f60408385031215611b6357611b6261187e565b5b5f83013567ffffffffffffffff811115611b8057611b7f611882565b5b611b8c85828601611b20565b925050602083013567ffffffffffffffff811115611bad57611bac611882565b5b611bb985828601611b20565b9150509250929050565b611bcc81611903565b82525050565b5f602082019050611be55f830184611bc3565b92915050565b7f4e487b71000000000000000000000000000000000000000000000000000000005f52602160045260245ffd5b60068110611c2957611c28611beb565b5b50565b5f819050611c3982611c18565b919050565b5f611c4882611c2c565b9050919050565b611c5881611c3e565b82525050565b5f602082019050611c715f830184611c4f565b92915050565b5f60208284031215611c8c57611c8b61187e565b5b5f82013567ffffffffffffffff811115611ca957611ca8611882565b5b611cb584828501611b20565b91505092915050565b5f82825260208201905092915050565b5f611cd882611991565b611ce28185611cbe565b9350611cf28185602086016119ab565b611cfb816119b9565b840191505092915050565b611d0f81611886565b82525050565b5f604083015f8301518482035f860152611d2f8282611cce565b9150506020830151611d446020860182611d06565b508091505092915050565b5f6020820190508181035f830152611d678184611d15565b905092915050565b7f54686520766f74696e672073657373696f6e206973206e6f74207374617274655f8201527f6400000000000000000000000000000000000000000000000000000000000000602082015250565b5f611dc960218361199b565b9150611dd482611d6f565b604082019050919050565b5f6020820190508181035f830152611df681611dbd565b9050919050565b7f596f752061726520746865206f776e6572206f66207468697320636f6e7472615f8201527f63742c20796f752063616e206e6f7420766f7465000000000000000000000000602082015250565b5f611e5760348361199b565b9150611e6282611dfd565b604082019050919050565b5f6020820190508181035f830152611e8481611e4b565b9050919050565b7f596f7520617265206e6f742072656769737465726564000000000000000000005f82015250565b5f611ebf60168361199b565b9150611eca82611e8b565b602082019050919050565b5f6020820190508181035f830152611eec81611eb3565b9050919050565b7f4e487b71000000000000000000000000000000000000000000000000000000005f52601160045260245ffd5b5f611f2a82611886565b9150611f3583611886565b9250828201905080821115611f4d57611f4c611ef3565b5b92915050565b7f546869732070726f706f73616c20494420646f6573206e6f74206578697374735f82015250565b5f611f8760208361199b565b9150611f9282611f53565b602082019050919050565b5f6020820190508181035f830152611fb481611f7b565b9050919050565b7f4e487b71000000000000000000000000000000000000000000000000000000005f52603260045260245ffd5b5f611ff282611886565b91507fffffffffffffffffffffffffffffffffffffffffffffffffffffffffffffffff820361202457612023611ef3565b5b600182019050919050565b7f596f7520617265206e6f7420696e20766f74657220726567697374726174696f5f8201527f6e20706572696f64000000000000000000000000000000000000000000000000602082015250565b5f61208960288361199b565b91506120948261202f565b604082019050919050565b5f6020820190508181035f8301526120b68161207d565b9050919050565b7f596f7520616c72656164792068617665206164642074686973206164726573735f82015250565b5f6120f160208361199b565b91506120fc826120bd565b602082019050919050565b5f6020820190508181035f83015261211e816120e5565b9050919050565b7f596f752063616e206e6f7420737461727420616761696e207468652070726f705f8201527f6f73616c2073657373696f6e0000000000000000000000000000000000000000602082015250565b5f61217f602c8361199b565b915061218a82612125565b604082019050919050565b5f6020820190508181035f8301526121ac81612173565b9050919050565b7f596f75206d757374207265676973746572206174206c656173742032206164645f8201527f7265737365730000000000000000000000000000000000000000000000000000602082015250565b5f61220d60268361199b565b9150612218826121b3565b604082019050919050565b5f6020820190508181035f83015261223a81612201565b9050919050565b5f6040820190506122545f830185611c4f565b6122616020830184611c4f565b9392505050565b7f546869732061646472657373206973206e6f74207265676973746572656420745f8201527f6f2074686520766f746500000000000000000000000000000000000000000000602082015250565b5f6122c2602a8361199b565b91506122cd82612268565b604082019050919050565b5f6020820190508181035f8301526122ef816122b6565b9050919050565b7f4e487b71000000000000000000000000000000000000000000000000000000005f52602260045260245ffd5b5f600282049050600182168061233a57607f821691505b60208210810361234d5761234c6122f6565b5b50919050565b5f81905092915050565b50565b5f61236b5f83612353565b91506123768261235d565b5f82019050919050565b5f61238a82612360565b9150819050919050565b5f61239e82611991565b6123a88185612353565b93506123b88185602086016119ab565b80840191505092915050565b5f6123cf8284612394565b915081905092915050565b5f6123e58285612394565b91506123f18284612394565b91508190509392505050565b7f54686520726567697374726174696f6e20706572696f64206973206e6f7420735f8201527f7461727465640000000000000000000000000000000000000000000000000000602082015250565b5f61245760268361199b565b9150612462826123fd565b604082019050919050565b5f6020820190508181035f8301526124848161244b565b9050919050565b7f596f752061726520746865206f776e6572206f66207468697320636f6e7472615f8201527f63742c20796f752063616e206e6f742070726f706f7365000000000000000000602082015250565b5f6124e560378361199b565b91506124f08261248b565b604082019050919050565b5f6020820190508181035f830152612512816124d9565b9050919050565b5f819050815f5260205f209050919050565b5f6020601f8301049050919050565b5f82821b905092915050565b5f600883026125757fffffffffffffffffffffffffffffffffffffffffffffffffffffffffffffffff8261253a565b61257f868361253a565b95508019841693508086168417925050509392505050565b5f819050919050565b5f6125ba6125b56125b084611886565b612597565b611886565b9050919050565b5f819050919050565b6125d3836125a0565b6125e76125df826125c1565b848454612546565b825550505050565b5f5f905090565b6125fe6125ef565b6126098184846125ca565b505050565b5b8181101561262c576126215f826125f6565b60018101905061260f565b5050565b601f8211156126715761264281612519565b61264b8461252b565b8101602085101561265a578190505b61266e6126668561252b565b83018261260e565b50505b505050565b5f82821c905092915050565b5f6126915f1984600802612676565b1980831691505092915050565b5f6126a98383612682565b9150826002028217905092915050565b6126c282611991565b67ffffffffffffffff8111156126db576126da611a29565b5b6126e58254612323565b6126f0828285612630565b5f60209050601f831160018114612721575f841561270f578287015190505b612719858261269e565b865550612780565b601f19841661272f86612519565b5f5b8281101561275657848901518255600182019150602085019450602081019050612731565b86831015612773578489015161276f601f891682612682565b8355505b6001600288020188555050505b505050505050565b7f5468652070726f706f73616c2073657373696f6e206973206e6f7420656e64655f8201527f64206f722074686520766f74652073657373696f6e2068617320616c7265616460208201527f7920737461727465640000000000000000000000000000000000000000000000604082015250565b5f61280860498361199b565b915061281382612788565b606082019050919050565b5f6020820190508181035f830152612835816127fc565b9050919050565b7f54686520766f74652073657373696f6e206973206e6f7420656e6465640000005f82015250565b5f612870601d8361199b565b915061287b8261283c565b602082019050919050565b5f6020820190508181035f83015261289d81612864565b9050919050565b7f5468657265206973206d6f7265207468616e20312077696e6e65722c20796f755f8201527f206861766520746f20766f746500000000000000000000000000000000000000602082015250565b5f6128fe602d8361199b565b9150612909826128a4565b604082019050919050565b5f6020820190508181035f83015261292b816128f2565b9050919050565b7f5468652077696e6e65722068617665206e6f74206265656e2063686f6f73656e5f8201527f2079657400000000000000000000000000000000000000000000000000000000602082015250565b5f61298c60248361199b565b915061299782612932565b604082019050919050565b5f6020820190508181035f8301526129b981612980565b9050919050565b5f81546129cc81612323565b6129d68186612353565b9450600182165f81146129f05760018114612a0557612a37565b60ff1983168652811515820286019350612a37565b612a0e85612519565b5f5b83811015612a2f57815481890152600182019150602081019050612a10565b838801955050505b50505092915050565b5f612a4b8285612394565b9150612a5782846129c0565b91508190509392505050565b7f5468652070726f706f73616c2073657373696f6e20686173206e6f74207374615f8201527f72746564206f722068617320616c7265616479206265656e20656e6465640000602082015250565b5f612abd603e8361199b565b9150612ac882612a63565b604082019050919050565b5f6020820190508181035f830152612aea81612ab1565b9050919050565b7f54686520766f74652073657373696f6e20686173206e6f7420737461727465645f8201527f206f722068617320616c726561647920656e6465640000000000000000000000602082015250565b5f612b4b60358361199b565b9150612b5682612af1565b604082019050919050565b5f6020820190508181035f830152612b7881612b3f565b9050919050565b7f566f74652073657373696f6e20646964206e6f742074616b6520706c616365205f8201527f6f72206973206e6f7420656e6465640000000000000000000000000000000000602082015250565b5f612bd9602f8361199b565b9150612be482612b7f565b604082019050919050565b5f6020820190508181035f830152612c0681612bcd565b905091905056fea26469706673582212202d989f56c56c914265a822a6d2cd6bda92a03333a59994664d5ed0b15993045264736f6c634300081c00335468652077696e6e657220686173206e6f74206265656e2063686f6f73656e20796574",
					"opcodes": "PUSH1 0x80 PUSH1 0x40 MSTORE PUSH0 PUSH1 0x8 PUSH0 PUSH2 0x100 EXP DUP2 SLOAD DUP2 PUSH1 0xFF MUL NOT AND SWAP1 DUP4 PUSH1 0x5 DUP2 GT ISZERO PUSH2 0x28 JUMPI PUSH2 0x27 PUSH2 0x1F5 JUMP JUMPDEST JUMPDEST MUL OR SWAP1 SSTORE POP CALLVALUE DUP1 ISZERO PUSH2 0x38 JUMPI PUSH0 PUSH0 REVERT JUMPDEST POP CALLER PUSH0 PUSH20 0xFFFFFFFFFFFFFFFFFFFFFFFFFFFFFFFFFFFFFFFF AND DUP2 PUSH20 0xFFFFFFFFFFFFFFFFFFFFFFFFFFFFFFFFFFFFFFFF AND SUB PUSH2 0xAA JUMPI PUSH0 PUSH1 0x40 MLOAD PUSH32 0x1E4FBDF700000000000000000000000000000000000000000000000000000000 DUP2 MSTORE PUSH1 0x4 ADD PUSH2 0xA1 SWAP2 SWAP1 PUSH2 0x261 JUMP JUMPDEST PUSH1 0x40 MLOAD DUP1 SWAP2 SUB SWAP1 REVERT JUMPDEST PUSH2 0xB9 DUP2 PUSH2 0x134 PUSH1 0x20 SHL PUSH1 0x20 SHR JUMP JUMPDEST POP PUSH1 0x2 PUSH1 0x40 MLOAD DUP1 PUSH1 0x40 ADD PUSH1 0x40 MSTORE DUP1 PUSH1 0x40 MLOAD DUP1 PUSH1 0x60 ADD PUSH1 0x40 MSTORE DUP1 PUSH1 0x23 DUP2 MSTORE PUSH1 0x20 ADD PUSH2 0x31D6 PUSH1 0x23 SWAP2 CODECOPY DUP2 MSTORE PUSH1 0x20 ADD PUSH0 DUP2 MSTORE POP SWAP1 DUP1 PUSH1 0x1 DUP2 SLOAD ADD DUP1 DUP3 SSTORE DUP1 SWAP2 POP POP PUSH1 0x1 SWAP1 SUB SWAP1 PUSH0 MSTORE PUSH1 0x20 PUSH0 KECCAK256 SWAP1 PUSH1 0x2 MUL ADD PUSH0 SWAP1 SWAP2 SWAP1 SWAP2 SWAP1 SWAP2 POP PUSH0 DUP3 ADD MLOAD DUP2 PUSH0 ADD SWAP1 DUP2 PUSH2 0x122 SWAP2 SWAP1 PUSH2 0x4B7 JUMP JUMPDEST POP PUSH1 0x20 DUP3 ADD MLOAD DUP2 PUSH1 0x1 ADD SSTORE POP POP PUSH2 0x586 JUMP JUMPDEST PUSH0 PUSH0 PUSH0 SWAP1 SLOAD SWAP1 PUSH2 0x100 EXP SWAP1 DIV PUSH20 0xFFFFFFFFFFFFFFFFFFFFFFFFFFFFFFFFFFFFFFFF AND SWAP1 POP DUP2 PUSH0 PUSH0 PUSH2 0x100 EXP DUP2 SLOAD DUP2 PUSH20 0xFFFFFFFFFFFFFFFFFFFFFFFFFFFFFFFFFFFFFFFF MUL NOT AND SWAP1 DUP4 PUSH20 0xFFFFFFFFFFFFFFFFFFFFFFFFFFFFFFFFFFFFFFFF AND MUL OR SWAP1 SSTORE POP DUP2 PUSH20 0xFFFFFFFFFFFFFFFFFFFFFFFFFFFFFFFFFFFFFFFF AND DUP2 PUSH20 0xFFFFFFFFFFFFFFFFFFFFFFFFFFFFFFFFFFFFFFFF AND PUSH32 0x8BE0079C531659141344CD1FD0A4F28419497F9722A3DAAFE3B4186F6B6457E0 PUSH1 0x40 MLOAD PUSH1 0x40 MLOAD DUP1 SWAP2 SUB SWAP1 LOG3 POP POP JUMP JUMPDEST PUSH32 0x4E487B7100000000000000000000000000000000000000000000000000000000 PUSH0 MSTORE PUSH1 0x21 PUSH1 0x4 MSTORE PUSH1 0x24 PUSH0 REVERT JUMPDEST PUSH0 PUSH20 0xFFFFFFFFFFFFFFFFFFFFFFFFFFFFFFFFFFFFFFFF DUP3 AND SWAP1 POP SWAP2 SWAP1 POP JUMP JUMPDEST PUSH0 PUSH2 0x24B DUP3 PUSH2 0x222 JUMP JUMPDEST SWAP1 POP SWAP2 SWAP1 POP JUMP JUMPDEST PUSH2 0x25B DUP2 PUSH2 0x241 JUMP JUMPDEST DUP3 MSTORE POP POP JUMP JUMPDEST PUSH0 PUSH1 0x20 DUP3 ADD SWAP1 POP PUSH2 0x274 PUSH0 DUP4 ADD DUP5 PUSH2 0x252 JUMP JUMPDEST SWAP3 SWAP2 POP POP JUMP JUMPDEST PUSH0 DUP2 MLOAD SWAP1 POP SWAP2 SWAP1 POP JUMP JUMPDEST PUSH32 0x4E487B7100000000000000000000000000000000000000000000000000000000 PUSH0 MSTORE PUSH1 0x41 PUSH1 0x4 MSTORE PUSH1 0x24 PUSH0 REVERT JUMPDEST PUSH32 0x4E487B7100000000000000000000000000000000000000000000000000000000 PUSH0 MSTORE PUSH1 0x22 PUSH1 0x4 MSTORE PUSH1 0x24 PUSH0 REVERT JUMPDEST PUSH0 PUSH1 0x2 DUP3 DIV SWAP1 POP PUSH1 0x1 DUP3 AND DUP1 PUSH2 0x2F5 JUMPI PUSH1 0x7F DUP3 AND SWAP2 POP JUMPDEST PUSH1 0x20 DUP3 LT DUP2 SUB PUSH2 0x308 JUMPI PUSH2 0x307 PUSH2 0x2B1 JUMP JUMPDEST JUMPDEST POP SWAP2 SWAP1 POP JUMP JUMPDEST PUSH0 DUP2 SWAP1 POP DUP2 PUSH0 MSTORE PUSH1 0x20 PUSH0 KECCAK256 SWAP1 POP SWAP2 SWAP1 POP JUMP JUMPDEST PUSH0 PUSH1 0x20 PUSH1 0x1F DUP4 ADD DIV SWAP1 POP SWAP2 SWAP1 POP JUMP JUMPDEST PUSH0 DUP3 DUP3 SHL SWAP1 POP SWAP3 SWAP2 POP POP JUMP JUMPDEST PUSH0 PUSH1 0x8 DUP4 MUL PUSH2 0x36A PUSH32 0xFFFFFFFFFFFFFFFFFFFFFFFFFFFFFFFFFFFFFFFFFFFFFFFFFFFFFFFFFFFFFFFF DUP3 PUSH2 0x32F JUMP JUMPDEST PUSH2 0x374 DUP7 DUP4 PUSH2 0x32F JUMP JUMPDEST SWAP6 POP DUP1 NOT DUP5 AND SWAP4 POP DUP1 DUP7 AND DUP5 OR SWAP3 POP POP POP SWAP4 SWAP3 POP POP POP JUMP JUMPDEST PUSH0 DUP2 SWAP1 POP SWAP2 SWAP1 POP JUMP JUMPDEST PUSH0 DUP2 SWAP1 POP SWAP2 SWAP1 POP JUMP JUMPDEST PUSH0 PUSH2 0x3B8 PUSH2 0x3B3 PUSH2 0x3AE DUP5 PUSH2 0x38C JUMP JUMPDEST PUSH2 0x395 JUMP JUMPDEST PUSH2 0x38C JUMP JUMPDEST SWAP1 POP SWAP2 SWAP1 POP JUMP JUMPDEST PUSH0 DUP2 SWAP1 POP SWAP2 SWAP1 POP JUMP JUMPDEST PUSH2 0x3D1 DUP4 PUSH2 0x39E JUMP JUMPDEST PUSH2 0x3E5 PUSH2 0x3DD DUP3 PUSH2 0x3BF JUMP JUMPDEST DUP5 DUP5 SLOAD PUSH2 0x33B JUMP JUMPDEST DUP3 SSTORE POP POP POP POP JUMP JUMPDEST PUSH0 PUSH0 SWAP1 POP SWAP1 JUMP JUMPDEST PUSH2 0x3FC PUSH2 0x3ED JUMP JUMPDEST PUSH2 0x407 DUP2 DUP5 DUP5 PUSH2 0x3C8 JUMP JUMPDEST POP POP POP JUMP JUMPDEST JUMPDEST DUP2 DUP2 LT ISZERO PUSH2 0x42A JUMPI PUSH2 0x41F PUSH0 DUP3 PUSH2 0x3F4 JUMP JUMPDEST PUSH1 0x1 DUP2 ADD SWAP1 POP PUSH2 0x40D JUMP JUMPDEST POP POP JUMP JUMPDEST PUSH1 0x1F DUP3 GT ISZERO PUSH2 0x46F JUMPI PUSH2 0x440 DUP2 PUSH2 0x30E JUMP JUMPDEST PUSH2 0x449 DUP5 PUSH2 0x320 JUMP JUMPDEST DUP2 ADD PUSH1 0x20 DUP6 LT ISZERO PUSH2 0x458 JUMPI DUP2 SWAP1 POP JUMPDEST PUSH2 0x46C PUSH2 0x464 DUP6 PUSH2 0x320 JUMP JUMPDEST DUP4 ADD DUP3 PUSH2 0x40C JUMP JUMPDEST POP POP JUMPDEST POP POP POP JUMP JUMPDEST PUSH0 DUP3 DUP3 SHR SWAP1 POP SWAP3 SWAP2 POP POP JUMP JUMPDEST PUSH0 PUSH2 0x48F PUSH0 NOT DUP5 PUSH1 0x8 MUL PUSH2 0x474 JUMP JUMPDEST NOT DUP1 DUP4 AND SWAP2 POP POP SWAP3 SWAP2 POP POP JUMP JUMPDEST PUSH0 PUSH2 0x4A7 DUP4 DUP4 PUSH2 0x480 JUMP JUMPDEST SWAP2 POP DUP3 PUSH1 0x2 MUL DUP3 OR SWAP1 POP SWAP3 SWAP2 POP POP JUMP JUMPDEST PUSH2 0x4C0 DUP3 PUSH2 0x27A JUMP JUMPDEST PUSH8 0xFFFFFFFFFFFFFFFF DUP2 GT ISZERO PUSH2 0x4D9 JUMPI PUSH2 0x4D8 PUSH2 0x284 JUMP JUMPDEST JUMPDEST PUSH2 0x4E3 DUP3 SLOAD PUSH2 0x2DE JUMP JUMPDEST PUSH2 0x4EE DUP3 DUP3 DUP6 PUSH2 0x42E JUMP JUMPDEST PUSH0 PUSH1 0x20 SWAP1 POP PUSH1 0x1F DUP4 GT PUSH1 0x1 DUP2 EQ PUSH2 0x51F JUMPI PUSH0 DUP5 ISZERO PUSH2 0x50D JUMPI DUP3 DUP8 ADD MLOAD SWAP1 POP JUMPDEST PUSH2 0x517 DUP6 DUP3 PUSH2 0x49C JUMP JUMPDEST DUP7 SSTORE POP PUSH2 0x57E JUMP JUMPDEST PUSH1 0x1F NOT DUP5 AND PUSH2 0x52D DUP7 PUSH2 0x30E JUMP JUMPDEST PUSH0 JUMPDEST DUP3 DUP2 LT ISZERO PUSH2 0x554 JUMPI DUP5 DUP10 ADD MLOAD DUP3 SSTORE PUSH1 0x1 DUP3 ADD SWAP2 POP PUSH1 0x20 DUP6 ADD SWAP5 POP PUSH1 0x20 DUP2 ADD SWAP1 POP PUSH2 0x52F JUMP JUMPDEST DUP7 DUP4 LT ISZERO PUSH2 0x571 JUMPI DUP5 DUP10 ADD MLOAD PUSH2 0x56D PUSH1 0x1F DUP10 AND DUP3 PUSH2 0x480 JUMP JUMPDEST DUP4 SSTORE POP JUMPDEST PUSH1 0x1 PUSH1 0x2 DUP9 MUL ADD DUP9 SSTORE POP POP POP JUMPDEST POP POP POP POP POP POP JUMP JUMPDEST PUSH2 0x2C43 DUP1 PUSH2 0x593 PUSH0 CODECOPY PUSH0 RETURN INVALID PUSH1 0x80 PUSH1 0x40 MSTORE CALLVALUE DUP1 ISZERO PUSH2 0xF JUMPI PUSH0 PUSH0 REVERT JUMPDEST POP PUSH1 0x4 CALLDATASIZE LT PUSH2 0x11F JUMPI PUSH0 CALLDATALOAD PUSH1 0xE0 SHR DUP1 PUSH4 0x8DA5CB5B GT PUSH2 0xAB JUMPI DUP1 PUSH4 0xB6C0FB59 GT PUSH2 0x6F JUMPI DUP1 PUSH4 0xB6C0FB59 EQ PUSH2 0x2BB JUMPI DUP1 PUSH4 0xD841E5FC EQ PUSH2 0x2D9 JUMPI DUP1 PUSH4 0xE06752C2 EQ PUSH2 0x2F7 JUMPI DUP1 PUSH4 0xF2FDE38B EQ PUSH2 0x301 JUMPI DUP1 PUSH4 0xF74C168D EQ PUSH2 0x31D JUMPI PUSH2 0x11F JUMP JUMPDEST DUP1 PUSH4 0x8DA5CB5B EQ PUSH2 0x23B JUMPI DUP1 PUSH4 0xA3DD2619 EQ PUSH2 0x259 JUMPI DUP1 PUSH4 0xAA98DF39 EQ PUSH2 0x277 JUMPI DUP1 PUSH4 0xAAA98346 EQ PUSH2 0x2A7 JUMPI DUP1 PUSH4 0xADA7415F EQ PUSH2 0x2B1 JUMPI PUSH2 0x11F JUMP JUMPDEST DUP1 PUSH4 0x50D072FC GT PUSH2 0xF2 JUMPI DUP1 PUSH4 0x50D072FC EQ PUSH2 0x1A9 JUMPI DUP1 PUSH4 0x5141E520 EQ PUSH2 0x1B3 JUMPI DUP1 PUSH4 0x715018A6 EQ PUSH2 0x1E3 JUMPI DUP1 PUSH4 0x7A36B3EE EQ PUSH2 0x1ED JUMPI DUP1 PUSH4 0x8263A938 EQ PUSH2 0x21D JUMPI PUSH2 0x11F JUMP JUMPDEST DUP1 PUSH4 0x121B93F EQ PUSH2 0x123 JUMPI DUP1 PUSH4 0x2C456E9A EQ PUSH2 0x13F JUMPI DUP1 PUSH4 0x38DB6DD3 EQ PUSH2 0x16F JUMPI DUP1 PUSH4 0x4E02C55C EQ PUSH2 0x18B JUMPI JUMPDEST PUSH0 PUSH0 REVERT JUMPDEST PUSH2 0x13D PUSH1 0x4 DUP1 CALLDATASIZE SUB DUP2 ADD SWAP1 PUSH2 0x138 SWAP2 SWAP1 PUSH2 0x18B9 JUMP JUMPDEST PUSH2 0x327 JUMP JUMPDEST STOP JUMPDEST PUSH2 0x159 PUSH1 0x4 DUP1 CALLDATASIZE SUB DUP2 ADD SWAP1 PUSH2 0x154 SWAP2 SWAP1 PUSH2 0x193E JUMP JUMPDEST PUSH2 0x5CD JUMP JUMPDEST PUSH1 0x40 MLOAD PUSH2 0x166 SWAP2 SWAP1 PUSH2 0x1978 JUMP JUMPDEST PUSH1 0x40 MLOAD DUP1 SWAP2 SUB SWAP1 RETURN JUMPDEST PUSH2 0x189 PUSH1 0x4 DUP1 CALLDATASIZE SUB DUP2 ADD SWAP1 PUSH2 0x184 SWAP2 SWAP1 PUSH2 0x193E JUMP JUMPDEST PUSH2 0x616 JUMP JUMPDEST STOP JUMPDEST PUSH2 0x193 PUSH2 0x81F JUMP JUMPDEST PUSH1 0x40 MLOAD PUSH2 0x1A0 SWAP2 SWAP1 PUSH2 0x1978 JUMP JUMPDEST PUSH1 0x40 MLOAD DUP1 SWAP2 SUB SWAP1 RETURN JUMPDEST PUSH2 0x1B1 PUSH2 0x828 JUMP JUMPDEST STOP JUMPDEST PUSH2 0x1CD PUSH1 0x4 DUP1 CALLDATASIZE SUB DUP2 ADD SWAP1 PUSH2 0x1C8 SWAP2 SWAP1 PUSH2 0x193E JUMP JUMPDEST PUSH2 0x99A JUMP JUMPDEST PUSH1 0x40 MLOAD PUSH2 0x1DA SWAP2 SWAP1 PUSH2 0x1A01 JUMP JUMPDEST PUSH1 0x40 MLOAD DUP1 SWAP2 SUB SWAP1 RETURN JUMPDEST PUSH2 0x1EB PUSH2 0xBB2 JUMP JUMPDEST STOP JUMPDEST PUSH2 0x207 PUSH1 0x4 DUP1 CALLDATASIZE SUB DUP2 ADD SWAP1 PUSH2 0x202 SWAP2 SWAP1 PUSH2 0x1B4D JUMP JUMPDEST PUSH2 0xBC5 JUMP JUMPDEST PUSH1 0x40 MLOAD PUSH2 0x214 SWAP2 SWAP1 PUSH2 0x1A01 JUMP JUMPDEST PUSH1 0x40 MLOAD DUP1 SWAP2 SUB SWAP1 RETURN JUMPDEST PUSH2 0x225 PUSH2 0xBF6 JUMP JUMPDEST PUSH1 0x40 MLOAD PUSH2 0x232 SWAP2 SWAP1 PUSH2 0x1978 JUMP JUMPDEST PUSH1 0x40 MLOAD DUP1 SWAP2 SUB SWAP1 RETURN JUMPDEST PUSH2 0x243 PUSH2 0xC02 JUMP JUMPDEST PUSH1 0x40 MLOAD PUSH2 0x250 SWAP2 SWAP1 PUSH2 0x1BD2 JUMP JUMPDEST PUSH1 0x40 MLOAD DUP1 SWAP2 SUB SWAP1 RETURN JUMPDEST PUSH2 0x261 PUSH2 0xC29 JUMP JUMPDEST PUSH1 0x40 MLOAD PUSH2 0x26E SWAP2 SWAP1 PUSH2 0x1C5E JUMP JUMPDEST PUSH1 0x40 MLOAD DUP1 SWAP2 SUB SWAP1 RETURN JUMPDEST PUSH2 0x291 PUSH1 0x4 DUP1 CALLDATASIZE SUB DUP2 ADD SWAP1 PUSH2 0x28C SWAP2 SWAP1 PUSH2 0x1C77 JUMP JUMPDEST PUSH2 0xC3E JUMP JUMPDEST PUSH1 0x40 MLOAD PUSH2 0x29E SWAP2 SWAP1 PUSH2 0x1A01 JUMP JUMPDEST PUSH1 0x40 MLOAD DUP1 SWAP2 SUB SWAP1 RETURN JUMPDEST PUSH2 0x2AF PUSH2 0xEA6 JUMP JUMPDEST STOP JUMPDEST PUSH2 0x2B9 PUSH2 0xFD4 JUMP JUMPDEST STOP JUMPDEST PUSH2 0x2C3 PUSH2 0x115C JUMP JUMPDEST PUSH1 0x40 MLOAD PUSH2 0x2D0 SWAP2 SWAP1 PUSH2 0x1D4F JUMP JUMPDEST PUSH1 0x40 MLOAD DUP1 SWAP2 SUB SWAP1 RETURN JUMPDEST PUSH2 0x2E1 PUSH2 0x12A3 JUMP JUMPDEST PUSH1 0x40 MLOAD PUSH2 0x2EE SWAP2 SWAP1 PUSH2 0x1A01 JUMP JUMPDEST PUSH1 0x40 MLOAD DUP1 SWAP2 SUB SWAP1 RETURN JUMPDEST PUSH2 0x2FF PUSH2 0x1317 JUMP JUMPDEST STOP JUMPDEST PUSH2 0x31B PUSH1 0x4 DUP1 CALLDATASIZE SUB DUP2 ADD SWAP1 PUSH2 0x316 SWAP2 SWAP1 PUSH2 0x193E JUMP JUMPDEST PUSH2 0x1445 JUMP JUMPDEST STOP JUMPDEST PUSH2 0x325 PUSH2 0x14C9 JUMP JUMPDEST STOP JUMPDEST PUSH1 0x3 PUSH1 0x5 DUP2 GT ISZERO PUSH2 0x33B JUMPI PUSH2 0x33A PUSH2 0x1BEB JUMP JUMPDEST JUMPDEST PUSH1 0x8 PUSH0 SWAP1 SLOAD SWAP1 PUSH2 0x100 EXP SWAP1 DIV PUSH1 0xFF AND PUSH1 0x5 DUP2 GT ISZERO PUSH2 0x35C JUMPI PUSH2 0x35B PUSH2 0x1BEB JUMP JUMPDEST JUMPDEST EQ PUSH2 0x39C JUMPI PUSH1 0x40 MLOAD PUSH32 0x8C379A000000000000000000000000000000000000000000000000000000000 DUP2 MSTORE PUSH1 0x4 ADD PUSH2 0x393 SWAP1 PUSH2 0x1DDF JUMP JUMPDEST PUSH1 0x40 MLOAD DUP1 SWAP2 SUB SWAP1 REVERT JUMPDEST CALLER PUSH20 0xFFFFFFFFFFFFFFFFFFFFFFFFFFFFFFFFFFFFFFFF AND PUSH2 0x3BB PUSH2 0xC02 JUMP JUMPDEST PUSH20 0xFFFFFFFFFFFFFFFFFFFFFFFFFFFFFFFFFFFFFFFF AND SUB PUSH2 0x411 JUMPI PUSH1 0x40 MLOAD PUSH32 0x8C379A000000000000000000000000000000000000000000000000000000000 DUP2 MSTORE PUSH1 0x4 ADD PUSH2 0x408 SWAP1 PUSH2 0x1E6D JUMP JUMPDEST PUSH1 0x40 MLOAD DUP1 SWAP2 SUB SWAP1 REVERT JUMPDEST PUSH1 0x1 ISZERO ISZERO PUSH1 0x1 PUSH0 CALLER PUSH20 0xFFFFFFFFFFFFFFFFFFFFFFFFFFFFFFFFFFFFFFFF AND PUSH20 0xFFFFFFFFFFFFFFFFFFFFFFFFFFFFFFFFFFFFFFFF AND DUP2 MSTORE PUSH1 0x20 ADD SWAP1 DUP2 MSTORE PUSH1 0x20 ADD PUSH0 KECCAK256 PUSH0 ADD PUSH0 SWAP1 SLOAD SWAP1 PUSH2 0x100 EXP SWAP1 DIV PUSH1 0xFF AND ISZERO ISZERO EQ PUSH2 0x4A3 JUMPI PUSH1 0x40 MLOAD PUSH32 0x8C379A000000000000000000000000000000000000000000000000000000000 DUP2 MSTORE PUSH1 0x4 ADD PUSH2 0x49A SWAP1 PUSH2 0x1ED5 JUMP JUMPDEST PUSH1 0x40 MLOAD DUP1 SWAP2 SUB SWAP1 REVERT JUMPDEST PUSH1 0x1 PUSH1 0x2 DUP1 SLOAD SWAP1 POP PUSH2 0x4B5 SWAP2 SWAP1 PUSH2 0x1F20 JUMP JUMPDEST DUP2 LT PUSH2 0x4F6 JUMPI PUSH1 0x40 MLOAD PUSH32 0x8C379A000000000000000000000000000000000000000000000000000000000 DUP2 MSTORE PUSH1 0x4 ADD PUSH2 0x4ED SWAP1 PUSH2 0x1F9D JUMP JUMPDEST PUSH1 0x40 MLOAD DUP1 SWAP2 SUB SWAP1 REVERT JUMPDEST PUSH1 0x1 DUP1 PUSH0 CALLER PUSH20 0xFFFFFFFFFFFFFFFFFFFFFFFFFFFFFFFFFFFFFFFF AND PUSH20 0xFFFFFFFFFFFFFFFFFFFFFFFFFFFFFFFFFFFFFFFF AND DUP2 MSTORE PUSH1 0x20 ADD SWAP1 DUP2 MSTORE PUSH1 0x20 ADD PUSH0 KECCAK256 PUSH0 ADD PUSH1 0x1 PUSH2 0x100 EXP DUP2 SLOAD DUP2 PUSH1 0xFF MUL NOT AND SWAP1 DUP4 ISZERO ISZERO MUL OR SWAP1 SSTORE POP DUP1 PUSH1 0x1 PUSH0 CALLER PUSH20 0xFFFFFFFFFFFFFFFFFFFFFFFFFFFFFFFFFFFFFFFF AND PUSH20 0xFFFFFFFFFFFFFFFFFFFFFFFFFFFFFFFFFFFFFFFF AND DUP2 MSTORE PUSH1 0x20 ADD SWAP1 DUP2 MSTORE PUSH1 0x20 ADD PUSH0 KECCAK256 PUSH1 0x1 ADD DUP2 SWAP1 SSTORE POP PUSH1 0x2 DUP2 DUP2 SLOAD DUP2 LT PUSH2 0x5A6 JUMPI PUSH2 0x5A5 PUSH2 0x1FBB JUMP JUMPDEST JUMPDEST SWAP1 PUSH0 MSTORE PUSH1 0x20 PUSH0 KECCAK256 SWAP1 PUSH1 0x2 MUL ADD PUSH1 0x1 ADD PUSH0 DUP2 SLOAD DUP1 SWAP3 SWAP2 SWAP1 PUSH2 0x5C5 SWAP1 PUSH2 0x1FE8 JUMP JUMPDEST SWAP2 SWAP1 POP SSTORE POP POP JUMP JUMPDEST PUSH0 PUSH1 0x1 PUSH0 DUP4 PUSH20 0xFFFFFFFFFFFFFFFFFFFFFFFFFFFFFFFFFFFFFFFF AND PUSH20 0xFFFFFFFFFFFFFFFFFFFFFFFFFFFFFFFFFFFFFFFF AND DUP2 MSTORE PUSH1 0x20 ADD SWAP1 DUP2 MSTORE PUSH1 0x20 ADD PUSH0 KECCAK256 PUSH1 0x1 ADD SLOAD SWAP1 POP SWAP2 SWAP1 POP JUMP JUMPDEST PUSH2 0x61E PUSH2 0x15F7 JUMP JUMPDEST PUSH0 PUSH1 0x5 DUP2 GT ISZERO PUSH2 0x631 JUMPI PUSH2 0x630 PUSH2 0x1BEB JUMP JUMPDEST JUMPDEST PUSH1 0x8 PUSH0 SWAP1 SLOAD SWAP1 PUSH2 0x100 EXP SWAP1 DIV PUSH1 0xFF AND PUSH1 0x5 DUP2 GT ISZERO PUSH2 0x652 JUMPI PUSH2 0x651 PUSH2 0x1BEB JUMP JUMPDEST JUMPDEST EQ PUSH2 0x692 JUMPI PUSH1 0x40 MLOAD PUSH32 0x8C379A000000000000000000000000000000000000000000000000000000000 DUP2 MSTORE PUSH1 0x4 ADD PUSH2 0x689 SWAP1 PUSH2 0x209F JUMP JUMPDEST PUSH1 0x40 MLOAD DUP1 SWAP2 SUB SWAP1 REVERT JUMPDEST PUSH0 ISZERO ISZERO PUSH1 0x1 PUSH0 DUP4 PUSH20 0xFFFFFFFFFFFFFFFFFFFFFFFFFFFFFFFFFFFFFFFF AND PUSH20 0xFFFFFFFFFFFFFFFFFFFFFFFFFFFFFFFFFFFFFFFF AND DUP2 MSTORE PUSH1 0x20 ADD SWAP1 DUP2 MSTORE PUSH1 0x20 ADD PUSH0 KECCAK256 PUSH0 ADD PUSH0 SWAP1 SLOAD SWAP1 PUSH2 0x100 EXP SWAP1 DIV PUSH1 0xFF AND ISZERO ISZERO EQ PUSH2 0x723 JUMPI PUSH1 0x40 MLOAD PUSH32 0x8C379A000000000000000000000000000000000000000000000000000000000 DUP2 MSTORE PUSH1 0x4 ADD PUSH2 0x71A SWAP1 PUSH2 0x2107 JUMP JUMPDEST PUSH1 0x40 MLOAD DUP1 SWAP2 SUB SWAP1 REVERT JUMPDEST PUSH0 PUSH1 0x40 MLOAD DUP1 PUSH1 0x60 ADD PUSH1 0x40 MSTORE DUP1 PUSH1 0x1 ISZERO ISZERO DUP2 MSTORE PUSH1 0x20 ADD PUSH0 ISZERO ISZERO DUP2 MSTORE PUSH1 0x20 ADD PUSH0 DUP2 MSTORE POP SWAP1 POP DUP1 PUSH1 0x1 PUSH0 DUP5 PUSH20 0xFFFFFFFFFFFFFFFFFFFFFFFFFFFFFFFFFFFFFFFF AND PUSH20 0xFFFFFFFFFFFFFFFFFFFFFFFFFFFFFFFFFFFFFFFF AND DUP2 MSTORE PUSH1 0x20 ADD SWAP1 DUP2 MSTORE PUSH1 0x20 ADD PUSH0 KECCAK256 PUSH0 DUP3 ADD MLOAD DUP2 PUSH0 ADD PUSH0 PUSH2 0x100 EXP DUP2 SLOAD DUP2 PUSH1 0xFF MUL NOT AND SWAP1 DUP4 ISZERO ISZERO MUL OR SWAP1 SSTORE POP PUSH1 0x20 DUP3 ADD MLOAD DUP2 PUSH0 ADD PUSH1 0x1 PUSH2 0x100 EXP DUP2 SLOAD DUP2 PUSH1 0xFF MUL NOT AND SWAP1 DUP4 ISZERO ISZERO MUL OR SWAP1 SSTORE POP PUSH1 0x40 DUP3 ADD MLOAD DUP2 PUSH1 0x1 ADD SSTORE SWAP1 POP POP PUSH1 0x4 PUSH0 DUP2 SLOAD DUP1 SWAP3 SWAP2 SWAP1 PUSH2 0x7DF SWAP1 PUSH2 0x1FE8 JUMP JUMPDEST SWAP2 SWAP1 POP SSTORE POP PUSH32 0xB6BE2187D059CC2A55FE29E0E503B566E1E0F8C8780096E185429350ACFFD3DD DUP3 PUSH1 0x40 MLOAD PUSH2 0x813 SWAP2 SWAP1 PUSH2 0x1BD2 JUMP JUMPDEST PUSH1 0x40 MLOAD DUP1 SWAP2 SUB SWAP1 LOG1 POP POP JUMP JUMPDEST PUSH0 PUSH1 0x4 SLOAD SWAP1 POP SWAP1 JUMP JUMPDEST PUSH2 0x830 PUSH2 0x15F7 JUMP JUMPDEST PUSH0 PUSH1 0x5 DUP2 GT ISZERO PUSH2 0x843 JUMPI PUSH2 0x842 PUSH2 0x1BEB JUMP JUMPDEST JUMPDEST PUSH1 0x8 PUSH0 SWAP1 SLOAD SWAP1 PUSH2 0x100 EXP SWAP1 DIV PUSH1 0xFF AND PUSH1 0x5 DUP2 GT ISZERO PUSH2 0x864 JUMPI PUSH2 0x863 PUSH2 0x1BEB JUMP JUMPDEST JUMPDEST EQ PUSH2 0x8A4 JUMPI PUSH1 0x40 MLOAD PUSH32 0x8C379A000000000000000000000000000000000000000000000000000000000 DUP2 MSTORE PUSH1 0x4 ADD PUSH2 0x89B SWAP1 PUSH2 0x2195 JUMP JUMPDEST PUSH1 0x40 MLOAD DUP1 SWAP2 SUB SWAP1 REVERT JUMPDEST PUSH1 0x1 PUSH1 0x4 SLOAD GT PUSH2 0x8E9 JUMPI PUSH1 0x40 MLOAD PUSH32 0x8C379A000000000000000000000000000000000000000000000000000000000 DUP2 MSTORE PUSH1 0x4 ADD PUSH2 0x8E0 SWAP1 PUSH2 0x2223 JUMP JUMPDEST PUSH1 0x40 MLOAD DUP1 SWAP2 SUB SWAP1 REVERT JUMPDEST PUSH1 0x1 PUSH1 0x8 PUSH0 PUSH2 0x100 EXP DUP2 SLOAD DUP2 PUSH1 0xFF MUL NOT AND SWAP1 DUP4 PUSH1 0x5 DUP2 GT ISZERO PUSH2 0x90E JUMPI PUSH2 0x90D PUSH2 0x1BEB JUMP JUMPDEST JUMPDEST MUL OR SWAP1 SSTORE POP PUSH32 0xA97A4EE45751E2ABF3E4FC8946939630B11B371EA8AE39CCDC3056E98F5CC3F PUSH1 0x1 PUSH1 0x8 PUSH0 SWAP1 SLOAD SWAP1 PUSH2 0x100 EXP SWAP1 DIV PUSH1 0xFF AND PUSH1 0x5 DUP2 GT ISZERO PUSH2 0x957 JUMPI PUSH2 0x956 PUSH2 0x1BEB JUMP JUMPDEST JUMPDEST PUSH2 0x961 SWAP2 SWAP1 PUSH2 0x1F20 JUMP JUMPDEST PUSH1 0x5 DUP2 GT ISZERO PUSH2 0x973 JUMPI PUSH2 0x972 PUSH2 0x1BEB JUMP JUMPDEST JUMPDEST PUSH1 0x8 PUSH0 SWAP1 SLOAD SWAP1 PUSH2 0x100 EXP SWAP1 DIV PUSH1 0xFF AND PUSH1 0x40 MLOAD PUSH2 0x990 SWAP3 SWAP2 SWAP1 PUSH2 0x2241 JUMP JUMPDEST PUSH1 0x40 MLOAD DUP1 SWAP2 SUB SWAP1 LOG1 JUMP JUMPDEST PUSH1 0x60 PUSH1 0x1 ISZERO ISZERO PUSH1 0x1 PUSH0 DUP5 PUSH20 0xFFFFFFFFFFFFFFFFFFFFFFFFFFFFFFFFFFFFFFFF AND PUSH20 0xFFFFFFFFFFFFFFFFFFFFFFFFFFFFFFFFFFFFFFFF AND DUP2 MSTORE PUSH1 0x20 ADD SWAP1 DUP2 MSTORE PUSH1 0x20 ADD PUSH0 KECCAK256 PUSH0 ADD PUSH0 SWAP1 SLOAD SWAP1 PUSH2 0x100 EXP SWAP1 DIV PUSH1 0xFF AND ISZERO ISZERO EQ PUSH2 0xA2E JUMPI PUSH1 0x40 MLOAD PUSH32 0x8C379A000000000000000000000000000000000000000000000000000000000 DUP2 MSTORE PUSH1 0x4 ADD PUSH2 0xA25 SWAP1 PUSH2 0x22D8 JUMP JUMPDEST PUSH1 0x40 MLOAD DUP1 SWAP2 SUB SWAP1 REVERT JUMPDEST PUSH0 PUSH1 0x1 PUSH0 DUP5 PUSH20 0xFFFFFFFFFFFFFFFFFFFFFFFFFFFFFFFFFFFFFFFF AND PUSH20 0xFFFFFFFFFFFFFFFFFFFFFFFFFFFFFFFFFFFFFFFF AND DUP2 MSTORE PUSH1 0x20 ADD SWAP1 DUP2 MSTORE PUSH1 0x20 ADD PUSH0 KECCAK256 PUSH1 0x1 ADD SLOAD SWAP1 POP PUSH0 PUSH1 0x2 DUP3 DUP2 SLOAD DUP2 LT PUSH2 0xA87 JUMPI PUSH2 0xA86 PUSH2 0x1FBB JUMP JUMPDEST JUMPDEST SWAP1 PUSH0 MSTORE PUSH1 0x20 PUSH0 KECCAK256 SWAP1 PUSH1 0x2 MUL ADD PUSH0 ADD DUP1 SLOAD PUSH2 0xAA0 SWAP1 PUSH2 0x2323 JUMP JUMPDEST DUP1 PUSH1 0x1F ADD PUSH1 0x20 DUP1 SWAP2 DIV MUL PUSH1 0x20 ADD PUSH1 0x40 MLOAD SWAP1 DUP2 ADD PUSH1 0x40 MSTORE DUP1 SWAP3 SWAP2 SWAP1 DUP2 DUP2 MSTORE PUSH1 0x20 ADD DUP3 DUP1 SLOAD PUSH2 0xACC SWAP1 PUSH2 0x2323 JUMP JUMPDEST DUP1 ISZERO PUSH2 0xB17 JUMPI DUP1 PUSH1 0x1F LT PUSH2 0xAEE JUMPI PUSH2 0x100 DUP1 DUP4 SLOAD DIV MUL DUP4 MSTORE SWAP2 PUSH1 0x20 ADD SWAP2 PUSH2 0xB17 JUMP JUMPDEST DUP3 ADD SWAP2 SWAP1 PUSH0 MSTORE PUSH1 0x20 PUSH0 KECCAK256 SWAP1 JUMPDEST DUP2 SLOAD DUP2 MSTORE SWAP1 PUSH1 0x1 ADD SWAP1 PUSH1 0x20 ADD DUP1 DUP4 GT PUSH2 0xAFA JUMPI DUP3 SWAP1 SUB PUSH1 0x1F AND DUP3 ADD SWAP2 JUMPDEST POP POP POP POP POP SWAP1 POP PUSH1 0x40 MLOAD PUSH1 0x20 ADD PUSH2 0xB2D SWAP1 PUSH2 0x2380 JUMP JUMPDEST PUSH1 0x40 MLOAD PUSH1 0x20 DUP2 DUP4 SUB SUB DUP2 MSTORE SWAP1 PUSH1 0x40 MSTORE DUP1 MLOAD SWAP1 PUSH1 0x20 ADD KECCAK256 DUP2 PUSH1 0x40 MLOAD PUSH1 0x20 ADD PUSH2 0xB54 SWAP2 SWAP1 PUSH2 0x23C4 JUMP JUMPDEST PUSH1 0x40 MLOAD PUSH1 0x20 DUP2 DUP4 SUB SUB DUP2 MSTORE SWAP1 PUSH1 0x40 MSTORE DUP1 MLOAD SWAP1 PUSH1 0x20 ADD KECCAK256 SUB PUSH2 0xBA8 JUMPI PUSH1 0x40 MLOAD DUP1 PUSH1 0x40 ADD PUSH1 0x40 MSTORE DUP1 PUSH1 0x1E DUP2 MSTORE PUSH1 0x20 ADD PUSH32 0x54686973206164647265737320686173206E6F7420766F746564207965740000 DUP2 MSTORE POP SWAP1 POP JUMPDEST DUP1 SWAP3 POP POP POP SWAP2 SWAP1 POP JUMP JUMPDEST PUSH2 0xBBA PUSH2 0x15F7 JUMP JUMPDEST PUSH2 0xBC3 PUSH0 PUSH2 0x167E JUMP JUMPDEST JUMP JUMPDEST PUSH1 0x60 PUSH0 DUP4 DUP4 PUSH1 0x40 MLOAD PUSH1 0x20 ADD PUSH2 0xBDB SWAP3 SWAP2 SWAP1 PUSH2 0x23DA JUMP JUMPDEST PUSH1 0x40 MLOAD PUSH1 0x20 DUP2 DUP4 SUB SUB DUP2 MSTORE SWAP1 PUSH1 0x40 MSTORE SWAP1 POP DUP1 SWAP2 POP POP SWAP3 SWAP2 POP POP JUMP JUMPDEST PUSH0 PUSH1 0x2 DUP1 SLOAD SWAP1 POP SWAP1 POP SWAP1 JUMP JUMPDEST PUSH0 PUSH0 PUSH0 SWAP1 SLOAD SWAP1 PUSH2 0x100 EXP SWAP1 DIV PUSH20 0xFFFFFFFFFFFFFFFFFFFFFFFFFFFFFFFFFFFFFFFF AND SWAP1 POP SWAP1 JUMP JUMPDEST PUSH0 PUSH1 0x8 PUSH0 SWAP1 SLOAD SWAP1 PUSH2 0x100 EXP SWAP1 DIV PUSH1 0xFF AND SWAP1 POP SWAP1 JUMP JUMPDEST PUSH1 0x60 PUSH1 0x1 PUSH1 0x5 DUP2 GT ISZERO PUSH2 0xC54 JUMPI PUSH2 0xC53 PUSH2 0x1BEB JUMP JUMPDEST JUMPDEST PUSH1 0x8 PUSH0 SWAP1 SLOAD SWAP1 PUSH2 0x100 EXP SWAP1 DIV PUSH1 0xFF AND PUSH1 0x5 DUP2 GT ISZERO PUSH2 0xC75 JUMPI PUSH2 0xC74 PUSH2 0x1BEB JUMP JUMPDEST JUMPDEST EQ PUSH2 0xCB5 JUMPI PUSH1 0x40 MLOAD PUSH32 0x8C379A000000000000000000000000000000000000000000000000000000000 DUP2 MSTORE PUSH1 0x4 ADD PUSH2 0xCAC SWAP1 PUSH2 0x246D JUMP JUMPDEST PUSH1 0x40 MLOAD DUP1 SWAP2 SUB SWAP1 REVERT JUMPDEST CALLER PUSH20 0xFFFFFFFFFFFFFFFFFFFFFFFFFFFFFFFFFFFFFFFF AND PUSH2 0xCD4 PUSH2 0xC02 JUMP JUMPDEST PUSH20 0xFFFFFFFFFFFFFFFFFFFFFFFFFFFFFFFFFFFFFFFF AND SUB PUSH2 0xD2A JUMPI PUSH1 0x40 MLOAD PUSH32 0x8C379A000000000000000000000000000000000000000000000000000000000 DUP2 MSTORE PUSH1 0x4 ADD PUSH2 0xD21 SWAP1 PUSH2 0x24FB JUMP JUMPDEST PUSH1 0x40 MLOAD DUP1 SWAP2 SUB SWAP1 REVERT JUMPDEST PUSH1 0x1 ISZERO ISZERO PUSH1 0x1 PUSH0 CALLER PUSH20 0xFFFFFFFFFFFFFFFFFFFFFFFFFFFFFFFFFFFFFFFF AND PUSH20 0xFFFFFFFFFFFFFFFFFFFFFFFFFFFFFFFFFFFFFFFF AND DUP2 MSTORE PUSH1 0x20 ADD SWAP1 DUP2 MSTORE PUSH1 0x20 ADD PUSH0 KECCAK256 PUSH0 ADD PUSH0 SWAP1 SLOAD SWAP1 PUSH2 0x100 EXP SWAP1 DIV PUSH1 0xFF AND ISZERO ISZERO EQ PUSH2 0xDBC JUMPI PUSH1 0x40 MLOAD PUSH32 0x8C379A000000000000000000000000000000000000000000000000000000000 DUP2 MSTORE PUSH1 0x4 ADD PUSH2 0xDB3 SWAP1 PUSH2 0x1ED5 JUMP JUMPDEST PUSH1 0x40 MLOAD DUP1 SWAP2 SUB SWAP1 REVERT JUMPDEST PUSH1 0x2 PUSH1 0x40 MLOAD DUP1 PUSH1 0x40 ADD PUSH1 0x40 MSTORE DUP1 DUP5 DUP2 MSTORE PUSH1 0x20 ADD PUSH0 DUP2 MSTORE POP SWAP1 DUP1 PUSH1 0x1 DUP2 SLOAD ADD DUP1 DUP3 SSTORE DUP1 SWAP2 POP POP PUSH1 0x1 SWAP1 SUB SWAP1 PUSH0 MSTORE PUSH1 0x20 PUSH0 KECCAK256 SWAP1 PUSH1 0x2 MUL ADD PUSH0 SWAP1 SWAP2 SWAP1 SWAP2 SWAP1 SWAP2 POP PUSH0 DUP3 ADD MLOAD DUP2 PUSH0 ADD SWAP1 DUP2 PUSH2 0xE0C SWAP2 SWAP1 PUSH2 0x26B9 JUMP JUMPDEST POP PUSH1 0x20 DUP3 ADD MLOAD DUP2 PUSH1 0x1 ADD SSTORE POP POP PUSH1 0x5 PUSH0 DUP2 SLOAD DUP1 SWAP3 SWAP2 SWAP1 PUSH2 0xE2B SWAP1 PUSH2 0x1FE8 JUMP JUMPDEST SWAP2 SWAP1 POP SSTORE POP PUSH32 0x92E393E9B54E2F801D3EA4BEB0C5E71A21CC34A5D34B77D0FB8A3AA1650DC18F PUSH1 0x5 SLOAD PUSH1 0x40 MLOAD PUSH2 0xE61 SWAP2 SWAP1 PUSH2 0x1978 JUMP JUMPDEST PUSH1 0x40 MLOAD DUP1 SWAP2 SUB SWAP1 LOG1 PUSH1 0x40 MLOAD DUP1 PUSH1 0x40 ADD PUSH1 0x40 MSTORE DUP1 PUSH1 0x16 DUP2 MSTORE PUSH1 0x20 ADD PUSH32 0x4F6B2070726F706F73616C207265676973746572656400000000000000000000 DUP2 MSTORE POP SWAP1 POP SWAP2 SWAP1 POP JUMP JUMPDEST PUSH2 0xEAE PUSH2 0x15F7 JUMP JUMPDEST PUSH1 0x2 PUSH1 0x5 DUP2 GT ISZERO PUSH2 0xEC2 JUMPI PUSH2 0xEC1 PUSH2 0x1BEB JUMP JUMPDEST JUMPDEST PUSH1 0x8 PUSH0 SWAP1 SLOAD SWAP1 PUSH2 0x100 EXP SWAP1 DIV PUSH1 0xFF AND PUSH1 0x5 DUP2 GT ISZERO PUSH2 0xEE3 JUMPI PUSH2 0xEE2 PUSH2 0x1BEB JUMP JUMPDEST JUMPDEST EQ PUSH2 0xF23 JUMPI PUSH1 0x40 MLOAD PUSH32 0x8C379A000000000000000000000000000000000000000000000000000000000 DUP2 MSTORE PUSH1 0x4 ADD PUSH2 0xF1A SWAP1 PUSH2 0x281E JUMP JUMPDEST PUSH1 0x40 MLOAD DUP1 SWAP2 SUB SWAP1 REVERT JUMPDEST PUSH1 0x3 PUSH1 0x8 PUSH0 PUSH2 0x100 EXP DUP2 SLOAD DUP2 PUSH1 0xFF MUL NOT AND SWAP1 DUP4 PUSH1 0x5 DUP2 GT ISZERO PUSH2 0xF48 JUMPI PUSH2 0xF47 PUSH2 0x1BEB JUMP JUMPDEST JUMPDEST MUL OR SWAP1 SSTORE POP PUSH32 0xA97A4EE45751E2ABF3E4FC8946939630B11B371EA8AE39CCDC3056E98F5CC3F PUSH1 0x1 PUSH1 0x8 PUSH0 SWAP1 SLOAD SWAP1 PUSH2 0x100 EXP SWAP1 DIV PUSH1 0xFF AND PUSH1 0x5 DUP2 GT ISZERO PUSH2 0xF91 JUMPI PUSH2 0xF90 PUSH2 0x1BEB JUMP JUMPDEST JUMPDEST PUSH2 0xF9B SWAP2 SWAP1 PUSH2 0x1F20 JUMP JUMPDEST PUSH1 0x5 DUP2 GT ISZERO PUSH2 0xFAD JUMPI PUSH2 0xFAC PUSH2 0x1BEB JUMP JUMPDEST JUMPDEST PUSH1 0x8 PUSH0 SWAP1 SLOAD SWAP1 PUSH2 0x100 EXP SWAP1 DIV PUSH1 0xFF AND PUSH1 0x40 MLOAD PUSH2 0xFCA SWAP3 SWAP2 SWAP1 PUSH2 0x2241 JUMP JUMPDEST PUSH1 0x40 MLOAD DUP1 SWAP2 SUB SWAP1 LOG1 JUMP JUMPDEST PUSH2 0xFDC PUSH2 0x15F7 JUMP JUMPDEST PUSH1 0x4 PUSH1 0x5 DUP2 GT ISZERO PUSH2 0xFF0 JUMPI PUSH2 0xFEF PUSH2 0x1BEB JUMP JUMPDEST JUMPDEST PUSH1 0x8 PUSH0 SWAP1 SLOAD SWAP1 PUSH2 0x100 EXP SWAP1 DIV PUSH1 0xFF AND PUSH1 0x5 DUP2 GT ISZERO PUSH2 0x1011 JUMPI PUSH2 0x1010 PUSH2 0x1BEB JUMP JUMPDEST JUMPDEST EQ PUSH2 0x1051 JUMPI PUSH1 0x40 MLOAD PUSH32 0x8C379A000000000000000000000000000000000000000000000000000000000 DUP2 MSTORE PUSH1 0x4 ADD PUSH2 0x1048 SWAP1 PUSH2 0x2886 JUMP JUMPDEST PUSH1 0x40 MLOAD DUP1 SWAP2 SUB SWAP1 REVERT JUMPDEST PUSH2 0x1059 PUSH2 0x173F JUMP JUMPDEST PUSH0 PUSH1 0x3 SLOAD GT DUP1 ISZERO PUSH2 0x106C JUMPI POP PUSH1 0x1 PUSH1 0x6 SLOAD EQ JUMPDEST PUSH2 0x10AB JUMPI PUSH1 0x40 MLOAD PUSH32 0x8C379A000000000000000000000000000000000000000000000000000000000 DUP2 MSTORE PUSH1 0x4 ADD PUSH2 0x10A2 SWAP1 PUSH2 0x2914 JUMP JUMPDEST PUSH1 0x40 MLOAD DUP1 SWAP2 SUB SWAP1 REVERT JUMPDEST PUSH1 0x5 PUSH1 0x8 PUSH0 PUSH2 0x100 EXP DUP2 SLOAD DUP2 PUSH1 0xFF MUL NOT AND SWAP1 DUP4 PUSH1 0x5 DUP2 GT ISZERO PUSH2 0x10D0 JUMPI PUSH2 0x10CF PUSH2 0x1BEB JUMP JUMPDEST JUMPDEST MUL OR SWAP1 SSTORE POP PUSH32 0xA97A4EE45751E2ABF3E4FC8946939630B11B371EA8AE39CCDC3056E98F5CC3F PUSH1 0x1 PUSH1 0x8 PUSH0 SWAP1 SLOAD SWAP1 PUSH2 0x100 EXP SWAP1 DIV PUSH1 0xFF AND PUSH1 0x5 DUP2 GT ISZERO PUSH2 0x1119 JUMPI PUSH2 0x1118 PUSH2 0x1BEB JUMP JUMPDEST JUMPDEST PUSH2 0x1123 SWAP2 SWAP1 PUSH2 0x1F20 JUMP JUMPDEST PUSH1 0x5 DUP2 GT ISZERO PUSH2 0x1135 JUMPI PUSH2 0x1134 PUSH2 0x1BEB JUMP JUMPDEST JUMPDEST PUSH1 0x8 PUSH0 SWAP1 SLOAD SWAP1 PUSH2 0x100 EXP SWAP1 DIV PUSH1 0xFF AND PUSH1 0x40 MLOAD PUSH2 0x1152 SWAP3 SWAP2 SWAP1 PUSH2 0x2241 JUMP JUMPDEST PUSH1 0x40 MLOAD DUP1 SWAP2 SUB SWAP1 LOG1 JUMP JUMPDEST PUSH2 0x1164 PUSH2 0x185C JUMP JUMPDEST PUSH1 0x5 DUP1 DUP2 GT ISZERO PUSH2 0x1177 JUMPI PUSH2 0x1176 PUSH2 0x1BEB JUMP JUMPDEST JUMPDEST PUSH1 0x8 PUSH0 SWAP1 SLOAD SWAP1 PUSH2 0x100 EXP SWAP1 DIV PUSH1 0xFF AND PUSH1 0x5 DUP2 GT ISZERO PUSH2 0x1198 JUMPI PUSH2 0x1197 PUSH2 0x1BEB JUMP JUMPDEST JUMPDEST EQ PUSH2 0x11D8 JUMPI PUSH1 0x40 MLOAD PUSH32 0x8C379A000000000000000000000000000000000000000000000000000000000 DUP2 MSTORE PUSH1 0x4 ADD PUSH2 0x11CF SWAP1 PUSH2 0x29A2 JUMP JUMPDEST PUSH1 0x40 MLOAD DUP1 SWAP2 SUB SWAP1 REVERT JUMPDEST PUSH1 0x2 PUSH1 0x3 SLOAD DUP2 SLOAD DUP2 LT PUSH2 0x11EE JUMPI PUSH2 0x11ED PUSH2 0x1FBB JUMP JUMPDEST JUMPDEST SWAP1 PUSH0 MSTORE PUSH1 0x20 PUSH0 KECCAK256 SWAP1 PUSH1 0x2 MUL ADD PUSH1 0x40 MLOAD DUP1 PUSH1 0x40 ADD PUSH1 0x40 MSTORE SWAP1 DUP2 PUSH0 DUP3 ADD DUP1 SLOAD PUSH2 0x1214 SWAP1 PUSH2 0x2323 JUMP JUMPDEST DUP1 PUSH1 0x1F ADD PUSH1 0x20 DUP1 SWAP2 DIV MUL PUSH1 0x20 ADD PUSH1 0x40 MLOAD SWAP1 DUP2 ADD PUSH1 0x40 MSTORE DUP1 SWAP3 SWAP2 SWAP1 DUP2 DUP2 MSTORE PUSH1 0x20 ADD DUP3 DUP1 SLOAD PUSH2 0x1240 SWAP1 PUSH2 0x2323 JUMP JUMPDEST DUP1 ISZERO PUSH2 0x128B JUMPI DUP1 PUSH1 0x1F LT PUSH2 0x1262 JUMPI PUSH2 0x100 DUP1 DUP4 SLOAD DIV MUL DUP4 MSTORE SWAP2 PUSH1 0x20 ADD SWAP2 PUSH2 0x128B JUMP JUMPDEST DUP3 ADD SWAP2 SWAP1 PUSH0 MSTORE PUSH1 0x20 PUSH0 KECCAK256 SWAP1 JUMPDEST DUP2 SLOAD DUP2 MSTORE SWAP1 PUSH1 0x1 ADD SWAP1 PUSH1 0x20 ADD DUP1 DUP4 GT PUSH2 0x126E JUMPI DUP3 SWAP1 SUB PUSH1 0x1F AND DUP3 ADD SWAP2 JUMPDEST POP POP POP POP POP DUP2 MSTORE PUSH1 0x20 ADD PUSH1 0x1 DUP3 ADD SLOAD DUP2 MSTORE POP POP SWAP1 POP SWAP1 JUMP JUMPDEST PUSH1 0x60 DUP1 PUSH0 PUSH0 SWAP1 POP JUMPDEST PUSH1 0x2 DUP1 SLOAD SWAP1 POP DUP2 LT ISZERO PUSH2 0x130F JUMPI PUSH0 DUP3 PUSH1 0x2 DUP4 DUP2 SLOAD DUP2 LT PUSH2 0x12CE JUMPI PUSH2 0x12CD PUSH2 0x1FBB JUMP JUMPDEST JUMPDEST SWAP1 PUSH0 MSTORE PUSH1 0x20 PUSH0 KECCAK256 SWAP1 PUSH1 0x2 MUL ADD PUSH0 ADD PUSH1 0x40 MLOAD PUSH1 0x20 ADD PUSH2 0x12ED SWAP3 SWAP2 SWAP1 PUSH2 0x2A40 JUMP JUMPDEST PUSH1 0x40 MLOAD PUSH1 0x20 DUP2 DUP4 SUB SUB DUP2 MSTORE SWAP1 PUSH1 0x40 MSTORE SWAP1 POP DUP1 SWAP3 POP POP DUP1 DUP1 PUSH1 0x1 ADD SWAP2 POP POP PUSH2 0x12AB JUMP JUMPDEST POP DUP1 SWAP2 POP POP SWAP1 JUMP JUMPDEST PUSH2 0x131F PUSH2 0x15F7 JUMP JUMPDEST PUSH1 0x1 PUSH1 0x5 DUP2 GT ISZERO PUSH2 0x1333 JUMPI PUSH2 0x1332 PUSH2 0x1BEB JUMP JUMPDEST JUMPDEST PUSH1 0x8 PUSH0 SWAP1 SLOAD SWAP1 PUSH2 0x100 EXP SWAP1 DIV PUSH1 0xFF AND PUSH1 0x5 DUP2 GT ISZERO PUSH2 0x1354 JUMPI PUSH2 0x1353 PUSH2 0x1BEB JUMP JUMPDEST JUMPDEST EQ PUSH2 0x1394 JUMPI PUSH1 0x40 MLOAD PUSH32 0x8C379A000000000000000000000000000000000000000000000000000000000 DUP2 MSTORE PUSH1 0x4 ADD PUSH2 0x138B SWAP1 PUSH2 0x2AD3 JUMP JUMPDEST PUSH1 0x40 MLOAD DUP1 SWAP2 SUB SWAP1 REVERT JUMPDEST PUSH1 0x2 PUSH1 0x8 PUSH0 PUSH2 0x100 EXP DUP2 SLOAD DUP2 PUSH1 0xFF MUL NOT AND SWAP1 DUP4 PUSH1 0x5 DUP2 GT ISZERO PUSH2 0x13B9 JUMPI PUSH2 0x13B8 PUSH2 0x1BEB JUMP JUMPDEST JUMPDEST MUL OR SWAP1 SSTORE POP PUSH32 0xA97A4EE45751E2ABF3E4FC8946939630B11B371EA8AE39CCDC3056E98F5CC3F PUSH1 0x1 PUSH1 0x8 PUSH0 SWAP1 SLOAD SWAP1 PUSH2 0x100 EXP SWAP1 DIV PUSH1 0xFF AND PUSH1 0x5 DUP2 GT ISZERO PUSH2 0x1402 JUMPI PUSH2 0x1401 PUSH2 0x1BEB JUMP JUMPDEST JUMPDEST PUSH2 0x140C SWAP2 SWAP1 PUSH2 0x1F20 JUMP JUMPDEST PUSH1 0x5 DUP2 GT ISZERO PUSH2 0x141E JUMPI PUSH2 0x141D PUSH2 0x1BEB JUMP JUMPDEST JUMPDEST PUSH1 0x8 PUSH0 SWAP1 SLOAD SWAP1 PUSH2 0x100 EXP SWAP1 DIV PUSH1 0xFF AND PUSH1 0x40 MLOAD PUSH2 0x143B SWAP3 SWAP2 SWAP1 PUSH2 0x2241 JUMP JUMPDEST PUSH1 0x40 MLOAD DUP1 SWAP2 SUB SWAP1 LOG1 JUMP JUMPDEST PUSH2 0x144D PUSH2 0x15F7 JUMP JUMPDEST PUSH0 PUSH20 0xFFFFFFFFFFFFFFFFFFFFFFFFFFFFFFFFFFFFFFFF AND DUP2 PUSH20 0xFFFFFFFFFFFFFFFFFFFFFFFFFFFFFFFFFFFFFFFF AND SUB PUSH2 0x14BD JUMPI PUSH0 PUSH1 0x40 MLOAD PUSH32 0x1E4FBDF700000000000000000000000000000000000000000000000000000000 DUP2 MSTORE PUSH1 0x4 ADD PUSH2 0x14B4 SWAP2 SWAP1 PUSH2 0x1BD2 JUMP JUMPDEST PUSH1 0x40 MLOAD DUP1 SWAP2 SUB SWAP1 REVERT JUMPDEST PUSH2 0x14C6 DUP2 PUSH2 0x167E JUMP JUMPDEST POP JUMP JUMPDEST PUSH2 0x14D1 PUSH2 0x15F7 JUMP JUMPDEST PUSH1 0x3 PUSH1 0x5 DUP2 GT ISZERO PUSH2 0x14E5 JUMPI PUSH2 0x14E4 PUSH2 0x1BEB JUMP JUMPDEST JUMPDEST PUSH1 0x8 PUSH0 SWAP1 SLOAD SWAP1 PUSH2 0x100 EXP SWAP1 DIV PUSH1 0xFF AND PUSH1 0x5 DUP2 GT ISZERO PUSH2 0x1506 JUMPI PUSH2 0x1505 PUSH2 0x1BEB JUMP JUMPDEST JUMPDEST EQ PUSH2 0x1546 JUMPI PUSH1 0x40 MLOAD PUSH32 0x8C379A000000000000000000000000000000000000000000000000000000000 DUP2 MSTORE PUSH1 0x4 ADD PUSH2 0x153D SWAP1 PUSH2 0x2B61 JUMP JUMPDEST PUSH1 0x40 MLOAD DUP1 SWAP2 SUB SWAP1 REVERT JUMPDEST PUSH1 0x4 PUSH1 0x8 PUSH0 PUSH2 0x100 EXP DUP2 SLOAD DUP2 PUSH1 0xFF MUL NOT AND SWAP1 DUP4 PUSH1 0x5 DUP2 GT ISZERO PUSH2 0x156B JUMPI PUSH2 0x156A PUSH2 0x1BEB JUMP JUMPDEST JUMPDEST MUL OR SWAP1 SSTORE POP PUSH32 0xA97A4EE45751E2ABF3E4FC8946939630B11B371EA8AE39CCDC3056E98F5CC3F PUSH1 0x1 PUSH1 0x8 PUSH0 SWAP1 SLOAD SWAP1 PUSH2 0x100 EXP SWAP1 DIV PUSH1 0xFF AND PUSH1 0x5 DUP2 GT ISZERO PUSH2 0x15B4 JUMPI PUSH2 0x15B3 PUSH2 0x1BEB JUMP JUMPDEST JUMPDEST PUSH2 0x15BE SWAP2 SWAP1 PUSH2 0x1F20 JUMP JUMPDEST PUSH1 0x5 DUP2 GT ISZERO PUSH2 0x15D0 JUMPI PUSH2 0x15CF PUSH2 0x1BEB JUMP JUMPDEST JUMPDEST PUSH1 0x8 PUSH0 SWAP1 SLOAD SWAP1 PUSH2 0x100 EXP SWAP1 DIV PUSH1 0xFF AND PUSH1 0x40 MLOAD PUSH2 0x15ED SWAP3 SWAP2 SWAP1 PUSH2 0x2241 JUMP JUMPDEST PUSH1 0x40 MLOAD DUP1 SWAP2 SUB SWAP1 LOG1 JUMP JUMPDEST PUSH2 0x15FF PUSH2 0x1855 JUMP JUMPDEST PUSH20 0xFFFFFFFFFFFFFFFFFFFFFFFFFFFFFFFFFFFFFFFF AND PUSH2 0x161D PUSH2 0xC02 JUMP JUMPDEST PUSH20 0xFFFFFFFFFFFFFFFFFFFFFFFFFFFFFFFFFFFFFFFF AND EQ PUSH2 0x167C JUMPI PUSH2 0x1640 PUSH2 0x1855 JUMP JUMPDEST PUSH1 0x40 MLOAD PUSH32 0x118CDAA700000000000000000000000000000000000000000000000000000000 DUP2 MSTORE PUSH1 0x4 ADD PUSH2 0x1673 SWAP2 SWAP1 PUSH2 0x1BD2 JUMP JUMPDEST PUSH1 0x40 MLOAD DUP1 SWAP2 SUB SWAP1 REVERT JUMPDEST JUMP JUMPDEST PUSH0 PUSH0 PUSH0 SWAP1 SLOAD SWAP1 PUSH2 0x100 EXP SWAP1 DIV PUSH20 0xFFFFFFFFFFFFFFFFFFFFFFFFFFFFFFFFFFFFFFFF AND SWAP1 POP DUP2 PUSH0 PUSH0 PUSH2 0x100 EXP DUP2 SLOAD DUP2 PUSH20 0xFFFFFFFFFFFFFFFFFFFFFFFFFFFFFFFFFFFFFFFF MUL NOT AND SWAP1 DUP4 PUSH20 0xFFFFFFFFFFFFFFFFFFFFFFFFFFFFFFFFFFFFFFFF AND MUL OR SWAP1 SSTORE POP DUP2 PUSH20 0xFFFFFFFFFFFFFFFFFFFFFFFFFFFFFFFFFFFFFFFF AND DUP2 PUSH20 0xFFFFFFFFFFFFFFFFFFFFFFFFFFFFFFFFFFFFFFFF AND PUSH32 0x8BE0079C531659141344CD1FD0A4F28419497F9722A3DAAFE3B4186F6B6457E0 PUSH1 0x40 MLOAD PUSH1 0x40 MLOAD DUP1 SWAP2 SUB SWAP1 LOG3 POP POP JUMP JUMPDEST PUSH2 0x1747 PUSH2 0x15F7 JUMP JUMPDEST PUSH1 0x4 PUSH1 0x5 DUP2 GT ISZERO PUSH2 0x175B JUMPI PUSH2 0x175A PUSH2 0x1BEB JUMP JUMPDEST JUMPDEST PUSH1 0x8 PUSH0 SWAP1 SLOAD SWAP1 PUSH2 0x100 EXP SWAP1 DIV PUSH1 0xFF AND PUSH1 0x5 DUP2 GT ISZERO PUSH2 0x177C JUMPI PUSH2 0x177B PUSH2 0x1BEB JUMP JUMPDEST JUMPDEST EQ PUSH2 0x17BC JUMPI PUSH1 0x40 MLOAD PUSH32 0x8C379A000000000000000000000000000000000000000000000000000000000 DUP2 MSTORE PUSH1 0x4 ADD PUSH2 0x17B3 SWAP1 PUSH2 0x2BEF JUMP JUMPDEST PUSH1 0x40 MLOAD DUP1 SWAP2 SUB SWAP1 REVERT JUMPDEST PUSH0 PUSH1 0x1 SWAP1 POP JUMPDEST PUSH1 0x2 DUP1 SLOAD SWAP1 POP DUP2 LT ISZERO PUSH2 0x1852 JUMPI PUSH1 0x7 SLOAD PUSH1 0x2 DUP3 DUP2 SLOAD DUP2 LT PUSH2 0x17E6 JUMPI PUSH2 0x17E5 PUSH2 0x1FBB JUMP JUMPDEST JUMPDEST SWAP1 PUSH0 MSTORE PUSH1 0x20 PUSH0 KECCAK256 SWAP1 PUSH1 0x2 MUL ADD PUSH1 0x1 ADD SLOAD GT ISZERO PUSH2 0x1845 JUMPI PUSH1 0x2 DUP2 DUP2 SLOAD DUP2 LT PUSH2 0x1810 JUMPI PUSH2 0x180F PUSH2 0x1FBB JUMP JUMPDEST JUMPDEST SWAP1 PUSH0 MSTORE PUSH1 0x20 PUSH0 KECCAK256 SWAP1 PUSH1 0x2 MUL ADD PUSH1 0x1 ADD SLOAD PUSH1 0x7 DUP2 SWAP1 SSTORE POP DUP1 PUSH1 0x3 DUP2 SWAP1 SSTORE POP PUSH1 0x6 PUSH0 DUP2 SLOAD DUP1 SWAP3 SWAP2 SWAP1 PUSH2 0x183F SWAP1 PUSH2 0x1FE8 JUMP JUMPDEST SWAP2 SWAP1 POP SSTORE POP JUMPDEST DUP1 DUP1 PUSH1 0x1 ADD SWAP2 POP POP PUSH2 0x17C2 JUMP JUMPDEST POP JUMP JUMPDEST PUSH0 CALLER SWAP1 POP SWAP1 JUMP JUMPDEST PUSH1 0x40 MLOAD DUP1 PUSH1 0x40 ADD PUSH1 0x40 MSTORE DUP1 PUSH1 0x60 DUP2 MSTORE PUSH1 0x20 ADD PUSH0 DUP2 MSTORE POP SWAP1 JUMP JUMPDEST PUSH0 PUSH1 0x40 MLOAD SWAP1 POP SWAP1 JUMP JUMPDEST PUSH0 PUSH0 REVERT JUMPDEST PUSH0 PUSH0 REVERT JUMPDEST PUSH0 DUP2 SWAP1 POP SWAP2 SWAP1 POP JUMP JUMPDEST PUSH2 0x1898 DUP2 PUSH2 0x1886 JUMP JUMPDEST DUP2 EQ PUSH2 0x18A2 JUMPI PUSH0 PUSH0 REVERT JUMPDEST POP JUMP JUMPDEST PUSH0 DUP2 CALLDATALOAD SWAP1 POP PUSH2 0x18B3 DUP2 PUSH2 0x188F JUMP JUMPDEST SWAP3 SWAP2 POP POP JUMP JUMPDEST PUSH0 PUSH1 0x20 DUP3 DUP5 SUB SLT ISZERO PUSH2 0x18CE JUMPI PUSH2 0x18CD PUSH2 0x187E JUMP JUMPDEST JUMPDEST PUSH0 PUSH2 0x18DB DUP5 DUP3 DUP6 ADD PUSH2 0x18A5 JUMP JUMPDEST SWAP2 POP POP SWAP3 SWAP2 POP POP JUMP JUMPDEST PUSH0 PUSH20 0xFFFFFFFFFFFFFFFFFFFFFFFFFFFFFFFFFFFFFFFF DUP3 AND SWAP1 POP SWAP2 SWAP1 POP JUMP JUMPDEST PUSH0 PUSH2 0x190D DUP3 PUSH2 0x18E4 JUMP JUMPDEST SWAP1 POP SWAP2 SWAP1 POP JUMP JUMPDEST PUSH2 0x191D DUP2 PUSH2 0x1903 JUMP JUMPDEST DUP2 EQ PUSH2 0x1927 JUMPI PUSH0 PUSH0 REVERT JUMPDEST POP JUMP JUMPDEST PUSH0 DUP2 CALLDATALOAD SWAP1 POP PUSH2 0x1938 DUP2 PUSH2 0x1914 JUMP JUMPDEST SWAP3 SWAP2 POP POP JUMP JUMPDEST PUSH0 PUSH1 0x20 DUP3 DUP5 SUB SLT ISZERO PUSH2 0x1953 JUMPI PUSH2 0x1952 PUSH2 0x187E JUMP JUMPDEST JUMPDEST PUSH0 PUSH2 0x1960 DUP5 DUP3 DUP6 ADD PUSH2 0x192A JUMP JUMPDEST SWAP2 POP POP SWAP3 SWAP2 POP POP JUMP JUMPDEST PUSH2 0x1972 DUP2 PUSH2 0x1886 JUMP JUMPDEST DUP3 MSTORE POP POP JUMP JUMPDEST PUSH0 PUSH1 0x20 DUP3 ADD SWAP1 POP PUSH2 0x198B PUSH0 DUP4 ADD DUP5 PUSH2 0x1969 JUMP JUMPDEST SWAP3 SWAP2 POP POP JUMP JUMPDEST PUSH0 DUP2 MLOAD SWAP1 POP SWAP2 SWAP1 POP JUMP JUMPDEST PUSH0 DUP3 DUP3 MSTORE PUSH1 0x20 DUP3 ADD SWAP1 POP SWAP3 SWAP2 POP POP JUMP JUMPDEST DUP3 DUP2 DUP4 MCOPY PUSH0 DUP4 DUP4 ADD MSTORE POP POP POP JUMP JUMPDEST PUSH0 PUSH1 0x1F NOT PUSH1 0x1F DUP4 ADD AND SWAP1 POP SWAP2 SWAP1 POP JUMP JUMPDEST PUSH0 PUSH2 0x19D3 DUP3 PUSH2 0x1991 JUMP JUMPDEST PUSH2 0x19DD DUP2 DUP6 PUSH2 0x199B JUMP JUMPDEST SWAP4 POP PUSH2 0x19ED DUP2 DUP6 PUSH1 0x20 DUP7 ADD PUSH2 0x19AB JUMP JUMPDEST PUSH2 0x19F6 DUP2 PUSH2 0x19B9 JUMP JUMPDEST DUP5 ADD SWAP2 POP POP SWAP3 SWAP2 POP POP JUMP JUMPDEST PUSH0 PUSH1 0x20 DUP3 ADD SWAP1 POP DUP2 DUP2 SUB PUSH0 DUP4 ADD MSTORE PUSH2 0x1A19 DUP2 DUP5 PUSH2 0x19C9 JUMP JUMPDEST SWAP1 POP SWAP3 SWAP2 POP POP JUMP JUMPDEST PUSH0 PUSH0 REVERT JUMPDEST PUSH0 PUSH0 REVERT JUMPDEST PUSH32 0x4E487B7100000000000000000000000000000000000000000000000000000000 PUSH0 MSTORE PUSH1 0x41 PUSH1 0x4 MSTORE PUSH1 0x24 PUSH0 REVERT JUMPDEST PUSH2 0x1A5F DUP3 PUSH2 0x19B9 JUMP JUMPDEST DUP2 ADD DUP2 DUP2 LT PUSH8 0xFFFFFFFFFFFFFFFF DUP3 GT OR ISZERO PUSH2 0x1A7E JUMPI PUSH2 0x1A7D PUSH2 0x1A29 JUMP JUMPDEST JUMPDEST DUP1 PUSH1 0x40 MSTORE POP POP POP JUMP JUMPDEST PUSH0 PUSH2 0x1A90 PUSH2 0x1875 JUMP JUMPDEST SWAP1 POP PUSH2 0x1A9C DUP3 DUP3 PUSH2 0x1A56 JUMP JUMPDEST SWAP2 SWAP1 POP JUMP JUMPDEST PUSH0 PUSH8 0xFFFFFFFFFFFFFFFF DUP3 GT ISZERO PUSH2 0x1ABB JUMPI PUSH2 0x1ABA PUSH2 0x1A29 JUMP JUMPDEST JUMPDEST PUSH2 0x1AC4 DUP3 PUSH2 0x19B9 JUMP JUMPDEST SWAP1 POP PUSH1 0x20 DUP2 ADD SWAP1 POP SWAP2 SWAP1 POP JUMP JUMPDEST DUP3 DUP2 DUP4 CALLDATACOPY PUSH0 DUP4 DUP4 ADD MSTORE POP POP POP JUMP JUMPDEST PUSH0 PUSH2 0x1AF1 PUSH2 0x1AEC DUP5 PUSH2 0x1AA1 JUMP JUMPDEST PUSH2 0x1A87 JUMP JUMPDEST SWAP1 POP DUP3 DUP2 MSTORE PUSH1 0x20 DUP2 ADD DUP5 DUP5 DUP5 ADD GT ISZERO PUSH2 0x1B0D JUMPI PUSH2 0x1B0C PUSH2 0x1A25 JUMP JUMPDEST JUMPDEST PUSH2 0x1B18 DUP5 DUP3 DUP6 PUSH2 0x1AD1 JUMP JUMPDEST POP SWAP4 SWAP3 POP POP POP JUMP JUMPDEST PUSH0 DUP3 PUSH1 0x1F DUP4 ADD SLT PUSH2 0x1B34 JUMPI PUSH2 0x1B33 PUSH2 0x1A21 JUMP JUMPDEST JUMPDEST DUP2 CALLDATALOAD PUSH2 0x1B44 DUP5 DUP3 PUSH1 0x20 DUP7 ADD PUSH2 0x1ADF JUMP JUMPDEST SWAP2 POP POP SWAP3 SWAP2 POP POP JUMP JUMPDEST PUSH0 PUSH0 PUSH1 0x40 DUP4 DUP6 SUB SLT ISZERO PUSH2 0x1B63 JUMPI PUSH2 0x1B62 PUSH2 0x187E JUMP JUMPDEST JUMPDEST PUSH0 DUP4 ADD CALLDATALOAD PUSH8 0xFFFFFFFFFFFFFFFF DUP2 GT ISZERO PUSH2 0x1B80 JUMPI PUSH2 0x1B7F PUSH2 0x1882 JUMP JUMPDEST JUMPDEST PUSH2 0x1B8C DUP6 DUP3 DUP7 ADD PUSH2 0x1B20 JUMP JUMPDEST SWAP3 POP POP PUSH1 0x20 DUP4 ADD CALLDATALOAD PUSH8 0xFFFFFFFFFFFFFFFF DUP2 GT ISZERO PUSH2 0x1BAD JUMPI PUSH2 0x1BAC PUSH2 0x1882 JUMP JUMPDEST JUMPDEST PUSH2 0x1BB9 DUP6 DUP3 DUP7 ADD PUSH2 0x1B20 JUMP JUMPDEST SWAP2 POP POP SWAP3 POP SWAP3 SWAP1 POP JUMP JUMPDEST PUSH2 0x1BCC DUP2 PUSH2 0x1903 JUMP JUMPDEST DUP3 MSTORE POP POP JUMP JUMPDEST PUSH0 PUSH1 0x20 DUP3 ADD SWAP1 POP PUSH2 0x1BE5 PUSH0 DUP4 ADD DUP5 PUSH2 0x1BC3 JUMP JUMPDEST SWAP3 SWAP2 POP POP JUMP JUMPDEST PUSH32 0x4E487B7100000000000000000000000000000000000000000000000000000000 PUSH0 MSTORE PUSH1 0x21 PUSH1 0x4 MSTORE PUSH1 0x24 PUSH0 REVERT JUMPDEST PUSH1 0x6 DUP2 LT PUSH2 0x1C29 JUMPI PUSH2 0x1C28 PUSH2 0x1BEB JUMP JUMPDEST JUMPDEST POP JUMP JUMPDEST PUSH0 DUP2 SWAP1 POP PUSH2 0x1C39 DUP3 PUSH2 0x1C18 JUMP JUMPDEST SWAP2 SWAP1 POP JUMP JUMPDEST PUSH0 PUSH2 0x1C48 DUP3 PUSH2 0x1C2C JUMP JUMPDEST SWAP1 POP SWAP2 SWAP1 POP JUMP JUMPDEST PUSH2 0x1C58 DUP2 PUSH2 0x1C3E JUMP JUMPDEST DUP3 MSTORE POP POP JUMP JUMPDEST PUSH0 PUSH1 0x20 DUP3 ADD SWAP1 POP PUSH2 0x1C71 PUSH0 DUP4 ADD DUP5 PUSH2 0x1C4F JUMP JUMPDEST SWAP3 SWAP2 POP POP JUMP JUMPDEST PUSH0 PUSH1 0x20 DUP3 DUP5 SUB SLT ISZERO PUSH2 0x1C8C JUMPI PUSH2 0x1C8B PUSH2 0x187E JUMP JUMPDEST JUMPDEST PUSH0 DUP3 ADD CALLDATALOAD PUSH8 0xFFFFFFFFFFFFFFFF DUP2 GT ISZERO PUSH2 0x1CA9 JUMPI PUSH2 0x1CA8 PUSH2 0x1882 JUMP JUMPDEST JUMPDEST PUSH2 0x1CB5 DUP5 DUP3 DUP6 ADD PUSH2 0x1B20 JUMP JUMPDEST SWAP2 POP POP SWAP3 SWAP2 POP POP JUMP JUMPDEST PUSH0 DUP3 DUP3 MSTORE PUSH1 0x20 DUP3 ADD SWAP1 POP SWAP3 SWAP2 POP POP JUMP JUMPDEST PUSH0 PUSH2 0x1CD8 DUP3 PUSH2 0x1991 JUMP JUMPDEST PUSH2 0x1CE2 DUP2 DUP6 PUSH2 0x1CBE JUMP JUMPDEST SWAP4 POP PUSH2 0x1CF2 DUP2 DUP6 PUSH1 0x20 DUP7 ADD PUSH2 0x19AB JUMP JUMPDEST PUSH2 0x1CFB DUP2 PUSH2 0x19B9 JUMP JUMPDEST DUP5 ADD SWAP2 POP POP SWAP3 SWAP2 POP POP JUMP JUMPDEST PUSH2 0x1D0F DUP2 PUSH2 0x1886 JUMP JUMPDEST DUP3 MSTORE POP POP JUMP JUMPDEST PUSH0 PUSH1 0x40 DUP4 ADD PUSH0 DUP4 ADD MLOAD DUP5 DUP3 SUB PUSH0 DUP7 ADD MSTORE PUSH2 0x1D2F DUP3 DUP3 PUSH2 0x1CCE JUMP JUMPDEST SWAP2 POP POP PUSH1 0x20 DUP4 ADD MLOAD PUSH2 0x1D44 PUSH1 0x20 DUP7 ADD DUP3 PUSH2 0x1D06 JUMP JUMPDEST POP DUP1 SWAP2 POP POP SWAP3 SWAP2 POP POP JUMP JUMPDEST PUSH0 PUSH1 0x20 DUP3 ADD SWAP1 POP DUP2 DUP2 SUB PUSH0 DUP4 ADD MSTORE PUSH2 0x1D67 DUP2 DUP5 PUSH2 0x1D15 JUMP JUMPDEST SWAP1 POP SWAP3 SWAP2 POP POP JUMP JUMPDEST PUSH32 0x54686520766F74696E672073657373696F6E206973206E6F7420737461727465 PUSH0 DUP3 ADD MSTORE PUSH32 0x6400000000000000000000000000000000000000000000000000000000000000 PUSH1 0x20 DUP3 ADD MSTORE POP JUMP JUMPDEST PUSH0 PUSH2 0x1DC9 PUSH1 0x21 DUP4 PUSH2 0x199B JUMP JUMPDEST SWAP2 POP PUSH2 0x1DD4 DUP3 PUSH2 0x1D6F JUMP JUMPDEST PUSH1 0x40 DUP3 ADD SWAP1 POP SWAP2 SWAP1 POP JUMP JUMPDEST PUSH0 PUSH1 0x20 DUP3 ADD SWAP1 POP DUP2 DUP2 SUB PUSH0 DUP4 ADD MSTORE PUSH2 0x1DF6 DUP2 PUSH2 0x1DBD JUMP JUMPDEST SWAP1 POP SWAP2 SWAP1 POP JUMP JUMPDEST PUSH32 0x596F752061726520746865206F776E6572206F66207468697320636F6E747261 PUSH0 DUP3 ADD MSTORE PUSH32 0x63742C20796F752063616E206E6F7420766F7465000000000000000000000000 PUSH1 0x20 DUP3 ADD MSTORE POP JUMP JUMPDEST PUSH0 PUSH2 0x1E57 PUSH1 0x34 DUP4 PUSH2 0x199B JUMP JUMPDEST SWAP2 POP PUSH2 0x1E62 DUP3 PUSH2 0x1DFD JUMP JUMPDEST PUSH1 0x40 DUP3 ADD SWAP1 POP SWAP2 SWAP1 POP JUMP JUMPDEST PUSH0 PUSH1 0x20 DUP3 ADD SWAP1 POP DUP2 DUP2 SUB PUSH0 DUP4 ADD MSTORE PUSH2 0x1E84 DUP2 PUSH2 0x1E4B JUMP JUMPDEST SWAP1 POP SWAP2 SWAP1 POP JUMP JUMPDEST PUSH32 0x596F7520617265206E6F74207265676973746572656400000000000000000000 PUSH0 DUP3 ADD MSTORE POP JUMP JUMPDEST PUSH0 PUSH2 0x1EBF PUSH1 0x16 DUP4 PUSH2 0x199B JUMP JUMPDEST SWAP2 POP PUSH2 0x1ECA DUP3 PUSH2 0x1E8B JUMP JUMPDEST PUSH1 0x20 DUP3 ADD SWAP1 POP SWAP2 SWAP1 POP JUMP JUMPDEST PUSH0 PUSH1 0x20 DUP3 ADD SWAP1 POP DUP2 DUP2 SUB PUSH0 DUP4 ADD MSTORE PUSH2 0x1EEC DUP2 PUSH2 0x1EB3 JUMP JUMPDEST SWAP1 POP SWAP2 SWAP1 POP JUMP JUMPDEST PUSH32 0x4E487B7100000000000000000000000000000000000000000000000000000000 PUSH0 MSTORE PUSH1 0x11 PUSH1 0x4 MSTORE PUSH1 0x24 PUSH0 REVERT JUMPDEST PUSH0 PUSH2 0x1F2A DUP3 PUSH2 0x1886 JUMP JUMPDEST SWAP2 POP PUSH2 0x1F35 DUP4 PUSH2 0x1886 JUMP JUMPDEST SWAP3 POP DUP3 DUP3 ADD SWAP1 POP DUP1 DUP3 GT ISZERO PUSH2 0x1F4D JUMPI PUSH2 0x1F4C PUSH2 0x1EF3 JUMP JUMPDEST JUMPDEST SWAP3 SWAP2 POP POP JUMP JUMPDEST PUSH32 0x546869732070726F706F73616C20494420646F6573206E6F7420657869737473 PUSH0 DUP3 ADD MSTORE POP JUMP JUMPDEST PUSH0 PUSH2 0x1F87 PUSH1 0x20 DUP4 PUSH2 0x199B JUMP JUMPDEST SWAP2 POP PUSH2 0x1F92 DUP3 PUSH2 0x1F53 JUMP JUMPDEST PUSH1 0x20 DUP3 ADD SWAP1 POP SWAP2 SWAP1 POP JUMP JUMPDEST PUSH0 PUSH1 0x20 DUP3 ADD SWAP1 POP DUP2 DUP2 SUB PUSH0 DUP4 ADD MSTORE PUSH2 0x1FB4 DUP2 PUSH2 0x1F7B JUMP JUMPDEST SWAP1 POP SWAP2 SWAP1 POP JUMP JUMPDEST PUSH32 0x4E487B7100000000000000000000000000000000000000000000000000000000 PUSH0 MSTORE PUSH1 0x32 PUSH1 0x4 MSTORE PUSH1 0x24 PUSH0 REVERT JUMPDEST PUSH0 PUSH2 0x1FF2 DUP3 PUSH2 0x1886 JUMP JUMPDEST SWAP2 POP PUSH32 0xFFFFFFFFFFFFFFFFFFFFFFFFFFFFFFFFFFFFFFFFFFFFFFFFFFFFFFFFFFFFFFFF DUP3 SUB PUSH2 0x2024 JUMPI PUSH2 0x2023 PUSH2 0x1EF3 JUMP JUMPDEST JUMPDEST PUSH1 0x1 DUP3 ADD SWAP1 POP SWAP2 SWAP1 POP JUMP JUMPDEST PUSH32 0x596F7520617265206E6F7420696E20766F74657220726567697374726174696F PUSH0 DUP3 ADD MSTORE PUSH32 0x6E20706572696F64000000000000000000000000000000000000000000000000 PUSH1 0x20 DUP3 ADD MSTORE POP JUMP JUMPDEST PUSH0 PUSH2 0x2089 PUSH1 0x28 DUP4 PUSH2 0x199B JUMP JUMPDEST SWAP2 POP PUSH2 0x2094 DUP3 PUSH2 0x202F JUMP JUMPDEST PUSH1 0x40 DUP3 ADD SWAP1 POP SWAP2 SWAP1 POP JUMP JUMPDEST PUSH0 PUSH1 0x20 DUP3 ADD SWAP1 POP DUP2 DUP2 SUB PUSH0 DUP4 ADD MSTORE PUSH2 0x20B6 DUP2 PUSH2 0x207D JUMP JUMPDEST SWAP1 POP SWAP2 SWAP1 POP JUMP JUMPDEST PUSH32 0x596F7520616C7265616479206861766520616464207468697320616472657373 PUSH0 DUP3 ADD MSTORE POP JUMP JUMPDEST PUSH0 PUSH2 0x20F1 PUSH1 0x20 DUP4 PUSH2 0x199B JUMP JUMPDEST SWAP2 POP PUSH2 0x20FC DUP3 PUSH2 0x20BD JUMP JUMPDEST PUSH1 0x20 DUP3 ADD SWAP1 POP SWAP2 SWAP1 POP JUMP JUMPDEST PUSH0 PUSH1 0x20 DUP3 ADD SWAP1 POP DUP2 DUP2 SUB PUSH0 DUP4 ADD MSTORE PUSH2 0x211E DUP2 PUSH2 0x20E5 JUMP JUMPDEST SWAP1 POP SWAP2 SWAP1 POP JUMP JUMPDEST PUSH32 0x596F752063616E206E6F7420737461727420616761696E207468652070726F70 PUSH0 DUP3 ADD MSTORE PUSH32 0x6F73616C2073657373696F6E0000000000000000000000000000000000000000 PUSH1 0x20 DUP3 ADD MSTORE POP JUMP JUMPDEST PUSH0 PUSH2 0x217F PUSH1 0x2C DUP4 PUSH2 0x199B JUMP JUMPDEST SWAP2 POP PUSH2 0x218A DUP3 PUSH2 0x2125 JUMP JUMPDEST PUSH1 0x40 DUP3 ADD SWAP1 POP SWAP2 SWAP1 POP JUMP JUMPDEST PUSH0 PUSH1 0x20 DUP3 ADD SWAP1 POP DUP2 DUP2 SUB PUSH0 DUP4 ADD MSTORE PUSH2 0x21AC DUP2 PUSH2 0x2173 JUMP JUMPDEST SWAP1 POP SWAP2 SWAP1 POP JUMP JUMPDEST PUSH32 0x596F75206D757374207265676973746572206174206C65617374203220616464 PUSH0 DUP3 ADD MSTORE PUSH32 0x7265737365730000000000000000000000000000000000000000000000000000 PUSH1 0x20 DUP3 ADD MSTORE POP JUMP JUMPDEST PUSH0 PUSH2 0x220D PUSH1 0x26 DUP4 PUSH2 0x199B JUMP JUMPDEST SWAP2 POP PUSH2 0x2218 DUP3 PUSH2 0x21B3 JUMP JUMPDEST PUSH1 0x40 DUP3 ADD SWAP1 POP SWAP2 SWAP1 POP JUMP JUMPDEST PUSH0 PUSH1 0x20 DUP3 ADD SWAP1 POP DUP2 DUP2 SUB PUSH0 DUP4 ADD MSTORE PUSH2 0x223A DUP2 PUSH2 0x2201 JUMP JUMPDEST SWAP1 POP SWAP2 SWAP1 POP JUMP JUMPDEST PUSH0 PUSH1 0x40 DUP3 ADD SWAP1 POP PUSH2 0x2254 PUSH0 DUP4 ADD DUP6 PUSH2 0x1C4F JUMP JUMPDEST PUSH2 0x2261 PUSH1 0x20 DUP4 ADD DUP5 PUSH2 0x1C4F JUMP JUMPDEST SWAP4 SWAP3 POP POP POP JUMP JUMPDEST PUSH32 0x546869732061646472657373206973206E6F7420726567697374657265642074 PUSH0 DUP3 ADD MSTORE PUSH32 0x6F2074686520766F746500000000000000000000000000000000000000000000 PUSH1 0x20 DUP3 ADD MSTORE POP JUMP JUMPDEST PUSH0 PUSH2 0x22C2 PUSH1 0x2A DUP4 PUSH2 0x199B JUMP JUMPDEST SWAP2 POP PUSH2 0x22CD DUP3 PUSH2 0x2268 JUMP JUMPDEST PUSH1 0x40 DUP3 ADD SWAP1 POP SWAP2 SWAP1 POP JUMP JUMPDEST PUSH0 PUSH1 0x20 DUP3 ADD SWAP1 POP DUP2 DUP2 SUB PUSH0 DUP4 ADD MSTORE PUSH2 0x22EF DUP2 PUSH2 0x22B6 JUMP JUMPDEST SWAP1 POP SWAP2 SWAP1 POP JUMP JUMPDEST PUSH32 0x4E487B7100000000000000000000000000000000000000000000000000000000 PUSH0 MSTORE PUSH1 0x22 PUSH1 0x4 MSTORE PUSH1 0x24 PUSH0 REVERT JUMPDEST PUSH0 PUSH1 0x2 DUP3 DIV SWAP1 POP PUSH1 0x1 DUP3 AND DUP1 PUSH2 0x233A JUMPI PUSH1 0x7F DUP3 AND SWAP2 POP JUMPDEST PUSH1 0x20 DUP3 LT DUP2 SUB PUSH2 0x234D JUMPI PUSH2 0x234C PUSH2 0x22F6 JUMP JUMPDEST JUMPDEST POP SWAP2 SWAP1 POP JUMP JUMPDEST PUSH0 DUP2 SWAP1 POP SWAP3 SWAP2 POP POP JUMP JUMPDEST POP JUMP JUMPDEST PUSH0 PUSH2 0x236B PUSH0 DUP4 PUSH2 0x2353 JUMP JUMPDEST SWAP2 POP PUSH2 0x2376 DUP3 PUSH2 0x235D JUMP JUMPDEST PUSH0 DUP3 ADD SWAP1 POP SWAP2 SWAP1 POP JUMP JUMPDEST PUSH0 PUSH2 0x238A DUP3 PUSH2 0x2360 JUMP JUMPDEST SWAP2 POP DUP2 SWAP1 POP SWAP2 SWAP1 POP JUMP JUMPDEST PUSH0 PUSH2 0x239E DUP3 PUSH2 0x1991 JUMP JUMPDEST PUSH2 0x23A8 DUP2 DUP6 PUSH2 0x2353 JUMP JUMPDEST SWAP4 POP PUSH2 0x23B8 DUP2 DUP6 PUSH1 0x20 DUP7 ADD PUSH2 0x19AB JUMP JUMPDEST DUP1 DUP5 ADD SWAP2 POP POP SWAP3 SWAP2 POP POP JUMP JUMPDEST PUSH0 PUSH2 0x23CF DUP3 DUP5 PUSH2 0x2394 JUMP JUMPDEST SWAP2 POP DUP2 SWAP1 POP SWAP3 SWAP2 POP POP JUMP JUMPDEST PUSH0 PUSH2 0x23E5 DUP3 DUP6 PUSH2 0x2394 JUMP JUMPDEST SWAP2 POP PUSH2 0x23F1 DUP3 DUP5 PUSH2 0x2394 JUMP JUMPDEST SWAP2 POP DUP2 SWAP1 POP SWAP4 SWAP3 POP POP POP JUMP JUMPDEST PUSH32 0x54686520726567697374726174696F6E20706572696F64206973206E6F742073 PUSH0 DUP3 ADD MSTORE PUSH32 0x7461727465640000000000000000000000000000000000000000000000000000 PUSH1 0x20 DUP3 ADD MSTORE POP JUMP JUMPDEST PUSH0 PUSH2 0x2457 PUSH1 0x26 DUP4 PUSH2 0x199B JUMP JUMPDEST SWAP2 POP PUSH2 0x2462 DUP3 PUSH2 0x23FD JUMP JUMPDEST PUSH1 0x40 DUP3 ADD SWAP1 POP SWAP2 SWAP1 POP JUMP JUMPDEST PUSH0 PUSH1 0x20 DUP3 ADD SWAP1 POP DUP2 DUP2 SUB PUSH0 DUP4 ADD MSTORE PUSH2 0x2484 DUP2 PUSH2 0x244B JUMP JUMPDEST SWAP1 POP SWAP2 SWAP1 POP JUMP JUMPDEST PUSH32 0x596F752061726520746865206F776E6572206F66207468697320636F6E747261 PUSH0 DUP3 ADD MSTORE PUSH32 0x63742C20796F752063616E206E6F742070726F706F7365000000000000000000 PUSH1 0x20 DUP3 ADD MSTORE POP JUMP JUMPDEST PUSH0 PUSH2 0x24E5 PUSH1 0x37 DUP4 PUSH2 0x199B JUMP JUMPDEST SWAP2 POP PUSH2 0x24F0 DUP3 PUSH2 0x248B JUMP JUMPDEST PUSH1 0x40 DUP3 ADD SWAP1 POP SWAP2 SWAP1 POP JUMP JUMPDEST PUSH0 PUSH1 0x20 DUP3 ADD SWAP1 POP DUP2 DUP2 SUB PUSH0 DUP4 ADD MSTORE PUSH2 0x2512 DUP2 PUSH2 0x24D9 JUMP JUMPDEST SWAP1 POP SWAP2 SWAP1 POP JUMP JUMPDEST PUSH0 DUP2 SWAP1 POP DUP2 PUSH0 MSTORE PUSH1 0x20 PUSH0 KECCAK256 SWAP1 POP SWAP2 SWAP1 POP JUMP JUMPDEST PUSH0 PUSH1 0x20 PUSH1 0x1F DUP4 ADD DIV SWAP1 POP SWAP2 SWAP1 POP JUMP JUMPDEST PUSH0 DUP3 DUP3 SHL SWAP1 POP SWAP3 SWAP2 POP POP JUMP JUMPDEST PUSH0 PUSH1 0x8 DUP4 MUL PUSH2 0x2575 PUSH32 0xFFFFFFFFFFFFFFFFFFFFFFFFFFFFFFFFFFFFFFFFFFFFFFFFFFFFFFFFFFFFFFFF DUP3 PUSH2 0x253A JUMP JUMPDEST PUSH2 0x257F DUP7 DUP4 PUSH2 0x253A JUMP JUMPDEST SWAP6 POP DUP1 NOT DUP5 AND SWAP4 POP DUP1 DUP7 AND DUP5 OR SWAP3 POP POP POP SWAP4 SWAP3 POP POP POP JUMP JUMPDEST PUSH0 DUP2 SWAP1 POP SWAP2 SWAP1 POP JUMP JUMPDEST PUSH0 PUSH2 0x25BA PUSH2 0x25B5 PUSH2 0x25B0 DUP5 PUSH2 0x1886 JUMP JUMPDEST PUSH2 0x2597 JUMP JUMPDEST PUSH2 0x1886 JUMP JUMPDEST SWAP1 POP SWAP2 SWAP1 POP JUMP JUMPDEST PUSH0 DUP2 SWAP1 POP SWAP2 SWAP1 POP JUMP JUMPDEST PUSH2 0x25D3 DUP4 PUSH2 0x25A0 JUMP JUMPDEST PUSH2 0x25E7 PUSH2 0x25DF DUP3 PUSH2 0x25C1 JUMP JUMPDEST DUP5 DUP5 SLOAD PUSH2 0x2546 JUMP JUMPDEST DUP3 SSTORE POP POP POP POP JUMP JUMPDEST PUSH0 PUSH0 SWAP1 POP SWAP1 JUMP JUMPDEST PUSH2 0x25FE PUSH2 0x25EF JUMP JUMPDEST PUSH2 0x2609 DUP2 DUP5 DUP5 PUSH2 0x25CA JUMP JUMPDEST POP POP POP JUMP JUMPDEST JUMPDEST DUP2 DUP2 LT ISZERO PUSH2 0x262C JUMPI PUSH2 0x2621 PUSH0 DUP3 PUSH2 0x25F6 JUMP JUMPDEST PUSH1 0x1 DUP2 ADD SWAP1 POP PUSH2 0x260F JUMP JUMPDEST POP POP JUMP JUMPDEST PUSH1 0x1F DUP3 GT ISZERO PUSH2 0x2671 JUMPI PUSH2 0x2642 DUP2 PUSH2 0x2519 JUMP JUMPDEST PUSH2 0x264B DUP5 PUSH2 0x252B JUMP JUMPDEST DUP2 ADD PUSH1 0x20 DUP6 LT ISZERO PUSH2 0x265A JUMPI DUP2 SWAP1 POP JUMPDEST PUSH2 0x266E PUSH2 0x2666 DUP6 PUSH2 0x252B JUMP JUMPDEST DUP4 ADD DUP3 PUSH2 0x260E JUMP JUMPDEST POP POP JUMPDEST POP POP POP JUMP JUMPDEST PUSH0 DUP3 DUP3 SHR SWAP1 POP SWAP3 SWAP2 POP POP JUMP JUMPDEST PUSH0 PUSH2 0x2691 PUSH0 NOT DUP5 PUSH1 0x8 MUL PUSH2 0x2676 JUMP JUMPDEST NOT DUP1 DUP4 AND SWAP2 POP POP SWAP3 SWAP2 POP POP JUMP JUMPDEST PUSH0 PUSH2 0x26A9 DUP4 DUP4 PUSH2 0x2682 JUMP JUMPDEST SWAP2 POP DUP3 PUSH1 0x2 MUL DUP3 OR SWAP1 POP SWAP3 SWAP2 POP POP JUMP JUMPDEST PUSH2 0x26C2 DUP3 PUSH2 0x1991 JUMP JUMPDEST PUSH8 0xFFFFFFFFFFFFFFFF DUP2 GT ISZERO PUSH2 0x26DB JUMPI PUSH2 0x26DA PUSH2 0x1A29 JUMP JUMPDEST JUMPDEST PUSH2 0x26E5 DUP3 SLOAD PUSH2 0x2323 JUMP JUMPDEST PUSH2 0x26F0 DUP3 DUP3 DUP6 PUSH2 0x2630 JUMP JUMPDEST PUSH0 PUSH1 0x20 SWAP1 POP PUSH1 0x1F DUP4 GT PUSH1 0x1 DUP2 EQ PUSH2 0x2721 JUMPI PUSH0 DUP5 ISZERO PUSH2 0x270F JUMPI DUP3 DUP8 ADD MLOAD SWAP1 POP JUMPDEST PUSH2 0x2719 DUP6 DUP3 PUSH2 0x269E JUMP JUMPDEST DUP7 SSTORE POP PUSH2 0x2780 JUMP JUMPDEST PUSH1 0x1F NOT DUP5 AND PUSH2 0x272F DUP7 PUSH2 0x2519 JUMP JUMPDEST PUSH0 JUMPDEST DUP3 DUP2 LT ISZERO PUSH2 0x2756 JUMPI DUP5 DUP10 ADD MLOAD DUP3 SSTORE PUSH1 0x1 DUP3 ADD SWAP2 POP PUSH1 0x20 DUP6 ADD SWAP5 POP PUSH1 0x20 DUP2 ADD SWAP1 POP PUSH2 0x2731 JUMP JUMPDEST DUP7 DUP4 LT ISZERO PUSH2 0x2773 JUMPI DUP5 DUP10 ADD MLOAD PUSH2 0x276F PUSH1 0x1F DUP10 AND DUP3 PUSH2 0x2682 JUMP JUMPDEST DUP4 SSTORE POP JUMPDEST PUSH1 0x1 PUSH1 0x2 DUP9 MUL ADD DUP9 SSTORE POP POP POP JUMPDEST POP POP POP POP POP POP JUMP JUMPDEST PUSH32 0x5468652070726F706F73616C2073657373696F6E206973206E6F7420656E6465 PUSH0 DUP3 ADD MSTORE PUSH32 0x64206F722074686520766F74652073657373696F6E2068617320616C72656164 PUSH1 0x20 DUP3 ADD MSTORE PUSH32 0x7920737461727465640000000000000000000000000000000000000000000000 PUSH1 0x40 DUP3 ADD MSTORE POP JUMP JUMPDEST PUSH0 PUSH2 0x2808 PUSH1 0x49 DUP4 PUSH2 0x199B JUMP JUMPDEST SWAP2 POP PUSH2 0x2813 DUP3 PUSH2 0x2788 JUMP JUMPDEST PUSH1 0x60 DUP3 ADD SWAP1 POP SWAP2 SWAP1 POP JUMP JUMPDEST PUSH0 PUSH1 0x20 DUP3 ADD SWAP1 POP DUP2 DUP2 SUB PUSH0 DUP4 ADD MSTORE PUSH2 0x2835 DUP2 PUSH2 0x27FC JUMP JUMPDEST SWAP1 POP SWAP2 SWAP1 POP JUMP JUMPDEST PUSH32 0x54686520766F74652073657373696F6E206973206E6F7420656E646564000000 PUSH0 DUP3 ADD MSTORE POP JUMP JUMPDEST PUSH0 PUSH2 0x2870 PUSH1 0x1D DUP4 PUSH2 0x199B JUMP JUMPDEST SWAP2 POP PUSH2 0x287B DUP3 PUSH2 0x283C JUMP JUMPDEST PUSH1 0x20 DUP3 ADD SWAP1 POP SWAP2 SWAP1 POP JUMP JUMPDEST PUSH0 PUSH1 0x20 DUP3 ADD SWAP1 POP DUP2 DUP2 SUB PUSH0 DUP4 ADD MSTORE PUSH2 0x289D DUP2 PUSH2 0x2864 JUMP JUMPDEST SWAP1 POP SWAP2 SWAP1 POP JUMP JUMPDEST PUSH32 0x5468657265206973206D6F7265207468616E20312077696E6E65722C20796F75 PUSH0 DUP3 ADD MSTORE PUSH32 0x206861766520746F20766F746500000000000000000000000000000000000000 PUSH1 0x20 DUP3 ADD MSTORE POP JUMP JUMPDEST PUSH0 PUSH2 0x28FE PUSH1 0x2D DUP4 PUSH2 0x199B JUMP JUMPDEST SWAP2 POP PUSH2 0x2909 DUP3 PUSH2 0x28A4 JUMP JUMPDEST PUSH1 0x40 DUP3 ADD SWAP1 POP SWAP2 SWAP1 POP JUMP JUMPDEST PUSH0 PUSH1 0x20 DUP3 ADD SWAP1 POP DUP2 DUP2 SUB PUSH0 DUP4 ADD MSTORE PUSH2 0x292B DUP2 PUSH2 0x28F2 JUMP JUMPDEST SWAP1 POP SWAP2 SWAP1 POP JUMP JUMPDEST PUSH32 0x5468652077696E6E65722068617665206E6F74206265656E2063686F6F73656E PUSH0 DUP3 ADD MSTORE PUSH32 0x2079657400000000000000000000000000000000000000000000000000000000 PUSH1 0x20 DUP3 ADD MSTORE POP JUMP JUMPDEST PUSH0 PUSH2 0x298C PUSH1 0x24 DUP4 PUSH2 0x199B JUMP JUMPDEST SWAP2 POP PUSH2 0x2997 DUP3 PUSH2 0x2932 JUMP JUMPDEST PUSH1 0x40 DUP3 ADD SWAP1 POP SWAP2 SWAP1 POP JUMP JUMPDEST PUSH0 PUSH1 0x20 DUP3 ADD SWAP1 POP DUP2 DUP2 SUB PUSH0 DUP4 ADD MSTORE PUSH2 0x29B9 DUP2 PUSH2 0x2980 JUMP JUMPDEST SWAP1 POP SWAP2 SWAP1 POP JUMP JUMPDEST PUSH0 DUP2 SLOAD PUSH2 0x29CC DUP2 PUSH2 0x2323 JUMP JUMPDEST PUSH2 0x29D6 DUP2 DUP7 PUSH2 0x2353 JUMP JUMPDEST SWAP5 POP PUSH1 0x1 DUP3 AND PUSH0 DUP2 EQ PUSH2 0x29F0 JUMPI PUSH1 0x1 DUP2 EQ PUSH2 0x2A05 JUMPI PUSH2 0x2A37 JUMP JUMPDEST PUSH1 0xFF NOT DUP4 AND DUP7 MSTORE DUP2 ISZERO ISZERO DUP3 MUL DUP7 ADD SWAP4 POP PUSH2 0x2A37 JUMP JUMPDEST PUSH2 0x2A0E DUP6 PUSH2 0x2519 JUMP JUMPDEST PUSH0 JUMPDEST DUP4 DUP2 LT ISZERO PUSH2 0x2A2F JUMPI DUP2 SLOAD DUP2 DUP10 ADD MSTORE PUSH1 0x1 DUP3 ADD SWAP2 POP PUSH1 0x20 DUP2 ADD SWAP1 POP PUSH2 0x2A10 JUMP JUMPDEST DUP4 DUP9 ADD SWAP6 POP POP POP JUMPDEST POP POP POP SWAP3 SWAP2 POP POP JUMP JUMPDEST PUSH0 PUSH2 0x2A4B DUP3 DUP6 PUSH2 0x2394 JUMP JUMPDEST SWAP2 POP PUSH2 0x2A57 DUP3 DUP5 PUSH2 0x29C0 JUMP JUMPDEST SWAP2 POP DUP2 SWAP1 POP SWAP4 SWAP3 POP POP POP JUMP JUMPDEST PUSH32 0x5468652070726F706F73616C2073657373696F6E20686173206E6F7420737461 PUSH0 DUP3 ADD MSTORE PUSH32 0x72746564206F722068617320616C7265616479206265656E20656E6465640000 PUSH1 0x20 DUP3 ADD MSTORE POP JUMP JUMPDEST PUSH0 PUSH2 0x2ABD PUSH1 0x3E DUP4 PUSH2 0x199B JUMP JUMPDEST SWAP2 POP PUSH2 0x2AC8 DUP3 PUSH2 0x2A63 JUMP JUMPDEST PUSH1 0x40 DUP3 ADD SWAP1 POP SWAP2 SWAP1 POP JUMP JUMPDEST PUSH0 PUSH1 0x20 DUP3 ADD SWAP1 POP DUP2 DUP2 SUB PUSH0 DUP4 ADD MSTORE PUSH2 0x2AEA DUP2 PUSH2 0x2AB1 JUMP JUMPDEST SWAP1 POP SWAP2 SWAP1 POP JUMP JUMPDEST PUSH32 0x54686520766F74652073657373696F6E20686173206E6F742073746172746564 PUSH0 DUP3 ADD MSTORE PUSH32 0x206F722068617320616C726561647920656E6465640000000000000000000000 PUSH1 0x20 DUP3 ADD MSTORE POP JUMP JUMPDEST PUSH0 PUSH2 0x2B4B PUSH1 0x35 DUP4 PUSH2 0x199B JUMP JUMPDEST SWAP2 POP PUSH2 0x2B56 DUP3 PUSH2 0x2AF1 JUMP JUMPDEST PUSH1 0x40 DUP3 ADD SWAP1 POP SWAP2 SWAP1 POP JUMP JUMPDEST PUSH0 PUSH1 0x20 DUP3 ADD SWAP1 POP DUP2 DUP2 SUB PUSH0 DUP4 ADD MSTORE PUSH2 0x2B78 DUP2 PUSH2 0x2B3F JUMP JUMPDEST SWAP1 POP SWAP2 SWAP1 POP JUMP JUMPDEST PUSH32 0x566F74652073657373696F6E20646964206E6F742074616B6520706C61636520 PUSH0 DUP3 ADD MSTORE PUSH32 0x6F72206973206E6F7420656E6465640000000000000000000000000000000000 PUSH1 0x20 DUP3 ADD MSTORE POP JUMP JUMPDEST PUSH0 PUSH2 0x2BD9 PUSH1 0x2F DUP4 PUSH2 0x199B JUMP JUMPDEST SWAP2 POP PUSH2 0x2BE4 DUP3 PUSH2 0x2B7F JUMP JUMPDEST PUSH1 0x40 DUP3 ADD SWAP1 POP SWAP2 SWAP1 POP JUMP JUMPDEST PUSH0 PUSH1 0x20 DUP3 ADD SWAP1 POP DUP2 DUP2 SUB PUSH0 DUP4 ADD MSTORE PUSH2 0x2C06 DUP2 PUSH2 0x2BCD JUMP JUMPDEST SWAP1 POP SWAP2 SWAP1 POP JUMP INVALID LOG2 PUSH5 0x6970667358 0x22 SLT KECCAK256 0x2D SWAP9 SWAP16 JUMP 0xC5 PUSH13 0x914265A822A6D2CD6BDA92A033 CALLER 0xA5 SWAP10 SWAP5 PUSH7 0x4D5ED0B1599304 MSTORE PUSH5 0x736F6C6343 STOP ADDMOD SHR STOP CALLER SLOAD PUSH9 0x652077696E6E657220 PUSH9 0x6173206E6F74206265 PUSH6 0x6E2063686F6F PUSH20 0x656E207965740000000000000000000000000000 "
				},
				"gasEstimates": {
					"creation": {
						"codeDepositCost": "2266200",
						"executionCost": "infinite",
						"totalCost": "infinite"
					},
					"external": {
						"concatenateStrings(string,string)": "infinite",
						"endProposalSession()": "infinite",
						"endVoteSession()": "infinite",
						"getCurrentStatus()": "2606",
						"getProposalLength()": "2551",
						"getProposalsString()": "infinite",
						"getVotedProposalIdByAddress(address)": "2881",
						"getVoterVote(address)": "infinite",
						"getWinnerProposals()": "infinite",
						"getnumberVoter()": "2522",
						"owner()": "2537",
						"propose(string)": "infinite",
						"registerVoter(address)": "infinite",
						"renounceOwnership()": "infinite",
						"startProposalSession()": "infinite",
						"startVoteSession()": "infinite",
						"transferOwnership(address)": "infinite",
						"vote(uint256)": "infinite",
						"votesTallied()": "infinite"
					},
					"internal": {
						"setWinnerProposal()": "infinite"
					}
				},
				"methodIdentifiers": {
					"concatenateStrings(string,string)": "7a36b3ee",
					"endProposalSession()": "e06752c2",
					"endVoteSession()": "f74c168d",
					"getCurrentStatus()": "a3dd2619",
					"getProposalLength()": "8263a938",
					"getProposalsString()": "d841e5fc",
					"getVotedProposalIdByAddress(address)": "2c456e9a",
					"getVoterVote(address)": "5141e520",
					"getWinnerProposals()": "b6c0fb59",
					"getnumberVoter()": "4e02c55c",
					"owner()": "8da5cb5b",
					"propose(string)": "aa98df39",
					"registerVoter(address)": "38db6dd3",
					"renounceOwnership()": "715018a6",
					"startProposalSession()": "50d072fc",
					"startVoteSession()": "aaa98346",
					"transferOwnership(address)": "f2fde38b",
					"vote(uint256)": "0121b93f",
					"votesTallied()": "ada7415f"
				}
			},
			"storageLayout": {
				"storage": [
					{
						"astId": 8,
						"contract": "contracts/Voting.sol:Voting",
						"label": "_owner",
						"offset": 0,
						"slot": "0",
						"type": "t_address"
					},
					{
						"astId": 187,
						"contract": "contracts/Voting.sol:Voting",
						"label": "whitelistVoter",
						"offset": 0,
						"slot": "1",
						"type": "t_mapping(t_address,t_struct(Voter)230_storage)"
					},
					{
						"astId": 191,
						"contract": "contracts/Voting.sol:Voting",
						"label": "proposals",
						"offset": 0,
						"slot": "2",
						"type": "t_array(t_struct(Proposal)235_storage)dyn_storage"
					},
					{
						"astId": 193,
						"contract": "contracts/Voting.sol:Voting",
						"label": "winningProposalId",
						"offset": 0,
						"slot": "3",
						"type": "t_uint256"
					},
					{
						"astId": 195,
						"contract": "contracts/Voting.sol:Voting",
						"label": "numberVoter",
						"offset": 0,
						"slot": "4",
						"type": "t_uint256"
					},
					{
						"astId": 197,
						"contract": "contracts/Voting.sol:Voting",
						"label": "numberProposal",
						"offset": 0,
						"slot": "5",
						"type": "t_uint256"
					},
					{
						"astId": 199,
						"contract": "contracts/Voting.sol:Voting",
						"label": "numberWinners",
						"offset": 0,
						"slot": "6",
						"type": "t_uint256"
					},
					{
						"astId": 201,
						"contract": "contracts/Voting.sol:Voting",
						"label": "numberWinnersVote",
						"offset": 0,
						"slot": "7",
						"type": "t_uint256"
					},
					{
						"astId": 247,
						"contract": "contracts/Voting.sol:Voting",
						"label": "currentStatus",
						"offset": 0,
						"slot": "8",
						"type": "t_enum(WorkflowStatus)242"
					}
				],
				"types": {
					"t_address": {
						"encoding": "inplace",
						"label": "address",
						"numberOfBytes": "20"
					},
					"t_array(t_struct(Proposal)235_storage)dyn_storage": {
						"base": "t_struct(Proposal)235_storage",
						"encoding": "dynamic_array",
						"label": "struct Voting.Proposal[]",
						"numberOfBytes": "32"
					},
					"t_bool": {
						"encoding": "inplace",
						"label": "bool",
						"numberOfBytes": "1"
					},
					"t_enum(WorkflowStatus)242": {
						"encoding": "inplace",
						"label": "enum Voting.WorkflowStatus",
						"numberOfBytes": "1"
					},
					"t_mapping(t_address,t_struct(Voter)230_storage)": {
						"encoding": "mapping",
						"key": "t_address",
						"label": "mapping(address => struct Voting.Voter)",
						"numberOfBytes": "32",
						"value": "t_struct(Voter)230_storage"
					},
					"t_string_storage": {
						"encoding": "bytes",
						"label": "string",
						"numberOfBytes": "32"
					},
					"t_struct(Proposal)235_storage": {
						"encoding": "inplace",
						"label": "struct Voting.Proposal",
						"members": [
							{
								"astId": 232,
								"contract": "contracts/Voting.sol:Voting",
								"label": "description",
								"offset": 0,
								"slot": "0",
								"type": "t_string_storage"
							},
							{
								"astId": 234,
								"contract": "contracts/Voting.sol:Voting",
								"label": "voteCount",
								"offset": 0,
								"slot": "1",
								"type": "t_uint256"
							}
						],
						"numberOfBytes": "64"
					},
					"t_struct(Voter)230_storage": {
						"encoding": "inplace",
						"label": "struct Voting.Voter",
						"members": [
							{
								"astId": 225,
								"contract": "contracts/Voting.sol:Voting",
								"label": "isRegistered",
								"offset": 0,
								"slot": "0",
								"type": "t_bool"
							},
							{
								"astId": 227,
								"contract": "contracts/Voting.sol:Voting",
								"label": "hasVoted",
								"offset": 1,
								"slot": "0",
								"type": "t_bool"
							},
							{
								"astId": 229,
								"contract": "contracts/Voting.sol:Voting",
								"label": "votedProposalId",
								"offset": 0,
								"slot": "1",
								"type": "t_uint256"
							}
						],
						"numberOfBytes": "64"
					},
					"t_uint256": {
						"encoding": "inplace",
						"label": "uint256",
						"numberOfBytes": "32"
					}
				}
			},
			"userdoc": {
				"kind": "user",
				"methods": {},
				"version": 1
			}
		}
	}
}