{
	"contracts/Voting.sol": {
		"Voting": {
			"abi": [
				{
					"inputs": [],
					"stateMutability": "nonpayable",
					"type": "constructor"
				},
				{
					"inputs": [
						{
							"internalType": "address",
							"name": "owner",
							"type": "address"
						}
					],
					"name": "OwnableInvalidOwner",
					"type": "error"
				},
				{
					"inputs": [
						{
							"internalType": "address",
							"name": "account",
							"type": "address"
						}
					],
					"name": "OwnableUnauthorizedAccount",
					"type": "error"
				},
				{
					"anonymous": false,
					"inputs": [
						{
							"indexed": true,
							"internalType": "address",
							"name": "previousOwner",
							"type": "address"
						},
						{
							"indexed": true,
							"internalType": "address",
							"name": "newOwner",
							"type": "address"
						}
					],
					"name": "OwnershipTransferred",
					"type": "event"
				},
				{
					"anonymous": false,
					"inputs": [
						{
							"indexed": false,
							"internalType": "uint256",
							"name": "proposalId",
							"type": "uint256"
						}
					],
					"name": "ProposalRegistered",
					"type": "event"
				},
				{
					"anonymous": false,
					"inputs": [
						{
							"indexed": false,
							"internalType": "address",
							"name": "voter",
							"type": "address"
						},
						{
							"indexed": false,
							"internalType": "uint256",
							"name": "proposalId",
							"type": "uint256"
						}
					],
					"name": "Voted",
					"type": "event"
				},
				{
					"anonymous": false,
					"inputs": [
						{
							"indexed": false,
							"internalType": "address",
							"name": "voterAddress",
							"type": "address"
						}
					],
					"name": "VoterRegistered",
					"type": "event"
				},
				{
					"anonymous": false,
					"inputs": [
						{
							"indexed": false,
							"internalType": "enum Voting.WorkflowStatus",
							"name": "previousStatus",
							"type": "uint8"
						},
						{
							"indexed": false,
							"internalType": "enum Voting.WorkflowStatus",
							"name": "newStatus",
							"type": "uint8"
						}
					],
					"name": "WorkflowStatusChange",
					"type": "event"
				},
				{
					"inputs": [],
					"name": "endProposalSession",
					"outputs": [],
					"stateMutability": "nonpayable",
					"type": "function"
				},
				{
					"inputs": [],
					"name": "endVoteSession",
					"outputs": [],
					"stateMutability": "nonpayable",
					"type": "function"
				},
				{
					"inputs": [],
					"name": "getCurrentStatus",
					"outputs": [
						{
							"internalType": "enum Voting.WorkflowStatus",
							"name": "",
							"type": "uint8"
						}
					],
					"stateMutability": "view",
					"type": "function"
				},
				{
					"inputs": [],
					"name": "getPreviousStatus",
					"outputs": [
						{
							"internalType": "enum Voting.WorkflowStatus",
							"name": "",
							"type": "uint8"
						}
					],
					"stateMutability": "view",
					"type": "function"
				},
				{
					"inputs": [],
					"name": "getProposalCount",
					"outputs": [
						{
							"internalType": "uint256",
							"name": "",
							"type": "uint256"
						}
					],
					"stateMutability": "view",
					"type": "function"
				},
				{
					"inputs": [],
					"name": "getProposals",
					"outputs": [
						{
							"components": [
								{
									"internalType": "string",
									"name": "description",
									"type": "string"
								},
								{
									"internalType": "uint256",
									"name": "voteCount",
									"type": "uint256"
								}
							],
							"internalType": "struct Voting.Proposal[]",
							"name": "",
							"type": "tuple[]"
						}
					],
					"stateMutability": "view",
					"type": "function"
				},
				{
					"inputs": [
						{
							"internalType": "address",
							"name": "_address",
							"type": "address"
						}
					],
					"name": "getVoteByAddress",
					"outputs": [
						{
							"components": [
								{
									"internalType": "string",
									"name": "description",
									"type": "string"
								},
								{
									"internalType": "uint256",
									"name": "voteCount",
									"type": "uint256"
								}
							],
							"internalType": "struct Voting.Proposal",
							"name": "",
							"type": "tuple"
						}
					],
					"stateMutability": "view",
					"type": "function"
				},
				{
					"inputs": [],
					"name": "getVoteCountTotal",
					"outputs": [
						{
							"internalType": "uint256",
							"name": "",
							"type": "uint256"
						}
					],
					"stateMutability": "view",
					"type": "function"
				},
				{
					"inputs": [],
					"name": "getVoteWinnerCount",
					"outputs": [
						{
							"internalType": "uint256",
							"name": "",
							"type": "uint256"
						}
					],
					"stateMutability": "view",
					"type": "function"
				},
				{
					"inputs": [],
					"name": "getVoterCount",
					"outputs": [
						{
							"internalType": "uint256",
							"name": "",
							"type": "uint256"
						}
					],
					"stateMutability": "view",
					"type": "function"
				},
				{
					"inputs": [],
					"name": "getWinnerCount",
					"outputs": [
						{
							"internalType": "uint256",
							"name": "",
							"type": "uint256"
						}
					],
					"stateMutability": "view",
					"type": "function"
				},
				{
					"inputs": [],
					"name": "getWinnerProposal",
					"outputs": [
						{
							"components": [
								{
									"internalType": "string",
									"name": "description",
									"type": "string"
								},
								{
									"internalType": "uint256",
									"name": "voteCount",
									"type": "uint256"
								}
							],
							"internalType": "struct Voting.Proposal",
							"name": "",
							"type": "tuple"
						}
					],
					"stateMutability": "view",
					"type": "function"
				},
				{
					"inputs": [],
					"name": "getWinnerProposalId",
					"outputs": [
						{
							"internalType": "uint256",
							"name": "",
							"type": "uint256"
						}
					],
					"stateMutability": "view",
					"type": "function"
				},
				{
					"inputs": [],
					"name": "getWinner_proposaldescription",
					"outputs": [
						{
							"internalType": "string",
							"name": "",
							"type": "string"
						}
					],
					"stateMutability": "view",
					"type": "function"
				},
				{
					"inputs": [],
					"name": "owner",
					"outputs": [
						{
							"internalType": "address",
							"name": "",
							"type": "address"
						}
					],
					"stateMutability": "view",
					"type": "function"
				},
				{
					"inputs": [
						{
							"internalType": "string",
							"name": "_proposal",
							"type": "string"
						}
					],
					"name": "propose",
					"outputs": [],
					"stateMutability": "nonpayable",
					"type": "function"
				},
				{
					"inputs": [
						{
							"internalType": "address",
							"name": "_address",
							"type": "address"
						}
					],
					"name": "registerVoter",
					"outputs": [],
					"stateMutability": "nonpayable",
					"type": "function"
				},
				{
					"inputs": [],
					"name": "renounceOwnership",
					"outputs": [],
					"stateMutability": "nonpayable",
					"type": "function"
				},
				{
					"inputs": [],
					"name": "startProposalSession",
					"outputs": [],
					"stateMutability": "nonpayable",
					"type": "function"
				},
				{
					"inputs": [],
					"name": "startVoteSession",
					"outputs": [],
					"stateMutability": "nonpayable",
					"type": "function"
				},
				{
					"inputs": [],
					"name": "talliedVotes",
					"outputs": [],
					"stateMutability": "nonpayable",
					"type": "function"
				},
				{
					"inputs": [
						{
							"internalType": "address",
							"name": "newOwner",
							"type": "address"
						}
					],
					"name": "transferOwnership",
					"outputs": [],
					"stateMutability": "nonpayable",
					"type": "function"
				},
				{
					"inputs": [
						{
							"internalType": "uint256",
							"name": "_proposalId",
							"type": "uint256"
						}
					],
					"name": "vote",
					"outputs": [],
					"stateMutability": "nonpayable",
					"type": "function"
				}
			],
			"devdoc": {
				"errors": {
					"OwnableInvalidOwner(address)": [
						{
							"details": "The owner is not a valid owner account. (eg. `address(0)`)"
						}
					],
					"OwnableUnauthorizedAccount(address)": [
						{
							"details": "The caller account is not authorized to perform an operation."
						}
					]
				},
				"kind": "dev",
				"methods": {
					"owner()": {
						"details": "Returns the address of the current owner."
					},
					"renounceOwnership()": {
						"details": "Leaves the contract without owner. It will not be possible to call `onlyOwner` functions. Can only be called by the current owner. NOTE: Renouncing ownership will leave the contract without an owner, thereby disabling any functionality that is only available to the owner."
					},
					"transferOwnership(address)": {
						"details": "Transfers ownership of the contract to a new account (`newOwner`). Can only be called by the current owner."
					}
				},
				"version": 1
			},
			"evm": {
				"assembly": "    /* \"contracts/Voting.sol\":111:9191  contract Voting is Ownable {... */\n  mstore(0x40, 0x80)\n    /* \"contracts/Voting.sol\":845:877  WorkflowStatus.RegisteringVoters */\n  0x00\n    /* \"contracts/Voting.sol\":814:877  WorkflowStatus currentStatus = WorkflowStatus.RegisteringVoters */\n  0x03\n  exp(0x0100, 0x00)\n  dup2\n  sload\n  dup2\n  0xff\n  mul\n  not\n  and\n  swap1\n  dup4\n  0x05\n  dup2\n  gt\n  iszero\n  tag_1\n  jumpi\n  tag_2\n  tag_3\n  jump\t// in\ntag_2:\ntag_1:\n  mul\n  or\n  swap1\n  sstore\n  pop\n    /* \"contracts/Voting.sol\":1275:1276  1 */\n  0x01\n    /* \"contracts/Voting.sol\":1244:1276  uint private voteWinnerCount = 1 */\n  0x09\n  sstore\n    /* \"contracts/Voting.sol\":1657:1698  constructor() Ownable(msg.sender) {... */\n  callvalue\n  dup1\n  iszero\n  tag_4\n  jumpi\n  revert(0x00, 0x00)\ntag_4:\n  pop\n    /* \"contracts/Voting.sol\":1679:1689  msg.sender */\n  caller\n    /* \"@openzeppelin/contracts/access/Ownable.sol\":1297:1298  0 */\n  0x00\n    /* \"@openzeppelin/contracts/access/Ownable.sol\":1273:1299  initialOwner == address(0) */\n  0xffffffffffffffffffffffffffffffffffffffff\n  and\n    /* \"@openzeppelin/contracts/access/Ownable.sol\":1273:1285  initialOwner */\n  dup2\n    /* \"@openzeppelin/contracts/access/Ownable.sol\":1273:1299  initialOwner == address(0) */\n  0xffffffffffffffffffffffffffffffffffffffff\n  and\n  sub\n    /* \"@openzeppelin/contracts/access/Ownable.sol\":1269:1364  if (initialOwner == address(0)) {... */\n  tag_8\n  jumpi\n    /* \"@openzeppelin/contracts/access/Ownable.sol\":1350:1351  0 */\n  0x00\n    /* \"@openzeppelin/contracts/access/Ownable.sol\":1322:1353  OwnableInvalidOwner(address(0)) */\n  mload(0x40)\n  0x1e4fbdf700000000000000000000000000000000000000000000000000000000\n  dup2\n  mstore\n  0x04\n  add\n  tag_9\n  swap2\n  swap1\n  tag_10\n  jump\t// in\ntag_9:\n  mload(0x40)\n  dup1\n  swap2\n  sub\n  swap1\n  revert\n    /* \"@openzeppelin/contracts/access/Ownable.sol\":1269:1364  if (initialOwner == address(0)) {... */\ntag_8:\n    /* \"@openzeppelin/contracts/access/Ownable.sol\":1373:1405  _transferOwnership(initialOwner) */\n  tag_11\n    /* \"@openzeppelin/contracts/access/Ownable.sol\":1392:1404  initialOwner */\n  dup2\n    /* \"@openzeppelin/contracts/access/Ownable.sol\":1373:1391  _transferOwnership */\n  shl(0x20, tag_12)\n    /* \"@openzeppelin/contracts/access/Ownable.sol\":1373:1405  _transferOwnership(initialOwner) */\n  0x20\n  shr\n  jump\t// in\ntag_11:\n    /* \"@openzeppelin/contracts/access/Ownable.sol\":1225:1412  constructor(address initialOwner) {... */\n  pop\n    /* \"contracts/Voting.sol\":111:9191  contract Voting is Ownable {... */\n  jump(tag_14)\n    /* \"@openzeppelin/contracts/access/Ownable.sol\":2912:3099  function _transferOwnership(address newOwner) internal virtual {... */\ntag_12:\n    /* \"@openzeppelin/contracts/access/Ownable.sol\":2985:3001  address oldOwner */\n  0x00\n    /* \"@openzeppelin/contracts/access/Ownable.sol\":3004:3010  _owner */\n  0x00\n  0x00\n  swap1\n  sload\n  swap1\n  0x0100\n  exp\n  swap1\n  div\n  0xffffffffffffffffffffffffffffffffffffffff\n  and\n    /* \"@openzeppelin/contracts/access/Ownable.sol\":2985:3010  address oldOwner = _owner */\n  swap1\n  pop\n    /* \"@openzeppelin/contracts/access/Ownable.sol\":3029:3037  newOwner */\n  dup2\n    /* \"@openzeppelin/contracts/access/Ownable.sol\":3020:3026  _owner */\n  0x00\n  0x00\n    /* \"@openzeppelin/contracts/access/Ownable.sol\":3020:3037  _owner = newOwner */\n  0x0100\n  exp\n  dup2\n  sload\n  dup2\n  0xffffffffffffffffffffffffffffffffffffffff\n  mul\n  not\n  and\n  swap1\n  dup4\n  0xffffffffffffffffffffffffffffffffffffffff\n  and\n  mul\n  or\n  swap1\n  sstore\n  pop\n    /* \"@openzeppelin/contracts/access/Ownable.sol\":3083:3091  newOwner */\n  dup2\n    /* \"@openzeppelin/contracts/access/Ownable.sol\":3052:3092  OwnershipTransferred(oldOwner, newOwner) */\n  0xffffffffffffffffffffffffffffffffffffffff\n  and\n    /* \"@openzeppelin/contracts/access/Ownable.sol\":3073:3081  oldOwner */\n  dup2\n    /* \"@openzeppelin/contracts/access/Ownable.sol\":3052:3092  OwnershipTransferred(oldOwner, newOwner) */\n  0xffffffffffffffffffffffffffffffffffffffff\n  and\n  0x8be0079c531659141344cd1fd0a4f28419497f9722a3daafe3b4186f6b6457e0\n  mload(0x40)\n  mload(0x40)\n  dup1\n  swap2\n  sub\n  swap1\n  log3\n    /* \"@openzeppelin/contracts/access/Ownable.sol\":2975:3099  {... */\n  pop\n    /* \"@openzeppelin/contracts/access/Ownable.sol\":2912:3099  function _transferOwnership(address newOwner) internal virtual {... */\n  pop\n  jump\t// out\n    /* \"#utility.yul\":7:187   */\ntag_3:\n    /* \"#utility.yul\":55:132   */\n  0x4e487b7100000000000000000000000000000000000000000000000000000000\n    /* \"#utility.yul\":52:53   */\n  0x00\n    /* \"#utility.yul\":45:133   */\n  mstore\n    /* \"#utility.yul\":152:156   */\n  0x21\n    /* \"#utility.yul\":149:150   */\n  0x04\n    /* \"#utility.yul\":142:157   */\n  mstore\n    /* \"#utility.yul\":176:180   */\n  0x24\n    /* \"#utility.yul\":173:174   */\n  0x00\n    /* \"#utility.yul\":166:181   */\n  revert\n    /* \"#utility.yul\":193:319   */\ntag_16:\n    /* \"#utility.yul\":230:237   */\n  0x00\n    /* \"#utility.yul\":270:312   */\n  0xffffffffffffffffffffffffffffffffffffffff\n    /* \"#utility.yul\":263:268   */\n  dup3\n    /* \"#utility.yul\":259:313   */\n  and\n    /* \"#utility.yul\":248:313   */\n  swap1\n  pop\n    /* \"#utility.yul\":193:319   */\n  swap2\n  swap1\n  pop\n  jump\t// out\n    /* \"#utility.yul\":325:421   */\ntag_17:\n    /* \"#utility.yul\":362:369   */\n  0x00\n    /* \"#utility.yul\":391:415   */\n  tag_23\n    /* \"#utility.yul\":409:414   */\n  dup3\n    /* \"#utility.yul\":391:415   */\n  tag_16\n  jump\t// in\ntag_23:\n    /* \"#utility.yul\":380:415   */\n  swap1\n  pop\n    /* \"#utility.yul\":325:421   */\n  swap2\n  swap1\n  pop\n  jump\t// out\n    /* \"#utility.yul\":427:545   */\ntag_18:\n    /* \"#utility.yul\":514:538   */\n  tag_25\n    /* \"#utility.yul\":532:537   */\n  dup2\n    /* \"#utility.yul\":514:538   */\n  tag_17\n  jump\t// in\ntag_25:\n    /* \"#utility.yul\":509:512   */\n  dup3\n    /* \"#utility.yul\":502:539   */\n  mstore\n    /* \"#utility.yul\":427:545   */\n  pop\n  pop\n  jump\t// out\n    /* \"#utility.yul\":551:773   */\ntag_10:\n    /* \"#utility.yul\":644:648   */\n  0x00\n    /* \"#utility.yul\":682:684   */\n  0x20\n    /* \"#utility.yul\":671:680   */\n  dup3\n    /* \"#utility.yul\":667:685   */\n  add\n    /* \"#utility.yul\":659:685   */\n  swap1\n  pop\n    /* \"#utility.yul\":695:766   */\n  tag_27\n    /* \"#utility.yul\":763:764   */\n  0x00\n    /* \"#utility.yul\":752:761   */\n  dup4\n    /* \"#utility.yul\":748:765   */\n  add\n    /* \"#utility.yul\":739:745   */\n  dup5\n    /* \"#utility.yul\":695:766   */\n  tag_18\n  jump\t// in\ntag_27:\n    /* \"#utility.yul\":551:773   */\n  swap3\n  swap2\n  pop\n  pop\n  jump\t// out\n    /* \"contracts/Voting.sol\":111:9191  contract Voting is Ownable {... */\ntag_14:\n  dataSize(sub_0)\n  dup1\n  dataOffset(sub_0)\n  0x00\n  codecopy\n  0x00\n  return\nstop\n\nsub_0: assembly {\n        /* \"contracts/Voting.sol\":111:9191  contract Voting is Ownable {... */\n      mstore(0x40, 0x80)\n      callvalue\n      dup1\n      iszero\n      tag_1\n      jumpi\n      revert(0x00, 0x00)\n    tag_1:\n      pop\n      jumpi(tag_2, lt(calldatasize, 0x04))\n      shr(0xe0, calldataload(0x00))\n      dup1\n      0x8da5cb5b\n      gt\n      tag_26\n      jumpi\n      dup1\n      0xaaa98346\n      gt\n      tag_27\n      jumpi\n      dup1\n      0xaaa98346\n      eq\n      tag_20\n      jumpi\n      dup1\n      0xc08cc02d\n      eq\n      tag_21\n      jumpi\n      dup1\n      0xe06752c2\n      eq\n      tag_22\n      jumpi\n      dup1\n      0xe1ab86fb\n      eq\n      tag_23\n      jumpi\n      dup1\n      0xf2fde38b\n      eq\n      tag_24\n      jumpi\n      dup1\n      0xf74c168d\n      eq\n      tag_25\n      jumpi\n      jump(tag_2)\n    tag_27:\n      dup1\n      0x8da5cb5b\n      eq\n      tag_14\n      jumpi\n      dup1\n      0x9589dfcc\n      eq\n      tag_15\n      jumpi\n      dup1\n      0xa3c1885b\n      eq\n      tag_16\n      jumpi\n      dup1\n      0xa3dd2619\n      eq\n      tag_17\n      jumpi\n      dup1\n      0xa46c3637\n      eq\n      tag_18\n      jumpi\n      dup1\n      0xaa98df39\n      eq\n      tag_19\n      jumpi\n      jump(tag_2)\n    tag_26:\n      dup1\n      0x5bc46514\n      gt\n      tag_28\n      jumpi\n      dup1\n      0x5bc46514\n      eq\n      tag_8\n      jumpi\n      dup1\n      0x62564c48\n      eq\n      tag_9\n      jumpi\n      dup1\n      0x65f88a7c\n      eq\n      tag_10\n      jumpi\n      dup1\n      0x67af2826\n      eq\n      tag_11\n      jumpi\n      dup1\n      0x715018a6\n      eq\n      tag_12\n      jumpi\n      dup1\n      0x80525548\n      eq\n      tag_13\n      jumpi\n      jump(tag_2)\n    tag_28:\n      dup1\n      0x0121b93f\n      eq\n      tag_3\n      jumpi\n      dup1\n      0x11174a29\n      eq\n      tag_4\n      jumpi\n      dup1\n      0x38db6dd3\n      eq\n      tag_5\n      jumpi\n      dup1\n      0x43850c2d\n      eq\n      tag_6\n      jumpi\n      dup1\n      0x50d072fc\n      eq\n      tag_7\n      jumpi\n    tag_2:\n      revert(0x00, 0x00)\n        /* \"contracts/Voting.sol\":2960:3392  function vote(uint _proposalId) external restrictOwnerToVote(_proposalId) {... */\n    tag_3:\n      tag_29\n      0x04\n      dup1\n      calldatasize\n      sub\n      dup2\n      add\n      swap1\n      tag_30\n      swap2\n      swap1\n      tag_31\n      jump\t// in\n    tag_30:\n      tag_32\n      jump\t// in\n    tag_29:\n      stop\n        /* \"contracts/Voting.sol\":8658:8744  function getVoterCount() external view returns(uint){... */\n    tag_4:\n      tag_33\n      tag_34\n      jump\t// in\n    tag_33:\n      mload(0x40)\n      tag_35\n      swap2\n      swap1\n      tag_36\n      jump\t// in\n    tag_35:\n      mload(0x40)\n      dup1\n      swap2\n      sub\n      swap1\n      return\n        /* \"contracts/Voting.sol\":1824:2261  function registerVoter(address _address) external onlyOwner {... */\n    tag_5:\n      tag_37\n      0x04\n      dup1\n      calldatasize\n      sub\n      dup2\n      add\n      swap1\n      tag_38\n      swap2\n      swap1\n      tag_39\n      jump\t// in\n    tag_38:\n      tag_40\n      jump\t// in\n    tag_37:\n      stop\n        /* \"contracts/Voting.sol\":7464:7711  function getWinner_proposaldescription() external view returns (string memory) {... */\n    tag_6:\n      tag_41\n      tag_42\n      jump\t// in\n    tag_41:\n      mload(0x40)\n      tag_43\n      swap2\n      swap1\n      tag_44\n      jump\t// in\n    tag_43:\n      mload(0x40)\n      dup1\n      swap2\n      sub\n      swap1\n      return\n        /* \"contracts/Voting.sol\":4139:4549  function startProposalSession() external onlyOwner {... */\n    tag_7:\n      tag_45\n      tag_46\n      jump\t// in\n    tag_45:\n      stop\n        /* \"contracts/Voting.sol\":7766:7971  function getWinnerProposalId() external view returns (uint) {... */\n    tag_8:\n      tag_47\n      tag_48\n      jump\t// in\n    tag_47:\n      mload(0x40)\n      tag_49\n      swap2\n      swap1\n      tag_36\n      jump\t// in\n    tag_49:\n      mload(0x40)\n      dup1\n      swap2\n      sub\n      swap1\n      return\n        /* \"contracts/Voting.sol\":8512:8609  function getProposals() external view returns(Proposal[] memory){... */\n    tag_9:\n      tag_50\n      tag_51\n      jump\t// in\n    tag_50:\n      mload(0x40)\n      tag_52\n      swap2\n      swap1\n      tag_53\n      jump\t// in\n    tag_52:\n      mload(0x40)\n      dup1\n      swap2\n      sub\n      swap1\n      return\n        /* \"contracts/Voting.sol\":8195:8326  function getPreviousStatus() external view returns (WorkflowStatus) {... */\n    tag_10:\n      tag_54\n      tag_55\n      jump\t// in\n    tag_54:\n      mload(0x40)\n      tag_56\n      swap2\n      swap1\n      tag_57\n      jump\t// in\n    tag_56:\n      mload(0x40)\n      dup1\n      swap2\n      sub\n      swap1\n      return\n        /* \"contracts/Voting.sol\":5810:6191  function talliedVotes() external onlyOwner {... */\n    tag_11:\n      tag_58\n      tag_59\n      jump\t// in\n    tag_58:\n      stop\n        /* \"@openzeppelin/contracts/access/Ownable.sol\":2293:2394  function renounceOwnership() public virtual onlyOwner {... */\n    tag_12:\n      tag_60\n      tag_61\n      jump\t// in\n    tag_60:\n      stop\n        /* \"contracts/Voting.sol\":6327:6789  function getVoteByAddress(address _address) external view returns(Proposal memory){... */\n    tag_13:\n      tag_62\n      0x04\n      dup1\n      calldatasize\n      sub\n      dup2\n      add\n      swap1\n      tag_63\n      swap2\n      swap1\n      tag_39\n      jump\t// in\n    tag_63:\n      tag_64\n      jump\t// in\n    tag_62:\n      mload(0x40)\n      tag_65\n      swap2\n      swap1\n      tag_66\n      jump\t// in\n    tag_65:\n      mload(0x40)\n      dup1\n      swap2\n      sub\n      swap1\n      return\n        /* \"@openzeppelin/contracts/access/Ownable.sol\":1638:1723  function owner() public view virtual returns (address) {... */\n    tag_14:\n      tag_67\n      tag_68\n      jump\t// in\n    tag_67:\n      mload(0x40)\n      tag_69\n      swap2\n      swap1\n      tag_70\n      jump\t// in\n    tag_69:\n      mload(0x40)\n      dup1\n      swap2\n      sub\n      swap1\n      return\n        /* \"contracts/Voting.sol\":9092:9188  function getVoteWinnerCount() external view returns(uint){... */\n    tag_15:\n      tag_71\n      tag_72\n      jump\t// in\n    tag_71:\n      mload(0x40)\n      tag_73\n      swap2\n      swap1\n      tag_36\n      jump\t// in\n    tag_73:\n      mload(0x40)\n      dup1\n      swap2\n      sub\n      swap1\n      return\n        /* \"contracts/Voting.sol\":7174:7399  function getWinnerProposal() external view returns (Proposal memory) {... */\n    tag_16:\n      tag_74\n      tag_75\n      jump\t// in\n    tag_74:\n      mload(0x40)\n      tag_76\n      swap2\n      swap1\n      tag_66\n      jump\t// in\n    tag_76:\n      mload(0x40)\n      dup1\n      swap2\n      sub\n      swap1\n      return\n        /* \"contracts/Voting.sol\":8024:8128  function getCurrentStatus() external view returns (WorkflowStatus) {... */\n    tag_17:\n      tag_77\n      tag_78\n      jump\t// in\n    tag_77:\n      mload(0x40)\n      tag_79\n      swap2\n      swap1\n      tag_57\n      jump\t// in\n    tag_79:\n      mload(0x40)\n      dup1\n      swap2\n      sub\n      swap1\n      return\n        /* \"contracts/Voting.sol\":8937:9025  function getWinnerCount() external view returns(uint){... */\n    tag_18:\n      tag_80\n      tag_81\n      jump\t// in\n    tag_80:\n      mload(0x40)\n      tag_82\n      swap2\n      swap1\n      tag_36\n      jump\t// in\n    tag_82:\n      mload(0x40)\n      dup1\n      swap2\n      sub\n      swap1\n      return\n        /* \"contracts/Voting.sol\":2394:2954  function propose(string memory _proposal) external {... */\n    tag_19:\n      tag_83\n      0x04\n      dup1\n      calldatasize\n      sub\n      dup2\n      add\n      swap1\n      tag_84\n      swap2\n      swap1\n      tag_85\n      jump\t// in\n    tag_84:\n      tag_86\n      jump\t// in\n    tag_83:\n      stop\n        /* \"contracts/Voting.sol\":4998:5359  function startVoteSession() external onlyOwner {... */\n    tag_20:\n      tag_87\n      tag_88\n      jump\t// in\n    tag_87:\n      stop\n        /* \"contracts/Voting.sol\":8376:8471  function getProposalCount() external view returns(uint){... */\n    tag_21:\n      tag_89\n      tag_90\n      jump\t// in\n    tag_89:\n      mload(0x40)\n      tag_91\n      swap2\n      swap1\n      tag_36\n      jump\t// in\n    tag_91:\n      mload(0x40)\n      dup1\n      swap2\n      sub\n      swap1\n      return\n        /* \"contracts/Voting.sol\":4555:4991  function endProposalSession() external onlyOwner {... */\n    tag_22:\n      tag_92\n      tag_93\n      jump\t// in\n    tag_92:\n      stop\n        /* \"contracts/Voting.sol\":8792:8886  function getVoteCountTotal() external view returns(uint){... */\n    tag_23:\n      tag_94\n      tag_95\n      jump\t// in\n    tag_94:\n      mload(0x40)\n      tag_96\n      swap2\n      swap1\n      tag_36\n      jump\t// in\n    tag_96:\n      mload(0x40)\n      dup1\n      swap2\n      sub\n      swap1\n      return\n        /* \"@openzeppelin/contracts/access/Ownable.sol\":2543:2758  function transferOwnership(address newOwner) public virtual onlyOwner {... */\n    tag_24:\n      tag_97\n      0x04\n      dup1\n      calldatasize\n      sub\n      dup2\n      add\n      swap1\n      tag_98\n      swap2\n      swap1\n      tag_39\n      jump\t// in\n    tag_98:\n      tag_99\n      jump\t// in\n    tag_97:\n      stop\n        /* \"contracts/Voting.sol\":5366:5804  function endVoteSession() external onlyOwner {... */\n    tag_25:\n      tag_100\n      tag_101\n      jump\t// in\n    tag_100:\n      stop\n        /* \"contracts/Voting.sol\":2960:3392  function vote(uint _proposalId) external restrictOwnerToVote(_proposalId) {... */\n    tag_32:\n        /* \"contracts/Voting.sol\":3021:3032  _proposalId */\n      dup1\n        /* \"contracts/Voting.sol\":3469:3479  msg.sender */\n      caller\n        /* \"contracts/Voting.sol\":3458:3479  owner() == msg.sender */\n      0xffffffffffffffffffffffffffffffffffffffff\n      and\n        /* \"contracts/Voting.sol\":3458:3465  owner() */\n      tag_103\n        /* \"contracts/Voting.sol\":3458:3463  owner */\n      tag_68\n        /* \"contracts/Voting.sol\":3458:3465  owner() */\n      jump\t// in\n    tag_103:\n        /* \"contracts/Voting.sol\":3458:3479  owner() == msg.sender */\n      0xffffffffffffffffffffffffffffffffffffffff\n      and\n      sub\n        /* \"contracts/Voting.sol\":3455:3970  if(owner() == msg.sender) {... */\n      tag_104\n      jumpi\n        /* \"contracts/Voting.sol\":3517:3518  1 */\n      0x01\n        /* \"contracts/Voting.sol\":3503:3514  winnerCount */\n      sload(0x08)\n        /* \"contracts/Voting.sol\":3503:3518  winnerCount > 1 */\n      gt\n        /* \"contracts/Voting.sol\":3495:3571  require(winnerCount > 1, \"You can only vote if there is more than 1 winner\") */\n      tag_105\n      jumpi\n      mload(0x40)\n      0x08c379a000000000000000000000000000000000000000000000000000000000\n      dup2\n      mstore\n      0x04\n      add\n      tag_106\n      swap1\n      tag_107\n      jump\t// in\n    tag_106:\n      mload(0x40)\n      dup1\n      swap2\n      sub\n      swap1\n      revert\n    tag_105:\n        /* \"contracts/Voting.sol\":3599:3600  1 */\n      0x01\n        /* \"contracts/Voting.sol\":3585:3596  winnerCount */\n      0x08\n        /* \"contracts/Voting.sol\":3585:3600  winnerCount = 1 */\n      dup2\n      swap1\n      sstore\n      pop\n        /* \"contracts/Voting.sol\":3634:3645  _proposalId */\n      dup1\n        /* \"contracts/Voting.sol\":3614:3631  winningProposalId */\n      0x04\n        /* \"contracts/Voting.sol\":3614:3645  winningProposalId = _proposalId */\n      dup2\n      swap1\n      sstore\n      pop\n        /* \"contracts/Voting.sol\":3455:3970  if(owner() == msg.sender) {... */\n      jump(tag_108)\n    tag_104:\n        /* \"contracts/Voting.sol\":3701:3736  WorkflowStatus.VotingSessionStarted */\n      0x03\n        /* \"contracts/Voting.sol\":3684:3736  currentStatus == WorkflowStatus.VotingSessionStarted */\n      0x05\n      dup2\n      gt\n      iszero\n      tag_109\n      jumpi\n      tag_110\n      tag_111\n      jump\t// in\n    tag_110:\n    tag_109:\n        /* \"contracts/Voting.sol\":3684:3697  currentStatus */\n      0x03\n      0x00\n      swap1\n      sload\n      swap1\n      0x0100\n      exp\n      swap1\n      div\n      0xff\n      and\n        /* \"contracts/Voting.sol\":3684:3736  currentStatus == WorkflowStatus.VotingSessionStarted */\n      0x05\n      dup2\n      gt\n      iszero\n      tag_112\n      jumpi\n      tag_113\n      tag_111\n      jump\t// in\n    tag_113:\n    tag_112:\n      eq\n        /* \"contracts/Voting.sol\":3676:3774  require(currentStatus == WorkflowStatus.VotingSessionStarted, \"The voting session is not started\") */\n      tag_114\n      jumpi\n      mload(0x40)\n      0x08c379a000000000000000000000000000000000000000000000000000000000\n      dup2\n      mstore\n      0x04\n      add\n      tag_115\n      swap1\n      tag_116\n      jump\t// in\n    tag_115:\n      mload(0x40)\n      dup1\n      swap2\n      sub\n      swap1\n      revert\n    tag_114:\n        /* \"contracts/Voting.sol\":3840:3844  true */\n      0x01\n        /* \"contracts/Voting.sol\":3797:3844  whitelistVoter[msg.sender].isRegistered == true */\n      iszero\n      iszero\n        /* \"contracts/Voting.sol\":3797:3811  whitelistVoter */\n      0x01\n        /* \"contracts/Voting.sol\":3797:3823  whitelistVoter[msg.sender] */\n      0x00\n        /* \"contracts/Voting.sol\":3812:3822  msg.sender */\n      caller\n        /* \"contracts/Voting.sol\":3797:3823  whitelistVoter[msg.sender] */\n      0xffffffffffffffffffffffffffffffffffffffff\n      and\n      0xffffffffffffffffffffffffffffffffffffffff\n      and\n      dup2\n      mstore\n      0x20\n      add\n      swap1\n      dup2\n      mstore\n      0x20\n      add\n      0x00\n      keccak256\n        /* \"contracts/Voting.sol\":3797:3836  whitelistVoter[msg.sender].isRegistered */\n      0x00\n      add\n      0x00\n      swap1\n      sload\n      swap1\n      0x0100\n      exp\n      swap1\n      div\n      0xff\n      and\n        /* \"contracts/Voting.sol\":3797:3844  whitelistVoter[msg.sender].isRegistered == true */\n      iszero\n      iszero\n      eq\n        /* \"contracts/Voting.sol\":3789:3871  require(whitelistVoter[msg.sender].isRegistered == true, \"You are not registered\") */\n      tag_117\n      jumpi\n      mload(0x40)\n      0x08c379a000000000000000000000000000000000000000000000000000000000\n      dup2\n      mstore\n      0x04\n      add\n      tag_118\n      swap1\n      tag_119\n      jump\t// in\n    tag_118:\n      mload(0x40)\n      dup1\n      swap2\n      sub\n      swap1\n      revert\n    tag_117:\n        /* \"contracts/Voting.sol\":3932:3937  false */\n      0x00\n        /* \"contracts/Voting.sol\":3893:3937  whitelistVoter[msg.sender].hasVoted == false */\n      iszero\n      iszero\n        /* \"contracts/Voting.sol\":3893:3907  whitelistVoter */\n      0x01\n        /* \"contracts/Voting.sol\":3893:3919  whitelistVoter[msg.sender] */\n      0x00\n        /* \"contracts/Voting.sol\":3908:3918  msg.sender */\n      caller\n        /* \"contracts/Voting.sol\":3893:3919  whitelistVoter[msg.sender] */\n      0xffffffffffffffffffffffffffffffffffffffff\n      and\n      0xffffffffffffffffffffffffffffffffffffffff\n      and\n      dup2\n      mstore\n      0x20\n      add\n      swap1\n      dup2\n      mstore\n      0x20\n      add\n      0x00\n      keccak256\n        /* \"contracts/Voting.sol\":3893:3928  whitelistVoter[msg.sender].hasVoted */\n      0x00\n      add\n      0x01\n      swap1\n      sload\n      swap1\n      0x0100\n      exp\n      swap1\n      div\n      0xff\n      and\n        /* \"contracts/Voting.sol\":3893:3937  whitelistVoter[msg.sender].hasVoted == false */\n      iszero\n      iszero\n      eq\n        /* \"contracts/Voting.sol\":3885:3959  require(whitelistVoter[msg.sender].hasVoted == false, \"You already voted\") */\n      tag_120\n      jumpi\n      mload(0x40)\n      0x08c379a000000000000000000000000000000000000000000000000000000000\n      dup2\n      mstore\n      0x04\n      add\n      tag_121\n      swap1\n      tag_122\n      jump\t// in\n    tag_121:\n      mload(0x40)\n      dup1\n      swap2\n      sub\n      swap1\n      revert\n    tag_120:\n        /* \"contracts/Voting.sol\":3455:3970  if(owner() == msg.sender) {... */\n    tag_108:\n        /* \"contracts/Voting.sol\":3066:3075  proposals */\n      0x02\n        /* \"contracts/Voting.sol\":3066:3082  proposals.length */\n      dup1\n      sload\n      swap1\n      pop\n        /* \"contracts/Voting.sol\":3052:3063  _proposalId */\n      dup3\n        /* \"contracts/Voting.sol\":3052:3082  _proposalId < proposals.length */\n      lt\n        /* \"contracts/Voting.sol\":3044:3119  require(_proposalId < proposals.length, \"This proposal ID does not exists\") */\n      tag_124\n      jumpi\n      mload(0x40)\n      0x08c379a000000000000000000000000000000000000000000000000000000000\n      dup2\n      mstore\n      0x04\n      add\n      tag_125\n      swap1\n      tag_126\n      jump\t// in\n    tag_125:\n      mload(0x40)\n      dup1\n      swap2\n      sub\n      swap1\n      revert\n    tag_124:\n        /* \"contracts/Voting.sol\":3200:3204  true */\n      0x01\n        /* \"contracts/Voting.sol\":3162:3176  whitelistVoter */\n      dup1\n        /* \"contracts/Voting.sol\":3162:3188  whitelistVoter[msg.sender] */\n      0x00\n        /* \"contracts/Voting.sol\":3177:3187  msg.sender */\n      caller\n        /* \"contracts/Voting.sol\":3162:3188  whitelistVoter[msg.sender] */\n      0xffffffffffffffffffffffffffffffffffffffff\n      and\n      0xffffffffffffffffffffffffffffffffffffffff\n      and\n      dup2\n      mstore\n      0x20\n      add\n      swap1\n      dup2\n      mstore\n      0x20\n      add\n      0x00\n      keccak256\n        /* \"contracts/Voting.sol\":3162:3197  whitelistVoter[msg.sender].hasVoted */\n      0x00\n      add\n      0x01\n        /* \"contracts/Voting.sol\":3162:3204  whitelistVoter[msg.sender].hasVoted = true */\n      0x0100\n      exp\n      dup2\n      sload\n      dup2\n      0xff\n      mul\n      not\n      and\n      swap1\n      dup4\n      iszero\n      iszero\n      mul\n      or\n      swap1\n      sstore\n      pop\n        /* \"contracts/Voting.sol\":3259:3270  _proposalId */\n      dup2\n        /* \"contracts/Voting.sol\":3214:3228  whitelistVoter */\n      0x01\n        /* \"contracts/Voting.sol\":3214:3240  whitelistVoter[msg.sender] */\n      0x00\n        /* \"contracts/Voting.sol\":3229:3239  msg.sender */\n      caller\n        /* \"contracts/Voting.sol\":3214:3240  whitelistVoter[msg.sender] */\n      0xffffffffffffffffffffffffffffffffffffffff\n      and\n      0xffffffffffffffffffffffffffffffffffffffff\n      and\n      dup2\n      mstore\n      0x20\n      add\n      swap1\n      dup2\n      mstore\n      0x20\n      add\n      0x00\n      keccak256\n        /* \"contracts/Voting.sol\":3214:3256  whitelistVoter[msg.sender].votedProposalId */\n      0x01\n      add\n        /* \"contracts/Voting.sol\":3214:3270  whitelistVoter[msg.sender].votedProposalId = _proposalId */\n      dup2\n      swap1\n      sstore\n      pop\n        /* \"contracts/Voting.sol\":3280:3289  proposals */\n      0x02\n        /* \"contracts/Voting.sol\":3290:3301  _proposalId */\n      dup3\n        /* \"contracts/Voting.sol\":3280:3302  proposals[_proposalId] */\n      dup2\n      sload\n      dup2\n      lt\n      tag_127\n      jumpi\n      tag_128\n      tag_129\n      jump\t// in\n    tag_128:\n    tag_127:\n      swap1\n      0x00\n      mstore\n      keccak256(0x00, 0x20)\n      swap1\n      0x02\n      mul\n      add\n        /* \"contracts/Voting.sol\":3280:3312  proposals[_proposalId].voteCount */\n      0x01\n      add\n      0x00\n        /* \"contracts/Voting.sol\":3280:3314  proposals[_proposalId].voteCount++ */\n      dup2\n      sload\n      dup1\n      swap3\n      swap2\n      swap1\n      tag_131\n      swap1\n      tag_132\n      jump\t// in\n    tag_131:\n      swap2\n      swap1\n      pop\n      sstore\n      pop\n        /* \"contracts/Voting.sol\":3324:3338  voteCountTotal */\n      0x06\n      0x00\n        /* \"contracts/Voting.sol\":3324:3340  voteCountTotal++ */\n      dup2\n      sload\n      dup1\n      swap3\n      swap2\n      swap1\n      tag_133\n      swap1\n      tag_132\n      jump\t// in\n    tag_133:\n      swap2\n      swap1\n      pop\n      sstore\n      pop\n        /* \"contracts/Voting.sol\":3355:3385  Voted(msg.sender, _proposalId) */\n      0x4d99b957a2bc29a30ebd96a7be8e68fe50a3c701db28a91436490b7d53870ca4\n        /* \"contracts/Voting.sol\":3361:3371  msg.sender */\n      caller\n        /* \"contracts/Voting.sol\":3373:3384  _proposalId */\n      dup4\n        /* \"contracts/Voting.sol\":3355:3385  Voted(msg.sender, _proposalId) */\n      mload(0x40)\n      tag_134\n      swap3\n      swap2\n      swap1\n      tag_135\n      jump\t// in\n    tag_134:\n      mload(0x40)\n      dup1\n      swap2\n      sub\n      swap1\n      log1\n        /* \"contracts/Voting.sol\":2960:3392  function vote(uint _proposalId) external restrictOwnerToVote(_proposalId) {... */\n      pop\n      pop\n      jump\t// out\n        /* \"contracts/Voting.sol\":8658:8744  function getVoterCount() external view returns(uint){... */\n    tag_34:\n        /* \"contracts/Voting.sol\":8705:8709  uint */\n      0x00\n        /* \"contracts/Voting.sol\":8727:8737  voterCount */\n      sload(0x05)\n        /* \"contracts/Voting.sol\":8720:8737  return voterCount */\n      swap1\n      pop\n        /* \"contracts/Voting.sol\":8658:8744  function getVoterCount() external view returns(uint){... */\n      swap1\n      jump\t// out\n        /* \"contracts/Voting.sol\":1824:2261  function registerVoter(address _address) external onlyOwner {... */\n    tag_40:\n        /* \"@openzeppelin/contracts/access/Ownable.sol\":1531:1544  _checkOwner() */\n      tag_138\n        /* \"@openzeppelin/contracts/access/Ownable.sol\":1531:1542  _checkOwner */\n      tag_139\n        /* \"@openzeppelin/contracts/access/Ownable.sol\":1531:1544  _checkOwner() */\n      jump\t// in\n    tag_138:\n        /* \"contracts/Voting.sol\":1919:1951  WorkflowStatus.RegisteringVoters */\n      0x00\n        /* \"contracts/Voting.sol\":1902:1951  currentStatus == WorkflowStatus.RegisteringVoters */\n      0x05\n      dup2\n      gt\n      iszero\n      tag_141\n      jumpi\n      tag_142\n      tag_111\n      jump\t// in\n    tag_142:\n    tag_141:\n        /* \"contracts/Voting.sol\":1902:1915  currentStatus */\n      0x03\n      0x00\n      swap1\n      sload\n      swap1\n      0x0100\n      exp\n      swap1\n      div\n      0xff\n      and\n        /* \"contracts/Voting.sol\":1902:1951  currentStatus == WorkflowStatus.RegisteringVoters */\n      0x05\n      dup2\n      gt\n      iszero\n      tag_143\n      jumpi\n      tag_144\n      tag_111\n      jump\t// in\n    tag_144:\n    tag_143:\n      eq\n        /* \"contracts/Voting.sol\":1894:1996  require(currentStatus == WorkflowStatus.RegisteringVoters, \"You are not in voter registration period\") */\n      tag_145\n      jumpi\n      mload(0x40)\n      0x08c379a000000000000000000000000000000000000000000000000000000000\n      dup2\n      mstore\n      0x04\n      add\n      tag_146\n      swap1\n      tag_147\n      jump\t// in\n    tag_146:\n      mload(0x40)\n      dup1\n      swap2\n      sub\n      swap1\n      revert\n    tag_145:\n        /* \"contracts/Voting.sol\":2055:2060  false */\n      0x00\n        /* \"contracts/Voting.sol\":2014:2060  whitelistVoter[_address].isRegistered == false */\n      iszero\n      iszero\n        /* \"contracts/Voting.sol\":2014:2028  whitelistVoter */\n      0x01\n        /* \"contracts/Voting.sol\":2014:2038  whitelistVoter[_address] */\n      0x00\n        /* \"contracts/Voting.sol\":2029:2037  _address */\n      dup4\n        /* \"contracts/Voting.sol\":2014:2038  whitelistVoter[_address] */\n      0xffffffffffffffffffffffffffffffffffffffff\n      and\n      0xffffffffffffffffffffffffffffffffffffffff\n      and\n      dup2\n      mstore\n      0x20\n      add\n      swap1\n      dup2\n      mstore\n      0x20\n      add\n      0x00\n      keccak256\n        /* \"contracts/Voting.sol\":2014:2051  whitelistVoter[_address].isRegistered */\n      0x00\n      add\n      0x00\n      swap1\n      sload\n      swap1\n      0x0100\n      exp\n      swap1\n      div\n      0xff\n      and\n        /* \"contracts/Voting.sol\":2014:2060  whitelistVoter[_address].isRegistered == false */\n      iszero\n      iszero\n      eq\n        /* \"contracts/Voting.sol\":2006:2097  require(whitelistVoter[_address].isRegistered == false, \"You already have add this adress\") */\n      tag_148\n      jumpi\n      mload(0x40)\n      0x08c379a000000000000000000000000000000000000000000000000000000000\n      dup2\n      mstore\n      0x04\n      add\n      tag_149\n      swap1\n      tag_150\n      jump\t// in\n    tag_149:\n      mload(0x40)\n      dup1\n      swap2\n      sub\n      swap1\n      revert\n    tag_148:\n        /* \"contracts/Voting.sol\":2108:2126  Voter memory voter */\n      0x00\n        /* \"contracts/Voting.sol\":2129:2150  Voter(true, false, 0) */\n      mload(0x40)\n      dup1\n      0x60\n      add\n      0x40\n      mstore\n      dup1\n        /* \"contracts/Voting.sol\":2135:2139  true */\n      0x01\n        /* \"contracts/Voting.sol\":2129:2150  Voter(true, false, 0) */\n      iszero\n      iszero\n      dup2\n      mstore\n      0x20\n      add\n        /* \"contracts/Voting.sol\":2141:2146  false */\n      0x00\n        /* \"contracts/Voting.sol\":2129:2150  Voter(true, false, 0) */\n      iszero\n      iszero\n      dup2\n      mstore\n      0x20\n      add\n        /* \"contracts/Voting.sol\":2148:2149  0 */\n      0x00\n        /* \"contracts/Voting.sol\":2129:2150  Voter(true, false, 0) */\n      dup2\n      mstore\n      pop\n        /* \"contracts/Voting.sol\":2108:2150  Voter memory voter = Voter(true, false, 0) */\n      swap1\n      pop\n        /* \"contracts/Voting.sol\":2187:2192  voter */\n      dup1\n        /* \"contracts/Voting.sol\":2160:2174  whitelistVoter */\n      0x01\n        /* \"contracts/Voting.sol\":2160:2184  whitelistVoter[_address] */\n      0x00\n        /* \"contracts/Voting.sol\":2175:2183  _address */\n      dup5\n        /* \"contracts/Voting.sol\":2160:2184  whitelistVoter[_address] */\n      0xffffffffffffffffffffffffffffffffffffffff\n      and\n      0xffffffffffffffffffffffffffffffffffffffff\n      and\n      dup2\n      mstore\n      0x20\n      add\n      swap1\n      dup2\n      mstore\n      0x20\n      add\n      0x00\n      keccak256\n        /* \"contracts/Voting.sol\":2160:2192  whitelistVoter[_address] = voter */\n      0x00\n      dup3\n      add\n      mload\n      dup2\n      0x00\n      add\n      exp(0x0100, 0x00)\n      dup2\n      sload\n      dup2\n      0xff\n      mul\n      not\n      and\n      swap1\n      dup4\n      iszero\n      iszero\n      mul\n      or\n      swap1\n      sstore\n      pop\n      0x20\n      dup3\n      add\n      mload\n      dup2\n      0x00\n      add\n      exp(0x0100, 0x01)\n      dup2\n      sload\n      dup2\n      0xff\n      mul\n      not\n      and\n      swap1\n      dup4\n      iszero\n      iszero\n      mul\n      or\n      swap1\n      sstore\n      pop\n      0x40\n      dup3\n      add\n      mload\n      dup2\n      0x01\n      add\n      sstore\n      swap1\n      pop\n      pop\n        /* \"contracts/Voting.sol\":2202:2212  voterCount */\n      0x05\n      0x00\n        /* \"contracts/Voting.sol\":2202:2214  voterCount++ */\n      dup2\n      sload\n      dup1\n      swap3\n      swap2\n      swap1\n      tag_151\n      swap1\n      tag_132\n      jump\t// in\n    tag_151:\n      swap2\n      swap1\n      pop\n      sstore\n      pop\n        /* \"contracts/Voting.sol\":2229:2254  VoterRegistered(_address) */\n      0xb6be2187d059cc2a55fe29e0e503b566e1e0f8c8780096e185429350acffd3dd\n        /* \"contracts/Voting.sol\":2245:2253  _address */\n      dup3\n        /* \"contracts/Voting.sol\":2229:2254  VoterRegistered(_address) */\n      mload(0x40)\n      tag_152\n      swap2\n      swap1\n      tag_70\n      jump\t// in\n    tag_152:\n      mload(0x40)\n      dup1\n      swap2\n      sub\n      swap1\n      log1\n        /* \"contracts/Voting.sol\":1884:2261  {... */\n      pop\n        /* \"contracts/Voting.sol\":1824:2261  function registerVoter(address _address) external onlyOwner {... */\n      pop\n      jump\t// out\n        /* \"contracts/Voting.sol\":7464:7711  function getWinner_proposaldescription() external view returns (string memory) {... */\n    tag_42:\n        /* \"contracts/Voting.sol\":7528:7541  string memory */\n      0x60\n        /* \"contracts/Voting.sol\":7579:7606  WorkflowStatus.VotesTallied */\n      0x05\n        /* \"contracts/Voting.sol\":7561:7606  currentStatus ==  WorkflowStatus.VotesTallied */\n      dup1\n      dup2\n      gt\n      iszero\n      tag_154\n      jumpi\n      tag_155\n      tag_111\n      jump\t// in\n    tag_155:\n    tag_154:\n        /* \"contracts/Voting.sol\":7561:7574  currentStatus */\n      0x03\n      0x00\n      swap1\n      sload\n      swap1\n      0x0100\n      exp\n      swap1\n      div\n      0xff\n      and\n        /* \"contracts/Voting.sol\":7561:7606  currentStatus ==  WorkflowStatus.VotesTallied */\n      0x05\n      dup2\n      gt\n      iszero\n      tag_156\n      jumpi\n      tag_157\n      tag_111\n      jump\t// in\n    tag_157:\n    tag_156:\n      eq\n        /* \"contracts/Voting.sol\":7553:7647  require(currentStatus ==  WorkflowStatus.VotesTallied, \"The winner have not been choosen yet\") */\n      tag_158\n      jumpi\n      mload(0x40)\n      0x08c379a000000000000000000000000000000000000000000000000000000000\n      dup2\n      mstore\n      0x04\n      add\n      tag_159\n      swap1\n      tag_160\n      jump\t// in\n    tag_159:\n      mload(0x40)\n      dup1\n      swap2\n      sub\n      swap1\n      revert\n    tag_158:\n        /* \"contracts/Voting.sol\":7664:7673  proposals */\n      0x02\n        /* \"contracts/Voting.sol\":7674:7691  winningProposalId */\n      sload(0x04)\n        /* \"contracts/Voting.sol\":7664:7692  proposals[winningProposalId] */\n      dup2\n      sload\n      dup2\n      lt\n      tag_161\n      jumpi\n      tag_162\n      tag_129\n      jump\t// in\n    tag_162:\n    tag_161:\n      swap1\n      0x00\n      mstore\n      keccak256(0x00, 0x20)\n      swap1\n      0x02\n      mul\n      add\n        /* \"contracts/Voting.sol\":7664:7704  proposals[winningProposalId].description */\n      0x00\n      add\n        /* \"contracts/Voting.sol\":7657:7704  return proposals[winningProposalId].description */\n      dup1\n      sload\n      tag_164\n      swap1\n      tag_165\n      jump\t// in\n    tag_164:\n      dup1\n      0x1f\n      add\n      0x20\n      dup1\n      swap2\n      div\n      mul\n      0x20\n      add\n      mload(0x40)\n      swap1\n      dup2\n      add\n      0x40\n      mstore\n      dup1\n      swap3\n      swap2\n      swap1\n      dup2\n      dup2\n      mstore\n      0x20\n      add\n      dup3\n      dup1\n      sload\n      tag_166\n      swap1\n      tag_165\n      jump\t// in\n    tag_166:\n      dup1\n      iszero\n      tag_167\n      jumpi\n      dup1\n      0x1f\n      lt\n      tag_168\n      jumpi\n      0x0100\n      dup1\n      dup4\n      sload\n      div\n      mul\n      dup4\n      mstore\n      swap2\n      0x20\n      add\n      swap2\n      jump(tag_167)\n    tag_168:\n      dup3\n      add\n      swap2\n      swap1\n      0x00\n      mstore\n      keccak256(0x00, 0x20)\n      swap1\n    tag_169:\n      dup2\n      sload\n      dup2\n      mstore\n      swap1\n      0x01\n      add\n      swap1\n      0x20\n      add\n      dup1\n      dup4\n      gt\n      tag_169\n      jumpi\n      dup3\n      swap1\n      sub\n      0x1f\n      and\n      dup3\n      add\n      swap2\n    tag_167:\n      pop\n      pop\n      pop\n      pop\n      pop\n      swap1\n      pop\n        /* \"contracts/Voting.sol\":7464:7711  function getWinner_proposaldescription() external view returns (string memory) {... */\n      swap1\n      jump\t// out\n        /* \"contracts/Voting.sol\":4139:4549  function startProposalSession() external onlyOwner {... */\n    tag_46:\n        /* \"@openzeppelin/contracts/access/Ownable.sol\":1531:1544  _checkOwner() */\n      tag_171\n        /* \"@openzeppelin/contracts/access/Ownable.sol\":1531:1542  _checkOwner */\n      tag_139\n        /* \"@openzeppelin/contracts/access/Ownable.sol\":1531:1544  _checkOwner() */\n      jump\t// in\n    tag_171:\n        /* \"contracts/Voting.sol\":4226:4258  WorkflowStatus.RegisteringVoters */\n      0x00\n        /* \"contracts/Voting.sol\":4208:4258  currentStatus ==  WorkflowStatus.RegisteringVoters */\n      0x05\n      dup2\n      gt\n      iszero\n      tag_173\n      jumpi\n      tag_174\n      tag_111\n      jump\t// in\n    tag_174:\n    tag_173:\n        /* \"contracts/Voting.sol\":4208:4221  currentStatus */\n      0x03\n      0x00\n      swap1\n      sload\n      swap1\n      0x0100\n      exp\n      swap1\n      div\n      0xff\n      and\n        /* \"contracts/Voting.sol\":4208:4258  currentStatus ==  WorkflowStatus.RegisteringVoters */\n      0x05\n      dup2\n      gt\n      iszero\n      tag_175\n      jumpi\n      tag_176\n      tag_111\n      jump\t// in\n    tag_176:\n    tag_175:\n      eq\n        /* \"contracts/Voting.sol\":4200:4307  require(currentStatus ==  WorkflowStatus.RegisteringVoters, \"You can not start again the proposal session\") */\n      tag_177\n      jumpi\n      mload(0x40)\n      0x08c379a000000000000000000000000000000000000000000000000000000000\n      dup2\n      mstore\n      0x04\n      add\n      tag_178\n      swap1\n      tag_179\n      jump\t// in\n    tag_178:\n      mload(0x40)\n      dup1\n      swap2\n      sub\n      swap1\n      revert\n    tag_177:\n        /* \"contracts/Voting.sol\":4338:4339  1 */\n      0x01\n        /* \"contracts/Voting.sol\":4325:4335  voterCount */\n      sload(0x05)\n        /* \"contracts/Voting.sol\":4325:4339  voterCount > 1 */\n      gt\n        /* \"contracts/Voting.sol\":4317:4382  require(voterCount > 1, \"You must register at least 2 addresses\") */\n      tag_180\n      jumpi\n      mload(0x40)\n      0x08c379a000000000000000000000000000000000000000000000000000000000\n      dup2\n      mstore\n      0x04\n      add\n      tag_181\n      swap1\n      tag_182\n      jump\t// in\n    tag_181:\n      mload(0x40)\n      dup1\n      swap2\n      sub\n      swap1\n      revert\n    tag_180:\n        /* \"contracts/Voting.sol\":4408:4451  WorkflowStatus.ProposalsRegistrationStarted */\n      0x01\n        /* \"contracts/Voting.sol\":4392:4405  currentStatus */\n      0x03\n      0x00\n        /* \"contracts/Voting.sol\":4392:4451  currentStatus = WorkflowStatus.ProposalsRegistrationStarted */\n      0x0100\n      exp\n      dup2\n      sload\n      dup2\n      0xff\n      mul\n      not\n      and\n      swap1\n      dup4\n      0x05\n      dup2\n      gt\n      iszero\n      tag_183\n      jumpi\n      tag_184\n      tag_111\n      jump\t// in\n    tag_184:\n    tag_183:\n      mul\n      or\n      swap1\n      sstore\n      pop\n        /* \"contracts/Voting.sol\":4466:4542  WorkflowStatusChange(WorkflowStatus(uint(currentStatus) - 1), currentStatus) */\n      0x0a97a4ee45751e2abf3e4fc8946939630b11b371ea8ae39ccdc3056e98f5cc3f\n        /* \"contracts/Voting.sol\":4524:4525  1 */\n      0x01\n        /* \"contracts/Voting.sol\":4507:4520  currentStatus */\n      0x03\n      0x00\n      swap1\n      sload\n      swap1\n      0x0100\n      exp\n      swap1\n      div\n      0xff\n      and\n        /* \"contracts/Voting.sol\":4502:4521  uint(currentStatus) */\n      0x05\n      dup2\n      gt\n      iszero\n      tag_185\n      jumpi\n      tag_186\n      tag_111\n      jump\t// in\n    tag_186:\n    tag_185:\n        /* \"contracts/Voting.sol\":4502:4525  uint(currentStatus) - 1 */\n      tag_187\n      swap2\n      swap1\n      tag_188\n      jump\t// in\n    tag_187:\n        /* \"contracts/Voting.sol\":4487:4526  WorkflowStatus(uint(currentStatus) - 1) */\n      0x05\n      dup2\n      gt\n      iszero\n      tag_189\n      jumpi\n      tag_190\n      tag_111\n      jump\t// in\n    tag_190:\n    tag_189:\n        /* \"contracts/Voting.sol\":4528:4541  currentStatus */\n      0x03\n      0x00\n      swap1\n      sload\n      swap1\n      0x0100\n      exp\n      swap1\n      div\n      0xff\n      and\n        /* \"contracts/Voting.sol\":4466:4542  WorkflowStatusChange(WorkflowStatus(uint(currentStatus) - 1), currentStatus) */\n      mload(0x40)\n      tag_191\n      swap3\n      swap2\n      swap1\n      tag_192\n      jump\t// in\n    tag_191:\n      mload(0x40)\n      dup1\n      swap2\n      sub\n      swap1\n      log1\n        /* \"contracts/Voting.sol\":4139:4549  function startProposalSession() external onlyOwner {... */\n      jump\t// out\n        /* \"contracts/Voting.sol\":7766:7971  function getWinnerProposalId() external view returns (uint) {... */\n    tag_48:\n        /* \"contracts/Voting.sol\":7820:7824  uint */\n      0x00\n        /* \"contracts/Voting.sol\":7862:7889  WorkflowStatus.VotesTallied */\n      0x05\n        /* \"contracts/Voting.sol\":7844:7889  currentStatus ==  WorkflowStatus.VotesTallied */\n      dup1\n      dup2\n      gt\n      iszero\n      tag_194\n      jumpi\n      tag_195\n      tag_111\n      jump\t// in\n    tag_195:\n    tag_194:\n        /* \"contracts/Voting.sol\":7844:7857  currentStatus */\n      0x03\n      0x00\n      swap1\n      sload\n      swap1\n      0x0100\n      exp\n      swap1\n      div\n      0xff\n      and\n        /* \"contracts/Voting.sol\":7844:7889  currentStatus ==  WorkflowStatus.VotesTallied */\n      0x05\n      dup2\n      gt\n      iszero\n      tag_196\n      jumpi\n      tag_197\n      tag_111\n      jump\t// in\n    tag_197:\n    tag_196:\n      eq\n        /* \"contracts/Voting.sol\":7836:7930  require(currentStatus ==  WorkflowStatus.VotesTallied, \"The winner have not been choosen yet\") */\n      tag_198\n      jumpi\n      mload(0x40)\n      0x08c379a000000000000000000000000000000000000000000000000000000000\n      dup2\n      mstore\n      0x04\n      add\n      tag_199\n      swap1\n      tag_160\n      jump\t// in\n    tag_199:\n      mload(0x40)\n      dup1\n      swap2\n      sub\n      swap1\n      revert\n    tag_198:\n        /* \"contracts/Voting.sol\":7947:7964  winningProposalId */\n      sload(0x04)\n        /* \"contracts/Voting.sol\":7940:7964  return winningProposalId */\n      swap1\n      pop\n        /* \"contracts/Voting.sol\":7766:7971  function getWinnerProposalId() external view returns (uint) {... */\n      swap1\n      jump\t// out\n        /* \"contracts/Voting.sol\":8512:8609  function getProposals() external view returns(Proposal[] memory){... */\n    tag_51:\n        /* \"contracts/Voting.sol\":8558:8575  Proposal[] memory */\n      0x60\n        /* \"contracts/Voting.sol\":8593:8602  proposals */\n      0x02\n        /* \"contracts/Voting.sol\":8586:8602  return proposals */\n      dup1\n      sload\n      dup1\n      0x20\n      mul\n      0x20\n      add\n      mload(0x40)\n      swap1\n      dup2\n      add\n      0x40\n      mstore\n      dup1\n      swap3\n      swap2\n      swap1\n      dup2\n      dup2\n      mstore\n      0x20\n      add\n      0x00\n      swap1\n    tag_201:\n      dup3\n      dup3\n      lt\n      iszero\n      tag_202\n      jumpi\n      dup4\n      dup3\n      swap1\n      0x00\n      mstore\n      keccak256(0x00, 0x20)\n      swap1\n      0x02\n      mul\n      add\n      mload(0x40)\n      dup1\n      0x40\n      add\n      0x40\n      mstore\n      swap1\n      dup2\n      0x00\n      dup3\n      add\n      dup1\n      sload\n      tag_204\n      swap1\n      tag_165\n      jump\t// in\n    tag_204:\n      dup1\n      0x1f\n      add\n      0x20\n      dup1\n      swap2\n      div\n      mul\n      0x20\n      add\n      mload(0x40)\n      swap1\n      dup2\n      add\n      0x40\n      mstore\n      dup1\n      swap3\n      swap2\n      swap1\n      dup2\n      dup2\n      mstore\n      0x20\n      add\n      dup3\n      dup1\n      sload\n      tag_205\n      swap1\n      tag_165\n      jump\t// in\n    tag_205:\n      dup1\n      iszero\n      tag_206\n      jumpi\n      dup1\n      0x1f\n      lt\n      tag_207\n      jumpi\n      0x0100\n      dup1\n      dup4\n      sload\n      div\n      mul\n      dup4\n      mstore\n      swap2\n      0x20\n      add\n      swap2\n      jump(tag_206)\n    tag_207:\n      dup3\n      add\n      swap2\n      swap1\n      0x00\n      mstore\n      keccak256(0x00, 0x20)\n      swap1\n    tag_208:\n      dup2\n      sload\n      dup2\n      mstore\n      swap1\n      0x01\n      add\n      swap1\n      0x20\n      add\n      dup1\n      dup4\n      gt\n      tag_208\n      jumpi\n      dup3\n      swap1\n      sub\n      0x1f\n      and\n      dup3\n      add\n      swap2\n    tag_206:\n      pop\n      pop\n      pop\n      pop\n      pop\n      dup2\n      mstore\n      0x20\n      add\n      0x01\n      dup3\n      add\n      sload\n      dup2\n      mstore\n      pop\n      pop\n      dup2\n      mstore\n      0x20\n      add\n      swap1\n      0x01\n      add\n      swap1\n      jump(tag_201)\n    tag_202:\n      pop\n      pop\n      pop\n      pop\n      swap1\n      pop\n        /* \"contracts/Voting.sol\":8512:8609  function getProposals() external view returns(Proposal[] memory){... */\n      swap1\n      jump\t// out\n        /* \"contracts/Voting.sol\":8195:8326  function getPreviousStatus() external view returns (WorkflowStatus) {... */\n    tag_55:\n        /* \"contracts/Voting.sol\":8247:8261  WorkflowStatus */\n      0x00\n        /* \"contracts/Voting.sol\":8317:8318  1 */\n      0x01\n        /* \"contracts/Voting.sol\":8300:8313  currentStatus */\n      0x03\n      0x00\n      swap1\n      sload\n      swap1\n      0x0100\n      exp\n      swap1\n      div\n      0xff\n      and\n        /* \"contracts/Voting.sol\":8295:8314  uint(currentStatus) */\n      0x05\n      dup2\n      gt\n      iszero\n      tag_210\n      jumpi\n      tag_211\n      tag_111\n      jump\t// in\n    tag_211:\n    tag_210:\n        /* \"contracts/Voting.sol\":8295:8318  uint(currentStatus) - 1 */\n      tag_212\n      swap2\n      swap1\n      tag_188\n      jump\t// in\n    tag_212:\n        /* \"contracts/Voting.sol\":8280:8319  WorkflowStatus(uint(currentStatus) - 1) */\n      0x05\n      dup2\n      gt\n      iszero\n      tag_213\n      jumpi\n      tag_214\n      tag_111\n      jump\t// in\n    tag_214:\n    tag_213:\n        /* \"contracts/Voting.sol\":8273:8319  return WorkflowStatus(uint(currentStatus) - 1) */\n      swap1\n      pop\n        /* \"contracts/Voting.sol\":8195:8326  function getPreviousStatus() external view returns (WorkflowStatus) {... */\n      swap1\n      jump\t// out\n        /* \"contracts/Voting.sol\":5810:6191  function talliedVotes() external onlyOwner {... */\n    tag_59:\n        /* \"@openzeppelin/contracts/access/Ownable.sol\":1531:1544  _checkOwner() */\n      tag_216\n        /* \"@openzeppelin/contracts/access/Ownable.sol\":1531:1542  _checkOwner */\n      tag_139\n        /* \"@openzeppelin/contracts/access/Ownable.sol\":1531:1544  _checkOwner() */\n      jump\t// in\n    tag_216:\n        /* \"contracts/Voting.sol\":5889:5922  WorkflowStatus.VotingSessionEnded */\n      0x04\n        /* \"contracts/Voting.sol\":5871:5922  currentStatus ==  WorkflowStatus.VotingSessionEnded */\n      0x05\n      dup2\n      gt\n      iszero\n      tag_218\n      jumpi\n      tag_219\n      tag_111\n      jump\t// in\n    tag_219:\n    tag_218:\n        /* \"contracts/Voting.sol\":5871:5884  currentStatus */\n      0x03\n      0x00\n      swap1\n      sload\n      swap1\n      0x0100\n      exp\n      swap1\n      div\n      0xff\n      and\n        /* \"contracts/Voting.sol\":5871:5922  currentStatus ==  WorkflowStatus.VotingSessionEnded */\n      0x05\n      dup2\n      gt\n      iszero\n      tag_220\n      jumpi\n      tag_221\n      tag_111\n      jump\t// in\n    tag_221:\n    tag_220:\n      eq\n        /* \"contracts/Voting.sol\":5863:5956  require(currentStatus ==  WorkflowStatus.VotingSessionEnded, \"The vote session is not ended\") */\n      tag_222\n      jumpi\n      mload(0x40)\n      0x08c379a000000000000000000000000000000000000000000000000000000000\n      dup2\n      mstore\n      0x04\n      add\n      tag_223\n      swap1\n      tag_224\n      jump\t// in\n    tag_223:\n      mload(0x40)\n      dup1\n      swap2\n      sub\n      swap1\n      revert\n    tag_222:\n        /* \"contracts/Voting.sol\":5989:5990  1 */\n      0x01\n        /* \"contracts/Voting.sol\":5974:5985  winnerCount */\n      sload(0x08)\n        /* \"contracts/Voting.sol\":5974:5990  winnerCount == 1 */\n      eq\n        /* \"contracts/Voting.sol\":5966:6040  require(winnerCount == 1, \"There is more than 1 winner, you have to vote\") */\n      tag_225\n      jumpi\n      mload(0x40)\n      0x08c379a000000000000000000000000000000000000000000000000000000000\n      dup2\n      mstore\n      0x04\n      add\n      tag_226\n      swap1\n      tag_227\n      jump\t// in\n    tag_226:\n      mload(0x40)\n      dup1\n      swap2\n      sub\n      swap1\n      revert\n    tag_225:\n        /* \"contracts/Voting.sol\":6066:6093  WorkflowStatus.VotesTallied */\n      0x05\n        /* \"contracts/Voting.sol\":6050:6063  currentStatus */\n      0x03\n      0x00\n        /* \"contracts/Voting.sol\":6050:6093  currentStatus = WorkflowStatus.VotesTallied */\n      0x0100\n      exp\n      dup2\n      sload\n      dup2\n      0xff\n      mul\n      not\n      and\n      swap1\n      dup4\n      0x05\n      dup2\n      gt\n      iszero\n      tag_228\n      jumpi\n      tag_229\n      tag_111\n      jump\t// in\n    tag_229:\n    tag_228:\n      mul\n      or\n      swap1\n      sstore\n      pop\n        /* \"contracts/Voting.sol\":6108:6184  WorkflowStatusChange(WorkflowStatus(uint(currentStatus) - 1), currentStatus) */\n      0x0a97a4ee45751e2abf3e4fc8946939630b11b371ea8ae39ccdc3056e98f5cc3f\n        /* \"contracts/Voting.sol\":6166:6167  1 */\n      0x01\n        /* \"contracts/Voting.sol\":6149:6162  currentStatus */\n      0x03\n      0x00\n      swap1\n      sload\n      swap1\n      0x0100\n      exp\n      swap1\n      div\n      0xff\n      and\n        /* \"contracts/Voting.sol\":6144:6163  uint(currentStatus) */\n      0x05\n      dup2\n      gt\n      iszero\n      tag_230\n      jumpi\n      tag_231\n      tag_111\n      jump\t// in\n    tag_231:\n    tag_230:\n        /* \"contracts/Voting.sol\":6144:6167  uint(currentStatus) - 1 */\n      tag_232\n      swap2\n      swap1\n      tag_188\n      jump\t// in\n    tag_232:\n        /* \"contracts/Voting.sol\":6129:6168  WorkflowStatus(uint(currentStatus) - 1) */\n      0x05\n      dup2\n      gt\n      iszero\n      tag_233\n      jumpi\n      tag_234\n      tag_111\n      jump\t// in\n    tag_234:\n    tag_233:\n        /* \"contracts/Voting.sol\":6170:6183  currentStatus */\n      0x03\n      0x00\n      swap1\n      sload\n      swap1\n      0x0100\n      exp\n      swap1\n      div\n      0xff\n      and\n        /* \"contracts/Voting.sol\":6108:6184  WorkflowStatusChange(WorkflowStatus(uint(currentStatus) - 1), currentStatus) */\n      mload(0x40)\n      tag_235\n      swap3\n      swap2\n      swap1\n      tag_192\n      jump\t// in\n    tag_235:\n      mload(0x40)\n      dup1\n      swap2\n      sub\n      swap1\n      log1\n        /* \"contracts/Voting.sol\":5810:6191  function talliedVotes() external onlyOwner {... */\n      jump\t// out\n        /* \"@openzeppelin/contracts/access/Ownable.sol\":2293:2394  function renounceOwnership() public virtual onlyOwner {... */\n    tag_61:\n        /* \"@openzeppelin/contracts/access/Ownable.sol\":1531:1544  _checkOwner() */\n      tag_237\n        /* \"@openzeppelin/contracts/access/Ownable.sol\":1531:1542  _checkOwner */\n      tag_139\n        /* \"@openzeppelin/contracts/access/Ownable.sol\":1531:1544  _checkOwner() */\n      jump\t// in\n    tag_237:\n        /* \"@openzeppelin/contracts/access/Ownable.sol\":2357:2387  _transferOwnership(address(0)) */\n      tag_239\n        /* \"@openzeppelin/contracts/access/Ownable.sol\":2384:2385  0 */\n      0x00\n        /* \"@openzeppelin/contracts/access/Ownable.sol\":2357:2375  _transferOwnership */\n      tag_240\n        /* \"@openzeppelin/contracts/access/Ownable.sol\":2357:2387  _transferOwnership(address(0)) */\n      jump\t// in\n    tag_239:\n        /* \"@openzeppelin/contracts/access/Ownable.sol\":2293:2394  function renounceOwnership() public virtual onlyOwner {... */\n      jump\t// out\n        /* \"contracts/Voting.sol\":6327:6789  function getVoteByAddress(address _address) external view returns(Proposal memory){... */\n    tag_64:\n        /* \"contracts/Voting.sol\":6393:6408  Proposal memory */\n      tag_241\n      tag_242\n      jump\t// in\n    tag_241:\n        /* \"contracts/Voting.sol\":6536:6540  true */\n      0x01\n        /* \"contracts/Voting.sol\":6495:6540  whitelistVoter[_address].isRegistered == true */\n      iszero\n      iszero\n        /* \"contracts/Voting.sol\":6495:6509  whitelistVoter */\n      0x01\n        /* \"contracts/Voting.sol\":6495:6519  whitelistVoter[_address] */\n      0x00\n        /* \"contracts/Voting.sol\":6510:6518  _address */\n      dup5\n        /* \"contracts/Voting.sol\":6495:6519  whitelistVoter[_address] */\n      0xffffffffffffffffffffffffffffffffffffffff\n      and\n      0xffffffffffffffffffffffffffffffffffffffff\n      and\n      dup2\n      mstore\n      0x20\n      add\n      swap1\n      dup2\n      mstore\n      0x20\n      add\n      0x00\n      keccak256\n        /* \"contracts/Voting.sol\":6495:6532  whitelistVoter[_address].isRegistered */\n      0x00\n      add\n      0x00\n      swap1\n      sload\n      swap1\n      0x0100\n      exp\n      swap1\n      div\n      0xff\n      and\n        /* \"contracts/Voting.sol\":6495:6540  whitelistVoter[_address].isRegistered == true */\n      iszero\n      iszero\n      eq\n        /* \"contracts/Voting.sol\":6487:6575  require(whitelistVoter[_address].isRegistered == true, \"This address is not registered\") */\n      tag_244\n      jumpi\n      mload(0x40)\n      0x08c379a000000000000000000000000000000000000000000000000000000000\n      dup2\n      mstore\n      0x04\n      add\n      tag_245\n      swap1\n      tag_246\n      jump\t// in\n    tag_245:\n      mload(0x40)\n      dup1\n      swap2\n      sub\n      swap1\n      revert\n    tag_244:\n        /* \"contracts/Voting.sol\":6630:6634  true */\n      0x01\n        /* \"contracts/Voting.sol\":6593:6634  whitelistVoter[_address].hasVoted == true */\n      iszero\n      iszero\n        /* \"contracts/Voting.sol\":6593:6607  whitelistVoter */\n      0x01\n        /* \"contracts/Voting.sol\":6593:6617  whitelistVoter[_address] */\n      0x00\n        /* \"contracts/Voting.sol\":6608:6616  _address */\n      dup5\n        /* \"contracts/Voting.sol\":6593:6617  whitelistVoter[_address] */\n      0xffffffffffffffffffffffffffffffffffffffff\n      and\n      0xffffffffffffffffffffffffffffffffffffffff\n      and\n      dup2\n      mstore\n      0x20\n      add\n      swap1\n      dup2\n      mstore\n      0x20\n      add\n      0x00\n      keccak256\n        /* \"contracts/Voting.sol\":6593:6626  whitelistVoter[_address].hasVoted */\n      0x00\n      add\n      0x01\n      swap1\n      sload\n      swap1\n      0x0100\n      exp\n      swap1\n      div\n      0xff\n      and\n        /* \"contracts/Voting.sol\":6593:6634  whitelistVoter[_address].hasVoted == true */\n      iszero\n      iszero\n      eq\n        /* \"contracts/Voting.sol\":6585:6665  require(whitelistVoter[_address].hasVoted == true, \"This address has not voted\") */\n      tag_247\n      jumpi\n      mload(0x40)\n      0x08c379a000000000000000000000000000000000000000000000000000000000\n      dup2\n      mstore\n      0x04\n      add\n      tag_248\n      swap1\n      tag_249\n      jump\t// in\n    tag_248:\n      mload(0x40)\n      dup1\n      swap2\n      sub\n      swap1\n      revert\n    tag_247:\n        /* \"contracts/Voting.sol\":6676:6696  uint votedProposalId */\n      0x00\n        /* \"contracts/Voting.sol\":6699:6713  whitelistVoter */\n      0x01\n        /* \"contracts/Voting.sol\":6699:6723  whitelistVoter[_address] */\n      0x00\n        /* \"contracts/Voting.sol\":6714:6722  _address */\n      dup5\n        /* \"contracts/Voting.sol\":6699:6723  whitelistVoter[_address] */\n      0xffffffffffffffffffffffffffffffffffffffff\n      and\n      0xffffffffffffffffffffffffffffffffffffffff\n      and\n      dup2\n      mstore\n      0x20\n      add\n      swap1\n      dup2\n      mstore\n      0x20\n      add\n      0x00\n      keccak256\n        /* \"contracts/Voting.sol\":6699:6739  whitelistVoter[_address].votedProposalId */\n      0x01\n      add\n      sload\n        /* \"contracts/Voting.sol\":6676:6739  uint votedProposalId = whitelistVoter[_address].votedProposalId */\n      swap1\n      pop\n        /* \"contracts/Voting.sol\":6756:6765  proposals */\n      0x02\n        /* \"contracts/Voting.sol\":6766:6781  votedProposalId */\n      dup2\n        /* \"contracts/Voting.sol\":6756:6782  proposals[votedProposalId] */\n      dup2\n      sload\n      dup2\n      lt\n      tag_250\n      jumpi\n      tag_251\n      tag_129\n      jump\t// in\n    tag_251:\n    tag_250:\n      swap1\n      0x00\n      mstore\n      keccak256(0x00, 0x20)\n      swap1\n      0x02\n      mul\n      add\n        /* \"contracts/Voting.sol\":6749:6782  return proposals[votedProposalId] */\n      mload(0x40)\n      dup1\n      0x40\n      add\n      0x40\n      mstore\n      swap1\n      dup2\n      0x00\n      dup3\n      add\n      dup1\n      sload\n      tag_253\n      swap1\n      tag_165\n      jump\t// in\n    tag_253:\n      dup1\n      0x1f\n      add\n      0x20\n      dup1\n      swap2\n      div\n      mul\n      0x20\n      add\n      mload(0x40)\n      swap1\n      dup2\n      add\n      0x40\n      mstore\n      dup1\n      swap3\n      swap2\n      swap1\n      dup2\n      dup2\n      mstore\n      0x20\n      add\n      dup3\n      dup1\n      sload\n      tag_254\n      swap1\n      tag_165\n      jump\t// in\n    tag_254:\n      dup1\n      iszero\n      tag_255\n      jumpi\n      dup1\n      0x1f\n      lt\n      tag_256\n      jumpi\n      0x0100\n      dup1\n      dup4\n      sload\n      div\n      mul\n      dup4\n      mstore\n      swap2\n      0x20\n      add\n      swap2\n      jump(tag_255)\n    tag_256:\n      dup3\n      add\n      swap2\n      swap1\n      0x00\n      mstore\n      keccak256(0x00, 0x20)\n      swap1\n    tag_257:\n      dup2\n      sload\n      dup2\n      mstore\n      swap1\n      0x01\n      add\n      swap1\n      0x20\n      add\n      dup1\n      dup4\n      gt\n      tag_257\n      jumpi\n      dup3\n      swap1\n      sub\n      0x1f\n      and\n      dup3\n      add\n      swap2\n    tag_255:\n      pop\n      pop\n      pop\n      pop\n      pop\n      dup2\n      mstore\n      0x20\n      add\n      0x01\n      dup3\n      add\n      sload\n      dup2\n      mstore\n      pop\n      pop\n      swap2\n      pop\n      pop\n        /* \"contracts/Voting.sol\":6327:6789  function getVoteByAddress(address _address) external view returns(Proposal memory){... */\n      swap2\n      swap1\n      pop\n      jump\t// out\n        /* \"@openzeppelin/contracts/access/Ownable.sol\":1638:1723  function owner() public view virtual returns (address) {... */\n    tag_68:\n        /* \"@openzeppelin/contracts/access/Ownable.sol\":1684:1691  address */\n      0x00\n        /* \"@openzeppelin/contracts/access/Ownable.sol\":1710:1716  _owner */\n      0x00\n      0x00\n      swap1\n      sload\n      swap1\n      0x0100\n      exp\n      swap1\n      div\n      0xffffffffffffffffffffffffffffffffffffffff\n      and\n        /* \"@openzeppelin/contracts/access/Ownable.sol\":1703:1716  return _owner */\n      swap1\n      pop\n        /* \"@openzeppelin/contracts/access/Ownable.sol\":1638:1723  function owner() public view virtual returns (address) {... */\n      swap1\n      jump\t// out\n        /* \"contracts/Voting.sol\":9092:9188  function getVoteWinnerCount() external view returns(uint){... */\n    tag_72:\n        /* \"contracts/Voting.sol\":9144:9148  uint */\n      0x00\n        /* \"contracts/Voting.sol\":9166:9181  voteWinnerCount */\n      sload(0x09)\n        /* \"contracts/Voting.sol\":9159:9181  return voteWinnerCount */\n      swap1\n      pop\n        /* \"contracts/Voting.sol\":9092:9188  function getVoteWinnerCount() external view returns(uint){... */\n      swap1\n      jump\t// out\n        /* \"contracts/Voting.sol\":7174:7399  function getWinnerProposal() external view returns (Proposal memory) {... */\n    tag_75:\n        /* \"contracts/Voting.sol\":7226:7241  Proposal memory */\n      tag_260\n      tag_242\n      jump\t// in\n    tag_260:\n        /* \"contracts/Voting.sol\":7279:7306  WorkflowStatus.VotesTallied */\n      0x05\n        /* \"contracts/Voting.sol\":7261:7306  currentStatus ==  WorkflowStatus.VotesTallied */\n      dup1\n      dup2\n      gt\n      iszero\n      tag_262\n      jumpi\n      tag_263\n      tag_111\n      jump\t// in\n    tag_263:\n    tag_262:\n        /* \"contracts/Voting.sol\":7261:7274  currentStatus */\n      0x03\n      0x00\n      swap1\n      sload\n      swap1\n      0x0100\n      exp\n      swap1\n      div\n      0xff\n      and\n        /* \"contracts/Voting.sol\":7261:7306  currentStatus ==  WorkflowStatus.VotesTallied */\n      0x05\n      dup2\n      gt\n      iszero\n      tag_264\n      jumpi\n      tag_265\n      tag_111\n      jump\t// in\n    tag_265:\n    tag_264:\n      eq\n        /* \"contracts/Voting.sol\":7253:7347  require(currentStatus ==  WorkflowStatus.VotesTallied, \"The winner have not been choosen yet\") */\n      tag_266\n      jumpi\n      mload(0x40)\n      0x08c379a000000000000000000000000000000000000000000000000000000000\n      dup2\n      mstore\n      0x04\n      add\n      tag_267\n      swap1\n      tag_160\n      jump\t// in\n    tag_267:\n      mload(0x40)\n      dup1\n      swap2\n      sub\n      swap1\n      revert\n    tag_266:\n        /* \"contracts/Voting.sol\":7364:7373  proposals */\n      0x02\n        /* \"contracts/Voting.sol\":7374:7391  winningProposalId */\n      sload(0x04)\n        /* \"contracts/Voting.sol\":7364:7392  proposals[winningProposalId] */\n      dup2\n      sload\n      dup2\n      lt\n      tag_268\n      jumpi\n      tag_269\n      tag_129\n      jump\t// in\n    tag_269:\n    tag_268:\n      swap1\n      0x00\n      mstore\n      keccak256(0x00, 0x20)\n      swap1\n      0x02\n      mul\n      add\n        /* \"contracts/Voting.sol\":7357:7392  return proposals[winningProposalId] */\n      mload(0x40)\n      dup1\n      0x40\n      add\n      0x40\n      mstore\n      swap1\n      dup2\n      0x00\n      dup3\n      add\n      dup1\n      sload\n      tag_271\n      swap1\n      tag_165\n      jump\t// in\n    tag_271:\n      dup1\n      0x1f\n      add\n      0x20\n      dup1\n      swap2\n      div\n      mul\n      0x20\n      add\n      mload(0x40)\n      swap1\n      dup2\n      add\n      0x40\n      mstore\n      dup1\n      swap3\n      swap2\n      swap1\n      dup2\n      dup2\n      mstore\n      0x20\n      add\n      dup3\n      dup1\n      sload\n      tag_272\n      swap1\n      tag_165\n      jump\t// in\n    tag_272:\n      dup1\n      iszero\n      tag_273\n      jumpi\n      dup1\n      0x1f\n      lt\n      tag_274\n      jumpi\n      0x0100\n      dup1\n      dup4\n      sload\n      div\n      mul\n      dup4\n      mstore\n      swap2\n      0x20\n      add\n      swap2\n      jump(tag_273)\n    tag_274:\n      dup3\n      add\n      swap2\n      swap1\n      0x00\n      mstore\n      keccak256(0x00, 0x20)\n      swap1\n    tag_275:\n      dup2\n      sload\n      dup2\n      mstore\n      swap1\n      0x01\n      add\n      swap1\n      0x20\n      add\n      dup1\n      dup4\n      gt\n      tag_275\n      jumpi\n      dup3\n      swap1\n      sub\n      0x1f\n      and\n      dup3\n      add\n      swap2\n    tag_273:\n      pop\n      pop\n      pop\n      pop\n      pop\n      dup2\n      mstore\n      0x20\n      add\n      0x01\n      dup3\n      add\n      sload\n      dup2\n      mstore\n      pop\n      pop\n      swap1\n      pop\n        /* \"contracts/Voting.sol\":7174:7399  function getWinnerProposal() external view returns (Proposal memory) {... */\n      swap1\n      jump\t// out\n        /* \"contracts/Voting.sol\":8024:8128  function getCurrentStatus() external view returns (WorkflowStatus) {... */\n    tag_78:\n        /* \"contracts/Voting.sol\":8075:8089  WorkflowStatus */\n      0x00\n        /* \"contracts/Voting.sol\":8108:8121  currentStatus */\n      0x03\n      0x00\n      swap1\n      sload\n      swap1\n      0x0100\n      exp\n      swap1\n      div\n      0xff\n      and\n        /* \"contracts/Voting.sol\":8101:8121  return currentStatus */\n      swap1\n      pop\n        /* \"contracts/Voting.sol\":8024:8128  function getCurrentStatus() external view returns (WorkflowStatus) {... */\n      swap1\n      jump\t// out\n        /* \"contracts/Voting.sol\":8937:9025  function getWinnerCount() external view returns(uint){... */\n    tag_81:\n        /* \"contracts/Voting.sol\":8985:8989  uint */\n      0x00\n        /* \"contracts/Voting.sol\":9007:9018  winnerCount */\n      sload(0x08)\n        /* \"contracts/Voting.sol\":9000:9018  return winnerCount */\n      swap1\n      pop\n        /* \"contracts/Voting.sol\":8937:9025  function getWinnerCount() external view returns(uint){... */\n      swap1\n      jump\t// out\n        /* \"contracts/Voting.sol\":2394:2954  function propose(string memory _proposal) external {... */\n    tag_86:\n        /* \"contracts/Voting.sol\":2480:2523  WorkflowStatus.ProposalsRegistrationStarted */\n      0x01\n        /* \"contracts/Voting.sol\":2463:2523  currentStatus == WorkflowStatus.ProposalsRegistrationStarted */\n      0x05\n      dup2\n      gt\n      iszero\n      tag_279\n      jumpi\n      tag_280\n      tag_111\n      jump\t// in\n    tag_280:\n    tag_279:\n        /* \"contracts/Voting.sol\":2463:2476  currentStatus */\n      0x03\n      0x00\n      swap1\n      sload\n      swap1\n      0x0100\n      exp\n      swap1\n      div\n      0xff\n      and\n        /* \"contracts/Voting.sol\":2463:2523  currentStatus == WorkflowStatus.ProposalsRegistrationStarted */\n      0x05\n      dup2\n      gt\n      iszero\n      tag_281\n      jumpi\n      tag_282\n      tag_111\n      jump\t// in\n    tag_282:\n    tag_281:\n      eq\n        /* \"contracts/Voting.sol\":2455:2563  require(currentStatus == WorkflowStatus.ProposalsRegistrationStarted, \"The proposal session is not started\") */\n      tag_283\n      jumpi\n      mload(0x40)\n      0x08c379a000000000000000000000000000000000000000000000000000000000\n      dup2\n      mstore\n      0x04\n      add\n      tag_284\n      swap1\n      tag_285\n      jump\t// in\n    tag_284:\n      mload(0x40)\n      dup1\n      swap2\n      sub\n      swap1\n      revert\n    tag_283:\n        /* \"contracts/Voting.sol\":2593:2603  msg.sender */\n      caller\n        /* \"contracts/Voting.sol\":2582:2603  owner() != msg.sender */\n      0xffffffffffffffffffffffffffffffffffffffff\n      and\n        /* \"contracts/Voting.sol\":2582:2589  owner() */\n      tag_286\n        /* \"contracts/Voting.sol\":2582:2587  owner */\n      tag_68\n        /* \"contracts/Voting.sol\":2582:2589  owner() */\n      jump\t// in\n    tag_286:\n        /* \"contracts/Voting.sol\":2582:2603  owner() != msg.sender */\n      0xffffffffffffffffffffffffffffffffffffffff\n      and\n      sub\n        /* \"contracts/Voting.sol\":2574:2663  require(owner() != msg.sender, \"You are the owner of this contract, you can not propose\") */\n      tag_287\n      jumpi\n      mload(0x40)\n      0x08c379a000000000000000000000000000000000000000000000000000000000\n      dup2\n      mstore\n      0x04\n      add\n      tag_288\n      swap1\n      tag_289\n      jump\t// in\n    tag_288:\n      mload(0x40)\n      dup1\n      swap2\n      sub\n      swap1\n      revert\n    tag_287:\n        /* \"contracts/Voting.sol\":2724:2728  true */\n      0x01\n        /* \"contracts/Voting.sol\":2681:2728  whitelistVoter[msg.sender].isRegistered == true */\n      iszero\n      iszero\n        /* \"contracts/Voting.sol\":2681:2695  whitelistVoter */\n      0x01\n        /* \"contracts/Voting.sol\":2681:2707  whitelistVoter[msg.sender] */\n      0x00\n        /* \"contracts/Voting.sol\":2696:2706  msg.sender */\n      caller\n        /* \"contracts/Voting.sol\":2681:2707  whitelistVoter[msg.sender] */\n      0xffffffffffffffffffffffffffffffffffffffff\n      and\n      0xffffffffffffffffffffffffffffffffffffffff\n      and\n      dup2\n      mstore\n      0x20\n      add\n      swap1\n      dup2\n      mstore\n      0x20\n      add\n      0x00\n      keccak256\n        /* \"contracts/Voting.sol\":2681:2720  whitelistVoter[msg.sender].isRegistered */\n      0x00\n      add\n      0x00\n      swap1\n      sload\n      swap1\n      0x0100\n      exp\n      swap1\n      div\n      0xff\n      and\n        /* \"contracts/Voting.sol\":2681:2728  whitelistVoter[msg.sender].isRegistered == true */\n      iszero\n      iszero\n      eq\n        /* \"contracts/Voting.sol\":2673:2755  require(whitelistVoter[msg.sender].isRegistered == true, \"You are not registered\") */\n      tag_290\n      jumpi\n      mload(0x40)\n      0x08c379a000000000000000000000000000000000000000000000000000000000\n      dup2\n      mstore\n      0x04\n      add\n      tag_291\n      swap1\n      tag_119\n      jump\t// in\n    tag_291:\n      mload(0x40)\n      dup1\n      swap2\n      sub\n      swap1\n      revert\n    tag_290:\n        /* \"contracts/Voting.sol\":2766:2775  proposals */\n      0x02\n        /* \"contracts/Voting.sol\":2781:2871  Proposal({... */\n      mload(0x40)\n      dup1\n      0x40\n      add\n      0x40\n      mstore\n      dup1\n        /* \"contracts/Voting.sol\":2821:2830  _proposal */\n      dup4\n        /* \"contracts/Voting.sol\":2781:2871  Proposal({... */\n      dup2\n      mstore\n      0x20\n      add\n        /* \"contracts/Voting.sol\":2859:2860  0 */\n      0x00\n        /* \"contracts/Voting.sol\":2781:2871  Proposal({... */\n      dup2\n      mstore\n      pop\n        /* \"contracts/Voting.sol\":2766:2872  proposals.push(Proposal({... */\n      swap1\n      dup1\n      0x01\n      dup2\n      sload\n      add\n      dup1\n      dup3\n      sstore\n      dup1\n      swap2\n      pop\n      pop\n      0x01\n      swap1\n      sub\n      swap1\n      0x00\n      mstore\n      keccak256(0x00, 0x20)\n      swap1\n      0x02\n      mul\n      add\n      0x00\n      swap1\n      swap2\n      swap1\n      swap2\n      swap1\n      swap2\n      pop\n      0x00\n      dup3\n      add\n      mload\n      dup2\n      0x00\n      add\n      swap1\n      dup2\n      tag_293\n      swap2\n      swap1\n      tag_294\n      jump\t// in\n    tag_293:\n      pop\n      0x20\n      dup3\n      add\n      mload\n      dup2\n      0x01\n      add\n      sstore\n      pop\n      pop\n        /* \"contracts/Voting.sol\":2882:2896  numberProposal */\n      0x07\n      0x00\n        /* \"contracts/Voting.sol\":2882:2898  numberProposal++ */\n      dup2\n      sload\n      dup1\n      swap3\n      swap2\n      swap1\n      tag_295\n      swap1\n      tag_132\n      jump\t// in\n    tag_295:\n      swap2\n      swap1\n      pop\n      sstore\n      pop\n        /* \"contracts/Voting.sol\":2913:2947  ProposalRegistered(numberProposal) */\n      0x92e393e9b54e2f801d3ea4beb0c5e71a21cc34a5d34b77d0fb8a3aa1650dc18f\n        /* \"contracts/Voting.sol\":2932:2946  numberProposal */\n      sload(0x07)\n        /* \"contracts/Voting.sol\":2913:2947  ProposalRegistered(numberProposal) */\n      mload(0x40)\n      tag_296\n      swap2\n      swap1\n      tag_36\n      jump\t// in\n    tag_296:\n      mload(0x40)\n      dup1\n      swap2\n      sub\n      swap1\n      log1\n        /* \"contracts/Voting.sol\":2394:2954  function propose(string memory _proposal) external {... */\n      pop\n      jump\t// out\n        /* \"contracts/Voting.sol\":4998:5359  function startVoteSession() external onlyOwner {... */\n    tag_88:\n        /* \"@openzeppelin/contracts/access/Ownable.sol\":1531:1544  _checkOwner() */\n      tag_298\n        /* \"@openzeppelin/contracts/access/Ownable.sol\":1531:1542  _checkOwner */\n      tag_139\n        /* \"@openzeppelin/contracts/access/Ownable.sol\":1531:1544  _checkOwner() */\n      jump\t// in\n    tag_298:\n        /* \"contracts/Voting.sol\":5081:5122  WorkflowStatus.ProposalsRegistrationEnded */\n      0x02\n        /* \"contracts/Voting.sol\":5063:5122  currentStatus ==  WorkflowStatus.ProposalsRegistrationEnded */\n      0x05\n      dup2\n      gt\n      iszero\n      tag_300\n      jumpi\n      tag_301\n      tag_111\n      jump\t// in\n    tag_301:\n    tag_300:\n        /* \"contracts/Voting.sol\":5063:5076  currentStatus */\n      0x03\n      0x00\n      swap1\n      sload\n      swap1\n      0x0100\n      exp\n      swap1\n      div\n      0xff\n      and\n        /* \"contracts/Voting.sol\":5063:5122  currentStatus ==  WorkflowStatus.ProposalsRegistrationEnded */\n      0x05\n      dup2\n      gt\n      iszero\n      tag_302\n      jumpi\n      tag_303\n      tag_111\n      jump\t// in\n    tag_303:\n    tag_302:\n      eq\n        /* \"contracts/Voting.sol\":5055:5200  require(currentStatus ==  WorkflowStatus.ProposalsRegistrationEnded, \"The proposal session is not ended or the vote session has already started\") */\n      tag_304\n      jumpi\n      mload(0x40)\n      0x08c379a000000000000000000000000000000000000000000000000000000000\n      dup2\n      mstore\n      0x04\n      add\n      tag_305\n      swap1\n      tag_306\n      jump\t// in\n    tag_305:\n      mload(0x40)\n      dup1\n      swap2\n      sub\n      swap1\n      revert\n    tag_304:\n        /* \"contracts/Voting.sol\":5226:5261  WorkflowStatus.VotingSessionStarted */\n      0x03\n        /* \"contracts/Voting.sol\":5210:5223  currentStatus */\n      dup1\n      0x00\n        /* \"contracts/Voting.sol\":5210:5261  currentStatus = WorkflowStatus.VotingSessionStarted */\n      0x0100\n      exp\n      dup2\n      sload\n      dup2\n      0xff\n      mul\n      not\n      and\n      swap1\n      dup4\n      0x05\n      dup2\n      gt\n      iszero\n      tag_307\n      jumpi\n      tag_308\n      tag_111\n      jump\t// in\n    tag_308:\n    tag_307:\n      mul\n      or\n      swap1\n      sstore\n      pop\n        /* \"contracts/Voting.sol\":5276:5352  WorkflowStatusChange(WorkflowStatus(uint(currentStatus) - 1), currentStatus) */\n      0x0a97a4ee45751e2abf3e4fc8946939630b11b371ea8ae39ccdc3056e98f5cc3f\n        /* \"contracts/Voting.sol\":5334:5335  1 */\n      0x01\n        /* \"contracts/Voting.sol\":5317:5330  currentStatus */\n      0x03\n      0x00\n      swap1\n      sload\n      swap1\n      0x0100\n      exp\n      swap1\n      div\n      0xff\n      and\n        /* \"contracts/Voting.sol\":5312:5331  uint(currentStatus) */\n      0x05\n      dup2\n      gt\n      iszero\n      tag_309\n      jumpi\n      tag_310\n      tag_111\n      jump\t// in\n    tag_310:\n    tag_309:\n        /* \"contracts/Voting.sol\":5312:5335  uint(currentStatus) - 1 */\n      tag_311\n      swap2\n      swap1\n      tag_188\n      jump\t// in\n    tag_311:\n        /* \"contracts/Voting.sol\":5297:5336  WorkflowStatus(uint(currentStatus) - 1) */\n      0x05\n      dup2\n      gt\n      iszero\n      tag_312\n      jumpi\n      tag_313\n      tag_111\n      jump\t// in\n    tag_313:\n    tag_312:\n        /* \"contracts/Voting.sol\":5338:5351  currentStatus */\n      0x03\n      0x00\n      swap1\n      sload\n      swap1\n      0x0100\n      exp\n      swap1\n      div\n      0xff\n      and\n        /* \"contracts/Voting.sol\":5276:5352  WorkflowStatusChange(WorkflowStatus(uint(currentStatus) - 1), currentStatus) */\n      mload(0x40)\n      tag_314\n      swap3\n      swap2\n      swap1\n      tag_192\n      jump\t// in\n    tag_314:\n      mload(0x40)\n      dup1\n      swap2\n      sub\n      swap1\n      log1\n        /* \"contracts/Voting.sol\":4998:5359  function startVoteSession() external onlyOwner {... */\n      jump\t// out\n        /* \"contracts/Voting.sol\":8376:8471  function getProposalCount() external view returns(uint){... */\n    tag_90:\n        /* \"contracts/Voting.sol\":8426:8430  uint */\n      0x00\n        /* \"contracts/Voting.sol\":8448:8457  proposals */\n      0x02\n        /* \"contracts/Voting.sol\":8448:8464  proposals.length */\n      dup1\n      sload\n      swap1\n      pop\n        /* \"contracts/Voting.sol\":8441:8464  return proposals.length */\n      swap1\n      pop\n        /* \"contracts/Voting.sol\":8376:8471  function getProposalCount() external view returns(uint){... */\n      swap1\n      jump\t// out\n        /* \"contracts/Voting.sol\":4555:4991  function endProposalSession() external onlyOwner {... */\n    tag_93:\n        /* \"@openzeppelin/contracts/access/Ownable.sol\":1531:1544  _checkOwner() */\n      tag_317\n        /* \"@openzeppelin/contracts/access/Ownable.sol\":1531:1542  _checkOwner */\n      tag_139\n        /* \"@openzeppelin/contracts/access/Ownable.sol\":1531:1544  _checkOwner() */\n      jump\t// in\n    tag_317:\n        /* \"contracts/Voting.sol\":4640:4683  WorkflowStatus.ProposalsRegistrationStarted */\n      0x01\n        /* \"contracts/Voting.sol\":4622:4683  currentStatus ==  WorkflowStatus.ProposalsRegistrationStarted */\n      0x05\n      dup2\n      gt\n      iszero\n      tag_319\n      jumpi\n      tag_320\n      tag_111\n      jump\t// in\n    tag_320:\n    tag_319:\n        /* \"contracts/Voting.sol\":4622:4635  currentStatus */\n      0x03\n      0x00\n      swap1\n      sload\n      swap1\n      0x0100\n      exp\n      swap1\n      div\n      0xff\n      and\n        /* \"contracts/Voting.sol\":4622:4683  currentStatus ==  WorkflowStatus.ProposalsRegistrationStarted */\n      0x05\n      dup2\n      gt\n      iszero\n      tag_321\n      jumpi\n      tag_322\n      tag_111\n      jump\t// in\n    tag_322:\n    tag_321:\n      eq\n        /* \"contracts/Voting.sol\":4614:4750  require(currentStatus ==  WorkflowStatus.ProposalsRegistrationStarted, \"The proposal session has not started or has already been ended\") */\n      tag_323\n      jumpi\n      mload(0x40)\n      0x08c379a000000000000000000000000000000000000000000000000000000000\n      dup2\n      mstore\n      0x04\n      add\n      tag_324\n      swap1\n      tag_325\n      jump\t// in\n    tag_324:\n      mload(0x40)\n      dup1\n      swap2\n      sub\n      swap1\n      revert\n    tag_323:\n        /* \"contracts/Voting.sol\":4787:4788  0 */\n      0x00\n        /* \"contracts/Voting.sol\":4768:4777  proposals */\n      0x02\n        /* \"contracts/Voting.sol\":4768:4784  proposals.length */\n      dup1\n      sload\n      swap1\n      pop\n        /* \"contracts/Voting.sol\":4768:4788  proposals.length > 0 */\n      gt\n        /* \"contracts/Voting.sol\":4760:4826  require(proposals.length > 0, \"There are no proposals registered\") */\n      tag_326\n      jumpi\n      mload(0x40)\n      0x08c379a000000000000000000000000000000000000000000000000000000000\n      dup2\n      mstore\n      0x04\n      add\n      tag_327\n      swap1\n      tag_328\n      jump\t// in\n    tag_327:\n      mload(0x40)\n      dup1\n      swap2\n      sub\n      swap1\n      revert\n    tag_326:\n        /* \"contracts/Voting.sol\":4852:4893  WorkflowStatus.ProposalsRegistrationEnded */\n      0x02\n        /* \"contracts/Voting.sol\":4836:4849  currentStatus */\n      0x03\n      0x00\n        /* \"contracts/Voting.sol\":4836:4893  currentStatus = WorkflowStatus.ProposalsRegistrationEnded */\n      0x0100\n      exp\n      dup2\n      sload\n      dup2\n      0xff\n      mul\n      not\n      and\n      swap1\n      dup4\n      0x05\n      dup2\n      gt\n      iszero\n      tag_329\n      jumpi\n      tag_330\n      tag_111\n      jump\t// in\n    tag_330:\n    tag_329:\n      mul\n      or\n      swap1\n      sstore\n      pop\n        /* \"contracts/Voting.sol\":4908:4984  WorkflowStatusChange(WorkflowStatus(uint(currentStatus) - 1), currentStatus) */\n      0x0a97a4ee45751e2abf3e4fc8946939630b11b371ea8ae39ccdc3056e98f5cc3f\n        /* \"contracts/Voting.sol\":4966:4967  1 */\n      0x01\n        /* \"contracts/Voting.sol\":4949:4962  currentStatus */\n      0x03\n      0x00\n      swap1\n      sload\n      swap1\n      0x0100\n      exp\n      swap1\n      div\n      0xff\n      and\n        /* \"contracts/Voting.sol\":4944:4963  uint(currentStatus) */\n      0x05\n      dup2\n      gt\n      iszero\n      tag_331\n      jumpi\n      tag_332\n      tag_111\n      jump\t// in\n    tag_332:\n    tag_331:\n        /* \"contracts/Voting.sol\":4944:4967  uint(currentStatus) - 1 */\n      tag_333\n      swap2\n      swap1\n      tag_188\n      jump\t// in\n    tag_333:\n        /* \"contracts/Voting.sol\":4929:4968  WorkflowStatus(uint(currentStatus) - 1) */\n      0x05\n      dup2\n      gt\n      iszero\n      tag_334\n      jumpi\n      tag_335\n      tag_111\n      jump\t// in\n    tag_335:\n    tag_334:\n        /* \"contracts/Voting.sol\":4970:4983  currentStatus */\n      0x03\n      0x00\n      swap1\n      sload\n      swap1\n      0x0100\n      exp\n      swap1\n      div\n      0xff\n      and\n        /* \"contracts/Voting.sol\":4908:4984  WorkflowStatusChange(WorkflowStatus(uint(currentStatus) - 1), currentStatus) */\n      mload(0x40)\n      tag_336\n      swap3\n      swap2\n      swap1\n      tag_192\n      jump\t// in\n    tag_336:\n      mload(0x40)\n      dup1\n      swap2\n      sub\n      swap1\n      log1\n        /* \"contracts/Voting.sol\":4555:4991  function endProposalSession() external onlyOwner {... */\n      jump\t// out\n        /* \"contracts/Voting.sol\":8792:8886  function getVoteCountTotal() external view returns(uint){... */\n    tag_95:\n        /* \"contracts/Voting.sol\":8843:8847  uint */\n      0x00\n        /* \"contracts/Voting.sol\":8865:8879  voteCountTotal */\n      sload(0x06)\n        /* \"contracts/Voting.sol\":8858:8879  return voteCountTotal */\n      swap1\n      pop\n        /* \"contracts/Voting.sol\":8792:8886  function getVoteCountTotal() external view returns(uint){... */\n      swap1\n      jump\t// out\n        /* \"@openzeppelin/contracts/access/Ownable.sol\":2543:2758  function transferOwnership(address newOwner) public virtual onlyOwner {... */\n    tag_99:\n        /* \"@openzeppelin/contracts/access/Ownable.sol\":1531:1544  _checkOwner() */\n      tag_339\n        /* \"@openzeppelin/contracts/access/Ownable.sol\":1531:1542  _checkOwner */\n      tag_139\n        /* \"@openzeppelin/contracts/access/Ownable.sol\":1531:1544  _checkOwner() */\n      jump\t// in\n    tag_339:\n        /* \"@openzeppelin/contracts/access/Ownable.sol\":2647:2648  0 */\n      0x00\n        /* \"@openzeppelin/contracts/access/Ownable.sol\":2627:2649  newOwner == address(0) */\n      0xffffffffffffffffffffffffffffffffffffffff\n      and\n        /* \"@openzeppelin/contracts/access/Ownable.sol\":2627:2635  newOwner */\n      dup2\n        /* \"@openzeppelin/contracts/access/Ownable.sol\":2627:2649  newOwner == address(0) */\n      0xffffffffffffffffffffffffffffffffffffffff\n      and\n      sub\n        /* \"@openzeppelin/contracts/access/Ownable.sol\":2623:2714  if (newOwner == address(0)) {... */\n      tag_341\n      jumpi\n        /* \"@openzeppelin/contracts/access/Ownable.sol\":2700:2701  0 */\n      0x00\n        /* \"@openzeppelin/contracts/access/Ownable.sol\":2672:2703  OwnableInvalidOwner(address(0)) */\n      mload(0x40)\n      0x1e4fbdf700000000000000000000000000000000000000000000000000000000\n      dup2\n      mstore\n      0x04\n      add\n      tag_342\n      swap2\n      swap1\n      tag_70\n      jump\t// in\n    tag_342:\n      mload(0x40)\n      dup1\n      swap2\n      sub\n      swap1\n      revert\n        /* \"@openzeppelin/contracts/access/Ownable.sol\":2623:2714  if (newOwner == address(0)) {... */\n    tag_341:\n        /* \"@openzeppelin/contracts/access/Ownable.sol\":2723:2751  _transferOwnership(newOwner) */\n      tag_343\n        /* \"@openzeppelin/contracts/access/Ownable.sol\":2742:2750  newOwner */\n      dup2\n        /* \"@openzeppelin/contracts/access/Ownable.sol\":2723:2741  _transferOwnership */\n      tag_240\n        /* \"@openzeppelin/contracts/access/Ownable.sol\":2723:2751  _transferOwnership(newOwner) */\n      jump\t// in\n    tag_343:\n        /* \"@openzeppelin/contracts/access/Ownable.sol\":2543:2758  function transferOwnership(address newOwner) public virtual onlyOwner {... */\n      pop\n      jump\t// out\n        /* \"contracts/Voting.sol\":5366:5804  function endVoteSession() external onlyOwner {... */\n    tag_101:\n        /* \"@openzeppelin/contracts/access/Ownable.sol\":1531:1544  _checkOwner() */\n      tag_345\n        /* \"@openzeppelin/contracts/access/Ownable.sol\":1531:1542  _checkOwner */\n      tag_139\n        /* \"@openzeppelin/contracts/access/Ownable.sol\":1531:1544  _checkOwner() */\n      jump\t// in\n    tag_345:\n        /* \"contracts/Voting.sol\":5447:5482  WorkflowStatus.VotingSessionStarted */\n      0x03\n        /* \"contracts/Voting.sol\":5429:5482  currentStatus ==  WorkflowStatus.VotingSessionStarted */\n      0x05\n      dup2\n      gt\n      iszero\n      tag_347\n      jumpi\n      tag_348\n      tag_111\n      jump\t// in\n    tag_348:\n    tag_347:\n        /* \"contracts/Voting.sol\":5429:5442  currentStatus */\n      0x03\n      0x00\n      swap1\n      sload\n      swap1\n      0x0100\n      exp\n      swap1\n      div\n      0xff\n      and\n        /* \"contracts/Voting.sol\":5429:5482  currentStatus ==  WorkflowStatus.VotingSessionStarted */\n      0x05\n      dup2\n      gt\n      iszero\n      tag_349\n      jumpi\n      tag_350\n      tag_111\n      jump\t// in\n    tag_350:\n    tag_349:\n      eq\n        /* \"contracts/Voting.sol\":5421:5540  require(currentStatus ==  WorkflowStatus.VotingSessionStarted, \"The vote session has not started or has already ended\") */\n      tag_351\n      jumpi\n      mload(0x40)\n      0x08c379a000000000000000000000000000000000000000000000000000000000\n      dup2\n      mstore\n      0x04\n      add\n      tag_352\n      swap1\n      tag_353\n      jump\t// in\n    tag_352:\n      mload(0x40)\n      dup1\n      swap2\n      sub\n      swap1\n      revert\n    tag_351:\n        /* \"contracts/Voting.sol\":5575:5576  0 */\n      0x00\n        /* \"contracts/Voting.sol\":5558:5572  voteCountTotal */\n      sload(0x06)\n        /* \"contracts/Voting.sol\":5558:5576  voteCountTotal > 0 */\n      gt\n        /* \"contracts/Voting.sol\":5550:5609  require(voteCountTotal > 0, \"There are no vote registered\") */\n      tag_354\n      jumpi\n      mload(0x40)\n      0x08c379a000000000000000000000000000000000000000000000000000000000\n      dup2\n      mstore\n      0x04\n      add\n      tag_355\n      swap1\n      tag_356\n      jump\t// in\n    tag_355:\n      mload(0x40)\n      dup1\n      swap2\n      sub\n      swap1\n      revert\n    tag_354:\n        /* \"contracts/Voting.sol\":5635:5668  WorkflowStatus.VotingSessionEnded */\n      0x04\n        /* \"contracts/Voting.sol\":5619:5632  currentStatus */\n      0x03\n      0x00\n        /* \"contracts/Voting.sol\":5619:5668  currentStatus = WorkflowStatus.VotingSessionEnded */\n      0x0100\n      exp\n      dup2\n      sload\n      dup2\n      0xff\n      mul\n      not\n      and\n      swap1\n      dup4\n      0x05\n      dup2\n      gt\n      iszero\n      tag_357\n      jumpi\n      tag_358\n      tag_111\n      jump\t// in\n    tag_358:\n    tag_357:\n      mul\n      or\n      swap1\n      sstore\n      pop\n        /* \"contracts/Voting.sol\":5678:5697  setWinnerProposal() */\n      tag_359\n        /* \"contracts/Voting.sol\":5678:5695  setWinnerProposal */\n      tag_360\n        /* \"contracts/Voting.sol\":5678:5697  setWinnerProposal() */\n      jump\t// in\n    tag_359:\n        /* \"contracts/Voting.sol\":5713:5789  WorkflowStatusChange(WorkflowStatus(uint(currentStatus) - 1), currentStatus) */\n      0x0a97a4ee45751e2abf3e4fc8946939630b11b371ea8ae39ccdc3056e98f5cc3f\n        /* \"contracts/Voting.sol\":5771:5772  1 */\n      0x01\n        /* \"contracts/Voting.sol\":5754:5767  currentStatus */\n      0x03\n      0x00\n      swap1\n      sload\n      swap1\n      0x0100\n      exp\n      swap1\n      div\n      0xff\n      and\n        /* \"contracts/Voting.sol\":5749:5768  uint(currentStatus) */\n      0x05\n      dup2\n      gt\n      iszero\n      tag_361\n      jumpi\n      tag_362\n      tag_111\n      jump\t// in\n    tag_362:\n    tag_361:\n        /* \"contracts/Voting.sol\":5749:5772  uint(currentStatus) - 1 */\n      tag_363\n      swap2\n      swap1\n      tag_188\n      jump\t// in\n    tag_363:\n        /* \"contracts/Voting.sol\":5734:5773  WorkflowStatus(uint(currentStatus) - 1) */\n      0x05\n      dup2\n      gt\n      iszero\n      tag_364\n      jumpi\n      tag_365\n      tag_111\n      jump\t// in\n    tag_365:\n    tag_364:\n        /* \"contracts/Voting.sol\":5775:5788  currentStatus */\n      0x03\n      0x00\n      swap1\n      sload\n      swap1\n      0x0100\n      exp\n      swap1\n      div\n      0xff\n      and\n        /* \"contracts/Voting.sol\":5713:5789  WorkflowStatusChange(WorkflowStatus(uint(currentStatus) - 1), currentStatus) */\n      mload(0x40)\n      tag_366\n      swap3\n      swap2\n      swap1\n      tag_192\n      jump\t// in\n    tag_366:\n      mload(0x40)\n      dup1\n      swap2\n      sub\n      swap1\n      log1\n        /* \"contracts/Voting.sol\":5366:5804  function endVoteSession() external onlyOwner {... */\n      jump\t// out\n        /* \"@openzeppelin/contracts/access/Ownable.sol\":1796:1958  function _checkOwner() internal view virtual {... */\n    tag_139:\n        /* \"@openzeppelin/contracts/access/Ownable.sol\":1866:1878  _msgSender() */\n      tag_368\n        /* \"@openzeppelin/contracts/access/Ownable.sol\":1866:1876  _msgSender */\n      tag_369\n        /* \"@openzeppelin/contracts/access/Ownable.sol\":1866:1878  _msgSender() */\n      jump\t// in\n    tag_368:\n        /* \"@openzeppelin/contracts/access/Ownable.sol\":1855:1878  owner() != _msgSender() */\n      0xffffffffffffffffffffffffffffffffffffffff\n      and\n        /* \"@openzeppelin/contracts/access/Ownable.sol\":1855:1862  owner() */\n      tag_370\n        /* \"@openzeppelin/contracts/access/Ownable.sol\":1855:1860  owner */\n      tag_68\n        /* \"@openzeppelin/contracts/access/Ownable.sol\":1855:1862  owner() */\n      jump\t// in\n    tag_370:\n        /* \"@openzeppelin/contracts/access/Ownable.sol\":1855:1878  owner() != _msgSender() */\n      0xffffffffffffffffffffffffffffffffffffffff\n      and\n      eq\n        /* \"@openzeppelin/contracts/access/Ownable.sol\":1851:1952  if (owner() != _msgSender()) {... */\n      tag_371\n      jumpi\n        /* \"@openzeppelin/contracts/access/Ownable.sol\":1928:1940  _msgSender() */\n      tag_372\n        /* \"@openzeppelin/contracts/access/Ownable.sol\":1928:1938  _msgSender */\n      tag_369\n        /* \"@openzeppelin/contracts/access/Ownable.sol\":1928:1940  _msgSender() */\n      jump\t// in\n    tag_372:\n        /* \"@openzeppelin/contracts/access/Ownable.sol\":1901:1941  OwnableUnauthorizedAccount(_msgSender()) */\n      mload(0x40)\n      0x118cdaa700000000000000000000000000000000000000000000000000000000\n      dup2\n      mstore\n      0x04\n      add\n      tag_373\n      swap2\n      swap1\n      tag_70\n      jump\t// in\n    tag_373:\n      mload(0x40)\n      dup1\n      swap2\n      sub\n      swap1\n      revert\n        /* \"@openzeppelin/contracts/access/Ownable.sol\":1851:1952  if (owner() != _msgSender()) {... */\n    tag_371:\n        /* \"@openzeppelin/contracts/access/Ownable.sol\":1796:1958  function _checkOwner() internal view virtual {... */\n      jump\t// out\n        /* \"@openzeppelin/contracts/access/Ownable.sol\":2912:3099  function _transferOwnership(address newOwner) internal virtual {... */\n    tag_240:\n        /* \"@openzeppelin/contracts/access/Ownable.sol\":2985:3001  address oldOwner */\n      0x00\n        /* \"@openzeppelin/contracts/access/Ownable.sol\":3004:3010  _owner */\n      0x00\n      0x00\n      swap1\n      sload\n      swap1\n      0x0100\n      exp\n      swap1\n      div\n      0xffffffffffffffffffffffffffffffffffffffff\n      and\n        /* \"@openzeppelin/contracts/access/Ownable.sol\":2985:3010  address oldOwner = _owner */\n      swap1\n      pop\n        /* \"@openzeppelin/contracts/access/Ownable.sol\":3029:3037  newOwner */\n      dup2\n        /* \"@openzeppelin/contracts/access/Ownable.sol\":3020:3026  _owner */\n      0x00\n      0x00\n        /* \"@openzeppelin/contracts/access/Ownable.sol\":3020:3037  _owner = newOwner */\n      0x0100\n      exp\n      dup2\n      sload\n      dup2\n      0xffffffffffffffffffffffffffffffffffffffff\n      mul\n      not\n      and\n      swap1\n      dup4\n      0xffffffffffffffffffffffffffffffffffffffff\n      and\n      mul\n      or\n      swap1\n      sstore\n      pop\n        /* \"@openzeppelin/contracts/access/Ownable.sol\":3083:3091  newOwner */\n      dup2\n        /* \"@openzeppelin/contracts/access/Ownable.sol\":3052:3092  OwnershipTransferred(oldOwner, newOwner) */\n      0xffffffffffffffffffffffffffffffffffffffff\n      and\n        /* \"@openzeppelin/contracts/access/Ownable.sol\":3073:3081  oldOwner */\n      dup2\n        /* \"@openzeppelin/contracts/access/Ownable.sol\":3052:3092  OwnershipTransferred(oldOwner, newOwner) */\n      0xffffffffffffffffffffffffffffffffffffffff\n      and\n      0x8be0079c531659141344cd1fd0a4f28419497f9722a3daafe3b4186f6b6457e0\n      mload(0x40)\n      mload(0x40)\n      dup1\n      swap2\n      sub\n      swap1\n      log3\n        /* \"@openzeppelin/contracts/access/Ownable.sol\":2975:3099  {... */\n      pop\n        /* \"@openzeppelin/contracts/access/Ownable.sol\":2912:3099  function _transferOwnership(address newOwner) internal virtual {... */\n      pop\n      jump\t// out\n        /* \"contracts/Voting.sol\":6795:7123  function setWinnerProposal() private onlyOwner {... */\n    tag_360:\n        /* \"@openzeppelin/contracts/access/Ownable.sol\":1531:1544  _checkOwner() */\n      tag_376\n        /* \"@openzeppelin/contracts/access/Ownable.sol\":1531:1542  _checkOwner */\n      tag_139\n        /* \"@openzeppelin/contracts/access/Ownable.sol\":1531:1544  _checkOwner() */\n      jump\t// in\n    tag_376:\n        /* \"contracts/Voting.sol\":6857:6863  uint i */\n      0x00\n        /* \"contracts/Voting.sol\":6866:6867  0 */\n      0x00\n        /* \"contracts/Voting.sol\":6857:6867  uint i = 0 */\n      swap1\n      pop\n        /* \"contracts/Voting.sol\":6852:7116  for (uint i = 0; i < proposals.length; i++) {... */\n    tag_378:\n        /* \"contracts/Voting.sol\":6873:6882  proposals */\n      0x02\n        /* \"contracts/Voting.sol\":6873:6889  proposals.length */\n      dup1\n      sload\n      swap1\n      pop\n        /* \"contracts/Voting.sol\":6869:6870  i */\n      dup2\n        /* \"contracts/Voting.sol\":6869:6889  i < proposals.length */\n      lt\n        /* \"contracts/Voting.sol\":6852:7116  for (uint i = 0; i < proposals.length; i++) {... */\n      iszero\n      tag_379\n      jumpi\n        /* \"contracts/Voting.sol\":6940:6955  voteWinnerCount */\n      sload(0x09)\n        /* \"contracts/Voting.sol\":6914:6923  proposals */\n      0x02\n        /* \"contracts/Voting.sol\":6924:6925  i */\n      dup3\n        /* \"contracts/Voting.sol\":6914:6926  proposals[i] */\n      dup2\n      sload\n      dup2\n      lt\n      tag_381\n      jumpi\n      tag_382\n      tag_129\n      jump\t// in\n    tag_382:\n    tag_381:\n      swap1\n      0x00\n      mstore\n      keccak256(0x00, 0x20)\n      swap1\n      0x02\n      mul\n      add\n        /* \"contracts/Voting.sol\":6914:6936  proposals[i].voteCount */\n      0x01\n      add\n      sload\n        /* \"contracts/Voting.sol\":6914:6955  proposals[i].voteCount >= voteWinnerCount */\n      lt\n        /* \"contracts/Voting.sol\":6910:7100  if (proposals[i].voteCount >= voteWinnerCount) {... */\n      tag_384\n      jumpi\n        /* \"contracts/Voting.sol\":6993:7002  proposals */\n      0x02\n        /* \"contracts/Voting.sol\":7003:7004  i */\n      dup2\n        /* \"contracts/Voting.sol\":6993:7005  proposals[i] */\n      dup2\n      sload\n      dup2\n      lt\n      tag_385\n      jumpi\n      tag_386\n      tag_129\n      jump\t// in\n    tag_386:\n    tag_385:\n      swap1\n      0x00\n      mstore\n      keccak256(0x00, 0x20)\n      swap1\n      0x02\n      mul\n      add\n        /* \"contracts/Voting.sol\":6993:7015  proposals[i].voteCount */\n      0x01\n      add\n      sload\n        /* \"contracts/Voting.sol\":6975:6990  voteWinnerCount */\n      0x09\n        /* \"contracts/Voting.sol\":6975:7015  voteWinnerCount = proposals[i].voteCount */\n      dup2\n      swap1\n      sstore\n      pop\n        /* \"contracts/Voting.sol\":7053:7054  i */\n      dup1\n        /* \"contracts/Voting.sol\":7033:7050  winningProposalId */\n      0x04\n        /* \"contracts/Voting.sol\":7033:7054  winningProposalId = i */\n      dup2\n      swap1\n      sstore\n      pop\n        /* \"contracts/Voting.sol\":7072:7083  winnerCount */\n      0x08\n      0x00\n        /* \"contracts/Voting.sol\":7072:7085  winnerCount++ */\n      dup2\n      sload\n      dup1\n      swap3\n      swap2\n      swap1\n      tag_388\n      swap1\n      tag_132\n      jump\t// in\n    tag_388:\n      swap2\n      swap1\n      pop\n      sstore\n      pop\n        /* \"contracts/Voting.sol\":6910:7100  if (proposals[i].voteCount >= voteWinnerCount) {... */\n    tag_384:\n        /* \"contracts/Voting.sol\":6891:6894  i++ */\n      dup1\n      dup1\n      0x01\n      add\n      swap2\n      pop\n      pop\n        /* \"contracts/Voting.sol\":6852:7116  for (uint i = 0; i < proposals.length; i++) {... */\n      jump(tag_378)\n    tag_379:\n      pop\n        /* \"contracts/Voting.sol\":6795:7123  function setWinnerProposal() private onlyOwner {... */\n      jump\t// out\n        /* \"@openzeppelin/contracts/utils/Context.sol\":656:752  function _msgSender() internal view virtual returns (address) {... */\n    tag_369:\n        /* \"@openzeppelin/contracts/utils/Context.sol\":709:716  address */\n      0x00\n        /* \"@openzeppelin/contracts/utils/Context.sol\":735:745  msg.sender */\n      caller\n        /* \"@openzeppelin/contracts/utils/Context.sol\":728:745  return msg.sender */\n      swap1\n      pop\n        /* \"@openzeppelin/contracts/utils/Context.sol\":656:752  function _msgSender() internal view virtual returns (address) {... */\n      swap1\n      jump\t// out\n    tag_242:\n      mload(0x40)\n      dup1\n      0x40\n      add\n      0x40\n      mstore\n      dup1\n      0x60\n      dup2\n      mstore\n      0x20\n      add\n      0x00\n      dup2\n      mstore\n      pop\n      swap1\n      jump\t// out\n        /* \"#utility.yul\":7:82   */\n    tag_390:\n        /* \"#utility.yul\":40:46   */\n      0x00\n        /* \"#utility.yul\":73:75   */\n      0x40\n        /* \"#utility.yul\":67:76   */\n      mload\n        /* \"#utility.yul\":57:76   */\n      swap1\n      pop\n        /* \"#utility.yul\":7:82   */\n      swap1\n      jump\t// out\n        /* \"#utility.yul\":88:205   */\n    tag_391:\n        /* \"#utility.yul\":197:198   */\n      0x00\n        /* \"#utility.yul\":194:195   */\n      0x00\n        /* \"#utility.yul\":187:199   */\n      revert\n        /* \"#utility.yul\":211:328   */\n    tag_392:\n        /* \"#utility.yul\":320:321   */\n      0x00\n        /* \"#utility.yul\":317:318   */\n      0x00\n        /* \"#utility.yul\":310:322   */\n      revert\n        /* \"#utility.yul\":334:411   */\n    tag_393:\n        /* \"#utility.yul\":371:378   */\n      0x00\n        /* \"#utility.yul\":400:405   */\n      dup2\n        /* \"#utility.yul\":389:405   */\n      swap1\n      pop\n        /* \"#utility.yul\":334:411   */\n      swap2\n      swap1\n      pop\n      jump\t// out\n        /* \"#utility.yul\":417:539   */\n    tag_394:\n        /* \"#utility.yul\":490:514   */\n      tag_496\n        /* \"#utility.yul\":508:513   */\n      dup2\n        /* \"#utility.yul\":490:514   */\n      tag_393\n      jump\t// in\n    tag_496:\n        /* \"#utility.yul\":483:488   */\n      dup2\n        /* \"#utility.yul\":480:515   */\n      eq\n        /* \"#utility.yul\":470:533   */\n      tag_497\n      jumpi\n        /* \"#utility.yul\":529:530   */\n      0x00\n        /* \"#utility.yul\":526:527   */\n      0x00\n        /* \"#utility.yul\":519:531   */\n      revert\n        /* \"#utility.yul\":470:533   */\n    tag_497:\n        /* \"#utility.yul\":417:539   */\n      pop\n      jump\t// out\n        /* \"#utility.yul\":545:684   */\n    tag_395:\n        /* \"#utility.yul\":591:596   */\n      0x00\n        /* \"#utility.yul\":629:635   */\n      dup2\n        /* \"#utility.yul\":616:636   */\n      calldataload\n        /* \"#utility.yul\":607:636   */\n      swap1\n      pop\n        /* \"#utility.yul\":645:678   */\n      tag_499\n        /* \"#utility.yul\":672:677   */\n      dup2\n        /* \"#utility.yul\":645:678   */\n      tag_394\n      jump\t// in\n    tag_499:\n        /* \"#utility.yul\":545:684   */\n      swap3\n      swap2\n      pop\n      pop\n      jump\t// out\n        /* \"#utility.yul\":690:1019   */\n    tag_31:\n        /* \"#utility.yul\":749:755   */\n      0x00\n        /* \"#utility.yul\":798:800   */\n      0x20\n        /* \"#utility.yul\":786:795   */\n      dup3\n        /* \"#utility.yul\":777:784   */\n      dup5\n        /* \"#utility.yul\":773:796   */\n      sub\n        /* \"#utility.yul\":769:801   */\n      slt\n        /* \"#utility.yul\":766:885   */\n      iszero\n      tag_501\n      jumpi\n        /* \"#utility.yul\":804:883   */\n      tag_502\n      tag_391\n      jump\t// in\n    tag_502:\n        /* \"#utility.yul\":766:885   */\n    tag_501:\n        /* \"#utility.yul\":924:925   */\n      0x00\n        /* \"#utility.yul\":949:1002   */\n      tag_503\n        /* \"#utility.yul\":994:1001   */\n      dup5\n        /* \"#utility.yul\":985:991   */\n      dup3\n        /* \"#utility.yul\":974:983   */\n      dup6\n        /* \"#utility.yul\":970:992   */\n      add\n        /* \"#utility.yul\":949:1002   */\n      tag_395\n      jump\t// in\n    tag_503:\n        /* \"#utility.yul\":939:1002   */\n      swap2\n      pop\n        /* \"#utility.yul\":895:1012   */\n      pop\n        /* \"#utility.yul\":690:1019   */\n      swap3\n      swap2\n      pop\n      pop\n      jump\t// out\n        /* \"#utility.yul\":1025:1143   */\n    tag_396:\n        /* \"#utility.yul\":1112:1136   */\n      tag_505\n        /* \"#utility.yul\":1130:1135   */\n      dup2\n        /* \"#utility.yul\":1112:1136   */\n      tag_393\n      jump\t// in\n    tag_505:\n        /* \"#utility.yul\":1107:1110   */\n      dup3\n        /* \"#utility.yul\":1100:1137   */\n      mstore\n        /* \"#utility.yul\":1025:1143   */\n      pop\n      pop\n      jump\t// out\n        /* \"#utility.yul\":1149:1371   */\n    tag_36:\n        /* \"#utility.yul\":1242:1246   */\n      0x00\n        /* \"#utility.yul\":1280:1282   */\n      0x20\n        /* \"#utility.yul\":1269:1278   */\n      dup3\n        /* \"#utility.yul\":1265:1283   */\n      add\n        /* \"#utility.yul\":1257:1283   */\n      swap1\n      pop\n        /* \"#utility.yul\":1293:1364   */\n      tag_507\n        /* \"#utility.yul\":1361:1362   */\n      0x00\n        /* \"#utility.yul\":1350:1359   */\n      dup4\n        /* \"#utility.yul\":1346:1363   */\n      add\n        /* \"#utility.yul\":1337:1343   */\n      dup5\n        /* \"#utility.yul\":1293:1364   */\n      tag_396\n      jump\t// in\n    tag_507:\n        /* \"#utility.yul\":1149:1371   */\n      swap3\n      swap2\n      pop\n      pop\n      jump\t// out\n        /* \"#utility.yul\":1377:1503   */\n    tag_397:\n        /* \"#utility.yul\":1414:1421   */\n      0x00\n        /* \"#utility.yul\":1454:1496   */\n      0xffffffffffffffffffffffffffffffffffffffff\n        /* \"#utility.yul\":1447:1452   */\n      dup3\n        /* \"#utility.yul\":1443:1497   */\n      and\n        /* \"#utility.yul\":1432:1497   */\n      swap1\n      pop\n        /* \"#utility.yul\":1377:1503   */\n      swap2\n      swap1\n      pop\n      jump\t// out\n        /* \"#utility.yul\":1509:1605   */\n    tag_398:\n        /* \"#utility.yul\":1546:1553   */\n      0x00\n        /* \"#utility.yul\":1575:1599   */\n      tag_510\n        /* \"#utility.yul\":1593:1598   */\n      dup3\n        /* \"#utility.yul\":1575:1599   */\n      tag_397\n      jump\t// in\n    tag_510:\n        /* \"#utility.yul\":1564:1599   */\n      swap1\n      pop\n        /* \"#utility.yul\":1509:1605   */\n      swap2\n      swap1\n      pop\n      jump\t// out\n        /* \"#utility.yul\":1611:1733   */\n    tag_399:\n        /* \"#utility.yul\":1684:1708   */\n      tag_512\n        /* \"#utility.yul\":1702:1707   */\n      dup2\n        /* \"#utility.yul\":1684:1708   */\n      tag_398\n      jump\t// in\n    tag_512:\n        /* \"#utility.yul\":1677:1682   */\n      dup2\n        /* \"#utility.yul\":1674:1709   */\n      eq\n        /* \"#utility.yul\":1664:1727   */\n      tag_513\n      jumpi\n        /* \"#utility.yul\":1723:1724   */\n      0x00\n        /* \"#utility.yul\":1720:1721   */\n      0x00\n        /* \"#utility.yul\":1713:1725   */\n      revert\n        /* \"#utility.yul\":1664:1727   */\n    tag_513:\n        /* \"#utility.yul\":1611:1733   */\n      pop\n      jump\t// out\n        /* \"#utility.yul\":1739:1878   */\n    tag_400:\n        /* \"#utility.yul\":1785:1790   */\n      0x00\n        /* \"#utility.yul\":1823:1829   */\n      dup2\n        /* \"#utility.yul\":1810:1830   */\n      calldataload\n        /* \"#utility.yul\":1801:1830   */\n      swap1\n      pop\n        /* \"#utility.yul\":1839:1872   */\n      tag_515\n        /* \"#utility.yul\":1866:1871   */\n      dup2\n        /* \"#utility.yul\":1839:1872   */\n      tag_399\n      jump\t// in\n    tag_515:\n        /* \"#utility.yul\":1739:1878   */\n      swap3\n      swap2\n      pop\n      pop\n      jump\t// out\n        /* \"#utility.yul\":1884:2213   */\n    tag_39:\n        /* \"#utility.yul\":1943:1949   */\n      0x00\n        /* \"#utility.yul\":1992:1994   */\n      0x20\n        /* \"#utility.yul\":1980:1989   */\n      dup3\n        /* \"#utility.yul\":1971:1978   */\n      dup5\n        /* \"#utility.yul\":1967:1990   */\n      sub\n        /* \"#utility.yul\":1963:1995   */\n      slt\n        /* \"#utility.yul\":1960:2079   */\n      iszero\n      tag_517\n      jumpi\n        /* \"#utility.yul\":1998:2077   */\n      tag_518\n      tag_391\n      jump\t// in\n    tag_518:\n        /* \"#utility.yul\":1960:2079   */\n    tag_517:\n        /* \"#utility.yul\":2118:2119   */\n      0x00\n        /* \"#utility.yul\":2143:2196   */\n      tag_519\n        /* \"#utility.yul\":2188:2195   */\n      dup5\n        /* \"#utility.yul\":2179:2185   */\n      dup3\n        /* \"#utility.yul\":2168:2177   */\n      dup6\n        /* \"#utility.yul\":2164:2186   */\n      add\n        /* \"#utility.yul\":2143:2196   */\n      tag_400\n      jump\t// in\n    tag_519:\n        /* \"#utility.yul\":2133:2196   */\n      swap2\n      pop\n        /* \"#utility.yul\":2089:2206   */\n      pop\n        /* \"#utility.yul\":1884:2213   */\n      swap3\n      swap2\n      pop\n      pop\n      jump\t// out\n        /* \"#utility.yul\":2219:2318   */\n    tag_401:\n        /* \"#utility.yul\":2271:2277   */\n      0x00\n        /* \"#utility.yul\":2305:2310   */\n      dup2\n        /* \"#utility.yul\":2299:2311   */\n      mload\n        /* \"#utility.yul\":2289:2311   */\n      swap1\n      pop\n        /* \"#utility.yul\":2219:2318   */\n      swap2\n      swap1\n      pop\n      jump\t// out\n        /* \"#utility.yul\":2324:2493   */\n    tag_402:\n        /* \"#utility.yul\":2408:2419   */\n      0x00\n        /* \"#utility.yul\":2442:2448   */\n      dup3\n        /* \"#utility.yul\":2437:2440   */\n      dup3\n        /* \"#utility.yul\":2430:2449   */\n      mstore\n        /* \"#utility.yul\":2482:2486   */\n      0x20\n        /* \"#utility.yul\":2477:2480   */\n      dup3\n        /* \"#utility.yul\":2473:2487   */\n      add\n        /* \"#utility.yul\":2458:2487   */\n      swap1\n      pop\n        /* \"#utility.yul\":2324:2493   */\n      swap3\n      swap2\n      pop\n      pop\n      jump\t// out\n        /* \"#utility.yul\":2499:2638   */\n    tag_403:\n        /* \"#utility.yul\":2588:2594   */\n      dup3\n        /* \"#utility.yul\":2583:2586   */\n      dup2\n        /* \"#utility.yul\":2578:2581   */\n      dup4\n        /* \"#utility.yul\":2572:2595   */\n      mcopy\n        /* \"#utility.yul\":2629:2630   */\n      0x00\n        /* \"#utility.yul\":2620:2626   */\n      dup4\n        /* \"#utility.yul\":2615:2618   */\n      dup4\n        /* \"#utility.yul\":2611:2627   */\n      add\n        /* \"#utility.yul\":2604:2631   */\n      mstore\n        /* \"#utility.yul\":2499:2638   */\n      pop\n      pop\n      pop\n      jump\t// out\n        /* \"#utility.yul\":2644:2746   */\n    tag_404:\n        /* \"#utility.yul\":2685:2691   */\n      0x00\n        /* \"#utility.yul\":2736:2738   */\n      0x1f\n        /* \"#utility.yul\":2732:2739   */\n      not\n        /* \"#utility.yul\":2727:2729   */\n      0x1f\n        /* \"#utility.yul\":2720:2725   */\n      dup4\n        /* \"#utility.yul\":2716:2730   */\n      add\n        /* \"#utility.yul\":2712:2740   */\n      and\n        /* \"#utility.yul\":2702:2740   */\n      swap1\n      pop\n        /* \"#utility.yul\":2644:2746   */\n      swap2\n      swap1\n      pop\n      jump\t// out\n        /* \"#utility.yul\":2752:3129   */\n    tag_405:\n        /* \"#utility.yul\":2840:2843   */\n      0x00\n        /* \"#utility.yul\":2868:2907   */\n      tag_525\n        /* \"#utility.yul\":2901:2906   */\n      dup3\n        /* \"#utility.yul\":2868:2907   */\n      tag_401\n      jump\t// in\n    tag_525:\n        /* \"#utility.yul\":2923:2994   */\n      tag_526\n        /* \"#utility.yul\":2987:2993   */\n      dup2\n        /* \"#utility.yul\":2982:2985   */\n      dup6\n        /* \"#utility.yul\":2923:2994   */\n      tag_402\n      jump\t// in\n    tag_526:\n        /* \"#utility.yul\":2916:2994   */\n      swap4\n      pop\n        /* \"#utility.yul\":3003:3068   */\n      tag_527\n        /* \"#utility.yul\":3061:3067   */\n      dup2\n        /* \"#utility.yul\":3056:3059   */\n      dup6\n        /* \"#utility.yul\":3049:3053   */\n      0x20\n        /* \"#utility.yul\":3042:3047   */\n      dup7\n        /* \"#utility.yul\":3038:3054   */\n      add\n        /* \"#utility.yul\":3003:3068   */\n      tag_403\n      jump\t// in\n    tag_527:\n        /* \"#utility.yul\":3093:3122   */\n      tag_528\n        /* \"#utility.yul\":3115:3121   */\n      dup2\n        /* \"#utility.yul\":3093:3122   */\n      tag_404\n      jump\t// in\n    tag_528:\n        /* \"#utility.yul\":3088:3091   */\n      dup5\n        /* \"#utility.yul\":3084:3123   */\n      add\n        /* \"#utility.yul\":3077:3123   */\n      swap2\n      pop\n        /* \"#utility.yul\":2844:3129   */\n      pop\n        /* \"#utility.yul\":2752:3129   */\n      swap3\n      swap2\n      pop\n      pop\n      jump\t// out\n        /* \"#utility.yul\":3135:3448   */\n    tag_44:\n        /* \"#utility.yul\":3248:3252   */\n      0x00\n        /* \"#utility.yul\":3286:3288   */\n      0x20\n        /* \"#utility.yul\":3275:3284   */\n      dup3\n        /* \"#utility.yul\":3271:3289   */\n      add\n        /* \"#utility.yul\":3263:3289   */\n      swap1\n      pop\n        /* \"#utility.yul\":3335:3344   */\n      dup2\n        /* \"#utility.yul\":3329:3333   */\n      dup2\n        /* \"#utility.yul\":3325:3345   */\n      sub\n        /* \"#utility.yul\":3321:3322   */\n      0x00\n        /* \"#utility.yul\":3310:3319   */\n      dup4\n        /* \"#utility.yul\":3306:3323   */\n      add\n        /* \"#utility.yul\":3299:3346   */\n      mstore\n        /* \"#utility.yul\":3363:3441   */\n      tag_530\n        /* \"#utility.yul\":3436:3440   */\n      dup2\n        /* \"#utility.yul\":3427:3433   */\n      dup5\n        /* \"#utility.yul\":3363:3441   */\n      tag_405\n      jump\t// in\n    tag_530:\n        /* \"#utility.yul\":3355:3441   */\n      swap1\n      pop\n        /* \"#utility.yul\":3135:3448   */\n      swap3\n      swap2\n      pop\n      pop\n      jump\t// out\n        /* \"#utility.yul\":3454:3593   */\n    tag_406:\n        /* \"#utility.yul\":3546:3552   */\n      0x00\n        /* \"#utility.yul\":3580:3585   */\n      dup2\n        /* \"#utility.yul\":3574:3586   */\n      mload\n        /* \"#utility.yul\":3564:3586   */\n      swap1\n      pop\n        /* \"#utility.yul\":3454:3593   */\n      swap2\n      swap1\n      pop\n      jump\t// out\n        /* \"#utility.yul\":3599:3808   */\n    tag_407:\n        /* \"#utility.yul\":3723:3734   */\n      0x00\n        /* \"#utility.yul\":3757:3763   */\n      dup3\n        /* \"#utility.yul\":3752:3755   */\n      dup3\n        /* \"#utility.yul\":3745:3764   */\n      mstore\n        /* \"#utility.yul\":3797:3801   */\n      0x20\n        /* \"#utility.yul\":3792:3795   */\n      dup3\n        /* \"#utility.yul\":3788:3802   */\n      add\n        /* \"#utility.yul\":3773:3802   */\n      swap1\n      pop\n        /* \"#utility.yul\":3599:3808   */\n      swap3\n      swap2\n      pop\n      pop\n      jump\t// out\n        /* \"#utility.yul\":3814:3971   */\n    tag_408:\n        /* \"#utility.yul\":3906:3910   */\n      0x00\n        /* \"#utility.yul\":3929:3932   */\n      dup2\n        /* \"#utility.yul\":3921:3932   */\n      swap1\n      pop\n        /* \"#utility.yul\":3959:3963   */\n      0x20\n        /* \"#utility.yul\":3954:3957   */\n      dup3\n        /* \"#utility.yul\":3950:3964   */\n      add\n        /* \"#utility.yul\":3942:3964   */\n      swap1\n      pop\n        /* \"#utility.yul\":3814:3971   */\n      swap2\n      swap1\n      pop\n      jump\t// out\n        /* \"#utility.yul\":3977:4136   */\n    tag_409:\n        /* \"#utility.yul\":4051:4062   */\n      0x00\n        /* \"#utility.yul\":4085:4091   */\n      dup3\n        /* \"#utility.yul\":4080:4083   */\n      dup3\n        /* \"#utility.yul\":4073:4092   */\n      mstore\n        /* \"#utility.yul\":4125:4129   */\n      0x20\n        /* \"#utility.yul\":4120:4123   */\n      dup3\n        /* \"#utility.yul\":4116:4130   */\n      add\n        /* \"#utility.yul\":4101:4130   */\n      swap1\n      pop\n        /* \"#utility.yul\":3977:4136   */\n      swap3\n      swap2\n      pop\n      pop\n      jump\t// out\n        /* \"#utility.yul\":4142:4499   */\n    tag_410:\n        /* \"#utility.yul\":4220:4223   */\n      0x00\n        /* \"#utility.yul\":4248:4287   */\n      tag_536\n        /* \"#utility.yul\":4281:4286   */\n      dup3\n        /* \"#utility.yul\":4248:4287   */\n      tag_401\n      jump\t// in\n    tag_536:\n        /* \"#utility.yul\":4303:4364   */\n      tag_537\n        /* \"#utility.yul\":4357:4363   */\n      dup2\n        /* \"#utility.yul\":4352:4355   */\n      dup6\n        /* \"#utility.yul\":4303:4364   */\n      tag_409\n      jump\t// in\n    tag_537:\n        /* \"#utility.yul\":4296:4364   */\n      swap4\n      pop\n        /* \"#utility.yul\":4373:4438   */\n      tag_538\n        /* \"#utility.yul\":4431:4437   */\n      dup2\n        /* \"#utility.yul\":4426:4429   */\n      dup6\n        /* \"#utility.yul\":4419:4423   */\n      0x20\n        /* \"#utility.yul\":4412:4417   */\n      dup7\n        /* \"#utility.yul\":4408:4424   */\n      add\n        /* \"#utility.yul\":4373:4438   */\n      tag_403\n      jump\t// in\n    tag_538:\n        /* \"#utility.yul\":4463:4492   */\n      tag_539\n        /* \"#utility.yul\":4485:4491   */\n      dup2\n        /* \"#utility.yul\":4463:4492   */\n      tag_404\n      jump\t// in\n    tag_539:\n        /* \"#utility.yul\":4458:4461   */\n      dup5\n        /* \"#utility.yul\":4454:4493   */\n      add\n        /* \"#utility.yul\":4447:4493   */\n      swap2\n      pop\n        /* \"#utility.yul\":4224:4499   */\n      pop\n        /* \"#utility.yul\":4142:4499   */\n      swap3\n      swap2\n      pop\n      pop\n      jump\t// out\n        /* \"#utility.yul\":4505:4613   */\n    tag_411:\n        /* \"#utility.yul\":4582:4606   */\n      tag_541\n        /* \"#utility.yul\":4600:4605   */\n      dup2\n        /* \"#utility.yul\":4582:4606   */\n      tag_393\n      jump\t// in\n    tag_541:\n        /* \"#utility.yul\":4577:4580   */\n      dup3\n        /* \"#utility.yul\":4570:4607   */\n      mstore\n        /* \"#utility.yul\":4505:4613   */\n      pop\n      pop\n      jump\t// out\n        /* \"#utility.yul\":4675:5283   */\n    tag_412:\n        /* \"#utility.yul\":4784:4787   */\n      0x00\n        /* \"#utility.yul\":4820:4824   */\n      0x40\n        /* \"#utility.yul\":4815:4818   */\n      dup4\n        /* \"#utility.yul\":4811:4825   */\n      add\n        /* \"#utility.yul\":4914:4918   */\n      0x00\n        /* \"#utility.yul\":4907:4912   */\n      dup4\n        /* \"#utility.yul\":4903:4919   */\n      add\n        /* \"#utility.yul\":4897:4920   */\n      mload\n        /* \"#utility.yul\":4967:4970   */\n      dup5\n        /* \"#utility.yul\":4961:4965   */\n      dup3\n        /* \"#utility.yul\":4957:4971   */\n      sub\n        /* \"#utility.yul\":4950:4954   */\n      0x00\n        /* \"#utility.yul\":4945:4948   */\n      dup7\n        /* \"#utility.yul\":4941:4955   */\n      add\n        /* \"#utility.yul\":4934:4972   */\n      mstore\n        /* \"#utility.yul\":4993:5066   */\n      tag_543\n        /* \"#utility.yul\":5061:5065   */\n      dup3\n        /* \"#utility.yul\":5047:5059   */\n      dup3\n        /* \"#utility.yul\":4993:5066   */\n      tag_410\n      jump\t// in\n    tag_543:\n        /* \"#utility.yul\":4985:5066   */\n      swap2\n      pop\n        /* \"#utility.yul\":4835:5077   */\n      pop\n        /* \"#utility.yul\":5164:5168   */\n      0x20\n        /* \"#utility.yul\":5157:5162   */\n      dup4\n        /* \"#utility.yul\":5153:5169   */\n      add\n        /* \"#utility.yul\":5147:5170   */\n      mload\n        /* \"#utility.yul\":5183:5246   */\n      tag_544\n        /* \"#utility.yul\":5240:5244   */\n      0x20\n        /* \"#utility.yul\":5235:5238   */\n      dup7\n        /* \"#utility.yul\":5231:5245   */\n      add\n        /* \"#utility.yul\":5217:5229   */\n      dup3\n        /* \"#utility.yul\":5183:5246   */\n      tag_411\n      jump\t// in\n    tag_544:\n        /* \"#utility.yul\":5087:5256   */\n      pop\n        /* \"#utility.yul\":5273:5277   */\n      dup1\n        /* \"#utility.yul\":5266:5277   */\n      swap2\n      pop\n        /* \"#utility.yul\":4789:5283   */\n      pop\n        /* \"#utility.yul\":4675:5283   */\n      swap3\n      swap2\n      pop\n      pop\n      jump\t// out\n        /* \"#utility.yul\":5289:5545   */\n    tag_413:\n        /* \"#utility.yul\":5408:5418   */\n      0x00\n        /* \"#utility.yul\":5443:5539   */\n      tag_546\n        /* \"#utility.yul\":5535:5538   */\n      dup4\n        /* \"#utility.yul\":5527:5533   */\n      dup4\n        /* \"#utility.yul\":5443:5539   */\n      tag_412\n      jump\t// in\n    tag_546:\n        /* \"#utility.yul\":5429:5539   */\n      swap1\n      pop\n        /* \"#utility.yul\":5289:5545   */\n      swap3\n      swap2\n      pop\n      pop\n      jump\t// out\n        /* \"#utility.yul\":5551:5689   */\n    tag_414:\n        /* \"#utility.yul\":5646:5650   */\n      0x00\n        /* \"#utility.yul\":5678:5682   */\n      0x20\n        /* \"#utility.yul\":5673:5676   */\n      dup3\n        /* \"#utility.yul\":5669:5683   */\n      add\n        /* \"#utility.yul\":5661:5683   */\n      swap1\n      pop\n        /* \"#utility.yul\":5551:5689   */\n      swap2\n      swap1\n      pop\n      jump\t// out\n        /* \"#utility.yul\":5755:6866   */\n    tag_415:\n        /* \"#utility.yul\":5924:5927   */\n      0x00\n        /* \"#utility.yul\":5953:6032   */\n      tag_549\n        /* \"#utility.yul\":6026:6031   */\n      dup3\n        /* \"#utility.yul\":5953:6032   */\n      tag_406\n      jump\t// in\n    tag_549:\n        /* \"#utility.yul\":6048:6159   */\n      tag_550\n        /* \"#utility.yul\":6152:6158   */\n      dup2\n        /* \"#utility.yul\":6147:6150   */\n      dup6\n        /* \"#utility.yul\":6048:6159   */\n      tag_407\n      jump\t// in\n    tag_550:\n        /* \"#utility.yul\":6041:6159   */\n      swap4\n      pop\n        /* \"#utility.yul\":6185:6188   */\n      dup4\n        /* \"#utility.yul\":6230:6234   */\n      0x20\n        /* \"#utility.yul\":6222:6228   */\n      dup3\n        /* \"#utility.yul\":6218:6235   */\n      mul\n        /* \"#utility.yul\":6213:6216   */\n      dup6\n        /* \"#utility.yul\":6209:6236   */\n      add\n        /* \"#utility.yul\":6260:6341   */\n      tag_551\n        /* \"#utility.yul\":6335:6340   */\n      dup6\n        /* \"#utility.yul\":6260:6341   */\n      tag_408\n      jump\t// in\n    tag_551:\n        /* \"#utility.yul\":6364:6371   */\n      dup1\n        /* \"#utility.yul\":6395:6396   */\n      0x00\n        /* \"#utility.yul\":6380:6821   */\n    tag_552:\n        /* \"#utility.yul\":6405:6411   */\n      dup6\n        /* \"#utility.yul\":6402:6403   */\n      dup2\n        /* \"#utility.yul\":6399:6412   */\n      lt\n        /* \"#utility.yul\":6380:6821   */\n      iszero\n      tag_554\n      jumpi\n        /* \"#utility.yul\":6476:6485   */\n      dup5\n        /* \"#utility.yul\":6470:6474   */\n      dup5\n        /* \"#utility.yul\":6466:6486   */\n      sub\n        /* \"#utility.yul\":6461:6464   */\n      dup10\n        /* \"#utility.yul\":6454:6487   */\n      mstore\n        /* \"#utility.yul\":6527:6533   */\n      dup2\n        /* \"#utility.yul\":6521:6534   */\n      mload\n        /* \"#utility.yul\":6555:6669   */\n      tag_555\n        /* \"#utility.yul\":6664:6668   */\n      dup6\n        /* \"#utility.yul\":6649:6662   */\n      dup3\n        /* \"#utility.yul\":6555:6669   */\n      tag_413\n      jump\t// in\n    tag_555:\n        /* \"#utility.yul\":6547:6669   */\n      swap5\n      pop\n        /* \"#utility.yul\":6692:6777   */\n      tag_556\n        /* \"#utility.yul\":6770:6776   */\n      dup4\n        /* \"#utility.yul\":6692:6777   */\n      tag_414\n      jump\t// in\n    tag_556:\n        /* \"#utility.yul\":6682:6777   */\n      swap3\n      pop\n        /* \"#utility.yul\":6806:6810   */\n      0x20\n        /* \"#utility.yul\":6801:6804   */\n      dup11\n        /* \"#utility.yul\":6797:6811   */\n      add\n        /* \"#utility.yul\":6790:6811   */\n      swap10\n      pop\n        /* \"#utility.yul\":6440:6821   */\n      pop\n        /* \"#utility.yul\":6427:6428   */\n      0x01\n        /* \"#utility.yul\":6424:6425   */\n      dup2\n        /* \"#utility.yul\":6420:6429   */\n      add\n        /* \"#utility.yul\":6415:6429   */\n      swap1\n      pop\n        /* \"#utility.yul\":6380:6821   */\n      jump(tag_552)\n    tag_554:\n        /* \"#utility.yul\":6384:6398   */\n      pop\n        /* \"#utility.yul\":6837:6841   */\n      dup3\n        /* \"#utility.yul\":6830:6841   */\n      swap8\n      pop\n        /* \"#utility.yul\":6857:6860   */\n      dup8\n        /* \"#utility.yul\":6850:6860   */\n      swap6\n      pop\n        /* \"#utility.yul\":5929:6866   */\n      pop\n      pop\n      pop\n      pop\n      pop\n        /* \"#utility.yul\":5755:6866   */\n      swap3\n      swap2\n      pop\n      pop\n      jump\t// out\n        /* \"#utility.yul\":6872:7345   */\n    tag_53:\n        /* \"#utility.yul\":7065:7069   */\n      0x00\n        /* \"#utility.yul\":7103:7105   */\n      0x20\n        /* \"#utility.yul\":7092:7101   */\n      dup3\n        /* \"#utility.yul\":7088:7106   */\n      add\n        /* \"#utility.yul\":7080:7106   */\n      swap1\n      pop\n        /* \"#utility.yul\":7152:7161   */\n      dup2\n        /* \"#utility.yul\":7146:7150   */\n      dup2\n        /* \"#utility.yul\":7142:7162   */\n      sub\n        /* \"#utility.yul\":7138:7139   */\n      0x00\n        /* \"#utility.yul\":7127:7136   */\n      dup4\n        /* \"#utility.yul\":7123:7140   */\n      add\n        /* \"#utility.yul\":7116:7163   */\n      mstore\n        /* \"#utility.yul\":7180:7338   */\n      tag_558\n        /* \"#utility.yul\":7333:7337   */\n      dup2\n        /* \"#utility.yul\":7324:7330   */\n      dup5\n        /* \"#utility.yul\":7180:7338   */\n      tag_415\n      jump\t// in\n    tag_558:\n        /* \"#utility.yul\":7172:7338   */\n      swap1\n      pop\n        /* \"#utility.yul\":6872:7345   */\n      swap3\n      swap2\n      pop\n      pop\n      jump\t// out\n        /* \"#utility.yul\":7351:7531   */\n    tag_111:\n        /* \"#utility.yul\":7399:7476   */\n      0x4e487b7100000000000000000000000000000000000000000000000000000000\n        /* \"#utility.yul\":7396:7397   */\n      0x00\n        /* \"#utility.yul\":7389:7477   */\n      mstore\n        /* \"#utility.yul\":7496:7500   */\n      0x21\n        /* \"#utility.yul\":7493:7494   */\n      0x04\n        /* \"#utility.yul\":7486:7501   */\n      mstore\n        /* \"#utility.yul\":7520:7524   */\n      0x24\n        /* \"#utility.yul\":7517:7518   */\n      0x00\n        /* \"#utility.yul\":7510:7525   */\n      revert\n        /* \"#utility.yul\":7537:7660   */\n    tag_416:\n        /* \"#utility.yul\":7628:7629   */\n      0x06\n        /* \"#utility.yul\":7621:7626   */\n      dup2\n        /* \"#utility.yul\":7618:7630   */\n      lt\n        /* \"#utility.yul\":7608:7654   */\n      tag_561\n      jumpi\n        /* \"#utility.yul\":7634:7652   */\n      tag_562\n      tag_111\n      jump\t// in\n    tag_562:\n        /* \"#utility.yul\":7608:7654   */\n    tag_561:\n        /* \"#utility.yul\":7537:7660   */\n      pop\n      jump\t// out\n        /* \"#utility.yul\":7666:7813   */\n    tag_417:\n        /* \"#utility.yul\":7721:7728   */\n      0x00\n        /* \"#utility.yul\":7750:7755   */\n      dup2\n        /* \"#utility.yul\":7739:7755   */\n      swap1\n      pop\n        /* \"#utility.yul\":7756:7807   */\n      tag_564\n        /* \"#utility.yul\":7801:7806   */\n      dup3\n        /* \"#utility.yul\":7756:7807   */\n      tag_416\n      jump\t// in\n    tag_564:\n        /* \"#utility.yul\":7666:7813   */\n      swap2\n      swap1\n      pop\n      jump\t// out\n        /* \"#utility.yul\":7819:7966   */\n    tag_418:\n        /* \"#utility.yul\":7885:7894   */\n      0x00\n        /* \"#utility.yul\":7918:7960   */\n      tag_566\n        /* \"#utility.yul\":7954:7959   */\n      dup3\n        /* \"#utility.yul\":7918:7960   */\n      tag_417\n      jump\t// in\n    tag_566:\n        /* \"#utility.yul\":7905:7960   */\n      swap1\n      pop\n        /* \"#utility.yul\":7819:7966   */\n      swap2\n      swap1\n      pop\n      jump\t// out\n        /* \"#utility.yul\":7972:8135   */\n    tag_419:\n        /* \"#utility.yul\":8075:8128   */\n      tag_568\n        /* \"#utility.yul\":8122:8127   */\n      dup2\n        /* \"#utility.yul\":8075:8128   */\n      tag_418\n      jump\t// in\n    tag_568:\n        /* \"#utility.yul\":8070:8073   */\n      dup3\n        /* \"#utility.yul\":8063:8129   */\n      mstore\n        /* \"#utility.yul\":7972:8135   */\n      pop\n      pop\n      jump\t// out\n        /* \"#utility.yul\":8141:8395   */\n    tag_57:\n        /* \"#utility.yul\":8250:8254   */\n      0x00\n        /* \"#utility.yul\":8288:8290   */\n      0x20\n        /* \"#utility.yul\":8277:8286   */\n      dup3\n        /* \"#utility.yul\":8273:8291   */\n      add\n        /* \"#utility.yul\":8265:8291   */\n      swap1\n      pop\n        /* \"#utility.yul\":8301:8388   */\n      tag_570\n        /* \"#utility.yul\":8385:8386   */\n      0x00\n        /* \"#utility.yul\":8374:8383   */\n      dup4\n        /* \"#utility.yul\":8370:8387   */\n      add\n        /* \"#utility.yul\":8361:8367   */\n      dup5\n        /* \"#utility.yul\":8301:8388   */\n      tag_419\n      jump\t// in\n    tag_570:\n        /* \"#utility.yul\":8141:8395   */\n      swap3\n      swap2\n      pop\n      pop\n      jump\t// out\n        /* \"#utility.yul\":8457:9075   */\n    tag_420:\n        /* \"#utility.yul\":8576:8579   */\n      0x00\n        /* \"#utility.yul\":8612:8616   */\n      0x40\n        /* \"#utility.yul\":8607:8610   */\n      dup4\n        /* \"#utility.yul\":8603:8617   */\n      add\n        /* \"#utility.yul\":8706:8710   */\n      0x00\n        /* \"#utility.yul\":8699:8704   */\n      dup4\n        /* \"#utility.yul\":8695:8711   */\n      add\n        /* \"#utility.yul\":8689:8712   */\n      mload\n        /* \"#utility.yul\":8759:8762   */\n      dup5\n        /* \"#utility.yul\":8753:8757   */\n      dup3\n        /* \"#utility.yul\":8749:8763   */\n      sub\n        /* \"#utility.yul\":8742:8746   */\n      0x00\n        /* \"#utility.yul\":8737:8740   */\n      dup7\n        /* \"#utility.yul\":8733:8747   */\n      add\n        /* \"#utility.yul\":8726:8764   */\n      mstore\n        /* \"#utility.yul\":8785:8858   */\n      tag_572\n        /* \"#utility.yul\":8853:8857   */\n      dup3\n        /* \"#utility.yul\":8839:8851   */\n      dup3\n        /* \"#utility.yul\":8785:8858   */\n      tag_410\n      jump\t// in\n    tag_572:\n        /* \"#utility.yul\":8777:8858   */\n      swap2\n      pop\n        /* \"#utility.yul\":8627:8869   */\n      pop\n        /* \"#utility.yul\":8956:8960   */\n      0x20\n        /* \"#utility.yul\":8949:8954   */\n      dup4\n        /* \"#utility.yul\":8945:8961   */\n      add\n        /* \"#utility.yul\":8939:8962   */\n      mload\n        /* \"#utility.yul\":8975:9038   */\n      tag_573\n        /* \"#utility.yul\":9032:9036   */\n      0x20\n        /* \"#utility.yul\":9027:9030   */\n      dup7\n        /* \"#utility.yul\":9023:9037   */\n      add\n        /* \"#utility.yul\":9009:9021   */\n      dup3\n        /* \"#utility.yul\":8975:9038   */\n      tag_411\n      jump\t// in\n    tag_573:\n        /* \"#utility.yul\":8879:9048   */\n      pop\n        /* \"#utility.yul\":9065:9069   */\n      dup1\n        /* \"#utility.yul\":9058:9069   */\n      swap2\n      pop\n        /* \"#utility.yul\":8581:9075   */\n      pop\n        /* \"#utility.yul\":8457:9075   */\n      swap3\n      swap2\n      pop\n      pop\n      jump\t// out\n        /* \"#utility.yul\":9081:9454   */\n    tag_66:\n        /* \"#utility.yul\":9224:9228   */\n      0x00\n        /* \"#utility.yul\":9262:9264   */\n      0x20\n        /* \"#utility.yul\":9251:9260   */\n      dup3\n        /* \"#utility.yul\":9247:9265   */\n      add\n        /* \"#utility.yul\":9239:9265   */\n      swap1\n      pop\n        /* \"#utility.yul\":9311:9320   */\n      dup2\n        /* \"#utility.yul\":9305:9309   */\n      dup2\n        /* \"#utility.yul\":9301:9321   */\n      sub\n        /* \"#utility.yul\":9297:9298   */\n      0x00\n        /* \"#utility.yul\":9286:9295   */\n      dup4\n        /* \"#utility.yul\":9282:9299   */\n      add\n        /* \"#utility.yul\":9275:9322   */\n      mstore\n        /* \"#utility.yul\":9339:9447   */\n      tag_575\n        /* \"#utility.yul\":9442:9446   */\n      dup2\n        /* \"#utility.yul\":9433:9439   */\n      dup5\n        /* \"#utility.yul\":9339:9447   */\n      tag_420\n      jump\t// in\n    tag_575:\n        /* \"#utility.yul\":9331:9447   */\n      swap1\n      pop\n        /* \"#utility.yul\":9081:9454   */\n      swap3\n      swap2\n      pop\n      pop\n      jump\t// out\n        /* \"#utility.yul\":9460:9578   */\n    tag_421:\n        /* \"#utility.yul\":9547:9571   */\n      tag_577\n        /* \"#utility.yul\":9565:9570   */\n      dup2\n        /* \"#utility.yul\":9547:9571   */\n      tag_398\n      jump\t// in\n    tag_577:\n        /* \"#utility.yul\":9542:9545   */\n      dup3\n        /* \"#utility.yul\":9535:9572   */\n      mstore\n        /* \"#utility.yul\":9460:9578   */\n      pop\n      pop\n      jump\t// out\n        /* \"#utility.yul\":9584:9806   */\n    tag_70:\n        /* \"#utility.yul\":9677:9681   */\n      0x00\n        /* \"#utility.yul\":9715:9717   */\n      0x20\n        /* \"#utility.yul\":9704:9713   */\n      dup3\n        /* \"#utility.yul\":9700:9718   */\n      add\n        /* \"#utility.yul\":9692:9718   */\n      swap1\n      pop\n        /* \"#utility.yul\":9728:9799   */\n      tag_579\n        /* \"#utility.yul\":9796:9797   */\n      0x00\n        /* \"#utility.yul\":9785:9794   */\n      dup4\n        /* \"#utility.yul\":9781:9798   */\n      add\n        /* \"#utility.yul\":9772:9778   */\n      dup5\n        /* \"#utility.yul\":9728:9799   */\n      tag_421\n      jump\t// in\n    tag_579:\n        /* \"#utility.yul\":9584:9806   */\n      swap3\n      swap2\n      pop\n      pop\n      jump\t// out\n        /* \"#utility.yul\":9812:9929   */\n    tag_422:\n        /* \"#utility.yul\":9921:9922   */\n      0x00\n        /* \"#utility.yul\":9918:9919   */\n      0x00\n        /* \"#utility.yul\":9911:9923   */\n      revert\n        /* \"#utility.yul\":9935:10052   */\n    tag_423:\n        /* \"#utility.yul\":10044:10045   */\n      0x00\n        /* \"#utility.yul\":10041:10042   */\n      0x00\n        /* \"#utility.yul\":10034:10046   */\n      revert\n        /* \"#utility.yul\":10058:10238   */\n    tag_424:\n        /* \"#utility.yul\":10106:10183   */\n      0x4e487b7100000000000000000000000000000000000000000000000000000000\n        /* \"#utility.yul\":10103:10104   */\n      0x00\n        /* \"#utility.yul\":10096:10184   */\n      mstore\n        /* \"#utility.yul\":10203:10207   */\n      0x41\n        /* \"#utility.yul\":10200:10201   */\n      0x04\n        /* \"#utility.yul\":10193:10208   */\n      mstore\n        /* \"#utility.yul\":10227:10231   */\n      0x24\n        /* \"#utility.yul\":10224:10225   */\n      0x00\n        /* \"#utility.yul\":10217:10232   */\n      revert\n        /* \"#utility.yul\":10244:10525   */\n    tag_425:\n        /* \"#utility.yul\":10327:10354   */\n      tag_584\n        /* \"#utility.yul\":10349:10353   */\n      dup3\n        /* \"#utility.yul\":10327:10354   */\n      tag_404\n      jump\t// in\n    tag_584:\n        /* \"#utility.yul\":10319:10325   */\n      dup2\n        /* \"#utility.yul\":10315:10355   */\n      add\n        /* \"#utility.yul\":10457:10463   */\n      dup2\n        /* \"#utility.yul\":10445:10455   */\n      dup2\n        /* \"#utility.yul\":10442:10464   */\n      lt\n        /* \"#utility.yul\":10421:10439   */\n      0xffffffffffffffff\n        /* \"#utility.yul\":10409:10419   */\n      dup3\n        /* \"#utility.yul\":10406:10440   */\n      gt\n        /* \"#utility.yul\":10403:10465   */\n      or\n        /* \"#utility.yul\":10400:10488   */\n      iszero\n      tag_585\n      jumpi\n        /* \"#utility.yul\":10468:10486   */\n      tag_586\n      tag_424\n      jump\t// in\n    tag_586:\n        /* \"#utility.yul\":10400:10488   */\n    tag_585:\n        /* \"#utility.yul\":10508:10518   */\n      dup1\n        /* \"#utility.yul\":10504:10506   */\n      0x40\n        /* \"#utility.yul\":10497:10519   */\n      mstore\n        /* \"#utility.yul\":10287:10525   */\n      pop\n        /* \"#utility.yul\":10244:10525   */\n      pop\n      pop\n      jump\t// out\n        /* \"#utility.yul\":10531:10660   */\n    tag_426:\n        /* \"#utility.yul\":10565:10571   */\n      0x00\n        /* \"#utility.yul\":10592:10612   */\n      tag_588\n      tag_390\n      jump\t// in\n    tag_588:\n        /* \"#utility.yul\":10582:10612   */\n      swap1\n      pop\n        /* \"#utility.yul\":10621:10654   */\n      tag_589\n        /* \"#utility.yul\":10649:10653   */\n      dup3\n        /* \"#utility.yul\":10641:10647   */\n      dup3\n        /* \"#utility.yul\":10621:10654   */\n      tag_425\n      jump\t// in\n    tag_589:\n        /* \"#utility.yul\":10531:10660   */\n      swap2\n      swap1\n      pop\n      jump\t// out\n        /* \"#utility.yul\":10666:10974   */\n    tag_427:\n        /* \"#utility.yul\":10728:10732   */\n      0x00\n        /* \"#utility.yul\":10818:10836   */\n      0xffffffffffffffff\n        /* \"#utility.yul\":10810:10816   */\n      dup3\n        /* \"#utility.yul\":10807:10837   */\n      gt\n        /* \"#utility.yul\":10804:10860   */\n      iszero\n      tag_591\n      jumpi\n        /* \"#utility.yul\":10840:10858   */\n      tag_592\n      tag_424\n      jump\t// in\n    tag_592:\n        /* \"#utility.yul\":10804:10860   */\n    tag_591:\n        /* \"#utility.yul\":10878:10907   */\n      tag_593\n        /* \"#utility.yul\":10900:10906   */\n      dup3\n        /* \"#utility.yul\":10878:10907   */\n      tag_404\n      jump\t// in\n    tag_593:\n        /* \"#utility.yul\":10870:10907   */\n      swap1\n      pop\n        /* \"#utility.yul\":10962:10966   */\n      0x20\n        /* \"#utility.yul\":10956:10960   */\n      dup2\n        /* \"#utility.yul\":10952:10967   */\n      add\n        /* \"#utility.yul\":10944:10967   */\n      swap1\n      pop\n        /* \"#utility.yul\":10666:10974   */\n      swap2\n      swap1\n      pop\n      jump\t// out\n        /* \"#utility.yul\":10980:11128   */\n    tag_428:\n        /* \"#utility.yul\":11078:11084   */\n      dup3\n        /* \"#utility.yul\":11073:11076   */\n      dup2\n        /* \"#utility.yul\":11068:11071   */\n      dup4\n        /* \"#utility.yul\":11055:11085   */\n      calldatacopy\n        /* \"#utility.yul\":11119:11120   */\n      0x00\n        /* \"#utility.yul\":11110:11116   */\n      dup4\n        /* \"#utility.yul\":11105:11108   */\n      dup4\n        /* \"#utility.yul\":11101:11117   */\n      add\n        /* \"#utility.yul\":11094:11121   */\n      mstore\n        /* \"#utility.yul\":10980:11128   */\n      pop\n      pop\n      pop\n      jump\t// out\n        /* \"#utility.yul\":11134:11559   */\n    tag_429:\n        /* \"#utility.yul\":11212:11217   */\n      0x00\n        /* \"#utility.yul\":11237:11303   */\n      tag_596\n        /* \"#utility.yul\":11253:11302   */\n      tag_597\n        /* \"#utility.yul\":11295:11301   */\n      dup5\n        /* \"#utility.yul\":11253:11302   */\n      tag_427\n      jump\t// in\n    tag_597:\n        /* \"#utility.yul\":11237:11303   */\n      tag_426\n      jump\t// in\n    tag_596:\n        /* \"#utility.yul\":11228:11303   */\n      swap1\n      pop\n        /* \"#utility.yul\":11326:11332   */\n      dup3\n        /* \"#utility.yul\":11319:11324   */\n      dup2\n        /* \"#utility.yul\":11312:11333   */\n      mstore\n        /* \"#utility.yul\":11364:11368   */\n      0x20\n        /* \"#utility.yul\":11357:11362   */\n      dup2\n        /* \"#utility.yul\":11353:11369   */\n      add\n        /* \"#utility.yul\":11402:11405   */\n      dup5\n        /* \"#utility.yul\":11393:11399   */\n      dup5\n        /* \"#utility.yul\":11388:11391   */\n      dup5\n        /* \"#utility.yul\":11384:11400   */\n      add\n        /* \"#utility.yul\":11381:11406   */\n      gt\n        /* \"#utility.yul\":11378:11490   */\n      iszero\n      tag_598\n      jumpi\n        /* \"#utility.yul\":11409:11488   */\n      tag_599\n      tag_423\n      jump\t// in\n    tag_599:\n        /* \"#utility.yul\":11378:11490   */\n    tag_598:\n        /* \"#utility.yul\":11499:11553   */\n      tag_600\n        /* \"#utility.yul\":11546:11552   */\n      dup5\n        /* \"#utility.yul\":11541:11544   */\n      dup3\n        /* \"#utility.yul\":11536:11539   */\n      dup6\n        /* \"#utility.yul\":11499:11553   */\n      tag_428\n      jump\t// in\n    tag_600:\n        /* \"#utility.yul\":11218:11559   */\n      pop\n        /* \"#utility.yul\":11134:11559   */\n      swap4\n      swap3\n      pop\n      pop\n      pop\n      jump\t// out\n        /* \"#utility.yul\":11579:11919   */\n    tag_430:\n        /* \"#utility.yul\":11635:11640   */\n      0x00\n        /* \"#utility.yul\":11684:11687   */\n      dup3\n        /* \"#utility.yul\":11677:11681   */\n      0x1f\n        /* \"#utility.yul\":11669:11675   */\n      dup4\n        /* \"#utility.yul\":11665:11682   */\n      add\n        /* \"#utility.yul\":11661:11688   */\n      slt\n        /* \"#utility.yul\":11651:11773   */\n      tag_602\n      jumpi\n        /* \"#utility.yul\":11692:11771   */\n      tag_603\n      tag_422\n      jump\t// in\n    tag_603:\n        /* \"#utility.yul\":11651:11773   */\n    tag_602:\n        /* \"#utility.yul\":11809:11815   */\n      dup2\n        /* \"#utility.yul\":11796:11816   */\n      calldataload\n        /* \"#utility.yul\":11834:11913   */\n      tag_604\n        /* \"#utility.yul\":11909:11912   */\n      dup5\n        /* \"#utility.yul\":11901:11907   */\n      dup3\n        /* \"#utility.yul\":11894:11898   */\n      0x20\n        /* \"#utility.yul\":11886:11892   */\n      dup7\n        /* \"#utility.yul\":11882:11899   */\n      add\n        /* \"#utility.yul\":11834:11913   */\n      tag_429\n      jump\t// in\n    tag_604:\n        /* \"#utility.yul\":11825:11913   */\n      swap2\n      pop\n        /* \"#utility.yul\":11641:11919   */\n      pop\n        /* \"#utility.yul\":11579:11919   */\n      swap3\n      swap2\n      pop\n      pop\n      jump\t// out\n        /* \"#utility.yul\":11925:12434   */\n    tag_85:\n        /* \"#utility.yul\":11994:12000   */\n      0x00\n        /* \"#utility.yul\":12043:12045   */\n      0x20\n        /* \"#utility.yul\":12031:12040   */\n      dup3\n        /* \"#utility.yul\":12022:12029   */\n      dup5\n        /* \"#utility.yul\":12018:12041   */\n      sub\n        /* \"#utility.yul\":12014:12046   */\n      slt\n        /* \"#utility.yul\":12011:12130   */\n      iszero\n      tag_606\n      jumpi\n        /* \"#utility.yul\":12049:12128   */\n      tag_607\n      tag_391\n      jump\t// in\n    tag_607:\n        /* \"#utility.yul\":12011:12130   */\n    tag_606:\n        /* \"#utility.yul\":12197:12198   */\n      0x00\n        /* \"#utility.yul\":12186:12195   */\n      dup3\n        /* \"#utility.yul\":12182:12199   */\n      add\n        /* \"#utility.yul\":12169:12200   */\n      calldataload\n        /* \"#utility.yul\":12227:12245   */\n      0xffffffffffffffff\n        /* \"#utility.yul\":12219:12225   */\n      dup2\n        /* \"#utility.yul\":12216:12246   */\n      gt\n        /* \"#utility.yul\":12213:12330   */\n      iszero\n      tag_608\n      jumpi\n        /* \"#utility.yul\":12249:12328   */\n      tag_609\n      tag_392\n      jump\t// in\n    tag_609:\n        /* \"#utility.yul\":12213:12330   */\n    tag_608:\n        /* \"#utility.yul\":12354:12417   */\n      tag_610\n        /* \"#utility.yul\":12409:12416   */\n      dup5\n        /* \"#utility.yul\":12400:12406   */\n      dup3\n        /* \"#utility.yul\":12389:12398   */\n      dup6\n        /* \"#utility.yul\":12385:12407   */\n      add\n        /* \"#utility.yul\":12354:12417   */\n      tag_430\n      jump\t// in\n    tag_610:\n        /* \"#utility.yul\":12344:12417   */\n      swap2\n      pop\n        /* \"#utility.yul\":12140:12427   */\n      pop\n        /* \"#utility.yul\":11925:12434   */\n      swap3\n      swap2\n      pop\n      pop\n      jump\t// out\n        /* \"#utility.yul\":12440:12675   */\n    tag_431:\n        /* \"#utility.yul\":12580:12614   */\n      0x596f752063616e206f6e6c7920766f7465206966207468657265206973206d6f\n        /* \"#utility.yul\":12576:12577   */\n      0x00\n        /* \"#utility.yul\":12568:12574   */\n      dup3\n        /* \"#utility.yul\":12564:12578   */\n      add\n        /* \"#utility.yul\":12557:12615   */\n      mstore\n        /* \"#utility.yul\":12649:12667   */\n      0x7265207468616e20312077696e6e657200000000000000000000000000000000\n        /* \"#utility.yul\":12644:12646   */\n      0x20\n        /* \"#utility.yul\":12636:12642   */\n      dup3\n        /* \"#utility.yul\":12632:12647   */\n      add\n        /* \"#utility.yul\":12625:12668   */\n      mstore\n        /* \"#utility.yul\":12440:12675   */\n      pop\n      jump\t// out\n        /* \"#utility.yul\":12681:13047   */\n    tag_432:\n        /* \"#utility.yul\":12823:12826   */\n      0x00\n        /* \"#utility.yul\":12844:12911   */\n      tag_613\n        /* \"#utility.yul\":12908:12910   */\n      0x30\n        /* \"#utility.yul\":12903:12906   */\n      dup4\n        /* \"#utility.yul\":12844:12911   */\n      tag_402\n      jump\t// in\n    tag_613:\n        /* \"#utility.yul\":12837:12911   */\n      swap2\n      pop\n        /* \"#utility.yul\":12920:13013   */\n      tag_614\n        /* \"#utility.yul\":13009:13012   */\n      dup3\n        /* \"#utility.yul\":12920:13013   */\n      tag_431\n      jump\t// in\n    tag_614:\n        /* \"#utility.yul\":13038:13040   */\n      0x40\n        /* \"#utility.yul\":13033:13036   */\n      dup3\n        /* \"#utility.yul\":13029:13041   */\n      add\n        /* \"#utility.yul\":13022:13041   */\n      swap1\n      pop\n        /* \"#utility.yul\":12681:13047   */\n      swap2\n      swap1\n      pop\n      jump\t// out\n        /* \"#utility.yul\":13053:13472   */\n    tag_107:\n        /* \"#utility.yul\":13219:13223   */\n      0x00\n        /* \"#utility.yul\":13257:13259   */\n      0x20\n        /* \"#utility.yul\":13246:13255   */\n      dup3\n        /* \"#utility.yul\":13242:13260   */\n      add\n        /* \"#utility.yul\":13234:13260   */\n      swap1\n      pop\n        /* \"#utility.yul\":13306:13315   */\n      dup2\n        /* \"#utility.yul\":13300:13304   */\n      dup2\n        /* \"#utility.yul\":13296:13316   */\n      sub\n        /* \"#utility.yul\":13292:13293   */\n      0x00\n        /* \"#utility.yul\":13281:13290   */\n      dup4\n        /* \"#utility.yul\":13277:13294   */\n      add\n        /* \"#utility.yul\":13270:13317   */\n      mstore\n        /* \"#utility.yul\":13334:13465   */\n      tag_616\n        /* \"#utility.yul\":13460:13464   */\n      dup2\n        /* \"#utility.yul\":13334:13465   */\n      tag_432\n      jump\t// in\n    tag_616:\n        /* \"#utility.yul\":13326:13465   */\n      swap1\n      pop\n        /* \"#utility.yul\":13053:13472   */\n      swap2\n      swap1\n      pop\n      jump\t// out\n        /* \"#utility.yul\":13478:13698   */\n    tag_433:\n        /* \"#utility.yul\":13618:13652   */\n      0x54686520766f74696e672073657373696f6e206973206e6f7420737461727465\n        /* \"#utility.yul\":13614:13615   */\n      0x00\n        /* \"#utility.yul\":13606:13612   */\n      dup3\n        /* \"#utility.yul\":13602:13616   */\n      add\n        /* \"#utility.yul\":13595:13653   */\n      mstore\n        /* \"#utility.yul\":13687:13690   */\n      0x6400000000000000000000000000000000000000000000000000000000000000\n        /* \"#utility.yul\":13682:13684   */\n      0x20\n        /* \"#utility.yul\":13674:13680   */\n      dup3\n        /* \"#utility.yul\":13670:13685   */\n      add\n        /* \"#utility.yul\":13663:13691   */\n      mstore\n        /* \"#utility.yul\":13478:13698   */\n      pop\n      jump\t// out\n        /* \"#utility.yul\":13704:14070   */\n    tag_434:\n        /* \"#utility.yul\":13846:13849   */\n      0x00\n        /* \"#utility.yul\":13867:13934   */\n      tag_619\n        /* \"#utility.yul\":13931:13933   */\n      0x21\n        /* \"#utility.yul\":13926:13929   */\n      dup4\n        /* \"#utility.yul\":13867:13934   */\n      tag_402\n      jump\t// in\n    tag_619:\n        /* \"#utility.yul\":13860:13934   */\n      swap2\n      pop\n        /* \"#utility.yul\":13943:14036   */\n      tag_620\n        /* \"#utility.yul\":14032:14035   */\n      dup3\n        /* \"#utility.yul\":13943:14036   */\n      tag_433\n      jump\t// in\n    tag_620:\n        /* \"#utility.yul\":14061:14063   */\n      0x40\n        /* \"#utility.yul\":14056:14059   */\n      dup3\n        /* \"#utility.yul\":14052:14064   */\n      add\n        /* \"#utility.yul\":14045:14064   */\n      swap1\n      pop\n        /* \"#utility.yul\":13704:14070   */\n      swap2\n      swap1\n      pop\n      jump\t// out\n        /* \"#utility.yul\":14076:14495   */\n    tag_116:\n        /* \"#utility.yul\":14242:14246   */\n      0x00\n        /* \"#utility.yul\":14280:14282   */\n      0x20\n        /* \"#utility.yul\":14269:14278   */\n      dup3\n        /* \"#utility.yul\":14265:14283   */\n      add\n        /* \"#utility.yul\":14257:14283   */\n      swap1\n      pop\n        /* \"#utility.yul\":14329:14338   */\n      dup2\n        /* \"#utility.yul\":14323:14327   */\n      dup2\n        /* \"#utility.yul\":14319:14339   */\n      sub\n        /* \"#utility.yul\":14315:14316   */\n      0x00\n        /* \"#utility.yul\":14304:14313   */\n      dup4\n        /* \"#utility.yul\":14300:14317   */\n      add\n        /* \"#utility.yul\":14293:14340   */\n      mstore\n        /* \"#utility.yul\":14357:14488   */\n      tag_622\n        /* \"#utility.yul\":14483:14487   */\n      dup2\n        /* \"#utility.yul\":14357:14488   */\n      tag_434\n      jump\t// in\n    tag_622:\n        /* \"#utility.yul\":14349:14488   */\n      swap1\n      pop\n        /* \"#utility.yul\":14076:14495   */\n      swap2\n      swap1\n      pop\n      jump\t// out\n        /* \"#utility.yul\":14501:14673   */\n    tag_435:\n        /* \"#utility.yul\":14641:14665   */\n      0x596f7520617265206e6f74207265676973746572656400000000000000000000\n        /* \"#utility.yul\":14637:14638   */\n      0x00\n        /* \"#utility.yul\":14629:14635   */\n      dup3\n        /* \"#utility.yul\":14625:14639   */\n      add\n        /* \"#utility.yul\":14618:14666   */\n      mstore\n        /* \"#utility.yul\":14501:14673   */\n      pop\n      jump\t// out\n        /* \"#utility.yul\":14679:15045   */\n    tag_436:\n        /* \"#utility.yul\":14821:14824   */\n      0x00\n        /* \"#utility.yul\":14842:14909   */\n      tag_625\n        /* \"#utility.yul\":14906:14908   */\n      0x16\n        /* \"#utility.yul\":14901:14904   */\n      dup4\n        /* \"#utility.yul\":14842:14909   */\n      tag_402\n      jump\t// in\n    tag_625:\n        /* \"#utility.yul\":14835:14909   */\n      swap2\n      pop\n        /* \"#utility.yul\":14918:15011   */\n      tag_626\n        /* \"#utility.yul\":15007:15010   */\n      dup3\n        /* \"#utility.yul\":14918:15011   */\n      tag_435\n      jump\t// in\n    tag_626:\n        /* \"#utility.yul\":15036:15038   */\n      0x20\n        /* \"#utility.yul\":15031:15034   */\n      dup3\n        /* \"#utility.yul\":15027:15039   */\n      add\n        /* \"#utility.yul\":15020:15039   */\n      swap1\n      pop\n        /* \"#utility.yul\":14679:15045   */\n      swap2\n      swap1\n      pop\n      jump\t// out\n        /* \"#utility.yul\":15051:15470   */\n    tag_119:\n        /* \"#utility.yul\":15217:15221   */\n      0x00\n        /* \"#utility.yul\":15255:15257   */\n      0x20\n        /* \"#utility.yul\":15244:15253   */\n      dup3\n        /* \"#utility.yul\":15240:15258   */\n      add\n        /* \"#utility.yul\":15232:15258   */\n      swap1\n      pop\n        /* \"#utility.yul\":15304:15313   */\n      dup2\n        /* \"#utility.yul\":15298:15302   */\n      dup2\n        /* \"#utility.yul\":15294:15314   */\n      sub\n        /* \"#utility.yul\":15290:15291   */\n      0x00\n        /* \"#utility.yul\":15279:15288   */\n      dup4\n        /* \"#utility.yul\":15275:15292   */\n      add\n        /* \"#utility.yul\":15268:15315   */\n      mstore\n        /* \"#utility.yul\":15332:15463   */\n      tag_628\n        /* \"#utility.yul\":15458:15462   */\n      dup2\n        /* \"#utility.yul\":15332:15463   */\n      tag_436\n      jump\t// in\n    tag_628:\n        /* \"#utility.yul\":15324:15463   */\n      swap1\n      pop\n        /* \"#utility.yul\":15051:15470   */\n      swap2\n      swap1\n      pop\n      jump\t// out\n        /* \"#utility.yul\":15476:15643   */\n    tag_437:\n        /* \"#utility.yul\":15616:15635   */\n      0x596f7520616c726561647920766f746564000000000000000000000000000000\n        /* \"#utility.yul\":15612:15613   */\n      0x00\n        /* \"#utility.yul\":15604:15610   */\n      dup3\n        /* \"#utility.yul\":15600:15614   */\n      add\n        /* \"#utility.yul\":15593:15636   */\n      mstore\n        /* \"#utility.yul\":15476:15643   */\n      pop\n      jump\t// out\n        /* \"#utility.yul\":15649:16015   */\n    tag_438:\n        /* \"#utility.yul\":15791:15794   */\n      0x00\n        /* \"#utility.yul\":15812:15879   */\n      tag_631\n        /* \"#utility.yul\":15876:15878   */\n      0x11\n        /* \"#utility.yul\":15871:15874   */\n      dup4\n        /* \"#utility.yul\":15812:15879   */\n      tag_402\n      jump\t// in\n    tag_631:\n        /* \"#utility.yul\":15805:15879   */\n      swap2\n      pop\n        /* \"#utility.yul\":15888:15981   */\n      tag_632\n        /* \"#utility.yul\":15977:15980   */\n      dup3\n        /* \"#utility.yul\":15888:15981   */\n      tag_437\n      jump\t// in\n    tag_632:\n        /* \"#utility.yul\":16006:16008   */\n      0x20\n        /* \"#utility.yul\":16001:16004   */\n      dup3\n        /* \"#utility.yul\":15997:16009   */\n      add\n        /* \"#utility.yul\":15990:16009   */\n      swap1\n      pop\n        /* \"#utility.yul\":15649:16015   */\n      swap2\n      swap1\n      pop\n      jump\t// out\n        /* \"#utility.yul\":16021:16440   */\n    tag_122:\n        /* \"#utility.yul\":16187:16191   */\n      0x00\n        /* \"#utility.yul\":16225:16227   */\n      0x20\n        /* \"#utility.yul\":16214:16223   */\n      dup3\n        /* \"#utility.yul\":16210:16228   */\n      add\n        /* \"#utility.yul\":16202:16228   */\n      swap1\n      pop\n        /* \"#utility.yul\":16274:16283   */\n      dup2\n        /* \"#utility.yul\":16268:16272   */\n      dup2\n        /* \"#utility.yul\":16264:16284   */\n      sub\n        /* \"#utility.yul\":16260:16261   */\n      0x00\n        /* \"#utility.yul\":16249:16258   */\n      dup4\n        /* \"#utility.yul\":16245:16262   */\n      add\n        /* \"#utility.yul\":16238:16285   */\n      mstore\n        /* \"#utility.yul\":16302:16433   */\n      tag_634\n        /* \"#utility.yul\":16428:16432   */\n      dup2\n        /* \"#utility.yul\":16302:16433   */\n      tag_438\n      jump\t// in\n    tag_634:\n        /* \"#utility.yul\":16294:16433   */\n      swap1\n      pop\n        /* \"#utility.yul\":16021:16440   */\n      swap2\n      swap1\n      pop\n      jump\t// out\n        /* \"#utility.yul\":16446:16628   */\n    tag_439:\n        /* \"#utility.yul\":16586:16620   */\n      0x546869732070726f706f73616c20494420646f6573206e6f7420657869737473\n        /* \"#utility.yul\":16582:16583   */\n      0x00\n        /* \"#utility.yul\":16574:16580   */\n      dup3\n        /* \"#utility.yul\":16570:16584   */\n      add\n        /* \"#utility.yul\":16563:16621   */\n      mstore\n        /* \"#utility.yul\":16446:16628   */\n      pop\n      jump\t// out\n        /* \"#utility.yul\":16634:17000   */\n    tag_440:\n        /* \"#utility.yul\":16776:16779   */\n      0x00\n        /* \"#utility.yul\":16797:16864   */\n      tag_637\n        /* \"#utility.yul\":16861:16863   */\n      0x20\n        /* \"#utility.yul\":16856:16859   */\n      dup4\n        /* \"#utility.yul\":16797:16864   */\n      tag_402\n      jump\t// in\n    tag_637:\n        /* \"#utility.yul\":16790:16864   */\n      swap2\n      pop\n        /* \"#utility.yul\":16873:16966   */\n      tag_638\n        /* \"#utility.yul\":16962:16965   */\n      dup3\n        /* \"#utility.yul\":16873:16966   */\n      tag_439\n      jump\t// in\n    tag_638:\n        /* \"#utility.yul\":16991:16993   */\n      0x20\n        /* \"#utility.yul\":16986:16989   */\n      dup3\n        /* \"#utility.yul\":16982:16994   */\n      add\n        /* \"#utility.yul\":16975:16994   */\n      swap1\n      pop\n        /* \"#utility.yul\":16634:17000   */\n      swap2\n      swap1\n      pop\n      jump\t// out\n        /* \"#utility.yul\":17006:17425   */\n    tag_126:\n        /* \"#utility.yul\":17172:17176   */\n      0x00\n        /* \"#utility.yul\":17210:17212   */\n      0x20\n        /* \"#utility.yul\":17199:17208   */\n      dup3\n        /* \"#utility.yul\":17195:17213   */\n      add\n        /* \"#utility.yul\":17187:17213   */\n      swap1\n      pop\n        /* \"#utility.yul\":17259:17268   */\n      dup2\n        /* \"#utility.yul\":17253:17257   */\n      dup2\n        /* \"#utility.yul\":17249:17269   */\n      sub\n        /* \"#utility.yul\":17245:17246   */\n      0x00\n        /* \"#utility.yul\":17234:17243   */\n      dup4\n        /* \"#utility.yul\":17230:17247   */\n      add\n        /* \"#utility.yul\":17223:17270   */\n      mstore\n        /* \"#utility.yul\":17287:17418   */\n      tag_640\n        /* \"#utility.yul\":17413:17417   */\n      dup2\n        /* \"#utility.yul\":17287:17418   */\n      tag_440\n      jump\t// in\n    tag_640:\n        /* \"#utility.yul\":17279:17418   */\n      swap1\n      pop\n        /* \"#utility.yul\":17006:17425   */\n      swap2\n      swap1\n      pop\n      jump\t// out\n        /* \"#utility.yul\":17431:17611   */\n    tag_129:\n        /* \"#utility.yul\":17479:17556   */\n      0x4e487b7100000000000000000000000000000000000000000000000000000000\n        /* \"#utility.yul\":17476:17477   */\n      0x00\n        /* \"#utility.yul\":17469:17557   */\n      mstore\n        /* \"#utility.yul\":17576:17580   */\n      0x32\n        /* \"#utility.yul\":17573:17574   */\n      0x04\n        /* \"#utility.yul\":17566:17581   */\n      mstore\n        /* \"#utility.yul\":17600:17604   */\n      0x24\n        /* \"#utility.yul\":17597:17598   */\n      0x00\n        /* \"#utility.yul\":17590:17605   */\n      revert\n        /* \"#utility.yul\":17617:17797   */\n    tag_441:\n        /* \"#utility.yul\":17665:17742   */\n      0x4e487b7100000000000000000000000000000000000000000000000000000000\n        /* \"#utility.yul\":17662:17663   */\n      0x00\n        /* \"#utility.yul\":17655:17743   */\n      mstore\n        /* \"#utility.yul\":17762:17766   */\n      0x11\n        /* \"#utility.yul\":17759:17760   */\n      0x04\n        /* \"#utility.yul\":17752:17767   */\n      mstore\n        /* \"#utility.yul\":17786:17790   */\n      0x24\n        /* \"#utility.yul\":17783:17784   */\n      0x00\n        /* \"#utility.yul\":17776:17791   */\n      revert\n        /* \"#utility.yul\":17803:18036   */\n    tag_132:\n        /* \"#utility.yul\":17842:17845   */\n      0x00\n        /* \"#utility.yul\":17865:17889   */\n      tag_644\n        /* \"#utility.yul\":17883:17888   */\n      dup3\n        /* \"#utility.yul\":17865:17889   */\n      tag_393\n      jump\t// in\n    tag_644:\n        /* \"#utility.yul\":17856:17889   */\n      swap2\n      pop\n        /* \"#utility.yul\":17911:17977   */\n      0xffffffffffffffffffffffffffffffffffffffffffffffffffffffffffffffff\n        /* \"#utility.yul\":17904:17909   */\n      dup3\n        /* \"#utility.yul\":17901:17978   */\n      sub\n        /* \"#utility.yul\":17898:18001   */\n      tag_645\n      jumpi\n        /* \"#utility.yul\":17981:17999   */\n      tag_646\n      tag_441\n      jump\t// in\n    tag_646:\n        /* \"#utility.yul\":17898:18001   */\n    tag_645:\n        /* \"#utility.yul\":18028:18029   */\n      0x01\n        /* \"#utility.yul\":18021:18026   */\n      dup3\n        /* \"#utility.yul\":18017:18030   */\n      add\n        /* \"#utility.yul\":18010:18030   */\n      swap1\n      pop\n        /* \"#utility.yul\":17803:18036   */\n      swap2\n      swap1\n      pop\n      jump\t// out\n        /* \"#utility.yul\":18042:18374   */\n    tag_135:\n        /* \"#utility.yul\":18163:18167   */\n      0x00\n        /* \"#utility.yul\":18201:18203   */\n      0x40\n        /* \"#utility.yul\":18190:18199   */\n      dup3\n        /* \"#utility.yul\":18186:18204   */\n      add\n        /* \"#utility.yul\":18178:18204   */\n      swap1\n      pop\n        /* \"#utility.yul\":18214:18285   */\n      tag_648\n        /* \"#utility.yul\":18282:18283   */\n      0x00\n        /* \"#utility.yul\":18271:18280   */\n      dup4\n        /* \"#utility.yul\":18267:18284   */\n      add\n        /* \"#utility.yul\":18258:18264   */\n      dup6\n        /* \"#utility.yul\":18214:18285   */\n      tag_421\n      jump\t// in\n    tag_648:\n        /* \"#utility.yul\":18295:18367   */\n      tag_649\n        /* \"#utility.yul\":18363:18365   */\n      0x20\n        /* \"#utility.yul\":18352:18361   */\n      dup4\n        /* \"#utility.yul\":18348:18366   */\n      add\n        /* \"#utility.yul\":18339:18345   */\n      dup5\n        /* \"#utility.yul\":18295:18367   */\n      tag_396\n      jump\t// in\n    tag_649:\n        /* \"#utility.yul\":18042:18374   */\n      swap4\n      swap3\n      pop\n      pop\n      pop\n      jump\t// out\n        /* \"#utility.yul\":18380:18607   */\n    tag_442:\n        /* \"#utility.yul\":18520:18554   */\n      0x596f7520617265206e6f7420696e20766f74657220726567697374726174696f\n        /* \"#utility.yul\":18516:18517   */\n      0x00\n        /* \"#utility.yul\":18508:18514   */\n      dup3\n        /* \"#utility.yul\":18504:18518   */\n      add\n        /* \"#utility.yul\":18497:18555   */\n      mstore\n        /* \"#utility.yul\":18589:18599   */\n      0x6e20706572696f64000000000000000000000000000000000000000000000000\n        /* \"#utility.yul\":18584:18586   */\n      0x20\n        /* \"#utility.yul\":18576:18582   */\n      dup3\n        /* \"#utility.yul\":18572:18587   */\n      add\n        /* \"#utility.yul\":18565:18600   */\n      mstore\n        /* \"#utility.yul\":18380:18607   */\n      pop\n      jump\t// out\n        /* \"#utility.yul\":18613:18979   */\n    tag_443:\n        /* \"#utility.yul\":18755:18758   */\n      0x00\n        /* \"#utility.yul\":18776:18843   */\n      tag_652\n        /* \"#utility.yul\":18840:18842   */\n      0x28\n        /* \"#utility.yul\":18835:18838   */\n      dup4\n        /* \"#utility.yul\":18776:18843   */\n      tag_402\n      jump\t// in\n    tag_652:\n        /* \"#utility.yul\":18769:18843   */\n      swap2\n      pop\n        /* \"#utility.yul\":18852:18945   */\n      tag_653\n        /* \"#utility.yul\":18941:18944   */\n      dup3\n        /* \"#utility.yul\":18852:18945   */\n      tag_442\n      jump\t// in\n    tag_653:\n        /* \"#utility.yul\":18970:18972   */\n      0x40\n        /* \"#utility.yul\":18965:18968   */\n      dup3\n        /* \"#utility.yul\":18961:18973   */\n      add\n        /* \"#utility.yul\":18954:18973   */\n      swap1\n      pop\n        /* \"#utility.yul\":18613:18979   */\n      swap2\n      swap1\n      pop\n      jump\t// out\n        /* \"#utility.yul\":18985:19404   */\n    tag_147:\n        /* \"#utility.yul\":19151:19155   */\n      0x00\n        /* \"#utility.yul\":19189:19191   */\n      0x20\n        /* \"#utility.yul\":19178:19187   */\n      dup3\n        /* \"#utility.yul\":19174:19192   */\n      add\n        /* \"#utility.yul\":19166:19192   */\n      swap1\n      pop\n        /* \"#utility.yul\":19238:19247   */\n      dup2\n        /* \"#utility.yul\":19232:19236   */\n      dup2\n        /* \"#utility.yul\":19228:19248   */\n      sub\n        /* \"#utility.yul\":19224:19225   */\n      0x00\n        /* \"#utility.yul\":19213:19222   */\n      dup4\n        /* \"#utility.yul\":19209:19226   */\n      add\n        /* \"#utility.yul\":19202:19249   */\n      mstore\n        /* \"#utility.yul\":19266:19397   */\n      tag_655\n        /* \"#utility.yul\":19392:19396   */\n      dup2\n        /* \"#utility.yul\":19266:19397   */\n      tag_443\n      jump\t// in\n    tag_655:\n        /* \"#utility.yul\":19258:19397   */\n      swap1\n      pop\n        /* \"#utility.yul\":18985:19404   */\n      swap2\n      swap1\n      pop\n      jump\t// out\n        /* \"#utility.yul\":19410:19592   */\n    tag_444:\n        /* \"#utility.yul\":19550:19584   */\n      0x596f7520616c7265616479206861766520616464207468697320616472657373\n        /* \"#utility.yul\":19546:19547   */\n      0x00\n        /* \"#utility.yul\":19538:19544   */\n      dup3\n        /* \"#utility.yul\":19534:19548   */\n      add\n        /* \"#utility.yul\":19527:19585   */\n      mstore\n        /* \"#utility.yul\":19410:19592   */\n      pop\n      jump\t// out\n        /* \"#utility.yul\":19598:19964   */\n    tag_445:\n        /* \"#utility.yul\":19740:19743   */\n      0x00\n        /* \"#utility.yul\":19761:19828   */\n      tag_658\n        /* \"#utility.yul\":19825:19827   */\n      0x20\n        /* \"#utility.yul\":19820:19823   */\n      dup4\n        /* \"#utility.yul\":19761:19828   */\n      tag_402\n      jump\t// in\n    tag_658:\n        /* \"#utility.yul\":19754:19828   */\n      swap2\n      pop\n        /* \"#utility.yul\":19837:19930   */\n      tag_659\n        /* \"#utility.yul\":19926:19929   */\n      dup3\n        /* \"#utility.yul\":19837:19930   */\n      tag_444\n      jump\t// in\n    tag_659:\n        /* \"#utility.yul\":19955:19957   */\n      0x20\n        /* \"#utility.yul\":19950:19953   */\n      dup3\n        /* \"#utility.yul\":19946:19958   */\n      add\n        /* \"#utility.yul\":19939:19958   */\n      swap1\n      pop\n        /* \"#utility.yul\":19598:19964   */\n      swap2\n      swap1\n      pop\n      jump\t// out\n        /* \"#utility.yul\":19970:20389   */\n    tag_150:\n        /* \"#utility.yul\":20136:20140   */\n      0x00\n        /* \"#utility.yul\":20174:20176   */\n      0x20\n        /* \"#utility.yul\":20163:20172   */\n      dup3\n        /* \"#utility.yul\":20159:20177   */\n      add\n        /* \"#utility.yul\":20151:20177   */\n      swap1\n      pop\n        /* \"#utility.yul\":20223:20232   */\n      dup2\n        /* \"#utility.yul\":20217:20221   */\n      dup2\n        /* \"#utility.yul\":20213:20233   */\n      sub\n        /* \"#utility.yul\":20209:20210   */\n      0x00\n        /* \"#utility.yul\":20198:20207   */\n      dup4\n        /* \"#utility.yul\":20194:20211   */\n      add\n        /* \"#utility.yul\":20187:20234   */\n      mstore\n        /* \"#utility.yul\":20251:20382   */\n      tag_661\n        /* \"#utility.yul\":20377:20381   */\n      dup2\n        /* \"#utility.yul\":20251:20382   */\n      tag_445\n      jump\t// in\n    tag_661:\n        /* \"#utility.yul\":20243:20382   */\n      swap1\n      pop\n        /* \"#utility.yul\":19970:20389   */\n      swap2\n      swap1\n      pop\n      jump\t// out\n        /* \"#utility.yul\":20395:20618   */\n    tag_446:\n        /* \"#utility.yul\":20535:20569   */\n      0x5468652077696e6e65722068617665206e6f74206265656e2063686f6f73656e\n        /* \"#utility.yul\":20531:20532   */\n      0x00\n        /* \"#utility.yul\":20523:20529   */\n      dup3\n        /* \"#utility.yul\":20519:20533   */\n      add\n        /* \"#utility.yul\":20512:20570   */\n      mstore\n        /* \"#utility.yul\":20604:20610   */\n      0x2079657400000000000000000000000000000000000000000000000000000000\n        /* \"#utility.yul\":20599:20601   */\n      0x20\n        /* \"#utility.yul\":20591:20597   */\n      dup3\n        /* \"#utility.yul\":20587:20602   */\n      add\n        /* \"#utility.yul\":20580:20611   */\n      mstore\n        /* \"#utility.yul\":20395:20618   */\n      pop\n      jump\t// out\n        /* \"#utility.yul\":20624:20990   */\n    tag_447:\n        /* \"#utility.yul\":20766:20769   */\n      0x00\n        /* \"#utility.yul\":20787:20854   */\n      tag_664\n        /* \"#utility.yul\":20851:20853   */\n      0x24\n        /* \"#utility.yul\":20846:20849   */\n      dup4\n        /* \"#utility.yul\":20787:20854   */\n      tag_402\n      jump\t// in\n    tag_664:\n        /* \"#utility.yul\":20780:20854   */\n      swap2\n      pop\n        /* \"#utility.yul\":20863:20956   */\n      tag_665\n        /* \"#utility.yul\":20952:20955   */\n      dup3\n        /* \"#utility.yul\":20863:20956   */\n      tag_446\n      jump\t// in\n    tag_665:\n        /* \"#utility.yul\":20981:20983   */\n      0x40\n        /* \"#utility.yul\":20976:20979   */\n      dup3\n        /* \"#utility.yul\":20972:20984   */\n      add\n        /* \"#utility.yul\":20965:20984   */\n      swap1\n      pop\n        /* \"#utility.yul\":20624:20990   */\n      swap2\n      swap1\n      pop\n      jump\t// out\n        /* \"#utility.yul\":20996:21415   */\n    tag_160:\n        /* \"#utility.yul\":21162:21166   */\n      0x00\n        /* \"#utility.yul\":21200:21202   */\n      0x20\n        /* \"#utility.yul\":21189:21198   */\n      dup3\n        /* \"#utility.yul\":21185:21203   */\n      add\n        /* \"#utility.yul\":21177:21203   */\n      swap1\n      pop\n        /* \"#utility.yul\":21249:21258   */\n      dup2\n        /* \"#utility.yul\":21243:21247   */\n      dup2\n        /* \"#utility.yul\":21239:21259   */\n      sub\n        /* \"#utility.yul\":21235:21236   */\n      0x00\n        /* \"#utility.yul\":21224:21233   */\n      dup4\n        /* \"#utility.yul\":21220:21237   */\n      add\n        /* \"#utility.yul\":21213:21260   */\n      mstore\n        /* \"#utility.yul\":21277:21408   */\n      tag_667\n        /* \"#utility.yul\":21403:21407   */\n      dup2\n        /* \"#utility.yul\":21277:21408   */\n      tag_447\n      jump\t// in\n    tag_667:\n        /* \"#utility.yul\":21269:21408   */\n      swap1\n      pop\n        /* \"#utility.yul\":20996:21415   */\n      swap2\n      swap1\n      pop\n      jump\t// out\n        /* \"#utility.yul\":21421:21601   */\n    tag_448:\n        /* \"#utility.yul\":21469:21546   */\n      0x4e487b7100000000000000000000000000000000000000000000000000000000\n        /* \"#utility.yul\":21466:21467   */\n      0x00\n        /* \"#utility.yul\":21459:21547   */\n      mstore\n        /* \"#utility.yul\":21566:21570   */\n      0x22\n        /* \"#utility.yul\":21563:21564   */\n      0x04\n        /* \"#utility.yul\":21556:21571   */\n      mstore\n        /* \"#utility.yul\":21590:21594   */\n      0x24\n        /* \"#utility.yul\":21587:21588   */\n      0x00\n        /* \"#utility.yul\":21580:21595   */\n      revert\n        /* \"#utility.yul\":21607:21927   */\n    tag_165:\n        /* \"#utility.yul\":21651:21657   */\n      0x00\n        /* \"#utility.yul\":21688:21689   */\n      0x02\n        /* \"#utility.yul\":21682:21686   */\n      dup3\n        /* \"#utility.yul\":21678:21690   */\n      div\n        /* \"#utility.yul\":21668:21690   */\n      swap1\n      pop\n        /* \"#utility.yul\":21735:21736   */\n      0x01\n        /* \"#utility.yul\":21729:21733   */\n      dup3\n        /* \"#utility.yul\":21725:21737   */\n      and\n        /* \"#utility.yul\":21756:21774   */\n      dup1\n        /* \"#utility.yul\":21746:21827   */\n      tag_670\n      jumpi\n        /* \"#utility.yul\":21812:21816   */\n      0x7f\n        /* \"#utility.yul\":21804:21810   */\n      dup3\n        /* \"#utility.yul\":21800:21817   */\n      and\n        /* \"#utility.yul\":21790:21817   */\n      swap2\n      pop\n        /* \"#utility.yul\":21746:21827   */\n    tag_670:\n        /* \"#utility.yul\":21874:21876   */\n      0x20\n        /* \"#utility.yul\":21866:21872   */\n      dup3\n        /* \"#utility.yul\":21863:21877   */\n      lt\n        /* \"#utility.yul\":21843:21861   */\n      dup2\n        /* \"#utility.yul\":21840:21878   */\n      sub\n        /* \"#utility.yul\":21837:21921   */\n      tag_671\n      jumpi\n        /* \"#utility.yul\":21893:21911   */\n      tag_672\n      tag_448\n      jump\t// in\n    tag_672:\n        /* \"#utility.yul\":21837:21921   */\n    tag_671:\n        /* \"#utility.yul\":21658:21927   */\n      pop\n        /* \"#utility.yul\":21607:21927   */\n      swap2\n      swap1\n      pop\n      jump\t// out\n        /* \"#utility.yul\":21933:22164   */\n    tag_449:\n        /* \"#utility.yul\":22073:22107   */\n      0x596f752063616e206e6f7420737461727420616761696e207468652070726f70\n        /* \"#utility.yul\":22069:22070   */\n      0x00\n        /* \"#utility.yul\":22061:22067   */\n      dup3\n        /* \"#utility.yul\":22057:22071   */\n      add\n        /* \"#utility.yul\":22050:22108   */\n      mstore\n        /* \"#utility.yul\":22142:22156   */\n      0x6f73616c2073657373696f6e0000000000000000000000000000000000000000\n        /* \"#utility.yul\":22137:22139   */\n      0x20\n        /* \"#utility.yul\":22129:22135   */\n      dup3\n        /* \"#utility.yul\":22125:22140   */\n      add\n        /* \"#utility.yul\":22118:22157   */\n      mstore\n        /* \"#utility.yul\":21933:22164   */\n      pop\n      jump\t// out\n        /* \"#utility.yul\":22170:22536   */\n    tag_450:\n        /* \"#utility.yul\":22312:22315   */\n      0x00\n        /* \"#utility.yul\":22333:22400   */\n      tag_675\n        /* \"#utility.yul\":22397:22399   */\n      0x2c\n        /* \"#utility.yul\":22392:22395   */\n      dup4\n        /* \"#utility.yul\":22333:22400   */\n      tag_402\n      jump\t// in\n    tag_675:\n        /* \"#utility.yul\":22326:22400   */\n      swap2\n      pop\n        /* \"#utility.yul\":22409:22502   */\n      tag_676\n        /* \"#utility.yul\":22498:22501   */\n      dup3\n        /* \"#utility.yul\":22409:22502   */\n      tag_449\n      jump\t// in\n    tag_676:\n        /* \"#utility.yul\":22527:22529   */\n      0x40\n        /* \"#utility.yul\":22522:22525   */\n      dup3\n        /* \"#utility.yul\":22518:22530   */\n      add\n        /* \"#utility.yul\":22511:22530   */\n      swap1\n      pop\n        /* \"#utility.yul\":22170:22536   */\n      swap2\n      swap1\n      pop\n      jump\t// out\n        /* \"#utility.yul\":22542:22961   */\n    tag_179:\n        /* \"#utility.yul\":22708:22712   */\n      0x00\n        /* \"#utility.yul\":22746:22748   */\n      0x20\n        /* \"#utility.yul\":22735:22744   */\n      dup3\n        /* \"#utility.yul\":22731:22749   */\n      add\n        /* \"#utility.yul\":22723:22749   */\n      swap1\n      pop\n        /* \"#utility.yul\":22795:22804   */\n      dup2\n        /* \"#utility.yul\":22789:22793   */\n      dup2\n        /* \"#utility.yul\":22785:22805   */\n      sub\n        /* \"#utility.yul\":22781:22782   */\n      0x00\n        /* \"#utility.yul\":22770:22779   */\n      dup4\n        /* \"#utility.yul\":22766:22783   */\n      add\n        /* \"#utility.yul\":22759:22806   */\n      mstore\n        /* \"#utility.yul\":22823:22954   */\n      tag_678\n        /* \"#utility.yul\":22949:22953   */\n      dup2\n        /* \"#utility.yul\":22823:22954   */\n      tag_450\n      jump\t// in\n    tag_678:\n        /* \"#utility.yul\":22815:22954   */\n      swap1\n      pop\n        /* \"#utility.yul\":22542:22961   */\n      swap2\n      swap1\n      pop\n      jump\t// out\n        /* \"#utility.yul\":22967:23192   */\n    tag_451:\n        /* \"#utility.yul\":23107:23141   */\n      0x596f75206d757374207265676973746572206174206c65617374203220616464\n        /* \"#utility.yul\":23103:23104   */\n      0x00\n        /* \"#utility.yul\":23095:23101   */\n      dup3\n        /* \"#utility.yul\":23091:23105   */\n      add\n        /* \"#utility.yul\":23084:23142   */\n      mstore\n        /* \"#utility.yul\":23176:23184   */\n      0x7265737365730000000000000000000000000000000000000000000000000000\n        /* \"#utility.yul\":23171:23173   */\n      0x20\n        /* \"#utility.yul\":23163:23169   */\n      dup3\n        /* \"#utility.yul\":23159:23174   */\n      add\n        /* \"#utility.yul\":23152:23185   */\n      mstore\n        /* \"#utility.yul\":22967:23192   */\n      pop\n      jump\t// out\n        /* \"#utility.yul\":23198:23564   */\n    tag_452:\n        /* \"#utility.yul\":23340:23343   */\n      0x00\n        /* \"#utility.yul\":23361:23428   */\n      tag_681\n        /* \"#utility.yul\":23425:23427   */\n      0x26\n        /* \"#utility.yul\":23420:23423   */\n      dup4\n        /* \"#utility.yul\":23361:23428   */\n      tag_402\n      jump\t// in\n    tag_681:\n        /* \"#utility.yul\":23354:23428   */\n      swap2\n      pop\n        /* \"#utility.yul\":23437:23530   */\n      tag_682\n        /* \"#utility.yul\":23526:23529   */\n      dup3\n        /* \"#utility.yul\":23437:23530   */\n      tag_451\n      jump\t// in\n    tag_682:\n        /* \"#utility.yul\":23555:23557   */\n      0x40\n        /* \"#utility.yul\":23550:23553   */\n      dup3\n        /* \"#utility.yul\":23546:23558   */\n      add\n        /* \"#utility.yul\":23539:23558   */\n      swap1\n      pop\n        /* \"#utility.yul\":23198:23564   */\n      swap2\n      swap1\n      pop\n      jump\t// out\n        /* \"#utility.yul\":23570:23989   */\n    tag_182:\n        /* \"#utility.yul\":23736:23740   */\n      0x00\n        /* \"#utility.yul\":23774:23776   */\n      0x20\n        /* \"#utility.yul\":23763:23772   */\n      dup3\n        /* \"#utility.yul\":23759:23777   */\n      add\n        /* \"#utility.yul\":23751:23777   */\n      swap1\n      pop\n        /* \"#utility.yul\":23823:23832   */\n      dup2\n        /* \"#utility.yul\":23817:23821   */\n      dup2\n        /* \"#utility.yul\":23813:23833   */\n      sub\n        /* \"#utility.yul\":23809:23810   */\n      0x00\n        /* \"#utility.yul\":23798:23807   */\n      dup4\n        /* \"#utility.yul\":23794:23811   */\n      add\n        /* \"#utility.yul\":23787:23834   */\n      mstore\n        /* \"#utility.yul\":23851:23982   */\n      tag_684\n        /* \"#utility.yul\":23977:23981   */\n      dup2\n        /* \"#utility.yul\":23851:23982   */\n      tag_452\n      jump\t// in\n    tag_684:\n        /* \"#utility.yul\":23843:23982   */\n      swap1\n      pop\n        /* \"#utility.yul\":23570:23989   */\n      swap2\n      swap1\n      pop\n      jump\t// out\n        /* \"#utility.yul\":23995:24189   */\n    tag_188:\n        /* \"#utility.yul\":24035:24039   */\n      0x00\n        /* \"#utility.yul\":24055:24075   */\n      tag_686\n        /* \"#utility.yul\":24073:24074   */\n      dup3\n        /* \"#utility.yul\":24055:24075   */\n      tag_393\n      jump\t// in\n    tag_686:\n        /* \"#utility.yul\":24050:24075   */\n      swap2\n      pop\n        /* \"#utility.yul\":24089:24109   */\n      tag_687\n        /* \"#utility.yul\":24107:24108   */\n      dup4\n        /* \"#utility.yul\":24089:24109   */\n      tag_393\n      jump\t// in\n    tag_687:\n        /* \"#utility.yul\":24084:24109   */\n      swap3\n      pop\n        /* \"#utility.yul\":24133:24134   */\n      dup3\n        /* \"#utility.yul\":24130:24131   */\n      dup3\n        /* \"#utility.yul\":24126:24135   */\n      sub\n        /* \"#utility.yul\":24118:24135   */\n      swap1\n      pop\n        /* \"#utility.yul\":24157:24158   */\n      dup2\n        /* \"#utility.yul\":24151:24155   */\n      dup2\n        /* \"#utility.yul\":24148:24159   */\n      gt\n        /* \"#utility.yul\":24145:24182   */\n      iszero\n      tag_688\n      jumpi\n        /* \"#utility.yul\":24162:24180   */\n      tag_689\n      tag_441\n      jump\t// in\n    tag_689:\n        /* \"#utility.yul\":24145:24182   */\n    tag_688:\n        /* \"#utility.yul\":23995:24189   */\n      swap3\n      swap2\n      pop\n      pop\n      jump\t// out\n        /* \"#utility.yul\":24195:24591   */\n    tag_192:\n        /* \"#utility.yul\":24348:24352   */\n      0x00\n        /* \"#utility.yul\":24386:24388   */\n      0x40\n        /* \"#utility.yul\":24375:24384   */\n      dup3\n        /* \"#utility.yul\":24371:24389   */\n      add\n        /* \"#utility.yul\":24363:24389   */\n      swap1\n      pop\n        /* \"#utility.yul\":24399:24486   */\n      tag_691\n        /* \"#utility.yul\":24483:24484   */\n      0x00\n        /* \"#utility.yul\":24472:24481   */\n      dup4\n        /* \"#utility.yul\":24468:24485   */\n      add\n        /* \"#utility.yul\":24459:24465   */\n      dup6\n        /* \"#utility.yul\":24399:24486   */\n      tag_419\n      jump\t// in\n    tag_691:\n        /* \"#utility.yul\":24496:24584   */\n      tag_692\n        /* \"#utility.yul\":24580:24582   */\n      0x20\n        /* \"#utility.yul\":24569:24578   */\n      dup4\n        /* \"#utility.yul\":24565:24583   */\n      add\n        /* \"#utility.yul\":24556:24562   */\n      dup5\n        /* \"#utility.yul\":24496:24584   */\n      tag_419\n      jump\t// in\n    tag_692:\n        /* \"#utility.yul\":24195:24591   */\n      swap4\n      swap3\n      pop\n      pop\n      pop\n      jump\t// out\n        /* \"#utility.yul\":24597:24776   */\n    tag_453:\n        /* \"#utility.yul\":24737:24768   */\n      0x54686520766f74652073657373696f6e206973206e6f7420656e646564000000\n        /* \"#utility.yul\":24733:24734   */\n      0x00\n        /* \"#utility.yul\":24725:24731   */\n      dup3\n        /* \"#utility.yul\":24721:24735   */\n      add\n        /* \"#utility.yul\":24714:24769   */\n      mstore\n        /* \"#utility.yul\":24597:24776   */\n      pop\n      jump\t// out\n        /* \"#utility.yul\":24782:25148   */\n    tag_454:\n        /* \"#utility.yul\":24924:24927   */\n      0x00\n        /* \"#utility.yul\":24945:25012   */\n      tag_695\n        /* \"#utility.yul\":25009:25011   */\n      0x1d\n        /* \"#utility.yul\":25004:25007   */\n      dup4\n        /* \"#utility.yul\":24945:25012   */\n      tag_402\n      jump\t// in\n    tag_695:\n        /* \"#utility.yul\":24938:25012   */\n      swap2\n      pop\n        /* \"#utility.yul\":25021:25114   */\n      tag_696\n        /* \"#utility.yul\":25110:25113   */\n      dup3\n        /* \"#utility.yul\":25021:25114   */\n      tag_453\n      jump\t// in\n    tag_696:\n        /* \"#utility.yul\":25139:25141   */\n      0x20\n        /* \"#utility.yul\":25134:25137   */\n      dup3\n        /* \"#utility.yul\":25130:25142   */\n      add\n        /* \"#utility.yul\":25123:25142   */\n      swap1\n      pop\n        /* \"#utility.yul\":24782:25148   */\n      swap2\n      swap1\n      pop\n      jump\t// out\n        /* \"#utility.yul\":25154:25573   */\n    tag_224:\n        /* \"#utility.yul\":25320:25324   */\n      0x00\n        /* \"#utility.yul\":25358:25360   */\n      0x20\n        /* \"#utility.yul\":25347:25356   */\n      dup3\n        /* \"#utility.yul\":25343:25361   */\n      add\n        /* \"#utility.yul\":25335:25361   */\n      swap1\n      pop\n        /* \"#utility.yul\":25407:25416   */\n      dup2\n        /* \"#utility.yul\":25401:25405   */\n      dup2\n        /* \"#utility.yul\":25397:25417   */\n      sub\n        /* \"#utility.yul\":25393:25394   */\n      0x00\n        /* \"#utility.yul\":25382:25391   */\n      dup4\n        /* \"#utility.yul\":25378:25395   */\n      add\n        /* \"#utility.yul\":25371:25418   */\n      mstore\n        /* \"#utility.yul\":25435:25566   */\n      tag_698\n        /* \"#utility.yul\":25561:25565   */\n      dup2\n        /* \"#utility.yul\":25435:25566   */\n      tag_454\n      jump\t// in\n    tag_698:\n        /* \"#utility.yul\":25427:25566   */\n      swap1\n      pop\n        /* \"#utility.yul\":25154:25573   */\n      swap2\n      swap1\n      pop\n      jump\t// out\n        /* \"#utility.yul\":25579:25811   */\n    tag_455:\n        /* \"#utility.yul\":25719:25753   */\n      0x5468657265206973206d6f7265207468616e20312077696e6e65722c20796f75\n        /* \"#utility.yul\":25715:25716   */\n      0x00\n        /* \"#utility.yul\":25707:25713   */\n      dup3\n        /* \"#utility.yul\":25703:25717   */\n      add\n        /* \"#utility.yul\":25696:25754   */\n      mstore\n        /* \"#utility.yul\":25788:25803   */\n      0x206861766520746f20766f746500000000000000000000000000000000000000\n        /* \"#utility.yul\":25783:25785   */\n      0x20\n        /* \"#utility.yul\":25775:25781   */\n      dup3\n        /* \"#utility.yul\":25771:25786   */\n      add\n        /* \"#utility.yul\":25764:25804   */\n      mstore\n        /* \"#utility.yul\":25579:25811   */\n      pop\n      jump\t// out\n        /* \"#utility.yul\":25817:26183   */\n    tag_456:\n        /* \"#utility.yul\":25959:25962   */\n      0x00\n        /* \"#utility.yul\":25980:26047   */\n      tag_701\n        /* \"#utility.yul\":26044:26046   */\n      0x2d\n        /* \"#utility.yul\":26039:26042   */\n      dup4\n        /* \"#utility.yul\":25980:26047   */\n      tag_402\n      jump\t// in\n    tag_701:\n        /* \"#utility.yul\":25973:26047   */\n      swap2\n      pop\n        /* \"#utility.yul\":26056:26149   */\n      tag_702\n        /* \"#utility.yul\":26145:26148   */\n      dup3\n        /* \"#utility.yul\":26056:26149   */\n      tag_455\n      jump\t// in\n    tag_702:\n        /* \"#utility.yul\":26174:26176   */\n      0x40\n        /* \"#utility.yul\":26169:26172   */\n      dup3\n        /* \"#utility.yul\":26165:26177   */\n      add\n        /* \"#utility.yul\":26158:26177   */\n      swap1\n      pop\n        /* \"#utility.yul\":25817:26183   */\n      swap2\n      swap1\n      pop\n      jump\t// out\n        /* \"#utility.yul\":26189:26608   */\n    tag_227:\n        /* \"#utility.yul\":26355:26359   */\n      0x00\n        /* \"#utility.yul\":26393:26395   */\n      0x20\n        /* \"#utility.yul\":26382:26391   */\n      dup3\n        /* \"#utility.yul\":26378:26396   */\n      add\n        /* \"#utility.yul\":26370:26396   */\n      swap1\n      pop\n        /* \"#utility.yul\":26442:26451   */\n      dup2\n        /* \"#utility.yul\":26436:26440   */\n      dup2\n        /* \"#utility.yul\":26432:26452   */\n      sub\n        /* \"#utility.yul\":26428:26429   */\n      0x00\n        /* \"#utility.yul\":26417:26426   */\n      dup4\n        /* \"#utility.yul\":26413:26430   */\n      add\n        /* \"#utility.yul\":26406:26453   */\n      mstore\n        /* \"#utility.yul\":26470:26601   */\n      tag_704\n        /* \"#utility.yul\":26596:26600   */\n      dup2\n        /* \"#utility.yul\":26470:26601   */\n      tag_456\n      jump\t// in\n    tag_704:\n        /* \"#utility.yul\":26462:26601   */\n      swap1\n      pop\n        /* \"#utility.yul\":26189:26608   */\n      swap2\n      swap1\n      pop\n      jump\t// out\n        /* \"#utility.yul\":26614:26794   */\n    tag_457:\n        /* \"#utility.yul\":26754:26786   */\n      0x546869732061646472657373206973206e6f7420726567697374657265640000\n        /* \"#utility.yul\":26750:26751   */\n      0x00\n        /* \"#utility.yul\":26742:26748   */\n      dup3\n        /* \"#utility.yul\":26738:26752   */\n      add\n        /* \"#utility.yul\":26731:26787   */\n      mstore\n        /* \"#utility.yul\":26614:26794   */\n      pop\n      jump\t// out\n        /* \"#utility.yul\":26800:27166   */\n    tag_458:\n        /* \"#utility.yul\":26942:26945   */\n      0x00\n        /* \"#utility.yul\":26963:27030   */\n      tag_707\n        /* \"#utility.yul\":27027:27029   */\n      0x1e\n        /* \"#utility.yul\":27022:27025   */\n      dup4\n        /* \"#utility.yul\":26963:27030   */\n      tag_402\n      jump\t// in\n    tag_707:\n        /* \"#utility.yul\":26956:27030   */\n      swap2\n      pop\n        /* \"#utility.yul\":27039:27132   */\n      tag_708\n        /* \"#utility.yul\":27128:27131   */\n      dup3\n        /* \"#utility.yul\":27039:27132   */\n      tag_457\n      jump\t// in\n    tag_708:\n        /* \"#utility.yul\":27157:27159   */\n      0x20\n        /* \"#utility.yul\":27152:27155   */\n      dup3\n        /* \"#utility.yul\":27148:27160   */\n      add\n        /* \"#utility.yul\":27141:27160   */\n      swap1\n      pop\n        /* \"#utility.yul\":26800:27166   */\n      swap2\n      swap1\n      pop\n      jump\t// out\n        /* \"#utility.yul\":27172:27591   */\n    tag_246:\n        /* \"#utility.yul\":27338:27342   */\n      0x00\n        /* \"#utility.yul\":27376:27378   */\n      0x20\n        /* \"#utility.yul\":27365:27374   */\n      dup3\n        /* \"#utility.yul\":27361:27379   */\n      add\n        /* \"#utility.yul\":27353:27379   */\n      swap1\n      pop\n        /* \"#utility.yul\":27425:27434   */\n      dup2\n        /* \"#utility.yul\":27419:27423   */\n      dup2\n        /* \"#utility.yul\":27415:27435   */\n      sub\n        /* \"#utility.yul\":27411:27412   */\n      0x00\n        /* \"#utility.yul\":27400:27409   */\n      dup4\n        /* \"#utility.yul\":27396:27413   */\n      add\n        /* \"#utility.yul\":27389:27436   */\n      mstore\n        /* \"#utility.yul\":27453:27584   */\n      tag_710\n        /* \"#utility.yul\":27579:27583   */\n      dup2\n        /* \"#utility.yul\":27453:27584   */\n      tag_458\n      jump\t// in\n    tag_710:\n        /* \"#utility.yul\":27445:27584   */\n      swap1\n      pop\n        /* \"#utility.yul\":27172:27591   */\n      swap2\n      swap1\n      pop\n      jump\t// out\n        /* \"#utility.yul\":27597:27773   */\n    tag_459:\n        /* \"#utility.yul\":27737:27765   */\n      0x54686973206164647265737320686173206e6f7420766f746564000000000000\n        /* \"#utility.yul\":27733:27734   */\n      0x00\n        /* \"#utility.yul\":27725:27731   */\n      dup3\n        /* \"#utility.yul\":27721:27735   */\n      add\n        /* \"#utility.yul\":27714:27766   */\n      mstore\n        /* \"#utility.yul\":27597:27773   */\n      pop\n      jump\t// out\n        /* \"#utility.yul\":27779:28145   */\n    tag_460:\n        /* \"#utility.yul\":27921:27924   */\n      0x00\n        /* \"#utility.yul\":27942:28009   */\n      tag_713\n        /* \"#utility.yul\":28006:28008   */\n      0x1a\n        /* \"#utility.yul\":28001:28004   */\n      dup4\n        /* \"#utility.yul\":27942:28009   */\n      tag_402\n      jump\t// in\n    tag_713:\n        /* \"#utility.yul\":27935:28009   */\n      swap2\n      pop\n        /* \"#utility.yul\":28018:28111   */\n      tag_714\n        /* \"#utility.yul\":28107:28110   */\n      dup3\n        /* \"#utility.yul\":28018:28111   */\n      tag_459\n      jump\t// in\n    tag_714:\n        /* \"#utility.yul\":28136:28138   */\n      0x20\n        /* \"#utility.yul\":28131:28134   */\n      dup3\n        /* \"#utility.yul\":28127:28139   */\n      add\n        /* \"#utility.yul\":28120:28139   */\n      swap1\n      pop\n        /* \"#utility.yul\":27779:28145   */\n      swap2\n      swap1\n      pop\n      jump\t// out\n        /* \"#utility.yul\":28151:28570   */\n    tag_249:\n        /* \"#utility.yul\":28317:28321   */\n      0x00\n        /* \"#utility.yul\":28355:28357   */\n      0x20\n        /* \"#utility.yul\":28344:28353   */\n      dup3\n        /* \"#utility.yul\":28340:28358   */\n      add\n        /* \"#utility.yul\":28332:28358   */\n      swap1\n      pop\n        /* \"#utility.yul\":28404:28413   */\n      dup2\n        /* \"#utility.yul\":28398:28402   */\n      dup2\n        /* \"#utility.yul\":28394:28414   */\n      sub\n        /* \"#utility.yul\":28390:28391   */\n      0x00\n        /* \"#utility.yul\":28379:28388   */\n      dup4\n        /* \"#utility.yul\":28375:28392   */\n      add\n        /* \"#utility.yul\":28368:28415   */\n      mstore\n        /* \"#utility.yul\":28432:28563   */\n      tag_716\n        /* \"#utility.yul\":28558:28562   */\n      dup2\n        /* \"#utility.yul\":28432:28563   */\n      tag_460\n      jump\t// in\n    tag_716:\n        /* \"#utility.yul\":28424:28563   */\n      swap1\n      pop\n        /* \"#utility.yul\":28151:28570   */\n      swap2\n      swap1\n      pop\n      jump\t// out\n        /* \"#utility.yul\":28576:28798   */\n    tag_461:\n        /* \"#utility.yul\":28716:28750   */\n      0x5468652070726f706f73616c2073657373696f6e206973206e6f742073746172\n        /* \"#utility.yul\":28712:28713   */\n      0x00\n        /* \"#utility.yul\":28704:28710   */\n      dup3\n        /* \"#utility.yul\":28700:28714   */\n      add\n        /* \"#utility.yul\":28693:28751   */\n      mstore\n        /* \"#utility.yul\":28785:28790   */\n      0x7465640000000000000000000000000000000000000000000000000000000000\n        /* \"#utility.yul\":28780:28782   */\n      0x20\n        /* \"#utility.yul\":28772:28778   */\n      dup3\n        /* \"#utility.yul\":28768:28783   */\n      add\n        /* \"#utility.yul\":28761:28791   */\n      mstore\n        /* \"#utility.yul\":28576:28798   */\n      pop\n      jump\t// out\n        /* \"#utility.yul\":28804:29170   */\n    tag_462:\n        /* \"#utility.yul\":28946:28949   */\n      0x00\n        /* \"#utility.yul\":28967:29034   */\n      tag_719\n        /* \"#utility.yul\":29031:29033   */\n      0x23\n        /* \"#utility.yul\":29026:29029   */\n      dup4\n        /* \"#utility.yul\":28967:29034   */\n      tag_402\n      jump\t// in\n    tag_719:\n        /* \"#utility.yul\":28960:29034   */\n      swap2\n      pop\n        /* \"#utility.yul\":29043:29136   */\n      tag_720\n        /* \"#utility.yul\":29132:29135   */\n      dup3\n        /* \"#utility.yul\":29043:29136   */\n      tag_461\n      jump\t// in\n    tag_720:\n        /* \"#utility.yul\":29161:29163   */\n      0x40\n        /* \"#utility.yul\":29156:29159   */\n      dup3\n        /* \"#utility.yul\":29152:29164   */\n      add\n        /* \"#utility.yul\":29145:29164   */\n      swap1\n      pop\n        /* \"#utility.yul\":28804:29170   */\n      swap2\n      swap1\n      pop\n      jump\t// out\n        /* \"#utility.yul\":29176:29595   */\n    tag_285:\n        /* \"#utility.yul\":29342:29346   */\n      0x00\n        /* \"#utility.yul\":29380:29382   */\n      0x20\n        /* \"#utility.yul\":29369:29378   */\n      dup3\n        /* \"#utility.yul\":29365:29383   */\n      add\n        /* \"#utility.yul\":29357:29383   */\n      swap1\n      pop\n        /* \"#utility.yul\":29429:29438   */\n      dup2\n        /* \"#utility.yul\":29423:29427   */\n      dup2\n        /* \"#utility.yul\":29419:29439   */\n      sub\n        /* \"#utility.yul\":29415:29416   */\n      0x00\n        /* \"#utility.yul\":29404:29413   */\n      dup4\n        /* \"#utility.yul\":29400:29417   */\n      add\n        /* \"#utility.yul\":29393:29440   */\n      mstore\n        /* \"#utility.yul\":29457:29588   */\n      tag_722\n        /* \"#utility.yul\":29583:29587   */\n      dup2\n        /* \"#utility.yul\":29457:29588   */\n      tag_462\n      jump\t// in\n    tag_722:\n        /* \"#utility.yul\":29449:29588   */\n      swap1\n      pop\n        /* \"#utility.yul\":29176:29595   */\n      swap2\n      swap1\n      pop\n      jump\t// out\n        /* \"#utility.yul\":29601:29843   */\n    tag_463:\n        /* \"#utility.yul\":29741:29775   */\n      0x596f752061726520746865206f776e6572206f66207468697320636f6e747261\n        /* \"#utility.yul\":29737:29738   */\n      0x00\n        /* \"#utility.yul\":29729:29735   */\n      dup3\n        /* \"#utility.yul\":29725:29739   */\n      add\n        /* \"#utility.yul\":29718:29776   */\n      mstore\n        /* \"#utility.yul\":29810:29835   */\n      0x63742c20796f752063616e206e6f742070726f706f7365000000000000000000\n        /* \"#utility.yul\":29805:29807   */\n      0x20\n        /* \"#utility.yul\":29797:29803   */\n      dup3\n        /* \"#utility.yul\":29793:29808   */\n      add\n        /* \"#utility.yul\":29786:29836   */\n      mstore\n        /* \"#utility.yul\":29601:29843   */\n      pop\n      jump\t// out\n        /* \"#utility.yul\":29849:30215   */\n    tag_464:\n        /* \"#utility.yul\":29991:29994   */\n      0x00\n        /* \"#utility.yul\":30012:30079   */\n      tag_725\n        /* \"#utility.yul\":30076:30078   */\n      0x37\n        /* \"#utility.yul\":30071:30074   */\n      dup4\n        /* \"#utility.yul\":30012:30079   */\n      tag_402\n      jump\t// in\n    tag_725:\n        /* \"#utility.yul\":30005:30079   */\n      swap2\n      pop\n        /* \"#utility.yul\":30088:30181   */\n      tag_726\n        /* \"#utility.yul\":30177:30180   */\n      dup3\n        /* \"#utility.yul\":30088:30181   */\n      tag_463\n      jump\t// in\n    tag_726:\n        /* \"#utility.yul\":30206:30208   */\n      0x40\n        /* \"#utility.yul\":30201:30204   */\n      dup3\n        /* \"#utility.yul\":30197:30209   */\n      add\n        /* \"#utility.yul\":30190:30209   */\n      swap1\n      pop\n        /* \"#utility.yul\":29849:30215   */\n      swap2\n      swap1\n      pop\n      jump\t// out\n        /* \"#utility.yul\":30221:30640   */\n    tag_289:\n        /* \"#utility.yul\":30387:30391   */\n      0x00\n        /* \"#utility.yul\":30425:30427   */\n      0x20\n        /* \"#utility.yul\":30414:30423   */\n      dup3\n        /* \"#utility.yul\":30410:30428   */\n      add\n        /* \"#utility.yul\":30402:30428   */\n      swap1\n      pop\n        /* \"#utility.yul\":30474:30483   */\n      dup2\n        /* \"#utility.yul\":30468:30472   */\n      dup2\n        /* \"#utility.yul\":30464:30484   */\n      sub\n        /* \"#utility.yul\":30460:30461   */\n      0x00\n        /* \"#utility.yul\":30449:30458   */\n      dup4\n        /* \"#utility.yul\":30445:30462   */\n      add\n        /* \"#utility.yul\":30438:30485   */\n      mstore\n        /* \"#utility.yul\":30502:30633   */\n      tag_728\n        /* \"#utility.yul\":30628:30632   */\n      dup2\n        /* \"#utility.yul\":30502:30633   */\n      tag_464\n      jump\t// in\n    tag_728:\n        /* \"#utility.yul\":30494:30633   */\n      swap1\n      pop\n        /* \"#utility.yul\":30221:30640   */\n      swap2\n      swap1\n      pop\n      jump\t// out\n        /* \"#utility.yul\":30646:30787   */\n    tag_465:\n        /* \"#utility.yul\":30695:30699   */\n      0x00\n        /* \"#utility.yul\":30718:30721   */\n      dup2\n        /* \"#utility.yul\":30710:30721   */\n      swap1\n      pop\n        /* \"#utility.yul\":30741:30744   */\n      dup2\n        /* \"#utility.yul\":30738:30739   */\n      0x00\n        /* \"#utility.yul\":30731:30745   */\n      mstore\n        /* \"#utility.yul\":30775:30779   */\n      0x20\n        /* \"#utility.yul\":30772:30773   */\n      0x00\n        /* \"#utility.yul\":30762:30780   */\n      keccak256\n        /* \"#utility.yul\":30754:30780   */\n      swap1\n      pop\n        /* \"#utility.yul\":30646:30787   */\n      swap2\n      swap1\n      pop\n      jump\t// out\n        /* \"#utility.yul\":30793:30886   */\n    tag_466:\n        /* \"#utility.yul\":30830:30836   */\n      0x00\n        /* \"#utility.yul\":30877:30879   */\n      0x20\n        /* \"#utility.yul\":30872:30874   */\n      0x1f\n        /* \"#utility.yul\":30865:30870   */\n      dup4\n        /* \"#utility.yul\":30861:30875   */\n      add\n        /* \"#utility.yul\":30857:30880   */\n      div\n        /* \"#utility.yul\":30847:30880   */\n      swap1\n      pop\n        /* \"#utility.yul\":30793:30886   */\n      swap2\n      swap1\n      pop\n      jump\t// out\n        /* \"#utility.yul\":30892:30999   */\n    tag_467:\n        /* \"#utility.yul\":30936:30944   */\n      0x00\n        /* \"#utility.yul\":30986:30991   */\n      dup3\n        /* \"#utility.yul\":30980:30984   */\n      dup3\n        /* \"#utility.yul\":30976:30992   */\n      shl\n        /* \"#utility.yul\":30955:30992   */\n      swap1\n      pop\n        /* \"#utility.yul\":30892:30999   */\n      swap3\n      swap2\n      pop\n      pop\n      jump\t// out\n        /* \"#utility.yul\":31005:31398   */\n    tag_468:\n        /* \"#utility.yul\":31074:31080   */\n      0x00\n        /* \"#utility.yul\":31124:31125   */\n      0x08\n        /* \"#utility.yul\":31112:31122   */\n      dup4\n        /* \"#utility.yul\":31108:31126   */\n      mul\n        /* \"#utility.yul\":31147:31244   */\n      tag_733\n        /* \"#utility.yul\":31177:31243   */\n      0xffffffffffffffffffffffffffffffffffffffffffffffffffffffffffffffff\n        /* \"#utility.yul\":31166:31175   */\n      dup3\n        /* \"#utility.yul\":31147:31244   */\n      tag_467\n      jump\t// in\n    tag_733:\n        /* \"#utility.yul\":31265:31304   */\n      tag_734\n        /* \"#utility.yul\":31295:31303   */\n      dup7\n        /* \"#utility.yul\":31284:31293   */\n      dup4\n        /* \"#utility.yul\":31265:31304   */\n      tag_467\n      jump\t// in\n    tag_734:\n        /* \"#utility.yul\":31253:31304   */\n      swap6\n      pop\n        /* \"#utility.yul\":31337:31341   */\n      dup1\n        /* \"#utility.yul\":31333:31342   */\n      not\n        /* \"#utility.yul\":31326:31331   */\n      dup5\n        /* \"#utility.yul\":31322:31343   */\n      and\n        /* \"#utility.yul\":31313:31343   */\n      swap4\n      pop\n        /* \"#utility.yul\":31386:31390   */\n      dup1\n        /* \"#utility.yul\":31376:31384   */\n      dup7\n        /* \"#utility.yul\":31372:31391   */\n      and\n        /* \"#utility.yul\":31365:31370   */\n      dup5\n        /* \"#utility.yul\":31362:31392   */\n      or\n        /* \"#utility.yul\":31352:31392   */\n      swap3\n      pop\n        /* \"#utility.yul\":31081:31398   */\n      pop\n      pop\n        /* \"#utility.yul\":31005:31398   */\n      swap4\n      swap3\n      pop\n      pop\n      pop\n      jump\t// out\n        /* \"#utility.yul\":31404:31464   */\n    tag_469:\n        /* \"#utility.yul\":31432:31435   */\n      0x00\n        /* \"#utility.yul\":31453:31458   */\n      dup2\n        /* \"#utility.yul\":31446:31458   */\n      swap1\n      pop\n        /* \"#utility.yul\":31404:31464   */\n      swap2\n      swap1\n      pop\n      jump\t// out\n        /* \"#utility.yul\":31470:31612   */\n    tag_470:\n        /* \"#utility.yul\":31520:31529   */\n      0x00\n        /* \"#utility.yul\":31553:31606   */\n      tag_737\n        /* \"#utility.yul\":31571:31605   */\n      tag_738\n        /* \"#utility.yul\":31580:31604   */\n      tag_739\n        /* \"#utility.yul\":31598:31603   */\n      dup5\n        /* \"#utility.yul\":31580:31604   */\n      tag_393\n      jump\t// in\n    tag_739:\n        /* \"#utility.yul\":31571:31605   */\n      tag_469\n      jump\t// in\n    tag_738:\n        /* \"#utility.yul\":31553:31606   */\n      tag_393\n      jump\t// in\n    tag_737:\n        /* \"#utility.yul\":31540:31606   */\n      swap1\n      pop\n        /* \"#utility.yul\":31470:31612   */\n      swap2\n      swap1\n      pop\n      jump\t// out\n        /* \"#utility.yul\":31618:31693   */\n    tag_471:\n        /* \"#utility.yul\":31661:31664   */\n      0x00\n        /* \"#utility.yul\":31682:31687   */\n      dup2\n        /* \"#utility.yul\":31675:31687   */\n      swap1\n      pop\n        /* \"#utility.yul\":31618:31693   */\n      swap2\n      swap1\n      pop\n      jump\t// out\n        /* \"#utility.yul\":31699:31968   */\n    tag_472:\n        /* \"#utility.yul\":31809:31848   */\n      tag_742\n        /* \"#utility.yul\":31840:31847   */\n      dup4\n        /* \"#utility.yul\":31809:31848   */\n      tag_470\n      jump\t// in\n    tag_742:\n        /* \"#utility.yul\":31870:31961   */\n      tag_743\n        /* \"#utility.yul\":31919:31960   */\n      tag_744\n        /* \"#utility.yul\":31943:31959   */\n      dup3\n        /* \"#utility.yul\":31919:31960   */\n      tag_471\n      jump\t// in\n    tag_744:\n        /* \"#utility.yul\":31911:31917   */\n      dup5\n        /* \"#utility.yul\":31904:31908   */\n      dup5\n        /* \"#utility.yul\":31898:31909   */\n      sload\n        /* \"#utility.yul\":31870:31961   */\n      tag_468\n      jump\t// in\n    tag_743:\n        /* \"#utility.yul\":31864:31868   */\n      dup3\n        /* \"#utility.yul\":31857:31962   */\n      sstore\n        /* \"#utility.yul\":31775:31968   */\n      pop\n        /* \"#utility.yul\":31699:31968   */\n      pop\n      pop\n      pop\n      jump\t// out\n        /* \"#utility.yul\":31974:32047   */\n    tag_473:\n        /* \"#utility.yul\":32019:32022   */\n      0x00\n        /* \"#utility.yul\":32040:32041   */\n      0x00\n        /* \"#utility.yul\":32033:32041   */\n      swap1\n      pop\n        /* \"#utility.yul\":31974:32047   */\n      swap1\n      jump\t// out\n        /* \"#utility.yul\":32053:32242   */\n    tag_474:\n        /* \"#utility.yul\":32130:32162   */\n      tag_747\n      tag_473\n      jump\t// in\n    tag_747:\n        /* \"#utility.yul\":32171:32236   */\n      tag_748\n        /* \"#utility.yul\":32229:32235   */\n      dup2\n        /* \"#utility.yul\":32221:32227   */\n      dup5\n        /* \"#utility.yul\":32215:32219   */\n      dup5\n        /* \"#utility.yul\":32171:32236   */\n      tag_472\n      jump\t// in\n    tag_748:\n        /* \"#utility.yul\":32106:32242   */\n      pop\n        /* \"#utility.yul\":32053:32242   */\n      pop\n      pop\n      jump\t// out\n        /* \"#utility.yul\":32248:32434   */\n    tag_475:\n        /* \"#utility.yul\":32308:32428   */\n    tag_750:\n        /* \"#utility.yul\":32325:32328   */\n      dup2\n        /* \"#utility.yul\":32318:32323   */\n      dup2\n        /* \"#utility.yul\":32315:32329   */\n      lt\n        /* \"#utility.yul\":32308:32428   */\n      iszero\n      tag_752\n      jumpi\n        /* \"#utility.yul\":32379:32418   */\n      tag_753\n        /* \"#utility.yul\":32416:32417   */\n      0x00\n        /* \"#utility.yul\":32409:32414   */\n      dup3\n        /* \"#utility.yul\":32379:32418   */\n      tag_474\n      jump\t// in\n    tag_753:\n        /* \"#utility.yul\":32352:32353   */\n      0x01\n        /* \"#utility.yul\":32345:32350   */\n      dup2\n        /* \"#utility.yul\":32341:32354   */\n      add\n        /* \"#utility.yul\":32332:32354   */\n      swap1\n      pop\n        /* \"#utility.yul\":32308:32428   */\n      jump(tag_750)\n    tag_752:\n        /* \"#utility.yul\":32248:32434   */\n      pop\n      pop\n      jump\t// out\n        /* \"#utility.yul\":32440:32983   */\n    tag_476:\n        /* \"#utility.yul\":32541:32543   */\n      0x1f\n        /* \"#utility.yul\":32536:32539   */\n      dup3\n        /* \"#utility.yul\":32533:32544   */\n      gt\n        /* \"#utility.yul\":32530:32976   */\n      iszero\n      tag_755\n      jumpi\n        /* \"#utility.yul\":32575:32613   */\n      tag_756\n        /* \"#utility.yul\":32607:32612   */\n      dup2\n        /* \"#utility.yul\":32575:32613   */\n      tag_465\n      jump\t// in\n    tag_756:\n        /* \"#utility.yul\":32659:32688   */\n      tag_757\n        /* \"#utility.yul\":32677:32687   */\n      dup5\n        /* \"#utility.yul\":32659:32688   */\n      tag_466\n      jump\t// in\n    tag_757:\n        /* \"#utility.yul\":32649:32657   */\n      dup2\n        /* \"#utility.yul\":32645:32689   */\n      add\n        /* \"#utility.yul\":32842:32844   */\n      0x20\n        /* \"#utility.yul\":32830:32840   */\n      dup6\n        /* \"#utility.yul\":32827:32845   */\n      lt\n        /* \"#utility.yul\":32824:32873   */\n      iszero\n      tag_758\n      jumpi\n        /* \"#utility.yul\":32863:32871   */\n      dup2\n        /* \"#utility.yul\":32848:32871   */\n      swap1\n      pop\n        /* \"#utility.yul\":32824:32873   */\n    tag_758:\n        /* \"#utility.yul\":32886:32966   */\n      tag_759\n        /* \"#utility.yul\":32942:32964   */\n      tag_760\n        /* \"#utility.yul\":32960:32963   */\n      dup6\n        /* \"#utility.yul\":32942:32964   */\n      tag_466\n      jump\t// in\n    tag_760:\n        /* \"#utility.yul\":32932:32940   */\n      dup4\n        /* \"#utility.yul\":32928:32965   */\n      add\n        /* \"#utility.yul\":32915:32926   */\n      dup3\n        /* \"#utility.yul\":32886:32966   */\n      tag_475\n      jump\t// in\n    tag_759:\n        /* \"#utility.yul\":32545:32976   */\n      pop\n      pop\n        /* \"#utility.yul\":32530:32976   */\n    tag_755:\n        /* \"#utility.yul\":32440:32983   */\n      pop\n      pop\n      pop\n      jump\t// out\n        /* \"#utility.yul\":32989:33106   */\n    tag_477:\n        /* \"#utility.yul\":33043:33051   */\n      0x00\n        /* \"#utility.yul\":33093:33098   */\n      dup3\n        /* \"#utility.yul\":33087:33091   */\n      dup3\n        /* \"#utility.yul\":33083:33099   */\n      shr\n        /* \"#utility.yul\":33062:33099   */\n      swap1\n      pop\n        /* \"#utility.yul\":32989:33106   */\n      swap3\n      swap2\n      pop\n      pop\n      jump\t// out\n        /* \"#utility.yul\":33112:33281   */\n    tag_478:\n        /* \"#utility.yul\":33156:33162   */\n      0x00\n        /* \"#utility.yul\":33189:33240   */\n      tag_763\n        /* \"#utility.yul\":33237:33238   */\n      0x00\n        /* \"#utility.yul\":33233:33239   */\n      not\n        /* \"#utility.yul\":33225:33230   */\n      dup5\n        /* \"#utility.yul\":33222:33223   */\n      0x08\n        /* \"#utility.yul\":33218:33231   */\n      mul\n        /* \"#utility.yul\":33189:33240   */\n      tag_477\n      jump\t// in\n    tag_763:\n        /* \"#utility.yul\":33185:33241   */\n      not\n        /* \"#utility.yul\":33270:33274   */\n      dup1\n        /* \"#utility.yul\":33264:33268   */\n      dup4\n        /* \"#utility.yul\":33260:33275   */\n      and\n        /* \"#utility.yul\":33250:33275   */\n      swap2\n      pop\n        /* \"#utility.yul\":33163:33281   */\n      pop\n        /* \"#utility.yul\":33112:33281   */\n      swap3\n      swap2\n      pop\n      pop\n      jump\t// out\n        /* \"#utility.yul\":33286:33581   */\n    tag_479:\n        /* \"#utility.yul\":33362:33366   */\n      0x00\n        /* \"#utility.yul\":33508:33537   */\n      tag_765\n        /* \"#utility.yul\":33533:33536   */\n      dup4\n        /* \"#utility.yul\":33527:33531   */\n      dup4\n        /* \"#utility.yul\":33508:33537   */\n      tag_478\n      jump\t// in\n    tag_765:\n        /* \"#utility.yul\":33500:33537   */\n      swap2\n      pop\n        /* \"#utility.yul\":33570:33573   */\n      dup3\n        /* \"#utility.yul\":33567:33568   */\n      0x02\n        /* \"#utility.yul\":33563:33574   */\n      mul\n        /* \"#utility.yul\":33557:33561   */\n      dup3\n        /* \"#utility.yul\":33554:33575   */\n      or\n        /* \"#utility.yul\":33546:33575   */\n      swap1\n      pop\n        /* \"#utility.yul\":33286:33581   */\n      swap3\n      swap2\n      pop\n      pop\n      jump\t// out\n        /* \"#utility.yul\":33586:34981   */\n    tag_294:\n        /* \"#utility.yul\":33703:33740   */\n      tag_767\n        /* \"#utility.yul\":33736:33739   */\n      dup3\n        /* \"#utility.yul\":33703:33740   */\n      tag_401\n      jump\t// in\n    tag_767:\n        /* \"#utility.yul\":33805:33823   */\n      0xffffffffffffffff\n        /* \"#utility.yul\":33797:33803   */\n      dup2\n        /* \"#utility.yul\":33794:33824   */\n      gt\n        /* \"#utility.yul\":33791:33847   */\n      iszero\n      tag_768\n      jumpi\n        /* \"#utility.yul\":33827:33845   */\n      tag_769\n      tag_424\n      jump\t// in\n    tag_769:\n        /* \"#utility.yul\":33791:33847   */\n    tag_768:\n        /* \"#utility.yul\":33871:33909   */\n      tag_770\n        /* \"#utility.yul\":33903:33907   */\n      dup3\n        /* \"#utility.yul\":33897:33908   */\n      sload\n        /* \"#utility.yul\":33871:33909   */\n      tag_165\n      jump\t// in\n    tag_770:\n        /* \"#utility.yul\":33956:34023   */\n      tag_771\n        /* \"#utility.yul\":34016:34022   */\n      dup3\n        /* \"#utility.yul\":34008:34014   */\n      dup3\n        /* \"#utility.yul\":34002:34006   */\n      dup6\n        /* \"#utility.yul\":33956:34023   */\n      tag_476\n      jump\t// in\n    tag_771:\n        /* \"#utility.yul\":34050:34051   */\n      0x00\n        /* \"#utility.yul\":34074:34078   */\n      0x20\n        /* \"#utility.yul\":34061:34078   */\n      swap1\n      pop\n        /* \"#utility.yul\":34106:34108   */\n      0x1f\n        /* \"#utility.yul\":34098:34104   */\n      dup4\n        /* \"#utility.yul\":34095:34109   */\n      gt\n        /* \"#utility.yul\":34123:34124   */\n      0x01\n        /* \"#utility.yul\":34118:34736   */\n      dup2\n      eq\n      tag_773\n      jumpi\n        /* \"#utility.yul\":34780:34781   */\n      0x00\n        /* \"#utility.yul\":34797:34803   */\n      dup5\n        /* \"#utility.yul\":34794:34871   */\n      iszero\n      tag_774\n      jumpi\n        /* \"#utility.yul\":34846:34855   */\n      dup3\n        /* \"#utility.yul\":34841:34844   */\n      dup8\n        /* \"#utility.yul\":34837:34856   */\n      add\n        /* \"#utility.yul\":34831:34857   */\n      mload\n        /* \"#utility.yul\":34822:34857   */\n      swap1\n      pop\n        /* \"#utility.yul\":34794:34871   */\n    tag_774:\n        /* \"#utility.yul\":34897:34964   */\n      tag_775\n        /* \"#utility.yul\":34957:34963   */\n      dup6\n        /* \"#utility.yul\":34950:34955   */\n      dup3\n        /* \"#utility.yul\":34897:34964   */\n      tag_479\n      jump\t// in\n    tag_775:\n        /* \"#utility.yul\":34891:34895   */\n      dup7\n        /* \"#utility.yul\":34884:34965   */\n      sstore\n        /* \"#utility.yul\":34753:34975   */\n      pop\n        /* \"#utility.yul\":34088:34975   */\n      jump(tag_772)\n        /* \"#utility.yul\":34118:34736   */\n    tag_773:\n        /* \"#utility.yul\":34170:34174   */\n      0x1f\n        /* \"#utility.yul\":34166:34175   */\n      not\n        /* \"#utility.yul\":34158:34164   */\n      dup5\n        /* \"#utility.yul\":34154:34176   */\n      and\n        /* \"#utility.yul\":34204:34241   */\n      tag_776\n        /* \"#utility.yul\":34236:34240   */\n      dup7\n        /* \"#utility.yul\":34204:34241   */\n      tag_465\n      jump\t// in\n    tag_776:\n        /* \"#utility.yul\":34263:34264   */\n      0x00\n        /* \"#utility.yul\":34277:34485   */\n    tag_777:\n        /* \"#utility.yul\":34291:34298   */\n      dup3\n        /* \"#utility.yul\":34288:34289   */\n      dup2\n        /* \"#utility.yul\":34285:34299   */\n      lt\n        /* \"#utility.yul\":34277:34485   */\n      iszero\n      tag_779\n      jumpi\n        /* \"#utility.yul\":34370:34379   */\n      dup5\n        /* \"#utility.yul\":34365:34368   */\n      dup10\n        /* \"#utility.yul\":34361:34380   */\n      add\n        /* \"#utility.yul\":34355:34381   */\n      mload\n        /* \"#utility.yul\":34347:34353   */\n      dup3\n        /* \"#utility.yul\":34340:34382   */\n      sstore\n        /* \"#utility.yul\":34421:34422   */\n      0x01\n        /* \"#utility.yul\":34413:34419   */\n      dup3\n        /* \"#utility.yul\":34409:34423   */\n      add\n        /* \"#utility.yul\":34399:34423   */\n      swap2\n      pop\n        /* \"#utility.yul\":34468:34470   */\n      0x20\n        /* \"#utility.yul\":34457:34466   */\n      dup6\n        /* \"#utility.yul\":34453:34471   */\n      add\n        /* \"#utility.yul\":34440:34471   */\n      swap5\n      pop\n        /* \"#utility.yul\":34314:34318   */\n      0x20\n        /* \"#utility.yul\":34311:34312   */\n      dup2\n        /* \"#utility.yul\":34307:34319   */\n      add\n        /* \"#utility.yul\":34302:34319   */\n      swap1\n      pop\n        /* \"#utility.yul\":34277:34485   */\n      jump(tag_777)\n    tag_779:\n        /* \"#utility.yul\":34513:34519   */\n      dup7\n        /* \"#utility.yul\":34504:34511   */\n      dup4\n        /* \"#utility.yul\":34501:34520   */\n      lt\n        /* \"#utility.yul\":34498:34677   */\n      iszero\n      tag_780\n      jumpi\n        /* \"#utility.yul\":34571:34580   */\n      dup5\n        /* \"#utility.yul\":34566:34569   */\n      dup10\n        /* \"#utility.yul\":34562:34581   */\n      add\n        /* \"#utility.yul\":34556:34582   */\n      mload\n        /* \"#utility.yul\":34614:34662   */\n      tag_781\n        /* \"#utility.yul\":34656:34660   */\n      0x1f\n        /* \"#utility.yul\":34648:34654   */\n      dup10\n        /* \"#utility.yul\":34644:34661   */\n      and\n        /* \"#utility.yul\":34633:34642   */\n      dup3\n        /* \"#utility.yul\":34614:34662   */\n      tag_478\n      jump\t// in\n    tag_781:\n        /* \"#utility.yul\":34606:34612   */\n      dup4\n        /* \"#utility.yul\":34599:34663   */\n      sstore\n        /* \"#utility.yul\":34521:34677   */\n      pop\n        /* \"#utility.yul\":34498:34677   */\n    tag_780:\n        /* \"#utility.yul\":34723:34724   */\n      0x01\n        /* \"#utility.yul\":34719:34720   */\n      0x02\n        /* \"#utility.yul\":34711:34717   */\n      dup9\n        /* \"#utility.yul\":34707:34721   */\n      mul\n        /* \"#utility.yul\":34703:34725   */\n      add\n        /* \"#utility.yul\":34697:34701   */\n      dup9\n        /* \"#utility.yul\":34690:34726   */\n      sstore\n        /* \"#utility.yul\":34125:34736   */\n      pop\n      pop\n      pop\n        /* \"#utility.yul\":34088:34975   */\n    tag_772:\n      pop\n        /* \"#utility.yul\":33678:34981   */\n      pop\n      pop\n      pop\n        /* \"#utility.yul\":33586:34981   */\n      pop\n      pop\n      jump\t// out\n        /* \"#utility.yul\":34987:35284   */\n    tag_480:\n        /* \"#utility.yul\":35127:35161   */\n      0x5468652070726f706f73616c2073657373696f6e206973206e6f7420656e6465\n        /* \"#utility.yul\":35123:35124   */\n      0x00\n        /* \"#utility.yul\":35115:35121   */\n      dup3\n        /* \"#utility.yul\":35111:35125   */\n      add\n        /* \"#utility.yul\":35104:35162   */\n      mstore\n        /* \"#utility.yul\":35196:35230   */\n      0x64206f722074686520766f74652073657373696f6e2068617320616c72656164\n        /* \"#utility.yul\":35191:35193   */\n      0x20\n        /* \"#utility.yul\":35183:35189   */\n      dup3\n        /* \"#utility.yul\":35179:35194   */\n      add\n        /* \"#utility.yul\":35172:35231   */\n      mstore\n        /* \"#utility.yul\":35265:35276   */\n      0x7920737461727465640000000000000000000000000000000000000000000000\n        /* \"#utility.yul\":35260:35262   */\n      0x40\n        /* \"#utility.yul\":35252:35258   */\n      dup3\n        /* \"#utility.yul\":35248:35263   */\n      add\n        /* \"#utility.yul\":35241:35277   */\n      mstore\n        /* \"#utility.yul\":34987:35284   */\n      pop\n      jump\t// out\n        /* \"#utility.yul\":35290:35656   */\n    tag_481:\n        /* \"#utility.yul\":35432:35435   */\n      0x00\n        /* \"#utility.yul\":35453:35520   */\n      tag_784\n        /* \"#utility.yul\":35517:35519   */\n      0x49\n        /* \"#utility.yul\":35512:35515   */\n      dup4\n        /* \"#utility.yul\":35453:35520   */\n      tag_402\n      jump\t// in\n    tag_784:\n        /* \"#utility.yul\":35446:35520   */\n      swap2\n      pop\n        /* \"#utility.yul\":35529:35622   */\n      tag_785\n        /* \"#utility.yul\":35618:35621   */\n      dup3\n        /* \"#utility.yul\":35529:35622   */\n      tag_480\n      jump\t// in\n    tag_785:\n        /* \"#utility.yul\":35647:35649   */\n      0x60\n        /* \"#utility.yul\":35642:35645   */\n      dup3\n        /* \"#utility.yul\":35638:35650   */\n      add\n        /* \"#utility.yul\":35631:35650   */\n      swap1\n      pop\n        /* \"#utility.yul\":35290:35656   */\n      swap2\n      swap1\n      pop\n      jump\t// out\n        /* \"#utility.yul\":35662:36081   */\n    tag_306:\n        /* \"#utility.yul\":35828:35832   */\n      0x00\n        /* \"#utility.yul\":35866:35868   */\n      0x20\n        /* \"#utility.yul\":35855:35864   */\n      dup3\n        /* \"#utility.yul\":35851:35869   */\n      add\n        /* \"#utility.yul\":35843:35869   */\n      swap1\n      pop\n        /* \"#utility.yul\":35915:35924   */\n      dup2\n        /* \"#utility.yul\":35909:35913   */\n      dup2\n        /* \"#utility.yul\":35905:35925   */\n      sub\n        /* \"#utility.yul\":35901:35902   */\n      0x00\n        /* \"#utility.yul\":35890:35899   */\n      dup4\n        /* \"#utility.yul\":35886:35903   */\n      add\n        /* \"#utility.yul\":35879:35926   */\n      mstore\n        /* \"#utility.yul\":35943:36074   */\n      tag_787\n        /* \"#utility.yul\":36069:36073   */\n      dup2\n        /* \"#utility.yul\":35943:36074   */\n      tag_481\n      jump\t// in\n    tag_787:\n        /* \"#utility.yul\":35935:36074   */\n      swap1\n      pop\n        /* \"#utility.yul\":35662:36081   */\n      swap2\n      swap1\n      pop\n      jump\t// out\n        /* \"#utility.yul\":36087:36336   */\n    tag_482:\n        /* \"#utility.yul\":36227:36261   */\n      0x5468652070726f706f73616c2073657373696f6e20686173206e6f7420737461\n        /* \"#utility.yul\":36223:36224   */\n      0x00\n        /* \"#utility.yul\":36215:36221   */\n      dup3\n        /* \"#utility.yul\":36211:36225   */\n      add\n        /* \"#utility.yul\":36204:36262   */\n      mstore\n        /* \"#utility.yul\":36296:36328   */\n      0x72746564206f722068617320616c7265616479206265656e20656e6465640000\n        /* \"#utility.yul\":36291:36293   */\n      0x20\n        /* \"#utility.yul\":36283:36289   */\n      dup3\n        /* \"#utility.yul\":36279:36294   */\n      add\n        /* \"#utility.yul\":36272:36329   */\n      mstore\n        /* \"#utility.yul\":36087:36336   */\n      pop\n      jump\t// out\n        /* \"#utility.yul\":36342:36708   */\n    tag_483:\n        /* \"#utility.yul\":36484:36487   */\n      0x00\n        /* \"#utility.yul\":36505:36572   */\n      tag_790\n        /* \"#utility.yul\":36569:36571   */\n      0x3e\n        /* \"#utility.yul\":36564:36567   */\n      dup4\n        /* \"#utility.yul\":36505:36572   */\n      tag_402\n      jump\t// in\n    tag_790:\n        /* \"#utility.yul\":36498:36572   */\n      swap2\n      pop\n        /* \"#utility.yul\":36581:36674   */\n      tag_791\n        /* \"#utility.yul\":36670:36673   */\n      dup3\n        /* \"#utility.yul\":36581:36674   */\n      tag_482\n      jump\t// in\n    tag_791:\n        /* \"#utility.yul\":36699:36701   */\n      0x40\n        /* \"#utility.yul\":36694:36697   */\n      dup3\n        /* \"#utility.yul\":36690:36702   */\n      add\n        /* \"#utility.yul\":36683:36702   */\n      swap1\n      pop\n        /* \"#utility.yul\":36342:36708   */\n      swap2\n      swap1\n      pop\n      jump\t// out\n        /* \"#utility.yul\":36714:37133   */\n    tag_325:\n        /* \"#utility.yul\":36880:36884   */\n      0x00\n        /* \"#utility.yul\":36918:36920   */\n      0x20\n        /* \"#utility.yul\":36907:36916   */\n      dup3\n        /* \"#utility.yul\":36903:36921   */\n      add\n        /* \"#utility.yul\":36895:36921   */\n      swap1\n      pop\n        /* \"#utility.yul\":36967:36976   */\n      dup2\n        /* \"#utility.yul\":36961:36965   */\n      dup2\n        /* \"#utility.yul\":36957:36977   */\n      sub\n        /* \"#utility.yul\":36953:36954   */\n      0x00\n        /* \"#utility.yul\":36942:36951   */\n      dup4\n        /* \"#utility.yul\":36938:36955   */\n      add\n        /* \"#utility.yul\":36931:36978   */\n      mstore\n        /* \"#utility.yul\":36995:37126   */\n      tag_793\n        /* \"#utility.yul\":37121:37125   */\n      dup2\n        /* \"#utility.yul\":36995:37126   */\n      tag_483\n      jump\t// in\n    tag_793:\n        /* \"#utility.yul\":36987:37126   */\n      swap1\n      pop\n        /* \"#utility.yul\":36714:37133   */\n      swap2\n      swap1\n      pop\n      jump\t// out\n        /* \"#utility.yul\":37139:37359   */\n    tag_484:\n        /* \"#utility.yul\":37279:37313   */\n      0x546865726520617265206e6f2070726f706f73616c7320726567697374657265\n        /* \"#utility.yul\":37275:37276   */\n      0x00\n        /* \"#utility.yul\":37267:37273   */\n      dup3\n        /* \"#utility.yul\":37263:37277   */\n      add\n        /* \"#utility.yul\":37256:37314   */\n      mstore\n        /* \"#utility.yul\":37348:37351   */\n      0x6400000000000000000000000000000000000000000000000000000000000000\n        /* \"#utility.yul\":37343:37345   */\n      0x20\n        /* \"#utility.yul\":37335:37341   */\n      dup3\n        /* \"#utility.yul\":37331:37346   */\n      add\n        /* \"#utility.yul\":37324:37352   */\n      mstore\n        /* \"#utility.yul\":37139:37359   */\n      pop\n      jump\t// out\n        /* \"#utility.yul\":37365:37731   */\n    tag_485:\n        /* \"#utility.yul\":37507:37510   */\n      0x00\n        /* \"#utility.yul\":37528:37595   */\n      tag_796\n        /* \"#utility.yul\":37592:37594   */\n      0x21\n        /* \"#utility.yul\":37587:37590   */\n      dup4\n        /* \"#utility.yul\":37528:37595   */\n      tag_402\n      jump\t// in\n    tag_796:\n        /* \"#utility.yul\":37521:37595   */\n      swap2\n      pop\n        /* \"#utility.yul\":37604:37697   */\n      tag_797\n        /* \"#utility.yul\":37693:37696   */\n      dup3\n        /* \"#utility.yul\":37604:37697   */\n      tag_484\n      jump\t// in\n    tag_797:\n        /* \"#utility.yul\":37722:37724   */\n      0x40\n        /* \"#utility.yul\":37717:37720   */\n      dup3\n        /* \"#utility.yul\":37713:37725   */\n      add\n        /* \"#utility.yul\":37706:37725   */\n      swap1\n      pop\n        /* \"#utility.yul\":37365:37731   */\n      swap2\n      swap1\n      pop\n      jump\t// out\n        /* \"#utility.yul\":37737:38156   */\n    tag_328:\n        /* \"#utility.yul\":37903:37907   */\n      0x00\n        /* \"#utility.yul\":37941:37943   */\n      0x20\n        /* \"#utility.yul\":37930:37939   */\n      dup3\n        /* \"#utility.yul\":37926:37944   */\n      add\n        /* \"#utility.yul\":37918:37944   */\n      swap1\n      pop\n        /* \"#utility.yul\":37990:37999   */\n      dup2\n        /* \"#utility.yul\":37984:37988   */\n      dup2\n        /* \"#utility.yul\":37980:38000   */\n      sub\n        /* \"#utility.yul\":37976:37977   */\n      0x00\n        /* \"#utility.yul\":37965:37974   */\n      dup4\n        /* \"#utility.yul\":37961:37978   */\n      add\n        /* \"#utility.yul\":37954:38001   */\n      mstore\n        /* \"#utility.yul\":38018:38149   */\n      tag_799\n        /* \"#utility.yul\":38144:38148   */\n      dup2\n        /* \"#utility.yul\":38018:38149   */\n      tag_485\n      jump\t// in\n    tag_799:\n        /* \"#utility.yul\":38010:38149   */\n      swap1\n      pop\n        /* \"#utility.yul\":37737:38156   */\n      swap2\n      swap1\n      pop\n      jump\t// out\n        /* \"#utility.yul\":38162:38402   */\n    tag_486:\n        /* \"#utility.yul\":38302:38336   */\n      0x54686520766f74652073657373696f6e20686173206e6f742073746172746564\n        /* \"#utility.yul\":38298:38299   */\n      0x00\n        /* \"#utility.yul\":38290:38296   */\n      dup3\n        /* \"#utility.yul\":38286:38300   */\n      add\n        /* \"#utility.yul\":38279:38337   */\n      mstore\n        /* \"#utility.yul\":38371:38394   */\n      0x206f722068617320616c726561647920656e6465640000000000000000000000\n        /* \"#utility.yul\":38366:38368   */\n      0x20\n        /* \"#utility.yul\":38358:38364   */\n      dup3\n        /* \"#utility.yul\":38354:38369   */\n      add\n        /* \"#utility.yul\":38347:38395   */\n      mstore\n        /* \"#utility.yul\":38162:38402   */\n      pop\n      jump\t// out\n        /* \"#utility.yul\":38408:38774   */\n    tag_487:\n        /* \"#utility.yul\":38550:38553   */\n      0x00\n        /* \"#utility.yul\":38571:38638   */\n      tag_802\n        /* \"#utility.yul\":38635:38637   */\n      0x35\n        /* \"#utility.yul\":38630:38633   */\n      dup4\n        /* \"#utility.yul\":38571:38638   */\n      tag_402\n      jump\t// in\n    tag_802:\n        /* \"#utility.yul\":38564:38638   */\n      swap2\n      pop\n        /* \"#utility.yul\":38647:38740   */\n      tag_803\n        /* \"#utility.yul\":38736:38739   */\n      dup3\n        /* \"#utility.yul\":38647:38740   */\n      tag_486\n      jump\t// in\n    tag_803:\n        /* \"#utility.yul\":38765:38767   */\n      0x40\n        /* \"#utility.yul\":38760:38763   */\n      dup3\n        /* \"#utility.yul\":38756:38768   */\n      add\n        /* \"#utility.yul\":38749:38768   */\n      swap1\n      pop\n        /* \"#utility.yul\":38408:38774   */\n      swap2\n      swap1\n      pop\n      jump\t// out\n        /* \"#utility.yul\":38780:39199   */\n    tag_353:\n        /* \"#utility.yul\":38946:38950   */\n      0x00\n        /* \"#utility.yul\":38984:38986   */\n      0x20\n        /* \"#utility.yul\":38973:38982   */\n      dup3\n        /* \"#utility.yul\":38969:38987   */\n      add\n        /* \"#utility.yul\":38961:38987   */\n      swap1\n      pop\n        /* \"#utility.yul\":39033:39042   */\n      dup2\n        /* \"#utility.yul\":39027:39031   */\n      dup2\n        /* \"#utility.yul\":39023:39043   */\n      sub\n        /* \"#utility.yul\":39019:39020   */\n      0x00\n        /* \"#utility.yul\":39008:39017   */\n      dup4\n        /* \"#utility.yul\":39004:39021   */\n      add\n        /* \"#utility.yul\":38997:39044   */\n      mstore\n        /* \"#utility.yul\":39061:39192   */\n      tag_805\n        /* \"#utility.yul\":39187:39191   */\n      dup2\n        /* \"#utility.yul\":39061:39192   */\n      tag_487\n      jump\t// in\n    tag_805:\n        /* \"#utility.yul\":39053:39192   */\n      swap1\n      pop\n        /* \"#utility.yul\":38780:39199   */\n      swap2\n      swap1\n      pop\n      jump\t// out\n        /* \"#utility.yul\":39205:39383   */\n    tag_488:\n        /* \"#utility.yul\":39345:39375   */\n      0x546865726520617265206e6f20766f7465207265676973746572656400000000\n        /* \"#utility.yul\":39341:39342   */\n      0x00\n        /* \"#utility.yul\":39333:39339   */\n      dup3\n        /* \"#utility.yul\":39329:39343   */\n      add\n        /* \"#utility.yul\":39322:39376   */\n      mstore\n        /* \"#utility.yul\":39205:39383   */\n      pop\n      jump\t// out\n        /* \"#utility.yul\":39389:39755   */\n    tag_489:\n        /* \"#utility.yul\":39531:39534   */\n      0x00\n        /* \"#utility.yul\":39552:39619   */\n      tag_808\n        /* \"#utility.yul\":39616:39618   */\n      0x1c\n        /* \"#utility.yul\":39611:39614   */\n      dup4\n        /* \"#utility.yul\":39552:39619   */\n      tag_402\n      jump\t// in\n    tag_808:\n        /* \"#utility.yul\":39545:39619   */\n      swap2\n      pop\n        /* \"#utility.yul\":39628:39721   */\n      tag_809\n        /* \"#utility.yul\":39717:39720   */\n      dup3\n        /* \"#utility.yul\":39628:39721   */\n      tag_488\n      jump\t// in\n    tag_809:\n        /* \"#utility.yul\":39746:39748   */\n      0x20\n        /* \"#utility.yul\":39741:39744   */\n      dup3\n        /* \"#utility.yul\":39737:39749   */\n      add\n        /* \"#utility.yul\":39730:39749   */\n      swap1\n      pop\n        /* \"#utility.yul\":39389:39755   */\n      swap2\n      swap1\n      pop\n      jump\t// out\n        /* \"#utility.yul\":39761:40180   */\n    tag_356:\n        /* \"#utility.yul\":39927:39931   */\n      0x00\n        /* \"#utility.yul\":39965:39967   */\n      0x20\n        /* \"#utility.yul\":39954:39963   */\n      dup3\n        /* \"#utility.yul\":39950:39968   */\n      add\n        /* \"#utility.yul\":39942:39968   */\n      swap1\n      pop\n        /* \"#utility.yul\":40014:40023   */\n      dup2\n        /* \"#utility.yul\":40008:40012   */\n      dup2\n        /* \"#utility.yul\":40004:40024   */\n      sub\n        /* \"#utility.yul\":40000:40001   */\n      0x00\n        /* \"#utility.yul\":39989:39998   */\n      dup4\n        /* \"#utility.yul\":39985:40002   */\n      add\n        /* \"#utility.yul\":39978:40025   */\n      mstore\n        /* \"#utility.yul\":40042:40173   */\n      tag_811\n        /* \"#utility.yul\":40168:40172   */\n      dup2\n        /* \"#utility.yul\":40042:40173   */\n      tag_489\n      jump\t// in\n    tag_811:\n        /* \"#utility.yul\":40034:40173   */\n      swap1\n      pop\n        /* \"#utility.yul\":39761:40180   */\n      swap2\n      swap1\n      pop\n      jump\t// out\n\n    auxdata: 0xa264697066735822122064e2d0bc004a288eeb13e8a9e73f224383bcabc91e3c423f2515208c76ed46b164736f6c634300081c0033\n}\n",
				"bytecode": {
					"linkReferences": {},
					"object": "60806040525f60035f6101000a81548160ff0219169083600581111561002857610027610185565b5b0217905550600160095534801561003d575f5ffd5b50335f73ffffffffffffffffffffffffffffffffffffffff168173ffffffffffffffffffffffffffffffffffffffff16036100af575f6040517f1e4fbdf70000000000000000000000000000000000000000000000000000000081526004016100a691906101f1565b60405180910390fd5b6100be816100c460201b60201c565b5061020a565b5f5f5f9054906101000a900473ffffffffffffffffffffffffffffffffffffffff169050815f5f6101000a81548173ffffffffffffffffffffffffffffffffffffffff021916908373ffffffffffffffffffffffffffffffffffffffff1602179055508173ffffffffffffffffffffffffffffffffffffffff168173ffffffffffffffffffffffffffffffffffffffff167f8be0079c531659141344cd1fd0a4f28419497f9722a3daafe3b4186f6b6457e060405160405180910390a35050565b7f4e487b71000000000000000000000000000000000000000000000000000000005f52602160045260245ffd5b5f73ffffffffffffffffffffffffffffffffffffffff82169050919050565b5f6101db826101b2565b9050919050565b6101eb816101d1565b82525050565b5f6020820190506102045f8301846101e2565b92915050565b61302a806102175f395ff3fe608060405234801561000f575f5ffd5b506004361061014b575f3560e01c80638da5cb5b116100c1578063aaa983461161007a578063aaa983461461031d578063c08cc02d14610327578063e06752c214610345578063e1ab86fb1461034f578063f2fde38b1461036d578063f74c168d146103895761014b565b80638da5cb5b1461026b5780639589dfcc14610289578063a3c1885b146102a7578063a3dd2619146102c5578063a46c3637146102e3578063aa98df39146103015761014b565b80635bc46514116101135780635bc46514146101cd57806362564c48146101eb57806365f88a7c1461020957806367af282614610227578063715018a614610231578063805255481461023b5761014b565b80630121b93f1461014f57806311174a291461016b57806338db6dd31461018957806343850c2d146101a557806350d072fc146101c3575b5f5ffd5b61016960048036038101906101649190611c15565b610393565b005b610173610730565b6040516101809190611c4f565b60405180910390f35b6101a3600480360381019061019e9190611cc2565b610739565b005b6101ad610942565b6040516101ba9190611d5d565b60405180910390f35b6101cb610a68565b005b6101d5610bda565b6040516101e29190611c4f565b60405180910390f35b6101f3610c57565b6040516102009190611ec9565b60405180910390f35b610211610d4c565b60405161021e9190611f5c565b60405180910390f35b61022f610d91565b005b610239610f04565b005b61025560048036038101906102509190611cc2565b610f17565b6040516102629190611faf565b60405180910390f35b610273611154565b6040516102809190611fde565b60405180910390f35b61029161117b565b60405161029e9190611c4f565b60405180910390f35b6102af611184565b6040516102bc9190611faf565b60405180910390f35b6102cd6112cb565b6040516102da9190611f5c565b60405180910390f35b6102eb6112e0565b6040516102f89190611c4f565b60405180910390f35b61031b60048036038101906103169190612123565b6112e9565b005b610325611515565b005b61032f611642565b60405161033c9190611c4f565b60405180910390f35b61034d61164e565b005b6103576117c3565b6040516103649190611c4f565b60405180910390f35b61038760048036038101906103829190611cc2565b6117cc565b005b610391611850565b005b803373ffffffffffffffffffffffffffffffffffffffff166103b3611154565b73ffffffffffffffffffffffffffffffffffffffff160361042757600160085411610413576040517f08c379a000000000000000000000000000000000000000000000000000000000815260040161040a906121da565b60405180910390fd5b6001600881905550806004819055506105c1565b6003600581111561043b5761043a611ee9565b5b60035f9054906101000a900460ff16600581111561045c5761045b611ee9565b5b1461049c576040517f08c379a000000000000000000000000000000000000000000000000000000000815260040161049390612268565b60405180910390fd5b6001151560015f3373ffffffffffffffffffffffffffffffffffffffff1673ffffffffffffffffffffffffffffffffffffffff1681526020019081526020015f205f015f9054906101000a900460ff1615151461052e576040517f08c379a0000000000000000000000000000000000000000000000000000000008152600401610525906122d0565b60405180910390fd5b5f151560015f3373ffffffffffffffffffffffffffffffffffffffff1673ffffffffffffffffffffffffffffffffffffffff1681526020019081526020015f205f0160019054906101000a900460ff161515146105c0576040517f08c379a00000000000000000000000000000000000000000000000000000000081526004016105b790612338565b60405180910390fd5b5b6002805490508210610608576040517f08c379a00000000000000000000000000000000000000000000000000000000081526004016105ff906123a0565b60405180910390fd5b6001805f3373ffffffffffffffffffffffffffffffffffffffff1673ffffffffffffffffffffffffffffffffffffffff1681526020019081526020015f205f0160016101000a81548160ff0219169083151502179055508160015f3373ffffffffffffffffffffffffffffffffffffffff1673ffffffffffffffffffffffffffffffffffffffff1681526020019081526020015f2060010181905550600282815481106106b8576106b76123be565b5b905f5260205f2090600202016001015f8154809291906106d790612418565b919050555060065f8154809291906106ee90612418565b91905055507f4d99b957a2bc29a30ebd96a7be8e68fe50a3c701db28a91436490b7d53870ca4338360405161072492919061245f565b60405180910390a15050565b5f600554905090565b6107416119ca565b5f600581111561075457610753611ee9565b5b60035f9054906101000a900460ff16600581111561077557610774611ee9565b5b146107b5576040517f08c379a00000000000000000000000000000000000000000000000000000000081526004016107ac906124f6565b60405180910390fd5b5f151560015f8373ffffffffffffffffffffffffffffffffffffffff1673ffffffffffffffffffffffffffffffffffffffff1681526020019081526020015f205f015f9054906101000a900460ff16151514610846576040517f08c379a000000000000000000000000000000000000000000000000000000000815260040161083d9061255e565b60405180910390fd5b5f60405180606001604052806001151581526020015f151581526020015f81525090508060015f8473ffffffffffffffffffffffffffffffffffffffff1673ffffffffffffffffffffffffffffffffffffffff1681526020019081526020015f205f820151815f015f6101000a81548160ff0219169083151502179055506020820151815f0160016101000a81548160ff0219169083151502179055506040820151816001015590505060055f81548092919061090290612418565b91905055507fb6be2187d059cc2a55fe29e0e503b566e1e0f8c8780096e185429350acffd3dd826040516109369190611fde565b60405180910390a15050565b606060058081111561095757610956611ee9565b5b60035f9054906101000a900460ff16600581111561097857610977611ee9565b5b146109b8576040517f08c379a00000000000000000000000000000000000000000000000000000000081526004016109af906125ec565b60405180910390fd5b6002600454815481106109ce576109cd6123be565b5b905f5260205f2090600202015f0180546109e790612637565b80601f0160208091040260200160405190810160405280929190818152602001828054610a1390612637565b8015610a5e5780601f10610a3557610100808354040283529160200191610a5e565b820191905f5260205f20905b815481529060010190602001808311610a4157829003601f168201915b5050505050905090565b610a706119ca565b5f6005811115610a8357610a82611ee9565b5b60035f9054906101000a900460ff166005811115610aa457610aa3611ee9565b5b14610ae4576040517f08c379a0000000000000000000000000000000000000000000000000000000008152600401610adb906126d7565b60405180910390fd5b600160055411610b29576040517f08c379a0000000000000000000000000000000000000000000000000000000008152600401610b2090612765565b60405180910390fd5b600160035f6101000a81548160ff02191690836005811115610b4e57610b4d611ee9565b5b02179055507f0a97a4ee45751e2abf3e4fc8946939630b11b371ea8ae39ccdc3056e98f5cc3f600160035f9054906101000a900460ff166005811115610b9757610b96611ee9565b5b610ba19190612783565b6005811115610bb357610bb2611ee9565b5b60035f9054906101000a900460ff16604051610bd09291906127b6565b60405180910390a1565b5f600580811115610bee57610bed611ee9565b5b60035f9054906101000a900460ff166005811115610c0f57610c0e611ee9565b5b14610c4f576040517f08c379a0000000000000000000000000000000000000000000000000000000008152600401610c46906125ec565b60405180910390fd5b600454905090565b60606002805480602002602001604051908101604052809291908181526020015f905b82821015610d43578382905f5260205f2090600202016040518060400160405290815f82018054610caa90612637565b80601f0160208091040260200160405190810160405280929190818152602001828054610cd690612637565b8015610d215780601f10610cf857610100808354040283529160200191610d21565b820191905f5260205f20905b815481529060010190602001808311610d0457829003601f168201915b5050505050815260200160018201548152505081526020019060010190610c7a565b50505050905090565b5f600160035f9054906101000a900460ff166005811115610d7057610d6f611ee9565b5b610d7a9190612783565b6005811115610d8c57610d8b611ee9565b5b905090565b610d996119ca565b60046005811115610dad57610dac611ee9565b5b60035f9054906101000a900460ff166005811115610dce57610dcd611ee9565b5b14610e0e576040517f08c379a0000000000000000000000000000000000000000000000000000000008152600401610e0590612827565b60405180910390fd5b600160085414610e53576040517f08c379a0000000000000000000000000000000000000000000000000000000008152600401610e4a906128b5565b60405180910390fd5b600560035f6101000a81548160ff02191690836005811115610e7857610e77611ee9565b5b02179055507f0a97a4ee45751e2abf3e4fc8946939630b11b371ea8ae39ccdc3056e98f5cc3f600160035f9054906101000a900460ff166005811115610ec157610ec0611ee9565b5b610ecb9190612783565b6005811115610edd57610edc611ee9565b5b60035f9054906101000a900460ff16604051610efa9291906127b6565b60405180910390a1565b610f0c6119ca565b610f155f611a51565b565b610f1f611bb8565b6001151560015f8473ffffffffffffffffffffffffffffffffffffffff1673ffffffffffffffffffffffffffffffffffffffff1681526020019081526020015f205f015f9054906101000a900460ff16151514610fb1576040517f08c379a0000000000000000000000000000000000000000000000000000000008152600401610fa89061291d565b60405180910390fd5b6001151560015f8473ffffffffffffffffffffffffffffffffffffffff1673ffffffffffffffffffffffffffffffffffffffff1681526020019081526020015f205f0160019054906101000a900460ff16151514611044576040517f08c379a000000000000000000000000000000000000000000000000000000000815260040161103b90612985565b60405180910390fd5b5f60015f8473ffffffffffffffffffffffffffffffffffffffff1673ffffffffffffffffffffffffffffffffffffffff1681526020019081526020015f206001015490506002818154811061109c5761109b6123be565b5b905f5260205f2090600202016040518060400160405290815f820180546110c290612637565b80601f01602080910402602001604051908101604052809291908181526020018280546110ee90612637565b80156111395780601f1061111057610100808354040283529160200191611139565b820191905f5260205f20905b81548152906001019060200180831161111c57829003601f168201915b50505050508152602001600182015481525050915050919050565b5f5f5f9054906101000a900473ffffffffffffffffffffffffffffffffffffffff16905090565b5f600954905090565b61118c611bb8565b60058081111561119f5761119e611ee9565b5b60035f9054906101000a900460ff1660058111156111c0576111bf611ee9565b5b14611200576040517f08c379a00000000000000000000000000000000000000000000000000000000081526004016111f7906125ec565b60405180910390fd5b600260045481548110611216576112156123be565b5b905f5260205f2090600202016040518060400160405290815f8201805461123c90612637565b80601f016020809104026020016040519081016040528092919081815260200182805461126890612637565b80156112b35780601f1061128a576101008083540402835291602001916112b3565b820191905f5260205f20905b81548152906001019060200180831161129657829003601f168201915b50505050508152602001600182015481525050905090565b5f60035f9054906101000a900460ff16905090565b5f600854905090565b600160058111156112fd576112fc611ee9565b5b60035f9054906101000a900460ff16600581111561131e5761131d611ee9565b5b1461135e576040517f08c379a000000000000000000000000000000000000000000000000000000000815260040161135590612a13565b60405180910390fd5b3373ffffffffffffffffffffffffffffffffffffffff1661137d611154565b73ffffffffffffffffffffffffffffffffffffffff16036113d3576040517f08c379a00000000000000000000000000000000000000000000000000000000081526004016113ca90612aa1565b60405180910390fd5b6001151560015f3373ffffffffffffffffffffffffffffffffffffffff1673ffffffffffffffffffffffffffffffffffffffff1681526020019081526020015f205f015f9054906101000a900460ff16151514611465576040517f08c379a000000000000000000000000000000000000000000000000000000000815260040161145c906122d0565b60405180910390fd5b600260405180604001604052808381526020015f815250908060018154018082558091505060019003905f5260205f2090600202015f909190919091505f820151815f0190816114b59190612c5f565b5060208201518160010155505060075f8154809291906114d490612418565b91905055507f92e393e9b54e2f801d3ea4beb0c5e71a21cc34a5d34b77d0fb8a3aa1650dc18f60075460405161150a9190611c4f565b60405180910390a150565b61151d6119ca565b6002600581111561153157611530611ee9565b5b60035f9054906101000a900460ff16600581111561155257611551611ee9565b5b14611592576040517f08c379a000000000000000000000000000000000000000000000000000000000815260040161158990612dc4565b60405180910390fd5b6003805f6101000a81548160ff021916908360058111156115b6576115b5611ee9565b5b02179055507f0a97a4ee45751e2abf3e4fc8946939630b11b371ea8ae39ccdc3056e98f5cc3f600160035f9054906101000a900460ff1660058111156115ff576115fe611ee9565b5b6116099190612783565b600581111561161b5761161a611ee9565b5b60035f9054906101000a900460ff166040516116389291906127b6565b60405180910390a1565b5f600280549050905090565b6116566119ca565b6001600581111561166a57611669611ee9565b5b60035f9054906101000a900460ff16600581111561168b5761168a611ee9565b5b146116cb576040517f08c379a00000000000000000000000000000000000000000000000000000000081526004016116c290612e52565b60405180910390fd5b5f60028054905011611712576040517f08c379a000000000000000000000000000000000000000000000000000000000815260040161170990612ee0565b60405180910390fd5b600260035f6101000a81548160ff0219169083600581111561173757611736611ee9565b5b02179055507f0a97a4ee45751e2abf3e4fc8946939630b11b371ea8ae39ccdc3056e98f5cc3f600160035f9054906101000a900460ff1660058111156117805761177f611ee9565b5b61178a9190612783565b600581111561179c5761179b611ee9565b5b60035f9054906101000a900460ff166040516117b99291906127b6565b60405180910390a1565b5f600654905090565b6117d46119ca565b5f73ffffffffffffffffffffffffffffffffffffffff168173ffffffffffffffffffffffffffffffffffffffff1603611844575f6040517f1e4fbdf700000000000000000000000000000000000000000000000000000000815260040161183b9190611fde565b60405180910390fd5b61184d81611a51565b50565b6118586119ca565b6003600581111561186c5761186b611ee9565b5b60035f9054906101000a900460ff16600581111561188d5761188c611ee9565b5b146118cd576040517f08c379a00000000000000000000000000000000000000000000000000000000081526004016118c490612f6e565b60405180910390fd5b5f60065411611911576040517f08c379a000000000000000000000000000000000000000000000000000000000815260040161190890612fd6565b60405180910390fd5b600460035f6101000a81548160ff0219169083600581111561193657611935611ee9565b5b0217905550611943611b12565b7f0a97a4ee45751e2abf3e4fc8946939630b11b371ea8ae39ccdc3056e98f5cc3f600160035f9054906101000a900460ff16600581111561198757611986611ee9565b5b6119919190612783565b60058111156119a3576119a2611ee9565b5b60035f9054906101000a900460ff166040516119c09291906127b6565b60405180910390a1565b6119d2611bb1565b73ffffffffffffffffffffffffffffffffffffffff166119f0611154565b73ffffffffffffffffffffffffffffffffffffffff1614611a4f57611a13611bb1565b6040517f118cdaa7000000000000000000000000000000000000000000000000000000008152600401611a469190611fde565b60405180910390fd5b565b5f5f5f9054906101000a900473ffffffffffffffffffffffffffffffffffffffff169050815f5f6101000a81548173ffffffffffffffffffffffffffffffffffffffff021916908373ffffffffffffffffffffffffffffffffffffffff1602179055508173ffffffffffffffffffffffffffffffffffffffff168173ffffffffffffffffffffffffffffffffffffffff167f8be0079c531659141344cd1fd0a4f28419497f9722a3daafe3b4186f6b6457e060405160405180910390a35050565b611b1a6119ca565b5f5f90505b600280549050811015611bae5760095460028281548110611b4357611b426123be565b5b905f5260205f2090600202016001015410611ba15760028181548110611b6c57611b6b6123be565b5b905f5260205f209060020201600101546009819055508060048190555060085f815480929190611b9b90612418565b91905055505b8080600101915050611b1f565b50565b5f33905090565b6040518060400160405280606081526020015f81525090565b5f604051905090565b5f5ffd5b5f5ffd5b5f819050919050565b611bf481611be2565b8114611bfe575f5ffd5b50565b5f81359050611c0f81611beb565b92915050565b5f60208284031215611c2a57611c29611bda565b5b5f611c3784828501611c01565b91505092915050565b611c4981611be2565b82525050565b5f602082019050611c625f830184611c40565b92915050565b5f73ffffffffffffffffffffffffffffffffffffffff82169050919050565b5f611c9182611c68565b9050919050565b611ca181611c87565b8114611cab575f5ffd5b50565b5f81359050611cbc81611c98565b92915050565b5f60208284031215611cd757611cd6611bda565b5b5f611ce484828501611cae565b91505092915050565b5f81519050919050565b5f82825260208201905092915050565b8281835e5f83830152505050565b5f601f19601f8301169050919050565b5f611d2f82611ced565b611d398185611cf7565b9350611d49818560208601611d07565b611d5281611d15565b840191505092915050565b5f6020820190508181035f830152611d758184611d25565b905092915050565b5f81519050919050565b5f82825260208201905092915050565b5f819050602082019050919050565b5f82825260208201905092915050565b5f611dc082611ced565b611dca8185611da6565b9350611dda818560208601611d07565b611de381611d15565b840191505092915050565b611df781611be2565b82525050565b5f604083015f8301518482035f860152611e178282611db6565b9150506020830151611e2c6020860182611dee565b508091505092915050565b5f611e428383611dfd565b905092915050565b5f602082019050919050565b5f611e6082611d7d565b611e6a8185611d87565b935083602082028501611e7c85611d97565b805f5b85811015611eb75784840389528151611e988582611e37565b9450611ea383611e4a565b925060208a01995050600181019050611e7f565b50829750879550505050505092915050565b5f6020820190508181035f830152611ee18184611e56565b905092915050565b7f4e487b71000000000000000000000000000000000000000000000000000000005f52602160045260245ffd5b60068110611f2757611f26611ee9565b5b50565b5f819050611f3782611f16565b919050565b5f611f4682611f2a565b9050919050565b611f5681611f3c565b82525050565b5f602082019050611f6f5f830184611f4d565b92915050565b5f604083015f8301518482035f860152611f8f8282611db6565b9150506020830151611fa46020860182611dee565b508091505092915050565b5f6020820190508181035f830152611fc78184611f75565b905092915050565b611fd881611c87565b82525050565b5f602082019050611ff15f830184611fcf565b92915050565b5f5ffd5b5f5ffd5b7f4e487b71000000000000000000000000000000000000000000000000000000005f52604160045260245ffd5b61203582611d15565b810181811067ffffffffffffffff8211171561205457612053611fff565b5b80604052505050565b5f612066611bd1565b9050612072828261202c565b919050565b5f67ffffffffffffffff82111561209157612090611fff565b5b61209a82611d15565b9050602081019050919050565b828183375f83830152505050565b5f6120c76120c284612077565b61205d565b9050828152602081018484840111156120e3576120e2611ffb565b5b6120ee8482856120a7565b509392505050565b5f82601f83011261210a57612109611ff7565b5b813561211a8482602086016120b5565b91505092915050565b5f6020828403121561213857612137611bda565b5b5f82013567ffffffffffffffff81111561215557612154611bde565b5b612161848285016120f6565b91505092915050565b7f596f752063616e206f6e6c7920766f7465206966207468657265206973206d6f5f8201527f7265207468616e20312077696e6e657200000000000000000000000000000000602082015250565b5f6121c4603083611cf7565b91506121cf8261216a565b604082019050919050565b5f6020820190508181035f8301526121f1816121b8565b9050919050565b7f54686520766f74696e672073657373696f6e206973206e6f74207374617274655f8201527f6400000000000000000000000000000000000000000000000000000000000000602082015250565b5f612252602183611cf7565b915061225d826121f8565b604082019050919050565b5f6020820190508181035f83015261227f81612246565b9050919050565b7f596f7520617265206e6f742072656769737465726564000000000000000000005f82015250565b5f6122ba601683611cf7565b91506122c582612286565b602082019050919050565b5f6020820190508181035f8301526122e7816122ae565b9050919050565b7f596f7520616c726561647920766f7465640000000000000000000000000000005f82015250565b5f612322601183611cf7565b915061232d826122ee565b602082019050919050565b5f6020820190508181035f83015261234f81612316565b9050919050565b7f546869732070726f706f73616c20494420646f6573206e6f74206578697374735f82015250565b5f61238a602083611cf7565b915061239582612356565b602082019050919050565b5f6020820190508181035f8301526123b78161237e565b9050919050565b7f4e487b71000000000000000000000000000000000000000000000000000000005f52603260045260245ffd5b7f4e487b71000000000000000000000000000000000000000000000000000000005f52601160045260245ffd5b5f61242282611be2565b91507fffffffffffffffffffffffffffffffffffffffffffffffffffffffffffffffff8203612454576124536123eb565b5b600182019050919050565b5f6040820190506124725f830185611fcf565b61247f6020830184611c40565b9392505050565b7f596f7520617265206e6f7420696e20766f74657220726567697374726174696f5f8201527f6e20706572696f64000000000000000000000000000000000000000000000000602082015250565b5f6124e0602883611cf7565b91506124eb82612486565b604082019050919050565b5f6020820190508181035f83015261250d816124d4565b9050919050565b7f596f7520616c72656164792068617665206164642074686973206164726573735f82015250565b5f612548602083611cf7565b915061255382612514565b602082019050919050565b5f6020820190508181035f8301526125758161253c565b9050919050565b7f5468652077696e6e65722068617665206e6f74206265656e2063686f6f73656e5f8201527f2079657400000000000000000000000000000000000000000000000000000000602082015250565b5f6125d6602483611cf7565b91506125e18261257c565b604082019050919050565b5f6020820190508181035f830152612603816125ca565b9050919050565b7f4e487b71000000000000000000000000000000000000000000000000000000005f52602260045260245ffd5b5f600282049050600182168061264e57607f821691505b6020821081036126615761266061260a565b5b50919050565b7f596f752063616e206e6f7420737461727420616761696e207468652070726f705f8201527f6f73616c2073657373696f6e0000000000000000000000000000000000000000602082015250565b5f6126c1602c83611cf7565b91506126cc82612667565b604082019050919050565b5f6020820190508181035f8301526126ee816126b5565b9050919050565b7f596f75206d757374207265676973746572206174206c656173742032206164645f8201527f7265737365730000000000000000000000000000000000000000000000000000602082015250565b5f61274f602683611cf7565b915061275a826126f5565b604082019050919050565b5f6020820190508181035f83015261277c81612743565b9050919050565b5f61278d82611be2565b915061279883611be2565b92508282039050818111156127b0576127af6123eb565b5b92915050565b5f6040820190506127c95f830185611f4d565b6127d66020830184611f4d565b9392505050565b7f54686520766f74652073657373696f6e206973206e6f7420656e6465640000005f82015250565b5f612811601d83611cf7565b915061281c826127dd565b602082019050919050565b5f6020820190508181035f83015261283e81612805565b9050919050565b7f5468657265206973206d6f7265207468616e20312077696e6e65722c20796f755f8201527f206861766520746f20766f746500000000000000000000000000000000000000602082015250565b5f61289f602d83611cf7565b91506128aa82612845565b604082019050919050565b5f6020820190508181035f8301526128cc81612893565b9050919050565b7f546869732061646472657373206973206e6f74207265676973746572656400005f82015250565b5f612907601e83611cf7565b9150612912826128d3565b602082019050919050565b5f6020820190508181035f830152612934816128fb565b9050919050565b7f54686973206164647265737320686173206e6f7420766f7465640000000000005f82015250565b5f61296f601a83611cf7565b915061297a8261293b565b602082019050919050565b5f6020820190508181035f83015261299c81612963565b9050919050565b7f5468652070726f706f73616c2073657373696f6e206973206e6f7420737461725f8201527f7465640000000000000000000000000000000000000000000000000000000000602082015250565b5f6129fd602383611cf7565b9150612a08826129a3565b604082019050919050565b5f6020820190508181035f830152612a2a816129f1565b9050919050565b7f596f752061726520746865206f776e6572206f66207468697320636f6e7472615f8201527f63742c20796f752063616e206e6f742070726f706f7365000000000000000000602082015250565b5f612a8b603783611cf7565b9150612a9682612a31565b604082019050919050565b5f6020820190508181035f830152612ab881612a7f565b9050919050565b5f819050815f5260205f209050919050565b5f6020601f8301049050919050565b5f82821b905092915050565b5f60088302612b1b7fffffffffffffffffffffffffffffffffffffffffffffffffffffffffffffffff82612ae0565b612b258683612ae0565b95508019841693508086168417925050509392505050565b5f819050919050565b5f612b60612b5b612b5684611be2565b612b3d565b611be2565b9050919050565b5f819050919050565b612b7983612b46565b612b8d612b8582612b67565b848454612aec565b825550505050565b5f5f905090565b612ba4612b95565b612baf818484612b70565b505050565b5b81811015612bd257612bc75f82612b9c565b600181019050612bb5565b5050565b601f821115612c1757612be881612abf565b612bf184612ad1565b81016020851015612c00578190505b612c14612c0c85612ad1565b830182612bb4565b50505b505050565b5f82821c905092915050565b5f612c375f1984600802612c1c565b1980831691505092915050565b5f612c4f8383612c28565b9150826002028217905092915050565b612c6882611ced565b67ffffffffffffffff811115612c8157612c80611fff565b5b612c8b8254612637565b612c96828285612bd6565b5f60209050601f831160018114612cc7575f8415612cb5578287015190505b612cbf8582612c44565b865550612d26565b601f198416612cd586612abf565b5f5b82811015612cfc57848901518255600182019150602085019450602081019050612cd7565b86831015612d195784890151612d15601f891682612c28565b8355505b6001600288020188555050505b505050505050565b7f5468652070726f706f73616c2073657373696f6e206973206e6f7420656e64655f8201527f64206f722074686520766f74652073657373696f6e2068617320616c7265616460208201527f7920737461727465640000000000000000000000000000000000000000000000604082015250565b5f612dae604983611cf7565b9150612db982612d2e565b606082019050919050565b5f6020820190508181035f830152612ddb81612da2565b9050919050565b7f5468652070726f706f73616c2073657373696f6e20686173206e6f74207374615f8201527f72746564206f722068617320616c7265616479206265656e20656e6465640000602082015250565b5f612e3c603e83611cf7565b9150612e4782612de2565b604082019050919050565b5f6020820190508181035f830152612e6981612e30565b9050919050565b7f546865726520617265206e6f2070726f706f73616c73207265676973746572655f8201527f6400000000000000000000000000000000000000000000000000000000000000602082015250565b5f612eca602183611cf7565b9150612ed582612e70565b604082019050919050565b5f6020820190508181035f830152612ef781612ebe565b9050919050565b7f54686520766f74652073657373696f6e20686173206e6f7420737461727465645f8201527f206f722068617320616c726561647920656e6465640000000000000000000000602082015250565b5f612f58603583611cf7565b9150612f6382612efe565b604082019050919050565b5f6020820190508181035f830152612f8581612f4c565b9050919050565b7f546865726520617265206e6f20766f74652072656769737465726564000000005f82015250565b5f612fc0601c83611cf7565b9150612fcb82612f8c565b602082019050919050565b5f6020820190508181035f830152612fed81612fb4565b905091905056fea264697066735822122064e2d0bc004a288eeb13e8a9e73f224383bcabc91e3c423f2515208c76ed46b164736f6c634300081c0033",
					"opcodes": "PUSH1 0x80 PUSH1 0x40 MSTORE PUSH0 PUSH1 0x3 PUSH0 PUSH2 0x100 EXP DUP2 SLOAD DUP2 PUSH1 0xFF MUL NOT AND SWAP1 DUP4 PUSH1 0x5 DUP2 GT ISZERO PUSH2 0x28 JUMPI PUSH2 0x27 PUSH2 0x185 JUMP JUMPDEST JUMPDEST MUL OR SWAP1 SSTORE POP PUSH1 0x1 PUSH1 0x9 SSTORE CALLVALUE DUP1 ISZERO PUSH2 0x3D JUMPI PUSH0 PUSH0 REVERT JUMPDEST POP CALLER PUSH0 PUSH20 0xFFFFFFFFFFFFFFFFFFFFFFFFFFFFFFFFFFFFFFFF AND DUP2 PUSH20 0xFFFFFFFFFFFFFFFFFFFFFFFFFFFFFFFFFFFFFFFF AND SUB PUSH2 0xAF JUMPI PUSH0 PUSH1 0x40 MLOAD PUSH32 0x1E4FBDF700000000000000000000000000000000000000000000000000000000 DUP2 MSTORE PUSH1 0x4 ADD PUSH2 0xA6 SWAP2 SWAP1 PUSH2 0x1F1 JUMP JUMPDEST PUSH1 0x40 MLOAD DUP1 SWAP2 SUB SWAP1 REVERT JUMPDEST PUSH2 0xBE DUP2 PUSH2 0xC4 PUSH1 0x20 SHL PUSH1 0x20 SHR JUMP JUMPDEST POP PUSH2 0x20A JUMP JUMPDEST PUSH0 PUSH0 PUSH0 SWAP1 SLOAD SWAP1 PUSH2 0x100 EXP SWAP1 DIV PUSH20 0xFFFFFFFFFFFFFFFFFFFFFFFFFFFFFFFFFFFFFFFF AND SWAP1 POP DUP2 PUSH0 PUSH0 PUSH2 0x100 EXP DUP2 SLOAD DUP2 PUSH20 0xFFFFFFFFFFFFFFFFFFFFFFFFFFFFFFFFFFFFFFFF MUL NOT AND SWAP1 DUP4 PUSH20 0xFFFFFFFFFFFFFFFFFFFFFFFFFFFFFFFFFFFFFFFF AND MUL OR SWAP1 SSTORE POP DUP2 PUSH20 0xFFFFFFFFFFFFFFFFFFFFFFFFFFFFFFFFFFFFFFFF AND DUP2 PUSH20 0xFFFFFFFFFFFFFFFFFFFFFFFFFFFFFFFFFFFFFFFF AND PUSH32 0x8BE0079C531659141344CD1FD0A4F28419497F9722A3DAAFE3B4186F6B6457E0 PUSH1 0x40 MLOAD PUSH1 0x40 MLOAD DUP1 SWAP2 SUB SWAP1 LOG3 POP POP JUMP JUMPDEST PUSH32 0x4E487B7100000000000000000000000000000000000000000000000000000000 PUSH0 MSTORE PUSH1 0x21 PUSH1 0x4 MSTORE PUSH1 0x24 PUSH0 REVERT JUMPDEST PUSH0 PUSH20 0xFFFFFFFFFFFFFFFFFFFFFFFFFFFFFFFFFFFFFFFF DUP3 AND SWAP1 POP SWAP2 SWAP1 POP JUMP JUMPDEST PUSH0 PUSH2 0x1DB DUP3 PUSH2 0x1B2 JUMP JUMPDEST SWAP1 POP SWAP2 SWAP1 POP JUMP JUMPDEST PUSH2 0x1EB DUP2 PUSH2 0x1D1 JUMP JUMPDEST DUP3 MSTORE POP POP JUMP JUMPDEST PUSH0 PUSH1 0x20 DUP3 ADD SWAP1 POP PUSH2 0x204 PUSH0 DUP4 ADD DUP5 PUSH2 0x1E2 JUMP JUMPDEST SWAP3 SWAP2 POP POP JUMP JUMPDEST PUSH2 0x302A DUP1 PUSH2 0x217 PUSH0 CODECOPY PUSH0 RETURN INVALID PUSH1 0x80 PUSH1 0x40 MSTORE CALLVALUE DUP1 ISZERO PUSH2 0xF JUMPI PUSH0 PUSH0 REVERT JUMPDEST POP PUSH1 0x4 CALLDATASIZE LT PUSH2 0x14B JUMPI PUSH0 CALLDATALOAD PUSH1 0xE0 SHR DUP1 PUSH4 0x8DA5CB5B GT PUSH2 0xC1 JUMPI DUP1 PUSH4 0xAAA98346 GT PUSH2 0x7A JUMPI DUP1 PUSH4 0xAAA98346 EQ PUSH2 0x31D JUMPI DUP1 PUSH4 0xC08CC02D EQ PUSH2 0x327 JUMPI DUP1 PUSH4 0xE06752C2 EQ PUSH2 0x345 JUMPI DUP1 PUSH4 0xE1AB86FB EQ PUSH2 0x34F JUMPI DUP1 PUSH4 0xF2FDE38B EQ PUSH2 0x36D JUMPI DUP1 PUSH4 0xF74C168D EQ PUSH2 0x389 JUMPI PUSH2 0x14B JUMP JUMPDEST DUP1 PUSH4 0x8DA5CB5B EQ PUSH2 0x26B JUMPI DUP1 PUSH4 0x9589DFCC EQ PUSH2 0x289 JUMPI DUP1 PUSH4 0xA3C1885B EQ PUSH2 0x2A7 JUMPI DUP1 PUSH4 0xA3DD2619 EQ PUSH2 0x2C5 JUMPI DUP1 PUSH4 0xA46C3637 EQ PUSH2 0x2E3 JUMPI DUP1 PUSH4 0xAA98DF39 EQ PUSH2 0x301 JUMPI PUSH2 0x14B JUMP JUMPDEST DUP1 PUSH4 0x5BC46514 GT PUSH2 0x113 JUMPI DUP1 PUSH4 0x5BC46514 EQ PUSH2 0x1CD JUMPI DUP1 PUSH4 0x62564C48 EQ PUSH2 0x1EB JUMPI DUP1 PUSH4 0x65F88A7C EQ PUSH2 0x209 JUMPI DUP1 PUSH4 0x67AF2826 EQ PUSH2 0x227 JUMPI DUP1 PUSH4 0x715018A6 EQ PUSH2 0x231 JUMPI DUP1 PUSH4 0x80525548 EQ PUSH2 0x23B JUMPI PUSH2 0x14B JUMP JUMPDEST DUP1 PUSH4 0x121B93F EQ PUSH2 0x14F JUMPI DUP1 PUSH4 0x11174A29 EQ PUSH2 0x16B JUMPI DUP1 PUSH4 0x38DB6DD3 EQ PUSH2 0x189 JUMPI DUP1 PUSH4 0x43850C2D EQ PUSH2 0x1A5 JUMPI DUP1 PUSH4 0x50D072FC EQ PUSH2 0x1C3 JUMPI JUMPDEST PUSH0 PUSH0 REVERT JUMPDEST PUSH2 0x169 PUSH1 0x4 DUP1 CALLDATASIZE SUB DUP2 ADD SWAP1 PUSH2 0x164 SWAP2 SWAP1 PUSH2 0x1C15 JUMP JUMPDEST PUSH2 0x393 JUMP JUMPDEST STOP JUMPDEST PUSH2 0x173 PUSH2 0x730 JUMP JUMPDEST PUSH1 0x40 MLOAD PUSH2 0x180 SWAP2 SWAP1 PUSH2 0x1C4F JUMP JUMPDEST PUSH1 0x40 MLOAD DUP1 SWAP2 SUB SWAP1 RETURN JUMPDEST PUSH2 0x1A3 PUSH1 0x4 DUP1 CALLDATASIZE SUB DUP2 ADD SWAP1 PUSH2 0x19E SWAP2 SWAP1 PUSH2 0x1CC2 JUMP JUMPDEST PUSH2 0x739 JUMP JUMPDEST STOP JUMPDEST PUSH2 0x1AD PUSH2 0x942 JUMP JUMPDEST PUSH1 0x40 MLOAD PUSH2 0x1BA SWAP2 SWAP1 PUSH2 0x1D5D JUMP JUMPDEST PUSH1 0x40 MLOAD DUP1 SWAP2 SUB SWAP1 RETURN JUMPDEST PUSH2 0x1CB PUSH2 0xA68 JUMP JUMPDEST STOP JUMPDEST PUSH2 0x1D5 PUSH2 0xBDA JUMP JUMPDEST PUSH1 0x40 MLOAD PUSH2 0x1E2 SWAP2 SWAP1 PUSH2 0x1C4F JUMP JUMPDEST PUSH1 0x40 MLOAD DUP1 SWAP2 SUB SWAP1 RETURN JUMPDEST PUSH2 0x1F3 PUSH2 0xC57 JUMP JUMPDEST PUSH1 0x40 MLOAD PUSH2 0x200 SWAP2 SWAP1 PUSH2 0x1EC9 JUMP JUMPDEST PUSH1 0x40 MLOAD DUP1 SWAP2 SUB SWAP1 RETURN JUMPDEST PUSH2 0x211 PUSH2 0xD4C JUMP JUMPDEST PUSH1 0x40 MLOAD PUSH2 0x21E SWAP2 SWAP1 PUSH2 0x1F5C JUMP JUMPDEST PUSH1 0x40 MLOAD DUP1 SWAP2 SUB SWAP1 RETURN JUMPDEST PUSH2 0x22F PUSH2 0xD91 JUMP JUMPDEST STOP JUMPDEST PUSH2 0x239 PUSH2 0xF04 JUMP JUMPDEST STOP JUMPDEST PUSH2 0x255 PUSH1 0x4 DUP1 CALLDATASIZE SUB DUP2 ADD SWAP1 PUSH2 0x250 SWAP2 SWAP1 PUSH2 0x1CC2 JUMP JUMPDEST PUSH2 0xF17 JUMP JUMPDEST PUSH1 0x40 MLOAD PUSH2 0x262 SWAP2 SWAP1 PUSH2 0x1FAF JUMP JUMPDEST PUSH1 0x40 MLOAD DUP1 SWAP2 SUB SWAP1 RETURN JUMPDEST PUSH2 0x273 PUSH2 0x1154 JUMP JUMPDEST PUSH1 0x40 MLOAD PUSH2 0x280 SWAP2 SWAP1 PUSH2 0x1FDE JUMP JUMPDEST PUSH1 0x40 MLOAD DUP1 SWAP2 SUB SWAP1 RETURN JUMPDEST PUSH2 0x291 PUSH2 0x117B JUMP JUMPDEST PUSH1 0x40 MLOAD PUSH2 0x29E SWAP2 SWAP1 PUSH2 0x1C4F JUMP JUMPDEST PUSH1 0x40 MLOAD DUP1 SWAP2 SUB SWAP1 RETURN JUMPDEST PUSH2 0x2AF PUSH2 0x1184 JUMP JUMPDEST PUSH1 0x40 MLOAD PUSH2 0x2BC SWAP2 SWAP1 PUSH2 0x1FAF JUMP JUMPDEST PUSH1 0x40 MLOAD DUP1 SWAP2 SUB SWAP1 RETURN JUMPDEST PUSH2 0x2CD PUSH2 0x12CB JUMP JUMPDEST PUSH1 0x40 MLOAD PUSH2 0x2DA SWAP2 SWAP1 PUSH2 0x1F5C JUMP JUMPDEST PUSH1 0x40 MLOAD DUP1 SWAP2 SUB SWAP1 RETURN JUMPDEST PUSH2 0x2EB PUSH2 0x12E0 JUMP JUMPDEST PUSH1 0x40 MLOAD PUSH2 0x2F8 SWAP2 SWAP1 PUSH2 0x1C4F JUMP JUMPDEST PUSH1 0x40 MLOAD DUP1 SWAP2 SUB SWAP1 RETURN JUMPDEST PUSH2 0x31B PUSH1 0x4 DUP1 CALLDATASIZE SUB DUP2 ADD SWAP1 PUSH2 0x316 SWAP2 SWAP1 PUSH2 0x2123 JUMP JUMPDEST PUSH2 0x12E9 JUMP JUMPDEST STOP JUMPDEST PUSH2 0x325 PUSH2 0x1515 JUMP JUMPDEST STOP JUMPDEST PUSH2 0x32F PUSH2 0x1642 JUMP JUMPDEST PUSH1 0x40 MLOAD PUSH2 0x33C SWAP2 SWAP1 PUSH2 0x1C4F JUMP JUMPDEST PUSH1 0x40 MLOAD DUP1 SWAP2 SUB SWAP1 RETURN JUMPDEST PUSH2 0x34D PUSH2 0x164E JUMP JUMPDEST STOP JUMPDEST PUSH2 0x357 PUSH2 0x17C3 JUMP JUMPDEST PUSH1 0x40 MLOAD PUSH2 0x364 SWAP2 SWAP1 PUSH2 0x1C4F JUMP JUMPDEST PUSH1 0x40 MLOAD DUP1 SWAP2 SUB SWAP1 RETURN JUMPDEST PUSH2 0x387 PUSH1 0x4 DUP1 CALLDATASIZE SUB DUP2 ADD SWAP1 PUSH2 0x382 SWAP2 SWAP1 PUSH2 0x1CC2 JUMP JUMPDEST PUSH2 0x17CC JUMP JUMPDEST STOP JUMPDEST PUSH2 0x391 PUSH2 0x1850 JUMP JUMPDEST STOP JUMPDEST DUP1 CALLER PUSH20 0xFFFFFFFFFFFFFFFFFFFFFFFFFFFFFFFFFFFFFFFF AND PUSH2 0x3B3 PUSH2 0x1154 JUMP JUMPDEST PUSH20 0xFFFFFFFFFFFFFFFFFFFFFFFFFFFFFFFFFFFFFFFF AND SUB PUSH2 0x427 JUMPI PUSH1 0x1 PUSH1 0x8 SLOAD GT PUSH2 0x413 JUMPI PUSH1 0x40 MLOAD PUSH32 0x8C379A000000000000000000000000000000000000000000000000000000000 DUP2 MSTORE PUSH1 0x4 ADD PUSH2 0x40A SWAP1 PUSH2 0x21DA JUMP JUMPDEST PUSH1 0x40 MLOAD DUP1 SWAP2 SUB SWAP1 REVERT JUMPDEST PUSH1 0x1 PUSH1 0x8 DUP2 SWAP1 SSTORE POP DUP1 PUSH1 0x4 DUP2 SWAP1 SSTORE POP PUSH2 0x5C1 JUMP JUMPDEST PUSH1 0x3 PUSH1 0x5 DUP2 GT ISZERO PUSH2 0x43B JUMPI PUSH2 0x43A PUSH2 0x1EE9 JUMP JUMPDEST JUMPDEST PUSH1 0x3 PUSH0 SWAP1 SLOAD SWAP1 PUSH2 0x100 EXP SWAP1 DIV PUSH1 0xFF AND PUSH1 0x5 DUP2 GT ISZERO PUSH2 0x45C JUMPI PUSH2 0x45B PUSH2 0x1EE9 JUMP JUMPDEST JUMPDEST EQ PUSH2 0x49C JUMPI PUSH1 0x40 MLOAD PUSH32 0x8C379A000000000000000000000000000000000000000000000000000000000 DUP2 MSTORE PUSH1 0x4 ADD PUSH2 0x493 SWAP1 PUSH2 0x2268 JUMP JUMPDEST PUSH1 0x40 MLOAD DUP1 SWAP2 SUB SWAP1 REVERT JUMPDEST PUSH1 0x1 ISZERO ISZERO PUSH1 0x1 PUSH0 CALLER PUSH20 0xFFFFFFFFFFFFFFFFFFFFFFFFFFFFFFFFFFFFFFFF AND PUSH20 0xFFFFFFFFFFFFFFFFFFFFFFFFFFFFFFFFFFFFFFFF AND DUP2 MSTORE PUSH1 0x20 ADD SWAP1 DUP2 MSTORE PUSH1 0x20 ADD PUSH0 KECCAK256 PUSH0 ADD PUSH0 SWAP1 SLOAD SWAP1 PUSH2 0x100 EXP SWAP1 DIV PUSH1 0xFF AND ISZERO ISZERO EQ PUSH2 0x52E JUMPI PUSH1 0x40 MLOAD PUSH32 0x8C379A000000000000000000000000000000000000000000000000000000000 DUP2 MSTORE PUSH1 0x4 ADD PUSH2 0x525 SWAP1 PUSH2 0x22D0 JUMP JUMPDEST PUSH1 0x40 MLOAD DUP1 SWAP2 SUB SWAP1 REVERT JUMPDEST PUSH0 ISZERO ISZERO PUSH1 0x1 PUSH0 CALLER PUSH20 0xFFFFFFFFFFFFFFFFFFFFFFFFFFFFFFFFFFFFFFFF AND PUSH20 0xFFFFFFFFFFFFFFFFFFFFFFFFFFFFFFFFFFFFFFFF AND DUP2 MSTORE PUSH1 0x20 ADD SWAP1 DUP2 MSTORE PUSH1 0x20 ADD PUSH0 KECCAK256 PUSH0 ADD PUSH1 0x1 SWAP1 SLOAD SWAP1 PUSH2 0x100 EXP SWAP1 DIV PUSH1 0xFF AND ISZERO ISZERO EQ PUSH2 0x5C0 JUMPI PUSH1 0x40 MLOAD PUSH32 0x8C379A000000000000000000000000000000000000000000000000000000000 DUP2 MSTORE PUSH1 0x4 ADD PUSH2 0x5B7 SWAP1 PUSH2 0x2338 JUMP JUMPDEST PUSH1 0x40 MLOAD DUP1 SWAP2 SUB SWAP1 REVERT JUMPDEST JUMPDEST PUSH1 0x2 DUP1 SLOAD SWAP1 POP DUP3 LT PUSH2 0x608 JUMPI PUSH1 0x40 MLOAD PUSH32 0x8C379A000000000000000000000000000000000000000000000000000000000 DUP2 MSTORE PUSH1 0x4 ADD PUSH2 0x5FF SWAP1 PUSH2 0x23A0 JUMP JUMPDEST PUSH1 0x40 MLOAD DUP1 SWAP2 SUB SWAP1 REVERT JUMPDEST PUSH1 0x1 DUP1 PUSH0 CALLER PUSH20 0xFFFFFFFFFFFFFFFFFFFFFFFFFFFFFFFFFFFFFFFF AND PUSH20 0xFFFFFFFFFFFFFFFFFFFFFFFFFFFFFFFFFFFFFFFF AND DUP2 MSTORE PUSH1 0x20 ADD SWAP1 DUP2 MSTORE PUSH1 0x20 ADD PUSH0 KECCAK256 PUSH0 ADD PUSH1 0x1 PUSH2 0x100 EXP DUP2 SLOAD DUP2 PUSH1 0xFF MUL NOT AND SWAP1 DUP4 ISZERO ISZERO MUL OR SWAP1 SSTORE POP DUP2 PUSH1 0x1 PUSH0 CALLER PUSH20 0xFFFFFFFFFFFFFFFFFFFFFFFFFFFFFFFFFFFFFFFF AND PUSH20 0xFFFFFFFFFFFFFFFFFFFFFFFFFFFFFFFFFFFFFFFF AND DUP2 MSTORE PUSH1 0x20 ADD SWAP1 DUP2 MSTORE PUSH1 0x20 ADD PUSH0 KECCAK256 PUSH1 0x1 ADD DUP2 SWAP1 SSTORE POP PUSH1 0x2 DUP3 DUP2 SLOAD DUP2 LT PUSH2 0x6B8 JUMPI PUSH2 0x6B7 PUSH2 0x23BE JUMP JUMPDEST JUMPDEST SWAP1 PUSH0 MSTORE PUSH1 0x20 PUSH0 KECCAK256 SWAP1 PUSH1 0x2 MUL ADD PUSH1 0x1 ADD PUSH0 DUP2 SLOAD DUP1 SWAP3 SWAP2 SWAP1 PUSH2 0x6D7 SWAP1 PUSH2 0x2418 JUMP JUMPDEST SWAP2 SWAP1 POP SSTORE POP PUSH1 0x6 PUSH0 DUP2 SLOAD DUP1 SWAP3 SWAP2 SWAP1 PUSH2 0x6EE SWAP1 PUSH2 0x2418 JUMP JUMPDEST SWAP2 SWAP1 POP SSTORE POP PUSH32 0x4D99B957A2BC29A30EBD96A7BE8E68FE50A3C701DB28A91436490B7D53870CA4 CALLER DUP4 PUSH1 0x40 MLOAD PUSH2 0x724 SWAP3 SWAP2 SWAP1 PUSH2 0x245F JUMP JUMPDEST PUSH1 0x40 MLOAD DUP1 SWAP2 SUB SWAP1 LOG1 POP POP JUMP JUMPDEST PUSH0 PUSH1 0x5 SLOAD SWAP1 POP SWAP1 JUMP JUMPDEST PUSH2 0x741 PUSH2 0x19CA JUMP JUMPDEST PUSH0 PUSH1 0x5 DUP2 GT ISZERO PUSH2 0x754 JUMPI PUSH2 0x753 PUSH2 0x1EE9 JUMP JUMPDEST JUMPDEST PUSH1 0x3 PUSH0 SWAP1 SLOAD SWAP1 PUSH2 0x100 EXP SWAP1 DIV PUSH1 0xFF AND PUSH1 0x5 DUP2 GT ISZERO PUSH2 0x775 JUMPI PUSH2 0x774 PUSH2 0x1EE9 JUMP JUMPDEST JUMPDEST EQ PUSH2 0x7B5 JUMPI PUSH1 0x40 MLOAD PUSH32 0x8C379A000000000000000000000000000000000000000000000000000000000 DUP2 MSTORE PUSH1 0x4 ADD PUSH2 0x7AC SWAP1 PUSH2 0x24F6 JUMP JUMPDEST PUSH1 0x40 MLOAD DUP1 SWAP2 SUB SWAP1 REVERT JUMPDEST PUSH0 ISZERO ISZERO PUSH1 0x1 PUSH0 DUP4 PUSH20 0xFFFFFFFFFFFFFFFFFFFFFFFFFFFFFFFFFFFFFFFF AND PUSH20 0xFFFFFFFFFFFFFFFFFFFFFFFFFFFFFFFFFFFFFFFF AND DUP2 MSTORE PUSH1 0x20 ADD SWAP1 DUP2 MSTORE PUSH1 0x20 ADD PUSH0 KECCAK256 PUSH0 ADD PUSH0 SWAP1 SLOAD SWAP1 PUSH2 0x100 EXP SWAP1 DIV PUSH1 0xFF AND ISZERO ISZERO EQ PUSH2 0x846 JUMPI PUSH1 0x40 MLOAD PUSH32 0x8C379A000000000000000000000000000000000000000000000000000000000 DUP2 MSTORE PUSH1 0x4 ADD PUSH2 0x83D SWAP1 PUSH2 0x255E JUMP JUMPDEST PUSH1 0x40 MLOAD DUP1 SWAP2 SUB SWAP1 REVERT JUMPDEST PUSH0 PUSH1 0x40 MLOAD DUP1 PUSH1 0x60 ADD PUSH1 0x40 MSTORE DUP1 PUSH1 0x1 ISZERO ISZERO DUP2 MSTORE PUSH1 0x20 ADD PUSH0 ISZERO ISZERO DUP2 MSTORE PUSH1 0x20 ADD PUSH0 DUP2 MSTORE POP SWAP1 POP DUP1 PUSH1 0x1 PUSH0 DUP5 PUSH20 0xFFFFFFFFFFFFFFFFFFFFFFFFFFFFFFFFFFFFFFFF AND PUSH20 0xFFFFFFFFFFFFFFFFFFFFFFFFFFFFFFFFFFFFFFFF AND DUP2 MSTORE PUSH1 0x20 ADD SWAP1 DUP2 MSTORE PUSH1 0x20 ADD PUSH0 KECCAK256 PUSH0 DUP3 ADD MLOAD DUP2 PUSH0 ADD PUSH0 PUSH2 0x100 EXP DUP2 SLOAD DUP2 PUSH1 0xFF MUL NOT AND SWAP1 DUP4 ISZERO ISZERO MUL OR SWAP1 SSTORE POP PUSH1 0x20 DUP3 ADD MLOAD DUP2 PUSH0 ADD PUSH1 0x1 PUSH2 0x100 EXP DUP2 SLOAD DUP2 PUSH1 0xFF MUL NOT AND SWAP1 DUP4 ISZERO ISZERO MUL OR SWAP1 SSTORE POP PUSH1 0x40 DUP3 ADD MLOAD DUP2 PUSH1 0x1 ADD SSTORE SWAP1 POP POP PUSH1 0x5 PUSH0 DUP2 SLOAD DUP1 SWAP3 SWAP2 SWAP1 PUSH2 0x902 SWAP1 PUSH2 0x2418 JUMP JUMPDEST SWAP2 SWAP1 POP SSTORE POP PUSH32 0xB6BE2187D059CC2A55FE29E0E503B566E1E0F8C8780096E185429350ACFFD3DD DUP3 PUSH1 0x40 MLOAD PUSH2 0x936 SWAP2 SWAP1 PUSH2 0x1FDE JUMP JUMPDEST PUSH1 0x40 MLOAD DUP1 SWAP2 SUB SWAP1 LOG1 POP POP JUMP JUMPDEST PUSH1 0x60 PUSH1 0x5 DUP1 DUP2 GT ISZERO PUSH2 0x957 JUMPI PUSH2 0x956 PUSH2 0x1EE9 JUMP JUMPDEST JUMPDEST PUSH1 0x3 PUSH0 SWAP1 SLOAD SWAP1 PUSH2 0x100 EXP SWAP1 DIV PUSH1 0xFF AND PUSH1 0x5 DUP2 GT ISZERO PUSH2 0x978 JUMPI PUSH2 0x977 PUSH2 0x1EE9 JUMP JUMPDEST JUMPDEST EQ PUSH2 0x9B8 JUMPI PUSH1 0x40 MLOAD PUSH32 0x8C379A000000000000000000000000000000000000000000000000000000000 DUP2 MSTORE PUSH1 0x4 ADD PUSH2 0x9AF SWAP1 PUSH2 0x25EC JUMP JUMPDEST PUSH1 0x40 MLOAD DUP1 SWAP2 SUB SWAP1 REVERT JUMPDEST PUSH1 0x2 PUSH1 0x4 SLOAD DUP2 SLOAD DUP2 LT PUSH2 0x9CE JUMPI PUSH2 0x9CD PUSH2 0x23BE JUMP JUMPDEST JUMPDEST SWAP1 PUSH0 MSTORE PUSH1 0x20 PUSH0 KECCAK256 SWAP1 PUSH1 0x2 MUL ADD PUSH0 ADD DUP1 SLOAD PUSH2 0x9E7 SWAP1 PUSH2 0x2637 JUMP JUMPDEST DUP1 PUSH1 0x1F ADD PUSH1 0x20 DUP1 SWAP2 DIV MUL PUSH1 0x20 ADD PUSH1 0x40 MLOAD SWAP1 DUP2 ADD PUSH1 0x40 MSTORE DUP1 SWAP3 SWAP2 SWAP1 DUP2 DUP2 MSTORE PUSH1 0x20 ADD DUP3 DUP1 SLOAD PUSH2 0xA13 SWAP1 PUSH2 0x2637 JUMP JUMPDEST DUP1 ISZERO PUSH2 0xA5E JUMPI DUP1 PUSH1 0x1F LT PUSH2 0xA35 JUMPI PUSH2 0x100 DUP1 DUP4 SLOAD DIV MUL DUP4 MSTORE SWAP2 PUSH1 0x20 ADD SWAP2 PUSH2 0xA5E JUMP JUMPDEST DUP3 ADD SWAP2 SWAP1 PUSH0 MSTORE PUSH1 0x20 PUSH0 KECCAK256 SWAP1 JUMPDEST DUP2 SLOAD DUP2 MSTORE SWAP1 PUSH1 0x1 ADD SWAP1 PUSH1 0x20 ADD DUP1 DUP4 GT PUSH2 0xA41 JUMPI DUP3 SWAP1 SUB PUSH1 0x1F AND DUP3 ADD SWAP2 JUMPDEST POP POP POP POP POP SWAP1 POP SWAP1 JUMP JUMPDEST PUSH2 0xA70 PUSH2 0x19CA JUMP JUMPDEST PUSH0 PUSH1 0x5 DUP2 GT ISZERO PUSH2 0xA83 JUMPI PUSH2 0xA82 PUSH2 0x1EE9 JUMP JUMPDEST JUMPDEST PUSH1 0x3 PUSH0 SWAP1 SLOAD SWAP1 PUSH2 0x100 EXP SWAP1 DIV PUSH1 0xFF AND PUSH1 0x5 DUP2 GT ISZERO PUSH2 0xAA4 JUMPI PUSH2 0xAA3 PUSH2 0x1EE9 JUMP JUMPDEST JUMPDEST EQ PUSH2 0xAE4 JUMPI PUSH1 0x40 MLOAD PUSH32 0x8C379A000000000000000000000000000000000000000000000000000000000 DUP2 MSTORE PUSH1 0x4 ADD PUSH2 0xADB SWAP1 PUSH2 0x26D7 JUMP JUMPDEST PUSH1 0x40 MLOAD DUP1 SWAP2 SUB SWAP1 REVERT JUMPDEST PUSH1 0x1 PUSH1 0x5 SLOAD GT PUSH2 0xB29 JUMPI PUSH1 0x40 MLOAD PUSH32 0x8C379A000000000000000000000000000000000000000000000000000000000 DUP2 MSTORE PUSH1 0x4 ADD PUSH2 0xB20 SWAP1 PUSH2 0x2765 JUMP JUMPDEST PUSH1 0x40 MLOAD DUP1 SWAP2 SUB SWAP1 REVERT JUMPDEST PUSH1 0x1 PUSH1 0x3 PUSH0 PUSH2 0x100 EXP DUP2 SLOAD DUP2 PUSH1 0xFF MUL NOT AND SWAP1 DUP4 PUSH1 0x5 DUP2 GT ISZERO PUSH2 0xB4E JUMPI PUSH2 0xB4D PUSH2 0x1EE9 JUMP JUMPDEST JUMPDEST MUL OR SWAP1 SSTORE POP PUSH32 0xA97A4EE45751E2ABF3E4FC8946939630B11B371EA8AE39CCDC3056E98F5CC3F PUSH1 0x1 PUSH1 0x3 PUSH0 SWAP1 SLOAD SWAP1 PUSH2 0x100 EXP SWAP1 DIV PUSH1 0xFF AND PUSH1 0x5 DUP2 GT ISZERO PUSH2 0xB97 JUMPI PUSH2 0xB96 PUSH2 0x1EE9 JUMP JUMPDEST JUMPDEST PUSH2 0xBA1 SWAP2 SWAP1 PUSH2 0x2783 JUMP JUMPDEST PUSH1 0x5 DUP2 GT ISZERO PUSH2 0xBB3 JUMPI PUSH2 0xBB2 PUSH2 0x1EE9 JUMP JUMPDEST JUMPDEST PUSH1 0x3 PUSH0 SWAP1 SLOAD SWAP1 PUSH2 0x100 EXP SWAP1 DIV PUSH1 0xFF AND PUSH1 0x40 MLOAD PUSH2 0xBD0 SWAP3 SWAP2 SWAP1 PUSH2 0x27B6 JUMP JUMPDEST PUSH1 0x40 MLOAD DUP1 SWAP2 SUB SWAP1 LOG1 JUMP JUMPDEST PUSH0 PUSH1 0x5 DUP1 DUP2 GT ISZERO PUSH2 0xBEE JUMPI PUSH2 0xBED PUSH2 0x1EE9 JUMP JUMPDEST JUMPDEST PUSH1 0x3 PUSH0 SWAP1 SLOAD SWAP1 PUSH2 0x100 EXP SWAP1 DIV PUSH1 0xFF AND PUSH1 0x5 DUP2 GT ISZERO PUSH2 0xC0F JUMPI PUSH2 0xC0E PUSH2 0x1EE9 JUMP JUMPDEST JUMPDEST EQ PUSH2 0xC4F JUMPI PUSH1 0x40 MLOAD PUSH32 0x8C379A000000000000000000000000000000000000000000000000000000000 DUP2 MSTORE PUSH1 0x4 ADD PUSH2 0xC46 SWAP1 PUSH2 0x25EC JUMP JUMPDEST PUSH1 0x40 MLOAD DUP1 SWAP2 SUB SWAP1 REVERT JUMPDEST PUSH1 0x4 SLOAD SWAP1 POP SWAP1 JUMP JUMPDEST PUSH1 0x60 PUSH1 0x2 DUP1 SLOAD DUP1 PUSH1 0x20 MUL PUSH1 0x20 ADD PUSH1 0x40 MLOAD SWAP1 DUP2 ADD PUSH1 0x40 MSTORE DUP1 SWAP3 SWAP2 SWAP1 DUP2 DUP2 MSTORE PUSH1 0x20 ADD PUSH0 SWAP1 JUMPDEST DUP3 DUP3 LT ISZERO PUSH2 0xD43 JUMPI DUP4 DUP3 SWAP1 PUSH0 MSTORE PUSH1 0x20 PUSH0 KECCAK256 SWAP1 PUSH1 0x2 MUL ADD PUSH1 0x40 MLOAD DUP1 PUSH1 0x40 ADD PUSH1 0x40 MSTORE SWAP1 DUP2 PUSH0 DUP3 ADD DUP1 SLOAD PUSH2 0xCAA SWAP1 PUSH2 0x2637 JUMP JUMPDEST DUP1 PUSH1 0x1F ADD PUSH1 0x20 DUP1 SWAP2 DIV MUL PUSH1 0x20 ADD PUSH1 0x40 MLOAD SWAP1 DUP2 ADD PUSH1 0x40 MSTORE DUP1 SWAP3 SWAP2 SWAP1 DUP2 DUP2 MSTORE PUSH1 0x20 ADD DUP3 DUP1 SLOAD PUSH2 0xCD6 SWAP1 PUSH2 0x2637 JUMP JUMPDEST DUP1 ISZERO PUSH2 0xD21 JUMPI DUP1 PUSH1 0x1F LT PUSH2 0xCF8 JUMPI PUSH2 0x100 DUP1 DUP4 SLOAD DIV MUL DUP4 MSTORE SWAP2 PUSH1 0x20 ADD SWAP2 PUSH2 0xD21 JUMP JUMPDEST DUP3 ADD SWAP2 SWAP1 PUSH0 MSTORE PUSH1 0x20 PUSH0 KECCAK256 SWAP1 JUMPDEST DUP2 SLOAD DUP2 MSTORE SWAP1 PUSH1 0x1 ADD SWAP1 PUSH1 0x20 ADD DUP1 DUP4 GT PUSH2 0xD04 JUMPI DUP3 SWAP1 SUB PUSH1 0x1F AND DUP3 ADD SWAP2 JUMPDEST POP POP POP POP POP DUP2 MSTORE PUSH1 0x20 ADD PUSH1 0x1 DUP3 ADD SLOAD DUP2 MSTORE POP POP DUP2 MSTORE PUSH1 0x20 ADD SWAP1 PUSH1 0x1 ADD SWAP1 PUSH2 0xC7A JUMP JUMPDEST POP POP POP POP SWAP1 POP SWAP1 JUMP JUMPDEST PUSH0 PUSH1 0x1 PUSH1 0x3 PUSH0 SWAP1 SLOAD SWAP1 PUSH2 0x100 EXP SWAP1 DIV PUSH1 0xFF AND PUSH1 0x5 DUP2 GT ISZERO PUSH2 0xD70 JUMPI PUSH2 0xD6F PUSH2 0x1EE9 JUMP JUMPDEST JUMPDEST PUSH2 0xD7A SWAP2 SWAP1 PUSH2 0x2783 JUMP JUMPDEST PUSH1 0x5 DUP2 GT ISZERO PUSH2 0xD8C JUMPI PUSH2 0xD8B PUSH2 0x1EE9 JUMP JUMPDEST JUMPDEST SWAP1 POP SWAP1 JUMP JUMPDEST PUSH2 0xD99 PUSH2 0x19CA JUMP JUMPDEST PUSH1 0x4 PUSH1 0x5 DUP2 GT ISZERO PUSH2 0xDAD JUMPI PUSH2 0xDAC PUSH2 0x1EE9 JUMP JUMPDEST JUMPDEST PUSH1 0x3 PUSH0 SWAP1 SLOAD SWAP1 PUSH2 0x100 EXP SWAP1 DIV PUSH1 0xFF AND PUSH1 0x5 DUP2 GT ISZERO PUSH2 0xDCE JUMPI PUSH2 0xDCD PUSH2 0x1EE9 JUMP JUMPDEST JUMPDEST EQ PUSH2 0xE0E JUMPI PUSH1 0x40 MLOAD PUSH32 0x8C379A000000000000000000000000000000000000000000000000000000000 DUP2 MSTORE PUSH1 0x4 ADD PUSH2 0xE05 SWAP1 PUSH2 0x2827 JUMP JUMPDEST PUSH1 0x40 MLOAD DUP1 SWAP2 SUB SWAP1 REVERT JUMPDEST PUSH1 0x1 PUSH1 0x8 SLOAD EQ PUSH2 0xE53 JUMPI PUSH1 0x40 MLOAD PUSH32 0x8C379A000000000000000000000000000000000000000000000000000000000 DUP2 MSTORE PUSH1 0x4 ADD PUSH2 0xE4A SWAP1 PUSH2 0x28B5 JUMP JUMPDEST PUSH1 0x40 MLOAD DUP1 SWAP2 SUB SWAP1 REVERT JUMPDEST PUSH1 0x5 PUSH1 0x3 PUSH0 PUSH2 0x100 EXP DUP2 SLOAD DUP2 PUSH1 0xFF MUL NOT AND SWAP1 DUP4 PUSH1 0x5 DUP2 GT ISZERO PUSH2 0xE78 JUMPI PUSH2 0xE77 PUSH2 0x1EE9 JUMP JUMPDEST JUMPDEST MUL OR SWAP1 SSTORE POP PUSH32 0xA97A4EE45751E2ABF3E4FC8946939630B11B371EA8AE39CCDC3056E98F5CC3F PUSH1 0x1 PUSH1 0x3 PUSH0 SWAP1 SLOAD SWAP1 PUSH2 0x100 EXP SWAP1 DIV PUSH1 0xFF AND PUSH1 0x5 DUP2 GT ISZERO PUSH2 0xEC1 JUMPI PUSH2 0xEC0 PUSH2 0x1EE9 JUMP JUMPDEST JUMPDEST PUSH2 0xECB SWAP2 SWAP1 PUSH2 0x2783 JUMP JUMPDEST PUSH1 0x5 DUP2 GT ISZERO PUSH2 0xEDD JUMPI PUSH2 0xEDC PUSH2 0x1EE9 JUMP JUMPDEST JUMPDEST PUSH1 0x3 PUSH0 SWAP1 SLOAD SWAP1 PUSH2 0x100 EXP SWAP1 DIV PUSH1 0xFF AND PUSH1 0x40 MLOAD PUSH2 0xEFA SWAP3 SWAP2 SWAP1 PUSH2 0x27B6 JUMP JUMPDEST PUSH1 0x40 MLOAD DUP1 SWAP2 SUB SWAP1 LOG1 JUMP JUMPDEST PUSH2 0xF0C PUSH2 0x19CA JUMP JUMPDEST PUSH2 0xF15 PUSH0 PUSH2 0x1A51 JUMP JUMPDEST JUMP JUMPDEST PUSH2 0xF1F PUSH2 0x1BB8 JUMP JUMPDEST PUSH1 0x1 ISZERO ISZERO PUSH1 0x1 PUSH0 DUP5 PUSH20 0xFFFFFFFFFFFFFFFFFFFFFFFFFFFFFFFFFFFFFFFF AND PUSH20 0xFFFFFFFFFFFFFFFFFFFFFFFFFFFFFFFFFFFFFFFF AND DUP2 MSTORE PUSH1 0x20 ADD SWAP1 DUP2 MSTORE PUSH1 0x20 ADD PUSH0 KECCAK256 PUSH0 ADD PUSH0 SWAP1 SLOAD SWAP1 PUSH2 0x100 EXP SWAP1 DIV PUSH1 0xFF AND ISZERO ISZERO EQ PUSH2 0xFB1 JUMPI PUSH1 0x40 MLOAD PUSH32 0x8C379A000000000000000000000000000000000000000000000000000000000 DUP2 MSTORE PUSH1 0x4 ADD PUSH2 0xFA8 SWAP1 PUSH2 0x291D JUMP JUMPDEST PUSH1 0x40 MLOAD DUP1 SWAP2 SUB SWAP1 REVERT JUMPDEST PUSH1 0x1 ISZERO ISZERO PUSH1 0x1 PUSH0 DUP5 PUSH20 0xFFFFFFFFFFFFFFFFFFFFFFFFFFFFFFFFFFFFFFFF AND PUSH20 0xFFFFFFFFFFFFFFFFFFFFFFFFFFFFFFFFFFFFFFFF AND DUP2 MSTORE PUSH1 0x20 ADD SWAP1 DUP2 MSTORE PUSH1 0x20 ADD PUSH0 KECCAK256 PUSH0 ADD PUSH1 0x1 SWAP1 SLOAD SWAP1 PUSH2 0x100 EXP SWAP1 DIV PUSH1 0xFF AND ISZERO ISZERO EQ PUSH2 0x1044 JUMPI PUSH1 0x40 MLOAD PUSH32 0x8C379A000000000000000000000000000000000000000000000000000000000 DUP2 MSTORE PUSH1 0x4 ADD PUSH2 0x103B SWAP1 PUSH2 0x2985 JUMP JUMPDEST PUSH1 0x40 MLOAD DUP1 SWAP2 SUB SWAP1 REVERT JUMPDEST PUSH0 PUSH1 0x1 PUSH0 DUP5 PUSH20 0xFFFFFFFFFFFFFFFFFFFFFFFFFFFFFFFFFFFFFFFF AND PUSH20 0xFFFFFFFFFFFFFFFFFFFFFFFFFFFFFFFFFFFFFFFF AND DUP2 MSTORE PUSH1 0x20 ADD SWAP1 DUP2 MSTORE PUSH1 0x20 ADD PUSH0 KECCAK256 PUSH1 0x1 ADD SLOAD SWAP1 POP PUSH1 0x2 DUP2 DUP2 SLOAD DUP2 LT PUSH2 0x109C JUMPI PUSH2 0x109B PUSH2 0x23BE JUMP JUMPDEST JUMPDEST SWAP1 PUSH0 MSTORE PUSH1 0x20 PUSH0 KECCAK256 SWAP1 PUSH1 0x2 MUL ADD PUSH1 0x40 MLOAD DUP1 PUSH1 0x40 ADD PUSH1 0x40 MSTORE SWAP1 DUP2 PUSH0 DUP3 ADD DUP1 SLOAD PUSH2 0x10C2 SWAP1 PUSH2 0x2637 JUMP JUMPDEST DUP1 PUSH1 0x1F ADD PUSH1 0x20 DUP1 SWAP2 DIV MUL PUSH1 0x20 ADD PUSH1 0x40 MLOAD SWAP1 DUP2 ADD PUSH1 0x40 MSTORE DUP1 SWAP3 SWAP2 SWAP1 DUP2 DUP2 MSTORE PUSH1 0x20 ADD DUP3 DUP1 SLOAD PUSH2 0x10EE SWAP1 PUSH2 0x2637 JUMP JUMPDEST DUP1 ISZERO PUSH2 0x1139 JUMPI DUP1 PUSH1 0x1F LT PUSH2 0x1110 JUMPI PUSH2 0x100 DUP1 DUP4 SLOAD DIV MUL DUP4 MSTORE SWAP2 PUSH1 0x20 ADD SWAP2 PUSH2 0x1139 JUMP JUMPDEST DUP3 ADD SWAP2 SWAP1 PUSH0 MSTORE PUSH1 0x20 PUSH0 KECCAK256 SWAP1 JUMPDEST DUP2 SLOAD DUP2 MSTORE SWAP1 PUSH1 0x1 ADD SWAP1 PUSH1 0x20 ADD DUP1 DUP4 GT PUSH2 0x111C JUMPI DUP3 SWAP1 SUB PUSH1 0x1F AND DUP3 ADD SWAP2 JUMPDEST POP POP POP POP POP DUP2 MSTORE PUSH1 0x20 ADD PUSH1 0x1 DUP3 ADD SLOAD DUP2 MSTORE POP POP SWAP2 POP POP SWAP2 SWAP1 POP JUMP JUMPDEST PUSH0 PUSH0 PUSH0 SWAP1 SLOAD SWAP1 PUSH2 0x100 EXP SWAP1 DIV PUSH20 0xFFFFFFFFFFFFFFFFFFFFFFFFFFFFFFFFFFFFFFFF AND SWAP1 POP SWAP1 JUMP JUMPDEST PUSH0 PUSH1 0x9 SLOAD SWAP1 POP SWAP1 JUMP JUMPDEST PUSH2 0x118C PUSH2 0x1BB8 JUMP JUMPDEST PUSH1 0x5 DUP1 DUP2 GT ISZERO PUSH2 0x119F JUMPI PUSH2 0x119E PUSH2 0x1EE9 JUMP JUMPDEST JUMPDEST PUSH1 0x3 PUSH0 SWAP1 SLOAD SWAP1 PUSH2 0x100 EXP SWAP1 DIV PUSH1 0xFF AND PUSH1 0x5 DUP2 GT ISZERO PUSH2 0x11C0 JUMPI PUSH2 0x11BF PUSH2 0x1EE9 JUMP JUMPDEST JUMPDEST EQ PUSH2 0x1200 JUMPI PUSH1 0x40 MLOAD PUSH32 0x8C379A000000000000000000000000000000000000000000000000000000000 DUP2 MSTORE PUSH1 0x4 ADD PUSH2 0x11F7 SWAP1 PUSH2 0x25EC JUMP JUMPDEST PUSH1 0x40 MLOAD DUP1 SWAP2 SUB SWAP1 REVERT JUMPDEST PUSH1 0x2 PUSH1 0x4 SLOAD DUP2 SLOAD DUP2 LT PUSH2 0x1216 JUMPI PUSH2 0x1215 PUSH2 0x23BE JUMP JUMPDEST JUMPDEST SWAP1 PUSH0 MSTORE PUSH1 0x20 PUSH0 KECCAK256 SWAP1 PUSH1 0x2 MUL ADD PUSH1 0x40 MLOAD DUP1 PUSH1 0x40 ADD PUSH1 0x40 MSTORE SWAP1 DUP2 PUSH0 DUP3 ADD DUP1 SLOAD PUSH2 0x123C SWAP1 PUSH2 0x2637 JUMP JUMPDEST DUP1 PUSH1 0x1F ADD PUSH1 0x20 DUP1 SWAP2 DIV MUL PUSH1 0x20 ADD PUSH1 0x40 MLOAD SWAP1 DUP2 ADD PUSH1 0x40 MSTORE DUP1 SWAP3 SWAP2 SWAP1 DUP2 DUP2 MSTORE PUSH1 0x20 ADD DUP3 DUP1 SLOAD PUSH2 0x1268 SWAP1 PUSH2 0x2637 JUMP JUMPDEST DUP1 ISZERO PUSH2 0x12B3 JUMPI DUP1 PUSH1 0x1F LT PUSH2 0x128A JUMPI PUSH2 0x100 DUP1 DUP4 SLOAD DIV MUL DUP4 MSTORE SWAP2 PUSH1 0x20 ADD SWAP2 PUSH2 0x12B3 JUMP JUMPDEST DUP3 ADD SWAP2 SWAP1 PUSH0 MSTORE PUSH1 0x20 PUSH0 KECCAK256 SWAP1 JUMPDEST DUP2 SLOAD DUP2 MSTORE SWAP1 PUSH1 0x1 ADD SWAP1 PUSH1 0x20 ADD DUP1 DUP4 GT PUSH2 0x1296 JUMPI DUP3 SWAP1 SUB PUSH1 0x1F AND DUP3 ADD SWAP2 JUMPDEST POP POP POP POP POP DUP2 MSTORE PUSH1 0x20 ADD PUSH1 0x1 DUP3 ADD SLOAD DUP2 MSTORE POP POP SWAP1 POP SWAP1 JUMP JUMPDEST PUSH0 PUSH1 0x3 PUSH0 SWAP1 SLOAD SWAP1 PUSH2 0x100 EXP SWAP1 DIV PUSH1 0xFF AND SWAP1 POP SWAP1 JUMP JUMPDEST PUSH0 PUSH1 0x8 SLOAD SWAP1 POP SWAP1 JUMP JUMPDEST PUSH1 0x1 PUSH1 0x5 DUP2 GT ISZERO PUSH2 0x12FD JUMPI PUSH2 0x12FC PUSH2 0x1EE9 JUMP JUMPDEST JUMPDEST PUSH1 0x3 PUSH0 SWAP1 SLOAD SWAP1 PUSH2 0x100 EXP SWAP1 DIV PUSH1 0xFF AND PUSH1 0x5 DUP2 GT ISZERO PUSH2 0x131E JUMPI PUSH2 0x131D PUSH2 0x1EE9 JUMP JUMPDEST JUMPDEST EQ PUSH2 0x135E JUMPI PUSH1 0x40 MLOAD PUSH32 0x8C379A000000000000000000000000000000000000000000000000000000000 DUP2 MSTORE PUSH1 0x4 ADD PUSH2 0x1355 SWAP1 PUSH2 0x2A13 JUMP JUMPDEST PUSH1 0x40 MLOAD DUP1 SWAP2 SUB SWAP1 REVERT JUMPDEST CALLER PUSH20 0xFFFFFFFFFFFFFFFFFFFFFFFFFFFFFFFFFFFFFFFF AND PUSH2 0x137D PUSH2 0x1154 JUMP JUMPDEST PUSH20 0xFFFFFFFFFFFFFFFFFFFFFFFFFFFFFFFFFFFFFFFF AND SUB PUSH2 0x13D3 JUMPI PUSH1 0x40 MLOAD PUSH32 0x8C379A000000000000000000000000000000000000000000000000000000000 DUP2 MSTORE PUSH1 0x4 ADD PUSH2 0x13CA SWAP1 PUSH2 0x2AA1 JUMP JUMPDEST PUSH1 0x40 MLOAD DUP1 SWAP2 SUB SWAP1 REVERT JUMPDEST PUSH1 0x1 ISZERO ISZERO PUSH1 0x1 PUSH0 CALLER PUSH20 0xFFFFFFFFFFFFFFFFFFFFFFFFFFFFFFFFFFFFFFFF AND PUSH20 0xFFFFFFFFFFFFFFFFFFFFFFFFFFFFFFFFFFFFFFFF AND DUP2 MSTORE PUSH1 0x20 ADD SWAP1 DUP2 MSTORE PUSH1 0x20 ADD PUSH0 KECCAK256 PUSH0 ADD PUSH0 SWAP1 SLOAD SWAP1 PUSH2 0x100 EXP SWAP1 DIV PUSH1 0xFF AND ISZERO ISZERO EQ PUSH2 0x1465 JUMPI PUSH1 0x40 MLOAD PUSH32 0x8C379A000000000000000000000000000000000000000000000000000000000 DUP2 MSTORE PUSH1 0x4 ADD PUSH2 0x145C SWAP1 PUSH2 0x22D0 JUMP JUMPDEST PUSH1 0x40 MLOAD DUP1 SWAP2 SUB SWAP1 REVERT JUMPDEST PUSH1 0x2 PUSH1 0x40 MLOAD DUP1 PUSH1 0x40 ADD PUSH1 0x40 MSTORE DUP1 DUP4 DUP2 MSTORE PUSH1 0x20 ADD PUSH0 DUP2 MSTORE POP SWAP1 DUP1 PUSH1 0x1 DUP2 SLOAD ADD DUP1 DUP3 SSTORE DUP1 SWAP2 POP POP PUSH1 0x1 SWAP1 SUB SWAP1 PUSH0 MSTORE PUSH1 0x20 PUSH0 KECCAK256 SWAP1 PUSH1 0x2 MUL ADD PUSH0 SWAP1 SWAP2 SWAP1 SWAP2 SWAP1 SWAP2 POP PUSH0 DUP3 ADD MLOAD DUP2 PUSH0 ADD SWAP1 DUP2 PUSH2 0x14B5 SWAP2 SWAP1 PUSH2 0x2C5F JUMP JUMPDEST POP PUSH1 0x20 DUP3 ADD MLOAD DUP2 PUSH1 0x1 ADD SSTORE POP POP PUSH1 0x7 PUSH0 DUP2 SLOAD DUP1 SWAP3 SWAP2 SWAP1 PUSH2 0x14D4 SWAP1 PUSH2 0x2418 JUMP JUMPDEST SWAP2 SWAP1 POP SSTORE POP PUSH32 0x92E393E9B54E2F801D3EA4BEB0C5E71A21CC34A5D34B77D0FB8A3AA1650DC18F PUSH1 0x7 SLOAD PUSH1 0x40 MLOAD PUSH2 0x150A SWAP2 SWAP1 PUSH2 0x1C4F JUMP JUMPDEST PUSH1 0x40 MLOAD DUP1 SWAP2 SUB SWAP1 LOG1 POP JUMP JUMPDEST PUSH2 0x151D PUSH2 0x19CA JUMP JUMPDEST PUSH1 0x2 PUSH1 0x5 DUP2 GT ISZERO PUSH2 0x1531 JUMPI PUSH2 0x1530 PUSH2 0x1EE9 JUMP JUMPDEST JUMPDEST PUSH1 0x3 PUSH0 SWAP1 SLOAD SWAP1 PUSH2 0x100 EXP SWAP1 DIV PUSH1 0xFF AND PUSH1 0x5 DUP2 GT ISZERO PUSH2 0x1552 JUMPI PUSH2 0x1551 PUSH2 0x1EE9 JUMP JUMPDEST JUMPDEST EQ PUSH2 0x1592 JUMPI PUSH1 0x40 MLOAD PUSH32 0x8C379A000000000000000000000000000000000000000000000000000000000 DUP2 MSTORE PUSH1 0x4 ADD PUSH2 0x1589 SWAP1 PUSH2 0x2DC4 JUMP JUMPDEST PUSH1 0x40 MLOAD DUP1 SWAP2 SUB SWAP1 REVERT JUMPDEST PUSH1 0x3 DUP1 PUSH0 PUSH2 0x100 EXP DUP2 SLOAD DUP2 PUSH1 0xFF MUL NOT AND SWAP1 DUP4 PUSH1 0x5 DUP2 GT ISZERO PUSH2 0x15B6 JUMPI PUSH2 0x15B5 PUSH2 0x1EE9 JUMP JUMPDEST JUMPDEST MUL OR SWAP1 SSTORE POP PUSH32 0xA97A4EE45751E2ABF3E4FC8946939630B11B371EA8AE39CCDC3056E98F5CC3F PUSH1 0x1 PUSH1 0x3 PUSH0 SWAP1 SLOAD SWAP1 PUSH2 0x100 EXP SWAP1 DIV PUSH1 0xFF AND PUSH1 0x5 DUP2 GT ISZERO PUSH2 0x15FF JUMPI PUSH2 0x15FE PUSH2 0x1EE9 JUMP JUMPDEST JUMPDEST PUSH2 0x1609 SWAP2 SWAP1 PUSH2 0x2783 JUMP JUMPDEST PUSH1 0x5 DUP2 GT ISZERO PUSH2 0x161B JUMPI PUSH2 0x161A PUSH2 0x1EE9 JUMP JUMPDEST JUMPDEST PUSH1 0x3 PUSH0 SWAP1 SLOAD SWAP1 PUSH2 0x100 EXP SWAP1 DIV PUSH1 0xFF AND PUSH1 0x40 MLOAD PUSH2 0x1638 SWAP3 SWAP2 SWAP1 PUSH2 0x27B6 JUMP JUMPDEST PUSH1 0x40 MLOAD DUP1 SWAP2 SUB SWAP1 LOG1 JUMP JUMPDEST PUSH0 PUSH1 0x2 DUP1 SLOAD SWAP1 POP SWAP1 POP SWAP1 JUMP JUMPDEST PUSH2 0x1656 PUSH2 0x19CA JUMP JUMPDEST PUSH1 0x1 PUSH1 0x5 DUP2 GT ISZERO PUSH2 0x166A JUMPI PUSH2 0x1669 PUSH2 0x1EE9 JUMP JUMPDEST JUMPDEST PUSH1 0x3 PUSH0 SWAP1 SLOAD SWAP1 PUSH2 0x100 EXP SWAP1 DIV PUSH1 0xFF AND PUSH1 0x5 DUP2 GT ISZERO PUSH2 0x168B JUMPI PUSH2 0x168A PUSH2 0x1EE9 JUMP JUMPDEST JUMPDEST EQ PUSH2 0x16CB JUMPI PUSH1 0x40 MLOAD PUSH32 0x8C379A000000000000000000000000000000000000000000000000000000000 DUP2 MSTORE PUSH1 0x4 ADD PUSH2 0x16C2 SWAP1 PUSH2 0x2E52 JUMP JUMPDEST PUSH1 0x40 MLOAD DUP1 SWAP2 SUB SWAP1 REVERT JUMPDEST PUSH0 PUSH1 0x2 DUP1 SLOAD SWAP1 POP GT PUSH2 0x1712 JUMPI PUSH1 0x40 MLOAD PUSH32 0x8C379A000000000000000000000000000000000000000000000000000000000 DUP2 MSTORE PUSH1 0x4 ADD PUSH2 0x1709 SWAP1 PUSH2 0x2EE0 JUMP JUMPDEST PUSH1 0x40 MLOAD DUP1 SWAP2 SUB SWAP1 REVERT JUMPDEST PUSH1 0x2 PUSH1 0x3 PUSH0 PUSH2 0x100 EXP DUP2 SLOAD DUP2 PUSH1 0xFF MUL NOT AND SWAP1 DUP4 PUSH1 0x5 DUP2 GT ISZERO PUSH2 0x1737 JUMPI PUSH2 0x1736 PUSH2 0x1EE9 JUMP JUMPDEST JUMPDEST MUL OR SWAP1 SSTORE POP PUSH32 0xA97A4EE45751E2ABF3E4FC8946939630B11B371EA8AE39CCDC3056E98F5CC3F PUSH1 0x1 PUSH1 0x3 PUSH0 SWAP1 SLOAD SWAP1 PUSH2 0x100 EXP SWAP1 DIV PUSH1 0xFF AND PUSH1 0x5 DUP2 GT ISZERO PUSH2 0x1780 JUMPI PUSH2 0x177F PUSH2 0x1EE9 JUMP JUMPDEST JUMPDEST PUSH2 0x178A SWAP2 SWAP1 PUSH2 0x2783 JUMP JUMPDEST PUSH1 0x5 DUP2 GT ISZERO PUSH2 0x179C JUMPI PUSH2 0x179B PUSH2 0x1EE9 JUMP JUMPDEST JUMPDEST PUSH1 0x3 PUSH0 SWAP1 SLOAD SWAP1 PUSH2 0x100 EXP SWAP1 DIV PUSH1 0xFF AND PUSH1 0x40 MLOAD PUSH2 0x17B9 SWAP3 SWAP2 SWAP1 PUSH2 0x27B6 JUMP JUMPDEST PUSH1 0x40 MLOAD DUP1 SWAP2 SUB SWAP1 LOG1 JUMP JUMPDEST PUSH0 PUSH1 0x6 SLOAD SWAP1 POP SWAP1 JUMP JUMPDEST PUSH2 0x17D4 PUSH2 0x19CA JUMP JUMPDEST PUSH0 PUSH20 0xFFFFFFFFFFFFFFFFFFFFFFFFFFFFFFFFFFFFFFFF AND DUP2 PUSH20 0xFFFFFFFFFFFFFFFFFFFFFFFFFFFFFFFFFFFFFFFF AND SUB PUSH2 0x1844 JUMPI PUSH0 PUSH1 0x40 MLOAD PUSH32 0x1E4FBDF700000000000000000000000000000000000000000000000000000000 DUP2 MSTORE PUSH1 0x4 ADD PUSH2 0x183B SWAP2 SWAP1 PUSH2 0x1FDE JUMP JUMPDEST PUSH1 0x40 MLOAD DUP1 SWAP2 SUB SWAP1 REVERT JUMPDEST PUSH2 0x184D DUP2 PUSH2 0x1A51 JUMP JUMPDEST POP JUMP JUMPDEST PUSH2 0x1858 PUSH2 0x19CA JUMP JUMPDEST PUSH1 0x3 PUSH1 0x5 DUP2 GT ISZERO PUSH2 0x186C JUMPI PUSH2 0x186B PUSH2 0x1EE9 JUMP JUMPDEST JUMPDEST PUSH1 0x3 PUSH0 SWAP1 SLOAD SWAP1 PUSH2 0x100 EXP SWAP1 DIV PUSH1 0xFF AND PUSH1 0x5 DUP2 GT ISZERO PUSH2 0x188D JUMPI PUSH2 0x188C PUSH2 0x1EE9 JUMP JUMPDEST JUMPDEST EQ PUSH2 0x18CD JUMPI PUSH1 0x40 MLOAD PUSH32 0x8C379A000000000000000000000000000000000000000000000000000000000 DUP2 MSTORE PUSH1 0x4 ADD PUSH2 0x18C4 SWAP1 PUSH2 0x2F6E JUMP JUMPDEST PUSH1 0x40 MLOAD DUP1 SWAP2 SUB SWAP1 REVERT JUMPDEST PUSH0 PUSH1 0x6 SLOAD GT PUSH2 0x1911 JUMPI PUSH1 0x40 MLOAD PUSH32 0x8C379A000000000000000000000000000000000000000000000000000000000 DUP2 MSTORE PUSH1 0x4 ADD PUSH2 0x1908 SWAP1 PUSH2 0x2FD6 JUMP JUMPDEST PUSH1 0x40 MLOAD DUP1 SWAP2 SUB SWAP1 REVERT JUMPDEST PUSH1 0x4 PUSH1 0x3 PUSH0 PUSH2 0x100 EXP DUP2 SLOAD DUP2 PUSH1 0xFF MUL NOT AND SWAP1 DUP4 PUSH1 0x5 DUP2 GT ISZERO PUSH2 0x1936 JUMPI PUSH2 0x1935 PUSH2 0x1EE9 JUMP JUMPDEST JUMPDEST MUL OR SWAP1 SSTORE POP PUSH2 0x1943 PUSH2 0x1B12 JUMP JUMPDEST PUSH32 0xA97A4EE45751E2ABF3E4FC8946939630B11B371EA8AE39CCDC3056E98F5CC3F PUSH1 0x1 PUSH1 0x3 PUSH0 SWAP1 SLOAD SWAP1 PUSH2 0x100 EXP SWAP1 DIV PUSH1 0xFF AND PUSH1 0x5 DUP2 GT ISZERO PUSH2 0x1987 JUMPI PUSH2 0x1986 PUSH2 0x1EE9 JUMP JUMPDEST JUMPDEST PUSH2 0x1991 SWAP2 SWAP1 PUSH2 0x2783 JUMP JUMPDEST PUSH1 0x5 DUP2 GT ISZERO PUSH2 0x19A3 JUMPI PUSH2 0x19A2 PUSH2 0x1EE9 JUMP JUMPDEST JUMPDEST PUSH1 0x3 PUSH0 SWAP1 SLOAD SWAP1 PUSH2 0x100 EXP SWAP1 DIV PUSH1 0xFF AND PUSH1 0x40 MLOAD PUSH2 0x19C0 SWAP3 SWAP2 SWAP1 PUSH2 0x27B6 JUMP JUMPDEST PUSH1 0x40 MLOAD DUP1 SWAP2 SUB SWAP1 LOG1 JUMP JUMPDEST PUSH2 0x19D2 PUSH2 0x1BB1 JUMP JUMPDEST PUSH20 0xFFFFFFFFFFFFFFFFFFFFFFFFFFFFFFFFFFFFFFFF AND PUSH2 0x19F0 PUSH2 0x1154 JUMP JUMPDEST PUSH20 0xFFFFFFFFFFFFFFFFFFFFFFFFFFFFFFFFFFFFFFFF AND EQ PUSH2 0x1A4F JUMPI PUSH2 0x1A13 PUSH2 0x1BB1 JUMP JUMPDEST PUSH1 0x40 MLOAD PUSH32 0x118CDAA700000000000000000000000000000000000000000000000000000000 DUP2 MSTORE PUSH1 0x4 ADD PUSH2 0x1A46 SWAP2 SWAP1 PUSH2 0x1FDE JUMP JUMPDEST PUSH1 0x40 MLOAD DUP1 SWAP2 SUB SWAP1 REVERT JUMPDEST JUMP JUMPDEST PUSH0 PUSH0 PUSH0 SWAP1 SLOAD SWAP1 PUSH2 0x100 EXP SWAP1 DIV PUSH20 0xFFFFFFFFFFFFFFFFFFFFFFFFFFFFFFFFFFFFFFFF AND SWAP1 POP DUP2 PUSH0 PUSH0 PUSH2 0x100 EXP DUP2 SLOAD DUP2 PUSH20 0xFFFFFFFFFFFFFFFFFFFFFFFFFFFFFFFFFFFFFFFF MUL NOT AND SWAP1 DUP4 PUSH20 0xFFFFFFFFFFFFFFFFFFFFFFFFFFFFFFFFFFFFFFFF AND MUL OR SWAP1 SSTORE POP DUP2 PUSH20 0xFFFFFFFFFFFFFFFFFFFFFFFFFFFFFFFFFFFFFFFF AND DUP2 PUSH20 0xFFFFFFFFFFFFFFFFFFFFFFFFFFFFFFFFFFFFFFFF AND PUSH32 0x8BE0079C531659141344CD1FD0A4F28419497F9722A3DAAFE3B4186F6B6457E0 PUSH1 0x40 MLOAD PUSH1 0x40 MLOAD DUP1 SWAP2 SUB SWAP1 LOG3 POP POP JUMP JUMPDEST PUSH2 0x1B1A PUSH2 0x19CA JUMP JUMPDEST PUSH0 PUSH0 SWAP1 POP JUMPDEST PUSH1 0x2 DUP1 SLOAD SWAP1 POP DUP2 LT ISZERO PUSH2 0x1BAE JUMPI PUSH1 0x9 SLOAD PUSH1 0x2 DUP3 DUP2 SLOAD DUP2 LT PUSH2 0x1B43 JUMPI PUSH2 0x1B42 PUSH2 0x23BE JUMP JUMPDEST JUMPDEST SWAP1 PUSH0 MSTORE PUSH1 0x20 PUSH0 KECCAK256 SWAP1 PUSH1 0x2 MUL ADD PUSH1 0x1 ADD SLOAD LT PUSH2 0x1BA1 JUMPI PUSH1 0x2 DUP2 DUP2 SLOAD DUP2 LT PUSH2 0x1B6C JUMPI PUSH2 0x1B6B PUSH2 0x23BE JUMP JUMPDEST JUMPDEST SWAP1 PUSH0 MSTORE PUSH1 0x20 PUSH0 KECCAK256 SWAP1 PUSH1 0x2 MUL ADD PUSH1 0x1 ADD SLOAD PUSH1 0x9 DUP2 SWAP1 SSTORE POP DUP1 PUSH1 0x4 DUP2 SWAP1 SSTORE POP PUSH1 0x8 PUSH0 DUP2 SLOAD DUP1 SWAP3 SWAP2 SWAP1 PUSH2 0x1B9B SWAP1 PUSH2 0x2418 JUMP JUMPDEST SWAP2 SWAP1 POP SSTORE POP JUMPDEST DUP1 DUP1 PUSH1 0x1 ADD SWAP2 POP POP PUSH2 0x1B1F JUMP JUMPDEST POP JUMP JUMPDEST PUSH0 CALLER SWAP1 POP SWAP1 JUMP JUMPDEST PUSH1 0x40 MLOAD DUP1 PUSH1 0x40 ADD PUSH1 0x40 MSTORE DUP1 PUSH1 0x60 DUP2 MSTORE PUSH1 0x20 ADD PUSH0 DUP2 MSTORE POP SWAP1 JUMP JUMPDEST PUSH0 PUSH1 0x40 MLOAD SWAP1 POP SWAP1 JUMP JUMPDEST PUSH0 PUSH0 REVERT JUMPDEST PUSH0 PUSH0 REVERT JUMPDEST PUSH0 DUP2 SWAP1 POP SWAP2 SWAP1 POP JUMP JUMPDEST PUSH2 0x1BF4 DUP2 PUSH2 0x1BE2 JUMP JUMPDEST DUP2 EQ PUSH2 0x1BFE JUMPI PUSH0 PUSH0 REVERT JUMPDEST POP JUMP JUMPDEST PUSH0 DUP2 CALLDATALOAD SWAP1 POP PUSH2 0x1C0F DUP2 PUSH2 0x1BEB JUMP JUMPDEST SWAP3 SWAP2 POP POP JUMP JUMPDEST PUSH0 PUSH1 0x20 DUP3 DUP5 SUB SLT ISZERO PUSH2 0x1C2A JUMPI PUSH2 0x1C29 PUSH2 0x1BDA JUMP JUMPDEST JUMPDEST PUSH0 PUSH2 0x1C37 DUP5 DUP3 DUP6 ADD PUSH2 0x1C01 JUMP JUMPDEST SWAP2 POP POP SWAP3 SWAP2 POP POP JUMP JUMPDEST PUSH2 0x1C49 DUP2 PUSH2 0x1BE2 JUMP JUMPDEST DUP3 MSTORE POP POP JUMP JUMPDEST PUSH0 PUSH1 0x20 DUP3 ADD SWAP1 POP PUSH2 0x1C62 PUSH0 DUP4 ADD DUP5 PUSH2 0x1C40 JUMP JUMPDEST SWAP3 SWAP2 POP POP JUMP JUMPDEST PUSH0 PUSH20 0xFFFFFFFFFFFFFFFFFFFFFFFFFFFFFFFFFFFFFFFF DUP3 AND SWAP1 POP SWAP2 SWAP1 POP JUMP JUMPDEST PUSH0 PUSH2 0x1C91 DUP3 PUSH2 0x1C68 JUMP JUMPDEST SWAP1 POP SWAP2 SWAP1 POP JUMP JUMPDEST PUSH2 0x1CA1 DUP2 PUSH2 0x1C87 JUMP JUMPDEST DUP2 EQ PUSH2 0x1CAB JUMPI PUSH0 PUSH0 REVERT JUMPDEST POP JUMP JUMPDEST PUSH0 DUP2 CALLDATALOAD SWAP1 POP PUSH2 0x1CBC DUP2 PUSH2 0x1C98 JUMP JUMPDEST SWAP3 SWAP2 POP POP JUMP JUMPDEST PUSH0 PUSH1 0x20 DUP3 DUP5 SUB SLT ISZERO PUSH2 0x1CD7 JUMPI PUSH2 0x1CD6 PUSH2 0x1BDA JUMP JUMPDEST JUMPDEST PUSH0 PUSH2 0x1CE4 DUP5 DUP3 DUP6 ADD PUSH2 0x1CAE JUMP JUMPDEST SWAP2 POP POP SWAP3 SWAP2 POP POP JUMP JUMPDEST PUSH0 DUP2 MLOAD SWAP1 POP SWAP2 SWAP1 POP JUMP JUMPDEST PUSH0 DUP3 DUP3 MSTORE PUSH1 0x20 DUP3 ADD SWAP1 POP SWAP3 SWAP2 POP POP JUMP JUMPDEST DUP3 DUP2 DUP4 MCOPY PUSH0 DUP4 DUP4 ADD MSTORE POP POP POP JUMP JUMPDEST PUSH0 PUSH1 0x1F NOT PUSH1 0x1F DUP4 ADD AND SWAP1 POP SWAP2 SWAP1 POP JUMP JUMPDEST PUSH0 PUSH2 0x1D2F DUP3 PUSH2 0x1CED JUMP JUMPDEST PUSH2 0x1D39 DUP2 DUP6 PUSH2 0x1CF7 JUMP JUMPDEST SWAP4 POP PUSH2 0x1D49 DUP2 DUP6 PUSH1 0x20 DUP7 ADD PUSH2 0x1D07 JUMP JUMPDEST PUSH2 0x1D52 DUP2 PUSH2 0x1D15 JUMP JUMPDEST DUP5 ADD SWAP2 POP POP SWAP3 SWAP2 POP POP JUMP JUMPDEST PUSH0 PUSH1 0x20 DUP3 ADD SWAP1 POP DUP2 DUP2 SUB PUSH0 DUP4 ADD MSTORE PUSH2 0x1D75 DUP2 DUP5 PUSH2 0x1D25 JUMP JUMPDEST SWAP1 POP SWAP3 SWAP2 POP POP JUMP JUMPDEST PUSH0 DUP2 MLOAD SWAP1 POP SWAP2 SWAP1 POP JUMP JUMPDEST PUSH0 DUP3 DUP3 MSTORE PUSH1 0x20 DUP3 ADD SWAP1 POP SWAP3 SWAP2 POP POP JUMP JUMPDEST PUSH0 DUP2 SWAP1 POP PUSH1 0x20 DUP3 ADD SWAP1 POP SWAP2 SWAP1 POP JUMP JUMPDEST PUSH0 DUP3 DUP3 MSTORE PUSH1 0x20 DUP3 ADD SWAP1 POP SWAP3 SWAP2 POP POP JUMP JUMPDEST PUSH0 PUSH2 0x1DC0 DUP3 PUSH2 0x1CED JUMP JUMPDEST PUSH2 0x1DCA DUP2 DUP6 PUSH2 0x1DA6 JUMP JUMPDEST SWAP4 POP PUSH2 0x1DDA DUP2 DUP6 PUSH1 0x20 DUP7 ADD PUSH2 0x1D07 JUMP JUMPDEST PUSH2 0x1DE3 DUP2 PUSH2 0x1D15 JUMP JUMPDEST DUP5 ADD SWAP2 POP POP SWAP3 SWAP2 POP POP JUMP JUMPDEST PUSH2 0x1DF7 DUP2 PUSH2 0x1BE2 JUMP JUMPDEST DUP3 MSTORE POP POP JUMP JUMPDEST PUSH0 PUSH1 0x40 DUP4 ADD PUSH0 DUP4 ADD MLOAD DUP5 DUP3 SUB PUSH0 DUP7 ADD MSTORE PUSH2 0x1E17 DUP3 DUP3 PUSH2 0x1DB6 JUMP JUMPDEST SWAP2 POP POP PUSH1 0x20 DUP4 ADD MLOAD PUSH2 0x1E2C PUSH1 0x20 DUP7 ADD DUP3 PUSH2 0x1DEE JUMP JUMPDEST POP DUP1 SWAP2 POP POP SWAP3 SWAP2 POP POP JUMP JUMPDEST PUSH0 PUSH2 0x1E42 DUP4 DUP4 PUSH2 0x1DFD JUMP JUMPDEST SWAP1 POP SWAP3 SWAP2 POP POP JUMP JUMPDEST PUSH0 PUSH1 0x20 DUP3 ADD SWAP1 POP SWAP2 SWAP1 POP JUMP JUMPDEST PUSH0 PUSH2 0x1E60 DUP3 PUSH2 0x1D7D JUMP JUMPDEST PUSH2 0x1E6A DUP2 DUP6 PUSH2 0x1D87 JUMP JUMPDEST SWAP4 POP DUP4 PUSH1 0x20 DUP3 MUL DUP6 ADD PUSH2 0x1E7C DUP6 PUSH2 0x1D97 JUMP JUMPDEST DUP1 PUSH0 JUMPDEST DUP6 DUP2 LT ISZERO PUSH2 0x1EB7 JUMPI DUP5 DUP5 SUB DUP10 MSTORE DUP2 MLOAD PUSH2 0x1E98 DUP6 DUP3 PUSH2 0x1E37 JUMP JUMPDEST SWAP5 POP PUSH2 0x1EA3 DUP4 PUSH2 0x1E4A JUMP JUMPDEST SWAP3 POP PUSH1 0x20 DUP11 ADD SWAP10 POP POP PUSH1 0x1 DUP2 ADD SWAP1 POP PUSH2 0x1E7F JUMP JUMPDEST POP DUP3 SWAP8 POP DUP8 SWAP6 POP POP POP POP POP POP SWAP3 SWAP2 POP POP JUMP JUMPDEST PUSH0 PUSH1 0x20 DUP3 ADD SWAP1 POP DUP2 DUP2 SUB PUSH0 DUP4 ADD MSTORE PUSH2 0x1EE1 DUP2 DUP5 PUSH2 0x1E56 JUMP JUMPDEST SWAP1 POP SWAP3 SWAP2 POP POP JUMP JUMPDEST PUSH32 0x4E487B7100000000000000000000000000000000000000000000000000000000 PUSH0 MSTORE PUSH1 0x21 PUSH1 0x4 MSTORE PUSH1 0x24 PUSH0 REVERT JUMPDEST PUSH1 0x6 DUP2 LT PUSH2 0x1F27 JUMPI PUSH2 0x1F26 PUSH2 0x1EE9 JUMP JUMPDEST JUMPDEST POP JUMP JUMPDEST PUSH0 DUP2 SWAP1 POP PUSH2 0x1F37 DUP3 PUSH2 0x1F16 JUMP JUMPDEST SWAP2 SWAP1 POP JUMP JUMPDEST PUSH0 PUSH2 0x1F46 DUP3 PUSH2 0x1F2A JUMP JUMPDEST SWAP1 POP SWAP2 SWAP1 POP JUMP JUMPDEST PUSH2 0x1F56 DUP2 PUSH2 0x1F3C JUMP JUMPDEST DUP3 MSTORE POP POP JUMP JUMPDEST PUSH0 PUSH1 0x20 DUP3 ADD SWAP1 POP PUSH2 0x1F6F PUSH0 DUP4 ADD DUP5 PUSH2 0x1F4D JUMP JUMPDEST SWAP3 SWAP2 POP POP JUMP JUMPDEST PUSH0 PUSH1 0x40 DUP4 ADD PUSH0 DUP4 ADD MLOAD DUP5 DUP3 SUB PUSH0 DUP7 ADD MSTORE PUSH2 0x1F8F DUP3 DUP3 PUSH2 0x1DB6 JUMP JUMPDEST SWAP2 POP POP PUSH1 0x20 DUP4 ADD MLOAD PUSH2 0x1FA4 PUSH1 0x20 DUP7 ADD DUP3 PUSH2 0x1DEE JUMP JUMPDEST POP DUP1 SWAP2 POP POP SWAP3 SWAP2 POP POP JUMP JUMPDEST PUSH0 PUSH1 0x20 DUP3 ADD SWAP1 POP DUP2 DUP2 SUB PUSH0 DUP4 ADD MSTORE PUSH2 0x1FC7 DUP2 DUP5 PUSH2 0x1F75 JUMP JUMPDEST SWAP1 POP SWAP3 SWAP2 POP POP JUMP JUMPDEST PUSH2 0x1FD8 DUP2 PUSH2 0x1C87 JUMP JUMPDEST DUP3 MSTORE POP POP JUMP JUMPDEST PUSH0 PUSH1 0x20 DUP3 ADD SWAP1 POP PUSH2 0x1FF1 PUSH0 DUP4 ADD DUP5 PUSH2 0x1FCF JUMP JUMPDEST SWAP3 SWAP2 POP POP JUMP JUMPDEST PUSH0 PUSH0 REVERT JUMPDEST PUSH0 PUSH0 REVERT JUMPDEST PUSH32 0x4E487B7100000000000000000000000000000000000000000000000000000000 PUSH0 MSTORE PUSH1 0x41 PUSH1 0x4 MSTORE PUSH1 0x24 PUSH0 REVERT JUMPDEST PUSH2 0x2035 DUP3 PUSH2 0x1D15 JUMP JUMPDEST DUP2 ADD DUP2 DUP2 LT PUSH8 0xFFFFFFFFFFFFFFFF DUP3 GT OR ISZERO PUSH2 0x2054 JUMPI PUSH2 0x2053 PUSH2 0x1FFF JUMP JUMPDEST JUMPDEST DUP1 PUSH1 0x40 MSTORE POP POP POP JUMP JUMPDEST PUSH0 PUSH2 0x2066 PUSH2 0x1BD1 JUMP JUMPDEST SWAP1 POP PUSH2 0x2072 DUP3 DUP3 PUSH2 0x202C JUMP JUMPDEST SWAP2 SWAP1 POP JUMP JUMPDEST PUSH0 PUSH8 0xFFFFFFFFFFFFFFFF DUP3 GT ISZERO PUSH2 0x2091 JUMPI PUSH2 0x2090 PUSH2 0x1FFF JUMP JUMPDEST JUMPDEST PUSH2 0x209A DUP3 PUSH2 0x1D15 JUMP JUMPDEST SWAP1 POP PUSH1 0x20 DUP2 ADD SWAP1 POP SWAP2 SWAP1 POP JUMP JUMPDEST DUP3 DUP2 DUP4 CALLDATACOPY PUSH0 DUP4 DUP4 ADD MSTORE POP POP POP JUMP JUMPDEST PUSH0 PUSH2 0x20C7 PUSH2 0x20C2 DUP5 PUSH2 0x2077 JUMP JUMPDEST PUSH2 0x205D JUMP JUMPDEST SWAP1 POP DUP3 DUP2 MSTORE PUSH1 0x20 DUP2 ADD DUP5 DUP5 DUP5 ADD GT ISZERO PUSH2 0x20E3 JUMPI PUSH2 0x20E2 PUSH2 0x1FFB JUMP JUMPDEST JUMPDEST PUSH2 0x20EE DUP5 DUP3 DUP6 PUSH2 0x20A7 JUMP JUMPDEST POP SWAP4 SWAP3 POP POP POP JUMP JUMPDEST PUSH0 DUP3 PUSH1 0x1F DUP4 ADD SLT PUSH2 0x210A JUMPI PUSH2 0x2109 PUSH2 0x1FF7 JUMP JUMPDEST JUMPDEST DUP2 CALLDATALOAD PUSH2 0x211A DUP5 DUP3 PUSH1 0x20 DUP7 ADD PUSH2 0x20B5 JUMP JUMPDEST SWAP2 POP POP SWAP3 SWAP2 POP POP JUMP JUMPDEST PUSH0 PUSH1 0x20 DUP3 DUP5 SUB SLT ISZERO PUSH2 0x2138 JUMPI PUSH2 0x2137 PUSH2 0x1BDA JUMP JUMPDEST JUMPDEST PUSH0 DUP3 ADD CALLDATALOAD PUSH8 0xFFFFFFFFFFFFFFFF DUP2 GT ISZERO PUSH2 0x2155 JUMPI PUSH2 0x2154 PUSH2 0x1BDE JUMP JUMPDEST JUMPDEST PUSH2 0x2161 DUP5 DUP3 DUP6 ADD PUSH2 0x20F6 JUMP JUMPDEST SWAP2 POP POP SWAP3 SWAP2 POP POP JUMP JUMPDEST PUSH32 0x596F752063616E206F6E6C7920766F7465206966207468657265206973206D6F PUSH0 DUP3 ADD MSTORE PUSH32 0x7265207468616E20312077696E6E657200000000000000000000000000000000 PUSH1 0x20 DUP3 ADD MSTORE POP JUMP JUMPDEST PUSH0 PUSH2 0x21C4 PUSH1 0x30 DUP4 PUSH2 0x1CF7 JUMP JUMPDEST SWAP2 POP PUSH2 0x21CF DUP3 PUSH2 0x216A JUMP JUMPDEST PUSH1 0x40 DUP3 ADD SWAP1 POP SWAP2 SWAP1 POP JUMP JUMPDEST PUSH0 PUSH1 0x20 DUP3 ADD SWAP1 POP DUP2 DUP2 SUB PUSH0 DUP4 ADD MSTORE PUSH2 0x21F1 DUP2 PUSH2 0x21B8 JUMP JUMPDEST SWAP1 POP SWAP2 SWAP1 POP JUMP JUMPDEST PUSH32 0x54686520766F74696E672073657373696F6E206973206E6F7420737461727465 PUSH0 DUP3 ADD MSTORE PUSH32 0x6400000000000000000000000000000000000000000000000000000000000000 PUSH1 0x20 DUP3 ADD MSTORE POP JUMP JUMPDEST PUSH0 PUSH2 0x2252 PUSH1 0x21 DUP4 PUSH2 0x1CF7 JUMP JUMPDEST SWAP2 POP PUSH2 0x225D DUP3 PUSH2 0x21F8 JUMP JUMPDEST PUSH1 0x40 DUP3 ADD SWAP1 POP SWAP2 SWAP1 POP JUMP JUMPDEST PUSH0 PUSH1 0x20 DUP3 ADD SWAP1 POP DUP2 DUP2 SUB PUSH0 DUP4 ADD MSTORE PUSH2 0x227F DUP2 PUSH2 0x2246 JUMP JUMPDEST SWAP1 POP SWAP2 SWAP1 POP JUMP JUMPDEST PUSH32 0x596F7520617265206E6F74207265676973746572656400000000000000000000 PUSH0 DUP3 ADD MSTORE POP JUMP JUMPDEST PUSH0 PUSH2 0x22BA PUSH1 0x16 DUP4 PUSH2 0x1CF7 JUMP JUMPDEST SWAP2 POP PUSH2 0x22C5 DUP3 PUSH2 0x2286 JUMP JUMPDEST PUSH1 0x20 DUP3 ADD SWAP1 POP SWAP2 SWAP1 POP JUMP JUMPDEST PUSH0 PUSH1 0x20 DUP3 ADD SWAP1 POP DUP2 DUP2 SUB PUSH0 DUP4 ADD MSTORE PUSH2 0x22E7 DUP2 PUSH2 0x22AE JUMP JUMPDEST SWAP1 POP SWAP2 SWAP1 POP JUMP JUMPDEST PUSH32 0x596F7520616C726561647920766F746564000000000000000000000000000000 PUSH0 DUP3 ADD MSTORE POP JUMP JUMPDEST PUSH0 PUSH2 0x2322 PUSH1 0x11 DUP4 PUSH2 0x1CF7 JUMP JUMPDEST SWAP2 POP PUSH2 0x232D DUP3 PUSH2 0x22EE JUMP JUMPDEST PUSH1 0x20 DUP3 ADD SWAP1 POP SWAP2 SWAP1 POP JUMP JUMPDEST PUSH0 PUSH1 0x20 DUP3 ADD SWAP1 POP DUP2 DUP2 SUB PUSH0 DUP4 ADD MSTORE PUSH2 0x234F DUP2 PUSH2 0x2316 JUMP JUMPDEST SWAP1 POP SWAP2 SWAP1 POP JUMP JUMPDEST PUSH32 0x546869732070726F706F73616C20494420646F6573206E6F7420657869737473 PUSH0 DUP3 ADD MSTORE POP JUMP JUMPDEST PUSH0 PUSH2 0x238A PUSH1 0x20 DUP4 PUSH2 0x1CF7 JUMP JUMPDEST SWAP2 POP PUSH2 0x2395 DUP3 PUSH2 0x2356 JUMP JUMPDEST PUSH1 0x20 DUP3 ADD SWAP1 POP SWAP2 SWAP1 POP JUMP JUMPDEST PUSH0 PUSH1 0x20 DUP3 ADD SWAP1 POP DUP2 DUP2 SUB PUSH0 DUP4 ADD MSTORE PUSH2 0x23B7 DUP2 PUSH2 0x237E JUMP JUMPDEST SWAP1 POP SWAP2 SWAP1 POP JUMP JUMPDEST PUSH32 0x4E487B7100000000000000000000000000000000000000000000000000000000 PUSH0 MSTORE PUSH1 0x32 PUSH1 0x4 MSTORE PUSH1 0x24 PUSH0 REVERT JUMPDEST PUSH32 0x4E487B7100000000000000000000000000000000000000000000000000000000 PUSH0 MSTORE PUSH1 0x11 PUSH1 0x4 MSTORE PUSH1 0x24 PUSH0 REVERT JUMPDEST PUSH0 PUSH2 0x2422 DUP3 PUSH2 0x1BE2 JUMP JUMPDEST SWAP2 POP PUSH32 0xFFFFFFFFFFFFFFFFFFFFFFFFFFFFFFFFFFFFFFFFFFFFFFFFFFFFFFFFFFFFFFFF DUP3 SUB PUSH2 0x2454 JUMPI PUSH2 0x2453 PUSH2 0x23EB JUMP JUMPDEST JUMPDEST PUSH1 0x1 DUP3 ADD SWAP1 POP SWAP2 SWAP1 POP JUMP JUMPDEST PUSH0 PUSH1 0x40 DUP3 ADD SWAP1 POP PUSH2 0x2472 PUSH0 DUP4 ADD DUP6 PUSH2 0x1FCF JUMP JUMPDEST PUSH2 0x247F PUSH1 0x20 DUP4 ADD DUP5 PUSH2 0x1C40 JUMP JUMPDEST SWAP4 SWAP3 POP POP POP JUMP JUMPDEST PUSH32 0x596F7520617265206E6F7420696E20766F74657220726567697374726174696F PUSH0 DUP3 ADD MSTORE PUSH32 0x6E20706572696F64000000000000000000000000000000000000000000000000 PUSH1 0x20 DUP3 ADD MSTORE POP JUMP JUMPDEST PUSH0 PUSH2 0x24E0 PUSH1 0x28 DUP4 PUSH2 0x1CF7 JUMP JUMPDEST SWAP2 POP PUSH2 0x24EB DUP3 PUSH2 0x2486 JUMP JUMPDEST PUSH1 0x40 DUP3 ADD SWAP1 POP SWAP2 SWAP1 POP JUMP JUMPDEST PUSH0 PUSH1 0x20 DUP3 ADD SWAP1 POP DUP2 DUP2 SUB PUSH0 DUP4 ADD MSTORE PUSH2 0x250D DUP2 PUSH2 0x24D4 JUMP JUMPDEST SWAP1 POP SWAP2 SWAP1 POP JUMP JUMPDEST PUSH32 0x596F7520616C7265616479206861766520616464207468697320616472657373 PUSH0 DUP3 ADD MSTORE POP JUMP JUMPDEST PUSH0 PUSH2 0x2548 PUSH1 0x20 DUP4 PUSH2 0x1CF7 JUMP JUMPDEST SWAP2 POP PUSH2 0x2553 DUP3 PUSH2 0x2514 JUMP JUMPDEST PUSH1 0x20 DUP3 ADD SWAP1 POP SWAP2 SWAP1 POP JUMP JUMPDEST PUSH0 PUSH1 0x20 DUP3 ADD SWAP1 POP DUP2 DUP2 SUB PUSH0 DUP4 ADD MSTORE PUSH2 0x2575 DUP2 PUSH2 0x253C JUMP JUMPDEST SWAP1 POP SWAP2 SWAP1 POP JUMP JUMPDEST PUSH32 0x5468652077696E6E65722068617665206E6F74206265656E2063686F6F73656E PUSH0 DUP3 ADD MSTORE PUSH32 0x2079657400000000000000000000000000000000000000000000000000000000 PUSH1 0x20 DUP3 ADD MSTORE POP JUMP JUMPDEST PUSH0 PUSH2 0x25D6 PUSH1 0x24 DUP4 PUSH2 0x1CF7 JUMP JUMPDEST SWAP2 POP PUSH2 0x25E1 DUP3 PUSH2 0x257C JUMP JUMPDEST PUSH1 0x40 DUP3 ADD SWAP1 POP SWAP2 SWAP1 POP JUMP JUMPDEST PUSH0 PUSH1 0x20 DUP3 ADD SWAP1 POP DUP2 DUP2 SUB PUSH0 DUP4 ADD MSTORE PUSH2 0x2603 DUP2 PUSH2 0x25CA JUMP JUMPDEST SWAP1 POP SWAP2 SWAP1 POP JUMP JUMPDEST PUSH32 0x4E487B7100000000000000000000000000000000000000000000000000000000 PUSH0 MSTORE PUSH1 0x22 PUSH1 0x4 MSTORE PUSH1 0x24 PUSH0 REVERT JUMPDEST PUSH0 PUSH1 0x2 DUP3 DIV SWAP1 POP PUSH1 0x1 DUP3 AND DUP1 PUSH2 0x264E JUMPI PUSH1 0x7F DUP3 AND SWAP2 POP JUMPDEST PUSH1 0x20 DUP3 LT DUP2 SUB PUSH2 0x2661 JUMPI PUSH2 0x2660 PUSH2 0x260A JUMP JUMPDEST JUMPDEST POP SWAP2 SWAP1 POP JUMP JUMPDEST PUSH32 0x596F752063616E206E6F7420737461727420616761696E207468652070726F70 PUSH0 DUP3 ADD MSTORE PUSH32 0x6F73616C2073657373696F6E0000000000000000000000000000000000000000 PUSH1 0x20 DUP3 ADD MSTORE POP JUMP JUMPDEST PUSH0 PUSH2 0x26C1 PUSH1 0x2C DUP4 PUSH2 0x1CF7 JUMP JUMPDEST SWAP2 POP PUSH2 0x26CC DUP3 PUSH2 0x2667 JUMP JUMPDEST PUSH1 0x40 DUP3 ADD SWAP1 POP SWAP2 SWAP1 POP JUMP JUMPDEST PUSH0 PUSH1 0x20 DUP3 ADD SWAP1 POP DUP2 DUP2 SUB PUSH0 DUP4 ADD MSTORE PUSH2 0x26EE DUP2 PUSH2 0x26B5 JUMP JUMPDEST SWAP1 POP SWAP2 SWAP1 POP JUMP JUMPDEST PUSH32 0x596F75206D757374207265676973746572206174206C65617374203220616464 PUSH0 DUP3 ADD MSTORE PUSH32 0x7265737365730000000000000000000000000000000000000000000000000000 PUSH1 0x20 DUP3 ADD MSTORE POP JUMP JUMPDEST PUSH0 PUSH2 0x274F PUSH1 0x26 DUP4 PUSH2 0x1CF7 JUMP JUMPDEST SWAP2 POP PUSH2 0x275A DUP3 PUSH2 0x26F5 JUMP JUMPDEST PUSH1 0x40 DUP3 ADD SWAP1 POP SWAP2 SWAP1 POP JUMP JUMPDEST PUSH0 PUSH1 0x20 DUP3 ADD SWAP1 POP DUP2 DUP2 SUB PUSH0 DUP4 ADD MSTORE PUSH2 0x277C DUP2 PUSH2 0x2743 JUMP JUMPDEST SWAP1 POP SWAP2 SWAP1 POP JUMP JUMPDEST PUSH0 PUSH2 0x278D DUP3 PUSH2 0x1BE2 JUMP JUMPDEST SWAP2 POP PUSH2 0x2798 DUP4 PUSH2 0x1BE2 JUMP JUMPDEST SWAP3 POP DUP3 DUP3 SUB SWAP1 POP DUP2 DUP2 GT ISZERO PUSH2 0x27B0 JUMPI PUSH2 0x27AF PUSH2 0x23EB JUMP JUMPDEST JUMPDEST SWAP3 SWAP2 POP POP JUMP JUMPDEST PUSH0 PUSH1 0x40 DUP3 ADD SWAP1 POP PUSH2 0x27C9 PUSH0 DUP4 ADD DUP6 PUSH2 0x1F4D JUMP JUMPDEST PUSH2 0x27D6 PUSH1 0x20 DUP4 ADD DUP5 PUSH2 0x1F4D JUMP JUMPDEST SWAP4 SWAP3 POP POP POP JUMP JUMPDEST PUSH32 0x54686520766F74652073657373696F6E206973206E6F7420656E646564000000 PUSH0 DUP3 ADD MSTORE POP JUMP JUMPDEST PUSH0 PUSH2 0x2811 PUSH1 0x1D DUP4 PUSH2 0x1CF7 JUMP JUMPDEST SWAP2 POP PUSH2 0x281C DUP3 PUSH2 0x27DD JUMP JUMPDEST PUSH1 0x20 DUP3 ADD SWAP1 POP SWAP2 SWAP1 POP JUMP JUMPDEST PUSH0 PUSH1 0x20 DUP3 ADD SWAP1 POP DUP2 DUP2 SUB PUSH0 DUP4 ADD MSTORE PUSH2 0x283E DUP2 PUSH2 0x2805 JUMP JUMPDEST SWAP1 POP SWAP2 SWAP1 POP JUMP JUMPDEST PUSH32 0x5468657265206973206D6F7265207468616E20312077696E6E65722C20796F75 PUSH0 DUP3 ADD MSTORE PUSH32 0x206861766520746F20766F746500000000000000000000000000000000000000 PUSH1 0x20 DUP3 ADD MSTORE POP JUMP JUMPDEST PUSH0 PUSH2 0x289F PUSH1 0x2D DUP4 PUSH2 0x1CF7 JUMP JUMPDEST SWAP2 POP PUSH2 0x28AA DUP3 PUSH2 0x2845 JUMP JUMPDEST PUSH1 0x40 DUP3 ADD SWAP1 POP SWAP2 SWAP1 POP JUMP JUMPDEST PUSH0 PUSH1 0x20 DUP3 ADD SWAP1 POP DUP2 DUP2 SUB PUSH0 DUP4 ADD MSTORE PUSH2 0x28CC DUP2 PUSH2 0x2893 JUMP JUMPDEST SWAP1 POP SWAP2 SWAP1 POP JUMP JUMPDEST PUSH32 0x546869732061646472657373206973206E6F7420726567697374657265640000 PUSH0 DUP3 ADD MSTORE POP JUMP JUMPDEST PUSH0 PUSH2 0x2907 PUSH1 0x1E DUP4 PUSH2 0x1CF7 JUMP JUMPDEST SWAP2 POP PUSH2 0x2912 DUP3 PUSH2 0x28D3 JUMP JUMPDEST PUSH1 0x20 DUP3 ADD SWAP1 POP SWAP2 SWAP1 POP JUMP JUMPDEST PUSH0 PUSH1 0x20 DUP3 ADD SWAP1 POP DUP2 DUP2 SUB PUSH0 DUP4 ADD MSTORE PUSH2 0x2934 DUP2 PUSH2 0x28FB JUMP JUMPDEST SWAP1 POP SWAP2 SWAP1 POP JUMP JUMPDEST PUSH32 0x54686973206164647265737320686173206E6F7420766F746564000000000000 PUSH0 DUP3 ADD MSTORE POP JUMP JUMPDEST PUSH0 PUSH2 0x296F PUSH1 0x1A DUP4 PUSH2 0x1CF7 JUMP JUMPDEST SWAP2 POP PUSH2 0x297A DUP3 PUSH2 0x293B JUMP JUMPDEST PUSH1 0x20 DUP3 ADD SWAP1 POP SWAP2 SWAP1 POP JUMP JUMPDEST PUSH0 PUSH1 0x20 DUP3 ADD SWAP1 POP DUP2 DUP2 SUB PUSH0 DUP4 ADD MSTORE PUSH2 0x299C DUP2 PUSH2 0x2963 JUMP JUMPDEST SWAP1 POP SWAP2 SWAP1 POP JUMP JUMPDEST PUSH32 0x5468652070726F706F73616C2073657373696F6E206973206E6F742073746172 PUSH0 DUP3 ADD MSTORE PUSH32 0x7465640000000000000000000000000000000000000000000000000000000000 PUSH1 0x20 DUP3 ADD MSTORE POP JUMP JUMPDEST PUSH0 PUSH2 0x29FD PUSH1 0x23 DUP4 PUSH2 0x1CF7 JUMP JUMPDEST SWAP2 POP PUSH2 0x2A08 DUP3 PUSH2 0x29A3 JUMP JUMPDEST PUSH1 0x40 DUP3 ADD SWAP1 POP SWAP2 SWAP1 POP JUMP JUMPDEST PUSH0 PUSH1 0x20 DUP3 ADD SWAP1 POP DUP2 DUP2 SUB PUSH0 DUP4 ADD MSTORE PUSH2 0x2A2A DUP2 PUSH2 0x29F1 JUMP JUMPDEST SWAP1 POP SWAP2 SWAP1 POP JUMP JUMPDEST PUSH32 0x596F752061726520746865206F776E6572206F66207468697320636F6E747261 PUSH0 DUP3 ADD MSTORE PUSH32 0x63742C20796F752063616E206E6F742070726F706F7365000000000000000000 PUSH1 0x20 DUP3 ADD MSTORE POP JUMP JUMPDEST PUSH0 PUSH2 0x2A8B PUSH1 0x37 DUP4 PUSH2 0x1CF7 JUMP JUMPDEST SWAP2 POP PUSH2 0x2A96 DUP3 PUSH2 0x2A31 JUMP JUMPDEST PUSH1 0x40 DUP3 ADD SWAP1 POP SWAP2 SWAP1 POP JUMP JUMPDEST PUSH0 PUSH1 0x20 DUP3 ADD SWAP1 POP DUP2 DUP2 SUB PUSH0 DUP4 ADD MSTORE PUSH2 0x2AB8 DUP2 PUSH2 0x2A7F JUMP JUMPDEST SWAP1 POP SWAP2 SWAP1 POP JUMP JUMPDEST PUSH0 DUP2 SWAP1 POP DUP2 PUSH0 MSTORE PUSH1 0x20 PUSH0 KECCAK256 SWAP1 POP SWAP2 SWAP1 POP JUMP JUMPDEST PUSH0 PUSH1 0x20 PUSH1 0x1F DUP4 ADD DIV SWAP1 POP SWAP2 SWAP1 POP JUMP JUMPDEST PUSH0 DUP3 DUP3 SHL SWAP1 POP SWAP3 SWAP2 POP POP JUMP JUMPDEST PUSH0 PUSH1 0x8 DUP4 MUL PUSH2 0x2B1B PUSH32 0xFFFFFFFFFFFFFFFFFFFFFFFFFFFFFFFFFFFFFFFFFFFFFFFFFFFFFFFFFFFFFFFF DUP3 PUSH2 0x2AE0 JUMP JUMPDEST PUSH2 0x2B25 DUP7 DUP4 PUSH2 0x2AE0 JUMP JUMPDEST SWAP6 POP DUP1 NOT DUP5 AND SWAP4 POP DUP1 DUP7 AND DUP5 OR SWAP3 POP POP POP SWAP4 SWAP3 POP POP POP JUMP JUMPDEST PUSH0 DUP2 SWAP1 POP SWAP2 SWAP1 POP JUMP JUMPDEST PUSH0 PUSH2 0x2B60 PUSH2 0x2B5B PUSH2 0x2B56 DUP5 PUSH2 0x1BE2 JUMP JUMPDEST PUSH2 0x2B3D JUMP JUMPDEST PUSH2 0x1BE2 JUMP JUMPDEST SWAP1 POP SWAP2 SWAP1 POP JUMP JUMPDEST PUSH0 DUP2 SWAP1 POP SWAP2 SWAP1 POP JUMP JUMPDEST PUSH2 0x2B79 DUP4 PUSH2 0x2B46 JUMP JUMPDEST PUSH2 0x2B8D PUSH2 0x2B85 DUP3 PUSH2 0x2B67 JUMP JUMPDEST DUP5 DUP5 SLOAD PUSH2 0x2AEC JUMP JUMPDEST DUP3 SSTORE POP POP POP POP JUMP JUMPDEST PUSH0 PUSH0 SWAP1 POP SWAP1 JUMP JUMPDEST PUSH2 0x2BA4 PUSH2 0x2B95 JUMP JUMPDEST PUSH2 0x2BAF DUP2 DUP5 DUP5 PUSH2 0x2B70 JUMP JUMPDEST POP POP POP JUMP JUMPDEST JUMPDEST DUP2 DUP2 LT ISZERO PUSH2 0x2BD2 JUMPI PUSH2 0x2BC7 PUSH0 DUP3 PUSH2 0x2B9C JUMP JUMPDEST PUSH1 0x1 DUP2 ADD SWAP1 POP PUSH2 0x2BB5 JUMP JUMPDEST POP POP JUMP JUMPDEST PUSH1 0x1F DUP3 GT ISZERO PUSH2 0x2C17 JUMPI PUSH2 0x2BE8 DUP2 PUSH2 0x2ABF JUMP JUMPDEST PUSH2 0x2BF1 DUP5 PUSH2 0x2AD1 JUMP JUMPDEST DUP2 ADD PUSH1 0x20 DUP6 LT ISZERO PUSH2 0x2C00 JUMPI DUP2 SWAP1 POP JUMPDEST PUSH2 0x2C14 PUSH2 0x2C0C DUP6 PUSH2 0x2AD1 JUMP JUMPDEST DUP4 ADD DUP3 PUSH2 0x2BB4 JUMP JUMPDEST POP POP JUMPDEST POP POP POP JUMP JUMPDEST PUSH0 DUP3 DUP3 SHR SWAP1 POP SWAP3 SWAP2 POP POP JUMP JUMPDEST PUSH0 PUSH2 0x2C37 PUSH0 NOT DUP5 PUSH1 0x8 MUL PUSH2 0x2C1C JUMP JUMPDEST NOT DUP1 DUP4 AND SWAP2 POP POP SWAP3 SWAP2 POP POP JUMP JUMPDEST PUSH0 PUSH2 0x2C4F DUP4 DUP4 PUSH2 0x2C28 JUMP JUMPDEST SWAP2 POP DUP3 PUSH1 0x2 MUL DUP3 OR SWAP1 POP SWAP3 SWAP2 POP POP JUMP JUMPDEST PUSH2 0x2C68 DUP3 PUSH2 0x1CED JUMP JUMPDEST PUSH8 0xFFFFFFFFFFFFFFFF DUP2 GT ISZERO PUSH2 0x2C81 JUMPI PUSH2 0x2C80 PUSH2 0x1FFF JUMP JUMPDEST JUMPDEST PUSH2 0x2C8B DUP3 SLOAD PUSH2 0x2637 JUMP JUMPDEST PUSH2 0x2C96 DUP3 DUP3 DUP6 PUSH2 0x2BD6 JUMP JUMPDEST PUSH0 PUSH1 0x20 SWAP1 POP PUSH1 0x1F DUP4 GT PUSH1 0x1 DUP2 EQ PUSH2 0x2CC7 JUMPI PUSH0 DUP5 ISZERO PUSH2 0x2CB5 JUMPI DUP3 DUP8 ADD MLOAD SWAP1 POP JUMPDEST PUSH2 0x2CBF DUP6 DUP3 PUSH2 0x2C44 JUMP JUMPDEST DUP7 SSTORE POP PUSH2 0x2D26 JUMP JUMPDEST PUSH1 0x1F NOT DUP5 AND PUSH2 0x2CD5 DUP7 PUSH2 0x2ABF JUMP JUMPDEST PUSH0 JUMPDEST DUP3 DUP2 LT ISZERO PUSH2 0x2CFC JUMPI DUP5 DUP10 ADD MLOAD DUP3 SSTORE PUSH1 0x1 DUP3 ADD SWAP2 POP PUSH1 0x20 DUP6 ADD SWAP5 POP PUSH1 0x20 DUP2 ADD SWAP1 POP PUSH2 0x2CD7 JUMP JUMPDEST DUP7 DUP4 LT ISZERO PUSH2 0x2D19 JUMPI DUP5 DUP10 ADD MLOAD PUSH2 0x2D15 PUSH1 0x1F DUP10 AND DUP3 PUSH2 0x2C28 JUMP JUMPDEST DUP4 SSTORE POP JUMPDEST PUSH1 0x1 PUSH1 0x2 DUP9 MUL ADD DUP9 SSTORE POP POP POP JUMPDEST POP POP POP POP POP POP JUMP JUMPDEST PUSH32 0x5468652070726F706F73616C2073657373696F6E206973206E6F7420656E6465 PUSH0 DUP3 ADD MSTORE PUSH32 0x64206F722074686520766F74652073657373696F6E2068617320616C72656164 PUSH1 0x20 DUP3 ADD MSTORE PUSH32 0x7920737461727465640000000000000000000000000000000000000000000000 PUSH1 0x40 DUP3 ADD MSTORE POP JUMP JUMPDEST PUSH0 PUSH2 0x2DAE PUSH1 0x49 DUP4 PUSH2 0x1CF7 JUMP JUMPDEST SWAP2 POP PUSH2 0x2DB9 DUP3 PUSH2 0x2D2E JUMP JUMPDEST PUSH1 0x60 DUP3 ADD SWAP1 POP SWAP2 SWAP1 POP JUMP JUMPDEST PUSH0 PUSH1 0x20 DUP3 ADD SWAP1 POP DUP2 DUP2 SUB PUSH0 DUP4 ADD MSTORE PUSH2 0x2DDB DUP2 PUSH2 0x2DA2 JUMP JUMPDEST SWAP1 POP SWAP2 SWAP1 POP JUMP JUMPDEST PUSH32 0x5468652070726F706F73616C2073657373696F6E20686173206E6F7420737461 PUSH0 DUP3 ADD MSTORE PUSH32 0x72746564206F722068617320616C7265616479206265656E20656E6465640000 PUSH1 0x20 DUP3 ADD MSTORE POP JUMP JUMPDEST PUSH0 PUSH2 0x2E3C PUSH1 0x3E DUP4 PUSH2 0x1CF7 JUMP JUMPDEST SWAP2 POP PUSH2 0x2E47 DUP3 PUSH2 0x2DE2 JUMP JUMPDEST PUSH1 0x40 DUP3 ADD SWAP1 POP SWAP2 SWAP1 POP JUMP JUMPDEST PUSH0 PUSH1 0x20 DUP3 ADD SWAP1 POP DUP2 DUP2 SUB PUSH0 DUP4 ADD MSTORE PUSH2 0x2E69 DUP2 PUSH2 0x2E30 JUMP JUMPDEST SWAP1 POP SWAP2 SWAP1 POP JUMP JUMPDEST PUSH32 0x546865726520617265206E6F2070726F706F73616C7320726567697374657265 PUSH0 DUP3 ADD MSTORE PUSH32 0x6400000000000000000000000000000000000000000000000000000000000000 PUSH1 0x20 DUP3 ADD MSTORE POP JUMP JUMPDEST PUSH0 PUSH2 0x2ECA PUSH1 0x21 DUP4 PUSH2 0x1CF7 JUMP JUMPDEST SWAP2 POP PUSH2 0x2ED5 DUP3 PUSH2 0x2E70 JUMP JUMPDEST PUSH1 0x40 DUP3 ADD SWAP1 POP SWAP2 SWAP1 POP JUMP JUMPDEST PUSH0 PUSH1 0x20 DUP3 ADD SWAP1 POP DUP2 DUP2 SUB PUSH0 DUP4 ADD MSTORE PUSH2 0x2EF7 DUP2 PUSH2 0x2EBE JUMP JUMPDEST SWAP1 POP SWAP2 SWAP1 POP JUMP JUMPDEST PUSH32 0x54686520766F74652073657373696F6E20686173206E6F742073746172746564 PUSH0 DUP3 ADD MSTORE PUSH32 0x206F722068617320616C726561647920656E6465640000000000000000000000 PUSH1 0x20 DUP3 ADD MSTORE POP JUMP JUMPDEST PUSH0 PUSH2 0x2F58 PUSH1 0x35 DUP4 PUSH2 0x1CF7 JUMP JUMPDEST SWAP2 POP PUSH2 0x2F63 DUP3 PUSH2 0x2EFE JUMP JUMPDEST PUSH1 0x40 DUP3 ADD SWAP1 POP SWAP2 SWAP1 POP JUMP JUMPDEST PUSH0 PUSH1 0x20 DUP3 ADD SWAP1 POP DUP2 DUP2 SUB PUSH0 DUP4 ADD MSTORE PUSH2 0x2F85 DUP2 PUSH2 0x2F4C JUMP JUMPDEST SWAP1 POP SWAP2 SWAP1 POP JUMP JUMPDEST PUSH32 0x546865726520617265206E6F20766F7465207265676973746572656400000000 PUSH0 DUP3 ADD MSTORE POP JUMP JUMPDEST PUSH0 PUSH2 0x2FC0 PUSH1 0x1C DUP4 PUSH2 0x1CF7 JUMP JUMPDEST SWAP2 POP PUSH2 0x2FCB DUP3 PUSH2 0x2F8C JUMP JUMPDEST PUSH1 0x20 DUP3 ADD SWAP1 POP SWAP2 SWAP1 POP JUMP JUMPDEST PUSH0 PUSH1 0x20 DUP3 ADD SWAP1 POP DUP2 DUP2 SUB PUSH0 DUP4 ADD MSTORE PUSH2 0x2FED DUP2 PUSH2 0x2FB4 JUMP JUMPDEST SWAP1 POP SWAP2 SWAP1 POP JUMP INVALID LOG2 PUSH5 0x6970667358 0x22 SLT KECCAK256 PUSH5 0xE2D0BC004A 0x28 DUP15 0xEB SGT 0xE8 0xA9 0xE7 EXTCODEHASH 0x22 NUMBER DUP4 0xBC 0xAB 0xC9 0x1E EXTCODECOPY TIMESTAMP EXTCODEHASH 0x25 ISZERO KECCAK256 DUP13 PUSH23 0xED46B164736F6C634300081C0033000000000000000000 "
				},
				"gasEstimates": {
					"creation": {
						"codeDepositCost": "2466000",
						"executionCost": "infinite",
						"totalCost": "infinite"
					},
					"external": {
						"endProposalSession()": "infinite",
						"endVoteSession()": "infinite",
						"getCurrentStatus()": "2650",
						"getPreviousStatus()": "infinite",
						"getProposalCount()": "2484",
						"getProposals()": "infinite",
						"getVoteByAddress(address)": "infinite",
						"getVoteCountTotal()": "2520",
						"getVoteWinnerCount()": "2477",
						"getVoterCount()": "2478",
						"getWinnerCount()": "2543",
						"getWinnerProposal()": "infinite",
						"getWinnerProposalId()": "4665",
						"getWinner_proposaldescription()": "infinite",
						"owner()": "2537",
						"propose(string)": "infinite",
						"registerVoter(address)": "infinite",
						"renounceOwnership()": "infinite",
						"startProposalSession()": "infinite",
						"startVoteSession()": "infinite",
						"talliedVotes()": "infinite",
						"transferOwnership(address)": "infinite",
						"vote(uint256)": "infinite"
					},
					"internal": {
						"setWinnerProposal()": "infinite"
					}
				},
				"methodIdentifiers": {
					"endProposalSession()": "e06752c2",
					"endVoteSession()": "f74c168d",
					"getCurrentStatus()": "a3dd2619",
					"getPreviousStatus()": "65f88a7c",
					"getProposalCount()": "c08cc02d",
					"getProposals()": "62564c48",
					"getVoteByAddress(address)": "80525548",
					"getVoteCountTotal()": "e1ab86fb",
					"getVoteWinnerCount()": "9589dfcc",
					"getVoterCount()": "11174a29",
					"getWinnerCount()": "a46c3637",
					"getWinnerProposal()": "a3c1885b",
					"getWinnerProposalId()": "5bc46514",
					"getWinner_proposaldescription()": "43850c2d",
					"owner()": "8da5cb5b",
					"propose(string)": "aa98df39",
					"registerVoter(address)": "38db6dd3",
					"renounceOwnership()": "715018a6",
					"startProposalSession()": "50d072fc",
					"startVoteSession()": "aaa98346",
					"talliedVotes()": "67af2826",
					"transferOwnership(address)": "f2fde38b",
					"vote(uint256)": "0121b93f"
				}
			},
			"storageLayout": {
				"storage": [
					{
						"astId": 8,
						"contract": "contracts/Voting.sol:Voting",
						"label": "_owner",
						"offset": 0,
						"slot": "0",
						"type": "t_address"
					},
					{
						"astId": 199,
						"contract": "contracts/Voting.sol:Voting",
						"label": "whitelistVoter",
						"offset": 0,
						"slot": "1",
						"type": "t_mapping(t_address,t_struct(Voter)189_storage)"
					},
					{
						"astId": 203,
						"contract": "contracts/Voting.sol:Voting",
						"label": "proposals",
						"offset": 0,
						"slot": "2",
						"type": "t_array(t_struct(Proposal)194_storage)dyn_storage"
					},
					{
						"astId": 215,
						"contract": "contracts/Voting.sol:Voting",
						"label": "currentStatus",
						"offset": 0,
						"slot": "3",
						"type": "t_enum(WorkflowStatus)210"
					},
					{
						"astId": 217,
						"contract": "contracts/Voting.sol:Voting",
						"label": "winningProposalId",
						"offset": 0,
						"slot": "4",
						"type": "t_uint256"
					},
					{
						"astId": 219,
						"contract": "contracts/Voting.sol:Voting",
						"label": "voterCount",
						"offset": 0,
						"slot": "5",
						"type": "t_uint256"
					},
					{
						"astId": 221,
						"contract": "contracts/Voting.sol:Voting",
						"label": "voteCountTotal",
						"offset": 0,
						"slot": "6",
						"type": "t_uint256"
					},
					{
						"astId": 223,
						"contract": "contracts/Voting.sol:Voting",
						"label": "numberProposal",
						"offset": 0,
						"slot": "7",
						"type": "t_uint256"
					},
					{
						"astId": 225,
						"contract": "contracts/Voting.sol:Voting",
						"label": "winnerCount",
						"offset": 0,
						"slot": "8",
						"type": "t_uint256"
					},
					{
						"astId": 228,
						"contract": "contracts/Voting.sol:Voting",
						"label": "voteWinnerCount",
						"offset": 0,
						"slot": "9",
						"type": "t_uint256"
					}
				],
				"types": {
					"t_address": {
						"encoding": "inplace",
						"label": "address",
						"numberOfBytes": "20"
					},
					"t_array(t_struct(Proposal)194_storage)dyn_storage": {
						"base": "t_struct(Proposal)194_storage",
						"encoding": "dynamic_array",
						"label": "struct Voting.Proposal[]",
						"numberOfBytes": "32"
					},
					"t_bool": {
						"encoding": "inplace",
						"label": "bool",
						"numberOfBytes": "1"
					},
					"t_enum(WorkflowStatus)210": {
						"encoding": "inplace",
						"label": "enum Voting.WorkflowStatus",
						"numberOfBytes": "1"
					},
					"t_mapping(t_address,t_struct(Voter)189_storage)": {
						"encoding": "mapping",
						"key": "t_address",
						"label": "mapping(address => struct Voting.Voter)",
						"numberOfBytes": "32",
						"value": "t_struct(Voter)189_storage"
					},
					"t_string_storage": {
						"encoding": "bytes",
						"label": "string",
						"numberOfBytes": "32"
					},
					"t_struct(Proposal)194_storage": {
						"encoding": "inplace",
						"label": "struct Voting.Proposal",
						"members": [
							{
								"astId": 191,
								"contract": "contracts/Voting.sol:Voting",
								"label": "description",
								"offset": 0,
								"slot": "0",
								"type": "t_string_storage"
							},
							{
								"astId": 193,
								"contract": "contracts/Voting.sol:Voting",
								"label": "voteCount",
								"offset": 0,
								"slot": "1",
								"type": "t_uint256"
							}
						],
						"numberOfBytes": "64"
					},
					"t_struct(Voter)189_storage": {
						"encoding": "inplace",
						"label": "struct Voting.Voter",
						"members": [
							{
								"astId": 184,
								"contract": "contracts/Voting.sol:Voting",
								"label": "isRegistered",
								"offset": 0,
								"slot": "0",
								"type": "t_bool"
							},
							{
								"astId": 186,
								"contract": "contracts/Voting.sol:Voting",
								"label": "hasVoted",
								"offset": 1,
								"slot": "0",
								"type": "t_bool"
							},
							{
								"astId": 188,
								"contract": "contracts/Voting.sol:Voting",
								"label": "votedProposalId",
								"offset": 0,
								"slot": "1",
								"type": "t_uint256"
							}
						],
						"numberOfBytes": "64"
					},
					"t_uint256": {
						"encoding": "inplace",
						"label": "uint256",
						"numberOfBytes": "32"
					}
				}
			},
			"userdoc": {
				"kind": "user",
				"methods": {},
				"version": 1
			}
		}
	}
}